{
	"contracts/Soboro.sol": {
		"Soboro": {
			"abi": [
				{
					"inputs": [],
					"stateMutability": "nonpayable",
					"type": "constructor"
				},
				{
					"inputs": [
						{
							"internalType": "uint256",
							"name": "increasedSupply",
							"type": "uint256"
						},
						{
							"internalType": "uint256",
							"name": "cap",
							"type": "uint256"
						}
					],
					"name": "ERC20ExceededCap",
					"type": "error"
				},
				{
					"inputs": [
						{
							"internalType": "address",
							"name": "spender",
							"type": "address"
						},
						{
							"internalType": "uint256",
							"name": "allowance",
							"type": "uint256"
						},
						{
							"internalType": "uint256",
							"name": "needed",
							"type": "uint256"
						}
					],
					"name": "ERC20InsufficientAllowance",
					"type": "error"
				},
				{
					"inputs": [
						{
							"internalType": "address",
							"name": "sender",
							"type": "address"
						},
						{
							"internalType": "uint256",
							"name": "balance",
							"type": "uint256"
						},
						{
							"internalType": "uint256",
							"name": "needed",
							"type": "uint256"
						}
					],
					"name": "ERC20InsufficientBalance",
					"type": "error"
				},
				{
					"inputs": [
						{
							"internalType": "address",
							"name": "approver",
							"type": "address"
						}
					],
					"name": "ERC20InvalidApprover",
					"type": "error"
				},
				{
					"inputs": [
						{
							"internalType": "uint256",
							"name": "cap",
							"type": "uint256"
						}
					],
					"name": "ERC20InvalidCap",
					"type": "error"
				},
				{
					"inputs": [
						{
							"internalType": "address",
							"name": "receiver",
							"type": "address"
						}
					],
					"name": "ERC20InvalidReceiver",
					"type": "error"
				},
				{
					"inputs": [
						{
							"internalType": "address",
							"name": "sender",
							"type": "address"
						}
					],
					"name": "ERC20InvalidSender",
					"type": "error"
				},
				{
					"inputs": [
						{
							"internalType": "address",
							"name": "spender",
							"type": "address"
						}
					],
					"name": "ERC20InvalidSpender",
					"type": "error"
				},
				{
					"inputs": [
						{
							"internalType": "address",
							"name": "owner",
							"type": "address"
						}
					],
					"name": "OwnableInvalidOwner",
					"type": "error"
				},
				{
					"inputs": [
						{
							"internalType": "address",
							"name": "account",
							"type": "address"
						}
					],
					"name": "OwnableUnauthorizedAccount",
					"type": "error"
				},
				{
					"anonymous": false,
					"inputs": [
						{
							"indexed": true,
							"internalType": "address",
							"name": "owner",
							"type": "address"
						},
						{
							"indexed": true,
							"internalType": "address",
							"name": "spender",
							"type": "address"
						},
						{
							"indexed": false,
							"internalType": "uint256",
							"name": "value",
							"type": "uint256"
						}
					],
					"name": "Approval",
					"type": "event"
				},
				{
					"anonymous": false,
					"inputs": [
						{
							"indexed": true,
							"internalType": "address",
							"name": "previousOwner",
							"type": "address"
						},
						{
							"indexed": true,
							"internalType": "address",
							"name": "newOwner",
							"type": "address"
						}
					],
					"name": "OwnershipTransferred",
					"type": "event"
				},
				{
					"anonymous": false,
					"inputs": [
						{
							"indexed": true,
							"internalType": "address",
							"name": "from",
							"type": "address"
						},
						{
							"indexed": true,
							"internalType": "address",
							"name": "to",
							"type": "address"
						},
						{
							"indexed": false,
							"internalType": "uint256",
							"name": "value",
							"type": "uint256"
						}
					],
					"name": "Transfer",
					"type": "event"
				},
				{
					"inputs": [
						{
							"internalType": "address",
							"name": "owner",
							"type": "address"
						},
						{
							"internalType": "address",
							"name": "spender",
							"type": "address"
						}
					],
					"name": "allowance",
					"outputs": [
						{
							"internalType": "uint256",
							"name": "",
							"type": "uint256"
						}
					],
					"stateMutability": "view",
					"type": "function"
				},
				{
					"inputs": [
						{
							"internalType": "address",
							"name": "spender",
							"type": "address"
						},
						{
							"internalType": "uint256",
							"name": "value",
							"type": "uint256"
						}
					],
					"name": "approve",
					"outputs": [
						{
							"internalType": "bool",
							"name": "",
							"type": "bool"
						}
					],
					"stateMutability": "nonpayable",
					"type": "function"
				},
				{
					"inputs": [
						{
							"internalType": "address",
							"name": "account",
							"type": "address"
						}
					],
					"name": "balanceOf",
					"outputs": [
						{
							"internalType": "uint256",
							"name": "",
							"type": "uint256"
						}
					],
					"stateMutability": "view",
					"type": "function"
				},
				{
					"inputs": [
						{
							"internalType": "uint256",
							"name": "value",
							"type": "uint256"
						}
					],
					"name": "burn",
					"outputs": [],
					"stateMutability": "nonpayable",
					"type": "function"
				},
				{
					"inputs": [
						{
							"internalType": "address",
							"name": "account",
							"type": "address"
						},
						{
							"internalType": "uint256",
							"name": "value",
							"type": "uint256"
						}
					],
					"name": "burnFrom",
					"outputs": [],
					"stateMutability": "nonpayable",
					"type": "function"
				},
				{
					"inputs": [],
					"name": "cap",
					"outputs": [
						{
							"internalType": "uint256",
							"name": "",
							"type": "uint256"
						}
					],
					"stateMutability": "view",
					"type": "function"
				},
				{
					"inputs": [],
					"name": "createCrumbContract",
					"outputs": [],
					"stateMutability": "nonpayable",
					"type": "function"
				},
				{
					"inputs": [],
					"name": "decimals",
					"outputs": [
						{
							"internalType": "uint8",
							"name": "",
							"type": "uint8"
						}
					],
					"stateMutability": "view",
					"type": "function"
				},
				{
					"inputs": [],
					"name": "name",
					"outputs": [
						{
							"internalType": "string",
							"name": "",
							"type": "string"
						}
					],
					"stateMutability": "view",
					"type": "function"
				},
				{
					"inputs": [],
					"name": "owner",
					"outputs": [
						{
							"internalType": "address",
							"name": "",
							"type": "address"
						}
					],
					"stateMutability": "view",
					"type": "function"
				},
				{
					"inputs": [],
					"name": "renounceOwnership",
					"outputs": [],
					"stateMutability": "nonpayable",
					"type": "function"
				},
				{
					"inputs": [
						{
							"internalType": "string",
							"name": "_question",
							"type": "string"
						},
						{
							"internalType": "string[]",
							"name": "_options",
							"type": "string[]"
						},
						{
							"internalType": "bool",
							"name": "_initialActiveState",
							"type": "bool"
						}
					],
					"name": "requestSurveyCreationOnCrumb",
					"outputs": [],
					"stateMutability": "nonpayable",
					"type": "function"
				},
				{
					"inputs": [],
					"name": "symbol",
					"outputs": [
						{
							"internalType": "string",
							"name": "",
							"type": "string"
						}
					],
					"stateMutability": "view",
					"type": "function"
				},
				{
					"inputs": [],
					"name": "totalSupply",
					"outputs": [
						{
							"internalType": "uint256",
							"name": "",
							"type": "uint256"
						}
					],
					"stateMutability": "view",
					"type": "function"
				},
				{
					"inputs": [
						{
							"internalType": "address",
							"name": "to",
							"type": "address"
						},
						{
							"internalType": "uint256",
							"name": "value",
							"type": "uint256"
						}
					],
					"name": "transfer",
					"outputs": [
						{
							"internalType": "bool",
							"name": "",
							"type": "bool"
						}
					],
					"stateMutability": "nonpayable",
					"type": "function"
				},
				{
					"inputs": [
						{
							"internalType": "address",
							"name": "from",
							"type": "address"
						},
						{
							"internalType": "address",
							"name": "to",
							"type": "address"
						},
						{
							"internalType": "uint256",
							"name": "value",
							"type": "uint256"
						}
					],
					"name": "transferFrom",
					"outputs": [
						{
							"internalType": "bool",
							"name": "",
							"type": "bool"
						}
					],
					"stateMutability": "nonpayable",
					"type": "function"
				},
				{
					"inputs": [
						{
							"internalType": "address",
							"name": "newOwner",
							"type": "address"
						}
					],
					"name": "transferOwnership",
					"outputs": [],
					"stateMutability": "nonpayable",
					"type": "function"
				}
			],
			"devdoc": {
				"errors": {
					"ERC20ExceededCap(uint256,uint256)": [
						{
							"details": "Total supply cap has been exceeded."
						}
					],
					"ERC20InsufficientAllowance(address,uint256,uint256)": [
						{
							"details": "Indicates a failure with the `spender`’s `allowance`. Used in transfers.",
							"params": {
								"allowance": "Amount of tokens a `spender` is allowed to operate with.",
								"needed": "Minimum amount required to perform a transfer.",
								"spender": "Address that may be allowed to operate on tokens without being their owner."
							}
						}
					],
					"ERC20InsufficientBalance(address,uint256,uint256)": [
						{
							"details": "Indicates an error related to the current `balance` of a `sender`. Used in transfers.",
							"params": {
								"balance": "Current balance for the interacting account.",
								"needed": "Minimum amount required to perform a transfer.",
								"sender": "Address whose tokens are being transferred."
							}
						}
					],
					"ERC20InvalidApprover(address)": [
						{
							"details": "Indicates a failure with the `approver` of a token to be approved. Used in approvals.",
							"params": {
								"approver": "Address initiating an approval operation."
							}
						}
					],
					"ERC20InvalidCap(uint256)": [
						{
							"details": "The supplied cap is not a valid cap."
						}
					],
					"ERC20InvalidReceiver(address)": [
						{
							"details": "Indicates a failure with the token `receiver`. Used in transfers.",
							"params": {
								"receiver": "Address to which tokens are being transferred."
							}
						}
					],
					"ERC20InvalidSender(address)": [
						{
							"details": "Indicates a failure with the token `sender`. Used in transfers.",
							"params": {
								"sender": "Address whose tokens are being transferred."
							}
						}
					],
					"ERC20InvalidSpender(address)": [
						{
							"details": "Indicates a failure with the `spender` to be approved. Used in approvals.",
							"params": {
								"spender": "Address that may be allowed to operate on tokens without being their owner."
							}
						}
					],
					"OwnableInvalidOwner(address)": [
						{
							"details": "The owner is not a valid owner account. (eg. `address(0)`)"
						}
					],
					"OwnableUnauthorizedAccount(address)": [
						{
							"details": "The caller account is not authorized to perform an operation."
						}
					]
				},
				"events": {
					"Approval(address,address,uint256)": {
						"details": "Emitted when the allowance of a `spender` for an `owner` is set by a call to {approve}. `value` is the new allowance."
					},
					"Transfer(address,address,uint256)": {
						"details": "Emitted when `value` tokens are moved from one account (`from`) to another (`to`). Note that `value` may be zero."
					}
				},
				"kind": "dev",
				"methods": {
					"allowance(address,address)": {
						"details": "See {IERC20-allowance}."
					},
					"approve(address,uint256)": {
						"details": "See {IERC20-approve}. NOTE: If `value` is the maximum `uint256`, the allowance is not updated on `transferFrom`. This is semantically equivalent to an infinite approval. Requirements: - `spender` cannot be the zero address."
					},
					"balanceOf(address)": {
						"details": "See {IERC20-balanceOf}."
					},
					"burn(uint256)": {
						"details": "Destroys a `value` amount of tokens from the caller. See {ERC20-_burn}."
					},
					"burnFrom(address,uint256)": {
						"details": "Destroys a `value` amount of tokens from `account`, deducting from the caller's allowance. See {ERC20-_burn} and {ERC20-allowance}. Requirements: - the caller must have allowance for ``accounts``'s tokens of at least `value`."
					},
					"cap()": {
						"details": "Returns the cap on the token's total supply."
					},
					"decimals()": {
						"details": "Returns the number of decimals used to get its user representation. For example, if `decimals` equals `2`, a balance of `505` tokens should be displayed to a user as `5.05` (`505 / 10 ** 2`). Tokens usually opt for a value of 18, imitating the relationship between Ether and Wei. This is the default value returned by this function, unless it's overridden. NOTE: This information is only used for _display_ purposes: it in no way affects any of the arithmetic of the contract, including {IERC20-balanceOf} and {IERC20-transfer}."
					},
					"name()": {
						"details": "Returns the name of the token."
					},
					"owner()": {
						"details": "Returns the address of the current owner."
					},
					"renounceOwnership()": {
						"details": "Leaves the contract without owner. It will not be possible to call `onlyOwner` functions. Can only be called by the current owner. NOTE: Renouncing ownership will leave the contract without an owner, thereby disabling any functionality that is only available to the owner."
					},
					"symbol()": {
						"details": "Returns the symbol of the token, usually a shorter version of the name."
					},
					"totalSupply()": {
						"details": "See {IERC20-totalSupply}."
					},
					"transfer(address,uint256)": {
						"details": "See {IERC20-transfer}. Requirements: - `to` cannot be the zero address. - the caller must have a balance of at least `value`."
					},
					"transferFrom(address,address,uint256)": {
						"details": "See {IERC20-transferFrom}. Skips emitting an {Approval} event indicating an allowance update. This is not required by the ERC. See {xref-ERC20-_approve-address-address-uint256-bool-}[_approve]. NOTE: Does not update the allowance if the current allowance is the maximum `uint256`. Requirements: - `from` and `to` cannot be the zero address. - `from` must have a balance of at least `value`. - the caller must have allowance for ``from``'s tokens of at least `value`."
					},
					"transferOwnership(address)": {
						"details": "Transfers ownership of the contract to a new account (`newOwner`). Can only be called by the current owner."
					}
				},
				"version": 1
			},
			"evm": {
				"assembly": "    /* \"contracts/Soboro.sol\":421:1995  contract Soboro is ERC20, ERC20Capped, ERC20Burnable, Ownable {... */\n  mstore(0x40, 0xa0)\n    /* \"contracts/Soboro.sol\":705:706  0 */\n  0x00\n    /* \"contracts/Soboro.sol\":679:706  uint private crumbGenID = 0 */\n  0x07\n  sstore\n    /* \"contracts/Soboro.sol\":746:748  50 */\n  0x32\n    /* \"contracts/Soboro.sol\":712:748  uint private maxSurveysPerCrumb = 50 */\n  0x08\n  sstore\n    /* \"contracts/Soboro.sol\":784:906  constructor() ERC20(\"Soboro\", \"SBR\") ERC20Capped(MAX_SUPPLY) Ownable(msg.sender) {... */\n  callvalue\n  dup1\n  iszero\n  tag_1\n  jumpi\n  0x00\n  dup1\n  revert\ntag_1:\n  pop\n    /* \"contracts/Soboro.sol\":853:863  msg.sender */\n  caller\n    /* \"contracts/Soboro.sol\":620:626  10**11 */\n  0x174876e800\n    /* \"@openzeppelin/contracts/token/ERC20/ERC20.sol\":1582:1695  constructor(string memory name_, string memory symbol_) {... */\n  mload(0x40)\n  dup1\n  0x40\n  add\n  0x40\n  mstore\n  dup1\n  0x06\n  dup2\n  mstore\n  0x20\n  add\n  0x536f626f726f0000000000000000000000000000000000000000000000000000\n  dup2\n  mstore\n  pop\n  mload(0x40)\n  dup1\n  0x40\n  add\n  0x40\n  mstore\n  dup1\n  0x03\n  dup2\n  mstore\n  0x20\n  add\n  0x5342520000000000000000000000000000000000000000000000000000000000\n  dup2\n  mstore\n  pop\n    /* \"@openzeppelin/contracts/token/ERC20/ERC20.sol\":1656:1661  name_ */\n  dup2\n    /* \"@openzeppelin/contracts/token/ERC20/ERC20.sol\":1648:1653  _name */\n  0x03\n    /* \"@openzeppelin/contracts/token/ERC20/ERC20.sol\":1648:1661  _name = name_ */\n  swap1\n  dup2\n  tag_7\n  swap2\n  swap1\n  tag_8\n  jump\t// in\ntag_7:\n  pop\n    /* \"@openzeppelin/contracts/token/ERC20/ERC20.sol\":1681:1688  symbol_ */\n  dup1\n    /* \"@openzeppelin/contracts/token/ERC20/ERC20.sol\":1671:1678  _symbol */\n  0x04\n    /* \"@openzeppelin/contracts/token/ERC20/ERC20.sol\":1671:1688  _symbol = symbol_ */\n  swap1\n  dup2\n  tag_9\n  swap2\n  swap1\n  tag_8\n  jump\t// in\ntag_9:\n  pop\n    /* \"@openzeppelin/contracts/token/ERC20/ERC20.sol\":1582:1695  constructor(string memory name_, string memory symbol_) {... */\n  pop\n  pop\n    /* \"@openzeppelin/contracts/token/ERC20/extensions/ERC20Capped.sol\":764:765  0 */\n  0x00\n    /* \"@openzeppelin/contracts/token/ERC20/extensions/ERC20Capped.sol\":756:760  cap_ */\n  dup2\n    /* \"@openzeppelin/contracts/token/ERC20/extensions/ERC20Capped.sol\":756:765  cap_ == 0 */\n  sub\n    /* \"@openzeppelin/contracts/token/ERC20/extensions/ERC20Capped.sol\":752:817  if (cap_ == 0) {... */\n  tag_11\n  jumpi\n    /* \"@openzeppelin/contracts/token/ERC20/extensions/ERC20Capped.sol\":804:805  0 */\n  0x00\n    /* \"@openzeppelin/contracts/token/ERC20/extensions/ERC20Capped.sol\":788:806  ERC20InvalidCap(0) */\n  mload(0x40)\n  0x392e1e2700000000000000000000000000000000000000000000000000000000\n  dup2\n  mstore\n  0x04\n  add\n  tag_12\n  swap2\n  swap1\n  tag_13\n  jump\t// in\ntag_12:\n  mload(0x40)\n  dup1\n  swap2\n  sub\n  swap1\n  revert\n    /* \"@openzeppelin/contracts/token/ERC20/extensions/ERC20Capped.sol\":752:817  if (cap_ == 0) {... */\ntag_11:\n    /* \"@openzeppelin/contracts/token/ERC20/extensions/ERC20Capped.sol\":833:837  cap_ */\n  dup1\n    /* \"@openzeppelin/contracts/token/ERC20/extensions/ERC20Capped.sol\":826:837  _cap = cap_ */\n  0x80\n  dup2\n  dup2\n  mstore\n  pop\n  pop\n    /* \"@openzeppelin/contracts/token/ERC20/extensions/ERC20Capped.sol\":716:844  constructor(uint256 cap_) {... */\n  pop\n    /* \"@openzeppelin/contracts/access/Ownable.sol\":1297:1298  0 */\n  0x00\n    /* \"@openzeppelin/contracts/access/Ownable.sol\":1273:1299  initialOwner == address(0) */\n  0xffffffffffffffffffffffffffffffffffffffff\n  and\n    /* \"@openzeppelin/contracts/access/Ownable.sol\":1273:1285  initialOwner */\n  dup2\n    /* \"@openzeppelin/contracts/access/Ownable.sol\":1273:1299  initialOwner == address(0) */\n  0xffffffffffffffffffffffffffffffffffffffff\n  and\n  sub\n    /* \"@openzeppelin/contracts/access/Ownable.sol\":1269:1364  if (initialOwner == address(0)) {... */\n  tag_15\n  jumpi\n    /* \"@openzeppelin/contracts/access/Ownable.sol\":1350:1351  0 */\n  0x00\n    /* \"@openzeppelin/contracts/access/Ownable.sol\":1322:1353  OwnableInvalidOwner(address(0)) */\n  mload(0x40)\n  0x1e4fbdf700000000000000000000000000000000000000000000000000000000\n  dup2\n  mstore\n  0x04\n  add\n  tag_16\n  swap2\n  swap1\n  tag_17\n  jump\t// in\ntag_16:\n  mload(0x40)\n  dup1\n  swap2\n  sub\n  swap1\n  revert\n    /* \"@openzeppelin/contracts/access/Ownable.sol\":1269:1364  if (initialOwner == address(0)) {... */\ntag_15:\n    /* \"@openzeppelin/contracts/access/Ownable.sol\":1373:1405  _transferOwnership(initialOwner) */\n  tag_18\n    /* \"@openzeppelin/contracts/access/Ownable.sol\":1392:1404  initialOwner */\n  dup2\n    /* \"@openzeppelin/contracts/access/Ownable.sol\":1373:1391  _transferOwnership */\n  shl(0x20, tag_19)\n    /* \"@openzeppelin/contracts/access/Ownable.sol\":1373:1405  _transferOwnership(initialOwner) */\n  0x20\n  shr\n  jump\t// in\ntag_18:\n    /* \"@openzeppelin/contracts/access/Ownable.sol\":1225:1412  constructor(address initialOwner) {... */\n  pop\n    /* \"contracts/Soboro.sol\":875:899  _mint(msg.sender, 10**5) */\n  tag_21\n    /* \"contracts/Soboro.sol\":881:891  msg.sender */\n  caller\n    /* \"contracts/Soboro.sol\":893:898  10**5 */\n  0x0186a0\n    /* \"contracts/Soboro.sol\":875:880  _mint */\n  shl(0x20, tag_22)\n    /* \"contracts/Soboro.sol\":875:899  _mint(msg.sender, 10**5) */\n  0x20\n  shr\n  jump\t// in\ntag_21:\n    /* \"contracts/Soboro.sol\":421:1995  contract Soboro is ERC20, ERC20Capped, ERC20Burnable, Ownable {... */\n  jump(tag_23)\n    /* \"@openzeppelin/contracts/access/Ownable.sol\":2912:3099  function _transferOwnership(address newOwner) internal virtual {... */\ntag_19:\n    /* \"@openzeppelin/contracts/access/Ownable.sol\":2985:3001  address oldOwner */\n  0x00\n    /* \"@openzeppelin/contracts/access/Ownable.sol\":3004:3010  _owner */\n  0x05\n  0x00\n  swap1\n  sload\n  swap1\n  0x0100\n  exp\n  swap1\n  div\n  0xffffffffffffffffffffffffffffffffffffffff\n  and\n    /* \"@openzeppelin/contracts/access/Ownable.sol\":2985:3010  address oldOwner = _owner */\n  swap1\n  pop\n    /* \"@openzeppelin/contracts/access/Ownable.sol\":3029:3037  newOwner */\n  dup2\n    /* \"@openzeppelin/contracts/access/Ownable.sol\":3020:3026  _owner */\n  0x05\n  0x00\n    /* \"@openzeppelin/contracts/access/Ownable.sol\":3020:3037  _owner = newOwner */\n  0x0100\n  exp\n  dup2\n  sload\n  dup2\n  0xffffffffffffffffffffffffffffffffffffffff\n  mul\n  not\n  and\n  swap1\n  dup4\n  0xffffffffffffffffffffffffffffffffffffffff\n  and\n  mul\n  or\n  swap1\n  sstore\n  pop\n    /* \"@openzeppelin/contracts/access/Ownable.sol\":3083:3091  newOwner */\n  dup2\n    /* \"@openzeppelin/contracts/access/Ownable.sol\":3052:3092  OwnershipTransferred(oldOwner, newOwner) */\n  0xffffffffffffffffffffffffffffffffffffffff\n  and\n    /* \"@openzeppelin/contracts/access/Ownable.sol\":3073:3081  oldOwner */\n  dup2\n    /* \"@openzeppelin/contracts/access/Ownable.sol\":3052:3092  OwnershipTransferred(oldOwner, newOwner) */\n  0xffffffffffffffffffffffffffffffffffffffff\n  and\n  0x8be0079c531659141344cd1fd0a4f28419497f9722a3daafe3b4186f6b6457e0\n  mload(0x40)\n  mload(0x40)\n  dup1\n  swap2\n  sub\n  swap1\n  log3\n    /* \"@openzeppelin/contracts/access/Ownable.sol\":2975:3099  {... */\n  pop\n    /* \"@openzeppelin/contracts/access/Ownable.sol\":2912:3099  function _transferOwnership(address newOwner) internal virtual {... */\n  pop\n  jump\t// out\n    /* \"@openzeppelin/contracts/token/ERC20/ERC20.sol\":7439:7647  function _mint(address account, uint256 value) internal {... */\ntag_22:\n    /* \"@openzeppelin/contracts/token/ERC20/ERC20.sol\":7528:7529  0 */\n  0x00\n    /* \"@openzeppelin/contracts/token/ERC20/ERC20.sol\":7509:7530  account == address(0) */\n  0xffffffffffffffffffffffffffffffffffffffff\n  and\n    /* \"@openzeppelin/contracts/token/ERC20/ERC20.sol\":7509:7516  account */\n  dup3\n    /* \"@openzeppelin/contracts/token/ERC20/ERC20.sol\":7509:7530  account == address(0) */\n  0xffffffffffffffffffffffffffffffffffffffff\n  and\n  sub\n    /* \"@openzeppelin/contracts/token/ERC20/ERC20.sol\":7505:7596  if (account == address(0)) {... */\n  tag_26\n  jumpi\n    /* \"@openzeppelin/contracts/token/ERC20/ERC20.sol\":7582:7583  0 */\n  0x00\n    /* \"@openzeppelin/contracts/token/ERC20/ERC20.sol\":7553:7585  ERC20InvalidReceiver(address(0)) */\n  mload(0x40)\n  0xec442f0500000000000000000000000000000000000000000000000000000000\n  dup2\n  mstore\n  0x04\n  add\n  tag_27\n  swap2\n  swap1\n  tag_17\n  jump\t// in\ntag_27:\n  mload(0x40)\n  dup1\n  swap2\n  sub\n  swap1\n  revert\n    /* \"@openzeppelin/contracts/token/ERC20/ERC20.sol\":7505:7596  if (account == address(0)) {... */\ntag_26:\n    /* \"@openzeppelin/contracts/token/ERC20/ERC20.sol\":7605:7640  _update(address(0), account, value) */\n  tag_28\n    /* \"@openzeppelin/contracts/token/ERC20/ERC20.sol\":7621:7622  0 */\n  0x00\n    /* \"@openzeppelin/contracts/token/ERC20/ERC20.sol\":7625:7632  account */\n  dup4\n    /* \"@openzeppelin/contracts/token/ERC20/ERC20.sol\":7634:7639  value */\n  dup4\n    /* \"@openzeppelin/contracts/token/ERC20/ERC20.sol\":7605:7612  _update */\n  shl(0x20, tag_29)\n    /* \"@openzeppelin/contracts/token/ERC20/ERC20.sol\":7605:7640  _update(address(0), account, value) */\n  0x20\n  shr\n  jump\t// in\ntag_28:\n    /* \"@openzeppelin/contracts/token/ERC20/ERC20.sol\":7439:7647  function _mint(address account, uint256 value) internal {... */\n  pop\n  pop\n  jump\t// out\n    /* \"contracts/Soboro.sol\":912:1055  function _update(address from, address to, uint256 value) internal override(ERC20, ERC20Capped) {... */\ntag_29:\n    /* \"contracts/Soboro.sol\":1018:1048  super._update(from, to, value) */\n  tag_31\n    /* \"contracts/Soboro.sol\":1032:1036  from */\n  dup4\n    /* \"contracts/Soboro.sol\":1038:1040  to */\n  dup4\n    /* \"contracts/Soboro.sol\":1042:1047  value */\n  dup4\n    /* \"contracts/Soboro.sol\":1018:1031  super._update */\n  shl(0x20, tag_32)\n    /* \"contracts/Soboro.sol\":1018:1048  super._update(from, to, value) */\n  0x20\n  shr\n  jump\t// in\ntag_31:\n    /* \"contracts/Soboro.sol\":912:1055  function _update(address from, address to, uint256 value) internal override(ERC20, ERC20Capped) {... */\n  pop\n  pop\n  pop\n  jump\t// out\n    /* \"@openzeppelin/contracts/token/ERC20/extensions/ERC20Capped.sol\":1059:1430  function _update(address from, address to, uint256 value) internal virtual override {... */\ntag_32:\n    /* \"@openzeppelin/contracts/token/ERC20/extensions/ERC20Capped.sol\":1153:1183  super._update(from, to, value) */\n  tag_34\n    /* \"@openzeppelin/contracts/token/ERC20/extensions/ERC20Capped.sol\":1167:1171  from */\n  dup4\n    /* \"@openzeppelin/contracts/token/ERC20/extensions/ERC20Capped.sol\":1173:1175  to */\n  dup4\n    /* \"@openzeppelin/contracts/token/ERC20/extensions/ERC20Capped.sol\":1177:1182  value */\n  dup4\n    /* \"@openzeppelin/contracts/token/ERC20/extensions/ERC20Capped.sol\":1153:1166  super._update */\n  shl(0x20, tag_35)\n    /* \"@openzeppelin/contracts/token/ERC20/extensions/ERC20Capped.sol\":1153:1183  super._update(from, to, value) */\n  0x20\n  shr\n  jump\t// in\ntag_34:\n    /* \"@openzeppelin/contracts/token/ERC20/extensions/ERC20Capped.sol\":1214:1215  0 */\n  0x00\n    /* \"@openzeppelin/contracts/token/ERC20/extensions/ERC20Capped.sol\":1198:1216  from == address(0) */\n  0xffffffffffffffffffffffffffffffffffffffff\n  and\n    /* \"@openzeppelin/contracts/token/ERC20/extensions/ERC20Capped.sol\":1198:1202  from */\n  dup4\n    /* \"@openzeppelin/contracts/token/ERC20/extensions/ERC20Capped.sol\":1198:1216  from == address(0) */\n  0xffffffffffffffffffffffffffffffffffffffff\n  and\n  sub\n    /* \"@openzeppelin/contracts/token/ERC20/extensions/ERC20Capped.sol\":1194:1424  if (from == address(0)) {... */\n  tag_36\n  jumpi\n    /* \"@openzeppelin/contracts/token/ERC20/extensions/ERC20Capped.sol\":1232:1249  uint256 maxSupply */\n  0x00\n    /* \"@openzeppelin/contracts/token/ERC20/extensions/ERC20Capped.sol\":1252:1257  cap() */\n  tag_37\n    /* \"@openzeppelin/contracts/token/ERC20/extensions/ERC20Capped.sol\":1252:1255  cap */\n  shl(0x20, tag_38)\n    /* \"@openzeppelin/contracts/token/ERC20/extensions/ERC20Capped.sol\":1252:1257  cap() */\n  0x20\n  shr\n  jump\t// in\ntag_37:\n    /* \"@openzeppelin/contracts/token/ERC20/extensions/ERC20Capped.sol\":1232:1257  uint256 maxSupply = cap() */\n  swap1\n  pop\n    /* \"@openzeppelin/contracts/token/ERC20/extensions/ERC20Capped.sol\":1271:1285  uint256 supply */\n  0x00\n    /* \"@openzeppelin/contracts/token/ERC20/extensions/ERC20Capped.sol\":1288:1301  totalSupply() */\n  tag_39\n    /* \"@openzeppelin/contracts/token/ERC20/extensions/ERC20Capped.sol\":1288:1299  totalSupply */\n  shl(0x20, tag_40)\n    /* \"@openzeppelin/contracts/token/ERC20/extensions/ERC20Capped.sol\":1288:1301  totalSupply() */\n  0x20\n  shr\n  jump\t// in\ntag_39:\n    /* \"@openzeppelin/contracts/token/ERC20/extensions/ERC20Capped.sol\":1271:1301  uint256 supply = totalSupply() */\n  swap1\n  pop\n    /* \"@openzeppelin/contracts/token/ERC20/extensions/ERC20Capped.sol\":1328:1337  maxSupply */\n  dup2\n    /* \"@openzeppelin/contracts/token/ERC20/extensions/ERC20Capped.sol\":1319:1325  supply */\n  dup2\n    /* \"@openzeppelin/contracts/token/ERC20/extensions/ERC20Capped.sol\":1319:1337  supply > maxSupply */\n  gt\n    /* \"@openzeppelin/contracts/token/ERC20/extensions/ERC20Capped.sol\":1315:1414  if (supply > maxSupply) {... */\n  iszero\n  tag_41\n  jumpi\n    /* \"@openzeppelin/contracts/token/ERC20/extensions/ERC20Capped.sol\":1381:1387  supply */\n  dup1\n    /* \"@openzeppelin/contracts/token/ERC20/extensions/ERC20Capped.sol\":1389:1398  maxSupply */\n  dup3\n    /* \"@openzeppelin/contracts/token/ERC20/extensions/ERC20Capped.sol\":1364:1399  ERC20ExceededCap(supply, maxSupply) */\n  mload(0x40)\n  0x9e79f85400000000000000000000000000000000000000000000000000000000\n  dup2\n  mstore\n  0x04\n  add\n  tag_42\n  swap3\n  swap2\n  swap1\n  tag_43\n  jump\t// in\ntag_42:\n  mload(0x40)\n  dup1\n  swap2\n  sub\n  swap1\n  revert\n    /* \"@openzeppelin/contracts/token/ERC20/extensions/ERC20Capped.sol\":1315:1414  if (supply > maxSupply) {... */\ntag_41:\n    /* \"@openzeppelin/contracts/token/ERC20/extensions/ERC20Capped.sol\":1218:1424  {... */\n  pop\n  pop\n    /* \"@openzeppelin/contracts/token/ERC20/extensions/ERC20Capped.sol\":1194:1424  if (from == address(0)) {... */\ntag_36:\n    /* \"@openzeppelin/contracts/token/ERC20/extensions/ERC20Capped.sol\":1059:1430  function _update(address from, address to, uint256 value) internal virtual override {... */\n  pop\n  pop\n  pop\n  jump\t// out\n    /* \"@openzeppelin/contracts/token/ERC20/ERC20.sol\":5989:7096  function _update(address from, address to, uint256 value) internal virtual {... */\ntag_35:\n    /* \"@openzeppelin/contracts/token/ERC20/ERC20.sol\":6094:6095  0 */\n  0x00\n    /* \"@openzeppelin/contracts/token/ERC20/ERC20.sol\":6078:6096  from == address(0) */\n  0xffffffffffffffffffffffffffffffffffffffff\n  and\n    /* \"@openzeppelin/contracts/token/ERC20/ERC20.sol\":6078:6082  from */\n  dup4\n    /* \"@openzeppelin/contracts/token/ERC20/ERC20.sol\":6078:6096  from == address(0) */\n  0xffffffffffffffffffffffffffffffffffffffff\n  and\n  sub\n    /* \"@openzeppelin/contracts/token/ERC20/ERC20.sol\":6074:6614  if (from == address(0)) {... */\n  tag_45\n  jumpi\n    /* \"@openzeppelin/contracts/token/ERC20/ERC20.sol\":6230:6235  value */\n  dup1\n    /* \"@openzeppelin/contracts/token/ERC20/ERC20.sol\":6214:6226  _totalSupply */\n  0x02\n  0x00\n    /* \"@openzeppelin/contracts/token/ERC20/ERC20.sol\":6214:6235  _totalSupply += value */\n  dup3\n  dup3\n  sload\n  tag_46\n  swap2\n  swap1\n  tag_47\n  jump\t// in\ntag_46:\n  swap3\n  pop\n  pop\n  dup2\n  swap1\n  sstore\n  pop\n    /* \"@openzeppelin/contracts/token/ERC20/ERC20.sol\":6074:6614  if (from == address(0)) {... */\n  jump(tag_48)\ntag_45:\n    /* \"@openzeppelin/contracts/token/ERC20/ERC20.sol\":6266:6285  uint256 fromBalance */\n  0x00\n    /* \"@openzeppelin/contracts/token/ERC20/ERC20.sol\":6288:6297  _balances */\n  dup1\n    /* \"@openzeppelin/contracts/token/ERC20/ERC20.sol\":6288:6303  _balances[from] */\n  0x00\n    /* \"@openzeppelin/contracts/token/ERC20/ERC20.sol\":6298:6302  from */\n  dup6\n    /* \"@openzeppelin/contracts/token/ERC20/ERC20.sol\":6288:6303  _balances[from] */\n  0xffffffffffffffffffffffffffffffffffffffff\n  and\n  0xffffffffffffffffffffffffffffffffffffffff\n  and\n  dup2\n  mstore\n  0x20\n  add\n  swap1\n  dup2\n  mstore\n  0x20\n  add\n  0x00\n  keccak256\n  sload\n    /* \"@openzeppelin/contracts/token/ERC20/ERC20.sol\":6266:6303  uint256 fromBalance = _balances[from] */\n  swap1\n  pop\n    /* \"@openzeppelin/contracts/token/ERC20/ERC20.sol\":6335:6340  value */\n  dup2\n    /* \"@openzeppelin/contracts/token/ERC20/ERC20.sol\":6321:6332  fromBalance */\n  dup2\n    /* \"@openzeppelin/contracts/token/ERC20/ERC20.sol\":6321:6340  fromBalance < value */\n  lt\n    /* \"@openzeppelin/contracts/token/ERC20/ERC20.sol\":6317:6432  if (fromBalance < value) {... */\n  iszero\n  tag_49\n  jumpi\n    /* \"@openzeppelin/contracts/token/ERC20/ERC20.sol\":6392:6396  from */\n  dup4\n    /* \"@openzeppelin/contracts/token/ERC20/ERC20.sol\":6398:6409  fromBalance */\n  dup2\n    /* \"@openzeppelin/contracts/token/ERC20/ERC20.sol\":6411:6416  value */\n  dup4\n    /* \"@openzeppelin/contracts/token/ERC20/ERC20.sol\":6367:6417  ERC20InsufficientBalance(from, fromBalance, value) */\n  mload(0x40)\n  0xe450d38c00000000000000000000000000000000000000000000000000000000\n  dup2\n  mstore\n  0x04\n  add\n  tag_50\n  swap4\n  swap3\n  swap2\n  swap1\n  tag_51\n  jump\t// in\ntag_50:\n  mload(0x40)\n  dup1\n  swap2\n  sub\n  swap1\n  revert\n    /* \"@openzeppelin/contracts/token/ERC20/ERC20.sol\":6317:6432  if (fromBalance < value) {... */\ntag_49:\n    /* \"@openzeppelin/contracts/token/ERC20/ERC20.sol\":6584:6589  value */\n  dup2\n    /* \"@openzeppelin/contracts/token/ERC20/ERC20.sol\":6570:6581  fromBalance */\n  dup2\n    /* \"@openzeppelin/contracts/token/ERC20/ERC20.sol\":6570:6589  fromBalance - value */\n  sub\n    /* \"@openzeppelin/contracts/token/ERC20/ERC20.sol\":6552:6561  _balances */\n  0x00\n    /* \"@openzeppelin/contracts/token/ERC20/ERC20.sol\":6552:6567  _balances[from] */\n  dup1\n    /* \"@openzeppelin/contracts/token/ERC20/ERC20.sol\":6562:6566  from */\n  dup7\n    /* \"@openzeppelin/contracts/token/ERC20/ERC20.sol\":6552:6567  _balances[from] */\n  0xffffffffffffffffffffffffffffffffffffffff\n  and\n  0xffffffffffffffffffffffffffffffffffffffff\n  and\n  dup2\n  mstore\n  0x20\n  add\n  swap1\n  dup2\n  mstore\n  0x20\n  add\n  0x00\n  keccak256\n    /* \"@openzeppelin/contracts/token/ERC20/ERC20.sol\":6552:6589  _balances[from] = fromBalance - value */\n  dup2\n  swap1\n  sstore\n  pop\n    /* \"@openzeppelin/contracts/token/ERC20/ERC20.sol\":6252:6614  {... */\n  pop\n    /* \"@openzeppelin/contracts/token/ERC20/ERC20.sol\":6074:6614  if (from == address(0)) {... */\ntag_48:\n    /* \"@openzeppelin/contracts/token/ERC20/ERC20.sol\":6642:6643  0 */\n  0x00\n    /* \"@openzeppelin/contracts/token/ERC20/ERC20.sol\":6628:6644  to == address(0) */\n  0xffffffffffffffffffffffffffffffffffffffff\n  and\n    /* \"@openzeppelin/contracts/token/ERC20/ERC20.sol\":6628:6630  to */\n  dup3\n    /* \"@openzeppelin/contracts/token/ERC20/ERC20.sol\":6628:6644  to == address(0) */\n  0xffffffffffffffffffffffffffffffffffffffff\n  and\n  sub\n    /* \"@openzeppelin/contracts/token/ERC20/ERC20.sol\":6624:7049  if (to == address(0)) {... */\n  tag_52\n  jumpi\n    /* \"@openzeppelin/contracts/token/ERC20/ERC20.sol\":6807:6812  value */\n  dup1\n    /* \"@openzeppelin/contracts/token/ERC20/ERC20.sol\":6791:6803  _totalSupply */\n  0x02\n  0x00\n    /* \"@openzeppelin/contracts/token/ERC20/ERC20.sol\":6791:6812  _totalSupply -= value */\n  dup3\n  dup3\n  sload\n  sub\n  swap3\n  pop\n  pop\n  dup2\n  swap1\n  sstore\n  pop\n    /* \"@openzeppelin/contracts/token/ERC20/ERC20.sol\":6624:7049  if (to == address(0)) {... */\n  jump(tag_53)\ntag_52:\n    /* \"@openzeppelin/contracts/token/ERC20/ERC20.sol\":7019:7024  value */\n  dup1\n    /* \"@openzeppelin/contracts/token/ERC20/ERC20.sol\":7002:7011  _balances */\n  0x00\n    /* \"@openzeppelin/contracts/token/ERC20/ERC20.sol\":7002:7015  _balances[to] */\n  dup1\n    /* \"@openzeppelin/contracts/token/ERC20/ERC20.sol\":7012:7014  to */\n  dup5\n    /* \"@openzeppelin/contracts/token/ERC20/ERC20.sol\":7002:7015  _balances[to] */\n  0xffffffffffffffffffffffffffffffffffffffff\n  and\n  0xffffffffffffffffffffffffffffffffffffffff\n  and\n  dup2\n  mstore\n  0x20\n  add\n  swap1\n  dup2\n  mstore\n  0x20\n  add\n  0x00\n  keccak256\n  0x00\n    /* \"@openzeppelin/contracts/token/ERC20/ERC20.sol\":7002:7024  _balances[to] += value */\n  dup3\n  dup3\n  sload\n  add\n  swap3\n  pop\n  pop\n  dup2\n  swap1\n  sstore\n  pop\n    /* \"@openzeppelin/contracts/token/ERC20/ERC20.sol\":6624:7049  if (to == address(0)) {... */\ntag_53:\n    /* \"@openzeppelin/contracts/token/ERC20/ERC20.sol\":7079:7081  to */\n  dup2\n    /* \"@openzeppelin/contracts/token/ERC20/ERC20.sol\":7064:7089  Transfer(from, to, value) */\n  0xffffffffffffffffffffffffffffffffffffffff\n  and\n    /* \"@openzeppelin/contracts/token/ERC20/ERC20.sol\":7073:7077  from */\n  dup4\n    /* \"@openzeppelin/contracts/token/ERC20/ERC20.sol\":7064:7089  Transfer(from, to, value) */\n  0xffffffffffffffffffffffffffffffffffffffff\n  and\n  0xddf252ad1be2c89b69c2b068fc378daa952ba7f163c4a11628f55a4df523b3ef\n    /* \"@openzeppelin/contracts/token/ERC20/ERC20.sol\":7083:7088  value */\n  dup4\n    /* \"@openzeppelin/contracts/token/ERC20/ERC20.sol\":7064:7089  Transfer(from, to, value) */\n  mload(0x40)\n  tag_54\n  swap2\n  swap1\n  tag_55\n  jump\t// in\ntag_54:\n  mload(0x40)\n  dup1\n  swap2\n  sub\n  swap1\n  log3\n    /* \"@openzeppelin/contracts/token/ERC20/ERC20.sol\":5989:7096  function _update(address from, address to, uint256 value) internal virtual {... */\n  pop\n  pop\n  pop\n  jump\t// out\n    /* \"@openzeppelin/contracts/token/ERC20/extensions/ERC20Capped.sol\":923:1004  function cap() public view virtual returns (uint256) {... */\ntag_38:\n    /* \"@openzeppelin/contracts/token/ERC20/extensions/ERC20Capped.sol\":967:974  uint256 */\n  0x00\n    /* \"@openzeppelin/contracts/token/ERC20/extensions/ERC20Capped.sol\":993:997  _cap */\n  mload(0x80)\n    /* \"@openzeppelin/contracts/token/ERC20/extensions/ERC20Capped.sol\":986:997  return _cap */\n  swap1\n  pop\n    /* \"@openzeppelin/contracts/token/ERC20/extensions/ERC20Capped.sol\":923:1004  function cap() public view virtual returns (uint256) {... */\n  swap1\n  jump\t// out\n    /* \"@openzeppelin/contracts/token/ERC20/ERC20.sol\":2830:2927  function totalSupply() public view virtual returns (uint256) {... */\ntag_40:\n    /* \"@openzeppelin/contracts/token/ERC20/ERC20.sol\":2882:2889  uint256 */\n  0x00\n    /* \"@openzeppelin/contracts/token/ERC20/ERC20.sol\":2908:2920  _totalSupply */\n  sload(0x02)\n    /* \"@openzeppelin/contracts/token/ERC20/ERC20.sol\":2901:2920  return _totalSupply */\n  swap1\n  pop\n    /* \"@openzeppelin/contracts/token/ERC20/ERC20.sol\":2830:2927  function totalSupply() public view virtual returns (uint256) {... */\n  swap1\n  jump\t// out\n    /* \"#utility.yul\":7:106   */\ntag_58:\n    /* \"#utility.yul\":59:65   */\n  0x00\n    /* \"#utility.yul\":93:98   */\n  dup2\n    /* \"#utility.yul\":87:99   */\n  mload\n    /* \"#utility.yul\":77:99   */\n  swap1\n  pop\n    /* \"#utility.yul\":7:106   */\n  swap2\n  swap1\n  pop\n  jump\t// out\n    /* \"#utility.yul\":112:292   */\ntag_59:\n    /* \"#utility.yul\":160:237   */\n  0x4e487b7100000000000000000000000000000000000000000000000000000000\n    /* \"#utility.yul\":157:158   */\n  0x00\n    /* \"#utility.yul\":150:238   */\n  mstore\n    /* \"#utility.yul\":257:261   */\n  0x41\n    /* \"#utility.yul\":254:255   */\n  0x04\n    /* \"#utility.yul\":247:262   */\n  mstore\n    /* \"#utility.yul\":281:285   */\n  0x24\n    /* \"#utility.yul\":278:279   */\n  0x00\n    /* \"#utility.yul\":271:286   */\n  revert\n    /* \"#utility.yul\":298:478   */\ntag_60:\n    /* \"#utility.yul\":346:423   */\n  0x4e487b7100000000000000000000000000000000000000000000000000000000\n    /* \"#utility.yul\":343:344   */\n  0x00\n    /* \"#utility.yul\":336:424   */\n  mstore\n    /* \"#utility.yul\":443:447   */\n  0x22\n    /* \"#utility.yul\":440:441   */\n  0x04\n    /* \"#utility.yul\":433:448   */\n  mstore\n    /* \"#utility.yul\":467:471   */\n  0x24\n    /* \"#utility.yul\":464:465   */\n  0x00\n    /* \"#utility.yul\":457:472   */\n  revert\n    /* \"#utility.yul\":484:804   */\ntag_61:\n    /* \"#utility.yul\":528:534   */\n  0x00\n    /* \"#utility.yul\":565:566   */\n  0x02\n    /* \"#utility.yul\":559:563   */\n  dup3\n    /* \"#utility.yul\":555:567   */\n  div\n    /* \"#utility.yul\":545:567   */\n  swap1\n  pop\n    /* \"#utility.yul\":612:613   */\n  0x01\n    /* \"#utility.yul\":606:610   */\n  dup3\n    /* \"#utility.yul\":602:614   */\n  and\n    /* \"#utility.yul\":633:651   */\n  dup1\n    /* \"#utility.yul\":623:704   */\n  tag_91\n  jumpi\n    /* \"#utility.yul\":689:693   */\n  0x7f\n    /* \"#utility.yul\":681:687   */\n  dup3\n    /* \"#utility.yul\":677:694   */\n  and\n    /* \"#utility.yul\":667:694   */\n  swap2\n  pop\n    /* \"#utility.yul\":623:704   */\ntag_91:\n    /* \"#utility.yul\":751:753   */\n  0x20\n    /* \"#utility.yul\":743:749   */\n  dup3\n    /* \"#utility.yul\":740:754   */\n  lt\n    /* \"#utility.yul\":720:738   */\n  dup2\n    /* \"#utility.yul\":717:755   */\n  sub\n    /* \"#utility.yul\":714:798   */\n  tag_92\n  jumpi\n    /* \"#utility.yul\":770:788   */\n  tag_93\n  tag_60\n  jump\t// in\ntag_93:\n    /* \"#utility.yul\":714:798   */\ntag_92:\n    /* \"#utility.yul\":535:804   */\n  pop\n    /* \"#utility.yul\":484:804   */\n  swap2\n  swap1\n  pop\n  jump\t// out\n    /* \"#utility.yul\":810:951   */\ntag_62:\n    /* \"#utility.yul\":859:863   */\n  0x00\n    /* \"#utility.yul\":882:885   */\n  dup2\n    /* \"#utility.yul\":874:885   */\n  swap1\n  pop\n    /* \"#utility.yul\":905:908   */\n  dup2\n    /* \"#utility.yul\":902:903   */\n  0x00\n    /* \"#utility.yul\":895:909   */\n  mstore\n    /* \"#utility.yul\":939:943   */\n  0x20\n    /* \"#utility.yul\":936:937   */\n  0x00\n    /* \"#utility.yul\":926:944   */\n  keccak256\n    /* \"#utility.yul\":918:944   */\n  swap1\n  pop\n    /* \"#utility.yul\":810:951   */\n  swap2\n  swap1\n  pop\n  jump\t// out\n    /* \"#utility.yul\":957:1050   */\ntag_63:\n    /* \"#utility.yul\":994:1000   */\n  0x00\n    /* \"#utility.yul\":1041:1043   */\n  0x20\n    /* \"#utility.yul\":1036:1038   */\n  0x1f\n    /* \"#utility.yul\":1029:1034   */\n  dup4\n    /* \"#utility.yul\":1025:1039   */\n  add\n    /* \"#utility.yul\":1021:1044   */\n  div\n    /* \"#utility.yul\":1011:1044   */\n  swap1\n  pop\n    /* \"#utility.yul\":957:1050   */\n  swap2\n  swap1\n  pop\n  jump\t// out\n    /* \"#utility.yul\":1056:1163   */\ntag_64:\n    /* \"#utility.yul\":1100:1108   */\n  0x00\n    /* \"#utility.yul\":1150:1155   */\n  dup3\n    /* \"#utility.yul\":1144:1148   */\n  dup3\n    /* \"#utility.yul\":1140:1156   */\n  shl\n    /* \"#utility.yul\":1119:1156   */\n  swap1\n  pop\n    /* \"#utility.yul\":1056:1163   */\n  swap3\n  swap2\n  pop\n  pop\n  jump\t// out\n    /* \"#utility.yul\":1169:1562   */\ntag_65:\n    /* \"#utility.yul\":1238:1244   */\n  0x00\n    /* \"#utility.yul\":1288:1289   */\n  0x08\n    /* \"#utility.yul\":1276:1286   */\n  dup4\n    /* \"#utility.yul\":1272:1290   */\n  mul\n    /* \"#utility.yul\":1311:1408   */\n  tag_98\n    /* \"#utility.yul\":1341:1407   */\n  0xffffffffffffffffffffffffffffffffffffffffffffffffffffffffffffffff\n    /* \"#utility.yul\":1330:1339   */\n  dup3\n    /* \"#utility.yul\":1311:1408   */\n  tag_64\n  jump\t// in\ntag_98:\n    /* \"#utility.yul\":1429:1468   */\n  tag_99\n    /* \"#utility.yul\":1459:1467   */\n  dup7\n    /* \"#utility.yul\":1448:1457   */\n  dup4\n    /* \"#utility.yul\":1429:1468   */\n  tag_64\n  jump\t// in\ntag_99:\n    /* \"#utility.yul\":1417:1468   */\n  swap6\n  pop\n    /* \"#utility.yul\":1501:1505   */\n  dup1\n    /* \"#utility.yul\":1497:1506   */\n  not\n    /* \"#utility.yul\":1490:1495   */\n  dup5\n    /* \"#utility.yul\":1486:1507   */\n  and\n    /* \"#utility.yul\":1477:1507   */\n  swap4\n  pop\n    /* \"#utility.yul\":1550:1554   */\n  dup1\n    /* \"#utility.yul\":1540:1548   */\n  dup7\n    /* \"#utility.yul\":1536:1555   */\n  and\n    /* \"#utility.yul\":1529:1534   */\n  dup5\n    /* \"#utility.yul\":1526:1556   */\n  or\n    /* \"#utility.yul\":1516:1556   */\n  swap3\n  pop\n    /* \"#utility.yul\":1245:1562   */\n  pop\n  pop\n    /* \"#utility.yul\":1169:1562   */\n  swap4\n  swap3\n  pop\n  pop\n  pop\n  jump\t// out\n    /* \"#utility.yul\":1568:1645   */\ntag_66:\n    /* \"#utility.yul\":1605:1612   */\n  0x00\n    /* \"#utility.yul\":1634:1639   */\n  dup2\n    /* \"#utility.yul\":1623:1639   */\n  swap1\n  pop\n    /* \"#utility.yul\":1568:1645   */\n  swap2\n  swap1\n  pop\n  jump\t// out\n    /* \"#utility.yul\":1651:1711   */\ntag_67:\n    /* \"#utility.yul\":1679:1682   */\n  0x00\n    /* \"#utility.yul\":1700:1705   */\n  dup2\n    /* \"#utility.yul\":1693:1705   */\n  swap1\n  pop\n    /* \"#utility.yul\":1651:1711   */\n  swap2\n  swap1\n  pop\n  jump\t// out\n    /* \"#utility.yul\":1717:1859   */\ntag_68:\n    /* \"#utility.yul\":1767:1776   */\n  0x00\n    /* \"#utility.yul\":1800:1853   */\n  tag_103\n    /* \"#utility.yul\":1818:1852   */\n  tag_104\n    /* \"#utility.yul\":1827:1851   */\n  tag_105\n    /* \"#utility.yul\":1845:1850   */\n  dup5\n    /* \"#utility.yul\":1827:1851   */\n  tag_66\n  jump\t// in\ntag_105:\n    /* \"#utility.yul\":1818:1852   */\n  tag_67\n  jump\t// in\ntag_104:\n    /* \"#utility.yul\":1800:1853   */\n  tag_66\n  jump\t// in\ntag_103:\n    /* \"#utility.yul\":1787:1853   */\n  swap1\n  pop\n    /* \"#utility.yul\":1717:1859   */\n  swap2\n  swap1\n  pop\n  jump\t// out\n    /* \"#utility.yul\":1865:1940   */\ntag_69:\n    /* \"#utility.yul\":1908:1911   */\n  0x00\n    /* \"#utility.yul\":1929:1934   */\n  dup2\n    /* \"#utility.yul\":1922:1934   */\n  swap1\n  pop\n    /* \"#utility.yul\":1865:1940   */\n  swap2\n  swap1\n  pop\n  jump\t// out\n    /* \"#utility.yul\":1946:2215   */\ntag_70:\n    /* \"#utility.yul\":2056:2095   */\n  tag_108\n    /* \"#utility.yul\":2087:2094   */\n  dup4\n    /* \"#utility.yul\":2056:2095   */\n  tag_68\n  jump\t// in\ntag_108:\n    /* \"#utility.yul\":2117:2208   */\n  tag_109\n    /* \"#utility.yul\":2166:2207   */\n  tag_110\n    /* \"#utility.yul\":2190:2206   */\n  dup3\n    /* \"#utility.yul\":2166:2207   */\n  tag_69\n  jump\t// in\ntag_110:\n    /* \"#utility.yul\":2158:2164   */\n  dup5\n    /* \"#utility.yul\":2151:2155   */\n  dup5\n    /* \"#utility.yul\":2145:2156   */\n  sload\n    /* \"#utility.yul\":2117:2208   */\n  tag_65\n  jump\t// in\ntag_109:\n    /* \"#utility.yul\":2111:2115   */\n  dup3\n    /* \"#utility.yul\":2104:2209   */\n  sstore\n    /* \"#utility.yul\":2022:2215   */\n  pop\n    /* \"#utility.yul\":1946:2215   */\n  pop\n  pop\n  pop\n  jump\t// out\n    /* \"#utility.yul\":2221:2294   */\ntag_71:\n    /* \"#utility.yul\":2266:2269   */\n  0x00\n    /* \"#utility.yul\":2221:2294   */\n  swap1\n  jump\t// out\n    /* \"#utility.yul\":2300:2489   */\ntag_72:\n    /* \"#utility.yul\":2377:2409   */\n  tag_113\n  tag_71\n  jump\t// in\ntag_113:\n    /* \"#utility.yul\":2418:2483   */\n  tag_114\n    /* \"#utility.yul\":2476:2482   */\n  dup2\n    /* \"#utility.yul\":2468:2474   */\n  dup5\n    /* \"#utility.yul\":2462:2466   */\n  dup5\n    /* \"#utility.yul\":2418:2483   */\n  tag_70\n  jump\t// in\ntag_114:\n    /* \"#utility.yul\":2353:2489   */\n  pop\n    /* \"#utility.yul\":2300:2489   */\n  pop\n  pop\n  jump\t// out\n    /* \"#utility.yul\":2495:2681   */\ntag_73:\n    /* \"#utility.yul\":2555:2675   */\ntag_116:\n    /* \"#utility.yul\":2572:2575   */\n  dup2\n    /* \"#utility.yul\":2565:2570   */\n  dup2\n    /* \"#utility.yul\":2562:2576   */\n  lt\n    /* \"#utility.yul\":2555:2675   */\n  iszero\n  tag_118\n  jumpi\n    /* \"#utility.yul\":2626:2665   */\n  tag_119\n    /* \"#utility.yul\":2663:2664   */\n  0x00\n    /* \"#utility.yul\":2656:2661   */\n  dup3\n    /* \"#utility.yul\":2626:2665   */\n  tag_72\n  jump\t// in\ntag_119:\n    /* \"#utility.yul\":2599:2600   */\n  0x01\n    /* \"#utility.yul\":2592:2597   */\n  dup2\n    /* \"#utility.yul\":2588:2601   */\n  add\n    /* \"#utility.yul\":2579:2601   */\n  swap1\n  pop\n    /* \"#utility.yul\":2555:2675   */\n  jump(tag_116)\ntag_118:\n    /* \"#utility.yul\":2495:2681   */\n  pop\n  pop\n  jump\t// out\n    /* \"#utility.yul\":2687:3230   */\ntag_74:\n    /* \"#utility.yul\":2788:2790   */\n  0x1f\n    /* \"#utility.yul\":2783:2786   */\n  dup3\n    /* \"#utility.yul\":2780:2791   */\n  gt\n    /* \"#utility.yul\":2777:3223   */\n  iszero\n  tag_121\n  jumpi\n    /* \"#utility.yul\":2822:2860   */\n  tag_122\n    /* \"#utility.yul\":2854:2859   */\n  dup2\n    /* \"#utility.yul\":2822:2860   */\n  tag_62\n  jump\t// in\ntag_122:\n    /* \"#utility.yul\":2906:2935   */\n  tag_123\n    /* \"#utility.yul\":2924:2934   */\n  dup5\n    /* \"#utility.yul\":2906:2935   */\n  tag_63\n  jump\t// in\ntag_123:\n    /* \"#utility.yul\":2896:2904   */\n  dup2\n    /* \"#utility.yul\":2892:2936   */\n  add\n    /* \"#utility.yul\":3089:3091   */\n  0x20\n    /* \"#utility.yul\":3077:3087   */\n  dup6\n    /* \"#utility.yul\":3074:3092   */\n  lt\n    /* \"#utility.yul\":3071:3120   */\n  iszero\n  tag_124\n  jumpi\n    /* \"#utility.yul\":3110:3118   */\n  dup2\n    /* \"#utility.yul\":3095:3118   */\n  swap1\n  pop\n    /* \"#utility.yul\":3071:3120   */\ntag_124:\n    /* \"#utility.yul\":3133:3213   */\n  tag_125\n    /* \"#utility.yul\":3189:3211   */\n  tag_126\n    /* \"#utility.yul\":3207:3210   */\n  dup6\n    /* \"#utility.yul\":3189:3211   */\n  tag_63\n  jump\t// in\ntag_126:\n    /* \"#utility.yul\":3179:3187   */\n  dup4\n    /* \"#utility.yul\":3175:3212   */\n  add\n    /* \"#utility.yul\":3162:3173   */\n  dup3\n    /* \"#utility.yul\":3133:3213   */\n  tag_73\n  jump\t// in\ntag_125:\n    /* \"#utility.yul\":2792:3223   */\n  pop\n  pop\n    /* \"#utility.yul\":2777:3223   */\ntag_121:\n    /* \"#utility.yul\":2687:3230   */\n  pop\n  pop\n  pop\n  jump\t// out\n    /* \"#utility.yul\":3236:3353   */\ntag_75:\n    /* \"#utility.yul\":3290:3298   */\n  0x00\n    /* \"#utility.yul\":3340:3345   */\n  dup3\n    /* \"#utility.yul\":3334:3338   */\n  dup3\n    /* \"#utility.yul\":3330:3346   */\n  shr\n    /* \"#utility.yul\":3309:3346   */\n  swap1\n  pop\n    /* \"#utility.yul\":3236:3353   */\n  swap3\n  swap2\n  pop\n  pop\n  jump\t// out\n    /* \"#utility.yul\":3359:3528   */\ntag_76:\n    /* \"#utility.yul\":3403:3409   */\n  0x00\n    /* \"#utility.yul\":3436:3487   */\n  tag_129\n    /* \"#utility.yul\":3484:3485   */\n  0x00\n    /* \"#utility.yul\":3480:3486   */\n  not\n    /* \"#utility.yul\":3472:3477   */\n  dup5\n    /* \"#utility.yul\":3469:3470   */\n  0x08\n    /* \"#utility.yul\":3465:3478   */\n  mul\n    /* \"#utility.yul\":3436:3487   */\n  tag_75\n  jump\t// in\ntag_129:\n    /* \"#utility.yul\":3432:3488   */\n  not\n    /* \"#utility.yul\":3517:3521   */\n  dup1\n    /* \"#utility.yul\":3511:3515   */\n  dup4\n    /* \"#utility.yul\":3507:3522   */\n  and\n    /* \"#utility.yul\":3497:3522   */\n  swap2\n  pop\n    /* \"#utility.yul\":3410:3528   */\n  pop\n    /* \"#utility.yul\":3359:3528   */\n  swap3\n  swap2\n  pop\n  pop\n  jump\t// out\n    /* \"#utility.yul\":3533:3828   */\ntag_77:\n    /* \"#utility.yul\":3609:3613   */\n  0x00\n    /* \"#utility.yul\":3755:3784   */\n  tag_131\n    /* \"#utility.yul\":3780:3783   */\n  dup4\n    /* \"#utility.yul\":3774:3778   */\n  dup4\n    /* \"#utility.yul\":3755:3784   */\n  tag_76\n  jump\t// in\ntag_131:\n    /* \"#utility.yul\":3747:3784   */\n  swap2\n  pop\n    /* \"#utility.yul\":3817:3820   */\n  dup3\n    /* \"#utility.yul\":3814:3815   */\n  0x02\n    /* \"#utility.yul\":3810:3821   */\n  mul\n    /* \"#utility.yul\":3804:3808   */\n  dup3\n    /* \"#utility.yul\":3801:3822   */\n  or\n    /* \"#utility.yul\":3793:3822   */\n  swap1\n  pop\n    /* \"#utility.yul\":3533:3828   */\n  swap3\n  swap2\n  pop\n  pop\n  jump\t// out\n    /* \"#utility.yul\":3833:5228   */\ntag_8:\n    /* \"#utility.yul\":3950:3987   */\n  tag_133\n    /* \"#utility.yul\":3983:3986   */\n  dup3\n    /* \"#utility.yul\":3950:3987   */\n  tag_58\n  jump\t// in\ntag_133:\n    /* \"#utility.yul\":4052:4070   */\n  0xffffffffffffffff\n    /* \"#utility.yul\":4044:4050   */\n  dup2\n    /* \"#utility.yul\":4041:4071   */\n  gt\n    /* \"#utility.yul\":4038:4094   */\n  iszero\n  tag_134\n  jumpi\n    /* \"#utility.yul\":4074:4092   */\n  tag_135\n  tag_59\n  jump\t// in\ntag_135:\n    /* \"#utility.yul\":4038:4094   */\ntag_134:\n    /* \"#utility.yul\":4118:4156   */\n  tag_136\n    /* \"#utility.yul\":4150:4154   */\n  dup3\n    /* \"#utility.yul\":4144:4155   */\n  sload\n    /* \"#utility.yul\":4118:4156   */\n  tag_61\n  jump\t// in\ntag_136:\n    /* \"#utility.yul\":4203:4270   */\n  tag_137\n    /* \"#utility.yul\":4263:4269   */\n  dup3\n    /* \"#utility.yul\":4255:4261   */\n  dup3\n    /* \"#utility.yul\":4249:4253   */\n  dup6\n    /* \"#utility.yul\":4203:4270   */\n  tag_74\n  jump\t// in\ntag_137:\n    /* \"#utility.yul\":4297:4298   */\n  0x00\n    /* \"#utility.yul\":4321:4325   */\n  0x20\n    /* \"#utility.yul\":4308:4325   */\n  swap1\n  pop\n    /* \"#utility.yul\":4353:4355   */\n  0x1f\n    /* \"#utility.yul\":4345:4351   */\n  dup4\n    /* \"#utility.yul\":4342:4356   */\n  gt\n    /* \"#utility.yul\":4370:4371   */\n  0x01\n    /* \"#utility.yul\":4365:4983   */\n  dup2\n  eq\n  tag_139\n  jumpi\n    /* \"#utility.yul\":5027:5028   */\n  0x00\n    /* \"#utility.yul\":5044:5050   */\n  dup5\n    /* \"#utility.yul\":5041:5118   */\n  iszero\n  tag_140\n  jumpi\n    /* \"#utility.yul\":5093:5102   */\n  dup3\n    /* \"#utility.yul\":5088:5091   */\n  dup8\n    /* \"#utility.yul\":5084:5103   */\n  add\n    /* \"#utility.yul\":5078:5104   */\n  mload\n    /* \"#utility.yul\":5069:5104   */\n  swap1\n  pop\n    /* \"#utility.yul\":5041:5118   */\ntag_140:\n    /* \"#utility.yul\":5144:5211   */\n  tag_141\n    /* \"#utility.yul\":5204:5210   */\n  dup6\n    /* \"#utility.yul\":5197:5202   */\n  dup3\n    /* \"#utility.yul\":5144:5211   */\n  tag_77\n  jump\t// in\ntag_141:\n    /* \"#utility.yul\":5138:5142   */\n  dup7\n    /* \"#utility.yul\":5131:5212   */\n  sstore\n    /* \"#utility.yul\":5000:5222   */\n  pop\n    /* \"#utility.yul\":4335:5222   */\n  jump(tag_138)\n    /* \"#utility.yul\":4365:4983   */\ntag_139:\n    /* \"#utility.yul\":4417:4421   */\n  0x1f\n    /* \"#utility.yul\":4413:4422   */\n  not\n    /* \"#utility.yul\":4405:4411   */\n  dup5\n    /* \"#utility.yul\":4401:4423   */\n  and\n    /* \"#utility.yul\":4451:4488   */\n  tag_142\n    /* \"#utility.yul\":4483:4487   */\n  dup7\n    /* \"#utility.yul\":4451:4488   */\n  tag_62\n  jump\t// in\ntag_142:\n    /* \"#utility.yul\":4510:4511   */\n  0x00\n    /* \"#utility.yul\":4524:4732   */\ntag_143:\n    /* \"#utility.yul\":4538:4545   */\n  dup3\n    /* \"#utility.yul\":4535:4536   */\n  dup2\n    /* \"#utility.yul\":4532:4546   */\n  lt\n    /* \"#utility.yul\":4524:4732   */\n  iszero\n  tag_145\n  jumpi\n    /* \"#utility.yul\":4617:4626   */\n  dup5\n    /* \"#utility.yul\":4612:4615   */\n  dup10\n    /* \"#utility.yul\":4608:4627   */\n  add\n    /* \"#utility.yul\":4602:4628   */\n  mload\n    /* \"#utility.yul\":4594:4600   */\n  dup3\n    /* \"#utility.yul\":4587:4629   */\n  sstore\n    /* \"#utility.yul\":4668:4669   */\n  0x01\n    /* \"#utility.yul\":4660:4666   */\n  dup3\n    /* \"#utility.yul\":4656:4670   */\n  add\n    /* \"#utility.yul\":4646:4670   */\n  swap2\n  pop\n    /* \"#utility.yul\":4715:4717   */\n  0x20\n    /* \"#utility.yul\":4704:4713   */\n  dup6\n    /* \"#utility.yul\":4700:4718   */\n  add\n    /* \"#utility.yul\":4687:4718   */\n  swap5\n  pop\n    /* \"#utility.yul\":4561:4565   */\n  0x20\n    /* \"#utility.yul\":4558:4559   */\n  dup2\n    /* \"#utility.yul\":4554:4566   */\n  add\n    /* \"#utility.yul\":4549:4566   */\n  swap1\n  pop\n    /* \"#utility.yul\":4524:4732   */\n  jump(tag_143)\ntag_145:\n    /* \"#utility.yul\":4760:4766   */\n  dup7\n    /* \"#utility.yul\":4751:4758   */\n  dup4\n    /* \"#utility.yul\":4748:4767   */\n  lt\n    /* \"#utility.yul\":4745:4924   */\n  iszero\n  tag_146\n  jumpi\n    /* \"#utility.yul\":4818:4827   */\n  dup5\n    /* \"#utility.yul\":4813:4816   */\n  dup10\n    /* \"#utility.yul\":4809:4828   */\n  add\n    /* \"#utility.yul\":4803:4829   */\n  mload\n    /* \"#utility.yul\":4861:4909   */\n  tag_147\n    /* \"#utility.yul\":4903:4907   */\n  0x1f\n    /* \"#utility.yul\":4895:4901   */\n  dup10\n    /* \"#utility.yul\":4891:4908   */\n  and\n    /* \"#utility.yul\":4880:4889   */\n  dup3\n    /* \"#utility.yul\":4861:4909   */\n  tag_76\n  jump\t// in\ntag_147:\n    /* \"#utility.yul\":4853:4859   */\n  dup4\n    /* \"#utility.yul\":4846:4910   */\n  sstore\n    /* \"#utility.yul\":4768:4924   */\n  pop\n    /* \"#utility.yul\":4745:4924   */\ntag_146:\n    /* \"#utility.yul\":4970:4971   */\n  0x01\n    /* \"#utility.yul\":4966:4967   */\n  0x02\n    /* \"#utility.yul\":4958:4964   */\n  dup9\n    /* \"#utility.yul\":4954:4968   */\n  mul\n    /* \"#utility.yul\":4950:4972   */\n  add\n    /* \"#utility.yul\":4944:4948   */\n  dup9\n    /* \"#utility.yul\":4937:4973   */\n  sstore\n    /* \"#utility.yul\":4372:4983   */\n  pop\n  pop\n  pop\n    /* \"#utility.yul\":4335:5222   */\ntag_138:\n  pop\n    /* \"#utility.yul\":3925:5228   */\n  pop\n  pop\n  pop\n    /* \"#utility.yul\":3833:5228   */\n  pop\n  pop\n  jump\t// out\n    /* \"#utility.yul\":5234:5319   */\ntag_78:\n    /* \"#utility.yul\":5279:5286   */\n  0x00\n    /* \"#utility.yul\":5308:5313   */\n  dup2\n    /* \"#utility.yul\":5297:5313   */\n  swap1\n  pop\n    /* \"#utility.yul\":5234:5319   */\n  swap2\n  swap1\n  pop\n  jump\t// out\n    /* \"#utility.yul\":5325:5483   */\ntag_79:\n    /* \"#utility.yul\":5383:5392   */\n  0x00\n    /* \"#utility.yul\":5416:5477   */\n  tag_150\n    /* \"#utility.yul\":5434:5476   */\n  tag_151\n    /* \"#utility.yul\":5443:5475   */\n  tag_152\n    /* \"#utility.yul\":5469:5474   */\n  dup5\n    /* \"#utility.yul\":5443:5475   */\n  tag_78\n  jump\t// in\ntag_152:\n    /* \"#utility.yul\":5434:5476   */\n  tag_67\n  jump\t// in\ntag_151:\n    /* \"#utility.yul\":5416:5477   */\n  tag_66\n  jump\t// in\ntag_150:\n    /* \"#utility.yul\":5403:5477   */\n  swap1\n  pop\n    /* \"#utility.yul\":5325:5483   */\n  swap2\n  swap1\n  pop\n  jump\t// out\n    /* \"#utility.yul\":5489:5636   */\ntag_80:\n    /* \"#utility.yul\":5584:5629   */\n  tag_154\n    /* \"#utility.yul\":5623:5628   */\n  dup2\n    /* \"#utility.yul\":5584:5629   */\n  tag_79\n  jump\t// in\ntag_154:\n    /* \"#utility.yul\":5579:5582   */\n  dup3\n    /* \"#utility.yul\":5572:5630   */\n  mstore\n    /* \"#utility.yul\":5489:5636   */\n  pop\n  pop\n  jump\t// out\n    /* \"#utility.yul\":5642:5880   */\ntag_13:\n    /* \"#utility.yul\":5743:5747   */\n  0x00\n    /* \"#utility.yul\":5781:5783   */\n  0x20\n    /* \"#utility.yul\":5770:5779   */\n  dup3\n    /* \"#utility.yul\":5766:5784   */\n  add\n    /* \"#utility.yul\":5758:5784   */\n  swap1\n  pop\n    /* \"#utility.yul\":5794:5873   */\n  tag_156\n    /* \"#utility.yul\":5870:5871   */\n  0x00\n    /* \"#utility.yul\":5859:5868   */\n  dup4\n    /* \"#utility.yul\":5855:5872   */\n  add\n    /* \"#utility.yul\":5846:5852   */\n  dup5\n    /* \"#utility.yul\":5794:5873   */\n  tag_80\n  jump\t// in\ntag_156:\n    /* \"#utility.yul\":5642:5880   */\n  swap3\n  swap2\n  pop\n  pop\n  jump\t// out\n    /* \"#utility.yul\":5886:6012   */\ntag_81:\n    /* \"#utility.yul\":5923:5930   */\n  0x00\n    /* \"#utility.yul\":5963:6005   */\n  0xffffffffffffffffffffffffffffffffffffffff\n    /* \"#utility.yul\":5956:5961   */\n  dup3\n    /* \"#utility.yul\":5952:6006   */\n  and\n    /* \"#utility.yul\":5941:6006   */\n  swap1\n  pop\n    /* \"#utility.yul\":5886:6012   */\n  swap2\n  swap1\n  pop\n  jump\t// out\n    /* \"#utility.yul\":6018:6114   */\ntag_82:\n    /* \"#utility.yul\":6055:6062   */\n  0x00\n    /* \"#utility.yul\":6084:6108   */\n  tag_159\n    /* \"#utility.yul\":6102:6107   */\n  dup3\n    /* \"#utility.yul\":6084:6108   */\n  tag_81\n  jump\t// in\ntag_159:\n    /* \"#utility.yul\":6073:6108   */\n  swap1\n  pop\n    /* \"#utility.yul\":6018:6114   */\n  swap2\n  swap1\n  pop\n  jump\t// out\n    /* \"#utility.yul\":6120:6238   */\ntag_83:\n    /* \"#utility.yul\":6207:6231   */\n  tag_161\n    /* \"#utility.yul\":6225:6230   */\n  dup2\n    /* \"#utility.yul\":6207:6231   */\n  tag_82\n  jump\t// in\ntag_161:\n    /* \"#utility.yul\":6202:6205   */\n  dup3\n    /* \"#utility.yul\":6195:6232   */\n  mstore\n    /* \"#utility.yul\":6120:6238   */\n  pop\n  pop\n  jump\t// out\n    /* \"#utility.yul\":6244:6466   */\ntag_17:\n    /* \"#utility.yul\":6337:6341   */\n  0x00\n    /* \"#utility.yul\":6375:6377   */\n  0x20\n    /* \"#utility.yul\":6364:6373   */\n  dup3\n    /* \"#utility.yul\":6360:6378   */\n  add\n    /* \"#utility.yul\":6352:6378   */\n  swap1\n  pop\n    /* \"#utility.yul\":6388:6459   */\n  tag_163\n    /* \"#utility.yul\":6456:6457   */\n  0x00\n    /* \"#utility.yul\":6445:6454   */\n  dup4\n    /* \"#utility.yul\":6441:6458   */\n  add\n    /* \"#utility.yul\":6432:6438   */\n  dup5\n    /* \"#utility.yul\":6388:6459   */\n  tag_83\n  jump\t// in\ntag_163:\n    /* \"#utility.yul\":6244:6466   */\n  swap3\n  swap2\n  pop\n  pop\n  jump\t// out\n    /* \"#utility.yul\":6472:6590   */\ntag_84:\n    /* \"#utility.yul\":6559:6583   */\n  tag_165\n    /* \"#utility.yul\":6577:6582   */\n  dup2\n    /* \"#utility.yul\":6559:6583   */\n  tag_66\n  jump\t// in\ntag_165:\n    /* \"#utility.yul\":6554:6557   */\n  dup3\n    /* \"#utility.yul\":6547:6584   */\n  mstore\n    /* \"#utility.yul\":6472:6590   */\n  pop\n  pop\n  jump\t// out\n    /* \"#utility.yul\":6596:6928   */\ntag_43:\n    /* \"#utility.yul\":6717:6721   */\n  0x00\n    /* \"#utility.yul\":6755:6757   */\n  0x40\n    /* \"#utility.yul\":6744:6753   */\n  dup3\n    /* \"#utility.yul\":6740:6758   */\n  add\n    /* \"#utility.yul\":6732:6758   */\n  swap1\n  pop\n    /* \"#utility.yul\":6768:6839   */\n  tag_167\n    /* \"#utility.yul\":6836:6837   */\n  0x00\n    /* \"#utility.yul\":6825:6834   */\n  dup4\n    /* \"#utility.yul\":6821:6838   */\n  add\n    /* \"#utility.yul\":6812:6818   */\n  dup6\n    /* \"#utility.yul\":6768:6839   */\n  tag_84\n  jump\t// in\ntag_167:\n    /* \"#utility.yul\":6849:6921   */\n  tag_168\n    /* \"#utility.yul\":6917:6919   */\n  0x20\n    /* \"#utility.yul\":6906:6915   */\n  dup4\n    /* \"#utility.yul\":6902:6920   */\n  add\n    /* \"#utility.yul\":6893:6899   */\n  dup5\n    /* \"#utility.yul\":6849:6921   */\n  tag_84\n  jump\t// in\ntag_168:\n    /* \"#utility.yul\":6596:6928   */\n  swap4\n  swap3\n  pop\n  pop\n  pop\n  jump\t// out\n    /* \"#utility.yul\":6934:7114   */\ntag_85:\n    /* \"#utility.yul\":6982:7059   */\n  0x4e487b7100000000000000000000000000000000000000000000000000000000\n    /* \"#utility.yul\":6979:6980   */\n  0x00\n    /* \"#utility.yul\":6972:7060   */\n  mstore\n    /* \"#utility.yul\":7079:7083   */\n  0x11\n    /* \"#utility.yul\":7076:7077   */\n  0x04\n    /* \"#utility.yul\":7069:7084   */\n  mstore\n    /* \"#utility.yul\":7103:7107   */\n  0x24\n    /* \"#utility.yul\":7100:7101   */\n  0x00\n    /* \"#utility.yul\":7093:7108   */\n  revert\n    /* \"#utility.yul\":7120:7311   */\ntag_47:\n    /* \"#utility.yul\":7160:7163   */\n  0x00\n    /* \"#utility.yul\":7179:7199   */\n  tag_171\n    /* \"#utility.yul\":7197:7198   */\n  dup3\n    /* \"#utility.yul\":7179:7199   */\n  tag_66\n  jump\t// in\ntag_171:\n    /* \"#utility.yul\":7174:7199   */\n  swap2\n  pop\n    /* \"#utility.yul\":7213:7233   */\n  tag_172\n    /* \"#utility.yul\":7231:7232   */\n  dup4\n    /* \"#utility.yul\":7213:7233   */\n  tag_66\n  jump\t// in\ntag_172:\n    /* \"#utility.yul\":7208:7233   */\n  swap3\n  pop\n    /* \"#utility.yul\":7256:7257   */\n  dup3\n    /* \"#utility.yul\":7253:7254   */\n  dup3\n    /* \"#utility.yul\":7249:7258   */\n  add\n    /* \"#utility.yul\":7242:7258   */\n  swap1\n  pop\n    /* \"#utility.yul\":7277:7280   */\n  dup1\n    /* \"#utility.yul\":7274:7275   */\n  dup3\n    /* \"#utility.yul\":7271:7281   */\n  gt\n    /* \"#utility.yul\":7268:7304   */\n  iszero\n  tag_173\n  jumpi\n    /* \"#utility.yul\":7284:7302   */\n  tag_174\n  tag_85\n  jump\t// in\ntag_174:\n    /* \"#utility.yul\":7268:7304   */\ntag_173:\n    /* \"#utility.yul\":7120:7311   */\n  swap3\n  swap2\n  pop\n  pop\n  jump\t// out\n    /* \"#utility.yul\":7317:7759   */\ntag_51:\n    /* \"#utility.yul\":7466:7470   */\n  0x00\n    /* \"#utility.yul\":7504:7506   */\n  0x60\n    /* \"#utility.yul\":7493:7502   */\n  dup3\n    /* \"#utility.yul\":7489:7507   */\n  add\n    /* \"#utility.yul\":7481:7507   */\n  swap1\n  pop\n    /* \"#utility.yul\":7517:7588   */\n  tag_176\n    /* \"#utility.yul\":7585:7586   */\n  0x00\n    /* \"#utility.yul\":7574:7583   */\n  dup4\n    /* \"#utility.yul\":7570:7587   */\n  add\n    /* \"#utility.yul\":7561:7567   */\n  dup7\n    /* \"#utility.yul\":7517:7588   */\n  tag_83\n  jump\t// in\ntag_176:\n    /* \"#utility.yul\":7598:7670   */\n  tag_177\n    /* \"#utility.yul\":7666:7668   */\n  0x20\n    /* \"#utility.yul\":7655:7664   */\n  dup4\n    /* \"#utility.yul\":7651:7669   */\n  add\n    /* \"#utility.yul\":7642:7648   */\n  dup6\n    /* \"#utility.yul\":7598:7670   */\n  tag_84\n  jump\t// in\ntag_177:\n    /* \"#utility.yul\":7680:7752   */\n  tag_178\n    /* \"#utility.yul\":7748:7750   */\n  0x40\n    /* \"#utility.yul\":7737:7746   */\n  dup4\n    /* \"#utility.yul\":7733:7751   */\n  add\n    /* \"#utility.yul\":7724:7730   */\n  dup5\n    /* \"#utility.yul\":7680:7752   */\n  tag_84\n  jump\t// in\ntag_178:\n    /* \"#utility.yul\":7317:7759   */\n  swap5\n  swap4\n  pop\n  pop\n  pop\n  pop\n  jump\t// out\n    /* \"#utility.yul\":7765:7987   */\ntag_55:\n    /* \"#utility.yul\":7858:7862   */\n  0x00\n    /* \"#utility.yul\":7896:7898   */\n  0x20\n    /* \"#utility.yul\":7885:7894   */\n  dup3\n    /* \"#utility.yul\":7881:7899   */\n  add\n    /* \"#utility.yul\":7873:7899   */\n  swap1\n  pop\n    /* \"#utility.yul\":7909:7980   */\n  tag_180\n    /* \"#utility.yul\":7977:7978   */\n  0x00\n    /* \"#utility.yul\":7966:7975   */\n  dup4\n    /* \"#utility.yul\":7962:7979   */\n  add\n    /* \"#utility.yul\":7953:7959   */\n  dup5\n    /* \"#utility.yul\":7909:7980   */\n  tag_84\n  jump\t// in\ntag_180:\n    /* \"#utility.yul\":7765:7987   */\n  swap3\n  swap2\n  pop\n  pop\n  jump\t// out\n    /* \"contracts/Soboro.sol\":421:1995  contract Soboro is ERC20, ERC20Capped, ERC20Burnable, Ownable {... */\ntag_23:\n  mload(0x80)\n  codecopy(0x00, dataOffset(sub_0), dataSize(sub_0))\n  0x00\n  assignImmutable(\"0x69de3b38836c938ac93bb31643655e6e0a011af0f354a009a432084d0f963864\")\n  return(0x00, dataSize(sub_0))\nstop\n\nsub_0: assembly {\n        /* \"contracts/Soboro.sol\":421:1995  contract Soboro is ERC20, ERC20Capped, ERC20Burnable, Ownable {... */\n      mstore(0x40, 0x80)\n      callvalue\n      dup1\n      iszero\n      tag_1\n      jumpi\n      0x00\n      dup1\n      revert\n    tag_1:\n      pop\n      jumpi(tag_2, lt(calldatasize, 0x04))\n      shr(0xe0, calldataload(0x00))\n      dup1\n      0x4735c94c\n      gt\n      tag_20\n      jumpi\n      dup1\n      0x8da5cb5b\n      gt\n      tag_21\n      jumpi\n      dup1\n      0x8da5cb5b\n      eq\n      tag_15\n      jumpi\n      dup1\n      0x95d89b41\n      eq\n      tag_16\n      jumpi\n      dup1\n      0xa9059cbb\n      eq\n      tag_17\n      jumpi\n      dup1\n      0xdd62ed3e\n      eq\n      tag_18\n      jumpi\n      dup1\n      0xf2fde38b\n      eq\n      tag_19\n      jumpi\n      jump(tag_2)\n    tag_21:\n      dup1\n      0x4735c94c\n      eq\n      tag_11\n      jumpi\n      dup1\n      0x70a08231\n      eq\n      tag_12\n      jumpi\n      dup1\n      0x715018a6\n      eq\n      tag_13\n      jumpi\n      dup1\n      0x79cc6790\n      eq\n      tag_14\n      jumpi\n      jump(tag_2)\n    tag_20:\n      dup1\n      0x23b872dd\n      gt\n      tag_22\n      jumpi\n      dup1\n      0x23b872dd\n      eq\n      tag_7\n      jumpi\n      dup1\n      0x313ce567\n      eq\n      tag_8\n      jumpi\n      dup1\n      0x355274ea\n      eq\n      tag_9\n      jumpi\n      dup1\n      0x42966c68\n      eq\n      tag_10\n      jumpi\n      jump(tag_2)\n    tag_22:\n      dup1\n      0x0528395e\n      eq\n      tag_3\n      jumpi\n      dup1\n      0x06fdde03\n      eq\n      tag_4\n      jumpi\n      dup1\n      0x095ea7b3\n      eq\n      tag_5\n      jumpi\n      dup1\n      0x18160ddd\n      eq\n      tag_6\n      jumpi\n    tag_2:\n      0x00\n      dup1\n      revert\n        /* \"contracts/Soboro.sol\":1382:1904  function requestSurveyCreationOnCrumb(string memory _question, string[] memory _options, bool _initialActiveState) public onlyOwner {... */\n    tag_3:\n      tag_23\n      0x04\n      dup1\n      calldatasize\n      sub\n      dup2\n      add\n      swap1\n      tag_24\n      swap2\n      swap1\n      tag_25\n      jump\t// in\n    tag_24:\n      tag_26\n      jump\t// in\n    tag_23:\n      stop\n        /* \"@openzeppelin/contracts/token/ERC20/ERC20.sol\":1760:1849  function name() public view virtual returns (string memory) {... */\n    tag_4:\n      tag_27\n      tag_28\n      jump\t// in\n    tag_27:\n      mload(0x40)\n      tag_29\n      swap2\n      swap1\n      tag_30\n      jump\t// in\n    tag_29:\n      mload(0x40)\n      dup1\n      swap2\n      sub\n      swap1\n      return\n        /* \"@openzeppelin/contracts/token/ERC20/ERC20.sol\":3979:4165  function approve(address spender, uint256 value) public virtual returns (bool) {... */\n    tag_5:\n      tag_31\n      0x04\n      dup1\n      calldatasize\n      sub\n      dup2\n      add\n      swap1\n      tag_32\n      swap2\n      swap1\n      tag_33\n      jump\t// in\n    tag_32:\n      tag_34\n      jump\t// in\n    tag_31:\n      mload(0x40)\n      tag_35\n      swap2\n      swap1\n      tag_36\n      jump\t// in\n    tag_35:\n      mload(0x40)\n      dup1\n      swap2\n      sub\n      swap1\n      return\n        /* \"@openzeppelin/contracts/token/ERC20/ERC20.sol\":2830:2927  function totalSupply() public view virtual returns (uint256) {... */\n    tag_6:\n      tag_37\n      tag_38\n      jump\t// in\n    tag_37:\n      mload(0x40)\n      tag_39\n      swap2\n      swap1\n      tag_40\n      jump\t// in\n    tag_39:\n      mload(0x40)\n      dup1\n      swap2\n      sub\n      swap1\n      return\n        /* \"@openzeppelin/contracts/token/ERC20/ERC20.sol\":4757:5001  function transferFrom(address from, address to, uint256 value) public virtual returns (bool) {... */\n    tag_7:\n      tag_41\n      0x04\n      dup1\n      calldatasize\n      sub\n      dup2\n      add\n      swap1\n      tag_42\n      swap2\n      swap1\n      tag_43\n      jump\t// in\n    tag_42:\n      tag_44\n      jump\t// in\n    tag_41:\n      mload(0x40)\n      tag_45\n      swap2\n      swap1\n      tag_36\n      jump\t// in\n    tag_45:\n      mload(0x40)\n      dup1\n      swap2\n      sub\n      swap1\n      return\n        /* \"@openzeppelin/contracts/token/ERC20/ERC20.sol\":2688:2770  function decimals() public view virtual returns (uint8) {... */\n    tag_8:\n      tag_46\n      tag_47\n      jump\t// in\n    tag_46:\n      mload(0x40)\n      tag_48\n      swap2\n      swap1\n      tag_49\n      jump\t// in\n    tag_48:\n      mload(0x40)\n      dup1\n      swap2\n      sub\n      swap1\n      return\n        /* \"@openzeppelin/contracts/token/ERC20/extensions/ERC20Capped.sol\":923:1004  function cap() public view virtual returns (uint256) {... */\n    tag_9:\n      tag_50\n      tag_51\n      jump\t// in\n    tag_50:\n      mload(0x40)\n      tag_52\n      swap2\n      swap1\n      tag_40\n      jump\t// in\n    tag_52:\n      mload(0x40)\n      dup1\n      swap2\n      sub\n      swap1\n      return\n        /* \"@openzeppelin/contracts/token/ERC20/extensions/ERC20Burnable.sol\":618:705  function burn(uint256 value) public virtual {... */\n    tag_10:\n      tag_53\n      0x04\n      dup1\n      calldatasize\n      sub\n      dup2\n      add\n      swap1\n      tag_54\n      swap2\n      swap1\n      tag_55\n      jump\t// in\n    tag_54:\n      tag_56\n      jump\t// in\n    tag_53:\n      stop\n        /* \"contracts/Soboro.sol\":1108:1342  function createCrumbContract() public onlyOwner {... */\n    tag_11:\n      tag_57\n      tag_58\n      jump\t// in\n    tag_57:\n      stop\n        /* \"@openzeppelin/contracts/token/ERC20/ERC20.sol\":2985:3101  function balanceOf(address account) public view virtual returns (uint256) {... */\n    tag_12:\n      tag_59\n      0x04\n      dup1\n      calldatasize\n      sub\n      dup2\n      add\n      swap1\n      tag_60\n      swap2\n      swap1\n      tag_61\n      jump\t// in\n    tag_60:\n      tag_62\n      jump\t// in\n    tag_59:\n      mload(0x40)\n      tag_63\n      swap2\n      swap1\n      tag_40\n      jump\t// in\n    tag_63:\n      mload(0x40)\n      dup1\n      swap2\n      sub\n      swap1\n      return\n        /* \"@openzeppelin/contracts/access/Ownable.sol\":2293:2394  function renounceOwnership() public virtual onlyOwner {... */\n    tag_13:\n      tag_64\n      tag_65\n      jump\t// in\n    tag_64:\n      stop\n        /* \"@openzeppelin/contracts/token/ERC20/extensions/ERC20Burnable.sol\":1021:1179  function burnFrom(address account, uint256 value) public virtual {... */\n    tag_14:\n      tag_66\n      0x04\n      dup1\n      calldatasize\n      sub\n      dup2\n      add\n      swap1\n      tag_67\n      swap2\n      swap1\n      tag_33\n      jump\t// in\n    tag_67:\n      tag_68\n      jump\t// in\n    tag_66:\n      stop\n        /* \"@openzeppelin/contracts/access/Ownable.sol\":1638:1723  function owner() public view virtual returns (address) {... */\n    tag_15:\n      tag_69\n      tag_70\n      jump\t// in\n    tag_69:\n      mload(0x40)\n      tag_71\n      swap2\n      swap1\n      tag_72\n      jump\t// in\n    tag_71:\n      mload(0x40)\n      dup1\n      swap2\n      sub\n      swap1\n      return\n        /* \"@openzeppelin/contracts/token/ERC20/ERC20.sol\":1962:2055  function symbol() public view virtual returns (string memory) {... */\n    tag_16:\n      tag_73\n      tag_74\n      jump\t// in\n    tag_73:\n      mload(0x40)\n      tag_75\n      swap2\n      swap1\n      tag_30\n      jump\t// in\n    tag_75:\n      mload(0x40)\n      dup1\n      swap2\n      sub\n      swap1\n      return\n        /* \"@openzeppelin/contracts/token/ERC20/ERC20.sol\":3296:3474  function transfer(address to, uint256 value) public virtual returns (bool) {... */\n    tag_17:\n      tag_76\n      0x04\n      dup1\n      calldatasize\n      sub\n      dup2\n      add\n      swap1\n      tag_77\n      swap2\n      swap1\n      tag_33\n      jump\t// in\n    tag_77:\n      tag_78\n      jump\t// in\n    tag_76:\n      mload(0x40)\n      tag_79\n      swap2\n      swap1\n      tag_36\n      jump\t// in\n    tag_79:\n      mload(0x40)\n      dup1\n      swap2\n      sub\n      swap1\n      return\n        /* \"@openzeppelin/contracts/token/ERC20/ERC20.sol\":3532:3672  function allowance(address owner, address spender) public view virtual returns (uint256) {... */\n    tag_18:\n      tag_80\n      0x04\n      dup1\n      calldatasize\n      sub\n      dup2\n      add\n      swap1\n      tag_81\n      swap2\n      swap1\n      tag_82\n      jump\t// in\n    tag_81:\n      tag_83\n      jump\t// in\n    tag_80:\n      mload(0x40)\n      tag_84\n      swap2\n      swap1\n      tag_40\n      jump\t// in\n    tag_84:\n      mload(0x40)\n      dup1\n      swap2\n      sub\n      swap1\n      return\n        /* \"@openzeppelin/contracts/access/Ownable.sol\":2543:2758  function transferOwnership(address newOwner) public virtual onlyOwner {... */\n    tag_19:\n      tag_85\n      0x04\n      dup1\n      calldatasize\n      sub\n      dup2\n      add\n      swap1\n      tag_86\n      swap2\n      swap1\n      tag_61\n      jump\t// in\n    tag_86:\n      tag_87\n      jump\t// in\n    tag_85:\n      stop\n        /* \"contracts/Soboro.sol\":1382:1904  function requestSurveyCreationOnCrumb(string memory _question, string[] memory _options, bool _initialActiveState) public onlyOwner {... */\n    tag_26:\n        /* \"@openzeppelin/contracts/access/Ownable.sol\":1531:1544  _checkOwner() */\n      tag_89\n        /* \"@openzeppelin/contracts/access/Ownable.sol\":1531:1542  _checkOwner */\n      tag_90\n        /* \"@openzeppelin/contracts/access/Ownable.sol\":1531:1544  _checkOwner() */\n      jump\t// in\n    tag_89:\n        /* \"contracts/Soboro.sol\":1524:1545  uint latestCrumbIndex */\n      0x00\n        /* \"contracts/Soboro.sol\":1561:1562  1 */\n      0x01\n        /* \"contracts/Soboro.sol\":1548:1558  crumbGenID */\n      sload(0x07)\n        /* \"contracts/Soboro.sol\":1548:1562  crumbGenID - 1 */\n      tag_92\n      swap2\n      swap1\n      tag_93\n      jump\t// in\n    tag_92:\n        /* \"contracts/Soboro.sol\":1524:1562  uint latestCrumbIndex = crumbGenID - 1 */\n      swap1\n      pop\n        /* \"contracts/Soboro.sol\":1618:1619  0 */\n      0x00\n        /* \"contracts/Soboro.sol\":1580:1620  crumbMap[latestCrumbIndex] != address(0) */\n      0xffffffffffffffffffffffffffffffffffffffff\n      and\n        /* \"contracts/Soboro.sol\":1580:1588  crumbMap */\n      0x06\n        /* \"contracts/Soboro.sol\":1580:1606  crumbMap[latestCrumbIndex] */\n      0x00\n        /* \"contracts/Soboro.sol\":1589:1605  latestCrumbIndex */\n      dup4\n        /* \"contracts/Soboro.sol\":1580:1606  crumbMap[latestCrumbIndex] */\n      dup2\n      mstore\n      0x20\n      add\n      swap1\n      dup2\n      mstore\n      0x20\n      add\n      0x00\n      keccak256\n      0x00\n      swap1\n      sload\n      swap1\n      0x0100\n      exp\n      swap1\n      div\n      0xffffffffffffffffffffffffffffffffffffffff\n      and\n        /* \"contracts/Soboro.sol\":1580:1620  crumbMap[latestCrumbIndex] != address(0) */\n      0xffffffffffffffffffffffffffffffffffffffff\n      and\n      sub\n        /* \"contracts/Soboro.sol\":1572:1666  require(crumbMap[latestCrumbIndex] != address(0), \"lastest crumb does not exist. Who ate it?\") */\n      tag_94\n      jumpi\n      mload(0x40)\n      0x08c379a000000000000000000000000000000000000000000000000000000000\n      dup2\n      mstore\n      0x04\n      add\n      tag_95\n      swap1\n      tag_96\n      jump\t// in\n    tag_95:\n      mload(0x40)\n      dup1\n      swap2\n      sub\n      swap1\n      revert\n    tag_94:\n        /* \"contracts/Soboro.sol\":1685:1696  Crumb crumb */\n      0x00\n        /* \"contracts/Soboro.sol\":1705:1713  crumbMap */\n      0x06\n        /* \"contracts/Soboro.sol\":1705:1731  crumbMap[latestCrumbIndex] */\n      0x00\n        /* \"contracts/Soboro.sol\":1714:1730  latestCrumbIndex */\n      dup4\n        /* \"contracts/Soboro.sol\":1705:1731  crumbMap[latestCrumbIndex] */\n      dup2\n      mstore\n      0x20\n      add\n      swap1\n      dup2\n      mstore\n      0x20\n      add\n      0x00\n      keccak256\n      0x00\n      swap1\n      sload\n      swap1\n      0x0100\n      exp\n      swap1\n      div\n      0xffffffffffffffffffffffffffffffffffffffff\n      and\n        /* \"contracts/Soboro.sol\":1685:1732  Crumb crumb = Crumb(crumbMap[latestCrumbIndex]) */\n      swap1\n      pop\n        /* \"contracts/Soboro.sol\":1742:1761  uint countOfSurveys */\n      0x00\n        /* \"contracts/Soboro.sol\":1764:1769  crumb */\n      dup2\n        /* \"contracts/Soboro.sol\":1764:1784  crumb.getSurveyCount */\n      0xffffffffffffffffffffffffffffffffffffffff\n      and\n      0x9fe140b1\n        /* \"contracts/Soboro.sol\":1764:1786  crumb.getSurveyCount() */\n      mload(0x40)\n      dup2\n      0xffffffff\n      and\n      0xe0\n      shl\n      dup2\n      mstore\n      0x04\n      add\n      0x20\n      mload(0x40)\n      dup1\n      dup4\n      sub\n      dup2\n      dup7\n      gas\n      staticcall\n      iszero\n      dup1\n      iszero\n      tag_98\n      jumpi\n      returndatasize\n      0x00\n      dup1\n      returndatacopy\n      revert(0x00, returndatasize)\n    tag_98:\n      pop\n      pop\n      pop\n      pop\n      mload(0x40)\n      returndatasize\n      not(0x1f)\n      0x1f\n      dup3\n      add\n      and\n      dup3\n      add\n      dup1\n      0x40\n      mstore\n      pop\n      dup2\n      add\n      swap1\n      tag_99\n      swap2\n      swap1\n      tag_100\n      jump\t// in\n    tag_99:\n        /* \"contracts/Soboro.sol\":1742:1786  uint countOfSurveys = crumb.getSurveyCount() */\n      swap1\n      pop\n        /* \"contracts/Soboro.sol\":1796:1801  crumb */\n      dup2\n        /* \"contracts/Soboro.sol\":1796:1814  crumb.createSurvey */\n      0xffffffffffffffffffffffffffffffffffffffff\n      and\n      0x0c4960dd\n        /* \"contracts/Soboro.sol\":1815:1824  _question */\n      dup8\n        /* \"contracts/Soboro.sol\":1826:1834  _options */\n      dup8\n        /* \"contracts/Soboro.sol\":1836:1855  _initialActiveState */\n      dup8\n        /* \"contracts/Soboro.sol\":1796:1856  crumb.createSurvey(_question, _options, _initialActiveState) */\n      mload(0x40)\n      dup5\n      0xffffffff\n      and\n      0xe0\n      shl\n      dup2\n      mstore\n      0x04\n      add\n      tag_101\n      swap4\n      swap3\n      swap2\n      swap1\n      tag_102\n      jump\t// in\n    tag_101:\n      0x00\n      mload(0x40)\n      dup1\n      dup4\n      sub\n      dup2\n      0x00\n      dup8\n      dup1\n      extcodesize\n      iszero\n      dup1\n      iszero\n      tag_103\n      jumpi\n      0x00\n      dup1\n      revert\n    tag_103:\n      pop\n      gas\n      call\n      iszero\n      dup1\n      iszero\n      tag_105\n      jumpi\n      returndatasize\n      0x00\n      dup1\n      returndatacopy\n      revert(0x00, returndatasize)\n    tag_105:\n      pop\n      pop\n      pop\n      pop\n        /* \"contracts/Soboro.sol\":1514:1904  {... */\n      pop\n      pop\n      pop\n        /* \"contracts/Soboro.sol\":1382:1904  function requestSurveyCreationOnCrumb(string memory _question, string[] memory _options, bool _initialActiveState) public onlyOwner {... */\n      pop\n      pop\n      pop\n      jump\t// out\n        /* \"@openzeppelin/contracts/token/ERC20/ERC20.sol\":1760:1849  function name() public view virtual returns (string memory) {... */\n    tag_28:\n        /* \"@openzeppelin/contracts/token/ERC20/ERC20.sol\":1805:1818  string memory */\n      0x60\n        /* \"@openzeppelin/contracts/token/ERC20/ERC20.sol\":1837:1842  _name */\n      0x03\n        /* \"@openzeppelin/contracts/token/ERC20/ERC20.sol\":1830:1842  return _name */\n      dup1\n      sload\n      tag_107\n      swap1\n      tag_108\n      jump\t// in\n    tag_107:\n      dup1\n      0x1f\n      add\n      0x20\n      dup1\n      swap2\n      div\n      mul\n      0x20\n      add\n      mload(0x40)\n      swap1\n      dup2\n      add\n      0x40\n      mstore\n      dup1\n      swap3\n      swap2\n      swap1\n      dup2\n      dup2\n      mstore\n      0x20\n      add\n      dup3\n      dup1\n      sload\n      tag_109\n      swap1\n      tag_108\n      jump\t// in\n    tag_109:\n      dup1\n      iszero\n      tag_110\n      jumpi\n      dup1\n      0x1f\n      lt\n      tag_111\n      jumpi\n      0x0100\n      dup1\n      dup4\n      sload\n      div\n      mul\n      dup4\n      mstore\n      swap2\n      0x20\n      add\n      swap2\n      jump(tag_110)\n    tag_111:\n      dup3\n      add\n      swap2\n      swap1\n      0x00\n      mstore\n      keccak256(0x00, 0x20)\n      swap1\n    tag_112:\n      dup2\n      sload\n      dup2\n      mstore\n      swap1\n      0x01\n      add\n      swap1\n      0x20\n      add\n      dup1\n      dup4\n      gt\n      tag_112\n      jumpi\n      dup3\n      swap1\n      sub\n      0x1f\n      and\n      dup3\n      add\n      swap2\n    tag_110:\n      pop\n      pop\n      pop\n      pop\n      pop\n      swap1\n      pop\n        /* \"@openzeppelin/contracts/token/ERC20/ERC20.sol\":1760:1849  function name() public view virtual returns (string memory) {... */\n      swap1\n      jump\t// out\n        /* \"@openzeppelin/contracts/token/ERC20/ERC20.sol\":3979:4165  function approve(address spender, uint256 value) public virtual returns (bool) {... */\n    tag_34:\n        /* \"@openzeppelin/contracts/token/ERC20/ERC20.sol\":4052:4056  bool */\n      0x00\n        /* \"@openzeppelin/contracts/token/ERC20/ERC20.sol\":4068:4081  address owner */\n      dup1\n        /* \"@openzeppelin/contracts/token/ERC20/ERC20.sol\":4084:4096  _msgSender() */\n      tag_114\n        /* \"@openzeppelin/contracts/token/ERC20/ERC20.sol\":4084:4094  _msgSender */\n      tag_115\n        /* \"@openzeppelin/contracts/token/ERC20/ERC20.sol\":4084:4096  _msgSender() */\n      jump\t// in\n    tag_114:\n        /* \"@openzeppelin/contracts/token/ERC20/ERC20.sol\":4068:4096  address owner = _msgSender() */\n      swap1\n      pop\n        /* \"@openzeppelin/contracts/token/ERC20/ERC20.sol\":4106:4137  _approve(owner, spender, value) */\n      tag_116\n        /* \"@openzeppelin/contracts/token/ERC20/ERC20.sol\":4115:4120  owner */\n      dup2\n        /* \"@openzeppelin/contracts/token/ERC20/ERC20.sol\":4122:4129  spender */\n      dup6\n        /* \"@openzeppelin/contracts/token/ERC20/ERC20.sol\":4131:4136  value */\n      dup6\n        /* \"@openzeppelin/contracts/token/ERC20/ERC20.sol\":4106:4114  _approve */\n      tag_117\n        /* \"@openzeppelin/contracts/token/ERC20/ERC20.sol\":4106:4137  _approve(owner, spender, value) */\n      jump\t// in\n    tag_116:\n        /* \"@openzeppelin/contracts/token/ERC20/ERC20.sol\":4154:4158  true */\n      0x01\n        /* \"@openzeppelin/contracts/token/ERC20/ERC20.sol\":4147:4158  return true */\n      swap2\n      pop\n      pop\n        /* \"@openzeppelin/contracts/token/ERC20/ERC20.sol\":3979:4165  function approve(address spender, uint256 value) public virtual returns (bool) {... */\n      swap3\n      swap2\n      pop\n      pop\n      jump\t// out\n        /* \"@openzeppelin/contracts/token/ERC20/ERC20.sol\":2830:2927  function totalSupply() public view virtual returns (uint256) {... */\n    tag_38:\n        /* \"@openzeppelin/contracts/token/ERC20/ERC20.sol\":2882:2889  uint256 */\n      0x00\n        /* \"@openzeppelin/contracts/token/ERC20/ERC20.sol\":2908:2920  _totalSupply */\n      sload(0x02)\n        /* \"@openzeppelin/contracts/token/ERC20/ERC20.sol\":2901:2920  return _totalSupply */\n      swap1\n      pop\n        /* \"@openzeppelin/contracts/token/ERC20/ERC20.sol\":2830:2927  function totalSupply() public view virtual returns (uint256) {... */\n      swap1\n      jump\t// out\n        /* \"@openzeppelin/contracts/token/ERC20/ERC20.sol\":4757:5001  function transferFrom(address from, address to, uint256 value) public virtual returns (bool) {... */\n    tag_44:\n        /* \"@openzeppelin/contracts/token/ERC20/ERC20.sol\":4844:4848  bool */\n      0x00\n        /* \"@openzeppelin/contracts/token/ERC20/ERC20.sol\":4860:4875  address spender */\n      dup1\n        /* \"@openzeppelin/contracts/token/ERC20/ERC20.sol\":4878:4890  _msgSender() */\n      tag_120\n        /* \"@openzeppelin/contracts/token/ERC20/ERC20.sol\":4878:4888  _msgSender */\n      tag_115\n        /* \"@openzeppelin/contracts/token/ERC20/ERC20.sol\":4878:4890  _msgSender() */\n      jump\t// in\n    tag_120:\n        /* \"@openzeppelin/contracts/token/ERC20/ERC20.sol\":4860:4890  address spender = _msgSender() */\n      swap1\n      pop\n        /* \"@openzeppelin/contracts/token/ERC20/ERC20.sol\":4900:4937  _spendAllowance(from, spender, value) */\n      tag_121\n        /* \"@openzeppelin/contracts/token/ERC20/ERC20.sol\":4916:4920  from */\n      dup6\n        /* \"@openzeppelin/contracts/token/ERC20/ERC20.sol\":4922:4929  spender */\n      dup3\n        /* \"@openzeppelin/contracts/token/ERC20/ERC20.sol\":4931:4936  value */\n      dup6\n        /* \"@openzeppelin/contracts/token/ERC20/ERC20.sol\":4900:4915  _spendAllowance */\n      tag_122\n        /* \"@openzeppelin/contracts/token/ERC20/ERC20.sol\":4900:4937  _spendAllowance(from, spender, value) */\n      jump\t// in\n    tag_121:\n        /* \"@openzeppelin/contracts/token/ERC20/ERC20.sol\":4947:4973  _transfer(from, to, value) */\n      tag_123\n        /* \"@openzeppelin/contracts/token/ERC20/ERC20.sol\":4957:4961  from */\n      dup6\n        /* \"@openzeppelin/contracts/token/ERC20/ERC20.sol\":4963:4965  to */\n      dup6\n        /* \"@openzeppelin/contracts/token/ERC20/ERC20.sol\":4967:4972  value */\n      dup6\n        /* \"@openzeppelin/contracts/token/ERC20/ERC20.sol\":4947:4956  _transfer */\n      tag_124\n        /* \"@openzeppelin/contracts/token/ERC20/ERC20.sol\":4947:4973  _transfer(from, to, value) */\n      jump\t// in\n    tag_123:\n        /* \"@openzeppelin/contracts/token/ERC20/ERC20.sol\":4990:4994  true */\n      0x01\n        /* \"@openzeppelin/contracts/token/ERC20/ERC20.sol\":4983:4994  return true */\n      swap2\n      pop\n      pop\n        /* \"@openzeppelin/contracts/token/ERC20/ERC20.sol\":4757:5001  function transferFrom(address from, address to, uint256 value) public virtual returns (bool) {... */\n      swap4\n      swap3\n      pop\n      pop\n      pop\n      jump\t// out\n        /* \"@openzeppelin/contracts/token/ERC20/ERC20.sol\":2688:2770  function decimals() public view virtual returns (uint8) {... */\n    tag_47:\n        /* \"@openzeppelin/contracts/token/ERC20/ERC20.sol\":2737:2742  uint8 */\n      0x00\n        /* \"@openzeppelin/contracts/token/ERC20/ERC20.sol\":2761:2763  18 */\n      0x12\n        /* \"@openzeppelin/contracts/token/ERC20/ERC20.sol\":2754:2763  return 18 */\n      swap1\n      pop\n        /* \"@openzeppelin/contracts/token/ERC20/ERC20.sol\":2688:2770  function decimals() public view virtual returns (uint8) {... */\n      swap1\n      jump\t// out\n        /* \"@openzeppelin/contracts/token/ERC20/extensions/ERC20Capped.sol\":923:1004  function cap() public view virtual returns (uint256) {... */\n    tag_51:\n        /* \"@openzeppelin/contracts/token/ERC20/extensions/ERC20Capped.sol\":967:974  uint256 */\n      0x00\n        /* \"@openzeppelin/contracts/token/ERC20/extensions/ERC20Capped.sol\":993:997  _cap */\n      immutable(\"0x69de3b38836c938ac93bb31643655e6e0a011af0f354a009a432084d0f963864\")\n        /* \"@openzeppelin/contracts/token/ERC20/extensions/ERC20Capped.sol\":986:997  return _cap */\n      swap1\n      pop\n        /* \"@openzeppelin/contracts/token/ERC20/extensions/ERC20Capped.sol\":923:1004  function cap() public view virtual returns (uint256) {... */\n      swap1\n      jump\t// out\n        /* \"@openzeppelin/contracts/token/ERC20/extensions/ERC20Burnable.sol\":618:705  function burn(uint256 value) public virtual {... */\n    tag_56:\n        /* \"@openzeppelin/contracts/token/ERC20/extensions/ERC20Burnable.sol\":672:698  _burn(_msgSender(), value) */\n      tag_128\n        /* \"@openzeppelin/contracts/token/ERC20/extensions/ERC20Burnable.sol\":678:690  _msgSender() */\n      tag_129\n        /* \"@openzeppelin/contracts/token/ERC20/extensions/ERC20Burnable.sol\":678:688  _msgSender */\n      tag_115\n        /* \"@openzeppelin/contracts/token/ERC20/extensions/ERC20Burnable.sol\":678:690  _msgSender() */\n      jump\t// in\n    tag_129:\n        /* \"@openzeppelin/contracts/token/ERC20/extensions/ERC20Burnable.sol\":692:697  value */\n      dup3\n        /* \"@openzeppelin/contracts/token/ERC20/extensions/ERC20Burnable.sol\":672:677  _burn */\n      tag_130\n        /* \"@openzeppelin/contracts/token/ERC20/extensions/ERC20Burnable.sol\":672:698  _burn(_msgSender(), value) */\n      jump\t// in\n    tag_128:\n        /* \"@openzeppelin/contracts/token/ERC20/extensions/ERC20Burnable.sol\":618:705  function burn(uint256 value) public virtual {... */\n      pop\n      jump\t// out\n        /* \"contracts/Soboro.sol\":1108:1342  function createCrumbContract() public onlyOwner {... */\n    tag_58:\n        /* \"@openzeppelin/contracts/access/Ownable.sol\":1531:1544  _checkOwner() */\n      tag_132\n        /* \"@openzeppelin/contracts/access/Ownable.sol\":1531:1542  _checkOwner */\n      tag_90\n        /* \"@openzeppelin/contracts/access/Ownable.sol\":1531:1544  _checkOwner() */\n      jump\t// in\n    tag_132:\n        /* \"contracts/Soboro.sol\":1206:1207  0 */\n      0x00\n        /* \"contracts/Soboro.sol\":1174:1208  crumbMap[crumbGenID] == address(0) */\n      0xffffffffffffffffffffffffffffffffffffffff\n      and\n        /* \"contracts/Soboro.sol\":1174:1182  crumbMap */\n      0x06\n        /* \"contracts/Soboro.sol\":1174:1194  crumbMap[crumbGenID] */\n      0x00\n        /* \"contracts/Soboro.sol\":1183:1193  crumbGenID */\n      sload(0x07)\n        /* \"contracts/Soboro.sol\":1174:1194  crumbMap[crumbGenID] */\n      dup2\n      mstore\n      0x20\n      add\n      swap1\n      dup2\n      mstore\n      0x20\n      add\n      0x00\n      keccak256\n      0x00\n      swap1\n      sload\n      swap1\n      0x0100\n      exp\n      swap1\n      div\n      0xffffffffffffffffffffffffffffffffffffffff\n      and\n        /* \"contracts/Soboro.sol\":1174:1208  crumbMap[crumbGenID] == address(0) */\n      0xffffffffffffffffffffffffffffffffffffffff\n      and\n      eq\n        /* \"contracts/Soboro.sol\":1166:1231  require(crumbMap[crumbGenID] == address(0), \"crumb aleady baked\") */\n      tag_134\n      jumpi\n      mload(0x40)\n      0x08c379a000000000000000000000000000000000000000000000000000000000\n      dup2\n      mstore\n      0x04\n      add\n      tag_135\n      swap1\n      tag_136\n      jump\t// in\n    tag_135:\n      mload(0x40)\n      dup1\n      swap2\n      sub\n      swap1\n      revert\n    tag_134:\n        /* \"contracts/Soboro.sol\":1241:1252  Crumb crumb */\n      0x00\n        /* \"contracts/Soboro.sol\":1255:1266  new Crumb() */\n      mload(0x40)\n      tag_137\n      swap1\n      tag_138\n      jump\t// in\n    tag_137:\n      mload(0x40)\n      dup1\n      swap2\n      sub\n      swap1\n      0x00\n      create\n      dup1\n      iszero\n      dup1\n      iszero\n      tag_139\n      jumpi\n      returndatasize\n      0x00\n      dup1\n      returndatacopy\n      revert(0x00, returndatasize)\n    tag_139:\n      pop\n        /* \"contracts/Soboro.sol\":1241:1266  Crumb crumb = new Crumb() */\n      swap1\n      pop\n        /* \"contracts/Soboro.sol\":1307:1312  crumb */\n      dup1\n        /* \"contracts/Soboro.sol\":1276:1284  crumbMap */\n      0x06\n        /* \"contracts/Soboro.sol\":1276:1296  crumbMap[crumbGenID] */\n      0x00\n        /* \"contracts/Soboro.sol\":1285:1295  crumbGenID */\n      sload(0x07)\n        /* \"contracts/Soboro.sol\":1276:1296  crumbMap[crumbGenID] */\n      dup2\n      mstore\n      0x20\n      add\n      swap1\n      dup2\n      mstore\n      0x20\n      add\n      0x00\n      keccak256\n      0x00\n        /* \"contracts/Soboro.sol\":1276:1313  crumbMap[crumbGenID] = address(crumb) */\n      0x0100\n      exp\n      dup2\n      sload\n      dup2\n      0xffffffffffffffffffffffffffffffffffffffff\n      mul\n      not\n      and\n      swap1\n      dup4\n      0xffffffffffffffffffffffffffffffffffffffff\n      and\n      mul\n      or\n      swap1\n      sstore\n      pop\n        /* \"contracts/Soboro.sol\":1323:1333  crumbGenID */\n      0x07\n      0x00\n        /* \"contracts/Soboro.sol\":1323:1335  crumbGenID++ */\n      dup2\n      sload\n      dup1\n      swap3\n      swap2\n      swap1\n      tag_140\n      swap1\n      tag_141\n      jump\t// in\n    tag_140:\n      swap2\n      swap1\n      pop\n      sstore\n      pop\n        /* \"contracts/Soboro.sol\":1156:1342  {... */\n      pop\n        /* \"contracts/Soboro.sol\":1108:1342  function createCrumbContract() public onlyOwner {... */\n      jump\t// out\n        /* \"@openzeppelin/contracts/token/ERC20/ERC20.sol\":2985:3101  function balanceOf(address account) public view virtual returns (uint256) {... */\n    tag_62:\n        /* \"@openzeppelin/contracts/token/ERC20/ERC20.sol\":3050:3057  uint256 */\n      0x00\n        /* \"@openzeppelin/contracts/token/ERC20/ERC20.sol\":3076:3085  _balances */\n      dup1\n        /* \"@openzeppelin/contracts/token/ERC20/ERC20.sol\":3076:3094  _balances[account] */\n      0x00\n        /* \"@openzeppelin/contracts/token/ERC20/ERC20.sol\":3086:3093  account */\n      dup4\n        /* \"@openzeppelin/contracts/token/ERC20/ERC20.sol\":3076:3094  _balances[account] */\n      0xffffffffffffffffffffffffffffffffffffffff\n      and\n      0xffffffffffffffffffffffffffffffffffffffff\n      and\n      dup2\n      mstore\n      0x20\n      add\n      swap1\n      dup2\n      mstore\n      0x20\n      add\n      0x00\n      keccak256\n      sload\n        /* \"@openzeppelin/contracts/token/ERC20/ERC20.sol\":3069:3094  return _balances[account] */\n      swap1\n      pop\n        /* \"@openzeppelin/contracts/token/ERC20/ERC20.sol\":2985:3101  function balanceOf(address account) public view virtual returns (uint256) {... */\n      swap2\n      swap1\n      pop\n      jump\t// out\n        /* \"@openzeppelin/contracts/access/Ownable.sol\":2293:2394  function renounceOwnership() public virtual onlyOwner {... */\n    tag_65:\n        /* \"@openzeppelin/contracts/access/Ownable.sol\":1531:1544  _checkOwner() */\n      tag_144\n        /* \"@openzeppelin/contracts/access/Ownable.sol\":1531:1542  _checkOwner */\n      tag_90\n        /* \"@openzeppelin/contracts/access/Ownable.sol\":1531:1544  _checkOwner() */\n      jump\t// in\n    tag_144:\n        /* \"@openzeppelin/contracts/access/Ownable.sol\":2357:2387  _transferOwnership(address(0)) */\n      tag_146\n        /* \"@openzeppelin/contracts/access/Ownable.sol\":2384:2385  0 */\n      0x00\n        /* \"@openzeppelin/contracts/access/Ownable.sol\":2357:2375  _transferOwnership */\n      tag_147\n        /* \"@openzeppelin/contracts/access/Ownable.sol\":2357:2387  _transferOwnership(address(0)) */\n      jump\t// in\n    tag_146:\n        /* \"@openzeppelin/contracts/access/Ownable.sol\":2293:2394  function renounceOwnership() public virtual onlyOwner {... */\n      jump\t// out\n        /* \"@openzeppelin/contracts/token/ERC20/extensions/ERC20Burnable.sol\":1021:1179  function burnFrom(address account, uint256 value) public virtual {... */\n    tag_68:\n        /* \"@openzeppelin/contracts/token/ERC20/extensions/ERC20Burnable.sol\":1096:1141  _spendAllowance(account, _msgSender(), value) */\n      tag_149\n        /* \"@openzeppelin/contracts/token/ERC20/extensions/ERC20Burnable.sol\":1112:1119  account */\n      dup3\n        /* \"@openzeppelin/contracts/token/ERC20/extensions/ERC20Burnable.sol\":1121:1133  _msgSender() */\n      tag_150\n        /* \"@openzeppelin/contracts/token/ERC20/extensions/ERC20Burnable.sol\":1121:1131  _msgSender */\n      tag_115\n        /* \"@openzeppelin/contracts/token/ERC20/extensions/ERC20Burnable.sol\":1121:1133  _msgSender() */\n      jump\t// in\n    tag_150:\n        /* \"@openzeppelin/contracts/token/ERC20/extensions/ERC20Burnable.sol\":1135:1140  value */\n      dup4\n        /* \"@openzeppelin/contracts/token/ERC20/extensions/ERC20Burnable.sol\":1096:1111  _spendAllowance */\n      tag_122\n        /* \"@openzeppelin/contracts/token/ERC20/extensions/ERC20Burnable.sol\":1096:1141  _spendAllowance(account, _msgSender(), value) */\n      jump\t// in\n    tag_149:\n        /* \"@openzeppelin/contracts/token/ERC20/extensions/ERC20Burnable.sol\":1151:1172  _burn(account, value) */\n      tag_151\n        /* \"@openzeppelin/contracts/token/ERC20/extensions/ERC20Burnable.sol\":1157:1164  account */\n      dup3\n        /* \"@openzeppelin/contracts/token/ERC20/extensions/ERC20Burnable.sol\":1166:1171  value */\n      dup3\n        /* \"@openzeppelin/contracts/token/ERC20/extensions/ERC20Burnable.sol\":1151:1156  _burn */\n      tag_130\n        /* \"@openzeppelin/contracts/token/ERC20/extensions/ERC20Burnable.sol\":1151:1172  _burn(account, value) */\n      jump\t// in\n    tag_151:\n        /* \"@openzeppelin/contracts/token/ERC20/extensions/ERC20Burnable.sol\":1021:1179  function burnFrom(address account, uint256 value) public virtual {... */\n      pop\n      pop\n      jump\t// out\n        /* \"@openzeppelin/contracts/access/Ownable.sol\":1638:1723  function owner() public view virtual returns (address) {... */\n    tag_70:\n        /* \"@openzeppelin/contracts/access/Ownable.sol\":1684:1691  address */\n      0x00\n        /* \"@openzeppelin/contracts/access/Ownable.sol\":1710:1716  _owner */\n      0x05\n      0x00\n      swap1\n      sload\n      swap1\n      0x0100\n      exp\n      swap1\n      div\n      0xffffffffffffffffffffffffffffffffffffffff\n      and\n        /* \"@openzeppelin/contracts/access/Ownable.sol\":1703:1716  return _owner */\n      swap1\n      pop\n        /* \"@openzeppelin/contracts/access/Ownable.sol\":1638:1723  function owner() public view virtual returns (address) {... */\n      swap1\n      jump\t// out\n        /* \"@openzeppelin/contracts/token/ERC20/ERC20.sol\":1962:2055  function symbol() public view virtual returns (string memory) {... */\n    tag_74:\n        /* \"@openzeppelin/contracts/token/ERC20/ERC20.sol\":2009:2022  string memory */\n      0x60\n        /* \"@openzeppelin/contracts/token/ERC20/ERC20.sol\":2041:2048  _symbol */\n      0x04\n        /* \"@openzeppelin/contracts/token/ERC20/ERC20.sol\":2034:2048  return _symbol */\n      dup1\n      sload\n      tag_154\n      swap1\n      tag_108\n      jump\t// in\n    tag_154:\n      dup1\n      0x1f\n      add\n      0x20\n      dup1\n      swap2\n      div\n      mul\n      0x20\n      add\n      mload(0x40)\n      swap1\n      dup2\n      add\n      0x40\n      mstore\n      dup1\n      swap3\n      swap2\n      swap1\n      dup2\n      dup2\n      mstore\n      0x20\n      add\n      dup3\n      dup1\n      sload\n      tag_155\n      swap1\n      tag_108\n      jump\t// in\n    tag_155:\n      dup1\n      iszero\n      tag_156\n      jumpi\n      dup1\n      0x1f\n      lt\n      tag_157\n      jumpi\n      0x0100\n      dup1\n      dup4\n      sload\n      div\n      mul\n      dup4\n      mstore\n      swap2\n      0x20\n      add\n      swap2\n      jump(tag_156)\n    tag_157:\n      dup3\n      add\n      swap2\n      swap1\n      0x00\n      mstore\n      keccak256(0x00, 0x20)\n      swap1\n    tag_158:\n      dup2\n      sload\n      dup2\n      mstore\n      swap1\n      0x01\n      add\n      swap1\n      0x20\n      add\n      dup1\n      dup4\n      gt\n      tag_158\n      jumpi\n      dup3\n      swap1\n      sub\n      0x1f\n      and\n      dup3\n      add\n      swap2\n    tag_156:\n      pop\n      pop\n      pop\n      pop\n      pop\n      swap1\n      pop\n        /* \"@openzeppelin/contracts/token/ERC20/ERC20.sol\":1962:2055  function symbol() public view virtual returns (string memory) {... */\n      swap1\n      jump\t// out\n        /* \"@openzeppelin/contracts/token/ERC20/ERC20.sol\":3296:3474  function transfer(address to, uint256 value) public virtual returns (bool) {... */\n    tag_78:\n        /* \"@openzeppelin/contracts/token/ERC20/ERC20.sol\":3365:3369  bool */\n      0x00\n        /* \"@openzeppelin/contracts/token/ERC20/ERC20.sol\":3381:3394  address owner */\n      dup1\n        /* \"@openzeppelin/contracts/token/ERC20/ERC20.sol\":3397:3409  _msgSender() */\n      tag_160\n        /* \"@openzeppelin/contracts/token/ERC20/ERC20.sol\":3397:3407  _msgSender */\n      tag_115\n        /* \"@openzeppelin/contracts/token/ERC20/ERC20.sol\":3397:3409  _msgSender() */\n      jump\t// in\n    tag_160:\n        /* \"@openzeppelin/contracts/token/ERC20/ERC20.sol\":3381:3409  address owner = _msgSender() */\n      swap1\n      pop\n        /* \"@openzeppelin/contracts/token/ERC20/ERC20.sol\":3419:3446  _transfer(owner, to, value) */\n      tag_161\n        /* \"@openzeppelin/contracts/token/ERC20/ERC20.sol\":3429:3434  owner */\n      dup2\n        /* \"@openzeppelin/contracts/token/ERC20/ERC20.sol\":3436:3438  to */\n      dup6\n        /* \"@openzeppelin/contracts/token/ERC20/ERC20.sol\":3440:3445  value */\n      dup6\n        /* \"@openzeppelin/contracts/token/ERC20/ERC20.sol\":3419:3428  _transfer */\n      tag_124\n        /* \"@openzeppelin/contracts/token/ERC20/ERC20.sol\":3419:3446  _transfer(owner, to, value) */\n      jump\t// in\n    tag_161:\n        /* \"@openzeppelin/contracts/token/ERC20/ERC20.sol\":3463:3467  true */\n      0x01\n        /* \"@openzeppelin/contracts/token/ERC20/ERC20.sol\":3456:3467  return true */\n      swap2\n      pop\n      pop\n        /* \"@openzeppelin/contracts/token/ERC20/ERC20.sol\":3296:3474  function transfer(address to, uint256 value) public virtual returns (bool) {... */\n      swap3\n      swap2\n      pop\n      pop\n      jump\t// out\n        /* \"@openzeppelin/contracts/token/ERC20/ERC20.sol\":3532:3672  function allowance(address owner, address spender) public view virtual returns (uint256) {... */\n    tag_83:\n        /* \"@openzeppelin/contracts/token/ERC20/ERC20.sol\":3612:3619  uint256 */\n      0x00\n        /* \"@openzeppelin/contracts/token/ERC20/ERC20.sol\":3638:3649  _allowances */\n      0x01\n        /* \"@openzeppelin/contracts/token/ERC20/ERC20.sol\":3638:3656  _allowances[owner] */\n      0x00\n        /* \"@openzeppelin/contracts/token/ERC20/ERC20.sol\":3650:3655  owner */\n      dup5\n        /* \"@openzeppelin/contracts/token/ERC20/ERC20.sol\":3638:3656  _allowances[owner] */\n      0xffffffffffffffffffffffffffffffffffffffff\n      and\n      0xffffffffffffffffffffffffffffffffffffffff\n      and\n      dup2\n      mstore\n      0x20\n      add\n      swap1\n      dup2\n      mstore\n      0x20\n      add\n      0x00\n      keccak256\n        /* \"@openzeppelin/contracts/token/ERC20/ERC20.sol\":3638:3665  _allowances[owner][spender] */\n      0x00\n        /* \"@openzeppelin/contracts/token/ERC20/ERC20.sol\":3657:3664  spender */\n      dup4\n        /* \"@openzeppelin/contracts/token/ERC20/ERC20.sol\":3638:3665  _allowances[owner][spender] */\n      0xffffffffffffffffffffffffffffffffffffffff\n      and\n      0xffffffffffffffffffffffffffffffffffffffff\n      and\n      dup2\n      mstore\n      0x20\n      add\n      swap1\n      dup2\n      mstore\n      0x20\n      add\n      0x00\n      keccak256\n      sload\n        /* \"@openzeppelin/contracts/token/ERC20/ERC20.sol\":3631:3665  return _allowances[owner][spender] */\n      swap1\n      pop\n        /* \"@openzeppelin/contracts/token/ERC20/ERC20.sol\":3532:3672  function allowance(address owner, address spender) public view virtual returns (uint256) {... */\n      swap3\n      swap2\n      pop\n      pop\n      jump\t// out\n        /* \"@openzeppelin/contracts/access/Ownable.sol\":2543:2758  function transferOwnership(address newOwner) public virtual onlyOwner {... */\n    tag_87:\n        /* \"@openzeppelin/contracts/access/Ownable.sol\":1531:1544  _checkOwner() */\n      tag_164\n        /* \"@openzeppelin/contracts/access/Ownable.sol\":1531:1542  _checkOwner */\n      tag_90\n        /* \"@openzeppelin/contracts/access/Ownable.sol\":1531:1544  _checkOwner() */\n      jump\t// in\n    tag_164:\n        /* \"@openzeppelin/contracts/access/Ownable.sol\":2647:2648  0 */\n      0x00\n        /* \"@openzeppelin/contracts/access/Ownable.sol\":2627:2649  newOwner == address(0) */\n      0xffffffffffffffffffffffffffffffffffffffff\n      and\n        /* \"@openzeppelin/contracts/access/Ownable.sol\":2627:2635  newOwner */\n      dup2\n        /* \"@openzeppelin/contracts/access/Ownable.sol\":2627:2649  newOwner == address(0) */\n      0xffffffffffffffffffffffffffffffffffffffff\n      and\n      sub\n        /* \"@openzeppelin/contracts/access/Ownable.sol\":2623:2714  if (newOwner == address(0)) {... */\n      tag_166\n      jumpi\n        /* \"@openzeppelin/contracts/access/Ownable.sol\":2700:2701  0 */\n      0x00\n        /* \"@openzeppelin/contracts/access/Ownable.sol\":2672:2703  OwnableInvalidOwner(address(0)) */\n      mload(0x40)\n      0x1e4fbdf700000000000000000000000000000000000000000000000000000000\n      dup2\n      mstore\n      0x04\n      add\n      tag_167\n      swap2\n      swap1\n      tag_72\n      jump\t// in\n    tag_167:\n      mload(0x40)\n      dup1\n      swap2\n      sub\n      swap1\n      revert\n        /* \"@openzeppelin/contracts/access/Ownable.sol\":2623:2714  if (newOwner == address(0)) {... */\n    tag_166:\n        /* \"@openzeppelin/contracts/access/Ownable.sol\":2723:2751  _transferOwnership(newOwner) */\n      tag_168\n        /* \"@openzeppelin/contracts/access/Ownable.sol\":2742:2750  newOwner */\n      dup2\n        /* \"@openzeppelin/contracts/access/Ownable.sol\":2723:2741  _transferOwnership */\n      tag_147\n        /* \"@openzeppelin/contracts/access/Ownable.sol\":2723:2751  _transferOwnership(newOwner) */\n      jump\t// in\n    tag_168:\n        /* \"@openzeppelin/contracts/access/Ownable.sol\":2543:2758  function transferOwnership(address newOwner) public virtual onlyOwner {... */\n      pop\n      jump\t// out\n        /* \"@openzeppelin/contracts/access/Ownable.sol\":1796:1958  function _checkOwner() internal view virtual {... */\n    tag_90:\n        /* \"@openzeppelin/contracts/access/Ownable.sol\":1866:1878  _msgSender() */\n      tag_170\n        /* \"@openzeppelin/contracts/access/Ownable.sol\":1866:1876  _msgSender */\n      tag_115\n        /* \"@openzeppelin/contracts/access/Ownable.sol\":1866:1878  _msgSender() */\n      jump\t// in\n    tag_170:\n        /* \"@openzeppelin/contracts/access/Ownable.sol\":1855:1878  owner() != _msgSender() */\n      0xffffffffffffffffffffffffffffffffffffffff\n      and\n        /* \"@openzeppelin/contracts/access/Ownable.sol\":1855:1862  owner() */\n      tag_171\n        /* \"@openzeppelin/contracts/access/Ownable.sol\":1855:1860  owner */\n      tag_70\n        /* \"@openzeppelin/contracts/access/Ownable.sol\":1855:1862  owner() */\n      jump\t// in\n    tag_171:\n        /* \"@openzeppelin/contracts/access/Ownable.sol\":1855:1878  owner() != _msgSender() */\n      0xffffffffffffffffffffffffffffffffffffffff\n      and\n      eq\n        /* \"@openzeppelin/contracts/access/Ownable.sol\":1851:1952  if (owner() != _msgSender()) {... */\n      tag_172\n      jumpi\n        /* \"@openzeppelin/contracts/access/Ownable.sol\":1928:1940  _msgSender() */\n      tag_173\n        /* \"@openzeppelin/contracts/access/Ownable.sol\":1928:1938  _msgSender */\n      tag_115\n        /* \"@openzeppelin/contracts/access/Ownable.sol\":1928:1940  _msgSender() */\n      jump\t// in\n    tag_173:\n        /* \"@openzeppelin/contracts/access/Ownable.sol\":1901:1941  OwnableUnauthorizedAccount(_msgSender()) */\n      mload(0x40)\n      0x118cdaa700000000000000000000000000000000000000000000000000000000\n      dup2\n      mstore\n      0x04\n      add\n      tag_174\n      swap2\n      swap1\n      tag_72\n      jump\t// in\n    tag_174:\n      mload(0x40)\n      dup1\n      swap2\n      sub\n      swap1\n      revert\n        /* \"@openzeppelin/contracts/access/Ownable.sol\":1851:1952  if (owner() != _msgSender()) {... */\n    tag_172:\n        /* \"@openzeppelin/contracts/access/Ownable.sol\":1796:1958  function _checkOwner() internal view virtual {... */\n      jump\t// out\n        /* \"@openzeppelin/contracts/utils/Context.sol\":656:752  function _msgSender() internal view virtual returns (address) {... */\n    tag_115:\n        /* \"@openzeppelin/contracts/utils/Context.sol\":709:716  address */\n      0x00\n        /* \"@openzeppelin/contracts/utils/Context.sol\":735:745  msg.sender */\n      caller\n        /* \"@openzeppelin/contracts/utils/Context.sol\":728:745  return msg.sender */\n      swap1\n      pop\n        /* \"@openzeppelin/contracts/utils/Context.sol\":656:752  function _msgSender() internal view virtual returns (address) {... */\n      swap1\n      jump\t// out\n        /* \"@openzeppelin/contracts/token/ERC20/ERC20.sol\":8707:8835  function _approve(address owner, address spender, uint256 value) internal {... */\n    tag_117:\n        /* \"@openzeppelin/contracts/token/ERC20/ERC20.sol\":8791:8828  _approve(owner, spender, value, true) */\n      tag_177\n        /* \"@openzeppelin/contracts/token/ERC20/ERC20.sol\":8800:8805  owner */\n      dup4\n        /* \"@openzeppelin/contracts/token/ERC20/ERC20.sol\":8807:8814  spender */\n      dup4\n        /* \"@openzeppelin/contracts/token/ERC20/ERC20.sol\":8816:8821  value */\n      dup4\n        /* \"@openzeppelin/contracts/token/ERC20/ERC20.sol\":8823:8827  true */\n      0x01\n        /* \"@openzeppelin/contracts/token/ERC20/ERC20.sol\":8791:8799  _approve */\n      tag_178\n        /* \"@openzeppelin/contracts/token/ERC20/ERC20.sol\":8791:8828  _approve(owner, spender, value, true) */\n      jump\t// in\n    tag_177:\n        /* \"@openzeppelin/contracts/token/ERC20/ERC20.sol\":8707:8835  function _approve(address owner, address spender, uint256 value) internal {... */\n      pop\n      pop\n      pop\n      jump\t// out\n        /* \"@openzeppelin/contracts/token/ERC20/ERC20.sol\":10396:10872  function _spendAllowance(address owner, address spender, uint256 value) internal virtual {... */\n    tag_122:\n        /* \"@openzeppelin/contracts/token/ERC20/ERC20.sol\":10495:10519  uint256 currentAllowance */\n      0x00\n        /* \"@openzeppelin/contracts/token/ERC20/ERC20.sol\":10522:10547  allowance(owner, spender) */\n      tag_180\n        /* \"@openzeppelin/contracts/token/ERC20/ERC20.sol\":10532:10537  owner */\n      dup5\n        /* \"@openzeppelin/contracts/token/ERC20/ERC20.sol\":10539:10546  spender */\n      dup5\n        /* \"@openzeppelin/contracts/token/ERC20/ERC20.sol\":10522:10531  allowance */\n      tag_83\n        /* \"@openzeppelin/contracts/token/ERC20/ERC20.sol\":10522:10547  allowance(owner, spender) */\n      jump\t// in\n    tag_180:\n        /* \"@openzeppelin/contracts/token/ERC20/ERC20.sol\":10495:10547  uint256 currentAllowance = allowance(owner, spender) */\n      swap1\n      pop\n        /* \"@openzeppelin/contracts/token/ERC20/ERC20.sol\":10580:10597  type(uint256).max */\n      0xffffffffffffffffffffffffffffffffffffffffffffffffffffffffffffffff\n        /* \"@openzeppelin/contracts/token/ERC20/ERC20.sol\":10561:10577  currentAllowance */\n      dup2\n        /* \"@openzeppelin/contracts/token/ERC20/ERC20.sol\":10561:10597  currentAllowance < type(uint256).max */\n      lt\n        /* \"@openzeppelin/contracts/token/ERC20/ERC20.sol\":10557:10866  if (currentAllowance < type(uint256).max) {... */\n      iszero\n      tag_181\n      jumpi\n        /* \"@openzeppelin/contracts/token/ERC20/ERC20.sol\":10636:10641  value */\n      dup2\n        /* \"@openzeppelin/contracts/token/ERC20/ERC20.sol\":10617:10633  currentAllowance */\n      dup2\n        /* \"@openzeppelin/contracts/token/ERC20/ERC20.sol\":10617:10641  currentAllowance < value */\n      lt\n        /* \"@openzeppelin/contracts/token/ERC20/ERC20.sol\":10613:10743  if (currentAllowance < value) {... */\n      iszero\n      tag_182\n      jumpi\n        /* \"@openzeppelin/contracts/token/ERC20/ERC20.sol\":10695:10702  spender */\n      dup3\n        /* \"@openzeppelin/contracts/token/ERC20/ERC20.sol\":10704:10720  currentAllowance */\n      dup2\n        /* \"@openzeppelin/contracts/token/ERC20/ERC20.sol\":10722:10727  value */\n      dup4\n        /* \"@openzeppelin/contracts/token/ERC20/ERC20.sol\":10668:10728  ERC20InsufficientAllowance(spender, currentAllowance, value) */\n      mload(0x40)\n      0xfb8f41b200000000000000000000000000000000000000000000000000000000\n      dup2\n      mstore\n      0x04\n      add\n      tag_183\n      swap4\n      swap3\n      swap2\n      swap1\n      tag_184\n      jump\t// in\n    tag_183:\n      mload(0x40)\n      dup1\n      swap2\n      sub\n      swap1\n      revert\n        /* \"@openzeppelin/contracts/token/ERC20/ERC20.sol\":10613:10743  if (currentAllowance < value) {... */\n    tag_182:\n        /* \"@openzeppelin/contracts/token/ERC20/ERC20.sol\":10784:10841  _approve(owner, spender, currentAllowance - value, false) */\n      tag_185\n        /* \"@openzeppelin/contracts/token/ERC20/ERC20.sol\":10793:10798  owner */\n      dup5\n        /* \"@openzeppelin/contracts/token/ERC20/ERC20.sol\":10800:10807  spender */\n      dup5\n        /* \"@openzeppelin/contracts/token/ERC20/ERC20.sol\":10828:10833  value */\n      dup5\n        /* \"@openzeppelin/contracts/token/ERC20/ERC20.sol\":10809:10825  currentAllowance */\n      dup5\n        /* \"@openzeppelin/contracts/token/ERC20/ERC20.sol\":10809:10833  currentAllowance - value */\n      sub\n        /* \"@openzeppelin/contracts/token/ERC20/ERC20.sol\":10835:10840  false */\n      0x00\n        /* \"@openzeppelin/contracts/token/ERC20/ERC20.sol\":10784:10792  _approve */\n      tag_178\n        /* \"@openzeppelin/contracts/token/ERC20/ERC20.sol\":10784:10841  _approve(owner, spender, currentAllowance - value, false) */\n      jump\t// in\n    tag_185:\n        /* \"@openzeppelin/contracts/token/ERC20/ERC20.sol\":10557:10866  if (currentAllowance < type(uint256).max) {... */\n    tag_181:\n        /* \"@openzeppelin/contracts/token/ERC20/ERC20.sol\":10485:10872  {... */\n      pop\n        /* \"@openzeppelin/contracts/token/ERC20/ERC20.sol\":10396:10872  function _spendAllowance(address owner, address spender, uint256 value) internal virtual {... */\n      pop\n      pop\n      pop\n      jump\t// out\n        /* \"@openzeppelin/contracts/token/ERC20/ERC20.sol\":5374:5674  function _transfer(address from, address to, uint256 value) internal {... */\n    tag_124:\n        /* \"@openzeppelin/contracts/token/ERC20/ERC20.sol\":5473:5474  0 */\n      0x00\n        /* \"@openzeppelin/contracts/token/ERC20/ERC20.sol\":5457:5475  from == address(0) */\n      0xffffffffffffffffffffffffffffffffffffffff\n      and\n        /* \"@openzeppelin/contracts/token/ERC20/ERC20.sol\":5457:5461  from */\n      dup4\n        /* \"@openzeppelin/contracts/token/ERC20/ERC20.sol\":5457:5475  from == address(0) */\n      0xffffffffffffffffffffffffffffffffffffffff\n      and\n      sub\n        /* \"@openzeppelin/contracts/token/ERC20/ERC20.sol\":5453:5539  if (from == address(0)) {... */\n      tag_187\n      jumpi\n        /* \"@openzeppelin/contracts/token/ERC20/ERC20.sol\":5525:5526  0 */\n      0x00\n        /* \"@openzeppelin/contracts/token/ERC20/ERC20.sol\":5498:5528  ERC20InvalidSender(address(0)) */\n      mload(0x40)\n      0x96c6fd1e00000000000000000000000000000000000000000000000000000000\n      dup2\n      mstore\n      0x04\n      add\n      tag_188\n      swap2\n      swap1\n      tag_72\n      jump\t// in\n    tag_188:\n      mload(0x40)\n      dup1\n      swap2\n      sub\n      swap1\n      revert\n        /* \"@openzeppelin/contracts/token/ERC20/ERC20.sol\":5453:5539  if (from == address(0)) {... */\n    tag_187:\n        /* \"@openzeppelin/contracts/token/ERC20/ERC20.sol\":5566:5567  0 */\n      0x00\n        /* \"@openzeppelin/contracts/token/ERC20/ERC20.sol\":5552:5568  to == address(0) */\n      0xffffffffffffffffffffffffffffffffffffffff\n      and\n        /* \"@openzeppelin/contracts/token/ERC20/ERC20.sol\":5552:5554  to */\n      dup3\n        /* \"@openzeppelin/contracts/token/ERC20/ERC20.sol\":5552:5568  to == address(0) */\n      0xffffffffffffffffffffffffffffffffffffffff\n      and\n      sub\n        /* \"@openzeppelin/contracts/token/ERC20/ERC20.sol\":5548:5634  if (to == address(0)) {... */\n      tag_189\n      jumpi\n        /* \"@openzeppelin/contracts/token/ERC20/ERC20.sol\":5620:5621  0 */\n      0x00\n        /* \"@openzeppelin/contracts/token/ERC20/ERC20.sol\":5591:5623  ERC20InvalidReceiver(address(0)) */\n      mload(0x40)\n      0xec442f0500000000000000000000000000000000000000000000000000000000\n      dup2\n      mstore\n      0x04\n      add\n      tag_190\n      swap2\n      swap1\n      tag_72\n      jump\t// in\n    tag_190:\n      mload(0x40)\n      dup1\n      swap2\n      sub\n      swap1\n      revert\n        /* \"@openzeppelin/contracts/token/ERC20/ERC20.sol\":5548:5634  if (to == address(0)) {... */\n    tag_189:\n        /* \"@openzeppelin/contracts/token/ERC20/ERC20.sol\":5643:5667  _update(from, to, value) */\n      tag_191\n        /* \"@openzeppelin/contracts/token/ERC20/ERC20.sol\":5651:5655  from */\n      dup4\n        /* \"@openzeppelin/contracts/token/ERC20/ERC20.sol\":5657:5659  to */\n      dup4\n        /* \"@openzeppelin/contracts/token/ERC20/ERC20.sol\":5661:5666  value */\n      dup4\n        /* \"@openzeppelin/contracts/token/ERC20/ERC20.sol\":5643:5650  _update */\n      tag_192\n        /* \"@openzeppelin/contracts/token/ERC20/ERC20.sol\":5643:5667  _update(from, to, value) */\n      jump\t// in\n    tag_191:\n        /* \"@openzeppelin/contracts/token/ERC20/ERC20.sol\":5374:5674  function _transfer(address from, address to, uint256 value) internal {... */\n      pop\n      pop\n      pop\n      jump\t// out\n        /* \"@openzeppelin/contracts/token/ERC20/ERC20.sol\":7965:8171  function _burn(address account, uint256 value) internal {... */\n    tag_130:\n        /* \"@openzeppelin/contracts/token/ERC20/ERC20.sol\":8054:8055  0 */\n      0x00\n        /* \"@openzeppelin/contracts/token/ERC20/ERC20.sol\":8035:8056  account == address(0) */\n      0xffffffffffffffffffffffffffffffffffffffff\n      and\n        /* \"@openzeppelin/contracts/token/ERC20/ERC20.sol\":8035:8042  account */\n      dup3\n        /* \"@openzeppelin/contracts/token/ERC20/ERC20.sol\":8035:8056  account == address(0) */\n      0xffffffffffffffffffffffffffffffffffffffff\n      and\n      sub\n        /* \"@openzeppelin/contracts/token/ERC20/ERC20.sol\":8031:8120  if (account == address(0)) {... */\n      tag_194\n      jumpi\n        /* \"@openzeppelin/contracts/token/ERC20/ERC20.sol\":8106:8107  0 */\n      0x00\n        /* \"@openzeppelin/contracts/token/ERC20/ERC20.sol\":8079:8109  ERC20InvalidSender(address(0)) */\n      mload(0x40)\n      0x96c6fd1e00000000000000000000000000000000000000000000000000000000\n      dup2\n      mstore\n      0x04\n      add\n      tag_195\n      swap2\n      swap1\n      tag_72\n      jump\t// in\n    tag_195:\n      mload(0x40)\n      dup1\n      swap2\n      sub\n      swap1\n      revert\n        /* \"@openzeppelin/contracts/token/ERC20/ERC20.sol\":8031:8120  if (account == address(0)) {... */\n    tag_194:\n        /* \"@openzeppelin/contracts/token/ERC20/ERC20.sol\":8129:8164  _update(account, address(0), value) */\n      tag_196\n        /* \"@openzeppelin/contracts/token/ERC20/ERC20.sol\":8137:8144  account */\n      dup3\n        /* \"@openzeppelin/contracts/token/ERC20/ERC20.sol\":8154:8155  0 */\n      0x00\n        /* \"@openzeppelin/contracts/token/ERC20/ERC20.sol\":8158:8163  value */\n      dup4\n        /* \"@openzeppelin/contracts/token/ERC20/ERC20.sol\":8129:8136  _update */\n      tag_192\n        /* \"@openzeppelin/contracts/token/ERC20/ERC20.sol\":8129:8164  _update(account, address(0), value) */\n      jump\t// in\n    tag_196:\n        /* \"@openzeppelin/contracts/token/ERC20/ERC20.sol\":7965:8171  function _burn(address account, uint256 value) internal {... */\n      pop\n      pop\n      jump\t// out\n        /* \"@openzeppelin/contracts/access/Ownable.sol\":2912:3099  function _transferOwnership(address newOwner) internal virtual {... */\n    tag_147:\n        /* \"@openzeppelin/contracts/access/Ownable.sol\":2985:3001  address oldOwner */\n      0x00\n        /* \"@openzeppelin/contracts/access/Ownable.sol\":3004:3010  _owner */\n      0x05\n      0x00\n      swap1\n      sload\n      swap1\n      0x0100\n      exp\n      swap1\n      div\n      0xffffffffffffffffffffffffffffffffffffffff\n      and\n        /* \"@openzeppelin/contracts/access/Ownable.sol\":2985:3010  address oldOwner = _owner */\n      swap1\n      pop\n        /* \"@openzeppelin/contracts/access/Ownable.sol\":3029:3037  newOwner */\n      dup2\n        /* \"@openzeppelin/contracts/access/Ownable.sol\":3020:3026  _owner */\n      0x05\n      0x00\n        /* \"@openzeppelin/contracts/access/Ownable.sol\":3020:3037  _owner = newOwner */\n      0x0100\n      exp\n      dup2\n      sload\n      dup2\n      0xffffffffffffffffffffffffffffffffffffffff\n      mul\n      not\n      and\n      swap1\n      dup4\n      0xffffffffffffffffffffffffffffffffffffffff\n      and\n      mul\n      or\n      swap1\n      sstore\n      pop\n        /* \"@openzeppelin/contracts/access/Ownable.sol\":3083:3091  newOwner */\n      dup2\n        /* \"@openzeppelin/contracts/access/Ownable.sol\":3052:3092  OwnershipTransferred(oldOwner, newOwner) */\n      0xffffffffffffffffffffffffffffffffffffffff\n      and\n        /* \"@openzeppelin/contracts/access/Ownable.sol\":3073:3081  oldOwner */\n      dup2\n        /* \"@openzeppelin/contracts/access/Ownable.sol\":3052:3092  OwnershipTransferred(oldOwner, newOwner) */\n      0xffffffffffffffffffffffffffffffffffffffff\n      and\n      0x8be0079c531659141344cd1fd0a4f28419497f9722a3daafe3b4186f6b6457e0\n      mload(0x40)\n      mload(0x40)\n      dup1\n      swap2\n      sub\n      swap1\n      log3\n        /* \"@openzeppelin/contracts/access/Ownable.sol\":2975:3099  {... */\n      pop\n        /* \"@openzeppelin/contracts/access/Ownable.sol\":2912:3099  function _transferOwnership(address newOwner) internal virtual {... */\n      pop\n      jump\t// out\n        /* \"@openzeppelin/contracts/token/ERC20/ERC20.sol\":9682:10114  function _approve(address owner, address spender, uint256 value, bool emitEvent) internal virtual {... */\n    tag_178:\n        /* \"@openzeppelin/contracts/token/ERC20/ERC20.sol\":9811:9812  0 */\n      0x00\n        /* \"@openzeppelin/contracts/token/ERC20/ERC20.sol\":9794:9813  owner == address(0) */\n      0xffffffffffffffffffffffffffffffffffffffff\n      and\n        /* \"@openzeppelin/contracts/token/ERC20/ERC20.sol\":9794:9799  owner */\n      dup5\n        /* \"@openzeppelin/contracts/token/ERC20/ERC20.sol\":9794:9813  owner == address(0) */\n      0xffffffffffffffffffffffffffffffffffffffff\n      and\n      sub\n        /* \"@openzeppelin/contracts/token/ERC20/ERC20.sol\":9790:9879  if (owner == address(0)) {... */\n      tag_199\n      jumpi\n        /* \"@openzeppelin/contracts/token/ERC20/ERC20.sol\":9865:9866  0 */\n      0x00\n        /* \"@openzeppelin/contracts/token/ERC20/ERC20.sol\":9836:9868  ERC20InvalidApprover(address(0)) */\n      mload(0x40)\n      0xe602df0500000000000000000000000000000000000000000000000000000000\n      dup2\n      mstore\n      0x04\n      add\n      tag_200\n      swap2\n      swap1\n      tag_72\n      jump\t// in\n    tag_200:\n      mload(0x40)\n      dup1\n      swap2\n      sub\n      swap1\n      revert\n        /* \"@openzeppelin/contracts/token/ERC20/ERC20.sol\":9790:9879  if (owner == address(0)) {... */\n    tag_199:\n        /* \"@openzeppelin/contracts/token/ERC20/ERC20.sol\":9911:9912  0 */\n      0x00\n        /* \"@openzeppelin/contracts/token/ERC20/ERC20.sol\":9892:9913  spender == address(0) */\n      0xffffffffffffffffffffffffffffffffffffffff\n      and\n        /* \"@openzeppelin/contracts/token/ERC20/ERC20.sol\":9892:9899  spender */\n      dup4\n        /* \"@openzeppelin/contracts/token/ERC20/ERC20.sol\":9892:9913  spender == address(0) */\n      0xffffffffffffffffffffffffffffffffffffffff\n      and\n      sub\n        /* \"@openzeppelin/contracts/token/ERC20/ERC20.sol\":9888:9978  if (spender == address(0)) {... */\n      tag_201\n      jumpi\n        /* \"@openzeppelin/contracts/token/ERC20/ERC20.sol\":9964:9965  0 */\n      0x00\n        /* \"@openzeppelin/contracts/token/ERC20/ERC20.sol\":9936:9967  ERC20InvalidSpender(address(0)) */\n      mload(0x40)\n      0x94280d6200000000000000000000000000000000000000000000000000000000\n      dup2\n      mstore\n      0x04\n      add\n      tag_202\n      swap2\n      swap1\n      tag_72\n      jump\t// in\n    tag_202:\n      mload(0x40)\n      dup1\n      swap2\n      sub\n      swap1\n      revert\n        /* \"@openzeppelin/contracts/token/ERC20/ERC20.sol\":9888:9978  if (spender == address(0)) {... */\n    tag_201:\n        /* \"@openzeppelin/contracts/token/ERC20/ERC20.sol\":10017:10022  value */\n      dup2\n        /* \"@openzeppelin/contracts/token/ERC20/ERC20.sol\":9987:9998  _allowances */\n      0x01\n        /* \"@openzeppelin/contracts/token/ERC20/ERC20.sol\":9987:10005  _allowances[owner] */\n      0x00\n        /* \"@openzeppelin/contracts/token/ERC20/ERC20.sol\":9999:10004  owner */\n      dup7\n        /* \"@openzeppelin/contracts/token/ERC20/ERC20.sol\":9987:10005  _allowances[owner] */\n      0xffffffffffffffffffffffffffffffffffffffff\n      and\n      0xffffffffffffffffffffffffffffffffffffffff\n      and\n      dup2\n      mstore\n      0x20\n      add\n      swap1\n      dup2\n      mstore\n      0x20\n      add\n      0x00\n      keccak256\n        /* \"@openzeppelin/contracts/token/ERC20/ERC20.sol\":9987:10014  _allowances[owner][spender] */\n      0x00\n        /* \"@openzeppelin/contracts/token/ERC20/ERC20.sol\":10006:10013  spender */\n      dup6\n        /* \"@openzeppelin/contracts/token/ERC20/ERC20.sol\":9987:10014  _allowances[owner][spender] */\n      0xffffffffffffffffffffffffffffffffffffffff\n      and\n      0xffffffffffffffffffffffffffffffffffffffff\n      and\n      dup2\n      mstore\n      0x20\n      add\n      swap1\n      dup2\n      mstore\n      0x20\n      add\n      0x00\n      keccak256\n        /* \"@openzeppelin/contracts/token/ERC20/ERC20.sol\":9987:10022  _allowances[owner][spender] = value */\n      dup2\n      swap1\n      sstore\n      pop\n        /* \"@openzeppelin/contracts/token/ERC20/ERC20.sol\":10036:10045  emitEvent */\n      dup1\n        /* \"@openzeppelin/contracts/token/ERC20/ERC20.sol\":10032:10108  if (emitEvent) {... */\n      iszero\n      tag_203\n      jumpi\n        /* \"@openzeppelin/contracts/token/ERC20/ERC20.sol\":10082:10089  spender */\n      dup3\n        /* \"@openzeppelin/contracts/token/ERC20/ERC20.sol\":10066:10097  Approval(owner, spender, value) */\n      0xffffffffffffffffffffffffffffffffffffffff\n      and\n        /* \"@openzeppelin/contracts/token/ERC20/ERC20.sol\":10075:10080  owner */\n      dup5\n        /* \"@openzeppelin/contracts/token/ERC20/ERC20.sol\":10066:10097  Approval(owner, spender, value) */\n      0xffffffffffffffffffffffffffffffffffffffff\n      and\n      0x8c5be1e5ebec7d5bd14f71427d1e84f3dd0314c0f7b2291e5b200ac8c7c3b925\n        /* \"@openzeppelin/contracts/token/ERC20/ERC20.sol\":10091:10096  value */\n      dup5\n        /* \"@openzeppelin/contracts/token/ERC20/ERC20.sol\":10066:10097  Approval(owner, spender, value) */\n      mload(0x40)\n      tag_204\n      swap2\n      swap1\n      tag_40\n      jump\t// in\n    tag_204:\n      mload(0x40)\n      dup1\n      swap2\n      sub\n      swap1\n      log3\n        /* \"@openzeppelin/contracts/token/ERC20/ERC20.sol\":10032:10108  if (emitEvent) {... */\n    tag_203:\n        /* \"@openzeppelin/contracts/token/ERC20/ERC20.sol\":9682:10114  function _approve(address owner, address spender, uint256 value, bool emitEvent) internal virtual {... */\n      pop\n      pop\n      pop\n      pop\n      jump\t// out\n        /* \"contracts/Soboro.sol\":912:1055  function _update(address from, address to, uint256 value) internal override(ERC20, ERC20Capped) {... */\n    tag_192:\n        /* \"contracts/Soboro.sol\":1018:1048  super._update(from, to, value) */\n      tag_206\n        /* \"contracts/Soboro.sol\":1032:1036  from */\n      dup4\n        /* \"contracts/Soboro.sol\":1038:1040  to */\n      dup4\n        /* \"contracts/Soboro.sol\":1042:1047  value */\n      dup4\n        /* \"contracts/Soboro.sol\":1018:1031  super._update */\n      tag_207\n        /* \"contracts/Soboro.sol\":1018:1048  super._update(from, to, value) */\n      jump\t// in\n    tag_206:\n        /* \"contracts/Soboro.sol\":912:1055  function _update(address from, address to, uint256 value) internal override(ERC20, ERC20Capped) {... */\n      pop\n      pop\n      pop\n      jump\t// out\n        /* \"@openzeppelin/contracts/token/ERC20/extensions/ERC20Capped.sol\":1059:1430  function _update(address from, address to, uint256 value) internal virtual override {... */\n    tag_207:\n        /* \"@openzeppelin/contracts/token/ERC20/extensions/ERC20Capped.sol\":1153:1183  super._update(from, to, value) */\n      tag_209\n        /* \"@openzeppelin/contracts/token/ERC20/extensions/ERC20Capped.sol\":1167:1171  from */\n      dup4\n        /* \"@openzeppelin/contracts/token/ERC20/extensions/ERC20Capped.sol\":1173:1175  to */\n      dup4\n        /* \"@openzeppelin/contracts/token/ERC20/extensions/ERC20Capped.sol\":1177:1182  value */\n      dup4\n        /* \"@openzeppelin/contracts/token/ERC20/extensions/ERC20Capped.sol\":1153:1166  super._update */\n      tag_210\n        /* \"@openzeppelin/contracts/token/ERC20/extensions/ERC20Capped.sol\":1153:1183  super._update(from, to, value) */\n      jump\t// in\n    tag_209:\n        /* \"@openzeppelin/contracts/token/ERC20/extensions/ERC20Capped.sol\":1214:1215  0 */\n      0x00\n        /* \"@openzeppelin/contracts/token/ERC20/extensions/ERC20Capped.sol\":1198:1216  from == address(0) */\n      0xffffffffffffffffffffffffffffffffffffffff\n      and\n        /* \"@openzeppelin/contracts/token/ERC20/extensions/ERC20Capped.sol\":1198:1202  from */\n      dup4\n        /* \"@openzeppelin/contracts/token/ERC20/extensions/ERC20Capped.sol\":1198:1216  from == address(0) */\n      0xffffffffffffffffffffffffffffffffffffffff\n      and\n      sub\n        /* \"@openzeppelin/contracts/token/ERC20/extensions/ERC20Capped.sol\":1194:1424  if (from == address(0)) {... */\n      tag_211\n      jumpi\n        /* \"@openzeppelin/contracts/token/ERC20/extensions/ERC20Capped.sol\":1232:1249  uint256 maxSupply */\n      0x00\n        /* \"@openzeppelin/contracts/token/ERC20/extensions/ERC20Capped.sol\":1252:1257  cap() */\n      tag_212\n        /* \"@openzeppelin/contracts/token/ERC20/extensions/ERC20Capped.sol\":1252:1255  cap */\n      tag_51\n        /* \"@openzeppelin/contracts/token/ERC20/extensions/ERC20Capped.sol\":1252:1257  cap() */\n      jump\t// in\n    tag_212:\n        /* \"@openzeppelin/contracts/token/ERC20/extensions/ERC20Capped.sol\":1232:1257  uint256 maxSupply = cap() */\n      swap1\n      pop\n        /* \"@openzeppelin/contracts/token/ERC20/extensions/ERC20Capped.sol\":1271:1285  uint256 supply */\n      0x00\n        /* \"@openzeppelin/contracts/token/ERC20/extensions/ERC20Capped.sol\":1288:1301  totalSupply() */\n      tag_213\n        /* \"@openzeppelin/contracts/token/ERC20/extensions/ERC20Capped.sol\":1288:1299  totalSupply */\n      tag_38\n        /* \"@openzeppelin/contracts/token/ERC20/extensions/ERC20Capped.sol\":1288:1301  totalSupply() */\n      jump\t// in\n    tag_213:\n        /* \"@openzeppelin/contracts/token/ERC20/extensions/ERC20Capped.sol\":1271:1301  uint256 supply = totalSupply() */\n      swap1\n      pop\n        /* \"@openzeppelin/contracts/token/ERC20/extensions/ERC20Capped.sol\":1328:1337  maxSupply */\n      dup2\n        /* \"@openzeppelin/contracts/token/ERC20/extensions/ERC20Capped.sol\":1319:1325  supply */\n      dup2\n        /* \"@openzeppelin/contracts/token/ERC20/extensions/ERC20Capped.sol\":1319:1337  supply > maxSupply */\n      gt\n        /* \"@openzeppelin/contracts/token/ERC20/extensions/ERC20Capped.sol\":1315:1414  if (supply > maxSupply) {... */\n      iszero\n      tag_214\n      jumpi\n        /* \"@openzeppelin/contracts/token/ERC20/extensions/ERC20Capped.sol\":1381:1387  supply */\n      dup1\n        /* \"@openzeppelin/contracts/token/ERC20/extensions/ERC20Capped.sol\":1389:1398  maxSupply */\n      dup3\n        /* \"@openzeppelin/contracts/token/ERC20/extensions/ERC20Capped.sol\":1364:1399  ERC20ExceededCap(supply, maxSupply) */\n      mload(0x40)\n      0x9e79f85400000000000000000000000000000000000000000000000000000000\n      dup2\n      mstore\n      0x04\n      add\n      tag_215\n      swap3\n      swap2\n      swap1\n      tag_216\n      jump\t// in\n    tag_215:\n      mload(0x40)\n      dup1\n      swap2\n      sub\n      swap1\n      revert\n        /* \"@openzeppelin/contracts/token/ERC20/extensions/ERC20Capped.sol\":1315:1414  if (supply > maxSupply) {... */\n    tag_214:\n        /* \"@openzeppelin/contracts/token/ERC20/extensions/ERC20Capped.sol\":1218:1424  {... */\n      pop\n      pop\n        /* \"@openzeppelin/contracts/token/ERC20/extensions/ERC20Capped.sol\":1194:1424  if (from == address(0)) {... */\n    tag_211:\n        /* \"@openzeppelin/contracts/token/ERC20/extensions/ERC20Capped.sol\":1059:1430  function _update(address from, address to, uint256 value) internal virtual override {... */\n      pop\n      pop\n      pop\n      jump\t// out\n        /* \"@openzeppelin/contracts/token/ERC20/ERC20.sol\":5989:7096  function _update(address from, address to, uint256 value) internal virtual {... */\n    tag_210:\n        /* \"@openzeppelin/contracts/token/ERC20/ERC20.sol\":6094:6095  0 */\n      0x00\n        /* \"@openzeppelin/contracts/token/ERC20/ERC20.sol\":6078:6096  from == address(0) */\n      0xffffffffffffffffffffffffffffffffffffffff\n      and\n        /* \"@openzeppelin/contracts/token/ERC20/ERC20.sol\":6078:6082  from */\n      dup4\n        /* \"@openzeppelin/contracts/token/ERC20/ERC20.sol\":6078:6096  from == address(0) */\n      0xffffffffffffffffffffffffffffffffffffffff\n      and\n      sub\n        /* \"@openzeppelin/contracts/token/ERC20/ERC20.sol\":6074:6614  if (from == address(0)) {... */\n      tag_218\n      jumpi\n        /* \"@openzeppelin/contracts/token/ERC20/ERC20.sol\":6230:6235  value */\n      dup1\n        /* \"@openzeppelin/contracts/token/ERC20/ERC20.sol\":6214:6226  _totalSupply */\n      0x02\n      0x00\n        /* \"@openzeppelin/contracts/token/ERC20/ERC20.sol\":6214:6235  _totalSupply += value */\n      dup3\n      dup3\n      sload\n      tag_219\n      swap2\n      swap1\n      tag_220\n      jump\t// in\n    tag_219:\n      swap3\n      pop\n      pop\n      dup2\n      swap1\n      sstore\n      pop\n        /* \"@openzeppelin/contracts/token/ERC20/ERC20.sol\":6074:6614  if (from == address(0)) {... */\n      jump(tag_221)\n    tag_218:\n        /* \"@openzeppelin/contracts/token/ERC20/ERC20.sol\":6266:6285  uint256 fromBalance */\n      0x00\n        /* \"@openzeppelin/contracts/token/ERC20/ERC20.sol\":6288:6297  _balances */\n      dup1\n        /* \"@openzeppelin/contracts/token/ERC20/ERC20.sol\":6288:6303  _balances[from] */\n      0x00\n        /* \"@openzeppelin/contracts/token/ERC20/ERC20.sol\":6298:6302  from */\n      dup6\n        /* \"@openzeppelin/contracts/token/ERC20/ERC20.sol\":6288:6303  _balances[from] */\n      0xffffffffffffffffffffffffffffffffffffffff\n      and\n      0xffffffffffffffffffffffffffffffffffffffff\n      and\n      dup2\n      mstore\n      0x20\n      add\n      swap1\n      dup2\n      mstore\n      0x20\n      add\n      0x00\n      keccak256\n      sload\n        /* \"@openzeppelin/contracts/token/ERC20/ERC20.sol\":6266:6303  uint256 fromBalance = _balances[from] */\n      swap1\n      pop\n        /* \"@openzeppelin/contracts/token/ERC20/ERC20.sol\":6335:6340  value */\n      dup2\n        /* \"@openzeppelin/contracts/token/ERC20/ERC20.sol\":6321:6332  fromBalance */\n      dup2\n        /* \"@openzeppelin/contracts/token/ERC20/ERC20.sol\":6321:6340  fromBalance < value */\n      lt\n        /* \"@openzeppelin/contracts/token/ERC20/ERC20.sol\":6317:6432  if (fromBalance < value) {... */\n      iszero\n      tag_222\n      jumpi\n        /* \"@openzeppelin/contracts/token/ERC20/ERC20.sol\":6392:6396  from */\n      dup4\n        /* \"@openzeppelin/contracts/token/ERC20/ERC20.sol\":6398:6409  fromBalance */\n      dup2\n        /* \"@openzeppelin/contracts/token/ERC20/ERC20.sol\":6411:6416  value */\n      dup4\n        /* \"@openzeppelin/contracts/token/ERC20/ERC20.sol\":6367:6417  ERC20InsufficientBalance(from, fromBalance, value) */\n      mload(0x40)\n      0xe450d38c00000000000000000000000000000000000000000000000000000000\n      dup2\n      mstore\n      0x04\n      add\n      tag_223\n      swap4\n      swap3\n      swap2\n      swap1\n      tag_184\n      jump\t// in\n    tag_223:\n      mload(0x40)\n      dup1\n      swap2\n      sub\n      swap1\n      revert\n        /* \"@openzeppelin/contracts/token/ERC20/ERC20.sol\":6317:6432  if (fromBalance < value) {... */\n    tag_222:\n        /* \"@openzeppelin/contracts/token/ERC20/ERC20.sol\":6584:6589  value */\n      dup2\n        /* \"@openzeppelin/contracts/token/ERC20/ERC20.sol\":6570:6581  fromBalance */\n      dup2\n        /* \"@openzeppelin/contracts/token/ERC20/ERC20.sol\":6570:6589  fromBalance - value */\n      sub\n        /* \"@openzeppelin/contracts/token/ERC20/ERC20.sol\":6552:6561  _balances */\n      0x00\n        /* \"@openzeppelin/contracts/token/ERC20/ERC20.sol\":6552:6567  _balances[from] */\n      dup1\n        /* \"@openzeppelin/contracts/token/ERC20/ERC20.sol\":6562:6566  from */\n      dup7\n        /* \"@openzeppelin/contracts/token/ERC20/ERC20.sol\":6552:6567  _balances[from] */\n      0xffffffffffffffffffffffffffffffffffffffff\n      and\n      0xffffffffffffffffffffffffffffffffffffffff\n      and\n      dup2\n      mstore\n      0x20\n      add\n      swap1\n      dup2\n      mstore\n      0x20\n      add\n      0x00\n      keccak256\n        /* \"@openzeppelin/contracts/token/ERC20/ERC20.sol\":6552:6589  _balances[from] = fromBalance - value */\n      dup2\n      swap1\n      sstore\n      pop\n        /* \"@openzeppelin/contracts/token/ERC20/ERC20.sol\":6252:6614  {... */\n      pop\n        /* \"@openzeppelin/contracts/token/ERC20/ERC20.sol\":6074:6614  if (from == address(0)) {... */\n    tag_221:\n        /* \"@openzeppelin/contracts/token/ERC20/ERC20.sol\":6642:6643  0 */\n      0x00\n        /* \"@openzeppelin/contracts/token/ERC20/ERC20.sol\":6628:6644  to == address(0) */\n      0xffffffffffffffffffffffffffffffffffffffff\n      and\n        /* \"@openzeppelin/contracts/token/ERC20/ERC20.sol\":6628:6630  to */\n      dup3\n        /* \"@openzeppelin/contracts/token/ERC20/ERC20.sol\":6628:6644  to == address(0) */\n      0xffffffffffffffffffffffffffffffffffffffff\n      and\n      sub\n        /* \"@openzeppelin/contracts/token/ERC20/ERC20.sol\":6624:7049  if (to == address(0)) {... */\n      tag_224\n      jumpi\n        /* \"@openzeppelin/contracts/token/ERC20/ERC20.sol\":6807:6812  value */\n      dup1\n        /* \"@openzeppelin/contracts/token/ERC20/ERC20.sol\":6791:6803  _totalSupply */\n      0x02\n      0x00\n        /* \"@openzeppelin/contracts/token/ERC20/ERC20.sol\":6791:6812  _totalSupply -= value */\n      dup3\n      dup3\n      sload\n      sub\n      swap3\n      pop\n      pop\n      dup2\n      swap1\n      sstore\n      pop\n        /* \"@openzeppelin/contracts/token/ERC20/ERC20.sol\":6624:7049  if (to == address(0)) {... */\n      jump(tag_225)\n    tag_224:\n        /* \"@openzeppelin/contracts/token/ERC20/ERC20.sol\":7019:7024  value */\n      dup1\n        /* \"@openzeppelin/contracts/token/ERC20/ERC20.sol\":7002:7011  _balances */\n      0x00\n        /* \"@openzeppelin/contracts/token/ERC20/ERC20.sol\":7002:7015  _balances[to] */\n      dup1\n        /* \"@openzeppelin/contracts/token/ERC20/ERC20.sol\":7012:7014  to */\n      dup5\n        /* \"@openzeppelin/contracts/token/ERC20/ERC20.sol\":7002:7015  _balances[to] */\n      0xffffffffffffffffffffffffffffffffffffffff\n      and\n      0xffffffffffffffffffffffffffffffffffffffff\n      and\n      dup2\n      mstore\n      0x20\n      add\n      swap1\n      dup2\n      mstore\n      0x20\n      add\n      0x00\n      keccak256\n      0x00\n        /* \"@openzeppelin/contracts/token/ERC20/ERC20.sol\":7002:7024  _balances[to] += value */\n      dup3\n      dup3\n      sload\n      add\n      swap3\n      pop\n      pop\n      dup2\n      swap1\n      sstore\n      pop\n        /* \"@openzeppelin/contracts/token/ERC20/ERC20.sol\":6624:7049  if (to == address(0)) {... */\n    tag_225:\n        /* \"@openzeppelin/contracts/token/ERC20/ERC20.sol\":7079:7081  to */\n      dup2\n        /* \"@openzeppelin/contracts/token/ERC20/ERC20.sol\":7064:7089  Transfer(from, to, value) */\n      0xffffffffffffffffffffffffffffffffffffffff\n      and\n        /* \"@openzeppelin/contracts/token/ERC20/ERC20.sol\":7073:7077  from */\n      dup4\n        /* \"@openzeppelin/contracts/token/ERC20/ERC20.sol\":7064:7089  Transfer(from, to, value) */\n      0xffffffffffffffffffffffffffffffffffffffff\n      and\n      0xddf252ad1be2c89b69c2b068fc378daa952ba7f163c4a11628f55a4df523b3ef\n        /* \"@openzeppelin/contracts/token/ERC20/ERC20.sol\":7083:7088  value */\n      dup4\n        /* \"@openzeppelin/contracts/token/ERC20/ERC20.sol\":7064:7089  Transfer(from, to, value) */\n      mload(0x40)\n      tag_226\n      swap2\n      swap1\n      tag_40\n      jump\t// in\n    tag_226:\n      mload(0x40)\n      dup1\n      swap2\n      sub\n      swap1\n      log3\n        /* \"@openzeppelin/contracts/token/ERC20/ERC20.sol\":5989:7096  function _update(address from, address to, uint256 value) internal virtual {... */\n      pop\n      pop\n      pop\n      jump\t// out\n    tag_138:\n      dataSize(sub_0)\n      dup1\n      dataOffset(sub_0)\n      dup4\n      codecopy\n      add\n      swap1\n      jump\t// out\n        /* \"#utility.yul\":7:82   */\n    tag_227:\n        /* \"#utility.yul\":40:46   */\n      0x00\n        /* \"#utility.yul\":73:75   */\n      0x40\n        /* \"#utility.yul\":67:76   */\n      mload\n        /* \"#utility.yul\":57:76   */\n      swap1\n      pop\n        /* \"#utility.yul\":7:82   */\n      swap1\n      jump\t// out\n        /* \"#utility.yul\":88:205   */\n    tag_228:\n        /* \"#utility.yul\":197:198   */\n      0x00\n        /* \"#utility.yul\":194:195   */\n      dup1\n        /* \"#utility.yul\":187:199   */\n      revert\n        /* \"#utility.yul\":211:328   */\n    tag_229:\n        /* \"#utility.yul\":320:321   */\n      0x00\n        /* \"#utility.yul\":317:318   */\n      dup1\n        /* \"#utility.yul\":310:322   */\n      revert\n        /* \"#utility.yul\":334:451   */\n    tag_230:\n        /* \"#utility.yul\":443:444   */\n      0x00\n        /* \"#utility.yul\":440:441   */\n      dup1\n        /* \"#utility.yul\":433:445   */\n      revert\n        /* \"#utility.yul\":457:574   */\n    tag_231:\n        /* \"#utility.yul\":566:567   */\n      0x00\n        /* \"#utility.yul\":563:564   */\n      dup1\n        /* \"#utility.yul\":556:568   */\n      revert\n        /* \"#utility.yul\":580:682   */\n    tag_232:\n        /* \"#utility.yul\":621:627   */\n      0x00\n        /* \"#utility.yul\":672:674   */\n      0x1f\n        /* \"#utility.yul\":668:675   */\n      not\n        /* \"#utility.yul\":663:665   */\n      0x1f\n        /* \"#utility.yul\":656:661   */\n      dup4\n        /* \"#utility.yul\":652:666   */\n      add\n        /* \"#utility.yul\":648:676   */\n      and\n        /* \"#utility.yul\":638:676   */\n      swap1\n      pop\n        /* \"#utility.yul\":580:682   */\n      swap2\n      swap1\n      pop\n      jump\t// out\n        /* \"#utility.yul\":688:868   */\n    tag_233:\n        /* \"#utility.yul\":736:813   */\n      0x4e487b7100000000000000000000000000000000000000000000000000000000\n        /* \"#utility.yul\":733:734   */\n      0x00\n        /* \"#utility.yul\":726:814   */\n      mstore\n        /* \"#utility.yul\":833:837   */\n      0x41\n        /* \"#utility.yul\":830:831   */\n      0x04\n        /* \"#utility.yul\":823:838   */\n      mstore\n        /* \"#utility.yul\":857:861   */\n      0x24\n        /* \"#utility.yul\":854:855   */\n      0x00\n        /* \"#utility.yul\":847:862   */\n      revert\n        /* \"#utility.yul\":874:1155   */\n    tag_234:\n        /* \"#utility.yul\":957:984   */\n      tag_287\n        /* \"#utility.yul\":979:983   */\n      dup3\n        /* \"#utility.yul\":957:984   */\n      tag_232\n      jump\t// in\n    tag_287:\n        /* \"#utility.yul\":949:955   */\n      dup2\n        /* \"#utility.yul\":945:985   */\n      add\n        /* \"#utility.yul\":1087:1093   */\n      dup2\n        /* \"#utility.yul\":1075:1085   */\n      dup2\n        /* \"#utility.yul\":1072:1094   */\n      lt\n        /* \"#utility.yul\":1051:1069   */\n      0xffffffffffffffff\n        /* \"#utility.yul\":1039:1049   */\n      dup3\n        /* \"#utility.yul\":1036:1070   */\n      gt\n        /* \"#utility.yul\":1033:1095   */\n      or\n        /* \"#utility.yul\":1030:1118   */\n      iszero\n      tag_288\n      jumpi\n        /* \"#utility.yul\":1098:1116   */\n      tag_289\n      tag_233\n      jump\t// in\n    tag_289:\n        /* \"#utility.yul\":1030:1118   */\n    tag_288:\n        /* \"#utility.yul\":1138:1148   */\n      dup1\n        /* \"#utility.yul\":1134:1136   */\n      0x40\n        /* \"#utility.yul\":1127:1149   */\n      mstore\n        /* \"#utility.yul\":917:1155   */\n      pop\n        /* \"#utility.yul\":874:1155   */\n      pop\n      pop\n      jump\t// out\n        /* \"#utility.yul\":1161:1290   */\n    tag_235:\n        /* \"#utility.yul\":1195:1201   */\n      0x00\n        /* \"#utility.yul\":1222:1242   */\n      tag_291\n      tag_227\n      jump\t// in\n    tag_291:\n        /* \"#utility.yul\":1212:1242   */\n      swap1\n      pop\n        /* \"#utility.yul\":1251:1284   */\n      tag_292\n        /* \"#utility.yul\":1279:1283   */\n      dup3\n        /* \"#utility.yul\":1271:1277   */\n      dup3\n        /* \"#utility.yul\":1251:1284   */\n      tag_234\n      jump\t// in\n    tag_292:\n        /* \"#utility.yul\":1161:1290   */\n      swap2\n      swap1\n      pop\n      jump\t// out\n        /* \"#utility.yul\":1296:1604   */\n    tag_236:\n        /* \"#utility.yul\":1358:1362   */\n      0x00\n        /* \"#utility.yul\":1448:1466   */\n      0xffffffffffffffff\n        /* \"#utility.yul\":1440:1446   */\n      dup3\n        /* \"#utility.yul\":1437:1467   */\n      gt\n        /* \"#utility.yul\":1434:1490   */\n      iszero\n      tag_294\n      jumpi\n        /* \"#utility.yul\":1470:1488   */\n      tag_295\n      tag_233\n      jump\t// in\n    tag_295:\n        /* \"#utility.yul\":1434:1490   */\n    tag_294:\n        /* \"#utility.yul\":1508:1537   */\n      tag_296\n        /* \"#utility.yul\":1530:1536   */\n      dup3\n        /* \"#utility.yul\":1508:1537   */\n      tag_232\n      jump\t// in\n    tag_296:\n        /* \"#utility.yul\":1500:1537   */\n      swap1\n      pop\n        /* \"#utility.yul\":1592:1596   */\n      0x20\n        /* \"#utility.yul\":1586:1590   */\n      dup2\n        /* \"#utility.yul\":1582:1597   */\n      add\n        /* \"#utility.yul\":1574:1597   */\n      swap1\n      pop\n        /* \"#utility.yul\":1296:1604   */\n      swap2\n      swap1\n      pop\n      jump\t// out\n        /* \"#utility.yul\":1610:1758   */\n    tag_237:\n        /* \"#utility.yul\":1708:1714   */\n      dup3\n        /* \"#utility.yul\":1703:1706   */\n      dup2\n        /* \"#utility.yul\":1698:1701   */\n      dup4\n        /* \"#utility.yul\":1685:1715   */\n      calldatacopy\n        /* \"#utility.yul\":1749:1750   */\n      0x00\n        /* \"#utility.yul\":1740:1746   */\n      dup4\n        /* \"#utility.yul\":1735:1738   */\n      dup4\n        /* \"#utility.yul\":1731:1747   */\n      add\n        /* \"#utility.yul\":1724:1751   */\n      mstore\n        /* \"#utility.yul\":1610:1758   */\n      pop\n      pop\n      pop\n      jump\t// out\n        /* \"#utility.yul\":1764:2189   */\n    tag_238:\n        /* \"#utility.yul\":1842:1847   */\n      0x00\n        /* \"#utility.yul\":1867:1933   */\n      tag_299\n        /* \"#utility.yul\":1883:1932   */\n      tag_300\n        /* \"#utility.yul\":1925:1931   */\n      dup5\n        /* \"#utility.yul\":1883:1932   */\n      tag_236\n      jump\t// in\n    tag_300:\n        /* \"#utility.yul\":1867:1933   */\n      tag_235\n      jump\t// in\n    tag_299:\n        /* \"#utility.yul\":1858:1933   */\n      swap1\n      pop\n        /* \"#utility.yul\":1956:1962   */\n      dup3\n        /* \"#utility.yul\":1949:1954   */\n      dup2\n        /* \"#utility.yul\":1942:1963   */\n      mstore\n        /* \"#utility.yul\":1994:1998   */\n      0x20\n        /* \"#utility.yul\":1987:1992   */\n      dup2\n        /* \"#utility.yul\":1983:1999   */\n      add\n        /* \"#utility.yul\":2032:2035   */\n      dup5\n        /* \"#utility.yul\":2023:2029   */\n      dup5\n        /* \"#utility.yul\":2018:2021   */\n      dup5\n        /* \"#utility.yul\":2014:2030   */\n      add\n        /* \"#utility.yul\":2011:2036   */\n      gt\n        /* \"#utility.yul\":2008:2120   */\n      iszero\n      tag_301\n      jumpi\n        /* \"#utility.yul\":2039:2118   */\n      tag_302\n      tag_231\n      jump\t// in\n    tag_302:\n        /* \"#utility.yul\":2008:2120   */\n    tag_301:\n        /* \"#utility.yul\":2129:2183   */\n      tag_303\n        /* \"#utility.yul\":2176:2182   */\n      dup5\n        /* \"#utility.yul\":2171:2174   */\n      dup3\n        /* \"#utility.yul\":2166:2169   */\n      dup6\n        /* \"#utility.yul\":2129:2183   */\n      tag_237\n      jump\t// in\n    tag_303:\n        /* \"#utility.yul\":1848:2189   */\n      pop\n        /* \"#utility.yul\":1764:2189   */\n      swap4\n      swap3\n      pop\n      pop\n      pop\n      jump\t// out\n        /* \"#utility.yul\":2209:2549   */\n    tag_239:\n        /* \"#utility.yul\":2265:2270   */\n      0x00\n        /* \"#utility.yul\":2314:2317   */\n      dup3\n        /* \"#utility.yul\":2307:2311   */\n      0x1f\n        /* \"#utility.yul\":2299:2305   */\n      dup4\n        /* \"#utility.yul\":2295:2312   */\n      add\n        /* \"#utility.yul\":2291:2318   */\n      slt\n        /* \"#utility.yul\":2281:2403   */\n      tag_305\n      jumpi\n        /* \"#utility.yul\":2322:2401   */\n      tag_306\n      tag_230\n      jump\t// in\n    tag_306:\n        /* \"#utility.yul\":2281:2403   */\n    tag_305:\n        /* \"#utility.yul\":2439:2445   */\n      dup2\n        /* \"#utility.yul\":2426:2446   */\n      calldataload\n        /* \"#utility.yul\":2464:2543   */\n      tag_307\n        /* \"#utility.yul\":2539:2542   */\n      dup5\n        /* \"#utility.yul\":2531:2537   */\n      dup3\n        /* \"#utility.yul\":2524:2528   */\n      0x20\n        /* \"#utility.yul\":2516:2522   */\n      dup7\n        /* \"#utility.yul\":2512:2529   */\n      add\n        /* \"#utility.yul\":2464:2543   */\n      tag_238\n      jump\t// in\n    tag_307:\n        /* \"#utility.yul\":2455:2543   */\n      swap2\n      pop\n        /* \"#utility.yul\":2271:2549   */\n      pop\n        /* \"#utility.yul\":2209:2549   */\n      swap3\n      swap2\n      pop\n      pop\n      jump\t// out\n        /* \"#utility.yul\":2555:2876   */\n    tag_240:\n        /* \"#utility.yul\":2642:2646   */\n      0x00\n        /* \"#utility.yul\":2732:2750   */\n      0xffffffffffffffff\n        /* \"#utility.yul\":2724:2730   */\n      dup3\n        /* \"#utility.yul\":2721:2751   */\n      gt\n        /* \"#utility.yul\":2718:2774   */\n      iszero\n      tag_309\n      jumpi\n        /* \"#utility.yul\":2754:2772   */\n      tag_310\n      tag_233\n      jump\t// in\n    tag_310:\n        /* \"#utility.yul\":2718:2774   */\n    tag_309:\n        /* \"#utility.yul\":2804:2808   */\n      0x20\n        /* \"#utility.yul\":2796:2802   */\n      dup3\n        /* \"#utility.yul\":2792:2809   */\n      mul\n        /* \"#utility.yul\":2784:2809   */\n      swap1\n      pop\n        /* \"#utility.yul\":2864:2868   */\n      0x20\n        /* \"#utility.yul\":2858:2862   */\n      dup2\n        /* \"#utility.yul\":2854:2869   */\n      add\n        /* \"#utility.yul\":2846:2869   */\n      swap1\n      pop\n        /* \"#utility.yul\":2555:2876   */\n      swap2\n      swap1\n      pop\n      jump\t// out\n        /* \"#utility.yul\":2882:2999   */\n    tag_241:\n        /* \"#utility.yul\":2991:2992   */\n      0x00\n        /* \"#utility.yul\":2988:2989   */\n      dup1\n        /* \"#utility.yul\":2981:2993   */\n      revert\n        /* \"#utility.yul\":3021:3966   */\n    tag_242:\n        /* \"#utility.yul\":3127:3132   */\n      0x00\n        /* \"#utility.yul\":3152:3243   */\n      tag_313\n        /* \"#utility.yul\":3168:3242   */\n      tag_314\n        /* \"#utility.yul\":3235:3241   */\n      dup5\n        /* \"#utility.yul\":3168:3242   */\n      tag_240\n      jump\t// in\n    tag_314:\n        /* \"#utility.yul\":3152:3243   */\n      tag_235\n      jump\t// in\n    tag_313:\n        /* \"#utility.yul\":3143:3243   */\n      swap1\n      pop\n        /* \"#utility.yul\":3263:3268   */\n      dup1\n        /* \"#utility.yul\":3292:3298   */\n      dup4\n        /* \"#utility.yul\":3285:3290   */\n      dup3\n        /* \"#utility.yul\":3278:3299   */\n      mstore\n        /* \"#utility.yul\":3326:3330   */\n      0x20\n        /* \"#utility.yul\":3319:3324   */\n      dup3\n        /* \"#utility.yul\":3315:3331   */\n      add\n        /* \"#utility.yul\":3308:3331   */\n      swap1\n      pop\n        /* \"#utility.yul\":3379:3383   */\n      0x20\n        /* \"#utility.yul\":3371:3377   */\n      dup5\n        /* \"#utility.yul\":3367:3384   */\n      mul\n        /* \"#utility.yul\":3359:3365   */\n      dup4\n        /* \"#utility.yul\":3355:3385   */\n      add\n        /* \"#utility.yul\":3408:3411   */\n      dup6\n        /* \"#utility.yul\":3400:3406   */\n      dup2\n        /* \"#utility.yul\":3397:3412   */\n      gt\n        /* \"#utility.yul\":3394:3516   */\n      iszero\n      tag_315\n      jumpi\n        /* \"#utility.yul\":3427:3506   */\n      tag_316\n      tag_241\n      jump\t// in\n    tag_316:\n        /* \"#utility.yul\":3394:3516   */\n    tag_315:\n        /* \"#utility.yul\":3542:3548   */\n      dup4\n        /* \"#utility.yul\":3525:3960   */\n    tag_317:\n        /* \"#utility.yul\":3559:3565   */\n      dup2\n        /* \"#utility.yul\":3554:3557   */\n      dup2\n        /* \"#utility.yul\":3551:3566   */\n      lt\n        /* \"#utility.yul\":3525:3960   */\n      iszero\n      tag_319\n      jumpi\n        /* \"#utility.yul\":3648:3651   */\n      dup1\n        /* \"#utility.yul\":3635:3652   */\n      calldataload\n        /* \"#utility.yul\":3684:3702   */\n      0xffffffffffffffff\n        /* \"#utility.yul\":3671:3682   */\n      dup2\n        /* \"#utility.yul\":3668:3703   */\n      gt\n        /* \"#utility.yul\":3665:3787   */\n      iszero\n      tag_320\n      jumpi\n        /* \"#utility.yul\":3706:3785   */\n      tag_321\n      tag_230\n      jump\t// in\n    tag_321:\n        /* \"#utility.yul\":3665:3787   */\n    tag_320:\n        /* \"#utility.yul\":3830:3841   */\n      dup1\n        /* \"#utility.yul\":3822:3828   */\n      dup7\n        /* \"#utility.yul\":3818:3842   */\n      add\n        /* \"#utility.yul\":3868:3915   */\n      tag_322\n        /* \"#utility.yul\":3911:3914   */\n      dup10\n        /* \"#utility.yul\":3899:3909   */\n      dup3\n        /* \"#utility.yul\":3868:3915   */\n      tag_239\n      jump\t// in\n    tag_322:\n        /* \"#utility.yul\":3863:3866   */\n      dup6\n        /* \"#utility.yul\":3856:3916   */\n      mstore\n        /* \"#utility.yul\":3945:3949   */\n      0x20\n        /* \"#utility.yul\":3940:3943   */\n      dup6\n        /* \"#utility.yul\":3936:3950   */\n      add\n        /* \"#utility.yul\":3929:3950   */\n      swap5\n      pop\n        /* \"#utility.yul\":3601:3960   */\n      pop\n      pop\n        /* \"#utility.yul\":3585:3589   */\n      0x20\n        /* \"#utility.yul\":3580:3583   */\n      dup2\n        /* \"#utility.yul\":3576:3590   */\n      add\n        /* \"#utility.yul\":3569:3590   */\n      swap1\n      pop\n        /* \"#utility.yul\":3525:3960   */\n      jump(tag_317)\n    tag_319:\n        /* \"#utility.yul\":3529:3550   */\n      pop\n        /* \"#utility.yul\":3133:3966   */\n      pop\n      pop\n        /* \"#utility.yul\":3021:3966   */\n      swap4\n      swap3\n      pop\n      pop\n      pop\n      jump\t// out\n        /* \"#utility.yul\":3988:4378   */\n    tag_243:\n        /* \"#utility.yul\":4069:4074   */\n      0x00\n        /* \"#utility.yul\":4118:4121   */\n      dup3\n        /* \"#utility.yul\":4111:4115   */\n      0x1f\n        /* \"#utility.yul\":4103:4109   */\n      dup4\n        /* \"#utility.yul\":4099:4116   */\n      add\n        /* \"#utility.yul\":4095:4122   */\n      slt\n        /* \"#utility.yul\":4085:4207   */\n      tag_324\n      jumpi\n        /* \"#utility.yul\":4126:4205   */\n      tag_325\n      tag_230\n      jump\t// in\n    tag_325:\n        /* \"#utility.yul\":4085:4207   */\n    tag_324:\n        /* \"#utility.yul\":4243:4249   */\n      dup2\n        /* \"#utility.yul\":4230:4250   */\n      calldataload\n        /* \"#utility.yul\":4268:4372   */\n      tag_326\n        /* \"#utility.yul\":4368:4371   */\n      dup5\n        /* \"#utility.yul\":4360:4366   */\n      dup3\n        /* \"#utility.yul\":4353:4357   */\n      0x20\n        /* \"#utility.yul\":4345:4351   */\n      dup7\n        /* \"#utility.yul\":4341:4358   */\n      add\n        /* \"#utility.yul\":4268:4372   */\n      tag_242\n      jump\t// in\n    tag_326:\n        /* \"#utility.yul\":4259:4372   */\n      swap2\n      pop\n        /* \"#utility.yul\":4075:4378   */\n      pop\n        /* \"#utility.yul\":3988:4378   */\n      swap3\n      swap2\n      pop\n      pop\n      jump\t// out\n        /* \"#utility.yul\":4384:4474   */\n    tag_244:\n        /* \"#utility.yul\":4418:4425   */\n      0x00\n        /* \"#utility.yul\":4461:4466   */\n      dup2\n        /* \"#utility.yul\":4454:4467   */\n      iszero\n        /* \"#utility.yul\":4447:4468   */\n      iszero\n        /* \"#utility.yul\":4436:4468   */\n      swap1\n      pop\n        /* \"#utility.yul\":4384:4474   */\n      swap2\n      swap1\n      pop\n      jump\t// out\n        /* \"#utility.yul\":4480:4596   */\n    tag_245:\n        /* \"#utility.yul\":4550:4571   */\n      tag_329\n        /* \"#utility.yul\":4565:4570   */\n      dup2\n        /* \"#utility.yul\":4550:4571   */\n      tag_244\n      jump\t// in\n    tag_329:\n        /* \"#utility.yul\":4543:4548   */\n      dup2\n        /* \"#utility.yul\":4540:4572   */\n      eq\n        /* \"#utility.yul\":4530:4590   */\n      tag_330\n      jumpi\n        /* \"#utility.yul\":4586:4587   */\n      0x00\n        /* \"#utility.yul\":4583:4584   */\n      dup1\n        /* \"#utility.yul\":4576:4588   */\n      revert\n        /* \"#utility.yul\":4530:4590   */\n    tag_330:\n        /* \"#utility.yul\":4480:4596   */\n      pop\n      jump\t// out\n        /* \"#utility.yul\":4602:4735   */\n    tag_246:\n        /* \"#utility.yul\":4645:4650   */\n      0x00\n        /* \"#utility.yul\":4683:4689   */\n      dup2\n        /* \"#utility.yul\":4670:4690   */\n      calldataload\n        /* \"#utility.yul\":4661:4690   */\n      swap1\n      pop\n        /* \"#utility.yul\":4699:4729   */\n      tag_332\n        /* \"#utility.yul\":4723:4728   */\n      dup2\n        /* \"#utility.yul\":4699:4729   */\n      tag_245\n      jump\t// in\n    tag_332:\n        /* \"#utility.yul\":4602:4735   */\n      swap3\n      swap2\n      pop\n      pop\n      jump\t// out\n        /* \"#utility.yul\":4741:5764   */\n    tag_25:\n        /* \"#utility.yul\":4860:4866   */\n      0x00\n        /* \"#utility.yul\":4868:4874   */\n      dup1\n        /* \"#utility.yul\":4876:4882   */\n      0x00\n        /* \"#utility.yul\":4925:4927   */\n      0x60\n        /* \"#utility.yul\":4913:4922   */\n      dup5\n        /* \"#utility.yul\":4904:4911   */\n      dup7\n        /* \"#utility.yul\":4900:4923   */\n      sub\n        /* \"#utility.yul\":4896:4928   */\n      slt\n        /* \"#utility.yul\":4893:5012   */\n      iszero\n      tag_334\n      jumpi\n        /* \"#utility.yul\":4931:5010   */\n      tag_335\n      tag_228\n      jump\t// in\n    tag_335:\n        /* \"#utility.yul\":4893:5012   */\n    tag_334:\n        /* \"#utility.yul\":5079:5080   */\n      0x00\n        /* \"#utility.yul\":5068:5077   */\n      dup5\n        /* \"#utility.yul\":5064:5081   */\n      add\n        /* \"#utility.yul\":5051:5082   */\n      calldataload\n        /* \"#utility.yul\":5109:5127   */\n      0xffffffffffffffff\n        /* \"#utility.yul\":5101:5107   */\n      dup2\n        /* \"#utility.yul\":5098:5128   */\n      gt\n        /* \"#utility.yul\":5095:5212   */\n      iszero\n      tag_336\n      jumpi\n        /* \"#utility.yul\":5131:5210   */\n      tag_337\n      tag_229\n      jump\t// in\n    tag_337:\n        /* \"#utility.yul\":5095:5212   */\n    tag_336:\n        /* \"#utility.yul\":5236:5299   */\n      tag_338\n        /* \"#utility.yul\":5291:5298   */\n      dup7\n        /* \"#utility.yul\":5282:5288   */\n      dup3\n        /* \"#utility.yul\":5271:5280   */\n      dup8\n        /* \"#utility.yul\":5267:5289   */\n      add\n        /* \"#utility.yul\":5236:5299   */\n      tag_239\n      jump\t// in\n    tag_338:\n        /* \"#utility.yul\":5226:5299   */\n      swap4\n      pop\n        /* \"#utility.yul\":5022:5309   */\n      pop\n        /* \"#utility.yul\":5376:5378   */\n      0x20\n        /* \"#utility.yul\":5365:5374   */\n      dup5\n        /* \"#utility.yul\":5361:5379   */\n      add\n        /* \"#utility.yul\":5348:5380   */\n      calldataload\n        /* \"#utility.yul\":5407:5425   */\n      0xffffffffffffffff\n        /* \"#utility.yul\":5399:5405   */\n      dup2\n        /* \"#utility.yul\":5396:5426   */\n      gt\n        /* \"#utility.yul\":5393:5510   */\n      iszero\n      tag_339\n      jumpi\n        /* \"#utility.yul\":5429:5508   */\n      tag_340\n      tag_229\n      jump\t// in\n    tag_340:\n        /* \"#utility.yul\":5393:5510   */\n    tag_339:\n        /* \"#utility.yul\":5534:5622   */\n      tag_341\n        /* \"#utility.yul\":5614:5621   */\n      dup7\n        /* \"#utility.yul\":5605:5611   */\n      dup3\n        /* \"#utility.yul\":5594:5603   */\n      dup8\n        /* \"#utility.yul\":5590:5612   */\n      add\n        /* \"#utility.yul\":5534:5622   */\n      tag_243\n      jump\t// in\n    tag_341:\n        /* \"#utility.yul\":5524:5622   */\n      swap3\n      pop\n        /* \"#utility.yul\":5319:5632   */\n      pop\n        /* \"#utility.yul\":5671:5673   */\n      0x40\n        /* \"#utility.yul\":5697:5747   */\n      tag_342\n        /* \"#utility.yul\":5739:5746   */\n      dup7\n        /* \"#utility.yul\":5730:5736   */\n      dup3\n        /* \"#utility.yul\":5719:5728   */\n      dup8\n        /* \"#utility.yul\":5715:5737   */\n      add\n        /* \"#utility.yul\":5697:5747   */\n      tag_246\n      jump\t// in\n    tag_342:\n        /* \"#utility.yul\":5687:5747   */\n      swap2\n      pop\n        /* \"#utility.yul\":5642:5757   */\n      pop\n        /* \"#utility.yul\":4741:5764   */\n      swap3\n      pop\n      swap3\n      pop\n      swap3\n      jump\t// out\n        /* \"#utility.yul\":5770:5869   */\n    tag_247:\n        /* \"#utility.yul\":5822:5828   */\n      0x00\n        /* \"#utility.yul\":5856:5861   */\n      dup2\n        /* \"#utility.yul\":5850:5862   */\n      mload\n        /* \"#utility.yul\":5840:5862   */\n      swap1\n      pop\n        /* \"#utility.yul\":5770:5869   */\n      swap2\n      swap1\n      pop\n      jump\t// out\n        /* \"#utility.yul\":5875:6044   */\n    tag_248:\n        /* \"#utility.yul\":5959:5970   */\n      0x00\n        /* \"#utility.yul\":5993:5999   */\n      dup3\n        /* \"#utility.yul\":5988:5991   */\n      dup3\n        /* \"#utility.yul\":5981:6000   */\n      mstore\n        /* \"#utility.yul\":6033:6037   */\n      0x20\n        /* \"#utility.yul\":6028:6031   */\n      dup3\n        /* \"#utility.yul\":6024:6038   */\n      add\n        /* \"#utility.yul\":6009:6038   */\n      swap1\n      pop\n        /* \"#utility.yul\":5875:6044   */\n      swap3\n      swap2\n      pop\n      pop\n      jump\t// out\n        /* \"#utility.yul\":6050:6189   */\n    tag_249:\n        /* \"#utility.yul\":6139:6145   */\n      dup3\n        /* \"#utility.yul\":6134:6137   */\n      dup2\n        /* \"#utility.yul\":6129:6132   */\n      dup4\n        /* \"#utility.yul\":6123:6146   */\n      mcopy\n        /* \"#utility.yul\":6180:6181   */\n      0x00\n        /* \"#utility.yul\":6171:6177   */\n      dup4\n        /* \"#utility.yul\":6166:6169   */\n      dup4\n        /* \"#utility.yul\":6162:6178   */\n      add\n        /* \"#utility.yul\":6155:6182   */\n      mstore\n        /* \"#utility.yul\":6050:6189   */\n      pop\n      pop\n      pop\n      jump\t// out\n        /* \"#utility.yul\":6195:6572   */\n    tag_250:\n        /* \"#utility.yul\":6283:6286   */\n      0x00\n        /* \"#utility.yul\":6311:6350   */\n      tag_347\n        /* \"#utility.yul\":6344:6349   */\n      dup3\n        /* \"#utility.yul\":6311:6350   */\n      tag_247\n      jump\t// in\n    tag_347:\n        /* \"#utility.yul\":6366:6437   */\n      tag_348\n        /* \"#utility.yul\":6430:6436   */\n      dup2\n        /* \"#utility.yul\":6425:6428   */\n      dup6\n        /* \"#utility.yul\":6366:6437   */\n      tag_248\n      jump\t// in\n    tag_348:\n        /* \"#utility.yul\":6359:6437   */\n      swap4\n      pop\n        /* \"#utility.yul\":6446:6511   */\n      tag_349\n        /* \"#utility.yul\":6504:6510   */\n      dup2\n        /* \"#utility.yul\":6499:6502   */\n      dup6\n        /* \"#utility.yul\":6492:6496   */\n      0x20\n        /* \"#utility.yul\":6485:6490   */\n      dup7\n        /* \"#utility.yul\":6481:6497   */\n      add\n        /* \"#utility.yul\":6446:6511   */\n      tag_249\n      jump\t// in\n    tag_349:\n        /* \"#utility.yul\":6536:6565   */\n      tag_350\n        /* \"#utility.yul\":6558:6564   */\n      dup2\n        /* \"#utility.yul\":6536:6565   */\n      tag_232\n      jump\t// in\n    tag_350:\n        /* \"#utility.yul\":6531:6534   */\n      dup5\n        /* \"#utility.yul\":6527:6566   */\n      add\n        /* \"#utility.yul\":6520:6566   */\n      swap2\n      pop\n        /* \"#utility.yul\":6287:6572   */\n      pop\n        /* \"#utility.yul\":6195:6572   */\n      swap3\n      swap2\n      pop\n      pop\n      jump\t// out\n        /* \"#utility.yul\":6578:6891   */\n    tag_30:\n        /* \"#utility.yul\":6691:6695   */\n      0x00\n        /* \"#utility.yul\":6729:6731   */\n      0x20\n        /* \"#utility.yul\":6718:6727   */\n      dup3\n        /* \"#utility.yul\":6714:6732   */\n      add\n        /* \"#utility.yul\":6706:6732   */\n      swap1\n      pop\n        /* \"#utility.yul\":6778:6787   */\n      dup2\n        /* \"#utility.yul\":6772:6776   */\n      dup2\n        /* \"#utility.yul\":6768:6788   */\n      sub\n        /* \"#utility.yul\":6764:6765   */\n      0x00\n        /* \"#utility.yul\":6753:6762   */\n      dup4\n        /* \"#utility.yul\":6749:6766   */\n      add\n        /* \"#utility.yul\":6742:6789   */\n      mstore\n        /* \"#utility.yul\":6806:6884   */\n      tag_352\n        /* \"#utility.yul\":6879:6883   */\n      dup2\n        /* \"#utility.yul\":6870:6876   */\n      dup5\n        /* \"#utility.yul\":6806:6884   */\n      tag_250\n      jump\t// in\n    tag_352:\n        /* \"#utility.yul\":6798:6884   */\n      swap1\n      pop\n        /* \"#utility.yul\":6578:6891   */\n      swap3\n      swap2\n      pop\n      pop\n      jump\t// out\n        /* \"#utility.yul\":6897:7023   */\n    tag_251:\n        /* \"#utility.yul\":6934:6941   */\n      0x00\n        /* \"#utility.yul\":6974:7016   */\n      0xffffffffffffffffffffffffffffffffffffffff\n        /* \"#utility.yul\":6967:6972   */\n      dup3\n        /* \"#utility.yul\":6963:7017   */\n      and\n        /* \"#utility.yul\":6952:7017   */\n      swap1\n      pop\n        /* \"#utility.yul\":6897:7023   */\n      swap2\n      swap1\n      pop\n      jump\t// out\n        /* \"#utility.yul\":7029:7125   */\n    tag_252:\n        /* \"#utility.yul\":7066:7073   */\n      0x00\n        /* \"#utility.yul\":7095:7119   */\n      tag_355\n        /* \"#utility.yul\":7113:7118   */\n      dup3\n        /* \"#utility.yul\":7095:7119   */\n      tag_251\n      jump\t// in\n    tag_355:\n        /* \"#utility.yul\":7084:7119   */\n      swap1\n      pop\n        /* \"#utility.yul\":7029:7125   */\n      swap2\n      swap1\n      pop\n      jump\t// out\n        /* \"#utility.yul\":7131:7253   */\n    tag_253:\n        /* \"#utility.yul\":7204:7228   */\n      tag_357\n        /* \"#utility.yul\":7222:7227   */\n      dup2\n        /* \"#utility.yul\":7204:7228   */\n      tag_252\n      jump\t// in\n    tag_357:\n        /* \"#utility.yul\":7197:7202   */\n      dup2\n        /* \"#utility.yul\":7194:7229   */\n      eq\n        /* \"#utility.yul\":7184:7247   */\n      tag_358\n      jumpi\n        /* \"#utility.yul\":7243:7244   */\n      0x00\n        /* \"#utility.yul\":7240:7241   */\n      dup1\n        /* \"#utility.yul\":7233:7245   */\n      revert\n        /* \"#utility.yul\":7184:7247   */\n    tag_358:\n        /* \"#utility.yul\":7131:7253   */\n      pop\n      jump\t// out\n        /* \"#utility.yul\":7259:7398   */\n    tag_254:\n        /* \"#utility.yul\":7305:7310   */\n      0x00\n        /* \"#utility.yul\":7343:7349   */\n      dup2\n        /* \"#utility.yul\":7330:7350   */\n      calldataload\n        /* \"#utility.yul\":7321:7350   */\n      swap1\n      pop\n        /* \"#utility.yul\":7359:7392   */\n      tag_360\n        /* \"#utility.yul\":7386:7391   */\n      dup2\n        /* \"#utility.yul\":7359:7392   */\n      tag_253\n      jump\t// in\n    tag_360:\n        /* \"#utility.yul\":7259:7398   */\n      swap3\n      swap2\n      pop\n      pop\n      jump\t// out\n        /* \"#utility.yul\":7404:7481   */\n    tag_255:\n        /* \"#utility.yul\":7441:7448   */\n      0x00\n        /* \"#utility.yul\":7470:7475   */\n      dup2\n        /* \"#utility.yul\":7459:7475   */\n      swap1\n      pop\n        /* \"#utility.yul\":7404:7481   */\n      swap2\n      swap1\n      pop\n      jump\t// out\n        /* \"#utility.yul\":7487:7609   */\n    tag_256:\n        /* \"#utility.yul\":7560:7584   */\n      tag_363\n        /* \"#utility.yul\":7578:7583   */\n      dup2\n        /* \"#utility.yul\":7560:7584   */\n      tag_255\n      jump\t// in\n    tag_363:\n        /* \"#utility.yul\":7553:7558   */\n      dup2\n        /* \"#utility.yul\":7550:7585   */\n      eq\n        /* \"#utility.yul\":7540:7603   */\n      tag_364\n      jumpi\n        /* \"#utility.yul\":7599:7600   */\n      0x00\n        /* \"#utility.yul\":7596:7597   */\n      dup1\n        /* \"#utility.yul\":7589:7601   */\n      revert\n        /* \"#utility.yul\":7540:7603   */\n    tag_364:\n        /* \"#utility.yul\":7487:7609   */\n      pop\n      jump\t// out\n        /* \"#utility.yul\":7615:7754   */\n    tag_257:\n        /* \"#utility.yul\":7661:7666   */\n      0x00\n        /* \"#utility.yul\":7699:7705   */\n      dup2\n        /* \"#utility.yul\":7686:7706   */\n      calldataload\n        /* \"#utility.yul\":7677:7706   */\n      swap1\n      pop\n        /* \"#utility.yul\":7715:7748   */\n      tag_366\n        /* \"#utility.yul\":7742:7747   */\n      dup2\n        /* \"#utility.yul\":7715:7748   */\n      tag_256\n      jump\t// in\n    tag_366:\n        /* \"#utility.yul\":7615:7754   */\n      swap3\n      swap2\n      pop\n      pop\n      jump\t// out\n        /* \"#utility.yul\":7760:8234   */\n    tag_33:\n        /* \"#utility.yul\":7828:7834   */\n      0x00\n        /* \"#utility.yul\":7836:7842   */\n      dup1\n        /* \"#utility.yul\":7885:7887   */\n      0x40\n        /* \"#utility.yul\":7873:7882   */\n      dup4\n        /* \"#utility.yul\":7864:7871   */\n      dup6\n        /* \"#utility.yul\":7860:7883   */\n      sub\n        /* \"#utility.yul\":7856:7888   */\n      slt\n        /* \"#utility.yul\":7853:7972   */\n      iszero\n      tag_368\n      jumpi\n        /* \"#utility.yul\":7891:7970   */\n      tag_369\n      tag_228\n      jump\t// in\n    tag_369:\n        /* \"#utility.yul\":7853:7972   */\n    tag_368:\n        /* \"#utility.yul\":8011:8012   */\n      0x00\n        /* \"#utility.yul\":8036:8089   */\n      tag_370\n        /* \"#utility.yul\":8081:8088   */\n      dup6\n        /* \"#utility.yul\":8072:8078   */\n      dup3\n        /* \"#utility.yul\":8061:8070   */\n      dup7\n        /* \"#utility.yul\":8057:8079   */\n      add\n        /* \"#utility.yul\":8036:8089   */\n      tag_254\n      jump\t// in\n    tag_370:\n        /* \"#utility.yul\":8026:8089   */\n      swap3\n      pop\n        /* \"#utility.yul\":7982:8099   */\n      pop\n        /* \"#utility.yul\":8138:8140   */\n      0x20\n        /* \"#utility.yul\":8164:8217   */\n      tag_371\n        /* \"#utility.yul\":8209:8216   */\n      dup6\n        /* \"#utility.yul\":8200:8206   */\n      dup3\n        /* \"#utility.yul\":8189:8198   */\n      dup7\n        /* \"#utility.yul\":8185:8207   */\n      add\n        /* \"#utility.yul\":8164:8217   */\n      tag_257\n      jump\t// in\n    tag_371:\n        /* \"#utility.yul\":8154:8217   */\n      swap2\n      pop\n        /* \"#utility.yul\":8109:8227   */\n      pop\n        /* \"#utility.yul\":7760:8234   */\n      swap3\n      pop\n      swap3\n      swap1\n      pop\n      jump\t// out\n        /* \"#utility.yul\":8240:8349   */\n    tag_258:\n        /* \"#utility.yul\":8321:8342   */\n      tag_373\n        /* \"#utility.yul\":8336:8341   */\n      dup2\n        /* \"#utility.yul\":8321:8342   */\n      tag_244\n      jump\t// in\n    tag_373:\n        /* \"#utility.yul\":8316:8319   */\n      dup3\n        /* \"#utility.yul\":8309:8343   */\n      mstore\n        /* \"#utility.yul\":8240:8349   */\n      pop\n      pop\n      jump\t// out\n        /* \"#utility.yul\":8355:8565   */\n    tag_36:\n        /* \"#utility.yul\":8442:8446   */\n      0x00\n        /* \"#utility.yul\":8480:8482   */\n      0x20\n        /* \"#utility.yul\":8469:8478   */\n      dup3\n        /* \"#utility.yul\":8465:8483   */\n      add\n        /* \"#utility.yul\":8457:8483   */\n      swap1\n      pop\n        /* \"#utility.yul\":8493:8558   */\n      tag_375\n        /* \"#utility.yul\":8555:8556   */\n      0x00\n        /* \"#utility.yul\":8544:8553   */\n      dup4\n        /* \"#utility.yul\":8540:8557   */\n      add\n        /* \"#utility.yul\":8531:8537   */\n      dup5\n        /* \"#utility.yul\":8493:8558   */\n      tag_258\n      jump\t// in\n    tag_375:\n        /* \"#utility.yul\":8355:8565   */\n      swap3\n      swap2\n      pop\n      pop\n      jump\t// out\n        /* \"#utility.yul\":8571:8689   */\n    tag_259:\n        /* \"#utility.yul\":8658:8682   */\n      tag_377\n        /* \"#utility.yul\":8676:8681   */\n      dup2\n        /* \"#utility.yul\":8658:8682   */\n      tag_255\n      jump\t// in\n    tag_377:\n        /* \"#utility.yul\":8653:8656   */\n      dup3\n        /* \"#utility.yul\":8646:8683   */\n      mstore\n        /* \"#utility.yul\":8571:8689   */\n      pop\n      pop\n      jump\t// out\n        /* \"#utility.yul\":8695:8917   */\n    tag_40:\n        /* \"#utility.yul\":8788:8792   */\n      0x00\n        /* \"#utility.yul\":8826:8828   */\n      0x20\n        /* \"#utility.yul\":8815:8824   */\n      dup3\n        /* \"#utility.yul\":8811:8829   */\n      add\n        /* \"#utility.yul\":8803:8829   */\n      swap1\n      pop\n        /* \"#utility.yul\":8839:8910   */\n      tag_379\n        /* \"#utility.yul\":8907:8908   */\n      0x00\n        /* \"#utility.yul\":8896:8905   */\n      dup4\n        /* \"#utility.yul\":8892:8909   */\n      add\n        /* \"#utility.yul\":8883:8889   */\n      dup5\n        /* \"#utility.yul\":8839:8910   */\n      tag_259\n      jump\t// in\n    tag_379:\n        /* \"#utility.yul\":8695:8917   */\n      swap3\n      swap2\n      pop\n      pop\n      jump\t// out\n        /* \"#utility.yul\":8923:9542   */\n    tag_43:\n        /* \"#utility.yul\":9000:9006   */\n      0x00\n        /* \"#utility.yul\":9008:9014   */\n      dup1\n        /* \"#utility.yul\":9016:9022   */\n      0x00\n        /* \"#utility.yul\":9065:9067   */\n      0x60\n        /* \"#utility.yul\":9053:9062   */\n      dup5\n        /* \"#utility.yul\":9044:9051   */\n      dup7\n        /* \"#utility.yul\":9040:9063   */\n      sub\n        /* \"#utility.yul\":9036:9068   */\n      slt\n        /* \"#utility.yul\":9033:9152   */\n      iszero\n      tag_381\n      jumpi\n        /* \"#utility.yul\":9071:9150   */\n      tag_382\n      tag_228\n      jump\t// in\n    tag_382:\n        /* \"#utility.yul\":9033:9152   */\n    tag_381:\n        /* \"#utility.yul\":9191:9192   */\n      0x00\n        /* \"#utility.yul\":9216:9269   */\n      tag_383\n        /* \"#utility.yul\":9261:9268   */\n      dup7\n        /* \"#utility.yul\":9252:9258   */\n      dup3\n        /* \"#utility.yul\":9241:9250   */\n      dup8\n        /* \"#utility.yul\":9237:9259   */\n      add\n        /* \"#utility.yul\":9216:9269   */\n      tag_254\n      jump\t// in\n    tag_383:\n        /* \"#utility.yul\":9206:9269   */\n      swap4\n      pop\n        /* \"#utility.yul\":9162:9279   */\n      pop\n        /* \"#utility.yul\":9318:9320   */\n      0x20\n        /* \"#utility.yul\":9344:9397   */\n      tag_384\n        /* \"#utility.yul\":9389:9396   */\n      dup7\n        /* \"#utility.yul\":9380:9386   */\n      dup3\n        /* \"#utility.yul\":9369:9378   */\n      dup8\n        /* \"#utility.yul\":9365:9387   */\n      add\n        /* \"#utility.yul\":9344:9397   */\n      tag_254\n      jump\t// in\n    tag_384:\n        /* \"#utility.yul\":9334:9397   */\n      swap3\n      pop\n        /* \"#utility.yul\":9289:9407   */\n      pop\n        /* \"#utility.yul\":9446:9448   */\n      0x40\n        /* \"#utility.yul\":9472:9525   */\n      tag_385\n        /* \"#utility.yul\":9517:9524   */\n      dup7\n        /* \"#utility.yul\":9508:9514   */\n      dup3\n        /* \"#utility.yul\":9497:9506   */\n      dup8\n        /* \"#utility.yul\":9493:9515   */\n      add\n        /* \"#utility.yul\":9472:9525   */\n      tag_257\n      jump\t// in\n    tag_385:\n        /* \"#utility.yul\":9462:9525   */\n      swap2\n      pop\n        /* \"#utility.yul\":9417:9535   */\n      pop\n        /* \"#utility.yul\":8923:9542   */\n      swap3\n      pop\n      swap3\n      pop\n      swap3\n      jump\t// out\n        /* \"#utility.yul\":9548:9634   */\n    tag_260:\n        /* \"#utility.yul\":9583:9590   */\n      0x00\n        /* \"#utility.yul\":9623:9627   */\n      0xff\n        /* \"#utility.yul\":9616:9621   */\n      dup3\n        /* \"#utility.yul\":9612:9628   */\n      and\n        /* \"#utility.yul\":9601:9628   */\n      swap1\n      pop\n        /* \"#utility.yul\":9548:9634   */\n      swap2\n      swap1\n      pop\n      jump\t// out\n        /* \"#utility.yul\":9640:9752   */\n    tag_261:\n        /* \"#utility.yul\":9723:9745   */\n      tag_388\n        /* \"#utility.yul\":9739:9744   */\n      dup2\n        /* \"#utility.yul\":9723:9745   */\n      tag_260\n      jump\t// in\n    tag_388:\n        /* \"#utility.yul\":9718:9721   */\n      dup3\n        /* \"#utility.yul\":9711:9746   */\n      mstore\n        /* \"#utility.yul\":9640:9752   */\n      pop\n      pop\n      jump\t// out\n        /* \"#utility.yul\":9758:9972   */\n    tag_49:\n        /* \"#utility.yul\":9847:9851   */\n      0x00\n        /* \"#utility.yul\":9885:9887   */\n      0x20\n        /* \"#utility.yul\":9874:9883   */\n      dup3\n        /* \"#utility.yul\":9870:9888   */\n      add\n        /* \"#utility.yul\":9862:9888   */\n      swap1\n      pop\n        /* \"#utility.yul\":9898:9965   */\n      tag_390\n        /* \"#utility.yul\":9962:9963   */\n      0x00\n        /* \"#utility.yul\":9951:9960   */\n      dup4\n        /* \"#utility.yul\":9947:9964   */\n      add\n        /* \"#utility.yul\":9938:9944   */\n      dup5\n        /* \"#utility.yul\":9898:9965   */\n      tag_261\n      jump\t// in\n    tag_390:\n        /* \"#utility.yul\":9758:9972   */\n      swap3\n      swap2\n      pop\n      pop\n      jump\t// out\n        /* \"#utility.yul\":9978:10307   */\n    tag_55:\n        /* \"#utility.yul\":10037:10043   */\n      0x00\n        /* \"#utility.yul\":10086:10088   */\n      0x20\n        /* \"#utility.yul\":10074:10083   */\n      dup3\n        /* \"#utility.yul\":10065:10072   */\n      dup5\n        /* \"#utility.yul\":10061:10084   */\n      sub\n        /* \"#utility.yul\":10057:10089   */\n      slt\n        /* \"#utility.yul\":10054:10173   */\n      iszero\n      tag_392\n      jumpi\n        /* \"#utility.yul\":10092:10171   */\n      tag_393\n      tag_228\n      jump\t// in\n    tag_393:\n        /* \"#utility.yul\":10054:10173   */\n    tag_392:\n        /* \"#utility.yul\":10212:10213   */\n      0x00\n        /* \"#utility.yul\":10237:10290   */\n      tag_394\n        /* \"#utility.yul\":10282:10289   */\n      dup5\n        /* \"#utility.yul\":10273:10279   */\n      dup3\n        /* \"#utility.yul\":10262:10271   */\n      dup6\n        /* \"#utility.yul\":10258:10280   */\n      add\n        /* \"#utility.yul\":10237:10290   */\n      tag_257\n      jump\t// in\n    tag_394:\n        /* \"#utility.yul\":10227:10290   */\n      swap2\n      pop\n        /* \"#utility.yul\":10183:10300   */\n      pop\n        /* \"#utility.yul\":9978:10307   */\n      swap3\n      swap2\n      pop\n      pop\n      jump\t// out\n        /* \"#utility.yul\":10313:10642   */\n    tag_61:\n        /* \"#utility.yul\":10372:10378   */\n      0x00\n        /* \"#utility.yul\":10421:10423   */\n      0x20\n        /* \"#utility.yul\":10409:10418   */\n      dup3\n        /* \"#utility.yul\":10400:10407   */\n      dup5\n        /* \"#utility.yul\":10396:10419   */\n      sub\n        /* \"#utility.yul\":10392:10424   */\n      slt\n        /* \"#utility.yul\":10389:10508   */\n      iszero\n      tag_396\n      jumpi\n        /* \"#utility.yul\":10427:10506   */\n      tag_397\n      tag_228\n      jump\t// in\n    tag_397:\n        /* \"#utility.yul\":10389:10508   */\n    tag_396:\n        /* \"#utility.yul\":10547:10548   */\n      0x00\n        /* \"#utility.yul\":10572:10625   */\n      tag_398\n        /* \"#utility.yul\":10617:10624   */\n      dup5\n        /* \"#utility.yul\":10608:10614   */\n      dup3\n        /* \"#utility.yul\":10597:10606   */\n      dup6\n        /* \"#utility.yul\":10593:10615   */\n      add\n        /* \"#utility.yul\":10572:10625   */\n      tag_254\n      jump\t// in\n    tag_398:\n        /* \"#utility.yul\":10562:10625   */\n      swap2\n      pop\n        /* \"#utility.yul\":10518:10635   */\n      pop\n        /* \"#utility.yul\":10313:10642   */\n      swap3\n      swap2\n      pop\n      pop\n      jump\t// out\n        /* \"#utility.yul\":10648:10766   */\n    tag_262:\n        /* \"#utility.yul\":10735:10759   */\n      tag_400\n        /* \"#utility.yul\":10753:10758   */\n      dup2\n        /* \"#utility.yul\":10735:10759   */\n      tag_252\n      jump\t// in\n    tag_400:\n        /* \"#utility.yul\":10730:10733   */\n      dup3\n        /* \"#utility.yul\":10723:10760   */\n      mstore\n        /* \"#utility.yul\":10648:10766   */\n      pop\n      pop\n      jump\t// out\n        /* \"#utility.yul\":10772:10994   */\n    tag_72:\n        /* \"#utility.yul\":10865:10869   */\n      0x00\n        /* \"#utility.yul\":10903:10905   */\n      0x20\n        /* \"#utility.yul\":10892:10901   */\n      dup3\n        /* \"#utility.yul\":10888:10906   */\n      add\n        /* \"#utility.yul\":10880:10906   */\n      swap1\n      pop\n        /* \"#utility.yul\":10916:10987   */\n      tag_402\n        /* \"#utility.yul\":10984:10985   */\n      0x00\n        /* \"#utility.yul\":10973:10982   */\n      dup4\n        /* \"#utility.yul\":10969:10986   */\n      add\n        /* \"#utility.yul\":10960:10966   */\n      dup5\n        /* \"#utility.yul\":10916:10987   */\n      tag_262\n      jump\t// in\n    tag_402:\n        /* \"#utility.yul\":10772:10994   */\n      swap3\n      swap2\n      pop\n      pop\n      jump\t// out\n        /* \"#utility.yul\":11000:11474   */\n    tag_82:\n        /* \"#utility.yul\":11068:11074   */\n      0x00\n        /* \"#utility.yul\":11076:11082   */\n      dup1\n        /* \"#utility.yul\":11125:11127   */\n      0x40\n        /* \"#utility.yul\":11113:11122   */\n      dup4\n        /* \"#utility.yul\":11104:11111   */\n      dup6\n        /* \"#utility.yul\":11100:11123   */\n      sub\n        /* \"#utility.yul\":11096:11128   */\n      slt\n        /* \"#utility.yul\":11093:11212   */\n      iszero\n      tag_404\n      jumpi\n        /* \"#utility.yul\":11131:11210   */\n      tag_405\n      tag_228\n      jump\t// in\n    tag_405:\n        /* \"#utility.yul\":11093:11212   */\n    tag_404:\n        /* \"#utility.yul\":11251:11252   */\n      0x00\n        /* \"#utility.yul\":11276:11329   */\n      tag_406\n        /* \"#utility.yul\":11321:11328   */\n      dup6\n        /* \"#utility.yul\":11312:11318   */\n      dup3\n        /* \"#utility.yul\":11301:11310   */\n      dup7\n        /* \"#utility.yul\":11297:11319   */\n      add\n        /* \"#utility.yul\":11276:11329   */\n      tag_254\n      jump\t// in\n    tag_406:\n        /* \"#utility.yul\":11266:11329   */\n      swap3\n      pop\n        /* \"#utility.yul\":11222:11339   */\n      pop\n        /* \"#utility.yul\":11378:11380   */\n      0x20\n        /* \"#utility.yul\":11404:11457   */\n      tag_407\n        /* \"#utility.yul\":11449:11456   */\n      dup6\n        /* \"#utility.yul\":11440:11446   */\n      dup3\n        /* \"#utility.yul\":11429:11438   */\n      dup7\n        /* \"#utility.yul\":11425:11447   */\n      add\n        /* \"#utility.yul\":11404:11457   */\n      tag_254\n      jump\t// in\n    tag_407:\n        /* \"#utility.yul\":11394:11457   */\n      swap2\n      pop\n        /* \"#utility.yul\":11349:11467   */\n      pop\n        /* \"#utility.yul\":11000:11474   */\n      swap3\n      pop\n      swap3\n      swap1\n      pop\n      jump\t// out\n        /* \"#utility.yul\":11480:11660   */\n    tag_263:\n        /* \"#utility.yul\":11528:11605   */\n      0x4e487b7100000000000000000000000000000000000000000000000000000000\n        /* \"#utility.yul\":11525:11526   */\n      0x00\n        /* \"#utility.yul\":11518:11606   */\n      mstore\n        /* \"#utility.yul\":11625:11629   */\n      0x11\n        /* \"#utility.yul\":11622:11623   */\n      0x04\n        /* \"#utility.yul\":11615:11630   */\n      mstore\n        /* \"#utility.yul\":11649:11653   */\n      0x24\n        /* \"#utility.yul\":11646:11647   */\n      0x00\n        /* \"#utility.yul\":11639:11654   */\n      revert\n        /* \"#utility.yul\":11666:11860   */\n    tag_93:\n        /* \"#utility.yul\":11706:11710   */\n      0x00\n        /* \"#utility.yul\":11726:11746   */\n      tag_410\n        /* \"#utility.yul\":11744:11745   */\n      dup3\n        /* \"#utility.yul\":11726:11746   */\n      tag_255\n      jump\t// in\n    tag_410:\n        /* \"#utility.yul\":11721:11746   */\n      swap2\n      pop\n        /* \"#utility.yul\":11760:11780   */\n      tag_411\n        /* \"#utility.yul\":11778:11779   */\n      dup4\n        /* \"#utility.yul\":11760:11780   */\n      tag_255\n      jump\t// in\n    tag_411:\n        /* \"#utility.yul\":11755:11780   */\n      swap3\n      pop\n        /* \"#utility.yul\":11804:11805   */\n      dup3\n        /* \"#utility.yul\":11801:11802   */\n      dup3\n        /* \"#utility.yul\":11797:11806   */\n      sub\n        /* \"#utility.yul\":11789:11806   */\n      swap1\n      pop\n        /* \"#utility.yul\":11828:11829   */\n      dup2\n        /* \"#utility.yul\":11822:11826   */\n      dup2\n        /* \"#utility.yul\":11819:11830   */\n      gt\n        /* \"#utility.yul\":11816:11853   */\n      iszero\n      tag_412\n      jumpi\n        /* \"#utility.yul\":11833:11851   */\n      tag_413\n      tag_263\n      jump\t// in\n    tag_413:\n        /* \"#utility.yul\":11816:11853   */\n    tag_412:\n        /* \"#utility.yul\":11666:11860   */\n      swap3\n      swap2\n      pop\n      pop\n      jump\t// out\n        /* \"#utility.yul\":11866:12094   */\n    tag_264:\n        /* \"#utility.yul\":12006:12040   */\n      0x6c617374657374206372756d6220646f6573206e6f742065786973742e205768\n        /* \"#utility.yul\":12002:12003   */\n      0x00\n        /* \"#utility.yul\":11994:12000   */\n      dup3\n        /* \"#utility.yul\":11990:12004   */\n      add\n        /* \"#utility.yul\":11983:12041   */\n      mstore\n        /* \"#utility.yul\":12075:12086   */\n      0x6f206174652069743f0000000000000000000000000000000000000000000000\n        /* \"#utility.yul\":12070:12072   */\n      0x20\n        /* \"#utility.yul\":12062:12068   */\n      dup3\n        /* \"#utility.yul\":12058:12073   */\n      add\n        /* \"#utility.yul\":12051:12087   */\n      mstore\n        /* \"#utility.yul\":11866:12094   */\n      pop\n      jump\t// out\n        /* \"#utility.yul\":12100:12466   */\n    tag_265:\n        /* \"#utility.yul\":12242:12245   */\n      0x00\n        /* \"#utility.yul\":12263:12330   */\n      tag_416\n        /* \"#utility.yul\":12327:12329   */\n      0x29\n        /* \"#utility.yul\":12322:12325   */\n      dup4\n        /* \"#utility.yul\":12263:12330   */\n      tag_248\n      jump\t// in\n    tag_416:\n        /* \"#utility.yul\":12256:12330   */\n      swap2\n      pop\n        /* \"#utility.yul\":12339:12432   */\n      tag_417\n        /* \"#utility.yul\":12428:12431   */\n      dup3\n        /* \"#utility.yul\":12339:12432   */\n      tag_264\n      jump\t// in\n    tag_417:\n        /* \"#utility.yul\":12457:12459   */\n      0x40\n        /* \"#utility.yul\":12452:12455   */\n      dup3\n        /* \"#utility.yul\":12448:12460   */\n      add\n        /* \"#utility.yul\":12441:12460   */\n      swap1\n      pop\n        /* \"#utility.yul\":12100:12466   */\n      swap2\n      swap1\n      pop\n      jump\t// out\n        /* \"#utility.yul\":12472:12891   */\n    tag_96:\n        /* \"#utility.yul\":12638:12642   */\n      0x00\n        /* \"#utility.yul\":12676:12678   */\n      0x20\n        /* \"#utility.yul\":12665:12674   */\n      dup3\n        /* \"#utility.yul\":12661:12679   */\n      add\n        /* \"#utility.yul\":12653:12679   */\n      swap1\n      pop\n        /* \"#utility.yul\":12725:12734   */\n      dup2\n        /* \"#utility.yul\":12719:12723   */\n      dup2\n        /* \"#utility.yul\":12715:12735   */\n      sub\n        /* \"#utility.yul\":12711:12712   */\n      0x00\n        /* \"#utility.yul\":12700:12709   */\n      dup4\n        /* \"#utility.yul\":12696:12713   */\n      add\n        /* \"#utility.yul\":12689:12736   */\n      mstore\n        /* \"#utility.yul\":12753:12884   */\n      tag_419\n        /* \"#utility.yul\":12879:12883   */\n      dup2\n        /* \"#utility.yul\":12753:12884   */\n      tag_265\n      jump\t// in\n    tag_419:\n        /* \"#utility.yul\":12745:12884   */\n      swap1\n      pop\n        /* \"#utility.yul\":12472:12891   */\n      swap2\n      swap1\n      pop\n      jump\t// out\n        /* \"#utility.yul\":12897:13040   */\n    tag_266:\n        /* \"#utility.yul\":12954:12959   */\n      0x00\n        /* \"#utility.yul\":12985:12991   */\n      dup2\n        /* \"#utility.yul\":12979:12992   */\n      mload\n        /* \"#utility.yul\":12970:12992   */\n      swap1\n      pop\n        /* \"#utility.yul\":13001:13034   */\n      tag_421\n        /* \"#utility.yul\":13028:13033   */\n      dup2\n        /* \"#utility.yul\":13001:13034   */\n      tag_256\n      jump\t// in\n    tag_421:\n        /* \"#utility.yul\":12897:13040   */\n      swap3\n      swap2\n      pop\n      pop\n      jump\t// out\n        /* \"#utility.yul\":13046:13397   */\n    tag_100:\n        /* \"#utility.yul\":13116:13122   */\n      0x00\n        /* \"#utility.yul\":13165:13167   */\n      0x20\n        /* \"#utility.yul\":13153:13162   */\n      dup3\n        /* \"#utility.yul\":13144:13151   */\n      dup5\n        /* \"#utility.yul\":13140:13163   */\n      sub\n        /* \"#utility.yul\":13136:13168   */\n      slt\n        /* \"#utility.yul\":13133:13252   */\n      iszero\n      tag_423\n      jumpi\n        /* \"#utility.yul\":13171:13250   */\n      tag_424\n      tag_228\n      jump\t// in\n    tag_424:\n        /* \"#utility.yul\":13133:13252   */\n    tag_423:\n        /* \"#utility.yul\":13291:13292   */\n      0x00\n        /* \"#utility.yul\":13316:13380   */\n      tag_425\n        /* \"#utility.yul\":13372:13379   */\n      dup5\n        /* \"#utility.yul\":13363:13369   */\n      dup3\n        /* \"#utility.yul\":13352:13361   */\n      dup6\n        /* \"#utility.yul\":13348:13370   */\n      add\n        /* \"#utility.yul\":13316:13380   */\n      tag_266\n      jump\t// in\n    tag_425:\n        /* \"#utility.yul\":13306:13380   */\n      swap2\n      pop\n        /* \"#utility.yul\":13262:13390   */\n      pop\n        /* \"#utility.yul\":13046:13397   */\n      swap3\n      swap2\n      pop\n      pop\n      jump\t// out\n        /* \"#utility.yul\":13403:13527   */\n    tag_267:\n        /* \"#utility.yul\":13480:13486   */\n      0x00\n        /* \"#utility.yul\":13514:13519   */\n      dup2\n        /* \"#utility.yul\":13508:13520   */\n      mload\n        /* \"#utility.yul\":13498:13520   */\n      swap1\n      pop\n        /* \"#utility.yul\":13403:13527   */\n      swap2\n      swap1\n      pop\n      jump\t// out\n        /* \"#utility.yul\":13533:13727   */\n    tag_268:\n        /* \"#utility.yul\":13642:13653   */\n      0x00\n        /* \"#utility.yul\":13676:13682   */\n      dup3\n        /* \"#utility.yul\":13671:13674   */\n      dup3\n        /* \"#utility.yul\":13664:13683   */\n      mstore\n        /* \"#utility.yul\":13716:13720   */\n      0x20\n        /* \"#utility.yul\":13711:13714   */\n      dup3\n        /* \"#utility.yul\":13707:13721   */\n      add\n        /* \"#utility.yul\":13692:13721   */\n      swap1\n      pop\n        /* \"#utility.yul\":13533:13727   */\n      swap3\n      swap2\n      pop\n      pop\n      jump\t// out\n        /* \"#utility.yul\":13733:13875   */\n    tag_269:\n        /* \"#utility.yul\":13810:13814   */\n      0x00\n        /* \"#utility.yul\":13833:13836   */\n      dup2\n        /* \"#utility.yul\":13825:13836   */\n      swap1\n      pop\n        /* \"#utility.yul\":13863:13867   */\n      0x20\n        /* \"#utility.yul\":13858:13861   */\n      dup3\n        /* \"#utility.yul\":13854:13868   */\n      add\n        /* \"#utility.yul\":13846:13868   */\n      swap1\n      pop\n        /* \"#utility.yul\":13733:13875   */\n      swap2\n      swap1\n      pop\n      jump\t// out\n        /* \"#utility.yul\":13881:14040   */\n    tag_270:\n        /* \"#utility.yul\":13955:13966   */\n      0x00\n        /* \"#utility.yul\":13989:13995   */\n      dup3\n        /* \"#utility.yul\":13984:13987   */\n      dup3\n        /* \"#utility.yul\":13977:13996   */\n      mstore\n        /* \"#utility.yul\":14029:14033   */\n      0x20\n        /* \"#utility.yul\":14024:14027   */\n      dup3\n        /* \"#utility.yul\":14020:14034   */\n      add\n        /* \"#utility.yul\":14005:14034   */\n      swap1\n      pop\n        /* \"#utility.yul\":13881:14040   */\n      swap3\n      swap2\n      pop\n      pop\n      jump\t// out\n        /* \"#utility.yul\":14046:14403   */\n    tag_271:\n        /* \"#utility.yul\":14124:14127   */\n      0x00\n        /* \"#utility.yul\":14152:14191   */\n      tag_431\n        /* \"#utility.yul\":14185:14190   */\n      dup3\n        /* \"#utility.yul\":14152:14191   */\n      tag_247\n      jump\t// in\n    tag_431:\n        /* \"#utility.yul\":14207:14268   */\n      tag_432\n        /* \"#utility.yul\":14261:14267   */\n      dup2\n        /* \"#utility.yul\":14256:14259   */\n      dup6\n        /* \"#utility.yul\":14207:14268   */\n      tag_270\n      jump\t// in\n    tag_432:\n        /* \"#utility.yul\":14200:14268   */\n      swap4\n      pop\n        /* \"#utility.yul\":14277:14342   */\n      tag_433\n        /* \"#utility.yul\":14335:14341   */\n      dup2\n        /* \"#utility.yul\":14330:14333   */\n      dup6\n        /* \"#utility.yul\":14323:14327   */\n      0x20\n        /* \"#utility.yul\":14316:14321   */\n      dup7\n        /* \"#utility.yul\":14312:14328   */\n      add\n        /* \"#utility.yul\":14277:14342   */\n      tag_249\n      jump\t// in\n    tag_433:\n        /* \"#utility.yul\":14367:14396   */\n      tag_434\n        /* \"#utility.yul\":14389:14395   */\n      dup2\n        /* \"#utility.yul\":14367:14396   */\n      tag_232\n      jump\t// in\n    tag_434:\n        /* \"#utility.yul\":14362:14365   */\n      dup5\n        /* \"#utility.yul\":14358:14397   */\n      add\n        /* \"#utility.yul\":14351:14397   */\n      swap2\n      pop\n        /* \"#utility.yul\":14128:14403   */\n      pop\n        /* \"#utility.yul\":14046:14403   */\n      swap3\n      swap2\n      pop\n      pop\n      jump\t// out\n        /* \"#utility.yul\":14409:14605   */\n    tag_272:\n        /* \"#utility.yul\":14498:14508   */\n      0x00\n        /* \"#utility.yul\":14533:14599   */\n      tag_436\n        /* \"#utility.yul\":14595:14598   */\n      dup4\n        /* \"#utility.yul\":14587:14593   */\n      dup4\n        /* \"#utility.yul\":14533:14599   */\n      tag_271\n      jump\t// in\n    tag_436:\n        /* \"#utility.yul\":14519:14599   */\n      swap1\n      pop\n        /* \"#utility.yul\":14409:14605   */\n      swap3\n      swap2\n      pop\n      pop\n      jump\t// out\n        /* \"#utility.yul\":14611:14734   */\n    tag_273:\n        /* \"#utility.yul\":14691:14695   */\n      0x00\n        /* \"#utility.yul\":14723:14727   */\n      0x20\n        /* \"#utility.yul\":14718:14721   */\n      dup3\n        /* \"#utility.yul\":14714:14728   */\n      add\n        /* \"#utility.yul\":14706:14728   */\n      swap1\n      pop\n        /* \"#utility.yul\":14611:14734   */\n      swap2\n      swap1\n      pop\n      jump\t// out\n        /* \"#utility.yul\":14768:15759   */\n    tag_274:\n        /* \"#utility.yul\":14907:14910   */\n      0x00\n        /* \"#utility.yul\":14936:15000   */\n      tag_439\n        /* \"#utility.yul\":14994:14999   */\n      dup3\n        /* \"#utility.yul\":14936:15000   */\n      tag_267\n      jump\t// in\n    tag_439:\n        /* \"#utility.yul\":15016:15112   */\n      tag_440\n        /* \"#utility.yul\":15105:15111   */\n      dup2\n        /* \"#utility.yul\":15100:15103   */\n      dup6\n        /* \"#utility.yul\":15016:15112   */\n      tag_268\n      jump\t// in\n    tag_440:\n        /* \"#utility.yul\":15009:15112   */\n      swap4\n      pop\n        /* \"#utility.yul\":15138:15141   */\n      dup4\n        /* \"#utility.yul\":15183:15187   */\n      0x20\n        /* \"#utility.yul\":15175:15181   */\n      dup3\n        /* \"#utility.yul\":15171:15188   */\n      mul\n        /* \"#utility.yul\":15166:15169   */\n      dup6\n        /* \"#utility.yul\":15162:15189   */\n      add\n        /* \"#utility.yul\":15213:15279   */\n      tag_441\n        /* \"#utility.yul\":15273:15278   */\n      dup6\n        /* \"#utility.yul\":15213:15279   */\n      tag_269\n      jump\t// in\n    tag_441:\n        /* \"#utility.yul\":15302:15309   */\n      dup1\n        /* \"#utility.yul\":15333:15334   */\n      0x00\n        /* \"#utility.yul\":15318:15714   */\n    tag_442:\n        /* \"#utility.yul\":15343:15349   */\n      dup6\n        /* \"#utility.yul\":15340:15341   */\n      dup2\n        /* \"#utility.yul\":15337:15350   */\n      lt\n        /* \"#utility.yul\":15318:15714   */\n      iszero\n      tag_444\n      jumpi\n        /* \"#utility.yul\":15414:15423   */\n      dup5\n        /* \"#utility.yul\":15408:15412   */\n      dup5\n        /* \"#utility.yul\":15404:15424   */\n      sub\n        /* \"#utility.yul\":15399:15402   */\n      dup10\n        /* \"#utility.yul\":15392:15425   */\n      mstore\n        /* \"#utility.yul\":15465:15471   */\n      dup2\n        /* \"#utility.yul\":15459:15472   */\n      mload\n        /* \"#utility.yul\":15493:15577   */\n      tag_445\n        /* \"#utility.yul\":15572:15576   */\n      dup6\n        /* \"#utility.yul\":15557:15570   */\n      dup3\n        /* \"#utility.yul\":15493:15577   */\n      tag_272\n      jump\t// in\n    tag_445:\n        /* \"#utility.yul\":15485:15577   */\n      swap5\n      pop\n        /* \"#utility.yul\":15600:15670   */\n      tag_446\n        /* \"#utility.yul\":15663:15669   */\n      dup4\n        /* \"#utility.yul\":15600:15670   */\n      tag_273\n      jump\t// in\n    tag_446:\n        /* \"#utility.yul\":15590:15670   */\n      swap3\n      pop\n        /* \"#utility.yul\":15699:15703   */\n      0x20\n        /* \"#utility.yul\":15694:15697   */\n      dup11\n        /* \"#utility.yul\":15690:15704   */\n      add\n        /* \"#utility.yul\":15683:15704   */\n      swap10\n      pop\n        /* \"#utility.yul\":15378:15714   */\n      pop\n        /* \"#utility.yul\":15365:15366   */\n      0x01\n        /* \"#utility.yul\":15362:15363   */\n      dup2\n        /* \"#utility.yul\":15358:15367   */\n      add\n        /* \"#utility.yul\":15353:15367   */\n      swap1\n      pop\n        /* \"#utility.yul\":15318:15714   */\n      jump(tag_442)\n    tag_444:\n        /* \"#utility.yul\":15322:15336   */\n      pop\n        /* \"#utility.yul\":15730:15734   */\n      dup3\n        /* \"#utility.yul\":15723:15734   */\n      swap8\n      pop\n        /* \"#utility.yul\":15750:15753   */\n      dup8\n        /* \"#utility.yul\":15743:15753   */\n      swap6\n      pop\n        /* \"#utility.yul\":14912:15759   */\n      pop\n      pop\n      pop\n      pop\n      pop\n        /* \"#utility.yul\":14768:15759   */\n      swap3\n      swap2\n      pop\n      pop\n      jump\t// out\n        /* \"#utility.yul\":15765:16477   */\n    tag_102:\n        /* \"#utility.yul\":15998:16002   */\n      0x00\n        /* \"#utility.yul\":16036:16038   */\n      0x60\n        /* \"#utility.yul\":16025:16034   */\n      dup3\n        /* \"#utility.yul\":16021:16039   */\n      add\n        /* \"#utility.yul\":16013:16039   */\n      swap1\n      pop\n        /* \"#utility.yul\":16085:16094   */\n      dup2\n        /* \"#utility.yul\":16079:16083   */\n      dup2\n        /* \"#utility.yul\":16075:16095   */\n      sub\n        /* \"#utility.yul\":16071:16072   */\n      0x00\n        /* \"#utility.yul\":16060:16069   */\n      dup4\n        /* \"#utility.yul\":16056:16073   */\n      add\n        /* \"#utility.yul\":16049:16096   */\n      mstore\n        /* \"#utility.yul\":16113:16191   */\n      tag_448\n        /* \"#utility.yul\":16186:16190   */\n      dup2\n        /* \"#utility.yul\":16177:16183   */\n      dup7\n        /* \"#utility.yul\":16113:16191   */\n      tag_250\n      jump\t// in\n    tag_448:\n        /* \"#utility.yul\":16105:16191   */\n      swap1\n      pop\n        /* \"#utility.yul\":16238:16247   */\n      dup2\n        /* \"#utility.yul\":16232:16236   */\n      dup2\n        /* \"#utility.yul\":16228:16248   */\n      sub\n        /* \"#utility.yul\":16223:16225   */\n      0x20\n        /* \"#utility.yul\":16212:16221   */\n      dup4\n        /* \"#utility.yul\":16208:16226   */\n      add\n        /* \"#utility.yul\":16201:16249   */\n      mstore\n        /* \"#utility.yul\":16266:16394   */\n      tag_449\n        /* \"#utility.yul\":16389:16393   */\n      dup2\n        /* \"#utility.yul\":16380:16386   */\n      dup6\n        /* \"#utility.yul\":16266:16394   */\n      tag_274\n      jump\t// in\n    tag_449:\n        /* \"#utility.yul\":16258:16394   */\n      swap1\n      pop\n        /* \"#utility.yul\":16404:16470   */\n      tag_450\n        /* \"#utility.yul\":16466:16468   */\n      0x40\n        /* \"#utility.yul\":16455:16464   */\n      dup4\n        /* \"#utility.yul\":16451:16469   */\n      add\n        /* \"#utility.yul\":16442:16448   */\n      dup5\n        /* \"#utility.yul\":16404:16470   */\n      tag_258\n      jump\t// in\n    tag_450:\n        /* \"#utility.yul\":15765:16477   */\n      swap5\n      swap4\n      pop\n      pop\n      pop\n      pop\n      jump\t// out\n        /* \"#utility.yul\":16483:16663   */\n    tag_275:\n        /* \"#utility.yul\":16531:16608   */\n      0x4e487b7100000000000000000000000000000000000000000000000000000000\n        /* \"#utility.yul\":16528:16529   */\n      0x00\n        /* \"#utility.yul\":16521:16609   */\n      mstore\n        /* \"#utility.yul\":16628:16632   */\n      0x22\n        /* \"#utility.yul\":16625:16626   */\n      0x04\n        /* \"#utility.yul\":16618:16633   */\n      mstore\n        /* \"#utility.yul\":16652:16656   */\n      0x24\n        /* \"#utility.yul\":16649:16650   */\n      0x00\n        /* \"#utility.yul\":16642:16657   */\n      revert\n        /* \"#utility.yul\":16669:16989   */\n    tag_108:\n        /* \"#utility.yul\":16713:16719   */\n      0x00\n        /* \"#utility.yul\":16750:16751   */\n      0x02\n        /* \"#utility.yul\":16744:16748   */\n      dup3\n        /* \"#utility.yul\":16740:16752   */\n      div\n        /* \"#utility.yul\":16730:16752   */\n      swap1\n      pop\n        /* \"#utility.yul\":16797:16798   */\n      0x01\n        /* \"#utility.yul\":16791:16795   */\n      dup3\n        /* \"#utility.yul\":16787:16799   */\n      and\n        /* \"#utility.yul\":16818:16836   */\n      dup1\n        /* \"#utility.yul\":16808:16889   */\n      tag_453\n      jumpi\n        /* \"#utility.yul\":16874:16878   */\n      0x7f\n        /* \"#utility.yul\":16866:16872   */\n      dup3\n        /* \"#utility.yul\":16862:16879   */\n      and\n        /* \"#utility.yul\":16852:16879   */\n      swap2\n      pop\n        /* \"#utility.yul\":16808:16889   */\n    tag_453:\n        /* \"#utility.yul\":16936:16938   */\n      0x20\n        /* \"#utility.yul\":16928:16934   */\n      dup3\n        /* \"#utility.yul\":16925:16939   */\n      lt\n        /* \"#utility.yul\":16905:16923   */\n      dup2\n        /* \"#utility.yul\":16902:16940   */\n      sub\n        /* \"#utility.yul\":16899:16983   */\n      tag_454\n      jumpi\n        /* \"#utility.yul\":16955:16973   */\n      tag_455\n      tag_275\n      jump\t// in\n    tag_455:\n        /* \"#utility.yul\":16899:16983   */\n    tag_454:\n        /* \"#utility.yul\":16720:16989   */\n      pop\n        /* \"#utility.yul\":16669:16989   */\n      swap2\n      swap1\n      pop\n      jump\t// out\n        /* \"#utility.yul\":16995:17163   */\n    tag_276:\n        /* \"#utility.yul\":17135:17155   */\n      0x6372756d6220616c656164792062616b65640000000000000000000000000000\n        /* \"#utility.yul\":17131:17132   */\n      0x00\n        /* \"#utility.yul\":17123:17129   */\n      dup3\n        /* \"#utility.yul\":17119:17133   */\n      add\n        /* \"#utility.yul\":17112:17156   */\n      mstore\n        /* \"#utility.yul\":16995:17163   */\n      pop\n      jump\t// out\n        /* \"#utility.yul\":17169:17535   */\n    tag_277:\n        /* \"#utility.yul\":17311:17314   */\n      0x00\n        /* \"#utility.yul\":17332:17399   */\n      tag_458\n        /* \"#utility.yul\":17396:17398   */\n      0x12\n        /* \"#utility.yul\":17391:17394   */\n      dup4\n        /* \"#utility.yul\":17332:17399   */\n      tag_248\n      jump\t// in\n    tag_458:\n        /* \"#utility.yul\":17325:17399   */\n      swap2\n      pop\n        /* \"#utility.yul\":17408:17501   */\n      tag_459\n        /* \"#utility.yul\":17497:17500   */\n      dup3\n        /* \"#utility.yul\":17408:17501   */\n      tag_276\n      jump\t// in\n    tag_459:\n        /* \"#utility.yul\":17526:17528   */\n      0x20\n        /* \"#utility.yul\":17521:17524   */\n      dup3\n        /* \"#utility.yul\":17517:17529   */\n      add\n        /* \"#utility.yul\":17510:17529   */\n      swap1\n      pop\n        /* \"#utility.yul\":17169:17535   */\n      swap2\n      swap1\n      pop\n      jump\t// out\n        /* \"#utility.yul\":17541:17960   */\n    tag_136:\n        /* \"#utility.yul\":17707:17711   */\n      0x00\n        /* \"#utility.yul\":17745:17747   */\n      0x20\n        /* \"#utility.yul\":17734:17743   */\n      dup3\n        /* \"#utility.yul\":17730:17748   */\n      add\n        /* \"#utility.yul\":17722:17748   */\n      swap1\n      pop\n        /* \"#utility.yul\":17794:17803   */\n      dup2\n        /* \"#utility.yul\":17788:17792   */\n      dup2\n        /* \"#utility.yul\":17784:17804   */\n      sub\n        /* \"#utility.yul\":17780:17781   */\n      0x00\n        /* \"#utility.yul\":17769:17778   */\n      dup4\n        /* \"#utility.yul\":17765:17782   */\n      add\n        /* \"#utility.yul\":17758:17805   */\n      mstore\n        /* \"#utility.yul\":17822:17953   */\n      tag_461\n        /* \"#utility.yul\":17948:17952   */\n      dup2\n        /* \"#utility.yul\":17822:17953   */\n      tag_277\n      jump\t// in\n    tag_461:\n        /* \"#utility.yul\":17814:17953   */\n      swap1\n      pop\n        /* \"#utility.yul\":17541:17960   */\n      swap2\n      swap1\n      pop\n      jump\t// out\n        /* \"#utility.yul\":17966:18199   */\n    tag_141:\n        /* \"#utility.yul\":18005:18008   */\n      0x00\n        /* \"#utility.yul\":18028:18052   */\n      tag_463\n        /* \"#utility.yul\":18046:18051   */\n      dup3\n        /* \"#utility.yul\":18028:18052   */\n      tag_255\n      jump\t// in\n    tag_463:\n        /* \"#utility.yul\":18019:18052   */\n      swap2\n      pop\n        /* \"#utility.yul\":18074:18140   */\n      0xffffffffffffffffffffffffffffffffffffffffffffffffffffffffffffffff\n        /* \"#utility.yul\":18067:18072   */\n      dup3\n        /* \"#utility.yul\":18064:18141   */\n      sub\n        /* \"#utility.yul\":18061:18164   */\n      tag_464\n      jumpi\n        /* \"#utility.yul\":18144:18162   */\n      tag_465\n      tag_263\n      jump\t// in\n    tag_465:\n        /* \"#utility.yul\":18061:18164   */\n    tag_464:\n        /* \"#utility.yul\":18191:18192   */\n      0x01\n        /* \"#utility.yul\":18184:18189   */\n      dup3\n        /* \"#utility.yul\":18180:18193   */\n      add\n        /* \"#utility.yul\":18173:18193   */\n      swap1\n      pop\n        /* \"#utility.yul\":17966:18199   */\n      swap2\n      swap1\n      pop\n      jump\t// out\n        /* \"#utility.yul\":18205:18647   */\n    tag_184:\n        /* \"#utility.yul\":18354:18358   */\n      0x00\n        /* \"#utility.yul\":18392:18394   */\n      0x60\n        /* \"#utility.yul\":18381:18390   */\n      dup3\n        /* \"#utility.yul\":18377:18395   */\n      add\n        /* \"#utility.yul\":18369:18395   */\n      swap1\n      pop\n        /* \"#utility.yul\":18405:18476   */\n      tag_467\n        /* \"#utility.yul\":18473:18474   */\n      0x00\n        /* \"#utility.yul\":18462:18471   */\n      dup4\n        /* \"#utility.yul\":18458:18475   */\n      add\n        /* \"#utility.yul\":18449:18455   */\n      dup7\n        /* \"#utility.yul\":18405:18476   */\n      tag_262\n      jump\t// in\n    tag_467:\n        /* \"#utility.yul\":18486:18558   */\n      tag_468\n        /* \"#utility.yul\":18554:18556   */\n      0x20\n        /* \"#utility.yul\":18543:18552   */\n      dup4\n        /* \"#utility.yul\":18539:18557   */\n      add\n        /* \"#utility.yul\":18530:18536   */\n      dup6\n        /* \"#utility.yul\":18486:18558   */\n      tag_259\n      jump\t// in\n    tag_468:\n        /* \"#utility.yul\":18568:18640   */\n      tag_469\n        /* \"#utility.yul\":18636:18638   */\n      0x40\n        /* \"#utility.yul\":18625:18634   */\n      dup4\n        /* \"#utility.yul\":18621:18639   */\n      add\n        /* \"#utility.yul\":18612:18618   */\n      dup5\n        /* \"#utility.yul\":18568:18640   */\n      tag_259\n      jump\t// in\n    tag_469:\n        /* \"#utility.yul\":18205:18647   */\n      swap5\n      swap4\n      pop\n      pop\n      pop\n      pop\n      jump\t// out\n        /* \"#utility.yul\":18653:18985   */\n    tag_216:\n        /* \"#utility.yul\":18774:18778   */\n      0x00\n        /* \"#utility.yul\":18812:18814   */\n      0x40\n        /* \"#utility.yul\":18801:18810   */\n      dup3\n        /* \"#utility.yul\":18797:18815   */\n      add\n        /* \"#utility.yul\":18789:18815   */\n      swap1\n      pop\n        /* \"#utility.yul\":18825:18896   */\n      tag_471\n        /* \"#utility.yul\":18893:18894   */\n      0x00\n        /* \"#utility.yul\":18882:18891   */\n      dup4\n        /* \"#utility.yul\":18878:18895   */\n      add\n        /* \"#utility.yul\":18869:18875   */\n      dup6\n        /* \"#utility.yul\":18825:18896   */\n      tag_259\n      jump\t// in\n    tag_471:\n        /* \"#utility.yul\":18906:18978   */\n      tag_472\n        /* \"#utility.yul\":18974:18976   */\n      0x20\n        /* \"#utility.yul\":18963:18972   */\n      dup4\n        /* \"#utility.yul\":18959:18977   */\n      add\n        /* \"#utility.yul\":18950:18956   */\n      dup5\n        /* \"#utility.yul\":18906:18978   */\n      tag_259\n      jump\t// in\n    tag_472:\n        /* \"#utility.yul\":18653:18985   */\n      swap4\n      swap3\n      pop\n      pop\n      pop\n      jump\t// out\n        /* \"#utility.yul\":18991:19182   */\n    tag_220:\n        /* \"#utility.yul\":19031:19034   */\n      0x00\n        /* \"#utility.yul\":19050:19070   */\n      tag_474\n        /* \"#utility.yul\":19068:19069   */\n      dup3\n        /* \"#utility.yul\":19050:19070   */\n      tag_255\n      jump\t// in\n    tag_474:\n        /* \"#utility.yul\":19045:19070   */\n      swap2\n      pop\n        /* \"#utility.yul\":19084:19104   */\n      tag_475\n        /* \"#utility.yul\":19102:19103   */\n      dup4\n        /* \"#utility.yul\":19084:19104   */\n      tag_255\n      jump\t// in\n    tag_475:\n        /* \"#utility.yul\":19079:19104   */\n      swap3\n      pop\n        /* \"#utility.yul\":19127:19128   */\n      dup3\n        /* \"#utility.yul\":19124:19125   */\n      dup3\n        /* \"#utility.yul\":19120:19129   */\n      add\n        /* \"#utility.yul\":19113:19129   */\n      swap1\n      pop\n        /* \"#utility.yul\":19148:19151   */\n      dup1\n        /* \"#utility.yul\":19145:19146   */\n      dup3\n        /* \"#utility.yul\":19142:19152   */\n      gt\n        /* \"#utility.yul\":19139:19175   */\n      iszero\n      tag_476\n      jumpi\n        /* \"#utility.yul\":19155:19173   */\n      tag_477\n      tag_263\n      jump\t// in\n    tag_477:\n        /* \"#utility.yul\":19139:19175   */\n    tag_476:\n        /* \"#utility.yul\":18991:19182   */\n      swap3\n      swap2\n      pop\n      pop\n      jump\t// out\n    stop\n\n    sub_0: assembly {\n            /* \"contracts/Soboro.sol\":2020:3434  contract Crumb {... */\n          mstore(0x40, 0x80)\n          callvalue\n          dup1\n          iszero\n          tag_1\n          jumpi\n          0x00\n          dup1\n          revert\n        tag_1:\n          pop\n          dataSize(sub_0)\n          dup1\n          dataOffset(sub_0)\n          0x00\n          codecopy\n          0x00\n          return\n        stop\n\n        sub_0: assembly {\n                /* \"contracts/Soboro.sol\":2020:3434  contract Crumb {... */\n              mstore(0x40, 0x80)\n              callvalue\n              dup1\n              iszero\n              tag_1\n              jumpi\n              0x00\n              dup1\n              revert\n            tag_1:\n              pop\n              jumpi(tag_2, lt(calldatasize, 0x04))\n              shr(0xe0, calldataload(0x00))\n              dup1\n              0x0c4960dd\n              eq\n              tag_3\n              jumpi\n              dup1\n              0x86e68b90\n              eq\n              tag_4\n              jumpi\n              dup1\n              0x9fe140b1\n              eq\n              tag_5\n              jumpi\n              dup1\n              0xb384abef\n              eq\n              tag_6\n              jumpi\n            tag_2:\n              0x00\n              dup1\n              revert\n                /* \"contracts/Soboro.sol\":2278:2797  function createSurvey(string memory _question, string[] memory _options, bool _initialActiveState) public {... */\n            tag_3:\n              tag_7\n              0x04\n              dup1\n              calldatasize\n              sub\n              dup2\n              add\n              swap1\n              tag_8\n              swap2\n              swap1\n              tag_9\n              jump\t// in\n            tag_8:\n              tag_10\n              jump\t// in\n            tag_7:\n              stop\n                /* \"contracts/Soboro.sol\":2221:2244  Survey[] public surveys */\n            tag_4:\n              tag_11\n              0x04\n              dup1\n              calldatasize\n              sub\n              dup2\n              add\n              swap1\n              tag_12\n              swap2\n              swap1\n              tag_13\n              jump\t// in\n            tag_12:\n              tag_14\n              jump\t// in\n            tag_11:\n              mload(0x40)\n              tag_15\n              swap3\n              swap2\n              swap1\n              tag_16\n              jump\t// in\n            tag_15:\n              mload(0x40)\n              dup1\n              swap2\n              sub\n              swap1\n              return\n                /* \"contracts/Soboro.sol\":3338:3432  function getSurveyCount() public view returns (uint256) {... */\n            tag_5:\n              tag_17\n              tag_18\n              jump\t// in\n            tag_17:\n              mload(0x40)\n              tag_19\n              swap2\n              swap1\n              tag_20\n              jump\t// in\n            tag_19:\n              mload(0x40)\n              dup1\n              swap2\n              sub\n              swap1\n              return\n                /* \"contracts/Soboro.sol\":2824:3332  function vote(uint _surveyId, uint _optionIndex) public {... */\n            tag_6:\n              tag_21\n              0x04\n              dup1\n              calldatasize\n              sub\n              dup2\n              add\n              swap1\n              tag_22\n              swap2\n              swap1\n              tag_23\n              jump\t// in\n            tag_22:\n              tag_24\n              jump\t// in\n            tag_21:\n              stop\n                /* \"contracts/Soboro.sol\":2278:2797  function createSurvey(string memory _question, string[] memory _options, bool _initialActiveState) public {... */\n            tag_10:\n                /* \"contracts/Soboro.sol\":2421:2422  2 */\n              0x02\n                /* \"contracts/Soboro.sol\":2402:2410  _options */\n              dup3\n                /* \"contracts/Soboro.sol\":2402:2417  _options.length */\n              mload\n                /* \"contracts/Soboro.sol\":2402:2422  _options.length >= 2 */\n              lt\n              iszero\n                /* \"contracts/Soboro.sol\":2394:2458  require(_options.length >= 2, \"At least 2 options are required\") */\n              tag_26\n              jumpi\n              mload(0x40)\n              0x08c379a000000000000000000000000000000000000000000000000000000000\n              dup2\n              mstore\n              0x04\n              add\n              tag_27\n              swap1\n              tag_28\n              jump\t// in\n            tag_27:\n              mload(0x40)\n              dup1\n              swap2\n              sub\n              swap1\n              revert\n            tag_26:\n                /* \"contracts/Soboro.sol\":2477:2484  surveys */\n              0x00\n                /* \"contracts/Soboro.sol\":2477:2491  surveys.push() */\n              0x01\n              dup2\n              0x01\n              dup2\n              sload\n              add\n              dup1\n              dup3\n              sstore\n              dup1\n              swap2\n              pop\n              pop\n              sub\n              swap1\n              0x00\n              mstore\n              keccak256(0x00, 0x20)\n              swap1\n              pop\n              pop\n                /* \"contracts/Soboro.sol\":2502:2523  Survey storage survey */\n              0x00\n                /* \"contracts/Soboro.sol\":2526:2533  surveys */\n              dup1\n                /* \"contracts/Soboro.sol\":2551:2552  1 */\n              0x01\n                /* \"contracts/Soboro.sol\":2534:2541  surveys */\n              0x00\n                /* \"contracts/Soboro.sol\":2534:2548  surveys.length */\n              dup1\n              sload\n              swap1\n              pop\n                /* \"contracts/Soboro.sol\":2534:2552  surveys.length - 1 */\n              tag_30\n              swap2\n              swap1\n              tag_31\n              jump\t// in\n            tag_30:\n                /* \"contracts/Soboro.sol\":2526:2553  surveys[surveys.length - 1] */\n              dup2\n              sload\n              dup2\n              lt\n              tag_32\n              jumpi\n              tag_33\n              tag_34\n              jump\t// in\n            tag_33:\n            tag_32:\n              swap1\n              0x00\n              mstore\n              keccak256(0x00, 0x20)\n              swap1\n              0x05\n              mul\n              add\n                /* \"contracts/Soboro.sol\":2502:2553  Survey storage survey = surveys[surveys.length - 1] */\n              swap1\n              pop\n                /* \"contracts/Soboro.sol\":2563:2589  uint[] memory initialVotes */\n              0x00\n                /* \"contracts/Soboro.sol\":2603:2611  _options */\n              dup4\n                /* \"contracts/Soboro.sol\":2603:2618  _options.length */\n              mload\n                /* \"contracts/Soboro.sol\":2592:2619  new uint[](_options.length) */\n              0xffffffffffffffff\n              dup2\n              gt\n              iszero\n              tag_36\n              jumpi\n              tag_37\n              tag_38\n              jump\t// in\n            tag_37:\n            tag_36:\n              mload(0x40)\n              swap1\n              dup1\n              dup3\n              mstore\n              dup1\n              0x20\n              mul\n              0x20\n              add\n              dup3\n              add\n              0x40\n              mstore\n              dup1\n              iszero\n              tag_39\n              jumpi\n              dup2\n              0x20\n              add\n              0x20\n              dup3\n              mul\n              dup1\n              calldatasize\n              dup4\n              calldatacopy\n              dup1\n              dup3\n              add\n              swap2\n              pop\n              pop\n              swap1\n              pop\n            tag_39:\n              pop\n                /* \"contracts/Soboro.sol\":2563:2619  uint[] memory initialVotes = new uint[](_options.length) */\n              swap1\n              pop\n                /* \"contracts/Soboro.sol\":2647:2656  _question */\n              dup5\n                /* \"contracts/Soboro.sol\":2629:2635  survey */\n              dup3\n                /* \"contracts/Soboro.sol\":2629:2644  survey.question */\n              0x00\n              add\n                /* \"contracts/Soboro.sol\":2629:2656  survey.question = _question */\n              swap1\n              dup2\n              tag_40\n              swap2\n              swap1\n              tag_41\n              jump\t// in\n            tag_40:\n              pop\n                /* \"contracts/Soboro.sol\":2683:2691  _options */\n              dup4\n                /* \"contracts/Soboro.sol\":2666:2672  survey */\n              dup3\n                /* \"contracts/Soboro.sol\":2666:2680  survey.options */\n              0x01\n              add\n                /* \"contracts/Soboro.sol\":2666:2691  survey.options = _options */\n              swap1\n              dup1\n              mload\n              swap1\n              0x20\n              add\n              swap1\n              tag_42\n              swap3\n              swap2\n              swap1\n              tag_43\n              jump\t// in\n            tag_42:\n              pop\n                /* \"contracts/Soboro.sol\":2730:2742  initialVotes */\n              dup1\n                /* \"contracts/Soboro.sol\":2701:2707  survey */\n              dup3\n                /* \"contracts/Soboro.sol\":2701:2727  survey.voteCountPerOptions */\n              0x02\n              add\n                /* \"contracts/Soboro.sol\":2701:2742  survey.voteCountPerOptions = initialVotes */\n              swap1\n              dup1\n              mload\n              swap1\n              0x20\n              add\n              swap1\n              tag_44\n              swap3\n              swap2\n              swap1\n              tag_45\n              jump\t// in\n            tag_44:\n              pop\n                /* \"contracts/Soboro.sol\":2770:2789  _initialActiveState */\n              dup3\n                /* \"contracts/Soboro.sol\":2752:2758  survey */\n              dup3\n                /* \"contracts/Soboro.sol\":2752:2767  survey.isActive */\n              0x03\n              add\n              0x00\n                /* \"contracts/Soboro.sol\":2752:2789  survey.isActive = _initialActiveState */\n              0x0100\n              exp\n              dup2\n              sload\n              dup2\n              0xff\n              mul\n              not\n              and\n              swap1\n              dup4\n              iszero\n              iszero\n              mul\n              or\n              swap1\n              sstore\n              pop\n                /* \"contracts/Soboro.sol\":2384:2797  {... */\n              pop\n              pop\n                /* \"contracts/Soboro.sol\":2278:2797  function createSurvey(string memory _question, string[] memory _options, bool _initialActiveState) public {... */\n              pop\n              pop\n              pop\n              jump\t// out\n                /* \"contracts/Soboro.sol\":2221:2244  Survey[] public surveys */\n            tag_14:\n              0x00\n              dup2\n              dup2\n              sload\n              dup2\n              lt\n              tag_46\n              jumpi\n              0x00\n              dup1\n              revert\n            tag_46:\n              swap1\n              0x00\n              mstore\n              keccak256(0x00, 0x20)\n              swap1\n              0x05\n              mul\n              add\n              0x00\n              swap2\n              pop\n              swap1\n              pop\n              dup1\n              0x00\n              add\n              dup1\n              sload\n              tag_48\n              swap1\n              tag_49\n              jump\t// in\n            tag_48:\n              dup1\n              0x1f\n              add\n              0x20\n              dup1\n              swap2\n              div\n              mul\n              0x20\n              add\n              mload(0x40)\n              swap1\n              dup2\n              add\n              0x40\n              mstore\n              dup1\n              swap3\n              swap2\n              swap1\n              dup2\n              dup2\n              mstore\n              0x20\n              add\n              dup3\n              dup1\n              sload\n              tag_50\n              swap1\n              tag_49\n              jump\t// in\n            tag_50:\n              dup1\n              iszero\n              tag_51\n              jumpi\n              dup1\n              0x1f\n              lt\n              tag_52\n              jumpi\n              0x0100\n              dup1\n              dup4\n              sload\n              div\n              mul\n              dup4\n              mstore\n              swap2\n              0x20\n              add\n              swap2\n              jump(tag_51)\n            tag_52:\n              dup3\n              add\n              swap2\n              swap1\n              0x00\n              mstore\n              keccak256(0x00, 0x20)\n              swap1\n            tag_53:\n              dup2\n              sload\n              dup2\n              mstore\n              swap1\n              0x01\n              add\n              swap1\n              0x20\n              add\n              dup1\n              dup4\n              gt\n              tag_53\n              jumpi\n              dup3\n              swap1\n              sub\n              0x1f\n              and\n              dup3\n              add\n              swap2\n            tag_51:\n              pop\n              pop\n              pop\n              pop\n              pop\n              swap1\n              dup1\n              0x03\n              add\n              0x00\n              swap1\n              sload\n              swap1\n              0x0100\n              exp\n              swap1\n              div\n              0xff\n              and\n              swap1\n              pop\n              dup3\n              jump\t// out\n                /* \"contracts/Soboro.sol\":3338:3432  function getSurveyCount() public view returns (uint256) {... */\n            tag_18:\n                /* \"contracts/Soboro.sol\":3385:3392  uint256 */\n              0x00\n                /* \"contracts/Soboro.sol\":3411:3418  surveys */\n              dup1\n                /* \"contracts/Soboro.sol\":3411:3425  surveys.length */\n              dup1\n              sload\n              swap1\n              pop\n                /* \"contracts/Soboro.sol\":3404:3425  return surveys.length */\n              swap1\n              pop\n                /* \"contracts/Soboro.sol\":3338:3432  function getSurveyCount() public view returns (uint256) {... */\n              swap1\n              jump\t// out\n                /* \"contracts/Soboro.sol\":2824:3332  function vote(uint _surveyId, uint _optionIndex) public {... */\n            tag_24:\n                /* \"contracts/Soboro.sol\":2910:2917  surveys */\n              0x00\n                /* \"contracts/Soboro.sol\":2910:2924  surveys.length */\n              dup1\n              sload\n              swap1\n              pop\n                /* \"contracts/Soboro.sol\":2898:2907  _surveyId */\n              dup3\n                /* \"contracts/Soboro.sol\":2898:2924  _surveyId < surveys.length */\n              lt\n                /* \"contracts/Soboro.sol\":2890:2950  require(_surveyId < surveys.length, \"Survey does not exist\") */\n              tag_56\n              jumpi\n              mload(0x40)\n              0x08c379a000000000000000000000000000000000000000000000000000000000\n              dup2\n              mstore\n              0x04\n              add\n              tag_57\n              swap1\n              tag_58\n              jump\t// in\n            tag_57:\n              mload(0x40)\n              dup1\n              swap2\n              sub\n              swap1\n              revert\n            tag_56:\n                /* \"contracts/Soboro.sol\":2968:2975  surveys */\n              0x00\n                /* \"contracts/Soboro.sol\":2976:2985  _surveyId */\n              dup3\n                /* \"contracts/Soboro.sol\":2968:2986  surveys[_surveyId] */\n              dup2\n              sload\n              dup2\n              lt\n              tag_59\n              jumpi\n              tag_60\n              tag_34\n              jump\t// in\n            tag_60:\n            tag_59:\n              swap1\n              0x00\n              mstore\n              keccak256(0x00, 0x20)\n              swap1\n              0x05\n              mul\n              add\n                /* \"contracts/Soboro.sol\":2968:2995  surveys[_surveyId].isActive */\n              0x03\n              add\n              0x00\n              swap1\n              sload\n              swap1\n              0x0100\n              exp\n              swap1\n              div\n              0xff\n              and\n                /* \"contracts/Soboro.sol\":2960:3020  require(surveys[_surveyId].isActive, \"Survey is not active\") */\n              tag_62\n              jumpi\n              mload(0x40)\n              0x08c379a000000000000000000000000000000000000000000000000000000000\n              dup2\n              mstore\n              0x04\n              add\n              tag_63\n              swap1\n              tag_64\n              jump\t// in\n            tag_63:\n              mload(0x40)\n              dup1\n              swap2\n              sub\n              swap1\n              revert\n            tag_62:\n                /* \"contracts/Soboro.sol\":3053:3060  surveys */\n              0x00\n                /* \"contracts/Soboro.sol\":3061:3070  _surveyId */\n              dup3\n                /* \"contracts/Soboro.sol\":3053:3071  surveys[_surveyId] */\n              dup2\n              sload\n              dup2\n              lt\n              tag_65\n              jumpi\n              tag_66\n              tag_34\n              jump\t// in\n            tag_66:\n            tag_65:\n              swap1\n              0x00\n              mstore\n              keccak256(0x00, 0x20)\n              swap1\n              0x05\n              mul\n              add\n                /* \"contracts/Soboro.sol\":3053:3079  surveys[_surveyId].options */\n              0x01\n              add\n                /* \"contracts/Soboro.sol\":3053:3086  surveys[_surveyId].options.length */\n              dup1\n              sload\n              swap1\n              pop\n                /* \"contracts/Soboro.sol\":3038:3050  _optionIndex */\n              dup2\n                /* \"contracts/Soboro.sol\":3038:3086  _optionIndex < surveys[_surveyId].options.length */\n              lt\n                /* \"contracts/Soboro.sol\":3030:3111  require(_optionIndex < surveys[_surveyId].options.length, \"Invalid option index\") */\n              tag_68\n              jumpi\n              mload(0x40)\n              0x08c379a000000000000000000000000000000000000000000000000000000000\n              dup2\n              mstore\n              0x04\n              add\n              tag_69\n              swap1\n              tag_70\n              jump\t// in\n            tag_69:\n              mload(0x40)\n              dup1\n              swap2\n              sub\n              swap1\n              revert\n            tag_68:\n                /* \"contracts/Soboro.sol\":3172:3177  false */\n              0x00\n                /* \"contracts/Soboro.sol\":3129:3177  surveys[_surveyId].hasVoted[msg.sender] == false */\n              iszero\n              iszero\n                /* \"contracts/Soboro.sol\":3129:3136  surveys */\n              0x00\n                /* \"contracts/Soboro.sol\":3137:3146  _surveyId */\n              dup4\n                /* \"contracts/Soboro.sol\":3129:3147  surveys[_surveyId] */\n              dup2\n              sload\n              dup2\n              lt\n              tag_71\n              jumpi\n              tag_72\n              tag_34\n              jump\t// in\n            tag_72:\n            tag_71:\n              swap1\n              0x00\n              mstore\n              keccak256(0x00, 0x20)\n              swap1\n              0x05\n              mul\n              add\n                /* \"contracts/Soboro.sol\":3129:3156  surveys[_surveyId].hasVoted */\n              0x04\n              add\n                /* \"contracts/Soboro.sol\":3129:3168  surveys[_surveyId].hasVoted[msg.sender] */\n              0x00\n                /* \"contracts/Soboro.sol\":3157:3167  msg.sender */\n              caller\n                /* \"contracts/Soboro.sol\":3129:3168  surveys[_surveyId].hasVoted[msg.sender] */\n              0xffffffffffffffffffffffffffffffffffffffff\n              and\n              0xffffffffffffffffffffffffffffffffffffffff\n              and\n              dup2\n              mstore\n              0x20\n              add\n              swap1\n              dup2\n              mstore\n              0x20\n              add\n              0x00\n              keccak256\n              0x00\n              swap1\n              sload\n              swap1\n              0x0100\n              exp\n              swap1\n              div\n              0xff\n              and\n                /* \"contracts/Soboro.sol\":3129:3177  surveys[_surveyId].hasVoted[msg.sender] == false */\n              iszero\n              iszero\n              eq\n                /* \"contracts/Soboro.sol\":3121:3204  require(surveys[_surveyId].hasVoted[msg.sender] == false, \"User has already voted\") */\n              tag_74\n              jumpi\n              mload(0x40)\n              0x08c379a000000000000000000000000000000000000000000000000000000000\n              dup2\n              mstore\n              0x04\n              add\n              tag_75\n              swap1\n              tag_76\n              jump\t// in\n            tag_75:\n              mload(0x40)\n              dup1\n              swap2\n              sub\n              swap1\n              revert\n            tag_74:\n                /* \"contracts/Soboro.sol\":3215:3222  surveys */\n              0x00\n                /* \"contracts/Soboro.sol\":3223:3232  _surveyId */\n              dup3\n                /* \"contracts/Soboro.sol\":3215:3233  surveys[_surveyId] */\n              dup2\n              sload\n              dup2\n              lt\n              tag_77\n              jumpi\n              tag_78\n              tag_34\n              jump\t// in\n            tag_78:\n            tag_77:\n              swap1\n              0x00\n              mstore\n              keccak256(0x00, 0x20)\n              swap1\n              0x05\n              mul\n              add\n                /* \"contracts/Soboro.sol\":3215:3253  surveys[_surveyId].voteCountPerOptions */\n              0x02\n              add\n                /* \"contracts/Soboro.sol\":3254:3266  _optionIndex */\n              dup2\n                /* \"contracts/Soboro.sol\":3215:3267  surveys[_surveyId].voteCountPerOptions[_optionIndex] */\n              dup2\n              sload\n              dup2\n              lt\n              tag_80\n              jumpi\n              tag_81\n              tag_34\n              jump\t// in\n            tag_81:\n            tag_80:\n              swap1\n              0x00\n              mstore\n              keccak256(0x00, 0x20)\n              add\n              0x00\n                /* \"contracts/Soboro.sol\":3215:3269  surveys[_surveyId].voteCountPerOptions[_optionIndex]++ */\n              dup2\n              sload\n              dup1\n              swap3\n              swap2\n              swap1\n              tag_83\n              swap1\n              tag_84\n              jump\t// in\n            tag_83:\n              swap2\n              swap1\n              pop\n              sstore\n              pop\n                /* \"contracts/Soboro.sol\":3321:3325  true */\n              0x01\n                /* \"contracts/Soboro.sol\":3279:3286  surveys */\n              0x00\n                /* \"contracts/Soboro.sol\":3287:3296  _surveyId */\n              dup4\n                /* \"contracts/Soboro.sol\":3279:3297  surveys[_surveyId] */\n              dup2\n              sload\n              dup2\n              lt\n              tag_85\n              jumpi\n              tag_86\n              tag_34\n              jump\t// in\n            tag_86:\n            tag_85:\n              swap1\n              0x00\n              mstore\n              keccak256(0x00, 0x20)\n              swap1\n              0x05\n              mul\n              add\n                /* \"contracts/Soboro.sol\":3279:3306  surveys[_surveyId].hasVoted */\n              0x04\n              add\n                /* \"contracts/Soboro.sol\":3279:3318  surveys[_surveyId].hasVoted[msg.sender] */\n              0x00\n                /* \"contracts/Soboro.sol\":3307:3317  msg.sender */\n              caller\n                /* \"contracts/Soboro.sol\":3279:3318  surveys[_surveyId].hasVoted[msg.sender] */\n              0xffffffffffffffffffffffffffffffffffffffff\n              and\n              0xffffffffffffffffffffffffffffffffffffffff\n              and\n              dup2\n              mstore\n              0x20\n              add\n              swap1\n              dup2\n              mstore\n              0x20\n              add\n              0x00\n              keccak256\n              0x00\n                /* \"contracts/Soboro.sol\":3279:3325  surveys[_surveyId].hasVoted[msg.sender] = true */\n              0x0100\n              exp\n              dup2\n              sload\n              dup2\n              0xff\n              mul\n              not\n              and\n              swap1\n              dup4\n              iszero\n              iszero\n              mul\n              or\n              swap1\n              sstore\n              pop\n                /* \"contracts/Soboro.sol\":2824:3332  function vote(uint _surveyId, uint _optionIndex) public {... */\n              pop\n              pop\n              jump\t// out\n            tag_43:\n              dup3\n              dup1\n              sload\n              dup3\n              dup3\n              sstore\n              swap1\n              0x00\n              mstore\n              keccak256(0x00, 0x20)\n              swap1\n              dup2\n              add\n              swap3\n              dup3\n              iszero\n              tag_88\n              jumpi\n              swap2\n              0x20\n              mul\n              dup3\n              add\n            tag_89:\n              dup3\n              dup2\n              gt\n              iszero\n              tag_90\n              jumpi\n              dup3\n              mload\n              dup3\n              swap1\n              dup2\n              tag_91\n              swap2\n              swap1\n              tag_41\n              jump\t// in\n            tag_91:\n              pop\n              swap2\n              0x20\n              add\n              swap2\n              swap1\n              0x01\n              add\n              swap1\n              jump(tag_89)\n            tag_90:\n            tag_88:\n              pop\n              swap1\n              pop\n              tag_92\n              swap2\n              swap1\n              tag_93\n              jump\t// in\n            tag_92:\n              pop\n              swap1\n              jump\t// out\n            tag_45:\n              dup3\n              dup1\n              sload\n              dup3\n              dup3\n              sstore\n              swap1\n              0x00\n              mstore\n              keccak256(0x00, 0x20)\n              swap1\n              dup2\n              add\n              swap3\n              dup3\n              iszero\n              tag_94\n              jumpi\n              swap2\n              0x20\n              mul\n              dup3\n              add\n            tag_95:\n              dup3\n              dup2\n              gt\n              iszero\n              tag_96\n              jumpi\n              dup3\n              mload\n              dup3\n              sstore\n              swap2\n              0x20\n              add\n              swap2\n              swap1\n              0x01\n              add\n              swap1\n              jump(tag_95)\n            tag_96:\n            tag_94:\n              pop\n              swap1\n              pop\n              tag_97\n              swap2\n              swap1\n              tag_98\n              jump\t// in\n            tag_97:\n              pop\n              swap1\n              jump\t// out\n            tag_93:\n            tag_99:\n              dup1\n              dup3\n              gt\n              iszero\n              tag_100\n              jumpi\n              0x00\n              dup2\n              dup2\n              tag_101\n              swap2\n              swap1\n              tag_102\n              jump\t// in\n            tag_101:\n              pop\n              0x01\n              add\n              jump(tag_99)\n            tag_100:\n              pop\n              swap1\n              jump\t// out\n            tag_98:\n            tag_103:\n              dup1\n              dup3\n              gt\n              iszero\n              tag_104\n              jumpi\n              0x00\n              dup2\n              0x00\n              swap1\n              sstore\n              pop\n              0x01\n              add\n              jump(tag_103)\n            tag_104:\n              pop\n              swap1\n              jump\t// out\n            tag_102:\n              pop\n              dup1\n              sload\n              tag_105\n              swap1\n              tag_49\n              jump\t// in\n            tag_105:\n              0x00\n              dup3\n              sstore\n              dup1\n              0x1f\n              lt\n              tag_107\n              jumpi\n              pop\n              jump(tag_106)\n            tag_107:\n              0x1f\n              add\n              0x20\n              swap1\n              div\n              swap1\n              0x00\n              mstore\n              keccak256(0x00, 0x20)\n              swap1\n              dup2\n              add\n              swap1\n              tag_108\n              swap2\n              swap1\n              tag_98\n              jump\t// in\n            tag_108:\n            tag_106:\n              pop\n              jump\t// out\n                /* \"#utility.yul\":7:82   */\n            tag_109:\n                /* \"#utility.yul\":40:46   */\n              0x00\n                /* \"#utility.yul\":73:75   */\n              0x40\n                /* \"#utility.yul\":67:76   */\n              mload\n                /* \"#utility.yul\":57:76   */\n              swap1\n              pop\n                /* \"#utility.yul\":7:82   */\n              swap1\n              jump\t// out\n                /* \"#utility.yul\":88:205   */\n            tag_110:\n                /* \"#utility.yul\":197:198   */\n              0x00\n                /* \"#utility.yul\":194:195   */\n              dup1\n                /* \"#utility.yul\":187:199   */\n              revert\n                /* \"#utility.yul\":211:328   */\n            tag_111:\n                /* \"#utility.yul\":320:321   */\n              0x00\n                /* \"#utility.yul\":317:318   */\n              dup1\n                /* \"#utility.yul\":310:322   */\n              revert\n                /* \"#utility.yul\":334:451   */\n            tag_112:\n                /* \"#utility.yul\":443:444   */\n              0x00\n                /* \"#utility.yul\":440:441   */\n              dup1\n                /* \"#utility.yul\":433:445   */\n              revert\n                /* \"#utility.yul\":457:574   */\n            tag_113:\n                /* \"#utility.yul\":566:567   */\n              0x00\n                /* \"#utility.yul\":563:564   */\n              dup1\n                /* \"#utility.yul\":556:568   */\n              revert\n                /* \"#utility.yul\":580:682   */\n            tag_114:\n                /* \"#utility.yul\":621:627   */\n              0x00\n                /* \"#utility.yul\":672:674   */\n              0x1f\n                /* \"#utility.yul\":668:675   */\n              not\n                /* \"#utility.yul\":663:665   */\n              0x1f\n                /* \"#utility.yul\":656:661   */\n              dup4\n                /* \"#utility.yul\":652:666   */\n              add\n                /* \"#utility.yul\":648:676   */\n              and\n                /* \"#utility.yul\":638:676   */\n              swap1\n              pop\n                /* \"#utility.yul\":580:682   */\n              swap2\n              swap1\n              pop\n              jump\t// out\n                /* \"#utility.yul\":688:868   */\n            tag_38:\n                /* \"#utility.yul\":736:813   */\n              0x4e487b7100000000000000000000000000000000000000000000000000000000\n                /* \"#utility.yul\":733:734   */\n              0x00\n                /* \"#utility.yul\":726:814   */\n              mstore\n                /* \"#utility.yul\":833:837   */\n              0x41\n                /* \"#utility.yul\":830:831   */\n              0x04\n                /* \"#utility.yul\":823:838   */\n              mstore\n                /* \"#utility.yul\":857:861   */\n              0x24\n                /* \"#utility.yul\":854:855   */\n              0x00\n                /* \"#utility.yul\":847:862   */\n              revert\n                /* \"#utility.yul\":874:1155   */\n            tag_115:\n                /* \"#utility.yul\":957:984   */\n              tag_173\n                /* \"#utility.yul\":979:983   */\n              dup3\n                /* \"#utility.yul\":957:984   */\n              tag_114\n              jump\t// in\n            tag_173:\n                /* \"#utility.yul\":949:955   */\n              dup2\n                /* \"#utility.yul\":945:985   */\n              add\n                /* \"#utility.yul\":1087:1093   */\n              dup2\n                /* \"#utility.yul\":1075:1085   */\n              dup2\n                /* \"#utility.yul\":1072:1094   */\n              lt\n                /* \"#utility.yul\":1051:1069   */\n              0xffffffffffffffff\n                /* \"#utility.yul\":1039:1049   */\n              dup3\n                /* \"#utility.yul\":1036:1070   */\n              gt\n                /* \"#utility.yul\":1033:1095   */\n              or\n                /* \"#utility.yul\":1030:1118   */\n              iszero\n              tag_174\n              jumpi\n                /* \"#utility.yul\":1098:1116   */\n              tag_175\n              tag_38\n              jump\t// in\n            tag_175:\n                /* \"#utility.yul\":1030:1118   */\n            tag_174:\n                /* \"#utility.yul\":1138:1148   */\n              dup1\n                /* \"#utility.yul\":1134:1136   */\n              0x40\n                /* \"#utility.yul\":1127:1149   */\n              mstore\n                /* \"#utility.yul\":917:1155   */\n              pop\n                /* \"#utility.yul\":874:1155   */\n              pop\n              pop\n              jump\t// out\n                /* \"#utility.yul\":1161:1290   */\n            tag_116:\n                /* \"#utility.yul\":1195:1201   */\n              0x00\n                /* \"#utility.yul\":1222:1242   */\n              tag_177\n              tag_109\n              jump\t// in\n            tag_177:\n                /* \"#utility.yul\":1212:1242   */\n              swap1\n              pop\n                /* \"#utility.yul\":1251:1284   */\n              tag_178\n                /* \"#utility.yul\":1279:1283   */\n              dup3\n                /* \"#utility.yul\":1271:1277   */\n              dup3\n                /* \"#utility.yul\":1251:1284   */\n              tag_115\n              jump\t// in\n            tag_178:\n                /* \"#utility.yul\":1161:1290   */\n              swap2\n              swap1\n              pop\n              jump\t// out\n                /* \"#utility.yul\":1296:1604   */\n            tag_117:\n                /* \"#utility.yul\":1358:1362   */\n              0x00\n                /* \"#utility.yul\":1448:1466   */\n              0xffffffffffffffff\n                /* \"#utility.yul\":1440:1446   */\n              dup3\n                /* \"#utility.yul\":1437:1467   */\n              gt\n                /* \"#utility.yul\":1434:1490   */\n              iszero\n              tag_180\n              jumpi\n                /* \"#utility.yul\":1470:1488   */\n              tag_181\n              tag_38\n              jump\t// in\n            tag_181:\n                /* \"#utility.yul\":1434:1490   */\n            tag_180:\n                /* \"#utility.yul\":1508:1537   */\n              tag_182\n                /* \"#utility.yul\":1530:1536   */\n              dup3\n                /* \"#utility.yul\":1508:1537   */\n              tag_114\n              jump\t// in\n            tag_182:\n                /* \"#utility.yul\":1500:1537   */\n              swap1\n              pop\n                /* \"#utility.yul\":1592:1596   */\n              0x20\n                /* \"#utility.yul\":1586:1590   */\n              dup2\n                /* \"#utility.yul\":1582:1597   */\n              add\n                /* \"#utility.yul\":1574:1597   */\n              swap1\n              pop\n                /* \"#utility.yul\":1296:1604   */\n              swap2\n              swap1\n              pop\n              jump\t// out\n                /* \"#utility.yul\":1610:1758   */\n            tag_118:\n                /* \"#utility.yul\":1708:1714   */\n              dup3\n                /* \"#utility.yul\":1703:1706   */\n              dup2\n                /* \"#utility.yul\":1698:1701   */\n              dup4\n                /* \"#utility.yul\":1685:1715   */\n              calldatacopy\n                /* \"#utility.yul\":1749:1750   */\n              0x00\n                /* \"#utility.yul\":1740:1746   */\n              dup4\n                /* \"#utility.yul\":1735:1738   */\n              dup4\n                /* \"#utility.yul\":1731:1747   */\n              add\n                /* \"#utility.yul\":1724:1751   */\n              mstore\n                /* \"#utility.yul\":1610:1758   */\n              pop\n              pop\n              pop\n              jump\t// out\n                /* \"#utility.yul\":1764:2189   */\n            tag_119:\n                /* \"#utility.yul\":1842:1847   */\n              0x00\n                /* \"#utility.yul\":1867:1933   */\n              tag_185\n                /* \"#utility.yul\":1883:1932   */\n              tag_186\n                /* \"#utility.yul\":1925:1931   */\n              dup5\n                /* \"#utility.yul\":1883:1932   */\n              tag_117\n              jump\t// in\n            tag_186:\n                /* \"#utility.yul\":1867:1933   */\n              tag_116\n              jump\t// in\n            tag_185:\n                /* \"#utility.yul\":1858:1933   */\n              swap1\n              pop\n                /* \"#utility.yul\":1956:1962   */\n              dup3\n                /* \"#utility.yul\":1949:1954   */\n              dup2\n                /* \"#utility.yul\":1942:1963   */\n              mstore\n                /* \"#utility.yul\":1994:1998   */\n              0x20\n                /* \"#utility.yul\":1987:1992   */\n              dup2\n                /* \"#utility.yul\":1983:1999   */\n              add\n                /* \"#utility.yul\":2032:2035   */\n              dup5\n                /* \"#utility.yul\":2023:2029   */\n              dup5\n                /* \"#utility.yul\":2018:2021   */\n              dup5\n                /* \"#utility.yul\":2014:2030   */\n              add\n                /* \"#utility.yul\":2011:2036   */\n              gt\n                /* \"#utility.yul\":2008:2120   */\n              iszero\n              tag_187\n              jumpi\n                /* \"#utility.yul\":2039:2118   */\n              tag_188\n              tag_113\n              jump\t// in\n            tag_188:\n                /* \"#utility.yul\":2008:2120   */\n            tag_187:\n                /* \"#utility.yul\":2129:2183   */\n              tag_189\n                /* \"#utility.yul\":2176:2182   */\n              dup5\n                /* \"#utility.yul\":2171:2174   */\n              dup3\n                /* \"#utility.yul\":2166:2169   */\n              dup6\n                /* \"#utility.yul\":2129:2183   */\n              tag_118\n              jump\t// in\n            tag_189:\n                /* \"#utility.yul\":1848:2189   */\n              pop\n                /* \"#utility.yul\":1764:2189   */\n              swap4\n              swap3\n              pop\n              pop\n              pop\n              jump\t// out\n                /* \"#utility.yul\":2209:2549   */\n            tag_120:\n                /* \"#utility.yul\":2265:2270   */\n              0x00\n                /* \"#utility.yul\":2314:2317   */\n              dup3\n                /* \"#utility.yul\":2307:2311   */\n              0x1f\n                /* \"#utility.yul\":2299:2305   */\n              dup4\n                /* \"#utility.yul\":2295:2312   */\n              add\n                /* \"#utility.yul\":2291:2318   */\n              slt\n                /* \"#utility.yul\":2281:2403   */\n              tag_191\n              jumpi\n                /* \"#utility.yul\":2322:2401   */\n              tag_192\n              tag_112\n              jump\t// in\n            tag_192:\n                /* \"#utility.yul\":2281:2403   */\n            tag_191:\n                /* \"#utility.yul\":2439:2445   */\n              dup2\n                /* \"#utility.yul\":2426:2446   */\n              calldataload\n                /* \"#utility.yul\":2464:2543   */\n              tag_193\n                /* \"#utility.yul\":2539:2542   */\n              dup5\n                /* \"#utility.yul\":2531:2537   */\n              dup3\n                /* \"#utility.yul\":2524:2528   */\n              0x20\n                /* \"#utility.yul\":2516:2522   */\n              dup7\n                /* \"#utility.yul\":2512:2529   */\n              add\n                /* \"#utility.yul\":2464:2543   */\n              tag_119\n              jump\t// in\n            tag_193:\n                /* \"#utility.yul\":2455:2543   */\n              swap2\n              pop\n                /* \"#utility.yul\":2271:2549   */\n              pop\n                /* \"#utility.yul\":2209:2549   */\n              swap3\n              swap2\n              pop\n              pop\n              jump\t// out\n                /* \"#utility.yul\":2555:2876   */\n            tag_121:\n                /* \"#utility.yul\":2642:2646   */\n              0x00\n                /* \"#utility.yul\":2732:2750   */\n              0xffffffffffffffff\n                /* \"#utility.yul\":2724:2730   */\n              dup3\n                /* \"#utility.yul\":2721:2751   */\n              gt\n                /* \"#utility.yul\":2718:2774   */\n              iszero\n              tag_195\n              jumpi\n                /* \"#utility.yul\":2754:2772   */\n              tag_196\n              tag_38\n              jump\t// in\n            tag_196:\n                /* \"#utility.yul\":2718:2774   */\n            tag_195:\n                /* \"#utility.yul\":2804:2808   */\n              0x20\n                /* \"#utility.yul\":2796:2802   */\n              dup3\n                /* \"#utility.yul\":2792:2809   */\n              mul\n                /* \"#utility.yul\":2784:2809   */\n              swap1\n              pop\n                /* \"#utility.yul\":2864:2868   */\n              0x20\n                /* \"#utility.yul\":2858:2862   */\n              dup2\n                /* \"#utility.yul\":2854:2869   */\n              add\n                /* \"#utility.yul\":2846:2869   */\n              swap1\n              pop\n                /* \"#utility.yul\":2555:2876   */\n              swap2\n              swap1\n              pop\n              jump\t// out\n                /* \"#utility.yul\":2882:2999   */\n            tag_122:\n                /* \"#utility.yul\":2991:2992   */\n              0x00\n                /* \"#utility.yul\":2988:2989   */\n              dup1\n                /* \"#utility.yul\":2981:2993   */\n              revert\n                /* \"#utility.yul\":3021:3966   */\n            tag_123:\n                /* \"#utility.yul\":3127:3132   */\n              0x00\n                /* \"#utility.yul\":3152:3243   */\n              tag_199\n                /* \"#utility.yul\":3168:3242   */\n              tag_200\n                /* \"#utility.yul\":3235:3241   */\n              dup5\n                /* \"#utility.yul\":3168:3242   */\n              tag_121\n              jump\t// in\n            tag_200:\n                /* \"#utility.yul\":3152:3243   */\n              tag_116\n              jump\t// in\n            tag_199:\n                /* \"#utility.yul\":3143:3243   */\n              swap1\n              pop\n                /* \"#utility.yul\":3263:3268   */\n              dup1\n                /* \"#utility.yul\":3292:3298   */\n              dup4\n                /* \"#utility.yul\":3285:3290   */\n              dup3\n                /* \"#utility.yul\":3278:3299   */\n              mstore\n                /* \"#utility.yul\":3326:3330   */\n              0x20\n                /* \"#utility.yul\":3319:3324   */\n              dup3\n                /* \"#utility.yul\":3315:3331   */\n              add\n                /* \"#utility.yul\":3308:3331   */\n              swap1\n              pop\n                /* \"#utility.yul\":3379:3383   */\n              0x20\n                /* \"#utility.yul\":3371:3377   */\n              dup5\n                /* \"#utility.yul\":3367:3384   */\n              mul\n                /* \"#utility.yul\":3359:3365   */\n              dup4\n                /* \"#utility.yul\":3355:3385   */\n              add\n                /* \"#utility.yul\":3408:3411   */\n              dup6\n                /* \"#utility.yul\":3400:3406   */\n              dup2\n                /* \"#utility.yul\":3397:3412   */\n              gt\n                /* \"#utility.yul\":3394:3516   */\n              iszero\n              tag_201\n              jumpi\n                /* \"#utility.yul\":3427:3506   */\n              tag_202\n              tag_122\n              jump\t// in\n            tag_202:\n                /* \"#utility.yul\":3394:3516   */\n            tag_201:\n                /* \"#utility.yul\":3542:3548   */\n              dup4\n                /* \"#utility.yul\":3525:3960   */\n            tag_203:\n                /* \"#utility.yul\":3559:3565   */\n              dup2\n                /* \"#utility.yul\":3554:3557   */\n              dup2\n                /* \"#utility.yul\":3551:3566   */\n              lt\n                /* \"#utility.yul\":3525:3960   */\n              iszero\n              tag_205\n              jumpi\n                /* \"#utility.yul\":3648:3651   */\n              dup1\n                /* \"#utility.yul\":3635:3652   */\n              calldataload\n                /* \"#utility.yul\":3684:3702   */\n              0xffffffffffffffff\n                /* \"#utility.yul\":3671:3682   */\n              dup2\n                /* \"#utility.yul\":3668:3703   */\n              gt\n                /* \"#utility.yul\":3665:3787   */\n              iszero\n              tag_206\n              jumpi\n                /* \"#utility.yul\":3706:3785   */\n              tag_207\n              tag_112\n              jump\t// in\n            tag_207:\n                /* \"#utility.yul\":3665:3787   */\n            tag_206:\n                /* \"#utility.yul\":3830:3841   */\n              dup1\n                /* \"#utility.yul\":3822:3828   */\n              dup7\n                /* \"#utility.yul\":3818:3842   */\n              add\n                /* \"#utility.yul\":3868:3915   */\n              tag_208\n                /* \"#utility.yul\":3911:3914   */\n              dup10\n                /* \"#utility.yul\":3899:3909   */\n              dup3\n                /* \"#utility.yul\":3868:3915   */\n              tag_120\n              jump\t// in\n            tag_208:\n                /* \"#utility.yul\":3863:3866   */\n              dup6\n                /* \"#utility.yul\":3856:3916   */\n              mstore\n                /* \"#utility.yul\":3945:3949   */\n              0x20\n                /* \"#utility.yul\":3940:3943   */\n              dup6\n                /* \"#utility.yul\":3936:3950   */\n              add\n                /* \"#utility.yul\":3929:3950   */\n              swap5\n              pop\n                /* \"#utility.yul\":3601:3960   */\n              pop\n              pop\n                /* \"#utility.yul\":3585:3589   */\n              0x20\n                /* \"#utility.yul\":3580:3583   */\n              dup2\n                /* \"#utility.yul\":3576:3590   */\n              add\n                /* \"#utility.yul\":3569:3590   */\n              swap1\n              pop\n                /* \"#utility.yul\":3525:3960   */\n              jump(tag_203)\n            tag_205:\n                /* \"#utility.yul\":3529:3550   */\n              pop\n                /* \"#utility.yul\":3133:3966   */\n              pop\n              pop\n                /* \"#utility.yul\":3021:3966   */\n              swap4\n              swap3\n              pop\n              pop\n              pop\n              jump\t// out\n                /* \"#utility.yul\":3988:4378   */\n            tag_124:\n                /* \"#utility.yul\":4069:4074   */\n              0x00\n                /* \"#utility.yul\":4118:4121   */\n              dup3\n                /* \"#utility.yul\":4111:4115   */\n              0x1f\n                /* \"#utility.yul\":4103:4109   */\n              dup4\n                /* \"#utility.yul\":4099:4116   */\n              add\n                /* \"#utility.yul\":4095:4122   */\n              slt\n                /* \"#utility.yul\":4085:4207   */\n              tag_210\n              jumpi\n                /* \"#utility.yul\":4126:4205   */\n              tag_211\n              tag_112\n              jump\t// in\n            tag_211:\n                /* \"#utility.yul\":4085:4207   */\n            tag_210:\n                /* \"#utility.yul\":4243:4249   */\n              dup2\n                /* \"#utility.yul\":4230:4250   */\n              calldataload\n                /* \"#utility.yul\":4268:4372   */\n              tag_212\n                /* \"#utility.yul\":4368:4371   */\n              dup5\n                /* \"#utility.yul\":4360:4366   */\n              dup3\n                /* \"#utility.yul\":4353:4357   */\n              0x20\n                /* \"#utility.yul\":4345:4351   */\n              dup7\n                /* \"#utility.yul\":4341:4358   */\n              add\n                /* \"#utility.yul\":4268:4372   */\n              tag_123\n              jump\t// in\n            tag_212:\n                /* \"#utility.yul\":4259:4372   */\n              swap2\n              pop\n                /* \"#utility.yul\":4075:4378   */\n              pop\n                /* \"#utility.yul\":3988:4378   */\n              swap3\n              swap2\n              pop\n              pop\n              jump\t// out\n                /* \"#utility.yul\":4384:4474   */\n            tag_125:\n                /* \"#utility.yul\":4418:4425   */\n              0x00\n                /* \"#utility.yul\":4461:4466   */\n              dup2\n                /* \"#utility.yul\":4454:4467   */\n              iszero\n                /* \"#utility.yul\":4447:4468   */\n              iszero\n                /* \"#utility.yul\":4436:4468   */\n              swap1\n              pop\n                /* \"#utility.yul\":4384:4474   */\n              swap2\n              swap1\n              pop\n              jump\t// out\n                /* \"#utility.yul\":4480:4596   */\n            tag_126:\n                /* \"#utility.yul\":4550:4571   */\n              tag_215\n                /* \"#utility.yul\":4565:4570   */\n              dup2\n                /* \"#utility.yul\":4550:4571   */\n              tag_125\n              jump\t// in\n            tag_215:\n                /* \"#utility.yul\":4543:4548   */\n              dup2\n                /* \"#utility.yul\":4540:4572   */\n              eq\n                /* \"#utility.yul\":4530:4590   */\n              tag_216\n              jumpi\n                /* \"#utility.yul\":4586:4587   */\n              0x00\n                /* \"#utility.yul\":4583:4584   */\n              dup1\n                /* \"#utility.yul\":4576:4588   */\n              revert\n                /* \"#utility.yul\":4530:4590   */\n            tag_216:\n                /* \"#utility.yul\":4480:4596   */\n              pop\n              jump\t// out\n                /* \"#utility.yul\":4602:4735   */\n            tag_127:\n                /* \"#utility.yul\":4645:4650   */\n              0x00\n                /* \"#utility.yul\":4683:4689   */\n              dup2\n                /* \"#utility.yul\":4670:4690   */\n              calldataload\n                /* \"#utility.yul\":4661:4690   */\n              swap1\n              pop\n                /* \"#utility.yul\":4699:4729   */\n              tag_218\n                /* \"#utility.yul\":4723:4728   */\n              dup2\n                /* \"#utility.yul\":4699:4729   */\n              tag_126\n              jump\t// in\n            tag_218:\n                /* \"#utility.yul\":4602:4735   */\n              swap3\n              swap2\n              pop\n              pop\n              jump\t// out\n                /* \"#utility.yul\":4741:5764   */\n            tag_9:\n                /* \"#utility.yul\":4860:4866   */\n              0x00\n                /* \"#utility.yul\":4868:4874   */\n              dup1\n                /* \"#utility.yul\":4876:4882   */\n              0x00\n                /* \"#utility.yul\":4925:4927   */\n              0x60\n                /* \"#utility.yul\":4913:4922   */\n              dup5\n                /* \"#utility.yul\":4904:4911   */\n              dup7\n                /* \"#utility.yul\":4900:4923   */\n              sub\n                /* \"#utility.yul\":4896:4928   */\n              slt\n                /* \"#utility.yul\":4893:5012   */\n              iszero\n              tag_220\n              jumpi\n                /* \"#utility.yul\":4931:5010   */\n              tag_221\n              tag_110\n              jump\t// in\n            tag_221:\n                /* \"#utility.yul\":4893:5012   */\n            tag_220:\n                /* \"#utility.yul\":5079:5080   */\n              0x00\n                /* \"#utility.yul\":5068:5077   */\n              dup5\n                /* \"#utility.yul\":5064:5081   */\n              add\n                /* \"#utility.yul\":5051:5082   */\n              calldataload\n                /* \"#utility.yul\":5109:5127   */\n              0xffffffffffffffff\n                /* \"#utility.yul\":5101:5107   */\n              dup2\n                /* \"#utility.yul\":5098:5128   */\n              gt\n                /* \"#utility.yul\":5095:5212   */\n              iszero\n              tag_222\n              jumpi\n                /* \"#utility.yul\":5131:5210   */\n              tag_223\n              tag_111\n              jump\t// in\n            tag_223:\n                /* \"#utility.yul\":5095:5212   */\n            tag_222:\n                /* \"#utility.yul\":5236:5299   */\n              tag_224\n                /* \"#utility.yul\":5291:5298   */\n              dup7\n                /* \"#utility.yul\":5282:5288   */\n              dup3\n                /* \"#utility.yul\":5271:5280   */\n              dup8\n                /* \"#utility.yul\":5267:5289   */\n              add\n                /* \"#utility.yul\":5236:5299   */\n              tag_120\n              jump\t// in\n            tag_224:\n                /* \"#utility.yul\":5226:5299   */\n              swap4\n              pop\n                /* \"#utility.yul\":5022:5309   */\n              pop\n                /* \"#utility.yul\":5376:5378   */\n              0x20\n                /* \"#utility.yul\":5365:5374   */\n              dup5\n                /* \"#utility.yul\":5361:5379   */\n              add\n                /* \"#utility.yul\":5348:5380   */\n              calldataload\n                /* \"#utility.yul\":5407:5425   */\n              0xffffffffffffffff\n                /* \"#utility.yul\":5399:5405   */\n              dup2\n                /* \"#utility.yul\":5396:5426   */\n              gt\n                /* \"#utility.yul\":5393:5510   */\n              iszero\n              tag_225\n              jumpi\n                /* \"#utility.yul\":5429:5508   */\n              tag_226\n              tag_111\n              jump\t// in\n            tag_226:\n                /* \"#utility.yul\":5393:5510   */\n            tag_225:\n                /* \"#utility.yul\":5534:5622   */\n              tag_227\n                /* \"#utility.yul\":5614:5621   */\n              dup7\n                /* \"#utility.yul\":5605:5611   */\n              dup3\n                /* \"#utility.yul\":5594:5603   */\n              dup8\n                /* \"#utility.yul\":5590:5612   */\n              add\n                /* \"#utility.yul\":5534:5622   */\n              tag_124\n              jump\t// in\n            tag_227:\n                /* \"#utility.yul\":5524:5622   */\n              swap3\n              pop\n                /* \"#utility.yul\":5319:5632   */\n              pop\n                /* \"#utility.yul\":5671:5673   */\n              0x40\n                /* \"#utility.yul\":5697:5747   */\n              tag_228\n                /* \"#utility.yul\":5739:5746   */\n              dup7\n                /* \"#utility.yul\":5730:5736   */\n              dup3\n                /* \"#utility.yul\":5719:5728   */\n              dup8\n                /* \"#utility.yul\":5715:5737   */\n              add\n                /* \"#utility.yul\":5697:5747   */\n              tag_127\n              jump\t// in\n            tag_228:\n                /* \"#utility.yul\":5687:5747   */\n              swap2\n              pop\n                /* \"#utility.yul\":5642:5757   */\n              pop\n                /* \"#utility.yul\":4741:5764   */\n              swap3\n              pop\n              swap3\n              pop\n              swap3\n              jump\t// out\n                /* \"#utility.yul\":5770:5847   */\n            tag_128:\n                /* \"#utility.yul\":5807:5814   */\n              0x00\n                /* \"#utility.yul\":5836:5841   */\n              dup2\n                /* \"#utility.yul\":5825:5841   */\n              swap1\n              pop\n                /* \"#utility.yul\":5770:5847   */\n              swap2\n              swap1\n              pop\n              jump\t// out\n                /* \"#utility.yul\":5853:5975   */\n            tag_129:\n                /* \"#utility.yul\":5926:5950   */\n              tag_231\n                /* \"#utility.yul\":5944:5949   */\n              dup2\n                /* \"#utility.yul\":5926:5950   */\n              tag_128\n              jump\t// in\n            tag_231:\n                /* \"#utility.yul\":5919:5924   */\n              dup2\n                /* \"#utility.yul\":5916:5951   */\n              eq\n                /* \"#utility.yul\":5906:5969   */\n              tag_232\n              jumpi\n                /* \"#utility.yul\":5965:5966   */\n              0x00\n                /* \"#utility.yul\":5962:5963   */\n              dup1\n                /* \"#utility.yul\":5955:5967   */\n              revert\n                /* \"#utility.yul\":5906:5969   */\n            tag_232:\n                /* \"#utility.yul\":5853:5975   */\n              pop\n              jump\t// out\n                /* \"#utility.yul\":5981:6120   */\n            tag_130:\n                /* \"#utility.yul\":6027:6032   */\n              0x00\n                /* \"#utility.yul\":6065:6071   */\n              dup2\n                /* \"#utility.yul\":6052:6072   */\n              calldataload\n                /* \"#utility.yul\":6043:6072   */\n              swap1\n              pop\n                /* \"#utility.yul\":6081:6114   */\n              tag_234\n                /* \"#utility.yul\":6108:6113   */\n              dup2\n                /* \"#utility.yul\":6081:6114   */\n              tag_129\n              jump\t// in\n            tag_234:\n                /* \"#utility.yul\":5981:6120   */\n              swap3\n              swap2\n              pop\n              pop\n              jump\t// out\n                /* \"#utility.yul\":6126:6455   */\n            tag_13:\n                /* \"#utility.yul\":6185:6191   */\n              0x00\n                /* \"#utility.yul\":6234:6236   */\n              0x20\n                /* \"#utility.yul\":6222:6231   */\n              dup3\n                /* \"#utility.yul\":6213:6220   */\n              dup5\n                /* \"#utility.yul\":6209:6232   */\n              sub\n                /* \"#utility.yul\":6205:6237   */\n              slt\n                /* \"#utility.yul\":6202:6321   */\n              iszero\n              tag_236\n              jumpi\n                /* \"#utility.yul\":6240:6319   */\n              tag_237\n              tag_110\n              jump\t// in\n            tag_237:\n                /* \"#utility.yul\":6202:6321   */\n            tag_236:\n                /* \"#utility.yul\":6360:6361   */\n              0x00\n                /* \"#utility.yul\":6385:6438   */\n              tag_238\n                /* \"#utility.yul\":6430:6437   */\n              dup5\n                /* \"#utility.yul\":6421:6427   */\n              dup3\n                /* \"#utility.yul\":6410:6419   */\n              dup6\n                /* \"#utility.yul\":6406:6428   */\n              add\n                /* \"#utility.yul\":6385:6438   */\n              tag_130\n              jump\t// in\n            tag_238:\n                /* \"#utility.yul\":6375:6438   */\n              swap2\n              pop\n                /* \"#utility.yul\":6331:6448   */\n              pop\n                /* \"#utility.yul\":6126:6455   */\n              swap3\n              swap2\n              pop\n              pop\n              jump\t// out\n                /* \"#utility.yul\":6461:6560   */\n            tag_131:\n                /* \"#utility.yul\":6513:6519   */\n              0x00\n                /* \"#utility.yul\":6547:6552   */\n              dup2\n                /* \"#utility.yul\":6541:6553   */\n              mload\n                /* \"#utility.yul\":6531:6553   */\n              swap1\n              pop\n                /* \"#utility.yul\":6461:6560   */\n              swap2\n              swap1\n              pop\n              jump\t// out\n                /* \"#utility.yul\":6566:6735   */\n            tag_132:\n                /* \"#utility.yul\":6650:6661   */\n              0x00\n                /* \"#utility.yul\":6684:6690   */\n              dup3\n                /* \"#utility.yul\":6679:6682   */\n              dup3\n                /* \"#utility.yul\":6672:6691   */\n              mstore\n                /* \"#utility.yul\":6724:6728   */\n              0x20\n                /* \"#utility.yul\":6719:6722   */\n              dup3\n                /* \"#utility.yul\":6715:6729   */\n              add\n                /* \"#utility.yul\":6700:6729   */\n              swap1\n              pop\n                /* \"#utility.yul\":6566:6735   */\n              swap3\n              swap2\n              pop\n              pop\n              jump\t// out\n                /* \"#utility.yul\":6741:6880   */\n            tag_133:\n                /* \"#utility.yul\":6830:6836   */\n              dup3\n                /* \"#utility.yul\":6825:6828   */\n              dup2\n                /* \"#utility.yul\":6820:6823   */\n              dup4\n                /* \"#utility.yul\":6814:6837   */\n              mcopy\n                /* \"#utility.yul\":6871:6872   */\n              0x00\n                /* \"#utility.yul\":6862:6868   */\n              dup4\n                /* \"#utility.yul\":6857:6860   */\n              dup4\n                /* \"#utility.yul\":6853:6869   */\n              add\n                /* \"#utility.yul\":6846:6873   */\n              mstore\n                /* \"#utility.yul\":6741:6880   */\n              pop\n              pop\n              pop\n              jump\t// out\n                /* \"#utility.yul\":6886:7263   */\n            tag_134:\n                /* \"#utility.yul\":6974:6977   */\n              0x00\n                /* \"#utility.yul\":7002:7041   */\n              tag_243\n                /* \"#utility.yul\":7035:7040   */\n              dup3\n                /* \"#utility.yul\":7002:7041   */\n              tag_131\n              jump\t// in\n            tag_243:\n                /* \"#utility.yul\":7057:7128   */\n              tag_244\n                /* \"#utility.yul\":7121:7127   */\n              dup2\n                /* \"#utility.yul\":7116:7119   */\n              dup6\n                /* \"#utility.yul\":7057:7128   */\n              tag_132\n              jump\t// in\n            tag_244:\n                /* \"#utility.yul\":7050:7128   */\n              swap4\n              pop\n                /* \"#utility.yul\":7137:7202   */\n              tag_245\n                /* \"#utility.yul\":7195:7201   */\n              dup2\n                /* \"#utility.yul\":7190:7193   */\n              dup6\n                /* \"#utility.yul\":7183:7187   */\n              0x20\n                /* \"#utility.yul\":7176:7181   */\n              dup7\n                /* \"#utility.yul\":7172:7188   */\n              add\n                /* \"#utility.yul\":7137:7202   */\n              tag_133\n              jump\t// in\n            tag_245:\n                /* \"#utility.yul\":7227:7256   */\n              tag_246\n                /* \"#utility.yul\":7249:7255   */\n              dup2\n                /* \"#utility.yul\":7227:7256   */\n              tag_114\n              jump\t// in\n            tag_246:\n                /* \"#utility.yul\":7222:7225   */\n              dup5\n                /* \"#utility.yul\":7218:7257   */\n              add\n                /* \"#utility.yul\":7211:7257   */\n              swap2\n              pop\n                /* \"#utility.yul\":6978:7263   */\n              pop\n                /* \"#utility.yul\":6886:7263   */\n              swap3\n              swap2\n              pop\n              pop\n              jump\t// out\n                /* \"#utility.yul\":7269:7378   */\n            tag_135:\n                /* \"#utility.yul\":7350:7371   */\n              tag_248\n                /* \"#utility.yul\":7365:7370   */\n              dup2\n                /* \"#utility.yul\":7350:7371   */\n              tag_125\n              jump\t// in\n            tag_248:\n                /* \"#utility.yul\":7345:7348   */\n              dup3\n                /* \"#utility.yul\":7338:7372   */\n              mstore\n                /* \"#utility.yul\":7269:7378   */\n              pop\n              pop\n              jump\t// out\n                /* \"#utility.yul\":7384:7795   */\n            tag_16:\n                /* \"#utility.yul\":7519:7523   */\n              0x00\n                /* \"#utility.yul\":7557:7559   */\n              0x40\n                /* \"#utility.yul\":7546:7555   */\n              dup3\n                /* \"#utility.yul\":7542:7560   */\n              add\n                /* \"#utility.yul\":7534:7560   */\n              swap1\n              pop\n                /* \"#utility.yul\":7606:7615   */\n              dup2\n                /* \"#utility.yul\":7600:7604   */\n              dup2\n                /* \"#utility.yul\":7596:7616   */\n              sub\n                /* \"#utility.yul\":7592:7593   */\n              0x00\n                /* \"#utility.yul\":7581:7590   */\n              dup4\n                /* \"#utility.yul\":7577:7594   */\n              add\n                /* \"#utility.yul\":7570:7617   */\n              mstore\n                /* \"#utility.yul\":7634:7712   */\n              tag_250\n                /* \"#utility.yul\":7707:7711   */\n              dup2\n                /* \"#utility.yul\":7698:7704   */\n              dup6\n                /* \"#utility.yul\":7634:7712   */\n              tag_134\n              jump\t// in\n            tag_250:\n                /* \"#utility.yul\":7626:7712   */\n              swap1\n              pop\n                /* \"#utility.yul\":7722:7788   */\n              tag_251\n                /* \"#utility.yul\":7784:7786   */\n              0x20\n                /* \"#utility.yul\":7773:7782   */\n              dup4\n                /* \"#utility.yul\":7769:7787   */\n              add\n                /* \"#utility.yul\":7760:7766   */\n              dup5\n                /* \"#utility.yul\":7722:7788   */\n              tag_135\n              jump\t// in\n            tag_251:\n                /* \"#utility.yul\":7384:7795   */\n              swap4\n              swap3\n              pop\n              pop\n              pop\n              jump\t// out\n                /* \"#utility.yul\":7801:7919   */\n            tag_136:\n                /* \"#utility.yul\":7888:7912   */\n              tag_253\n                /* \"#utility.yul\":7906:7911   */\n              dup2\n                /* \"#utility.yul\":7888:7912   */\n              tag_128\n              jump\t// in\n            tag_253:\n                /* \"#utility.yul\":7883:7886   */\n              dup3\n                /* \"#utility.yul\":7876:7913   */\n              mstore\n                /* \"#utility.yul\":7801:7919   */\n              pop\n              pop\n              jump\t// out\n                /* \"#utility.yul\":7925:8147   */\n            tag_20:\n                /* \"#utility.yul\":8018:8022   */\n              0x00\n                /* \"#utility.yul\":8056:8058   */\n              0x20\n                /* \"#utility.yul\":8045:8054   */\n              dup3\n                /* \"#utility.yul\":8041:8059   */\n              add\n                /* \"#utility.yul\":8033:8059   */\n              swap1\n              pop\n                /* \"#utility.yul\":8069:8140   */\n              tag_255\n                /* \"#utility.yul\":8137:8138   */\n              0x00\n                /* \"#utility.yul\":8126:8135   */\n              dup4\n                /* \"#utility.yul\":8122:8139   */\n              add\n                /* \"#utility.yul\":8113:8119   */\n              dup5\n                /* \"#utility.yul\":8069:8140   */\n              tag_136\n              jump\t// in\n            tag_255:\n                /* \"#utility.yul\":7925:8147   */\n              swap3\n              swap2\n              pop\n              pop\n              jump\t// out\n                /* \"#utility.yul\":8153:8627   */\n            tag_23:\n                /* \"#utility.yul\":8221:8227   */\n              0x00\n                /* \"#utility.yul\":8229:8235   */\n              dup1\n                /* \"#utility.yul\":8278:8280   */\n              0x40\n                /* \"#utility.yul\":8266:8275   */\n              dup4\n                /* \"#utility.yul\":8257:8264   */\n              dup6\n                /* \"#utility.yul\":8253:8276   */\n              sub\n                /* \"#utility.yul\":8249:8281   */\n              slt\n                /* \"#utility.yul\":8246:8365   */\n              iszero\n              tag_257\n              jumpi\n                /* \"#utility.yul\":8284:8363   */\n              tag_258\n              tag_110\n              jump\t// in\n            tag_258:\n                /* \"#utility.yul\":8246:8365   */\n            tag_257:\n                /* \"#utility.yul\":8404:8405   */\n              0x00\n                /* \"#utility.yul\":8429:8482   */\n              tag_259\n                /* \"#utility.yul\":8474:8481   */\n              dup6\n                /* \"#utility.yul\":8465:8471   */\n              dup3\n                /* \"#utility.yul\":8454:8463   */\n              dup7\n                /* \"#utility.yul\":8450:8472   */\n              add\n                /* \"#utility.yul\":8429:8482   */\n              tag_130\n              jump\t// in\n            tag_259:\n                /* \"#utility.yul\":8419:8482   */\n              swap3\n              pop\n                /* \"#utility.yul\":8375:8492   */\n              pop\n                /* \"#utility.yul\":8531:8533   */\n              0x20\n                /* \"#utility.yul\":8557:8610   */\n              tag_260\n                /* \"#utility.yul\":8602:8609   */\n              dup6\n                /* \"#utility.yul\":8593:8599   */\n              dup3\n                /* \"#utility.yul\":8582:8591   */\n              dup7\n                /* \"#utility.yul\":8578:8600   */\n              add\n                /* \"#utility.yul\":8557:8610   */\n              tag_130\n              jump\t// in\n            tag_260:\n                /* \"#utility.yul\":8547:8610   */\n              swap2\n              pop\n                /* \"#utility.yul\":8502:8620   */\n              pop\n                /* \"#utility.yul\":8153:8627   */\n              swap3\n              pop\n              swap3\n              swap1\n              pop\n              jump\t// out\n                /* \"#utility.yul\":8633:8814   */\n            tag_137:\n                /* \"#utility.yul\":8773:8806   */\n              0x4174206c656173742032206f7074696f6e732061726520726571756972656400\n                /* \"#utility.yul\":8769:8770   */\n              0x00\n                /* \"#utility.yul\":8761:8767   */\n              dup3\n                /* \"#utility.yul\":8757:8771   */\n              add\n                /* \"#utility.yul\":8750:8807   */\n              mstore\n                /* \"#utility.yul\":8633:8814   */\n              pop\n              jump\t// out\n                /* \"#utility.yul\":8820:9186   */\n            tag_138:\n                /* \"#utility.yul\":8962:8965   */\n              0x00\n                /* \"#utility.yul\":8983:9050   */\n              tag_263\n                /* \"#utility.yul\":9047:9049   */\n              0x1f\n                /* \"#utility.yul\":9042:9045   */\n              dup4\n                /* \"#utility.yul\":8983:9050   */\n              tag_132\n              jump\t// in\n            tag_263:\n                /* \"#utility.yul\":8976:9050   */\n              swap2\n              pop\n                /* \"#utility.yul\":9059:9152   */\n              tag_264\n                /* \"#utility.yul\":9148:9151   */\n              dup3\n                /* \"#utility.yul\":9059:9152   */\n              tag_137\n              jump\t// in\n            tag_264:\n                /* \"#utility.yul\":9177:9179   */\n              0x20\n                /* \"#utility.yul\":9172:9175   */\n              dup3\n                /* \"#utility.yul\":9168:9180   */\n              add\n                /* \"#utility.yul\":9161:9180   */\n              swap1\n              pop\n                /* \"#utility.yul\":8820:9186   */\n              swap2\n              swap1\n              pop\n              jump\t// out\n                /* \"#utility.yul\":9192:9611   */\n            tag_28:\n                /* \"#utility.yul\":9358:9362   */\n              0x00\n                /* \"#utility.yul\":9396:9398   */\n              0x20\n                /* \"#utility.yul\":9385:9394   */\n              dup3\n                /* \"#utility.yul\":9381:9399   */\n              add\n                /* \"#utility.yul\":9373:9399   */\n              swap1\n              pop\n                /* \"#utility.yul\":9445:9454   */\n              dup2\n                /* \"#utility.yul\":9439:9443   */\n              dup2\n                /* \"#utility.yul\":9435:9455   */\n              sub\n                /* \"#utility.yul\":9431:9432   */\n              0x00\n                /* \"#utility.yul\":9420:9429   */\n              dup4\n                /* \"#utility.yul\":9416:9433   */\n              add\n                /* \"#utility.yul\":9409:9456   */\n              mstore\n                /* \"#utility.yul\":9473:9604   */\n              tag_266\n                /* \"#utility.yul\":9599:9603   */\n              dup2\n                /* \"#utility.yul\":9473:9604   */\n              tag_138\n              jump\t// in\n            tag_266:\n                /* \"#utility.yul\":9465:9604   */\n              swap1\n              pop\n                /* \"#utility.yul\":9192:9611   */\n              swap2\n              swap1\n              pop\n              jump\t// out\n                /* \"#utility.yul\":9617:9797   */\n            tag_139:\n                /* \"#utility.yul\":9665:9742   */\n              0x4e487b7100000000000000000000000000000000000000000000000000000000\n                /* \"#utility.yul\":9662:9663   */\n              0x00\n                /* \"#utility.yul\":9655:9743   */\n              mstore\n                /* \"#utility.yul\":9762:9766   */\n              0x11\n                /* \"#utility.yul\":9759:9760   */\n              0x04\n                /* \"#utility.yul\":9752:9767   */\n              mstore\n                /* \"#utility.yul\":9786:9790   */\n              0x24\n                /* \"#utility.yul\":9783:9784   */\n              0x00\n                /* \"#utility.yul\":9776:9791   */\n              revert\n                /* \"#utility.yul\":9803:9997   */\n            tag_31:\n                /* \"#utility.yul\":9843:9847   */\n              0x00\n                /* \"#utility.yul\":9863:9883   */\n              tag_269\n                /* \"#utility.yul\":9881:9882   */\n              dup3\n                /* \"#utility.yul\":9863:9883   */\n              tag_128\n              jump\t// in\n            tag_269:\n                /* \"#utility.yul\":9858:9883   */\n              swap2\n              pop\n                /* \"#utility.yul\":9897:9917   */\n              tag_270\n                /* \"#utility.yul\":9915:9916   */\n              dup4\n                /* \"#utility.yul\":9897:9917   */\n              tag_128\n              jump\t// in\n            tag_270:\n                /* \"#utility.yul\":9892:9917   */\n              swap3\n              pop\n                /* \"#utility.yul\":9941:9942   */\n              dup3\n                /* \"#utility.yul\":9938:9939   */\n              dup3\n                /* \"#utility.yul\":9934:9943   */\n              sub\n                /* \"#utility.yul\":9926:9943   */\n              swap1\n              pop\n                /* \"#utility.yul\":9965:9966   */\n              dup2\n                /* \"#utility.yul\":9959:9963   */\n              dup2\n                /* \"#utility.yul\":9956:9967   */\n              gt\n                /* \"#utility.yul\":9953:9990   */\n              iszero\n              tag_271\n              jumpi\n                /* \"#utility.yul\":9970:9988   */\n              tag_272\n              tag_139\n              jump\t// in\n            tag_272:\n                /* \"#utility.yul\":9953:9990   */\n            tag_271:\n                /* \"#utility.yul\":9803:9997   */\n              swap3\n              swap2\n              pop\n              pop\n              jump\t// out\n                /* \"#utility.yul\":10003:10183   */\n            tag_34:\n                /* \"#utility.yul\":10051:10128   */\n              0x4e487b7100000000000000000000000000000000000000000000000000000000\n                /* \"#utility.yul\":10048:10049   */\n              0x00\n                /* \"#utility.yul\":10041:10129   */\n              mstore\n                /* \"#utility.yul\":10148:10152   */\n              0x32\n                /* \"#utility.yul\":10145:10146   */\n              0x04\n                /* \"#utility.yul\":10138:10153   */\n              mstore\n                /* \"#utility.yul\":10172:10176   */\n              0x24\n                /* \"#utility.yul\":10169:10170   */\n              0x00\n                /* \"#utility.yul\":10162:10177   */\n              revert\n                /* \"#utility.yul\":10189:10369   */\n            tag_140:\n                /* \"#utility.yul\":10237:10314   */\n              0x4e487b7100000000000000000000000000000000000000000000000000000000\n                /* \"#utility.yul\":10234:10235   */\n              0x00\n                /* \"#utility.yul\":10227:10315   */\n              mstore\n                /* \"#utility.yul\":10334:10338   */\n              0x22\n                /* \"#utility.yul\":10331:10332   */\n              0x04\n                /* \"#utility.yul\":10324:10339   */\n              mstore\n                /* \"#utility.yul\":10358:10362   */\n              0x24\n                /* \"#utility.yul\":10355:10356   */\n              0x00\n                /* \"#utility.yul\":10348:10363   */\n              revert\n                /* \"#utility.yul\":10375:10695   */\n            tag_49:\n                /* \"#utility.yul\":10419:10425   */\n              0x00\n                /* \"#utility.yul\":10456:10457   */\n              0x02\n                /* \"#utility.yul\":10450:10454   */\n              dup3\n                /* \"#utility.yul\":10446:10458   */\n              div\n                /* \"#utility.yul\":10436:10458   */\n              swap1\n              pop\n                /* \"#utility.yul\":10503:10504   */\n              0x01\n                /* \"#utility.yul\":10497:10501   */\n              dup3\n                /* \"#utility.yul\":10493:10505   */\n              and\n                /* \"#utility.yul\":10524:10542   */\n              dup1\n                /* \"#utility.yul\":10514:10595   */\n              tag_276\n              jumpi\n                /* \"#utility.yul\":10580:10584   */\n              0x7f\n                /* \"#utility.yul\":10572:10578   */\n              dup3\n                /* \"#utility.yul\":10568:10585   */\n              and\n                /* \"#utility.yul\":10558:10585   */\n              swap2\n              pop\n                /* \"#utility.yul\":10514:10595   */\n            tag_276:\n                /* \"#utility.yul\":10642:10644   */\n              0x20\n                /* \"#utility.yul\":10634:10640   */\n              dup3\n                /* \"#utility.yul\":10631:10645   */\n              lt\n                /* \"#utility.yul\":10611:10629   */\n              dup2\n                /* \"#utility.yul\":10608:10646   */\n              sub\n                /* \"#utility.yul\":10605:10689   */\n              tag_277\n              jumpi\n                /* \"#utility.yul\":10661:10679   */\n              tag_278\n              tag_140\n              jump\t// in\n            tag_278:\n                /* \"#utility.yul\":10605:10689   */\n            tag_277:\n                /* \"#utility.yul\":10426:10695   */\n              pop\n                /* \"#utility.yul\":10375:10695   */\n              swap2\n              swap1\n              pop\n              jump\t// out\n                /* \"#utility.yul\":10701:10842   */\n            tag_141:\n                /* \"#utility.yul\":10750:10754   */\n              0x00\n                /* \"#utility.yul\":10773:10776   */\n              dup2\n                /* \"#utility.yul\":10765:10776   */\n              swap1\n              pop\n                /* \"#utility.yul\":10796:10799   */\n              dup2\n                /* \"#utility.yul\":10793:10794   */\n              0x00\n                /* \"#utility.yul\":10786:10800   */\n              mstore\n                /* \"#utility.yul\":10830:10834   */\n              0x20\n                /* \"#utility.yul\":10827:10828   */\n              0x00\n                /* \"#utility.yul\":10817:10835   */\n              keccak256\n                /* \"#utility.yul\":10809:10835   */\n              swap1\n              pop\n                /* \"#utility.yul\":10701:10842   */\n              swap2\n              swap1\n              pop\n              jump\t// out\n                /* \"#utility.yul\":10848:10941   */\n            tag_142:\n                /* \"#utility.yul\":10885:10891   */\n              0x00\n                /* \"#utility.yul\":10932:10934   */\n              0x20\n                /* \"#utility.yul\":10927:10929   */\n              0x1f\n                /* \"#utility.yul\":10920:10925   */\n              dup4\n                /* \"#utility.yul\":10916:10930   */\n              add\n                /* \"#utility.yul\":10912:10935   */\n              div\n                /* \"#utility.yul\":10902:10935   */\n              swap1\n              pop\n                /* \"#utility.yul\":10848:10941   */\n              swap2\n              swap1\n              pop\n              jump\t// out\n                /* \"#utility.yul\":10947:11054   */\n            tag_143:\n                /* \"#utility.yul\":10991:10999   */\n              0x00\n                /* \"#utility.yul\":11041:11046   */\n              dup3\n                /* \"#utility.yul\":11035:11039   */\n              dup3\n                /* \"#utility.yul\":11031:11047   */\n              shl\n                /* \"#utility.yul\":11010:11047   */\n              swap1\n              pop\n                /* \"#utility.yul\":10947:11054   */\n              swap3\n              swap2\n              pop\n              pop\n              jump\t// out\n                /* \"#utility.yul\":11060:11453   */\n            tag_144:\n                /* \"#utility.yul\":11129:11135   */\n              0x00\n                /* \"#utility.yul\":11179:11180   */\n              0x08\n                /* \"#utility.yul\":11167:11177   */\n              dup4\n                /* \"#utility.yul\":11163:11181   */\n              mul\n                /* \"#utility.yul\":11202:11299   */\n              tag_283\n                /* \"#utility.yul\":11232:11298   */\n              0xffffffffffffffffffffffffffffffffffffffffffffffffffffffffffffffff\n                /* \"#utility.yul\":11221:11230   */\n              dup3\n                /* \"#utility.yul\":11202:11299   */\n              tag_143\n              jump\t// in\n            tag_283:\n                /* \"#utility.yul\":11320:11359   */\n              tag_284\n                /* \"#utility.yul\":11350:11358   */\n              dup7\n                /* \"#utility.yul\":11339:11348   */\n              dup4\n                /* \"#utility.yul\":11320:11359   */\n              tag_143\n              jump\t// in\n            tag_284:\n                /* \"#utility.yul\":11308:11359   */\n              swap6\n              pop\n                /* \"#utility.yul\":11392:11396   */\n              dup1\n                /* \"#utility.yul\":11388:11397   */\n              not\n                /* \"#utility.yul\":11381:11386   */\n              dup5\n                /* \"#utility.yul\":11377:11398   */\n              and\n                /* \"#utility.yul\":11368:11398   */\n              swap4\n              pop\n                /* \"#utility.yul\":11441:11445   */\n              dup1\n                /* \"#utility.yul\":11431:11439   */\n              dup7\n                /* \"#utility.yul\":11427:11446   */\n              and\n                /* \"#utility.yul\":11420:11425   */\n              dup5\n                /* \"#utility.yul\":11417:11447   */\n              or\n                /* \"#utility.yul\":11407:11447   */\n              swap3\n              pop\n                /* \"#utility.yul\":11136:11453   */\n              pop\n              pop\n                /* \"#utility.yul\":11060:11453   */\n              swap4\n              swap3\n              pop\n              pop\n              pop\n              jump\t// out\n                /* \"#utility.yul\":11459:11519   */\n            tag_145:\n                /* \"#utility.yul\":11487:11490   */\n              0x00\n                /* \"#utility.yul\":11508:11513   */\n              dup2\n                /* \"#utility.yul\":11501:11513   */\n              swap1\n              pop\n                /* \"#utility.yul\":11459:11519   */\n              swap2\n              swap1\n              pop\n              jump\t// out\n                /* \"#utility.yul\":11525:11667   */\n            tag_146:\n                /* \"#utility.yul\":11575:11584   */\n              0x00\n                /* \"#utility.yul\":11608:11661   */\n              tag_287\n                /* \"#utility.yul\":11626:11660   */\n              tag_288\n                /* \"#utility.yul\":11635:11659   */\n              tag_289\n                /* \"#utility.yul\":11653:11658   */\n              dup5\n                /* \"#utility.yul\":11635:11659   */\n              tag_128\n              jump\t// in\n            tag_289:\n                /* \"#utility.yul\":11626:11660   */\n              tag_145\n              jump\t// in\n            tag_288:\n                /* \"#utility.yul\":11608:11661   */\n              tag_128\n              jump\t// in\n            tag_287:\n                /* \"#utility.yul\":11595:11661   */\n              swap1\n              pop\n                /* \"#utility.yul\":11525:11667   */\n              swap2\n              swap1\n              pop\n              jump\t// out\n                /* \"#utility.yul\":11673:11748   */\n            tag_147:\n                /* \"#utility.yul\":11716:11719   */\n              0x00\n                /* \"#utility.yul\":11737:11742   */\n              dup2\n                /* \"#utility.yul\":11730:11742   */\n              swap1\n              pop\n                /* \"#utility.yul\":11673:11748   */\n              swap2\n              swap1\n              pop\n              jump\t// out\n                /* \"#utility.yul\":11754:12023   */\n            tag_148:\n                /* \"#utility.yul\":11864:11903   */\n              tag_292\n                /* \"#utility.yul\":11895:11902   */\n              dup4\n                /* \"#utility.yul\":11864:11903   */\n              tag_146\n              jump\t// in\n            tag_292:\n                /* \"#utility.yul\":11925:12016   */\n              tag_293\n                /* \"#utility.yul\":11974:12015   */\n              tag_294\n                /* \"#utility.yul\":11998:12014   */\n              dup3\n                /* \"#utility.yul\":11974:12015   */\n              tag_147\n              jump\t// in\n            tag_294:\n                /* \"#utility.yul\":11966:11972   */\n              dup5\n                /* \"#utility.yul\":11959:11963   */\n              dup5\n                /* \"#utility.yul\":11953:11964   */\n              sload\n                /* \"#utility.yul\":11925:12016   */\n              tag_144\n              jump\t// in\n            tag_293:\n                /* \"#utility.yul\":11919:11923   */\n              dup3\n                /* \"#utility.yul\":11912:12017   */\n              sstore\n                /* \"#utility.yul\":11830:12023   */\n              pop\n                /* \"#utility.yul\":11754:12023   */\n              pop\n              pop\n              pop\n              jump\t// out\n                /* \"#utility.yul\":12029:12102   */\n            tag_149:\n                /* \"#utility.yul\":12074:12077   */\n              0x00\n                /* \"#utility.yul\":12029:12102   */\n              swap1\n              jump\t// out\n                /* \"#utility.yul\":12108:12297   */\n            tag_150:\n                /* \"#utility.yul\":12185:12217   */\n              tag_297\n              tag_149\n              jump\t// in\n            tag_297:\n                /* \"#utility.yul\":12226:12291   */\n              tag_298\n                /* \"#utility.yul\":12284:12290   */\n              dup2\n                /* \"#utility.yul\":12276:12282   */\n              dup5\n                /* \"#utility.yul\":12270:12274   */\n              dup5\n                /* \"#utility.yul\":12226:12291   */\n              tag_148\n              jump\t// in\n            tag_298:\n                /* \"#utility.yul\":12161:12297   */\n              pop\n                /* \"#utility.yul\":12108:12297   */\n              pop\n              pop\n              jump\t// out\n                /* \"#utility.yul\":12303:12489   */\n            tag_151:\n                /* \"#utility.yul\":12363:12483   */\n            tag_300:\n                /* \"#utility.yul\":12380:12383   */\n              dup2\n                /* \"#utility.yul\":12373:12378   */\n              dup2\n                /* \"#utility.yul\":12370:12384   */\n              lt\n                /* \"#utility.yul\":12363:12483   */\n              iszero\n              tag_302\n              jumpi\n                /* \"#utility.yul\":12434:12473   */\n              tag_303\n                /* \"#utility.yul\":12471:12472   */\n              0x00\n                /* \"#utility.yul\":12464:12469   */\n              dup3\n                /* \"#utility.yul\":12434:12473   */\n              tag_150\n              jump\t// in\n            tag_303:\n                /* \"#utility.yul\":12407:12408   */\n              0x01\n                /* \"#utility.yul\":12400:12405   */\n              dup2\n                /* \"#utility.yul\":12396:12409   */\n              add\n                /* \"#utility.yul\":12387:12409   */\n              swap1\n              pop\n                /* \"#utility.yul\":12363:12483   */\n              jump(tag_300)\n            tag_302:\n                /* \"#utility.yul\":12303:12489   */\n              pop\n              pop\n              jump\t// out\n                /* \"#utility.yul\":12495:13038   */\n            tag_152:\n                /* \"#utility.yul\":12596:12598   */\n              0x1f\n                /* \"#utility.yul\":12591:12594   */\n              dup3\n                /* \"#utility.yul\":12588:12599   */\n              gt\n                /* \"#utility.yul\":12585:13031   */\n              iszero\n              tag_305\n              jumpi\n                /* \"#utility.yul\":12630:12668   */\n              tag_306\n                /* \"#utility.yul\":12662:12667   */\n              dup2\n                /* \"#utility.yul\":12630:12668   */\n              tag_141\n              jump\t// in\n            tag_306:\n                /* \"#utility.yul\":12714:12743   */\n              tag_307\n                /* \"#utility.yul\":12732:12742   */\n              dup5\n                /* \"#utility.yul\":12714:12743   */\n              tag_142\n              jump\t// in\n            tag_307:\n                /* \"#utility.yul\":12704:12712   */\n              dup2\n                /* \"#utility.yul\":12700:12744   */\n              add\n                /* \"#utility.yul\":12897:12899   */\n              0x20\n                /* \"#utility.yul\":12885:12895   */\n              dup6\n                /* \"#utility.yul\":12882:12900   */\n              lt\n                /* \"#utility.yul\":12879:12928   */\n              iszero\n              tag_308\n              jumpi\n                /* \"#utility.yul\":12918:12926   */\n              dup2\n                /* \"#utility.yul\":12903:12926   */\n              swap1\n              pop\n                /* \"#utility.yul\":12879:12928   */\n            tag_308:\n                /* \"#utility.yul\":12941:13021   */\n              tag_309\n                /* \"#utility.yul\":12997:13019   */\n              tag_310\n                /* \"#utility.yul\":13015:13018   */\n              dup6\n                /* \"#utility.yul\":12997:13019   */\n              tag_142\n              jump\t// in\n            tag_310:\n                /* \"#utility.yul\":12987:12995   */\n              dup4\n                /* \"#utility.yul\":12983:13020   */\n              add\n                /* \"#utility.yul\":12970:12981   */\n              dup3\n                /* \"#utility.yul\":12941:13021   */\n              tag_151\n              jump\t// in\n            tag_309:\n                /* \"#utility.yul\":12600:13031   */\n              pop\n              pop\n                /* \"#utility.yul\":12585:13031   */\n            tag_305:\n                /* \"#utility.yul\":12495:13038   */\n              pop\n              pop\n              pop\n              jump\t// out\n                /* \"#utility.yul\":13044:13161   */\n            tag_153:\n                /* \"#utility.yul\":13098:13106   */\n              0x00\n                /* \"#utility.yul\":13148:13153   */\n              dup3\n                /* \"#utility.yul\":13142:13146   */\n              dup3\n                /* \"#utility.yul\":13138:13154   */\n              shr\n                /* \"#utility.yul\":13117:13154   */\n              swap1\n              pop\n                /* \"#utility.yul\":13044:13161   */\n              swap3\n              swap2\n              pop\n              pop\n              jump\t// out\n                /* \"#utility.yul\":13167:13336   */\n            tag_154:\n                /* \"#utility.yul\":13211:13217   */\n              0x00\n                /* \"#utility.yul\":13244:13295   */\n              tag_313\n                /* \"#utility.yul\":13292:13293   */\n              0x00\n                /* \"#utility.yul\":13288:13294   */\n              not\n                /* \"#utility.yul\":13280:13285   */\n              dup5\n                /* \"#utility.yul\":13277:13278   */\n              0x08\n                /* \"#utility.yul\":13273:13286   */\n              mul\n                /* \"#utility.yul\":13244:13295   */\n              tag_153\n              jump\t// in\n            tag_313:\n                /* \"#utility.yul\":13240:13296   */\n              not\n                /* \"#utility.yul\":13325:13329   */\n              dup1\n                /* \"#utility.yul\":13319:13323   */\n              dup4\n                /* \"#utility.yul\":13315:13330   */\n              and\n                /* \"#utility.yul\":13305:13330   */\n              swap2\n              pop\n                /* \"#utility.yul\":13218:13336   */\n              pop\n                /* \"#utility.yul\":13167:13336   */\n              swap3\n              swap2\n              pop\n              pop\n              jump\t// out\n                /* \"#utility.yul\":13341:13636   */\n            tag_155:\n                /* \"#utility.yul\":13417:13421   */\n              0x00\n                /* \"#utility.yul\":13563:13592   */\n              tag_315\n                /* \"#utility.yul\":13588:13591   */\n              dup4\n                /* \"#utility.yul\":13582:13586   */\n              dup4\n                /* \"#utility.yul\":13563:13592   */\n              tag_154\n              jump\t// in\n            tag_315:\n                /* \"#utility.yul\":13555:13592   */\n              swap2\n              pop\n                /* \"#utility.yul\":13625:13628   */\n              dup3\n                /* \"#utility.yul\":13622:13623   */\n              0x02\n                /* \"#utility.yul\":13618:13629   */\n              mul\n                /* \"#utility.yul\":13612:13616   */\n              dup3\n                /* \"#utility.yul\":13609:13630   */\n              or\n                /* \"#utility.yul\":13601:13630   */\n              swap1\n              pop\n                /* \"#utility.yul\":13341:13636   */\n              swap3\n              swap2\n              pop\n              pop\n              jump\t// out\n                /* \"#utility.yul\":13641:15036   */\n            tag_41:\n                /* \"#utility.yul\":13758:13795   */\n              tag_317\n                /* \"#utility.yul\":13791:13794   */\n              dup3\n                /* \"#utility.yul\":13758:13795   */\n              tag_131\n              jump\t// in\n            tag_317:\n                /* \"#utility.yul\":13860:13878   */\n              0xffffffffffffffff\n                /* \"#utility.yul\":13852:13858   */\n              dup2\n                /* \"#utility.yul\":13849:13879   */\n              gt\n                /* \"#utility.yul\":13846:13902   */\n              iszero\n              tag_318\n              jumpi\n                /* \"#utility.yul\":13882:13900   */\n              tag_319\n              tag_38\n              jump\t// in\n            tag_319:\n                /* \"#utility.yul\":13846:13902   */\n            tag_318:\n                /* \"#utility.yul\":13926:13964   */\n              tag_320\n                /* \"#utility.yul\":13958:13962   */\n              dup3\n                /* \"#utility.yul\":13952:13963   */\n              sload\n                /* \"#utility.yul\":13926:13964   */\n              tag_49\n              jump\t// in\n            tag_320:\n                /* \"#utility.yul\":14011:14078   */\n              tag_321\n                /* \"#utility.yul\":14071:14077   */\n              dup3\n                /* \"#utility.yul\":14063:14069   */\n              dup3\n                /* \"#utility.yul\":14057:14061   */\n              dup6\n                /* \"#utility.yul\":14011:14078   */\n              tag_152\n              jump\t// in\n            tag_321:\n                /* \"#utility.yul\":14105:14106   */\n              0x00\n                /* \"#utility.yul\":14129:14133   */\n              0x20\n                /* \"#utility.yul\":14116:14133   */\n              swap1\n              pop\n                /* \"#utility.yul\":14161:14163   */\n              0x1f\n                /* \"#utility.yul\":14153:14159   */\n              dup4\n                /* \"#utility.yul\":14150:14164   */\n              gt\n                /* \"#utility.yul\":14178:14179   */\n              0x01\n                /* \"#utility.yul\":14173:14791   */\n              dup2\n              eq\n              tag_323\n              jumpi\n                /* \"#utility.yul\":14835:14836   */\n              0x00\n                /* \"#utility.yul\":14852:14858   */\n              dup5\n                /* \"#utility.yul\":14849:14926   */\n              iszero\n              tag_324\n              jumpi\n                /* \"#utility.yul\":14901:14910   */\n              dup3\n                /* \"#utility.yul\":14896:14899   */\n              dup8\n                /* \"#utility.yul\":14892:14911   */\n              add\n                /* \"#utility.yul\":14886:14912   */\n              mload\n                /* \"#utility.yul\":14877:14912   */\n              swap1\n              pop\n                /* \"#utility.yul\":14849:14926   */\n            tag_324:\n                /* \"#utility.yul\":14952:15019   */\n              tag_325\n                /* \"#utility.yul\":15012:15018   */\n              dup6\n                /* \"#utility.yul\":15005:15010   */\n              dup3\n                /* \"#utility.yul\":14952:15019   */\n              tag_155\n              jump\t// in\n            tag_325:\n                /* \"#utility.yul\":14946:14950   */\n              dup7\n                /* \"#utility.yul\":14939:15020   */\n              sstore\n                /* \"#utility.yul\":14808:15030   */\n              pop\n                /* \"#utility.yul\":14143:15030   */\n              jump(tag_322)\n                /* \"#utility.yul\":14173:14791   */\n            tag_323:\n                /* \"#utility.yul\":14225:14229   */\n              0x1f\n                /* \"#utility.yul\":14221:14230   */\n              not\n                /* \"#utility.yul\":14213:14219   */\n              dup5\n                /* \"#utility.yul\":14209:14231   */\n              and\n                /* \"#utility.yul\":14259:14296   */\n              tag_326\n                /* \"#utility.yul\":14291:14295   */\n              dup7\n                /* \"#utility.yul\":14259:14296   */\n              tag_141\n              jump\t// in\n            tag_326:\n                /* \"#utility.yul\":14318:14319   */\n              0x00\n                /* \"#utility.yul\":14332:14540   */\n            tag_327:\n                /* \"#utility.yul\":14346:14353   */\n              dup3\n                /* \"#utility.yul\":14343:14344   */\n              dup2\n                /* \"#utility.yul\":14340:14354   */\n              lt\n                /* \"#utility.yul\":14332:14540   */\n              iszero\n              tag_329\n              jumpi\n                /* \"#utility.yul\":14425:14434   */\n              dup5\n                /* \"#utility.yul\":14420:14423   */\n              dup10\n                /* \"#utility.yul\":14416:14435   */\n              add\n                /* \"#utility.yul\":14410:14436   */\n              mload\n                /* \"#utility.yul\":14402:14408   */\n              dup3\n                /* \"#utility.yul\":14395:14437   */\n              sstore\n                /* \"#utility.yul\":14476:14477   */\n              0x01\n                /* \"#utility.yul\":14468:14474   */\n              dup3\n                /* \"#utility.yul\":14464:14478   */\n              add\n                /* \"#utility.yul\":14454:14478   */\n              swap2\n              pop\n                /* \"#utility.yul\":14523:14525   */\n              0x20\n                /* \"#utility.yul\":14512:14521   */\n              dup6\n                /* \"#utility.yul\":14508:14526   */\n              add\n                /* \"#utility.yul\":14495:14526   */\n              swap5\n              pop\n                /* \"#utility.yul\":14369:14373   */\n              0x20\n                /* \"#utility.yul\":14366:14367   */\n              dup2\n                /* \"#utility.yul\":14362:14374   */\n              add\n                /* \"#utility.yul\":14357:14374   */\n              swap1\n              pop\n                /* \"#utility.yul\":14332:14540   */\n              jump(tag_327)\n            tag_329:\n                /* \"#utility.yul\":14568:14574   */\n              dup7\n                /* \"#utility.yul\":14559:14566   */\n              dup4\n                /* \"#utility.yul\":14556:14575   */\n              lt\n                /* \"#utility.yul\":14553:14732   */\n              iszero\n              tag_330\n              jumpi\n                /* \"#utility.yul\":14626:14635   */\n              dup5\n                /* \"#utility.yul\":14621:14624   */\n              dup10\n                /* \"#utility.yul\":14617:14636   */\n              add\n                /* \"#utility.yul\":14611:14637   */\n              mload\n                /* \"#utility.yul\":14669:14717   */\n              tag_331\n                /* \"#utility.yul\":14711:14715   */\n              0x1f\n                /* \"#utility.yul\":14703:14709   */\n              dup10\n                /* \"#utility.yul\":14699:14716   */\n              and\n                /* \"#utility.yul\":14688:14697   */\n              dup3\n                /* \"#utility.yul\":14669:14717   */\n              tag_154\n              jump\t// in\n            tag_331:\n                /* \"#utility.yul\":14661:14667   */\n              dup4\n                /* \"#utility.yul\":14654:14718   */\n              sstore\n                /* \"#utility.yul\":14576:14732   */\n              pop\n                /* \"#utility.yul\":14553:14732   */\n            tag_330:\n                /* \"#utility.yul\":14778:14779   */\n              0x01\n                /* \"#utility.yul\":14774:14775   */\n              0x02\n                /* \"#utility.yul\":14766:14772   */\n              dup9\n                /* \"#utility.yul\":14762:14776   */\n              mul\n                /* \"#utility.yul\":14758:14780   */\n              add\n                /* \"#utility.yul\":14752:14756   */\n              dup9\n                /* \"#utility.yul\":14745:14781   */\n              sstore\n                /* \"#utility.yul\":14180:14791   */\n              pop\n              pop\n              pop\n                /* \"#utility.yul\":14143:15030   */\n            tag_322:\n              pop\n                /* \"#utility.yul\":13733:15036   */\n              pop\n              pop\n              pop\n                /* \"#utility.yul\":13641:15036   */\n              pop\n              pop\n              jump\t// out\n                /* \"#utility.yul\":15042:15213   */\n            tag_156:\n                /* \"#utility.yul\":15182:15205   */\n              0x53757276657920646f6573206e6f742065786973740000000000000000000000\n                /* \"#utility.yul\":15178:15179   */\n              0x00\n                /* \"#utility.yul\":15170:15176   */\n              dup3\n                /* \"#utility.yul\":15166:15180   */\n              add\n                /* \"#utility.yul\":15159:15206   */\n              mstore\n                /* \"#utility.yul\":15042:15213   */\n              pop\n              jump\t// out\n                /* \"#utility.yul\":15219:15585   */\n            tag_157:\n                /* \"#utility.yul\":15361:15364   */\n              0x00\n                /* \"#utility.yul\":15382:15449   */\n              tag_334\n                /* \"#utility.yul\":15446:15448   */\n              0x15\n                /* \"#utility.yul\":15441:15444   */\n              dup4\n                /* \"#utility.yul\":15382:15449   */\n              tag_132\n              jump\t// in\n            tag_334:\n                /* \"#utility.yul\":15375:15449   */\n              swap2\n              pop\n                /* \"#utility.yul\":15458:15551   */\n              tag_335\n                /* \"#utility.yul\":15547:15550   */\n              dup3\n                /* \"#utility.yul\":15458:15551   */\n              tag_156\n              jump\t// in\n            tag_335:\n                /* \"#utility.yul\":15576:15578   */\n              0x20\n                /* \"#utility.yul\":15571:15574   */\n              dup3\n                /* \"#utility.yul\":15567:15579   */\n              add\n                /* \"#utility.yul\":15560:15579   */\n              swap1\n              pop\n                /* \"#utility.yul\":15219:15585   */\n              swap2\n              swap1\n              pop\n              jump\t// out\n                /* \"#utility.yul\":15591:16010   */\n            tag_58:\n                /* \"#utility.yul\":15757:15761   */\n              0x00\n                /* \"#utility.yul\":15795:15797   */\n              0x20\n                /* \"#utility.yul\":15784:15793   */\n              dup3\n                /* \"#utility.yul\":15780:15798   */\n              add\n                /* \"#utility.yul\":15772:15798   */\n              swap1\n              pop\n                /* \"#utility.yul\":15844:15853   */\n              dup2\n                /* \"#utility.yul\":15838:15842   */\n              dup2\n                /* \"#utility.yul\":15834:15854   */\n              sub\n                /* \"#utility.yul\":15830:15831   */\n              0x00\n                /* \"#utility.yul\":15819:15828   */\n              dup4\n                /* \"#utility.yul\":15815:15832   */\n              add\n                /* \"#utility.yul\":15808:15855   */\n              mstore\n                /* \"#utility.yul\":15872:16003   */\n              tag_337\n                /* \"#utility.yul\":15998:16002   */\n              dup2\n                /* \"#utility.yul\":15872:16003   */\n              tag_157\n              jump\t// in\n            tag_337:\n                /* \"#utility.yul\":15864:16003   */\n              swap1\n              pop\n                /* \"#utility.yul\":15591:16010   */\n              swap2\n              swap1\n              pop\n              jump\t// out\n                /* \"#utility.yul\":16016:16186   */\n            tag_158:\n                /* \"#utility.yul\":16156:16178   */\n              0x537572766579206973206e6f7420616374697665000000000000000000000000\n                /* \"#utility.yul\":16152:16153   */\n              0x00\n                /* \"#utility.yul\":16144:16150   */\n              dup3\n                /* \"#utility.yul\":16140:16154   */\n              add\n                /* \"#utility.yul\":16133:16179   */\n              mstore\n                /* \"#utility.yul\":16016:16186   */\n              pop\n              jump\t// out\n                /* \"#utility.yul\":16192:16558   */\n            tag_159:\n                /* \"#utility.yul\":16334:16337   */\n              0x00\n                /* \"#utility.yul\":16355:16422   */\n              tag_340\n                /* \"#utility.yul\":16419:16421   */\n              0x14\n                /* \"#utility.yul\":16414:16417   */\n              dup4\n                /* \"#utility.yul\":16355:16422   */\n              tag_132\n              jump\t// in\n            tag_340:\n                /* \"#utility.yul\":16348:16422   */\n              swap2\n              pop\n                /* \"#utility.yul\":16431:16524   */\n              tag_341\n                /* \"#utility.yul\":16520:16523   */\n              dup3\n                /* \"#utility.yul\":16431:16524   */\n              tag_158\n              jump\t// in\n            tag_341:\n                /* \"#utility.yul\":16549:16551   */\n              0x20\n                /* \"#utility.yul\":16544:16547   */\n              dup3\n                /* \"#utility.yul\":16540:16552   */\n              add\n                /* \"#utility.yul\":16533:16552   */\n              swap1\n              pop\n                /* \"#utility.yul\":16192:16558   */\n              swap2\n              swap1\n              pop\n              jump\t// out\n                /* \"#utility.yul\":16564:16983   */\n            tag_64:\n                /* \"#utility.yul\":16730:16734   */\n              0x00\n                /* \"#utility.yul\":16768:16770   */\n              0x20\n                /* \"#utility.yul\":16757:16766   */\n              dup3\n                /* \"#utility.yul\":16753:16771   */\n              add\n                /* \"#utility.yul\":16745:16771   */\n              swap1\n              pop\n                /* \"#utility.yul\":16817:16826   */\n              dup2\n                /* \"#utility.yul\":16811:16815   */\n              dup2\n                /* \"#utility.yul\":16807:16827   */\n              sub\n                /* \"#utility.yul\":16803:16804   */\n              0x00\n                /* \"#utility.yul\":16792:16801   */\n              dup4\n                /* \"#utility.yul\":16788:16805   */\n              add\n                /* \"#utility.yul\":16781:16828   */\n              mstore\n                /* \"#utility.yul\":16845:16976   */\n              tag_343\n                /* \"#utility.yul\":16971:16975   */\n              dup2\n                /* \"#utility.yul\":16845:16976   */\n              tag_159\n              jump\t// in\n            tag_343:\n                /* \"#utility.yul\":16837:16976   */\n              swap1\n              pop\n                /* \"#utility.yul\":16564:16983   */\n              swap2\n              swap1\n              pop\n              jump\t// out\n                /* \"#utility.yul\":16989:17159   */\n            tag_160:\n                /* \"#utility.yul\":17129:17151   */\n              0x496e76616c6964206f7074696f6e20696e646578000000000000000000000000\n                /* \"#utility.yul\":17125:17126   */\n              0x00\n                /* \"#utility.yul\":17117:17123   */\n              dup3\n                /* \"#utility.yul\":17113:17127   */\n              add\n                /* \"#utility.yul\":17106:17152   */\n              mstore\n                /* \"#utility.yul\":16989:17159   */\n              pop\n              jump\t// out\n                /* \"#utility.yul\":17165:17531   */\n            tag_161:\n                /* \"#utility.yul\":17307:17310   */\n              0x00\n                /* \"#utility.yul\":17328:17395   */\n              tag_346\n                /* \"#utility.yul\":17392:17394   */\n              0x14\n                /* \"#utility.yul\":17387:17390   */\n              dup4\n                /* \"#utility.yul\":17328:17395   */\n              tag_132\n              jump\t// in\n            tag_346:\n                /* \"#utility.yul\":17321:17395   */\n              swap2\n              pop\n                /* \"#utility.yul\":17404:17497   */\n              tag_347\n                /* \"#utility.yul\":17493:17496   */\n              dup3\n                /* \"#utility.yul\":17404:17497   */\n              tag_160\n              jump\t// in\n            tag_347:\n                /* \"#utility.yul\":17522:17524   */\n              0x20\n                /* \"#utility.yul\":17517:17520   */\n              dup3\n                /* \"#utility.yul\":17513:17525   */\n              add\n                /* \"#utility.yul\":17506:17525   */\n              swap1\n              pop\n                /* \"#utility.yul\":17165:17531   */\n              swap2\n              swap1\n              pop\n              jump\t// out\n                /* \"#utility.yul\":17537:17956   */\n            tag_70:\n                /* \"#utility.yul\":17703:17707   */\n              0x00\n                /* \"#utility.yul\":17741:17743   */\n              0x20\n                /* \"#utility.yul\":17730:17739   */\n              dup3\n                /* \"#utility.yul\":17726:17744   */\n              add\n                /* \"#utility.yul\":17718:17744   */\n              swap1\n              pop\n                /* \"#utility.yul\":17790:17799   */\n              dup2\n                /* \"#utility.yul\":17784:17788   */\n              dup2\n                /* \"#utility.yul\":17780:17800   */\n              sub\n                /* \"#utility.yul\":17776:17777   */\n              0x00\n                /* \"#utility.yul\":17765:17774   */\n              dup4\n                /* \"#utility.yul\":17761:17778   */\n              add\n                /* \"#utility.yul\":17754:17801   */\n              mstore\n                /* \"#utility.yul\":17818:17949   */\n              tag_349\n                /* \"#utility.yul\":17944:17948   */\n              dup2\n                /* \"#utility.yul\":17818:17949   */\n              tag_161\n              jump\t// in\n            tag_349:\n                /* \"#utility.yul\":17810:17949   */\n              swap1\n              pop\n                /* \"#utility.yul\":17537:17956   */\n              swap2\n              swap1\n              pop\n              jump\t// out\n                /* \"#utility.yul\":17962:18134   */\n            tag_162:\n                /* \"#utility.yul\":18102:18126   */\n              0x557365722068617320616c726561647920766f74656400000000000000000000\n                /* \"#utility.yul\":18098:18099   */\n              0x00\n                /* \"#utility.yul\":18090:18096   */\n              dup3\n                /* \"#utility.yul\":18086:18100   */\n              add\n                /* \"#utility.yul\":18079:18127   */\n              mstore\n                /* \"#utility.yul\":17962:18134   */\n              pop\n              jump\t// out\n                /* \"#utility.yul\":18140:18506   */\n            tag_163:\n                /* \"#utility.yul\":18282:18285   */\n              0x00\n                /* \"#utility.yul\":18303:18370   */\n              tag_352\n                /* \"#utility.yul\":18367:18369   */\n              0x16\n                /* \"#utility.yul\":18362:18365   */\n              dup4\n                /* \"#utility.yul\":18303:18370   */\n              tag_132\n              jump\t// in\n            tag_352:\n                /* \"#utility.yul\":18296:18370   */\n              swap2\n              pop\n                /* \"#utility.yul\":18379:18472   */\n              tag_353\n                /* \"#utility.yul\":18468:18471   */\n              dup3\n                /* \"#utility.yul\":18379:18472   */\n              tag_162\n              jump\t// in\n            tag_353:\n                /* \"#utility.yul\":18497:18499   */\n              0x20\n                /* \"#utility.yul\":18492:18495   */\n              dup3\n                /* \"#utility.yul\":18488:18500   */\n              add\n                /* \"#utility.yul\":18481:18500   */\n              swap1\n              pop\n                /* \"#utility.yul\":18140:18506   */\n              swap2\n              swap1\n              pop\n              jump\t// out\n                /* \"#utility.yul\":18512:18931   */\n            tag_76:\n                /* \"#utility.yul\":18678:18682   */\n              0x00\n                /* \"#utility.yul\":18716:18718   */\n              0x20\n                /* \"#utility.yul\":18705:18714   */\n              dup3\n                /* \"#utility.yul\":18701:18719   */\n              add\n                /* \"#utility.yul\":18693:18719   */\n              swap1\n              pop\n                /* \"#utility.yul\":18765:18774   */\n              dup2\n                /* \"#utility.yul\":18759:18763   */\n              dup2\n                /* \"#utility.yul\":18755:18775   */\n              sub\n                /* \"#utility.yul\":18751:18752   */\n              0x00\n                /* \"#utility.yul\":18740:18749   */\n              dup4\n                /* \"#utility.yul\":18736:18753   */\n              add\n                /* \"#utility.yul\":18729:18776   */\n              mstore\n                /* \"#utility.yul\":18793:18924   */\n              tag_355\n                /* \"#utility.yul\":18919:18923   */\n              dup2\n                /* \"#utility.yul\":18793:18924   */\n              tag_163\n              jump\t// in\n            tag_355:\n                /* \"#utility.yul\":18785:18924   */\n              swap1\n              pop\n                /* \"#utility.yul\":18512:18931   */\n              swap2\n              swap1\n              pop\n              jump\t// out\n                /* \"#utility.yul\":18937:19170   */\n            tag_84:\n                /* \"#utility.yul\":18976:18979   */\n              0x00\n                /* \"#utility.yul\":18999:19023   */\n              tag_357\n                /* \"#utility.yul\":19017:19022   */\n              dup3\n                /* \"#utility.yul\":18999:19023   */\n              tag_128\n              jump\t// in\n            tag_357:\n                /* \"#utility.yul\":18990:19023   */\n              swap2\n              pop\n                /* \"#utility.yul\":19045:19111   */\n              0xffffffffffffffffffffffffffffffffffffffffffffffffffffffffffffffff\n                /* \"#utility.yul\":19038:19043   */\n              dup3\n                /* \"#utility.yul\":19035:19112   */\n              sub\n                /* \"#utility.yul\":19032:19135   */\n              tag_358\n              jumpi\n                /* \"#utility.yul\":19115:19133   */\n              tag_359\n              tag_139\n              jump\t// in\n            tag_359:\n                /* \"#utility.yul\":19032:19135   */\n            tag_358:\n                /* \"#utility.yul\":19162:19163   */\n              0x01\n                /* \"#utility.yul\":19155:19160   */\n              dup3\n                /* \"#utility.yul\":19151:19164   */\n              add\n                /* \"#utility.yul\":19144:19164   */\n              swap1\n              pop\n                /* \"#utility.yul\":18937:19170   */\n              swap2\n              swap1\n              pop\n              jump\t// out\n\n            auxdata: 0xa26469706673582212208703b90d3be63e1fb85f68e362bf93291476f597c69f3dc386cab7db512786f364736f6c634300081a0033\n        }\n    }\n\n    auxdata: 0xa2646970667358221220456a638527188c670471d92479efcea36c2a87008d5a85d8a34a15b59285997364736f6c634300081a0033\n}\n",
				"bytecode": {
					"linkReferences": {},
					"object": "60a06040525f6007556032600855348015610018575f80fd5b503364174876e8006040518060400160405280600681526020017f536f626f726f00000000000000000000000000000000000000000000000000008152506040518060400160405280600381526020017f5342520000000000000000000000000000000000000000000000000000000000815250816003908161009b919061080b565b5080600490816100ab919061080b565b5050505f81036100f2575f6040517f392e1e270000000000000000000000000000000000000000000000000000000081526004016100e99190610913565b60405180910390fd5b8060808181525050505f73ffffffffffffffffffffffffffffffffffffffff168173ffffffffffffffffffffffffffffffffffffffff160361016b575f6040517f1e4fbdf7000000000000000000000000000000000000000000000000000000008152600401610162919061096b565b60405180910390fd5b61017a8161019360201b60201c565b5061018e33620186a061025660201b60201c565b610a68565b5f60055f9054906101000a900473ffffffffffffffffffffffffffffffffffffffff1690508160055f6101000a81548173ffffffffffffffffffffffffffffffffffffffff021916908373ffffffffffffffffffffffffffffffffffffffff1602179055508173ffffffffffffffffffffffffffffffffffffffff168173ffffffffffffffffffffffffffffffffffffffff167f8be0079c531659141344cd1fd0a4f28419497f9722a3daafe3b4186f6b6457e060405160405180910390a35050565b5f73ffffffffffffffffffffffffffffffffffffffff168273ffffffffffffffffffffffffffffffffffffffff16036102c6575f6040517fec442f050000000000000000000000000000000000000000000000000000000081526004016102bd919061096b565b60405180910390fd5b6102d75f83836102db60201b60201c565b5050565b6102ec8383836102f160201b60201c565b505050565b6103028383836103a660201b60201c565b5f73ffffffffffffffffffffffffffffffffffffffff168373ffffffffffffffffffffffffffffffffffffffff16036103a1575f6103446105bf60201b60201c565b90505f6103556105c860201b60201c565b90508181111561039e5780826040517f9e79f854000000000000000000000000000000000000000000000000000000008152600401610395929190610993565b60405180910390fd5b50505b505050565b5f73ffffffffffffffffffffffffffffffffffffffff168373ffffffffffffffffffffffffffffffffffffffff16036103f6578060025f8282546103ea91906109e7565b925050819055506104c4565b5f805f8573ffffffffffffffffffffffffffffffffffffffff1673ffffffffffffffffffffffffffffffffffffffff1681526020019081526020015f205490508181101561047f578381836040517fe450d38c00000000000000000000000000000000000000000000000000000000815260040161047693929190610a1a565b60405180910390fd5b8181035f808673ffffffffffffffffffffffffffffffffffffffff1673ffffffffffffffffffffffffffffffffffffffff1681526020019081526020015f2081905550505b5f73ffffffffffffffffffffffffffffffffffffffff168273ffffffffffffffffffffffffffffffffffffffff160361050b578060025f8282540392505081905550610555565b805f808473ffffffffffffffffffffffffffffffffffffffff1673ffffffffffffffffffffffffffffffffffffffff1681526020019081526020015f205f82825401925050819055505b8173ffffffffffffffffffffffffffffffffffffffff168373ffffffffffffffffffffffffffffffffffffffff167fddf252ad1be2c89b69c2b068fc378daa952ba7f163c4a11628f55a4df523b3ef836040516105b29190610a4f565b60405180910390a3505050565b5f608051905090565b5f600254905090565b5f81519050919050565b7f4e487b71000000000000000000000000000000000000000000000000000000005f52604160045260245ffd5b7f4e487b71000000000000000000000000000000000000000000000000000000005f52602260045260245ffd5b5f600282049050600182168061064c57607f821691505b60208210810361065f5761065e610608565b5b50919050565b5f819050815f5260205f209050919050565b5f6020601f8301049050919050565b5f82821b905092915050565b5f600883026106c17fffffffffffffffffffffffffffffffffffffffffffffffffffffffffffffffff82610686565b6106cb8683610686565b95508019841693508086168417925050509392505050565b5f819050919050565b5f819050919050565b5f61070f61070a610705846106e3565b6106ec565b6106e3565b9050919050565b5f819050919050565b610728836106f5565b61073c61073482610716565b848454610692565b825550505050565b5f90565b610750610744565b61075b81848461071f565b505050565b5b8181101561077e576107735f82610748565b600181019050610761565b5050565b601f8211156107c35761079481610665565b61079d84610677565b810160208510156107ac578190505b6107c06107b885610677565b830182610760565b50505b505050565b5f82821c905092915050565b5f6107e35f19846008026107c8565b1980831691505092915050565b5f6107fb83836107d4565b9150826002028217905092915050565b610814826105d1565b67ffffffffffffffff81111561082d5761082c6105db565b5b6108378254610635565b610842828285610782565b5f60209050601f831160018114610873575f8415610861578287015190505b61086b85826107f0565b8655506108d2565b601f19841661088186610665565b5f5b828110156108a857848901518255600182019150602085019450602081019050610883565b868310156108c557848901516108c1601f8916826107d4565b8355505b6001600288020188555050505b505050505050565b5f819050919050565b5f6108fd6108f86108f3846108da565b6106ec565b6106e3565b9050919050565b61090d816108e3565b82525050565b5f6020820190506109265f830184610904565b92915050565b5f73ffffffffffffffffffffffffffffffffffffffff82169050919050565b5f6109558261092c565b9050919050565b6109658161094b565b82525050565b5f60208201905061097e5f83018461095c565b92915050565b61098d816106e3565b82525050565b5f6040820190506109a65f830185610984565b6109b36020830184610984565b9392505050565b7f4e487b71000000000000000000000000000000000000000000000000000000005f52601160045260245ffd5b5f6109f1826106e3565b91506109fc836106e3565b9250828201905080821115610a1457610a136109ba565b5b92915050565b5f606082019050610a2d5f83018661095c565b610a3a6020830185610984565b610a476040830184610984565b949350505050565b5f602082019050610a625f830184610984565b92915050565b608051612cb4610a805f395f6105f70152612cb45ff3fe608060405234801561000f575f80fd5b5060043610610109575f3560e01c80634735c94c116100a05780638da5cb5b1161006f5780638da5cb5b1461027d57806395d89b411461029b578063a9059cbb146102b9578063dd62ed3e146102e9578063f2fde38b1461031957610109565b80634735c94c1461021d57806370a0823114610227578063715018a61461025757806379cc67901461026157610109565b806323b872dd116100dc57806323b872dd14610195578063313ce567146101c5578063355274ea146101e357806342966c681461020157610109565b80630528395e1461010d57806306fdde0314610129578063095ea7b31461014757806318160ddd14610177575b5f80fd5b61012760048036038101906101229190611434565b610335565b005b610131610503565b60405161013e919061151c565b60405180910390f35b610161600480360381019061015c91906115c9565b610593565b60405161016e9190611616565b60405180910390f35b61017f6105b5565b60405161018c919061163e565b60405180910390f35b6101af60048036038101906101aa9190611657565b6105be565b6040516101bc9190611616565b60405180910390f35b6101cd6105ec565b6040516101da91906116c2565b60405180910390f35b6101eb6105f4565b6040516101f8919061163e565b60405180910390f35b61021b600480360381019061021691906116db565b61061b565b005b61022561062f565b005b610241600480360381019061023c9190611706565b61076b565b60405161024e919061163e565b60405180910390f35b61025f6107b0565b005b61027b600480360381019061027691906115c9565b6107c3565b005b6102856107e3565b6040516102929190611740565b60405180910390f35b6102a361080b565b6040516102b0919061151c565b60405180910390f35b6102d360048036038101906102ce91906115c9565b61089b565b6040516102e09190611616565b60405180910390f35b61030360048036038101906102fe9190611759565b6108bd565b604051610310919061163e565b60405180910390f35b610333600480360381019061032e9190611706565b61093f565b005b61033d6109c3565b5f600160075461034d91906117c4565b90505f73ffffffffffffffffffffffffffffffffffffffff1660065f8381526020019081526020015f205f9054906101000a900473ffffffffffffffffffffffffffffffffffffffff1673ffffffffffffffffffffffffffffffffffffffff16036103ed576040517f08c379a00000000000000000000000000000000000000000000000000000000081526004016103e490611867565b60405180910390fd5b5f60065f8381526020019081526020015f205f9054906101000a900473ffffffffffffffffffffffffffffffffffffffff1690505f8173ffffffffffffffffffffffffffffffffffffffff16639fe140b16040518163ffffffff1660e01b8152600401602060405180830381865afa15801561046b573d5f803e3d5ffd5b505050506040513d601f19601f8201168201806040525081019061048f9190611899565b90508173ffffffffffffffffffffffffffffffffffffffff16630c4960dd8787876040518463ffffffff1660e01b81526004016104ce939291906119c7565b5f604051808303815f87803b1580156104e5575f80fd5b505af11580156104f7573d5f803e3d5ffd5b50505050505050505050565b60606003805461051290611a37565b80601f016020809104026020016040519081016040528092919081815260200182805461053e90611a37565b80156105895780601f1061056057610100808354040283529160200191610589565b820191905f5260205f20905b81548152906001019060200180831161056c57829003601f168201915b5050505050905090565b5f8061059d610a4a565b90506105aa818585610a51565b600191505092915050565b5f600254905090565b5f806105c8610a4a565b90506105d5858285610a63565b6105e0858585610af6565b60019150509392505050565b5f6012905090565b5f7f0000000000000000000000000000000000000000000000000000000000000000905090565b61062c610626610a4a565b82610be6565b50565b6106376109c3565b5f73ffffffffffffffffffffffffffffffffffffffff1660065f60075481526020019081526020015f205f9054906101000a900473ffffffffffffffffffffffffffffffffffffffff1673ffffffffffffffffffffffffffffffffffffffff16146106d7576040517f08c379a00000000000000000000000000000000000000000000000000000000081526004016106ce90611ab1565b60405180910390fd5b5f6040516106e4906111c3565b604051809103905ff0801580156106fd573d5f803e3d5ffd5b5090508060065f60075481526020019081526020015f205f6101000a81548173ffffffffffffffffffffffffffffffffffffffff021916908373ffffffffffffffffffffffffffffffffffffffff16021790555060075f81548092919061076390611acf565b919050555050565b5f805f8373ffffffffffffffffffffffffffffffffffffffff1673ffffffffffffffffffffffffffffffffffffffff1681526020019081526020015f20549050919050565b6107b86109c3565b6107c15f610c65565b565b6107d5826107cf610a4a565b83610a63565b6107df8282610be6565b5050565b5f60055f9054906101000a900473ffffffffffffffffffffffffffffffffffffffff16905090565b60606004805461081a90611a37565b80601f016020809104026020016040519081016040528092919081815260200182805461084690611a37565b80156108915780601f1061086857610100808354040283529160200191610891565b820191905f5260205f20905b81548152906001019060200180831161087457829003601f168201915b5050505050905090565b5f806108a5610a4a565b90506108b2818585610af6565b600191505092915050565b5f60015f8473ffffffffffffffffffffffffffffffffffffffff1673ffffffffffffffffffffffffffffffffffffffff1681526020019081526020015f205f8373ffffffffffffffffffffffffffffffffffffffff1673ffffffffffffffffffffffffffffffffffffffff1681526020019081526020015f2054905092915050565b6109476109c3565b5f73ffffffffffffffffffffffffffffffffffffffff168173ffffffffffffffffffffffffffffffffffffffff16036109b7575f6040517f1e4fbdf70000000000000000000000000000000000000000000000000000000081526004016109ae9190611740565b60405180910390fd5b6109c081610c65565b50565b6109cb610a4a565b73ffffffffffffffffffffffffffffffffffffffff166109e96107e3565b73ffffffffffffffffffffffffffffffffffffffff1614610a4857610a0c610a4a565b6040517f118cdaa7000000000000000000000000000000000000000000000000000000008152600401610a3f9190611740565b60405180910390fd5b565b5f33905090565b610a5e8383836001610d28565b505050565b5f610a6e84846108bd565b90507fffffffffffffffffffffffffffffffffffffffffffffffffffffffffffffffff811015610af05781811015610ae1578281836040517ffb8f41b2000000000000000000000000000000000000000000000000000000008152600401610ad893929190611b16565b60405180910390fd5b610aef84848484035f610d28565b5b50505050565b5f73ffffffffffffffffffffffffffffffffffffffff168373ffffffffffffffffffffffffffffffffffffffff1603610b66575f6040517f96c6fd1e000000000000000000000000000000000000000000000000000000008152600401610b5d9190611740565b60405180910390fd5b5f73ffffffffffffffffffffffffffffffffffffffff168273ffffffffffffffffffffffffffffffffffffffff1603610bd6575f6040517fec442f05000000000000000000000000000000000000000000000000000000008152600401610bcd9190611740565b60405180910390fd5b610be1838383610ef7565b505050565b5f73ffffffffffffffffffffffffffffffffffffffff168273ffffffffffffffffffffffffffffffffffffffff1603610c56575f6040517f96c6fd1e000000000000000000000000000000000000000000000000000000008152600401610c4d9190611740565b60405180910390fd5b610c61825f83610ef7565b5050565b5f60055f9054906101000a900473ffffffffffffffffffffffffffffffffffffffff1690508160055f6101000a81548173ffffffffffffffffffffffffffffffffffffffff021916908373ffffffffffffffffffffffffffffffffffffffff1602179055508173ffffffffffffffffffffffffffffffffffffffff168173ffffffffffffffffffffffffffffffffffffffff167f8be0079c531659141344cd1fd0a4f28419497f9722a3daafe3b4186f6b6457e060405160405180910390a35050565b5f73ffffffffffffffffffffffffffffffffffffffff168473ffffffffffffffffffffffffffffffffffffffff1603610d98575f6040517fe602df05000000000000000000000000000000000000000000000000000000008152600401610d8f9190611740565b60405180910390fd5b5f73ffffffffffffffffffffffffffffffffffffffff168373ffffffffffffffffffffffffffffffffffffffff1603610e08575f6040517f94280d62000000000000000000000000000000000000000000000000000000008152600401610dff9190611740565b60405180910390fd5b8160015f8673ffffffffffffffffffffffffffffffffffffffff1673ffffffffffffffffffffffffffffffffffffffff1681526020019081526020015f205f8573ffffffffffffffffffffffffffffffffffffffff1673ffffffffffffffffffffffffffffffffffffffff1681526020019081526020015f20819055508015610ef1578273ffffffffffffffffffffffffffffffffffffffff168473ffffffffffffffffffffffffffffffffffffffff167f8c5be1e5ebec7d5bd14f71427d1e84f3dd0314c0f7b2291e5b200ac8c7c3b92584604051610ee8919061163e565b60405180910390a35b50505050565b610f02838383610f07565b505050565b610f12838383610faa565b5f73ffffffffffffffffffffffffffffffffffffffff168373ffffffffffffffffffffffffffffffffffffffff1603610fa5575f610f4e6105f4565b90505f610f596105b5565b905081811115610fa25780826040517f9e79f854000000000000000000000000000000000000000000000000000000008152600401610f99929190611b4b565b60405180910390fd5b50505b505050565b5f73ffffffffffffffffffffffffffffffffffffffff168373ffffffffffffffffffffffffffffffffffffffff1603610ffa578060025f828254610fee9190611b72565b925050819055506110c8565b5f805f8573ffffffffffffffffffffffffffffffffffffffff1673ffffffffffffffffffffffffffffffffffffffff1681526020019081526020015f2054905081811015611083578381836040517fe450d38c00000000000000000000000000000000000000000000000000000000815260040161107a93929190611b16565b60405180910390fd5b8181035f808673ffffffffffffffffffffffffffffffffffffffff1673ffffffffffffffffffffffffffffffffffffffff1681526020019081526020015f2081905550505b5f73ffffffffffffffffffffffffffffffffffffffff168273ffffffffffffffffffffffffffffffffffffffff160361110f578060025f8282540392505081905550611159565b805f808473ffffffffffffffffffffffffffffffffffffffff1673ffffffffffffffffffffffffffffffffffffffff1681526020019081526020015f205f82825401925050819055505b8173ffffffffffffffffffffffffffffffffffffffff168373ffffffffffffffffffffffffffffffffffffffff167fddf252ad1be2c89b69c2b068fc378daa952ba7f163c4a11628f55a4df523b3ef836040516111b6919061163e565b60405180910390a3505050565b6110d980611ba683390190565b5f604051905090565b5f80fd5b5f80fd5b5f80fd5b5f80fd5b5f601f19601f8301169050919050565b7f4e487b71000000000000000000000000000000000000000000000000000000005f52604160045260245ffd5b61122f826111e9565b810181811067ffffffffffffffff8211171561124e5761124d6111f9565b5b80604052505050565b5f6112606111d0565b905061126c8282611226565b919050565b5f67ffffffffffffffff82111561128b5761128a6111f9565b5b611294826111e9565b9050602081019050919050565b828183375f83830152505050565b5f6112c16112bc84611271565b611257565b9050828152602081018484840111156112dd576112dc6111e5565b5b6112e88482856112a1565b509392505050565b5f82601f830112611304576113036111e1565b5b81356113148482602086016112af565b91505092915050565b5f67ffffffffffffffff821115611337576113366111f9565b5b602082029050602081019050919050565b5f80fd5b5f61135e6113598461131d565b611257565b9050808382526020820190506020840283018581111561138157611380611348565b5b835b818110156113c857803567ffffffffffffffff8111156113a6576113a56111e1565b5b8086016113b389826112f0565b85526020850194505050602081019050611383565b5050509392505050565b5f82601f8301126113e6576113e56111e1565b5b81356113f684826020860161134c565b91505092915050565b5f8115159050919050565b611413816113ff565b811461141d575f80fd5b50565b5f8135905061142e8161140a565b92915050565b5f805f6060848603121561144b5761144a6111d9565b5b5f84013567ffffffffffffffff811115611468576114676111dd565b5b611474868287016112f0565b935050602084013567ffffffffffffffff811115611495576114946111dd565b5b6114a1868287016113d2565b92505060406114b286828701611420565b9150509250925092565b5f81519050919050565b5f82825260208201905092915050565b8281835e5f83830152505050565b5f6114ee826114bc565b6114f881856114c6565b93506115088185602086016114d6565b611511816111e9565b840191505092915050565b5f6020820190508181035f83015261153481846114e4565b905092915050565b5f73ffffffffffffffffffffffffffffffffffffffff82169050919050565b5f6115658261153c565b9050919050565b6115758161155b565b811461157f575f80fd5b50565b5f813590506115908161156c565b92915050565b5f819050919050565b6115a881611596565b81146115b2575f80fd5b50565b5f813590506115c38161159f565b92915050565b5f80604083850312156115df576115de6111d9565b5b5f6115ec85828601611582565b92505060206115fd858286016115b5565b9150509250929050565b611610816113ff565b82525050565b5f6020820190506116295f830184611607565b92915050565b61163881611596565b82525050565b5f6020820190506116515f83018461162f565b92915050565b5f805f6060848603121561166e5761166d6111d9565b5b5f61167b86828701611582565b935050602061168c86828701611582565b925050604061169d868287016115b5565b9150509250925092565b5f60ff82169050919050565b6116bc816116a7565b82525050565b5f6020820190506116d55f8301846116b3565b92915050565b5f602082840312156116f0576116ef6111d9565b5b5f6116fd848285016115b5565b91505092915050565b5f6020828403121561171b5761171a6111d9565b5b5f61172884828501611582565b91505092915050565b61173a8161155b565b82525050565b5f6020820190506117535f830184611731565b92915050565b5f806040838503121561176f5761176e6111d9565b5b5f61177c85828601611582565b925050602061178d85828601611582565b9150509250929050565b7f4e487b71000000000000000000000000000000000000000000000000000000005f52601160045260245ffd5b5f6117ce82611596565b91506117d983611596565b92508282039050818111156117f1576117f0611797565b5b92915050565b7f6c617374657374206372756d6220646f6573206e6f742065786973742e2057685f8201527f6f206174652069743f0000000000000000000000000000000000000000000000602082015250565b5f6118516029836114c6565b915061185c826117f7565b604082019050919050565b5f6020820190508181035f83015261187e81611845565b9050919050565b5f815190506118938161159f565b92915050565b5f602082840312156118ae576118ad6111d9565b5b5f6118bb84828501611885565b91505092915050565b5f81519050919050565b5f82825260208201905092915050565b5f819050602082019050919050565b5f82825260208201905092915050565b5f611907826114bc565b61191181856118ed565b93506119218185602086016114d6565b61192a816111e9565b840191505092915050565b5f61194083836118fd565b905092915050565b5f602082019050919050565b5f61195e826118c4565b61196881856118ce565b93508360208202850161197a856118de565b805f5b858110156119b557848403895281516119968582611935565b94506119a183611948565b925060208a0199505060018101905061197d565b50829750879550505050505092915050565b5f6060820190508181035f8301526119df81866114e4565b905081810360208301526119f38185611954565b9050611a026040830184611607565b949350505050565b7f4e487b71000000000000000000000000000000000000000000000000000000005f52602260045260245ffd5b5f6002820490506001821680611a4e57607f821691505b602082108103611a6157611a60611a0a565b5b50919050565b7f6372756d6220616c656164792062616b656400000000000000000000000000005f82015250565b5f611a9b6012836114c6565b9150611aa682611a67565b602082019050919050565b5f6020820190508181035f830152611ac881611a8f565b9050919050565b5f611ad982611596565b91507fffffffffffffffffffffffffffffffffffffffffffffffffffffffffffffffff8203611b0b57611b0a611797565b5b600182019050919050565b5f606082019050611b295f830186611731565b611b36602083018561162f565b611b43604083018461162f565b949350505050565b5f604082019050611b5e5f83018561162f565b611b6b602083018461162f565b9392505050565b5f611b7c82611596565b9150611b8783611596565b9250828201905080821115611b9f57611b9e611797565b5b9291505056fe6080604052348015600e575f80fd5b506110bd8061001c5f395ff3fe608060405234801561000f575f80fd5b506004361061004a575f3560e01c80630c4960dd1461004e57806386e68b901461006a5780639fe140b11461009b578063b384abef146100b9575b5f80fd5b610068600480360381019061006391906108f9565b6100d5565b005b610084600480360381019061007f91906109b4565b610219565b604051610092929190610a4e565b60405180910390f35b6100a36102d9565b6040516100b09190610a8b565b60405180910390f35b6100d360048036038101906100ce9190610aa4565b6102e4565b005b60028251101561011a576040517f08c379a000000000000000000000000000000000000000000000000000000000815260040161011190610b2c565b60405180910390fd5b5f60018160018154018082558091505003905f5260205f209050505f8060015f805490506101489190610b77565b8154811061015957610158610baa565b5b905f5260205f20906005020190505f835167ffffffffffffffff811115610183576101826106be565b5b6040519080825280602002602001820160405280156101b15781602001602082028036833780820191505090505b50905084825f0190816101c49190610dd1565b50838260010190805190602001906101dd929190610578565b50808260020190805190602001906101f69291906105cf565b5082826003015f6101000a81548160ff0219169083151502179055505050505050565b5f8181548110610227575f80fd5b905f5260205f2090600502015f91509050805f01805461024690610c04565b80601f016020809104026020016040519081016040528092919081815260200182805461027290610c04565b80156102bd5780601f10610294576101008083540402835291602001916102bd565b820191905f5260205f20905b8154815290600101906020018083116102a057829003601f168201915b505050505090806003015f9054906101000a900460ff16905082565b5f8080549050905090565b5f80549050821061032a576040517f08c379a000000000000000000000000000000000000000000000000000000000815260040161032190610eea565b60405180910390fd5b5f828154811061033d5761033c610baa565b5b905f5260205f2090600502016003015f9054906101000a900460ff16610398576040517f08c379a000000000000000000000000000000000000000000000000000000000815260040161038f90610f52565b60405180910390fd5b5f82815481106103ab576103aa610baa565b5b905f5260205f2090600502016001018054905081106103ff576040517f08c379a00000000000000000000000000000000000000000000000000000000081526004016103f690610fba565b60405180910390fd5b5f15155f838154811061041557610414610baa565b5b905f5260205f2090600502016004015f3373ffffffffffffffffffffffffffffffffffffffff1673ffffffffffffffffffffffffffffffffffffffff1681526020019081526020015f205f9054906101000a900460ff161515146104ae576040517f08c379a00000000000000000000000000000000000000000000000000000000081526004016104a590611022565b60405180910390fd5b5f82815481106104c1576104c0610baa565b5b905f5260205f20906005020160020181815481106104e2576104e1610baa565b5b905f5260205f20015f8154809291906104fa90611040565b919050555060015f838154811061051457610513610baa565b5b905f5260205f2090600502016004015f3373ffffffffffffffffffffffffffffffffffffffff1673ffffffffffffffffffffffffffffffffffffffff1681526020019081526020015f205f6101000a81548160ff0219169083151502179055505050565b828054828255905f5260205f209081019282156105be579160200282015b828111156105bd5782518290816105ad9190610dd1565b5091602001919060010190610596565b5b5090506105cb919061061a565b5090565b828054828255905f5260205f20908101928215610609579160200282015b828111156106085782518255916020019190600101906105ed565b5b509050610616919061063d565b5090565b5b80821115610639575f81816106309190610658565b5060010161061b565b5090565b5b80821115610654575f815f90555060010161063e565b5090565b50805461066490610c04565b5f825580601f106106755750610692565b601f0160209004905f5260205f2090810190610691919061063d565b5b50565b5f604051905090565b5f80fd5b5f80fd5b5f80fd5b5f80fd5b5f601f19601f8301169050919050565b7f4e487b71000000000000000000000000000000000000000000000000000000005f52604160045260245ffd5b6106f4826106ae565b810181811067ffffffffffffffff82111715610713576107126106be565b5b80604052505050565b5f610725610695565b905061073182826106eb565b919050565b5f67ffffffffffffffff8211156107505761074f6106be565b5b610759826106ae565b9050602081019050919050565b828183375f83830152505050565b5f61078661078184610736565b61071c565b9050828152602081018484840111156107a2576107a16106aa565b5b6107ad848285610766565b509392505050565b5f82601f8301126107c9576107c86106a6565b5b81356107d9848260208601610774565b91505092915050565b5f67ffffffffffffffff8211156107fc576107fb6106be565b5b602082029050602081019050919050565b5f80fd5b5f61082361081e846107e2565b61071c565b905080838252602082019050602084028301858111156108465761084561080d565b5b835b8181101561088d57803567ffffffffffffffff81111561086b5761086a6106a6565b5b80860161087889826107b5565b85526020850194505050602081019050610848565b5050509392505050565b5f82601f8301126108ab576108aa6106a6565b5b81356108bb848260208601610811565b91505092915050565b5f8115159050919050565b6108d8816108c4565b81146108e2575f80fd5b50565b5f813590506108f3816108cf565b92915050565b5f805f606084860312156109105761090f61069e565b5b5f84013567ffffffffffffffff81111561092d5761092c6106a2565b5b610939868287016107b5565b935050602084013567ffffffffffffffff81111561095a576109596106a2565b5b61096686828701610897565b9250506040610977868287016108e5565b9150509250925092565b5f819050919050565b61099381610981565b811461099d575f80fd5b50565b5f813590506109ae8161098a565b92915050565b5f602082840312156109c9576109c861069e565b5b5f6109d6848285016109a0565b91505092915050565b5f81519050919050565b5f82825260208201905092915050565b8281835e5f83830152505050565b5f610a11826109df565b610a1b81856109e9565b9350610a2b8185602086016109f9565b610a34816106ae565b840191505092915050565b610a48816108c4565b82525050565b5f6040820190508181035f830152610a668185610a07565b9050610a756020830184610a3f565b9392505050565b610a8581610981565b82525050565b5f602082019050610a9e5f830184610a7c565b92915050565b5f8060408385031215610aba57610ab961069e565b5b5f610ac7858286016109a0565b9250506020610ad8858286016109a0565b9150509250929050565b7f4174206c656173742032206f7074696f6e7320617265207265717569726564005f82015250565b5f610b16601f836109e9565b9150610b2182610ae2565b602082019050919050565b5f6020820190508181035f830152610b4381610b0a565b9050919050565b7f4e487b71000000000000000000000000000000000000000000000000000000005f52601160045260245ffd5b5f610b8182610981565b9150610b8c83610981565b9250828203905081811115610ba457610ba3610b4a565b5b92915050565b7f4e487b71000000000000000000000000000000000000000000000000000000005f52603260045260245ffd5b7f4e487b71000000000000000000000000000000000000000000000000000000005f52602260045260245ffd5b5f6002820490506001821680610c1b57607f821691505b602082108103610c2e57610c2d610bd7565b5b50919050565b5f819050815f5260205f209050919050565b5f6020601f8301049050919050565b5f82821b905092915050565b5f60088302610c907fffffffffffffffffffffffffffffffffffffffffffffffffffffffffffffffff82610c55565b610c9a8683610c55565b95508019841693508086168417925050509392505050565b5f819050919050565b5f610cd5610cd0610ccb84610981565b610cb2565b610981565b9050919050565b5f819050919050565b610cee83610cbb565b610d02610cfa82610cdc565b848454610c61565b825550505050565b5f90565b610d16610d0a565b610d21818484610ce5565b505050565b5b81811015610d4457610d395f82610d0e565b600181019050610d27565b5050565b601f821115610d8957610d5a81610c34565b610d6384610c46565b81016020851015610d72578190505b610d86610d7e85610c46565b830182610d26565b50505b505050565b5f82821c905092915050565b5f610da95f1984600802610d8e565b1980831691505092915050565b5f610dc18383610d9a565b9150826002028217905092915050565b610dda826109df565b67ffffffffffffffff811115610df357610df26106be565b5b610dfd8254610c04565b610e08828285610d48565b5f60209050601f831160018114610e39575f8415610e27578287015190505b610e318582610db6565b865550610e98565b601f198416610e4786610c34565b5f5b82811015610e6e57848901518255600182019150602085019450602081019050610e49565b86831015610e8b5784890151610e87601f891682610d9a565b8355505b6001600288020188555050505b505050505050565b7f53757276657920646f6573206e6f7420657869737400000000000000000000005f82015250565b5f610ed46015836109e9565b9150610edf82610ea0565b602082019050919050565b5f6020820190508181035f830152610f0181610ec8565b9050919050565b7f537572766579206973206e6f74206163746976650000000000000000000000005f82015250565b5f610f3c6014836109e9565b9150610f4782610f08565b602082019050919050565b5f6020820190508181035f830152610f6981610f30565b9050919050565b7f496e76616c6964206f7074696f6e20696e6465780000000000000000000000005f82015250565b5f610fa46014836109e9565b9150610faf82610f70565b602082019050919050565b5f6020820190508181035f830152610fd181610f98565b9050919050565b7f557365722068617320616c726561647920766f746564000000000000000000005f82015250565b5f61100c6016836109e9565b915061101782610fd8565b602082019050919050565b5f6020820190508181035f83015261103981611000565b9050919050565b5f61104a82610981565b91507fffffffffffffffffffffffffffffffffffffffffffffffffffffffffffffffff820361107c5761107b610b4a565b5b60018201905091905056fea26469706673582212208703b90d3be63e1fb85f68e362bf93291476f597c69f3dc386cab7db512786f364736f6c634300081a0033a2646970667358221220456a638527188c670471d92479efcea36c2a87008d5a85d8a34a15b59285997364736f6c634300081a0033",
					"opcodes": "PUSH1 0xA0 PUSH1 0x40 MSTORE PUSH0 PUSH1 0x7 SSTORE PUSH1 0x32 PUSH1 0x8 SSTORE CALLVALUE DUP1 ISZERO PUSH2 0x18 JUMPI PUSH0 DUP1 REVERT JUMPDEST POP CALLER PUSH5 0x174876E800 PUSH1 0x40 MLOAD DUP1 PUSH1 0x40 ADD PUSH1 0x40 MSTORE DUP1 PUSH1 0x6 DUP2 MSTORE PUSH1 0x20 ADD PUSH32 0x536F626F726F0000000000000000000000000000000000000000000000000000 DUP2 MSTORE POP PUSH1 0x40 MLOAD DUP1 PUSH1 0x40 ADD PUSH1 0x40 MSTORE DUP1 PUSH1 0x3 DUP2 MSTORE PUSH1 0x20 ADD PUSH32 0x5342520000000000000000000000000000000000000000000000000000000000 DUP2 MSTORE POP DUP2 PUSH1 0x3 SWAP1 DUP2 PUSH2 0x9B SWAP2 SWAP1 PUSH2 0x80B JUMP JUMPDEST POP DUP1 PUSH1 0x4 SWAP1 DUP2 PUSH2 0xAB SWAP2 SWAP1 PUSH2 0x80B JUMP JUMPDEST POP POP POP PUSH0 DUP2 SUB PUSH2 0xF2 JUMPI PUSH0 PUSH1 0x40 MLOAD PUSH32 0x392E1E2700000000000000000000000000000000000000000000000000000000 DUP2 MSTORE PUSH1 0x4 ADD PUSH2 0xE9 SWAP2 SWAP1 PUSH2 0x913 JUMP JUMPDEST PUSH1 0x40 MLOAD DUP1 SWAP2 SUB SWAP1 REVERT JUMPDEST DUP1 PUSH1 0x80 DUP2 DUP2 MSTORE POP POP POP PUSH0 PUSH20 0xFFFFFFFFFFFFFFFFFFFFFFFFFFFFFFFFFFFFFFFF AND DUP2 PUSH20 0xFFFFFFFFFFFFFFFFFFFFFFFFFFFFFFFFFFFFFFFF AND SUB PUSH2 0x16B JUMPI PUSH0 PUSH1 0x40 MLOAD PUSH32 0x1E4FBDF700000000000000000000000000000000000000000000000000000000 DUP2 MSTORE PUSH1 0x4 ADD PUSH2 0x162 SWAP2 SWAP1 PUSH2 0x96B JUMP JUMPDEST PUSH1 0x40 MLOAD DUP1 SWAP2 SUB SWAP1 REVERT JUMPDEST PUSH2 0x17A DUP2 PUSH2 0x193 PUSH1 0x20 SHL PUSH1 0x20 SHR JUMP JUMPDEST POP PUSH2 0x18E CALLER PUSH3 0x186A0 PUSH2 0x256 PUSH1 0x20 SHL PUSH1 0x20 SHR JUMP JUMPDEST PUSH2 0xA68 JUMP JUMPDEST PUSH0 PUSH1 0x5 PUSH0 SWAP1 SLOAD SWAP1 PUSH2 0x100 EXP SWAP1 DIV PUSH20 0xFFFFFFFFFFFFFFFFFFFFFFFFFFFFFFFFFFFFFFFF AND SWAP1 POP DUP2 PUSH1 0x5 PUSH0 PUSH2 0x100 EXP DUP2 SLOAD DUP2 PUSH20 0xFFFFFFFFFFFFFFFFFFFFFFFFFFFFFFFFFFFFFFFF MUL NOT AND SWAP1 DUP4 PUSH20 0xFFFFFFFFFFFFFFFFFFFFFFFFFFFFFFFFFFFFFFFF AND MUL OR SWAP1 SSTORE POP DUP2 PUSH20 0xFFFFFFFFFFFFFFFFFFFFFFFFFFFFFFFFFFFFFFFF AND DUP2 PUSH20 0xFFFFFFFFFFFFFFFFFFFFFFFFFFFFFFFFFFFFFFFF AND PUSH32 0x8BE0079C531659141344CD1FD0A4F28419497F9722A3DAAFE3B4186F6B6457E0 PUSH1 0x40 MLOAD PUSH1 0x40 MLOAD DUP1 SWAP2 SUB SWAP1 LOG3 POP POP JUMP JUMPDEST PUSH0 PUSH20 0xFFFFFFFFFFFFFFFFFFFFFFFFFFFFFFFFFFFFFFFF AND DUP3 PUSH20 0xFFFFFFFFFFFFFFFFFFFFFFFFFFFFFFFFFFFFFFFF AND SUB PUSH2 0x2C6 JUMPI PUSH0 PUSH1 0x40 MLOAD PUSH32 0xEC442F0500000000000000000000000000000000000000000000000000000000 DUP2 MSTORE PUSH1 0x4 ADD PUSH2 0x2BD SWAP2 SWAP1 PUSH2 0x96B JUMP JUMPDEST PUSH1 0x40 MLOAD DUP1 SWAP2 SUB SWAP1 REVERT JUMPDEST PUSH2 0x2D7 PUSH0 DUP4 DUP4 PUSH2 0x2DB PUSH1 0x20 SHL PUSH1 0x20 SHR JUMP JUMPDEST POP POP JUMP JUMPDEST PUSH2 0x2EC DUP4 DUP4 DUP4 PUSH2 0x2F1 PUSH1 0x20 SHL PUSH1 0x20 SHR JUMP JUMPDEST POP POP POP JUMP JUMPDEST PUSH2 0x302 DUP4 DUP4 DUP4 PUSH2 0x3A6 PUSH1 0x20 SHL PUSH1 0x20 SHR JUMP JUMPDEST PUSH0 PUSH20 0xFFFFFFFFFFFFFFFFFFFFFFFFFFFFFFFFFFFFFFFF AND DUP4 PUSH20 0xFFFFFFFFFFFFFFFFFFFFFFFFFFFFFFFFFFFFFFFF AND SUB PUSH2 0x3A1 JUMPI PUSH0 PUSH2 0x344 PUSH2 0x5BF PUSH1 0x20 SHL PUSH1 0x20 SHR JUMP JUMPDEST SWAP1 POP PUSH0 PUSH2 0x355 PUSH2 0x5C8 PUSH1 0x20 SHL PUSH1 0x20 SHR JUMP JUMPDEST SWAP1 POP DUP2 DUP2 GT ISZERO PUSH2 0x39E JUMPI DUP1 DUP3 PUSH1 0x40 MLOAD PUSH32 0x9E79F85400000000000000000000000000000000000000000000000000000000 DUP2 MSTORE PUSH1 0x4 ADD PUSH2 0x395 SWAP3 SWAP2 SWAP1 PUSH2 0x993 JUMP JUMPDEST PUSH1 0x40 MLOAD DUP1 SWAP2 SUB SWAP1 REVERT JUMPDEST POP POP JUMPDEST POP POP POP JUMP JUMPDEST PUSH0 PUSH20 0xFFFFFFFFFFFFFFFFFFFFFFFFFFFFFFFFFFFFFFFF AND DUP4 PUSH20 0xFFFFFFFFFFFFFFFFFFFFFFFFFFFFFFFFFFFFFFFF AND SUB PUSH2 0x3F6 JUMPI DUP1 PUSH1 0x2 PUSH0 DUP3 DUP3 SLOAD PUSH2 0x3EA SWAP2 SWAP1 PUSH2 0x9E7 JUMP JUMPDEST SWAP3 POP POP DUP2 SWAP1 SSTORE POP PUSH2 0x4C4 JUMP JUMPDEST PUSH0 DUP1 PUSH0 DUP6 PUSH20 0xFFFFFFFFFFFFFFFFFFFFFFFFFFFFFFFFFFFFFFFF AND PUSH20 0xFFFFFFFFFFFFFFFFFFFFFFFFFFFFFFFFFFFFFFFF AND DUP2 MSTORE PUSH1 0x20 ADD SWAP1 DUP2 MSTORE PUSH1 0x20 ADD PUSH0 KECCAK256 SLOAD SWAP1 POP DUP2 DUP2 LT ISZERO PUSH2 0x47F JUMPI DUP4 DUP2 DUP4 PUSH1 0x40 MLOAD PUSH32 0xE450D38C00000000000000000000000000000000000000000000000000000000 DUP2 MSTORE PUSH1 0x4 ADD PUSH2 0x476 SWAP4 SWAP3 SWAP2 SWAP1 PUSH2 0xA1A JUMP JUMPDEST PUSH1 0x40 MLOAD DUP1 SWAP2 SUB SWAP1 REVERT JUMPDEST DUP2 DUP2 SUB PUSH0 DUP1 DUP7 PUSH20 0xFFFFFFFFFFFFFFFFFFFFFFFFFFFFFFFFFFFFFFFF AND PUSH20 0xFFFFFFFFFFFFFFFFFFFFFFFFFFFFFFFFFFFFFFFF AND DUP2 MSTORE PUSH1 0x20 ADD SWAP1 DUP2 MSTORE PUSH1 0x20 ADD PUSH0 KECCAK256 DUP2 SWAP1 SSTORE POP POP JUMPDEST PUSH0 PUSH20 0xFFFFFFFFFFFFFFFFFFFFFFFFFFFFFFFFFFFFFFFF AND DUP3 PUSH20 0xFFFFFFFFFFFFFFFFFFFFFFFFFFFFFFFFFFFFFFFF AND SUB PUSH2 0x50B JUMPI DUP1 PUSH1 0x2 PUSH0 DUP3 DUP3 SLOAD SUB SWAP3 POP POP DUP2 SWAP1 SSTORE POP PUSH2 0x555 JUMP JUMPDEST DUP1 PUSH0 DUP1 DUP5 PUSH20 0xFFFFFFFFFFFFFFFFFFFFFFFFFFFFFFFFFFFFFFFF AND PUSH20 0xFFFFFFFFFFFFFFFFFFFFFFFFFFFFFFFFFFFFFFFF AND DUP2 MSTORE PUSH1 0x20 ADD SWAP1 DUP2 MSTORE PUSH1 0x20 ADD PUSH0 KECCAK256 PUSH0 DUP3 DUP3 SLOAD ADD SWAP3 POP POP DUP2 SWAP1 SSTORE POP JUMPDEST DUP2 PUSH20 0xFFFFFFFFFFFFFFFFFFFFFFFFFFFFFFFFFFFFFFFF AND DUP4 PUSH20 0xFFFFFFFFFFFFFFFFFFFFFFFFFFFFFFFFFFFFFFFF AND PUSH32 0xDDF252AD1BE2C89B69C2B068FC378DAA952BA7F163C4A11628F55A4DF523B3EF DUP4 PUSH1 0x40 MLOAD PUSH2 0x5B2 SWAP2 SWAP1 PUSH2 0xA4F JUMP JUMPDEST PUSH1 0x40 MLOAD DUP1 SWAP2 SUB SWAP1 LOG3 POP POP POP JUMP JUMPDEST PUSH0 PUSH1 0x80 MLOAD SWAP1 POP SWAP1 JUMP JUMPDEST PUSH0 PUSH1 0x2 SLOAD SWAP1 POP SWAP1 JUMP JUMPDEST PUSH0 DUP2 MLOAD SWAP1 POP SWAP2 SWAP1 POP JUMP JUMPDEST PUSH32 0x4E487B7100000000000000000000000000000000000000000000000000000000 PUSH0 MSTORE PUSH1 0x41 PUSH1 0x4 MSTORE PUSH1 0x24 PUSH0 REVERT JUMPDEST PUSH32 0x4E487B7100000000000000000000000000000000000000000000000000000000 PUSH0 MSTORE PUSH1 0x22 PUSH1 0x4 MSTORE PUSH1 0x24 PUSH0 REVERT JUMPDEST PUSH0 PUSH1 0x2 DUP3 DIV SWAP1 POP PUSH1 0x1 DUP3 AND DUP1 PUSH2 0x64C JUMPI PUSH1 0x7F DUP3 AND SWAP2 POP JUMPDEST PUSH1 0x20 DUP3 LT DUP2 SUB PUSH2 0x65F JUMPI PUSH2 0x65E PUSH2 0x608 JUMP JUMPDEST JUMPDEST POP SWAP2 SWAP1 POP JUMP JUMPDEST PUSH0 DUP2 SWAP1 POP DUP2 PUSH0 MSTORE PUSH1 0x20 PUSH0 KECCAK256 SWAP1 POP SWAP2 SWAP1 POP JUMP JUMPDEST PUSH0 PUSH1 0x20 PUSH1 0x1F DUP4 ADD DIV SWAP1 POP SWAP2 SWAP1 POP JUMP JUMPDEST PUSH0 DUP3 DUP3 SHL SWAP1 POP SWAP3 SWAP2 POP POP JUMP JUMPDEST PUSH0 PUSH1 0x8 DUP4 MUL PUSH2 0x6C1 PUSH32 0xFFFFFFFFFFFFFFFFFFFFFFFFFFFFFFFFFFFFFFFFFFFFFFFFFFFFFFFFFFFFFFFF DUP3 PUSH2 0x686 JUMP JUMPDEST PUSH2 0x6CB DUP7 DUP4 PUSH2 0x686 JUMP JUMPDEST SWAP6 POP DUP1 NOT DUP5 AND SWAP4 POP DUP1 DUP7 AND DUP5 OR SWAP3 POP POP POP SWAP4 SWAP3 POP POP POP JUMP JUMPDEST PUSH0 DUP2 SWAP1 POP SWAP2 SWAP1 POP JUMP JUMPDEST PUSH0 DUP2 SWAP1 POP SWAP2 SWAP1 POP JUMP JUMPDEST PUSH0 PUSH2 0x70F PUSH2 0x70A PUSH2 0x705 DUP5 PUSH2 0x6E3 JUMP JUMPDEST PUSH2 0x6EC JUMP JUMPDEST PUSH2 0x6E3 JUMP JUMPDEST SWAP1 POP SWAP2 SWAP1 POP JUMP JUMPDEST PUSH0 DUP2 SWAP1 POP SWAP2 SWAP1 POP JUMP JUMPDEST PUSH2 0x728 DUP4 PUSH2 0x6F5 JUMP JUMPDEST PUSH2 0x73C PUSH2 0x734 DUP3 PUSH2 0x716 JUMP JUMPDEST DUP5 DUP5 SLOAD PUSH2 0x692 JUMP JUMPDEST DUP3 SSTORE POP POP POP POP JUMP JUMPDEST PUSH0 SWAP1 JUMP JUMPDEST PUSH2 0x750 PUSH2 0x744 JUMP JUMPDEST PUSH2 0x75B DUP2 DUP5 DUP5 PUSH2 0x71F JUMP JUMPDEST POP POP POP JUMP JUMPDEST JUMPDEST DUP2 DUP2 LT ISZERO PUSH2 0x77E JUMPI PUSH2 0x773 PUSH0 DUP3 PUSH2 0x748 JUMP JUMPDEST PUSH1 0x1 DUP2 ADD SWAP1 POP PUSH2 0x761 JUMP JUMPDEST POP POP JUMP JUMPDEST PUSH1 0x1F DUP3 GT ISZERO PUSH2 0x7C3 JUMPI PUSH2 0x794 DUP2 PUSH2 0x665 JUMP JUMPDEST PUSH2 0x79D DUP5 PUSH2 0x677 JUMP JUMPDEST DUP2 ADD PUSH1 0x20 DUP6 LT ISZERO PUSH2 0x7AC JUMPI DUP2 SWAP1 POP JUMPDEST PUSH2 0x7C0 PUSH2 0x7B8 DUP6 PUSH2 0x677 JUMP JUMPDEST DUP4 ADD DUP3 PUSH2 0x760 JUMP JUMPDEST POP POP JUMPDEST POP POP POP JUMP JUMPDEST PUSH0 DUP3 DUP3 SHR SWAP1 POP SWAP3 SWAP2 POP POP JUMP JUMPDEST PUSH0 PUSH2 0x7E3 PUSH0 NOT DUP5 PUSH1 0x8 MUL PUSH2 0x7C8 JUMP JUMPDEST NOT DUP1 DUP4 AND SWAP2 POP POP SWAP3 SWAP2 POP POP JUMP JUMPDEST PUSH0 PUSH2 0x7FB DUP4 DUP4 PUSH2 0x7D4 JUMP JUMPDEST SWAP2 POP DUP3 PUSH1 0x2 MUL DUP3 OR SWAP1 POP SWAP3 SWAP2 POP POP JUMP JUMPDEST PUSH2 0x814 DUP3 PUSH2 0x5D1 JUMP JUMPDEST PUSH8 0xFFFFFFFFFFFFFFFF DUP2 GT ISZERO PUSH2 0x82D JUMPI PUSH2 0x82C PUSH2 0x5DB JUMP JUMPDEST JUMPDEST PUSH2 0x837 DUP3 SLOAD PUSH2 0x635 JUMP JUMPDEST PUSH2 0x842 DUP3 DUP3 DUP6 PUSH2 0x782 JUMP JUMPDEST PUSH0 PUSH1 0x20 SWAP1 POP PUSH1 0x1F DUP4 GT PUSH1 0x1 DUP2 EQ PUSH2 0x873 JUMPI PUSH0 DUP5 ISZERO PUSH2 0x861 JUMPI DUP3 DUP8 ADD MLOAD SWAP1 POP JUMPDEST PUSH2 0x86B DUP6 DUP3 PUSH2 0x7F0 JUMP JUMPDEST DUP7 SSTORE POP PUSH2 0x8D2 JUMP JUMPDEST PUSH1 0x1F NOT DUP5 AND PUSH2 0x881 DUP7 PUSH2 0x665 JUMP JUMPDEST PUSH0 JUMPDEST DUP3 DUP2 LT ISZERO PUSH2 0x8A8 JUMPI DUP5 DUP10 ADD MLOAD DUP3 SSTORE PUSH1 0x1 DUP3 ADD SWAP2 POP PUSH1 0x20 DUP6 ADD SWAP5 POP PUSH1 0x20 DUP2 ADD SWAP1 POP PUSH2 0x883 JUMP JUMPDEST DUP7 DUP4 LT ISZERO PUSH2 0x8C5 JUMPI DUP5 DUP10 ADD MLOAD PUSH2 0x8C1 PUSH1 0x1F DUP10 AND DUP3 PUSH2 0x7D4 JUMP JUMPDEST DUP4 SSTORE POP JUMPDEST PUSH1 0x1 PUSH1 0x2 DUP9 MUL ADD DUP9 SSTORE POP POP POP JUMPDEST POP POP POP POP POP POP JUMP JUMPDEST PUSH0 DUP2 SWAP1 POP SWAP2 SWAP1 POP JUMP JUMPDEST PUSH0 PUSH2 0x8FD PUSH2 0x8F8 PUSH2 0x8F3 DUP5 PUSH2 0x8DA JUMP JUMPDEST PUSH2 0x6EC JUMP JUMPDEST PUSH2 0x6E3 JUMP JUMPDEST SWAP1 POP SWAP2 SWAP1 POP JUMP JUMPDEST PUSH2 0x90D DUP2 PUSH2 0x8E3 JUMP JUMPDEST DUP3 MSTORE POP POP JUMP JUMPDEST PUSH0 PUSH1 0x20 DUP3 ADD SWAP1 POP PUSH2 0x926 PUSH0 DUP4 ADD DUP5 PUSH2 0x904 JUMP JUMPDEST SWAP3 SWAP2 POP POP JUMP JUMPDEST PUSH0 PUSH20 0xFFFFFFFFFFFFFFFFFFFFFFFFFFFFFFFFFFFFFFFF DUP3 AND SWAP1 POP SWAP2 SWAP1 POP JUMP JUMPDEST PUSH0 PUSH2 0x955 DUP3 PUSH2 0x92C JUMP JUMPDEST SWAP1 POP SWAP2 SWAP1 POP JUMP JUMPDEST PUSH2 0x965 DUP2 PUSH2 0x94B JUMP JUMPDEST DUP3 MSTORE POP POP JUMP JUMPDEST PUSH0 PUSH1 0x20 DUP3 ADD SWAP1 POP PUSH2 0x97E PUSH0 DUP4 ADD DUP5 PUSH2 0x95C JUMP JUMPDEST SWAP3 SWAP2 POP POP JUMP JUMPDEST PUSH2 0x98D DUP2 PUSH2 0x6E3 JUMP JUMPDEST DUP3 MSTORE POP POP JUMP JUMPDEST PUSH0 PUSH1 0x40 DUP3 ADD SWAP1 POP PUSH2 0x9A6 PUSH0 DUP4 ADD DUP6 PUSH2 0x984 JUMP JUMPDEST PUSH2 0x9B3 PUSH1 0x20 DUP4 ADD DUP5 PUSH2 0x984 JUMP JUMPDEST SWAP4 SWAP3 POP POP POP JUMP JUMPDEST PUSH32 0x4E487B7100000000000000000000000000000000000000000000000000000000 PUSH0 MSTORE PUSH1 0x11 PUSH1 0x4 MSTORE PUSH1 0x24 PUSH0 REVERT JUMPDEST PUSH0 PUSH2 0x9F1 DUP3 PUSH2 0x6E3 JUMP JUMPDEST SWAP2 POP PUSH2 0x9FC DUP4 PUSH2 0x6E3 JUMP JUMPDEST SWAP3 POP DUP3 DUP3 ADD SWAP1 POP DUP1 DUP3 GT ISZERO PUSH2 0xA14 JUMPI PUSH2 0xA13 PUSH2 0x9BA JUMP JUMPDEST JUMPDEST SWAP3 SWAP2 POP POP JUMP JUMPDEST PUSH0 PUSH1 0x60 DUP3 ADD SWAP1 POP PUSH2 0xA2D PUSH0 DUP4 ADD DUP7 PUSH2 0x95C JUMP JUMPDEST PUSH2 0xA3A PUSH1 0x20 DUP4 ADD DUP6 PUSH2 0x984 JUMP JUMPDEST PUSH2 0xA47 PUSH1 0x40 DUP4 ADD DUP5 PUSH2 0x984 JUMP JUMPDEST SWAP5 SWAP4 POP POP POP POP JUMP JUMPDEST PUSH0 PUSH1 0x20 DUP3 ADD SWAP1 POP PUSH2 0xA62 PUSH0 DUP4 ADD DUP5 PUSH2 0x984 JUMP JUMPDEST SWAP3 SWAP2 POP POP JUMP JUMPDEST PUSH1 0x80 MLOAD PUSH2 0x2CB4 PUSH2 0xA80 PUSH0 CODECOPY PUSH0 PUSH2 0x5F7 ADD MSTORE PUSH2 0x2CB4 PUSH0 RETURN INVALID PUSH1 0x80 PUSH1 0x40 MSTORE CALLVALUE DUP1 ISZERO PUSH2 0xF JUMPI PUSH0 DUP1 REVERT JUMPDEST POP PUSH1 0x4 CALLDATASIZE LT PUSH2 0x109 JUMPI PUSH0 CALLDATALOAD PUSH1 0xE0 SHR DUP1 PUSH4 0x4735C94C GT PUSH2 0xA0 JUMPI DUP1 PUSH4 0x8DA5CB5B GT PUSH2 0x6F JUMPI DUP1 PUSH4 0x8DA5CB5B EQ PUSH2 0x27D JUMPI DUP1 PUSH4 0x95D89B41 EQ PUSH2 0x29B JUMPI DUP1 PUSH4 0xA9059CBB EQ PUSH2 0x2B9 JUMPI DUP1 PUSH4 0xDD62ED3E EQ PUSH2 0x2E9 JUMPI DUP1 PUSH4 0xF2FDE38B EQ PUSH2 0x319 JUMPI PUSH2 0x109 JUMP JUMPDEST DUP1 PUSH4 0x4735C94C EQ PUSH2 0x21D JUMPI DUP1 PUSH4 0x70A08231 EQ PUSH2 0x227 JUMPI DUP1 PUSH4 0x715018A6 EQ PUSH2 0x257 JUMPI DUP1 PUSH4 0x79CC6790 EQ PUSH2 0x261 JUMPI PUSH2 0x109 JUMP JUMPDEST DUP1 PUSH4 0x23B872DD GT PUSH2 0xDC JUMPI DUP1 PUSH4 0x23B872DD EQ PUSH2 0x195 JUMPI DUP1 PUSH4 0x313CE567 EQ PUSH2 0x1C5 JUMPI DUP1 PUSH4 0x355274EA EQ PUSH2 0x1E3 JUMPI DUP1 PUSH4 0x42966C68 EQ PUSH2 0x201 JUMPI PUSH2 0x109 JUMP JUMPDEST DUP1 PUSH4 0x528395E EQ PUSH2 0x10D JUMPI DUP1 PUSH4 0x6FDDE03 EQ PUSH2 0x129 JUMPI DUP1 PUSH4 0x95EA7B3 EQ PUSH2 0x147 JUMPI DUP1 PUSH4 0x18160DDD EQ PUSH2 0x177 JUMPI JUMPDEST PUSH0 DUP1 REVERT JUMPDEST PUSH2 0x127 PUSH1 0x4 DUP1 CALLDATASIZE SUB DUP2 ADD SWAP1 PUSH2 0x122 SWAP2 SWAP1 PUSH2 0x1434 JUMP JUMPDEST PUSH2 0x335 JUMP JUMPDEST STOP JUMPDEST PUSH2 0x131 PUSH2 0x503 JUMP JUMPDEST PUSH1 0x40 MLOAD PUSH2 0x13E SWAP2 SWAP1 PUSH2 0x151C JUMP JUMPDEST PUSH1 0x40 MLOAD DUP1 SWAP2 SUB SWAP1 RETURN JUMPDEST PUSH2 0x161 PUSH1 0x4 DUP1 CALLDATASIZE SUB DUP2 ADD SWAP1 PUSH2 0x15C SWAP2 SWAP1 PUSH2 0x15C9 JUMP JUMPDEST PUSH2 0x593 JUMP JUMPDEST PUSH1 0x40 MLOAD PUSH2 0x16E SWAP2 SWAP1 PUSH2 0x1616 JUMP JUMPDEST PUSH1 0x40 MLOAD DUP1 SWAP2 SUB SWAP1 RETURN JUMPDEST PUSH2 0x17F PUSH2 0x5B5 JUMP JUMPDEST PUSH1 0x40 MLOAD PUSH2 0x18C SWAP2 SWAP1 PUSH2 0x163E JUMP JUMPDEST PUSH1 0x40 MLOAD DUP1 SWAP2 SUB SWAP1 RETURN JUMPDEST PUSH2 0x1AF PUSH1 0x4 DUP1 CALLDATASIZE SUB DUP2 ADD SWAP1 PUSH2 0x1AA SWAP2 SWAP1 PUSH2 0x1657 JUMP JUMPDEST PUSH2 0x5BE JUMP JUMPDEST PUSH1 0x40 MLOAD PUSH2 0x1BC SWAP2 SWAP1 PUSH2 0x1616 JUMP JUMPDEST PUSH1 0x40 MLOAD DUP1 SWAP2 SUB SWAP1 RETURN JUMPDEST PUSH2 0x1CD PUSH2 0x5EC JUMP JUMPDEST PUSH1 0x40 MLOAD PUSH2 0x1DA SWAP2 SWAP1 PUSH2 0x16C2 JUMP JUMPDEST PUSH1 0x40 MLOAD DUP1 SWAP2 SUB SWAP1 RETURN JUMPDEST PUSH2 0x1EB PUSH2 0x5F4 JUMP JUMPDEST PUSH1 0x40 MLOAD PUSH2 0x1F8 SWAP2 SWAP1 PUSH2 0x163E JUMP JUMPDEST PUSH1 0x40 MLOAD DUP1 SWAP2 SUB SWAP1 RETURN JUMPDEST PUSH2 0x21B PUSH1 0x4 DUP1 CALLDATASIZE SUB DUP2 ADD SWAP1 PUSH2 0x216 SWAP2 SWAP1 PUSH2 0x16DB JUMP JUMPDEST PUSH2 0x61B JUMP JUMPDEST STOP JUMPDEST PUSH2 0x225 PUSH2 0x62F JUMP JUMPDEST STOP JUMPDEST PUSH2 0x241 PUSH1 0x4 DUP1 CALLDATASIZE SUB DUP2 ADD SWAP1 PUSH2 0x23C SWAP2 SWAP1 PUSH2 0x1706 JUMP JUMPDEST PUSH2 0x76B JUMP JUMPDEST PUSH1 0x40 MLOAD PUSH2 0x24E SWAP2 SWAP1 PUSH2 0x163E JUMP JUMPDEST PUSH1 0x40 MLOAD DUP1 SWAP2 SUB SWAP1 RETURN JUMPDEST PUSH2 0x25F PUSH2 0x7B0 JUMP JUMPDEST STOP JUMPDEST PUSH2 0x27B PUSH1 0x4 DUP1 CALLDATASIZE SUB DUP2 ADD SWAP1 PUSH2 0x276 SWAP2 SWAP1 PUSH2 0x15C9 JUMP JUMPDEST PUSH2 0x7C3 JUMP JUMPDEST STOP JUMPDEST PUSH2 0x285 PUSH2 0x7E3 JUMP JUMPDEST PUSH1 0x40 MLOAD PUSH2 0x292 SWAP2 SWAP1 PUSH2 0x1740 JUMP JUMPDEST PUSH1 0x40 MLOAD DUP1 SWAP2 SUB SWAP1 RETURN JUMPDEST PUSH2 0x2A3 PUSH2 0x80B JUMP JUMPDEST PUSH1 0x40 MLOAD PUSH2 0x2B0 SWAP2 SWAP1 PUSH2 0x151C JUMP JUMPDEST PUSH1 0x40 MLOAD DUP1 SWAP2 SUB SWAP1 RETURN JUMPDEST PUSH2 0x2D3 PUSH1 0x4 DUP1 CALLDATASIZE SUB DUP2 ADD SWAP1 PUSH2 0x2CE SWAP2 SWAP1 PUSH2 0x15C9 JUMP JUMPDEST PUSH2 0x89B JUMP JUMPDEST PUSH1 0x40 MLOAD PUSH2 0x2E0 SWAP2 SWAP1 PUSH2 0x1616 JUMP JUMPDEST PUSH1 0x40 MLOAD DUP1 SWAP2 SUB SWAP1 RETURN JUMPDEST PUSH2 0x303 PUSH1 0x4 DUP1 CALLDATASIZE SUB DUP2 ADD SWAP1 PUSH2 0x2FE SWAP2 SWAP1 PUSH2 0x1759 JUMP JUMPDEST PUSH2 0x8BD JUMP JUMPDEST PUSH1 0x40 MLOAD PUSH2 0x310 SWAP2 SWAP1 PUSH2 0x163E JUMP JUMPDEST PUSH1 0x40 MLOAD DUP1 SWAP2 SUB SWAP1 RETURN JUMPDEST PUSH2 0x333 PUSH1 0x4 DUP1 CALLDATASIZE SUB DUP2 ADD SWAP1 PUSH2 0x32E SWAP2 SWAP1 PUSH2 0x1706 JUMP JUMPDEST PUSH2 0x93F JUMP JUMPDEST STOP JUMPDEST PUSH2 0x33D PUSH2 0x9C3 JUMP JUMPDEST PUSH0 PUSH1 0x1 PUSH1 0x7 SLOAD PUSH2 0x34D SWAP2 SWAP1 PUSH2 0x17C4 JUMP JUMPDEST SWAP1 POP PUSH0 PUSH20 0xFFFFFFFFFFFFFFFFFFFFFFFFFFFFFFFFFFFFFFFF AND PUSH1 0x6 PUSH0 DUP4 DUP2 MSTORE PUSH1 0x20 ADD SWAP1 DUP2 MSTORE PUSH1 0x20 ADD PUSH0 KECCAK256 PUSH0 SWAP1 SLOAD SWAP1 PUSH2 0x100 EXP SWAP1 DIV PUSH20 0xFFFFFFFFFFFFFFFFFFFFFFFFFFFFFFFFFFFFFFFF AND PUSH20 0xFFFFFFFFFFFFFFFFFFFFFFFFFFFFFFFFFFFFFFFF AND SUB PUSH2 0x3ED JUMPI PUSH1 0x40 MLOAD PUSH32 0x8C379A000000000000000000000000000000000000000000000000000000000 DUP2 MSTORE PUSH1 0x4 ADD PUSH2 0x3E4 SWAP1 PUSH2 0x1867 JUMP JUMPDEST PUSH1 0x40 MLOAD DUP1 SWAP2 SUB SWAP1 REVERT JUMPDEST PUSH0 PUSH1 0x6 PUSH0 DUP4 DUP2 MSTORE PUSH1 0x20 ADD SWAP1 DUP2 MSTORE PUSH1 0x20 ADD PUSH0 KECCAK256 PUSH0 SWAP1 SLOAD SWAP1 PUSH2 0x100 EXP SWAP1 DIV PUSH20 0xFFFFFFFFFFFFFFFFFFFFFFFFFFFFFFFFFFFFFFFF AND SWAP1 POP PUSH0 DUP2 PUSH20 0xFFFFFFFFFFFFFFFFFFFFFFFFFFFFFFFFFFFFFFFF AND PUSH4 0x9FE140B1 PUSH1 0x40 MLOAD DUP2 PUSH4 0xFFFFFFFF AND PUSH1 0xE0 SHL DUP2 MSTORE PUSH1 0x4 ADD PUSH1 0x20 PUSH1 0x40 MLOAD DUP1 DUP4 SUB DUP2 DUP7 GAS STATICCALL ISZERO DUP1 ISZERO PUSH2 0x46B JUMPI RETURNDATASIZE PUSH0 DUP1 RETURNDATACOPY RETURNDATASIZE PUSH0 REVERT JUMPDEST POP POP POP POP PUSH1 0x40 MLOAD RETURNDATASIZE PUSH1 0x1F NOT PUSH1 0x1F DUP3 ADD AND DUP3 ADD DUP1 PUSH1 0x40 MSTORE POP DUP2 ADD SWAP1 PUSH2 0x48F SWAP2 SWAP1 PUSH2 0x1899 JUMP JUMPDEST SWAP1 POP DUP2 PUSH20 0xFFFFFFFFFFFFFFFFFFFFFFFFFFFFFFFFFFFFFFFF AND PUSH4 0xC4960DD DUP8 DUP8 DUP8 PUSH1 0x40 MLOAD DUP5 PUSH4 0xFFFFFFFF AND PUSH1 0xE0 SHL DUP2 MSTORE PUSH1 0x4 ADD PUSH2 0x4CE SWAP4 SWAP3 SWAP2 SWAP1 PUSH2 0x19C7 JUMP JUMPDEST PUSH0 PUSH1 0x40 MLOAD DUP1 DUP4 SUB DUP2 PUSH0 DUP8 DUP1 EXTCODESIZE ISZERO DUP1 ISZERO PUSH2 0x4E5 JUMPI PUSH0 DUP1 REVERT JUMPDEST POP GAS CALL ISZERO DUP1 ISZERO PUSH2 0x4F7 JUMPI RETURNDATASIZE PUSH0 DUP1 RETURNDATACOPY RETURNDATASIZE PUSH0 REVERT JUMPDEST POP POP POP POP POP POP POP POP POP POP JUMP JUMPDEST PUSH1 0x60 PUSH1 0x3 DUP1 SLOAD PUSH2 0x512 SWAP1 PUSH2 0x1A37 JUMP JUMPDEST DUP1 PUSH1 0x1F ADD PUSH1 0x20 DUP1 SWAP2 DIV MUL PUSH1 0x20 ADD PUSH1 0x40 MLOAD SWAP1 DUP2 ADD PUSH1 0x40 MSTORE DUP1 SWAP3 SWAP2 SWAP1 DUP2 DUP2 MSTORE PUSH1 0x20 ADD DUP3 DUP1 SLOAD PUSH2 0x53E SWAP1 PUSH2 0x1A37 JUMP JUMPDEST DUP1 ISZERO PUSH2 0x589 JUMPI DUP1 PUSH1 0x1F LT PUSH2 0x560 JUMPI PUSH2 0x100 DUP1 DUP4 SLOAD DIV MUL DUP4 MSTORE SWAP2 PUSH1 0x20 ADD SWAP2 PUSH2 0x589 JUMP JUMPDEST DUP3 ADD SWAP2 SWAP1 PUSH0 MSTORE PUSH1 0x20 PUSH0 KECCAK256 SWAP1 JUMPDEST DUP2 SLOAD DUP2 MSTORE SWAP1 PUSH1 0x1 ADD SWAP1 PUSH1 0x20 ADD DUP1 DUP4 GT PUSH2 0x56C JUMPI DUP3 SWAP1 SUB PUSH1 0x1F AND DUP3 ADD SWAP2 JUMPDEST POP POP POP POP POP SWAP1 POP SWAP1 JUMP JUMPDEST PUSH0 DUP1 PUSH2 0x59D PUSH2 0xA4A JUMP JUMPDEST SWAP1 POP PUSH2 0x5AA DUP2 DUP6 DUP6 PUSH2 0xA51 JUMP JUMPDEST PUSH1 0x1 SWAP2 POP POP SWAP3 SWAP2 POP POP JUMP JUMPDEST PUSH0 PUSH1 0x2 SLOAD SWAP1 POP SWAP1 JUMP JUMPDEST PUSH0 DUP1 PUSH2 0x5C8 PUSH2 0xA4A JUMP JUMPDEST SWAP1 POP PUSH2 0x5D5 DUP6 DUP3 DUP6 PUSH2 0xA63 JUMP JUMPDEST PUSH2 0x5E0 DUP6 DUP6 DUP6 PUSH2 0xAF6 JUMP JUMPDEST PUSH1 0x1 SWAP2 POP POP SWAP4 SWAP3 POP POP POP JUMP JUMPDEST PUSH0 PUSH1 0x12 SWAP1 POP SWAP1 JUMP JUMPDEST PUSH0 PUSH32 0x0 SWAP1 POP SWAP1 JUMP JUMPDEST PUSH2 0x62C PUSH2 0x626 PUSH2 0xA4A JUMP JUMPDEST DUP3 PUSH2 0xBE6 JUMP JUMPDEST POP JUMP JUMPDEST PUSH2 0x637 PUSH2 0x9C3 JUMP JUMPDEST PUSH0 PUSH20 0xFFFFFFFFFFFFFFFFFFFFFFFFFFFFFFFFFFFFFFFF AND PUSH1 0x6 PUSH0 PUSH1 0x7 SLOAD DUP2 MSTORE PUSH1 0x20 ADD SWAP1 DUP2 MSTORE PUSH1 0x20 ADD PUSH0 KECCAK256 PUSH0 SWAP1 SLOAD SWAP1 PUSH2 0x100 EXP SWAP1 DIV PUSH20 0xFFFFFFFFFFFFFFFFFFFFFFFFFFFFFFFFFFFFFFFF AND PUSH20 0xFFFFFFFFFFFFFFFFFFFFFFFFFFFFFFFFFFFFFFFF AND EQ PUSH2 0x6D7 JUMPI PUSH1 0x40 MLOAD PUSH32 0x8C379A000000000000000000000000000000000000000000000000000000000 DUP2 MSTORE PUSH1 0x4 ADD PUSH2 0x6CE SWAP1 PUSH2 0x1AB1 JUMP JUMPDEST PUSH1 0x40 MLOAD DUP1 SWAP2 SUB SWAP1 REVERT JUMPDEST PUSH0 PUSH1 0x40 MLOAD PUSH2 0x6E4 SWAP1 PUSH2 0x11C3 JUMP JUMPDEST PUSH1 0x40 MLOAD DUP1 SWAP2 SUB SWAP1 PUSH0 CREATE DUP1 ISZERO DUP1 ISZERO PUSH2 0x6FD JUMPI RETURNDATASIZE PUSH0 DUP1 RETURNDATACOPY RETURNDATASIZE PUSH0 REVERT JUMPDEST POP SWAP1 POP DUP1 PUSH1 0x6 PUSH0 PUSH1 0x7 SLOAD DUP2 MSTORE PUSH1 0x20 ADD SWAP1 DUP2 MSTORE PUSH1 0x20 ADD PUSH0 KECCAK256 PUSH0 PUSH2 0x100 EXP DUP2 SLOAD DUP2 PUSH20 0xFFFFFFFFFFFFFFFFFFFFFFFFFFFFFFFFFFFFFFFF MUL NOT AND SWAP1 DUP4 PUSH20 0xFFFFFFFFFFFFFFFFFFFFFFFFFFFFFFFFFFFFFFFF AND MUL OR SWAP1 SSTORE POP PUSH1 0x7 PUSH0 DUP2 SLOAD DUP1 SWAP3 SWAP2 SWAP1 PUSH2 0x763 SWAP1 PUSH2 0x1ACF JUMP JUMPDEST SWAP2 SWAP1 POP SSTORE POP POP JUMP JUMPDEST PUSH0 DUP1 PUSH0 DUP4 PUSH20 0xFFFFFFFFFFFFFFFFFFFFFFFFFFFFFFFFFFFFFFFF AND PUSH20 0xFFFFFFFFFFFFFFFFFFFFFFFFFFFFFFFFFFFFFFFF AND DUP2 MSTORE PUSH1 0x20 ADD SWAP1 DUP2 MSTORE PUSH1 0x20 ADD PUSH0 KECCAK256 SLOAD SWAP1 POP SWAP2 SWAP1 POP JUMP JUMPDEST PUSH2 0x7B8 PUSH2 0x9C3 JUMP JUMPDEST PUSH2 0x7C1 PUSH0 PUSH2 0xC65 JUMP JUMPDEST JUMP JUMPDEST PUSH2 0x7D5 DUP3 PUSH2 0x7CF PUSH2 0xA4A JUMP JUMPDEST DUP4 PUSH2 0xA63 JUMP JUMPDEST PUSH2 0x7DF DUP3 DUP3 PUSH2 0xBE6 JUMP JUMPDEST POP POP JUMP JUMPDEST PUSH0 PUSH1 0x5 PUSH0 SWAP1 SLOAD SWAP1 PUSH2 0x100 EXP SWAP1 DIV PUSH20 0xFFFFFFFFFFFFFFFFFFFFFFFFFFFFFFFFFFFFFFFF AND SWAP1 POP SWAP1 JUMP JUMPDEST PUSH1 0x60 PUSH1 0x4 DUP1 SLOAD PUSH2 0x81A SWAP1 PUSH2 0x1A37 JUMP JUMPDEST DUP1 PUSH1 0x1F ADD PUSH1 0x20 DUP1 SWAP2 DIV MUL PUSH1 0x20 ADD PUSH1 0x40 MLOAD SWAP1 DUP2 ADD PUSH1 0x40 MSTORE DUP1 SWAP3 SWAP2 SWAP1 DUP2 DUP2 MSTORE PUSH1 0x20 ADD DUP3 DUP1 SLOAD PUSH2 0x846 SWAP1 PUSH2 0x1A37 JUMP JUMPDEST DUP1 ISZERO PUSH2 0x891 JUMPI DUP1 PUSH1 0x1F LT PUSH2 0x868 JUMPI PUSH2 0x100 DUP1 DUP4 SLOAD DIV MUL DUP4 MSTORE SWAP2 PUSH1 0x20 ADD SWAP2 PUSH2 0x891 JUMP JUMPDEST DUP3 ADD SWAP2 SWAP1 PUSH0 MSTORE PUSH1 0x20 PUSH0 KECCAK256 SWAP1 JUMPDEST DUP2 SLOAD DUP2 MSTORE SWAP1 PUSH1 0x1 ADD SWAP1 PUSH1 0x20 ADD DUP1 DUP4 GT PUSH2 0x874 JUMPI DUP3 SWAP1 SUB PUSH1 0x1F AND DUP3 ADD SWAP2 JUMPDEST POP POP POP POP POP SWAP1 POP SWAP1 JUMP JUMPDEST PUSH0 DUP1 PUSH2 0x8A5 PUSH2 0xA4A JUMP JUMPDEST SWAP1 POP PUSH2 0x8B2 DUP2 DUP6 DUP6 PUSH2 0xAF6 JUMP JUMPDEST PUSH1 0x1 SWAP2 POP POP SWAP3 SWAP2 POP POP JUMP JUMPDEST PUSH0 PUSH1 0x1 PUSH0 DUP5 PUSH20 0xFFFFFFFFFFFFFFFFFFFFFFFFFFFFFFFFFFFFFFFF AND PUSH20 0xFFFFFFFFFFFFFFFFFFFFFFFFFFFFFFFFFFFFFFFF AND DUP2 MSTORE PUSH1 0x20 ADD SWAP1 DUP2 MSTORE PUSH1 0x20 ADD PUSH0 KECCAK256 PUSH0 DUP4 PUSH20 0xFFFFFFFFFFFFFFFFFFFFFFFFFFFFFFFFFFFFFFFF AND PUSH20 0xFFFFFFFFFFFFFFFFFFFFFFFFFFFFFFFFFFFFFFFF AND DUP2 MSTORE PUSH1 0x20 ADD SWAP1 DUP2 MSTORE PUSH1 0x20 ADD PUSH0 KECCAK256 SLOAD SWAP1 POP SWAP3 SWAP2 POP POP JUMP JUMPDEST PUSH2 0x947 PUSH2 0x9C3 JUMP JUMPDEST PUSH0 PUSH20 0xFFFFFFFFFFFFFFFFFFFFFFFFFFFFFFFFFFFFFFFF AND DUP2 PUSH20 0xFFFFFFFFFFFFFFFFFFFFFFFFFFFFFFFFFFFFFFFF AND SUB PUSH2 0x9B7 JUMPI PUSH0 PUSH1 0x40 MLOAD PUSH32 0x1E4FBDF700000000000000000000000000000000000000000000000000000000 DUP2 MSTORE PUSH1 0x4 ADD PUSH2 0x9AE SWAP2 SWAP1 PUSH2 0x1740 JUMP JUMPDEST PUSH1 0x40 MLOAD DUP1 SWAP2 SUB SWAP1 REVERT JUMPDEST PUSH2 0x9C0 DUP2 PUSH2 0xC65 JUMP JUMPDEST POP JUMP JUMPDEST PUSH2 0x9CB PUSH2 0xA4A JUMP JUMPDEST PUSH20 0xFFFFFFFFFFFFFFFFFFFFFFFFFFFFFFFFFFFFFFFF AND PUSH2 0x9E9 PUSH2 0x7E3 JUMP JUMPDEST PUSH20 0xFFFFFFFFFFFFFFFFFFFFFFFFFFFFFFFFFFFFFFFF AND EQ PUSH2 0xA48 JUMPI PUSH2 0xA0C PUSH2 0xA4A JUMP JUMPDEST PUSH1 0x40 MLOAD PUSH32 0x118CDAA700000000000000000000000000000000000000000000000000000000 DUP2 MSTORE PUSH1 0x4 ADD PUSH2 0xA3F SWAP2 SWAP1 PUSH2 0x1740 JUMP JUMPDEST PUSH1 0x40 MLOAD DUP1 SWAP2 SUB SWAP1 REVERT JUMPDEST JUMP JUMPDEST PUSH0 CALLER SWAP1 POP SWAP1 JUMP JUMPDEST PUSH2 0xA5E DUP4 DUP4 DUP4 PUSH1 0x1 PUSH2 0xD28 JUMP JUMPDEST POP POP POP JUMP JUMPDEST PUSH0 PUSH2 0xA6E DUP5 DUP5 PUSH2 0x8BD JUMP JUMPDEST SWAP1 POP PUSH32 0xFFFFFFFFFFFFFFFFFFFFFFFFFFFFFFFFFFFFFFFFFFFFFFFFFFFFFFFFFFFFFFFF DUP2 LT ISZERO PUSH2 0xAF0 JUMPI DUP2 DUP2 LT ISZERO PUSH2 0xAE1 JUMPI DUP3 DUP2 DUP4 PUSH1 0x40 MLOAD PUSH32 0xFB8F41B200000000000000000000000000000000000000000000000000000000 DUP2 MSTORE PUSH1 0x4 ADD PUSH2 0xAD8 SWAP4 SWAP3 SWAP2 SWAP1 PUSH2 0x1B16 JUMP JUMPDEST PUSH1 0x40 MLOAD DUP1 SWAP2 SUB SWAP1 REVERT JUMPDEST PUSH2 0xAEF DUP5 DUP5 DUP5 DUP5 SUB PUSH0 PUSH2 0xD28 JUMP JUMPDEST JUMPDEST POP POP POP POP JUMP JUMPDEST PUSH0 PUSH20 0xFFFFFFFFFFFFFFFFFFFFFFFFFFFFFFFFFFFFFFFF AND DUP4 PUSH20 0xFFFFFFFFFFFFFFFFFFFFFFFFFFFFFFFFFFFFFFFF AND SUB PUSH2 0xB66 JUMPI PUSH0 PUSH1 0x40 MLOAD PUSH32 0x96C6FD1E00000000000000000000000000000000000000000000000000000000 DUP2 MSTORE PUSH1 0x4 ADD PUSH2 0xB5D SWAP2 SWAP1 PUSH2 0x1740 JUMP JUMPDEST PUSH1 0x40 MLOAD DUP1 SWAP2 SUB SWAP1 REVERT JUMPDEST PUSH0 PUSH20 0xFFFFFFFFFFFFFFFFFFFFFFFFFFFFFFFFFFFFFFFF AND DUP3 PUSH20 0xFFFFFFFFFFFFFFFFFFFFFFFFFFFFFFFFFFFFFFFF AND SUB PUSH2 0xBD6 JUMPI PUSH0 PUSH1 0x40 MLOAD PUSH32 0xEC442F0500000000000000000000000000000000000000000000000000000000 DUP2 MSTORE PUSH1 0x4 ADD PUSH2 0xBCD SWAP2 SWAP1 PUSH2 0x1740 JUMP JUMPDEST PUSH1 0x40 MLOAD DUP1 SWAP2 SUB SWAP1 REVERT JUMPDEST PUSH2 0xBE1 DUP4 DUP4 DUP4 PUSH2 0xEF7 JUMP JUMPDEST POP POP POP JUMP JUMPDEST PUSH0 PUSH20 0xFFFFFFFFFFFFFFFFFFFFFFFFFFFFFFFFFFFFFFFF AND DUP3 PUSH20 0xFFFFFFFFFFFFFFFFFFFFFFFFFFFFFFFFFFFFFFFF AND SUB PUSH2 0xC56 JUMPI PUSH0 PUSH1 0x40 MLOAD PUSH32 0x96C6FD1E00000000000000000000000000000000000000000000000000000000 DUP2 MSTORE PUSH1 0x4 ADD PUSH2 0xC4D SWAP2 SWAP1 PUSH2 0x1740 JUMP JUMPDEST PUSH1 0x40 MLOAD DUP1 SWAP2 SUB SWAP1 REVERT JUMPDEST PUSH2 0xC61 DUP3 PUSH0 DUP4 PUSH2 0xEF7 JUMP JUMPDEST POP POP JUMP JUMPDEST PUSH0 PUSH1 0x5 PUSH0 SWAP1 SLOAD SWAP1 PUSH2 0x100 EXP SWAP1 DIV PUSH20 0xFFFFFFFFFFFFFFFFFFFFFFFFFFFFFFFFFFFFFFFF AND SWAP1 POP DUP2 PUSH1 0x5 PUSH0 PUSH2 0x100 EXP DUP2 SLOAD DUP2 PUSH20 0xFFFFFFFFFFFFFFFFFFFFFFFFFFFFFFFFFFFFFFFF MUL NOT AND SWAP1 DUP4 PUSH20 0xFFFFFFFFFFFFFFFFFFFFFFFFFFFFFFFFFFFFFFFF AND MUL OR SWAP1 SSTORE POP DUP2 PUSH20 0xFFFFFFFFFFFFFFFFFFFFFFFFFFFFFFFFFFFFFFFF AND DUP2 PUSH20 0xFFFFFFFFFFFFFFFFFFFFFFFFFFFFFFFFFFFFFFFF AND PUSH32 0x8BE0079C531659141344CD1FD0A4F28419497F9722A3DAAFE3B4186F6B6457E0 PUSH1 0x40 MLOAD PUSH1 0x40 MLOAD DUP1 SWAP2 SUB SWAP1 LOG3 POP POP JUMP JUMPDEST PUSH0 PUSH20 0xFFFFFFFFFFFFFFFFFFFFFFFFFFFFFFFFFFFFFFFF AND DUP5 PUSH20 0xFFFFFFFFFFFFFFFFFFFFFFFFFFFFFFFFFFFFFFFF AND SUB PUSH2 0xD98 JUMPI PUSH0 PUSH1 0x40 MLOAD PUSH32 0xE602DF0500000000000000000000000000000000000000000000000000000000 DUP2 MSTORE PUSH1 0x4 ADD PUSH2 0xD8F SWAP2 SWAP1 PUSH2 0x1740 JUMP JUMPDEST PUSH1 0x40 MLOAD DUP1 SWAP2 SUB SWAP1 REVERT JUMPDEST PUSH0 PUSH20 0xFFFFFFFFFFFFFFFFFFFFFFFFFFFFFFFFFFFFFFFF AND DUP4 PUSH20 0xFFFFFFFFFFFFFFFFFFFFFFFFFFFFFFFFFFFFFFFF AND SUB PUSH2 0xE08 JUMPI PUSH0 PUSH1 0x40 MLOAD PUSH32 0x94280D6200000000000000000000000000000000000000000000000000000000 DUP2 MSTORE PUSH1 0x4 ADD PUSH2 0xDFF SWAP2 SWAP1 PUSH2 0x1740 JUMP JUMPDEST PUSH1 0x40 MLOAD DUP1 SWAP2 SUB SWAP1 REVERT JUMPDEST DUP2 PUSH1 0x1 PUSH0 DUP7 PUSH20 0xFFFFFFFFFFFFFFFFFFFFFFFFFFFFFFFFFFFFFFFF AND PUSH20 0xFFFFFFFFFFFFFFFFFFFFFFFFFFFFFFFFFFFFFFFF AND DUP2 MSTORE PUSH1 0x20 ADD SWAP1 DUP2 MSTORE PUSH1 0x20 ADD PUSH0 KECCAK256 PUSH0 DUP6 PUSH20 0xFFFFFFFFFFFFFFFFFFFFFFFFFFFFFFFFFFFFFFFF AND PUSH20 0xFFFFFFFFFFFFFFFFFFFFFFFFFFFFFFFFFFFFFFFF AND DUP2 MSTORE PUSH1 0x20 ADD SWAP1 DUP2 MSTORE PUSH1 0x20 ADD PUSH0 KECCAK256 DUP2 SWAP1 SSTORE POP DUP1 ISZERO PUSH2 0xEF1 JUMPI DUP3 PUSH20 0xFFFFFFFFFFFFFFFFFFFFFFFFFFFFFFFFFFFFFFFF AND DUP5 PUSH20 0xFFFFFFFFFFFFFFFFFFFFFFFFFFFFFFFFFFFFFFFF AND PUSH32 0x8C5BE1E5EBEC7D5BD14F71427D1E84F3DD0314C0F7B2291E5B200AC8C7C3B925 DUP5 PUSH1 0x40 MLOAD PUSH2 0xEE8 SWAP2 SWAP1 PUSH2 0x163E JUMP JUMPDEST PUSH1 0x40 MLOAD DUP1 SWAP2 SUB SWAP1 LOG3 JUMPDEST POP POP POP POP JUMP JUMPDEST PUSH2 0xF02 DUP4 DUP4 DUP4 PUSH2 0xF07 JUMP JUMPDEST POP POP POP JUMP JUMPDEST PUSH2 0xF12 DUP4 DUP4 DUP4 PUSH2 0xFAA JUMP JUMPDEST PUSH0 PUSH20 0xFFFFFFFFFFFFFFFFFFFFFFFFFFFFFFFFFFFFFFFF AND DUP4 PUSH20 0xFFFFFFFFFFFFFFFFFFFFFFFFFFFFFFFFFFFFFFFF AND SUB PUSH2 0xFA5 JUMPI PUSH0 PUSH2 0xF4E PUSH2 0x5F4 JUMP JUMPDEST SWAP1 POP PUSH0 PUSH2 0xF59 PUSH2 0x5B5 JUMP JUMPDEST SWAP1 POP DUP2 DUP2 GT ISZERO PUSH2 0xFA2 JUMPI DUP1 DUP3 PUSH1 0x40 MLOAD PUSH32 0x9E79F85400000000000000000000000000000000000000000000000000000000 DUP2 MSTORE PUSH1 0x4 ADD PUSH2 0xF99 SWAP3 SWAP2 SWAP1 PUSH2 0x1B4B JUMP JUMPDEST PUSH1 0x40 MLOAD DUP1 SWAP2 SUB SWAP1 REVERT JUMPDEST POP POP JUMPDEST POP POP POP JUMP JUMPDEST PUSH0 PUSH20 0xFFFFFFFFFFFFFFFFFFFFFFFFFFFFFFFFFFFFFFFF AND DUP4 PUSH20 0xFFFFFFFFFFFFFFFFFFFFFFFFFFFFFFFFFFFFFFFF AND SUB PUSH2 0xFFA JUMPI DUP1 PUSH1 0x2 PUSH0 DUP3 DUP3 SLOAD PUSH2 0xFEE SWAP2 SWAP1 PUSH2 0x1B72 JUMP JUMPDEST SWAP3 POP POP DUP2 SWAP1 SSTORE POP PUSH2 0x10C8 JUMP JUMPDEST PUSH0 DUP1 PUSH0 DUP6 PUSH20 0xFFFFFFFFFFFFFFFFFFFFFFFFFFFFFFFFFFFFFFFF AND PUSH20 0xFFFFFFFFFFFFFFFFFFFFFFFFFFFFFFFFFFFFFFFF AND DUP2 MSTORE PUSH1 0x20 ADD SWAP1 DUP2 MSTORE PUSH1 0x20 ADD PUSH0 KECCAK256 SLOAD SWAP1 POP DUP2 DUP2 LT ISZERO PUSH2 0x1083 JUMPI DUP4 DUP2 DUP4 PUSH1 0x40 MLOAD PUSH32 0xE450D38C00000000000000000000000000000000000000000000000000000000 DUP2 MSTORE PUSH1 0x4 ADD PUSH2 0x107A SWAP4 SWAP3 SWAP2 SWAP1 PUSH2 0x1B16 JUMP JUMPDEST PUSH1 0x40 MLOAD DUP1 SWAP2 SUB SWAP1 REVERT JUMPDEST DUP2 DUP2 SUB PUSH0 DUP1 DUP7 PUSH20 0xFFFFFFFFFFFFFFFFFFFFFFFFFFFFFFFFFFFFFFFF AND PUSH20 0xFFFFFFFFFFFFFFFFFFFFFFFFFFFFFFFFFFFFFFFF AND DUP2 MSTORE PUSH1 0x20 ADD SWAP1 DUP2 MSTORE PUSH1 0x20 ADD PUSH0 KECCAK256 DUP2 SWAP1 SSTORE POP POP JUMPDEST PUSH0 PUSH20 0xFFFFFFFFFFFFFFFFFFFFFFFFFFFFFFFFFFFFFFFF AND DUP3 PUSH20 0xFFFFFFFFFFFFFFFFFFFFFFFFFFFFFFFFFFFFFFFF AND SUB PUSH2 0x110F JUMPI DUP1 PUSH1 0x2 PUSH0 DUP3 DUP3 SLOAD SUB SWAP3 POP POP DUP2 SWAP1 SSTORE POP PUSH2 0x1159 JUMP JUMPDEST DUP1 PUSH0 DUP1 DUP5 PUSH20 0xFFFFFFFFFFFFFFFFFFFFFFFFFFFFFFFFFFFFFFFF AND PUSH20 0xFFFFFFFFFFFFFFFFFFFFFFFFFFFFFFFFFFFFFFFF AND DUP2 MSTORE PUSH1 0x20 ADD SWAP1 DUP2 MSTORE PUSH1 0x20 ADD PUSH0 KECCAK256 PUSH0 DUP3 DUP3 SLOAD ADD SWAP3 POP POP DUP2 SWAP1 SSTORE POP JUMPDEST DUP2 PUSH20 0xFFFFFFFFFFFFFFFFFFFFFFFFFFFFFFFFFFFFFFFF AND DUP4 PUSH20 0xFFFFFFFFFFFFFFFFFFFFFFFFFFFFFFFFFFFFFFFF AND PUSH32 0xDDF252AD1BE2C89B69C2B068FC378DAA952BA7F163C4A11628F55A4DF523B3EF DUP4 PUSH1 0x40 MLOAD PUSH2 0x11B6 SWAP2 SWAP1 PUSH2 0x163E JUMP JUMPDEST PUSH1 0x40 MLOAD DUP1 SWAP2 SUB SWAP1 LOG3 POP POP POP JUMP JUMPDEST PUSH2 0x10D9 DUP1 PUSH2 0x1BA6 DUP4 CODECOPY ADD SWAP1 JUMP JUMPDEST PUSH0 PUSH1 0x40 MLOAD SWAP1 POP SWAP1 JUMP JUMPDEST PUSH0 DUP1 REVERT JUMPDEST PUSH0 DUP1 REVERT JUMPDEST PUSH0 DUP1 REVERT JUMPDEST PUSH0 DUP1 REVERT JUMPDEST PUSH0 PUSH1 0x1F NOT PUSH1 0x1F DUP4 ADD AND SWAP1 POP SWAP2 SWAP1 POP JUMP JUMPDEST PUSH32 0x4E487B7100000000000000000000000000000000000000000000000000000000 PUSH0 MSTORE PUSH1 0x41 PUSH1 0x4 MSTORE PUSH1 0x24 PUSH0 REVERT JUMPDEST PUSH2 0x122F DUP3 PUSH2 0x11E9 JUMP JUMPDEST DUP2 ADD DUP2 DUP2 LT PUSH8 0xFFFFFFFFFFFFFFFF DUP3 GT OR ISZERO PUSH2 0x124E JUMPI PUSH2 0x124D PUSH2 0x11F9 JUMP JUMPDEST JUMPDEST DUP1 PUSH1 0x40 MSTORE POP POP POP JUMP JUMPDEST PUSH0 PUSH2 0x1260 PUSH2 0x11D0 JUMP JUMPDEST SWAP1 POP PUSH2 0x126C DUP3 DUP3 PUSH2 0x1226 JUMP JUMPDEST SWAP2 SWAP1 POP JUMP JUMPDEST PUSH0 PUSH8 0xFFFFFFFFFFFFFFFF DUP3 GT ISZERO PUSH2 0x128B JUMPI PUSH2 0x128A PUSH2 0x11F9 JUMP JUMPDEST JUMPDEST PUSH2 0x1294 DUP3 PUSH2 0x11E9 JUMP JUMPDEST SWAP1 POP PUSH1 0x20 DUP2 ADD SWAP1 POP SWAP2 SWAP1 POP JUMP JUMPDEST DUP3 DUP2 DUP4 CALLDATACOPY PUSH0 DUP4 DUP4 ADD MSTORE POP POP POP JUMP JUMPDEST PUSH0 PUSH2 0x12C1 PUSH2 0x12BC DUP5 PUSH2 0x1271 JUMP JUMPDEST PUSH2 0x1257 JUMP JUMPDEST SWAP1 POP DUP3 DUP2 MSTORE PUSH1 0x20 DUP2 ADD DUP5 DUP5 DUP5 ADD GT ISZERO PUSH2 0x12DD JUMPI PUSH2 0x12DC PUSH2 0x11E5 JUMP JUMPDEST JUMPDEST PUSH2 0x12E8 DUP5 DUP3 DUP6 PUSH2 0x12A1 JUMP JUMPDEST POP SWAP4 SWAP3 POP POP POP JUMP JUMPDEST PUSH0 DUP3 PUSH1 0x1F DUP4 ADD SLT PUSH2 0x1304 JUMPI PUSH2 0x1303 PUSH2 0x11E1 JUMP JUMPDEST JUMPDEST DUP2 CALLDATALOAD PUSH2 0x1314 DUP5 DUP3 PUSH1 0x20 DUP7 ADD PUSH2 0x12AF JUMP JUMPDEST SWAP2 POP POP SWAP3 SWAP2 POP POP JUMP JUMPDEST PUSH0 PUSH8 0xFFFFFFFFFFFFFFFF DUP3 GT ISZERO PUSH2 0x1337 JUMPI PUSH2 0x1336 PUSH2 0x11F9 JUMP JUMPDEST JUMPDEST PUSH1 0x20 DUP3 MUL SWAP1 POP PUSH1 0x20 DUP2 ADD SWAP1 POP SWAP2 SWAP1 POP JUMP JUMPDEST PUSH0 DUP1 REVERT JUMPDEST PUSH0 PUSH2 0x135E PUSH2 0x1359 DUP5 PUSH2 0x131D JUMP JUMPDEST PUSH2 0x1257 JUMP JUMPDEST SWAP1 POP DUP1 DUP4 DUP3 MSTORE PUSH1 0x20 DUP3 ADD SWAP1 POP PUSH1 0x20 DUP5 MUL DUP4 ADD DUP6 DUP2 GT ISZERO PUSH2 0x1381 JUMPI PUSH2 0x1380 PUSH2 0x1348 JUMP JUMPDEST JUMPDEST DUP4 JUMPDEST DUP2 DUP2 LT ISZERO PUSH2 0x13C8 JUMPI DUP1 CALLDATALOAD PUSH8 0xFFFFFFFFFFFFFFFF DUP2 GT ISZERO PUSH2 0x13A6 JUMPI PUSH2 0x13A5 PUSH2 0x11E1 JUMP JUMPDEST JUMPDEST DUP1 DUP7 ADD PUSH2 0x13B3 DUP10 DUP3 PUSH2 0x12F0 JUMP JUMPDEST DUP6 MSTORE PUSH1 0x20 DUP6 ADD SWAP5 POP POP POP PUSH1 0x20 DUP2 ADD SWAP1 POP PUSH2 0x1383 JUMP JUMPDEST POP POP POP SWAP4 SWAP3 POP POP POP JUMP JUMPDEST PUSH0 DUP3 PUSH1 0x1F DUP4 ADD SLT PUSH2 0x13E6 JUMPI PUSH2 0x13E5 PUSH2 0x11E1 JUMP JUMPDEST JUMPDEST DUP2 CALLDATALOAD PUSH2 0x13F6 DUP5 DUP3 PUSH1 0x20 DUP7 ADD PUSH2 0x134C JUMP JUMPDEST SWAP2 POP POP SWAP3 SWAP2 POP POP JUMP JUMPDEST PUSH0 DUP2 ISZERO ISZERO SWAP1 POP SWAP2 SWAP1 POP JUMP JUMPDEST PUSH2 0x1413 DUP2 PUSH2 0x13FF JUMP JUMPDEST DUP2 EQ PUSH2 0x141D JUMPI PUSH0 DUP1 REVERT JUMPDEST POP JUMP JUMPDEST PUSH0 DUP2 CALLDATALOAD SWAP1 POP PUSH2 0x142E DUP2 PUSH2 0x140A JUMP JUMPDEST SWAP3 SWAP2 POP POP JUMP JUMPDEST PUSH0 DUP1 PUSH0 PUSH1 0x60 DUP5 DUP7 SUB SLT ISZERO PUSH2 0x144B JUMPI PUSH2 0x144A PUSH2 0x11D9 JUMP JUMPDEST JUMPDEST PUSH0 DUP5 ADD CALLDATALOAD PUSH8 0xFFFFFFFFFFFFFFFF DUP2 GT ISZERO PUSH2 0x1468 JUMPI PUSH2 0x1467 PUSH2 0x11DD JUMP JUMPDEST JUMPDEST PUSH2 0x1474 DUP7 DUP3 DUP8 ADD PUSH2 0x12F0 JUMP JUMPDEST SWAP4 POP POP PUSH1 0x20 DUP5 ADD CALLDATALOAD PUSH8 0xFFFFFFFFFFFFFFFF DUP2 GT ISZERO PUSH2 0x1495 JUMPI PUSH2 0x1494 PUSH2 0x11DD JUMP JUMPDEST JUMPDEST PUSH2 0x14A1 DUP7 DUP3 DUP8 ADD PUSH2 0x13D2 JUMP JUMPDEST SWAP3 POP POP PUSH1 0x40 PUSH2 0x14B2 DUP7 DUP3 DUP8 ADD PUSH2 0x1420 JUMP JUMPDEST SWAP2 POP POP SWAP3 POP SWAP3 POP SWAP3 JUMP JUMPDEST PUSH0 DUP2 MLOAD SWAP1 POP SWAP2 SWAP1 POP JUMP JUMPDEST PUSH0 DUP3 DUP3 MSTORE PUSH1 0x20 DUP3 ADD SWAP1 POP SWAP3 SWAP2 POP POP JUMP JUMPDEST DUP3 DUP2 DUP4 MCOPY PUSH0 DUP4 DUP4 ADD MSTORE POP POP POP JUMP JUMPDEST PUSH0 PUSH2 0x14EE DUP3 PUSH2 0x14BC JUMP JUMPDEST PUSH2 0x14F8 DUP2 DUP6 PUSH2 0x14C6 JUMP JUMPDEST SWAP4 POP PUSH2 0x1508 DUP2 DUP6 PUSH1 0x20 DUP7 ADD PUSH2 0x14D6 JUMP JUMPDEST PUSH2 0x1511 DUP2 PUSH2 0x11E9 JUMP JUMPDEST DUP5 ADD SWAP2 POP POP SWAP3 SWAP2 POP POP JUMP JUMPDEST PUSH0 PUSH1 0x20 DUP3 ADD SWAP1 POP DUP2 DUP2 SUB PUSH0 DUP4 ADD MSTORE PUSH2 0x1534 DUP2 DUP5 PUSH2 0x14E4 JUMP JUMPDEST SWAP1 POP SWAP3 SWAP2 POP POP JUMP JUMPDEST PUSH0 PUSH20 0xFFFFFFFFFFFFFFFFFFFFFFFFFFFFFFFFFFFFFFFF DUP3 AND SWAP1 POP SWAP2 SWAP1 POP JUMP JUMPDEST PUSH0 PUSH2 0x1565 DUP3 PUSH2 0x153C JUMP JUMPDEST SWAP1 POP SWAP2 SWAP1 POP JUMP JUMPDEST PUSH2 0x1575 DUP2 PUSH2 0x155B JUMP JUMPDEST DUP2 EQ PUSH2 0x157F JUMPI PUSH0 DUP1 REVERT JUMPDEST POP JUMP JUMPDEST PUSH0 DUP2 CALLDATALOAD SWAP1 POP PUSH2 0x1590 DUP2 PUSH2 0x156C JUMP JUMPDEST SWAP3 SWAP2 POP POP JUMP JUMPDEST PUSH0 DUP2 SWAP1 POP SWAP2 SWAP1 POP JUMP JUMPDEST PUSH2 0x15A8 DUP2 PUSH2 0x1596 JUMP JUMPDEST DUP2 EQ PUSH2 0x15B2 JUMPI PUSH0 DUP1 REVERT JUMPDEST POP JUMP JUMPDEST PUSH0 DUP2 CALLDATALOAD SWAP1 POP PUSH2 0x15C3 DUP2 PUSH2 0x159F JUMP JUMPDEST SWAP3 SWAP2 POP POP JUMP JUMPDEST PUSH0 DUP1 PUSH1 0x40 DUP4 DUP6 SUB SLT ISZERO PUSH2 0x15DF JUMPI PUSH2 0x15DE PUSH2 0x11D9 JUMP JUMPDEST JUMPDEST PUSH0 PUSH2 0x15EC DUP6 DUP3 DUP7 ADD PUSH2 0x1582 JUMP JUMPDEST SWAP3 POP POP PUSH1 0x20 PUSH2 0x15FD DUP6 DUP3 DUP7 ADD PUSH2 0x15B5 JUMP JUMPDEST SWAP2 POP POP SWAP3 POP SWAP3 SWAP1 POP JUMP JUMPDEST PUSH2 0x1610 DUP2 PUSH2 0x13FF JUMP JUMPDEST DUP3 MSTORE POP POP JUMP JUMPDEST PUSH0 PUSH1 0x20 DUP3 ADD SWAP1 POP PUSH2 0x1629 PUSH0 DUP4 ADD DUP5 PUSH2 0x1607 JUMP JUMPDEST SWAP3 SWAP2 POP POP JUMP JUMPDEST PUSH2 0x1638 DUP2 PUSH2 0x1596 JUMP JUMPDEST DUP3 MSTORE POP POP JUMP JUMPDEST PUSH0 PUSH1 0x20 DUP3 ADD SWAP1 POP PUSH2 0x1651 PUSH0 DUP4 ADD DUP5 PUSH2 0x162F JUMP JUMPDEST SWAP3 SWAP2 POP POP JUMP JUMPDEST PUSH0 DUP1 PUSH0 PUSH1 0x60 DUP5 DUP7 SUB SLT ISZERO PUSH2 0x166E JUMPI PUSH2 0x166D PUSH2 0x11D9 JUMP JUMPDEST JUMPDEST PUSH0 PUSH2 0x167B DUP7 DUP3 DUP8 ADD PUSH2 0x1582 JUMP JUMPDEST SWAP4 POP POP PUSH1 0x20 PUSH2 0x168C DUP7 DUP3 DUP8 ADD PUSH2 0x1582 JUMP JUMPDEST SWAP3 POP POP PUSH1 0x40 PUSH2 0x169D DUP7 DUP3 DUP8 ADD PUSH2 0x15B5 JUMP JUMPDEST SWAP2 POP POP SWAP3 POP SWAP3 POP SWAP3 JUMP JUMPDEST PUSH0 PUSH1 0xFF DUP3 AND SWAP1 POP SWAP2 SWAP1 POP JUMP JUMPDEST PUSH2 0x16BC DUP2 PUSH2 0x16A7 JUMP JUMPDEST DUP3 MSTORE POP POP JUMP JUMPDEST PUSH0 PUSH1 0x20 DUP3 ADD SWAP1 POP PUSH2 0x16D5 PUSH0 DUP4 ADD DUP5 PUSH2 0x16B3 JUMP JUMPDEST SWAP3 SWAP2 POP POP JUMP JUMPDEST PUSH0 PUSH1 0x20 DUP3 DUP5 SUB SLT ISZERO PUSH2 0x16F0 JUMPI PUSH2 0x16EF PUSH2 0x11D9 JUMP JUMPDEST JUMPDEST PUSH0 PUSH2 0x16FD DUP5 DUP3 DUP6 ADD PUSH2 0x15B5 JUMP JUMPDEST SWAP2 POP POP SWAP3 SWAP2 POP POP JUMP JUMPDEST PUSH0 PUSH1 0x20 DUP3 DUP5 SUB SLT ISZERO PUSH2 0x171B JUMPI PUSH2 0x171A PUSH2 0x11D9 JUMP JUMPDEST JUMPDEST PUSH0 PUSH2 0x1728 DUP5 DUP3 DUP6 ADD PUSH2 0x1582 JUMP JUMPDEST SWAP2 POP POP SWAP3 SWAP2 POP POP JUMP JUMPDEST PUSH2 0x173A DUP2 PUSH2 0x155B JUMP JUMPDEST DUP3 MSTORE POP POP JUMP JUMPDEST PUSH0 PUSH1 0x20 DUP3 ADD SWAP1 POP PUSH2 0x1753 PUSH0 DUP4 ADD DUP5 PUSH2 0x1731 JUMP JUMPDEST SWAP3 SWAP2 POP POP JUMP JUMPDEST PUSH0 DUP1 PUSH1 0x40 DUP4 DUP6 SUB SLT ISZERO PUSH2 0x176F JUMPI PUSH2 0x176E PUSH2 0x11D9 JUMP JUMPDEST JUMPDEST PUSH0 PUSH2 0x177C DUP6 DUP3 DUP7 ADD PUSH2 0x1582 JUMP JUMPDEST SWAP3 POP POP PUSH1 0x20 PUSH2 0x178D DUP6 DUP3 DUP7 ADD PUSH2 0x1582 JUMP JUMPDEST SWAP2 POP POP SWAP3 POP SWAP3 SWAP1 POP JUMP JUMPDEST PUSH32 0x4E487B7100000000000000000000000000000000000000000000000000000000 PUSH0 MSTORE PUSH1 0x11 PUSH1 0x4 MSTORE PUSH1 0x24 PUSH0 REVERT JUMPDEST PUSH0 PUSH2 0x17CE DUP3 PUSH2 0x1596 JUMP JUMPDEST SWAP2 POP PUSH2 0x17D9 DUP4 PUSH2 0x1596 JUMP JUMPDEST SWAP3 POP DUP3 DUP3 SUB SWAP1 POP DUP2 DUP2 GT ISZERO PUSH2 0x17F1 JUMPI PUSH2 0x17F0 PUSH2 0x1797 JUMP JUMPDEST JUMPDEST SWAP3 SWAP2 POP POP JUMP JUMPDEST PUSH32 0x6C617374657374206372756D6220646F6573206E6F742065786973742E205768 PUSH0 DUP3 ADD MSTORE PUSH32 0x6F206174652069743F0000000000000000000000000000000000000000000000 PUSH1 0x20 DUP3 ADD MSTORE POP JUMP JUMPDEST PUSH0 PUSH2 0x1851 PUSH1 0x29 DUP4 PUSH2 0x14C6 JUMP JUMPDEST SWAP2 POP PUSH2 0x185C DUP3 PUSH2 0x17F7 JUMP JUMPDEST PUSH1 0x40 DUP3 ADD SWAP1 POP SWAP2 SWAP1 POP JUMP JUMPDEST PUSH0 PUSH1 0x20 DUP3 ADD SWAP1 POP DUP2 DUP2 SUB PUSH0 DUP4 ADD MSTORE PUSH2 0x187E DUP2 PUSH2 0x1845 JUMP JUMPDEST SWAP1 POP SWAP2 SWAP1 POP JUMP JUMPDEST PUSH0 DUP2 MLOAD SWAP1 POP PUSH2 0x1893 DUP2 PUSH2 0x159F JUMP JUMPDEST SWAP3 SWAP2 POP POP JUMP JUMPDEST PUSH0 PUSH1 0x20 DUP3 DUP5 SUB SLT ISZERO PUSH2 0x18AE JUMPI PUSH2 0x18AD PUSH2 0x11D9 JUMP JUMPDEST JUMPDEST PUSH0 PUSH2 0x18BB DUP5 DUP3 DUP6 ADD PUSH2 0x1885 JUMP JUMPDEST SWAP2 POP POP SWAP3 SWAP2 POP POP JUMP JUMPDEST PUSH0 DUP2 MLOAD SWAP1 POP SWAP2 SWAP1 POP JUMP JUMPDEST PUSH0 DUP3 DUP3 MSTORE PUSH1 0x20 DUP3 ADD SWAP1 POP SWAP3 SWAP2 POP POP JUMP JUMPDEST PUSH0 DUP2 SWAP1 POP PUSH1 0x20 DUP3 ADD SWAP1 POP SWAP2 SWAP1 POP JUMP JUMPDEST PUSH0 DUP3 DUP3 MSTORE PUSH1 0x20 DUP3 ADD SWAP1 POP SWAP3 SWAP2 POP POP JUMP JUMPDEST PUSH0 PUSH2 0x1907 DUP3 PUSH2 0x14BC JUMP JUMPDEST PUSH2 0x1911 DUP2 DUP6 PUSH2 0x18ED JUMP JUMPDEST SWAP4 POP PUSH2 0x1921 DUP2 DUP6 PUSH1 0x20 DUP7 ADD PUSH2 0x14D6 JUMP JUMPDEST PUSH2 0x192A DUP2 PUSH2 0x11E9 JUMP JUMPDEST DUP5 ADD SWAP2 POP POP SWAP3 SWAP2 POP POP JUMP JUMPDEST PUSH0 PUSH2 0x1940 DUP4 DUP4 PUSH2 0x18FD JUMP JUMPDEST SWAP1 POP SWAP3 SWAP2 POP POP JUMP JUMPDEST PUSH0 PUSH1 0x20 DUP3 ADD SWAP1 POP SWAP2 SWAP1 POP JUMP JUMPDEST PUSH0 PUSH2 0x195E DUP3 PUSH2 0x18C4 JUMP JUMPDEST PUSH2 0x1968 DUP2 DUP6 PUSH2 0x18CE JUMP JUMPDEST SWAP4 POP DUP4 PUSH1 0x20 DUP3 MUL DUP6 ADD PUSH2 0x197A DUP6 PUSH2 0x18DE JUMP JUMPDEST DUP1 PUSH0 JUMPDEST DUP6 DUP2 LT ISZERO PUSH2 0x19B5 JUMPI DUP5 DUP5 SUB DUP10 MSTORE DUP2 MLOAD PUSH2 0x1996 DUP6 DUP3 PUSH2 0x1935 JUMP JUMPDEST SWAP5 POP PUSH2 0x19A1 DUP4 PUSH2 0x1948 JUMP JUMPDEST SWAP3 POP PUSH1 0x20 DUP11 ADD SWAP10 POP POP PUSH1 0x1 DUP2 ADD SWAP1 POP PUSH2 0x197D JUMP JUMPDEST POP DUP3 SWAP8 POP DUP8 SWAP6 POP POP POP POP POP POP SWAP3 SWAP2 POP POP JUMP JUMPDEST PUSH0 PUSH1 0x60 DUP3 ADD SWAP1 POP DUP2 DUP2 SUB PUSH0 DUP4 ADD MSTORE PUSH2 0x19DF DUP2 DUP7 PUSH2 0x14E4 JUMP JUMPDEST SWAP1 POP DUP2 DUP2 SUB PUSH1 0x20 DUP4 ADD MSTORE PUSH2 0x19F3 DUP2 DUP6 PUSH2 0x1954 JUMP JUMPDEST SWAP1 POP PUSH2 0x1A02 PUSH1 0x40 DUP4 ADD DUP5 PUSH2 0x1607 JUMP JUMPDEST SWAP5 SWAP4 POP POP POP POP JUMP JUMPDEST PUSH32 0x4E487B7100000000000000000000000000000000000000000000000000000000 PUSH0 MSTORE PUSH1 0x22 PUSH1 0x4 MSTORE PUSH1 0x24 PUSH0 REVERT JUMPDEST PUSH0 PUSH1 0x2 DUP3 DIV SWAP1 POP PUSH1 0x1 DUP3 AND DUP1 PUSH2 0x1A4E JUMPI PUSH1 0x7F DUP3 AND SWAP2 POP JUMPDEST PUSH1 0x20 DUP3 LT DUP2 SUB PUSH2 0x1A61 JUMPI PUSH2 0x1A60 PUSH2 0x1A0A JUMP JUMPDEST JUMPDEST POP SWAP2 SWAP1 POP JUMP JUMPDEST PUSH32 0x6372756D6220616C656164792062616B65640000000000000000000000000000 PUSH0 DUP3 ADD MSTORE POP JUMP JUMPDEST PUSH0 PUSH2 0x1A9B PUSH1 0x12 DUP4 PUSH2 0x14C6 JUMP JUMPDEST SWAP2 POP PUSH2 0x1AA6 DUP3 PUSH2 0x1A67 JUMP JUMPDEST PUSH1 0x20 DUP3 ADD SWAP1 POP SWAP2 SWAP1 POP JUMP JUMPDEST PUSH0 PUSH1 0x20 DUP3 ADD SWAP1 POP DUP2 DUP2 SUB PUSH0 DUP4 ADD MSTORE PUSH2 0x1AC8 DUP2 PUSH2 0x1A8F JUMP JUMPDEST SWAP1 POP SWAP2 SWAP1 POP JUMP JUMPDEST PUSH0 PUSH2 0x1AD9 DUP3 PUSH2 0x1596 JUMP JUMPDEST SWAP2 POP PUSH32 0xFFFFFFFFFFFFFFFFFFFFFFFFFFFFFFFFFFFFFFFFFFFFFFFFFFFFFFFFFFFFFFFF DUP3 SUB PUSH2 0x1B0B JUMPI PUSH2 0x1B0A PUSH2 0x1797 JUMP JUMPDEST JUMPDEST PUSH1 0x1 DUP3 ADD SWAP1 POP SWAP2 SWAP1 POP JUMP JUMPDEST PUSH0 PUSH1 0x60 DUP3 ADD SWAP1 POP PUSH2 0x1B29 PUSH0 DUP4 ADD DUP7 PUSH2 0x1731 JUMP JUMPDEST PUSH2 0x1B36 PUSH1 0x20 DUP4 ADD DUP6 PUSH2 0x162F JUMP JUMPDEST PUSH2 0x1B43 PUSH1 0x40 DUP4 ADD DUP5 PUSH2 0x162F JUMP JUMPDEST SWAP5 SWAP4 POP POP POP POP JUMP JUMPDEST PUSH0 PUSH1 0x40 DUP3 ADD SWAP1 POP PUSH2 0x1B5E PUSH0 DUP4 ADD DUP6 PUSH2 0x162F JUMP JUMPDEST PUSH2 0x1B6B PUSH1 0x20 DUP4 ADD DUP5 PUSH2 0x162F JUMP JUMPDEST SWAP4 SWAP3 POP POP POP JUMP JUMPDEST PUSH0 PUSH2 0x1B7C DUP3 PUSH2 0x1596 JUMP JUMPDEST SWAP2 POP PUSH2 0x1B87 DUP4 PUSH2 0x1596 JUMP JUMPDEST SWAP3 POP DUP3 DUP3 ADD SWAP1 POP DUP1 DUP3 GT ISZERO PUSH2 0x1B9F JUMPI PUSH2 0x1B9E PUSH2 0x1797 JUMP JUMPDEST JUMPDEST SWAP3 SWAP2 POP POP JUMP INVALID PUSH1 0x80 PUSH1 0x40 MSTORE CALLVALUE DUP1 ISZERO PUSH1 0xE JUMPI PUSH0 DUP1 REVERT JUMPDEST POP PUSH2 0x10BD DUP1 PUSH2 0x1C PUSH0 CODECOPY PUSH0 RETURN INVALID PUSH1 0x80 PUSH1 0x40 MSTORE CALLVALUE DUP1 ISZERO PUSH2 0xF JUMPI PUSH0 DUP1 REVERT JUMPDEST POP PUSH1 0x4 CALLDATASIZE LT PUSH2 0x4A JUMPI PUSH0 CALLDATALOAD PUSH1 0xE0 SHR DUP1 PUSH4 0xC4960DD EQ PUSH2 0x4E JUMPI DUP1 PUSH4 0x86E68B90 EQ PUSH2 0x6A JUMPI DUP1 PUSH4 0x9FE140B1 EQ PUSH2 0x9B JUMPI DUP1 PUSH4 0xB384ABEF EQ PUSH2 0xB9 JUMPI JUMPDEST PUSH0 DUP1 REVERT JUMPDEST PUSH2 0x68 PUSH1 0x4 DUP1 CALLDATASIZE SUB DUP2 ADD SWAP1 PUSH2 0x63 SWAP2 SWAP1 PUSH2 0x8F9 JUMP JUMPDEST PUSH2 0xD5 JUMP JUMPDEST STOP JUMPDEST PUSH2 0x84 PUSH1 0x4 DUP1 CALLDATASIZE SUB DUP2 ADD SWAP1 PUSH2 0x7F SWAP2 SWAP1 PUSH2 0x9B4 JUMP JUMPDEST PUSH2 0x219 JUMP JUMPDEST PUSH1 0x40 MLOAD PUSH2 0x92 SWAP3 SWAP2 SWAP1 PUSH2 0xA4E JUMP JUMPDEST PUSH1 0x40 MLOAD DUP1 SWAP2 SUB SWAP1 RETURN JUMPDEST PUSH2 0xA3 PUSH2 0x2D9 JUMP JUMPDEST PUSH1 0x40 MLOAD PUSH2 0xB0 SWAP2 SWAP1 PUSH2 0xA8B JUMP JUMPDEST PUSH1 0x40 MLOAD DUP1 SWAP2 SUB SWAP1 RETURN JUMPDEST PUSH2 0xD3 PUSH1 0x4 DUP1 CALLDATASIZE SUB DUP2 ADD SWAP1 PUSH2 0xCE SWAP2 SWAP1 PUSH2 0xAA4 JUMP JUMPDEST PUSH2 0x2E4 JUMP JUMPDEST STOP JUMPDEST PUSH1 0x2 DUP3 MLOAD LT ISZERO PUSH2 0x11A JUMPI PUSH1 0x40 MLOAD PUSH32 0x8C379A000000000000000000000000000000000000000000000000000000000 DUP2 MSTORE PUSH1 0x4 ADD PUSH2 0x111 SWAP1 PUSH2 0xB2C JUMP JUMPDEST PUSH1 0x40 MLOAD DUP1 SWAP2 SUB SWAP1 REVERT JUMPDEST PUSH0 PUSH1 0x1 DUP2 PUSH1 0x1 DUP2 SLOAD ADD DUP1 DUP3 SSTORE DUP1 SWAP2 POP POP SUB SWAP1 PUSH0 MSTORE PUSH1 0x20 PUSH0 KECCAK256 SWAP1 POP POP PUSH0 DUP1 PUSH1 0x1 PUSH0 DUP1 SLOAD SWAP1 POP PUSH2 0x148 SWAP2 SWAP1 PUSH2 0xB77 JUMP JUMPDEST DUP2 SLOAD DUP2 LT PUSH2 0x159 JUMPI PUSH2 0x158 PUSH2 0xBAA JUMP JUMPDEST JUMPDEST SWAP1 PUSH0 MSTORE PUSH1 0x20 PUSH0 KECCAK256 SWAP1 PUSH1 0x5 MUL ADD SWAP1 POP PUSH0 DUP4 MLOAD PUSH8 0xFFFFFFFFFFFFFFFF DUP2 GT ISZERO PUSH2 0x183 JUMPI PUSH2 0x182 PUSH2 0x6BE JUMP JUMPDEST JUMPDEST PUSH1 0x40 MLOAD SWAP1 DUP1 DUP3 MSTORE DUP1 PUSH1 0x20 MUL PUSH1 0x20 ADD DUP3 ADD PUSH1 0x40 MSTORE DUP1 ISZERO PUSH2 0x1B1 JUMPI DUP2 PUSH1 0x20 ADD PUSH1 0x20 DUP3 MUL DUP1 CALLDATASIZE DUP4 CALLDATACOPY DUP1 DUP3 ADD SWAP2 POP POP SWAP1 POP JUMPDEST POP SWAP1 POP DUP5 DUP3 PUSH0 ADD SWAP1 DUP2 PUSH2 0x1C4 SWAP2 SWAP1 PUSH2 0xDD1 JUMP JUMPDEST POP DUP4 DUP3 PUSH1 0x1 ADD SWAP1 DUP1 MLOAD SWAP1 PUSH1 0x20 ADD SWAP1 PUSH2 0x1DD SWAP3 SWAP2 SWAP1 PUSH2 0x578 JUMP JUMPDEST POP DUP1 DUP3 PUSH1 0x2 ADD SWAP1 DUP1 MLOAD SWAP1 PUSH1 0x20 ADD SWAP1 PUSH2 0x1F6 SWAP3 SWAP2 SWAP1 PUSH2 0x5CF JUMP JUMPDEST POP DUP3 DUP3 PUSH1 0x3 ADD PUSH0 PUSH2 0x100 EXP DUP2 SLOAD DUP2 PUSH1 0xFF MUL NOT AND SWAP1 DUP4 ISZERO ISZERO MUL OR SWAP1 SSTORE POP POP POP POP POP POP JUMP JUMPDEST PUSH0 DUP2 DUP2 SLOAD DUP2 LT PUSH2 0x227 JUMPI PUSH0 DUP1 REVERT JUMPDEST SWAP1 PUSH0 MSTORE PUSH1 0x20 PUSH0 KECCAK256 SWAP1 PUSH1 0x5 MUL ADD PUSH0 SWAP2 POP SWAP1 POP DUP1 PUSH0 ADD DUP1 SLOAD PUSH2 0x246 SWAP1 PUSH2 0xC04 JUMP JUMPDEST DUP1 PUSH1 0x1F ADD PUSH1 0x20 DUP1 SWAP2 DIV MUL PUSH1 0x20 ADD PUSH1 0x40 MLOAD SWAP1 DUP2 ADD PUSH1 0x40 MSTORE DUP1 SWAP3 SWAP2 SWAP1 DUP2 DUP2 MSTORE PUSH1 0x20 ADD DUP3 DUP1 SLOAD PUSH2 0x272 SWAP1 PUSH2 0xC04 JUMP JUMPDEST DUP1 ISZERO PUSH2 0x2BD JUMPI DUP1 PUSH1 0x1F LT PUSH2 0x294 JUMPI PUSH2 0x100 DUP1 DUP4 SLOAD DIV MUL DUP4 MSTORE SWAP2 PUSH1 0x20 ADD SWAP2 PUSH2 0x2BD JUMP JUMPDEST DUP3 ADD SWAP2 SWAP1 PUSH0 MSTORE PUSH1 0x20 PUSH0 KECCAK256 SWAP1 JUMPDEST DUP2 SLOAD DUP2 MSTORE SWAP1 PUSH1 0x1 ADD SWAP1 PUSH1 0x20 ADD DUP1 DUP4 GT PUSH2 0x2A0 JUMPI DUP3 SWAP1 SUB PUSH1 0x1F AND DUP3 ADD SWAP2 JUMPDEST POP POP POP POP POP SWAP1 DUP1 PUSH1 0x3 ADD PUSH0 SWAP1 SLOAD SWAP1 PUSH2 0x100 EXP SWAP1 DIV PUSH1 0xFF AND SWAP1 POP DUP3 JUMP JUMPDEST PUSH0 DUP1 DUP1 SLOAD SWAP1 POP SWAP1 POP SWAP1 JUMP JUMPDEST PUSH0 DUP1 SLOAD SWAP1 POP DUP3 LT PUSH2 0x32A JUMPI PUSH1 0x40 MLOAD PUSH32 0x8C379A000000000000000000000000000000000000000000000000000000000 DUP2 MSTORE PUSH1 0x4 ADD PUSH2 0x321 SWAP1 PUSH2 0xEEA JUMP JUMPDEST PUSH1 0x40 MLOAD DUP1 SWAP2 SUB SWAP1 REVERT JUMPDEST PUSH0 DUP3 DUP2 SLOAD DUP2 LT PUSH2 0x33D JUMPI PUSH2 0x33C PUSH2 0xBAA JUMP JUMPDEST JUMPDEST SWAP1 PUSH0 MSTORE PUSH1 0x20 PUSH0 KECCAK256 SWAP1 PUSH1 0x5 MUL ADD PUSH1 0x3 ADD PUSH0 SWAP1 SLOAD SWAP1 PUSH2 0x100 EXP SWAP1 DIV PUSH1 0xFF AND PUSH2 0x398 JUMPI PUSH1 0x40 MLOAD PUSH32 0x8C379A000000000000000000000000000000000000000000000000000000000 DUP2 MSTORE PUSH1 0x4 ADD PUSH2 0x38F SWAP1 PUSH2 0xF52 JUMP JUMPDEST PUSH1 0x40 MLOAD DUP1 SWAP2 SUB SWAP1 REVERT JUMPDEST PUSH0 DUP3 DUP2 SLOAD DUP2 LT PUSH2 0x3AB JUMPI PUSH2 0x3AA PUSH2 0xBAA JUMP JUMPDEST JUMPDEST SWAP1 PUSH0 MSTORE PUSH1 0x20 PUSH0 KECCAK256 SWAP1 PUSH1 0x5 MUL ADD PUSH1 0x1 ADD DUP1 SLOAD SWAP1 POP DUP2 LT PUSH2 0x3FF JUMPI PUSH1 0x40 MLOAD PUSH32 0x8C379A000000000000000000000000000000000000000000000000000000000 DUP2 MSTORE PUSH1 0x4 ADD PUSH2 0x3F6 SWAP1 PUSH2 0xFBA JUMP JUMPDEST PUSH1 0x40 MLOAD DUP1 SWAP2 SUB SWAP1 REVERT JUMPDEST PUSH0 ISZERO ISZERO PUSH0 DUP4 DUP2 SLOAD DUP2 LT PUSH2 0x415 JUMPI PUSH2 0x414 PUSH2 0xBAA JUMP JUMPDEST JUMPDEST SWAP1 PUSH0 MSTORE PUSH1 0x20 PUSH0 KECCAK256 SWAP1 PUSH1 0x5 MUL ADD PUSH1 0x4 ADD PUSH0 CALLER PUSH20 0xFFFFFFFFFFFFFFFFFFFFFFFFFFFFFFFFFFFFFFFF AND PUSH20 0xFFFFFFFFFFFFFFFFFFFFFFFFFFFFFFFFFFFFFFFF AND DUP2 MSTORE PUSH1 0x20 ADD SWAP1 DUP2 MSTORE PUSH1 0x20 ADD PUSH0 KECCAK256 PUSH0 SWAP1 SLOAD SWAP1 PUSH2 0x100 EXP SWAP1 DIV PUSH1 0xFF AND ISZERO ISZERO EQ PUSH2 0x4AE JUMPI PUSH1 0x40 MLOAD PUSH32 0x8C379A000000000000000000000000000000000000000000000000000000000 DUP2 MSTORE PUSH1 0x4 ADD PUSH2 0x4A5 SWAP1 PUSH2 0x1022 JUMP JUMPDEST PUSH1 0x40 MLOAD DUP1 SWAP2 SUB SWAP1 REVERT JUMPDEST PUSH0 DUP3 DUP2 SLOAD DUP2 LT PUSH2 0x4C1 JUMPI PUSH2 0x4C0 PUSH2 0xBAA JUMP JUMPDEST JUMPDEST SWAP1 PUSH0 MSTORE PUSH1 0x20 PUSH0 KECCAK256 SWAP1 PUSH1 0x5 MUL ADD PUSH1 0x2 ADD DUP2 DUP2 SLOAD DUP2 LT PUSH2 0x4E2 JUMPI PUSH2 0x4E1 PUSH2 0xBAA JUMP JUMPDEST JUMPDEST SWAP1 PUSH0 MSTORE PUSH1 0x20 PUSH0 KECCAK256 ADD PUSH0 DUP2 SLOAD DUP1 SWAP3 SWAP2 SWAP1 PUSH2 0x4FA SWAP1 PUSH2 0x1040 JUMP JUMPDEST SWAP2 SWAP1 POP SSTORE POP PUSH1 0x1 PUSH0 DUP4 DUP2 SLOAD DUP2 LT PUSH2 0x514 JUMPI PUSH2 0x513 PUSH2 0xBAA JUMP JUMPDEST JUMPDEST SWAP1 PUSH0 MSTORE PUSH1 0x20 PUSH0 KECCAK256 SWAP1 PUSH1 0x5 MUL ADD PUSH1 0x4 ADD PUSH0 CALLER PUSH20 0xFFFFFFFFFFFFFFFFFFFFFFFFFFFFFFFFFFFFFFFF AND PUSH20 0xFFFFFFFFFFFFFFFFFFFFFFFFFFFFFFFFFFFFFFFF AND DUP2 MSTORE PUSH1 0x20 ADD SWAP1 DUP2 MSTORE PUSH1 0x20 ADD PUSH0 KECCAK256 PUSH0 PUSH2 0x100 EXP DUP2 SLOAD DUP2 PUSH1 0xFF MUL NOT AND SWAP1 DUP4 ISZERO ISZERO MUL OR SWAP1 SSTORE POP POP POP JUMP JUMPDEST DUP3 DUP1 SLOAD DUP3 DUP3 SSTORE SWAP1 PUSH0 MSTORE PUSH1 0x20 PUSH0 KECCAK256 SWAP1 DUP2 ADD SWAP3 DUP3 ISZERO PUSH2 0x5BE JUMPI SWAP2 PUSH1 0x20 MUL DUP3 ADD JUMPDEST DUP3 DUP2 GT ISZERO PUSH2 0x5BD JUMPI DUP3 MLOAD DUP3 SWAP1 DUP2 PUSH2 0x5AD SWAP2 SWAP1 PUSH2 0xDD1 JUMP JUMPDEST POP SWAP2 PUSH1 0x20 ADD SWAP2 SWAP1 PUSH1 0x1 ADD SWAP1 PUSH2 0x596 JUMP JUMPDEST JUMPDEST POP SWAP1 POP PUSH2 0x5CB SWAP2 SWAP1 PUSH2 0x61A JUMP JUMPDEST POP SWAP1 JUMP JUMPDEST DUP3 DUP1 SLOAD DUP3 DUP3 SSTORE SWAP1 PUSH0 MSTORE PUSH1 0x20 PUSH0 KECCAK256 SWAP1 DUP2 ADD SWAP3 DUP3 ISZERO PUSH2 0x609 JUMPI SWAP2 PUSH1 0x20 MUL DUP3 ADD JUMPDEST DUP3 DUP2 GT ISZERO PUSH2 0x608 JUMPI DUP3 MLOAD DUP3 SSTORE SWAP2 PUSH1 0x20 ADD SWAP2 SWAP1 PUSH1 0x1 ADD SWAP1 PUSH2 0x5ED JUMP JUMPDEST JUMPDEST POP SWAP1 POP PUSH2 0x616 SWAP2 SWAP1 PUSH2 0x63D JUMP JUMPDEST POP SWAP1 JUMP JUMPDEST JUMPDEST DUP1 DUP3 GT ISZERO PUSH2 0x639 JUMPI PUSH0 DUP2 DUP2 PUSH2 0x630 SWAP2 SWAP1 PUSH2 0x658 JUMP JUMPDEST POP PUSH1 0x1 ADD PUSH2 0x61B JUMP JUMPDEST POP SWAP1 JUMP JUMPDEST JUMPDEST DUP1 DUP3 GT ISZERO PUSH2 0x654 JUMPI PUSH0 DUP2 PUSH0 SWAP1 SSTORE POP PUSH1 0x1 ADD PUSH2 0x63E JUMP JUMPDEST POP SWAP1 JUMP JUMPDEST POP DUP1 SLOAD PUSH2 0x664 SWAP1 PUSH2 0xC04 JUMP JUMPDEST PUSH0 DUP3 SSTORE DUP1 PUSH1 0x1F LT PUSH2 0x675 JUMPI POP PUSH2 0x692 JUMP JUMPDEST PUSH1 0x1F ADD PUSH1 0x20 SWAP1 DIV SWAP1 PUSH0 MSTORE PUSH1 0x20 PUSH0 KECCAK256 SWAP1 DUP2 ADD SWAP1 PUSH2 0x691 SWAP2 SWAP1 PUSH2 0x63D JUMP JUMPDEST JUMPDEST POP JUMP JUMPDEST PUSH0 PUSH1 0x40 MLOAD SWAP1 POP SWAP1 JUMP JUMPDEST PUSH0 DUP1 REVERT JUMPDEST PUSH0 DUP1 REVERT JUMPDEST PUSH0 DUP1 REVERT JUMPDEST PUSH0 DUP1 REVERT JUMPDEST PUSH0 PUSH1 0x1F NOT PUSH1 0x1F DUP4 ADD AND SWAP1 POP SWAP2 SWAP1 POP JUMP JUMPDEST PUSH32 0x4E487B7100000000000000000000000000000000000000000000000000000000 PUSH0 MSTORE PUSH1 0x41 PUSH1 0x4 MSTORE PUSH1 0x24 PUSH0 REVERT JUMPDEST PUSH2 0x6F4 DUP3 PUSH2 0x6AE JUMP JUMPDEST DUP2 ADD DUP2 DUP2 LT PUSH8 0xFFFFFFFFFFFFFFFF DUP3 GT OR ISZERO PUSH2 0x713 JUMPI PUSH2 0x712 PUSH2 0x6BE JUMP JUMPDEST JUMPDEST DUP1 PUSH1 0x40 MSTORE POP POP POP JUMP JUMPDEST PUSH0 PUSH2 0x725 PUSH2 0x695 JUMP JUMPDEST SWAP1 POP PUSH2 0x731 DUP3 DUP3 PUSH2 0x6EB JUMP JUMPDEST SWAP2 SWAP1 POP JUMP JUMPDEST PUSH0 PUSH8 0xFFFFFFFFFFFFFFFF DUP3 GT ISZERO PUSH2 0x750 JUMPI PUSH2 0x74F PUSH2 0x6BE JUMP JUMPDEST JUMPDEST PUSH2 0x759 DUP3 PUSH2 0x6AE JUMP JUMPDEST SWAP1 POP PUSH1 0x20 DUP2 ADD SWAP1 POP SWAP2 SWAP1 POP JUMP JUMPDEST DUP3 DUP2 DUP4 CALLDATACOPY PUSH0 DUP4 DUP4 ADD MSTORE POP POP POP JUMP JUMPDEST PUSH0 PUSH2 0x786 PUSH2 0x781 DUP5 PUSH2 0x736 JUMP JUMPDEST PUSH2 0x71C JUMP JUMPDEST SWAP1 POP DUP3 DUP2 MSTORE PUSH1 0x20 DUP2 ADD DUP5 DUP5 DUP5 ADD GT ISZERO PUSH2 0x7A2 JUMPI PUSH2 0x7A1 PUSH2 0x6AA JUMP JUMPDEST JUMPDEST PUSH2 0x7AD DUP5 DUP3 DUP6 PUSH2 0x766 JUMP JUMPDEST POP SWAP4 SWAP3 POP POP POP JUMP JUMPDEST PUSH0 DUP3 PUSH1 0x1F DUP4 ADD SLT PUSH2 0x7C9 JUMPI PUSH2 0x7C8 PUSH2 0x6A6 JUMP JUMPDEST JUMPDEST DUP2 CALLDATALOAD PUSH2 0x7D9 DUP5 DUP3 PUSH1 0x20 DUP7 ADD PUSH2 0x774 JUMP JUMPDEST SWAP2 POP POP SWAP3 SWAP2 POP POP JUMP JUMPDEST PUSH0 PUSH8 0xFFFFFFFFFFFFFFFF DUP3 GT ISZERO PUSH2 0x7FC JUMPI PUSH2 0x7FB PUSH2 0x6BE JUMP JUMPDEST JUMPDEST PUSH1 0x20 DUP3 MUL SWAP1 POP PUSH1 0x20 DUP2 ADD SWAP1 POP SWAP2 SWAP1 POP JUMP JUMPDEST PUSH0 DUP1 REVERT JUMPDEST PUSH0 PUSH2 0x823 PUSH2 0x81E DUP5 PUSH2 0x7E2 JUMP JUMPDEST PUSH2 0x71C JUMP JUMPDEST SWAP1 POP DUP1 DUP4 DUP3 MSTORE PUSH1 0x20 DUP3 ADD SWAP1 POP PUSH1 0x20 DUP5 MUL DUP4 ADD DUP6 DUP2 GT ISZERO PUSH2 0x846 JUMPI PUSH2 0x845 PUSH2 0x80D JUMP JUMPDEST JUMPDEST DUP4 JUMPDEST DUP2 DUP2 LT ISZERO PUSH2 0x88D JUMPI DUP1 CALLDATALOAD PUSH8 0xFFFFFFFFFFFFFFFF DUP2 GT ISZERO PUSH2 0x86B JUMPI PUSH2 0x86A PUSH2 0x6A6 JUMP JUMPDEST JUMPDEST DUP1 DUP7 ADD PUSH2 0x878 DUP10 DUP3 PUSH2 0x7B5 JUMP JUMPDEST DUP6 MSTORE PUSH1 0x20 DUP6 ADD SWAP5 POP POP POP PUSH1 0x20 DUP2 ADD SWAP1 POP PUSH2 0x848 JUMP JUMPDEST POP POP POP SWAP4 SWAP3 POP POP POP JUMP JUMPDEST PUSH0 DUP3 PUSH1 0x1F DUP4 ADD SLT PUSH2 0x8AB JUMPI PUSH2 0x8AA PUSH2 0x6A6 JUMP JUMPDEST JUMPDEST DUP2 CALLDATALOAD PUSH2 0x8BB DUP5 DUP3 PUSH1 0x20 DUP7 ADD PUSH2 0x811 JUMP JUMPDEST SWAP2 POP POP SWAP3 SWAP2 POP POP JUMP JUMPDEST PUSH0 DUP2 ISZERO ISZERO SWAP1 POP SWAP2 SWAP1 POP JUMP JUMPDEST PUSH2 0x8D8 DUP2 PUSH2 0x8C4 JUMP JUMPDEST DUP2 EQ PUSH2 0x8E2 JUMPI PUSH0 DUP1 REVERT JUMPDEST POP JUMP JUMPDEST PUSH0 DUP2 CALLDATALOAD SWAP1 POP PUSH2 0x8F3 DUP2 PUSH2 0x8CF JUMP JUMPDEST SWAP3 SWAP2 POP POP JUMP JUMPDEST PUSH0 DUP1 PUSH0 PUSH1 0x60 DUP5 DUP7 SUB SLT ISZERO PUSH2 0x910 JUMPI PUSH2 0x90F PUSH2 0x69E JUMP JUMPDEST JUMPDEST PUSH0 DUP5 ADD CALLDATALOAD PUSH8 0xFFFFFFFFFFFFFFFF DUP2 GT ISZERO PUSH2 0x92D JUMPI PUSH2 0x92C PUSH2 0x6A2 JUMP JUMPDEST JUMPDEST PUSH2 0x939 DUP7 DUP3 DUP8 ADD PUSH2 0x7B5 JUMP JUMPDEST SWAP4 POP POP PUSH1 0x20 DUP5 ADD CALLDATALOAD PUSH8 0xFFFFFFFFFFFFFFFF DUP2 GT ISZERO PUSH2 0x95A JUMPI PUSH2 0x959 PUSH2 0x6A2 JUMP JUMPDEST JUMPDEST PUSH2 0x966 DUP7 DUP3 DUP8 ADD PUSH2 0x897 JUMP JUMPDEST SWAP3 POP POP PUSH1 0x40 PUSH2 0x977 DUP7 DUP3 DUP8 ADD PUSH2 0x8E5 JUMP JUMPDEST SWAP2 POP POP SWAP3 POP SWAP3 POP SWAP3 JUMP JUMPDEST PUSH0 DUP2 SWAP1 POP SWAP2 SWAP1 POP JUMP JUMPDEST PUSH2 0x993 DUP2 PUSH2 0x981 JUMP JUMPDEST DUP2 EQ PUSH2 0x99D JUMPI PUSH0 DUP1 REVERT JUMPDEST POP JUMP JUMPDEST PUSH0 DUP2 CALLDATALOAD SWAP1 POP PUSH2 0x9AE DUP2 PUSH2 0x98A JUMP JUMPDEST SWAP3 SWAP2 POP POP JUMP JUMPDEST PUSH0 PUSH1 0x20 DUP3 DUP5 SUB SLT ISZERO PUSH2 0x9C9 JUMPI PUSH2 0x9C8 PUSH2 0x69E JUMP JUMPDEST JUMPDEST PUSH0 PUSH2 0x9D6 DUP5 DUP3 DUP6 ADD PUSH2 0x9A0 JUMP JUMPDEST SWAP2 POP POP SWAP3 SWAP2 POP POP JUMP JUMPDEST PUSH0 DUP2 MLOAD SWAP1 POP SWAP2 SWAP1 POP JUMP JUMPDEST PUSH0 DUP3 DUP3 MSTORE PUSH1 0x20 DUP3 ADD SWAP1 POP SWAP3 SWAP2 POP POP JUMP JUMPDEST DUP3 DUP2 DUP4 MCOPY PUSH0 DUP4 DUP4 ADD MSTORE POP POP POP JUMP JUMPDEST PUSH0 PUSH2 0xA11 DUP3 PUSH2 0x9DF JUMP JUMPDEST PUSH2 0xA1B DUP2 DUP6 PUSH2 0x9E9 JUMP JUMPDEST SWAP4 POP PUSH2 0xA2B DUP2 DUP6 PUSH1 0x20 DUP7 ADD PUSH2 0x9F9 JUMP JUMPDEST PUSH2 0xA34 DUP2 PUSH2 0x6AE JUMP JUMPDEST DUP5 ADD SWAP2 POP POP SWAP3 SWAP2 POP POP JUMP JUMPDEST PUSH2 0xA48 DUP2 PUSH2 0x8C4 JUMP JUMPDEST DUP3 MSTORE POP POP JUMP JUMPDEST PUSH0 PUSH1 0x40 DUP3 ADD SWAP1 POP DUP2 DUP2 SUB PUSH0 DUP4 ADD MSTORE PUSH2 0xA66 DUP2 DUP6 PUSH2 0xA07 JUMP JUMPDEST SWAP1 POP PUSH2 0xA75 PUSH1 0x20 DUP4 ADD DUP5 PUSH2 0xA3F JUMP JUMPDEST SWAP4 SWAP3 POP POP POP JUMP JUMPDEST PUSH2 0xA85 DUP2 PUSH2 0x981 JUMP JUMPDEST DUP3 MSTORE POP POP JUMP JUMPDEST PUSH0 PUSH1 0x20 DUP3 ADD SWAP1 POP PUSH2 0xA9E PUSH0 DUP4 ADD DUP5 PUSH2 0xA7C JUMP JUMPDEST SWAP3 SWAP2 POP POP JUMP JUMPDEST PUSH0 DUP1 PUSH1 0x40 DUP4 DUP6 SUB SLT ISZERO PUSH2 0xABA JUMPI PUSH2 0xAB9 PUSH2 0x69E JUMP JUMPDEST JUMPDEST PUSH0 PUSH2 0xAC7 DUP6 DUP3 DUP7 ADD PUSH2 0x9A0 JUMP JUMPDEST SWAP3 POP POP PUSH1 0x20 PUSH2 0xAD8 DUP6 DUP3 DUP7 ADD PUSH2 0x9A0 JUMP JUMPDEST SWAP2 POP POP SWAP3 POP SWAP3 SWAP1 POP JUMP JUMPDEST PUSH32 0x4174206C656173742032206F7074696F6E732061726520726571756972656400 PUSH0 DUP3 ADD MSTORE POP JUMP JUMPDEST PUSH0 PUSH2 0xB16 PUSH1 0x1F DUP4 PUSH2 0x9E9 JUMP JUMPDEST SWAP2 POP PUSH2 0xB21 DUP3 PUSH2 0xAE2 JUMP JUMPDEST PUSH1 0x20 DUP3 ADD SWAP1 POP SWAP2 SWAP1 POP JUMP JUMPDEST PUSH0 PUSH1 0x20 DUP3 ADD SWAP1 POP DUP2 DUP2 SUB PUSH0 DUP4 ADD MSTORE PUSH2 0xB43 DUP2 PUSH2 0xB0A JUMP JUMPDEST SWAP1 POP SWAP2 SWAP1 POP JUMP JUMPDEST PUSH32 0x4E487B7100000000000000000000000000000000000000000000000000000000 PUSH0 MSTORE PUSH1 0x11 PUSH1 0x4 MSTORE PUSH1 0x24 PUSH0 REVERT JUMPDEST PUSH0 PUSH2 0xB81 DUP3 PUSH2 0x981 JUMP JUMPDEST SWAP2 POP PUSH2 0xB8C DUP4 PUSH2 0x981 JUMP JUMPDEST SWAP3 POP DUP3 DUP3 SUB SWAP1 POP DUP2 DUP2 GT ISZERO PUSH2 0xBA4 JUMPI PUSH2 0xBA3 PUSH2 0xB4A JUMP JUMPDEST JUMPDEST SWAP3 SWAP2 POP POP JUMP JUMPDEST PUSH32 0x4E487B7100000000000000000000000000000000000000000000000000000000 PUSH0 MSTORE PUSH1 0x32 PUSH1 0x4 MSTORE PUSH1 0x24 PUSH0 REVERT JUMPDEST PUSH32 0x4E487B7100000000000000000000000000000000000000000000000000000000 PUSH0 MSTORE PUSH1 0x22 PUSH1 0x4 MSTORE PUSH1 0x24 PUSH0 REVERT JUMPDEST PUSH0 PUSH1 0x2 DUP3 DIV SWAP1 POP PUSH1 0x1 DUP3 AND DUP1 PUSH2 0xC1B JUMPI PUSH1 0x7F DUP3 AND SWAP2 POP JUMPDEST PUSH1 0x20 DUP3 LT DUP2 SUB PUSH2 0xC2E JUMPI PUSH2 0xC2D PUSH2 0xBD7 JUMP JUMPDEST JUMPDEST POP SWAP2 SWAP1 POP JUMP JUMPDEST PUSH0 DUP2 SWAP1 POP DUP2 PUSH0 MSTORE PUSH1 0x20 PUSH0 KECCAK256 SWAP1 POP SWAP2 SWAP1 POP JUMP JUMPDEST PUSH0 PUSH1 0x20 PUSH1 0x1F DUP4 ADD DIV SWAP1 POP SWAP2 SWAP1 POP JUMP JUMPDEST PUSH0 DUP3 DUP3 SHL SWAP1 POP SWAP3 SWAP2 POP POP JUMP JUMPDEST PUSH0 PUSH1 0x8 DUP4 MUL PUSH2 0xC90 PUSH32 0xFFFFFFFFFFFFFFFFFFFFFFFFFFFFFFFFFFFFFFFFFFFFFFFFFFFFFFFFFFFFFFFF DUP3 PUSH2 0xC55 JUMP JUMPDEST PUSH2 0xC9A DUP7 DUP4 PUSH2 0xC55 JUMP JUMPDEST SWAP6 POP DUP1 NOT DUP5 AND SWAP4 POP DUP1 DUP7 AND DUP5 OR SWAP3 POP POP POP SWAP4 SWAP3 POP POP POP JUMP JUMPDEST PUSH0 DUP2 SWAP1 POP SWAP2 SWAP1 POP JUMP JUMPDEST PUSH0 PUSH2 0xCD5 PUSH2 0xCD0 PUSH2 0xCCB DUP5 PUSH2 0x981 JUMP JUMPDEST PUSH2 0xCB2 JUMP JUMPDEST PUSH2 0x981 JUMP JUMPDEST SWAP1 POP SWAP2 SWAP1 POP JUMP JUMPDEST PUSH0 DUP2 SWAP1 POP SWAP2 SWAP1 POP JUMP JUMPDEST PUSH2 0xCEE DUP4 PUSH2 0xCBB JUMP JUMPDEST PUSH2 0xD02 PUSH2 0xCFA DUP3 PUSH2 0xCDC JUMP JUMPDEST DUP5 DUP5 SLOAD PUSH2 0xC61 JUMP JUMPDEST DUP3 SSTORE POP POP POP POP JUMP JUMPDEST PUSH0 SWAP1 JUMP JUMPDEST PUSH2 0xD16 PUSH2 0xD0A JUMP JUMPDEST PUSH2 0xD21 DUP2 DUP5 DUP5 PUSH2 0xCE5 JUMP JUMPDEST POP POP POP JUMP JUMPDEST JUMPDEST DUP2 DUP2 LT ISZERO PUSH2 0xD44 JUMPI PUSH2 0xD39 PUSH0 DUP3 PUSH2 0xD0E JUMP JUMPDEST PUSH1 0x1 DUP2 ADD SWAP1 POP PUSH2 0xD27 JUMP JUMPDEST POP POP JUMP JUMPDEST PUSH1 0x1F DUP3 GT ISZERO PUSH2 0xD89 JUMPI PUSH2 0xD5A DUP2 PUSH2 0xC34 JUMP JUMPDEST PUSH2 0xD63 DUP5 PUSH2 0xC46 JUMP JUMPDEST DUP2 ADD PUSH1 0x20 DUP6 LT ISZERO PUSH2 0xD72 JUMPI DUP2 SWAP1 POP JUMPDEST PUSH2 0xD86 PUSH2 0xD7E DUP6 PUSH2 0xC46 JUMP JUMPDEST DUP4 ADD DUP3 PUSH2 0xD26 JUMP JUMPDEST POP POP JUMPDEST POP POP POP JUMP JUMPDEST PUSH0 DUP3 DUP3 SHR SWAP1 POP SWAP3 SWAP2 POP POP JUMP JUMPDEST PUSH0 PUSH2 0xDA9 PUSH0 NOT DUP5 PUSH1 0x8 MUL PUSH2 0xD8E JUMP JUMPDEST NOT DUP1 DUP4 AND SWAP2 POP POP SWAP3 SWAP2 POP POP JUMP JUMPDEST PUSH0 PUSH2 0xDC1 DUP4 DUP4 PUSH2 0xD9A JUMP JUMPDEST SWAP2 POP DUP3 PUSH1 0x2 MUL DUP3 OR SWAP1 POP SWAP3 SWAP2 POP POP JUMP JUMPDEST PUSH2 0xDDA DUP3 PUSH2 0x9DF JUMP JUMPDEST PUSH8 0xFFFFFFFFFFFFFFFF DUP2 GT ISZERO PUSH2 0xDF3 JUMPI PUSH2 0xDF2 PUSH2 0x6BE JUMP JUMPDEST JUMPDEST PUSH2 0xDFD DUP3 SLOAD PUSH2 0xC04 JUMP JUMPDEST PUSH2 0xE08 DUP3 DUP3 DUP6 PUSH2 0xD48 JUMP JUMPDEST PUSH0 PUSH1 0x20 SWAP1 POP PUSH1 0x1F DUP4 GT PUSH1 0x1 DUP2 EQ PUSH2 0xE39 JUMPI PUSH0 DUP5 ISZERO PUSH2 0xE27 JUMPI DUP3 DUP8 ADD MLOAD SWAP1 POP JUMPDEST PUSH2 0xE31 DUP6 DUP3 PUSH2 0xDB6 JUMP JUMPDEST DUP7 SSTORE POP PUSH2 0xE98 JUMP JUMPDEST PUSH1 0x1F NOT DUP5 AND PUSH2 0xE47 DUP7 PUSH2 0xC34 JUMP JUMPDEST PUSH0 JUMPDEST DUP3 DUP2 LT ISZERO PUSH2 0xE6E JUMPI DUP5 DUP10 ADD MLOAD DUP3 SSTORE PUSH1 0x1 DUP3 ADD SWAP2 POP PUSH1 0x20 DUP6 ADD SWAP5 POP PUSH1 0x20 DUP2 ADD SWAP1 POP PUSH2 0xE49 JUMP JUMPDEST DUP7 DUP4 LT ISZERO PUSH2 0xE8B JUMPI DUP5 DUP10 ADD MLOAD PUSH2 0xE87 PUSH1 0x1F DUP10 AND DUP3 PUSH2 0xD9A JUMP JUMPDEST DUP4 SSTORE POP JUMPDEST PUSH1 0x1 PUSH1 0x2 DUP9 MUL ADD DUP9 SSTORE POP POP POP JUMPDEST POP POP POP POP POP POP JUMP JUMPDEST PUSH32 0x53757276657920646F6573206E6F742065786973740000000000000000000000 PUSH0 DUP3 ADD MSTORE POP JUMP JUMPDEST PUSH0 PUSH2 0xED4 PUSH1 0x15 DUP4 PUSH2 0x9E9 JUMP JUMPDEST SWAP2 POP PUSH2 0xEDF DUP3 PUSH2 0xEA0 JUMP JUMPDEST PUSH1 0x20 DUP3 ADD SWAP1 POP SWAP2 SWAP1 POP JUMP JUMPDEST PUSH0 PUSH1 0x20 DUP3 ADD SWAP1 POP DUP2 DUP2 SUB PUSH0 DUP4 ADD MSTORE PUSH2 0xF01 DUP2 PUSH2 0xEC8 JUMP JUMPDEST SWAP1 POP SWAP2 SWAP1 POP JUMP JUMPDEST PUSH32 0x537572766579206973206E6F7420616374697665000000000000000000000000 PUSH0 DUP3 ADD MSTORE POP JUMP JUMPDEST PUSH0 PUSH2 0xF3C PUSH1 0x14 DUP4 PUSH2 0x9E9 JUMP JUMPDEST SWAP2 POP PUSH2 0xF47 DUP3 PUSH2 0xF08 JUMP JUMPDEST PUSH1 0x20 DUP3 ADD SWAP1 POP SWAP2 SWAP1 POP JUMP JUMPDEST PUSH0 PUSH1 0x20 DUP3 ADD SWAP1 POP DUP2 DUP2 SUB PUSH0 DUP4 ADD MSTORE PUSH2 0xF69 DUP2 PUSH2 0xF30 JUMP JUMPDEST SWAP1 POP SWAP2 SWAP1 POP JUMP JUMPDEST PUSH32 0x496E76616C6964206F7074696F6E20696E646578000000000000000000000000 PUSH0 DUP3 ADD MSTORE POP JUMP JUMPDEST PUSH0 PUSH2 0xFA4 PUSH1 0x14 DUP4 PUSH2 0x9E9 JUMP JUMPDEST SWAP2 POP PUSH2 0xFAF DUP3 PUSH2 0xF70 JUMP JUMPDEST PUSH1 0x20 DUP3 ADD SWAP1 POP SWAP2 SWAP1 POP JUMP JUMPDEST PUSH0 PUSH1 0x20 DUP3 ADD SWAP1 POP DUP2 DUP2 SUB PUSH0 DUP4 ADD MSTORE PUSH2 0xFD1 DUP2 PUSH2 0xF98 JUMP JUMPDEST SWAP1 POP SWAP2 SWAP1 POP JUMP JUMPDEST PUSH32 0x557365722068617320616C726561647920766F74656400000000000000000000 PUSH0 DUP3 ADD MSTORE POP JUMP JUMPDEST PUSH0 PUSH2 0x100C PUSH1 0x16 DUP4 PUSH2 0x9E9 JUMP JUMPDEST SWAP2 POP PUSH2 0x1017 DUP3 PUSH2 0xFD8 JUMP JUMPDEST PUSH1 0x20 DUP3 ADD SWAP1 POP SWAP2 SWAP1 POP JUMP JUMPDEST PUSH0 PUSH1 0x20 DUP3 ADD SWAP1 POP DUP2 DUP2 SUB PUSH0 DUP4 ADD MSTORE PUSH2 0x1039 DUP2 PUSH2 0x1000 JUMP JUMPDEST SWAP1 POP SWAP2 SWAP1 POP JUMP JUMPDEST PUSH0 PUSH2 0x104A DUP3 PUSH2 0x981 JUMP JUMPDEST SWAP2 POP PUSH32 0xFFFFFFFFFFFFFFFFFFFFFFFFFFFFFFFFFFFFFFFFFFFFFFFFFFFFFFFFFFFFFFFF DUP3 SUB PUSH2 0x107C JUMPI PUSH2 0x107B PUSH2 0xB4A JUMP JUMPDEST JUMPDEST PUSH1 0x1 DUP3 ADD SWAP1 POP SWAP2 SWAP1 POP JUMP INVALID LOG2 PUSH5 0x6970667358 0x22 SLT KECCAK256 DUP8 SUB 0xB9 0xD EXTCODESIZE 0xE6 RETURNDATACOPY 0x1F 0xB8 PUSH0 PUSH9 0xE362BF93291476F597 0xC6 SWAP16 RETURNDATASIZE 0xC3 DUP7 0xCA 0xB7 0xDB MLOAD 0x27 DUP7 RETURN PUSH5 0x736F6C6343 STOP ADDMOD BYTE STOP CALLER LOG2 PUSH5 0x6970667358 0x22 SLT KECCAK256 GASLIMIT PUSH11 0x638527188C670471D92479 0xEF 0xCE LOG3 PUSH13 0x2A87008D5A85D8A34A15B59285 SWAP10 PUSH20 0x64736F6C634300081A0033000000000000000000 "
				},
				"gasEstimates": {
					"creation": {
						"codeDepositCost": "2288800",
						"executionCost": "infinite",
						"totalCost": "infinite"
					},
					"external": {
						"allowance(address,address)": "infinite",
						"approve(address,uint256)": "infinite",
						"balanceOf(address)": "2874",
						"burn(uint256)": "infinite",
						"burnFrom(address,uint256)": "infinite",
						"cap()": "infinite",
						"createCrumbContract()": "infinite",
						"decimals()": "383",
						"name()": "infinite",
						"owner()": "2537",
						"renounceOwnership()": "infinite",
						"requestSurveyCreationOnCrumb(string,string[],bool)": "infinite",
						"symbol()": "infinite",
						"totalSupply()": "2522",
						"transfer(address,uint256)": "infinite",
						"transferFrom(address,address,uint256)": "infinite",
						"transferOwnership(address)": "infinite"
					},
					"internal": {
						"_update(address,address,uint256)": "infinite"
					}
				},
				"methodIdentifiers": {
					"allowance(address,address)": "dd62ed3e",
					"approve(address,uint256)": "095ea7b3",
					"balanceOf(address)": "70a08231",
					"burn(uint256)": "42966c68",
					"burnFrom(address,uint256)": "79cc6790",
					"cap()": "355274ea",
					"createCrumbContract()": "4735c94c",
					"decimals()": "313ce567",
					"name()": "06fdde03",
					"owner()": "8da5cb5b",
					"renounceOwnership()": "715018a6",
					"requestSurveyCreationOnCrumb(string,string[],bool)": "0528395e",
					"symbol()": "95d89b41",
					"totalSupply()": "18160ddd",
					"transfer(address,uint256)": "a9059cbb",
					"transferFrom(address,address,uint256)": "23b872dd",
					"transferOwnership(address)": "f2fde38b"
				}
			},
			"storageLayout": {
				"storage": [
					{
						"astId": 307,
						"contract": "contracts/Soboro.sol:Soboro",
						"label": "_balances",
						"offset": 0,
						"slot": "0",
						"type": "t_mapping(t_address,t_uint256)"
					},
					{
						"astId": 313,
						"contract": "contracts/Soboro.sol:Soboro",
						"label": "_allowances",
						"offset": 0,
						"slot": "1",
						"type": "t_mapping(t_address,t_mapping(t_address,t_uint256))"
					},
					{
						"astId": 315,
						"contract": "contracts/Soboro.sol:Soboro",
						"label": "_totalSupply",
						"offset": 0,
						"slot": "2",
						"type": "t_uint256"
					},
					{
						"astId": 317,
						"contract": "contracts/Soboro.sol:Soboro",
						"label": "_name",
						"offset": 0,
						"slot": "3",
						"type": "t_string_storage"
					},
					{
						"astId": 319,
						"contract": "contracts/Soboro.sol:Soboro",
						"label": "_symbol",
						"offset": 0,
						"slot": "4",
						"type": "t_string_storage"
					},
					{
						"astId": 8,
						"contract": "contracts/Soboro.sol:Soboro",
						"label": "_owner",
						"offset": 0,
						"slot": "5",
						"type": "t_address"
					},
					{
						"astId": 1105,
						"contract": "contracts/Soboro.sol:Soboro",
						"label": "crumbMap",
						"offset": 0,
						"slot": "6",
						"type": "t_mapping(t_uint256,t_address)"
					},
					{
						"astId": 1108,
						"contract": "contracts/Soboro.sol:Soboro",
						"label": "crumbGenID",
						"offset": 0,
						"slot": "7",
						"type": "t_uint256"
					},
					{
						"astId": 1111,
						"contract": "contracts/Soboro.sol:Soboro",
						"label": "maxSurveysPerCrumb",
						"offset": 0,
						"slot": "8",
						"type": "t_uint256"
					}
				],
				"types": {
					"t_address": {
						"encoding": "inplace",
						"label": "address",
						"numberOfBytes": "20"
					},
					"t_mapping(t_address,t_mapping(t_address,t_uint256))": {
						"encoding": "mapping",
						"key": "t_address",
						"label": "mapping(address => mapping(address => uint256))",
						"numberOfBytes": "32",
						"value": "t_mapping(t_address,t_uint256)"
					},
					"t_mapping(t_address,t_uint256)": {
						"encoding": "mapping",
						"key": "t_address",
						"label": "mapping(address => uint256)",
						"numberOfBytes": "32",
						"value": "t_uint256"
					},
					"t_mapping(t_uint256,t_address)": {
						"encoding": "mapping",
						"key": "t_uint256",
						"label": "mapping(uint256 => address)",
						"numberOfBytes": "32",
						"value": "t_address"
					},
					"t_string_storage": {
						"encoding": "bytes",
						"label": "string",
						"numberOfBytes": "32"
					},
					"t_uint256": {
						"encoding": "inplace",
						"label": "uint256",
						"numberOfBytes": "32"
					}
				}
			},
			"userdoc": {
				"kind": "user",
				"methods": {},
				"version": 1
			}
		}
	}
}