{
	"contracts/Crumb.sol": {
		"Crumb": {
			"abi": [
				{
					"inputs": [],
					"name": "InvalidInitialization",
					"type": "error"
				},
				{
					"inputs": [],
					"name": "NotInitializing",
					"type": "error"
				},
				{
					"inputs": [
						{
							"internalType": "address",
							"name": "owner",
							"type": "address"
						}
					],
					"name": "OwnableInvalidOwner",
					"type": "error"
				},
				{
					"inputs": [
						{
							"internalType": "address",
							"name": "account",
							"type": "address"
						}
					],
					"name": "OwnableUnauthorizedAccount",
					"type": "error"
				},
				{
					"inputs": [],
					"name": "ReentrancyGuardReentrantCall",
					"type": "error"
				},
				{
					"anonymous": false,
					"inputs": [
						{
							"indexed": false,
							"internalType": "uint64",
							"name": "version",
							"type": "uint64"
						}
					],
					"name": "Initialized",
					"type": "event"
				},
				{
					"anonymous": false,
					"inputs": [
						{
							"indexed": true,
							"internalType": "address",
							"name": "previousOwner",
							"type": "address"
						},
						{
							"indexed": true,
							"internalType": "address",
							"name": "newOwner",
							"type": "address"
						}
					],
					"name": "OwnershipTransferred",
					"type": "event"
				},
				{
					"anonymous": false,
					"inputs": [
						{
							"indexed": true,
							"internalType": "address",
							"name": "voter",
							"type": "address"
						},
						{
							"indexed": true,
							"internalType": "uint256",
							"name": "surveyIndex",
							"type": "uint256"
						},
						{
							"indexed": true,
							"internalType": "uint256",
							"name": "optionIndex",
							"type": "uint256"
						}
					],
					"name": "Voted",
					"type": "event"
				},
				{
					"inputs": [
						{
							"internalType": "uint256",
							"name": "surveyID",
							"type": "uint256"
						}
					],
					"name": "amIVoted",
					"outputs": [
						{
							"internalType": "bool",
							"name": "",
							"type": "bool"
						}
					],
					"stateMutability": "view",
					"type": "function"
				},
				{
					"inputs": [
						{
							"internalType": "uint256",
							"name": "surveyIndex",
							"type": "uint256"
						},
						{
							"internalType": "bool",
							"name": "isActive",
							"type": "bool"
						}
					],
					"name": "changeActiveStatus",
					"outputs": [],
					"stateMutability": "nonpayable",
					"type": "function"
				},
				{
					"inputs": [
						{
							"internalType": "string",
							"name": "_question",
							"type": "string"
						},
						{
							"internalType": "string[]",
							"name": "_options",
							"type": "string[]"
						},
						{
							"internalType": "bool",
							"name": "_initialActiveState",
							"type": "bool"
						}
					],
					"name": "createSurvey",
					"outputs": [],
					"stateMutability": "nonpayable",
					"type": "function"
				},
				{
					"inputs": [],
					"name": "getSurveyCount",
					"outputs": [
						{
							"internalType": "uint256",
							"name": "",
							"type": "uint256"
						}
					],
					"stateMutability": "view",
					"type": "function"
				},
				{
					"inputs": [
						{
							"internalType": "uint256",
							"name": "surveyIndex",
							"type": "uint256"
						}
					],
					"name": "getSurveyOptions",
					"outputs": [
						{
							"internalType": "string[]",
							"name": "",
							"type": "string[]"
						}
					],
					"stateMutability": "view",
					"type": "function"
				},
				{
					"inputs": [
						{
							"internalType": "uint256",
							"name": "surveyIndex",
							"type": "uint256"
						}
					],
					"name": "getSurveyVoteCountPerOptions",
					"outputs": [
						{
							"internalType": "uint256[]",
							"name": "",
							"type": "uint256[]"
						}
					],
					"stateMutability": "view",
					"type": "function"
				},
				{
					"inputs": [
						{
							"internalType": "address",
							"name": "voterAddress",
							"type": "address"
						},
						{
							"internalType": "uint256",
							"name": "surveyID",
							"type": "uint256"
						}
					],
					"name": "hasVoted",
					"outputs": [
						{
							"internalType": "bool",
							"name": "",
							"type": "bool"
						}
					],
					"stateMutability": "view",
					"type": "function"
				},
				{
					"inputs": [],
					"name": "initialize",
					"outputs": [],
					"stateMutability": "nonpayable",
					"type": "function"
				},
				{
					"inputs": [],
					"name": "owner",
					"outputs": [
						{
							"internalType": "address",
							"name": "",
							"type": "address"
						}
					],
					"stateMutability": "view",
					"type": "function"
				},
				{
					"inputs": [],
					"name": "renounceOwnership",
					"outputs": [],
					"stateMutability": "nonpayable",
					"type": "function"
				},
				{
					"inputs": [
						{
							"internalType": "uint256",
							"name": "",
							"type": "uint256"
						}
					],
					"name": "surveys",
					"outputs": [
						{
							"internalType": "string",
							"name": "question",
							"type": "string"
						},
						{
							"internalType": "bool",
							"name": "isActive",
							"type": "bool"
						}
					],
					"stateMutability": "view",
					"type": "function"
				},
				{
					"inputs": [
						{
							"internalType": "address",
							"name": "newOwner",
							"type": "address"
						}
					],
					"name": "transferOwnership",
					"outputs": [],
					"stateMutability": "nonpayable",
					"type": "function"
				},
				{
					"inputs": [
						{
							"internalType": "uint256",
							"name": "_surveyID",
							"type": "uint256"
						},
						{
							"internalType": "uint256",
							"name": "_optionIndex",
							"type": "uint256"
						}
					],
					"name": "vote",
					"outputs": [],
					"stateMutability": "nonpayable",
					"type": "function"
				}
			],
			"devdoc": {
				"errors": {
					"InvalidInitialization()": [
						{
							"details": "The contract is already initialized."
						}
					],
					"NotInitializing()": [
						{
							"details": "The contract is not initializing."
						}
					],
					"OwnableInvalidOwner(address)": [
						{
							"details": "The owner is not a valid owner account. (eg. `address(0)`)"
						}
					],
					"OwnableUnauthorizedAccount(address)": [
						{
							"details": "The caller account is not authorized to perform an operation."
						}
					],
					"ReentrancyGuardReentrantCall()": [
						{
							"details": "Unauthorized reentrant call."
						}
					]
				},
				"events": {
					"Initialized(uint64)": {
						"details": "Triggered when the contract has been initialized or reinitialized."
					}
				},
				"kind": "dev",
				"methods": {
					"owner()": {
						"details": "Returns the address of the current owner."
					},
					"renounceOwnership()": {
						"details": "Leaves the contract without owner. It will not be possible to call `onlyOwner` functions. Can only be called by the current owner. NOTE: Renouncing ownership will leave the contract without an owner, thereby disabling any functionality that is only available to the owner."
					},
					"transferOwnership(address)": {
						"details": "Transfers ownership of the contract to a new account (`newOwner`). Can only be called by the current owner."
					}
				},
				"version": 1
			},
			"evm": {
				"assembly": "    /* \"contracts/Crumb.sol\":325:4634  contract Crumb is Initializable, OwnableUpgradeable, ReentrancyGuardTransientUpgradeable {... */\n  mstore(0x40, 0x80)\n  callvalue\n  dup1\n  iszero\n  tag_1\n  jumpi\n  0x00\n  dup1\n  revert\ntag_1:\n  pop\n  dataSize(sub_0)\n  dup1\n  dataOffset(sub_0)\n  0x00\n  codecopy\n  0x00\n  return\nstop\n\nsub_0: assembly {\n        /* \"contracts/Crumb.sol\":325:4634  contract Crumb is Initializable, OwnableUpgradeable, ReentrancyGuardTransientUpgradeable {... */\n      mstore(0x40, 0x80)\n      callvalue\n      dup1\n      iszero\n      tag_1\n      jumpi\n      0x00\n      dup1\n      revert\n    tag_1:\n      pop\n      jumpi(tag_2, lt(calldatasize, 0x04))\n      shr(0xe0, calldataload(0x00))\n      dup1\n      0x78e6b292\n      gt\n      tag_16\n      jumpi\n      dup1\n      0x8da5cb5b\n      gt\n      tag_17\n      jumpi\n      dup1\n      0x8da5cb5b\n      eq\n      tag_12\n      jumpi\n      dup1\n      0x9fe140b1\n      eq\n      tag_13\n      jumpi\n      dup1\n      0xb384abef\n      eq\n      tag_14\n      jumpi\n      dup1\n      0xf2fde38b\n      eq\n      tag_15\n      jumpi\n      jump(tag_2)\n    tag_17:\n      dup1\n      0x78e6b292\n      eq\n      tag_9\n      jumpi\n      dup1\n      0x8129fc1c\n      eq\n      tag_10\n      jumpi\n      dup1\n      0x86e68b90\n      eq\n      tag_11\n      jumpi\n      jump(tag_2)\n    tag_16:\n      dup1\n      0x0a277d6d\n      eq\n      tag_3\n      jumpi\n      dup1\n      0x0c4960dd\n      eq\n      tag_4\n      jumpi\n      dup1\n      0x256a7f6b\n      eq\n      tag_5\n      jumpi\n      dup1\n      0x3358d9d9\n      eq\n      tag_6\n      jumpi\n      dup1\n      0x42545825\n      eq\n      tag_7\n      jumpi\n      dup1\n      0x715018a6\n      eq\n      tag_8\n      jumpi\n    tag_2:\n      0x00\n      dup1\n      revert\n        /* \"contracts/Crumb.sol\":4344:4632  function getSurveyVoteCountPerOptions(uint surveyIndex) public view returns (uint256[] memory) {... */\n    tag_3:\n      tag_18\n      0x04\n      dup1\n      calldatasize\n      sub\n      dup2\n      add\n      swap1\n      tag_19\n      swap2\n      swap1\n      tag_20\n      jump\t// in\n    tag_19:\n      tag_21\n      jump\t// in\n    tag_18:\n      mload(0x40)\n      tag_22\n      swap2\n      swap1\n      tag_23\n      jump\t// in\n    tag_22:\n      mload(0x40)\n      dup1\n      swap2\n      sub\n      swap1\n      return\n        /* \"contracts/Crumb.sol\":1070:1679  function createSurvey(string memory _question, string[] memory _options, bool _initialActiveState) public onlyOwner {... */\n    tag_4:\n      tag_24\n      0x04\n      dup1\n      calldatasize\n      sub\n      dup2\n      add\n      swap1\n      tag_25\n      swap2\n      swap1\n      tag_26\n      jump\t// in\n    tag_25:\n      tag_27\n      jump\t// in\n    tag_24:\n      stop\n        /* \"contracts/Crumb.sol\":3869:4224  function getSurveyOptions(uint surveyIndex) public view returns (string[] memory) {... */\n    tag_5:\n      tag_28\n      0x04\n      dup1\n      calldatasize\n      sub\n      dup2\n      add\n      swap1\n      tag_29\n      swap2\n      swap1\n      tag_20\n      jump\t// in\n    tag_29:\n      tag_30\n      jump\t// in\n    tag_28:\n      mload(0x40)\n      tag_31\n      swap2\n      swap1\n      tag_32\n      jump\t// in\n    tag_31:\n      mload(0x40)\n      dup1\n      swap2\n      sub\n      swap1\n      return\n        /* \"contracts/Crumb.sol\":3153:3368  function amIVoted(uint surveyID) public view returns (bool) {... */\n    tag_6:\n      tag_33\n      0x04\n      dup1\n      calldatasize\n      sub\n      dup2\n      add\n      swap1\n      tag_34\n      swap2\n      swap1\n      tag_20\n      jump\t// in\n    tag_34:\n      tag_35\n      jump\t// in\n    tag_33:\n      mload(0x40)\n      tag_36\n      swap2\n      swap1\n      tag_37\n      jump\t// in\n    tag_36:\n      mload(0x40)\n      dup1\n      swap2\n      sub\n      swap1\n      return\n        /* \"contracts/Crumb.sol\":3434:3760  function hasVoted(address voterAddress, uint surveyID) public view returns (bool) {... */\n    tag_7:\n      tag_38\n      0x04\n      dup1\n      calldatasize\n      sub\n      dup2\n      add\n      swap1\n      tag_39\n      swap2\n      swap1\n      tag_40\n      jump\t// in\n    tag_39:\n      tag_41\n      jump\t// in\n    tag_38:\n      mload(0x40)\n      tag_42\n      swap2\n      swap1\n      tag_37\n      jump\t// in\n    tag_42:\n      mload(0x40)\n      dup1\n      swap2\n      sub\n      swap1\n      return\n        /* \"@openzeppelin/contracts-upgradeable/access/OwnableUpgradeable.sol\":3155:3256  function renounceOwnership() public virtual onlyOwner {... */\n    tag_8:\n      tag_43\n      tag_44\n      jump\t// in\n    tag_43:\n      stop\n        /* \"contracts/Crumb.sol\":2574:2948  function changeActiveStatus(uint surveyIndex, bool isActive) public onlyOwner {... */\n    tag_9:\n      tag_45\n      0x04\n      dup1\n      calldatasize\n      sub\n      dup2\n      add\n      swap1\n      tag_46\n      swap2\n      swap1\n      tag_47\n      jump\t// in\n    tag_46:\n      tag_48\n      jump\t// in\n    tag_45:\n      stop\n        /* \"contracts/Crumb.sol\":910:1037  function initialize() public initializer {... */\n    tag_10:\n      tag_49\n      tag_50\n      jump\t// in\n    tag_49:\n      stop\n        /* \"contracts/Crumb.sol\":788:811  Survey[] public surveys */\n    tag_11:\n      tag_51\n      0x04\n      dup1\n      calldatasize\n      sub\n      dup2\n      add\n      swap1\n      tag_52\n      swap2\n      swap1\n      tag_20\n      jump\t// in\n    tag_52:\n      tag_53\n      jump\t// in\n    tag_51:\n      mload(0x40)\n      tag_54\n      swap3\n      swap2\n      swap1\n      tag_55\n      jump\t// in\n    tag_54:\n      mload(0x40)\n      dup1\n      swap2\n      sub\n      swap1\n      return\n        /* \"@openzeppelin/contracts-upgradeable/access/OwnableUpgradeable.sol\":2441:2585  function owner() public view virtual returns (address) {... */\n    tag_12:\n      tag_56\n      tag_57\n      jump\t// in\n    tag_56:\n      mload(0x40)\n      tag_58\n      swap2\n      swap1\n      tag_59\n      jump\t// in\n    tag_58:\n      mload(0x40)\n      dup1\n      swap2\n      sub\n      swap1\n      return\n        /* \"contracts/Crumb.sol\":2986:3080  function getSurveyCount() public view returns (uint256) {... */\n    tag_13:\n      tag_60\n      tag_61\n      jump\t// in\n    tag_60:\n      mload(0x40)\n      tag_62\n      swap2\n      swap1\n      tag_63\n      jump\t// in\n    tag_62:\n      mload(0x40)\n      dup1\n      swap2\n      sub\n      swap1\n      return\n        /* \"contracts/Crumb.sol\":1706:2537  function vote(uint _surveyID, uint _optionIndex) public nonReentrant {... */\n    tag_14:\n      tag_64\n      0x04\n      dup1\n      calldatasize\n      sub\n      dup2\n      add\n      swap1\n      tag_65\n      swap2\n      swap1\n      tag_66\n      jump\t// in\n    tag_65:\n      tag_67\n      jump\t// in\n    tag_64:\n      stop\n        /* \"@openzeppelin/contracts-upgradeable/access/OwnableUpgradeable.sol\":3405:3620  function transferOwnership(address newOwner) public virtual onlyOwner {... */\n    tag_15:\n      tag_68\n      0x04\n      dup1\n      calldatasize\n      sub\n      dup2\n      add\n      swap1\n      tag_69\n      swap2\n      swap1\n      tag_70\n      jump\t// in\n    tag_69:\n      tag_71\n      jump\t// in\n    tag_68:\n      stop\n        /* \"contracts/Crumb.sol\":4344:4632  function getSurveyVoteCountPerOptions(uint surveyIndex) public view returns (uint256[] memory) {... */\n    tag_21:\n        /* \"contracts/Crumb.sol\":4421:4437  uint256[] memory */\n      0x60\n        /* \"contracts/Crumb.sol\":4472:4473  0 */\n      0x00\n        /* \"contracts/Crumb.sol\":4457:4468  surveyIndex */\n      dup3\n        /* \"contracts/Crumb.sol\":4457:4473  surveyIndex >= 0 */\n      lt\n      iszero\n        /* \"contracts/Crumb.sol\":4457:4505  surveyIndex >= 0 && surveyIndex < surveys.length */\n      dup1\n      iszero\n      tag_73\n      jumpi\n      pop\n        /* \"contracts/Crumb.sol\":4491:4498  surveys */\n      0x00\n        /* \"contracts/Crumb.sol\":4491:4505  surveys.length */\n      dup1\n      sload\n      swap1\n      pop\n        /* \"contracts/Crumb.sol\":4477:4488  surveyIndex */\n      dup3\n        /* \"contracts/Crumb.sol\":4477:4505  surveyIndex < surveys.length */\n      lt\n        /* \"contracts/Crumb.sol\":4457:4505  surveyIndex >= 0 && surveyIndex < surveys.length */\n    tag_73:\n        /* \"contracts/Crumb.sol\":4457:4541  surveyIndex >= 0 && surveyIndex < surveys.length && surveyIndex <= type(uint256).max */\n      dup1\n      iszero\n      tag_74\n      jumpi\n      pop\n        /* \"contracts/Crumb.sol\":4524:4541  type(uint256).max */\n      0xffffffffffffffffffffffffffffffffffffffffffffffffffffffffffffffff\n        /* \"contracts/Crumb.sol\":4509:4520  surveyIndex */\n      dup3\n        /* \"contracts/Crumb.sol\":4509:4541  surveyIndex <= type(uint256).max */\n      gt\n      iszero\n        /* \"contracts/Crumb.sol\":4457:4541  surveyIndex >= 0 && surveyIndex < surveys.length && surveyIndex <= type(uint256).max */\n    tag_74:\n        /* \"contracts/Crumb.sol\":4449:4559  require(surveyIndex >= 0 && surveyIndex < surveys.length && surveyIndex <= type(uint256).max, \"invalid index\") */\n      tag_75\n      jumpi\n      mload(0x40)\n      0x08c379a000000000000000000000000000000000000000000000000000000000\n      dup2\n      mstore\n      0x04\n      add\n      tag_76\n      swap1\n      tag_77\n      jump\t// in\n    tag_76:\n      mload(0x40)\n      dup1\n      swap2\n      sub\n      swap1\n      revert\n    tag_75:\n        /* \"contracts/Crumb.sol\":4585:4592  surveys */\n      0x00\n        /* \"contracts/Crumb.sol\":4593:4604  surveyIndex */\n      dup3\n        /* \"contracts/Crumb.sol\":4585:4605  surveys[surveyIndex] */\n      dup2\n      sload\n      dup2\n      lt\n      tag_78\n      jumpi\n      tag_79\n      tag_80\n      jump\t// in\n    tag_79:\n    tag_78:\n      swap1\n      0x00\n      mstore\n      keccak256(0x00, 0x20)\n      swap1\n      0x05\n      mul\n      add\n        /* \"contracts/Crumb.sol\":4585:4625  surveys[surveyIndex].voteCountPerOptions */\n      0x02\n      add\n        /* \"contracts/Crumb.sol\":4578:4625  return surveys[surveyIndex].voteCountPerOptions */\n      dup1\n      sload\n      dup1\n      0x20\n      mul\n      0x20\n      add\n      mload(0x40)\n      swap1\n      dup2\n      add\n      0x40\n      mstore\n      dup1\n      swap3\n      swap2\n      swap1\n      dup2\n      dup2\n      mstore\n      0x20\n      add\n      dup3\n      dup1\n      sload\n      dup1\n      iszero\n      tag_82\n      jumpi\n      0x20\n      mul\n      dup3\n      add\n      swap2\n      swap1\n      0x00\n      mstore\n      keccak256(0x00, 0x20)\n      swap1\n    tag_83:\n      dup2\n      sload\n      dup2\n      mstore\n      0x20\n      add\n      swap1\n      0x01\n      add\n      swap1\n      dup1\n      dup4\n      gt\n      tag_83\n      jumpi\n    tag_82:\n      pop\n      pop\n      pop\n      pop\n      pop\n      swap1\n      pop\n        /* \"contracts/Crumb.sol\":4344:4632  function getSurveyVoteCountPerOptions(uint surveyIndex) public view returns (uint256[] memory) {... */\n      swap2\n      swap1\n      pop\n      jump\t// out\n        /* \"contracts/Crumb.sol\":1070:1679  function createSurvey(string memory _question, string[] memory _options, bool _initialActiveState) public onlyOwner {... */\n    tag_27:\n        /* \"@openzeppelin/contracts-upgradeable/access/OwnableUpgradeable.sol\":2334:2347  _checkOwner() */\n      tag_85\n        /* \"@openzeppelin/contracts-upgradeable/access/OwnableUpgradeable.sol\":2334:2345  _checkOwner */\n      tag_86\n        /* \"@openzeppelin/contracts-upgradeable/access/OwnableUpgradeable.sol\":2334:2347  _checkOwner() */\n      jump\t// in\n    tag_85:\n        /* \"contracts/Crumb.sol\":1231:1232  0 */\n      0x00\n        /* \"contracts/Crumb.sol\":1210:1219  _question */\n      dup4\n        /* \"contracts/Crumb.sol\":1204:1227  bytes(_question).length */\n      mload\n        /* \"contracts/Crumb.sol\":1204:1232  bytes(_question).length != 0 */\n      sub\n        /* \"contracts/Crumb.sol\":1196:1266  require(bytes(_question).length != 0, \"empty question is not allowed\") */\n      tag_88\n      jumpi\n      mload(0x40)\n      0x08c379a000000000000000000000000000000000000000000000000000000000\n      dup2\n      mstore\n      0x04\n      add\n      tag_89\n      swap1\n      tag_90\n      jump\t// in\n    tag_89:\n      mload(0x40)\n      dup1\n      swap2\n      sub\n      swap1\n      revert\n    tag_88:\n        /* \"contracts/Crumb.sol\":1303:1304  2 */\n      0x02\n        /* \"contracts/Crumb.sol\":1284:1292  _options */\n      dup3\n        /* \"contracts/Crumb.sol\":1284:1299  _options.length */\n      mload\n        /* \"contracts/Crumb.sol\":1284:1304  _options.length >= 2 */\n      lt\n      iszero\n        /* \"contracts/Crumb.sol\":1276:1340  require(_options.length >= 2, \"At least 2 options are required\") */\n      tag_91\n      jumpi\n      mload(0x40)\n      0x08c379a000000000000000000000000000000000000000000000000000000000\n      dup2\n      mstore\n      0x04\n      add\n      tag_92\n      swap1\n      tag_93\n      jump\t// in\n    tag_92:\n      mload(0x40)\n      dup1\n      swap2\n      sub\n      swap1\n      revert\n    tag_91:\n        /* \"contracts/Crumb.sol\":1359:1366  surveys */\n      0x00\n        /* \"contracts/Crumb.sol\":1359:1373  surveys.push() */\n      0x01\n      dup2\n      0x01\n      dup2\n      sload\n      add\n      dup1\n      dup3\n      sstore\n      dup1\n      swap2\n      pop\n      pop\n      sub\n      swap1\n      0x00\n      mstore\n      keccak256(0x00, 0x20)\n      swap1\n      pop\n      pop\n        /* \"contracts/Crumb.sol\":1384:1405  Survey storage survey */\n      0x00\n        /* \"contracts/Crumb.sol\":1408:1415  surveys */\n      dup1\n        /* \"contracts/Crumb.sol\":1433:1434  1 */\n      0x01\n        /* \"contracts/Crumb.sol\":1416:1423  surveys */\n      0x00\n        /* \"contracts/Crumb.sol\":1416:1430  surveys.length */\n      dup1\n      sload\n      swap1\n      pop\n        /* \"contracts/Crumb.sol\":1416:1434  surveys.length - 1 */\n      tag_95\n      swap2\n      swap1\n      tag_96\n      jump\t// in\n    tag_95:\n        /* \"contracts/Crumb.sol\":1408:1435  surveys[surveys.length - 1] */\n      dup2\n      sload\n      dup2\n      lt\n      tag_97\n      jumpi\n      tag_98\n      tag_80\n      jump\t// in\n    tag_98:\n    tag_97:\n      swap1\n      0x00\n      mstore\n      keccak256(0x00, 0x20)\n      swap1\n      0x05\n      mul\n      add\n        /* \"contracts/Crumb.sol\":1384:1435  Survey storage survey = surveys[surveys.length - 1] */\n      swap1\n      pop\n        /* \"contracts/Crumb.sol\":1445:1471  uint[] memory initialVotes */\n      0x00\n        /* \"contracts/Crumb.sol\":1485:1493  _options */\n      dup4\n        /* \"contracts/Crumb.sol\":1485:1500  _options.length */\n      mload\n        /* \"contracts/Crumb.sol\":1474:1501  new uint[](_options.length) */\n      0xffffffffffffffff\n      dup2\n      gt\n      iszero\n      tag_100\n      jumpi\n      tag_101\n      tag_102\n      jump\t// in\n    tag_101:\n    tag_100:\n      mload(0x40)\n      swap1\n      dup1\n      dup3\n      mstore\n      dup1\n      0x20\n      mul\n      0x20\n      add\n      dup3\n      add\n      0x40\n      mstore\n      dup1\n      iszero\n      tag_103\n      jumpi\n      dup2\n      0x20\n      add\n      0x20\n      dup3\n      mul\n      dup1\n      calldatasize\n      dup4\n      calldatacopy\n      dup1\n      dup3\n      add\n      swap2\n      pop\n      pop\n      swap1\n      pop\n    tag_103:\n      pop\n        /* \"contracts/Crumb.sol\":1445:1501  uint[] memory initialVotes = new uint[](_options.length) */\n      swap1\n      pop\n        /* \"contracts/Crumb.sol\":1529:1538  _question */\n      dup5\n        /* \"contracts/Crumb.sol\":1511:1517  survey */\n      dup3\n        /* \"contracts/Crumb.sol\":1511:1526  survey.question */\n      0x00\n      add\n        /* \"contracts/Crumb.sol\":1511:1538  survey.question = _question */\n      swap1\n      dup2\n      tag_104\n      swap2\n      swap1\n      tag_105\n      jump\t// in\n    tag_104:\n      pop\n        /* \"contracts/Crumb.sol\":1565:1573  _options */\n      dup4\n        /* \"contracts/Crumb.sol\":1548:1554  survey */\n      dup3\n        /* \"contracts/Crumb.sol\":1548:1562  survey.options */\n      0x01\n      add\n        /* \"contracts/Crumb.sol\":1548:1573  survey.options = _options */\n      swap1\n      dup1\n      mload\n      swap1\n      0x20\n      add\n      swap1\n      tag_106\n      swap3\n      swap2\n      swap1\n      tag_107\n      jump\t// in\n    tag_106:\n      pop\n        /* \"contracts/Crumb.sol\":1612:1624  initialVotes */\n      dup1\n        /* \"contracts/Crumb.sol\":1583:1589  survey */\n      dup3\n        /* \"contracts/Crumb.sol\":1583:1609  survey.voteCountPerOptions */\n      0x02\n      add\n        /* \"contracts/Crumb.sol\":1583:1624  survey.voteCountPerOptions = initialVotes */\n      swap1\n      dup1\n      mload\n      swap1\n      0x20\n      add\n      swap1\n      tag_108\n      swap3\n      swap2\n      swap1\n      tag_109\n      jump\t// in\n    tag_108:\n      pop\n        /* \"contracts/Crumb.sol\":1652:1671  _initialActiveState */\n      dup3\n        /* \"contracts/Crumb.sol\":1634:1640  survey */\n      dup3\n        /* \"contracts/Crumb.sol\":1634:1649  survey.isActive */\n      0x03\n      add\n      0x00\n        /* \"contracts/Crumb.sol\":1634:1671  survey.isActive = _initialActiveState */\n      0x0100\n      exp\n      dup2\n      sload\n      dup2\n      0xff\n      mul\n      not\n      and\n      swap1\n      dup4\n      iszero\n      iszero\n      mul\n      or\n      swap1\n      sstore\n      pop\n        /* \"contracts/Crumb.sol\":1186:1679  {... */\n      pop\n      pop\n        /* \"contracts/Crumb.sol\":1070:1679  function createSurvey(string memory _question, string[] memory _options, bool _initialActiveState) public onlyOwner {... */\n      pop\n      pop\n      pop\n      jump\t// out\n        /* \"contracts/Crumb.sol\":3869:4224  function getSurveyOptions(uint surveyIndex) public view returns (string[] memory) {... */\n    tag_30:\n        /* \"contracts/Crumb.sol\":3934:3949  string[] memory */\n      0x60\n        /* \"contracts/Crumb.sol\":3984:3985  0 */\n      0x00\n        /* \"contracts/Crumb.sol\":3969:3980  surveyIndex */\n      dup3\n        /* \"contracts/Crumb.sol\":3969:3985  surveyIndex >= 0 */\n      lt\n      iszero\n        /* \"contracts/Crumb.sol\":3969:4017  surveyIndex >= 0 && surveyIndex < surveys.length */\n      dup1\n      iszero\n      tag_111\n      jumpi\n      pop\n        /* \"contracts/Crumb.sol\":4003:4010  surveys */\n      0x00\n        /* \"contracts/Crumb.sol\":4003:4017  surveys.length */\n      dup1\n      sload\n      swap1\n      pop\n        /* \"contracts/Crumb.sol\":3989:4000  surveyIndex */\n      dup3\n        /* \"contracts/Crumb.sol\":3989:4017  surveyIndex < surveys.length */\n      lt\n        /* \"contracts/Crumb.sol\":3969:4017  surveyIndex >= 0 && surveyIndex < surveys.length */\n    tag_111:\n        /* \"contracts/Crumb.sol\":3969:4053  surveyIndex >= 0 && surveyIndex < surveys.length && surveyIndex <= type(uint256).max */\n      dup1\n      iszero\n      tag_112\n      jumpi\n      pop\n        /* \"contracts/Crumb.sol\":4036:4053  type(uint256).max */\n      0xffffffffffffffffffffffffffffffffffffffffffffffffffffffffffffffff\n        /* \"contracts/Crumb.sol\":4021:4032  surveyIndex */\n      dup3\n        /* \"contracts/Crumb.sol\":4021:4053  surveyIndex <= type(uint256).max */\n      gt\n      iszero\n        /* \"contracts/Crumb.sol\":3969:4053  surveyIndex >= 0 && surveyIndex < surveys.length && surveyIndex <= type(uint256).max */\n    tag_112:\n        /* \"contracts/Crumb.sol\":3961:4071  require(surveyIndex >= 0 && surveyIndex < surveys.length && surveyIndex <= type(uint256).max, \"invalid index\") */\n      tag_113\n      jumpi\n      mload(0x40)\n      0x08c379a000000000000000000000000000000000000000000000000000000000\n      dup2\n      mstore\n      0x04\n      add\n      tag_114\n      swap1\n      tag_77\n      jump\t// in\n    tag_114:\n      mload(0x40)\n      dup1\n      swap2\n      sub\n      swap1\n      revert\n    tag_113:\n        /* \"contracts/Crumb.sol\":4090:4113  string[] memory options */\n      0x00\n        /* \"contracts/Crumb.sol\":4116:4123  surveys */\n      dup1\n        /* \"contracts/Crumb.sol\":4124:4135  surveyIndex */\n      dup4\n        /* \"contracts/Crumb.sol\":4116:4136  surveys[surveyIndex] */\n      dup2\n      sload\n      dup2\n      lt\n      tag_115\n      jumpi\n      tag_116\n      tag_80\n      jump\t// in\n    tag_116:\n    tag_115:\n      swap1\n      0x00\n      mstore\n      keccak256(0x00, 0x20)\n      swap1\n      0x05\n      mul\n      add\n        /* \"contracts/Crumb.sol\":4116:4144  surveys[surveyIndex].options */\n      0x01\n      add\n        /* \"contracts/Crumb.sol\":4090:4144  string[] memory options = surveys[surveyIndex].options */\n      dup1\n      sload\n      dup1\n      0x20\n      mul\n      0x20\n      add\n      mload(0x40)\n      swap1\n      dup2\n      add\n      0x40\n      mstore\n      dup1\n      swap3\n      swap2\n      swap1\n      dup2\n      dup2\n      mstore\n      0x20\n      add\n      0x00\n      swap1\n    tag_118:\n      dup3\n      dup3\n      lt\n      iszero\n      tag_119\n      jumpi\n      dup4\n      dup3\n      swap1\n      0x00\n      mstore\n      keccak256(0x00, 0x20)\n      add\n      dup1\n      sload\n      tag_121\n      swap1\n      tag_122\n      jump\t// in\n    tag_121:\n      dup1\n      0x1f\n      add\n      0x20\n      dup1\n      swap2\n      div\n      mul\n      0x20\n      add\n      mload(0x40)\n      swap1\n      dup2\n      add\n      0x40\n      mstore\n      dup1\n      swap3\n      swap2\n      swap1\n      dup2\n      dup2\n      mstore\n      0x20\n      add\n      dup3\n      dup1\n      sload\n      tag_123\n      swap1\n      tag_122\n      jump\t// in\n    tag_123:\n      dup1\n      iszero\n      tag_124\n      jumpi\n      dup1\n      0x1f\n      lt\n      tag_125\n      jumpi\n      0x0100\n      dup1\n      dup4\n      sload\n      div\n      mul\n      dup4\n      mstore\n      swap2\n      0x20\n      add\n      swap2\n      jump(tag_124)\n    tag_125:\n      dup3\n      add\n      swap2\n      swap1\n      0x00\n      mstore\n      keccak256(0x00, 0x20)\n      swap1\n    tag_126:\n      dup2\n      sload\n      dup2\n      mstore\n      swap1\n      0x01\n      add\n      swap1\n      0x20\n      add\n      dup1\n      dup4\n      gt\n      tag_126\n      jumpi\n      dup3\n      swap1\n      sub\n      0x1f\n      and\n      dup3\n      add\n      swap2\n    tag_124:\n      pop\n      pop\n      pop\n      pop\n      pop\n      dup2\n      mstore\n      0x20\n      add\n      swap1\n      0x01\n      add\n      swap1\n      jump(tag_118)\n    tag_119:\n      pop\n      pop\n      pop\n      pop\n      swap1\n      pop\n        /* \"contracts/Crumb.sol\":4210:4217  options */\n      dup1\n        /* \"contracts/Crumb.sol\":4203:4217  return options */\n      swap2\n      pop\n      pop\n        /* \"contracts/Crumb.sol\":3869:4224  function getSurveyOptions(uint surveyIndex) public view returns (string[] memory) {... */\n      swap2\n      swap1\n      pop\n      jump\t// out\n        /* \"contracts/Crumb.sol\":3153:3368  function amIVoted(uint surveyID) public view returns (bool) {... */\n    tag_35:\n        /* \"contracts/Crumb.sol\":3207:3211  bool */\n      0x00\n        /* \"contracts/Crumb.sol\":3243:3244  0 */\n      dup1\n        /* \"contracts/Crumb.sol\":3231:3239  surveyID */\n      dup3\n        /* \"contracts/Crumb.sol\":3231:3244  surveyID >= 0 */\n      lt\n      iszero\n        /* \"contracts/Crumb.sol\":3231:3277  surveyID >= 0 && surveyID <= type(uint256).max */\n      dup1\n      iszero\n      tag_128\n      jumpi\n      pop\n        /* \"contracts/Crumb.sol\":3260:3277  type(uint256).max */\n      0xffffffffffffffffffffffffffffffffffffffffffffffffffffffffffffffff\n        /* \"contracts/Crumb.sol\":3248:3256  surveyID */\n      dup3\n        /* \"contracts/Crumb.sol\":3248:3277  surveyID <= type(uint256).max */\n      gt\n      iszero\n        /* \"contracts/Crumb.sol\":3231:3277  surveyID >= 0 && surveyID <= type(uint256).max */\n    tag_128:\n        /* \"contracts/Crumb.sol\":3231:3306  surveyID >= 0 && surveyID <= type(uint256).max && surveyID < surveys.length */\n      dup1\n      iszero\n      tag_129\n      jumpi\n      pop\n        /* \"contracts/Crumb.sol\":3292:3299  surveys */\n      0x00\n        /* \"contracts/Crumb.sol\":3292:3306  surveys.length */\n      dup1\n      sload\n      swap1\n      pop\n        /* \"contracts/Crumb.sol\":3281:3289  surveyID */\n      dup3\n        /* \"contracts/Crumb.sol\":3281:3306  surveyID < surveys.length */\n      lt\n        /* \"contracts/Crumb.sol\":3231:3306  surveyID >= 0 && surveyID <= type(uint256).max && surveyID < surveys.length */\n    tag_129:\n        /* \"contracts/Crumb.sol\":3223:3321  require(surveyID >= 0 && surveyID <= type(uint256).max && surveyID < surveys.length, \"invalid id\") */\n      tag_130\n      jumpi\n      mload(0x40)\n      0x08c379a000000000000000000000000000000000000000000000000000000000\n      dup2\n      mstore\n      0x04\n      add\n      tag_131\n      swap1\n      tag_132\n      jump\t// in\n    tag_131:\n      mload(0x40)\n      dup1\n      swap2\n      sub\n      swap1\n      revert\n    tag_130:\n        /* \"contracts/Crumb.sol\":3331:3361  hasVoted(msg.sender, surveyID) */\n      tag_133\n        /* \"contracts/Crumb.sol\":3340:3350  msg.sender */\n      caller\n        /* \"contracts/Crumb.sol\":3352:3360  surveyID */\n      dup4\n        /* \"contracts/Crumb.sol\":3331:3339  hasVoted */\n      tag_41\n        /* \"contracts/Crumb.sol\":3331:3361  hasVoted(msg.sender, surveyID) */\n      jump\t// in\n    tag_133:\n      pop\n        /* \"contracts/Crumb.sol\":3153:3368  function amIVoted(uint surveyID) public view returns (bool) {... */\n      swap2\n      swap1\n      pop\n      jump\t// out\n        /* \"contracts/Crumb.sol\":3434:3760  function hasVoted(address voterAddress, uint surveyID) public view returns (bool) {... */\n    tag_41:\n        /* \"contracts/Crumb.sol\":3510:3514  bool */\n      0x00\n        /* \"contracts/Crumb.sol\":3558:3559  0 */\n      dup1\n        /* \"contracts/Crumb.sol\":3534:3560  voterAddress != address(0) */\n      0xffffffffffffffffffffffffffffffffffffffff\n      and\n        /* \"contracts/Crumb.sol\":3534:3546  voterAddress */\n      dup4\n        /* \"contracts/Crumb.sol\":3534:3560  voterAddress != address(0) */\n      0xffffffffffffffffffffffffffffffffffffffff\n      and\n      sub\n        /* \"contracts/Crumb.sol\":3526:3580  require(voterAddress != address(0), \"invalid address\") */\n      tag_135\n      jumpi\n      mload(0x40)\n      0x08c379a000000000000000000000000000000000000000000000000000000000\n      dup2\n      mstore\n      0x04\n      add\n      tag_136\n      swap1\n      tag_137\n      jump\t// in\n    tag_136:\n      mload(0x40)\n      dup1\n      swap2\n      sub\n      swap1\n      revert\n    tag_135:\n        /* \"contracts/Crumb.sol\":3610:3611  0 */\n      0x00\n        /* \"contracts/Crumb.sol\":3598:3606  surveyID */\n      dup3\n        /* \"contracts/Crumb.sol\":3598:3611  surveyID >= 0 */\n      lt\n      iszero\n        /* \"contracts/Crumb.sol\":3598:3640  surveyID >= 0 && surveyID < surveys.length */\n      dup1\n      iszero\n      tag_138\n      jumpi\n      pop\n        /* \"contracts/Crumb.sol\":3626:3633  surveys */\n      0x00\n        /* \"contracts/Crumb.sol\":3626:3640  surveys.length */\n      dup1\n      sload\n      swap1\n      pop\n        /* \"contracts/Crumb.sol\":3615:3623  surveyID */\n      dup3\n        /* \"contracts/Crumb.sol\":3615:3640  surveyID < surveys.length */\n      lt\n        /* \"contracts/Crumb.sol\":3598:3640  surveyID >= 0 && surveyID < surveys.length */\n    tag_138:\n        /* \"contracts/Crumb.sol\":3598:3673  surveyID >= 0 && surveyID < surveys.length && surveyID <= type(uint256).max */\n      dup1\n      iszero\n      tag_139\n      jumpi\n      pop\n        /* \"contracts/Crumb.sol\":3656:3673  type(uint256).max */\n      0xffffffffffffffffffffffffffffffffffffffffffffffffffffffffffffffff\n        /* \"contracts/Crumb.sol\":3644:3652  surveyID */\n      dup3\n        /* \"contracts/Crumb.sol\":3644:3673  surveyID <= type(uint256).max */\n      gt\n      iszero\n        /* \"contracts/Crumb.sol\":3598:3673  surveyID >= 0 && surveyID < surveys.length && surveyID <= type(uint256).max */\n    tag_139:\n        /* \"contracts/Crumb.sol\":3590:3695  require(surveyID >= 0 && surveyID < surveys.length && surveyID <= type(uint256).max, \"invalid survey ID\") */\n      tag_140\n      jumpi\n      mload(0x40)\n      0x08c379a000000000000000000000000000000000000000000000000000000000\n      dup2\n      mstore\n      0x04\n      add\n      tag_141\n      swap1\n      tag_142\n      jump\t// in\n    tag_141:\n      mload(0x40)\n      dup1\n      swap2\n      sub\n      swap1\n      revert\n    tag_140:\n        /* \"contracts/Crumb.sol\":3713:3720  surveys */\n      0x00\n        /* \"contracts/Crumb.sol\":3721:3729  surveyID */\n      dup3\n        /* \"contracts/Crumb.sol\":3713:3730  surveys[surveyID] */\n      dup2\n      sload\n      dup2\n      lt\n      tag_143\n      jumpi\n      tag_144\n      tag_80\n      jump\t// in\n    tag_144:\n    tag_143:\n      swap1\n      0x00\n      mstore\n      keccak256(0x00, 0x20)\n      swap1\n      0x05\n      mul\n      add\n        /* \"contracts/Crumb.sol\":3713:3739  surveys[surveyID].hasVoted */\n      0x04\n      add\n        /* \"contracts/Crumb.sol\":3713:3753  surveys[surveyID].hasVoted[voterAddress] */\n      0x00\n        /* \"contracts/Crumb.sol\":3740:3752  voterAddress */\n      dup5\n        /* \"contracts/Crumb.sol\":3713:3753  surveys[surveyID].hasVoted[voterAddress] */\n      0xffffffffffffffffffffffffffffffffffffffff\n      and\n      0xffffffffffffffffffffffffffffffffffffffff\n      and\n      dup2\n      mstore\n      0x20\n      add\n      swap1\n      dup2\n      mstore\n      0x20\n      add\n      0x00\n      keccak256\n      0x00\n      swap1\n      sload\n      swap1\n      0x0100\n      exp\n      swap1\n      div\n      0xff\n      and\n        /* \"contracts/Crumb.sol\":3706:3753  return surveys[surveyID].hasVoted[voterAddress] */\n      swap1\n      pop\n        /* \"contracts/Crumb.sol\":3434:3760  function hasVoted(address voterAddress, uint surveyID) public view returns (bool) {... */\n      swap3\n      swap2\n      pop\n      pop\n      jump\t// out\n        /* \"@openzeppelin/contracts-upgradeable/access/OwnableUpgradeable.sol\":3155:3256  function renounceOwnership() public virtual onlyOwner {... */\n    tag_44:\n        /* \"@openzeppelin/contracts-upgradeable/access/OwnableUpgradeable.sol\":2334:2347  _checkOwner() */\n      tag_147\n        /* \"@openzeppelin/contracts-upgradeable/access/OwnableUpgradeable.sol\":2334:2345  _checkOwner */\n      tag_86\n        /* \"@openzeppelin/contracts-upgradeable/access/OwnableUpgradeable.sol\":2334:2347  _checkOwner() */\n      jump\t// in\n    tag_147:\n        /* \"@openzeppelin/contracts-upgradeable/access/OwnableUpgradeable.sol\":3219:3249  _transferOwnership(address(0)) */\n      tag_149\n        /* \"@openzeppelin/contracts-upgradeable/access/OwnableUpgradeable.sol\":3246:3247  0 */\n      0x00\n        /* \"@openzeppelin/contracts-upgradeable/access/OwnableUpgradeable.sol\":3219:3237  _transferOwnership */\n      tag_150\n        /* \"@openzeppelin/contracts-upgradeable/access/OwnableUpgradeable.sol\":3219:3249  _transferOwnership(address(0)) */\n      jump\t// in\n    tag_149:\n        /* \"@openzeppelin/contracts-upgradeable/access/OwnableUpgradeable.sol\":3155:3256  function renounceOwnership() public virtual onlyOwner {... */\n      jump\t// out\n        /* \"contracts/Crumb.sol\":2574:2948  function changeActiveStatus(uint surveyIndex, bool isActive) public onlyOwner {... */\n    tag_48:\n        /* \"@openzeppelin/contracts-upgradeable/access/OwnableUpgradeable.sol\":2334:2347  _checkOwner() */\n      tag_152\n        /* \"@openzeppelin/contracts-upgradeable/access/OwnableUpgradeable.sol\":2334:2345  _checkOwner */\n      tag_86\n        /* \"@openzeppelin/contracts-upgradeable/access/OwnableUpgradeable.sol\":2334:2347  _checkOwner() */\n      jump\t// in\n    tag_152:\n        /* \"contracts/Crumb.sol\":2685:2686  0 */\n      0x00\n        /* \"contracts/Crumb.sol\":2670:2681  surveyIndex */\n      dup3\n        /* \"contracts/Crumb.sol\":2670:2686  surveyIndex >= 0 */\n      lt\n      iszero\n        /* \"contracts/Crumb.sol\":2670:2718  surveyIndex >= 0 && surveyIndex < surveys.length */\n      dup1\n      iszero\n      tag_154\n      jumpi\n      pop\n        /* \"contracts/Crumb.sol\":2704:2711  surveys */\n      0x00\n        /* \"contracts/Crumb.sol\":2704:2718  surveys.length */\n      dup1\n      sload\n      swap1\n      pop\n        /* \"contracts/Crumb.sol\":2690:2701  surveyIndex */\n      dup3\n        /* \"contracts/Crumb.sol\":2690:2718  surveyIndex < surveys.length */\n      lt\n        /* \"contracts/Crumb.sol\":2670:2718  surveyIndex >= 0 && surveyIndex < surveys.length */\n    tag_154:\n        /* \"contracts/Crumb.sol\":2670:2754  surveyIndex >= 0 && surveyIndex < surveys.length && surveyIndex <= type(uint256).max */\n      dup1\n      iszero\n      tag_155\n      jumpi\n      pop\n        /* \"contracts/Crumb.sol\":2737:2754  type(uint256).max */\n      0xffffffffffffffffffffffffffffffffffffffffffffffffffffffffffffffff\n        /* \"contracts/Crumb.sol\":2722:2733  surveyIndex */\n      dup3\n        /* \"contracts/Crumb.sol\":2722:2754  surveyIndex <= type(uint256).max */\n      gt\n      iszero\n        /* \"contracts/Crumb.sol\":2670:2754  surveyIndex >= 0 && surveyIndex < surveys.length && surveyIndex <= type(uint256).max */\n    tag_155:\n        /* \"contracts/Crumb.sol\":2662:2772  require(surveyIndex >= 0 && surveyIndex < surveys.length && surveyIndex <= type(uint256).max, \"invalid index\") */\n      tag_156\n      jumpi\n      mload(0x40)\n      0x08c379a000000000000000000000000000000000000000000000000000000000\n      dup2\n      mstore\n      0x04\n      add\n      tag_157\n      swap1\n      tag_77\n      jump\t// in\n    tag_157:\n      mload(0x40)\n      dup1\n      swap2\n      sub\n      swap1\n      revert\n    tag_156:\n        /* \"contracts/Crumb.sol\":2823:2831  isActive */\n      dup1\n        /* \"contracts/Crumb.sol\":2790:2831  surveys[surveyIndex].isActive != isActive */\n      iszero\n      iszero\n        /* \"contracts/Crumb.sol\":2790:2797  surveys */\n      0x00\n        /* \"contracts/Crumb.sol\":2798:2809  surveyIndex */\n      dup4\n        /* \"contracts/Crumb.sol\":2790:2810  surveys[surveyIndex] */\n      dup2\n      sload\n      dup2\n      lt\n      tag_158\n      jumpi\n      tag_159\n      tag_80\n      jump\t// in\n    tag_159:\n    tag_158:\n      swap1\n      0x00\n      mstore\n      keccak256(0x00, 0x20)\n      swap1\n      0x05\n      mul\n      add\n        /* \"contracts/Crumb.sol\":2790:2819  surveys[surveyIndex].isActive */\n      0x03\n      add\n      0x00\n      swap1\n      sload\n      swap1\n      0x0100\n      exp\n      swap1\n      div\n      0xff\n      and\n        /* \"contracts/Crumb.sol\":2790:2831  surveys[surveyIndex].isActive != isActive */\n      iszero\n      iszero\n      sub\n        /* \"contracts/Crumb.sol\":2782:2882  require(surveys[surveyIndex].isActive != isActive , \"survey is already in the desired active state\") */\n      tag_161\n      jumpi\n      mload(0x40)\n      0x08c379a000000000000000000000000000000000000000000000000000000000\n      dup2\n      mstore\n      0x04\n      add\n      tag_162\n      swap1\n      tag_163\n      jump\t// in\n    tag_162:\n      mload(0x40)\n      dup1\n      swap2\n      sub\n      swap1\n      revert\n    tag_161:\n        /* \"contracts/Crumb.sol\":2933:2941  isActive */\n      dup1\n        /* \"contracts/Crumb.sol\":2901:2908  surveys */\n      0x00\n        /* \"contracts/Crumb.sol\":2909:2920  surveyIndex */\n      dup4\n        /* \"contracts/Crumb.sol\":2901:2921  surveys[surveyIndex] */\n      dup2\n      sload\n      dup2\n      lt\n      tag_164\n      jumpi\n      tag_165\n      tag_80\n      jump\t// in\n    tag_165:\n    tag_164:\n      swap1\n      0x00\n      mstore\n      keccak256(0x00, 0x20)\n      swap1\n      0x05\n      mul\n      add\n        /* \"contracts/Crumb.sol\":2901:2930  surveys[surveyIndex].isActive */\n      0x03\n      add\n      0x00\n        /* \"contracts/Crumb.sol\":2901:2941  surveys[surveyIndex].isActive = isActive */\n      0x0100\n      exp\n      dup2\n      sload\n      dup2\n      0xff\n      mul\n      not\n      and\n      swap1\n      dup4\n      iszero\n      iszero\n      mul\n      or\n      swap1\n      sstore\n      pop\n        /* \"contracts/Crumb.sol\":2574:2948  function changeActiveStatus(uint surveyIndex, bool isActive) public onlyOwner {... */\n      pop\n      pop\n      jump\t// out\n        /* \"contracts/Crumb.sol\":910:1037  function initialize() public initializer {... */\n    tag_50:\n        /* \"@openzeppelin/contracts-upgradeable/proxy/utils/Initializable.sol\":4158:4188  InitializableStorage storage $ */\n      0x00\n        /* \"@openzeppelin/contracts-upgradeable/proxy/utils/Initializable.sol\":4191:4217  _getInitializableStorage() */\n      tag_168\n        /* \"@openzeppelin/contracts-upgradeable/proxy/utils/Initializable.sol\":4191:4215  _getInitializableStorage */\n      tag_169\n        /* \"@openzeppelin/contracts-upgradeable/proxy/utils/Initializable.sol\":4191:4217  _getInitializableStorage() */\n      jump\t// in\n    tag_168:\n        /* \"@openzeppelin/contracts-upgradeable/proxy/utils/Initializable.sol\":4158:4217  InitializableStorage storage $ = _getInitializableStorage() */\n      swap1\n      pop\n        /* \"@openzeppelin/contracts-upgradeable/proxy/utils/Initializable.sol\":4279:4298  bool isTopLevelCall */\n      0x00\n        /* \"@openzeppelin/contracts-upgradeable/proxy/utils/Initializable.sol\":4302:4303  $ */\n      dup2\n        /* \"@openzeppelin/contracts-upgradeable/proxy/utils/Initializable.sol\":4302:4317  $._initializing */\n      0x00\n      add\n      0x08\n      swap1\n      sload\n      swap1\n      0x0100\n      exp\n      swap1\n      div\n      0xff\n      and\n        /* \"@openzeppelin/contracts-upgradeable/proxy/utils/Initializable.sol\":4301:4317  !$._initializing */\n      iszero\n        /* \"@openzeppelin/contracts-upgradeable/proxy/utils/Initializable.sol\":4279:4317  bool isTopLevelCall = !$._initializing */\n      swap1\n      pop\n        /* \"@openzeppelin/contracts-upgradeable/proxy/utils/Initializable.sol\":4327:4345  uint64 initialized */\n      0x00\n        /* \"@openzeppelin/contracts-upgradeable/proxy/utils/Initializable.sol\":4348:4349  $ */\n      dup3\n        /* \"@openzeppelin/contracts-upgradeable/proxy/utils/Initializable.sol\":4348:4362  $._initialized */\n      0x00\n      add\n      0x00\n      swap1\n      sload\n      swap1\n      0x0100\n      exp\n      swap1\n      div\n      0xffffffffffffffff\n      and\n        /* \"@openzeppelin/contracts-upgradeable/proxy/utils/Initializable.sol\":4327:4362  uint64 initialized = $._initialized */\n      swap1\n      pop\n        /* \"@openzeppelin/contracts-upgradeable/proxy/utils/Initializable.sol\":4704:4721  bool initialSetup */\n      0x00\n        /* \"@openzeppelin/contracts-upgradeable/proxy/utils/Initializable.sol\":4739:4740  0 */\n      dup1\n        /* \"@openzeppelin/contracts-upgradeable/proxy/utils/Initializable.sol\":4724:4735  initialized */\n      dup3\n        /* \"@openzeppelin/contracts-upgradeable/proxy/utils/Initializable.sol\":4724:4740  initialized == 0 */\n      0xffffffffffffffff\n      and\n      eq\n        /* \"@openzeppelin/contracts-upgradeable/proxy/utils/Initializable.sol\":4724:4758  initialized == 0 && isTopLevelCall */\n      dup1\n      iszero\n      tag_170\n      jumpi\n      pop\n        /* \"@openzeppelin/contracts-upgradeable/proxy/utils/Initializable.sol\":4744:4758  isTopLevelCall */\n      dup3\n        /* \"@openzeppelin/contracts-upgradeable/proxy/utils/Initializable.sol\":4724:4758  initialized == 0 && isTopLevelCall */\n    tag_170:\n        /* \"@openzeppelin/contracts-upgradeable/proxy/utils/Initializable.sol\":4704:4758  bool initialSetup = initialized == 0 && isTopLevelCall */\n      swap1\n      pop\n        /* \"@openzeppelin/contracts-upgradeable/proxy/utils/Initializable.sol\":4768:4785  bool construction */\n      0x00\n        /* \"@openzeppelin/contracts-upgradeable/proxy/utils/Initializable.sol\":4803:4804  1 */\n      0x01\n        /* \"@openzeppelin/contracts-upgradeable/proxy/utils/Initializable.sol\":4788:4799  initialized */\n      dup4\n        /* \"@openzeppelin/contracts-upgradeable/proxy/utils/Initializable.sol\":4788:4804  initialized == 1 */\n      0xffffffffffffffff\n      and\n      eq\n        /* \"@openzeppelin/contracts-upgradeable/proxy/utils/Initializable.sol\":4788:4838  initialized == 1 && address(this).code.length == 0 */\n      dup1\n      iszero\n      tag_171\n      jumpi\n      pop\n        /* \"@openzeppelin/contracts-upgradeable/proxy/utils/Initializable.sol\":4837:4838  0 */\n      0x00\n        /* \"@openzeppelin/contracts-upgradeable/proxy/utils/Initializable.sol\":4816:4820  this */\n      address\n        /* \"@openzeppelin/contracts-upgradeable/proxy/utils/Initializable.sol\":4808:4833  address(this).code.length */\n      0xffffffffffffffffffffffffffffffffffffffff\n      and\n      extcodesize\n        /* \"@openzeppelin/contracts-upgradeable/proxy/utils/Initializable.sol\":4808:4838  address(this).code.length == 0 */\n      eq\n        /* \"@openzeppelin/contracts-upgradeable/proxy/utils/Initializable.sol\":4788:4838  initialized == 1 && address(this).code.length == 0 */\n    tag_171:\n        /* \"@openzeppelin/contracts-upgradeable/proxy/utils/Initializable.sol\":4768:4838  bool construction = initialized == 1 && address(this).code.length == 0 */\n      swap1\n      pop\n        /* \"@openzeppelin/contracts-upgradeable/proxy/utils/Initializable.sol\":4854:4866  initialSetup */\n      dup2\n        /* \"@openzeppelin/contracts-upgradeable/proxy/utils/Initializable.sol\":4853:4866  !initialSetup */\n      iszero\n        /* \"@openzeppelin/contracts-upgradeable/proxy/utils/Initializable.sol\":4853:4883  !initialSetup && !construction */\n      dup1\n      iszero\n      tag_172\n      jumpi\n      pop\n        /* \"@openzeppelin/contracts-upgradeable/proxy/utils/Initializable.sol\":4871:4883  construction */\n      dup1\n        /* \"@openzeppelin/contracts-upgradeable/proxy/utils/Initializable.sol\":4870:4883  !construction */\n      iszero\n        /* \"@openzeppelin/contracts-upgradeable/proxy/utils/Initializable.sol\":4853:4883  !initialSetup && !construction */\n    tag_172:\n        /* \"@openzeppelin/contracts-upgradeable/proxy/utils/Initializable.sol\":4849:4940  if (!initialSetup && !construction) {... */\n      iszero\n      tag_173\n      jumpi\n        /* \"@openzeppelin/contracts-upgradeable/proxy/utils/Initializable.sol\":4906:4929  InvalidInitialization() */\n      mload(0x40)\n      0xf92ee8a900000000000000000000000000000000000000000000000000000000\n      dup2\n      mstore\n      0x04\n      add\n      mload(0x40)\n      dup1\n      swap2\n      sub\n      swap1\n      revert\n        /* \"@openzeppelin/contracts-upgradeable/proxy/utils/Initializable.sol\":4849:4940  if (!initialSetup && !construction) {... */\n    tag_173:\n        /* \"@openzeppelin/contracts-upgradeable/proxy/utils/Initializable.sol\":4966:4967  1 */\n      0x01\n        /* \"@openzeppelin/contracts-upgradeable/proxy/utils/Initializable.sol\":4949:4950  $ */\n      dup6\n        /* \"@openzeppelin/contracts-upgradeable/proxy/utils/Initializable.sol\":4949:4963  $._initialized */\n      0x00\n      add\n      0x00\n        /* \"@openzeppelin/contracts-upgradeable/proxy/utils/Initializable.sol\":4949:4967  $._initialized = 1 */\n      0x0100\n      exp\n      dup2\n      sload\n      dup2\n      0xffffffffffffffff\n      mul\n      not\n      and\n      swap1\n      dup4\n      0xffffffffffffffff\n      and\n      mul\n      or\n      swap1\n      sstore\n      pop\n        /* \"@openzeppelin/contracts-upgradeable/proxy/utils/Initializable.sol\":4981:4995  isTopLevelCall */\n      dup4\n        /* \"@openzeppelin/contracts-upgradeable/proxy/utils/Initializable.sol\":4977:5044  if (isTopLevelCall) {... */\n      iszero\n      tag_174\n      jumpi\n        /* \"@openzeppelin/contracts-upgradeable/proxy/utils/Initializable.sol\":5029:5033  true */\n      0x01\n        /* \"@openzeppelin/contracts-upgradeable/proxy/utils/Initializable.sol\":5011:5012  $ */\n      dup6\n        /* \"@openzeppelin/contracts-upgradeable/proxy/utils/Initializable.sol\":5011:5026  $._initializing */\n      0x00\n      add\n      0x08\n        /* \"@openzeppelin/contracts-upgradeable/proxy/utils/Initializable.sol\":5011:5033  $._initializing = true */\n      0x0100\n      exp\n      dup2\n      sload\n      dup2\n      0xff\n      mul\n      not\n      and\n      swap1\n      dup4\n      iszero\n      iszero\n      mul\n      or\n      swap1\n      sstore\n      pop\n        /* \"@openzeppelin/contracts-upgradeable/proxy/utils/Initializable.sol\":4977:5044  if (isTopLevelCall) {... */\n    tag_174:\n        /* \"contracts/Crumb.sol\":961:987  __Ownable_init(msg.sender) */\n      tag_176\n        /* \"contracts/Crumb.sol\":976:986  msg.sender */\n      caller\n        /* \"contracts/Crumb.sol\":961:975  __Ownable_init */\n      tag_177\n        /* \"contracts/Crumb.sol\":961:987  __Ownable_init(msg.sender) */\n      jump\t// in\n    tag_176:\n        /* \"contracts/Crumb.sol\":997:1030  __ReentrancyGuardTransient_init() */\n      tag_178\n        /* \"contracts/Crumb.sol\":997:1028  __ReentrancyGuardTransient_init */\n      tag_179\n        /* \"contracts/Crumb.sol\":997:1030  __ReentrancyGuardTransient_init() */\n      jump\t// in\n    tag_178:\n        /* \"@openzeppelin/contracts-upgradeable/proxy/utils/Initializable.sol\":5068:5082  isTopLevelCall */\n      dup4\n        /* \"@openzeppelin/contracts-upgradeable/proxy/utils/Initializable.sol\":5064:5165  if (isTopLevelCall) {... */\n      iszero\n      tag_180\n      jumpi\n        /* \"@openzeppelin/contracts-upgradeable/proxy/utils/Initializable.sol\":5116:5121  false */\n      0x00\n        /* \"@openzeppelin/contracts-upgradeable/proxy/utils/Initializable.sol\":5098:5099  $ */\n      dup6\n        /* \"@openzeppelin/contracts-upgradeable/proxy/utils/Initializable.sol\":5098:5113  $._initializing */\n      0x00\n      add\n      0x08\n        /* \"@openzeppelin/contracts-upgradeable/proxy/utils/Initializable.sol\":5098:5121  $._initializing = false */\n      0x0100\n      exp\n      dup2\n      sload\n      dup2\n      0xff\n      mul\n      not\n      and\n      swap1\n      dup4\n      iszero\n      iszero\n      mul\n      or\n      swap1\n      sstore\n      pop\n        /* \"@openzeppelin/contracts-upgradeable/proxy/utils/Initializable.sol\":5140:5154  Initialized(1) */\n      0xc7f505b2f371ae2175ee4913f4499e1f2633a7b5936321eed1cdaeb6115181d2\n        /* \"@openzeppelin/contracts-upgradeable/proxy/utils/Initializable.sol\":5152:5153  1 */\n      0x01\n        /* \"@openzeppelin/contracts-upgradeable/proxy/utils/Initializable.sol\":5140:5154  Initialized(1) */\n      mload(0x40)\n      tag_181\n      swap2\n      swap1\n      tag_182\n      jump\t// in\n    tag_181:\n      mload(0x40)\n      dup1\n      swap2\n      sub\n      swap1\n      log1\n        /* \"@openzeppelin/contracts-upgradeable/proxy/utils/Initializable.sol\":5064:5165  if (isTopLevelCall) {... */\n    tag_180:\n        /* \"@openzeppelin/contracts-upgradeable/proxy/utils/Initializable.sol\":4092:5171  {... */\n      pop\n      pop\n      pop\n      pop\n      pop\n        /* \"contracts/Crumb.sol\":910:1037  function initialize() public initializer {... */\n      jump\t// out\n        /* \"contracts/Crumb.sol\":788:811  Survey[] public surveys */\n    tag_53:\n      0x00\n      dup2\n      dup2\n      sload\n      dup2\n      lt\n      tag_183\n      jumpi\n      0x00\n      dup1\n      revert\n    tag_183:\n      swap1\n      0x00\n      mstore\n      keccak256(0x00, 0x20)\n      swap1\n      0x05\n      mul\n      add\n      0x00\n      swap2\n      pop\n      swap1\n      pop\n      dup1\n      0x00\n      add\n      dup1\n      sload\n      tag_185\n      swap1\n      tag_122\n      jump\t// in\n    tag_185:\n      dup1\n      0x1f\n      add\n      0x20\n      dup1\n      swap2\n      div\n      mul\n      0x20\n      add\n      mload(0x40)\n      swap1\n      dup2\n      add\n      0x40\n      mstore\n      dup1\n      swap3\n      swap2\n      swap1\n      dup2\n      dup2\n      mstore\n      0x20\n      add\n      dup3\n      dup1\n      sload\n      tag_186\n      swap1\n      tag_122\n      jump\t// in\n    tag_186:\n      dup1\n      iszero\n      tag_187\n      jumpi\n      dup1\n      0x1f\n      lt\n      tag_188\n      jumpi\n      0x0100\n      dup1\n      dup4\n      sload\n      div\n      mul\n      dup4\n      mstore\n      swap2\n      0x20\n      add\n      swap2\n      jump(tag_187)\n    tag_188:\n      dup3\n      add\n      swap2\n      swap1\n      0x00\n      mstore\n      keccak256(0x00, 0x20)\n      swap1\n    tag_189:\n      dup2\n      sload\n      dup2\n      mstore\n      swap1\n      0x01\n      add\n      swap1\n      0x20\n      add\n      dup1\n      dup4\n      gt\n      tag_189\n      jumpi\n      dup3\n      swap1\n      sub\n      0x1f\n      and\n      dup3\n      add\n      swap2\n    tag_187:\n      pop\n      pop\n      pop\n      pop\n      pop\n      swap1\n      dup1\n      0x03\n      add\n      0x00\n      swap1\n      sload\n      swap1\n      0x0100\n      exp\n      swap1\n      div\n      0xff\n      and\n      swap1\n      pop\n      dup3\n      jump\t// out\n        /* \"@openzeppelin/contracts-upgradeable/access/OwnableUpgradeable.sol\":2441:2585  function owner() public view virtual returns (address) {... */\n    tag_57:\n        /* \"@openzeppelin/contracts-upgradeable/access/OwnableUpgradeable.sol\":2487:2494  address */\n      0x00\n        /* \"@openzeppelin/contracts-upgradeable/access/OwnableUpgradeable.sol\":2506:2530  OwnableStorage storage $ */\n      dup1\n        /* \"@openzeppelin/contracts-upgradeable/access/OwnableUpgradeable.sol\":2533:2553  _getOwnableStorage() */\n      tag_191\n        /* \"@openzeppelin/contracts-upgradeable/access/OwnableUpgradeable.sol\":2533:2551  _getOwnableStorage */\n      tag_192\n        /* \"@openzeppelin/contracts-upgradeable/access/OwnableUpgradeable.sol\":2533:2553  _getOwnableStorage() */\n      jump\t// in\n    tag_191:\n        /* \"@openzeppelin/contracts-upgradeable/access/OwnableUpgradeable.sol\":2506:2553  OwnableStorage storage $ = _getOwnableStorage() */\n      swap1\n      pop\n        /* \"@openzeppelin/contracts-upgradeable/access/OwnableUpgradeable.sol\":2570:2571  $ */\n      dup1\n        /* \"@openzeppelin/contracts-upgradeable/access/OwnableUpgradeable.sol\":2570:2578  $._owner */\n      0x00\n      add\n      0x00\n      swap1\n      sload\n      swap1\n      0x0100\n      exp\n      swap1\n      div\n      0xffffffffffffffffffffffffffffffffffffffff\n      and\n        /* \"@openzeppelin/contracts-upgradeable/access/OwnableUpgradeable.sol\":2563:2578  return $._owner */\n      swap2\n      pop\n      pop\n        /* \"@openzeppelin/contracts-upgradeable/access/OwnableUpgradeable.sol\":2441:2585  function owner() public view virtual returns (address) {... */\n      swap1\n      jump\t// out\n        /* \"contracts/Crumb.sol\":2986:3080  function getSurveyCount() public view returns (uint256) {... */\n    tag_61:\n        /* \"contracts/Crumb.sol\":3033:3040  uint256 */\n      0x00\n        /* \"contracts/Crumb.sol\":3059:3066  surveys */\n      dup1\n        /* \"contracts/Crumb.sol\":3059:3073  surveys.length */\n      dup1\n      sload\n      swap1\n      pop\n        /* \"contracts/Crumb.sol\":3052:3073  return surveys.length */\n      swap1\n      pop\n        /* \"contracts/Crumb.sol\":2986:3080  function getSurveyCount() public view returns (uint256) {... */\n      swap1\n      jump\t// out\n        /* \"contracts/Crumb.sol\":1706:2537  function vote(uint _surveyID, uint _optionIndex) public nonReentrant {... */\n    tag_67:\n        /* \"@openzeppelin/contracts-upgradeable/utils/ReentrancyGuardTransientUpgradeable.sol\":1335:1356  _nonReentrantBefore() */\n      tag_195\n        /* \"@openzeppelin/contracts-upgradeable/utils/ReentrancyGuardTransientUpgradeable.sol\":1335:1354  _nonReentrantBefore */\n      tag_196\n        /* \"@openzeppelin/contracts-upgradeable/utils/ReentrancyGuardTransientUpgradeable.sol\":1335:1356  _nonReentrantBefore() */\n      jump\t// in\n    tag_195:\n        /* \"contracts/Crumb.sol\":1815:1816  0 */\n      0x00\n        /* \"contracts/Crumb.sol\":1793:1817  msg.sender != address(0) */\n      0xffffffffffffffffffffffffffffffffffffffff\n      and\n        /* \"contracts/Crumb.sol\":1793:1803  msg.sender */\n      caller\n        /* \"contracts/Crumb.sol\":1793:1817  msg.sender != address(0) */\n      0xffffffffffffffffffffffffffffffffffffffff\n      and\n      sub\n        /* \"contracts/Crumb.sol\":1785:1837  require(msg.sender != address(0), \"invalid request\") */\n      tag_198\n      jumpi\n      mload(0x40)\n      0x08c379a000000000000000000000000000000000000000000000000000000000\n      dup2\n      mstore\n      0x04\n      add\n      tag_199\n      swap1\n      tag_200\n      jump\t// in\n    tag_199:\n      mload(0x40)\n      dup1\n      swap2\n      sub\n      swap1\n      revert\n    tag_198:\n        /* \"contracts/Crumb.sol\":1868:1869  0 */\n      0x00\n        /* \"contracts/Crumb.sol\":1855:1864  _surveyID */\n      dup3\n        /* \"contracts/Crumb.sol\":1855:1869  _surveyID >= 0 */\n      lt\n      iszero\n        /* \"contracts/Crumb.sol\":1855:1903  _surveyID >= 0 && _surveyID <= type(uint256).max */\n      dup1\n      iszero\n      tag_201\n      jumpi\n      pop\n        /* \"contracts/Crumb.sol\":1886:1903  type(uint256).max */\n      0xffffffffffffffffffffffffffffffffffffffffffffffffffffffffffffffff\n        /* \"contracts/Crumb.sol\":1873:1882  _surveyID */\n      dup3\n        /* \"contracts/Crumb.sol\":1873:1903  _surveyID <= type(uint256).max */\n      gt\n      iszero\n        /* \"contracts/Crumb.sol\":1855:1903  _surveyID >= 0 && _surveyID <= type(uint256).max */\n    tag_201:\n        /* \"contracts/Crumb.sol\":1855:1933  _surveyID >= 0 && _surveyID <= type(uint256).max && _surveyID < surveys.length */\n      dup1\n      iszero\n      tag_202\n      jumpi\n      pop\n        /* \"contracts/Crumb.sol\":1919:1926  surveys */\n      0x00\n        /* \"contracts/Crumb.sol\":1919:1933  surveys.length */\n      dup1\n      sload\n      swap1\n      pop\n        /* \"contracts/Crumb.sol\":1907:1916  _surveyID */\n      dup3\n        /* \"contracts/Crumb.sol\":1907:1933  _surveyID < surveys.length */\n      lt\n        /* \"contracts/Crumb.sol\":1855:1933  _surveyID >= 0 && _surveyID <= type(uint256).max && _surveyID < surveys.length */\n    tag_202:\n        /* \"contracts/Crumb.sol\":1847:1948  require(_surveyID >= 0 && _surveyID <= type(uint256).max && _surveyID < surveys.length, \"invalid id\") */\n      tag_203\n      jumpi\n      mload(0x40)\n      0x08c379a000000000000000000000000000000000000000000000000000000000\n      dup2\n      mstore\n      0x04\n      add\n      tag_204\n      swap1\n      tag_132\n      jump\t// in\n    tag_204:\n      mload(0x40)\n      dup1\n      swap2\n      sub\n      swap1\n      revert\n    tag_203:\n        /* \"contracts/Crumb.sol\":1966:1973  surveys */\n      0x00\n        /* \"contracts/Crumb.sol\":1974:1983  _surveyID */\n      dup3\n        /* \"contracts/Crumb.sol\":1966:1984  surveys[_surveyID] */\n      dup2\n      sload\n      dup2\n      lt\n      tag_205\n      jumpi\n      tag_206\n      tag_80\n      jump\t// in\n    tag_206:\n    tag_205:\n      swap1\n      0x00\n      mstore\n      keccak256(0x00, 0x20)\n      swap1\n      0x05\n      mul\n      add\n        /* \"contracts/Crumb.sol\":1966:1993  surveys[_surveyID].isActive */\n      0x03\n      add\n      0x00\n      swap1\n      sload\n      swap1\n      0x0100\n      exp\n      swap1\n      div\n      0xff\n      and\n        /* \"contracts/Crumb.sol\":1958:2018  require(surveys[_surveyID].isActive, \"Survey is not active\") */\n      tag_208\n      jumpi\n      mload(0x40)\n      0x08c379a000000000000000000000000000000000000000000000000000000000\n      dup2\n      mstore\n      0x04\n      add\n      tag_209\n      swap1\n      tag_210\n      jump\t// in\n    tag_209:\n      mload(0x40)\n      dup1\n      swap2\n      sub\n      swap1\n      revert\n    tag_208:\n        /* \"contracts/Crumb.sol\":2052:2053  0 */\n      0x00\n        /* \"contracts/Crumb.sol\":2036:2048  _optionIndex */\n      dup2\n        /* \"contracts/Crumb.sol\":2036:2053  _optionIndex >= 0 */\n      lt\n      iszero\n        /* \"contracts/Crumb.sol\":2036:2105  _optionIndex >= 0 && _optionIndex < surveys[_surveyID].options.length */\n      dup1\n      iszero\n      tag_211\n      jumpi\n      pop\n        /* \"contracts/Crumb.sol\":2072:2079  surveys */\n      0x00\n        /* \"contracts/Crumb.sol\":2080:2089  _surveyID */\n      dup3\n        /* \"contracts/Crumb.sol\":2072:2090  surveys[_surveyID] */\n      dup2\n      sload\n      dup2\n      lt\n      tag_212\n      jumpi\n      tag_213\n      tag_80\n      jump\t// in\n    tag_213:\n    tag_212:\n      swap1\n      0x00\n      mstore\n      keccak256(0x00, 0x20)\n      swap1\n      0x05\n      mul\n      add\n        /* \"contracts/Crumb.sol\":2072:2098  surveys[_surveyID].options */\n      0x01\n      add\n        /* \"contracts/Crumb.sol\":2072:2105  surveys[_surveyID].options.length */\n      dup1\n      sload\n      swap1\n      pop\n        /* \"contracts/Crumb.sol\":2057:2069  _optionIndex */\n      dup2\n        /* \"contracts/Crumb.sol\":2057:2105  _optionIndex < surveys[_surveyID].options.length */\n      lt\n        /* \"contracts/Crumb.sol\":2036:2105  _optionIndex >= 0 && _optionIndex < surveys[_surveyID].options.length */\n    tag_211:\n        /* \"contracts/Crumb.sol\":2028:2130  require(_optionIndex >= 0 && _optionIndex < surveys[_surveyID].options.length, \"Invalid option index\") */\n      tag_215\n      jumpi\n      mload(0x40)\n      0x08c379a000000000000000000000000000000000000000000000000000000000\n      dup2\n      mstore\n      0x04\n      add\n      tag_216\n      swap1\n      tag_217\n      jump\t// in\n    tag_216:\n      mload(0x40)\n      dup1\n      swap2\n      sub\n      swap1\n      revert\n    tag_215:\n        /* \"contracts/Crumb.sol\":2191:2196  false */\n      0x00\n        /* \"contracts/Crumb.sol\":2148:2196  surveys[_surveyID].hasVoted[msg.sender] == false */\n      iszero\n      iszero\n        /* \"contracts/Crumb.sol\":2148:2155  surveys */\n      0x00\n        /* \"contracts/Crumb.sol\":2156:2165  _surveyID */\n      dup4\n        /* \"contracts/Crumb.sol\":2148:2166  surveys[_surveyID] */\n      dup2\n      sload\n      dup2\n      lt\n      tag_218\n      jumpi\n      tag_219\n      tag_80\n      jump\t// in\n    tag_219:\n    tag_218:\n      swap1\n      0x00\n      mstore\n      keccak256(0x00, 0x20)\n      swap1\n      0x05\n      mul\n      add\n        /* \"contracts/Crumb.sol\":2148:2175  surveys[_surveyID].hasVoted */\n      0x04\n      add\n        /* \"contracts/Crumb.sol\":2148:2187  surveys[_surveyID].hasVoted[msg.sender] */\n      0x00\n        /* \"contracts/Crumb.sol\":2176:2186  msg.sender */\n      caller\n        /* \"contracts/Crumb.sol\":2148:2187  surveys[_surveyID].hasVoted[msg.sender] */\n      0xffffffffffffffffffffffffffffffffffffffff\n      and\n      0xffffffffffffffffffffffffffffffffffffffff\n      and\n      dup2\n      mstore\n      0x20\n      add\n      swap1\n      dup2\n      mstore\n      0x20\n      add\n      0x00\n      keccak256\n      0x00\n      swap1\n      sload\n      swap1\n      0x0100\n      exp\n      swap1\n      div\n      0xff\n      and\n        /* \"contracts/Crumb.sol\":2148:2196  surveys[_surveyID].hasVoted[msg.sender] == false */\n      iszero\n      iszero\n      eq\n        /* \"contracts/Crumb.sol\":2140:2223  require(surveys[_surveyID].hasVoted[msg.sender] == false, \"User has already voted\") */\n      tag_221\n      jumpi\n      mload(0x40)\n      0x08c379a000000000000000000000000000000000000000000000000000000000\n      dup2\n      mstore\n      0x04\n      add\n      tag_222\n      swap1\n      tag_223\n      jump\t// in\n    tag_222:\n      mload(0x40)\n      dup1\n      swap2\n      sub\n      swap1\n      revert\n    tag_221:\n        /* \"contracts/Crumb.sol\":2306:2323  type(uint256).max */\n      0xffffffffffffffffffffffffffffffffffffffffffffffffffffffffffffffff\n        /* \"contracts/Crumb.sol\":2250:2257  surveys */\n      0x00\n        /* \"contracts/Crumb.sol\":2258:2267  _surveyID */\n      dup4\n        /* \"contracts/Crumb.sol\":2250:2268  surveys[_surveyID] */\n      dup2\n      sload\n      dup2\n      lt\n      tag_224\n      jumpi\n      tag_225\n      tag_80\n      jump\t// in\n    tag_225:\n    tag_224:\n      swap1\n      0x00\n      mstore\n      keccak256(0x00, 0x20)\n      swap1\n      0x05\n      mul\n      add\n        /* \"contracts/Crumb.sol\":2250:2288  surveys[_surveyID].voteCountPerOptions */\n      0x02\n      add\n        /* \"contracts/Crumb.sol\":2289:2301  _optionIndex */\n      dup3\n        /* \"contracts/Crumb.sol\":2250:2302  surveys[_surveyID].voteCountPerOptions[_optionIndex] */\n      dup2\n      sload\n      dup2\n      lt\n      tag_227\n      jumpi\n      tag_228\n      tag_80\n      jump\t// in\n    tag_228:\n    tag_227:\n      swap1\n      0x00\n      mstore\n      keccak256(0x00, 0x20)\n      add\n      sload\n        /* \"contracts/Crumb.sol\":2250:2323  surveys[_surveyID].voteCountPerOptions[_optionIndex] <= type(uint256).max */\n      gt\n      iszero\n        /* \"contracts/Crumb.sol\":2242:2351  require(surveys[_surveyID].voteCountPerOptions[_optionIndex] <= type(uint256).max, \"optionIndex reached max\") */\n      tag_230\n      jumpi\n      mload(0x40)\n      0x08c379a000000000000000000000000000000000000000000000000000000000\n      dup2\n      mstore\n      0x04\n      add\n      tag_231\n      swap1\n      tag_232\n      jump\t// in\n    tag_231:\n      mload(0x40)\n      dup1\n      swap2\n      sub\n      swap1\n      revert\n    tag_230:\n        /* \"contracts/Crumb.sol\":2404:2408  true */\n      0x01\n        /* \"contracts/Crumb.sol\":2362:2369  surveys */\n      0x00\n        /* \"contracts/Crumb.sol\":2370:2379  _surveyID */\n      dup4\n        /* \"contracts/Crumb.sol\":2362:2380  surveys[_surveyID] */\n      dup2\n      sload\n      dup2\n      lt\n      tag_233\n      jumpi\n      tag_234\n      tag_80\n      jump\t// in\n    tag_234:\n    tag_233:\n      swap1\n      0x00\n      mstore\n      keccak256(0x00, 0x20)\n      swap1\n      0x05\n      mul\n      add\n        /* \"contracts/Crumb.sol\":2362:2389  surveys[_surveyID].hasVoted */\n      0x04\n      add\n        /* \"contracts/Crumb.sol\":2362:2401  surveys[_surveyID].hasVoted[msg.sender] */\n      0x00\n        /* \"contracts/Crumb.sol\":2390:2400  msg.sender */\n      caller\n        /* \"contracts/Crumb.sol\":2362:2401  surveys[_surveyID].hasVoted[msg.sender] */\n      0xffffffffffffffffffffffffffffffffffffffff\n      and\n      0xffffffffffffffffffffffffffffffffffffffff\n      and\n      dup2\n      mstore\n      0x20\n      add\n      swap1\n      dup2\n      mstore\n      0x20\n      add\n      0x00\n      keccak256\n      0x00\n        /* \"contracts/Crumb.sol\":2362:2408  surveys[_surveyID].hasVoted[msg.sender] = true */\n      0x0100\n      exp\n      dup2\n      sload\n      dup2\n      0xff\n      mul\n      not\n      and\n      swap1\n      dup4\n      iszero\n      iszero\n      mul\n      or\n      swap1\n      sstore\n      pop\n        /* \"contracts/Crumb.sol\":2418:2425  surveys */\n      0x00\n        /* \"contracts/Crumb.sol\":2426:2435  _surveyID */\n      dup3\n        /* \"contracts/Crumb.sol\":2418:2436  surveys[_surveyID] */\n      dup2\n      sload\n      dup2\n      lt\n      tag_236\n      jumpi\n      tag_237\n      tag_80\n      jump\t// in\n    tag_237:\n    tag_236:\n      swap1\n      0x00\n      mstore\n      keccak256(0x00, 0x20)\n      swap1\n      0x05\n      mul\n      add\n        /* \"contracts/Crumb.sol\":2418:2456  surveys[_surveyID].voteCountPerOptions */\n      0x02\n      add\n        /* \"contracts/Crumb.sol\":2457:2469  _optionIndex */\n      dup2\n        /* \"contracts/Crumb.sol\":2418:2470  surveys[_surveyID].voteCountPerOptions[_optionIndex] */\n      dup2\n      sload\n      dup2\n      lt\n      tag_239\n      jumpi\n      tag_240\n      tag_80\n      jump\t// in\n    tag_240:\n    tag_239:\n      swap1\n      0x00\n      mstore\n      keccak256(0x00, 0x20)\n      add\n      0x00\n        /* \"contracts/Crumb.sol\":2418:2472  surveys[_surveyID].voteCountPerOptions[_optionIndex]++ */\n      dup2\n      sload\n      dup1\n      swap3\n      swap2\n      swap1\n      tag_242\n      swap1\n      tag_243\n      jump\t// in\n    tag_242:\n      swap2\n      swap1\n      pop\n      sstore\n      pop\n        /* \"contracts/Crumb.sol\":2517:2529  _optionIndex */\n      dup1\n        /* \"contracts/Crumb.sol\":2506:2515  _surveyID */\n      dup3\n        /* \"contracts/Crumb.sol\":2494:2504  msg.sender */\n      caller\n        /* \"contracts/Crumb.sol\":2488:2530  Voted(msg.sender, _surveyID, _optionIndex) */\n      0xffffffffffffffffffffffffffffffffffffffff\n      and\n      0xea66f58e474bc09f580000e81f31b334d171db387d0c6098ba47bd897741679b\n      mload(0x40)\n      mload(0x40)\n      dup1\n      swap2\n      sub\n      swap1\n      log4\n        /* \"@openzeppelin/contracts-upgradeable/utils/ReentrancyGuardTransientUpgradeable.sol\":1377:1397  _nonReentrantAfter() */\n      tag_244\n        /* \"@openzeppelin/contracts-upgradeable/utils/ReentrancyGuardTransientUpgradeable.sol\":1377:1395  _nonReentrantAfter */\n      tag_245\n        /* \"@openzeppelin/contracts-upgradeable/utils/ReentrancyGuardTransientUpgradeable.sol\":1377:1397  _nonReentrantAfter() */\n      jump\t// in\n    tag_244:\n        /* \"contracts/Crumb.sol\":1706:2537  function vote(uint _surveyID, uint _optionIndex) public nonReentrant {... */\n      pop\n      pop\n      jump\t// out\n        /* \"@openzeppelin/contracts-upgradeable/access/OwnableUpgradeable.sol\":3405:3620  function transferOwnership(address newOwner) public virtual onlyOwner {... */\n    tag_71:\n        /* \"@openzeppelin/contracts-upgradeable/access/OwnableUpgradeable.sol\":2334:2347  _checkOwner() */\n      tag_247\n        /* \"@openzeppelin/contracts-upgradeable/access/OwnableUpgradeable.sol\":2334:2345  _checkOwner */\n      tag_86\n        /* \"@openzeppelin/contracts-upgradeable/access/OwnableUpgradeable.sol\":2334:2347  _checkOwner() */\n      jump\t// in\n    tag_247:\n        /* \"@openzeppelin/contracts-upgradeable/access/OwnableUpgradeable.sol\":3509:3510  0 */\n      0x00\n        /* \"@openzeppelin/contracts-upgradeable/access/OwnableUpgradeable.sol\":3489:3511  newOwner == address(0) */\n      0xffffffffffffffffffffffffffffffffffffffff\n      and\n        /* \"@openzeppelin/contracts-upgradeable/access/OwnableUpgradeable.sol\":3489:3497  newOwner */\n      dup2\n        /* \"@openzeppelin/contracts-upgradeable/access/OwnableUpgradeable.sol\":3489:3511  newOwner == address(0) */\n      0xffffffffffffffffffffffffffffffffffffffff\n      and\n      sub\n        /* \"@openzeppelin/contracts-upgradeable/access/OwnableUpgradeable.sol\":3485:3576  if (newOwner == address(0)) {... */\n      tag_249\n      jumpi\n        /* \"@openzeppelin/contracts-upgradeable/access/OwnableUpgradeable.sol\":3562:3563  0 */\n      0x00\n        /* \"@openzeppelin/contracts-upgradeable/access/OwnableUpgradeable.sol\":3534:3565  OwnableInvalidOwner(address(0)) */\n      mload(0x40)\n      0x1e4fbdf700000000000000000000000000000000000000000000000000000000\n      dup2\n      mstore\n      0x04\n      add\n      tag_250\n      swap2\n      swap1\n      tag_59\n      jump\t// in\n    tag_250:\n      mload(0x40)\n      dup1\n      swap2\n      sub\n      swap1\n      revert\n        /* \"@openzeppelin/contracts-upgradeable/access/OwnableUpgradeable.sol\":3485:3576  if (newOwner == address(0)) {... */\n    tag_249:\n        /* \"@openzeppelin/contracts-upgradeable/access/OwnableUpgradeable.sol\":3585:3613  _transferOwnership(newOwner) */\n      tag_251\n        /* \"@openzeppelin/contracts-upgradeable/access/OwnableUpgradeable.sol\":3604:3612  newOwner */\n      dup2\n        /* \"@openzeppelin/contracts-upgradeable/access/OwnableUpgradeable.sol\":3585:3603  _transferOwnership */\n      tag_150\n        /* \"@openzeppelin/contracts-upgradeable/access/OwnableUpgradeable.sol\":3585:3613  _transferOwnership(newOwner) */\n      jump\t// in\n    tag_251:\n        /* \"@openzeppelin/contracts-upgradeable/access/OwnableUpgradeable.sol\":3405:3620  function transferOwnership(address newOwner) public virtual onlyOwner {... */\n      pop\n      jump\t// out\n        /* \"@openzeppelin/contracts-upgradeable/access/OwnableUpgradeable.sol\":2658:2820  function _checkOwner() internal view virtual {... */\n    tag_86:\n        /* \"@openzeppelin/contracts-upgradeable/access/OwnableUpgradeable.sol\":2728:2740  _msgSender() */\n      tag_253\n        /* \"@openzeppelin/contracts-upgradeable/access/OwnableUpgradeable.sol\":2728:2738  _msgSender */\n      tag_254\n        /* \"@openzeppelin/contracts-upgradeable/access/OwnableUpgradeable.sol\":2728:2740  _msgSender() */\n      jump\t// in\n    tag_253:\n        /* \"@openzeppelin/contracts-upgradeable/access/OwnableUpgradeable.sol\":2717:2740  owner() != _msgSender() */\n      0xffffffffffffffffffffffffffffffffffffffff\n      and\n        /* \"@openzeppelin/contracts-upgradeable/access/OwnableUpgradeable.sol\":2717:2724  owner() */\n      tag_255\n        /* \"@openzeppelin/contracts-upgradeable/access/OwnableUpgradeable.sol\":2717:2722  owner */\n      tag_57\n        /* \"@openzeppelin/contracts-upgradeable/access/OwnableUpgradeable.sol\":2717:2724  owner() */\n      jump\t// in\n    tag_255:\n        /* \"@openzeppelin/contracts-upgradeable/access/OwnableUpgradeable.sol\":2717:2740  owner() != _msgSender() */\n      0xffffffffffffffffffffffffffffffffffffffff\n      and\n      eq\n        /* \"@openzeppelin/contracts-upgradeable/access/OwnableUpgradeable.sol\":2713:2814  if (owner() != _msgSender()) {... */\n      tag_256\n      jumpi\n        /* \"@openzeppelin/contracts-upgradeable/access/OwnableUpgradeable.sol\":2790:2802  _msgSender() */\n      tag_257\n        /* \"@openzeppelin/contracts-upgradeable/access/OwnableUpgradeable.sol\":2790:2800  _msgSender */\n      tag_254\n        /* \"@openzeppelin/contracts-upgradeable/access/OwnableUpgradeable.sol\":2790:2802  _msgSender() */\n      jump\t// in\n    tag_257:\n        /* \"@openzeppelin/contracts-upgradeable/access/OwnableUpgradeable.sol\":2763:2803  OwnableUnauthorizedAccount(_msgSender()) */\n      mload(0x40)\n      0x118cdaa700000000000000000000000000000000000000000000000000000000\n      dup2\n      mstore\n      0x04\n      add\n      tag_258\n      swap2\n      swap1\n      tag_59\n      jump\t// in\n    tag_258:\n      mload(0x40)\n      dup1\n      swap2\n      sub\n      swap1\n      revert\n        /* \"@openzeppelin/contracts-upgradeable/access/OwnableUpgradeable.sol\":2713:2814  if (owner() != _msgSender()) {... */\n    tag_256:\n        /* \"@openzeppelin/contracts-upgradeable/access/OwnableUpgradeable.sol\":2658:2820  function _checkOwner() internal view virtual {... */\n      jump\t// out\n        /* \"@openzeppelin/contracts-upgradeable/access/OwnableUpgradeable.sol\":3774:4022  function _transferOwnership(address newOwner) internal virtual {... */\n    tag_150:\n        /* \"@openzeppelin/contracts-upgradeable/access/OwnableUpgradeable.sol\":3847:3871  OwnableStorage storage $ */\n      0x00\n        /* \"@openzeppelin/contracts-upgradeable/access/OwnableUpgradeable.sol\":3874:3894  _getOwnableStorage() */\n      tag_260\n        /* \"@openzeppelin/contracts-upgradeable/access/OwnableUpgradeable.sol\":3874:3892  _getOwnableStorage */\n      tag_192\n        /* \"@openzeppelin/contracts-upgradeable/access/OwnableUpgradeable.sol\":3874:3894  _getOwnableStorage() */\n      jump\t// in\n    tag_260:\n        /* \"@openzeppelin/contracts-upgradeable/access/OwnableUpgradeable.sol\":3847:3894  OwnableStorage storage $ = _getOwnableStorage() */\n      swap1\n      pop\n        /* \"@openzeppelin/contracts-upgradeable/access/OwnableUpgradeable.sol\":3904:3920  address oldOwner */\n      0x00\n        /* \"@openzeppelin/contracts-upgradeable/access/OwnableUpgradeable.sol\":3923:3924  $ */\n      dup2\n        /* \"@openzeppelin/contracts-upgradeable/access/OwnableUpgradeable.sol\":3923:3931  $._owner */\n      0x00\n      add\n      0x00\n      swap1\n      sload\n      swap1\n      0x0100\n      exp\n      swap1\n      div\n      0xffffffffffffffffffffffffffffffffffffffff\n      and\n        /* \"@openzeppelin/contracts-upgradeable/access/OwnableUpgradeable.sol\":3904:3931  address oldOwner = $._owner */\n      swap1\n      pop\n        /* \"@openzeppelin/contracts-upgradeable/access/OwnableUpgradeable.sol\":3952:3960  newOwner */\n      dup3\n        /* \"@openzeppelin/contracts-upgradeable/access/OwnableUpgradeable.sol\":3941:3942  $ */\n      dup3\n        /* \"@openzeppelin/contracts-upgradeable/access/OwnableUpgradeable.sol\":3941:3949  $._owner */\n      0x00\n      add\n      0x00\n        /* \"@openzeppelin/contracts-upgradeable/access/OwnableUpgradeable.sol\":3941:3960  $._owner = newOwner */\n      0x0100\n      exp\n      dup2\n      sload\n      dup2\n      0xffffffffffffffffffffffffffffffffffffffff\n      mul\n      not\n      and\n      swap1\n      dup4\n      0xffffffffffffffffffffffffffffffffffffffff\n      and\n      mul\n      or\n      swap1\n      sstore\n      pop\n        /* \"@openzeppelin/contracts-upgradeable/access/OwnableUpgradeable.sol\":4006:4014  newOwner */\n      dup3\n        /* \"@openzeppelin/contracts-upgradeable/access/OwnableUpgradeable.sol\":3975:4015  OwnershipTransferred(oldOwner, newOwner) */\n      0xffffffffffffffffffffffffffffffffffffffff\n      and\n        /* \"@openzeppelin/contracts-upgradeable/access/OwnableUpgradeable.sol\":3996:4004  oldOwner */\n      dup2\n        /* \"@openzeppelin/contracts-upgradeable/access/OwnableUpgradeable.sol\":3975:4015  OwnershipTransferred(oldOwner, newOwner) */\n      0xffffffffffffffffffffffffffffffffffffffff\n      and\n      0x8be0079c531659141344cd1fd0a4f28419497f9722a3daafe3b4186f6b6457e0\n      mload(0x40)\n      mload(0x40)\n      dup1\n      swap2\n      sub\n      swap1\n      log3\n        /* \"@openzeppelin/contracts-upgradeable/access/OwnableUpgradeable.sol\":3837:4022  {... */\n      pop\n      pop\n        /* \"@openzeppelin/contracts-upgradeable/access/OwnableUpgradeable.sol\":3774:4022  function _transferOwnership(address newOwner) internal virtual {... */\n      pop\n      jump\t// out\n        /* \"@openzeppelin/contracts-upgradeable/proxy/utils/Initializable.sol\":9071:9276  function _getInitializableStorage() private pure returns (InitializableStorage storage $) {... */\n    tag_169:\n        /* \"@openzeppelin/contracts-upgradeable/proxy/utils/Initializable.sol\":9129:9159  InitializableStorage storage $ */\n      0x00\n        /* \"@openzeppelin/contracts-upgradeable/proxy/utils/Initializable.sol\":9171:9183  bytes32 slot */\n      dup1\n        /* \"@openzeppelin/contracts-upgradeable/proxy/utils/Initializable.sol\":9186:9213  _initializableStorageSlot() */\n      tag_262\n        /* \"@openzeppelin/contracts-upgradeable/proxy/utils/Initializable.sol\":9186:9211  _initializableStorageSlot */\n      tag_263\n        /* \"@openzeppelin/contracts-upgradeable/proxy/utils/Initializable.sol\":9186:9213  _initializableStorageSlot() */\n      jump\t// in\n    tag_262:\n        /* \"@openzeppelin/contracts-upgradeable/proxy/utils/Initializable.sol\":9171:9213  bytes32 slot = _initializableStorageSlot() */\n      swap1\n      pop\n        /* \"@openzeppelin/contracts-upgradeable/proxy/utils/Initializable.sol\":9256:9260  slot */\n      dup1\n        /* \"@openzeppelin/contracts-upgradeable/proxy/utils/Initializable.sol\":9246:9260  $.slot := slot */\n      swap2\n      pop\n        /* \"@openzeppelin/contracts-upgradeable/proxy/utils/Initializable.sol\":9232:9270  {... */\n      pop\n        /* \"@openzeppelin/contracts-upgradeable/proxy/utils/Initializable.sol\":9071:9276  function _getInitializableStorage() private pure returns (InitializableStorage storage $) {... */\n      swap1\n      jump\t// out\n        /* \"@openzeppelin/contracts-upgradeable/access/OwnableUpgradeable.sol\":1847:1974  function __Ownable_init(address initialOwner) internal onlyInitializing {... */\n    tag_177:\n        /* \"@openzeppelin/contracts-upgradeable/proxy/utils/Initializable.sol\":6929:6949  _checkInitializing() */\n      tag_265\n        /* \"@openzeppelin/contracts-upgradeable/proxy/utils/Initializable.sol\":6929:6947  _checkInitializing */\n      tag_266\n        /* \"@openzeppelin/contracts-upgradeable/proxy/utils/Initializable.sol\":6929:6949  _checkInitializing() */\n      jump\t// in\n    tag_265:\n        /* \"@openzeppelin/contracts-upgradeable/access/OwnableUpgradeable.sol\":1929:1967  __Ownable_init_unchained(initialOwner) */\n      tag_268\n        /* \"@openzeppelin/contracts-upgradeable/access/OwnableUpgradeable.sol\":1954:1966  initialOwner */\n      dup2\n        /* \"@openzeppelin/contracts-upgradeable/access/OwnableUpgradeable.sol\":1929:1953  __Ownable_init_unchained */\n      tag_269\n        /* \"@openzeppelin/contracts-upgradeable/access/OwnableUpgradeable.sol\":1929:1967  __Ownable_init_unchained(initialOwner) */\n      jump\t// in\n    tag_268:\n        /* \"@openzeppelin/contracts-upgradeable/access/OwnableUpgradeable.sol\":1847:1974  function __Ownable_init(address initialOwner) internal onlyInitializing {... */\n      pop\n      jump\t// out\n        /* \"@openzeppelin/contracts-upgradeable/utils/ReentrancyGuardTransientUpgradeable.sol\":1410:1486  function __ReentrancyGuardTransient_init() internal onlyInitializing {... */\n    tag_179:\n        /* \"@openzeppelin/contracts-upgradeable/proxy/utils/Initializable.sol\":6929:6949  _checkInitializing() */\n      tag_271\n        /* \"@openzeppelin/contracts-upgradeable/proxy/utils/Initializable.sol\":6929:6947  _checkInitializing */\n      tag_266\n        /* \"@openzeppelin/contracts-upgradeable/proxy/utils/Initializable.sol\":6929:6949  _checkInitializing() */\n      jump\t// in\n    tag_271:\n        /* \"@openzeppelin/contracts-upgradeable/utils/ReentrancyGuardTransientUpgradeable.sol\":1410:1486  function __ReentrancyGuardTransient_init() internal onlyInitializing {... */\n      jump\t// out\n        /* \"@openzeppelin/contracts-upgradeable/access/OwnableUpgradeable.sol\":1192:1351  function _getOwnableStorage() private pure returns (OwnableStorage storage $) {... */\n    tag_192:\n        /* \"@openzeppelin/contracts-upgradeable/access/OwnableUpgradeable.sol\":1244:1268  OwnableStorage storage $ */\n      0x00\n        /* \"@openzeppelin/contracts-upgradeable/access/OwnableUpgradeable.sol\":1313:1335  OwnableStorageLocation */\n      0x9016d09d72d40fdae2fd8ceac6b6234c7706214fd39c1cd1e609a0528c199300\n        /* \"@openzeppelin/contracts-upgradeable/access/OwnableUpgradeable.sol\":1303:1335  $.slot := OwnableStorageLocation */\n      swap1\n      pop\n        /* \"@openzeppelin/contracts-upgradeable/access/OwnableUpgradeable.sol\":1192:1351  function _getOwnableStorage() private pure returns (OwnableStorage storage $) {... */\n      swap1\n      jump\t// out\n        /* \"@openzeppelin/contracts-upgradeable/utils/ReentrancyGuardTransientUpgradeable.sol\":1583:1960  function _nonReentrantBefore() private {... */\n    tag_196:\n        /* \"@openzeppelin/contracts-upgradeable/utils/ReentrancyGuardTransientUpgradeable.sol\":1741:1766  _reentrancyGuardEntered() */\n      tag_275\n        /* \"@openzeppelin/contracts-upgradeable/utils/ReentrancyGuardTransientUpgradeable.sol\":1741:1764  _reentrancyGuardEntered */\n      tag_276\n        /* \"@openzeppelin/contracts-upgradeable/utils/ReentrancyGuardTransientUpgradeable.sol\":1741:1766  _reentrancyGuardEntered() */\n      jump\t// in\n    tag_275:\n        /* \"@openzeppelin/contracts-upgradeable/utils/ReentrancyGuardTransientUpgradeable.sol\":1737:1830  if (_reentrancyGuardEntered()) {... */\n      iszero\n      tag_277\n      jumpi\n        /* \"@openzeppelin/contracts-upgradeable/utils/ReentrancyGuardTransientUpgradeable.sol\":1789:1819  ReentrancyGuardReentrantCall() */\n      mload(0x40)\n      0x3ee5aeb500000000000000000000000000000000000000000000000000000000\n      dup2\n      mstore\n      0x04\n      add\n      mload(0x40)\n      dup1\n      swap2\n      sub\n      swap1\n      revert\n        /* \"@openzeppelin/contracts-upgradeable/utils/ReentrancyGuardTransientUpgradeable.sol\":1737:1830  if (_reentrancyGuardEntered()) {... */\n    tag_277:\n        /* \"@openzeppelin/contracts-upgradeable/utils/ReentrancyGuardTransientUpgradeable.sol\":1904:1953  REENTRANCY_GUARD_STORAGE.asBoolean().tstore(true) */\n      tag_278\n        /* \"@openzeppelin/contracts-upgradeable/utils/ReentrancyGuardTransientUpgradeable.sol\":1948:1952  true */\n      0x01\n        /* \"@openzeppelin/contracts-upgradeable/utils/ReentrancyGuardTransientUpgradeable.sol\":1904:1940  REENTRANCY_GUARD_STORAGE.asBoolean() */\n      tag_279\n        /* \"@openzeppelin/contracts-upgradeable/utils/ReentrancyGuardTransientUpgradeable.sol\":757:823  0x9b779b17422d0df92223018b32b4d1fa46e071723d6817e2486d003becc55f00 */\n      0x9b779b17422d0df92223018b32b4d1fa46e071723d6817e2486d003becc55f00\n        /* \"@openzeppelin/contracts-upgradeable/utils/ReentrancyGuardTransientUpgradeable.sol\":1904:1928  REENTRANCY_GUARD_STORAGE */\n      0x00\n      shl\n        /* \"@openzeppelin/contracts-upgradeable/utils/ReentrancyGuardTransientUpgradeable.sol\":1904:1938  REENTRANCY_GUARD_STORAGE.asBoolean */\n      tag_280\n        /* \"@openzeppelin/contracts-upgradeable/utils/ReentrancyGuardTransientUpgradeable.sol\":1904:1940  REENTRANCY_GUARD_STORAGE.asBoolean() */\n      jump\t// in\n    tag_279:\n        /* \"@openzeppelin/contracts-upgradeable/utils/ReentrancyGuardTransientUpgradeable.sol\":1904:1947  REENTRANCY_GUARD_STORAGE.asBoolean().tstore */\n      tag_281\n      swap1\n        /* \"@openzeppelin/contracts-upgradeable/utils/ReentrancyGuardTransientUpgradeable.sol\":1904:1953  REENTRANCY_GUARD_STORAGE.asBoolean().tstore(true) */\n      swap2\n      swap1\n      0xffffffff\n      and\n      jump\t// in\n    tag_278:\n        /* \"@openzeppelin/contracts-upgradeable/utils/ReentrancyGuardTransientUpgradeable.sol\":1583:1960  function _nonReentrantBefore() private {... */\n      jump\t// out\n        /* \"@openzeppelin/contracts-upgradeable/utils/ReentrancyGuardTransientUpgradeable.sol\":1966:2071  function _nonReentrantAfter() private {... */\n    tag_245:\n        /* \"@openzeppelin/contracts-upgradeable/utils/ReentrancyGuardTransientUpgradeable.sol\":2014:2064  REENTRANCY_GUARD_STORAGE.asBoolean().tstore(false) */\n      tag_283\n        /* \"@openzeppelin/contracts-upgradeable/utils/ReentrancyGuardTransientUpgradeable.sol\":2058:2063  false */\n      0x00\n        /* \"@openzeppelin/contracts-upgradeable/utils/ReentrancyGuardTransientUpgradeable.sol\":2014:2050  REENTRANCY_GUARD_STORAGE.asBoolean() */\n      tag_284\n        /* \"@openzeppelin/contracts-upgradeable/utils/ReentrancyGuardTransientUpgradeable.sol\":757:823  0x9b779b17422d0df92223018b32b4d1fa46e071723d6817e2486d003becc55f00 */\n      0x9b779b17422d0df92223018b32b4d1fa46e071723d6817e2486d003becc55f00\n        /* \"@openzeppelin/contracts-upgradeable/utils/ReentrancyGuardTransientUpgradeable.sol\":2014:2038  REENTRANCY_GUARD_STORAGE */\n      0x00\n      shl\n        /* \"@openzeppelin/contracts-upgradeable/utils/ReentrancyGuardTransientUpgradeable.sol\":2014:2048  REENTRANCY_GUARD_STORAGE.asBoolean */\n      tag_280\n        /* \"@openzeppelin/contracts-upgradeable/utils/ReentrancyGuardTransientUpgradeable.sol\":2014:2050  REENTRANCY_GUARD_STORAGE.asBoolean() */\n      jump\t// in\n    tag_284:\n        /* \"@openzeppelin/contracts-upgradeable/utils/ReentrancyGuardTransientUpgradeable.sol\":2014:2057  REENTRANCY_GUARD_STORAGE.asBoolean().tstore */\n      tag_281\n      swap1\n        /* \"@openzeppelin/contracts-upgradeable/utils/ReentrancyGuardTransientUpgradeable.sol\":2014:2064  REENTRANCY_GUARD_STORAGE.asBoolean().tstore(false) */\n      swap2\n      swap1\n      0xffffffff\n      and\n      jump\t// in\n    tag_283:\n        /* \"@openzeppelin/contracts-upgradeable/utils/ReentrancyGuardTransientUpgradeable.sol\":1966:2071  function _nonReentrantAfter() private {... */\n      jump\t// out\n        /* \"@openzeppelin/contracts-upgradeable/utils/ContextUpgradeable.sol\":887:983  function _msgSender() internal view virtual returns (address) {... */\n    tag_254:\n        /* \"@openzeppelin/contracts-upgradeable/utils/ContextUpgradeable.sol\":940:947  address */\n      0x00\n        /* \"@openzeppelin/contracts-upgradeable/utils/ContextUpgradeable.sol\":966:976  msg.sender */\n      caller\n        /* \"@openzeppelin/contracts-upgradeable/utils/ContextUpgradeable.sol\":959:976  return msg.sender */\n      swap1\n      pop\n        /* \"@openzeppelin/contracts-upgradeable/utils/ContextUpgradeable.sol\":887:983  function _msgSender() internal view virtual returns (address) {... */\n      swap1\n      jump\t// out\n        /* \"@openzeppelin/contracts-upgradeable/proxy/utils/Initializable.sol\":8819:8941  function _initializableStorageSlot() internal pure virtual returns (bytes32) {... */\n    tag_263:\n        /* \"@openzeppelin/contracts-upgradeable/proxy/utils/Initializable.sol\":8887:8894  bytes32 */\n      0x00\n        /* \"@openzeppelin/contracts-upgradeable/proxy/utils/Initializable.sol\":3147:3213  0xf0c57e16840df040f15088dc2f81fe391c3923bec73e23a9662efc9c229c6a00 */\n      0xf0c57e16840df040f15088dc2f81fe391c3923bec73e23a9662efc9c229c6a00\n        /* \"@openzeppelin/contracts-upgradeable/proxy/utils/Initializable.sol\":8913:8934  INITIALIZABLE_STORAGE */\n      0x00\n      shl\n        /* \"@openzeppelin/contracts-upgradeable/proxy/utils/Initializable.sol\":8906:8934  return INITIALIZABLE_STORAGE */\n      swap1\n      pop\n        /* \"@openzeppelin/contracts-upgradeable/proxy/utils/Initializable.sol\":8819:8941  function _initializableStorageSlot() internal pure virtual returns (bytes32) {... */\n      swap1\n      jump\t// out\n        /* \"@openzeppelin/contracts-upgradeable/proxy/utils/Initializable.sol\":7082:7223  function _checkInitializing() internal view virtual {... */\n    tag_266:\n        /* \"@openzeppelin/contracts-upgradeable/proxy/utils/Initializable.sol\":7149:7166  _isInitializing() */\n      tag_288\n        /* \"@openzeppelin/contracts-upgradeable/proxy/utils/Initializable.sol\":7149:7164  _isInitializing */\n      tag_289\n        /* \"@openzeppelin/contracts-upgradeable/proxy/utils/Initializable.sol\":7149:7166  _isInitializing() */\n      jump\t// in\n    tag_288:\n        /* \"@openzeppelin/contracts-upgradeable/proxy/utils/Initializable.sol\":7144:7217  if (!_isInitializing()) {... */\n      tag_290\n      jumpi\n        /* \"@openzeppelin/contracts-upgradeable/proxy/utils/Initializable.sol\":7189:7206  NotInitializing() */\n      mload(0x40)\n      0xd7e6bcf800000000000000000000000000000000000000000000000000000000\n      dup2\n      mstore\n      0x04\n      add\n      mload(0x40)\n      dup1\n      swap2\n      sub\n      swap1\n      revert\n        /* \"@openzeppelin/contracts-upgradeable/proxy/utils/Initializable.sol\":7144:7217  if (!_isInitializing()) {... */\n    tag_290:\n        /* \"@openzeppelin/contracts-upgradeable/proxy/utils/Initializable.sol\":7082:7223  function _checkInitializing() internal view virtual {... */\n      jump\t// out\n        /* \"@openzeppelin/contracts-upgradeable/access/OwnableUpgradeable.sol\":1980:2215  function __Ownable_init_unchained(address initialOwner) internal onlyInitializing {... */\n    tag_269:\n        /* \"@openzeppelin/contracts-upgradeable/proxy/utils/Initializable.sol\":6929:6949  _checkInitializing() */\n      tag_292\n        /* \"@openzeppelin/contracts-upgradeable/proxy/utils/Initializable.sol\":6929:6947  _checkInitializing */\n      tag_266\n        /* \"@openzeppelin/contracts-upgradeable/proxy/utils/Initializable.sol\":6929:6949  _checkInitializing() */\n      jump\t// in\n    tag_292:\n        /* \"@openzeppelin/contracts-upgradeable/access/OwnableUpgradeable.sol\":2100:2101  0 */\n      0x00\n        /* \"@openzeppelin/contracts-upgradeable/access/OwnableUpgradeable.sol\":2076:2102  initialOwner == address(0) */\n      0xffffffffffffffffffffffffffffffffffffffff\n      and\n        /* \"@openzeppelin/contracts-upgradeable/access/OwnableUpgradeable.sol\":2076:2088  initialOwner */\n      dup2\n        /* \"@openzeppelin/contracts-upgradeable/access/OwnableUpgradeable.sol\":2076:2102  initialOwner == address(0) */\n      0xffffffffffffffffffffffffffffffffffffffff\n      and\n      sub\n        /* \"@openzeppelin/contracts-upgradeable/access/OwnableUpgradeable.sol\":2072:2167  if (initialOwner == address(0)) {... */\n      tag_294\n      jumpi\n        /* \"@openzeppelin/contracts-upgradeable/access/OwnableUpgradeable.sol\":2153:2154  0 */\n      0x00\n        /* \"@openzeppelin/contracts-upgradeable/access/OwnableUpgradeable.sol\":2125:2156  OwnableInvalidOwner(address(0)) */\n      mload(0x40)\n      0x1e4fbdf700000000000000000000000000000000000000000000000000000000\n      dup2\n      mstore\n      0x04\n      add\n      tag_295\n      swap2\n      swap1\n      tag_59\n      jump\t// in\n    tag_295:\n      mload(0x40)\n      dup1\n      swap2\n      sub\n      swap1\n      revert\n        /* \"@openzeppelin/contracts-upgradeable/access/OwnableUpgradeable.sol\":2072:2167  if (initialOwner == address(0)) {... */\n    tag_294:\n        /* \"@openzeppelin/contracts-upgradeable/access/OwnableUpgradeable.sol\":2176:2208  _transferOwnership(initialOwner) */\n      tag_296\n        /* \"@openzeppelin/contracts-upgradeable/access/OwnableUpgradeable.sol\":2195:2207  initialOwner */\n      dup2\n        /* \"@openzeppelin/contracts-upgradeable/access/OwnableUpgradeable.sol\":2176:2194  _transferOwnership */\n      tag_150\n        /* \"@openzeppelin/contracts-upgradeable/access/OwnableUpgradeable.sol\":2176:2208  _transferOwnership(initialOwner) */\n      jump\t// in\n    tag_296:\n        /* \"@openzeppelin/contracts-upgradeable/access/OwnableUpgradeable.sol\":1980:2215  function __Ownable_init_unchained(address initialOwner) internal onlyInitializing {... */\n      pop\n      jump\t// out\n        /* \"@openzeppelin/contracts-upgradeable/utils/ReentrancyGuardTransientUpgradeable.sol\":2250:2382  function _reentrancyGuardEntered() internal view returns (bool) {... */\n    tag_276:\n        /* \"@openzeppelin/contracts-upgradeable/utils/ReentrancyGuardTransientUpgradeable.sol\":2308:2312  bool */\n      0x00\n        /* \"@openzeppelin/contracts-upgradeable/utils/ReentrancyGuardTransientUpgradeable.sol\":2331:2375  REENTRANCY_GUARD_STORAGE.asBoolean().tload() */\n      tag_298\n        /* \"@openzeppelin/contracts-upgradeable/utils/ReentrancyGuardTransientUpgradeable.sol\":2331:2367  REENTRANCY_GUARD_STORAGE.asBoolean() */\n      tag_299\n        /* \"@openzeppelin/contracts-upgradeable/utils/ReentrancyGuardTransientUpgradeable.sol\":757:823  0x9b779b17422d0df92223018b32b4d1fa46e071723d6817e2486d003becc55f00 */\n      0x9b779b17422d0df92223018b32b4d1fa46e071723d6817e2486d003becc55f00\n        /* \"@openzeppelin/contracts-upgradeable/utils/ReentrancyGuardTransientUpgradeable.sol\":2331:2355  REENTRANCY_GUARD_STORAGE */\n      0x00\n      shl\n        /* \"@openzeppelin/contracts-upgradeable/utils/ReentrancyGuardTransientUpgradeable.sol\":2331:2365  REENTRANCY_GUARD_STORAGE.asBoolean */\n      tag_280\n        /* \"@openzeppelin/contracts-upgradeable/utils/ReentrancyGuardTransientUpgradeable.sol\":2331:2367  REENTRANCY_GUARD_STORAGE.asBoolean() */\n      jump\t// in\n    tag_299:\n        /* \"@openzeppelin/contracts-upgradeable/utils/ReentrancyGuardTransientUpgradeable.sol\":2331:2373  REENTRANCY_GUARD_STORAGE.asBoolean().tload */\n      tag_300\n        /* \"@openzeppelin/contracts-upgradeable/utils/ReentrancyGuardTransientUpgradeable.sol\":2331:2375  REENTRANCY_GUARD_STORAGE.asBoolean().tload() */\n      jump\t// in\n    tag_298:\n        /* \"@openzeppelin/contracts-upgradeable/utils/ReentrancyGuardTransientUpgradeable.sol\":2324:2375  return REENTRANCY_GUARD_STORAGE.asBoolean().tload() */\n      swap1\n      pop\n        /* \"@openzeppelin/contracts-upgradeable/utils/ReentrancyGuardTransientUpgradeable.sol\":2250:2382  function _reentrancyGuardEntered() internal view returns (bool) {... */\n      swap1\n      jump\t// out\n        /* \"@openzeppelin/contracts/utils/TransientSlot.sol\":1666:1781  function asBoolean(bytes32 slot) internal pure returns (BooleanSlot) {... */\n    tag_280:\n        /* \"@openzeppelin/contracts/utils/TransientSlot.sol\":1722:1733  BooleanSlot */\n      0x00\n        /* \"@openzeppelin/contracts/utils/TransientSlot.sol\":1769:1773  slot */\n      dup2\n        /* \"@openzeppelin/contracts/utils/TransientSlot.sol\":1745:1774  return BooleanSlot.wrap(slot) */\n      swap1\n      pop\n        /* \"@openzeppelin/contracts/utils/TransientSlot.sol\":1666:1781  function asBoolean(bytes32 slot) internal pure returns (BooleanSlot) {... */\n      swap2\n      swap1\n      pop\n      jump\t// out\n        /* \"@openzeppelin/contracts/utils/TransientSlot.sol\":3491:3630  function tstore(BooleanSlot slot, bool value) internal {... */\n    tag_281:\n        /* \"@openzeppelin/contracts/utils/TransientSlot.sol\":3608:3613  value */\n      dup1\n        /* \"@openzeppelin/contracts/utils/TransientSlot.sol\":3602:3606  slot */\n      dup3\n        /* \"@openzeppelin/contracts/utils/TransientSlot.sol\":3595:3614  tstore(slot, value) */\n      tstore\n        /* \"@openzeppelin/contracts/utils/TransientSlot.sol\":3491:3630  function tstore(BooleanSlot slot, bool value) internal {... */\n      pop\n      pop\n      jump\t// out\n        /* \"@openzeppelin/contracts-upgradeable/proxy/utils/Initializable.sol\":8485:8605  function _isInitializing() internal view returns (bool) {... */\n    tag_289:\n        /* \"@openzeppelin/contracts-upgradeable/proxy/utils/Initializable.sol\":8535:8539  bool */\n      0x00\n        /* \"@openzeppelin/contracts-upgradeable/proxy/utils/Initializable.sol\":8558:8584  _getInitializableStorage() */\n      tag_304\n        /* \"@openzeppelin/contracts-upgradeable/proxy/utils/Initializable.sol\":8558:8582  _getInitializableStorage */\n      tag_169\n        /* \"@openzeppelin/contracts-upgradeable/proxy/utils/Initializable.sol\":8558:8584  _getInitializableStorage() */\n      jump\t// in\n    tag_304:\n        /* \"@openzeppelin/contracts-upgradeable/proxy/utils/Initializable.sol\":8558:8598  _getInitializableStorage()._initializing */\n      0x00\n      add\n      0x08\n      swap1\n      sload\n      swap1\n      0x0100\n      exp\n      swap1\n      div\n      0xff\n      and\n        /* \"@openzeppelin/contracts-upgradeable/proxy/utils/Initializable.sol\":8551:8598  return _getInitializableStorage()._initializing */\n      swap1\n      pop\n        /* \"@openzeppelin/contracts-upgradeable/proxy/utils/Initializable.sol\":8485:8605  function _isInitializing() internal view returns (bool) {... */\n      swap1\n      jump\t// out\n        /* \"@openzeppelin/contracts/utils/TransientSlot.sol\":3249:3402  function tload(BooleanSlot slot) internal view returns (bool value) {... */\n    tag_300:\n        /* \"@openzeppelin/contracts/utils/TransientSlot.sol\":3305:3315  bool value */\n      0x00\n        /* \"@openzeppelin/contracts/utils/TransientSlot.sol\":3381:3385  slot */\n      dup2\n        /* \"@openzeppelin/contracts/utils/TransientSlot.sol\":3375:3386  tload(slot) */\n      tload\n        /* \"@openzeppelin/contracts/utils/TransientSlot.sol\":3366:3386  value := tload(slot) */\n      swap1\n      pop\n        /* \"@openzeppelin/contracts/utils/TransientSlot.sol\":3249:3402  function tload(BooleanSlot slot) internal view returns (bool value) {... */\n      swap2\n      swap1\n      pop\n      jump\t// out\n    tag_107:\n      dup3\n      dup1\n      sload\n      dup3\n      dup3\n      sstore\n      swap1\n      0x00\n      mstore\n      keccak256(0x00, 0x20)\n      swap1\n      dup2\n      add\n      swap3\n      dup3\n      iszero\n      tag_306\n      jumpi\n      swap2\n      0x20\n      mul\n      dup3\n      add\n    tag_307:\n      dup3\n      dup2\n      gt\n      iszero\n      tag_308\n      jumpi\n      dup3\n      mload\n      dup3\n      swap1\n      dup2\n      tag_309\n      swap2\n      swap1\n      tag_105\n      jump\t// in\n    tag_309:\n      pop\n      swap2\n      0x20\n      add\n      swap2\n      swap1\n      0x01\n      add\n      swap1\n      jump(tag_307)\n    tag_308:\n    tag_306:\n      pop\n      swap1\n      pop\n      tag_310\n      swap2\n      swap1\n      tag_311\n      jump\t// in\n    tag_310:\n      pop\n      swap1\n      jump\t// out\n    tag_109:\n      dup3\n      dup1\n      sload\n      dup3\n      dup3\n      sstore\n      swap1\n      0x00\n      mstore\n      keccak256(0x00, 0x20)\n      swap1\n      dup2\n      add\n      swap3\n      dup3\n      iszero\n      tag_312\n      jumpi\n      swap2\n      0x20\n      mul\n      dup3\n      add\n    tag_313:\n      dup3\n      dup2\n      gt\n      iszero\n      tag_314\n      jumpi\n      dup3\n      mload\n      dup3\n      sstore\n      swap2\n      0x20\n      add\n      swap2\n      swap1\n      0x01\n      add\n      swap1\n      jump(tag_313)\n    tag_314:\n    tag_312:\n      pop\n      swap1\n      pop\n      tag_315\n      swap2\n      swap1\n      tag_316\n      jump\t// in\n    tag_315:\n      pop\n      swap1\n      jump\t// out\n    tag_311:\n    tag_317:\n      dup1\n      dup3\n      gt\n      iszero\n      tag_318\n      jumpi\n      0x00\n      dup2\n      dup2\n      tag_319\n      swap2\n      swap1\n      tag_320\n      jump\t// in\n    tag_319:\n      pop\n      0x01\n      add\n      jump(tag_317)\n    tag_318:\n      pop\n      swap1\n      jump\t// out\n    tag_316:\n    tag_321:\n      dup1\n      dup3\n      gt\n      iszero\n      tag_322\n      jumpi\n      0x00\n      dup2\n      0x00\n      swap1\n      sstore\n      pop\n      0x01\n      add\n      jump(tag_321)\n    tag_322:\n      pop\n      swap1\n      jump\t// out\n    tag_320:\n      pop\n      dup1\n      sload\n      tag_323\n      swap1\n      tag_122\n      jump\t// in\n    tag_323:\n      0x00\n      dup3\n      sstore\n      dup1\n      0x1f\n      lt\n      tag_325\n      jumpi\n      pop\n      jump(tag_324)\n    tag_325:\n      0x1f\n      add\n      0x20\n      swap1\n      div\n      swap1\n      0x00\n      mstore\n      keccak256(0x00, 0x20)\n      swap1\n      dup2\n      add\n      swap1\n      tag_326\n      swap2\n      swap1\n      tag_316\n      jump\t// in\n    tag_326:\n    tag_324:\n      pop\n      jump\t// out\n        /* \"#utility.yul\":7:82   */\n    tag_327:\n        /* \"#utility.yul\":40:46   */\n      0x00\n        /* \"#utility.yul\":73:75   */\n      0x40\n        /* \"#utility.yul\":67:76   */\n      mload\n        /* \"#utility.yul\":57:76   */\n      swap1\n      pop\n        /* \"#utility.yul\":7:82   */\n      swap1\n      jump\t// out\n        /* \"#utility.yul\":88:205   */\n    tag_328:\n        /* \"#utility.yul\":197:198   */\n      0x00\n        /* \"#utility.yul\":194:195   */\n      dup1\n        /* \"#utility.yul\":187:199   */\n      revert\n        /* \"#utility.yul\":211:328   */\n    tag_329:\n        /* \"#utility.yul\":320:321   */\n      0x00\n        /* \"#utility.yul\":317:318   */\n      dup1\n        /* \"#utility.yul\":310:322   */\n      revert\n        /* \"#utility.yul\":334:411   */\n    tag_330:\n        /* \"#utility.yul\":371:378   */\n      0x00\n        /* \"#utility.yul\":400:405   */\n      dup2\n        /* \"#utility.yul\":389:405   */\n      swap1\n      pop\n        /* \"#utility.yul\":334:411   */\n      swap2\n      swap1\n      pop\n      jump\t// out\n        /* \"#utility.yul\":417:539   */\n    tag_331:\n        /* \"#utility.yul\":490:514   */\n      tag_426\n        /* \"#utility.yul\":508:513   */\n      dup2\n        /* \"#utility.yul\":490:514   */\n      tag_330\n      jump\t// in\n    tag_426:\n        /* \"#utility.yul\":483:488   */\n      dup2\n        /* \"#utility.yul\":480:515   */\n      eq\n        /* \"#utility.yul\":470:533   */\n      tag_427\n      jumpi\n        /* \"#utility.yul\":529:530   */\n      0x00\n        /* \"#utility.yul\":526:527   */\n      dup1\n        /* \"#utility.yul\":519:531   */\n      revert\n        /* \"#utility.yul\":470:533   */\n    tag_427:\n        /* \"#utility.yul\":417:539   */\n      pop\n      jump\t// out\n        /* \"#utility.yul\":545:684   */\n    tag_332:\n        /* \"#utility.yul\":591:596   */\n      0x00\n        /* \"#utility.yul\":629:635   */\n      dup2\n        /* \"#utility.yul\":616:636   */\n      calldataload\n        /* \"#utility.yul\":607:636   */\n      swap1\n      pop\n        /* \"#utility.yul\":645:678   */\n      tag_429\n        /* \"#utility.yul\":672:677   */\n      dup2\n        /* \"#utility.yul\":645:678   */\n      tag_331\n      jump\t// in\n    tag_429:\n        /* \"#utility.yul\":545:684   */\n      swap3\n      swap2\n      pop\n      pop\n      jump\t// out\n        /* \"#utility.yul\":690:1019   */\n    tag_20:\n        /* \"#utility.yul\":749:755   */\n      0x00\n        /* \"#utility.yul\":798:800   */\n      0x20\n        /* \"#utility.yul\":786:795   */\n      dup3\n        /* \"#utility.yul\":777:784   */\n      dup5\n        /* \"#utility.yul\":773:796   */\n      sub\n        /* \"#utility.yul\":769:801   */\n      slt\n        /* \"#utility.yul\":766:885   */\n      iszero\n      tag_431\n      jumpi\n        /* \"#utility.yul\":804:883   */\n      tag_432\n      tag_328\n      jump\t// in\n    tag_432:\n        /* \"#utility.yul\":766:885   */\n    tag_431:\n        /* \"#utility.yul\":924:925   */\n      0x00\n        /* \"#utility.yul\":949:1002   */\n      tag_433\n        /* \"#utility.yul\":994:1001   */\n      dup5\n        /* \"#utility.yul\":985:991   */\n      dup3\n        /* \"#utility.yul\":974:983   */\n      dup6\n        /* \"#utility.yul\":970:992   */\n      add\n        /* \"#utility.yul\":949:1002   */\n      tag_332\n      jump\t// in\n    tag_433:\n        /* \"#utility.yul\":939:1002   */\n      swap2\n      pop\n        /* \"#utility.yul\":895:1012   */\n      pop\n        /* \"#utility.yul\":690:1019   */\n      swap3\n      swap2\n      pop\n      pop\n      jump\t// out\n        /* \"#utility.yul\":1025:1139   */\n    tag_333:\n        /* \"#utility.yul\":1092:1098   */\n      0x00\n        /* \"#utility.yul\":1126:1131   */\n      dup2\n        /* \"#utility.yul\":1120:1132   */\n      mload\n        /* \"#utility.yul\":1110:1132   */\n      swap1\n      pop\n        /* \"#utility.yul\":1025:1139   */\n      swap2\n      swap1\n      pop\n      jump\t// out\n        /* \"#utility.yul\":1145:1329   */\n    tag_334:\n        /* \"#utility.yul\":1244:1255   */\n      0x00\n        /* \"#utility.yul\":1278:1284   */\n      dup3\n        /* \"#utility.yul\":1273:1276   */\n      dup3\n        /* \"#utility.yul\":1266:1285   */\n      mstore\n        /* \"#utility.yul\":1318:1322   */\n      0x20\n        /* \"#utility.yul\":1313:1316   */\n      dup3\n        /* \"#utility.yul\":1309:1323   */\n      add\n        /* \"#utility.yul\":1294:1323   */\n      swap1\n      pop\n        /* \"#utility.yul\":1145:1329   */\n      swap3\n      swap2\n      pop\n      pop\n      jump\t// out\n        /* \"#utility.yul\":1335:1467   */\n    tag_335:\n        /* \"#utility.yul\":1402:1406   */\n      0x00\n        /* \"#utility.yul\":1425:1428   */\n      dup2\n        /* \"#utility.yul\":1417:1428   */\n      swap1\n      pop\n        /* \"#utility.yul\":1455:1459   */\n      0x20\n        /* \"#utility.yul\":1450:1453   */\n      dup3\n        /* \"#utility.yul\":1446:1460   */\n      add\n        /* \"#utility.yul\":1438:1460   */\n      swap1\n      pop\n        /* \"#utility.yul\":1335:1467   */\n      swap2\n      swap1\n      pop\n      jump\t// out\n        /* \"#utility.yul\":1473:1581   */\n    tag_336:\n        /* \"#utility.yul\":1550:1574   */\n      tag_438\n        /* \"#utility.yul\":1568:1573   */\n      dup2\n        /* \"#utility.yul\":1550:1574   */\n      tag_330\n      jump\t// in\n    tag_438:\n        /* \"#utility.yul\":1545:1548   */\n      dup3\n        /* \"#utility.yul\":1538:1575   */\n      mstore\n        /* \"#utility.yul\":1473:1581   */\n      pop\n      pop\n      jump\t// out\n        /* \"#utility.yul\":1587:1766   */\n    tag_337:\n        /* \"#utility.yul\":1656:1666   */\n      0x00\n        /* \"#utility.yul\":1677:1723   */\n      tag_440\n        /* \"#utility.yul\":1719:1722   */\n      dup4\n        /* \"#utility.yul\":1711:1717   */\n      dup4\n        /* \"#utility.yul\":1677:1723   */\n      tag_336\n      jump\t// in\n    tag_440:\n        /* \"#utility.yul\":1755:1759   */\n      0x20\n        /* \"#utility.yul\":1750:1753   */\n      dup4\n        /* \"#utility.yul\":1746:1760   */\n      add\n        /* \"#utility.yul\":1732:1760   */\n      swap1\n      pop\n        /* \"#utility.yul\":1587:1766   */\n      swap3\n      swap2\n      pop\n      pop\n      jump\t// out\n        /* \"#utility.yul\":1772:1885   */\n    tag_338:\n        /* \"#utility.yul\":1842:1846   */\n      0x00\n        /* \"#utility.yul\":1874:1878   */\n      0x20\n        /* \"#utility.yul\":1869:1872   */\n      dup3\n        /* \"#utility.yul\":1865:1879   */\n      add\n        /* \"#utility.yul\":1857:1879   */\n      swap1\n      pop\n        /* \"#utility.yul\":1772:1885   */\n      swap2\n      swap1\n      pop\n      jump\t// out\n        /* \"#utility.yul\":1921:2653   */\n    tag_339:\n        /* \"#utility.yul\":2040:2043   */\n      0x00\n        /* \"#utility.yul\":2069:2123   */\n      tag_443\n        /* \"#utility.yul\":2117:2122   */\n      dup3\n        /* \"#utility.yul\":2069:2123   */\n      tag_333\n      jump\t// in\n    tag_443:\n        /* \"#utility.yul\":2139:2225   */\n      tag_444\n        /* \"#utility.yul\":2218:2224   */\n      dup2\n        /* \"#utility.yul\":2213:2216   */\n      dup6\n        /* \"#utility.yul\":2139:2225   */\n      tag_334\n      jump\t// in\n    tag_444:\n        /* \"#utility.yul\":2132:2225   */\n      swap4\n      pop\n        /* \"#utility.yul\":2249:2305   */\n      tag_445\n        /* \"#utility.yul\":2299:2304   */\n      dup4\n        /* \"#utility.yul\":2249:2305   */\n      tag_335\n      jump\t// in\n    tag_445:\n        /* \"#utility.yul\":2328:2335   */\n      dup1\n        /* \"#utility.yul\":2359:2360   */\n      0x00\n        /* \"#utility.yul\":2344:2628   */\n    tag_446:\n        /* \"#utility.yul\":2369:2375   */\n      dup4\n        /* \"#utility.yul\":2366:2367   */\n      dup2\n        /* \"#utility.yul\":2363:2376   */\n      lt\n        /* \"#utility.yul\":2344:2628   */\n      iszero\n      tag_448\n      jumpi\n        /* \"#utility.yul\":2445:2451   */\n      dup2\n        /* \"#utility.yul\":2439:2452   */\n      mload\n        /* \"#utility.yul\":2472:2535   */\n      tag_449\n        /* \"#utility.yul\":2531:2534   */\n      dup9\n        /* \"#utility.yul\":2516:2529   */\n      dup3\n        /* \"#utility.yul\":2472:2535   */\n      tag_337\n      jump\t// in\n    tag_449:\n        /* \"#utility.yul\":2465:2535   */\n      swap8\n      pop\n        /* \"#utility.yul\":2558:2618   */\n      tag_450\n        /* \"#utility.yul\":2611:2617   */\n      dup4\n        /* \"#utility.yul\":2558:2618   */\n      tag_338\n      jump\t// in\n    tag_450:\n        /* \"#utility.yul\":2548:2618   */\n      swap3\n      pop\n        /* \"#utility.yul\":2404:2628   */\n      pop\n        /* \"#utility.yul\":2391:2392   */\n      0x01\n        /* \"#utility.yul\":2388:2389   */\n      dup2\n        /* \"#utility.yul\":2384:2393   */\n      add\n        /* \"#utility.yul\":2379:2393   */\n      swap1\n      pop\n        /* \"#utility.yul\":2344:2628   */\n      jump(tag_446)\n    tag_448:\n        /* \"#utility.yul\":2348:2362   */\n      pop\n        /* \"#utility.yul\":2644:2647   */\n      dup6\n        /* \"#utility.yul\":2637:2647   */\n      swap4\n      pop\n        /* \"#utility.yul\":2045:2653   */\n      pop\n      pop\n      pop\n        /* \"#utility.yul\":1921:2653   */\n      swap3\n      swap2\n      pop\n      pop\n      jump\t// out\n        /* \"#utility.yul\":2659:3032   */\n    tag_23:\n        /* \"#utility.yul\":2802:2806   */\n      0x00\n        /* \"#utility.yul\":2840:2842   */\n      0x20\n        /* \"#utility.yul\":2829:2838   */\n      dup3\n        /* \"#utility.yul\":2825:2843   */\n      add\n        /* \"#utility.yul\":2817:2843   */\n      swap1\n      pop\n        /* \"#utility.yul\":2889:2898   */\n      dup2\n        /* \"#utility.yul\":2883:2887   */\n      dup2\n        /* \"#utility.yul\":2879:2899   */\n      sub\n        /* \"#utility.yul\":2875:2876   */\n      0x00\n        /* \"#utility.yul\":2864:2873   */\n      dup4\n        /* \"#utility.yul\":2860:2877   */\n      add\n        /* \"#utility.yul\":2853:2900   */\n      mstore\n        /* \"#utility.yul\":2917:3025   */\n      tag_452\n        /* \"#utility.yul\":3020:3024   */\n      dup2\n        /* \"#utility.yul\":3011:3017   */\n      dup5\n        /* \"#utility.yul\":2917:3025   */\n      tag_339\n      jump\t// in\n    tag_452:\n        /* \"#utility.yul\":2909:3025   */\n      swap1\n      pop\n        /* \"#utility.yul\":2659:3032   */\n      swap3\n      swap2\n      pop\n      pop\n      jump\t// out\n        /* \"#utility.yul\":3038:3155   */\n    tag_340:\n        /* \"#utility.yul\":3147:3148   */\n      0x00\n        /* \"#utility.yul\":3144:3145   */\n      dup1\n        /* \"#utility.yul\":3137:3149   */\n      revert\n        /* \"#utility.yul\":3161:3278   */\n    tag_341:\n        /* \"#utility.yul\":3270:3271   */\n      0x00\n        /* \"#utility.yul\":3267:3268   */\n      dup1\n        /* \"#utility.yul\":3260:3272   */\n      revert\n        /* \"#utility.yul\":3284:3386   */\n    tag_342:\n        /* \"#utility.yul\":3325:3331   */\n      0x00\n        /* \"#utility.yul\":3376:3378   */\n      0x1f\n        /* \"#utility.yul\":3372:3379   */\n      not\n        /* \"#utility.yul\":3367:3369   */\n      0x1f\n        /* \"#utility.yul\":3360:3365   */\n      dup4\n        /* \"#utility.yul\":3356:3370   */\n      add\n        /* \"#utility.yul\":3352:3380   */\n      and\n        /* \"#utility.yul\":3342:3380   */\n      swap1\n      pop\n        /* \"#utility.yul\":3284:3386   */\n      swap2\n      swap1\n      pop\n      jump\t// out\n        /* \"#utility.yul\":3392:3572   */\n    tag_102:\n        /* \"#utility.yul\":3440:3517   */\n      0x4e487b7100000000000000000000000000000000000000000000000000000000\n        /* \"#utility.yul\":3437:3438   */\n      0x00\n        /* \"#utility.yul\":3430:3518   */\n      mstore\n        /* \"#utility.yul\":3537:3541   */\n      0x41\n        /* \"#utility.yul\":3534:3535   */\n      0x04\n        /* \"#utility.yul\":3527:3542   */\n      mstore\n        /* \"#utility.yul\":3561:3565   */\n      0x24\n        /* \"#utility.yul\":3558:3559   */\n      0x00\n        /* \"#utility.yul\":3551:3566   */\n      revert\n        /* \"#utility.yul\":3578:3859   */\n    tag_343:\n        /* \"#utility.yul\":3661:3688   */\n      tag_458\n        /* \"#utility.yul\":3683:3687   */\n      dup3\n        /* \"#utility.yul\":3661:3688   */\n      tag_342\n      jump\t// in\n    tag_458:\n        /* \"#utility.yul\":3653:3659   */\n      dup2\n        /* \"#utility.yul\":3649:3689   */\n      add\n        /* \"#utility.yul\":3791:3797   */\n      dup2\n        /* \"#utility.yul\":3779:3789   */\n      dup2\n        /* \"#utility.yul\":3776:3798   */\n      lt\n        /* \"#utility.yul\":3755:3773   */\n      0xffffffffffffffff\n        /* \"#utility.yul\":3743:3753   */\n      dup3\n        /* \"#utility.yul\":3740:3774   */\n      gt\n        /* \"#utility.yul\":3737:3799   */\n      or\n        /* \"#utility.yul\":3734:3822   */\n      iszero\n      tag_459\n      jumpi\n        /* \"#utility.yul\":3802:3820   */\n      tag_460\n      tag_102\n      jump\t// in\n    tag_460:\n        /* \"#utility.yul\":3734:3822   */\n    tag_459:\n        /* \"#utility.yul\":3842:3852   */\n      dup1\n        /* \"#utility.yul\":3838:3840   */\n      0x40\n        /* \"#utility.yul\":3831:3853   */\n      mstore\n        /* \"#utility.yul\":3621:3859   */\n      pop\n        /* \"#utility.yul\":3578:3859   */\n      pop\n      pop\n      jump\t// out\n        /* \"#utility.yul\":3865:3994   */\n    tag_344:\n        /* \"#utility.yul\":3899:3905   */\n      0x00\n        /* \"#utility.yul\":3926:3946   */\n      tag_462\n      tag_327\n      jump\t// in\n    tag_462:\n        /* \"#utility.yul\":3916:3946   */\n      swap1\n      pop\n        /* \"#utility.yul\":3955:3988   */\n      tag_463\n        /* \"#utility.yul\":3983:3987   */\n      dup3\n        /* \"#utility.yul\":3975:3981   */\n      dup3\n        /* \"#utility.yul\":3955:3988   */\n      tag_343\n      jump\t// in\n    tag_463:\n        /* \"#utility.yul\":3865:3994   */\n      swap2\n      swap1\n      pop\n      jump\t// out\n        /* \"#utility.yul\":4000:4308   */\n    tag_345:\n        /* \"#utility.yul\":4062:4066   */\n      0x00\n        /* \"#utility.yul\":4152:4170   */\n      0xffffffffffffffff\n        /* \"#utility.yul\":4144:4150   */\n      dup3\n        /* \"#utility.yul\":4141:4171   */\n      gt\n        /* \"#utility.yul\":4138:4194   */\n      iszero\n      tag_465\n      jumpi\n        /* \"#utility.yul\":4174:4192   */\n      tag_466\n      tag_102\n      jump\t// in\n    tag_466:\n        /* \"#utility.yul\":4138:4194   */\n    tag_465:\n        /* \"#utility.yul\":4212:4241   */\n      tag_467\n        /* \"#utility.yul\":4234:4240   */\n      dup3\n        /* \"#utility.yul\":4212:4241   */\n      tag_342\n      jump\t// in\n    tag_467:\n        /* \"#utility.yul\":4204:4241   */\n      swap1\n      pop\n        /* \"#utility.yul\":4296:4300   */\n      0x20\n        /* \"#utility.yul\":4290:4294   */\n      dup2\n        /* \"#utility.yul\":4286:4301   */\n      add\n        /* \"#utility.yul\":4278:4301   */\n      swap1\n      pop\n        /* \"#utility.yul\":4000:4308   */\n      swap2\n      swap1\n      pop\n      jump\t// out\n        /* \"#utility.yul\":4314:4462   */\n    tag_346:\n        /* \"#utility.yul\":4412:4418   */\n      dup3\n        /* \"#utility.yul\":4407:4410   */\n      dup2\n        /* \"#utility.yul\":4402:4405   */\n      dup4\n        /* \"#utility.yul\":4389:4419   */\n      calldatacopy\n        /* \"#utility.yul\":4453:4454   */\n      0x00\n        /* \"#utility.yul\":4444:4450   */\n      dup4\n        /* \"#utility.yul\":4439:4442   */\n      dup4\n        /* \"#utility.yul\":4435:4451   */\n      add\n        /* \"#utility.yul\":4428:4455   */\n      mstore\n        /* \"#utility.yul\":4314:4462   */\n      pop\n      pop\n      pop\n      jump\t// out\n        /* \"#utility.yul\":4468:4893   */\n    tag_347:\n        /* \"#utility.yul\":4546:4551   */\n      0x00\n        /* \"#utility.yul\":4571:4637   */\n      tag_470\n        /* \"#utility.yul\":4587:4636   */\n      tag_471\n        /* \"#utility.yul\":4629:4635   */\n      dup5\n        /* \"#utility.yul\":4587:4636   */\n      tag_345\n      jump\t// in\n    tag_471:\n        /* \"#utility.yul\":4571:4637   */\n      tag_344\n      jump\t// in\n    tag_470:\n        /* \"#utility.yul\":4562:4637   */\n      swap1\n      pop\n        /* \"#utility.yul\":4660:4666   */\n      dup3\n        /* \"#utility.yul\":4653:4658   */\n      dup2\n        /* \"#utility.yul\":4646:4667   */\n      mstore\n        /* \"#utility.yul\":4698:4702   */\n      0x20\n        /* \"#utility.yul\":4691:4696   */\n      dup2\n        /* \"#utility.yul\":4687:4703   */\n      add\n        /* \"#utility.yul\":4736:4739   */\n      dup5\n        /* \"#utility.yul\":4727:4733   */\n      dup5\n        /* \"#utility.yul\":4722:4725   */\n      dup5\n        /* \"#utility.yul\":4718:4734   */\n      add\n        /* \"#utility.yul\":4715:4740   */\n      gt\n        /* \"#utility.yul\":4712:4824   */\n      iszero\n      tag_472\n      jumpi\n        /* \"#utility.yul\":4743:4822   */\n      tag_473\n      tag_341\n      jump\t// in\n    tag_473:\n        /* \"#utility.yul\":4712:4824   */\n    tag_472:\n        /* \"#utility.yul\":4833:4887   */\n      tag_474\n        /* \"#utility.yul\":4880:4886   */\n      dup5\n        /* \"#utility.yul\":4875:4878   */\n      dup3\n        /* \"#utility.yul\":4870:4873   */\n      dup6\n        /* \"#utility.yul\":4833:4887   */\n      tag_346\n      jump\t// in\n    tag_474:\n        /* \"#utility.yul\":4552:4893   */\n      pop\n        /* \"#utility.yul\":4468:4893   */\n      swap4\n      swap3\n      pop\n      pop\n      pop\n      jump\t// out\n        /* \"#utility.yul\":4913:5253   */\n    tag_348:\n        /* \"#utility.yul\":4969:4974   */\n      0x00\n        /* \"#utility.yul\":5018:5021   */\n      dup3\n        /* \"#utility.yul\":5011:5015   */\n      0x1f\n        /* \"#utility.yul\":5003:5009   */\n      dup4\n        /* \"#utility.yul\":4999:5016   */\n      add\n        /* \"#utility.yul\":4995:5022   */\n      slt\n        /* \"#utility.yul\":4985:5107   */\n      tag_476\n      jumpi\n        /* \"#utility.yul\":5026:5105   */\n      tag_477\n      tag_340\n      jump\t// in\n    tag_477:\n        /* \"#utility.yul\":4985:5107   */\n    tag_476:\n        /* \"#utility.yul\":5143:5149   */\n      dup2\n        /* \"#utility.yul\":5130:5150   */\n      calldataload\n        /* \"#utility.yul\":5168:5247   */\n      tag_478\n        /* \"#utility.yul\":5243:5246   */\n      dup5\n        /* \"#utility.yul\":5235:5241   */\n      dup3\n        /* \"#utility.yul\":5228:5232   */\n      0x20\n        /* \"#utility.yul\":5220:5226   */\n      dup7\n        /* \"#utility.yul\":5216:5233   */\n      add\n        /* \"#utility.yul\":5168:5247   */\n      tag_347\n      jump\t// in\n    tag_478:\n        /* \"#utility.yul\":5159:5247   */\n      swap2\n      pop\n        /* \"#utility.yul\":4975:5253   */\n      pop\n        /* \"#utility.yul\":4913:5253   */\n      swap3\n      swap2\n      pop\n      pop\n      jump\t// out\n        /* \"#utility.yul\":5259:5580   */\n    tag_349:\n        /* \"#utility.yul\":5346:5350   */\n      0x00\n        /* \"#utility.yul\":5436:5454   */\n      0xffffffffffffffff\n        /* \"#utility.yul\":5428:5434   */\n      dup3\n        /* \"#utility.yul\":5425:5455   */\n      gt\n        /* \"#utility.yul\":5422:5478   */\n      iszero\n      tag_480\n      jumpi\n        /* \"#utility.yul\":5458:5476   */\n      tag_481\n      tag_102\n      jump\t// in\n    tag_481:\n        /* \"#utility.yul\":5422:5478   */\n    tag_480:\n        /* \"#utility.yul\":5508:5512   */\n      0x20\n        /* \"#utility.yul\":5500:5506   */\n      dup3\n        /* \"#utility.yul\":5496:5513   */\n      mul\n        /* \"#utility.yul\":5488:5513   */\n      swap1\n      pop\n        /* \"#utility.yul\":5568:5572   */\n      0x20\n        /* \"#utility.yul\":5562:5566   */\n      dup2\n        /* \"#utility.yul\":5558:5573   */\n      add\n        /* \"#utility.yul\":5550:5573   */\n      swap1\n      pop\n        /* \"#utility.yul\":5259:5580   */\n      swap2\n      swap1\n      pop\n      jump\t// out\n        /* \"#utility.yul\":5586:5703   */\n    tag_350:\n        /* \"#utility.yul\":5695:5696   */\n      0x00\n        /* \"#utility.yul\":5692:5693   */\n      dup1\n        /* \"#utility.yul\":5685:5697   */\n      revert\n        /* \"#utility.yul\":5725:6670   */\n    tag_351:\n        /* \"#utility.yul\":5831:5836   */\n      0x00\n        /* \"#utility.yul\":5856:5947   */\n      tag_484\n        /* \"#utility.yul\":5872:5946   */\n      tag_485\n        /* \"#utility.yul\":5939:5945   */\n      dup5\n        /* \"#utility.yul\":5872:5946   */\n      tag_349\n      jump\t// in\n    tag_485:\n        /* \"#utility.yul\":5856:5947   */\n      tag_344\n      jump\t// in\n    tag_484:\n        /* \"#utility.yul\":5847:5947   */\n      swap1\n      pop\n        /* \"#utility.yul\":5967:5972   */\n      dup1\n        /* \"#utility.yul\":5996:6002   */\n      dup4\n        /* \"#utility.yul\":5989:5994   */\n      dup3\n        /* \"#utility.yul\":5982:6003   */\n      mstore\n        /* \"#utility.yul\":6030:6034   */\n      0x20\n        /* \"#utility.yul\":6023:6028   */\n      dup3\n        /* \"#utility.yul\":6019:6035   */\n      add\n        /* \"#utility.yul\":6012:6035   */\n      swap1\n      pop\n        /* \"#utility.yul\":6083:6087   */\n      0x20\n        /* \"#utility.yul\":6075:6081   */\n      dup5\n        /* \"#utility.yul\":6071:6088   */\n      mul\n        /* \"#utility.yul\":6063:6069   */\n      dup4\n        /* \"#utility.yul\":6059:6089   */\n      add\n        /* \"#utility.yul\":6112:6115   */\n      dup6\n        /* \"#utility.yul\":6104:6110   */\n      dup2\n        /* \"#utility.yul\":6101:6116   */\n      gt\n        /* \"#utility.yul\":6098:6220   */\n      iszero\n      tag_486\n      jumpi\n        /* \"#utility.yul\":6131:6210   */\n      tag_487\n      tag_350\n      jump\t// in\n    tag_487:\n        /* \"#utility.yul\":6098:6220   */\n    tag_486:\n        /* \"#utility.yul\":6246:6252   */\n      dup4\n        /* \"#utility.yul\":6229:6664   */\n    tag_488:\n        /* \"#utility.yul\":6263:6269   */\n      dup2\n        /* \"#utility.yul\":6258:6261   */\n      dup2\n        /* \"#utility.yul\":6255:6270   */\n      lt\n        /* \"#utility.yul\":6229:6664   */\n      iszero\n      tag_490\n      jumpi\n        /* \"#utility.yul\":6352:6355   */\n      dup1\n        /* \"#utility.yul\":6339:6356   */\n      calldataload\n        /* \"#utility.yul\":6388:6406   */\n      0xffffffffffffffff\n        /* \"#utility.yul\":6375:6386   */\n      dup2\n        /* \"#utility.yul\":6372:6407   */\n      gt\n        /* \"#utility.yul\":6369:6491   */\n      iszero\n      tag_491\n      jumpi\n        /* \"#utility.yul\":6410:6489   */\n      tag_492\n      tag_340\n      jump\t// in\n    tag_492:\n        /* \"#utility.yul\":6369:6491   */\n    tag_491:\n        /* \"#utility.yul\":6534:6545   */\n      dup1\n        /* \"#utility.yul\":6526:6532   */\n      dup7\n        /* \"#utility.yul\":6522:6546   */\n      add\n        /* \"#utility.yul\":6572:6619   */\n      tag_493\n        /* \"#utility.yul\":6615:6618   */\n      dup10\n        /* \"#utility.yul\":6603:6613   */\n      dup3\n        /* \"#utility.yul\":6572:6619   */\n      tag_348\n      jump\t// in\n    tag_493:\n        /* \"#utility.yul\":6567:6570   */\n      dup6\n        /* \"#utility.yul\":6560:6620   */\n      mstore\n        /* \"#utility.yul\":6649:6653   */\n      0x20\n        /* \"#utility.yul\":6644:6647   */\n      dup6\n        /* \"#utility.yul\":6640:6654   */\n      add\n        /* \"#utility.yul\":6633:6654   */\n      swap5\n      pop\n        /* \"#utility.yul\":6305:6664   */\n      pop\n      pop\n        /* \"#utility.yul\":6289:6293   */\n      0x20\n        /* \"#utility.yul\":6284:6287   */\n      dup2\n        /* \"#utility.yul\":6280:6294   */\n      add\n        /* \"#utility.yul\":6273:6294   */\n      swap1\n      pop\n        /* \"#utility.yul\":6229:6664   */\n      jump(tag_488)\n    tag_490:\n        /* \"#utility.yul\":6233:6254   */\n      pop\n        /* \"#utility.yul\":5837:6670   */\n      pop\n      pop\n        /* \"#utility.yul\":5725:6670   */\n      swap4\n      swap3\n      pop\n      pop\n      pop\n      jump\t// out\n        /* \"#utility.yul\":6692:7082   */\n    tag_352:\n        /* \"#utility.yul\":6773:6778   */\n      0x00\n        /* \"#utility.yul\":6822:6825   */\n      dup3\n        /* \"#utility.yul\":6815:6819   */\n      0x1f\n        /* \"#utility.yul\":6807:6813   */\n      dup4\n        /* \"#utility.yul\":6803:6820   */\n      add\n        /* \"#utility.yul\":6799:6826   */\n      slt\n        /* \"#utility.yul\":6789:6911   */\n      tag_495\n      jumpi\n        /* \"#utility.yul\":6830:6909   */\n      tag_496\n      tag_340\n      jump\t// in\n    tag_496:\n        /* \"#utility.yul\":6789:6911   */\n    tag_495:\n        /* \"#utility.yul\":6947:6953   */\n      dup2\n        /* \"#utility.yul\":6934:6954   */\n      calldataload\n        /* \"#utility.yul\":6972:7076   */\n      tag_497\n        /* \"#utility.yul\":7072:7075   */\n      dup5\n        /* \"#utility.yul\":7064:7070   */\n      dup3\n        /* \"#utility.yul\":7057:7061   */\n      0x20\n        /* \"#utility.yul\":7049:7055   */\n      dup7\n        /* \"#utility.yul\":7045:7062   */\n      add\n        /* \"#utility.yul\":6972:7076   */\n      tag_351\n      jump\t// in\n    tag_497:\n        /* \"#utility.yul\":6963:7076   */\n      swap2\n      pop\n        /* \"#utility.yul\":6779:7082   */\n      pop\n        /* \"#utility.yul\":6692:7082   */\n      swap3\n      swap2\n      pop\n      pop\n      jump\t// out\n        /* \"#utility.yul\":7088:7178   */\n    tag_353:\n        /* \"#utility.yul\":7122:7129   */\n      0x00\n        /* \"#utility.yul\":7165:7170   */\n      dup2\n        /* \"#utility.yul\":7158:7171   */\n      iszero\n        /* \"#utility.yul\":7151:7172   */\n      iszero\n        /* \"#utility.yul\":7140:7172   */\n      swap1\n      pop\n        /* \"#utility.yul\":7088:7178   */\n      swap2\n      swap1\n      pop\n      jump\t// out\n        /* \"#utility.yul\":7184:7300   */\n    tag_354:\n        /* \"#utility.yul\":7254:7275   */\n      tag_500\n        /* \"#utility.yul\":7269:7274   */\n      dup2\n        /* \"#utility.yul\":7254:7275   */\n      tag_353\n      jump\t// in\n    tag_500:\n        /* \"#utility.yul\":7247:7252   */\n      dup2\n        /* \"#utility.yul\":7244:7276   */\n      eq\n        /* \"#utility.yul\":7234:7294   */\n      tag_501\n      jumpi\n        /* \"#utility.yul\":7290:7291   */\n      0x00\n        /* \"#utility.yul\":7287:7288   */\n      dup1\n        /* \"#utility.yul\":7280:7292   */\n      revert\n        /* \"#utility.yul\":7234:7294   */\n    tag_501:\n        /* \"#utility.yul\":7184:7300   */\n      pop\n      jump\t// out\n        /* \"#utility.yul\":7306:7439   */\n    tag_355:\n        /* \"#utility.yul\":7349:7354   */\n      0x00\n        /* \"#utility.yul\":7387:7393   */\n      dup2\n        /* \"#utility.yul\":7374:7394   */\n      calldataload\n        /* \"#utility.yul\":7365:7394   */\n      swap1\n      pop\n        /* \"#utility.yul\":7403:7433   */\n      tag_503\n        /* \"#utility.yul\":7427:7432   */\n      dup2\n        /* \"#utility.yul\":7403:7433   */\n      tag_354\n      jump\t// in\n    tag_503:\n        /* \"#utility.yul\":7306:7439   */\n      swap3\n      swap2\n      pop\n      pop\n      jump\t// out\n        /* \"#utility.yul\":7445:8468   */\n    tag_26:\n        /* \"#utility.yul\":7564:7570   */\n      0x00\n        /* \"#utility.yul\":7572:7578   */\n      dup1\n        /* \"#utility.yul\":7580:7586   */\n      0x00\n        /* \"#utility.yul\":7629:7631   */\n      0x60\n        /* \"#utility.yul\":7617:7626   */\n      dup5\n        /* \"#utility.yul\":7608:7615   */\n      dup7\n        /* \"#utility.yul\":7604:7627   */\n      sub\n        /* \"#utility.yul\":7600:7632   */\n      slt\n        /* \"#utility.yul\":7597:7716   */\n      iszero\n      tag_505\n      jumpi\n        /* \"#utility.yul\":7635:7714   */\n      tag_506\n      tag_328\n      jump\t// in\n    tag_506:\n        /* \"#utility.yul\":7597:7716   */\n    tag_505:\n        /* \"#utility.yul\":7783:7784   */\n      0x00\n        /* \"#utility.yul\":7772:7781   */\n      dup5\n        /* \"#utility.yul\":7768:7785   */\n      add\n        /* \"#utility.yul\":7755:7786   */\n      calldataload\n        /* \"#utility.yul\":7813:7831   */\n      0xffffffffffffffff\n        /* \"#utility.yul\":7805:7811   */\n      dup2\n        /* \"#utility.yul\":7802:7832   */\n      gt\n        /* \"#utility.yul\":7799:7916   */\n      iszero\n      tag_507\n      jumpi\n        /* \"#utility.yul\":7835:7914   */\n      tag_508\n      tag_329\n      jump\t// in\n    tag_508:\n        /* \"#utility.yul\":7799:7916   */\n    tag_507:\n        /* \"#utility.yul\":7940:8003   */\n      tag_509\n        /* \"#utility.yul\":7995:8002   */\n      dup7\n        /* \"#utility.yul\":7986:7992   */\n      dup3\n        /* \"#utility.yul\":7975:7984   */\n      dup8\n        /* \"#utility.yul\":7971:7993   */\n      add\n        /* \"#utility.yul\":7940:8003   */\n      tag_348\n      jump\t// in\n    tag_509:\n        /* \"#utility.yul\":7930:8003   */\n      swap4\n      pop\n        /* \"#utility.yul\":7726:8013   */\n      pop\n        /* \"#utility.yul\":8080:8082   */\n      0x20\n        /* \"#utility.yul\":8069:8078   */\n      dup5\n        /* \"#utility.yul\":8065:8083   */\n      add\n        /* \"#utility.yul\":8052:8084   */\n      calldataload\n        /* \"#utility.yul\":8111:8129   */\n      0xffffffffffffffff\n        /* \"#utility.yul\":8103:8109   */\n      dup2\n        /* \"#utility.yul\":8100:8130   */\n      gt\n        /* \"#utility.yul\":8097:8214   */\n      iszero\n      tag_510\n      jumpi\n        /* \"#utility.yul\":8133:8212   */\n      tag_511\n      tag_329\n      jump\t// in\n    tag_511:\n        /* \"#utility.yul\":8097:8214   */\n    tag_510:\n        /* \"#utility.yul\":8238:8326   */\n      tag_512\n        /* \"#utility.yul\":8318:8325   */\n      dup7\n        /* \"#utility.yul\":8309:8315   */\n      dup3\n        /* \"#utility.yul\":8298:8307   */\n      dup8\n        /* \"#utility.yul\":8294:8316   */\n      add\n        /* \"#utility.yul\":8238:8326   */\n      tag_352\n      jump\t// in\n    tag_512:\n        /* \"#utility.yul\":8228:8326   */\n      swap3\n      pop\n        /* \"#utility.yul\":8023:8336   */\n      pop\n        /* \"#utility.yul\":8375:8377   */\n      0x40\n        /* \"#utility.yul\":8401:8451   */\n      tag_513\n        /* \"#utility.yul\":8443:8450   */\n      dup7\n        /* \"#utility.yul\":8434:8440   */\n      dup3\n        /* \"#utility.yul\":8423:8432   */\n      dup8\n        /* \"#utility.yul\":8419:8441   */\n      add\n        /* \"#utility.yul\":8401:8451   */\n      tag_355\n      jump\t// in\n    tag_513:\n        /* \"#utility.yul\":8391:8451   */\n      swap2\n      pop\n        /* \"#utility.yul\":8346:8461   */\n      pop\n        /* \"#utility.yul\":7445:8468   */\n      swap3\n      pop\n      swap3\n      pop\n      swap3\n      jump\t// out\n        /* \"#utility.yul\":8474:8598   */\n    tag_356:\n        /* \"#utility.yul\":8551:8557   */\n      0x00\n        /* \"#utility.yul\":8585:8590   */\n      dup2\n        /* \"#utility.yul\":8579:8591   */\n      mload\n        /* \"#utility.yul\":8569:8591   */\n      swap1\n      pop\n        /* \"#utility.yul\":8474:8598   */\n      swap2\n      swap1\n      pop\n      jump\t// out\n        /* \"#utility.yul\":8604:8798   */\n    tag_357:\n        /* \"#utility.yul\":8713:8724   */\n      0x00\n        /* \"#utility.yul\":8747:8753   */\n      dup3\n        /* \"#utility.yul\":8742:8745   */\n      dup3\n        /* \"#utility.yul\":8735:8754   */\n      mstore\n        /* \"#utility.yul\":8787:8791   */\n      0x20\n        /* \"#utility.yul\":8782:8785   */\n      dup3\n        /* \"#utility.yul\":8778:8792   */\n      add\n        /* \"#utility.yul\":8763:8792   */\n      swap1\n      pop\n        /* \"#utility.yul\":8604:8798   */\n      swap3\n      swap2\n      pop\n      pop\n      jump\t// out\n        /* \"#utility.yul\":8804:8946   */\n    tag_358:\n        /* \"#utility.yul\":8881:8885   */\n      0x00\n        /* \"#utility.yul\":8904:8907   */\n      dup2\n        /* \"#utility.yul\":8896:8907   */\n      swap1\n      pop\n        /* \"#utility.yul\":8934:8938   */\n      0x20\n        /* \"#utility.yul\":8929:8932   */\n      dup3\n        /* \"#utility.yul\":8925:8939   */\n      add\n        /* \"#utility.yul\":8917:8939   */\n      swap1\n      pop\n        /* \"#utility.yul\":8804:8946   */\n      swap2\n      swap1\n      pop\n      jump\t// out\n        /* \"#utility.yul\":8952:9051   */\n    tag_359:\n        /* \"#utility.yul\":9004:9010   */\n      0x00\n        /* \"#utility.yul\":9038:9043   */\n      dup2\n        /* \"#utility.yul\":9032:9044   */\n      mload\n        /* \"#utility.yul\":9022:9044   */\n      swap1\n      pop\n        /* \"#utility.yul\":8952:9051   */\n      swap2\n      swap1\n      pop\n      jump\t// out\n        /* \"#utility.yul\":9057:9216   */\n    tag_360:\n        /* \"#utility.yul\":9131:9142   */\n      0x00\n        /* \"#utility.yul\":9165:9171   */\n      dup3\n        /* \"#utility.yul\":9160:9163   */\n      dup3\n        /* \"#utility.yul\":9153:9172   */\n      mstore\n        /* \"#utility.yul\":9205:9209   */\n      0x20\n        /* \"#utility.yul\":9200:9203   */\n      dup3\n        /* \"#utility.yul\":9196:9210   */\n      add\n        /* \"#utility.yul\":9181:9210   */\n      swap1\n      pop\n        /* \"#utility.yul\":9057:9216   */\n      swap3\n      swap2\n      pop\n      pop\n      jump\t// out\n        /* \"#utility.yul\":9222:9361   */\n    tag_361:\n        /* \"#utility.yul\":9311:9317   */\n      dup3\n        /* \"#utility.yul\":9306:9309   */\n      dup2\n        /* \"#utility.yul\":9301:9304   */\n      dup4\n        /* \"#utility.yul\":9295:9318   */\n      mcopy\n        /* \"#utility.yul\":9352:9353   */\n      0x00\n        /* \"#utility.yul\":9343:9349   */\n      dup4\n        /* \"#utility.yul\":9338:9341   */\n      dup4\n        /* \"#utility.yul\":9334:9350   */\n      add\n        /* \"#utility.yul\":9327:9354   */\n      mstore\n        /* \"#utility.yul\":9222:9361   */\n      pop\n      pop\n      pop\n      jump\t// out\n        /* \"#utility.yul\":9367:9724   */\n    tag_362:\n        /* \"#utility.yul\":9445:9448   */\n      0x00\n        /* \"#utility.yul\":9473:9512   */\n      tag_521\n        /* \"#utility.yul\":9506:9511   */\n      dup3\n        /* \"#utility.yul\":9473:9512   */\n      tag_359\n      jump\t// in\n    tag_521:\n        /* \"#utility.yul\":9528:9589   */\n      tag_522\n        /* \"#utility.yul\":9582:9588   */\n      dup2\n        /* \"#utility.yul\":9577:9580   */\n      dup6\n        /* \"#utility.yul\":9528:9589   */\n      tag_360\n      jump\t// in\n    tag_522:\n        /* \"#utility.yul\":9521:9589   */\n      swap4\n      pop\n        /* \"#utility.yul\":9598:9663   */\n      tag_523\n        /* \"#utility.yul\":9656:9662   */\n      dup2\n        /* \"#utility.yul\":9651:9654   */\n      dup6\n        /* \"#utility.yul\":9644:9648   */\n      0x20\n        /* \"#utility.yul\":9637:9642   */\n      dup7\n        /* \"#utility.yul\":9633:9649   */\n      add\n        /* \"#utility.yul\":9598:9663   */\n      tag_361\n      jump\t// in\n    tag_523:\n        /* \"#utility.yul\":9688:9717   */\n      tag_524\n        /* \"#utility.yul\":9710:9716   */\n      dup2\n        /* \"#utility.yul\":9688:9717   */\n      tag_342\n      jump\t// in\n    tag_524:\n        /* \"#utility.yul\":9683:9686   */\n      dup5\n        /* \"#utility.yul\":9679:9718   */\n      add\n        /* \"#utility.yul\":9672:9718   */\n      swap2\n      pop\n        /* \"#utility.yul\":9449:9724   */\n      pop\n        /* \"#utility.yul\":9367:9724   */\n      swap3\n      swap2\n      pop\n      pop\n      jump\t// out\n        /* \"#utility.yul\":9730:9926   */\n    tag_363:\n        /* \"#utility.yul\":9819:9829   */\n      0x00\n        /* \"#utility.yul\":9854:9920   */\n      tag_526\n        /* \"#utility.yul\":9916:9919   */\n      dup4\n        /* \"#utility.yul\":9908:9914   */\n      dup4\n        /* \"#utility.yul\":9854:9920   */\n      tag_362\n      jump\t// in\n    tag_526:\n        /* \"#utility.yul\":9840:9920   */\n      swap1\n      pop\n        /* \"#utility.yul\":9730:9926   */\n      swap3\n      swap2\n      pop\n      pop\n      jump\t// out\n        /* \"#utility.yul\":9932:10055   */\n    tag_364:\n        /* \"#utility.yul\":10012:10016   */\n      0x00\n        /* \"#utility.yul\":10044:10048   */\n      0x20\n        /* \"#utility.yul\":10039:10042   */\n      dup3\n        /* \"#utility.yul\":10035:10049   */\n      add\n        /* \"#utility.yul\":10027:10049   */\n      swap1\n      pop\n        /* \"#utility.yul\":9932:10055   */\n      swap2\n      swap1\n      pop\n      jump\t// out\n        /* \"#utility.yul\":10089:11080   */\n    tag_365:\n        /* \"#utility.yul\":10228:10231   */\n      0x00\n        /* \"#utility.yul\":10257:10321   */\n      tag_529\n        /* \"#utility.yul\":10315:10320   */\n      dup3\n        /* \"#utility.yul\":10257:10321   */\n      tag_356\n      jump\t// in\n    tag_529:\n        /* \"#utility.yul\":10337:10433   */\n      tag_530\n        /* \"#utility.yul\":10426:10432   */\n      dup2\n        /* \"#utility.yul\":10421:10424   */\n      dup6\n        /* \"#utility.yul\":10337:10433   */\n      tag_357\n      jump\t// in\n    tag_530:\n        /* \"#utility.yul\":10330:10433   */\n      swap4\n      pop\n        /* \"#utility.yul\":10459:10462   */\n      dup4\n        /* \"#utility.yul\":10504:10508   */\n      0x20\n        /* \"#utility.yul\":10496:10502   */\n      dup3\n        /* \"#utility.yul\":10492:10509   */\n      mul\n        /* \"#utility.yul\":10487:10490   */\n      dup6\n        /* \"#utility.yul\":10483:10510   */\n      add\n        /* \"#utility.yul\":10534:10600   */\n      tag_531\n        /* \"#utility.yul\":10594:10599   */\n      dup6\n        /* \"#utility.yul\":10534:10600   */\n      tag_358\n      jump\t// in\n    tag_531:\n        /* \"#utility.yul\":10623:10630   */\n      dup1\n        /* \"#utility.yul\":10654:10655   */\n      0x00\n        /* \"#utility.yul\":10639:11035   */\n    tag_532:\n        /* \"#utility.yul\":10664:10670   */\n      dup6\n        /* \"#utility.yul\":10661:10662   */\n      dup2\n        /* \"#utility.yul\":10658:10671   */\n      lt\n        /* \"#utility.yul\":10639:11035   */\n      iszero\n      tag_534\n      jumpi\n        /* \"#utility.yul\":10735:10744   */\n      dup5\n        /* \"#utility.yul\":10729:10733   */\n      dup5\n        /* \"#utility.yul\":10725:10745   */\n      sub\n        /* \"#utility.yul\":10720:10723   */\n      dup10\n        /* \"#utility.yul\":10713:10746   */\n      mstore\n        /* \"#utility.yul\":10786:10792   */\n      dup2\n        /* \"#utility.yul\":10780:10793   */\n      mload\n        /* \"#utility.yul\":10814:10898   */\n      tag_535\n        /* \"#utility.yul\":10893:10897   */\n      dup6\n        /* \"#utility.yul\":10878:10891   */\n      dup3\n        /* \"#utility.yul\":10814:10898   */\n      tag_363\n      jump\t// in\n    tag_535:\n        /* \"#utility.yul\":10806:10898   */\n      swap5\n      pop\n        /* \"#utility.yul\":10921:10991   */\n      tag_536\n        /* \"#utility.yul\":10984:10990   */\n      dup4\n        /* \"#utility.yul\":10921:10991   */\n      tag_364\n      jump\t// in\n    tag_536:\n        /* \"#utility.yul\":10911:10991   */\n      swap3\n      pop\n        /* \"#utility.yul\":11020:11024   */\n      0x20\n        /* \"#utility.yul\":11015:11018   */\n      dup11\n        /* \"#utility.yul\":11011:11025   */\n      add\n        /* \"#utility.yul\":11004:11025   */\n      swap10\n      pop\n        /* \"#utility.yul\":10699:11035   */\n      pop\n        /* \"#utility.yul\":10686:10687   */\n      0x01\n        /* \"#utility.yul\":10683:10684   */\n      dup2\n        /* \"#utility.yul\":10679:10688   */\n      add\n        /* \"#utility.yul\":10674:10688   */\n      swap1\n      pop\n        /* \"#utility.yul\":10639:11035   */\n      jump(tag_532)\n    tag_534:\n        /* \"#utility.yul\":10643:10657   */\n      pop\n        /* \"#utility.yul\":11051:11055   */\n      dup3\n        /* \"#utility.yul\":11044:11055   */\n      swap8\n      pop\n        /* \"#utility.yul\":11071:11074   */\n      dup8\n        /* \"#utility.yul\":11064:11074   */\n      swap6\n      pop\n        /* \"#utility.yul\":10233:11080   */\n      pop\n      pop\n      pop\n      pop\n      pop\n        /* \"#utility.yul\":10089:11080   */\n      swap3\n      swap2\n      pop\n      pop\n      jump\t// out\n        /* \"#utility.yul\":11086:11499   */\n    tag_32:\n        /* \"#utility.yul\":11249:11253   */\n      0x00\n        /* \"#utility.yul\":11287:11289   */\n      0x20\n        /* \"#utility.yul\":11276:11285   */\n      dup3\n        /* \"#utility.yul\":11272:11290   */\n      add\n        /* \"#utility.yul\":11264:11290   */\n      swap1\n      pop\n        /* \"#utility.yul\":11336:11345   */\n      dup2\n        /* \"#utility.yul\":11330:11334   */\n      dup2\n        /* \"#utility.yul\":11326:11346   */\n      sub\n        /* \"#utility.yul\":11322:11323   */\n      0x00\n        /* \"#utility.yul\":11311:11320   */\n      dup4\n        /* \"#utility.yul\":11307:11324   */\n      add\n        /* \"#utility.yul\":11300:11347   */\n      mstore\n        /* \"#utility.yul\":11364:11492   */\n      tag_538\n        /* \"#utility.yul\":11487:11491   */\n      dup2\n        /* \"#utility.yul\":11478:11484   */\n      dup5\n        /* \"#utility.yul\":11364:11492   */\n      tag_365\n      jump\t// in\n    tag_538:\n        /* \"#utility.yul\":11356:11492   */\n      swap1\n      pop\n        /* \"#utility.yul\":11086:11499   */\n      swap3\n      swap2\n      pop\n      pop\n      jump\t// out\n        /* \"#utility.yul\":11505:11614   */\n    tag_366:\n        /* \"#utility.yul\":11586:11607   */\n      tag_540\n        /* \"#utility.yul\":11601:11606   */\n      dup2\n        /* \"#utility.yul\":11586:11607   */\n      tag_353\n      jump\t// in\n    tag_540:\n        /* \"#utility.yul\":11581:11584   */\n      dup3\n        /* \"#utility.yul\":11574:11608   */\n      mstore\n        /* \"#utility.yul\":11505:11614   */\n      pop\n      pop\n      jump\t// out\n        /* \"#utility.yul\":11620:11830   */\n    tag_37:\n        /* \"#utility.yul\":11707:11711   */\n      0x00\n        /* \"#utility.yul\":11745:11747   */\n      0x20\n        /* \"#utility.yul\":11734:11743   */\n      dup3\n        /* \"#utility.yul\":11730:11748   */\n      add\n        /* \"#utility.yul\":11722:11748   */\n      swap1\n      pop\n        /* \"#utility.yul\":11758:11823   */\n      tag_542\n        /* \"#utility.yul\":11820:11821   */\n      0x00\n        /* \"#utility.yul\":11809:11818   */\n      dup4\n        /* \"#utility.yul\":11805:11822   */\n      add\n        /* \"#utility.yul\":11796:11802   */\n      dup5\n        /* \"#utility.yul\":11758:11823   */\n      tag_366\n      jump\t// in\n    tag_542:\n        /* \"#utility.yul\":11620:11830   */\n      swap3\n      swap2\n      pop\n      pop\n      jump\t// out\n        /* \"#utility.yul\":11836:11962   */\n    tag_367:\n        /* \"#utility.yul\":11873:11880   */\n      0x00\n        /* \"#utility.yul\":11913:11955   */\n      0xffffffffffffffffffffffffffffffffffffffff\n        /* \"#utility.yul\":11906:11911   */\n      dup3\n        /* \"#utility.yul\":11902:11956   */\n      and\n        /* \"#utility.yul\":11891:11956   */\n      swap1\n      pop\n        /* \"#utility.yul\":11836:11962   */\n      swap2\n      swap1\n      pop\n      jump\t// out\n        /* \"#utility.yul\":11968:12064   */\n    tag_368:\n        /* \"#utility.yul\":12005:12012   */\n      0x00\n        /* \"#utility.yul\":12034:12058   */\n      tag_545\n        /* \"#utility.yul\":12052:12057   */\n      dup3\n        /* \"#utility.yul\":12034:12058   */\n      tag_367\n      jump\t// in\n    tag_545:\n        /* \"#utility.yul\":12023:12058   */\n      swap1\n      pop\n        /* \"#utility.yul\":11968:12064   */\n      swap2\n      swap1\n      pop\n      jump\t// out\n        /* \"#utility.yul\":12070:12192   */\n    tag_369:\n        /* \"#utility.yul\":12143:12167   */\n      tag_547\n        /* \"#utility.yul\":12161:12166   */\n      dup2\n        /* \"#utility.yul\":12143:12167   */\n      tag_368\n      jump\t// in\n    tag_547:\n        /* \"#utility.yul\":12136:12141   */\n      dup2\n        /* \"#utility.yul\":12133:12168   */\n      eq\n        /* \"#utility.yul\":12123:12186   */\n      tag_548\n      jumpi\n        /* \"#utility.yul\":12182:12183   */\n      0x00\n        /* \"#utility.yul\":12179:12180   */\n      dup1\n        /* \"#utility.yul\":12172:12184   */\n      revert\n        /* \"#utility.yul\":12123:12186   */\n    tag_548:\n        /* \"#utility.yul\":12070:12192   */\n      pop\n      jump\t// out\n        /* \"#utility.yul\":12198:12337   */\n    tag_370:\n        /* \"#utility.yul\":12244:12249   */\n      0x00\n        /* \"#utility.yul\":12282:12288   */\n      dup2\n        /* \"#utility.yul\":12269:12289   */\n      calldataload\n        /* \"#utility.yul\":12260:12289   */\n      swap1\n      pop\n        /* \"#utility.yul\":12298:12331   */\n      tag_550\n        /* \"#utility.yul\":12325:12330   */\n      dup2\n        /* \"#utility.yul\":12298:12331   */\n      tag_369\n      jump\t// in\n    tag_550:\n        /* \"#utility.yul\":12198:12337   */\n      swap3\n      swap2\n      pop\n      pop\n      jump\t// out\n        /* \"#utility.yul\":12343:12817   */\n    tag_40:\n        /* \"#utility.yul\":12411:12417   */\n      0x00\n        /* \"#utility.yul\":12419:12425   */\n      dup1\n        /* \"#utility.yul\":12468:12470   */\n      0x40\n        /* \"#utility.yul\":12456:12465   */\n      dup4\n        /* \"#utility.yul\":12447:12454   */\n      dup6\n        /* \"#utility.yul\":12443:12466   */\n      sub\n        /* \"#utility.yul\":12439:12471   */\n      slt\n        /* \"#utility.yul\":12436:12555   */\n      iszero\n      tag_552\n      jumpi\n        /* \"#utility.yul\":12474:12553   */\n      tag_553\n      tag_328\n      jump\t// in\n    tag_553:\n        /* \"#utility.yul\":12436:12555   */\n    tag_552:\n        /* \"#utility.yul\":12594:12595   */\n      0x00\n        /* \"#utility.yul\":12619:12672   */\n      tag_554\n        /* \"#utility.yul\":12664:12671   */\n      dup6\n        /* \"#utility.yul\":12655:12661   */\n      dup3\n        /* \"#utility.yul\":12644:12653   */\n      dup7\n        /* \"#utility.yul\":12640:12662   */\n      add\n        /* \"#utility.yul\":12619:12672   */\n      tag_370\n      jump\t// in\n    tag_554:\n        /* \"#utility.yul\":12609:12672   */\n      swap3\n      pop\n        /* \"#utility.yul\":12565:12682   */\n      pop\n        /* \"#utility.yul\":12721:12723   */\n      0x20\n        /* \"#utility.yul\":12747:12800   */\n      tag_555\n        /* \"#utility.yul\":12792:12799   */\n      dup6\n        /* \"#utility.yul\":12783:12789   */\n      dup3\n        /* \"#utility.yul\":12772:12781   */\n      dup7\n        /* \"#utility.yul\":12768:12790   */\n      add\n        /* \"#utility.yul\":12747:12800   */\n      tag_332\n      jump\t// in\n    tag_555:\n        /* \"#utility.yul\":12737:12800   */\n      swap2\n      pop\n        /* \"#utility.yul\":12692:12810   */\n      pop\n        /* \"#utility.yul\":12343:12817   */\n      swap3\n      pop\n      swap3\n      swap1\n      pop\n      jump\t// out\n        /* \"#utility.yul\":12823:13291   */\n    tag_47:\n        /* \"#utility.yul\":12888:12894   */\n      0x00\n        /* \"#utility.yul\":12896:12902   */\n      dup1\n        /* \"#utility.yul\":12945:12947   */\n      0x40\n        /* \"#utility.yul\":12933:12942   */\n      dup4\n        /* \"#utility.yul\":12924:12931   */\n      dup6\n        /* \"#utility.yul\":12920:12943   */\n      sub\n        /* \"#utility.yul\":12916:12948   */\n      slt\n        /* \"#utility.yul\":12913:13032   */\n      iszero\n      tag_557\n      jumpi\n        /* \"#utility.yul\":12951:13030   */\n      tag_558\n      tag_328\n      jump\t// in\n    tag_558:\n        /* \"#utility.yul\":12913:13032   */\n    tag_557:\n        /* \"#utility.yul\":13071:13072   */\n      0x00\n        /* \"#utility.yul\":13096:13149   */\n      tag_559\n        /* \"#utility.yul\":13141:13148   */\n      dup6\n        /* \"#utility.yul\":13132:13138   */\n      dup3\n        /* \"#utility.yul\":13121:13130   */\n      dup7\n        /* \"#utility.yul\":13117:13139   */\n      add\n        /* \"#utility.yul\":13096:13149   */\n      tag_332\n      jump\t// in\n    tag_559:\n        /* \"#utility.yul\":13086:13149   */\n      swap3\n      pop\n        /* \"#utility.yul\":13042:13159   */\n      pop\n        /* \"#utility.yul\":13198:13200   */\n      0x20\n        /* \"#utility.yul\":13224:13274   */\n      tag_560\n        /* \"#utility.yul\":13266:13273   */\n      dup6\n        /* \"#utility.yul\":13257:13263   */\n      dup3\n        /* \"#utility.yul\":13246:13255   */\n      dup7\n        /* \"#utility.yul\":13242:13264   */\n      add\n        /* \"#utility.yul\":13224:13274   */\n      tag_355\n      jump\t// in\n    tag_560:\n        /* \"#utility.yul\":13214:13274   */\n      swap2\n      pop\n        /* \"#utility.yul\":13169:13284   */\n      pop\n        /* \"#utility.yul\":12823:13291   */\n      swap3\n      pop\n      swap3\n      swap1\n      pop\n      jump\t// out\n        /* \"#utility.yul\":13297:13466   */\n    tag_371:\n        /* \"#utility.yul\":13381:13392   */\n      0x00\n        /* \"#utility.yul\":13415:13421   */\n      dup3\n        /* \"#utility.yul\":13410:13413   */\n      dup3\n        /* \"#utility.yul\":13403:13422   */\n      mstore\n        /* \"#utility.yul\":13455:13459   */\n      0x20\n        /* \"#utility.yul\":13450:13453   */\n      dup3\n        /* \"#utility.yul\":13446:13460   */\n      add\n        /* \"#utility.yul\":13431:13460   */\n      swap1\n      pop\n        /* \"#utility.yul\":13297:13466   */\n      swap3\n      swap2\n      pop\n      pop\n      jump\t// out\n        /* \"#utility.yul\":13472:13849   */\n    tag_372:\n        /* \"#utility.yul\":13560:13563   */\n      0x00\n        /* \"#utility.yul\":13588:13627   */\n      tag_563\n        /* \"#utility.yul\":13621:13626   */\n      dup3\n        /* \"#utility.yul\":13588:13627   */\n      tag_359\n      jump\t// in\n    tag_563:\n        /* \"#utility.yul\":13643:13714   */\n      tag_564\n        /* \"#utility.yul\":13707:13713   */\n      dup2\n        /* \"#utility.yul\":13702:13705   */\n      dup6\n        /* \"#utility.yul\":13643:13714   */\n      tag_371\n      jump\t// in\n    tag_564:\n        /* \"#utility.yul\":13636:13714   */\n      swap4\n      pop\n        /* \"#utility.yul\":13723:13788   */\n      tag_565\n        /* \"#utility.yul\":13781:13787   */\n      dup2\n        /* \"#utility.yul\":13776:13779   */\n      dup6\n        /* \"#utility.yul\":13769:13773   */\n      0x20\n        /* \"#utility.yul\":13762:13767   */\n      dup7\n        /* \"#utility.yul\":13758:13774   */\n      add\n        /* \"#utility.yul\":13723:13788   */\n      tag_361\n      jump\t// in\n    tag_565:\n        /* \"#utility.yul\":13813:13842   */\n      tag_566\n        /* \"#utility.yul\":13835:13841   */\n      dup2\n        /* \"#utility.yul\":13813:13842   */\n      tag_342\n      jump\t// in\n    tag_566:\n        /* \"#utility.yul\":13808:13811   */\n      dup5\n        /* \"#utility.yul\":13804:13843   */\n      add\n        /* \"#utility.yul\":13797:13843   */\n      swap2\n      pop\n        /* \"#utility.yul\":13564:13849   */\n      pop\n        /* \"#utility.yul\":13472:13849   */\n      swap3\n      swap2\n      pop\n      pop\n      jump\t// out\n        /* \"#utility.yul\":13855:14266   */\n    tag_55:\n        /* \"#utility.yul\":13990:13994   */\n      0x00\n        /* \"#utility.yul\":14028:14030   */\n      0x40\n        /* \"#utility.yul\":14017:14026   */\n      dup3\n        /* \"#utility.yul\":14013:14031   */\n      add\n        /* \"#utility.yul\":14005:14031   */\n      swap1\n      pop\n        /* \"#utility.yul\":14077:14086   */\n      dup2\n        /* \"#utility.yul\":14071:14075   */\n      dup2\n        /* \"#utility.yul\":14067:14087   */\n      sub\n        /* \"#utility.yul\":14063:14064   */\n      0x00\n        /* \"#utility.yul\":14052:14061   */\n      dup4\n        /* \"#utility.yul\":14048:14065   */\n      add\n        /* \"#utility.yul\":14041:14088   */\n      mstore\n        /* \"#utility.yul\":14105:14183   */\n      tag_568\n        /* \"#utility.yul\":14178:14182   */\n      dup2\n        /* \"#utility.yul\":14169:14175   */\n      dup6\n        /* \"#utility.yul\":14105:14183   */\n      tag_372\n      jump\t// in\n    tag_568:\n        /* \"#utility.yul\":14097:14183   */\n      swap1\n      pop\n        /* \"#utility.yul\":14193:14259   */\n      tag_569\n        /* \"#utility.yul\":14255:14257   */\n      0x20\n        /* \"#utility.yul\":14244:14253   */\n      dup4\n        /* \"#utility.yul\":14240:14258   */\n      add\n        /* \"#utility.yul\":14231:14237   */\n      dup5\n        /* \"#utility.yul\":14193:14259   */\n      tag_366\n      jump\t// in\n    tag_569:\n        /* \"#utility.yul\":13855:14266   */\n      swap4\n      swap3\n      pop\n      pop\n      pop\n      jump\t// out\n        /* \"#utility.yul\":14272:14390   */\n    tag_373:\n        /* \"#utility.yul\":14359:14383   */\n      tag_571\n        /* \"#utility.yul\":14377:14382   */\n      dup2\n        /* \"#utility.yul\":14359:14383   */\n      tag_368\n      jump\t// in\n    tag_571:\n        /* \"#utility.yul\":14354:14357   */\n      dup3\n        /* \"#utility.yul\":14347:14384   */\n      mstore\n        /* \"#utility.yul\":14272:14390   */\n      pop\n      pop\n      jump\t// out\n        /* \"#utility.yul\":14396:14618   */\n    tag_59:\n        /* \"#utility.yul\":14489:14493   */\n      0x00\n        /* \"#utility.yul\":14527:14529   */\n      0x20\n        /* \"#utility.yul\":14516:14525   */\n      dup3\n        /* \"#utility.yul\":14512:14530   */\n      add\n        /* \"#utility.yul\":14504:14530   */\n      swap1\n      pop\n        /* \"#utility.yul\":14540:14611   */\n      tag_573\n        /* \"#utility.yul\":14608:14609   */\n      0x00\n        /* \"#utility.yul\":14597:14606   */\n      dup4\n        /* \"#utility.yul\":14593:14610   */\n      add\n        /* \"#utility.yul\":14584:14590   */\n      dup5\n        /* \"#utility.yul\":14540:14611   */\n      tag_373\n      jump\t// in\n    tag_573:\n        /* \"#utility.yul\":14396:14618   */\n      swap3\n      swap2\n      pop\n      pop\n      jump\t// out\n        /* \"#utility.yul\":14624:14742   */\n    tag_374:\n        /* \"#utility.yul\":14711:14735   */\n      tag_575\n        /* \"#utility.yul\":14729:14734   */\n      dup2\n        /* \"#utility.yul\":14711:14735   */\n      tag_330\n      jump\t// in\n    tag_575:\n        /* \"#utility.yul\":14706:14709   */\n      dup3\n        /* \"#utility.yul\":14699:14736   */\n      mstore\n        /* \"#utility.yul\":14624:14742   */\n      pop\n      pop\n      jump\t// out\n        /* \"#utility.yul\":14748:14970   */\n    tag_63:\n        /* \"#utility.yul\":14841:14845   */\n      0x00\n        /* \"#utility.yul\":14879:14881   */\n      0x20\n        /* \"#utility.yul\":14868:14877   */\n      dup3\n        /* \"#utility.yul\":14864:14882   */\n      add\n        /* \"#utility.yul\":14856:14882   */\n      swap1\n      pop\n        /* \"#utility.yul\":14892:14963   */\n      tag_577\n        /* \"#utility.yul\":14960:14961   */\n      0x00\n        /* \"#utility.yul\":14949:14958   */\n      dup4\n        /* \"#utility.yul\":14945:14962   */\n      add\n        /* \"#utility.yul\":14936:14942   */\n      dup5\n        /* \"#utility.yul\":14892:14963   */\n      tag_374\n      jump\t// in\n    tag_577:\n        /* \"#utility.yul\":14748:14970   */\n      swap3\n      swap2\n      pop\n      pop\n      jump\t// out\n        /* \"#utility.yul\":14976:15450   */\n    tag_66:\n        /* \"#utility.yul\":15044:15050   */\n      0x00\n        /* \"#utility.yul\":15052:15058   */\n      dup1\n        /* \"#utility.yul\":15101:15103   */\n      0x40\n        /* \"#utility.yul\":15089:15098   */\n      dup4\n        /* \"#utility.yul\":15080:15087   */\n      dup6\n        /* \"#utility.yul\":15076:15099   */\n      sub\n        /* \"#utility.yul\":15072:15104   */\n      slt\n        /* \"#utility.yul\":15069:15188   */\n      iszero\n      tag_579\n      jumpi\n        /* \"#utility.yul\":15107:15186   */\n      tag_580\n      tag_328\n      jump\t// in\n    tag_580:\n        /* \"#utility.yul\":15069:15188   */\n    tag_579:\n        /* \"#utility.yul\":15227:15228   */\n      0x00\n        /* \"#utility.yul\":15252:15305   */\n      tag_581\n        /* \"#utility.yul\":15297:15304   */\n      dup6\n        /* \"#utility.yul\":15288:15294   */\n      dup3\n        /* \"#utility.yul\":15277:15286   */\n      dup7\n        /* \"#utility.yul\":15273:15295   */\n      add\n        /* \"#utility.yul\":15252:15305   */\n      tag_332\n      jump\t// in\n    tag_581:\n        /* \"#utility.yul\":15242:15305   */\n      swap3\n      pop\n        /* \"#utility.yul\":15198:15315   */\n      pop\n        /* \"#utility.yul\":15354:15356   */\n      0x20\n        /* \"#utility.yul\":15380:15433   */\n      tag_582\n        /* \"#utility.yul\":15425:15432   */\n      dup6\n        /* \"#utility.yul\":15416:15422   */\n      dup3\n        /* \"#utility.yul\":15405:15414   */\n      dup7\n        /* \"#utility.yul\":15401:15423   */\n      add\n        /* \"#utility.yul\":15380:15433   */\n      tag_332\n      jump\t// in\n    tag_582:\n        /* \"#utility.yul\":15370:15433   */\n      swap2\n      pop\n        /* \"#utility.yul\":15325:15443   */\n      pop\n        /* \"#utility.yul\":14976:15450   */\n      swap3\n      pop\n      swap3\n      swap1\n      pop\n      jump\t// out\n        /* \"#utility.yul\":15456:15785   */\n    tag_70:\n        /* \"#utility.yul\":15515:15521   */\n      0x00\n        /* \"#utility.yul\":15564:15566   */\n      0x20\n        /* \"#utility.yul\":15552:15561   */\n      dup3\n        /* \"#utility.yul\":15543:15550   */\n      dup5\n        /* \"#utility.yul\":15539:15562   */\n      sub\n        /* \"#utility.yul\":15535:15567   */\n      slt\n        /* \"#utility.yul\":15532:15651   */\n      iszero\n      tag_584\n      jumpi\n        /* \"#utility.yul\":15570:15649   */\n      tag_585\n      tag_328\n      jump\t// in\n    tag_585:\n        /* \"#utility.yul\":15532:15651   */\n    tag_584:\n        /* \"#utility.yul\":15690:15691   */\n      0x00\n        /* \"#utility.yul\":15715:15768   */\n      tag_586\n        /* \"#utility.yul\":15760:15767   */\n      dup5\n        /* \"#utility.yul\":15751:15757   */\n      dup3\n        /* \"#utility.yul\":15740:15749   */\n      dup6\n        /* \"#utility.yul\":15736:15758   */\n      add\n        /* \"#utility.yul\":15715:15768   */\n      tag_370\n      jump\t// in\n    tag_586:\n        /* \"#utility.yul\":15705:15768   */\n      swap2\n      pop\n        /* \"#utility.yul\":15661:15778   */\n      pop\n        /* \"#utility.yul\":15456:15785   */\n      swap3\n      swap2\n      pop\n      pop\n      jump\t// out\n        /* \"#utility.yul\":15791:15954   */\n    tag_375:\n        /* \"#utility.yul\":15931:15946   */\n      0x696e76616c696420696e64657800000000000000000000000000000000000000\n        /* \"#utility.yul\":15927:15928   */\n      0x00\n        /* \"#utility.yul\":15919:15925   */\n      dup3\n        /* \"#utility.yul\":15915:15929   */\n      add\n        /* \"#utility.yul\":15908:15947   */\n      mstore\n        /* \"#utility.yul\":15791:15954   */\n      pop\n      jump\t// out\n        /* \"#utility.yul\":15960:16326   */\n    tag_376:\n        /* \"#utility.yul\":16102:16105   */\n      0x00\n        /* \"#utility.yul\":16123:16190   */\n      tag_589\n        /* \"#utility.yul\":16187:16189   */\n      0x0d\n        /* \"#utility.yul\":16182:16185   */\n      dup4\n        /* \"#utility.yul\":16123:16190   */\n      tag_371\n      jump\t// in\n    tag_589:\n        /* \"#utility.yul\":16116:16190   */\n      swap2\n      pop\n        /* \"#utility.yul\":16199:16292   */\n      tag_590\n        /* \"#utility.yul\":16288:16291   */\n      dup3\n        /* \"#utility.yul\":16199:16292   */\n      tag_375\n      jump\t// in\n    tag_590:\n        /* \"#utility.yul\":16317:16319   */\n      0x20\n        /* \"#utility.yul\":16312:16315   */\n      dup3\n        /* \"#utility.yul\":16308:16320   */\n      add\n        /* \"#utility.yul\":16301:16320   */\n      swap1\n      pop\n        /* \"#utility.yul\":15960:16326   */\n      swap2\n      swap1\n      pop\n      jump\t// out\n        /* \"#utility.yul\":16332:16751   */\n    tag_77:\n        /* \"#utility.yul\":16498:16502   */\n      0x00\n        /* \"#utility.yul\":16536:16538   */\n      0x20\n        /* \"#utility.yul\":16525:16534   */\n      dup3\n        /* \"#utility.yul\":16521:16539   */\n      add\n        /* \"#utility.yul\":16513:16539   */\n      swap1\n      pop\n        /* \"#utility.yul\":16585:16594   */\n      dup2\n        /* \"#utility.yul\":16579:16583   */\n      dup2\n        /* \"#utility.yul\":16575:16595   */\n      sub\n        /* \"#utility.yul\":16571:16572   */\n      0x00\n        /* \"#utility.yul\":16560:16569   */\n      dup4\n        /* \"#utility.yul\":16556:16573   */\n      add\n        /* \"#utility.yul\":16549:16596   */\n      mstore\n        /* \"#utility.yul\":16613:16744   */\n      tag_592\n        /* \"#utility.yul\":16739:16743   */\n      dup2\n        /* \"#utility.yul\":16613:16744   */\n      tag_376\n      jump\t// in\n    tag_592:\n        /* \"#utility.yul\":16605:16744   */\n      swap1\n      pop\n        /* \"#utility.yul\":16332:16751   */\n      swap2\n      swap1\n      pop\n      jump\t// out\n        /* \"#utility.yul\":16757:16937   */\n    tag_80:\n        /* \"#utility.yul\":16805:16882   */\n      0x4e487b7100000000000000000000000000000000000000000000000000000000\n        /* \"#utility.yul\":16802:16803   */\n      0x00\n        /* \"#utility.yul\":16795:16883   */\n      mstore\n        /* \"#utility.yul\":16902:16906   */\n      0x32\n        /* \"#utility.yul\":16899:16900   */\n      0x04\n        /* \"#utility.yul\":16892:16907   */\n      mstore\n        /* \"#utility.yul\":16926:16930   */\n      0x24\n        /* \"#utility.yul\":16923:16924   */\n      0x00\n        /* \"#utility.yul\":16916:16931   */\n      revert\n        /* \"#utility.yul\":16943:17122   */\n    tag_377:\n        /* \"#utility.yul\":17083:17114   */\n      0x656d707479207175657374696f6e206973206e6f7420616c6c6f776564000000\n        /* \"#utility.yul\":17079:17080   */\n      0x00\n        /* \"#utility.yul\":17071:17077   */\n      dup3\n        /* \"#utility.yul\":17067:17081   */\n      add\n        /* \"#utility.yul\":17060:17115   */\n      mstore\n        /* \"#utility.yul\":16943:17122   */\n      pop\n      jump\t// out\n        /* \"#utility.yul\":17128:17494   */\n    tag_378:\n        /* \"#utility.yul\":17270:17273   */\n      0x00\n        /* \"#utility.yul\":17291:17358   */\n      tag_596\n        /* \"#utility.yul\":17355:17357   */\n      0x1d\n        /* \"#utility.yul\":17350:17353   */\n      dup4\n        /* \"#utility.yul\":17291:17358   */\n      tag_371\n      jump\t// in\n    tag_596:\n        /* \"#utility.yul\":17284:17358   */\n      swap2\n      pop\n        /* \"#utility.yul\":17367:17460   */\n      tag_597\n        /* \"#utility.yul\":17456:17459   */\n      dup3\n        /* \"#utility.yul\":17367:17460   */\n      tag_377\n      jump\t// in\n    tag_597:\n        /* \"#utility.yul\":17485:17487   */\n      0x20\n        /* \"#utility.yul\":17480:17483   */\n      dup3\n        /* \"#utility.yul\":17476:17488   */\n      add\n        /* \"#utility.yul\":17469:17488   */\n      swap1\n      pop\n        /* \"#utility.yul\":17128:17494   */\n      swap2\n      swap1\n      pop\n      jump\t// out\n        /* \"#utility.yul\":17500:17919   */\n    tag_90:\n        /* \"#utility.yul\":17666:17670   */\n      0x00\n        /* \"#utility.yul\":17704:17706   */\n      0x20\n        /* \"#utility.yul\":17693:17702   */\n      dup3\n        /* \"#utility.yul\":17689:17707   */\n      add\n        /* \"#utility.yul\":17681:17707   */\n      swap1\n      pop\n        /* \"#utility.yul\":17753:17762   */\n      dup2\n        /* \"#utility.yul\":17747:17751   */\n      dup2\n        /* \"#utility.yul\":17743:17763   */\n      sub\n        /* \"#utility.yul\":17739:17740   */\n      0x00\n        /* \"#utility.yul\":17728:17737   */\n      dup4\n        /* \"#utility.yul\":17724:17741   */\n      add\n        /* \"#utility.yul\":17717:17764   */\n      mstore\n        /* \"#utility.yul\":17781:17912   */\n      tag_599\n        /* \"#utility.yul\":17907:17911   */\n      dup2\n        /* \"#utility.yul\":17781:17912   */\n      tag_378\n      jump\t// in\n    tag_599:\n        /* \"#utility.yul\":17773:17912   */\n      swap1\n      pop\n        /* \"#utility.yul\":17500:17919   */\n      swap2\n      swap1\n      pop\n      jump\t// out\n        /* \"#utility.yul\":17925:18106   */\n    tag_379:\n        /* \"#utility.yul\":18065:18098   */\n      0x4174206c656173742032206f7074696f6e732061726520726571756972656400\n        /* \"#utility.yul\":18061:18062   */\n      0x00\n        /* \"#utility.yul\":18053:18059   */\n      dup3\n        /* \"#utility.yul\":18049:18063   */\n      add\n        /* \"#utility.yul\":18042:18099   */\n      mstore\n        /* \"#utility.yul\":17925:18106   */\n      pop\n      jump\t// out\n        /* \"#utility.yul\":18112:18478   */\n    tag_380:\n        /* \"#utility.yul\":18254:18257   */\n      0x00\n        /* \"#utility.yul\":18275:18342   */\n      tag_602\n        /* \"#utility.yul\":18339:18341   */\n      0x1f\n        /* \"#utility.yul\":18334:18337   */\n      dup4\n        /* \"#utility.yul\":18275:18342   */\n      tag_371\n      jump\t// in\n    tag_602:\n        /* \"#utility.yul\":18268:18342   */\n      swap2\n      pop\n        /* \"#utility.yul\":18351:18444   */\n      tag_603\n        /* \"#utility.yul\":18440:18443   */\n      dup3\n        /* \"#utility.yul\":18351:18444   */\n      tag_379\n      jump\t// in\n    tag_603:\n        /* \"#utility.yul\":18469:18471   */\n      0x20\n        /* \"#utility.yul\":18464:18467   */\n      dup3\n        /* \"#utility.yul\":18460:18472   */\n      add\n        /* \"#utility.yul\":18453:18472   */\n      swap1\n      pop\n        /* \"#utility.yul\":18112:18478   */\n      swap2\n      swap1\n      pop\n      jump\t// out\n        /* \"#utility.yul\":18484:18903   */\n    tag_93:\n        /* \"#utility.yul\":18650:18654   */\n      0x00\n        /* \"#utility.yul\":18688:18690   */\n      0x20\n        /* \"#utility.yul\":18677:18686   */\n      dup3\n        /* \"#utility.yul\":18673:18691   */\n      add\n        /* \"#utility.yul\":18665:18691   */\n      swap1\n      pop\n        /* \"#utility.yul\":18737:18746   */\n      dup2\n        /* \"#utility.yul\":18731:18735   */\n      dup2\n        /* \"#utility.yul\":18727:18747   */\n      sub\n        /* \"#utility.yul\":18723:18724   */\n      0x00\n        /* \"#utility.yul\":18712:18721   */\n      dup4\n        /* \"#utility.yul\":18708:18725   */\n      add\n        /* \"#utility.yul\":18701:18748   */\n      mstore\n        /* \"#utility.yul\":18765:18896   */\n      tag_605\n        /* \"#utility.yul\":18891:18895   */\n      dup2\n        /* \"#utility.yul\":18765:18896   */\n      tag_380\n      jump\t// in\n    tag_605:\n        /* \"#utility.yul\":18757:18896   */\n      swap1\n      pop\n        /* \"#utility.yul\":18484:18903   */\n      swap2\n      swap1\n      pop\n      jump\t// out\n        /* \"#utility.yul\":18909:19089   */\n    tag_381:\n        /* \"#utility.yul\":18957:19034   */\n      0x4e487b7100000000000000000000000000000000000000000000000000000000\n        /* \"#utility.yul\":18954:18955   */\n      0x00\n        /* \"#utility.yul\":18947:19035   */\n      mstore\n        /* \"#utility.yul\":19054:19058   */\n      0x11\n        /* \"#utility.yul\":19051:19052   */\n      0x04\n        /* \"#utility.yul\":19044:19059   */\n      mstore\n        /* \"#utility.yul\":19078:19082   */\n      0x24\n        /* \"#utility.yul\":19075:19076   */\n      0x00\n        /* \"#utility.yul\":19068:19083   */\n      revert\n        /* \"#utility.yul\":19095:19289   */\n    tag_96:\n        /* \"#utility.yul\":19135:19139   */\n      0x00\n        /* \"#utility.yul\":19155:19175   */\n      tag_608\n        /* \"#utility.yul\":19173:19174   */\n      dup3\n        /* \"#utility.yul\":19155:19175   */\n      tag_330\n      jump\t// in\n    tag_608:\n        /* \"#utility.yul\":19150:19175   */\n      swap2\n      pop\n        /* \"#utility.yul\":19189:19209   */\n      tag_609\n        /* \"#utility.yul\":19207:19208   */\n      dup4\n        /* \"#utility.yul\":19189:19209   */\n      tag_330\n      jump\t// in\n    tag_609:\n        /* \"#utility.yul\":19184:19209   */\n      swap3\n      pop\n        /* \"#utility.yul\":19233:19234   */\n      dup3\n        /* \"#utility.yul\":19230:19231   */\n      dup3\n        /* \"#utility.yul\":19226:19235   */\n      sub\n        /* \"#utility.yul\":19218:19235   */\n      swap1\n      pop\n        /* \"#utility.yul\":19257:19258   */\n      dup2\n        /* \"#utility.yul\":19251:19255   */\n      dup2\n        /* \"#utility.yul\":19248:19259   */\n      gt\n        /* \"#utility.yul\":19245:19282   */\n      iszero\n      tag_610\n      jumpi\n        /* \"#utility.yul\":19262:19280   */\n      tag_611\n      tag_381\n      jump\t// in\n    tag_611:\n        /* \"#utility.yul\":19245:19282   */\n    tag_610:\n        /* \"#utility.yul\":19095:19289   */\n      swap3\n      swap2\n      pop\n      pop\n      jump\t// out\n        /* \"#utility.yul\":19295:19475   */\n    tag_382:\n        /* \"#utility.yul\":19343:19420   */\n      0x4e487b7100000000000000000000000000000000000000000000000000000000\n        /* \"#utility.yul\":19340:19341   */\n      0x00\n        /* \"#utility.yul\":19333:19421   */\n      mstore\n        /* \"#utility.yul\":19440:19444   */\n      0x22\n        /* \"#utility.yul\":19437:19438   */\n      0x04\n        /* \"#utility.yul\":19430:19445   */\n      mstore\n        /* \"#utility.yul\":19464:19468   */\n      0x24\n        /* \"#utility.yul\":19461:19462   */\n      0x00\n        /* \"#utility.yul\":19454:19469   */\n      revert\n        /* \"#utility.yul\":19481:19801   */\n    tag_122:\n        /* \"#utility.yul\":19525:19531   */\n      0x00\n        /* \"#utility.yul\":19562:19563   */\n      0x02\n        /* \"#utility.yul\":19556:19560   */\n      dup3\n        /* \"#utility.yul\":19552:19564   */\n      div\n        /* \"#utility.yul\":19542:19564   */\n      swap1\n      pop\n        /* \"#utility.yul\":19609:19610   */\n      0x01\n        /* \"#utility.yul\":19603:19607   */\n      dup3\n        /* \"#utility.yul\":19599:19611   */\n      and\n        /* \"#utility.yul\":19630:19648   */\n      dup1\n        /* \"#utility.yul\":19620:19701   */\n      tag_614\n      jumpi\n        /* \"#utility.yul\":19686:19690   */\n      0x7f\n        /* \"#utility.yul\":19678:19684   */\n      dup3\n        /* \"#utility.yul\":19674:19691   */\n      and\n        /* \"#utility.yul\":19664:19691   */\n      swap2\n      pop\n        /* \"#utility.yul\":19620:19701   */\n    tag_614:\n        /* \"#utility.yul\":19748:19750   */\n      0x20\n        /* \"#utility.yul\":19740:19746   */\n      dup3\n        /* \"#utility.yul\":19737:19751   */\n      lt\n        /* \"#utility.yul\":19717:19735   */\n      dup2\n        /* \"#utility.yul\":19714:19752   */\n      sub\n        /* \"#utility.yul\":19711:19795   */\n      tag_615\n      jumpi\n        /* \"#utility.yul\":19767:19785   */\n      tag_616\n      tag_382\n      jump\t// in\n    tag_616:\n        /* \"#utility.yul\":19711:19795   */\n    tag_615:\n        /* \"#utility.yul\":19532:19801   */\n      pop\n        /* \"#utility.yul\":19481:19801   */\n      swap2\n      swap1\n      pop\n      jump\t// out\n        /* \"#utility.yul\":19807:19948   */\n    tag_383:\n        /* \"#utility.yul\":19856:19860   */\n      0x00\n        /* \"#utility.yul\":19879:19882   */\n      dup2\n        /* \"#utility.yul\":19871:19882   */\n      swap1\n      pop\n        /* \"#utility.yul\":19902:19905   */\n      dup2\n        /* \"#utility.yul\":19899:19900   */\n      0x00\n        /* \"#utility.yul\":19892:19906   */\n      mstore\n        /* \"#utility.yul\":19936:19940   */\n      0x20\n        /* \"#utility.yul\":19933:19934   */\n      0x00\n        /* \"#utility.yul\":19923:19941   */\n      keccak256\n        /* \"#utility.yul\":19915:19941   */\n      swap1\n      pop\n        /* \"#utility.yul\":19807:19948   */\n      swap2\n      swap1\n      pop\n      jump\t// out\n        /* \"#utility.yul\":19954:20047   */\n    tag_384:\n        /* \"#utility.yul\":19991:19997   */\n      0x00\n        /* \"#utility.yul\":20038:20040   */\n      0x20\n        /* \"#utility.yul\":20033:20035   */\n      0x1f\n        /* \"#utility.yul\":20026:20031   */\n      dup4\n        /* \"#utility.yul\":20022:20036   */\n      add\n        /* \"#utility.yul\":20018:20041   */\n      div\n        /* \"#utility.yul\":20008:20041   */\n      swap1\n      pop\n        /* \"#utility.yul\":19954:20047   */\n      swap2\n      swap1\n      pop\n      jump\t// out\n        /* \"#utility.yul\":20053:20160   */\n    tag_385:\n        /* \"#utility.yul\":20097:20105   */\n      0x00\n        /* \"#utility.yul\":20147:20152   */\n      dup3\n        /* \"#utility.yul\":20141:20145   */\n      dup3\n        /* \"#utility.yul\":20137:20153   */\n      shl\n        /* \"#utility.yul\":20116:20153   */\n      swap1\n      pop\n        /* \"#utility.yul\":20053:20160   */\n      swap3\n      swap2\n      pop\n      pop\n      jump\t// out\n        /* \"#utility.yul\":20166:20559   */\n    tag_386:\n        /* \"#utility.yul\":20235:20241   */\n      0x00\n        /* \"#utility.yul\":20285:20286   */\n      0x08\n        /* \"#utility.yul\":20273:20283   */\n      dup4\n        /* \"#utility.yul\":20269:20287   */\n      mul\n        /* \"#utility.yul\":20308:20405   */\n      tag_621\n        /* \"#utility.yul\":20338:20404   */\n      0xffffffffffffffffffffffffffffffffffffffffffffffffffffffffffffffff\n        /* \"#utility.yul\":20327:20336   */\n      dup3\n        /* \"#utility.yul\":20308:20405   */\n      tag_385\n      jump\t// in\n    tag_621:\n        /* \"#utility.yul\":20426:20465   */\n      tag_622\n        /* \"#utility.yul\":20456:20464   */\n      dup7\n        /* \"#utility.yul\":20445:20454   */\n      dup4\n        /* \"#utility.yul\":20426:20465   */\n      tag_385\n      jump\t// in\n    tag_622:\n        /* \"#utility.yul\":20414:20465   */\n      swap6\n      pop\n        /* \"#utility.yul\":20498:20502   */\n      dup1\n        /* \"#utility.yul\":20494:20503   */\n      not\n        /* \"#utility.yul\":20487:20492   */\n      dup5\n        /* \"#utility.yul\":20483:20504   */\n      and\n        /* \"#utility.yul\":20474:20504   */\n      swap4\n      pop\n        /* \"#utility.yul\":20547:20551   */\n      dup1\n        /* \"#utility.yul\":20537:20545   */\n      dup7\n        /* \"#utility.yul\":20533:20552   */\n      and\n        /* \"#utility.yul\":20526:20531   */\n      dup5\n        /* \"#utility.yul\":20523:20553   */\n      or\n        /* \"#utility.yul\":20513:20553   */\n      swap3\n      pop\n        /* \"#utility.yul\":20242:20559   */\n      pop\n      pop\n        /* \"#utility.yul\":20166:20559   */\n      swap4\n      swap3\n      pop\n      pop\n      pop\n      jump\t// out\n        /* \"#utility.yul\":20565:20625   */\n    tag_387:\n        /* \"#utility.yul\":20593:20596   */\n      0x00\n        /* \"#utility.yul\":20614:20619   */\n      dup2\n        /* \"#utility.yul\":20607:20619   */\n      swap1\n      pop\n        /* \"#utility.yul\":20565:20625   */\n      swap2\n      swap1\n      pop\n      jump\t// out\n        /* \"#utility.yul\":20631:20773   */\n    tag_388:\n        /* \"#utility.yul\":20681:20690   */\n      0x00\n        /* \"#utility.yul\":20714:20767   */\n      tag_625\n        /* \"#utility.yul\":20732:20766   */\n      tag_626\n        /* \"#utility.yul\":20741:20765   */\n      tag_627\n        /* \"#utility.yul\":20759:20764   */\n      dup5\n        /* \"#utility.yul\":20741:20765   */\n      tag_330\n      jump\t// in\n    tag_627:\n        /* \"#utility.yul\":20732:20766   */\n      tag_387\n      jump\t// in\n    tag_626:\n        /* \"#utility.yul\":20714:20767   */\n      tag_330\n      jump\t// in\n    tag_625:\n        /* \"#utility.yul\":20701:20767   */\n      swap1\n      pop\n        /* \"#utility.yul\":20631:20773   */\n      swap2\n      swap1\n      pop\n      jump\t// out\n        /* \"#utility.yul\":20779:20854   */\n    tag_389:\n        /* \"#utility.yul\":20822:20825   */\n      0x00\n        /* \"#utility.yul\":20843:20848   */\n      dup2\n        /* \"#utility.yul\":20836:20848   */\n      swap1\n      pop\n        /* \"#utility.yul\":20779:20854   */\n      swap2\n      swap1\n      pop\n      jump\t// out\n        /* \"#utility.yul\":20860:21129   */\n    tag_390:\n        /* \"#utility.yul\":20970:21009   */\n      tag_630\n        /* \"#utility.yul\":21001:21008   */\n      dup4\n        /* \"#utility.yul\":20970:21009   */\n      tag_388\n      jump\t// in\n    tag_630:\n        /* \"#utility.yul\":21031:21122   */\n      tag_631\n        /* \"#utility.yul\":21080:21121   */\n      tag_632\n        /* \"#utility.yul\":21104:21120   */\n      dup3\n        /* \"#utility.yul\":21080:21121   */\n      tag_389\n      jump\t// in\n    tag_632:\n        /* \"#utility.yul\":21072:21078   */\n      dup5\n        /* \"#utility.yul\":21065:21069   */\n      dup5\n        /* \"#utility.yul\":21059:21070   */\n      sload\n        /* \"#utility.yul\":21031:21122   */\n      tag_386\n      jump\t// in\n    tag_631:\n        /* \"#utility.yul\":21025:21029   */\n      dup3\n        /* \"#utility.yul\":21018:21123   */\n      sstore\n        /* \"#utility.yul\":20936:21129   */\n      pop\n        /* \"#utility.yul\":20860:21129   */\n      pop\n      pop\n      pop\n      jump\t// out\n        /* \"#utility.yul\":21135:21208   */\n    tag_391:\n        /* \"#utility.yul\":21180:21183   */\n      0x00\n        /* \"#utility.yul\":21135:21208   */\n      swap1\n      jump\t// out\n        /* \"#utility.yul\":21214:21403   */\n    tag_392:\n        /* \"#utility.yul\":21291:21323   */\n      tag_635\n      tag_391\n      jump\t// in\n    tag_635:\n        /* \"#utility.yul\":21332:21397   */\n      tag_636\n        /* \"#utility.yul\":21390:21396   */\n      dup2\n        /* \"#utility.yul\":21382:21388   */\n      dup5\n        /* \"#utility.yul\":21376:21380   */\n      dup5\n        /* \"#utility.yul\":21332:21397   */\n      tag_390\n      jump\t// in\n    tag_636:\n        /* \"#utility.yul\":21267:21403   */\n      pop\n        /* \"#utility.yul\":21214:21403   */\n      pop\n      pop\n      jump\t// out\n        /* \"#utility.yul\":21409:21595   */\n    tag_393:\n        /* \"#utility.yul\":21469:21589   */\n    tag_638:\n        /* \"#utility.yul\":21486:21489   */\n      dup2\n        /* \"#utility.yul\":21479:21484   */\n      dup2\n        /* \"#utility.yul\":21476:21490   */\n      lt\n        /* \"#utility.yul\":21469:21589   */\n      iszero\n      tag_640\n      jumpi\n        /* \"#utility.yul\":21540:21579   */\n      tag_641\n        /* \"#utility.yul\":21577:21578   */\n      0x00\n        /* \"#utility.yul\":21570:21575   */\n      dup3\n        /* \"#utility.yul\":21540:21579   */\n      tag_392\n      jump\t// in\n    tag_641:\n        /* \"#utility.yul\":21513:21514   */\n      0x01\n        /* \"#utility.yul\":21506:21511   */\n      dup2\n        /* \"#utility.yul\":21502:21515   */\n      add\n        /* \"#utility.yul\":21493:21515   */\n      swap1\n      pop\n        /* \"#utility.yul\":21469:21589   */\n      jump(tag_638)\n    tag_640:\n        /* \"#utility.yul\":21409:21595   */\n      pop\n      pop\n      jump\t// out\n        /* \"#utility.yul\":21601:22144   */\n    tag_394:\n        /* \"#utility.yul\":21702:21704   */\n      0x1f\n        /* \"#utility.yul\":21697:21700   */\n      dup3\n        /* \"#utility.yul\":21694:21705   */\n      gt\n        /* \"#utility.yul\":21691:22137   */\n      iszero\n      tag_643\n      jumpi\n        /* \"#utility.yul\":21736:21774   */\n      tag_644\n        /* \"#utility.yul\":21768:21773   */\n      dup2\n        /* \"#utility.yul\":21736:21774   */\n      tag_383\n      jump\t// in\n    tag_644:\n        /* \"#utility.yul\":21820:21849   */\n      tag_645\n        /* \"#utility.yul\":21838:21848   */\n      dup5\n        /* \"#utility.yul\":21820:21849   */\n      tag_384\n      jump\t// in\n    tag_645:\n        /* \"#utility.yul\":21810:21818   */\n      dup2\n        /* \"#utility.yul\":21806:21850   */\n      add\n        /* \"#utility.yul\":22003:22005   */\n      0x20\n        /* \"#utility.yul\":21991:22001   */\n      dup6\n        /* \"#utility.yul\":21988:22006   */\n      lt\n        /* \"#utility.yul\":21985:22034   */\n      iszero\n      tag_646\n      jumpi\n        /* \"#utility.yul\":22024:22032   */\n      dup2\n        /* \"#utility.yul\":22009:22032   */\n      swap1\n      pop\n        /* \"#utility.yul\":21985:22034   */\n    tag_646:\n        /* \"#utility.yul\":22047:22127   */\n      tag_647\n        /* \"#utility.yul\":22103:22125   */\n      tag_648\n        /* \"#utility.yul\":22121:22124   */\n      dup6\n        /* \"#utility.yul\":22103:22125   */\n      tag_384\n      jump\t// in\n    tag_648:\n        /* \"#utility.yul\":22093:22101   */\n      dup4\n        /* \"#utility.yul\":22089:22126   */\n      add\n        /* \"#utility.yul\":22076:22087   */\n      dup3\n        /* \"#utility.yul\":22047:22127   */\n      tag_393\n      jump\t// in\n    tag_647:\n        /* \"#utility.yul\":21706:22137   */\n      pop\n      pop\n        /* \"#utility.yul\":21691:22137   */\n    tag_643:\n        /* \"#utility.yul\":21601:22144   */\n      pop\n      pop\n      pop\n      jump\t// out\n        /* \"#utility.yul\":22150:22267   */\n    tag_395:\n        /* \"#utility.yul\":22204:22212   */\n      0x00\n        /* \"#utility.yul\":22254:22259   */\n      dup3\n        /* \"#utility.yul\":22248:22252   */\n      dup3\n        /* \"#utility.yul\":22244:22260   */\n      shr\n        /* \"#utility.yul\":22223:22260   */\n      swap1\n      pop\n        /* \"#utility.yul\":22150:22267   */\n      swap3\n      swap2\n      pop\n      pop\n      jump\t// out\n        /* \"#utility.yul\":22273:22442   */\n    tag_396:\n        /* \"#utility.yul\":22317:22323   */\n      0x00\n        /* \"#utility.yul\":22350:22401   */\n      tag_651\n        /* \"#utility.yul\":22398:22399   */\n      0x00\n        /* \"#utility.yul\":22394:22400   */\n      not\n        /* \"#utility.yul\":22386:22391   */\n      dup5\n        /* \"#utility.yul\":22383:22384   */\n      0x08\n        /* \"#utility.yul\":22379:22392   */\n      mul\n        /* \"#utility.yul\":22350:22401   */\n      tag_395\n      jump\t// in\n    tag_651:\n        /* \"#utility.yul\":22346:22402   */\n      not\n        /* \"#utility.yul\":22431:22435   */\n      dup1\n        /* \"#utility.yul\":22425:22429   */\n      dup4\n        /* \"#utility.yul\":22421:22436   */\n      and\n        /* \"#utility.yul\":22411:22436   */\n      swap2\n      pop\n        /* \"#utility.yul\":22324:22442   */\n      pop\n        /* \"#utility.yul\":22273:22442   */\n      swap3\n      swap2\n      pop\n      pop\n      jump\t// out\n        /* \"#utility.yul\":22447:22742   */\n    tag_397:\n        /* \"#utility.yul\":22523:22527   */\n      0x00\n        /* \"#utility.yul\":22669:22698   */\n      tag_653\n        /* \"#utility.yul\":22694:22697   */\n      dup4\n        /* \"#utility.yul\":22688:22692   */\n      dup4\n        /* \"#utility.yul\":22669:22698   */\n      tag_396\n      jump\t// in\n    tag_653:\n        /* \"#utility.yul\":22661:22698   */\n      swap2\n      pop\n        /* \"#utility.yul\":22731:22734   */\n      dup3\n        /* \"#utility.yul\":22728:22729   */\n      0x02\n        /* \"#utility.yul\":22724:22735   */\n      mul\n        /* \"#utility.yul\":22718:22722   */\n      dup3\n        /* \"#utility.yul\":22715:22736   */\n      or\n        /* \"#utility.yul\":22707:22736   */\n      swap1\n      pop\n        /* \"#utility.yul\":22447:22742   */\n      swap3\n      swap2\n      pop\n      pop\n      jump\t// out\n        /* \"#utility.yul\":22747:24142   */\n    tag_105:\n        /* \"#utility.yul\":22864:22901   */\n      tag_655\n        /* \"#utility.yul\":22897:22900   */\n      dup3\n        /* \"#utility.yul\":22864:22901   */\n      tag_359\n      jump\t// in\n    tag_655:\n        /* \"#utility.yul\":22966:22984   */\n      0xffffffffffffffff\n        /* \"#utility.yul\":22958:22964   */\n      dup2\n        /* \"#utility.yul\":22955:22985   */\n      gt\n        /* \"#utility.yul\":22952:23008   */\n      iszero\n      tag_656\n      jumpi\n        /* \"#utility.yul\":22988:23006   */\n      tag_657\n      tag_102\n      jump\t// in\n    tag_657:\n        /* \"#utility.yul\":22952:23008   */\n    tag_656:\n        /* \"#utility.yul\":23032:23070   */\n      tag_658\n        /* \"#utility.yul\":23064:23068   */\n      dup3\n        /* \"#utility.yul\":23058:23069   */\n      sload\n        /* \"#utility.yul\":23032:23070   */\n      tag_122\n      jump\t// in\n    tag_658:\n        /* \"#utility.yul\":23117:23184   */\n      tag_659\n        /* \"#utility.yul\":23177:23183   */\n      dup3\n        /* \"#utility.yul\":23169:23175   */\n      dup3\n        /* \"#utility.yul\":23163:23167   */\n      dup6\n        /* \"#utility.yul\":23117:23184   */\n      tag_394\n      jump\t// in\n    tag_659:\n        /* \"#utility.yul\":23211:23212   */\n      0x00\n        /* \"#utility.yul\":23235:23239   */\n      0x20\n        /* \"#utility.yul\":23222:23239   */\n      swap1\n      pop\n        /* \"#utility.yul\":23267:23269   */\n      0x1f\n        /* \"#utility.yul\":23259:23265   */\n      dup4\n        /* \"#utility.yul\":23256:23270   */\n      gt\n        /* \"#utility.yul\":23284:23285   */\n      0x01\n        /* \"#utility.yul\":23279:23897   */\n      dup2\n      eq\n      tag_661\n      jumpi\n        /* \"#utility.yul\":23941:23942   */\n      0x00\n        /* \"#utility.yul\":23958:23964   */\n      dup5\n        /* \"#utility.yul\":23955:24032   */\n      iszero\n      tag_662\n      jumpi\n        /* \"#utility.yul\":24007:24016   */\n      dup3\n        /* \"#utility.yul\":24002:24005   */\n      dup8\n        /* \"#utility.yul\":23998:24017   */\n      add\n        /* \"#utility.yul\":23992:24018   */\n      mload\n        /* \"#utility.yul\":23983:24018   */\n      swap1\n      pop\n        /* \"#utility.yul\":23955:24032   */\n    tag_662:\n        /* \"#utility.yul\":24058:24125   */\n      tag_663\n        /* \"#utility.yul\":24118:24124   */\n      dup6\n        /* \"#utility.yul\":24111:24116   */\n      dup3\n        /* \"#utility.yul\":24058:24125   */\n      tag_397\n      jump\t// in\n    tag_663:\n        /* \"#utility.yul\":24052:24056   */\n      dup7\n        /* \"#utility.yul\":24045:24126   */\n      sstore\n        /* \"#utility.yul\":23914:24136   */\n      pop\n        /* \"#utility.yul\":23249:24136   */\n      jump(tag_660)\n        /* \"#utility.yul\":23279:23897   */\n    tag_661:\n        /* \"#utility.yul\":23331:23335   */\n      0x1f\n        /* \"#utility.yul\":23327:23336   */\n      not\n        /* \"#utility.yul\":23319:23325   */\n      dup5\n        /* \"#utility.yul\":23315:23337   */\n      and\n        /* \"#utility.yul\":23365:23402   */\n      tag_664\n        /* \"#utility.yul\":23397:23401   */\n      dup7\n        /* \"#utility.yul\":23365:23402   */\n      tag_383\n      jump\t// in\n    tag_664:\n        /* \"#utility.yul\":23424:23425   */\n      0x00\n        /* \"#utility.yul\":23438:23646   */\n    tag_665:\n        /* \"#utility.yul\":23452:23459   */\n      dup3\n        /* \"#utility.yul\":23449:23450   */\n      dup2\n        /* \"#utility.yul\":23446:23460   */\n      lt\n        /* \"#utility.yul\":23438:23646   */\n      iszero\n      tag_667\n      jumpi\n        /* \"#utility.yul\":23531:23540   */\n      dup5\n        /* \"#utility.yul\":23526:23529   */\n      dup10\n        /* \"#utility.yul\":23522:23541   */\n      add\n        /* \"#utility.yul\":23516:23542   */\n      mload\n        /* \"#utility.yul\":23508:23514   */\n      dup3\n        /* \"#utility.yul\":23501:23543   */\n      sstore\n        /* \"#utility.yul\":23582:23583   */\n      0x01\n        /* \"#utility.yul\":23574:23580   */\n      dup3\n        /* \"#utility.yul\":23570:23584   */\n      add\n        /* \"#utility.yul\":23560:23584   */\n      swap2\n      pop\n        /* \"#utility.yul\":23629:23631   */\n      0x20\n        /* \"#utility.yul\":23618:23627   */\n      dup6\n        /* \"#utility.yul\":23614:23632   */\n      add\n        /* \"#utility.yul\":23601:23632   */\n      swap5\n      pop\n        /* \"#utility.yul\":23475:23479   */\n      0x20\n        /* \"#utility.yul\":23472:23473   */\n      dup2\n        /* \"#utility.yul\":23468:23480   */\n      add\n        /* \"#utility.yul\":23463:23480   */\n      swap1\n      pop\n        /* \"#utility.yul\":23438:23646   */\n      jump(tag_665)\n    tag_667:\n        /* \"#utility.yul\":23674:23680   */\n      dup7\n        /* \"#utility.yul\":23665:23672   */\n      dup4\n        /* \"#utility.yul\":23662:23681   */\n      lt\n        /* \"#utility.yul\":23659:23838   */\n      iszero\n      tag_668\n      jumpi\n        /* \"#utility.yul\":23732:23741   */\n      dup5\n        /* \"#utility.yul\":23727:23730   */\n      dup10\n        /* \"#utility.yul\":23723:23742   */\n      add\n        /* \"#utility.yul\":23717:23743   */\n      mload\n        /* \"#utility.yul\":23775:23823   */\n      tag_669\n        /* \"#utility.yul\":23817:23821   */\n      0x1f\n        /* \"#utility.yul\":23809:23815   */\n      dup10\n        /* \"#utility.yul\":23805:23822   */\n      and\n        /* \"#utility.yul\":23794:23803   */\n      dup3\n        /* \"#utility.yul\":23775:23823   */\n      tag_396\n      jump\t// in\n    tag_669:\n        /* \"#utility.yul\":23767:23773   */\n      dup4\n        /* \"#utility.yul\":23760:23824   */\n      sstore\n        /* \"#utility.yul\":23682:23838   */\n      pop\n        /* \"#utility.yul\":23659:23838   */\n    tag_668:\n        /* \"#utility.yul\":23884:23885   */\n      0x01\n        /* \"#utility.yul\":23880:23881   */\n      0x02\n        /* \"#utility.yul\":23872:23878   */\n      dup9\n        /* \"#utility.yul\":23868:23882   */\n      mul\n        /* \"#utility.yul\":23864:23886   */\n      add\n        /* \"#utility.yul\":23858:23862   */\n      dup9\n        /* \"#utility.yul\":23851:23887   */\n      sstore\n        /* \"#utility.yul\":23286:23897   */\n      pop\n      pop\n      pop\n        /* \"#utility.yul\":23249:24136   */\n    tag_660:\n      pop\n        /* \"#utility.yul\":22839:24142   */\n      pop\n      pop\n      pop\n        /* \"#utility.yul\":22747:24142   */\n      pop\n      pop\n      jump\t// out\n        /* \"#utility.yul\":24148:24308   */\n    tag_398:\n        /* \"#utility.yul\":24288:24300   */\n      0x696e76616c696420696400000000000000000000000000000000000000000000\n        /* \"#utility.yul\":24284:24285   */\n      0x00\n        /* \"#utility.yul\":24276:24282   */\n      dup3\n        /* \"#utility.yul\":24272:24286   */\n      add\n        /* \"#utility.yul\":24265:24301   */\n      mstore\n        /* \"#utility.yul\":24148:24308   */\n      pop\n      jump\t// out\n        /* \"#utility.yul\":24314:24680   */\n    tag_399:\n        /* \"#utility.yul\":24456:24459   */\n      0x00\n        /* \"#utility.yul\":24477:24544   */\n      tag_672\n        /* \"#utility.yul\":24541:24543   */\n      0x0a\n        /* \"#utility.yul\":24536:24539   */\n      dup4\n        /* \"#utility.yul\":24477:24544   */\n      tag_371\n      jump\t// in\n    tag_672:\n        /* \"#utility.yul\":24470:24544   */\n      swap2\n      pop\n        /* \"#utility.yul\":24553:24646   */\n      tag_673\n        /* \"#utility.yul\":24642:24645   */\n      dup3\n        /* \"#utility.yul\":24553:24646   */\n      tag_398\n      jump\t// in\n    tag_673:\n        /* \"#utility.yul\":24671:24673   */\n      0x20\n        /* \"#utility.yul\":24666:24669   */\n      dup3\n        /* \"#utility.yul\":24662:24674   */\n      add\n        /* \"#utility.yul\":24655:24674   */\n      swap1\n      pop\n        /* \"#utility.yul\":24314:24680   */\n      swap2\n      swap1\n      pop\n      jump\t// out\n        /* \"#utility.yul\":24686:25105   */\n    tag_132:\n        /* \"#utility.yul\":24852:24856   */\n      0x00\n        /* \"#utility.yul\":24890:24892   */\n      0x20\n        /* \"#utility.yul\":24879:24888   */\n      dup3\n        /* \"#utility.yul\":24875:24893   */\n      add\n        /* \"#utility.yul\":24867:24893   */\n      swap1\n      pop\n        /* \"#utility.yul\":24939:24948   */\n      dup2\n        /* \"#utility.yul\":24933:24937   */\n      dup2\n        /* \"#utility.yul\":24929:24949   */\n      sub\n        /* \"#utility.yul\":24925:24926   */\n      0x00\n        /* \"#utility.yul\":24914:24923   */\n      dup4\n        /* \"#utility.yul\":24910:24927   */\n      add\n        /* \"#utility.yul\":24903:24950   */\n      mstore\n        /* \"#utility.yul\":24967:25098   */\n      tag_675\n        /* \"#utility.yul\":25093:25097   */\n      dup2\n        /* \"#utility.yul\":24967:25098   */\n      tag_399\n      jump\t// in\n    tag_675:\n        /* \"#utility.yul\":24959:25098   */\n      swap1\n      pop\n        /* \"#utility.yul\":24686:25105   */\n      swap2\n      swap1\n      pop\n      jump\t// out\n        /* \"#utility.yul\":25111:25276   */\n    tag_400:\n        /* \"#utility.yul\":25251:25268   */\n      0x696e76616c696420616464726573730000000000000000000000000000000000\n        /* \"#utility.yul\":25247:25248   */\n      0x00\n        /* \"#utility.yul\":25239:25245   */\n      dup3\n        /* \"#utility.yul\":25235:25249   */\n      add\n        /* \"#utility.yul\":25228:25269   */\n      mstore\n        /* \"#utility.yul\":25111:25276   */\n      pop\n      jump\t// out\n        /* \"#utility.yul\":25282:25648   */\n    tag_401:\n        /* \"#utility.yul\":25424:25427   */\n      0x00\n        /* \"#utility.yul\":25445:25512   */\n      tag_678\n        /* \"#utility.yul\":25509:25511   */\n      0x0f\n        /* \"#utility.yul\":25504:25507   */\n      dup4\n        /* \"#utility.yul\":25445:25512   */\n      tag_371\n      jump\t// in\n    tag_678:\n        /* \"#utility.yul\":25438:25512   */\n      swap2\n      pop\n        /* \"#utility.yul\":25521:25614   */\n      tag_679\n        /* \"#utility.yul\":25610:25613   */\n      dup3\n        /* \"#utility.yul\":25521:25614   */\n      tag_400\n      jump\t// in\n    tag_679:\n        /* \"#utility.yul\":25639:25641   */\n      0x20\n        /* \"#utility.yul\":25634:25637   */\n      dup3\n        /* \"#utility.yul\":25630:25642   */\n      add\n        /* \"#utility.yul\":25623:25642   */\n      swap1\n      pop\n        /* \"#utility.yul\":25282:25648   */\n      swap2\n      swap1\n      pop\n      jump\t// out\n        /* \"#utility.yul\":25654:26073   */\n    tag_137:\n        /* \"#utility.yul\":25820:25824   */\n      0x00\n        /* \"#utility.yul\":25858:25860   */\n      0x20\n        /* \"#utility.yul\":25847:25856   */\n      dup3\n        /* \"#utility.yul\":25843:25861   */\n      add\n        /* \"#utility.yul\":25835:25861   */\n      swap1\n      pop\n        /* \"#utility.yul\":25907:25916   */\n      dup2\n        /* \"#utility.yul\":25901:25905   */\n      dup2\n        /* \"#utility.yul\":25897:25917   */\n      sub\n        /* \"#utility.yul\":25893:25894   */\n      0x00\n        /* \"#utility.yul\":25882:25891   */\n      dup4\n        /* \"#utility.yul\":25878:25895   */\n      add\n        /* \"#utility.yul\":25871:25918   */\n      mstore\n        /* \"#utility.yul\":25935:26066   */\n      tag_681\n        /* \"#utility.yul\":26061:26065   */\n      dup2\n        /* \"#utility.yul\":25935:26066   */\n      tag_401\n      jump\t// in\n    tag_681:\n        /* \"#utility.yul\":25927:26066   */\n      swap1\n      pop\n        /* \"#utility.yul\":25654:26073   */\n      swap2\n      swap1\n      pop\n      jump\t// out\n        /* \"#utility.yul\":26079:26246   */\n    tag_402:\n        /* \"#utility.yul\":26219:26238   */\n      0x696e76616c696420737572766579204944000000000000000000000000000000\n        /* \"#utility.yul\":26215:26216   */\n      0x00\n        /* \"#utility.yul\":26207:26213   */\n      dup3\n        /* \"#utility.yul\":26203:26217   */\n      add\n        /* \"#utility.yul\":26196:26239   */\n      mstore\n        /* \"#utility.yul\":26079:26246   */\n      pop\n      jump\t// out\n        /* \"#utility.yul\":26252:26618   */\n    tag_403:\n        /* \"#utility.yul\":26394:26397   */\n      0x00\n        /* \"#utility.yul\":26415:26482   */\n      tag_684\n        /* \"#utility.yul\":26479:26481   */\n      0x11\n        /* \"#utility.yul\":26474:26477   */\n      dup4\n        /* \"#utility.yul\":26415:26482   */\n      tag_371\n      jump\t// in\n    tag_684:\n        /* \"#utility.yul\":26408:26482   */\n      swap2\n      pop\n        /* \"#utility.yul\":26491:26584   */\n      tag_685\n        /* \"#utility.yul\":26580:26583   */\n      dup3\n        /* \"#utility.yul\":26491:26584   */\n      tag_402\n      jump\t// in\n    tag_685:\n        /* \"#utility.yul\":26609:26611   */\n      0x20\n        /* \"#utility.yul\":26604:26607   */\n      dup3\n        /* \"#utility.yul\":26600:26612   */\n      add\n        /* \"#utility.yul\":26593:26612   */\n      swap1\n      pop\n        /* \"#utility.yul\":26252:26618   */\n      swap2\n      swap1\n      pop\n      jump\t// out\n        /* \"#utility.yul\":26624:27043   */\n    tag_142:\n        /* \"#utility.yul\":26790:26794   */\n      0x00\n        /* \"#utility.yul\":26828:26830   */\n      0x20\n        /* \"#utility.yul\":26817:26826   */\n      dup3\n        /* \"#utility.yul\":26813:26831   */\n      add\n        /* \"#utility.yul\":26805:26831   */\n      swap1\n      pop\n        /* \"#utility.yul\":26877:26886   */\n      dup2\n        /* \"#utility.yul\":26871:26875   */\n      dup2\n        /* \"#utility.yul\":26867:26887   */\n      sub\n        /* \"#utility.yul\":26863:26864   */\n      0x00\n        /* \"#utility.yul\":26852:26861   */\n      dup4\n        /* \"#utility.yul\":26848:26865   */\n      add\n        /* \"#utility.yul\":26841:26888   */\n      mstore\n        /* \"#utility.yul\":26905:27036   */\n      tag_687\n        /* \"#utility.yul\":27031:27035   */\n      dup2\n        /* \"#utility.yul\":26905:27036   */\n      tag_403\n      jump\t// in\n    tag_687:\n        /* \"#utility.yul\":26897:27036   */\n      swap1\n      pop\n        /* \"#utility.yul\":26624:27043   */\n      swap2\n      swap1\n      pop\n      jump\t// out\n        /* \"#utility.yul\":27049:27281   */\n    tag_404:\n        /* \"#utility.yul\":27189:27223   */\n      0x73757276657920697320616c726561647920696e207468652064657369726564\n        /* \"#utility.yul\":27185:27186   */\n      0x00\n        /* \"#utility.yul\":27177:27183   */\n      dup3\n        /* \"#utility.yul\":27173:27187   */\n      add\n        /* \"#utility.yul\":27166:27224   */\n      mstore\n        /* \"#utility.yul\":27258:27273   */\n      0x2061637469766520737461746500000000000000000000000000000000000000\n        /* \"#utility.yul\":27253:27255   */\n      0x20\n        /* \"#utility.yul\":27245:27251   */\n      dup3\n        /* \"#utility.yul\":27241:27256   */\n      add\n        /* \"#utility.yul\":27234:27274   */\n      mstore\n        /* \"#utility.yul\":27049:27281   */\n      pop\n      jump\t// out\n        /* \"#utility.yul\":27287:27653   */\n    tag_405:\n        /* \"#utility.yul\":27429:27432   */\n      0x00\n        /* \"#utility.yul\":27450:27517   */\n      tag_690\n        /* \"#utility.yul\":27514:27516   */\n      0x2d\n        /* \"#utility.yul\":27509:27512   */\n      dup4\n        /* \"#utility.yul\":27450:27517   */\n      tag_371\n      jump\t// in\n    tag_690:\n        /* \"#utility.yul\":27443:27517   */\n      swap2\n      pop\n        /* \"#utility.yul\":27526:27619   */\n      tag_691\n        /* \"#utility.yul\":27615:27618   */\n      dup3\n        /* \"#utility.yul\":27526:27619   */\n      tag_404\n      jump\t// in\n    tag_691:\n        /* \"#utility.yul\":27644:27646   */\n      0x40\n        /* \"#utility.yul\":27639:27642   */\n      dup3\n        /* \"#utility.yul\":27635:27647   */\n      add\n        /* \"#utility.yul\":27628:27647   */\n      swap1\n      pop\n        /* \"#utility.yul\":27287:27653   */\n      swap2\n      swap1\n      pop\n      jump\t// out\n        /* \"#utility.yul\":27659:28078   */\n    tag_163:\n        /* \"#utility.yul\":27825:27829   */\n      0x00\n        /* \"#utility.yul\":27863:27865   */\n      0x20\n        /* \"#utility.yul\":27852:27861   */\n      dup3\n        /* \"#utility.yul\":27848:27866   */\n      add\n        /* \"#utility.yul\":27840:27866   */\n      swap1\n      pop\n        /* \"#utility.yul\":27912:27921   */\n      dup2\n        /* \"#utility.yul\":27906:27910   */\n      dup2\n        /* \"#utility.yul\":27902:27922   */\n      sub\n        /* \"#utility.yul\":27898:27899   */\n      0x00\n        /* \"#utility.yul\":27887:27896   */\n      dup4\n        /* \"#utility.yul\":27883:27900   */\n      add\n        /* \"#utility.yul\":27876:27923   */\n      mstore\n        /* \"#utility.yul\":27940:28071   */\n      tag_693\n        /* \"#utility.yul\":28066:28070   */\n      dup2\n        /* \"#utility.yul\":27940:28071   */\n      tag_405\n      jump\t// in\n    tag_693:\n        /* \"#utility.yul\":27932:28071   */\n      swap1\n      pop\n        /* \"#utility.yul\":27659:28078   */\n      swap2\n      swap1\n      pop\n      jump\t// out\n        /* \"#utility.yul\":28084:28169   */\n    tag_406:\n        /* \"#utility.yul\":28129:28136   */\n      0x00\n        /* \"#utility.yul\":28158:28163   */\n      dup2\n        /* \"#utility.yul\":28147:28163   */\n      swap1\n      pop\n        /* \"#utility.yul\":28084:28169   */\n      swap2\n      swap1\n      pop\n      jump\t// out\n        /* \"#utility.yul\":28175:28276   */\n    tag_407:\n        /* \"#utility.yul\":28211:28218   */\n      0x00\n        /* \"#utility.yul\":28251:28269   */\n      0xffffffffffffffff\n        /* \"#utility.yul\":28244:28249   */\n      dup3\n        /* \"#utility.yul\":28240:28270   */\n      and\n        /* \"#utility.yul\":28229:28270   */\n      swap1\n      pop\n        /* \"#utility.yul\":28175:28276   */\n      swap2\n      swap1\n      pop\n      jump\t// out\n        /* \"#utility.yul\":28282:28438   */\n    tag_408:\n        /* \"#utility.yul\":28339:28348   */\n      0x00\n        /* \"#utility.yul\":28372:28432   */\n      tag_697\n        /* \"#utility.yul\":28389:28431   */\n      tag_698\n        /* \"#utility.yul\":28398:28430   */\n      tag_699\n        /* \"#utility.yul\":28424:28429   */\n      dup5\n        /* \"#utility.yul\":28398:28430   */\n      tag_406\n      jump\t// in\n    tag_699:\n        /* \"#utility.yul\":28389:28431   */\n      tag_387\n      jump\t// in\n    tag_698:\n        /* \"#utility.yul\":28372:28432   */\n      tag_407\n      jump\t// in\n    tag_697:\n        /* \"#utility.yul\":28359:28432   */\n      swap1\n      pop\n        /* \"#utility.yul\":28282:28438   */\n      swap2\n      swap1\n      pop\n      jump\t// out\n        /* \"#utility.yul\":28444:28589   */\n    tag_409:\n        /* \"#utility.yul\":28538:28582   */\n      tag_701\n        /* \"#utility.yul\":28576:28581   */\n      dup2\n        /* \"#utility.yul\":28538:28582   */\n      tag_408\n      jump\t// in\n    tag_701:\n        /* \"#utility.yul\":28533:28536   */\n      dup3\n        /* \"#utility.yul\":28526:28583   */\n      mstore\n        /* \"#utility.yul\":28444:28589   */\n      pop\n      pop\n      jump\t// out\n        /* \"#utility.yul\":28595:28831   */\n    tag_182:\n        /* \"#utility.yul\":28695:28699   */\n      0x00\n        /* \"#utility.yul\":28733:28735   */\n      0x20\n        /* \"#utility.yul\":28722:28731   */\n      dup3\n        /* \"#utility.yul\":28718:28736   */\n      add\n        /* \"#utility.yul\":28710:28736   */\n      swap1\n      pop\n        /* \"#utility.yul\":28746:28824   */\n      tag_703\n        /* \"#utility.yul\":28821:28822   */\n      0x00\n        /* \"#utility.yul\":28810:28819   */\n      dup4\n        /* \"#utility.yul\":28806:28823   */\n      add\n        /* \"#utility.yul\":28797:28803   */\n      dup5\n        /* \"#utility.yul\":28746:28824   */\n      tag_409\n      jump\t// in\n    tag_703:\n        /* \"#utility.yul\":28595:28831   */\n      swap3\n      swap2\n      pop\n      pop\n      jump\t// out\n        /* \"#utility.yul\":28837:29002   */\n    tag_410:\n        /* \"#utility.yul\":28977:28994   */\n      0x696e76616c696420726571756573740000000000000000000000000000000000\n        /* \"#utility.yul\":28973:28974   */\n      0x00\n        /* \"#utility.yul\":28965:28971   */\n      dup3\n        /* \"#utility.yul\":28961:28975   */\n      add\n        /* \"#utility.yul\":28954:28995   */\n      mstore\n        /* \"#utility.yul\":28837:29002   */\n      pop\n      jump\t// out\n        /* \"#utility.yul\":29008:29374   */\n    tag_411:\n        /* \"#utility.yul\":29150:29153   */\n      0x00\n        /* \"#utility.yul\":29171:29238   */\n      tag_706\n        /* \"#utility.yul\":29235:29237   */\n      0x0f\n        /* \"#utility.yul\":29230:29233   */\n      dup4\n        /* \"#utility.yul\":29171:29238   */\n      tag_371\n      jump\t// in\n    tag_706:\n        /* \"#utility.yul\":29164:29238   */\n      swap2\n      pop\n        /* \"#utility.yul\":29247:29340   */\n      tag_707\n        /* \"#utility.yul\":29336:29339   */\n      dup3\n        /* \"#utility.yul\":29247:29340   */\n      tag_410\n      jump\t// in\n    tag_707:\n        /* \"#utility.yul\":29365:29367   */\n      0x20\n        /* \"#utility.yul\":29360:29363   */\n      dup3\n        /* \"#utility.yul\":29356:29368   */\n      add\n        /* \"#utility.yul\":29349:29368   */\n      swap1\n      pop\n        /* \"#utility.yul\":29008:29374   */\n      swap2\n      swap1\n      pop\n      jump\t// out\n        /* \"#utility.yul\":29380:29799   */\n    tag_200:\n        /* \"#utility.yul\":29546:29550   */\n      0x00\n        /* \"#utility.yul\":29584:29586   */\n      0x20\n        /* \"#utility.yul\":29573:29582   */\n      dup3\n        /* \"#utility.yul\":29569:29587   */\n      add\n        /* \"#utility.yul\":29561:29587   */\n      swap1\n      pop\n        /* \"#utility.yul\":29633:29642   */\n      dup2\n        /* \"#utility.yul\":29627:29631   */\n      dup2\n        /* \"#utility.yul\":29623:29643   */\n      sub\n        /* \"#utility.yul\":29619:29620   */\n      0x00\n        /* \"#utility.yul\":29608:29617   */\n      dup4\n        /* \"#utility.yul\":29604:29621   */\n      add\n        /* \"#utility.yul\":29597:29644   */\n      mstore\n        /* \"#utility.yul\":29661:29792   */\n      tag_709\n        /* \"#utility.yul\":29787:29791   */\n      dup2\n        /* \"#utility.yul\":29661:29792   */\n      tag_411\n      jump\t// in\n    tag_709:\n        /* \"#utility.yul\":29653:29792   */\n      swap1\n      pop\n        /* \"#utility.yul\":29380:29799   */\n      swap2\n      swap1\n      pop\n      jump\t// out\n        /* \"#utility.yul\":29805:29975   */\n    tag_412:\n        /* \"#utility.yul\":29945:29967   */\n      0x537572766579206973206e6f7420616374697665000000000000000000000000\n        /* \"#utility.yul\":29941:29942   */\n      0x00\n        /* \"#utility.yul\":29933:29939   */\n      dup3\n        /* \"#utility.yul\":29929:29943   */\n      add\n        /* \"#utility.yul\":29922:29968   */\n      mstore\n        /* \"#utility.yul\":29805:29975   */\n      pop\n      jump\t// out\n        /* \"#utility.yul\":29981:30347   */\n    tag_413:\n        /* \"#utility.yul\":30123:30126   */\n      0x00\n        /* \"#utility.yul\":30144:30211   */\n      tag_712\n        /* \"#utility.yul\":30208:30210   */\n      0x14\n        /* \"#utility.yul\":30203:30206   */\n      dup4\n        /* \"#utility.yul\":30144:30211   */\n      tag_371\n      jump\t// in\n    tag_712:\n        /* \"#utility.yul\":30137:30211   */\n      swap2\n      pop\n        /* \"#utility.yul\":30220:30313   */\n      tag_713\n        /* \"#utility.yul\":30309:30312   */\n      dup3\n        /* \"#utility.yul\":30220:30313   */\n      tag_412\n      jump\t// in\n    tag_713:\n        /* \"#utility.yul\":30338:30340   */\n      0x20\n        /* \"#utility.yul\":30333:30336   */\n      dup3\n        /* \"#utility.yul\":30329:30341   */\n      add\n        /* \"#utility.yul\":30322:30341   */\n      swap1\n      pop\n        /* \"#utility.yul\":29981:30347   */\n      swap2\n      swap1\n      pop\n      jump\t// out\n        /* \"#utility.yul\":30353:30772   */\n    tag_210:\n        /* \"#utility.yul\":30519:30523   */\n      0x00\n        /* \"#utility.yul\":30557:30559   */\n      0x20\n        /* \"#utility.yul\":30546:30555   */\n      dup3\n        /* \"#utility.yul\":30542:30560   */\n      add\n        /* \"#utility.yul\":30534:30560   */\n      swap1\n      pop\n        /* \"#utility.yul\":30606:30615   */\n      dup2\n        /* \"#utility.yul\":30600:30604   */\n      dup2\n        /* \"#utility.yul\":30596:30616   */\n      sub\n        /* \"#utility.yul\":30592:30593   */\n      0x00\n        /* \"#utility.yul\":30581:30590   */\n      dup4\n        /* \"#utility.yul\":30577:30594   */\n      add\n        /* \"#utility.yul\":30570:30617   */\n      mstore\n        /* \"#utility.yul\":30634:30765   */\n      tag_715\n        /* \"#utility.yul\":30760:30764   */\n      dup2\n        /* \"#utility.yul\":30634:30765   */\n      tag_413\n      jump\t// in\n    tag_715:\n        /* \"#utility.yul\":30626:30765   */\n      swap1\n      pop\n        /* \"#utility.yul\":30353:30772   */\n      swap2\n      swap1\n      pop\n      jump\t// out\n        /* \"#utility.yul\":30778:30948   */\n    tag_414:\n        /* \"#utility.yul\":30918:30940   */\n      0x496e76616c6964206f7074696f6e20696e646578000000000000000000000000\n        /* \"#utility.yul\":30914:30915   */\n      0x00\n        /* \"#utility.yul\":30906:30912   */\n      dup3\n        /* \"#utility.yul\":30902:30916   */\n      add\n        /* \"#utility.yul\":30895:30941   */\n      mstore\n        /* \"#utility.yul\":30778:30948   */\n      pop\n      jump\t// out\n        /* \"#utility.yul\":30954:31320   */\n    tag_415:\n        /* \"#utility.yul\":31096:31099   */\n      0x00\n        /* \"#utility.yul\":31117:31184   */\n      tag_718\n        /* \"#utility.yul\":31181:31183   */\n      0x14\n        /* \"#utility.yul\":31176:31179   */\n      dup4\n        /* \"#utility.yul\":31117:31184   */\n      tag_371\n      jump\t// in\n    tag_718:\n        /* \"#utility.yul\":31110:31184   */\n      swap2\n      pop\n        /* \"#utility.yul\":31193:31286   */\n      tag_719\n        /* \"#utility.yul\":31282:31285   */\n      dup3\n        /* \"#utility.yul\":31193:31286   */\n      tag_414\n      jump\t// in\n    tag_719:\n        /* \"#utility.yul\":31311:31313   */\n      0x20\n        /* \"#utility.yul\":31306:31309   */\n      dup3\n        /* \"#utility.yul\":31302:31314   */\n      add\n        /* \"#utility.yul\":31295:31314   */\n      swap1\n      pop\n        /* \"#utility.yul\":30954:31320   */\n      swap2\n      swap1\n      pop\n      jump\t// out\n        /* \"#utility.yul\":31326:31745   */\n    tag_217:\n        /* \"#utility.yul\":31492:31496   */\n      0x00\n        /* \"#utility.yul\":31530:31532   */\n      0x20\n        /* \"#utility.yul\":31519:31528   */\n      dup3\n        /* \"#utility.yul\":31515:31533   */\n      add\n        /* \"#utility.yul\":31507:31533   */\n      swap1\n      pop\n        /* \"#utility.yul\":31579:31588   */\n      dup2\n        /* \"#utility.yul\":31573:31577   */\n      dup2\n        /* \"#utility.yul\":31569:31589   */\n      sub\n        /* \"#utility.yul\":31565:31566   */\n      0x00\n        /* \"#utility.yul\":31554:31563   */\n      dup4\n        /* \"#utility.yul\":31550:31567   */\n      add\n        /* \"#utility.yul\":31543:31590   */\n      mstore\n        /* \"#utility.yul\":31607:31738   */\n      tag_721\n        /* \"#utility.yul\":31733:31737   */\n      dup2\n        /* \"#utility.yul\":31607:31738   */\n      tag_415\n      jump\t// in\n    tag_721:\n        /* \"#utility.yul\":31599:31738   */\n      swap1\n      pop\n        /* \"#utility.yul\":31326:31745   */\n      swap2\n      swap1\n      pop\n      jump\t// out\n        /* \"#utility.yul\":31751:31923   */\n    tag_416:\n        /* \"#utility.yul\":31891:31915   */\n      0x557365722068617320616c726561647920766f74656400000000000000000000\n        /* \"#utility.yul\":31887:31888   */\n      0x00\n        /* \"#utility.yul\":31879:31885   */\n      dup3\n        /* \"#utility.yul\":31875:31889   */\n      add\n        /* \"#utility.yul\":31868:31916   */\n      mstore\n        /* \"#utility.yul\":31751:31923   */\n      pop\n      jump\t// out\n        /* \"#utility.yul\":31929:32295   */\n    tag_417:\n        /* \"#utility.yul\":32071:32074   */\n      0x00\n        /* \"#utility.yul\":32092:32159   */\n      tag_724\n        /* \"#utility.yul\":32156:32158   */\n      0x16\n        /* \"#utility.yul\":32151:32154   */\n      dup4\n        /* \"#utility.yul\":32092:32159   */\n      tag_371\n      jump\t// in\n    tag_724:\n        /* \"#utility.yul\":32085:32159   */\n      swap2\n      pop\n        /* \"#utility.yul\":32168:32261   */\n      tag_725\n        /* \"#utility.yul\":32257:32260   */\n      dup3\n        /* \"#utility.yul\":32168:32261   */\n      tag_416\n      jump\t// in\n    tag_725:\n        /* \"#utility.yul\":32286:32288   */\n      0x20\n        /* \"#utility.yul\":32281:32284   */\n      dup3\n        /* \"#utility.yul\":32277:32289   */\n      add\n        /* \"#utility.yul\":32270:32289   */\n      swap1\n      pop\n        /* \"#utility.yul\":31929:32295   */\n      swap2\n      swap1\n      pop\n      jump\t// out\n        /* \"#utility.yul\":32301:32720   */\n    tag_223:\n        /* \"#utility.yul\":32467:32471   */\n      0x00\n        /* \"#utility.yul\":32505:32507   */\n      0x20\n        /* \"#utility.yul\":32494:32503   */\n      dup3\n        /* \"#utility.yul\":32490:32508   */\n      add\n        /* \"#utility.yul\":32482:32508   */\n      swap1\n      pop\n        /* \"#utility.yul\":32554:32563   */\n      dup2\n        /* \"#utility.yul\":32548:32552   */\n      dup2\n        /* \"#utility.yul\":32544:32564   */\n      sub\n        /* \"#utility.yul\":32540:32541   */\n      0x00\n        /* \"#utility.yul\":32529:32538   */\n      dup4\n        /* \"#utility.yul\":32525:32542   */\n      add\n        /* \"#utility.yul\":32518:32565   */\n      mstore\n        /* \"#utility.yul\":32582:32713   */\n      tag_727\n        /* \"#utility.yul\":32708:32712   */\n      dup2\n        /* \"#utility.yul\":32582:32713   */\n      tag_417\n      jump\t// in\n    tag_727:\n        /* \"#utility.yul\":32574:32713   */\n      swap1\n      pop\n        /* \"#utility.yul\":32301:32720   */\n      swap2\n      swap1\n      pop\n      jump\t// out\n        /* \"#utility.yul\":32726:32899   */\n    tag_418:\n        /* \"#utility.yul\":32866:32891   */\n      0x6f7074696f6e496e6465782072656163686564206d6178000000000000000000\n        /* \"#utility.yul\":32862:32863   */\n      0x00\n        /* \"#utility.yul\":32854:32860   */\n      dup3\n        /* \"#utility.yul\":32850:32864   */\n      add\n        /* \"#utility.yul\":32843:32892   */\n      mstore\n        /* \"#utility.yul\":32726:32899   */\n      pop\n      jump\t// out\n        /* \"#utility.yul\":32905:33271   */\n    tag_419:\n        /* \"#utility.yul\":33047:33050   */\n      0x00\n        /* \"#utility.yul\":33068:33135   */\n      tag_730\n        /* \"#utility.yul\":33132:33134   */\n      0x17\n        /* \"#utility.yul\":33127:33130   */\n      dup4\n        /* \"#utility.yul\":33068:33135   */\n      tag_371\n      jump\t// in\n    tag_730:\n        /* \"#utility.yul\":33061:33135   */\n      swap2\n      pop\n        /* \"#utility.yul\":33144:33237   */\n      tag_731\n        /* \"#utility.yul\":33233:33236   */\n      dup3\n        /* \"#utility.yul\":33144:33237   */\n      tag_418\n      jump\t// in\n    tag_731:\n        /* \"#utility.yul\":33262:33264   */\n      0x20\n        /* \"#utility.yul\":33257:33260   */\n      dup3\n        /* \"#utility.yul\":33253:33265   */\n      add\n        /* \"#utility.yul\":33246:33265   */\n      swap1\n      pop\n        /* \"#utility.yul\":32905:33271   */\n      swap2\n      swap1\n      pop\n      jump\t// out\n        /* \"#utility.yul\":33277:33696   */\n    tag_232:\n        /* \"#utility.yul\":33443:33447   */\n      0x00\n        /* \"#utility.yul\":33481:33483   */\n      0x20\n        /* \"#utility.yul\":33470:33479   */\n      dup3\n        /* \"#utility.yul\":33466:33484   */\n      add\n        /* \"#utility.yul\":33458:33484   */\n      swap1\n      pop\n        /* \"#utility.yul\":33530:33539   */\n      dup2\n        /* \"#utility.yul\":33524:33528   */\n      dup2\n        /* \"#utility.yul\":33520:33540   */\n      sub\n        /* \"#utility.yul\":33516:33517   */\n      0x00\n        /* \"#utility.yul\":33505:33514   */\n      dup4\n        /* \"#utility.yul\":33501:33518   */\n      add\n        /* \"#utility.yul\":33494:33541   */\n      mstore\n        /* \"#utility.yul\":33558:33689   */\n      tag_733\n        /* \"#utility.yul\":33684:33688   */\n      dup2\n        /* \"#utility.yul\":33558:33689   */\n      tag_419\n      jump\t// in\n    tag_733:\n        /* \"#utility.yul\":33550:33689   */\n      swap1\n      pop\n        /* \"#utility.yul\":33277:33696   */\n      swap2\n      swap1\n      pop\n      jump\t// out\n        /* \"#utility.yul\":33702:33935   */\n    tag_243:\n        /* \"#utility.yul\":33741:33744   */\n      0x00\n        /* \"#utility.yul\":33764:33788   */\n      tag_735\n        /* \"#utility.yul\":33782:33787   */\n      dup3\n        /* \"#utility.yul\":33764:33788   */\n      tag_330\n      jump\t// in\n    tag_735:\n        /* \"#utility.yul\":33755:33788   */\n      swap2\n      pop\n        /* \"#utility.yul\":33810:33876   */\n      0xffffffffffffffffffffffffffffffffffffffffffffffffffffffffffffffff\n        /* \"#utility.yul\":33803:33808   */\n      dup3\n        /* \"#utility.yul\":33800:33877   */\n      sub\n        /* \"#utility.yul\":33797:33900   */\n      tag_736\n      jumpi\n        /* \"#utility.yul\":33880:33898   */\n      tag_737\n      tag_381\n      jump\t// in\n    tag_737:\n        /* \"#utility.yul\":33797:33900   */\n    tag_736:\n        /* \"#utility.yul\":33927:33928   */\n      0x01\n        /* \"#utility.yul\":33920:33925   */\n      dup3\n        /* \"#utility.yul\":33916:33929   */\n      add\n        /* \"#utility.yul\":33909:33929   */\n      swap1\n      pop\n        /* \"#utility.yul\":33702:33935   */\n      swap2\n      swap1\n      pop\n      jump\t// out\n\n    auxdata: 0xa2646970667358221220c88d6a3ef31ae8cc4deb47cb3dd0c6f8cfd49afc1be25db4d20f538a149495d464736f6c634300081a0033\n}\n",
				"bytecode": {
					"linkReferences": {},
					"object": "6080604052348015600e575f80fd5b506126b58061001c5f395ff3fe608060405234801561000f575f80fd5b50600436106100cd575f3560e01c806378e6b2921161008a5780638da5cb5b116100645780638da5cb5b1461020e5780639fe140b11461022c578063b384abef1461024a578063f2fde38b14610266576100cd565b806378e6b292146101b75780638129fc1c146101d357806386e68b90146101dd576100cd565b80630a277d6d146100d15780630c4960dd14610101578063256a7f6b1461011d5780633358d9d91461014d578063425458251461017d578063715018a6146101ad575b5f80fd5b6100eb60048036038101906100e69190611632565b610282565b6040516100f89190611714565b60405180910390f35b61011b60048036038101906101169190611987565b610378565b005b61013760048036038101906101329190611632565b610507565b6040516101449190611b2a565b60405180910390f35b61016760048036038101906101629190611632565b610680565b6040516101749190611b59565b60405180910390f35b61019760048036038101906101929190611bcc565b61070f565b6040516101a49190611b59565b60405180910390f35b6101b561086e565b005b6101d160048036038101906101cc9190611c0a565b610881565b005b6101db6109b8565b005b6101f760048036038101906101f29190611632565b610b40565b604051610205929190611c90565b60405180910390f35b610216610c00565b6040516102239190611ccd565b60405180910390f35b610234610c35565b6040516102419190611cf5565b60405180910390f35b610264600480360381019061025f9190611d0e565b610c40565b005b610280600480360381019061027b9190611d4c565b61107a565b005b60605f821015801561029757505f8054905082105b80156102c357507fffffffffffffffffffffffffffffffffffffffffffffffffffffffffffffffff8211155b610302576040517f08c379a00000000000000000000000000000000000000000000000000000000081526004016102f990611dc1565b60405180910390fd5b5f828154811061031557610314611ddf565b5b905f5260205f20906005020160020180548060200260200160405190810160405280929190818152602001828054801561036c57602002820191905f5260205f20905b815481526020019060010190808311610358575b50505050509050919050565b6103806110fe565b5f8351036103c3576040517f08c379a00000000000000000000000000000000000000000000000000000000081526004016103ba90611e56565b60405180910390fd5b600282511015610408576040517f08c379a00000000000000000000000000000000000000000000000000000000081526004016103ff90611ebe565b60405180910390fd5b5f60018160018154018082558091505003905f5260205f209050505f8060015f805490506104369190611f09565b8154811061044757610446611ddf565b5b905f5260205f20906005020190505f835167ffffffffffffffff8111156104715761047061174c565b5b60405190808252806020026020018201604052801561049f5781602001602082028036833780820191505090505b50905084825f0190816104b29190612136565b50838260010190805190602001906104cb9291906114d1565b50808260020190805190602001906104e4929190611528565b5082826003015f6101000a81548160ff0219169083151502179055505050505050565b60605f821015801561051c57505f8054905082105b801561054857507fffffffffffffffffffffffffffffffffffffffffffffffffffffffffffffffff8211155b610587576040517f08c379a000000000000000000000000000000000000000000000000000000000815260040161057e90611dc1565b60405180910390fd5b5f80838154811061059b5761059a611ddf565b5b905f5260205f209060050201600101805480602002602001604051908101604052809291908181526020015f905b82821015610671578382905f5260205f200180546105e690611f69565b80601f016020809104026020016040519081016040528092919081815260200182805461061290611f69565b801561065d5780601f106106345761010080835404028352916020019161065d565b820191905f5260205f20905b81548152906001019060200180831161064057829003601f168201915b5050505050815260200190600101906105c9565b50505050905080915050919050565b5f8082101580156106b157507fffffffffffffffffffffffffffffffffffffffffffffffffffffffffffffffff8211155b80156106c057505f8054905082105b6106ff576040517f08c379a00000000000000000000000000000000000000000000000000000000081526004016106f69061224f565b60405180910390fd5b610709338361070f565b50919050565b5f8073ffffffffffffffffffffffffffffffffffffffff168373ffffffffffffffffffffffffffffffffffffffff160361077e576040517f08c379a0000000000000000000000000000000000000000000000000000000008152600401610775906122b7565b60405180910390fd5b5f821015801561079157505f8054905082105b80156107bd57507fffffffffffffffffffffffffffffffffffffffffffffffffffffffffffffffff8211155b6107fc576040517f08c379a00000000000000000000000000000000000000000000000000000000081526004016107f39061231f565b60405180910390fd5b5f828154811061080f5761080e611ddf565b5b905f5260205f2090600502016004015f8473ffffffffffffffffffffffffffffffffffffffff1673ffffffffffffffffffffffffffffffffffffffff1681526020019081526020015f205f9054906101000a900460ff16905092915050565b6108766110fe565b61087f5f611185565b565b6108896110fe565b5f821015801561089c57505f8054905082105b80156108c857507fffffffffffffffffffffffffffffffffffffffffffffffffffffffffffffffff8211155b610907576040517f08c379a00000000000000000000000000000000000000000000000000000000081526004016108fe90611dc1565b60405180910390fd5b8015155f838154811061091d5761091c611ddf565b5b905f5260205f2090600502016003015f9054906101000a900460ff1615150361097b576040517f08c379a0000000000000000000000000000000000000000000000000000000008152600401610972906123ad565b60405180910390fd5b805f838154811061098f5761098e611ddf565b5b905f5260205f2090600502016003015f6101000a81548160ff0219169083151502179055505050565b5f6109c1611256565b90505f815f0160089054906101000a900460ff161590505f825f015f9054906101000a900467ffffffffffffffff1690505f808267ffffffffffffffff16148015610a095750825b90505f60018367ffffffffffffffff16148015610a3c57505f3073ffffffffffffffffffffffffffffffffffffffff163b145b905081158015610a4a575080155b15610a81576040517ff92ee8a900000000000000000000000000000000000000000000000000000000815260040160405180910390fd5b6001855f015f6101000a81548167ffffffffffffffff021916908367ffffffffffffffff1602179055508315610ace576001855f0160086101000a81548160ff0219169083151502179055505b610ad733611269565b610adf61127d565b8315610b39575f855f0160086101000a81548160ff0219169083151502179055507fc7f505b2f371ae2175ee4913f4499e1f2633a7b5936321eed1cdaeb6115181d26001604051610b309190612417565b60405180910390a15b5050505050565b5f8181548110610b4e575f80fd5b905f5260205f2090600502015f91509050805f018054610b6d90611f69565b80601f0160208091040260200160405190810160405280929190818152602001828054610b9990611f69565b8015610be45780601f10610bbb57610100808354040283529160200191610be4565b820191905f5260205f20905b815481529060010190602001808311610bc757829003601f168201915b505050505090806003015f9054906101000a900460ff16905082565b5f80610c0a611287565b9050805f015f9054906101000a900473ffffffffffffffffffffffffffffffffffffffff1691505090565b5f8080549050905090565b610c486112ae565b5f73ffffffffffffffffffffffffffffffffffffffff163373ffffffffffffffffffffffffffffffffffffffff1603610cb6576040517f08c379a0000000000000000000000000000000000000000000000000000000008152600401610cad9061247a565b60405180910390fd5b5f8210158015610ce657507fffffffffffffffffffffffffffffffffffffffffffffffffffffffffffffffff8211155b8015610cf557505f8054905082105b610d34576040517f08c379a0000000000000000000000000000000000000000000000000000000008152600401610d2b9061224f565b60405180910390fd5b5f8281548110610d4757610d46611ddf565b5b905f5260205f2090600502016003015f9054906101000a900460ff16610da2576040517f08c379a0000000000000000000000000000000000000000000000000000000008152600401610d99906124e2565b60405180910390fd5b5f8110158015610dd657505f8281548110610dc057610dbf611ddf565b5b905f5260205f2090600502016001018054905081105b610e15576040517f08c379a0000000000000000000000000000000000000000000000000000000008152600401610e0c9061254a565b60405180910390fd5b5f15155f8381548110610e2b57610e2a611ddf565b5b905f5260205f2090600502016004015f3373ffffffffffffffffffffffffffffffffffffffff1673ffffffffffffffffffffffffffffffffffffffff1681526020019081526020015f205f9054906101000a900460ff16151514610ec4576040517f08c379a0000000000000000000000000000000000000000000000000000000008152600401610ebb906125b2565b60405180910390fd5b7fffffffffffffffffffffffffffffffffffffffffffffffffffffffffffffffff5f8381548110610ef857610ef7611ddf565b5b905f5260205f2090600502016002018281548110610f1957610f18611ddf565b5b905f5260205f2001541115610f63576040517f08c379a0000000000000000000000000000000000000000000000000000000008152600401610f5a9061261a565b60405180910390fd5b60015f8381548110610f7857610f77611ddf565b5b905f5260205f2090600502016004015f3373ffffffffffffffffffffffffffffffffffffffff1673ffffffffffffffffffffffffffffffffffffffff1681526020019081526020015f205f6101000a81548160ff0219169083151502179055505f8281548110610feb57610fea611ddf565b5b905f5260205f209060050201600201818154811061100c5761100b611ddf565b5b905f5260205f20015f81548092919061102490612638565b919050555080823373ffffffffffffffffffffffffffffffffffffffff167fea66f58e474bc09f580000e81f31b334d171db387d0c6098ba47bd897741679b60405160405180910390a461107661132d565b5050565b6110826110fe565b5f73ffffffffffffffffffffffffffffffffffffffff168173ffffffffffffffffffffffffffffffffffffffff16036110f2575f6040517f1e4fbdf70000000000000000000000000000000000000000000000000000000081526004016110e99190611ccd565b60405180910390fd5b6110fb81611185565b50565b61110661136c565b73ffffffffffffffffffffffffffffffffffffffff16611124610c00565b73ffffffffffffffffffffffffffffffffffffffff16146111835761114761136c565b6040517f118cdaa700000000000000000000000000000000000000000000000000000000815260040161117a9190611ccd565b60405180910390fd5b565b5f61118e611287565b90505f815f015f9054906101000a900473ffffffffffffffffffffffffffffffffffffffff16905082825f015f6101000a81548173ffffffffffffffffffffffffffffffffffffffff021916908373ffffffffffffffffffffffffffffffffffffffff1602179055508273ffffffffffffffffffffffffffffffffffffffff168173ffffffffffffffffffffffffffffffffffffffff167f8be0079c531659141344cd1fd0a4f28419497f9722a3daafe3b4186f6b6457e060405160405180910390a3505050565b5f80611260611373565b90508091505090565b61127161139c565b61127a816113dc565b50565b61128561139c565b565b5f7f9016d09d72d40fdae2fd8ceac6b6234c7706214fd39c1cd1e609a0528c199300905090565b6112b6611460565b156112ed576040517f3ee5aeb500000000000000000000000000000000000000000000000000000000815260040160405180910390fd5b61132b600161131d7f9b779b17422d0df92223018b32b4d1fa46e071723d6817e2486d003becc55f005f1b611499565b6114a290919063ffffffff16565b565b61136a5f61135c7f9b779b17422d0df92223018b32b4d1fa46e071723d6817e2486d003becc55f005f1b611499565b6114a290919063ffffffff16565b565b5f33905090565b5f7ff0c57e16840df040f15088dc2f81fe391c3923bec73e23a9662efc9c229c6a005f1b905090565b6113a46114a9565b6113da576040517fd7e6bcf800000000000000000000000000000000000000000000000000000000815260040160405180910390fd5b565b6113e461139c565b5f73ffffffffffffffffffffffffffffffffffffffff168173ffffffffffffffffffffffffffffffffffffffff1603611454575f6040517f1e4fbdf700000000000000000000000000000000000000000000000000000000815260040161144b9190611ccd565b60405180910390fd5b61145d81611185565b50565b5f61149461148f7f9b779b17422d0df92223018b32b4d1fa46e071723d6817e2486d003becc55f005f1b611499565b6114c7565b905090565b5f819050919050565b80825d5050565b5f6114b2611256565b5f0160089054906101000a900460ff16905090565b5f815c9050919050565b828054828255905f5260205f20908101928215611517579160200282015b828111156115165782518290816115069190612136565b50916020019190600101906114ef565b5b5090506115249190611573565b5090565b828054828255905f5260205f20908101928215611562579160200282015b82811115611561578251825591602001919060010190611546565b5b50905061156f9190611596565b5090565b5b80821115611592575f818161158991906115b1565b50600101611574565b5090565b5b808211156115ad575f815f905550600101611597565b5090565b5080546115bd90611f69565b5f825580601f106115ce57506115eb565b601f0160209004905f5260205f20908101906115ea9190611596565b5b50565b5f604051905090565b5f80fd5b5f80fd5b5f819050919050565b611611816115ff565b811461161b575f80fd5b50565b5f8135905061162c81611608565b92915050565b5f60208284031215611647576116466115f7565b5b5f6116548482850161161e565b91505092915050565b5f81519050919050565b5f82825260208201905092915050565b5f819050602082019050919050565b61168f816115ff565b82525050565b5f6116a08383611686565b60208301905092915050565b5f602082019050919050565b5f6116c28261165d565b6116cc8185611667565b93506116d783611677565b805f5b838110156117075781516116ee8882611695565b97506116f9836116ac565b9250506001810190506116da565b5085935050505092915050565b5f6020820190508181035f83015261172c81846116b8565b905092915050565b5f80fd5b5f80fd5b5f601f19601f8301169050919050565b7f4e487b71000000000000000000000000000000000000000000000000000000005f52604160045260245ffd5b6117828261173c565b810181811067ffffffffffffffff821117156117a1576117a061174c565b5b80604052505050565b5f6117b36115ee565b90506117bf8282611779565b919050565b5f67ffffffffffffffff8211156117de576117dd61174c565b5b6117e78261173c565b9050602081019050919050565b828183375f83830152505050565b5f61181461180f846117c4565b6117aa565b9050828152602081018484840111156118305761182f611738565b5b61183b8482856117f4565b509392505050565b5f82601f83011261185757611856611734565b5b8135611867848260208601611802565b91505092915050565b5f67ffffffffffffffff82111561188a5761188961174c565b5b602082029050602081019050919050565b5f80fd5b5f6118b16118ac84611870565b6117aa565b905080838252602082019050602084028301858111156118d4576118d361189b565b5b835b8181101561191b57803567ffffffffffffffff8111156118f9576118f8611734565b5b8086016119068982611843565b855260208501945050506020810190506118d6565b5050509392505050565b5f82601f83011261193957611938611734565b5b813561194984826020860161189f565b91505092915050565b5f8115159050919050565b61196681611952565b8114611970575f80fd5b50565b5f813590506119818161195d565b92915050565b5f805f6060848603121561199e5761199d6115f7565b5b5f84013567ffffffffffffffff8111156119bb576119ba6115fb565b5b6119c786828701611843565b935050602084013567ffffffffffffffff8111156119e8576119e76115fb565b5b6119f486828701611925565b9250506040611a0586828701611973565b9150509250925092565b5f81519050919050565b5f82825260208201905092915050565b5f819050602082019050919050565b5f81519050919050565b5f82825260208201905092915050565b8281835e5f83830152505050565b5f611a6a82611a38565b611a748185611a42565b9350611a84818560208601611a52565b611a8d8161173c565b840191505092915050565b5f611aa38383611a60565b905092915050565b5f602082019050919050565b5f611ac182611a0f565b611acb8185611a19565b935083602082028501611add85611a29565b805f5b85811015611b185784840389528151611af98582611a98565b9450611b0483611aab565b925060208a01995050600181019050611ae0565b50829750879550505050505092915050565b5f6020820190508181035f830152611b428184611ab7565b905092915050565b611b5381611952565b82525050565b5f602082019050611b6c5f830184611b4a565b92915050565b5f73ffffffffffffffffffffffffffffffffffffffff82169050919050565b5f611b9b82611b72565b9050919050565b611bab81611b91565b8114611bb5575f80fd5b50565b5f81359050611bc681611ba2565b92915050565b5f8060408385031215611be257611be16115f7565b5b5f611bef85828601611bb8565b9250506020611c008582860161161e565b9150509250929050565b5f8060408385031215611c2057611c1f6115f7565b5b5f611c2d8582860161161e565b9250506020611c3e85828601611973565b9150509250929050565b5f82825260208201905092915050565b5f611c6282611a38565b611c6c8185611c48565b9350611c7c818560208601611a52565b611c858161173c565b840191505092915050565b5f6040820190508181035f830152611ca88185611c58565b9050611cb76020830184611b4a565b9392505050565b611cc781611b91565b82525050565b5f602082019050611ce05f830184611cbe565b92915050565b611cef816115ff565b82525050565b5f602082019050611d085f830184611ce6565b92915050565b5f8060408385031215611d2457611d236115f7565b5b5f611d318582860161161e565b9250506020611d428582860161161e565b9150509250929050565b5f60208284031215611d6157611d606115f7565b5b5f611d6e84828501611bb8565b91505092915050565b7f696e76616c696420696e646578000000000000000000000000000000000000005f82015250565b5f611dab600d83611c48565b9150611db682611d77565b602082019050919050565b5f6020820190508181035f830152611dd881611d9f565b9050919050565b7f4e487b71000000000000000000000000000000000000000000000000000000005f52603260045260245ffd5b7f656d707479207175657374696f6e206973206e6f7420616c6c6f7765640000005f82015250565b5f611e40601d83611c48565b9150611e4b82611e0c565b602082019050919050565b5f6020820190508181035f830152611e6d81611e34565b9050919050565b7f4174206c656173742032206f7074696f6e7320617265207265717569726564005f82015250565b5f611ea8601f83611c48565b9150611eb382611e74565b602082019050919050565b5f6020820190508181035f830152611ed581611e9c565b9050919050565b7f4e487b71000000000000000000000000000000000000000000000000000000005f52601160045260245ffd5b5f611f13826115ff565b9150611f1e836115ff565b9250828203905081811115611f3657611f35611edc565b5b92915050565b7f4e487b71000000000000000000000000000000000000000000000000000000005f52602260045260245ffd5b5f6002820490506001821680611f8057607f821691505b602082108103611f9357611f92611f3c565b5b50919050565b5f819050815f5260205f209050919050565b5f6020601f8301049050919050565b5f82821b905092915050565b5f60088302611ff57fffffffffffffffffffffffffffffffffffffffffffffffffffffffffffffffff82611fba565b611fff8683611fba565b95508019841693508086168417925050509392505050565b5f819050919050565b5f61203a612035612030846115ff565b612017565b6115ff565b9050919050565b5f819050919050565b61205383612020565b61206761205f82612041565b848454611fc6565b825550505050565b5f90565b61207b61206f565b61208681848461204a565b505050565b5b818110156120a95761209e5f82612073565b60018101905061208c565b5050565b601f8211156120ee576120bf81611f99565b6120c884611fab565b810160208510156120d7578190505b6120eb6120e385611fab565b83018261208b565b50505b505050565b5f82821c905092915050565b5f61210e5f19846008026120f3565b1980831691505092915050565b5f61212683836120ff565b9150826002028217905092915050565b61213f82611a38565b67ffffffffffffffff8111156121585761215761174c565b5b6121628254611f69565b61216d8282856120ad565b5f60209050601f83116001811461219e575f841561218c578287015190505b612196858261211b565b8655506121fd565b601f1984166121ac86611f99565b5f5b828110156121d3578489015182556001820191506020850194506020810190506121ae565b868310156121f057848901516121ec601f8916826120ff565b8355505b6001600288020188555050505b505050505050565b7f696e76616c6964206964000000000000000000000000000000000000000000005f82015250565b5f612239600a83611c48565b915061224482612205565b602082019050919050565b5f6020820190508181035f8301526122668161222d565b9050919050565b7f696e76616c6964206164647265737300000000000000000000000000000000005f82015250565b5f6122a1600f83611c48565b91506122ac8261226d565b602082019050919050565b5f6020820190508181035f8301526122ce81612295565b9050919050565b7f696e76616c6964207375727665792049440000000000000000000000000000005f82015250565b5f612309601183611c48565b9150612314826122d5565b602082019050919050565b5f6020820190508181035f830152612336816122fd565b9050919050565b7f73757276657920697320616c726561647920696e2074686520646573697265645f8201527f2061637469766520737461746500000000000000000000000000000000000000602082015250565b5f612397602d83611c48565b91506123a28261233d565b604082019050919050565b5f6020820190508181035f8301526123c48161238b565b9050919050565b5f819050919050565b5f67ffffffffffffffff82169050919050565b5f6124016123fc6123f7846123cb565b612017565b6123d4565b9050919050565b612411816123e7565b82525050565b5f60208201905061242a5f830184612408565b92915050565b7f696e76616c6964207265717565737400000000000000000000000000000000005f82015250565b5f612464600f83611c48565b915061246f82612430565b602082019050919050565b5f6020820190508181035f83015261249181612458565b9050919050565b7f537572766579206973206e6f74206163746976650000000000000000000000005f82015250565b5f6124cc601483611c48565b91506124d782612498565b602082019050919050565b5f6020820190508181035f8301526124f9816124c0565b9050919050565b7f496e76616c6964206f7074696f6e20696e6465780000000000000000000000005f82015250565b5f612534601483611c48565b915061253f82612500565b602082019050919050565b5f6020820190508181035f83015261256181612528565b9050919050565b7f557365722068617320616c726561647920766f746564000000000000000000005f82015250565b5f61259c601683611c48565b91506125a782612568565b602082019050919050565b5f6020820190508181035f8301526125c981612590565b9050919050565b7f6f7074696f6e496e6465782072656163686564206d61780000000000000000005f82015250565b5f612604601783611c48565b915061260f826125d0565b602082019050919050565b5f6020820190508181035f830152612631816125f8565b9050919050565b5f612642826115ff565b91507fffffffffffffffffffffffffffffffffffffffffffffffffffffffffffffffff820361267457612673611edc565b5b60018201905091905056fea2646970667358221220c88d6a3ef31ae8cc4deb47cb3dd0c6f8cfd49afc1be25db4d20f538a149495d464736f6c634300081a0033",
					"opcodes": "PUSH1 0x80 PUSH1 0x40 MSTORE CALLVALUE DUP1 ISZERO PUSH1 0xE JUMPI PUSH0 DUP1 REVERT JUMPDEST POP PUSH2 0x26B5 DUP1 PUSH2 0x1C PUSH0 CODECOPY PUSH0 RETURN INVALID PUSH1 0x80 PUSH1 0x40 MSTORE CALLVALUE DUP1 ISZERO PUSH2 0xF JUMPI PUSH0 DUP1 REVERT JUMPDEST POP PUSH1 0x4 CALLDATASIZE LT PUSH2 0xCD JUMPI PUSH0 CALLDATALOAD PUSH1 0xE0 SHR DUP1 PUSH4 0x78E6B292 GT PUSH2 0x8A JUMPI DUP1 PUSH4 0x8DA5CB5B GT PUSH2 0x64 JUMPI DUP1 PUSH4 0x8DA5CB5B EQ PUSH2 0x20E JUMPI DUP1 PUSH4 0x9FE140B1 EQ PUSH2 0x22C JUMPI DUP1 PUSH4 0xB384ABEF EQ PUSH2 0x24A JUMPI DUP1 PUSH4 0xF2FDE38B EQ PUSH2 0x266 JUMPI PUSH2 0xCD JUMP JUMPDEST DUP1 PUSH4 0x78E6B292 EQ PUSH2 0x1B7 JUMPI DUP1 PUSH4 0x8129FC1C EQ PUSH2 0x1D3 JUMPI DUP1 PUSH4 0x86E68B90 EQ PUSH2 0x1DD JUMPI PUSH2 0xCD JUMP JUMPDEST DUP1 PUSH4 0xA277D6D EQ PUSH2 0xD1 JUMPI DUP1 PUSH4 0xC4960DD EQ PUSH2 0x101 JUMPI DUP1 PUSH4 0x256A7F6B EQ PUSH2 0x11D JUMPI DUP1 PUSH4 0x3358D9D9 EQ PUSH2 0x14D JUMPI DUP1 PUSH4 0x42545825 EQ PUSH2 0x17D JUMPI DUP1 PUSH4 0x715018A6 EQ PUSH2 0x1AD JUMPI JUMPDEST PUSH0 DUP1 REVERT JUMPDEST PUSH2 0xEB PUSH1 0x4 DUP1 CALLDATASIZE SUB DUP2 ADD SWAP1 PUSH2 0xE6 SWAP2 SWAP1 PUSH2 0x1632 JUMP JUMPDEST PUSH2 0x282 JUMP JUMPDEST PUSH1 0x40 MLOAD PUSH2 0xF8 SWAP2 SWAP1 PUSH2 0x1714 JUMP JUMPDEST PUSH1 0x40 MLOAD DUP1 SWAP2 SUB SWAP1 RETURN JUMPDEST PUSH2 0x11B PUSH1 0x4 DUP1 CALLDATASIZE SUB DUP2 ADD SWAP1 PUSH2 0x116 SWAP2 SWAP1 PUSH2 0x1987 JUMP JUMPDEST PUSH2 0x378 JUMP JUMPDEST STOP JUMPDEST PUSH2 0x137 PUSH1 0x4 DUP1 CALLDATASIZE SUB DUP2 ADD SWAP1 PUSH2 0x132 SWAP2 SWAP1 PUSH2 0x1632 JUMP JUMPDEST PUSH2 0x507 JUMP JUMPDEST PUSH1 0x40 MLOAD PUSH2 0x144 SWAP2 SWAP1 PUSH2 0x1B2A JUMP JUMPDEST PUSH1 0x40 MLOAD DUP1 SWAP2 SUB SWAP1 RETURN JUMPDEST PUSH2 0x167 PUSH1 0x4 DUP1 CALLDATASIZE SUB DUP2 ADD SWAP1 PUSH2 0x162 SWAP2 SWAP1 PUSH2 0x1632 JUMP JUMPDEST PUSH2 0x680 JUMP JUMPDEST PUSH1 0x40 MLOAD PUSH2 0x174 SWAP2 SWAP1 PUSH2 0x1B59 JUMP JUMPDEST PUSH1 0x40 MLOAD DUP1 SWAP2 SUB SWAP1 RETURN JUMPDEST PUSH2 0x197 PUSH1 0x4 DUP1 CALLDATASIZE SUB DUP2 ADD SWAP1 PUSH2 0x192 SWAP2 SWAP1 PUSH2 0x1BCC JUMP JUMPDEST PUSH2 0x70F JUMP JUMPDEST PUSH1 0x40 MLOAD PUSH2 0x1A4 SWAP2 SWAP1 PUSH2 0x1B59 JUMP JUMPDEST PUSH1 0x40 MLOAD DUP1 SWAP2 SUB SWAP1 RETURN JUMPDEST PUSH2 0x1B5 PUSH2 0x86E JUMP JUMPDEST STOP JUMPDEST PUSH2 0x1D1 PUSH1 0x4 DUP1 CALLDATASIZE SUB DUP2 ADD SWAP1 PUSH2 0x1CC SWAP2 SWAP1 PUSH2 0x1C0A JUMP JUMPDEST PUSH2 0x881 JUMP JUMPDEST STOP JUMPDEST PUSH2 0x1DB PUSH2 0x9B8 JUMP JUMPDEST STOP JUMPDEST PUSH2 0x1F7 PUSH1 0x4 DUP1 CALLDATASIZE SUB DUP2 ADD SWAP1 PUSH2 0x1F2 SWAP2 SWAP1 PUSH2 0x1632 JUMP JUMPDEST PUSH2 0xB40 JUMP JUMPDEST PUSH1 0x40 MLOAD PUSH2 0x205 SWAP3 SWAP2 SWAP1 PUSH2 0x1C90 JUMP JUMPDEST PUSH1 0x40 MLOAD DUP1 SWAP2 SUB SWAP1 RETURN JUMPDEST PUSH2 0x216 PUSH2 0xC00 JUMP JUMPDEST PUSH1 0x40 MLOAD PUSH2 0x223 SWAP2 SWAP1 PUSH2 0x1CCD JUMP JUMPDEST PUSH1 0x40 MLOAD DUP1 SWAP2 SUB SWAP1 RETURN JUMPDEST PUSH2 0x234 PUSH2 0xC35 JUMP JUMPDEST PUSH1 0x40 MLOAD PUSH2 0x241 SWAP2 SWAP1 PUSH2 0x1CF5 JUMP JUMPDEST PUSH1 0x40 MLOAD DUP1 SWAP2 SUB SWAP1 RETURN JUMPDEST PUSH2 0x264 PUSH1 0x4 DUP1 CALLDATASIZE SUB DUP2 ADD SWAP1 PUSH2 0x25F SWAP2 SWAP1 PUSH2 0x1D0E JUMP JUMPDEST PUSH2 0xC40 JUMP JUMPDEST STOP JUMPDEST PUSH2 0x280 PUSH1 0x4 DUP1 CALLDATASIZE SUB DUP2 ADD SWAP1 PUSH2 0x27B SWAP2 SWAP1 PUSH2 0x1D4C JUMP JUMPDEST PUSH2 0x107A JUMP JUMPDEST STOP JUMPDEST PUSH1 0x60 PUSH0 DUP3 LT ISZERO DUP1 ISZERO PUSH2 0x297 JUMPI POP PUSH0 DUP1 SLOAD SWAP1 POP DUP3 LT JUMPDEST DUP1 ISZERO PUSH2 0x2C3 JUMPI POP PUSH32 0xFFFFFFFFFFFFFFFFFFFFFFFFFFFFFFFFFFFFFFFFFFFFFFFFFFFFFFFFFFFFFFFF DUP3 GT ISZERO JUMPDEST PUSH2 0x302 JUMPI PUSH1 0x40 MLOAD PUSH32 0x8C379A000000000000000000000000000000000000000000000000000000000 DUP2 MSTORE PUSH1 0x4 ADD PUSH2 0x2F9 SWAP1 PUSH2 0x1DC1 JUMP JUMPDEST PUSH1 0x40 MLOAD DUP1 SWAP2 SUB SWAP1 REVERT JUMPDEST PUSH0 DUP3 DUP2 SLOAD DUP2 LT PUSH2 0x315 JUMPI PUSH2 0x314 PUSH2 0x1DDF JUMP JUMPDEST JUMPDEST SWAP1 PUSH0 MSTORE PUSH1 0x20 PUSH0 KECCAK256 SWAP1 PUSH1 0x5 MUL ADD PUSH1 0x2 ADD DUP1 SLOAD DUP1 PUSH1 0x20 MUL PUSH1 0x20 ADD PUSH1 0x40 MLOAD SWAP1 DUP2 ADD PUSH1 0x40 MSTORE DUP1 SWAP3 SWAP2 SWAP1 DUP2 DUP2 MSTORE PUSH1 0x20 ADD DUP3 DUP1 SLOAD DUP1 ISZERO PUSH2 0x36C JUMPI PUSH1 0x20 MUL DUP3 ADD SWAP2 SWAP1 PUSH0 MSTORE PUSH1 0x20 PUSH0 KECCAK256 SWAP1 JUMPDEST DUP2 SLOAD DUP2 MSTORE PUSH1 0x20 ADD SWAP1 PUSH1 0x1 ADD SWAP1 DUP1 DUP4 GT PUSH2 0x358 JUMPI JUMPDEST POP POP POP POP POP SWAP1 POP SWAP2 SWAP1 POP JUMP JUMPDEST PUSH2 0x380 PUSH2 0x10FE JUMP JUMPDEST PUSH0 DUP4 MLOAD SUB PUSH2 0x3C3 JUMPI PUSH1 0x40 MLOAD PUSH32 0x8C379A000000000000000000000000000000000000000000000000000000000 DUP2 MSTORE PUSH1 0x4 ADD PUSH2 0x3BA SWAP1 PUSH2 0x1E56 JUMP JUMPDEST PUSH1 0x40 MLOAD DUP1 SWAP2 SUB SWAP1 REVERT JUMPDEST PUSH1 0x2 DUP3 MLOAD LT ISZERO PUSH2 0x408 JUMPI PUSH1 0x40 MLOAD PUSH32 0x8C379A000000000000000000000000000000000000000000000000000000000 DUP2 MSTORE PUSH1 0x4 ADD PUSH2 0x3FF SWAP1 PUSH2 0x1EBE JUMP JUMPDEST PUSH1 0x40 MLOAD DUP1 SWAP2 SUB SWAP1 REVERT JUMPDEST PUSH0 PUSH1 0x1 DUP2 PUSH1 0x1 DUP2 SLOAD ADD DUP1 DUP3 SSTORE DUP1 SWAP2 POP POP SUB SWAP1 PUSH0 MSTORE PUSH1 0x20 PUSH0 KECCAK256 SWAP1 POP POP PUSH0 DUP1 PUSH1 0x1 PUSH0 DUP1 SLOAD SWAP1 POP PUSH2 0x436 SWAP2 SWAP1 PUSH2 0x1F09 JUMP JUMPDEST DUP2 SLOAD DUP2 LT PUSH2 0x447 JUMPI PUSH2 0x446 PUSH2 0x1DDF JUMP JUMPDEST JUMPDEST SWAP1 PUSH0 MSTORE PUSH1 0x20 PUSH0 KECCAK256 SWAP1 PUSH1 0x5 MUL ADD SWAP1 POP PUSH0 DUP4 MLOAD PUSH8 0xFFFFFFFFFFFFFFFF DUP2 GT ISZERO PUSH2 0x471 JUMPI PUSH2 0x470 PUSH2 0x174C JUMP JUMPDEST JUMPDEST PUSH1 0x40 MLOAD SWAP1 DUP1 DUP3 MSTORE DUP1 PUSH1 0x20 MUL PUSH1 0x20 ADD DUP3 ADD PUSH1 0x40 MSTORE DUP1 ISZERO PUSH2 0x49F JUMPI DUP2 PUSH1 0x20 ADD PUSH1 0x20 DUP3 MUL DUP1 CALLDATASIZE DUP4 CALLDATACOPY DUP1 DUP3 ADD SWAP2 POP POP SWAP1 POP JUMPDEST POP SWAP1 POP DUP5 DUP3 PUSH0 ADD SWAP1 DUP2 PUSH2 0x4B2 SWAP2 SWAP1 PUSH2 0x2136 JUMP JUMPDEST POP DUP4 DUP3 PUSH1 0x1 ADD SWAP1 DUP1 MLOAD SWAP1 PUSH1 0x20 ADD SWAP1 PUSH2 0x4CB SWAP3 SWAP2 SWAP1 PUSH2 0x14D1 JUMP JUMPDEST POP DUP1 DUP3 PUSH1 0x2 ADD SWAP1 DUP1 MLOAD SWAP1 PUSH1 0x20 ADD SWAP1 PUSH2 0x4E4 SWAP3 SWAP2 SWAP1 PUSH2 0x1528 JUMP JUMPDEST POP DUP3 DUP3 PUSH1 0x3 ADD PUSH0 PUSH2 0x100 EXP DUP2 SLOAD DUP2 PUSH1 0xFF MUL NOT AND SWAP1 DUP4 ISZERO ISZERO MUL OR SWAP1 SSTORE POP POP POP POP POP POP JUMP JUMPDEST PUSH1 0x60 PUSH0 DUP3 LT ISZERO DUP1 ISZERO PUSH2 0x51C JUMPI POP PUSH0 DUP1 SLOAD SWAP1 POP DUP3 LT JUMPDEST DUP1 ISZERO PUSH2 0x548 JUMPI POP PUSH32 0xFFFFFFFFFFFFFFFFFFFFFFFFFFFFFFFFFFFFFFFFFFFFFFFFFFFFFFFFFFFFFFFF DUP3 GT ISZERO JUMPDEST PUSH2 0x587 JUMPI PUSH1 0x40 MLOAD PUSH32 0x8C379A000000000000000000000000000000000000000000000000000000000 DUP2 MSTORE PUSH1 0x4 ADD PUSH2 0x57E SWAP1 PUSH2 0x1DC1 JUMP JUMPDEST PUSH1 0x40 MLOAD DUP1 SWAP2 SUB SWAP1 REVERT JUMPDEST PUSH0 DUP1 DUP4 DUP2 SLOAD DUP2 LT PUSH2 0x59B JUMPI PUSH2 0x59A PUSH2 0x1DDF JUMP JUMPDEST JUMPDEST SWAP1 PUSH0 MSTORE PUSH1 0x20 PUSH0 KECCAK256 SWAP1 PUSH1 0x5 MUL ADD PUSH1 0x1 ADD DUP1 SLOAD DUP1 PUSH1 0x20 MUL PUSH1 0x20 ADD PUSH1 0x40 MLOAD SWAP1 DUP2 ADD PUSH1 0x40 MSTORE DUP1 SWAP3 SWAP2 SWAP1 DUP2 DUP2 MSTORE PUSH1 0x20 ADD PUSH0 SWAP1 JUMPDEST DUP3 DUP3 LT ISZERO PUSH2 0x671 JUMPI DUP4 DUP3 SWAP1 PUSH0 MSTORE PUSH1 0x20 PUSH0 KECCAK256 ADD DUP1 SLOAD PUSH2 0x5E6 SWAP1 PUSH2 0x1F69 JUMP JUMPDEST DUP1 PUSH1 0x1F ADD PUSH1 0x20 DUP1 SWAP2 DIV MUL PUSH1 0x20 ADD PUSH1 0x40 MLOAD SWAP1 DUP2 ADD PUSH1 0x40 MSTORE DUP1 SWAP3 SWAP2 SWAP1 DUP2 DUP2 MSTORE PUSH1 0x20 ADD DUP3 DUP1 SLOAD PUSH2 0x612 SWAP1 PUSH2 0x1F69 JUMP JUMPDEST DUP1 ISZERO PUSH2 0x65D JUMPI DUP1 PUSH1 0x1F LT PUSH2 0x634 JUMPI PUSH2 0x100 DUP1 DUP4 SLOAD DIV MUL DUP4 MSTORE SWAP2 PUSH1 0x20 ADD SWAP2 PUSH2 0x65D JUMP JUMPDEST DUP3 ADD SWAP2 SWAP1 PUSH0 MSTORE PUSH1 0x20 PUSH0 KECCAK256 SWAP1 JUMPDEST DUP2 SLOAD DUP2 MSTORE SWAP1 PUSH1 0x1 ADD SWAP1 PUSH1 0x20 ADD DUP1 DUP4 GT PUSH2 0x640 JUMPI DUP3 SWAP1 SUB PUSH1 0x1F AND DUP3 ADD SWAP2 JUMPDEST POP POP POP POP POP DUP2 MSTORE PUSH1 0x20 ADD SWAP1 PUSH1 0x1 ADD SWAP1 PUSH2 0x5C9 JUMP JUMPDEST POP POP POP POP SWAP1 POP DUP1 SWAP2 POP POP SWAP2 SWAP1 POP JUMP JUMPDEST PUSH0 DUP1 DUP3 LT ISZERO DUP1 ISZERO PUSH2 0x6B1 JUMPI POP PUSH32 0xFFFFFFFFFFFFFFFFFFFFFFFFFFFFFFFFFFFFFFFFFFFFFFFFFFFFFFFFFFFFFFFF DUP3 GT ISZERO JUMPDEST DUP1 ISZERO PUSH2 0x6C0 JUMPI POP PUSH0 DUP1 SLOAD SWAP1 POP DUP3 LT JUMPDEST PUSH2 0x6FF JUMPI PUSH1 0x40 MLOAD PUSH32 0x8C379A000000000000000000000000000000000000000000000000000000000 DUP2 MSTORE PUSH1 0x4 ADD PUSH2 0x6F6 SWAP1 PUSH2 0x224F JUMP JUMPDEST PUSH1 0x40 MLOAD DUP1 SWAP2 SUB SWAP1 REVERT JUMPDEST PUSH2 0x709 CALLER DUP4 PUSH2 0x70F JUMP JUMPDEST POP SWAP2 SWAP1 POP JUMP JUMPDEST PUSH0 DUP1 PUSH20 0xFFFFFFFFFFFFFFFFFFFFFFFFFFFFFFFFFFFFFFFF AND DUP4 PUSH20 0xFFFFFFFFFFFFFFFFFFFFFFFFFFFFFFFFFFFFFFFF AND SUB PUSH2 0x77E JUMPI PUSH1 0x40 MLOAD PUSH32 0x8C379A000000000000000000000000000000000000000000000000000000000 DUP2 MSTORE PUSH1 0x4 ADD PUSH2 0x775 SWAP1 PUSH2 0x22B7 JUMP JUMPDEST PUSH1 0x40 MLOAD DUP1 SWAP2 SUB SWAP1 REVERT JUMPDEST PUSH0 DUP3 LT ISZERO DUP1 ISZERO PUSH2 0x791 JUMPI POP PUSH0 DUP1 SLOAD SWAP1 POP DUP3 LT JUMPDEST DUP1 ISZERO PUSH2 0x7BD JUMPI POP PUSH32 0xFFFFFFFFFFFFFFFFFFFFFFFFFFFFFFFFFFFFFFFFFFFFFFFFFFFFFFFFFFFFFFFF DUP3 GT ISZERO JUMPDEST PUSH2 0x7FC JUMPI PUSH1 0x40 MLOAD PUSH32 0x8C379A000000000000000000000000000000000000000000000000000000000 DUP2 MSTORE PUSH1 0x4 ADD PUSH2 0x7F3 SWAP1 PUSH2 0x231F JUMP JUMPDEST PUSH1 0x40 MLOAD DUP1 SWAP2 SUB SWAP1 REVERT JUMPDEST PUSH0 DUP3 DUP2 SLOAD DUP2 LT PUSH2 0x80F JUMPI PUSH2 0x80E PUSH2 0x1DDF JUMP JUMPDEST JUMPDEST SWAP1 PUSH0 MSTORE PUSH1 0x20 PUSH0 KECCAK256 SWAP1 PUSH1 0x5 MUL ADD PUSH1 0x4 ADD PUSH0 DUP5 PUSH20 0xFFFFFFFFFFFFFFFFFFFFFFFFFFFFFFFFFFFFFFFF AND PUSH20 0xFFFFFFFFFFFFFFFFFFFFFFFFFFFFFFFFFFFFFFFF AND DUP2 MSTORE PUSH1 0x20 ADD SWAP1 DUP2 MSTORE PUSH1 0x20 ADD PUSH0 KECCAK256 PUSH0 SWAP1 SLOAD SWAP1 PUSH2 0x100 EXP SWAP1 DIV PUSH1 0xFF AND SWAP1 POP SWAP3 SWAP2 POP POP JUMP JUMPDEST PUSH2 0x876 PUSH2 0x10FE JUMP JUMPDEST PUSH2 0x87F PUSH0 PUSH2 0x1185 JUMP JUMPDEST JUMP JUMPDEST PUSH2 0x889 PUSH2 0x10FE JUMP JUMPDEST PUSH0 DUP3 LT ISZERO DUP1 ISZERO PUSH2 0x89C JUMPI POP PUSH0 DUP1 SLOAD SWAP1 POP DUP3 LT JUMPDEST DUP1 ISZERO PUSH2 0x8C8 JUMPI POP PUSH32 0xFFFFFFFFFFFFFFFFFFFFFFFFFFFFFFFFFFFFFFFFFFFFFFFFFFFFFFFFFFFFFFFF DUP3 GT ISZERO JUMPDEST PUSH2 0x907 JUMPI PUSH1 0x40 MLOAD PUSH32 0x8C379A000000000000000000000000000000000000000000000000000000000 DUP2 MSTORE PUSH1 0x4 ADD PUSH2 0x8FE SWAP1 PUSH2 0x1DC1 JUMP JUMPDEST PUSH1 0x40 MLOAD DUP1 SWAP2 SUB SWAP1 REVERT JUMPDEST DUP1 ISZERO ISZERO PUSH0 DUP4 DUP2 SLOAD DUP2 LT PUSH2 0x91D JUMPI PUSH2 0x91C PUSH2 0x1DDF JUMP JUMPDEST JUMPDEST SWAP1 PUSH0 MSTORE PUSH1 0x20 PUSH0 KECCAK256 SWAP1 PUSH1 0x5 MUL ADD PUSH1 0x3 ADD PUSH0 SWAP1 SLOAD SWAP1 PUSH2 0x100 EXP SWAP1 DIV PUSH1 0xFF AND ISZERO ISZERO SUB PUSH2 0x97B JUMPI PUSH1 0x40 MLOAD PUSH32 0x8C379A000000000000000000000000000000000000000000000000000000000 DUP2 MSTORE PUSH1 0x4 ADD PUSH2 0x972 SWAP1 PUSH2 0x23AD JUMP JUMPDEST PUSH1 0x40 MLOAD DUP1 SWAP2 SUB SWAP1 REVERT JUMPDEST DUP1 PUSH0 DUP4 DUP2 SLOAD DUP2 LT PUSH2 0x98F JUMPI PUSH2 0x98E PUSH2 0x1DDF JUMP JUMPDEST JUMPDEST SWAP1 PUSH0 MSTORE PUSH1 0x20 PUSH0 KECCAK256 SWAP1 PUSH1 0x5 MUL ADD PUSH1 0x3 ADD PUSH0 PUSH2 0x100 EXP DUP2 SLOAD DUP2 PUSH1 0xFF MUL NOT AND SWAP1 DUP4 ISZERO ISZERO MUL OR SWAP1 SSTORE POP POP POP JUMP JUMPDEST PUSH0 PUSH2 0x9C1 PUSH2 0x1256 JUMP JUMPDEST SWAP1 POP PUSH0 DUP2 PUSH0 ADD PUSH1 0x8 SWAP1 SLOAD SWAP1 PUSH2 0x100 EXP SWAP1 DIV PUSH1 0xFF AND ISZERO SWAP1 POP PUSH0 DUP3 PUSH0 ADD PUSH0 SWAP1 SLOAD SWAP1 PUSH2 0x100 EXP SWAP1 DIV PUSH8 0xFFFFFFFFFFFFFFFF AND SWAP1 POP PUSH0 DUP1 DUP3 PUSH8 0xFFFFFFFFFFFFFFFF AND EQ DUP1 ISZERO PUSH2 0xA09 JUMPI POP DUP3 JUMPDEST SWAP1 POP PUSH0 PUSH1 0x1 DUP4 PUSH8 0xFFFFFFFFFFFFFFFF AND EQ DUP1 ISZERO PUSH2 0xA3C JUMPI POP PUSH0 ADDRESS PUSH20 0xFFFFFFFFFFFFFFFFFFFFFFFFFFFFFFFFFFFFFFFF AND EXTCODESIZE EQ JUMPDEST SWAP1 POP DUP2 ISZERO DUP1 ISZERO PUSH2 0xA4A JUMPI POP DUP1 ISZERO JUMPDEST ISZERO PUSH2 0xA81 JUMPI PUSH1 0x40 MLOAD PUSH32 0xF92EE8A900000000000000000000000000000000000000000000000000000000 DUP2 MSTORE PUSH1 0x4 ADD PUSH1 0x40 MLOAD DUP1 SWAP2 SUB SWAP1 REVERT JUMPDEST PUSH1 0x1 DUP6 PUSH0 ADD PUSH0 PUSH2 0x100 EXP DUP2 SLOAD DUP2 PUSH8 0xFFFFFFFFFFFFFFFF MUL NOT AND SWAP1 DUP4 PUSH8 0xFFFFFFFFFFFFFFFF AND MUL OR SWAP1 SSTORE POP DUP4 ISZERO PUSH2 0xACE JUMPI PUSH1 0x1 DUP6 PUSH0 ADD PUSH1 0x8 PUSH2 0x100 EXP DUP2 SLOAD DUP2 PUSH1 0xFF MUL NOT AND SWAP1 DUP4 ISZERO ISZERO MUL OR SWAP1 SSTORE POP JUMPDEST PUSH2 0xAD7 CALLER PUSH2 0x1269 JUMP JUMPDEST PUSH2 0xADF PUSH2 0x127D JUMP JUMPDEST DUP4 ISZERO PUSH2 0xB39 JUMPI PUSH0 DUP6 PUSH0 ADD PUSH1 0x8 PUSH2 0x100 EXP DUP2 SLOAD DUP2 PUSH1 0xFF MUL NOT AND SWAP1 DUP4 ISZERO ISZERO MUL OR SWAP1 SSTORE POP PUSH32 0xC7F505B2F371AE2175EE4913F4499E1F2633A7B5936321EED1CDAEB6115181D2 PUSH1 0x1 PUSH1 0x40 MLOAD PUSH2 0xB30 SWAP2 SWAP1 PUSH2 0x2417 JUMP JUMPDEST PUSH1 0x40 MLOAD DUP1 SWAP2 SUB SWAP1 LOG1 JUMPDEST POP POP POP POP POP JUMP JUMPDEST PUSH0 DUP2 DUP2 SLOAD DUP2 LT PUSH2 0xB4E JUMPI PUSH0 DUP1 REVERT JUMPDEST SWAP1 PUSH0 MSTORE PUSH1 0x20 PUSH0 KECCAK256 SWAP1 PUSH1 0x5 MUL ADD PUSH0 SWAP2 POP SWAP1 POP DUP1 PUSH0 ADD DUP1 SLOAD PUSH2 0xB6D SWAP1 PUSH2 0x1F69 JUMP JUMPDEST DUP1 PUSH1 0x1F ADD PUSH1 0x20 DUP1 SWAP2 DIV MUL PUSH1 0x20 ADD PUSH1 0x40 MLOAD SWAP1 DUP2 ADD PUSH1 0x40 MSTORE DUP1 SWAP3 SWAP2 SWAP1 DUP2 DUP2 MSTORE PUSH1 0x20 ADD DUP3 DUP1 SLOAD PUSH2 0xB99 SWAP1 PUSH2 0x1F69 JUMP JUMPDEST DUP1 ISZERO PUSH2 0xBE4 JUMPI DUP1 PUSH1 0x1F LT PUSH2 0xBBB JUMPI PUSH2 0x100 DUP1 DUP4 SLOAD DIV MUL DUP4 MSTORE SWAP2 PUSH1 0x20 ADD SWAP2 PUSH2 0xBE4 JUMP JUMPDEST DUP3 ADD SWAP2 SWAP1 PUSH0 MSTORE PUSH1 0x20 PUSH0 KECCAK256 SWAP1 JUMPDEST DUP2 SLOAD DUP2 MSTORE SWAP1 PUSH1 0x1 ADD SWAP1 PUSH1 0x20 ADD DUP1 DUP4 GT PUSH2 0xBC7 JUMPI DUP3 SWAP1 SUB PUSH1 0x1F AND DUP3 ADD SWAP2 JUMPDEST POP POP POP POP POP SWAP1 DUP1 PUSH1 0x3 ADD PUSH0 SWAP1 SLOAD SWAP1 PUSH2 0x100 EXP SWAP1 DIV PUSH1 0xFF AND SWAP1 POP DUP3 JUMP JUMPDEST PUSH0 DUP1 PUSH2 0xC0A PUSH2 0x1287 JUMP JUMPDEST SWAP1 POP DUP1 PUSH0 ADD PUSH0 SWAP1 SLOAD SWAP1 PUSH2 0x100 EXP SWAP1 DIV PUSH20 0xFFFFFFFFFFFFFFFFFFFFFFFFFFFFFFFFFFFFFFFF AND SWAP2 POP POP SWAP1 JUMP JUMPDEST PUSH0 DUP1 DUP1 SLOAD SWAP1 POP SWAP1 POP SWAP1 JUMP JUMPDEST PUSH2 0xC48 PUSH2 0x12AE JUMP JUMPDEST PUSH0 PUSH20 0xFFFFFFFFFFFFFFFFFFFFFFFFFFFFFFFFFFFFFFFF AND CALLER PUSH20 0xFFFFFFFFFFFFFFFFFFFFFFFFFFFFFFFFFFFFFFFF AND SUB PUSH2 0xCB6 JUMPI PUSH1 0x40 MLOAD PUSH32 0x8C379A000000000000000000000000000000000000000000000000000000000 DUP2 MSTORE PUSH1 0x4 ADD PUSH2 0xCAD SWAP1 PUSH2 0x247A JUMP JUMPDEST PUSH1 0x40 MLOAD DUP1 SWAP2 SUB SWAP1 REVERT JUMPDEST PUSH0 DUP3 LT ISZERO DUP1 ISZERO PUSH2 0xCE6 JUMPI POP PUSH32 0xFFFFFFFFFFFFFFFFFFFFFFFFFFFFFFFFFFFFFFFFFFFFFFFFFFFFFFFFFFFFFFFF DUP3 GT ISZERO JUMPDEST DUP1 ISZERO PUSH2 0xCF5 JUMPI POP PUSH0 DUP1 SLOAD SWAP1 POP DUP3 LT JUMPDEST PUSH2 0xD34 JUMPI PUSH1 0x40 MLOAD PUSH32 0x8C379A000000000000000000000000000000000000000000000000000000000 DUP2 MSTORE PUSH1 0x4 ADD PUSH2 0xD2B SWAP1 PUSH2 0x224F JUMP JUMPDEST PUSH1 0x40 MLOAD DUP1 SWAP2 SUB SWAP1 REVERT JUMPDEST PUSH0 DUP3 DUP2 SLOAD DUP2 LT PUSH2 0xD47 JUMPI PUSH2 0xD46 PUSH2 0x1DDF JUMP JUMPDEST JUMPDEST SWAP1 PUSH0 MSTORE PUSH1 0x20 PUSH0 KECCAK256 SWAP1 PUSH1 0x5 MUL ADD PUSH1 0x3 ADD PUSH0 SWAP1 SLOAD SWAP1 PUSH2 0x100 EXP SWAP1 DIV PUSH1 0xFF AND PUSH2 0xDA2 JUMPI PUSH1 0x40 MLOAD PUSH32 0x8C379A000000000000000000000000000000000000000000000000000000000 DUP2 MSTORE PUSH1 0x4 ADD PUSH2 0xD99 SWAP1 PUSH2 0x24E2 JUMP JUMPDEST PUSH1 0x40 MLOAD DUP1 SWAP2 SUB SWAP1 REVERT JUMPDEST PUSH0 DUP2 LT ISZERO DUP1 ISZERO PUSH2 0xDD6 JUMPI POP PUSH0 DUP3 DUP2 SLOAD DUP2 LT PUSH2 0xDC0 JUMPI PUSH2 0xDBF PUSH2 0x1DDF JUMP JUMPDEST JUMPDEST SWAP1 PUSH0 MSTORE PUSH1 0x20 PUSH0 KECCAK256 SWAP1 PUSH1 0x5 MUL ADD PUSH1 0x1 ADD DUP1 SLOAD SWAP1 POP DUP2 LT JUMPDEST PUSH2 0xE15 JUMPI PUSH1 0x40 MLOAD PUSH32 0x8C379A000000000000000000000000000000000000000000000000000000000 DUP2 MSTORE PUSH1 0x4 ADD PUSH2 0xE0C SWAP1 PUSH2 0x254A JUMP JUMPDEST PUSH1 0x40 MLOAD DUP1 SWAP2 SUB SWAP1 REVERT JUMPDEST PUSH0 ISZERO ISZERO PUSH0 DUP4 DUP2 SLOAD DUP2 LT PUSH2 0xE2B JUMPI PUSH2 0xE2A PUSH2 0x1DDF JUMP JUMPDEST JUMPDEST SWAP1 PUSH0 MSTORE PUSH1 0x20 PUSH0 KECCAK256 SWAP1 PUSH1 0x5 MUL ADD PUSH1 0x4 ADD PUSH0 CALLER PUSH20 0xFFFFFFFFFFFFFFFFFFFFFFFFFFFFFFFFFFFFFFFF AND PUSH20 0xFFFFFFFFFFFFFFFFFFFFFFFFFFFFFFFFFFFFFFFF AND DUP2 MSTORE PUSH1 0x20 ADD SWAP1 DUP2 MSTORE PUSH1 0x20 ADD PUSH0 KECCAK256 PUSH0 SWAP1 SLOAD SWAP1 PUSH2 0x100 EXP SWAP1 DIV PUSH1 0xFF AND ISZERO ISZERO EQ PUSH2 0xEC4 JUMPI PUSH1 0x40 MLOAD PUSH32 0x8C379A000000000000000000000000000000000000000000000000000000000 DUP2 MSTORE PUSH1 0x4 ADD PUSH2 0xEBB SWAP1 PUSH2 0x25B2 JUMP JUMPDEST PUSH1 0x40 MLOAD DUP1 SWAP2 SUB SWAP1 REVERT JUMPDEST PUSH32 0xFFFFFFFFFFFFFFFFFFFFFFFFFFFFFFFFFFFFFFFFFFFFFFFFFFFFFFFFFFFFFFFF PUSH0 DUP4 DUP2 SLOAD DUP2 LT PUSH2 0xEF8 JUMPI PUSH2 0xEF7 PUSH2 0x1DDF JUMP JUMPDEST JUMPDEST SWAP1 PUSH0 MSTORE PUSH1 0x20 PUSH0 KECCAK256 SWAP1 PUSH1 0x5 MUL ADD PUSH1 0x2 ADD DUP3 DUP2 SLOAD DUP2 LT PUSH2 0xF19 JUMPI PUSH2 0xF18 PUSH2 0x1DDF JUMP JUMPDEST JUMPDEST SWAP1 PUSH0 MSTORE PUSH1 0x20 PUSH0 KECCAK256 ADD SLOAD GT ISZERO PUSH2 0xF63 JUMPI PUSH1 0x40 MLOAD PUSH32 0x8C379A000000000000000000000000000000000000000000000000000000000 DUP2 MSTORE PUSH1 0x4 ADD PUSH2 0xF5A SWAP1 PUSH2 0x261A JUMP JUMPDEST PUSH1 0x40 MLOAD DUP1 SWAP2 SUB SWAP1 REVERT JUMPDEST PUSH1 0x1 PUSH0 DUP4 DUP2 SLOAD DUP2 LT PUSH2 0xF78 JUMPI PUSH2 0xF77 PUSH2 0x1DDF JUMP JUMPDEST JUMPDEST SWAP1 PUSH0 MSTORE PUSH1 0x20 PUSH0 KECCAK256 SWAP1 PUSH1 0x5 MUL ADD PUSH1 0x4 ADD PUSH0 CALLER PUSH20 0xFFFFFFFFFFFFFFFFFFFFFFFFFFFFFFFFFFFFFFFF AND PUSH20 0xFFFFFFFFFFFFFFFFFFFFFFFFFFFFFFFFFFFFFFFF AND DUP2 MSTORE PUSH1 0x20 ADD SWAP1 DUP2 MSTORE PUSH1 0x20 ADD PUSH0 KECCAK256 PUSH0 PUSH2 0x100 EXP DUP2 SLOAD DUP2 PUSH1 0xFF MUL NOT AND SWAP1 DUP4 ISZERO ISZERO MUL OR SWAP1 SSTORE POP PUSH0 DUP3 DUP2 SLOAD DUP2 LT PUSH2 0xFEB JUMPI PUSH2 0xFEA PUSH2 0x1DDF JUMP JUMPDEST JUMPDEST SWAP1 PUSH0 MSTORE PUSH1 0x20 PUSH0 KECCAK256 SWAP1 PUSH1 0x5 MUL ADD PUSH1 0x2 ADD DUP2 DUP2 SLOAD DUP2 LT PUSH2 0x100C JUMPI PUSH2 0x100B PUSH2 0x1DDF JUMP JUMPDEST JUMPDEST SWAP1 PUSH0 MSTORE PUSH1 0x20 PUSH0 KECCAK256 ADD PUSH0 DUP2 SLOAD DUP1 SWAP3 SWAP2 SWAP1 PUSH2 0x1024 SWAP1 PUSH2 0x2638 JUMP JUMPDEST SWAP2 SWAP1 POP SSTORE POP DUP1 DUP3 CALLER PUSH20 0xFFFFFFFFFFFFFFFFFFFFFFFFFFFFFFFFFFFFFFFF AND PUSH32 0xEA66F58E474BC09F580000E81F31B334D171DB387D0C6098BA47BD897741679B PUSH1 0x40 MLOAD PUSH1 0x40 MLOAD DUP1 SWAP2 SUB SWAP1 LOG4 PUSH2 0x1076 PUSH2 0x132D JUMP JUMPDEST POP POP JUMP JUMPDEST PUSH2 0x1082 PUSH2 0x10FE JUMP JUMPDEST PUSH0 PUSH20 0xFFFFFFFFFFFFFFFFFFFFFFFFFFFFFFFFFFFFFFFF AND DUP2 PUSH20 0xFFFFFFFFFFFFFFFFFFFFFFFFFFFFFFFFFFFFFFFF AND SUB PUSH2 0x10F2 JUMPI PUSH0 PUSH1 0x40 MLOAD PUSH32 0x1E4FBDF700000000000000000000000000000000000000000000000000000000 DUP2 MSTORE PUSH1 0x4 ADD PUSH2 0x10E9 SWAP2 SWAP1 PUSH2 0x1CCD JUMP JUMPDEST PUSH1 0x40 MLOAD DUP1 SWAP2 SUB SWAP1 REVERT JUMPDEST PUSH2 0x10FB DUP2 PUSH2 0x1185 JUMP JUMPDEST POP JUMP JUMPDEST PUSH2 0x1106 PUSH2 0x136C JUMP JUMPDEST PUSH20 0xFFFFFFFFFFFFFFFFFFFFFFFFFFFFFFFFFFFFFFFF AND PUSH2 0x1124 PUSH2 0xC00 JUMP JUMPDEST PUSH20 0xFFFFFFFFFFFFFFFFFFFFFFFFFFFFFFFFFFFFFFFF AND EQ PUSH2 0x1183 JUMPI PUSH2 0x1147 PUSH2 0x136C JUMP JUMPDEST PUSH1 0x40 MLOAD PUSH32 0x118CDAA700000000000000000000000000000000000000000000000000000000 DUP2 MSTORE PUSH1 0x4 ADD PUSH2 0x117A SWAP2 SWAP1 PUSH2 0x1CCD JUMP JUMPDEST PUSH1 0x40 MLOAD DUP1 SWAP2 SUB SWAP1 REVERT JUMPDEST JUMP JUMPDEST PUSH0 PUSH2 0x118E PUSH2 0x1287 JUMP JUMPDEST SWAP1 POP PUSH0 DUP2 PUSH0 ADD PUSH0 SWAP1 SLOAD SWAP1 PUSH2 0x100 EXP SWAP1 DIV PUSH20 0xFFFFFFFFFFFFFFFFFFFFFFFFFFFFFFFFFFFFFFFF AND SWAP1 POP DUP3 DUP3 PUSH0 ADD PUSH0 PUSH2 0x100 EXP DUP2 SLOAD DUP2 PUSH20 0xFFFFFFFFFFFFFFFFFFFFFFFFFFFFFFFFFFFFFFFF MUL NOT AND SWAP1 DUP4 PUSH20 0xFFFFFFFFFFFFFFFFFFFFFFFFFFFFFFFFFFFFFFFF AND MUL OR SWAP1 SSTORE POP DUP3 PUSH20 0xFFFFFFFFFFFFFFFFFFFFFFFFFFFFFFFFFFFFFFFF AND DUP2 PUSH20 0xFFFFFFFFFFFFFFFFFFFFFFFFFFFFFFFFFFFFFFFF AND PUSH32 0x8BE0079C531659141344CD1FD0A4F28419497F9722A3DAAFE3B4186F6B6457E0 PUSH1 0x40 MLOAD PUSH1 0x40 MLOAD DUP1 SWAP2 SUB SWAP1 LOG3 POP POP POP JUMP JUMPDEST PUSH0 DUP1 PUSH2 0x1260 PUSH2 0x1373 JUMP JUMPDEST SWAP1 POP DUP1 SWAP2 POP POP SWAP1 JUMP JUMPDEST PUSH2 0x1271 PUSH2 0x139C JUMP JUMPDEST PUSH2 0x127A DUP2 PUSH2 0x13DC JUMP JUMPDEST POP JUMP JUMPDEST PUSH2 0x1285 PUSH2 0x139C JUMP JUMPDEST JUMP JUMPDEST PUSH0 PUSH32 0x9016D09D72D40FDAE2FD8CEAC6B6234C7706214FD39C1CD1E609A0528C199300 SWAP1 POP SWAP1 JUMP JUMPDEST PUSH2 0x12B6 PUSH2 0x1460 JUMP JUMPDEST ISZERO PUSH2 0x12ED JUMPI PUSH1 0x40 MLOAD PUSH32 0x3EE5AEB500000000000000000000000000000000000000000000000000000000 DUP2 MSTORE PUSH1 0x4 ADD PUSH1 0x40 MLOAD DUP1 SWAP2 SUB SWAP1 REVERT JUMPDEST PUSH2 0x132B PUSH1 0x1 PUSH2 0x131D PUSH32 0x9B779B17422D0DF92223018B32B4D1FA46E071723D6817E2486D003BECC55F00 PUSH0 SHL PUSH2 0x1499 JUMP JUMPDEST PUSH2 0x14A2 SWAP1 SWAP2 SWAP1 PUSH4 0xFFFFFFFF AND JUMP JUMPDEST JUMP JUMPDEST PUSH2 0x136A PUSH0 PUSH2 0x135C PUSH32 0x9B779B17422D0DF92223018B32B4D1FA46E071723D6817E2486D003BECC55F00 PUSH0 SHL PUSH2 0x1499 JUMP JUMPDEST PUSH2 0x14A2 SWAP1 SWAP2 SWAP1 PUSH4 0xFFFFFFFF AND JUMP JUMPDEST JUMP JUMPDEST PUSH0 CALLER SWAP1 POP SWAP1 JUMP JUMPDEST PUSH0 PUSH32 0xF0C57E16840DF040F15088DC2F81FE391C3923BEC73E23A9662EFC9C229C6A00 PUSH0 SHL SWAP1 POP SWAP1 JUMP JUMPDEST PUSH2 0x13A4 PUSH2 0x14A9 JUMP JUMPDEST PUSH2 0x13DA JUMPI PUSH1 0x40 MLOAD PUSH32 0xD7E6BCF800000000000000000000000000000000000000000000000000000000 DUP2 MSTORE PUSH1 0x4 ADD PUSH1 0x40 MLOAD DUP1 SWAP2 SUB SWAP1 REVERT JUMPDEST JUMP JUMPDEST PUSH2 0x13E4 PUSH2 0x139C JUMP JUMPDEST PUSH0 PUSH20 0xFFFFFFFFFFFFFFFFFFFFFFFFFFFFFFFFFFFFFFFF AND DUP2 PUSH20 0xFFFFFFFFFFFFFFFFFFFFFFFFFFFFFFFFFFFFFFFF AND SUB PUSH2 0x1454 JUMPI PUSH0 PUSH1 0x40 MLOAD PUSH32 0x1E4FBDF700000000000000000000000000000000000000000000000000000000 DUP2 MSTORE PUSH1 0x4 ADD PUSH2 0x144B SWAP2 SWAP1 PUSH2 0x1CCD JUMP JUMPDEST PUSH1 0x40 MLOAD DUP1 SWAP2 SUB SWAP1 REVERT JUMPDEST PUSH2 0x145D DUP2 PUSH2 0x1185 JUMP JUMPDEST POP JUMP JUMPDEST PUSH0 PUSH2 0x1494 PUSH2 0x148F PUSH32 0x9B779B17422D0DF92223018B32B4D1FA46E071723D6817E2486D003BECC55F00 PUSH0 SHL PUSH2 0x1499 JUMP JUMPDEST PUSH2 0x14C7 JUMP JUMPDEST SWAP1 POP SWAP1 JUMP JUMPDEST PUSH0 DUP2 SWAP1 POP SWAP2 SWAP1 POP JUMP JUMPDEST DUP1 DUP3 TSTORE POP POP JUMP JUMPDEST PUSH0 PUSH2 0x14B2 PUSH2 0x1256 JUMP JUMPDEST PUSH0 ADD PUSH1 0x8 SWAP1 SLOAD SWAP1 PUSH2 0x100 EXP SWAP1 DIV PUSH1 0xFF AND SWAP1 POP SWAP1 JUMP JUMPDEST PUSH0 DUP2 TLOAD SWAP1 POP SWAP2 SWAP1 POP JUMP JUMPDEST DUP3 DUP1 SLOAD DUP3 DUP3 SSTORE SWAP1 PUSH0 MSTORE PUSH1 0x20 PUSH0 KECCAK256 SWAP1 DUP2 ADD SWAP3 DUP3 ISZERO PUSH2 0x1517 JUMPI SWAP2 PUSH1 0x20 MUL DUP3 ADD JUMPDEST DUP3 DUP2 GT ISZERO PUSH2 0x1516 JUMPI DUP3 MLOAD DUP3 SWAP1 DUP2 PUSH2 0x1506 SWAP2 SWAP1 PUSH2 0x2136 JUMP JUMPDEST POP SWAP2 PUSH1 0x20 ADD SWAP2 SWAP1 PUSH1 0x1 ADD SWAP1 PUSH2 0x14EF JUMP JUMPDEST JUMPDEST POP SWAP1 POP PUSH2 0x1524 SWAP2 SWAP1 PUSH2 0x1573 JUMP JUMPDEST POP SWAP1 JUMP JUMPDEST DUP3 DUP1 SLOAD DUP3 DUP3 SSTORE SWAP1 PUSH0 MSTORE PUSH1 0x20 PUSH0 KECCAK256 SWAP1 DUP2 ADD SWAP3 DUP3 ISZERO PUSH2 0x1562 JUMPI SWAP2 PUSH1 0x20 MUL DUP3 ADD JUMPDEST DUP3 DUP2 GT ISZERO PUSH2 0x1561 JUMPI DUP3 MLOAD DUP3 SSTORE SWAP2 PUSH1 0x20 ADD SWAP2 SWAP1 PUSH1 0x1 ADD SWAP1 PUSH2 0x1546 JUMP JUMPDEST JUMPDEST POP SWAP1 POP PUSH2 0x156F SWAP2 SWAP1 PUSH2 0x1596 JUMP JUMPDEST POP SWAP1 JUMP JUMPDEST JUMPDEST DUP1 DUP3 GT ISZERO PUSH2 0x1592 JUMPI PUSH0 DUP2 DUP2 PUSH2 0x1589 SWAP2 SWAP1 PUSH2 0x15B1 JUMP JUMPDEST POP PUSH1 0x1 ADD PUSH2 0x1574 JUMP JUMPDEST POP SWAP1 JUMP JUMPDEST JUMPDEST DUP1 DUP3 GT ISZERO PUSH2 0x15AD JUMPI PUSH0 DUP2 PUSH0 SWAP1 SSTORE POP PUSH1 0x1 ADD PUSH2 0x1597 JUMP JUMPDEST POP SWAP1 JUMP JUMPDEST POP DUP1 SLOAD PUSH2 0x15BD SWAP1 PUSH2 0x1F69 JUMP JUMPDEST PUSH0 DUP3 SSTORE DUP1 PUSH1 0x1F LT PUSH2 0x15CE JUMPI POP PUSH2 0x15EB JUMP JUMPDEST PUSH1 0x1F ADD PUSH1 0x20 SWAP1 DIV SWAP1 PUSH0 MSTORE PUSH1 0x20 PUSH0 KECCAK256 SWAP1 DUP2 ADD SWAP1 PUSH2 0x15EA SWAP2 SWAP1 PUSH2 0x1596 JUMP JUMPDEST JUMPDEST POP JUMP JUMPDEST PUSH0 PUSH1 0x40 MLOAD SWAP1 POP SWAP1 JUMP JUMPDEST PUSH0 DUP1 REVERT JUMPDEST PUSH0 DUP1 REVERT JUMPDEST PUSH0 DUP2 SWAP1 POP SWAP2 SWAP1 POP JUMP JUMPDEST PUSH2 0x1611 DUP2 PUSH2 0x15FF JUMP JUMPDEST DUP2 EQ PUSH2 0x161B JUMPI PUSH0 DUP1 REVERT JUMPDEST POP JUMP JUMPDEST PUSH0 DUP2 CALLDATALOAD SWAP1 POP PUSH2 0x162C DUP2 PUSH2 0x1608 JUMP JUMPDEST SWAP3 SWAP2 POP POP JUMP JUMPDEST PUSH0 PUSH1 0x20 DUP3 DUP5 SUB SLT ISZERO PUSH2 0x1647 JUMPI PUSH2 0x1646 PUSH2 0x15F7 JUMP JUMPDEST JUMPDEST PUSH0 PUSH2 0x1654 DUP5 DUP3 DUP6 ADD PUSH2 0x161E JUMP JUMPDEST SWAP2 POP POP SWAP3 SWAP2 POP POP JUMP JUMPDEST PUSH0 DUP2 MLOAD SWAP1 POP SWAP2 SWAP1 POP JUMP JUMPDEST PUSH0 DUP3 DUP3 MSTORE PUSH1 0x20 DUP3 ADD SWAP1 POP SWAP3 SWAP2 POP POP JUMP JUMPDEST PUSH0 DUP2 SWAP1 POP PUSH1 0x20 DUP3 ADD SWAP1 POP SWAP2 SWAP1 POP JUMP JUMPDEST PUSH2 0x168F DUP2 PUSH2 0x15FF JUMP JUMPDEST DUP3 MSTORE POP POP JUMP JUMPDEST PUSH0 PUSH2 0x16A0 DUP4 DUP4 PUSH2 0x1686 JUMP JUMPDEST PUSH1 0x20 DUP4 ADD SWAP1 POP SWAP3 SWAP2 POP POP JUMP JUMPDEST PUSH0 PUSH1 0x20 DUP3 ADD SWAP1 POP SWAP2 SWAP1 POP JUMP JUMPDEST PUSH0 PUSH2 0x16C2 DUP3 PUSH2 0x165D JUMP JUMPDEST PUSH2 0x16CC DUP2 DUP6 PUSH2 0x1667 JUMP JUMPDEST SWAP4 POP PUSH2 0x16D7 DUP4 PUSH2 0x1677 JUMP JUMPDEST DUP1 PUSH0 JUMPDEST DUP4 DUP2 LT ISZERO PUSH2 0x1707 JUMPI DUP2 MLOAD PUSH2 0x16EE DUP9 DUP3 PUSH2 0x1695 JUMP JUMPDEST SWAP8 POP PUSH2 0x16F9 DUP4 PUSH2 0x16AC JUMP JUMPDEST SWAP3 POP POP PUSH1 0x1 DUP2 ADD SWAP1 POP PUSH2 0x16DA JUMP JUMPDEST POP DUP6 SWAP4 POP POP POP POP SWAP3 SWAP2 POP POP JUMP JUMPDEST PUSH0 PUSH1 0x20 DUP3 ADD SWAP1 POP DUP2 DUP2 SUB PUSH0 DUP4 ADD MSTORE PUSH2 0x172C DUP2 DUP5 PUSH2 0x16B8 JUMP JUMPDEST SWAP1 POP SWAP3 SWAP2 POP POP JUMP JUMPDEST PUSH0 DUP1 REVERT JUMPDEST PUSH0 DUP1 REVERT JUMPDEST PUSH0 PUSH1 0x1F NOT PUSH1 0x1F DUP4 ADD AND SWAP1 POP SWAP2 SWAP1 POP JUMP JUMPDEST PUSH32 0x4E487B7100000000000000000000000000000000000000000000000000000000 PUSH0 MSTORE PUSH1 0x41 PUSH1 0x4 MSTORE PUSH1 0x24 PUSH0 REVERT JUMPDEST PUSH2 0x1782 DUP3 PUSH2 0x173C JUMP JUMPDEST DUP2 ADD DUP2 DUP2 LT PUSH8 0xFFFFFFFFFFFFFFFF DUP3 GT OR ISZERO PUSH2 0x17A1 JUMPI PUSH2 0x17A0 PUSH2 0x174C JUMP JUMPDEST JUMPDEST DUP1 PUSH1 0x40 MSTORE POP POP POP JUMP JUMPDEST PUSH0 PUSH2 0x17B3 PUSH2 0x15EE JUMP JUMPDEST SWAP1 POP PUSH2 0x17BF DUP3 DUP3 PUSH2 0x1779 JUMP JUMPDEST SWAP2 SWAP1 POP JUMP JUMPDEST PUSH0 PUSH8 0xFFFFFFFFFFFFFFFF DUP3 GT ISZERO PUSH2 0x17DE JUMPI PUSH2 0x17DD PUSH2 0x174C JUMP JUMPDEST JUMPDEST PUSH2 0x17E7 DUP3 PUSH2 0x173C JUMP JUMPDEST SWAP1 POP PUSH1 0x20 DUP2 ADD SWAP1 POP SWAP2 SWAP1 POP JUMP JUMPDEST DUP3 DUP2 DUP4 CALLDATACOPY PUSH0 DUP4 DUP4 ADD MSTORE POP POP POP JUMP JUMPDEST PUSH0 PUSH2 0x1814 PUSH2 0x180F DUP5 PUSH2 0x17C4 JUMP JUMPDEST PUSH2 0x17AA JUMP JUMPDEST SWAP1 POP DUP3 DUP2 MSTORE PUSH1 0x20 DUP2 ADD DUP5 DUP5 DUP5 ADD GT ISZERO PUSH2 0x1830 JUMPI PUSH2 0x182F PUSH2 0x1738 JUMP JUMPDEST JUMPDEST PUSH2 0x183B DUP5 DUP3 DUP6 PUSH2 0x17F4 JUMP JUMPDEST POP SWAP4 SWAP3 POP POP POP JUMP JUMPDEST PUSH0 DUP3 PUSH1 0x1F DUP4 ADD SLT PUSH2 0x1857 JUMPI PUSH2 0x1856 PUSH2 0x1734 JUMP JUMPDEST JUMPDEST DUP2 CALLDATALOAD PUSH2 0x1867 DUP5 DUP3 PUSH1 0x20 DUP7 ADD PUSH2 0x1802 JUMP JUMPDEST SWAP2 POP POP SWAP3 SWAP2 POP POP JUMP JUMPDEST PUSH0 PUSH8 0xFFFFFFFFFFFFFFFF DUP3 GT ISZERO PUSH2 0x188A JUMPI PUSH2 0x1889 PUSH2 0x174C JUMP JUMPDEST JUMPDEST PUSH1 0x20 DUP3 MUL SWAP1 POP PUSH1 0x20 DUP2 ADD SWAP1 POP SWAP2 SWAP1 POP JUMP JUMPDEST PUSH0 DUP1 REVERT JUMPDEST PUSH0 PUSH2 0x18B1 PUSH2 0x18AC DUP5 PUSH2 0x1870 JUMP JUMPDEST PUSH2 0x17AA JUMP JUMPDEST SWAP1 POP DUP1 DUP4 DUP3 MSTORE PUSH1 0x20 DUP3 ADD SWAP1 POP PUSH1 0x20 DUP5 MUL DUP4 ADD DUP6 DUP2 GT ISZERO PUSH2 0x18D4 JUMPI PUSH2 0x18D3 PUSH2 0x189B JUMP JUMPDEST JUMPDEST DUP4 JUMPDEST DUP2 DUP2 LT ISZERO PUSH2 0x191B JUMPI DUP1 CALLDATALOAD PUSH8 0xFFFFFFFFFFFFFFFF DUP2 GT ISZERO PUSH2 0x18F9 JUMPI PUSH2 0x18F8 PUSH2 0x1734 JUMP JUMPDEST JUMPDEST DUP1 DUP7 ADD PUSH2 0x1906 DUP10 DUP3 PUSH2 0x1843 JUMP JUMPDEST DUP6 MSTORE PUSH1 0x20 DUP6 ADD SWAP5 POP POP POP PUSH1 0x20 DUP2 ADD SWAP1 POP PUSH2 0x18D6 JUMP JUMPDEST POP POP POP SWAP4 SWAP3 POP POP POP JUMP JUMPDEST PUSH0 DUP3 PUSH1 0x1F DUP4 ADD SLT PUSH2 0x1939 JUMPI PUSH2 0x1938 PUSH2 0x1734 JUMP JUMPDEST JUMPDEST DUP2 CALLDATALOAD PUSH2 0x1949 DUP5 DUP3 PUSH1 0x20 DUP7 ADD PUSH2 0x189F JUMP JUMPDEST SWAP2 POP POP SWAP3 SWAP2 POP POP JUMP JUMPDEST PUSH0 DUP2 ISZERO ISZERO SWAP1 POP SWAP2 SWAP1 POP JUMP JUMPDEST PUSH2 0x1966 DUP2 PUSH2 0x1952 JUMP JUMPDEST DUP2 EQ PUSH2 0x1970 JUMPI PUSH0 DUP1 REVERT JUMPDEST POP JUMP JUMPDEST PUSH0 DUP2 CALLDATALOAD SWAP1 POP PUSH2 0x1981 DUP2 PUSH2 0x195D JUMP JUMPDEST SWAP3 SWAP2 POP POP JUMP JUMPDEST PUSH0 DUP1 PUSH0 PUSH1 0x60 DUP5 DUP7 SUB SLT ISZERO PUSH2 0x199E JUMPI PUSH2 0x199D PUSH2 0x15F7 JUMP JUMPDEST JUMPDEST PUSH0 DUP5 ADD CALLDATALOAD PUSH8 0xFFFFFFFFFFFFFFFF DUP2 GT ISZERO PUSH2 0x19BB JUMPI PUSH2 0x19BA PUSH2 0x15FB JUMP JUMPDEST JUMPDEST PUSH2 0x19C7 DUP7 DUP3 DUP8 ADD PUSH2 0x1843 JUMP JUMPDEST SWAP4 POP POP PUSH1 0x20 DUP5 ADD CALLDATALOAD PUSH8 0xFFFFFFFFFFFFFFFF DUP2 GT ISZERO PUSH2 0x19E8 JUMPI PUSH2 0x19E7 PUSH2 0x15FB JUMP JUMPDEST JUMPDEST PUSH2 0x19F4 DUP7 DUP3 DUP8 ADD PUSH2 0x1925 JUMP JUMPDEST SWAP3 POP POP PUSH1 0x40 PUSH2 0x1A05 DUP7 DUP3 DUP8 ADD PUSH2 0x1973 JUMP JUMPDEST SWAP2 POP POP SWAP3 POP SWAP3 POP SWAP3 JUMP JUMPDEST PUSH0 DUP2 MLOAD SWAP1 POP SWAP2 SWAP1 POP JUMP JUMPDEST PUSH0 DUP3 DUP3 MSTORE PUSH1 0x20 DUP3 ADD SWAP1 POP SWAP3 SWAP2 POP POP JUMP JUMPDEST PUSH0 DUP2 SWAP1 POP PUSH1 0x20 DUP3 ADD SWAP1 POP SWAP2 SWAP1 POP JUMP JUMPDEST PUSH0 DUP2 MLOAD SWAP1 POP SWAP2 SWAP1 POP JUMP JUMPDEST PUSH0 DUP3 DUP3 MSTORE PUSH1 0x20 DUP3 ADD SWAP1 POP SWAP3 SWAP2 POP POP JUMP JUMPDEST DUP3 DUP2 DUP4 MCOPY PUSH0 DUP4 DUP4 ADD MSTORE POP POP POP JUMP JUMPDEST PUSH0 PUSH2 0x1A6A DUP3 PUSH2 0x1A38 JUMP JUMPDEST PUSH2 0x1A74 DUP2 DUP6 PUSH2 0x1A42 JUMP JUMPDEST SWAP4 POP PUSH2 0x1A84 DUP2 DUP6 PUSH1 0x20 DUP7 ADD PUSH2 0x1A52 JUMP JUMPDEST PUSH2 0x1A8D DUP2 PUSH2 0x173C JUMP JUMPDEST DUP5 ADD SWAP2 POP POP SWAP3 SWAP2 POP POP JUMP JUMPDEST PUSH0 PUSH2 0x1AA3 DUP4 DUP4 PUSH2 0x1A60 JUMP JUMPDEST SWAP1 POP SWAP3 SWAP2 POP POP JUMP JUMPDEST PUSH0 PUSH1 0x20 DUP3 ADD SWAP1 POP SWAP2 SWAP1 POP JUMP JUMPDEST PUSH0 PUSH2 0x1AC1 DUP3 PUSH2 0x1A0F JUMP JUMPDEST PUSH2 0x1ACB DUP2 DUP6 PUSH2 0x1A19 JUMP JUMPDEST SWAP4 POP DUP4 PUSH1 0x20 DUP3 MUL DUP6 ADD PUSH2 0x1ADD DUP6 PUSH2 0x1A29 JUMP JUMPDEST DUP1 PUSH0 JUMPDEST DUP6 DUP2 LT ISZERO PUSH2 0x1B18 JUMPI DUP5 DUP5 SUB DUP10 MSTORE DUP2 MLOAD PUSH2 0x1AF9 DUP6 DUP3 PUSH2 0x1A98 JUMP JUMPDEST SWAP5 POP PUSH2 0x1B04 DUP4 PUSH2 0x1AAB JUMP JUMPDEST SWAP3 POP PUSH1 0x20 DUP11 ADD SWAP10 POP POP PUSH1 0x1 DUP2 ADD SWAP1 POP PUSH2 0x1AE0 JUMP JUMPDEST POP DUP3 SWAP8 POP DUP8 SWAP6 POP POP POP POP POP POP SWAP3 SWAP2 POP POP JUMP JUMPDEST PUSH0 PUSH1 0x20 DUP3 ADD SWAP1 POP DUP2 DUP2 SUB PUSH0 DUP4 ADD MSTORE PUSH2 0x1B42 DUP2 DUP5 PUSH2 0x1AB7 JUMP JUMPDEST SWAP1 POP SWAP3 SWAP2 POP POP JUMP JUMPDEST PUSH2 0x1B53 DUP2 PUSH2 0x1952 JUMP JUMPDEST DUP3 MSTORE POP POP JUMP JUMPDEST PUSH0 PUSH1 0x20 DUP3 ADD SWAP1 POP PUSH2 0x1B6C PUSH0 DUP4 ADD DUP5 PUSH2 0x1B4A JUMP JUMPDEST SWAP3 SWAP2 POP POP JUMP JUMPDEST PUSH0 PUSH20 0xFFFFFFFFFFFFFFFFFFFFFFFFFFFFFFFFFFFFFFFF DUP3 AND SWAP1 POP SWAP2 SWAP1 POP JUMP JUMPDEST PUSH0 PUSH2 0x1B9B DUP3 PUSH2 0x1B72 JUMP JUMPDEST SWAP1 POP SWAP2 SWAP1 POP JUMP JUMPDEST PUSH2 0x1BAB DUP2 PUSH2 0x1B91 JUMP JUMPDEST DUP2 EQ PUSH2 0x1BB5 JUMPI PUSH0 DUP1 REVERT JUMPDEST POP JUMP JUMPDEST PUSH0 DUP2 CALLDATALOAD SWAP1 POP PUSH2 0x1BC6 DUP2 PUSH2 0x1BA2 JUMP JUMPDEST SWAP3 SWAP2 POP POP JUMP JUMPDEST PUSH0 DUP1 PUSH1 0x40 DUP4 DUP6 SUB SLT ISZERO PUSH2 0x1BE2 JUMPI PUSH2 0x1BE1 PUSH2 0x15F7 JUMP JUMPDEST JUMPDEST PUSH0 PUSH2 0x1BEF DUP6 DUP3 DUP7 ADD PUSH2 0x1BB8 JUMP JUMPDEST SWAP3 POP POP PUSH1 0x20 PUSH2 0x1C00 DUP6 DUP3 DUP7 ADD PUSH2 0x161E JUMP JUMPDEST SWAP2 POP POP SWAP3 POP SWAP3 SWAP1 POP JUMP JUMPDEST PUSH0 DUP1 PUSH1 0x40 DUP4 DUP6 SUB SLT ISZERO PUSH2 0x1C20 JUMPI PUSH2 0x1C1F PUSH2 0x15F7 JUMP JUMPDEST JUMPDEST PUSH0 PUSH2 0x1C2D DUP6 DUP3 DUP7 ADD PUSH2 0x161E JUMP JUMPDEST SWAP3 POP POP PUSH1 0x20 PUSH2 0x1C3E DUP6 DUP3 DUP7 ADD PUSH2 0x1973 JUMP JUMPDEST SWAP2 POP POP SWAP3 POP SWAP3 SWAP1 POP JUMP JUMPDEST PUSH0 DUP3 DUP3 MSTORE PUSH1 0x20 DUP3 ADD SWAP1 POP SWAP3 SWAP2 POP POP JUMP JUMPDEST PUSH0 PUSH2 0x1C62 DUP3 PUSH2 0x1A38 JUMP JUMPDEST PUSH2 0x1C6C DUP2 DUP6 PUSH2 0x1C48 JUMP JUMPDEST SWAP4 POP PUSH2 0x1C7C DUP2 DUP6 PUSH1 0x20 DUP7 ADD PUSH2 0x1A52 JUMP JUMPDEST PUSH2 0x1C85 DUP2 PUSH2 0x173C JUMP JUMPDEST DUP5 ADD SWAP2 POP POP SWAP3 SWAP2 POP POP JUMP JUMPDEST PUSH0 PUSH1 0x40 DUP3 ADD SWAP1 POP DUP2 DUP2 SUB PUSH0 DUP4 ADD MSTORE PUSH2 0x1CA8 DUP2 DUP6 PUSH2 0x1C58 JUMP JUMPDEST SWAP1 POP PUSH2 0x1CB7 PUSH1 0x20 DUP4 ADD DUP5 PUSH2 0x1B4A JUMP JUMPDEST SWAP4 SWAP3 POP POP POP JUMP JUMPDEST PUSH2 0x1CC7 DUP2 PUSH2 0x1B91 JUMP JUMPDEST DUP3 MSTORE POP POP JUMP JUMPDEST PUSH0 PUSH1 0x20 DUP3 ADD SWAP1 POP PUSH2 0x1CE0 PUSH0 DUP4 ADD DUP5 PUSH2 0x1CBE JUMP JUMPDEST SWAP3 SWAP2 POP POP JUMP JUMPDEST PUSH2 0x1CEF DUP2 PUSH2 0x15FF JUMP JUMPDEST DUP3 MSTORE POP POP JUMP JUMPDEST PUSH0 PUSH1 0x20 DUP3 ADD SWAP1 POP PUSH2 0x1D08 PUSH0 DUP4 ADD DUP5 PUSH2 0x1CE6 JUMP JUMPDEST SWAP3 SWAP2 POP POP JUMP JUMPDEST PUSH0 DUP1 PUSH1 0x40 DUP4 DUP6 SUB SLT ISZERO PUSH2 0x1D24 JUMPI PUSH2 0x1D23 PUSH2 0x15F7 JUMP JUMPDEST JUMPDEST PUSH0 PUSH2 0x1D31 DUP6 DUP3 DUP7 ADD PUSH2 0x161E JUMP JUMPDEST SWAP3 POP POP PUSH1 0x20 PUSH2 0x1D42 DUP6 DUP3 DUP7 ADD PUSH2 0x161E JUMP JUMPDEST SWAP2 POP POP SWAP3 POP SWAP3 SWAP1 POP JUMP JUMPDEST PUSH0 PUSH1 0x20 DUP3 DUP5 SUB SLT ISZERO PUSH2 0x1D61 JUMPI PUSH2 0x1D60 PUSH2 0x15F7 JUMP JUMPDEST JUMPDEST PUSH0 PUSH2 0x1D6E DUP5 DUP3 DUP6 ADD PUSH2 0x1BB8 JUMP JUMPDEST SWAP2 POP POP SWAP3 SWAP2 POP POP JUMP JUMPDEST PUSH32 0x696E76616C696420696E64657800000000000000000000000000000000000000 PUSH0 DUP3 ADD MSTORE POP JUMP JUMPDEST PUSH0 PUSH2 0x1DAB PUSH1 0xD DUP4 PUSH2 0x1C48 JUMP JUMPDEST SWAP2 POP PUSH2 0x1DB6 DUP3 PUSH2 0x1D77 JUMP JUMPDEST PUSH1 0x20 DUP3 ADD SWAP1 POP SWAP2 SWAP1 POP JUMP JUMPDEST PUSH0 PUSH1 0x20 DUP3 ADD SWAP1 POP DUP2 DUP2 SUB PUSH0 DUP4 ADD MSTORE PUSH2 0x1DD8 DUP2 PUSH2 0x1D9F JUMP JUMPDEST SWAP1 POP SWAP2 SWAP1 POP JUMP JUMPDEST PUSH32 0x4E487B7100000000000000000000000000000000000000000000000000000000 PUSH0 MSTORE PUSH1 0x32 PUSH1 0x4 MSTORE PUSH1 0x24 PUSH0 REVERT JUMPDEST PUSH32 0x656D707479207175657374696F6E206973206E6F7420616C6C6F776564000000 PUSH0 DUP3 ADD MSTORE POP JUMP JUMPDEST PUSH0 PUSH2 0x1E40 PUSH1 0x1D DUP4 PUSH2 0x1C48 JUMP JUMPDEST SWAP2 POP PUSH2 0x1E4B DUP3 PUSH2 0x1E0C JUMP JUMPDEST PUSH1 0x20 DUP3 ADD SWAP1 POP SWAP2 SWAP1 POP JUMP JUMPDEST PUSH0 PUSH1 0x20 DUP3 ADD SWAP1 POP DUP2 DUP2 SUB PUSH0 DUP4 ADD MSTORE PUSH2 0x1E6D DUP2 PUSH2 0x1E34 JUMP JUMPDEST SWAP1 POP SWAP2 SWAP1 POP JUMP JUMPDEST PUSH32 0x4174206C656173742032206F7074696F6E732061726520726571756972656400 PUSH0 DUP3 ADD MSTORE POP JUMP JUMPDEST PUSH0 PUSH2 0x1EA8 PUSH1 0x1F DUP4 PUSH2 0x1C48 JUMP JUMPDEST SWAP2 POP PUSH2 0x1EB3 DUP3 PUSH2 0x1E74 JUMP JUMPDEST PUSH1 0x20 DUP3 ADD SWAP1 POP SWAP2 SWAP1 POP JUMP JUMPDEST PUSH0 PUSH1 0x20 DUP3 ADD SWAP1 POP DUP2 DUP2 SUB PUSH0 DUP4 ADD MSTORE PUSH2 0x1ED5 DUP2 PUSH2 0x1E9C JUMP JUMPDEST SWAP1 POP SWAP2 SWAP1 POP JUMP JUMPDEST PUSH32 0x4E487B7100000000000000000000000000000000000000000000000000000000 PUSH0 MSTORE PUSH1 0x11 PUSH1 0x4 MSTORE PUSH1 0x24 PUSH0 REVERT JUMPDEST PUSH0 PUSH2 0x1F13 DUP3 PUSH2 0x15FF JUMP JUMPDEST SWAP2 POP PUSH2 0x1F1E DUP4 PUSH2 0x15FF JUMP JUMPDEST SWAP3 POP DUP3 DUP3 SUB SWAP1 POP DUP2 DUP2 GT ISZERO PUSH2 0x1F36 JUMPI PUSH2 0x1F35 PUSH2 0x1EDC JUMP JUMPDEST JUMPDEST SWAP3 SWAP2 POP POP JUMP JUMPDEST PUSH32 0x4E487B7100000000000000000000000000000000000000000000000000000000 PUSH0 MSTORE PUSH1 0x22 PUSH1 0x4 MSTORE PUSH1 0x24 PUSH0 REVERT JUMPDEST PUSH0 PUSH1 0x2 DUP3 DIV SWAP1 POP PUSH1 0x1 DUP3 AND DUP1 PUSH2 0x1F80 JUMPI PUSH1 0x7F DUP3 AND SWAP2 POP JUMPDEST PUSH1 0x20 DUP3 LT DUP2 SUB PUSH2 0x1F93 JUMPI PUSH2 0x1F92 PUSH2 0x1F3C JUMP JUMPDEST JUMPDEST POP SWAP2 SWAP1 POP JUMP JUMPDEST PUSH0 DUP2 SWAP1 POP DUP2 PUSH0 MSTORE PUSH1 0x20 PUSH0 KECCAK256 SWAP1 POP SWAP2 SWAP1 POP JUMP JUMPDEST PUSH0 PUSH1 0x20 PUSH1 0x1F DUP4 ADD DIV SWAP1 POP SWAP2 SWAP1 POP JUMP JUMPDEST PUSH0 DUP3 DUP3 SHL SWAP1 POP SWAP3 SWAP2 POP POP JUMP JUMPDEST PUSH0 PUSH1 0x8 DUP4 MUL PUSH2 0x1FF5 PUSH32 0xFFFFFFFFFFFFFFFFFFFFFFFFFFFFFFFFFFFFFFFFFFFFFFFFFFFFFFFFFFFFFFFF DUP3 PUSH2 0x1FBA JUMP JUMPDEST PUSH2 0x1FFF DUP7 DUP4 PUSH2 0x1FBA JUMP JUMPDEST SWAP6 POP DUP1 NOT DUP5 AND SWAP4 POP DUP1 DUP7 AND DUP5 OR SWAP3 POP POP POP SWAP4 SWAP3 POP POP POP JUMP JUMPDEST PUSH0 DUP2 SWAP1 POP SWAP2 SWAP1 POP JUMP JUMPDEST PUSH0 PUSH2 0x203A PUSH2 0x2035 PUSH2 0x2030 DUP5 PUSH2 0x15FF JUMP JUMPDEST PUSH2 0x2017 JUMP JUMPDEST PUSH2 0x15FF JUMP JUMPDEST SWAP1 POP SWAP2 SWAP1 POP JUMP JUMPDEST PUSH0 DUP2 SWAP1 POP SWAP2 SWAP1 POP JUMP JUMPDEST PUSH2 0x2053 DUP4 PUSH2 0x2020 JUMP JUMPDEST PUSH2 0x2067 PUSH2 0x205F DUP3 PUSH2 0x2041 JUMP JUMPDEST DUP5 DUP5 SLOAD PUSH2 0x1FC6 JUMP JUMPDEST DUP3 SSTORE POP POP POP POP JUMP JUMPDEST PUSH0 SWAP1 JUMP JUMPDEST PUSH2 0x207B PUSH2 0x206F JUMP JUMPDEST PUSH2 0x2086 DUP2 DUP5 DUP5 PUSH2 0x204A JUMP JUMPDEST POP POP POP JUMP JUMPDEST JUMPDEST DUP2 DUP2 LT ISZERO PUSH2 0x20A9 JUMPI PUSH2 0x209E PUSH0 DUP3 PUSH2 0x2073 JUMP JUMPDEST PUSH1 0x1 DUP2 ADD SWAP1 POP PUSH2 0x208C JUMP JUMPDEST POP POP JUMP JUMPDEST PUSH1 0x1F DUP3 GT ISZERO PUSH2 0x20EE JUMPI PUSH2 0x20BF DUP2 PUSH2 0x1F99 JUMP JUMPDEST PUSH2 0x20C8 DUP5 PUSH2 0x1FAB JUMP JUMPDEST DUP2 ADD PUSH1 0x20 DUP6 LT ISZERO PUSH2 0x20D7 JUMPI DUP2 SWAP1 POP JUMPDEST PUSH2 0x20EB PUSH2 0x20E3 DUP6 PUSH2 0x1FAB JUMP JUMPDEST DUP4 ADD DUP3 PUSH2 0x208B JUMP JUMPDEST POP POP JUMPDEST POP POP POP JUMP JUMPDEST PUSH0 DUP3 DUP3 SHR SWAP1 POP SWAP3 SWAP2 POP POP JUMP JUMPDEST PUSH0 PUSH2 0x210E PUSH0 NOT DUP5 PUSH1 0x8 MUL PUSH2 0x20F3 JUMP JUMPDEST NOT DUP1 DUP4 AND SWAP2 POP POP SWAP3 SWAP2 POP POP JUMP JUMPDEST PUSH0 PUSH2 0x2126 DUP4 DUP4 PUSH2 0x20FF JUMP JUMPDEST SWAP2 POP DUP3 PUSH1 0x2 MUL DUP3 OR SWAP1 POP SWAP3 SWAP2 POP POP JUMP JUMPDEST PUSH2 0x213F DUP3 PUSH2 0x1A38 JUMP JUMPDEST PUSH8 0xFFFFFFFFFFFFFFFF DUP2 GT ISZERO PUSH2 0x2158 JUMPI PUSH2 0x2157 PUSH2 0x174C JUMP JUMPDEST JUMPDEST PUSH2 0x2162 DUP3 SLOAD PUSH2 0x1F69 JUMP JUMPDEST PUSH2 0x216D DUP3 DUP3 DUP6 PUSH2 0x20AD JUMP JUMPDEST PUSH0 PUSH1 0x20 SWAP1 POP PUSH1 0x1F DUP4 GT PUSH1 0x1 DUP2 EQ PUSH2 0x219E JUMPI PUSH0 DUP5 ISZERO PUSH2 0x218C JUMPI DUP3 DUP8 ADD MLOAD SWAP1 POP JUMPDEST PUSH2 0x2196 DUP6 DUP3 PUSH2 0x211B JUMP JUMPDEST DUP7 SSTORE POP PUSH2 0x21FD JUMP JUMPDEST PUSH1 0x1F NOT DUP5 AND PUSH2 0x21AC DUP7 PUSH2 0x1F99 JUMP JUMPDEST PUSH0 JUMPDEST DUP3 DUP2 LT ISZERO PUSH2 0x21D3 JUMPI DUP5 DUP10 ADD MLOAD DUP3 SSTORE PUSH1 0x1 DUP3 ADD SWAP2 POP PUSH1 0x20 DUP6 ADD SWAP5 POP PUSH1 0x20 DUP2 ADD SWAP1 POP PUSH2 0x21AE JUMP JUMPDEST DUP7 DUP4 LT ISZERO PUSH2 0x21F0 JUMPI DUP5 DUP10 ADD MLOAD PUSH2 0x21EC PUSH1 0x1F DUP10 AND DUP3 PUSH2 0x20FF JUMP JUMPDEST DUP4 SSTORE POP JUMPDEST PUSH1 0x1 PUSH1 0x2 DUP9 MUL ADD DUP9 SSTORE POP POP POP JUMPDEST POP POP POP POP POP POP JUMP JUMPDEST PUSH32 0x696E76616C696420696400000000000000000000000000000000000000000000 PUSH0 DUP3 ADD MSTORE POP JUMP JUMPDEST PUSH0 PUSH2 0x2239 PUSH1 0xA DUP4 PUSH2 0x1C48 JUMP JUMPDEST SWAP2 POP PUSH2 0x2244 DUP3 PUSH2 0x2205 JUMP JUMPDEST PUSH1 0x20 DUP3 ADD SWAP1 POP SWAP2 SWAP1 POP JUMP JUMPDEST PUSH0 PUSH1 0x20 DUP3 ADD SWAP1 POP DUP2 DUP2 SUB PUSH0 DUP4 ADD MSTORE PUSH2 0x2266 DUP2 PUSH2 0x222D JUMP JUMPDEST SWAP1 POP SWAP2 SWAP1 POP JUMP JUMPDEST PUSH32 0x696E76616C696420616464726573730000000000000000000000000000000000 PUSH0 DUP3 ADD MSTORE POP JUMP JUMPDEST PUSH0 PUSH2 0x22A1 PUSH1 0xF DUP4 PUSH2 0x1C48 JUMP JUMPDEST SWAP2 POP PUSH2 0x22AC DUP3 PUSH2 0x226D JUMP JUMPDEST PUSH1 0x20 DUP3 ADD SWAP1 POP SWAP2 SWAP1 POP JUMP JUMPDEST PUSH0 PUSH1 0x20 DUP3 ADD SWAP1 POP DUP2 DUP2 SUB PUSH0 DUP4 ADD MSTORE PUSH2 0x22CE DUP2 PUSH2 0x2295 JUMP JUMPDEST SWAP1 POP SWAP2 SWAP1 POP JUMP JUMPDEST PUSH32 0x696E76616C696420737572766579204944000000000000000000000000000000 PUSH0 DUP3 ADD MSTORE POP JUMP JUMPDEST PUSH0 PUSH2 0x2309 PUSH1 0x11 DUP4 PUSH2 0x1C48 JUMP JUMPDEST SWAP2 POP PUSH2 0x2314 DUP3 PUSH2 0x22D5 JUMP JUMPDEST PUSH1 0x20 DUP3 ADD SWAP1 POP SWAP2 SWAP1 POP JUMP JUMPDEST PUSH0 PUSH1 0x20 DUP3 ADD SWAP1 POP DUP2 DUP2 SUB PUSH0 DUP4 ADD MSTORE PUSH2 0x2336 DUP2 PUSH2 0x22FD JUMP JUMPDEST SWAP1 POP SWAP2 SWAP1 POP JUMP JUMPDEST PUSH32 0x73757276657920697320616C726561647920696E207468652064657369726564 PUSH0 DUP3 ADD MSTORE PUSH32 0x2061637469766520737461746500000000000000000000000000000000000000 PUSH1 0x20 DUP3 ADD MSTORE POP JUMP JUMPDEST PUSH0 PUSH2 0x2397 PUSH1 0x2D DUP4 PUSH2 0x1C48 JUMP JUMPDEST SWAP2 POP PUSH2 0x23A2 DUP3 PUSH2 0x233D JUMP JUMPDEST PUSH1 0x40 DUP3 ADD SWAP1 POP SWAP2 SWAP1 POP JUMP JUMPDEST PUSH0 PUSH1 0x20 DUP3 ADD SWAP1 POP DUP2 DUP2 SUB PUSH0 DUP4 ADD MSTORE PUSH2 0x23C4 DUP2 PUSH2 0x238B JUMP JUMPDEST SWAP1 POP SWAP2 SWAP1 POP JUMP JUMPDEST PUSH0 DUP2 SWAP1 POP SWAP2 SWAP1 POP JUMP JUMPDEST PUSH0 PUSH8 0xFFFFFFFFFFFFFFFF DUP3 AND SWAP1 POP SWAP2 SWAP1 POP JUMP JUMPDEST PUSH0 PUSH2 0x2401 PUSH2 0x23FC PUSH2 0x23F7 DUP5 PUSH2 0x23CB JUMP JUMPDEST PUSH2 0x2017 JUMP JUMPDEST PUSH2 0x23D4 JUMP JUMPDEST SWAP1 POP SWAP2 SWAP1 POP JUMP JUMPDEST PUSH2 0x2411 DUP2 PUSH2 0x23E7 JUMP JUMPDEST DUP3 MSTORE POP POP JUMP JUMPDEST PUSH0 PUSH1 0x20 DUP3 ADD SWAP1 POP PUSH2 0x242A PUSH0 DUP4 ADD DUP5 PUSH2 0x2408 JUMP JUMPDEST SWAP3 SWAP2 POP POP JUMP JUMPDEST PUSH32 0x696E76616C696420726571756573740000000000000000000000000000000000 PUSH0 DUP3 ADD MSTORE POP JUMP JUMPDEST PUSH0 PUSH2 0x2464 PUSH1 0xF DUP4 PUSH2 0x1C48 JUMP JUMPDEST SWAP2 POP PUSH2 0x246F DUP3 PUSH2 0x2430 JUMP JUMPDEST PUSH1 0x20 DUP3 ADD SWAP1 POP SWAP2 SWAP1 POP JUMP JUMPDEST PUSH0 PUSH1 0x20 DUP3 ADD SWAP1 POP DUP2 DUP2 SUB PUSH0 DUP4 ADD MSTORE PUSH2 0x2491 DUP2 PUSH2 0x2458 JUMP JUMPDEST SWAP1 POP SWAP2 SWAP1 POP JUMP JUMPDEST PUSH32 0x537572766579206973206E6F7420616374697665000000000000000000000000 PUSH0 DUP3 ADD MSTORE POP JUMP JUMPDEST PUSH0 PUSH2 0x24CC PUSH1 0x14 DUP4 PUSH2 0x1C48 JUMP JUMPDEST SWAP2 POP PUSH2 0x24D7 DUP3 PUSH2 0x2498 JUMP JUMPDEST PUSH1 0x20 DUP3 ADD SWAP1 POP SWAP2 SWAP1 POP JUMP JUMPDEST PUSH0 PUSH1 0x20 DUP3 ADD SWAP1 POP DUP2 DUP2 SUB PUSH0 DUP4 ADD MSTORE PUSH2 0x24F9 DUP2 PUSH2 0x24C0 JUMP JUMPDEST SWAP1 POP SWAP2 SWAP1 POP JUMP JUMPDEST PUSH32 0x496E76616C6964206F7074696F6E20696E646578000000000000000000000000 PUSH0 DUP3 ADD MSTORE POP JUMP JUMPDEST PUSH0 PUSH2 0x2534 PUSH1 0x14 DUP4 PUSH2 0x1C48 JUMP JUMPDEST SWAP2 POP PUSH2 0x253F DUP3 PUSH2 0x2500 JUMP JUMPDEST PUSH1 0x20 DUP3 ADD SWAP1 POP SWAP2 SWAP1 POP JUMP JUMPDEST PUSH0 PUSH1 0x20 DUP3 ADD SWAP1 POP DUP2 DUP2 SUB PUSH0 DUP4 ADD MSTORE PUSH2 0x2561 DUP2 PUSH2 0x2528 JUMP JUMPDEST SWAP1 POP SWAP2 SWAP1 POP JUMP JUMPDEST PUSH32 0x557365722068617320616C726561647920766F74656400000000000000000000 PUSH0 DUP3 ADD MSTORE POP JUMP JUMPDEST PUSH0 PUSH2 0x259C PUSH1 0x16 DUP4 PUSH2 0x1C48 JUMP JUMPDEST SWAP2 POP PUSH2 0x25A7 DUP3 PUSH2 0x2568 JUMP JUMPDEST PUSH1 0x20 DUP3 ADD SWAP1 POP SWAP2 SWAP1 POP JUMP JUMPDEST PUSH0 PUSH1 0x20 DUP3 ADD SWAP1 POP DUP2 DUP2 SUB PUSH0 DUP4 ADD MSTORE PUSH2 0x25C9 DUP2 PUSH2 0x2590 JUMP JUMPDEST SWAP1 POP SWAP2 SWAP1 POP JUMP JUMPDEST PUSH32 0x6F7074696F6E496E6465782072656163686564206D6178000000000000000000 PUSH0 DUP3 ADD MSTORE POP JUMP JUMPDEST PUSH0 PUSH2 0x2604 PUSH1 0x17 DUP4 PUSH2 0x1C48 JUMP JUMPDEST SWAP2 POP PUSH2 0x260F DUP3 PUSH2 0x25D0 JUMP JUMPDEST PUSH1 0x20 DUP3 ADD SWAP1 POP SWAP2 SWAP1 POP JUMP JUMPDEST PUSH0 PUSH1 0x20 DUP3 ADD SWAP1 POP DUP2 DUP2 SUB PUSH0 DUP4 ADD MSTORE PUSH2 0x2631 DUP2 PUSH2 0x25F8 JUMP JUMPDEST SWAP1 POP SWAP2 SWAP1 POP JUMP JUMPDEST PUSH0 PUSH2 0x2642 DUP3 PUSH2 0x15FF JUMP JUMPDEST SWAP2 POP PUSH32 0xFFFFFFFFFFFFFFFFFFFFFFFFFFFFFFFFFFFFFFFFFFFFFFFFFFFFFFFFFFFFFFFF DUP3 SUB PUSH2 0x2674 JUMPI PUSH2 0x2673 PUSH2 0x1EDC JUMP JUMPDEST JUMPDEST PUSH1 0x1 DUP3 ADD SWAP1 POP SWAP2 SWAP1 POP JUMP INVALID LOG2 PUSH5 0x6970667358 0x22 SLT KECCAK256 0xC8 DUP14 PUSH11 0x3EF31AE8CC4DEB47CB3DD0 0xC6 0xF8 0xCF 0xD4 SWAP11 0xFC SHL 0xE2 TSTORE 0xB4 0xD2 0xF MSTORE8 DUP11 EQ SWAP5 SWAP6 0xD4 PUSH5 0x736F6C6343 STOP ADDMOD BYTE STOP CALLER "
				},
				"gasEstimates": {
					"creation": {
						"codeDepositCost": "1981800",
						"executionCost": "2096",
						"totalCost": "1983896"
					},
					"external": {
						"amIVoted(uint256)": "9556",
						"changeActiveStatus(uint256,bool)": "infinite",
						"createSurvey(string,string[],bool)": "infinite",
						"getSurveyCount()": "2484",
						"getSurveyOptions(uint256)": "infinite",
						"getSurveyVoteCountPerOptions(uint256)": "infinite",
						"hasVoted(address,uint256)": "7556",
						"initialize()": "infinite",
						"owner()": "2589",
						"renounceOwnership()": "infinite",
						"surveys(uint256)": "infinite",
						"transferOwnership(address)": "infinite",
						"vote(uint256,uint256)": "infinite"
					}
				},
				"methodIdentifiers": {
					"amIVoted(uint256)": "3358d9d9",
					"changeActiveStatus(uint256,bool)": "78e6b292",
					"createSurvey(string,string[],bool)": "0c4960dd",
					"getSurveyCount()": "9fe140b1",
					"getSurveyOptions(uint256)": "256a7f6b",
					"getSurveyVoteCountPerOptions(uint256)": "0a277d6d",
					"hasVoted(address,uint256)": "42545825",
					"initialize()": "8129fc1c",
					"owner()": "8da5cb5b",
					"renounceOwnership()": "715018a6",
					"surveys(uint256)": "86e68b90",
					"transferOwnership(address)": "f2fde38b",
					"vote(uint256,uint256)": "b384abef"
				}
			},
			"storageLayout": {
				"storage": [
					{
						"astId": 822,
						"contract": "contracts/Crumb.sol:Crumb",
						"label": "surveys",
						"offset": 0,
						"slot": "0",
						"type": "t_array(t_struct(Survey)818_storage)dyn_storage"
					}
				],
				"types": {
					"t_address": {
						"encoding": "inplace",
						"label": "address",
						"numberOfBytes": "20"
					},
					"t_array(t_string_storage)dyn_storage": {
						"base": "t_string_storage",
						"encoding": "dynamic_array",
						"label": "string[]",
						"numberOfBytes": "32"
					},
					"t_array(t_struct(Survey)818_storage)dyn_storage": {
						"base": "t_struct(Survey)818_storage",
						"encoding": "dynamic_array",
						"label": "struct Crumb.Survey[]",
						"numberOfBytes": "32"
					},
					"t_array(t_uint256)dyn_storage": {
						"base": "t_uint256",
						"encoding": "dynamic_array",
						"label": "uint256[]",
						"numberOfBytes": "32"
					},
					"t_bool": {
						"encoding": "inplace",
						"label": "bool",
						"numberOfBytes": "1"
					},
					"t_mapping(t_address,t_bool)": {
						"encoding": "mapping",
						"key": "t_address",
						"label": "mapping(address => bool)",
						"numberOfBytes": "32",
						"value": "t_bool"
					},
					"t_string_storage": {
						"encoding": "bytes",
						"label": "string",
						"numberOfBytes": "32"
					},
					"t_struct(Survey)818_storage": {
						"encoding": "inplace",
						"label": "struct Crumb.Survey",
						"members": [
							{
								"astId": 805,
								"contract": "contracts/Crumb.sol:Crumb",
								"label": "question",
								"offset": 0,
								"slot": "0",
								"type": "t_string_storage"
							},
							{
								"astId": 808,
								"contract": "contracts/Crumb.sol:Crumb",
								"label": "options",
								"offset": 0,
								"slot": "1",
								"type": "t_array(t_string_storage)dyn_storage"
							},
							{
								"astId": 811,
								"contract": "contracts/Crumb.sol:Crumb",
								"label": "voteCountPerOptions",
								"offset": 0,
								"slot": "2",
								"type": "t_array(t_uint256)dyn_storage"
							},
							{
								"astId": 813,
								"contract": "contracts/Crumb.sol:Crumb",
								"label": "isActive",
								"offset": 0,
								"slot": "3",
								"type": "t_bool"
							},
							{
								"astId": 817,
								"contract": "contracts/Crumb.sol:Crumb",
								"label": "hasVoted",
								"offset": 0,
								"slot": "4",
								"type": "t_mapping(t_address,t_bool)"
							}
						],
						"numberOfBytes": "160"
					},
					"t_uint256": {
						"encoding": "inplace",
						"label": "uint256",
						"numberOfBytes": "32"
					}
				}
			},
			"userdoc": {
				"kind": "user",
				"methods": {},
				"version": 1
			}
		}
	}
}