{
	"contracts/Soboro.sol": {
		"Soboro": {
			"abi": [
				{
					"inputs": [],
					"stateMutability": "nonpayable",
					"type": "constructor"
				},
				{
					"inputs": [
						{
							"internalType": "uint256",
							"name": "increasedSupply",
							"type": "uint256"
						},
						{
							"internalType": "uint256",
							"name": "cap",
							"type": "uint256"
						}
					],
					"name": "ERC20ExceededCap",
					"type": "error"
				},
				{
					"inputs": [
						{
							"internalType": "address",
							"name": "spender",
							"type": "address"
						},
						{
							"internalType": "uint256",
							"name": "allowance",
							"type": "uint256"
						},
						{
							"internalType": "uint256",
							"name": "needed",
							"type": "uint256"
						}
					],
					"name": "ERC20InsufficientAllowance",
					"type": "error"
				},
				{
					"inputs": [
						{
							"internalType": "address",
							"name": "sender",
							"type": "address"
						},
						{
							"internalType": "uint256",
							"name": "balance",
							"type": "uint256"
						},
						{
							"internalType": "uint256",
							"name": "needed",
							"type": "uint256"
						}
					],
					"name": "ERC20InsufficientBalance",
					"type": "error"
				},
				{
					"inputs": [
						{
							"internalType": "address",
							"name": "approver",
							"type": "address"
						}
					],
					"name": "ERC20InvalidApprover",
					"type": "error"
				},
				{
					"inputs": [
						{
							"internalType": "uint256",
							"name": "cap",
							"type": "uint256"
						}
					],
					"name": "ERC20InvalidCap",
					"type": "error"
				},
				{
					"inputs": [
						{
							"internalType": "address",
							"name": "receiver",
							"type": "address"
						}
					],
					"name": "ERC20InvalidReceiver",
					"type": "error"
				},
				{
					"inputs": [
						{
							"internalType": "address",
							"name": "sender",
							"type": "address"
						}
					],
					"name": "ERC20InvalidSender",
					"type": "error"
				},
				{
					"inputs": [
						{
							"internalType": "address",
							"name": "spender",
							"type": "address"
						}
					],
					"name": "ERC20InvalidSpender",
					"type": "error"
				},
				{
					"inputs": [
						{
							"internalType": "address",
							"name": "owner",
							"type": "address"
						}
					],
					"name": "OwnableInvalidOwner",
					"type": "error"
				},
				{
					"inputs": [
						{
							"internalType": "address",
							"name": "account",
							"type": "address"
						}
					],
					"name": "OwnableUnauthorizedAccount",
					"type": "error"
				},
				{
					"anonymous": false,
					"inputs": [
						{
							"indexed": true,
							"internalType": "address",
							"name": "owner",
							"type": "address"
						},
						{
							"indexed": true,
							"internalType": "address",
							"name": "spender",
							"type": "address"
						},
						{
							"indexed": false,
							"internalType": "uint256",
							"name": "value",
							"type": "uint256"
						}
					],
					"name": "Approval",
					"type": "event"
				},
				{
					"anonymous": false,
					"inputs": [
						{
							"indexed": true,
							"internalType": "address",
							"name": "previousOwner",
							"type": "address"
						},
						{
							"indexed": true,
							"internalType": "address",
							"name": "newOwner",
							"type": "address"
						}
					],
					"name": "OwnershipTransferred",
					"type": "event"
				},
				{
					"anonymous": false,
					"inputs": [
						{
							"indexed": true,
							"internalType": "address",
							"name": "from",
							"type": "address"
						},
						{
							"indexed": true,
							"internalType": "address",
							"name": "to",
							"type": "address"
						},
						{
							"indexed": false,
							"internalType": "uint256",
							"name": "value",
							"type": "uint256"
						}
					],
					"name": "Transfer",
					"type": "event"
				},
				{
					"inputs": [
						{
							"internalType": "address",
							"name": "owner",
							"type": "address"
						},
						{
							"internalType": "address",
							"name": "spender",
							"type": "address"
						}
					],
					"name": "allowance",
					"outputs": [
						{
							"internalType": "uint256",
							"name": "",
							"type": "uint256"
						}
					],
					"stateMutability": "view",
					"type": "function"
				},
				{
					"inputs": [
						{
							"internalType": "address",
							"name": "spender",
							"type": "address"
						},
						{
							"internalType": "uint256",
							"name": "value",
							"type": "uint256"
						}
					],
					"name": "approve",
					"outputs": [
						{
							"internalType": "bool",
							"name": "",
							"type": "bool"
						}
					],
					"stateMutability": "nonpayable",
					"type": "function"
				},
				{
					"inputs": [
						{
							"internalType": "address",
							"name": "account",
							"type": "address"
						}
					],
					"name": "balanceOf",
					"outputs": [
						{
							"internalType": "uint256",
							"name": "",
							"type": "uint256"
						}
					],
					"stateMutability": "view",
					"type": "function"
				},
				{
					"inputs": [
						{
							"internalType": "uint256",
							"name": "value",
							"type": "uint256"
						}
					],
					"name": "burn",
					"outputs": [],
					"stateMutability": "nonpayable",
					"type": "function"
				},
				{
					"inputs": [
						{
							"internalType": "address",
							"name": "account",
							"type": "address"
						},
						{
							"internalType": "uint256",
							"name": "value",
							"type": "uint256"
						}
					],
					"name": "burnFrom",
					"outputs": [],
					"stateMutability": "nonpayable",
					"type": "function"
				},
				{
					"inputs": [],
					"name": "cap",
					"outputs": [
						{
							"internalType": "uint256",
							"name": "",
							"type": "uint256"
						}
					],
					"stateMutability": "view",
					"type": "function"
				},
				{
					"inputs": [],
					"name": "createCrumbContract",
					"outputs": [],
					"stateMutability": "nonpayable",
					"type": "function"
				},
				{
					"inputs": [],
					"name": "decimals",
					"outputs": [
						{
							"internalType": "uint8",
							"name": "",
							"type": "uint8"
						}
					],
					"stateMutability": "view",
					"type": "function"
				},
				{
					"inputs": [],
					"name": "name",
					"outputs": [
						{
							"internalType": "string",
							"name": "",
							"type": "string"
						}
					],
					"stateMutability": "view",
					"type": "function"
				},
				{
					"inputs": [],
					"name": "owner",
					"outputs": [
						{
							"internalType": "address",
							"name": "",
							"type": "address"
						}
					],
					"stateMutability": "view",
					"type": "function"
				},
				{
					"inputs": [],
					"name": "renounceOwnership",
					"outputs": [],
					"stateMutability": "nonpayable",
					"type": "function"
				},
				{
					"inputs": [
						{
							"internalType": "string",
							"name": "_question",
							"type": "string"
						},
						{
							"internalType": "string[]",
							"name": "_options",
							"type": "string[]"
						},
						{
							"internalType": "bool",
							"name": "_initialActiveState",
							"type": "bool"
						}
					],
					"name": "requestSurveyCreationOnCrumb",
					"outputs": [],
					"stateMutability": "nonpayable",
					"type": "function"
				},
				{
					"inputs": [],
					"name": "symbol",
					"outputs": [
						{
							"internalType": "string",
							"name": "",
							"type": "string"
						}
					],
					"stateMutability": "view",
					"type": "function"
				},
				{
					"inputs": [],
					"name": "totalSupply",
					"outputs": [
						{
							"internalType": "uint256",
							"name": "",
							"type": "uint256"
						}
					],
					"stateMutability": "view",
					"type": "function"
				},
				{
					"inputs": [
						{
							"internalType": "address",
							"name": "to",
							"type": "address"
						},
						{
							"internalType": "uint256",
							"name": "value",
							"type": "uint256"
						}
					],
					"name": "transfer",
					"outputs": [
						{
							"internalType": "bool",
							"name": "",
							"type": "bool"
						}
					],
					"stateMutability": "nonpayable",
					"type": "function"
				},
				{
					"inputs": [
						{
							"internalType": "address",
							"name": "from",
							"type": "address"
						},
						{
							"internalType": "address",
							"name": "to",
							"type": "address"
						},
						{
							"internalType": "uint256",
							"name": "value",
							"type": "uint256"
						}
					],
					"name": "transferFrom",
					"outputs": [
						{
							"internalType": "bool",
							"name": "",
							"type": "bool"
						}
					],
					"stateMutability": "nonpayable",
					"type": "function"
				},
				{
					"inputs": [
						{
							"internalType": "address",
							"name": "newOwner",
							"type": "address"
						}
					],
					"name": "transferOwnership",
					"outputs": [],
					"stateMutability": "nonpayable",
					"type": "function"
				}
			],
			"devdoc": {
				"errors": {
					"ERC20ExceededCap(uint256,uint256)": [
						{
							"details": "Total supply cap has been exceeded."
						}
					],
					"ERC20InsufficientAllowance(address,uint256,uint256)": [
						{
							"details": "Indicates a failure with the `spender`’s `allowance`. Used in transfers.",
							"params": {
								"allowance": "Amount of tokens a `spender` is allowed to operate with.",
								"needed": "Minimum amount required to perform a transfer.",
								"spender": "Address that may be allowed to operate on tokens without being their owner."
							}
						}
					],
					"ERC20InsufficientBalance(address,uint256,uint256)": [
						{
							"details": "Indicates an error related to the current `balance` of a `sender`. Used in transfers.",
							"params": {
								"balance": "Current balance for the interacting account.",
								"needed": "Minimum amount required to perform a transfer.",
								"sender": "Address whose tokens are being transferred."
							}
						}
					],
					"ERC20InvalidApprover(address)": [
						{
							"details": "Indicates a failure with the `approver` of a token to be approved. Used in approvals.",
							"params": {
								"approver": "Address initiating an approval operation."
							}
						}
					],
					"ERC20InvalidCap(uint256)": [
						{
							"details": "The supplied cap is not a valid cap."
						}
					],
					"ERC20InvalidReceiver(address)": [
						{
							"details": "Indicates a failure with the token `receiver`. Used in transfers.",
							"params": {
								"receiver": "Address to which tokens are being transferred."
							}
						}
					],
					"ERC20InvalidSender(address)": [
						{
							"details": "Indicates a failure with the token `sender`. Used in transfers.",
							"params": {
								"sender": "Address whose tokens are being transferred."
							}
						}
					],
					"ERC20InvalidSpender(address)": [
						{
							"details": "Indicates a failure with the `spender` to be approved. Used in approvals.",
							"params": {
								"spender": "Address that may be allowed to operate on tokens without being their owner."
							}
						}
					],
					"OwnableInvalidOwner(address)": [
						{
							"details": "The owner is not a valid owner account. (eg. `address(0)`)"
						}
					],
					"OwnableUnauthorizedAccount(address)": [
						{
							"details": "The caller account is not authorized to perform an operation."
						}
					]
				},
				"events": {
					"Approval(address,address,uint256)": {
						"details": "Emitted when the allowance of a `spender` for an `owner` is set by a call to {approve}. `value` is the new allowance."
					},
					"Transfer(address,address,uint256)": {
						"details": "Emitted when `value` tokens are moved from one account (`from`) to another (`to`). Note that `value` may be zero."
					}
				},
				"kind": "dev",
				"methods": {
					"allowance(address,address)": {
						"details": "See {IERC20-allowance}."
					},
					"approve(address,uint256)": {
						"details": "See {IERC20-approve}. NOTE: If `value` is the maximum `uint256`, the allowance is not updated on `transferFrom`. This is semantically equivalent to an infinite approval. Requirements: - `spender` cannot be the zero address."
					},
					"balanceOf(address)": {
						"details": "See {IERC20-balanceOf}."
					},
					"burn(uint256)": {
						"details": "Destroys a `value` amount of tokens from the caller. See {ERC20-_burn}."
					},
					"burnFrom(address,uint256)": {
						"details": "Destroys a `value` amount of tokens from `account`, deducting from the caller's allowance. See {ERC20-_burn} and {ERC20-allowance}. Requirements: - the caller must have allowance for ``accounts``'s tokens of at least `value`."
					},
					"cap()": {
						"details": "Returns the cap on the token's total supply."
					},
					"decimals()": {
						"details": "Returns the number of decimals used to get its user representation. For example, if `decimals` equals `2`, a balance of `505` tokens should be displayed to a user as `5.05` (`505 / 10 ** 2`). Tokens usually opt for a value of 18, imitating the relationship between Ether and Wei. This is the default value returned by this function, unless it's overridden. NOTE: This information is only used for _display_ purposes: it in no way affects any of the arithmetic of the contract, including {IERC20-balanceOf} and {IERC20-transfer}."
					},
					"name()": {
						"details": "Returns the name of the token."
					},
					"owner()": {
						"details": "Returns the address of the current owner."
					},
					"renounceOwnership()": {
						"details": "Leaves the contract without owner. It will not be possible to call `onlyOwner` functions. Can only be called by the current owner. NOTE: Renouncing ownership will leave the contract without an owner, thereby disabling any functionality that is only available to the owner."
					},
					"symbol()": {
						"details": "Returns the symbol of the token, usually a shorter version of the name."
					},
					"totalSupply()": {
						"details": "See {IERC20-totalSupply}."
					},
					"transfer(address,uint256)": {
						"details": "See {IERC20-transfer}. Requirements: - `to` cannot be the zero address. - the caller must have a balance of at least `value`."
					},
					"transferFrom(address,address,uint256)": {
						"details": "See {IERC20-transferFrom}. Skips emitting an {Approval} event indicating an allowance update. This is not required by the ERC. See {xref-ERC20-_approve-address-address-uint256-bool-}[_approve]. NOTE: Does not update the allowance if the current allowance is the maximum `uint256`. Requirements: - `from` and `to` cannot be the zero address. - `from` must have a balance of at least `value`. - the caller must have allowance for ``from``'s tokens of at least `value`."
					},
					"transferOwnership(address)": {
						"details": "Transfers ownership of the contract to a new account (`newOwner`). Can only be called by the current owner."
					}
				},
				"version": 1
			},
			"evm": {
				"assembly": "    /* \"contracts/Soboro.sol\":421:1941  contract Soboro is ERC20, ERC20Capped, ERC20Burnable, Ownable {... */\n  mstore(0x40, 0xa0)\n    /* \"contracts/Soboro.sol\":705:706  0 */\n  0x00\n    /* \"contracts/Soboro.sol\":679:706  uint private crumbGenID = 0 */\n  0x07\n  sstore\n    /* \"contracts/Soboro.sol\":746:748  50 */\n  0x32\n    /* \"contracts/Soboro.sol\":712:748  uint private maxSurveysPerCrumb = 50 */\n  0x08\n  sstore\n    /* \"contracts/Soboro.sol\":784:906  constructor() ERC20(\"Soboro\", \"SBR\") ERC20Capped(MAX_SUPPLY) Ownable(msg.sender) {... */\n  callvalue\n  dup1\n  iszero\n  tag_1\n  jumpi\n  0x00\n  dup1\n  revert\ntag_1:\n  pop\n    /* \"contracts/Soboro.sol\":853:863  msg.sender */\n  caller\n    /* \"contracts/Soboro.sol\":620:626  10**11 */\n  0x174876e800\n    /* \"@openzeppelin/contracts/token/ERC20/ERC20.sol\":1582:1695  constructor(string memory name_, string memory symbol_) {... */\n  mload(0x40)\n  dup1\n  0x40\n  add\n  0x40\n  mstore\n  dup1\n  0x06\n  dup2\n  mstore\n  0x20\n  add\n  0x536f626f726f0000000000000000000000000000000000000000000000000000\n  dup2\n  mstore\n  pop\n  mload(0x40)\n  dup1\n  0x40\n  add\n  0x40\n  mstore\n  dup1\n  0x03\n  dup2\n  mstore\n  0x20\n  add\n  0x5342520000000000000000000000000000000000000000000000000000000000\n  dup2\n  mstore\n  pop\n    /* \"@openzeppelin/contracts/token/ERC20/ERC20.sol\":1656:1661  name_ */\n  dup2\n    /* \"@openzeppelin/contracts/token/ERC20/ERC20.sol\":1648:1653  _name */\n  0x03\n    /* \"@openzeppelin/contracts/token/ERC20/ERC20.sol\":1648:1661  _name = name_ */\n  swap1\n  dup2\n  tag_7\n  swap2\n  swap1\n  tag_8\n  jump\t// in\ntag_7:\n  pop\n    /* \"@openzeppelin/contracts/token/ERC20/ERC20.sol\":1681:1688  symbol_ */\n  dup1\n    /* \"@openzeppelin/contracts/token/ERC20/ERC20.sol\":1671:1678  _symbol */\n  0x04\n    /* \"@openzeppelin/contracts/token/ERC20/ERC20.sol\":1671:1688  _symbol = symbol_ */\n  swap1\n  dup2\n  tag_9\n  swap2\n  swap1\n  tag_8\n  jump\t// in\ntag_9:\n  pop\n    /* \"@openzeppelin/contracts/token/ERC20/ERC20.sol\":1582:1695  constructor(string memory name_, string memory symbol_) {... */\n  pop\n  pop\n    /* \"@openzeppelin/contracts/token/ERC20/extensions/ERC20Capped.sol\":764:765  0 */\n  0x00\n    /* \"@openzeppelin/contracts/token/ERC20/extensions/ERC20Capped.sol\":756:760  cap_ */\n  dup2\n    /* \"@openzeppelin/contracts/token/ERC20/extensions/ERC20Capped.sol\":756:765  cap_ == 0 */\n  sub\n    /* \"@openzeppelin/contracts/token/ERC20/extensions/ERC20Capped.sol\":752:817  if (cap_ == 0) {... */\n  tag_11\n  jumpi\n    /* \"@openzeppelin/contracts/token/ERC20/extensions/ERC20Capped.sol\":804:805  0 */\n  0x00\n    /* \"@openzeppelin/contracts/token/ERC20/extensions/ERC20Capped.sol\":788:806  ERC20InvalidCap(0) */\n  mload(0x40)\n  0x392e1e2700000000000000000000000000000000000000000000000000000000\n  dup2\n  mstore\n  0x04\n  add\n  tag_12\n  swap2\n  swap1\n  tag_13\n  jump\t// in\ntag_12:\n  mload(0x40)\n  dup1\n  swap2\n  sub\n  swap1\n  revert\n    /* \"@openzeppelin/contracts/token/ERC20/extensions/ERC20Capped.sol\":752:817  if (cap_ == 0) {... */\ntag_11:\n    /* \"@openzeppelin/contracts/token/ERC20/extensions/ERC20Capped.sol\":833:837  cap_ */\n  dup1\n    /* \"@openzeppelin/contracts/token/ERC20/extensions/ERC20Capped.sol\":826:837  _cap = cap_ */\n  0x80\n  dup2\n  dup2\n  mstore\n  pop\n  pop\n    /* \"@openzeppelin/contracts/token/ERC20/extensions/ERC20Capped.sol\":716:844  constructor(uint256 cap_) {... */\n  pop\n    /* \"@openzeppelin/contracts/access/Ownable.sol\":1297:1298  0 */\n  0x00\n    /* \"@openzeppelin/contracts/access/Ownable.sol\":1273:1299  initialOwner == address(0) */\n  0xffffffffffffffffffffffffffffffffffffffff\n  and\n    /* \"@openzeppelin/contracts/access/Ownable.sol\":1273:1285  initialOwner */\n  dup2\n    /* \"@openzeppelin/contracts/access/Ownable.sol\":1273:1299  initialOwner == address(0) */\n  0xffffffffffffffffffffffffffffffffffffffff\n  and\n  sub\n    /* \"@openzeppelin/contracts/access/Ownable.sol\":1269:1364  if (initialOwner == address(0)) {... */\n  tag_15\n  jumpi\n    /* \"@openzeppelin/contracts/access/Ownable.sol\":1350:1351  0 */\n  0x00\n    /* \"@openzeppelin/contracts/access/Ownable.sol\":1322:1353  OwnableInvalidOwner(address(0)) */\n  mload(0x40)\n  0x1e4fbdf700000000000000000000000000000000000000000000000000000000\n  dup2\n  mstore\n  0x04\n  add\n  tag_16\n  swap2\n  swap1\n  tag_17\n  jump\t// in\ntag_16:\n  mload(0x40)\n  dup1\n  swap2\n  sub\n  swap1\n  revert\n    /* \"@openzeppelin/contracts/access/Ownable.sol\":1269:1364  if (initialOwner == address(0)) {... */\ntag_15:\n    /* \"@openzeppelin/contracts/access/Ownable.sol\":1373:1405  _transferOwnership(initialOwner) */\n  tag_18\n    /* \"@openzeppelin/contracts/access/Ownable.sol\":1392:1404  initialOwner */\n  dup2\n    /* \"@openzeppelin/contracts/access/Ownable.sol\":1373:1391  _transferOwnership */\n  shl(0x20, tag_19)\n    /* \"@openzeppelin/contracts/access/Ownable.sol\":1373:1405  _transferOwnership(initialOwner) */\n  0x20\n  shr\n  jump\t// in\ntag_18:\n    /* \"@openzeppelin/contracts/access/Ownable.sol\":1225:1412  constructor(address initialOwner) {... */\n  pop\n    /* \"contracts/Soboro.sol\":875:899  _mint(msg.sender, 10**5) */\n  tag_21\n    /* \"contracts/Soboro.sol\":881:891  msg.sender */\n  caller\n    /* \"contracts/Soboro.sol\":893:898  10**5 */\n  0x0186a0\n    /* \"contracts/Soboro.sol\":875:880  _mint */\n  shl(0x20, tag_22)\n    /* \"contracts/Soboro.sol\":875:899  _mint(msg.sender, 10**5) */\n  0x20\n  shr\n  jump\t// in\ntag_21:\n    /* \"contracts/Soboro.sol\":421:1941  contract Soboro is ERC20, ERC20Capped, ERC20Burnable, Ownable {... */\n  jump(tag_23)\n    /* \"@openzeppelin/contracts/access/Ownable.sol\":2912:3099  function _transferOwnership(address newOwner) internal virtual {... */\ntag_19:\n    /* \"@openzeppelin/contracts/access/Ownable.sol\":2985:3001  address oldOwner */\n  0x00\n    /* \"@openzeppelin/contracts/access/Ownable.sol\":3004:3010  _owner */\n  0x05\n  0x00\n  swap1\n  sload\n  swap1\n  0x0100\n  exp\n  swap1\n  div\n  0xffffffffffffffffffffffffffffffffffffffff\n  and\n    /* \"@openzeppelin/contracts/access/Ownable.sol\":2985:3010  address oldOwner = _owner */\n  swap1\n  pop\n    /* \"@openzeppelin/contracts/access/Ownable.sol\":3029:3037  newOwner */\n  dup2\n    /* \"@openzeppelin/contracts/access/Ownable.sol\":3020:3026  _owner */\n  0x05\n  0x00\n    /* \"@openzeppelin/contracts/access/Ownable.sol\":3020:3037  _owner = newOwner */\n  0x0100\n  exp\n  dup2\n  sload\n  dup2\n  0xffffffffffffffffffffffffffffffffffffffff\n  mul\n  not\n  and\n  swap1\n  dup4\n  0xffffffffffffffffffffffffffffffffffffffff\n  and\n  mul\n  or\n  swap1\n  sstore\n  pop\n    /* \"@openzeppelin/contracts/access/Ownable.sol\":3083:3091  newOwner */\n  dup2\n    /* \"@openzeppelin/contracts/access/Ownable.sol\":3052:3092  OwnershipTransferred(oldOwner, newOwner) */\n  0xffffffffffffffffffffffffffffffffffffffff\n  and\n    /* \"@openzeppelin/contracts/access/Ownable.sol\":3073:3081  oldOwner */\n  dup2\n    /* \"@openzeppelin/contracts/access/Ownable.sol\":3052:3092  OwnershipTransferred(oldOwner, newOwner) */\n  0xffffffffffffffffffffffffffffffffffffffff\n  and\n  0x8be0079c531659141344cd1fd0a4f28419497f9722a3daafe3b4186f6b6457e0\n  mload(0x40)\n  mload(0x40)\n  dup1\n  swap2\n  sub\n  swap1\n  log3\n    /* \"@openzeppelin/contracts/access/Ownable.sol\":2975:3099  {... */\n  pop\n    /* \"@openzeppelin/contracts/access/Ownable.sol\":2912:3099  function _transferOwnership(address newOwner) internal virtual {... */\n  pop\n  jump\t// out\n    /* \"@openzeppelin/contracts/token/ERC20/ERC20.sol\":7439:7647  function _mint(address account, uint256 value) internal {... */\ntag_22:\n    /* \"@openzeppelin/contracts/token/ERC20/ERC20.sol\":7528:7529  0 */\n  0x00\n    /* \"@openzeppelin/contracts/token/ERC20/ERC20.sol\":7509:7530  account == address(0) */\n  0xffffffffffffffffffffffffffffffffffffffff\n  and\n    /* \"@openzeppelin/contracts/token/ERC20/ERC20.sol\":7509:7516  account */\n  dup3\n    /* \"@openzeppelin/contracts/token/ERC20/ERC20.sol\":7509:7530  account == address(0) */\n  0xffffffffffffffffffffffffffffffffffffffff\n  and\n  sub\n    /* \"@openzeppelin/contracts/token/ERC20/ERC20.sol\":7505:7596  if (account == address(0)) {... */\n  tag_26\n  jumpi\n    /* \"@openzeppelin/contracts/token/ERC20/ERC20.sol\":7582:7583  0 */\n  0x00\n    /* \"@openzeppelin/contracts/token/ERC20/ERC20.sol\":7553:7585  ERC20InvalidReceiver(address(0)) */\n  mload(0x40)\n  0xec442f0500000000000000000000000000000000000000000000000000000000\n  dup2\n  mstore\n  0x04\n  add\n  tag_27\n  swap2\n  swap1\n  tag_17\n  jump\t// in\ntag_27:\n  mload(0x40)\n  dup1\n  swap2\n  sub\n  swap1\n  revert\n    /* \"@openzeppelin/contracts/token/ERC20/ERC20.sol\":7505:7596  if (account == address(0)) {... */\ntag_26:\n    /* \"@openzeppelin/contracts/token/ERC20/ERC20.sol\":7605:7640  _update(address(0), account, value) */\n  tag_28\n    /* \"@openzeppelin/contracts/token/ERC20/ERC20.sol\":7621:7622  0 */\n  0x00\n    /* \"@openzeppelin/contracts/token/ERC20/ERC20.sol\":7625:7632  account */\n  dup4\n    /* \"@openzeppelin/contracts/token/ERC20/ERC20.sol\":7634:7639  value */\n  dup4\n    /* \"@openzeppelin/contracts/token/ERC20/ERC20.sol\":7605:7612  _update */\n  shl(0x20, tag_29)\n    /* \"@openzeppelin/contracts/token/ERC20/ERC20.sol\":7605:7640  _update(address(0), account, value) */\n  0x20\n  shr\n  jump\t// in\ntag_28:\n    /* \"@openzeppelin/contracts/token/ERC20/ERC20.sol\":7439:7647  function _mint(address account, uint256 value) internal {... */\n  pop\n  pop\n  jump\t// out\n    /* \"contracts/Soboro.sol\":912:1055  function _update(address from, address to, uint256 value) internal override(ERC20, ERC20Capped) {... */\ntag_29:\n    /* \"contracts/Soboro.sol\":1018:1048  super._update(from, to, value) */\n  tag_31\n    /* \"contracts/Soboro.sol\":1032:1036  from */\n  dup4\n    /* \"contracts/Soboro.sol\":1038:1040  to */\n  dup4\n    /* \"contracts/Soboro.sol\":1042:1047  value */\n  dup4\n    /* \"contracts/Soboro.sol\":1018:1031  super._update */\n  shl(0x20, tag_32)\n    /* \"contracts/Soboro.sol\":1018:1048  super._update(from, to, value) */\n  0x20\n  shr\n  jump\t// in\ntag_31:\n    /* \"contracts/Soboro.sol\":912:1055  function _update(address from, address to, uint256 value) internal override(ERC20, ERC20Capped) {... */\n  pop\n  pop\n  pop\n  jump\t// out\n    /* \"@openzeppelin/contracts/token/ERC20/extensions/ERC20Capped.sol\":1059:1430  function _update(address from, address to, uint256 value) internal virtual override {... */\ntag_32:\n    /* \"@openzeppelin/contracts/token/ERC20/extensions/ERC20Capped.sol\":1153:1183  super._update(from, to, value) */\n  tag_34\n    /* \"@openzeppelin/contracts/token/ERC20/extensions/ERC20Capped.sol\":1167:1171  from */\n  dup4\n    /* \"@openzeppelin/contracts/token/ERC20/extensions/ERC20Capped.sol\":1173:1175  to */\n  dup4\n    /* \"@openzeppelin/contracts/token/ERC20/extensions/ERC20Capped.sol\":1177:1182  value */\n  dup4\n    /* \"@openzeppelin/contracts/token/ERC20/extensions/ERC20Capped.sol\":1153:1166  super._update */\n  shl(0x20, tag_35)\n    /* \"@openzeppelin/contracts/token/ERC20/extensions/ERC20Capped.sol\":1153:1183  super._update(from, to, value) */\n  0x20\n  shr\n  jump\t// in\ntag_34:\n    /* \"@openzeppelin/contracts/token/ERC20/extensions/ERC20Capped.sol\":1214:1215  0 */\n  0x00\n    /* \"@openzeppelin/contracts/token/ERC20/extensions/ERC20Capped.sol\":1198:1216  from == address(0) */\n  0xffffffffffffffffffffffffffffffffffffffff\n  and\n    /* \"@openzeppelin/contracts/token/ERC20/extensions/ERC20Capped.sol\":1198:1202  from */\n  dup4\n    /* \"@openzeppelin/contracts/token/ERC20/extensions/ERC20Capped.sol\":1198:1216  from == address(0) */\n  0xffffffffffffffffffffffffffffffffffffffff\n  and\n  sub\n    /* \"@openzeppelin/contracts/token/ERC20/extensions/ERC20Capped.sol\":1194:1424  if (from == address(0)) {... */\n  tag_36\n  jumpi\n    /* \"@openzeppelin/contracts/token/ERC20/extensions/ERC20Capped.sol\":1232:1249  uint256 maxSupply */\n  0x00\n    /* \"@openzeppelin/contracts/token/ERC20/extensions/ERC20Capped.sol\":1252:1257  cap() */\n  tag_37\n    /* \"@openzeppelin/contracts/token/ERC20/extensions/ERC20Capped.sol\":1252:1255  cap */\n  shl(0x20, tag_38)\n    /* \"@openzeppelin/contracts/token/ERC20/extensions/ERC20Capped.sol\":1252:1257  cap() */\n  0x20\n  shr\n  jump\t// in\ntag_37:\n    /* \"@openzeppelin/contracts/token/ERC20/extensions/ERC20Capped.sol\":1232:1257  uint256 maxSupply = cap() */\n  swap1\n  pop\n    /* \"@openzeppelin/contracts/token/ERC20/extensions/ERC20Capped.sol\":1271:1285  uint256 supply */\n  0x00\n    /* \"@openzeppelin/contracts/token/ERC20/extensions/ERC20Capped.sol\":1288:1301  totalSupply() */\n  tag_39\n    /* \"@openzeppelin/contracts/token/ERC20/extensions/ERC20Capped.sol\":1288:1299  totalSupply */\n  shl(0x20, tag_40)\n    /* \"@openzeppelin/contracts/token/ERC20/extensions/ERC20Capped.sol\":1288:1301  totalSupply() */\n  0x20\n  shr\n  jump\t// in\ntag_39:\n    /* \"@openzeppelin/contracts/token/ERC20/extensions/ERC20Capped.sol\":1271:1301  uint256 supply = totalSupply() */\n  swap1\n  pop\n    /* \"@openzeppelin/contracts/token/ERC20/extensions/ERC20Capped.sol\":1328:1337  maxSupply */\n  dup2\n    /* \"@openzeppelin/contracts/token/ERC20/extensions/ERC20Capped.sol\":1319:1325  supply */\n  dup2\n    /* \"@openzeppelin/contracts/token/ERC20/extensions/ERC20Capped.sol\":1319:1337  supply > maxSupply */\n  gt\n    /* \"@openzeppelin/contracts/token/ERC20/extensions/ERC20Capped.sol\":1315:1414  if (supply > maxSupply) {... */\n  iszero\n  tag_41\n  jumpi\n    /* \"@openzeppelin/contracts/token/ERC20/extensions/ERC20Capped.sol\":1381:1387  supply */\n  dup1\n    /* \"@openzeppelin/contracts/token/ERC20/extensions/ERC20Capped.sol\":1389:1398  maxSupply */\n  dup3\n    /* \"@openzeppelin/contracts/token/ERC20/extensions/ERC20Capped.sol\":1364:1399  ERC20ExceededCap(supply, maxSupply) */\n  mload(0x40)\n  0x9e79f85400000000000000000000000000000000000000000000000000000000\n  dup2\n  mstore\n  0x04\n  add\n  tag_42\n  swap3\n  swap2\n  swap1\n  tag_43\n  jump\t// in\ntag_42:\n  mload(0x40)\n  dup1\n  swap2\n  sub\n  swap1\n  revert\n    /* \"@openzeppelin/contracts/token/ERC20/extensions/ERC20Capped.sol\":1315:1414  if (supply > maxSupply) {... */\ntag_41:\n    /* \"@openzeppelin/contracts/token/ERC20/extensions/ERC20Capped.sol\":1218:1424  {... */\n  pop\n  pop\n    /* \"@openzeppelin/contracts/token/ERC20/extensions/ERC20Capped.sol\":1194:1424  if (from == address(0)) {... */\ntag_36:\n    /* \"@openzeppelin/contracts/token/ERC20/extensions/ERC20Capped.sol\":1059:1430  function _update(address from, address to, uint256 value) internal virtual override {... */\n  pop\n  pop\n  pop\n  jump\t// out\n    /* \"@openzeppelin/contracts/token/ERC20/ERC20.sol\":5989:7096  function _update(address from, address to, uint256 value) internal virtual {... */\ntag_35:\n    /* \"@openzeppelin/contracts/token/ERC20/ERC20.sol\":6094:6095  0 */\n  0x00\n    /* \"@openzeppelin/contracts/token/ERC20/ERC20.sol\":6078:6096  from == address(0) */\n  0xffffffffffffffffffffffffffffffffffffffff\n  and\n    /* \"@openzeppelin/contracts/token/ERC20/ERC20.sol\":6078:6082  from */\n  dup4\n    /* \"@openzeppelin/contracts/token/ERC20/ERC20.sol\":6078:6096  from == address(0) */\n  0xffffffffffffffffffffffffffffffffffffffff\n  and\n  sub\n    /* \"@openzeppelin/contracts/token/ERC20/ERC20.sol\":6074:6614  if (from == address(0)) {... */\n  tag_45\n  jumpi\n    /* \"@openzeppelin/contracts/token/ERC20/ERC20.sol\":6230:6235  value */\n  dup1\n    /* \"@openzeppelin/contracts/token/ERC20/ERC20.sol\":6214:6226  _totalSupply */\n  0x02\n  0x00\n    /* \"@openzeppelin/contracts/token/ERC20/ERC20.sol\":6214:6235  _totalSupply += value */\n  dup3\n  dup3\n  sload\n  tag_46\n  swap2\n  swap1\n  tag_47\n  jump\t// in\ntag_46:\n  swap3\n  pop\n  pop\n  dup2\n  swap1\n  sstore\n  pop\n    /* \"@openzeppelin/contracts/token/ERC20/ERC20.sol\":6074:6614  if (from == address(0)) {... */\n  jump(tag_48)\ntag_45:\n    /* \"@openzeppelin/contracts/token/ERC20/ERC20.sol\":6266:6285  uint256 fromBalance */\n  0x00\n    /* \"@openzeppelin/contracts/token/ERC20/ERC20.sol\":6288:6297  _balances */\n  dup1\n    /* \"@openzeppelin/contracts/token/ERC20/ERC20.sol\":6288:6303  _balances[from] */\n  0x00\n    /* \"@openzeppelin/contracts/token/ERC20/ERC20.sol\":6298:6302  from */\n  dup6\n    /* \"@openzeppelin/contracts/token/ERC20/ERC20.sol\":6288:6303  _balances[from] */\n  0xffffffffffffffffffffffffffffffffffffffff\n  and\n  0xffffffffffffffffffffffffffffffffffffffff\n  and\n  dup2\n  mstore\n  0x20\n  add\n  swap1\n  dup2\n  mstore\n  0x20\n  add\n  0x00\n  keccak256\n  sload\n    /* \"@openzeppelin/contracts/token/ERC20/ERC20.sol\":6266:6303  uint256 fromBalance = _balances[from] */\n  swap1\n  pop\n    /* \"@openzeppelin/contracts/token/ERC20/ERC20.sol\":6335:6340  value */\n  dup2\n    /* \"@openzeppelin/contracts/token/ERC20/ERC20.sol\":6321:6332  fromBalance */\n  dup2\n    /* \"@openzeppelin/contracts/token/ERC20/ERC20.sol\":6321:6340  fromBalance < value */\n  lt\n    /* \"@openzeppelin/contracts/token/ERC20/ERC20.sol\":6317:6432  if (fromBalance < value) {... */\n  iszero\n  tag_49\n  jumpi\n    /* \"@openzeppelin/contracts/token/ERC20/ERC20.sol\":6392:6396  from */\n  dup4\n    /* \"@openzeppelin/contracts/token/ERC20/ERC20.sol\":6398:6409  fromBalance */\n  dup2\n    /* \"@openzeppelin/contracts/token/ERC20/ERC20.sol\":6411:6416  value */\n  dup4\n    /* \"@openzeppelin/contracts/token/ERC20/ERC20.sol\":6367:6417  ERC20InsufficientBalance(from, fromBalance, value) */\n  mload(0x40)\n  0xe450d38c00000000000000000000000000000000000000000000000000000000\n  dup2\n  mstore\n  0x04\n  add\n  tag_50\n  swap4\n  swap3\n  swap2\n  swap1\n  tag_51\n  jump\t// in\ntag_50:\n  mload(0x40)\n  dup1\n  swap2\n  sub\n  swap1\n  revert\n    /* \"@openzeppelin/contracts/token/ERC20/ERC20.sol\":6317:6432  if (fromBalance < value) {... */\ntag_49:\n    /* \"@openzeppelin/contracts/token/ERC20/ERC20.sol\":6584:6589  value */\n  dup2\n    /* \"@openzeppelin/contracts/token/ERC20/ERC20.sol\":6570:6581  fromBalance */\n  dup2\n    /* \"@openzeppelin/contracts/token/ERC20/ERC20.sol\":6570:6589  fromBalance - value */\n  sub\n    /* \"@openzeppelin/contracts/token/ERC20/ERC20.sol\":6552:6561  _balances */\n  0x00\n    /* \"@openzeppelin/contracts/token/ERC20/ERC20.sol\":6552:6567  _balances[from] */\n  dup1\n    /* \"@openzeppelin/contracts/token/ERC20/ERC20.sol\":6562:6566  from */\n  dup7\n    /* \"@openzeppelin/contracts/token/ERC20/ERC20.sol\":6552:6567  _balances[from] */\n  0xffffffffffffffffffffffffffffffffffffffff\n  and\n  0xffffffffffffffffffffffffffffffffffffffff\n  and\n  dup2\n  mstore\n  0x20\n  add\n  swap1\n  dup2\n  mstore\n  0x20\n  add\n  0x00\n  keccak256\n    /* \"@openzeppelin/contracts/token/ERC20/ERC20.sol\":6552:6589  _balances[from] = fromBalance - value */\n  dup2\n  swap1\n  sstore\n  pop\n    /* \"@openzeppelin/contracts/token/ERC20/ERC20.sol\":6252:6614  {... */\n  pop\n    /* \"@openzeppelin/contracts/token/ERC20/ERC20.sol\":6074:6614  if (from == address(0)) {... */\ntag_48:\n    /* \"@openzeppelin/contracts/token/ERC20/ERC20.sol\":6642:6643  0 */\n  0x00\n    /* \"@openzeppelin/contracts/token/ERC20/ERC20.sol\":6628:6644  to == address(0) */\n  0xffffffffffffffffffffffffffffffffffffffff\n  and\n    /* \"@openzeppelin/contracts/token/ERC20/ERC20.sol\":6628:6630  to */\n  dup3\n    /* \"@openzeppelin/contracts/token/ERC20/ERC20.sol\":6628:6644  to == address(0) */\n  0xffffffffffffffffffffffffffffffffffffffff\n  and\n  sub\n    /* \"@openzeppelin/contracts/token/ERC20/ERC20.sol\":6624:7049  if (to == address(0)) {... */\n  tag_52\n  jumpi\n    /* \"@openzeppelin/contracts/token/ERC20/ERC20.sol\":6807:6812  value */\n  dup1\n    /* \"@openzeppelin/contracts/token/ERC20/ERC20.sol\":6791:6803  _totalSupply */\n  0x02\n  0x00\n    /* \"@openzeppelin/contracts/token/ERC20/ERC20.sol\":6791:6812  _totalSupply -= value */\n  dup3\n  dup3\n  sload\n  sub\n  swap3\n  pop\n  pop\n  dup2\n  swap1\n  sstore\n  pop\n    /* \"@openzeppelin/contracts/token/ERC20/ERC20.sol\":6624:7049  if (to == address(0)) {... */\n  jump(tag_53)\ntag_52:\n    /* \"@openzeppelin/contracts/token/ERC20/ERC20.sol\":7019:7024  value */\n  dup1\n    /* \"@openzeppelin/contracts/token/ERC20/ERC20.sol\":7002:7011  _balances */\n  0x00\n    /* \"@openzeppelin/contracts/token/ERC20/ERC20.sol\":7002:7015  _balances[to] */\n  dup1\n    /* \"@openzeppelin/contracts/token/ERC20/ERC20.sol\":7012:7014  to */\n  dup5\n    /* \"@openzeppelin/contracts/token/ERC20/ERC20.sol\":7002:7015  _balances[to] */\n  0xffffffffffffffffffffffffffffffffffffffff\n  and\n  0xffffffffffffffffffffffffffffffffffffffff\n  and\n  dup2\n  mstore\n  0x20\n  add\n  swap1\n  dup2\n  mstore\n  0x20\n  add\n  0x00\n  keccak256\n  0x00\n    /* \"@openzeppelin/contracts/token/ERC20/ERC20.sol\":7002:7024  _balances[to] += value */\n  dup3\n  dup3\n  sload\n  add\n  swap3\n  pop\n  pop\n  dup2\n  swap1\n  sstore\n  pop\n    /* \"@openzeppelin/contracts/token/ERC20/ERC20.sol\":6624:7049  if (to == address(0)) {... */\ntag_53:\n    /* \"@openzeppelin/contracts/token/ERC20/ERC20.sol\":7079:7081  to */\n  dup2\n    /* \"@openzeppelin/contracts/token/ERC20/ERC20.sol\":7064:7089  Transfer(from, to, value) */\n  0xffffffffffffffffffffffffffffffffffffffff\n  and\n    /* \"@openzeppelin/contracts/token/ERC20/ERC20.sol\":7073:7077  from */\n  dup4\n    /* \"@openzeppelin/contracts/token/ERC20/ERC20.sol\":7064:7089  Transfer(from, to, value) */\n  0xffffffffffffffffffffffffffffffffffffffff\n  and\n  0xddf252ad1be2c89b69c2b068fc378daa952ba7f163c4a11628f55a4df523b3ef\n    /* \"@openzeppelin/contracts/token/ERC20/ERC20.sol\":7083:7088  value */\n  dup4\n    /* \"@openzeppelin/contracts/token/ERC20/ERC20.sol\":7064:7089  Transfer(from, to, value) */\n  mload(0x40)\n  tag_54\n  swap2\n  swap1\n  tag_55\n  jump\t// in\ntag_54:\n  mload(0x40)\n  dup1\n  swap2\n  sub\n  swap1\n  log3\n    /* \"@openzeppelin/contracts/token/ERC20/ERC20.sol\":5989:7096  function _update(address from, address to, uint256 value) internal virtual {... */\n  pop\n  pop\n  pop\n  jump\t// out\n    /* \"@openzeppelin/contracts/token/ERC20/extensions/ERC20Capped.sol\":923:1004  function cap() public view virtual returns (uint256) {... */\ntag_38:\n    /* \"@openzeppelin/contracts/token/ERC20/extensions/ERC20Capped.sol\":967:974  uint256 */\n  0x00\n    /* \"@openzeppelin/contracts/token/ERC20/extensions/ERC20Capped.sol\":993:997  _cap */\n  mload(0x80)\n    /* \"@openzeppelin/contracts/token/ERC20/extensions/ERC20Capped.sol\":986:997  return _cap */\n  swap1\n  pop\n    /* \"@openzeppelin/contracts/token/ERC20/extensions/ERC20Capped.sol\":923:1004  function cap() public view virtual returns (uint256) {... */\n  swap1\n  jump\t// out\n    /* \"@openzeppelin/contracts/token/ERC20/ERC20.sol\":2830:2927  function totalSupply() public view virtual returns (uint256) {... */\ntag_40:\n    /* \"@openzeppelin/contracts/token/ERC20/ERC20.sol\":2882:2889  uint256 */\n  0x00\n    /* \"@openzeppelin/contracts/token/ERC20/ERC20.sol\":2908:2920  _totalSupply */\n  sload(0x02)\n    /* \"@openzeppelin/contracts/token/ERC20/ERC20.sol\":2901:2920  return _totalSupply */\n  swap1\n  pop\n    /* \"@openzeppelin/contracts/token/ERC20/ERC20.sol\":2830:2927  function totalSupply() public view virtual returns (uint256) {... */\n  swap1\n  jump\t// out\n    /* \"#utility.yul\":7:106   */\ntag_58:\n    /* \"#utility.yul\":59:65   */\n  0x00\n    /* \"#utility.yul\":93:98   */\n  dup2\n    /* \"#utility.yul\":87:99   */\n  mload\n    /* \"#utility.yul\":77:99   */\n  swap1\n  pop\n    /* \"#utility.yul\":7:106   */\n  swap2\n  swap1\n  pop\n  jump\t// out\n    /* \"#utility.yul\":112:292   */\ntag_59:\n    /* \"#utility.yul\":160:237   */\n  0x4e487b7100000000000000000000000000000000000000000000000000000000\n    /* \"#utility.yul\":157:158   */\n  0x00\n    /* \"#utility.yul\":150:238   */\n  mstore\n    /* \"#utility.yul\":257:261   */\n  0x41\n    /* \"#utility.yul\":254:255   */\n  0x04\n    /* \"#utility.yul\":247:262   */\n  mstore\n    /* \"#utility.yul\":281:285   */\n  0x24\n    /* \"#utility.yul\":278:279   */\n  0x00\n    /* \"#utility.yul\":271:286   */\n  revert\n    /* \"#utility.yul\":298:478   */\ntag_60:\n    /* \"#utility.yul\":346:423   */\n  0x4e487b7100000000000000000000000000000000000000000000000000000000\n    /* \"#utility.yul\":343:344   */\n  0x00\n    /* \"#utility.yul\":336:424   */\n  mstore\n    /* \"#utility.yul\":443:447   */\n  0x22\n    /* \"#utility.yul\":440:441   */\n  0x04\n    /* \"#utility.yul\":433:448   */\n  mstore\n    /* \"#utility.yul\":467:471   */\n  0x24\n    /* \"#utility.yul\":464:465   */\n  0x00\n    /* \"#utility.yul\":457:472   */\n  revert\n    /* \"#utility.yul\":484:804   */\ntag_61:\n    /* \"#utility.yul\":528:534   */\n  0x00\n    /* \"#utility.yul\":565:566   */\n  0x02\n    /* \"#utility.yul\":559:563   */\n  dup3\n    /* \"#utility.yul\":555:567   */\n  div\n    /* \"#utility.yul\":545:567   */\n  swap1\n  pop\n    /* \"#utility.yul\":612:613   */\n  0x01\n    /* \"#utility.yul\":606:610   */\n  dup3\n    /* \"#utility.yul\":602:614   */\n  and\n    /* \"#utility.yul\":633:651   */\n  dup1\n    /* \"#utility.yul\":623:704   */\n  tag_91\n  jumpi\n    /* \"#utility.yul\":689:693   */\n  0x7f\n    /* \"#utility.yul\":681:687   */\n  dup3\n    /* \"#utility.yul\":677:694   */\n  and\n    /* \"#utility.yul\":667:694   */\n  swap2\n  pop\n    /* \"#utility.yul\":623:704   */\ntag_91:\n    /* \"#utility.yul\":751:753   */\n  0x20\n    /* \"#utility.yul\":743:749   */\n  dup3\n    /* \"#utility.yul\":740:754   */\n  lt\n    /* \"#utility.yul\":720:738   */\n  dup2\n    /* \"#utility.yul\":717:755   */\n  sub\n    /* \"#utility.yul\":714:798   */\n  tag_92\n  jumpi\n    /* \"#utility.yul\":770:788   */\n  tag_93\n  tag_60\n  jump\t// in\ntag_93:\n    /* \"#utility.yul\":714:798   */\ntag_92:\n    /* \"#utility.yul\":535:804   */\n  pop\n    /* \"#utility.yul\":484:804   */\n  swap2\n  swap1\n  pop\n  jump\t// out\n    /* \"#utility.yul\":810:951   */\ntag_62:\n    /* \"#utility.yul\":859:863   */\n  0x00\n    /* \"#utility.yul\":882:885   */\n  dup2\n    /* \"#utility.yul\":874:885   */\n  swap1\n  pop\n    /* \"#utility.yul\":905:908   */\n  dup2\n    /* \"#utility.yul\":902:903   */\n  0x00\n    /* \"#utility.yul\":895:909   */\n  mstore\n    /* \"#utility.yul\":939:943   */\n  0x20\n    /* \"#utility.yul\":936:937   */\n  0x00\n    /* \"#utility.yul\":926:944   */\n  keccak256\n    /* \"#utility.yul\":918:944   */\n  swap1\n  pop\n    /* \"#utility.yul\":810:951   */\n  swap2\n  swap1\n  pop\n  jump\t// out\n    /* \"#utility.yul\":957:1050   */\ntag_63:\n    /* \"#utility.yul\":994:1000   */\n  0x00\n    /* \"#utility.yul\":1041:1043   */\n  0x20\n    /* \"#utility.yul\":1036:1038   */\n  0x1f\n    /* \"#utility.yul\":1029:1034   */\n  dup4\n    /* \"#utility.yul\":1025:1039   */\n  add\n    /* \"#utility.yul\":1021:1044   */\n  div\n    /* \"#utility.yul\":1011:1044   */\n  swap1\n  pop\n    /* \"#utility.yul\":957:1050   */\n  swap2\n  swap1\n  pop\n  jump\t// out\n    /* \"#utility.yul\":1056:1163   */\ntag_64:\n    /* \"#utility.yul\":1100:1108   */\n  0x00\n    /* \"#utility.yul\":1150:1155   */\n  dup3\n    /* \"#utility.yul\":1144:1148   */\n  dup3\n    /* \"#utility.yul\":1140:1156   */\n  shl\n    /* \"#utility.yul\":1119:1156   */\n  swap1\n  pop\n    /* \"#utility.yul\":1056:1163   */\n  swap3\n  swap2\n  pop\n  pop\n  jump\t// out\n    /* \"#utility.yul\":1169:1562   */\ntag_65:\n    /* \"#utility.yul\":1238:1244   */\n  0x00\n    /* \"#utility.yul\":1288:1289   */\n  0x08\n    /* \"#utility.yul\":1276:1286   */\n  dup4\n    /* \"#utility.yul\":1272:1290   */\n  mul\n    /* \"#utility.yul\":1311:1408   */\n  tag_98\n    /* \"#utility.yul\":1341:1407   */\n  0xffffffffffffffffffffffffffffffffffffffffffffffffffffffffffffffff\n    /* \"#utility.yul\":1330:1339   */\n  dup3\n    /* \"#utility.yul\":1311:1408   */\n  tag_64\n  jump\t// in\ntag_98:\n    /* \"#utility.yul\":1429:1468   */\n  tag_99\n    /* \"#utility.yul\":1459:1467   */\n  dup7\n    /* \"#utility.yul\":1448:1457   */\n  dup4\n    /* \"#utility.yul\":1429:1468   */\n  tag_64\n  jump\t// in\ntag_99:\n    /* \"#utility.yul\":1417:1468   */\n  swap6\n  pop\n    /* \"#utility.yul\":1501:1505   */\n  dup1\n    /* \"#utility.yul\":1497:1506   */\n  not\n    /* \"#utility.yul\":1490:1495   */\n  dup5\n    /* \"#utility.yul\":1486:1507   */\n  and\n    /* \"#utility.yul\":1477:1507   */\n  swap4\n  pop\n    /* \"#utility.yul\":1550:1554   */\n  dup1\n    /* \"#utility.yul\":1540:1548   */\n  dup7\n    /* \"#utility.yul\":1536:1555   */\n  and\n    /* \"#utility.yul\":1529:1534   */\n  dup5\n    /* \"#utility.yul\":1526:1556   */\n  or\n    /* \"#utility.yul\":1516:1556   */\n  swap3\n  pop\n    /* \"#utility.yul\":1245:1562   */\n  pop\n  pop\n    /* \"#utility.yul\":1169:1562   */\n  swap4\n  swap3\n  pop\n  pop\n  pop\n  jump\t// out\n    /* \"#utility.yul\":1568:1645   */\ntag_66:\n    /* \"#utility.yul\":1605:1612   */\n  0x00\n    /* \"#utility.yul\":1634:1639   */\n  dup2\n    /* \"#utility.yul\":1623:1639   */\n  swap1\n  pop\n    /* \"#utility.yul\":1568:1645   */\n  swap2\n  swap1\n  pop\n  jump\t// out\n    /* \"#utility.yul\":1651:1711   */\ntag_67:\n    /* \"#utility.yul\":1679:1682   */\n  0x00\n    /* \"#utility.yul\":1700:1705   */\n  dup2\n    /* \"#utility.yul\":1693:1705   */\n  swap1\n  pop\n    /* \"#utility.yul\":1651:1711   */\n  swap2\n  swap1\n  pop\n  jump\t// out\n    /* \"#utility.yul\":1717:1859   */\ntag_68:\n    /* \"#utility.yul\":1767:1776   */\n  0x00\n    /* \"#utility.yul\":1800:1853   */\n  tag_103\n    /* \"#utility.yul\":1818:1852   */\n  tag_104\n    /* \"#utility.yul\":1827:1851   */\n  tag_105\n    /* \"#utility.yul\":1845:1850   */\n  dup5\n    /* \"#utility.yul\":1827:1851   */\n  tag_66\n  jump\t// in\ntag_105:\n    /* \"#utility.yul\":1818:1852   */\n  tag_67\n  jump\t// in\ntag_104:\n    /* \"#utility.yul\":1800:1853   */\n  tag_66\n  jump\t// in\ntag_103:\n    /* \"#utility.yul\":1787:1853   */\n  swap1\n  pop\n    /* \"#utility.yul\":1717:1859   */\n  swap2\n  swap1\n  pop\n  jump\t// out\n    /* \"#utility.yul\":1865:1940   */\ntag_69:\n    /* \"#utility.yul\":1908:1911   */\n  0x00\n    /* \"#utility.yul\":1929:1934   */\n  dup2\n    /* \"#utility.yul\":1922:1934   */\n  swap1\n  pop\n    /* \"#utility.yul\":1865:1940   */\n  swap2\n  swap1\n  pop\n  jump\t// out\n    /* \"#utility.yul\":1946:2215   */\ntag_70:\n    /* \"#utility.yul\":2056:2095   */\n  tag_108\n    /* \"#utility.yul\":2087:2094   */\n  dup4\n    /* \"#utility.yul\":2056:2095   */\n  tag_68\n  jump\t// in\ntag_108:\n    /* \"#utility.yul\":2117:2208   */\n  tag_109\n    /* \"#utility.yul\":2166:2207   */\n  tag_110\n    /* \"#utility.yul\":2190:2206   */\n  dup3\n    /* \"#utility.yul\":2166:2207   */\n  tag_69\n  jump\t// in\ntag_110:\n    /* \"#utility.yul\":2158:2164   */\n  dup5\n    /* \"#utility.yul\":2151:2155   */\n  dup5\n    /* \"#utility.yul\":2145:2156   */\n  sload\n    /* \"#utility.yul\":2117:2208   */\n  tag_65\n  jump\t// in\ntag_109:\n    /* \"#utility.yul\":2111:2115   */\n  dup3\n    /* \"#utility.yul\":2104:2209   */\n  sstore\n    /* \"#utility.yul\":2022:2215   */\n  pop\n    /* \"#utility.yul\":1946:2215   */\n  pop\n  pop\n  pop\n  jump\t// out\n    /* \"#utility.yul\":2221:2294   */\ntag_71:\n    /* \"#utility.yul\":2266:2269   */\n  0x00\n    /* \"#utility.yul\":2221:2294   */\n  swap1\n  jump\t// out\n    /* \"#utility.yul\":2300:2489   */\ntag_72:\n    /* \"#utility.yul\":2377:2409   */\n  tag_113\n  tag_71\n  jump\t// in\ntag_113:\n    /* \"#utility.yul\":2418:2483   */\n  tag_114\n    /* \"#utility.yul\":2476:2482   */\n  dup2\n    /* \"#utility.yul\":2468:2474   */\n  dup5\n    /* \"#utility.yul\":2462:2466   */\n  dup5\n    /* \"#utility.yul\":2418:2483   */\n  tag_70\n  jump\t// in\ntag_114:\n    /* \"#utility.yul\":2353:2489   */\n  pop\n    /* \"#utility.yul\":2300:2489   */\n  pop\n  pop\n  jump\t// out\n    /* \"#utility.yul\":2495:2681   */\ntag_73:\n    /* \"#utility.yul\":2555:2675   */\ntag_116:\n    /* \"#utility.yul\":2572:2575   */\n  dup2\n    /* \"#utility.yul\":2565:2570   */\n  dup2\n    /* \"#utility.yul\":2562:2576   */\n  lt\n    /* \"#utility.yul\":2555:2675   */\n  iszero\n  tag_118\n  jumpi\n    /* \"#utility.yul\":2626:2665   */\n  tag_119\n    /* \"#utility.yul\":2663:2664   */\n  0x00\n    /* \"#utility.yul\":2656:2661   */\n  dup3\n    /* \"#utility.yul\":2626:2665   */\n  tag_72\n  jump\t// in\ntag_119:\n    /* \"#utility.yul\":2599:2600   */\n  0x01\n    /* \"#utility.yul\":2592:2597   */\n  dup2\n    /* \"#utility.yul\":2588:2601   */\n  add\n    /* \"#utility.yul\":2579:2601   */\n  swap1\n  pop\n    /* \"#utility.yul\":2555:2675   */\n  jump(tag_116)\ntag_118:\n    /* \"#utility.yul\":2495:2681   */\n  pop\n  pop\n  jump\t// out\n    /* \"#utility.yul\":2687:3230   */\ntag_74:\n    /* \"#utility.yul\":2788:2790   */\n  0x1f\n    /* \"#utility.yul\":2783:2786   */\n  dup3\n    /* \"#utility.yul\":2780:2791   */\n  gt\n    /* \"#utility.yul\":2777:3223   */\n  iszero\n  tag_121\n  jumpi\n    /* \"#utility.yul\":2822:2860   */\n  tag_122\n    /* \"#utility.yul\":2854:2859   */\n  dup2\n    /* \"#utility.yul\":2822:2860   */\n  tag_62\n  jump\t// in\ntag_122:\n    /* \"#utility.yul\":2906:2935   */\n  tag_123\n    /* \"#utility.yul\":2924:2934   */\n  dup5\n    /* \"#utility.yul\":2906:2935   */\n  tag_63\n  jump\t// in\ntag_123:\n    /* \"#utility.yul\":2896:2904   */\n  dup2\n    /* \"#utility.yul\":2892:2936   */\n  add\n    /* \"#utility.yul\":3089:3091   */\n  0x20\n    /* \"#utility.yul\":3077:3087   */\n  dup6\n    /* \"#utility.yul\":3074:3092   */\n  lt\n    /* \"#utility.yul\":3071:3120   */\n  iszero\n  tag_124\n  jumpi\n    /* \"#utility.yul\":3110:3118   */\n  dup2\n    /* \"#utility.yul\":3095:3118   */\n  swap1\n  pop\n    /* \"#utility.yul\":3071:3120   */\ntag_124:\n    /* \"#utility.yul\":3133:3213   */\n  tag_125\n    /* \"#utility.yul\":3189:3211   */\n  tag_126\n    /* \"#utility.yul\":3207:3210   */\n  dup6\n    /* \"#utility.yul\":3189:3211   */\n  tag_63\n  jump\t// in\ntag_126:\n    /* \"#utility.yul\":3179:3187   */\n  dup4\n    /* \"#utility.yul\":3175:3212   */\n  add\n    /* \"#utility.yul\":3162:3173   */\n  dup3\n    /* \"#utility.yul\":3133:3213   */\n  tag_73\n  jump\t// in\ntag_125:\n    /* \"#utility.yul\":2792:3223   */\n  pop\n  pop\n    /* \"#utility.yul\":2777:3223   */\ntag_121:\n    /* \"#utility.yul\":2687:3230   */\n  pop\n  pop\n  pop\n  jump\t// out\n    /* \"#utility.yul\":3236:3353   */\ntag_75:\n    /* \"#utility.yul\":3290:3298   */\n  0x00\n    /* \"#utility.yul\":3340:3345   */\n  dup3\n    /* \"#utility.yul\":3334:3338   */\n  dup3\n    /* \"#utility.yul\":3330:3346   */\n  shr\n    /* \"#utility.yul\":3309:3346   */\n  swap1\n  pop\n    /* \"#utility.yul\":3236:3353   */\n  swap3\n  swap2\n  pop\n  pop\n  jump\t// out\n    /* \"#utility.yul\":3359:3528   */\ntag_76:\n    /* \"#utility.yul\":3403:3409   */\n  0x00\n    /* \"#utility.yul\":3436:3487   */\n  tag_129\n    /* \"#utility.yul\":3484:3485   */\n  0x00\n    /* \"#utility.yul\":3480:3486   */\n  not\n    /* \"#utility.yul\":3472:3477   */\n  dup5\n    /* \"#utility.yul\":3469:3470   */\n  0x08\n    /* \"#utility.yul\":3465:3478   */\n  mul\n    /* \"#utility.yul\":3436:3487   */\n  tag_75\n  jump\t// in\ntag_129:\n    /* \"#utility.yul\":3432:3488   */\n  not\n    /* \"#utility.yul\":3517:3521   */\n  dup1\n    /* \"#utility.yul\":3511:3515   */\n  dup4\n    /* \"#utility.yul\":3507:3522   */\n  and\n    /* \"#utility.yul\":3497:3522   */\n  swap2\n  pop\n    /* \"#utility.yul\":3410:3528   */\n  pop\n    /* \"#utility.yul\":3359:3528   */\n  swap3\n  swap2\n  pop\n  pop\n  jump\t// out\n    /* \"#utility.yul\":3533:3828   */\ntag_77:\n    /* \"#utility.yul\":3609:3613   */\n  0x00\n    /* \"#utility.yul\":3755:3784   */\n  tag_131\n    /* \"#utility.yul\":3780:3783   */\n  dup4\n    /* \"#utility.yul\":3774:3778   */\n  dup4\n    /* \"#utility.yul\":3755:3784   */\n  tag_76\n  jump\t// in\ntag_131:\n    /* \"#utility.yul\":3747:3784   */\n  swap2\n  pop\n    /* \"#utility.yul\":3817:3820   */\n  dup3\n    /* \"#utility.yul\":3814:3815   */\n  0x02\n    /* \"#utility.yul\":3810:3821   */\n  mul\n    /* \"#utility.yul\":3804:3808   */\n  dup3\n    /* \"#utility.yul\":3801:3822   */\n  or\n    /* \"#utility.yul\":3793:3822   */\n  swap1\n  pop\n    /* \"#utility.yul\":3533:3828   */\n  swap3\n  swap2\n  pop\n  pop\n  jump\t// out\n    /* \"#utility.yul\":3833:5228   */\ntag_8:\n    /* \"#utility.yul\":3950:3987   */\n  tag_133\n    /* \"#utility.yul\":3983:3986   */\n  dup3\n    /* \"#utility.yul\":3950:3987   */\n  tag_58\n  jump\t// in\ntag_133:\n    /* \"#utility.yul\":4052:4070   */\n  0xffffffffffffffff\n    /* \"#utility.yul\":4044:4050   */\n  dup2\n    /* \"#utility.yul\":4041:4071   */\n  gt\n    /* \"#utility.yul\":4038:4094   */\n  iszero\n  tag_134\n  jumpi\n    /* \"#utility.yul\":4074:4092   */\n  tag_135\n  tag_59\n  jump\t// in\ntag_135:\n    /* \"#utility.yul\":4038:4094   */\ntag_134:\n    /* \"#utility.yul\":4118:4156   */\n  tag_136\n    /* \"#utility.yul\":4150:4154   */\n  dup3\n    /* \"#utility.yul\":4144:4155   */\n  sload\n    /* \"#utility.yul\":4118:4156   */\n  tag_61\n  jump\t// in\ntag_136:\n    /* \"#utility.yul\":4203:4270   */\n  tag_137\n    /* \"#utility.yul\":4263:4269   */\n  dup3\n    /* \"#utility.yul\":4255:4261   */\n  dup3\n    /* \"#utility.yul\":4249:4253   */\n  dup6\n    /* \"#utility.yul\":4203:4270   */\n  tag_74\n  jump\t// in\ntag_137:\n    /* \"#utility.yul\":4297:4298   */\n  0x00\n    /* \"#utility.yul\":4321:4325   */\n  0x20\n    /* \"#utility.yul\":4308:4325   */\n  swap1\n  pop\n    /* \"#utility.yul\":4353:4355   */\n  0x1f\n    /* \"#utility.yul\":4345:4351   */\n  dup4\n    /* \"#utility.yul\":4342:4356   */\n  gt\n    /* \"#utility.yul\":4370:4371   */\n  0x01\n    /* \"#utility.yul\":4365:4983   */\n  dup2\n  eq\n  tag_139\n  jumpi\n    /* \"#utility.yul\":5027:5028   */\n  0x00\n    /* \"#utility.yul\":5044:5050   */\n  dup5\n    /* \"#utility.yul\":5041:5118   */\n  iszero\n  tag_140\n  jumpi\n    /* \"#utility.yul\":5093:5102   */\n  dup3\n    /* \"#utility.yul\":5088:5091   */\n  dup8\n    /* \"#utility.yul\":5084:5103   */\n  add\n    /* \"#utility.yul\":5078:5104   */\n  mload\n    /* \"#utility.yul\":5069:5104   */\n  swap1\n  pop\n    /* \"#utility.yul\":5041:5118   */\ntag_140:\n    /* \"#utility.yul\":5144:5211   */\n  tag_141\n    /* \"#utility.yul\":5204:5210   */\n  dup6\n    /* \"#utility.yul\":5197:5202   */\n  dup3\n    /* \"#utility.yul\":5144:5211   */\n  tag_77\n  jump\t// in\ntag_141:\n    /* \"#utility.yul\":5138:5142   */\n  dup7\n    /* \"#utility.yul\":5131:5212   */\n  sstore\n    /* \"#utility.yul\":5000:5222   */\n  pop\n    /* \"#utility.yul\":4335:5222   */\n  jump(tag_138)\n    /* \"#utility.yul\":4365:4983   */\ntag_139:\n    /* \"#utility.yul\":4417:4421   */\n  0x1f\n    /* \"#utility.yul\":4413:4422   */\n  not\n    /* \"#utility.yul\":4405:4411   */\n  dup5\n    /* \"#utility.yul\":4401:4423   */\n  and\n    /* \"#utility.yul\":4451:4488   */\n  tag_142\n    /* \"#utility.yul\":4483:4487   */\n  dup7\n    /* \"#utility.yul\":4451:4488   */\n  tag_62\n  jump\t// in\ntag_142:\n    /* \"#utility.yul\":4510:4511   */\n  0x00\n    /* \"#utility.yul\":4524:4732   */\ntag_143:\n    /* \"#utility.yul\":4538:4545   */\n  dup3\n    /* \"#utility.yul\":4535:4536   */\n  dup2\n    /* \"#utility.yul\":4532:4546   */\n  lt\n    /* \"#utility.yul\":4524:4732   */\n  iszero\n  tag_145\n  jumpi\n    /* \"#utility.yul\":4617:4626   */\n  dup5\n    /* \"#utility.yul\":4612:4615   */\n  dup10\n    /* \"#utility.yul\":4608:4627   */\n  add\n    /* \"#utility.yul\":4602:4628   */\n  mload\n    /* \"#utility.yul\":4594:4600   */\n  dup3\n    /* \"#utility.yul\":4587:4629   */\n  sstore\n    /* \"#utility.yul\":4668:4669   */\n  0x01\n    /* \"#utility.yul\":4660:4666   */\n  dup3\n    /* \"#utility.yul\":4656:4670   */\n  add\n    /* \"#utility.yul\":4646:4670   */\n  swap2\n  pop\n    /* \"#utility.yul\":4715:4717   */\n  0x20\n    /* \"#utility.yul\":4704:4713   */\n  dup6\n    /* \"#utility.yul\":4700:4718   */\n  add\n    /* \"#utility.yul\":4687:4718   */\n  swap5\n  pop\n    /* \"#utility.yul\":4561:4565   */\n  0x20\n    /* \"#utility.yul\":4558:4559   */\n  dup2\n    /* \"#utility.yul\":4554:4566   */\n  add\n    /* \"#utility.yul\":4549:4566   */\n  swap1\n  pop\n    /* \"#utility.yul\":4524:4732   */\n  jump(tag_143)\ntag_145:\n    /* \"#utility.yul\":4760:4766   */\n  dup7\n    /* \"#utility.yul\":4751:4758   */\n  dup4\n    /* \"#utility.yul\":4748:4767   */\n  lt\n    /* \"#utility.yul\":4745:4924   */\n  iszero\n  tag_146\n  jumpi\n    /* \"#utility.yul\":4818:4827   */\n  dup5\n    /* \"#utility.yul\":4813:4816   */\n  dup10\n    /* \"#utility.yul\":4809:4828   */\n  add\n    /* \"#utility.yul\":4803:4829   */\n  mload\n    /* \"#utility.yul\":4861:4909   */\n  tag_147\n    /* \"#utility.yul\":4903:4907   */\n  0x1f\n    /* \"#utility.yul\":4895:4901   */\n  dup10\n    /* \"#utility.yul\":4891:4908   */\n  and\n    /* \"#utility.yul\":4880:4889   */\n  dup3\n    /* \"#utility.yul\":4861:4909   */\n  tag_76\n  jump\t// in\ntag_147:\n    /* \"#utility.yul\":4853:4859   */\n  dup4\n    /* \"#utility.yul\":4846:4910   */\n  sstore\n    /* \"#utility.yul\":4768:4924   */\n  pop\n    /* \"#utility.yul\":4745:4924   */\ntag_146:\n    /* \"#utility.yul\":4970:4971   */\n  0x01\n    /* \"#utility.yul\":4966:4967   */\n  0x02\n    /* \"#utility.yul\":4958:4964   */\n  dup9\n    /* \"#utility.yul\":4954:4968   */\n  mul\n    /* \"#utility.yul\":4950:4972   */\n  add\n    /* \"#utility.yul\":4944:4948   */\n  dup9\n    /* \"#utility.yul\":4937:4973   */\n  sstore\n    /* \"#utility.yul\":4372:4983   */\n  pop\n  pop\n  pop\n    /* \"#utility.yul\":4335:5222   */\ntag_138:\n  pop\n    /* \"#utility.yul\":3925:5228   */\n  pop\n  pop\n  pop\n    /* \"#utility.yul\":3833:5228   */\n  pop\n  pop\n  jump\t// out\n    /* \"#utility.yul\":5234:5319   */\ntag_78:\n    /* \"#utility.yul\":5279:5286   */\n  0x00\n    /* \"#utility.yul\":5308:5313   */\n  dup2\n    /* \"#utility.yul\":5297:5313   */\n  swap1\n  pop\n    /* \"#utility.yul\":5234:5319   */\n  swap2\n  swap1\n  pop\n  jump\t// out\n    /* \"#utility.yul\":5325:5483   */\ntag_79:\n    /* \"#utility.yul\":5383:5392   */\n  0x00\n    /* \"#utility.yul\":5416:5477   */\n  tag_150\n    /* \"#utility.yul\":5434:5476   */\n  tag_151\n    /* \"#utility.yul\":5443:5475   */\n  tag_152\n    /* \"#utility.yul\":5469:5474   */\n  dup5\n    /* \"#utility.yul\":5443:5475   */\n  tag_78\n  jump\t// in\ntag_152:\n    /* \"#utility.yul\":5434:5476   */\n  tag_67\n  jump\t// in\ntag_151:\n    /* \"#utility.yul\":5416:5477   */\n  tag_66\n  jump\t// in\ntag_150:\n    /* \"#utility.yul\":5403:5477   */\n  swap1\n  pop\n    /* \"#utility.yul\":5325:5483   */\n  swap2\n  swap1\n  pop\n  jump\t// out\n    /* \"#utility.yul\":5489:5636   */\ntag_80:\n    /* \"#utility.yul\":5584:5629   */\n  tag_154\n    /* \"#utility.yul\":5623:5628   */\n  dup2\n    /* \"#utility.yul\":5584:5629   */\n  tag_79\n  jump\t// in\ntag_154:\n    /* \"#utility.yul\":5579:5582   */\n  dup3\n    /* \"#utility.yul\":5572:5630   */\n  mstore\n    /* \"#utility.yul\":5489:5636   */\n  pop\n  pop\n  jump\t// out\n    /* \"#utility.yul\":5642:5880   */\ntag_13:\n    /* \"#utility.yul\":5743:5747   */\n  0x00\n    /* \"#utility.yul\":5781:5783   */\n  0x20\n    /* \"#utility.yul\":5770:5779   */\n  dup3\n    /* \"#utility.yul\":5766:5784   */\n  add\n    /* \"#utility.yul\":5758:5784   */\n  swap1\n  pop\n    /* \"#utility.yul\":5794:5873   */\n  tag_156\n    /* \"#utility.yul\":5870:5871   */\n  0x00\n    /* \"#utility.yul\":5859:5868   */\n  dup4\n    /* \"#utility.yul\":5855:5872   */\n  add\n    /* \"#utility.yul\":5846:5852   */\n  dup5\n    /* \"#utility.yul\":5794:5873   */\n  tag_80\n  jump\t// in\ntag_156:\n    /* \"#utility.yul\":5642:5880   */\n  swap3\n  swap2\n  pop\n  pop\n  jump\t// out\n    /* \"#utility.yul\":5886:6012   */\ntag_81:\n    /* \"#utility.yul\":5923:5930   */\n  0x00\n    /* \"#utility.yul\":5963:6005   */\n  0xffffffffffffffffffffffffffffffffffffffff\n    /* \"#utility.yul\":5956:5961   */\n  dup3\n    /* \"#utility.yul\":5952:6006   */\n  and\n    /* \"#utility.yul\":5941:6006   */\n  swap1\n  pop\n    /* \"#utility.yul\":5886:6012   */\n  swap2\n  swap1\n  pop\n  jump\t// out\n    /* \"#utility.yul\":6018:6114   */\ntag_82:\n    /* \"#utility.yul\":6055:6062   */\n  0x00\n    /* \"#utility.yul\":6084:6108   */\n  tag_159\n    /* \"#utility.yul\":6102:6107   */\n  dup3\n    /* \"#utility.yul\":6084:6108   */\n  tag_81\n  jump\t// in\ntag_159:\n    /* \"#utility.yul\":6073:6108   */\n  swap1\n  pop\n    /* \"#utility.yul\":6018:6114   */\n  swap2\n  swap1\n  pop\n  jump\t// out\n    /* \"#utility.yul\":6120:6238   */\ntag_83:\n    /* \"#utility.yul\":6207:6231   */\n  tag_161\n    /* \"#utility.yul\":6225:6230   */\n  dup2\n    /* \"#utility.yul\":6207:6231   */\n  tag_82\n  jump\t// in\ntag_161:\n    /* \"#utility.yul\":6202:6205   */\n  dup3\n    /* \"#utility.yul\":6195:6232   */\n  mstore\n    /* \"#utility.yul\":6120:6238   */\n  pop\n  pop\n  jump\t// out\n    /* \"#utility.yul\":6244:6466   */\ntag_17:\n    /* \"#utility.yul\":6337:6341   */\n  0x00\n    /* \"#utility.yul\":6375:6377   */\n  0x20\n    /* \"#utility.yul\":6364:6373   */\n  dup3\n    /* \"#utility.yul\":6360:6378   */\n  add\n    /* \"#utility.yul\":6352:6378   */\n  swap1\n  pop\n    /* \"#utility.yul\":6388:6459   */\n  tag_163\n    /* \"#utility.yul\":6456:6457   */\n  0x00\n    /* \"#utility.yul\":6445:6454   */\n  dup4\n    /* \"#utility.yul\":6441:6458   */\n  add\n    /* \"#utility.yul\":6432:6438   */\n  dup5\n    /* \"#utility.yul\":6388:6459   */\n  tag_83\n  jump\t// in\ntag_163:\n    /* \"#utility.yul\":6244:6466   */\n  swap3\n  swap2\n  pop\n  pop\n  jump\t// out\n    /* \"#utility.yul\":6472:6590   */\ntag_84:\n    /* \"#utility.yul\":6559:6583   */\n  tag_165\n    /* \"#utility.yul\":6577:6582   */\n  dup2\n    /* \"#utility.yul\":6559:6583   */\n  tag_66\n  jump\t// in\ntag_165:\n    /* \"#utility.yul\":6554:6557   */\n  dup3\n    /* \"#utility.yul\":6547:6584   */\n  mstore\n    /* \"#utility.yul\":6472:6590   */\n  pop\n  pop\n  jump\t// out\n    /* \"#utility.yul\":6596:6928   */\ntag_43:\n    /* \"#utility.yul\":6717:6721   */\n  0x00\n    /* \"#utility.yul\":6755:6757   */\n  0x40\n    /* \"#utility.yul\":6744:6753   */\n  dup3\n    /* \"#utility.yul\":6740:6758   */\n  add\n    /* \"#utility.yul\":6732:6758   */\n  swap1\n  pop\n    /* \"#utility.yul\":6768:6839   */\n  tag_167\n    /* \"#utility.yul\":6836:6837   */\n  0x00\n    /* \"#utility.yul\":6825:6834   */\n  dup4\n    /* \"#utility.yul\":6821:6838   */\n  add\n    /* \"#utility.yul\":6812:6818   */\n  dup6\n    /* \"#utility.yul\":6768:6839   */\n  tag_84\n  jump\t// in\ntag_167:\n    /* \"#utility.yul\":6849:6921   */\n  tag_168\n    /* \"#utility.yul\":6917:6919   */\n  0x20\n    /* \"#utility.yul\":6906:6915   */\n  dup4\n    /* \"#utility.yul\":6902:6920   */\n  add\n    /* \"#utility.yul\":6893:6899   */\n  dup5\n    /* \"#utility.yul\":6849:6921   */\n  tag_84\n  jump\t// in\ntag_168:\n    /* \"#utility.yul\":6596:6928   */\n  swap4\n  swap3\n  pop\n  pop\n  pop\n  jump\t// out\n    /* \"#utility.yul\":6934:7114   */\ntag_85:\n    /* \"#utility.yul\":6982:7059   */\n  0x4e487b7100000000000000000000000000000000000000000000000000000000\n    /* \"#utility.yul\":6979:6980   */\n  0x00\n    /* \"#utility.yul\":6972:7060   */\n  mstore\n    /* \"#utility.yul\":7079:7083   */\n  0x11\n    /* \"#utility.yul\":7076:7077   */\n  0x04\n    /* \"#utility.yul\":7069:7084   */\n  mstore\n    /* \"#utility.yul\":7103:7107   */\n  0x24\n    /* \"#utility.yul\":7100:7101   */\n  0x00\n    /* \"#utility.yul\":7093:7108   */\n  revert\n    /* \"#utility.yul\":7120:7311   */\ntag_47:\n    /* \"#utility.yul\":7160:7163   */\n  0x00\n    /* \"#utility.yul\":7179:7199   */\n  tag_171\n    /* \"#utility.yul\":7197:7198   */\n  dup3\n    /* \"#utility.yul\":7179:7199   */\n  tag_66\n  jump\t// in\ntag_171:\n    /* \"#utility.yul\":7174:7199   */\n  swap2\n  pop\n    /* \"#utility.yul\":7213:7233   */\n  tag_172\n    /* \"#utility.yul\":7231:7232   */\n  dup4\n    /* \"#utility.yul\":7213:7233   */\n  tag_66\n  jump\t// in\ntag_172:\n    /* \"#utility.yul\":7208:7233   */\n  swap3\n  pop\n    /* \"#utility.yul\":7256:7257   */\n  dup3\n    /* \"#utility.yul\":7253:7254   */\n  dup3\n    /* \"#utility.yul\":7249:7258   */\n  add\n    /* \"#utility.yul\":7242:7258   */\n  swap1\n  pop\n    /* \"#utility.yul\":7277:7280   */\n  dup1\n    /* \"#utility.yul\":7274:7275   */\n  dup3\n    /* \"#utility.yul\":7271:7281   */\n  gt\n    /* \"#utility.yul\":7268:7304   */\n  iszero\n  tag_173\n  jumpi\n    /* \"#utility.yul\":7284:7302   */\n  tag_174\n  tag_85\n  jump\t// in\ntag_174:\n    /* \"#utility.yul\":7268:7304   */\ntag_173:\n    /* \"#utility.yul\":7120:7311   */\n  swap3\n  swap2\n  pop\n  pop\n  jump\t// out\n    /* \"#utility.yul\":7317:7759   */\ntag_51:\n    /* \"#utility.yul\":7466:7470   */\n  0x00\n    /* \"#utility.yul\":7504:7506   */\n  0x60\n    /* \"#utility.yul\":7493:7502   */\n  dup3\n    /* \"#utility.yul\":7489:7507   */\n  add\n    /* \"#utility.yul\":7481:7507   */\n  swap1\n  pop\n    /* \"#utility.yul\":7517:7588   */\n  tag_176\n    /* \"#utility.yul\":7585:7586   */\n  0x00\n    /* \"#utility.yul\":7574:7583   */\n  dup4\n    /* \"#utility.yul\":7570:7587   */\n  add\n    /* \"#utility.yul\":7561:7567   */\n  dup7\n    /* \"#utility.yul\":7517:7588   */\n  tag_83\n  jump\t// in\ntag_176:\n    /* \"#utility.yul\":7598:7670   */\n  tag_177\n    /* \"#utility.yul\":7666:7668   */\n  0x20\n    /* \"#utility.yul\":7655:7664   */\n  dup4\n    /* \"#utility.yul\":7651:7669   */\n  add\n    /* \"#utility.yul\":7642:7648   */\n  dup6\n    /* \"#utility.yul\":7598:7670   */\n  tag_84\n  jump\t// in\ntag_177:\n    /* \"#utility.yul\":7680:7752   */\n  tag_178\n    /* \"#utility.yul\":7748:7750   */\n  0x40\n    /* \"#utility.yul\":7737:7746   */\n  dup4\n    /* \"#utility.yul\":7733:7751   */\n  add\n    /* \"#utility.yul\":7724:7730   */\n  dup5\n    /* \"#utility.yul\":7680:7752   */\n  tag_84\n  jump\t// in\ntag_178:\n    /* \"#utility.yul\":7317:7759   */\n  swap5\n  swap4\n  pop\n  pop\n  pop\n  pop\n  jump\t// out\n    /* \"#utility.yul\":7765:7987   */\ntag_55:\n    /* \"#utility.yul\":7858:7862   */\n  0x00\n    /* \"#utility.yul\":7896:7898   */\n  0x20\n    /* \"#utility.yul\":7885:7894   */\n  dup3\n    /* \"#utility.yul\":7881:7899   */\n  add\n    /* \"#utility.yul\":7873:7899   */\n  swap1\n  pop\n    /* \"#utility.yul\":7909:7980   */\n  tag_180\n    /* \"#utility.yul\":7977:7978   */\n  0x00\n    /* \"#utility.yul\":7966:7975   */\n  dup4\n    /* \"#utility.yul\":7962:7979   */\n  add\n    /* \"#utility.yul\":7953:7959   */\n  dup5\n    /* \"#utility.yul\":7909:7980   */\n  tag_84\n  jump\t// in\ntag_180:\n    /* \"#utility.yul\":7765:7987   */\n  swap3\n  swap2\n  pop\n  pop\n  jump\t// out\n    /* \"contracts/Soboro.sol\":421:1941  contract Soboro is ERC20, ERC20Capped, ERC20Burnable, Ownable {... */\ntag_23:\n  mload(0x80)\n  codecopy(0x00, dataOffset(sub_0), dataSize(sub_0))\n  0x00\n  assignImmutable(\"0x69de3b38836c938ac93bb31643655e6e0a011af0f354a009a432084d0f963864\")\n  return(0x00, dataSize(sub_0))\nstop\n\nsub_0: assembly {\n        /* \"contracts/Soboro.sol\":421:1941  contract Soboro is ERC20, ERC20Capped, ERC20Burnable, Ownable {... */\n      mstore(0x40, 0x80)\n      callvalue\n      dup1\n      iszero\n      tag_1\n      jumpi\n      0x00\n      dup1\n      revert\n    tag_1:\n      pop\n      jumpi(tag_2, lt(calldatasize, 0x04))\n      shr(0xe0, calldataload(0x00))\n      dup1\n      0x4735c94c\n      gt\n      tag_20\n      jumpi\n      dup1\n      0x8da5cb5b\n      gt\n      tag_21\n      jumpi\n      dup1\n      0x8da5cb5b\n      eq\n      tag_15\n      jumpi\n      dup1\n      0x95d89b41\n      eq\n      tag_16\n      jumpi\n      dup1\n      0xa9059cbb\n      eq\n      tag_17\n      jumpi\n      dup1\n      0xdd62ed3e\n      eq\n      tag_18\n      jumpi\n      dup1\n      0xf2fde38b\n      eq\n      tag_19\n      jumpi\n      jump(tag_2)\n    tag_21:\n      dup1\n      0x4735c94c\n      eq\n      tag_11\n      jumpi\n      dup1\n      0x70a08231\n      eq\n      tag_12\n      jumpi\n      dup1\n      0x715018a6\n      eq\n      tag_13\n      jumpi\n      dup1\n      0x79cc6790\n      eq\n      tag_14\n      jumpi\n      jump(tag_2)\n    tag_20:\n      dup1\n      0x23b872dd\n      gt\n      tag_22\n      jumpi\n      dup1\n      0x23b872dd\n      eq\n      tag_7\n      jumpi\n      dup1\n      0x313ce567\n      eq\n      tag_8\n      jumpi\n      dup1\n      0x355274ea\n      eq\n      tag_9\n      jumpi\n      dup1\n      0x42966c68\n      eq\n      tag_10\n      jumpi\n      jump(tag_2)\n    tag_22:\n      dup1\n      0x0528395e\n      eq\n      tag_3\n      jumpi\n      dup1\n      0x06fdde03\n      eq\n      tag_4\n      jumpi\n      dup1\n      0x095ea7b3\n      eq\n      tag_5\n      jumpi\n      dup1\n      0x18160ddd\n      eq\n      tag_6\n      jumpi\n    tag_2:\n      0x00\n      dup1\n      revert\n        /* \"contracts/Soboro.sol\":1382:1850  function requestSurveyCreationOnCrumb(string memory _question, string[] memory _options, bool _initialActiveState) public onlyOwner {... */\n    tag_3:\n      tag_23\n      0x04\n      dup1\n      calldatasize\n      sub\n      dup2\n      add\n      swap1\n      tag_24\n      swap2\n      swap1\n      tag_25\n      jump\t// in\n    tag_24:\n      tag_26\n      jump\t// in\n    tag_23:\n      stop\n        /* \"@openzeppelin/contracts/token/ERC20/ERC20.sol\":1760:1849  function name() public view virtual returns (string memory) {... */\n    tag_4:\n      tag_27\n      tag_28\n      jump\t// in\n    tag_27:\n      mload(0x40)\n      tag_29\n      swap2\n      swap1\n      tag_30\n      jump\t// in\n    tag_29:\n      mload(0x40)\n      dup1\n      swap2\n      sub\n      swap1\n      return\n        /* \"@openzeppelin/contracts/token/ERC20/ERC20.sol\":3979:4165  function approve(address spender, uint256 value) public virtual returns (bool) {... */\n    tag_5:\n      tag_31\n      0x04\n      dup1\n      calldatasize\n      sub\n      dup2\n      add\n      swap1\n      tag_32\n      swap2\n      swap1\n      tag_33\n      jump\t// in\n    tag_32:\n      tag_34\n      jump\t// in\n    tag_31:\n      mload(0x40)\n      tag_35\n      swap2\n      swap1\n      tag_36\n      jump\t// in\n    tag_35:\n      mload(0x40)\n      dup1\n      swap2\n      sub\n      swap1\n      return\n        /* \"@openzeppelin/contracts/token/ERC20/ERC20.sol\":2830:2927  function totalSupply() public view virtual returns (uint256) {... */\n    tag_6:\n      tag_37\n      tag_38\n      jump\t// in\n    tag_37:\n      mload(0x40)\n      tag_39\n      swap2\n      swap1\n      tag_40\n      jump\t// in\n    tag_39:\n      mload(0x40)\n      dup1\n      swap2\n      sub\n      swap1\n      return\n        /* \"@openzeppelin/contracts/token/ERC20/ERC20.sol\":4757:5001  function transferFrom(address from, address to, uint256 value) public virtual returns (bool) {... */\n    tag_7:\n      tag_41\n      0x04\n      dup1\n      calldatasize\n      sub\n      dup2\n      add\n      swap1\n      tag_42\n      swap2\n      swap1\n      tag_43\n      jump\t// in\n    tag_42:\n      tag_44\n      jump\t// in\n    tag_41:\n      mload(0x40)\n      tag_45\n      swap2\n      swap1\n      tag_36\n      jump\t// in\n    tag_45:\n      mload(0x40)\n      dup1\n      swap2\n      sub\n      swap1\n      return\n        /* \"@openzeppelin/contracts/token/ERC20/ERC20.sol\":2688:2770  function decimals() public view virtual returns (uint8) {... */\n    tag_8:\n      tag_46\n      tag_47\n      jump\t// in\n    tag_46:\n      mload(0x40)\n      tag_48\n      swap2\n      swap1\n      tag_49\n      jump\t// in\n    tag_48:\n      mload(0x40)\n      dup1\n      swap2\n      sub\n      swap1\n      return\n        /* \"@openzeppelin/contracts/token/ERC20/extensions/ERC20Capped.sol\":923:1004  function cap() public view virtual returns (uint256) {... */\n    tag_9:\n      tag_50\n      tag_51\n      jump\t// in\n    tag_50:\n      mload(0x40)\n      tag_52\n      swap2\n      swap1\n      tag_40\n      jump\t// in\n    tag_52:\n      mload(0x40)\n      dup1\n      swap2\n      sub\n      swap1\n      return\n        /* \"@openzeppelin/contracts/token/ERC20/extensions/ERC20Burnable.sol\":618:705  function burn(uint256 value) public virtual {... */\n    tag_10:\n      tag_53\n      0x04\n      dup1\n      calldatasize\n      sub\n      dup2\n      add\n      swap1\n      tag_54\n      swap2\n      swap1\n      tag_55\n      jump\t// in\n    tag_54:\n      tag_56\n      jump\t// in\n    tag_53:\n      stop\n        /* \"contracts/Soboro.sol\":1108:1342  function createCrumbContract() public onlyOwner {... */\n    tag_11:\n      tag_57\n      tag_58\n      jump\t// in\n    tag_57:\n      stop\n        /* \"@openzeppelin/contracts/token/ERC20/ERC20.sol\":2985:3101  function balanceOf(address account) public view virtual returns (uint256) {... */\n    tag_12:\n      tag_59\n      0x04\n      dup1\n      calldatasize\n      sub\n      dup2\n      add\n      swap1\n      tag_60\n      swap2\n      swap1\n      tag_61\n      jump\t// in\n    tag_60:\n      tag_62\n      jump\t// in\n    tag_59:\n      mload(0x40)\n      tag_63\n      swap2\n      swap1\n      tag_40\n      jump\t// in\n    tag_63:\n      mload(0x40)\n      dup1\n      swap2\n      sub\n      swap1\n      return\n        /* \"@openzeppelin/contracts/access/Ownable.sol\":2293:2394  function renounceOwnership() public virtual onlyOwner {... */\n    tag_13:\n      tag_64\n      tag_65\n      jump\t// in\n    tag_64:\n      stop\n        /* \"@openzeppelin/contracts/token/ERC20/extensions/ERC20Burnable.sol\":1021:1179  function burnFrom(address account, uint256 value) public virtual {... */\n    tag_14:\n      tag_66\n      0x04\n      dup1\n      calldatasize\n      sub\n      dup2\n      add\n      swap1\n      tag_67\n      swap2\n      swap1\n      tag_33\n      jump\t// in\n    tag_67:\n      tag_68\n      jump\t// in\n    tag_66:\n      stop\n        /* \"@openzeppelin/contracts/access/Ownable.sol\":1638:1723  function owner() public view virtual returns (address) {... */\n    tag_15:\n      tag_69\n      tag_70\n      jump\t// in\n    tag_69:\n      mload(0x40)\n      tag_71\n      swap2\n      swap1\n      tag_72\n      jump\t// in\n    tag_71:\n      mload(0x40)\n      dup1\n      swap2\n      sub\n      swap1\n      return\n        /* \"@openzeppelin/contracts/token/ERC20/ERC20.sol\":1962:2055  function symbol() public view virtual returns (string memory) {... */\n    tag_16:\n      tag_73\n      tag_74\n      jump\t// in\n    tag_73:\n      mload(0x40)\n      tag_75\n      swap2\n      swap1\n      tag_30\n      jump\t// in\n    tag_75:\n      mload(0x40)\n      dup1\n      swap2\n      sub\n      swap1\n      return\n        /* \"@openzeppelin/contracts/token/ERC20/ERC20.sol\":3296:3474  function transfer(address to, uint256 value) public virtual returns (bool) {... */\n    tag_17:\n      tag_76\n      0x04\n      dup1\n      calldatasize\n      sub\n      dup2\n      add\n      swap1\n      tag_77\n      swap2\n      swap1\n      tag_33\n      jump\t// in\n    tag_77:\n      tag_78\n      jump\t// in\n    tag_76:\n      mload(0x40)\n      tag_79\n      swap2\n      swap1\n      tag_36\n      jump\t// in\n    tag_79:\n      mload(0x40)\n      dup1\n      swap2\n      sub\n      swap1\n      return\n        /* \"@openzeppelin/contracts/token/ERC20/ERC20.sol\":3532:3672  function allowance(address owner, address spender) public view virtual returns (uint256) {... */\n    tag_18:\n      tag_80\n      0x04\n      dup1\n      calldatasize\n      sub\n      dup2\n      add\n      swap1\n      tag_81\n      swap2\n      swap1\n      tag_82\n      jump\t// in\n    tag_81:\n      tag_83\n      jump\t// in\n    tag_80:\n      mload(0x40)\n      tag_84\n      swap2\n      swap1\n      tag_40\n      jump\t// in\n    tag_84:\n      mload(0x40)\n      dup1\n      swap2\n      sub\n      swap1\n      return\n        /* \"@openzeppelin/contracts/access/Ownable.sol\":2543:2758  function transferOwnership(address newOwner) public virtual onlyOwner {... */\n    tag_19:\n      tag_85\n      0x04\n      dup1\n      calldatasize\n      sub\n      dup2\n      add\n      swap1\n      tag_86\n      swap2\n      swap1\n      tag_61\n      jump\t// in\n    tag_86:\n      tag_87\n      jump\t// in\n    tag_85:\n      stop\n        /* \"contracts/Soboro.sol\":1382:1850  function requestSurveyCreationOnCrumb(string memory _question, string[] memory _options, bool _initialActiveState) public onlyOwner {... */\n    tag_26:\n        /* \"@openzeppelin/contracts/access/Ownable.sol\":1531:1544  _checkOwner() */\n      tag_89\n        /* \"@openzeppelin/contracts/access/Ownable.sol\":1531:1542  _checkOwner */\n      tag_90\n        /* \"@openzeppelin/contracts/access/Ownable.sol\":1531:1544  _checkOwner() */\n      jump\t// in\n    tag_89:\n        /* \"contracts/Soboro.sol\":1524:1545  uint latestCrumbIndex */\n      0x00\n        /* \"contracts/Soboro.sol\":1561:1562  1 */\n      0x01\n        /* \"contracts/Soboro.sol\":1548:1558  crumbGenID */\n      sload(0x07)\n        /* \"contracts/Soboro.sol\":1548:1562  crumbGenID - 1 */\n      tag_92\n      swap2\n      swap1\n      tag_93\n      jump\t// in\n    tag_92:\n        /* \"contracts/Soboro.sol\":1524:1562  uint latestCrumbIndex = crumbGenID - 1 */\n      swap1\n      pop\n        /* \"contracts/Soboro.sol\":1618:1619  0 */\n      0x00\n        /* \"contracts/Soboro.sol\":1580:1620  crumbMap[latestCrumbIndex] != address(0) */\n      0xffffffffffffffffffffffffffffffffffffffff\n      and\n        /* \"contracts/Soboro.sol\":1580:1588  crumbMap */\n      0x06\n        /* \"contracts/Soboro.sol\":1580:1606  crumbMap[latestCrumbIndex] */\n      0x00\n        /* \"contracts/Soboro.sol\":1589:1605  latestCrumbIndex */\n      dup4\n        /* \"contracts/Soboro.sol\":1580:1606  crumbMap[latestCrumbIndex] */\n      dup2\n      mstore\n      0x20\n      add\n      swap1\n      dup2\n      mstore\n      0x20\n      add\n      0x00\n      keccak256\n      0x00\n      swap1\n      sload\n      swap1\n      0x0100\n      exp\n      swap1\n      div\n      0xffffffffffffffffffffffffffffffffffffffff\n      and\n        /* \"contracts/Soboro.sol\":1580:1620  crumbMap[latestCrumbIndex] != address(0) */\n      0xffffffffffffffffffffffffffffffffffffffff\n      and\n      sub\n        /* \"contracts/Soboro.sol\":1572:1666  require(crumbMap[latestCrumbIndex] != address(0), \"lastest crumb does not exist. Who ate it?\") */\n      tag_94\n      jumpi\n      mload(0x40)\n      0x08c379a000000000000000000000000000000000000000000000000000000000\n      dup2\n      mstore\n      0x04\n      add\n      tag_95\n      swap1\n      tag_96\n      jump\t// in\n    tag_95:\n      mload(0x40)\n      dup1\n      swap2\n      sub\n      swap1\n      revert\n    tag_94:\n        /* \"contracts/Soboro.sol\":1685:1696  Crumb crumb */\n      0x00\n        /* \"contracts/Soboro.sol\":1705:1713  crumbMap */\n      0x06\n        /* \"contracts/Soboro.sol\":1705:1731  crumbMap[latestCrumbIndex] */\n      0x00\n        /* \"contracts/Soboro.sol\":1714:1730  latestCrumbIndex */\n      dup4\n        /* \"contracts/Soboro.sol\":1705:1731  crumbMap[latestCrumbIndex] */\n      dup2\n      mstore\n      0x20\n      add\n      swap1\n      dup2\n      mstore\n      0x20\n      add\n      0x00\n      keccak256\n      0x00\n      swap1\n      sload\n      swap1\n      0x0100\n      exp\n      swap1\n      div\n      0xffffffffffffffffffffffffffffffffffffffff\n      and\n        /* \"contracts/Soboro.sol\":1685:1732  Crumb crumb = Crumb(crumbMap[latestCrumbIndex]) */\n      swap1\n      pop\n        /* \"contracts/Soboro.sol\":1742:1747  crumb */\n      dup1\n        /* \"contracts/Soboro.sol\":1742:1760  crumb.createSurvey */\n      0xffffffffffffffffffffffffffffffffffffffff\n      and\n      0x0c4960dd\n        /* \"contracts/Soboro.sol\":1761:1770  _question */\n      dup7\n        /* \"contracts/Soboro.sol\":1772:1780  _options */\n      dup7\n        /* \"contracts/Soboro.sol\":1782:1801  _initialActiveState */\n      dup7\n        /* \"contracts/Soboro.sol\":1742:1802  crumb.createSurvey(_question, _options, _initialActiveState) */\n      mload(0x40)\n      dup5\n      0xffffffff\n      and\n      0xe0\n      shl\n      dup2\n      mstore\n      0x04\n      add\n      tag_97\n      swap4\n      swap3\n      swap2\n      swap1\n      tag_98\n      jump\t// in\n    tag_97:\n      0x00\n      mload(0x40)\n      dup1\n      dup4\n      sub\n      dup2\n      0x00\n      dup8\n      dup1\n      extcodesize\n      iszero\n      dup1\n      iszero\n      tag_99\n      jumpi\n      0x00\n      dup1\n      revert\n    tag_99:\n      pop\n      gas\n      call\n      iszero\n      dup1\n      iszero\n      tag_101\n      jumpi\n      returndatasize\n      0x00\n      dup1\n      returndatacopy\n      revert(0x00, returndatasize)\n    tag_101:\n      pop\n      pop\n      pop\n      pop\n        /* \"contracts/Soboro.sol\":1514:1850  {... */\n      pop\n      pop\n        /* \"contracts/Soboro.sol\":1382:1850  function requestSurveyCreationOnCrumb(string memory _question, string[] memory _options, bool _initialActiveState) public onlyOwner {... */\n      pop\n      pop\n      pop\n      jump\t// out\n        /* \"@openzeppelin/contracts/token/ERC20/ERC20.sol\":1760:1849  function name() public view virtual returns (string memory) {... */\n    tag_28:\n        /* \"@openzeppelin/contracts/token/ERC20/ERC20.sol\":1805:1818  string memory */\n      0x60\n        /* \"@openzeppelin/contracts/token/ERC20/ERC20.sol\":1837:1842  _name */\n      0x03\n        /* \"@openzeppelin/contracts/token/ERC20/ERC20.sol\":1830:1842  return _name */\n      dup1\n      sload\n      tag_103\n      swap1\n      tag_104\n      jump\t// in\n    tag_103:\n      dup1\n      0x1f\n      add\n      0x20\n      dup1\n      swap2\n      div\n      mul\n      0x20\n      add\n      mload(0x40)\n      swap1\n      dup2\n      add\n      0x40\n      mstore\n      dup1\n      swap3\n      swap2\n      swap1\n      dup2\n      dup2\n      mstore\n      0x20\n      add\n      dup3\n      dup1\n      sload\n      tag_105\n      swap1\n      tag_104\n      jump\t// in\n    tag_105:\n      dup1\n      iszero\n      tag_106\n      jumpi\n      dup1\n      0x1f\n      lt\n      tag_107\n      jumpi\n      0x0100\n      dup1\n      dup4\n      sload\n      div\n      mul\n      dup4\n      mstore\n      swap2\n      0x20\n      add\n      swap2\n      jump(tag_106)\n    tag_107:\n      dup3\n      add\n      swap2\n      swap1\n      0x00\n      mstore\n      keccak256(0x00, 0x20)\n      swap1\n    tag_108:\n      dup2\n      sload\n      dup2\n      mstore\n      swap1\n      0x01\n      add\n      swap1\n      0x20\n      add\n      dup1\n      dup4\n      gt\n      tag_108\n      jumpi\n      dup3\n      swap1\n      sub\n      0x1f\n      and\n      dup3\n      add\n      swap2\n    tag_106:\n      pop\n      pop\n      pop\n      pop\n      pop\n      swap1\n      pop\n        /* \"@openzeppelin/contracts/token/ERC20/ERC20.sol\":1760:1849  function name() public view virtual returns (string memory) {... */\n      swap1\n      jump\t// out\n        /* \"@openzeppelin/contracts/token/ERC20/ERC20.sol\":3979:4165  function approve(address spender, uint256 value) public virtual returns (bool) {... */\n    tag_34:\n        /* \"@openzeppelin/contracts/token/ERC20/ERC20.sol\":4052:4056  bool */\n      0x00\n        /* \"@openzeppelin/contracts/token/ERC20/ERC20.sol\":4068:4081  address owner */\n      dup1\n        /* \"@openzeppelin/contracts/token/ERC20/ERC20.sol\":4084:4096  _msgSender() */\n      tag_110\n        /* \"@openzeppelin/contracts/token/ERC20/ERC20.sol\":4084:4094  _msgSender */\n      tag_111\n        /* \"@openzeppelin/contracts/token/ERC20/ERC20.sol\":4084:4096  _msgSender() */\n      jump\t// in\n    tag_110:\n        /* \"@openzeppelin/contracts/token/ERC20/ERC20.sol\":4068:4096  address owner = _msgSender() */\n      swap1\n      pop\n        /* \"@openzeppelin/contracts/token/ERC20/ERC20.sol\":4106:4137  _approve(owner, spender, value) */\n      tag_112\n        /* \"@openzeppelin/contracts/token/ERC20/ERC20.sol\":4115:4120  owner */\n      dup2\n        /* \"@openzeppelin/contracts/token/ERC20/ERC20.sol\":4122:4129  spender */\n      dup6\n        /* \"@openzeppelin/contracts/token/ERC20/ERC20.sol\":4131:4136  value */\n      dup6\n        /* \"@openzeppelin/contracts/token/ERC20/ERC20.sol\":4106:4114  _approve */\n      tag_113\n        /* \"@openzeppelin/contracts/token/ERC20/ERC20.sol\":4106:4137  _approve(owner, spender, value) */\n      jump\t// in\n    tag_112:\n        /* \"@openzeppelin/contracts/token/ERC20/ERC20.sol\":4154:4158  true */\n      0x01\n        /* \"@openzeppelin/contracts/token/ERC20/ERC20.sol\":4147:4158  return true */\n      swap2\n      pop\n      pop\n        /* \"@openzeppelin/contracts/token/ERC20/ERC20.sol\":3979:4165  function approve(address spender, uint256 value) public virtual returns (bool) {... */\n      swap3\n      swap2\n      pop\n      pop\n      jump\t// out\n        /* \"@openzeppelin/contracts/token/ERC20/ERC20.sol\":2830:2927  function totalSupply() public view virtual returns (uint256) {... */\n    tag_38:\n        /* \"@openzeppelin/contracts/token/ERC20/ERC20.sol\":2882:2889  uint256 */\n      0x00\n        /* \"@openzeppelin/contracts/token/ERC20/ERC20.sol\":2908:2920  _totalSupply */\n      sload(0x02)\n        /* \"@openzeppelin/contracts/token/ERC20/ERC20.sol\":2901:2920  return _totalSupply */\n      swap1\n      pop\n        /* \"@openzeppelin/contracts/token/ERC20/ERC20.sol\":2830:2927  function totalSupply() public view virtual returns (uint256) {... */\n      swap1\n      jump\t// out\n        /* \"@openzeppelin/contracts/token/ERC20/ERC20.sol\":4757:5001  function transferFrom(address from, address to, uint256 value) public virtual returns (bool) {... */\n    tag_44:\n        /* \"@openzeppelin/contracts/token/ERC20/ERC20.sol\":4844:4848  bool */\n      0x00\n        /* \"@openzeppelin/contracts/token/ERC20/ERC20.sol\":4860:4875  address spender */\n      dup1\n        /* \"@openzeppelin/contracts/token/ERC20/ERC20.sol\":4878:4890  _msgSender() */\n      tag_116\n        /* \"@openzeppelin/contracts/token/ERC20/ERC20.sol\":4878:4888  _msgSender */\n      tag_111\n        /* \"@openzeppelin/contracts/token/ERC20/ERC20.sol\":4878:4890  _msgSender() */\n      jump\t// in\n    tag_116:\n        /* \"@openzeppelin/contracts/token/ERC20/ERC20.sol\":4860:4890  address spender = _msgSender() */\n      swap1\n      pop\n        /* \"@openzeppelin/contracts/token/ERC20/ERC20.sol\":4900:4937  _spendAllowance(from, spender, value) */\n      tag_117\n        /* \"@openzeppelin/contracts/token/ERC20/ERC20.sol\":4916:4920  from */\n      dup6\n        /* \"@openzeppelin/contracts/token/ERC20/ERC20.sol\":4922:4929  spender */\n      dup3\n        /* \"@openzeppelin/contracts/token/ERC20/ERC20.sol\":4931:4936  value */\n      dup6\n        /* \"@openzeppelin/contracts/token/ERC20/ERC20.sol\":4900:4915  _spendAllowance */\n      tag_118\n        /* \"@openzeppelin/contracts/token/ERC20/ERC20.sol\":4900:4937  _spendAllowance(from, spender, value) */\n      jump\t// in\n    tag_117:\n        /* \"@openzeppelin/contracts/token/ERC20/ERC20.sol\":4947:4973  _transfer(from, to, value) */\n      tag_119\n        /* \"@openzeppelin/contracts/token/ERC20/ERC20.sol\":4957:4961  from */\n      dup6\n        /* \"@openzeppelin/contracts/token/ERC20/ERC20.sol\":4963:4965  to */\n      dup6\n        /* \"@openzeppelin/contracts/token/ERC20/ERC20.sol\":4967:4972  value */\n      dup6\n        /* \"@openzeppelin/contracts/token/ERC20/ERC20.sol\":4947:4956  _transfer */\n      tag_120\n        /* \"@openzeppelin/contracts/token/ERC20/ERC20.sol\":4947:4973  _transfer(from, to, value) */\n      jump\t// in\n    tag_119:\n        /* \"@openzeppelin/contracts/token/ERC20/ERC20.sol\":4990:4994  true */\n      0x01\n        /* \"@openzeppelin/contracts/token/ERC20/ERC20.sol\":4983:4994  return true */\n      swap2\n      pop\n      pop\n        /* \"@openzeppelin/contracts/token/ERC20/ERC20.sol\":4757:5001  function transferFrom(address from, address to, uint256 value) public virtual returns (bool) {... */\n      swap4\n      swap3\n      pop\n      pop\n      pop\n      jump\t// out\n        /* \"@openzeppelin/contracts/token/ERC20/ERC20.sol\":2688:2770  function decimals() public view virtual returns (uint8) {... */\n    tag_47:\n        /* \"@openzeppelin/contracts/token/ERC20/ERC20.sol\":2737:2742  uint8 */\n      0x00\n        /* \"@openzeppelin/contracts/token/ERC20/ERC20.sol\":2761:2763  18 */\n      0x12\n        /* \"@openzeppelin/contracts/token/ERC20/ERC20.sol\":2754:2763  return 18 */\n      swap1\n      pop\n        /* \"@openzeppelin/contracts/token/ERC20/ERC20.sol\":2688:2770  function decimals() public view virtual returns (uint8) {... */\n      swap1\n      jump\t// out\n        /* \"@openzeppelin/contracts/token/ERC20/extensions/ERC20Capped.sol\":923:1004  function cap() public view virtual returns (uint256) {... */\n    tag_51:\n        /* \"@openzeppelin/contracts/token/ERC20/extensions/ERC20Capped.sol\":967:974  uint256 */\n      0x00\n        /* \"@openzeppelin/contracts/token/ERC20/extensions/ERC20Capped.sol\":993:997  _cap */\n      immutable(\"0x69de3b38836c938ac93bb31643655e6e0a011af0f354a009a432084d0f963864\")\n        /* \"@openzeppelin/contracts/token/ERC20/extensions/ERC20Capped.sol\":986:997  return _cap */\n      swap1\n      pop\n        /* \"@openzeppelin/contracts/token/ERC20/extensions/ERC20Capped.sol\":923:1004  function cap() public view virtual returns (uint256) {... */\n      swap1\n      jump\t// out\n        /* \"@openzeppelin/contracts/token/ERC20/extensions/ERC20Burnable.sol\":618:705  function burn(uint256 value) public virtual {... */\n    tag_56:\n        /* \"@openzeppelin/contracts/token/ERC20/extensions/ERC20Burnable.sol\":672:698  _burn(_msgSender(), value) */\n      tag_124\n        /* \"@openzeppelin/contracts/token/ERC20/extensions/ERC20Burnable.sol\":678:690  _msgSender() */\n      tag_125\n        /* \"@openzeppelin/contracts/token/ERC20/extensions/ERC20Burnable.sol\":678:688  _msgSender */\n      tag_111\n        /* \"@openzeppelin/contracts/token/ERC20/extensions/ERC20Burnable.sol\":678:690  _msgSender() */\n      jump\t// in\n    tag_125:\n        /* \"@openzeppelin/contracts/token/ERC20/extensions/ERC20Burnable.sol\":692:697  value */\n      dup3\n        /* \"@openzeppelin/contracts/token/ERC20/extensions/ERC20Burnable.sol\":672:677  _burn */\n      tag_126\n        /* \"@openzeppelin/contracts/token/ERC20/extensions/ERC20Burnable.sol\":672:698  _burn(_msgSender(), value) */\n      jump\t// in\n    tag_124:\n        /* \"@openzeppelin/contracts/token/ERC20/extensions/ERC20Burnable.sol\":618:705  function burn(uint256 value) public virtual {... */\n      pop\n      jump\t// out\n        /* \"contracts/Soboro.sol\":1108:1342  function createCrumbContract() public onlyOwner {... */\n    tag_58:\n        /* \"@openzeppelin/contracts/access/Ownable.sol\":1531:1544  _checkOwner() */\n      tag_128\n        /* \"@openzeppelin/contracts/access/Ownable.sol\":1531:1542  _checkOwner */\n      tag_90\n        /* \"@openzeppelin/contracts/access/Ownable.sol\":1531:1544  _checkOwner() */\n      jump\t// in\n    tag_128:\n        /* \"contracts/Soboro.sol\":1206:1207  0 */\n      0x00\n        /* \"contracts/Soboro.sol\":1174:1208  crumbMap[crumbGenID] == address(0) */\n      0xffffffffffffffffffffffffffffffffffffffff\n      and\n        /* \"contracts/Soboro.sol\":1174:1182  crumbMap */\n      0x06\n        /* \"contracts/Soboro.sol\":1174:1194  crumbMap[crumbGenID] */\n      0x00\n        /* \"contracts/Soboro.sol\":1183:1193  crumbGenID */\n      sload(0x07)\n        /* \"contracts/Soboro.sol\":1174:1194  crumbMap[crumbGenID] */\n      dup2\n      mstore\n      0x20\n      add\n      swap1\n      dup2\n      mstore\n      0x20\n      add\n      0x00\n      keccak256\n      0x00\n      swap1\n      sload\n      swap1\n      0x0100\n      exp\n      swap1\n      div\n      0xffffffffffffffffffffffffffffffffffffffff\n      and\n        /* \"contracts/Soboro.sol\":1174:1208  crumbMap[crumbGenID] == address(0) */\n      0xffffffffffffffffffffffffffffffffffffffff\n      and\n      eq\n        /* \"contracts/Soboro.sol\":1166:1231  require(crumbMap[crumbGenID] == address(0), \"crumb aleady baked\") */\n      tag_130\n      jumpi\n      mload(0x40)\n      0x08c379a000000000000000000000000000000000000000000000000000000000\n      dup2\n      mstore\n      0x04\n      add\n      tag_131\n      swap1\n      tag_132\n      jump\t// in\n    tag_131:\n      mload(0x40)\n      dup1\n      swap2\n      sub\n      swap1\n      revert\n    tag_130:\n        /* \"contracts/Soboro.sol\":1241:1252  Crumb crumb */\n      0x00\n        /* \"contracts/Soboro.sol\":1255:1266  new Crumb() */\n      mload(0x40)\n      tag_133\n      swap1\n      tag_134\n      jump\t// in\n    tag_133:\n      mload(0x40)\n      dup1\n      swap2\n      sub\n      swap1\n      0x00\n      create\n      dup1\n      iszero\n      dup1\n      iszero\n      tag_135\n      jumpi\n      returndatasize\n      0x00\n      dup1\n      returndatacopy\n      revert(0x00, returndatasize)\n    tag_135:\n      pop\n        /* \"contracts/Soboro.sol\":1241:1266  Crumb crumb = new Crumb() */\n      swap1\n      pop\n        /* \"contracts/Soboro.sol\":1307:1312  crumb */\n      dup1\n        /* \"contracts/Soboro.sol\":1276:1284  crumbMap */\n      0x06\n        /* \"contracts/Soboro.sol\":1276:1296  crumbMap[crumbGenID] */\n      0x00\n        /* \"contracts/Soboro.sol\":1285:1295  crumbGenID */\n      sload(0x07)\n        /* \"contracts/Soboro.sol\":1276:1296  crumbMap[crumbGenID] */\n      dup2\n      mstore\n      0x20\n      add\n      swap1\n      dup2\n      mstore\n      0x20\n      add\n      0x00\n      keccak256\n      0x00\n        /* \"contracts/Soboro.sol\":1276:1313  crumbMap[crumbGenID] = address(crumb) */\n      0x0100\n      exp\n      dup2\n      sload\n      dup2\n      0xffffffffffffffffffffffffffffffffffffffff\n      mul\n      not\n      and\n      swap1\n      dup4\n      0xffffffffffffffffffffffffffffffffffffffff\n      and\n      mul\n      or\n      swap1\n      sstore\n      pop\n        /* \"contracts/Soboro.sol\":1323:1333  crumbGenID */\n      0x07\n      0x00\n        /* \"contracts/Soboro.sol\":1323:1335  crumbGenID++ */\n      dup2\n      sload\n      dup1\n      swap3\n      swap2\n      swap1\n      tag_136\n      swap1\n      tag_137\n      jump\t// in\n    tag_136:\n      swap2\n      swap1\n      pop\n      sstore\n      pop\n        /* \"contracts/Soboro.sol\":1156:1342  {... */\n      pop\n        /* \"contracts/Soboro.sol\":1108:1342  function createCrumbContract() public onlyOwner {... */\n      jump\t// out\n        /* \"@openzeppelin/contracts/token/ERC20/ERC20.sol\":2985:3101  function balanceOf(address account) public view virtual returns (uint256) {... */\n    tag_62:\n        /* \"@openzeppelin/contracts/token/ERC20/ERC20.sol\":3050:3057  uint256 */\n      0x00\n        /* \"@openzeppelin/contracts/token/ERC20/ERC20.sol\":3076:3085  _balances */\n      dup1\n        /* \"@openzeppelin/contracts/token/ERC20/ERC20.sol\":3076:3094  _balances[account] */\n      0x00\n        /* \"@openzeppelin/contracts/token/ERC20/ERC20.sol\":3086:3093  account */\n      dup4\n        /* \"@openzeppelin/contracts/token/ERC20/ERC20.sol\":3076:3094  _balances[account] */\n      0xffffffffffffffffffffffffffffffffffffffff\n      and\n      0xffffffffffffffffffffffffffffffffffffffff\n      and\n      dup2\n      mstore\n      0x20\n      add\n      swap1\n      dup2\n      mstore\n      0x20\n      add\n      0x00\n      keccak256\n      sload\n        /* \"@openzeppelin/contracts/token/ERC20/ERC20.sol\":3069:3094  return _balances[account] */\n      swap1\n      pop\n        /* \"@openzeppelin/contracts/token/ERC20/ERC20.sol\":2985:3101  function balanceOf(address account) public view virtual returns (uint256) {... */\n      swap2\n      swap1\n      pop\n      jump\t// out\n        /* \"@openzeppelin/contracts/access/Ownable.sol\":2293:2394  function renounceOwnership() public virtual onlyOwner {... */\n    tag_65:\n        /* \"@openzeppelin/contracts/access/Ownable.sol\":1531:1544  _checkOwner() */\n      tag_140\n        /* \"@openzeppelin/contracts/access/Ownable.sol\":1531:1542  _checkOwner */\n      tag_90\n        /* \"@openzeppelin/contracts/access/Ownable.sol\":1531:1544  _checkOwner() */\n      jump\t// in\n    tag_140:\n        /* \"@openzeppelin/contracts/access/Ownable.sol\":2357:2387  _transferOwnership(address(0)) */\n      tag_142\n        /* \"@openzeppelin/contracts/access/Ownable.sol\":2384:2385  0 */\n      0x00\n        /* \"@openzeppelin/contracts/access/Ownable.sol\":2357:2375  _transferOwnership */\n      tag_143\n        /* \"@openzeppelin/contracts/access/Ownable.sol\":2357:2387  _transferOwnership(address(0)) */\n      jump\t// in\n    tag_142:\n        /* \"@openzeppelin/contracts/access/Ownable.sol\":2293:2394  function renounceOwnership() public virtual onlyOwner {... */\n      jump\t// out\n        /* \"@openzeppelin/contracts/token/ERC20/extensions/ERC20Burnable.sol\":1021:1179  function burnFrom(address account, uint256 value) public virtual {... */\n    tag_68:\n        /* \"@openzeppelin/contracts/token/ERC20/extensions/ERC20Burnable.sol\":1096:1141  _spendAllowance(account, _msgSender(), value) */\n      tag_145\n        /* \"@openzeppelin/contracts/token/ERC20/extensions/ERC20Burnable.sol\":1112:1119  account */\n      dup3\n        /* \"@openzeppelin/contracts/token/ERC20/extensions/ERC20Burnable.sol\":1121:1133  _msgSender() */\n      tag_146\n        /* \"@openzeppelin/contracts/token/ERC20/extensions/ERC20Burnable.sol\":1121:1131  _msgSender */\n      tag_111\n        /* \"@openzeppelin/contracts/token/ERC20/extensions/ERC20Burnable.sol\":1121:1133  _msgSender() */\n      jump\t// in\n    tag_146:\n        /* \"@openzeppelin/contracts/token/ERC20/extensions/ERC20Burnable.sol\":1135:1140  value */\n      dup4\n        /* \"@openzeppelin/contracts/token/ERC20/extensions/ERC20Burnable.sol\":1096:1111  _spendAllowance */\n      tag_118\n        /* \"@openzeppelin/contracts/token/ERC20/extensions/ERC20Burnable.sol\":1096:1141  _spendAllowance(account, _msgSender(), value) */\n      jump\t// in\n    tag_145:\n        /* \"@openzeppelin/contracts/token/ERC20/extensions/ERC20Burnable.sol\":1151:1172  _burn(account, value) */\n      tag_147\n        /* \"@openzeppelin/contracts/token/ERC20/extensions/ERC20Burnable.sol\":1157:1164  account */\n      dup3\n        /* \"@openzeppelin/contracts/token/ERC20/extensions/ERC20Burnable.sol\":1166:1171  value */\n      dup3\n        /* \"@openzeppelin/contracts/token/ERC20/extensions/ERC20Burnable.sol\":1151:1156  _burn */\n      tag_126\n        /* \"@openzeppelin/contracts/token/ERC20/extensions/ERC20Burnable.sol\":1151:1172  _burn(account, value) */\n      jump\t// in\n    tag_147:\n        /* \"@openzeppelin/contracts/token/ERC20/extensions/ERC20Burnable.sol\":1021:1179  function burnFrom(address account, uint256 value) public virtual {... */\n      pop\n      pop\n      jump\t// out\n        /* \"@openzeppelin/contracts/access/Ownable.sol\":1638:1723  function owner() public view virtual returns (address) {... */\n    tag_70:\n        /* \"@openzeppelin/contracts/access/Ownable.sol\":1684:1691  address */\n      0x00\n        /* \"@openzeppelin/contracts/access/Ownable.sol\":1710:1716  _owner */\n      0x05\n      0x00\n      swap1\n      sload\n      swap1\n      0x0100\n      exp\n      swap1\n      div\n      0xffffffffffffffffffffffffffffffffffffffff\n      and\n        /* \"@openzeppelin/contracts/access/Ownable.sol\":1703:1716  return _owner */\n      swap1\n      pop\n        /* \"@openzeppelin/contracts/access/Ownable.sol\":1638:1723  function owner() public view virtual returns (address) {... */\n      swap1\n      jump\t// out\n        /* \"@openzeppelin/contracts/token/ERC20/ERC20.sol\":1962:2055  function symbol() public view virtual returns (string memory) {... */\n    tag_74:\n        /* \"@openzeppelin/contracts/token/ERC20/ERC20.sol\":2009:2022  string memory */\n      0x60\n        /* \"@openzeppelin/contracts/token/ERC20/ERC20.sol\":2041:2048  _symbol */\n      0x04\n        /* \"@openzeppelin/contracts/token/ERC20/ERC20.sol\":2034:2048  return _symbol */\n      dup1\n      sload\n      tag_150\n      swap1\n      tag_104\n      jump\t// in\n    tag_150:\n      dup1\n      0x1f\n      add\n      0x20\n      dup1\n      swap2\n      div\n      mul\n      0x20\n      add\n      mload(0x40)\n      swap1\n      dup2\n      add\n      0x40\n      mstore\n      dup1\n      swap3\n      swap2\n      swap1\n      dup2\n      dup2\n      mstore\n      0x20\n      add\n      dup3\n      dup1\n      sload\n      tag_151\n      swap1\n      tag_104\n      jump\t// in\n    tag_151:\n      dup1\n      iszero\n      tag_152\n      jumpi\n      dup1\n      0x1f\n      lt\n      tag_153\n      jumpi\n      0x0100\n      dup1\n      dup4\n      sload\n      div\n      mul\n      dup4\n      mstore\n      swap2\n      0x20\n      add\n      swap2\n      jump(tag_152)\n    tag_153:\n      dup3\n      add\n      swap2\n      swap1\n      0x00\n      mstore\n      keccak256(0x00, 0x20)\n      swap1\n    tag_154:\n      dup2\n      sload\n      dup2\n      mstore\n      swap1\n      0x01\n      add\n      swap1\n      0x20\n      add\n      dup1\n      dup4\n      gt\n      tag_154\n      jumpi\n      dup3\n      swap1\n      sub\n      0x1f\n      and\n      dup3\n      add\n      swap2\n    tag_152:\n      pop\n      pop\n      pop\n      pop\n      pop\n      swap1\n      pop\n        /* \"@openzeppelin/contracts/token/ERC20/ERC20.sol\":1962:2055  function symbol() public view virtual returns (string memory) {... */\n      swap1\n      jump\t// out\n        /* \"@openzeppelin/contracts/token/ERC20/ERC20.sol\":3296:3474  function transfer(address to, uint256 value) public virtual returns (bool) {... */\n    tag_78:\n        /* \"@openzeppelin/contracts/token/ERC20/ERC20.sol\":3365:3369  bool */\n      0x00\n        /* \"@openzeppelin/contracts/token/ERC20/ERC20.sol\":3381:3394  address owner */\n      dup1\n        /* \"@openzeppelin/contracts/token/ERC20/ERC20.sol\":3397:3409  _msgSender() */\n      tag_156\n        /* \"@openzeppelin/contracts/token/ERC20/ERC20.sol\":3397:3407  _msgSender */\n      tag_111\n        /* \"@openzeppelin/contracts/token/ERC20/ERC20.sol\":3397:3409  _msgSender() */\n      jump\t// in\n    tag_156:\n        /* \"@openzeppelin/contracts/token/ERC20/ERC20.sol\":3381:3409  address owner = _msgSender() */\n      swap1\n      pop\n        /* \"@openzeppelin/contracts/token/ERC20/ERC20.sol\":3419:3446  _transfer(owner, to, value) */\n      tag_157\n        /* \"@openzeppelin/contracts/token/ERC20/ERC20.sol\":3429:3434  owner */\n      dup2\n        /* \"@openzeppelin/contracts/token/ERC20/ERC20.sol\":3436:3438  to */\n      dup6\n        /* \"@openzeppelin/contracts/token/ERC20/ERC20.sol\":3440:3445  value */\n      dup6\n        /* \"@openzeppelin/contracts/token/ERC20/ERC20.sol\":3419:3428  _transfer */\n      tag_120\n        /* \"@openzeppelin/contracts/token/ERC20/ERC20.sol\":3419:3446  _transfer(owner, to, value) */\n      jump\t// in\n    tag_157:\n        /* \"@openzeppelin/contracts/token/ERC20/ERC20.sol\":3463:3467  true */\n      0x01\n        /* \"@openzeppelin/contracts/token/ERC20/ERC20.sol\":3456:3467  return true */\n      swap2\n      pop\n      pop\n        /* \"@openzeppelin/contracts/token/ERC20/ERC20.sol\":3296:3474  function transfer(address to, uint256 value) public virtual returns (bool) {... */\n      swap3\n      swap2\n      pop\n      pop\n      jump\t// out\n        /* \"@openzeppelin/contracts/token/ERC20/ERC20.sol\":3532:3672  function allowance(address owner, address spender) public view virtual returns (uint256) {... */\n    tag_83:\n        /* \"@openzeppelin/contracts/token/ERC20/ERC20.sol\":3612:3619  uint256 */\n      0x00\n        /* \"@openzeppelin/contracts/token/ERC20/ERC20.sol\":3638:3649  _allowances */\n      0x01\n        /* \"@openzeppelin/contracts/token/ERC20/ERC20.sol\":3638:3656  _allowances[owner] */\n      0x00\n        /* \"@openzeppelin/contracts/token/ERC20/ERC20.sol\":3650:3655  owner */\n      dup5\n        /* \"@openzeppelin/contracts/token/ERC20/ERC20.sol\":3638:3656  _allowances[owner] */\n      0xffffffffffffffffffffffffffffffffffffffff\n      and\n      0xffffffffffffffffffffffffffffffffffffffff\n      and\n      dup2\n      mstore\n      0x20\n      add\n      swap1\n      dup2\n      mstore\n      0x20\n      add\n      0x00\n      keccak256\n        /* \"@openzeppelin/contracts/token/ERC20/ERC20.sol\":3638:3665  _allowances[owner][spender] */\n      0x00\n        /* \"@openzeppelin/contracts/token/ERC20/ERC20.sol\":3657:3664  spender */\n      dup4\n        /* \"@openzeppelin/contracts/token/ERC20/ERC20.sol\":3638:3665  _allowances[owner][spender] */\n      0xffffffffffffffffffffffffffffffffffffffff\n      and\n      0xffffffffffffffffffffffffffffffffffffffff\n      and\n      dup2\n      mstore\n      0x20\n      add\n      swap1\n      dup2\n      mstore\n      0x20\n      add\n      0x00\n      keccak256\n      sload\n        /* \"@openzeppelin/contracts/token/ERC20/ERC20.sol\":3631:3665  return _allowances[owner][spender] */\n      swap1\n      pop\n        /* \"@openzeppelin/contracts/token/ERC20/ERC20.sol\":3532:3672  function allowance(address owner, address spender) public view virtual returns (uint256) {... */\n      swap3\n      swap2\n      pop\n      pop\n      jump\t// out\n        /* \"@openzeppelin/contracts/access/Ownable.sol\":2543:2758  function transferOwnership(address newOwner) public virtual onlyOwner {... */\n    tag_87:\n        /* \"@openzeppelin/contracts/access/Ownable.sol\":1531:1544  _checkOwner() */\n      tag_160\n        /* \"@openzeppelin/contracts/access/Ownable.sol\":1531:1542  _checkOwner */\n      tag_90\n        /* \"@openzeppelin/contracts/access/Ownable.sol\":1531:1544  _checkOwner() */\n      jump\t// in\n    tag_160:\n        /* \"@openzeppelin/contracts/access/Ownable.sol\":2647:2648  0 */\n      0x00\n        /* \"@openzeppelin/contracts/access/Ownable.sol\":2627:2649  newOwner == address(0) */\n      0xffffffffffffffffffffffffffffffffffffffff\n      and\n        /* \"@openzeppelin/contracts/access/Ownable.sol\":2627:2635  newOwner */\n      dup2\n        /* \"@openzeppelin/contracts/access/Ownable.sol\":2627:2649  newOwner == address(0) */\n      0xffffffffffffffffffffffffffffffffffffffff\n      and\n      sub\n        /* \"@openzeppelin/contracts/access/Ownable.sol\":2623:2714  if (newOwner == address(0)) {... */\n      tag_162\n      jumpi\n        /* \"@openzeppelin/contracts/access/Ownable.sol\":2700:2701  0 */\n      0x00\n        /* \"@openzeppelin/contracts/access/Ownable.sol\":2672:2703  OwnableInvalidOwner(address(0)) */\n      mload(0x40)\n      0x1e4fbdf700000000000000000000000000000000000000000000000000000000\n      dup2\n      mstore\n      0x04\n      add\n      tag_163\n      swap2\n      swap1\n      tag_72\n      jump\t// in\n    tag_163:\n      mload(0x40)\n      dup1\n      swap2\n      sub\n      swap1\n      revert\n        /* \"@openzeppelin/contracts/access/Ownable.sol\":2623:2714  if (newOwner == address(0)) {... */\n    tag_162:\n        /* \"@openzeppelin/contracts/access/Ownable.sol\":2723:2751  _transferOwnership(newOwner) */\n      tag_164\n        /* \"@openzeppelin/contracts/access/Ownable.sol\":2742:2750  newOwner */\n      dup2\n        /* \"@openzeppelin/contracts/access/Ownable.sol\":2723:2741  _transferOwnership */\n      tag_143\n        /* \"@openzeppelin/contracts/access/Ownable.sol\":2723:2751  _transferOwnership(newOwner) */\n      jump\t// in\n    tag_164:\n        /* \"@openzeppelin/contracts/access/Ownable.sol\":2543:2758  function transferOwnership(address newOwner) public virtual onlyOwner {... */\n      pop\n      jump\t// out\n        /* \"@openzeppelin/contracts/access/Ownable.sol\":1796:1958  function _checkOwner() internal view virtual {... */\n    tag_90:\n        /* \"@openzeppelin/contracts/access/Ownable.sol\":1866:1878  _msgSender() */\n      tag_166\n        /* \"@openzeppelin/contracts/access/Ownable.sol\":1866:1876  _msgSender */\n      tag_111\n        /* \"@openzeppelin/contracts/access/Ownable.sol\":1866:1878  _msgSender() */\n      jump\t// in\n    tag_166:\n        /* \"@openzeppelin/contracts/access/Ownable.sol\":1855:1878  owner() != _msgSender() */\n      0xffffffffffffffffffffffffffffffffffffffff\n      and\n        /* \"@openzeppelin/contracts/access/Ownable.sol\":1855:1862  owner() */\n      tag_167\n        /* \"@openzeppelin/contracts/access/Ownable.sol\":1855:1860  owner */\n      tag_70\n        /* \"@openzeppelin/contracts/access/Ownable.sol\":1855:1862  owner() */\n      jump\t// in\n    tag_167:\n        /* \"@openzeppelin/contracts/access/Ownable.sol\":1855:1878  owner() != _msgSender() */\n      0xffffffffffffffffffffffffffffffffffffffff\n      and\n      eq\n        /* \"@openzeppelin/contracts/access/Ownable.sol\":1851:1952  if (owner() != _msgSender()) {... */\n      tag_168\n      jumpi\n        /* \"@openzeppelin/contracts/access/Ownable.sol\":1928:1940  _msgSender() */\n      tag_169\n        /* \"@openzeppelin/contracts/access/Ownable.sol\":1928:1938  _msgSender */\n      tag_111\n        /* \"@openzeppelin/contracts/access/Ownable.sol\":1928:1940  _msgSender() */\n      jump\t// in\n    tag_169:\n        /* \"@openzeppelin/contracts/access/Ownable.sol\":1901:1941  OwnableUnauthorizedAccount(_msgSender()) */\n      mload(0x40)\n      0x118cdaa700000000000000000000000000000000000000000000000000000000\n      dup2\n      mstore\n      0x04\n      add\n      tag_170\n      swap2\n      swap1\n      tag_72\n      jump\t// in\n    tag_170:\n      mload(0x40)\n      dup1\n      swap2\n      sub\n      swap1\n      revert\n        /* \"@openzeppelin/contracts/access/Ownable.sol\":1851:1952  if (owner() != _msgSender()) {... */\n    tag_168:\n        /* \"@openzeppelin/contracts/access/Ownable.sol\":1796:1958  function _checkOwner() internal view virtual {... */\n      jump\t// out\n        /* \"@openzeppelin/contracts/utils/Context.sol\":656:752  function _msgSender() internal view virtual returns (address) {... */\n    tag_111:\n        /* \"@openzeppelin/contracts/utils/Context.sol\":709:716  address */\n      0x00\n        /* \"@openzeppelin/contracts/utils/Context.sol\":735:745  msg.sender */\n      caller\n        /* \"@openzeppelin/contracts/utils/Context.sol\":728:745  return msg.sender */\n      swap1\n      pop\n        /* \"@openzeppelin/contracts/utils/Context.sol\":656:752  function _msgSender() internal view virtual returns (address) {... */\n      swap1\n      jump\t// out\n        /* \"@openzeppelin/contracts/token/ERC20/ERC20.sol\":8707:8835  function _approve(address owner, address spender, uint256 value) internal {... */\n    tag_113:\n        /* \"@openzeppelin/contracts/token/ERC20/ERC20.sol\":8791:8828  _approve(owner, spender, value, true) */\n      tag_173\n        /* \"@openzeppelin/contracts/token/ERC20/ERC20.sol\":8800:8805  owner */\n      dup4\n        /* \"@openzeppelin/contracts/token/ERC20/ERC20.sol\":8807:8814  spender */\n      dup4\n        /* \"@openzeppelin/contracts/token/ERC20/ERC20.sol\":8816:8821  value */\n      dup4\n        /* \"@openzeppelin/contracts/token/ERC20/ERC20.sol\":8823:8827  true */\n      0x01\n        /* \"@openzeppelin/contracts/token/ERC20/ERC20.sol\":8791:8799  _approve */\n      tag_174\n        /* \"@openzeppelin/contracts/token/ERC20/ERC20.sol\":8791:8828  _approve(owner, spender, value, true) */\n      jump\t// in\n    tag_173:\n        /* \"@openzeppelin/contracts/token/ERC20/ERC20.sol\":8707:8835  function _approve(address owner, address spender, uint256 value) internal {... */\n      pop\n      pop\n      pop\n      jump\t// out\n        /* \"@openzeppelin/contracts/token/ERC20/ERC20.sol\":10396:10872  function _spendAllowance(address owner, address spender, uint256 value) internal virtual {... */\n    tag_118:\n        /* \"@openzeppelin/contracts/token/ERC20/ERC20.sol\":10495:10519  uint256 currentAllowance */\n      0x00\n        /* \"@openzeppelin/contracts/token/ERC20/ERC20.sol\":10522:10547  allowance(owner, spender) */\n      tag_176\n        /* \"@openzeppelin/contracts/token/ERC20/ERC20.sol\":10532:10537  owner */\n      dup5\n        /* \"@openzeppelin/contracts/token/ERC20/ERC20.sol\":10539:10546  spender */\n      dup5\n        /* \"@openzeppelin/contracts/token/ERC20/ERC20.sol\":10522:10531  allowance */\n      tag_83\n        /* \"@openzeppelin/contracts/token/ERC20/ERC20.sol\":10522:10547  allowance(owner, spender) */\n      jump\t// in\n    tag_176:\n        /* \"@openzeppelin/contracts/token/ERC20/ERC20.sol\":10495:10547  uint256 currentAllowance = allowance(owner, spender) */\n      swap1\n      pop\n        /* \"@openzeppelin/contracts/token/ERC20/ERC20.sol\":10580:10597  type(uint256).max */\n      0xffffffffffffffffffffffffffffffffffffffffffffffffffffffffffffffff\n        /* \"@openzeppelin/contracts/token/ERC20/ERC20.sol\":10561:10577  currentAllowance */\n      dup2\n        /* \"@openzeppelin/contracts/token/ERC20/ERC20.sol\":10561:10597  currentAllowance < type(uint256).max */\n      lt\n        /* \"@openzeppelin/contracts/token/ERC20/ERC20.sol\":10557:10866  if (currentAllowance < type(uint256).max) {... */\n      iszero\n      tag_177\n      jumpi\n        /* \"@openzeppelin/contracts/token/ERC20/ERC20.sol\":10636:10641  value */\n      dup2\n        /* \"@openzeppelin/contracts/token/ERC20/ERC20.sol\":10617:10633  currentAllowance */\n      dup2\n        /* \"@openzeppelin/contracts/token/ERC20/ERC20.sol\":10617:10641  currentAllowance < value */\n      lt\n        /* \"@openzeppelin/contracts/token/ERC20/ERC20.sol\":10613:10743  if (currentAllowance < value) {... */\n      iszero\n      tag_178\n      jumpi\n        /* \"@openzeppelin/contracts/token/ERC20/ERC20.sol\":10695:10702  spender */\n      dup3\n        /* \"@openzeppelin/contracts/token/ERC20/ERC20.sol\":10704:10720  currentAllowance */\n      dup2\n        /* \"@openzeppelin/contracts/token/ERC20/ERC20.sol\":10722:10727  value */\n      dup4\n        /* \"@openzeppelin/contracts/token/ERC20/ERC20.sol\":10668:10728  ERC20InsufficientAllowance(spender, currentAllowance, value) */\n      mload(0x40)\n      0xfb8f41b200000000000000000000000000000000000000000000000000000000\n      dup2\n      mstore\n      0x04\n      add\n      tag_179\n      swap4\n      swap3\n      swap2\n      swap1\n      tag_180\n      jump\t// in\n    tag_179:\n      mload(0x40)\n      dup1\n      swap2\n      sub\n      swap1\n      revert\n        /* \"@openzeppelin/contracts/token/ERC20/ERC20.sol\":10613:10743  if (currentAllowance < value) {... */\n    tag_178:\n        /* \"@openzeppelin/contracts/token/ERC20/ERC20.sol\":10784:10841  _approve(owner, spender, currentAllowance - value, false) */\n      tag_181\n        /* \"@openzeppelin/contracts/token/ERC20/ERC20.sol\":10793:10798  owner */\n      dup5\n        /* \"@openzeppelin/contracts/token/ERC20/ERC20.sol\":10800:10807  spender */\n      dup5\n        /* \"@openzeppelin/contracts/token/ERC20/ERC20.sol\":10828:10833  value */\n      dup5\n        /* \"@openzeppelin/contracts/token/ERC20/ERC20.sol\":10809:10825  currentAllowance */\n      dup5\n        /* \"@openzeppelin/contracts/token/ERC20/ERC20.sol\":10809:10833  currentAllowance - value */\n      sub\n        /* \"@openzeppelin/contracts/token/ERC20/ERC20.sol\":10835:10840  false */\n      0x00\n        /* \"@openzeppelin/contracts/token/ERC20/ERC20.sol\":10784:10792  _approve */\n      tag_174\n        /* \"@openzeppelin/contracts/token/ERC20/ERC20.sol\":10784:10841  _approve(owner, spender, currentAllowance - value, false) */\n      jump\t// in\n    tag_181:\n        /* \"@openzeppelin/contracts/token/ERC20/ERC20.sol\":10557:10866  if (currentAllowance < type(uint256).max) {... */\n    tag_177:\n        /* \"@openzeppelin/contracts/token/ERC20/ERC20.sol\":10485:10872  {... */\n      pop\n        /* \"@openzeppelin/contracts/token/ERC20/ERC20.sol\":10396:10872  function _spendAllowance(address owner, address spender, uint256 value) internal virtual {... */\n      pop\n      pop\n      pop\n      jump\t// out\n        /* \"@openzeppelin/contracts/token/ERC20/ERC20.sol\":5374:5674  function _transfer(address from, address to, uint256 value) internal {... */\n    tag_120:\n        /* \"@openzeppelin/contracts/token/ERC20/ERC20.sol\":5473:5474  0 */\n      0x00\n        /* \"@openzeppelin/contracts/token/ERC20/ERC20.sol\":5457:5475  from == address(0) */\n      0xffffffffffffffffffffffffffffffffffffffff\n      and\n        /* \"@openzeppelin/contracts/token/ERC20/ERC20.sol\":5457:5461  from */\n      dup4\n        /* \"@openzeppelin/contracts/token/ERC20/ERC20.sol\":5457:5475  from == address(0) */\n      0xffffffffffffffffffffffffffffffffffffffff\n      and\n      sub\n        /* \"@openzeppelin/contracts/token/ERC20/ERC20.sol\":5453:5539  if (from == address(0)) {... */\n      tag_183\n      jumpi\n        /* \"@openzeppelin/contracts/token/ERC20/ERC20.sol\":5525:5526  0 */\n      0x00\n        /* \"@openzeppelin/contracts/token/ERC20/ERC20.sol\":5498:5528  ERC20InvalidSender(address(0)) */\n      mload(0x40)\n      0x96c6fd1e00000000000000000000000000000000000000000000000000000000\n      dup2\n      mstore\n      0x04\n      add\n      tag_184\n      swap2\n      swap1\n      tag_72\n      jump\t// in\n    tag_184:\n      mload(0x40)\n      dup1\n      swap2\n      sub\n      swap1\n      revert\n        /* \"@openzeppelin/contracts/token/ERC20/ERC20.sol\":5453:5539  if (from == address(0)) {... */\n    tag_183:\n        /* \"@openzeppelin/contracts/token/ERC20/ERC20.sol\":5566:5567  0 */\n      0x00\n        /* \"@openzeppelin/contracts/token/ERC20/ERC20.sol\":5552:5568  to == address(0) */\n      0xffffffffffffffffffffffffffffffffffffffff\n      and\n        /* \"@openzeppelin/contracts/token/ERC20/ERC20.sol\":5552:5554  to */\n      dup3\n        /* \"@openzeppelin/contracts/token/ERC20/ERC20.sol\":5552:5568  to == address(0) */\n      0xffffffffffffffffffffffffffffffffffffffff\n      and\n      sub\n        /* \"@openzeppelin/contracts/token/ERC20/ERC20.sol\":5548:5634  if (to == address(0)) {... */\n      tag_185\n      jumpi\n        /* \"@openzeppelin/contracts/token/ERC20/ERC20.sol\":5620:5621  0 */\n      0x00\n        /* \"@openzeppelin/contracts/token/ERC20/ERC20.sol\":5591:5623  ERC20InvalidReceiver(address(0)) */\n      mload(0x40)\n      0xec442f0500000000000000000000000000000000000000000000000000000000\n      dup2\n      mstore\n      0x04\n      add\n      tag_186\n      swap2\n      swap1\n      tag_72\n      jump\t// in\n    tag_186:\n      mload(0x40)\n      dup1\n      swap2\n      sub\n      swap1\n      revert\n        /* \"@openzeppelin/contracts/token/ERC20/ERC20.sol\":5548:5634  if (to == address(0)) {... */\n    tag_185:\n        /* \"@openzeppelin/contracts/token/ERC20/ERC20.sol\":5643:5667  _update(from, to, value) */\n      tag_187\n        /* \"@openzeppelin/contracts/token/ERC20/ERC20.sol\":5651:5655  from */\n      dup4\n        /* \"@openzeppelin/contracts/token/ERC20/ERC20.sol\":5657:5659  to */\n      dup4\n        /* \"@openzeppelin/contracts/token/ERC20/ERC20.sol\":5661:5666  value */\n      dup4\n        /* \"@openzeppelin/contracts/token/ERC20/ERC20.sol\":5643:5650  _update */\n      tag_188\n        /* \"@openzeppelin/contracts/token/ERC20/ERC20.sol\":5643:5667  _update(from, to, value) */\n      jump\t// in\n    tag_187:\n        /* \"@openzeppelin/contracts/token/ERC20/ERC20.sol\":5374:5674  function _transfer(address from, address to, uint256 value) internal {... */\n      pop\n      pop\n      pop\n      jump\t// out\n        /* \"@openzeppelin/contracts/token/ERC20/ERC20.sol\":7965:8171  function _burn(address account, uint256 value) internal {... */\n    tag_126:\n        /* \"@openzeppelin/contracts/token/ERC20/ERC20.sol\":8054:8055  0 */\n      0x00\n        /* \"@openzeppelin/contracts/token/ERC20/ERC20.sol\":8035:8056  account == address(0) */\n      0xffffffffffffffffffffffffffffffffffffffff\n      and\n        /* \"@openzeppelin/contracts/token/ERC20/ERC20.sol\":8035:8042  account */\n      dup3\n        /* \"@openzeppelin/contracts/token/ERC20/ERC20.sol\":8035:8056  account == address(0) */\n      0xffffffffffffffffffffffffffffffffffffffff\n      and\n      sub\n        /* \"@openzeppelin/contracts/token/ERC20/ERC20.sol\":8031:8120  if (account == address(0)) {... */\n      tag_190\n      jumpi\n        /* \"@openzeppelin/contracts/token/ERC20/ERC20.sol\":8106:8107  0 */\n      0x00\n        /* \"@openzeppelin/contracts/token/ERC20/ERC20.sol\":8079:8109  ERC20InvalidSender(address(0)) */\n      mload(0x40)\n      0x96c6fd1e00000000000000000000000000000000000000000000000000000000\n      dup2\n      mstore\n      0x04\n      add\n      tag_191\n      swap2\n      swap1\n      tag_72\n      jump\t// in\n    tag_191:\n      mload(0x40)\n      dup1\n      swap2\n      sub\n      swap1\n      revert\n        /* \"@openzeppelin/contracts/token/ERC20/ERC20.sol\":8031:8120  if (account == address(0)) {... */\n    tag_190:\n        /* \"@openzeppelin/contracts/token/ERC20/ERC20.sol\":8129:8164  _update(account, address(0), value) */\n      tag_192\n        /* \"@openzeppelin/contracts/token/ERC20/ERC20.sol\":8137:8144  account */\n      dup3\n        /* \"@openzeppelin/contracts/token/ERC20/ERC20.sol\":8154:8155  0 */\n      0x00\n        /* \"@openzeppelin/contracts/token/ERC20/ERC20.sol\":8158:8163  value */\n      dup4\n        /* \"@openzeppelin/contracts/token/ERC20/ERC20.sol\":8129:8136  _update */\n      tag_188\n        /* \"@openzeppelin/contracts/token/ERC20/ERC20.sol\":8129:8164  _update(account, address(0), value) */\n      jump\t// in\n    tag_192:\n        /* \"@openzeppelin/contracts/token/ERC20/ERC20.sol\":7965:8171  function _burn(address account, uint256 value) internal {... */\n      pop\n      pop\n      jump\t// out\n        /* \"@openzeppelin/contracts/access/Ownable.sol\":2912:3099  function _transferOwnership(address newOwner) internal virtual {... */\n    tag_143:\n        /* \"@openzeppelin/contracts/access/Ownable.sol\":2985:3001  address oldOwner */\n      0x00\n        /* \"@openzeppelin/contracts/access/Ownable.sol\":3004:3010  _owner */\n      0x05\n      0x00\n      swap1\n      sload\n      swap1\n      0x0100\n      exp\n      swap1\n      div\n      0xffffffffffffffffffffffffffffffffffffffff\n      and\n        /* \"@openzeppelin/contracts/access/Ownable.sol\":2985:3010  address oldOwner = _owner */\n      swap1\n      pop\n        /* \"@openzeppelin/contracts/access/Ownable.sol\":3029:3037  newOwner */\n      dup2\n        /* \"@openzeppelin/contracts/access/Ownable.sol\":3020:3026  _owner */\n      0x05\n      0x00\n        /* \"@openzeppelin/contracts/access/Ownable.sol\":3020:3037  _owner = newOwner */\n      0x0100\n      exp\n      dup2\n      sload\n      dup2\n      0xffffffffffffffffffffffffffffffffffffffff\n      mul\n      not\n      and\n      swap1\n      dup4\n      0xffffffffffffffffffffffffffffffffffffffff\n      and\n      mul\n      or\n      swap1\n      sstore\n      pop\n        /* \"@openzeppelin/contracts/access/Ownable.sol\":3083:3091  newOwner */\n      dup2\n        /* \"@openzeppelin/contracts/access/Ownable.sol\":3052:3092  OwnershipTransferred(oldOwner, newOwner) */\n      0xffffffffffffffffffffffffffffffffffffffff\n      and\n        /* \"@openzeppelin/contracts/access/Ownable.sol\":3073:3081  oldOwner */\n      dup2\n        /* \"@openzeppelin/contracts/access/Ownable.sol\":3052:3092  OwnershipTransferred(oldOwner, newOwner) */\n      0xffffffffffffffffffffffffffffffffffffffff\n      and\n      0x8be0079c531659141344cd1fd0a4f28419497f9722a3daafe3b4186f6b6457e0\n      mload(0x40)\n      mload(0x40)\n      dup1\n      swap2\n      sub\n      swap1\n      log3\n        /* \"@openzeppelin/contracts/access/Ownable.sol\":2975:3099  {... */\n      pop\n        /* \"@openzeppelin/contracts/access/Ownable.sol\":2912:3099  function _transferOwnership(address newOwner) internal virtual {... */\n      pop\n      jump\t// out\n        /* \"@openzeppelin/contracts/token/ERC20/ERC20.sol\":9682:10114  function _approve(address owner, address spender, uint256 value, bool emitEvent) internal virtual {... */\n    tag_174:\n        /* \"@openzeppelin/contracts/token/ERC20/ERC20.sol\":9811:9812  0 */\n      0x00\n        /* \"@openzeppelin/contracts/token/ERC20/ERC20.sol\":9794:9813  owner == address(0) */\n      0xffffffffffffffffffffffffffffffffffffffff\n      and\n        /* \"@openzeppelin/contracts/token/ERC20/ERC20.sol\":9794:9799  owner */\n      dup5\n        /* \"@openzeppelin/contracts/token/ERC20/ERC20.sol\":9794:9813  owner == address(0) */\n      0xffffffffffffffffffffffffffffffffffffffff\n      and\n      sub\n        /* \"@openzeppelin/contracts/token/ERC20/ERC20.sol\":9790:9879  if (owner == address(0)) {... */\n      tag_195\n      jumpi\n        /* \"@openzeppelin/contracts/token/ERC20/ERC20.sol\":9865:9866  0 */\n      0x00\n        /* \"@openzeppelin/contracts/token/ERC20/ERC20.sol\":9836:9868  ERC20InvalidApprover(address(0)) */\n      mload(0x40)\n      0xe602df0500000000000000000000000000000000000000000000000000000000\n      dup2\n      mstore\n      0x04\n      add\n      tag_196\n      swap2\n      swap1\n      tag_72\n      jump\t// in\n    tag_196:\n      mload(0x40)\n      dup1\n      swap2\n      sub\n      swap1\n      revert\n        /* \"@openzeppelin/contracts/token/ERC20/ERC20.sol\":9790:9879  if (owner == address(0)) {... */\n    tag_195:\n        /* \"@openzeppelin/contracts/token/ERC20/ERC20.sol\":9911:9912  0 */\n      0x00\n        /* \"@openzeppelin/contracts/token/ERC20/ERC20.sol\":9892:9913  spender == address(0) */\n      0xffffffffffffffffffffffffffffffffffffffff\n      and\n        /* \"@openzeppelin/contracts/token/ERC20/ERC20.sol\":9892:9899  spender */\n      dup4\n        /* \"@openzeppelin/contracts/token/ERC20/ERC20.sol\":9892:9913  spender == address(0) */\n      0xffffffffffffffffffffffffffffffffffffffff\n      and\n      sub\n        /* \"@openzeppelin/contracts/token/ERC20/ERC20.sol\":9888:9978  if (spender == address(0)) {... */\n      tag_197\n      jumpi\n        /* \"@openzeppelin/contracts/token/ERC20/ERC20.sol\":9964:9965  0 */\n      0x00\n        /* \"@openzeppelin/contracts/token/ERC20/ERC20.sol\":9936:9967  ERC20InvalidSpender(address(0)) */\n      mload(0x40)\n      0x94280d6200000000000000000000000000000000000000000000000000000000\n      dup2\n      mstore\n      0x04\n      add\n      tag_198\n      swap2\n      swap1\n      tag_72\n      jump\t// in\n    tag_198:\n      mload(0x40)\n      dup1\n      swap2\n      sub\n      swap1\n      revert\n        /* \"@openzeppelin/contracts/token/ERC20/ERC20.sol\":9888:9978  if (spender == address(0)) {... */\n    tag_197:\n        /* \"@openzeppelin/contracts/token/ERC20/ERC20.sol\":10017:10022  value */\n      dup2\n        /* \"@openzeppelin/contracts/token/ERC20/ERC20.sol\":9987:9998  _allowances */\n      0x01\n        /* \"@openzeppelin/contracts/token/ERC20/ERC20.sol\":9987:10005  _allowances[owner] */\n      0x00\n        /* \"@openzeppelin/contracts/token/ERC20/ERC20.sol\":9999:10004  owner */\n      dup7\n        /* \"@openzeppelin/contracts/token/ERC20/ERC20.sol\":9987:10005  _allowances[owner] */\n      0xffffffffffffffffffffffffffffffffffffffff\n      and\n      0xffffffffffffffffffffffffffffffffffffffff\n      and\n      dup2\n      mstore\n      0x20\n      add\n      swap1\n      dup2\n      mstore\n      0x20\n      add\n      0x00\n      keccak256\n        /* \"@openzeppelin/contracts/token/ERC20/ERC20.sol\":9987:10014  _allowances[owner][spender] */\n      0x00\n        /* \"@openzeppelin/contracts/token/ERC20/ERC20.sol\":10006:10013  spender */\n      dup6\n        /* \"@openzeppelin/contracts/token/ERC20/ERC20.sol\":9987:10014  _allowances[owner][spender] */\n      0xffffffffffffffffffffffffffffffffffffffff\n      and\n      0xffffffffffffffffffffffffffffffffffffffff\n      and\n      dup2\n      mstore\n      0x20\n      add\n      swap1\n      dup2\n      mstore\n      0x20\n      add\n      0x00\n      keccak256\n        /* \"@openzeppelin/contracts/token/ERC20/ERC20.sol\":9987:10022  _allowances[owner][spender] = value */\n      dup2\n      swap1\n      sstore\n      pop\n        /* \"@openzeppelin/contracts/token/ERC20/ERC20.sol\":10036:10045  emitEvent */\n      dup1\n        /* \"@openzeppelin/contracts/token/ERC20/ERC20.sol\":10032:10108  if (emitEvent) {... */\n      iszero\n      tag_199\n      jumpi\n        /* \"@openzeppelin/contracts/token/ERC20/ERC20.sol\":10082:10089  spender */\n      dup3\n        /* \"@openzeppelin/contracts/token/ERC20/ERC20.sol\":10066:10097  Approval(owner, spender, value) */\n      0xffffffffffffffffffffffffffffffffffffffff\n      and\n        /* \"@openzeppelin/contracts/token/ERC20/ERC20.sol\":10075:10080  owner */\n      dup5\n        /* \"@openzeppelin/contracts/token/ERC20/ERC20.sol\":10066:10097  Approval(owner, spender, value) */\n      0xffffffffffffffffffffffffffffffffffffffff\n      and\n      0x8c5be1e5ebec7d5bd14f71427d1e84f3dd0314c0f7b2291e5b200ac8c7c3b925\n        /* \"@openzeppelin/contracts/token/ERC20/ERC20.sol\":10091:10096  value */\n      dup5\n        /* \"@openzeppelin/contracts/token/ERC20/ERC20.sol\":10066:10097  Approval(owner, spender, value) */\n      mload(0x40)\n      tag_200\n      swap2\n      swap1\n      tag_40\n      jump\t// in\n    tag_200:\n      mload(0x40)\n      dup1\n      swap2\n      sub\n      swap1\n      log3\n        /* \"@openzeppelin/contracts/token/ERC20/ERC20.sol\":10032:10108  if (emitEvent) {... */\n    tag_199:\n        /* \"@openzeppelin/contracts/token/ERC20/ERC20.sol\":9682:10114  function _approve(address owner, address spender, uint256 value, bool emitEvent) internal virtual {... */\n      pop\n      pop\n      pop\n      pop\n      jump\t// out\n        /* \"contracts/Soboro.sol\":912:1055  function _update(address from, address to, uint256 value) internal override(ERC20, ERC20Capped) {... */\n    tag_188:\n        /* \"contracts/Soboro.sol\":1018:1048  super._update(from, to, value) */\n      tag_202\n        /* \"contracts/Soboro.sol\":1032:1036  from */\n      dup4\n        /* \"contracts/Soboro.sol\":1038:1040  to */\n      dup4\n        /* \"contracts/Soboro.sol\":1042:1047  value */\n      dup4\n        /* \"contracts/Soboro.sol\":1018:1031  super._update */\n      tag_203\n        /* \"contracts/Soboro.sol\":1018:1048  super._update(from, to, value) */\n      jump\t// in\n    tag_202:\n        /* \"contracts/Soboro.sol\":912:1055  function _update(address from, address to, uint256 value) internal override(ERC20, ERC20Capped) {... */\n      pop\n      pop\n      pop\n      jump\t// out\n        /* \"@openzeppelin/contracts/token/ERC20/extensions/ERC20Capped.sol\":1059:1430  function _update(address from, address to, uint256 value) internal virtual override {... */\n    tag_203:\n        /* \"@openzeppelin/contracts/token/ERC20/extensions/ERC20Capped.sol\":1153:1183  super._update(from, to, value) */\n      tag_205\n        /* \"@openzeppelin/contracts/token/ERC20/extensions/ERC20Capped.sol\":1167:1171  from */\n      dup4\n        /* \"@openzeppelin/contracts/token/ERC20/extensions/ERC20Capped.sol\":1173:1175  to */\n      dup4\n        /* \"@openzeppelin/contracts/token/ERC20/extensions/ERC20Capped.sol\":1177:1182  value */\n      dup4\n        /* \"@openzeppelin/contracts/token/ERC20/extensions/ERC20Capped.sol\":1153:1166  super._update */\n      tag_206\n        /* \"@openzeppelin/contracts/token/ERC20/extensions/ERC20Capped.sol\":1153:1183  super._update(from, to, value) */\n      jump\t// in\n    tag_205:\n        /* \"@openzeppelin/contracts/token/ERC20/extensions/ERC20Capped.sol\":1214:1215  0 */\n      0x00\n        /* \"@openzeppelin/contracts/token/ERC20/extensions/ERC20Capped.sol\":1198:1216  from == address(0) */\n      0xffffffffffffffffffffffffffffffffffffffff\n      and\n        /* \"@openzeppelin/contracts/token/ERC20/extensions/ERC20Capped.sol\":1198:1202  from */\n      dup4\n        /* \"@openzeppelin/contracts/token/ERC20/extensions/ERC20Capped.sol\":1198:1216  from == address(0) */\n      0xffffffffffffffffffffffffffffffffffffffff\n      and\n      sub\n        /* \"@openzeppelin/contracts/token/ERC20/extensions/ERC20Capped.sol\":1194:1424  if (from == address(0)) {... */\n      tag_207\n      jumpi\n        /* \"@openzeppelin/contracts/token/ERC20/extensions/ERC20Capped.sol\":1232:1249  uint256 maxSupply */\n      0x00\n        /* \"@openzeppelin/contracts/token/ERC20/extensions/ERC20Capped.sol\":1252:1257  cap() */\n      tag_208\n        /* \"@openzeppelin/contracts/token/ERC20/extensions/ERC20Capped.sol\":1252:1255  cap */\n      tag_51\n        /* \"@openzeppelin/contracts/token/ERC20/extensions/ERC20Capped.sol\":1252:1257  cap() */\n      jump\t// in\n    tag_208:\n        /* \"@openzeppelin/contracts/token/ERC20/extensions/ERC20Capped.sol\":1232:1257  uint256 maxSupply = cap() */\n      swap1\n      pop\n        /* \"@openzeppelin/contracts/token/ERC20/extensions/ERC20Capped.sol\":1271:1285  uint256 supply */\n      0x00\n        /* \"@openzeppelin/contracts/token/ERC20/extensions/ERC20Capped.sol\":1288:1301  totalSupply() */\n      tag_209\n        /* \"@openzeppelin/contracts/token/ERC20/extensions/ERC20Capped.sol\":1288:1299  totalSupply */\n      tag_38\n        /* \"@openzeppelin/contracts/token/ERC20/extensions/ERC20Capped.sol\":1288:1301  totalSupply() */\n      jump\t// in\n    tag_209:\n        /* \"@openzeppelin/contracts/token/ERC20/extensions/ERC20Capped.sol\":1271:1301  uint256 supply = totalSupply() */\n      swap1\n      pop\n        /* \"@openzeppelin/contracts/token/ERC20/extensions/ERC20Capped.sol\":1328:1337  maxSupply */\n      dup2\n        /* \"@openzeppelin/contracts/token/ERC20/extensions/ERC20Capped.sol\":1319:1325  supply */\n      dup2\n        /* \"@openzeppelin/contracts/token/ERC20/extensions/ERC20Capped.sol\":1319:1337  supply > maxSupply */\n      gt\n        /* \"@openzeppelin/contracts/token/ERC20/extensions/ERC20Capped.sol\":1315:1414  if (supply > maxSupply) {... */\n      iszero\n      tag_210\n      jumpi\n        /* \"@openzeppelin/contracts/token/ERC20/extensions/ERC20Capped.sol\":1381:1387  supply */\n      dup1\n        /* \"@openzeppelin/contracts/token/ERC20/extensions/ERC20Capped.sol\":1389:1398  maxSupply */\n      dup3\n        /* \"@openzeppelin/contracts/token/ERC20/extensions/ERC20Capped.sol\":1364:1399  ERC20ExceededCap(supply, maxSupply) */\n      mload(0x40)\n      0x9e79f85400000000000000000000000000000000000000000000000000000000\n      dup2\n      mstore\n      0x04\n      add\n      tag_211\n      swap3\n      swap2\n      swap1\n      tag_212\n      jump\t// in\n    tag_211:\n      mload(0x40)\n      dup1\n      swap2\n      sub\n      swap1\n      revert\n        /* \"@openzeppelin/contracts/token/ERC20/extensions/ERC20Capped.sol\":1315:1414  if (supply > maxSupply) {... */\n    tag_210:\n        /* \"@openzeppelin/contracts/token/ERC20/extensions/ERC20Capped.sol\":1218:1424  {... */\n      pop\n      pop\n        /* \"@openzeppelin/contracts/token/ERC20/extensions/ERC20Capped.sol\":1194:1424  if (from == address(0)) {... */\n    tag_207:\n        /* \"@openzeppelin/contracts/token/ERC20/extensions/ERC20Capped.sol\":1059:1430  function _update(address from, address to, uint256 value) internal virtual override {... */\n      pop\n      pop\n      pop\n      jump\t// out\n        /* \"@openzeppelin/contracts/token/ERC20/ERC20.sol\":5989:7096  function _update(address from, address to, uint256 value) internal virtual {... */\n    tag_206:\n        /* \"@openzeppelin/contracts/token/ERC20/ERC20.sol\":6094:6095  0 */\n      0x00\n        /* \"@openzeppelin/contracts/token/ERC20/ERC20.sol\":6078:6096  from == address(0) */\n      0xffffffffffffffffffffffffffffffffffffffff\n      and\n        /* \"@openzeppelin/contracts/token/ERC20/ERC20.sol\":6078:6082  from */\n      dup4\n        /* \"@openzeppelin/contracts/token/ERC20/ERC20.sol\":6078:6096  from == address(0) */\n      0xffffffffffffffffffffffffffffffffffffffff\n      and\n      sub\n        /* \"@openzeppelin/contracts/token/ERC20/ERC20.sol\":6074:6614  if (from == address(0)) {... */\n      tag_214\n      jumpi\n        /* \"@openzeppelin/contracts/token/ERC20/ERC20.sol\":6230:6235  value */\n      dup1\n        /* \"@openzeppelin/contracts/token/ERC20/ERC20.sol\":6214:6226  _totalSupply */\n      0x02\n      0x00\n        /* \"@openzeppelin/contracts/token/ERC20/ERC20.sol\":6214:6235  _totalSupply += value */\n      dup3\n      dup3\n      sload\n      tag_215\n      swap2\n      swap1\n      tag_216\n      jump\t// in\n    tag_215:\n      swap3\n      pop\n      pop\n      dup2\n      swap1\n      sstore\n      pop\n        /* \"@openzeppelin/contracts/token/ERC20/ERC20.sol\":6074:6614  if (from == address(0)) {... */\n      jump(tag_217)\n    tag_214:\n        /* \"@openzeppelin/contracts/token/ERC20/ERC20.sol\":6266:6285  uint256 fromBalance */\n      0x00\n        /* \"@openzeppelin/contracts/token/ERC20/ERC20.sol\":6288:6297  _balances */\n      dup1\n        /* \"@openzeppelin/contracts/token/ERC20/ERC20.sol\":6288:6303  _balances[from] */\n      0x00\n        /* \"@openzeppelin/contracts/token/ERC20/ERC20.sol\":6298:6302  from */\n      dup6\n        /* \"@openzeppelin/contracts/token/ERC20/ERC20.sol\":6288:6303  _balances[from] */\n      0xffffffffffffffffffffffffffffffffffffffff\n      and\n      0xffffffffffffffffffffffffffffffffffffffff\n      and\n      dup2\n      mstore\n      0x20\n      add\n      swap1\n      dup2\n      mstore\n      0x20\n      add\n      0x00\n      keccak256\n      sload\n        /* \"@openzeppelin/contracts/token/ERC20/ERC20.sol\":6266:6303  uint256 fromBalance = _balances[from] */\n      swap1\n      pop\n        /* \"@openzeppelin/contracts/token/ERC20/ERC20.sol\":6335:6340  value */\n      dup2\n        /* \"@openzeppelin/contracts/token/ERC20/ERC20.sol\":6321:6332  fromBalance */\n      dup2\n        /* \"@openzeppelin/contracts/token/ERC20/ERC20.sol\":6321:6340  fromBalance < value */\n      lt\n        /* \"@openzeppelin/contracts/token/ERC20/ERC20.sol\":6317:6432  if (fromBalance < value) {... */\n      iszero\n      tag_218\n      jumpi\n        /* \"@openzeppelin/contracts/token/ERC20/ERC20.sol\":6392:6396  from */\n      dup4\n        /* \"@openzeppelin/contracts/token/ERC20/ERC20.sol\":6398:6409  fromBalance */\n      dup2\n        /* \"@openzeppelin/contracts/token/ERC20/ERC20.sol\":6411:6416  value */\n      dup4\n        /* \"@openzeppelin/contracts/token/ERC20/ERC20.sol\":6367:6417  ERC20InsufficientBalance(from, fromBalance, value) */\n      mload(0x40)\n      0xe450d38c00000000000000000000000000000000000000000000000000000000\n      dup2\n      mstore\n      0x04\n      add\n      tag_219\n      swap4\n      swap3\n      swap2\n      swap1\n      tag_180\n      jump\t// in\n    tag_219:\n      mload(0x40)\n      dup1\n      swap2\n      sub\n      swap1\n      revert\n        /* \"@openzeppelin/contracts/token/ERC20/ERC20.sol\":6317:6432  if (fromBalance < value) {... */\n    tag_218:\n        /* \"@openzeppelin/contracts/token/ERC20/ERC20.sol\":6584:6589  value */\n      dup2\n        /* \"@openzeppelin/contracts/token/ERC20/ERC20.sol\":6570:6581  fromBalance */\n      dup2\n        /* \"@openzeppelin/contracts/token/ERC20/ERC20.sol\":6570:6589  fromBalance - value */\n      sub\n        /* \"@openzeppelin/contracts/token/ERC20/ERC20.sol\":6552:6561  _balances */\n      0x00\n        /* \"@openzeppelin/contracts/token/ERC20/ERC20.sol\":6552:6567  _balances[from] */\n      dup1\n        /* \"@openzeppelin/contracts/token/ERC20/ERC20.sol\":6562:6566  from */\n      dup7\n        /* \"@openzeppelin/contracts/token/ERC20/ERC20.sol\":6552:6567  _balances[from] */\n      0xffffffffffffffffffffffffffffffffffffffff\n      and\n      0xffffffffffffffffffffffffffffffffffffffff\n      and\n      dup2\n      mstore\n      0x20\n      add\n      swap1\n      dup2\n      mstore\n      0x20\n      add\n      0x00\n      keccak256\n        /* \"@openzeppelin/contracts/token/ERC20/ERC20.sol\":6552:6589  _balances[from] = fromBalance - value */\n      dup2\n      swap1\n      sstore\n      pop\n        /* \"@openzeppelin/contracts/token/ERC20/ERC20.sol\":6252:6614  {... */\n      pop\n        /* \"@openzeppelin/contracts/token/ERC20/ERC20.sol\":6074:6614  if (from == address(0)) {... */\n    tag_217:\n        /* \"@openzeppelin/contracts/token/ERC20/ERC20.sol\":6642:6643  0 */\n      0x00\n        /* \"@openzeppelin/contracts/token/ERC20/ERC20.sol\":6628:6644  to == address(0) */\n      0xffffffffffffffffffffffffffffffffffffffff\n      and\n        /* \"@openzeppelin/contracts/token/ERC20/ERC20.sol\":6628:6630  to */\n      dup3\n        /* \"@openzeppelin/contracts/token/ERC20/ERC20.sol\":6628:6644  to == address(0) */\n      0xffffffffffffffffffffffffffffffffffffffff\n      and\n      sub\n        /* \"@openzeppelin/contracts/token/ERC20/ERC20.sol\":6624:7049  if (to == address(0)) {... */\n      tag_220\n      jumpi\n        /* \"@openzeppelin/contracts/token/ERC20/ERC20.sol\":6807:6812  value */\n      dup1\n        /* \"@openzeppelin/contracts/token/ERC20/ERC20.sol\":6791:6803  _totalSupply */\n      0x02\n      0x00\n        /* \"@openzeppelin/contracts/token/ERC20/ERC20.sol\":6791:6812  _totalSupply -= value */\n      dup3\n      dup3\n      sload\n      sub\n      swap3\n      pop\n      pop\n      dup2\n      swap1\n      sstore\n      pop\n        /* \"@openzeppelin/contracts/token/ERC20/ERC20.sol\":6624:7049  if (to == address(0)) {... */\n      jump(tag_221)\n    tag_220:\n        /* \"@openzeppelin/contracts/token/ERC20/ERC20.sol\":7019:7024  value */\n      dup1\n        /* \"@openzeppelin/contracts/token/ERC20/ERC20.sol\":7002:7011  _balances */\n      0x00\n        /* \"@openzeppelin/contracts/token/ERC20/ERC20.sol\":7002:7015  _balances[to] */\n      dup1\n        /* \"@openzeppelin/contracts/token/ERC20/ERC20.sol\":7012:7014  to */\n      dup5\n        /* \"@openzeppelin/contracts/token/ERC20/ERC20.sol\":7002:7015  _balances[to] */\n      0xffffffffffffffffffffffffffffffffffffffff\n      and\n      0xffffffffffffffffffffffffffffffffffffffff\n      and\n      dup2\n      mstore\n      0x20\n      add\n      swap1\n      dup2\n      mstore\n      0x20\n      add\n      0x00\n      keccak256\n      0x00\n        /* \"@openzeppelin/contracts/token/ERC20/ERC20.sol\":7002:7024  _balances[to] += value */\n      dup3\n      dup3\n      sload\n      add\n      swap3\n      pop\n      pop\n      dup2\n      swap1\n      sstore\n      pop\n        /* \"@openzeppelin/contracts/token/ERC20/ERC20.sol\":6624:7049  if (to == address(0)) {... */\n    tag_221:\n        /* \"@openzeppelin/contracts/token/ERC20/ERC20.sol\":7079:7081  to */\n      dup2\n        /* \"@openzeppelin/contracts/token/ERC20/ERC20.sol\":7064:7089  Transfer(from, to, value) */\n      0xffffffffffffffffffffffffffffffffffffffff\n      and\n        /* \"@openzeppelin/contracts/token/ERC20/ERC20.sol\":7073:7077  from */\n      dup4\n        /* \"@openzeppelin/contracts/token/ERC20/ERC20.sol\":7064:7089  Transfer(from, to, value) */\n      0xffffffffffffffffffffffffffffffffffffffff\n      and\n      0xddf252ad1be2c89b69c2b068fc378daa952ba7f163c4a11628f55a4df523b3ef\n        /* \"@openzeppelin/contracts/token/ERC20/ERC20.sol\":7083:7088  value */\n      dup4\n        /* \"@openzeppelin/contracts/token/ERC20/ERC20.sol\":7064:7089  Transfer(from, to, value) */\n      mload(0x40)\n      tag_222\n      swap2\n      swap1\n      tag_40\n      jump\t// in\n    tag_222:\n      mload(0x40)\n      dup1\n      swap2\n      sub\n      swap1\n      log3\n        /* \"@openzeppelin/contracts/token/ERC20/ERC20.sol\":5989:7096  function _update(address from, address to, uint256 value) internal virtual {... */\n      pop\n      pop\n      pop\n      jump\t// out\n    tag_134:\n      dataSize(sub_0)\n      dup1\n      dataOffset(sub_0)\n      dup4\n      codecopy\n      add\n      swap1\n      jump\t// out\n        /* \"#utility.yul\":7:82   */\n    tag_223:\n        /* \"#utility.yul\":40:46   */\n      0x00\n        /* \"#utility.yul\":73:75   */\n      0x40\n        /* \"#utility.yul\":67:76   */\n      mload\n        /* \"#utility.yul\":57:76   */\n      swap1\n      pop\n        /* \"#utility.yul\":7:82   */\n      swap1\n      jump\t// out\n        /* \"#utility.yul\":88:205   */\n    tag_224:\n        /* \"#utility.yul\":197:198   */\n      0x00\n        /* \"#utility.yul\":194:195   */\n      dup1\n        /* \"#utility.yul\":187:199   */\n      revert\n        /* \"#utility.yul\":211:328   */\n    tag_225:\n        /* \"#utility.yul\":320:321   */\n      0x00\n        /* \"#utility.yul\":317:318   */\n      dup1\n        /* \"#utility.yul\":310:322   */\n      revert\n        /* \"#utility.yul\":334:451   */\n    tag_226:\n        /* \"#utility.yul\":443:444   */\n      0x00\n        /* \"#utility.yul\":440:441   */\n      dup1\n        /* \"#utility.yul\":433:445   */\n      revert\n        /* \"#utility.yul\":457:574   */\n    tag_227:\n        /* \"#utility.yul\":566:567   */\n      0x00\n        /* \"#utility.yul\":563:564   */\n      dup1\n        /* \"#utility.yul\":556:568   */\n      revert\n        /* \"#utility.yul\":580:682   */\n    tag_228:\n        /* \"#utility.yul\":621:627   */\n      0x00\n        /* \"#utility.yul\":672:674   */\n      0x1f\n        /* \"#utility.yul\":668:675   */\n      not\n        /* \"#utility.yul\":663:665   */\n      0x1f\n        /* \"#utility.yul\":656:661   */\n      dup4\n        /* \"#utility.yul\":652:666   */\n      add\n        /* \"#utility.yul\":648:676   */\n      and\n        /* \"#utility.yul\":638:676   */\n      swap1\n      pop\n        /* \"#utility.yul\":580:682   */\n      swap2\n      swap1\n      pop\n      jump\t// out\n        /* \"#utility.yul\":688:868   */\n    tag_229:\n        /* \"#utility.yul\":736:813   */\n      0x4e487b7100000000000000000000000000000000000000000000000000000000\n        /* \"#utility.yul\":733:734   */\n      0x00\n        /* \"#utility.yul\":726:814   */\n      mstore\n        /* \"#utility.yul\":833:837   */\n      0x41\n        /* \"#utility.yul\":830:831   */\n      0x04\n        /* \"#utility.yul\":823:838   */\n      mstore\n        /* \"#utility.yul\":857:861   */\n      0x24\n        /* \"#utility.yul\":854:855   */\n      0x00\n        /* \"#utility.yul\":847:862   */\n      revert\n        /* \"#utility.yul\":874:1155   */\n    tag_230:\n        /* \"#utility.yul\":957:984   */\n      tag_282\n        /* \"#utility.yul\":979:983   */\n      dup3\n        /* \"#utility.yul\":957:984   */\n      tag_228\n      jump\t// in\n    tag_282:\n        /* \"#utility.yul\":949:955   */\n      dup2\n        /* \"#utility.yul\":945:985   */\n      add\n        /* \"#utility.yul\":1087:1093   */\n      dup2\n        /* \"#utility.yul\":1075:1085   */\n      dup2\n        /* \"#utility.yul\":1072:1094   */\n      lt\n        /* \"#utility.yul\":1051:1069   */\n      0xffffffffffffffff\n        /* \"#utility.yul\":1039:1049   */\n      dup3\n        /* \"#utility.yul\":1036:1070   */\n      gt\n        /* \"#utility.yul\":1033:1095   */\n      or\n        /* \"#utility.yul\":1030:1118   */\n      iszero\n      tag_283\n      jumpi\n        /* \"#utility.yul\":1098:1116   */\n      tag_284\n      tag_229\n      jump\t// in\n    tag_284:\n        /* \"#utility.yul\":1030:1118   */\n    tag_283:\n        /* \"#utility.yul\":1138:1148   */\n      dup1\n        /* \"#utility.yul\":1134:1136   */\n      0x40\n        /* \"#utility.yul\":1127:1149   */\n      mstore\n        /* \"#utility.yul\":917:1155   */\n      pop\n        /* \"#utility.yul\":874:1155   */\n      pop\n      pop\n      jump\t// out\n        /* \"#utility.yul\":1161:1290   */\n    tag_231:\n        /* \"#utility.yul\":1195:1201   */\n      0x00\n        /* \"#utility.yul\":1222:1242   */\n      tag_286\n      tag_223\n      jump\t// in\n    tag_286:\n        /* \"#utility.yul\":1212:1242   */\n      swap1\n      pop\n        /* \"#utility.yul\":1251:1284   */\n      tag_287\n        /* \"#utility.yul\":1279:1283   */\n      dup3\n        /* \"#utility.yul\":1271:1277   */\n      dup3\n        /* \"#utility.yul\":1251:1284   */\n      tag_230\n      jump\t// in\n    tag_287:\n        /* \"#utility.yul\":1161:1290   */\n      swap2\n      swap1\n      pop\n      jump\t// out\n        /* \"#utility.yul\":1296:1604   */\n    tag_232:\n        /* \"#utility.yul\":1358:1362   */\n      0x00\n        /* \"#utility.yul\":1448:1466   */\n      0xffffffffffffffff\n        /* \"#utility.yul\":1440:1446   */\n      dup3\n        /* \"#utility.yul\":1437:1467   */\n      gt\n        /* \"#utility.yul\":1434:1490   */\n      iszero\n      tag_289\n      jumpi\n        /* \"#utility.yul\":1470:1488   */\n      tag_290\n      tag_229\n      jump\t// in\n    tag_290:\n        /* \"#utility.yul\":1434:1490   */\n    tag_289:\n        /* \"#utility.yul\":1508:1537   */\n      tag_291\n        /* \"#utility.yul\":1530:1536   */\n      dup3\n        /* \"#utility.yul\":1508:1537   */\n      tag_228\n      jump\t// in\n    tag_291:\n        /* \"#utility.yul\":1500:1537   */\n      swap1\n      pop\n        /* \"#utility.yul\":1592:1596   */\n      0x20\n        /* \"#utility.yul\":1586:1590   */\n      dup2\n        /* \"#utility.yul\":1582:1597   */\n      add\n        /* \"#utility.yul\":1574:1597   */\n      swap1\n      pop\n        /* \"#utility.yul\":1296:1604   */\n      swap2\n      swap1\n      pop\n      jump\t// out\n        /* \"#utility.yul\":1610:1758   */\n    tag_233:\n        /* \"#utility.yul\":1708:1714   */\n      dup3\n        /* \"#utility.yul\":1703:1706   */\n      dup2\n        /* \"#utility.yul\":1698:1701   */\n      dup4\n        /* \"#utility.yul\":1685:1715   */\n      calldatacopy\n        /* \"#utility.yul\":1749:1750   */\n      0x00\n        /* \"#utility.yul\":1740:1746   */\n      dup4\n        /* \"#utility.yul\":1735:1738   */\n      dup4\n        /* \"#utility.yul\":1731:1747   */\n      add\n        /* \"#utility.yul\":1724:1751   */\n      mstore\n        /* \"#utility.yul\":1610:1758   */\n      pop\n      pop\n      pop\n      jump\t// out\n        /* \"#utility.yul\":1764:2189   */\n    tag_234:\n        /* \"#utility.yul\":1842:1847   */\n      0x00\n        /* \"#utility.yul\":1867:1933   */\n      tag_294\n        /* \"#utility.yul\":1883:1932   */\n      tag_295\n        /* \"#utility.yul\":1925:1931   */\n      dup5\n        /* \"#utility.yul\":1883:1932   */\n      tag_232\n      jump\t// in\n    tag_295:\n        /* \"#utility.yul\":1867:1933   */\n      tag_231\n      jump\t// in\n    tag_294:\n        /* \"#utility.yul\":1858:1933   */\n      swap1\n      pop\n        /* \"#utility.yul\":1956:1962   */\n      dup3\n        /* \"#utility.yul\":1949:1954   */\n      dup2\n        /* \"#utility.yul\":1942:1963   */\n      mstore\n        /* \"#utility.yul\":1994:1998   */\n      0x20\n        /* \"#utility.yul\":1987:1992   */\n      dup2\n        /* \"#utility.yul\":1983:1999   */\n      add\n        /* \"#utility.yul\":2032:2035   */\n      dup5\n        /* \"#utility.yul\":2023:2029   */\n      dup5\n        /* \"#utility.yul\":2018:2021   */\n      dup5\n        /* \"#utility.yul\":2014:2030   */\n      add\n        /* \"#utility.yul\":2011:2036   */\n      gt\n        /* \"#utility.yul\":2008:2120   */\n      iszero\n      tag_296\n      jumpi\n        /* \"#utility.yul\":2039:2118   */\n      tag_297\n      tag_227\n      jump\t// in\n    tag_297:\n        /* \"#utility.yul\":2008:2120   */\n    tag_296:\n        /* \"#utility.yul\":2129:2183   */\n      tag_298\n        /* \"#utility.yul\":2176:2182   */\n      dup5\n        /* \"#utility.yul\":2171:2174   */\n      dup3\n        /* \"#utility.yul\":2166:2169   */\n      dup6\n        /* \"#utility.yul\":2129:2183   */\n      tag_233\n      jump\t// in\n    tag_298:\n        /* \"#utility.yul\":1848:2189   */\n      pop\n        /* \"#utility.yul\":1764:2189   */\n      swap4\n      swap3\n      pop\n      pop\n      pop\n      jump\t// out\n        /* \"#utility.yul\":2209:2549   */\n    tag_235:\n        /* \"#utility.yul\":2265:2270   */\n      0x00\n        /* \"#utility.yul\":2314:2317   */\n      dup3\n        /* \"#utility.yul\":2307:2311   */\n      0x1f\n        /* \"#utility.yul\":2299:2305   */\n      dup4\n        /* \"#utility.yul\":2295:2312   */\n      add\n        /* \"#utility.yul\":2291:2318   */\n      slt\n        /* \"#utility.yul\":2281:2403   */\n      tag_300\n      jumpi\n        /* \"#utility.yul\":2322:2401   */\n      tag_301\n      tag_226\n      jump\t// in\n    tag_301:\n        /* \"#utility.yul\":2281:2403   */\n    tag_300:\n        /* \"#utility.yul\":2439:2445   */\n      dup2\n        /* \"#utility.yul\":2426:2446   */\n      calldataload\n        /* \"#utility.yul\":2464:2543   */\n      tag_302\n        /* \"#utility.yul\":2539:2542   */\n      dup5\n        /* \"#utility.yul\":2531:2537   */\n      dup3\n        /* \"#utility.yul\":2524:2528   */\n      0x20\n        /* \"#utility.yul\":2516:2522   */\n      dup7\n        /* \"#utility.yul\":2512:2529   */\n      add\n        /* \"#utility.yul\":2464:2543   */\n      tag_234\n      jump\t// in\n    tag_302:\n        /* \"#utility.yul\":2455:2543   */\n      swap2\n      pop\n        /* \"#utility.yul\":2271:2549   */\n      pop\n        /* \"#utility.yul\":2209:2549   */\n      swap3\n      swap2\n      pop\n      pop\n      jump\t// out\n        /* \"#utility.yul\":2555:2876   */\n    tag_236:\n        /* \"#utility.yul\":2642:2646   */\n      0x00\n        /* \"#utility.yul\":2732:2750   */\n      0xffffffffffffffff\n        /* \"#utility.yul\":2724:2730   */\n      dup3\n        /* \"#utility.yul\":2721:2751   */\n      gt\n        /* \"#utility.yul\":2718:2774   */\n      iszero\n      tag_304\n      jumpi\n        /* \"#utility.yul\":2754:2772   */\n      tag_305\n      tag_229\n      jump\t// in\n    tag_305:\n        /* \"#utility.yul\":2718:2774   */\n    tag_304:\n        /* \"#utility.yul\":2804:2808   */\n      0x20\n        /* \"#utility.yul\":2796:2802   */\n      dup3\n        /* \"#utility.yul\":2792:2809   */\n      mul\n        /* \"#utility.yul\":2784:2809   */\n      swap1\n      pop\n        /* \"#utility.yul\":2864:2868   */\n      0x20\n        /* \"#utility.yul\":2858:2862   */\n      dup2\n        /* \"#utility.yul\":2854:2869   */\n      add\n        /* \"#utility.yul\":2846:2869   */\n      swap1\n      pop\n        /* \"#utility.yul\":2555:2876   */\n      swap2\n      swap1\n      pop\n      jump\t// out\n        /* \"#utility.yul\":2882:2999   */\n    tag_237:\n        /* \"#utility.yul\":2991:2992   */\n      0x00\n        /* \"#utility.yul\":2988:2989   */\n      dup1\n        /* \"#utility.yul\":2981:2993   */\n      revert\n        /* \"#utility.yul\":3021:3966   */\n    tag_238:\n        /* \"#utility.yul\":3127:3132   */\n      0x00\n        /* \"#utility.yul\":3152:3243   */\n      tag_308\n        /* \"#utility.yul\":3168:3242   */\n      tag_309\n        /* \"#utility.yul\":3235:3241   */\n      dup5\n        /* \"#utility.yul\":3168:3242   */\n      tag_236\n      jump\t// in\n    tag_309:\n        /* \"#utility.yul\":3152:3243   */\n      tag_231\n      jump\t// in\n    tag_308:\n        /* \"#utility.yul\":3143:3243   */\n      swap1\n      pop\n        /* \"#utility.yul\":3263:3268   */\n      dup1\n        /* \"#utility.yul\":3292:3298   */\n      dup4\n        /* \"#utility.yul\":3285:3290   */\n      dup3\n        /* \"#utility.yul\":3278:3299   */\n      mstore\n        /* \"#utility.yul\":3326:3330   */\n      0x20\n        /* \"#utility.yul\":3319:3324   */\n      dup3\n        /* \"#utility.yul\":3315:3331   */\n      add\n        /* \"#utility.yul\":3308:3331   */\n      swap1\n      pop\n        /* \"#utility.yul\":3379:3383   */\n      0x20\n        /* \"#utility.yul\":3371:3377   */\n      dup5\n        /* \"#utility.yul\":3367:3384   */\n      mul\n        /* \"#utility.yul\":3359:3365   */\n      dup4\n        /* \"#utility.yul\":3355:3385   */\n      add\n        /* \"#utility.yul\":3408:3411   */\n      dup6\n        /* \"#utility.yul\":3400:3406   */\n      dup2\n        /* \"#utility.yul\":3397:3412   */\n      gt\n        /* \"#utility.yul\":3394:3516   */\n      iszero\n      tag_310\n      jumpi\n        /* \"#utility.yul\":3427:3506   */\n      tag_311\n      tag_237\n      jump\t// in\n    tag_311:\n        /* \"#utility.yul\":3394:3516   */\n    tag_310:\n        /* \"#utility.yul\":3542:3548   */\n      dup4\n        /* \"#utility.yul\":3525:3960   */\n    tag_312:\n        /* \"#utility.yul\":3559:3565   */\n      dup2\n        /* \"#utility.yul\":3554:3557   */\n      dup2\n        /* \"#utility.yul\":3551:3566   */\n      lt\n        /* \"#utility.yul\":3525:3960   */\n      iszero\n      tag_314\n      jumpi\n        /* \"#utility.yul\":3648:3651   */\n      dup1\n        /* \"#utility.yul\":3635:3652   */\n      calldataload\n        /* \"#utility.yul\":3684:3702   */\n      0xffffffffffffffff\n        /* \"#utility.yul\":3671:3682   */\n      dup2\n        /* \"#utility.yul\":3668:3703   */\n      gt\n        /* \"#utility.yul\":3665:3787   */\n      iszero\n      tag_315\n      jumpi\n        /* \"#utility.yul\":3706:3785   */\n      tag_316\n      tag_226\n      jump\t// in\n    tag_316:\n        /* \"#utility.yul\":3665:3787   */\n    tag_315:\n        /* \"#utility.yul\":3830:3841   */\n      dup1\n        /* \"#utility.yul\":3822:3828   */\n      dup7\n        /* \"#utility.yul\":3818:3842   */\n      add\n        /* \"#utility.yul\":3868:3915   */\n      tag_317\n        /* \"#utility.yul\":3911:3914   */\n      dup10\n        /* \"#utility.yul\":3899:3909   */\n      dup3\n        /* \"#utility.yul\":3868:3915   */\n      tag_235\n      jump\t// in\n    tag_317:\n        /* \"#utility.yul\":3863:3866   */\n      dup6\n        /* \"#utility.yul\":3856:3916   */\n      mstore\n        /* \"#utility.yul\":3945:3949   */\n      0x20\n        /* \"#utility.yul\":3940:3943   */\n      dup6\n        /* \"#utility.yul\":3936:3950   */\n      add\n        /* \"#utility.yul\":3929:3950   */\n      swap5\n      pop\n        /* \"#utility.yul\":3601:3960   */\n      pop\n      pop\n        /* \"#utility.yul\":3585:3589   */\n      0x20\n        /* \"#utility.yul\":3580:3583   */\n      dup2\n        /* \"#utility.yul\":3576:3590   */\n      add\n        /* \"#utility.yul\":3569:3590   */\n      swap1\n      pop\n        /* \"#utility.yul\":3525:3960   */\n      jump(tag_312)\n    tag_314:\n        /* \"#utility.yul\":3529:3550   */\n      pop\n        /* \"#utility.yul\":3133:3966   */\n      pop\n      pop\n        /* \"#utility.yul\":3021:3966   */\n      swap4\n      swap3\n      pop\n      pop\n      pop\n      jump\t// out\n        /* \"#utility.yul\":3988:4378   */\n    tag_239:\n        /* \"#utility.yul\":4069:4074   */\n      0x00\n        /* \"#utility.yul\":4118:4121   */\n      dup3\n        /* \"#utility.yul\":4111:4115   */\n      0x1f\n        /* \"#utility.yul\":4103:4109   */\n      dup4\n        /* \"#utility.yul\":4099:4116   */\n      add\n        /* \"#utility.yul\":4095:4122   */\n      slt\n        /* \"#utility.yul\":4085:4207   */\n      tag_319\n      jumpi\n        /* \"#utility.yul\":4126:4205   */\n      tag_320\n      tag_226\n      jump\t// in\n    tag_320:\n        /* \"#utility.yul\":4085:4207   */\n    tag_319:\n        /* \"#utility.yul\":4243:4249   */\n      dup2\n        /* \"#utility.yul\":4230:4250   */\n      calldataload\n        /* \"#utility.yul\":4268:4372   */\n      tag_321\n        /* \"#utility.yul\":4368:4371   */\n      dup5\n        /* \"#utility.yul\":4360:4366   */\n      dup3\n        /* \"#utility.yul\":4353:4357   */\n      0x20\n        /* \"#utility.yul\":4345:4351   */\n      dup7\n        /* \"#utility.yul\":4341:4358   */\n      add\n        /* \"#utility.yul\":4268:4372   */\n      tag_238\n      jump\t// in\n    tag_321:\n        /* \"#utility.yul\":4259:4372   */\n      swap2\n      pop\n        /* \"#utility.yul\":4075:4378   */\n      pop\n        /* \"#utility.yul\":3988:4378   */\n      swap3\n      swap2\n      pop\n      pop\n      jump\t// out\n        /* \"#utility.yul\":4384:4474   */\n    tag_240:\n        /* \"#utility.yul\":4418:4425   */\n      0x00\n        /* \"#utility.yul\":4461:4466   */\n      dup2\n        /* \"#utility.yul\":4454:4467   */\n      iszero\n        /* \"#utility.yul\":4447:4468   */\n      iszero\n        /* \"#utility.yul\":4436:4468   */\n      swap1\n      pop\n        /* \"#utility.yul\":4384:4474   */\n      swap2\n      swap1\n      pop\n      jump\t// out\n        /* \"#utility.yul\":4480:4596   */\n    tag_241:\n        /* \"#utility.yul\":4550:4571   */\n      tag_324\n        /* \"#utility.yul\":4565:4570   */\n      dup2\n        /* \"#utility.yul\":4550:4571   */\n      tag_240\n      jump\t// in\n    tag_324:\n        /* \"#utility.yul\":4543:4548   */\n      dup2\n        /* \"#utility.yul\":4540:4572   */\n      eq\n        /* \"#utility.yul\":4530:4590   */\n      tag_325\n      jumpi\n        /* \"#utility.yul\":4586:4587   */\n      0x00\n        /* \"#utility.yul\":4583:4584   */\n      dup1\n        /* \"#utility.yul\":4576:4588   */\n      revert\n        /* \"#utility.yul\":4530:4590   */\n    tag_325:\n        /* \"#utility.yul\":4480:4596   */\n      pop\n      jump\t// out\n        /* \"#utility.yul\":4602:4735   */\n    tag_242:\n        /* \"#utility.yul\":4645:4650   */\n      0x00\n        /* \"#utility.yul\":4683:4689   */\n      dup2\n        /* \"#utility.yul\":4670:4690   */\n      calldataload\n        /* \"#utility.yul\":4661:4690   */\n      swap1\n      pop\n        /* \"#utility.yul\":4699:4729   */\n      tag_327\n        /* \"#utility.yul\":4723:4728   */\n      dup2\n        /* \"#utility.yul\":4699:4729   */\n      tag_241\n      jump\t// in\n    tag_327:\n        /* \"#utility.yul\":4602:4735   */\n      swap3\n      swap2\n      pop\n      pop\n      jump\t// out\n        /* \"#utility.yul\":4741:5764   */\n    tag_25:\n        /* \"#utility.yul\":4860:4866   */\n      0x00\n        /* \"#utility.yul\":4868:4874   */\n      dup1\n        /* \"#utility.yul\":4876:4882   */\n      0x00\n        /* \"#utility.yul\":4925:4927   */\n      0x60\n        /* \"#utility.yul\":4913:4922   */\n      dup5\n        /* \"#utility.yul\":4904:4911   */\n      dup7\n        /* \"#utility.yul\":4900:4923   */\n      sub\n        /* \"#utility.yul\":4896:4928   */\n      slt\n        /* \"#utility.yul\":4893:5012   */\n      iszero\n      tag_329\n      jumpi\n        /* \"#utility.yul\":4931:5010   */\n      tag_330\n      tag_224\n      jump\t// in\n    tag_330:\n        /* \"#utility.yul\":4893:5012   */\n    tag_329:\n        /* \"#utility.yul\":5079:5080   */\n      0x00\n        /* \"#utility.yul\":5068:5077   */\n      dup5\n        /* \"#utility.yul\":5064:5081   */\n      add\n        /* \"#utility.yul\":5051:5082   */\n      calldataload\n        /* \"#utility.yul\":5109:5127   */\n      0xffffffffffffffff\n        /* \"#utility.yul\":5101:5107   */\n      dup2\n        /* \"#utility.yul\":5098:5128   */\n      gt\n        /* \"#utility.yul\":5095:5212   */\n      iszero\n      tag_331\n      jumpi\n        /* \"#utility.yul\":5131:5210   */\n      tag_332\n      tag_225\n      jump\t// in\n    tag_332:\n        /* \"#utility.yul\":5095:5212   */\n    tag_331:\n        /* \"#utility.yul\":5236:5299   */\n      tag_333\n        /* \"#utility.yul\":5291:5298   */\n      dup7\n        /* \"#utility.yul\":5282:5288   */\n      dup3\n        /* \"#utility.yul\":5271:5280   */\n      dup8\n        /* \"#utility.yul\":5267:5289   */\n      add\n        /* \"#utility.yul\":5236:5299   */\n      tag_235\n      jump\t// in\n    tag_333:\n        /* \"#utility.yul\":5226:5299   */\n      swap4\n      pop\n        /* \"#utility.yul\":5022:5309   */\n      pop\n        /* \"#utility.yul\":5376:5378   */\n      0x20\n        /* \"#utility.yul\":5365:5374   */\n      dup5\n        /* \"#utility.yul\":5361:5379   */\n      add\n        /* \"#utility.yul\":5348:5380   */\n      calldataload\n        /* \"#utility.yul\":5407:5425   */\n      0xffffffffffffffff\n        /* \"#utility.yul\":5399:5405   */\n      dup2\n        /* \"#utility.yul\":5396:5426   */\n      gt\n        /* \"#utility.yul\":5393:5510   */\n      iszero\n      tag_334\n      jumpi\n        /* \"#utility.yul\":5429:5508   */\n      tag_335\n      tag_225\n      jump\t// in\n    tag_335:\n        /* \"#utility.yul\":5393:5510   */\n    tag_334:\n        /* \"#utility.yul\":5534:5622   */\n      tag_336\n        /* \"#utility.yul\":5614:5621   */\n      dup7\n        /* \"#utility.yul\":5605:5611   */\n      dup3\n        /* \"#utility.yul\":5594:5603   */\n      dup8\n        /* \"#utility.yul\":5590:5612   */\n      add\n        /* \"#utility.yul\":5534:5622   */\n      tag_239\n      jump\t// in\n    tag_336:\n        /* \"#utility.yul\":5524:5622   */\n      swap3\n      pop\n        /* \"#utility.yul\":5319:5632   */\n      pop\n        /* \"#utility.yul\":5671:5673   */\n      0x40\n        /* \"#utility.yul\":5697:5747   */\n      tag_337\n        /* \"#utility.yul\":5739:5746   */\n      dup7\n        /* \"#utility.yul\":5730:5736   */\n      dup3\n        /* \"#utility.yul\":5719:5728   */\n      dup8\n        /* \"#utility.yul\":5715:5737   */\n      add\n        /* \"#utility.yul\":5697:5747   */\n      tag_242\n      jump\t// in\n    tag_337:\n        /* \"#utility.yul\":5687:5747   */\n      swap2\n      pop\n        /* \"#utility.yul\":5642:5757   */\n      pop\n        /* \"#utility.yul\":4741:5764   */\n      swap3\n      pop\n      swap3\n      pop\n      swap3\n      jump\t// out\n        /* \"#utility.yul\":5770:5869   */\n    tag_243:\n        /* \"#utility.yul\":5822:5828   */\n      0x00\n        /* \"#utility.yul\":5856:5861   */\n      dup2\n        /* \"#utility.yul\":5850:5862   */\n      mload\n        /* \"#utility.yul\":5840:5862   */\n      swap1\n      pop\n        /* \"#utility.yul\":5770:5869   */\n      swap2\n      swap1\n      pop\n      jump\t// out\n        /* \"#utility.yul\":5875:6044   */\n    tag_244:\n        /* \"#utility.yul\":5959:5970   */\n      0x00\n        /* \"#utility.yul\":5993:5999   */\n      dup3\n        /* \"#utility.yul\":5988:5991   */\n      dup3\n        /* \"#utility.yul\":5981:6000   */\n      mstore\n        /* \"#utility.yul\":6033:6037   */\n      0x20\n        /* \"#utility.yul\":6028:6031   */\n      dup3\n        /* \"#utility.yul\":6024:6038   */\n      add\n        /* \"#utility.yul\":6009:6038   */\n      swap1\n      pop\n        /* \"#utility.yul\":5875:6044   */\n      swap3\n      swap2\n      pop\n      pop\n      jump\t// out\n        /* \"#utility.yul\":6050:6189   */\n    tag_245:\n        /* \"#utility.yul\":6139:6145   */\n      dup3\n        /* \"#utility.yul\":6134:6137   */\n      dup2\n        /* \"#utility.yul\":6129:6132   */\n      dup4\n        /* \"#utility.yul\":6123:6146   */\n      mcopy\n        /* \"#utility.yul\":6180:6181   */\n      0x00\n        /* \"#utility.yul\":6171:6177   */\n      dup4\n        /* \"#utility.yul\":6166:6169   */\n      dup4\n        /* \"#utility.yul\":6162:6178   */\n      add\n        /* \"#utility.yul\":6155:6182   */\n      mstore\n        /* \"#utility.yul\":6050:6189   */\n      pop\n      pop\n      pop\n      jump\t// out\n        /* \"#utility.yul\":6195:6572   */\n    tag_246:\n        /* \"#utility.yul\":6283:6286   */\n      0x00\n        /* \"#utility.yul\":6311:6350   */\n      tag_342\n        /* \"#utility.yul\":6344:6349   */\n      dup3\n        /* \"#utility.yul\":6311:6350   */\n      tag_243\n      jump\t// in\n    tag_342:\n        /* \"#utility.yul\":6366:6437   */\n      tag_343\n        /* \"#utility.yul\":6430:6436   */\n      dup2\n        /* \"#utility.yul\":6425:6428   */\n      dup6\n        /* \"#utility.yul\":6366:6437   */\n      tag_244\n      jump\t// in\n    tag_343:\n        /* \"#utility.yul\":6359:6437   */\n      swap4\n      pop\n        /* \"#utility.yul\":6446:6511   */\n      tag_344\n        /* \"#utility.yul\":6504:6510   */\n      dup2\n        /* \"#utility.yul\":6499:6502   */\n      dup6\n        /* \"#utility.yul\":6492:6496   */\n      0x20\n        /* \"#utility.yul\":6485:6490   */\n      dup7\n        /* \"#utility.yul\":6481:6497   */\n      add\n        /* \"#utility.yul\":6446:6511   */\n      tag_245\n      jump\t// in\n    tag_344:\n        /* \"#utility.yul\":6536:6565   */\n      tag_345\n        /* \"#utility.yul\":6558:6564   */\n      dup2\n        /* \"#utility.yul\":6536:6565   */\n      tag_228\n      jump\t// in\n    tag_345:\n        /* \"#utility.yul\":6531:6534   */\n      dup5\n        /* \"#utility.yul\":6527:6566   */\n      add\n        /* \"#utility.yul\":6520:6566   */\n      swap2\n      pop\n        /* \"#utility.yul\":6287:6572   */\n      pop\n        /* \"#utility.yul\":6195:6572   */\n      swap3\n      swap2\n      pop\n      pop\n      jump\t// out\n        /* \"#utility.yul\":6578:6891   */\n    tag_30:\n        /* \"#utility.yul\":6691:6695   */\n      0x00\n        /* \"#utility.yul\":6729:6731   */\n      0x20\n        /* \"#utility.yul\":6718:6727   */\n      dup3\n        /* \"#utility.yul\":6714:6732   */\n      add\n        /* \"#utility.yul\":6706:6732   */\n      swap1\n      pop\n        /* \"#utility.yul\":6778:6787   */\n      dup2\n        /* \"#utility.yul\":6772:6776   */\n      dup2\n        /* \"#utility.yul\":6768:6788   */\n      sub\n        /* \"#utility.yul\":6764:6765   */\n      0x00\n        /* \"#utility.yul\":6753:6762   */\n      dup4\n        /* \"#utility.yul\":6749:6766   */\n      add\n        /* \"#utility.yul\":6742:6789   */\n      mstore\n        /* \"#utility.yul\":6806:6884   */\n      tag_347\n        /* \"#utility.yul\":6879:6883   */\n      dup2\n        /* \"#utility.yul\":6870:6876   */\n      dup5\n        /* \"#utility.yul\":6806:6884   */\n      tag_246\n      jump\t// in\n    tag_347:\n        /* \"#utility.yul\":6798:6884   */\n      swap1\n      pop\n        /* \"#utility.yul\":6578:6891   */\n      swap3\n      swap2\n      pop\n      pop\n      jump\t// out\n        /* \"#utility.yul\":6897:7023   */\n    tag_247:\n        /* \"#utility.yul\":6934:6941   */\n      0x00\n        /* \"#utility.yul\":6974:7016   */\n      0xffffffffffffffffffffffffffffffffffffffff\n        /* \"#utility.yul\":6967:6972   */\n      dup3\n        /* \"#utility.yul\":6963:7017   */\n      and\n        /* \"#utility.yul\":6952:7017   */\n      swap1\n      pop\n        /* \"#utility.yul\":6897:7023   */\n      swap2\n      swap1\n      pop\n      jump\t// out\n        /* \"#utility.yul\":7029:7125   */\n    tag_248:\n        /* \"#utility.yul\":7066:7073   */\n      0x00\n        /* \"#utility.yul\":7095:7119   */\n      tag_350\n        /* \"#utility.yul\":7113:7118   */\n      dup3\n        /* \"#utility.yul\":7095:7119   */\n      tag_247\n      jump\t// in\n    tag_350:\n        /* \"#utility.yul\":7084:7119   */\n      swap1\n      pop\n        /* \"#utility.yul\":7029:7125   */\n      swap2\n      swap1\n      pop\n      jump\t// out\n        /* \"#utility.yul\":7131:7253   */\n    tag_249:\n        /* \"#utility.yul\":7204:7228   */\n      tag_352\n        /* \"#utility.yul\":7222:7227   */\n      dup2\n        /* \"#utility.yul\":7204:7228   */\n      tag_248\n      jump\t// in\n    tag_352:\n        /* \"#utility.yul\":7197:7202   */\n      dup2\n        /* \"#utility.yul\":7194:7229   */\n      eq\n        /* \"#utility.yul\":7184:7247   */\n      tag_353\n      jumpi\n        /* \"#utility.yul\":7243:7244   */\n      0x00\n        /* \"#utility.yul\":7240:7241   */\n      dup1\n        /* \"#utility.yul\":7233:7245   */\n      revert\n        /* \"#utility.yul\":7184:7247   */\n    tag_353:\n        /* \"#utility.yul\":7131:7253   */\n      pop\n      jump\t// out\n        /* \"#utility.yul\":7259:7398   */\n    tag_250:\n        /* \"#utility.yul\":7305:7310   */\n      0x00\n        /* \"#utility.yul\":7343:7349   */\n      dup2\n        /* \"#utility.yul\":7330:7350   */\n      calldataload\n        /* \"#utility.yul\":7321:7350   */\n      swap1\n      pop\n        /* \"#utility.yul\":7359:7392   */\n      tag_355\n        /* \"#utility.yul\":7386:7391   */\n      dup2\n        /* \"#utility.yul\":7359:7392   */\n      tag_249\n      jump\t// in\n    tag_355:\n        /* \"#utility.yul\":7259:7398   */\n      swap3\n      swap2\n      pop\n      pop\n      jump\t// out\n        /* \"#utility.yul\":7404:7481   */\n    tag_251:\n        /* \"#utility.yul\":7441:7448   */\n      0x00\n        /* \"#utility.yul\":7470:7475   */\n      dup2\n        /* \"#utility.yul\":7459:7475   */\n      swap1\n      pop\n        /* \"#utility.yul\":7404:7481   */\n      swap2\n      swap1\n      pop\n      jump\t// out\n        /* \"#utility.yul\":7487:7609   */\n    tag_252:\n        /* \"#utility.yul\":7560:7584   */\n      tag_358\n        /* \"#utility.yul\":7578:7583   */\n      dup2\n        /* \"#utility.yul\":7560:7584   */\n      tag_251\n      jump\t// in\n    tag_358:\n        /* \"#utility.yul\":7553:7558   */\n      dup2\n        /* \"#utility.yul\":7550:7585   */\n      eq\n        /* \"#utility.yul\":7540:7603   */\n      tag_359\n      jumpi\n        /* \"#utility.yul\":7599:7600   */\n      0x00\n        /* \"#utility.yul\":7596:7597   */\n      dup1\n        /* \"#utility.yul\":7589:7601   */\n      revert\n        /* \"#utility.yul\":7540:7603   */\n    tag_359:\n        /* \"#utility.yul\":7487:7609   */\n      pop\n      jump\t// out\n        /* \"#utility.yul\":7615:7754   */\n    tag_253:\n        /* \"#utility.yul\":7661:7666   */\n      0x00\n        /* \"#utility.yul\":7699:7705   */\n      dup2\n        /* \"#utility.yul\":7686:7706   */\n      calldataload\n        /* \"#utility.yul\":7677:7706   */\n      swap1\n      pop\n        /* \"#utility.yul\":7715:7748   */\n      tag_361\n        /* \"#utility.yul\":7742:7747   */\n      dup2\n        /* \"#utility.yul\":7715:7748   */\n      tag_252\n      jump\t// in\n    tag_361:\n        /* \"#utility.yul\":7615:7754   */\n      swap3\n      swap2\n      pop\n      pop\n      jump\t// out\n        /* \"#utility.yul\":7760:8234   */\n    tag_33:\n        /* \"#utility.yul\":7828:7834   */\n      0x00\n        /* \"#utility.yul\":7836:7842   */\n      dup1\n        /* \"#utility.yul\":7885:7887   */\n      0x40\n        /* \"#utility.yul\":7873:7882   */\n      dup4\n        /* \"#utility.yul\":7864:7871   */\n      dup6\n        /* \"#utility.yul\":7860:7883   */\n      sub\n        /* \"#utility.yul\":7856:7888   */\n      slt\n        /* \"#utility.yul\":7853:7972   */\n      iszero\n      tag_363\n      jumpi\n        /* \"#utility.yul\":7891:7970   */\n      tag_364\n      tag_224\n      jump\t// in\n    tag_364:\n        /* \"#utility.yul\":7853:7972   */\n    tag_363:\n        /* \"#utility.yul\":8011:8012   */\n      0x00\n        /* \"#utility.yul\":8036:8089   */\n      tag_365\n        /* \"#utility.yul\":8081:8088   */\n      dup6\n        /* \"#utility.yul\":8072:8078   */\n      dup3\n        /* \"#utility.yul\":8061:8070   */\n      dup7\n        /* \"#utility.yul\":8057:8079   */\n      add\n        /* \"#utility.yul\":8036:8089   */\n      tag_250\n      jump\t// in\n    tag_365:\n        /* \"#utility.yul\":8026:8089   */\n      swap3\n      pop\n        /* \"#utility.yul\":7982:8099   */\n      pop\n        /* \"#utility.yul\":8138:8140   */\n      0x20\n        /* \"#utility.yul\":8164:8217   */\n      tag_366\n        /* \"#utility.yul\":8209:8216   */\n      dup6\n        /* \"#utility.yul\":8200:8206   */\n      dup3\n        /* \"#utility.yul\":8189:8198   */\n      dup7\n        /* \"#utility.yul\":8185:8207   */\n      add\n        /* \"#utility.yul\":8164:8217   */\n      tag_253\n      jump\t// in\n    tag_366:\n        /* \"#utility.yul\":8154:8217   */\n      swap2\n      pop\n        /* \"#utility.yul\":8109:8227   */\n      pop\n        /* \"#utility.yul\":7760:8234   */\n      swap3\n      pop\n      swap3\n      swap1\n      pop\n      jump\t// out\n        /* \"#utility.yul\":8240:8349   */\n    tag_254:\n        /* \"#utility.yul\":8321:8342   */\n      tag_368\n        /* \"#utility.yul\":8336:8341   */\n      dup2\n        /* \"#utility.yul\":8321:8342   */\n      tag_240\n      jump\t// in\n    tag_368:\n        /* \"#utility.yul\":8316:8319   */\n      dup3\n        /* \"#utility.yul\":8309:8343   */\n      mstore\n        /* \"#utility.yul\":8240:8349   */\n      pop\n      pop\n      jump\t// out\n        /* \"#utility.yul\":8355:8565   */\n    tag_36:\n        /* \"#utility.yul\":8442:8446   */\n      0x00\n        /* \"#utility.yul\":8480:8482   */\n      0x20\n        /* \"#utility.yul\":8469:8478   */\n      dup3\n        /* \"#utility.yul\":8465:8483   */\n      add\n        /* \"#utility.yul\":8457:8483   */\n      swap1\n      pop\n        /* \"#utility.yul\":8493:8558   */\n      tag_370\n        /* \"#utility.yul\":8555:8556   */\n      0x00\n        /* \"#utility.yul\":8544:8553   */\n      dup4\n        /* \"#utility.yul\":8540:8557   */\n      add\n        /* \"#utility.yul\":8531:8537   */\n      dup5\n        /* \"#utility.yul\":8493:8558   */\n      tag_254\n      jump\t// in\n    tag_370:\n        /* \"#utility.yul\":8355:8565   */\n      swap3\n      swap2\n      pop\n      pop\n      jump\t// out\n        /* \"#utility.yul\":8571:8689   */\n    tag_255:\n        /* \"#utility.yul\":8658:8682   */\n      tag_372\n        /* \"#utility.yul\":8676:8681   */\n      dup2\n        /* \"#utility.yul\":8658:8682   */\n      tag_251\n      jump\t// in\n    tag_372:\n        /* \"#utility.yul\":8653:8656   */\n      dup3\n        /* \"#utility.yul\":8646:8683   */\n      mstore\n        /* \"#utility.yul\":8571:8689   */\n      pop\n      pop\n      jump\t// out\n        /* \"#utility.yul\":8695:8917   */\n    tag_40:\n        /* \"#utility.yul\":8788:8792   */\n      0x00\n        /* \"#utility.yul\":8826:8828   */\n      0x20\n        /* \"#utility.yul\":8815:8824   */\n      dup3\n        /* \"#utility.yul\":8811:8829   */\n      add\n        /* \"#utility.yul\":8803:8829   */\n      swap1\n      pop\n        /* \"#utility.yul\":8839:8910   */\n      tag_374\n        /* \"#utility.yul\":8907:8908   */\n      0x00\n        /* \"#utility.yul\":8896:8905   */\n      dup4\n        /* \"#utility.yul\":8892:8909   */\n      add\n        /* \"#utility.yul\":8883:8889   */\n      dup5\n        /* \"#utility.yul\":8839:8910   */\n      tag_255\n      jump\t// in\n    tag_374:\n        /* \"#utility.yul\":8695:8917   */\n      swap3\n      swap2\n      pop\n      pop\n      jump\t// out\n        /* \"#utility.yul\":8923:9542   */\n    tag_43:\n        /* \"#utility.yul\":9000:9006   */\n      0x00\n        /* \"#utility.yul\":9008:9014   */\n      dup1\n        /* \"#utility.yul\":9016:9022   */\n      0x00\n        /* \"#utility.yul\":9065:9067   */\n      0x60\n        /* \"#utility.yul\":9053:9062   */\n      dup5\n        /* \"#utility.yul\":9044:9051   */\n      dup7\n        /* \"#utility.yul\":9040:9063   */\n      sub\n        /* \"#utility.yul\":9036:9068   */\n      slt\n        /* \"#utility.yul\":9033:9152   */\n      iszero\n      tag_376\n      jumpi\n        /* \"#utility.yul\":9071:9150   */\n      tag_377\n      tag_224\n      jump\t// in\n    tag_377:\n        /* \"#utility.yul\":9033:9152   */\n    tag_376:\n        /* \"#utility.yul\":9191:9192   */\n      0x00\n        /* \"#utility.yul\":9216:9269   */\n      tag_378\n        /* \"#utility.yul\":9261:9268   */\n      dup7\n        /* \"#utility.yul\":9252:9258   */\n      dup3\n        /* \"#utility.yul\":9241:9250   */\n      dup8\n        /* \"#utility.yul\":9237:9259   */\n      add\n        /* \"#utility.yul\":9216:9269   */\n      tag_250\n      jump\t// in\n    tag_378:\n        /* \"#utility.yul\":9206:9269   */\n      swap4\n      pop\n        /* \"#utility.yul\":9162:9279   */\n      pop\n        /* \"#utility.yul\":9318:9320   */\n      0x20\n        /* \"#utility.yul\":9344:9397   */\n      tag_379\n        /* \"#utility.yul\":9389:9396   */\n      dup7\n        /* \"#utility.yul\":9380:9386   */\n      dup3\n        /* \"#utility.yul\":9369:9378   */\n      dup8\n        /* \"#utility.yul\":9365:9387   */\n      add\n        /* \"#utility.yul\":9344:9397   */\n      tag_250\n      jump\t// in\n    tag_379:\n        /* \"#utility.yul\":9334:9397   */\n      swap3\n      pop\n        /* \"#utility.yul\":9289:9407   */\n      pop\n        /* \"#utility.yul\":9446:9448   */\n      0x40\n        /* \"#utility.yul\":9472:9525   */\n      tag_380\n        /* \"#utility.yul\":9517:9524   */\n      dup7\n        /* \"#utility.yul\":9508:9514   */\n      dup3\n        /* \"#utility.yul\":9497:9506   */\n      dup8\n        /* \"#utility.yul\":9493:9515   */\n      add\n        /* \"#utility.yul\":9472:9525   */\n      tag_253\n      jump\t// in\n    tag_380:\n        /* \"#utility.yul\":9462:9525   */\n      swap2\n      pop\n        /* \"#utility.yul\":9417:9535   */\n      pop\n        /* \"#utility.yul\":8923:9542   */\n      swap3\n      pop\n      swap3\n      pop\n      swap3\n      jump\t// out\n        /* \"#utility.yul\":9548:9634   */\n    tag_256:\n        /* \"#utility.yul\":9583:9590   */\n      0x00\n        /* \"#utility.yul\":9623:9627   */\n      0xff\n        /* \"#utility.yul\":9616:9621   */\n      dup3\n        /* \"#utility.yul\":9612:9628   */\n      and\n        /* \"#utility.yul\":9601:9628   */\n      swap1\n      pop\n        /* \"#utility.yul\":9548:9634   */\n      swap2\n      swap1\n      pop\n      jump\t// out\n        /* \"#utility.yul\":9640:9752   */\n    tag_257:\n        /* \"#utility.yul\":9723:9745   */\n      tag_383\n        /* \"#utility.yul\":9739:9744   */\n      dup2\n        /* \"#utility.yul\":9723:9745   */\n      tag_256\n      jump\t// in\n    tag_383:\n        /* \"#utility.yul\":9718:9721   */\n      dup3\n        /* \"#utility.yul\":9711:9746   */\n      mstore\n        /* \"#utility.yul\":9640:9752   */\n      pop\n      pop\n      jump\t// out\n        /* \"#utility.yul\":9758:9972   */\n    tag_49:\n        /* \"#utility.yul\":9847:9851   */\n      0x00\n        /* \"#utility.yul\":9885:9887   */\n      0x20\n        /* \"#utility.yul\":9874:9883   */\n      dup3\n        /* \"#utility.yul\":9870:9888   */\n      add\n        /* \"#utility.yul\":9862:9888   */\n      swap1\n      pop\n        /* \"#utility.yul\":9898:9965   */\n      tag_385\n        /* \"#utility.yul\":9962:9963   */\n      0x00\n        /* \"#utility.yul\":9951:9960   */\n      dup4\n        /* \"#utility.yul\":9947:9964   */\n      add\n        /* \"#utility.yul\":9938:9944   */\n      dup5\n        /* \"#utility.yul\":9898:9965   */\n      tag_257\n      jump\t// in\n    tag_385:\n        /* \"#utility.yul\":9758:9972   */\n      swap3\n      swap2\n      pop\n      pop\n      jump\t// out\n        /* \"#utility.yul\":9978:10307   */\n    tag_55:\n        /* \"#utility.yul\":10037:10043   */\n      0x00\n        /* \"#utility.yul\":10086:10088   */\n      0x20\n        /* \"#utility.yul\":10074:10083   */\n      dup3\n        /* \"#utility.yul\":10065:10072   */\n      dup5\n        /* \"#utility.yul\":10061:10084   */\n      sub\n        /* \"#utility.yul\":10057:10089   */\n      slt\n        /* \"#utility.yul\":10054:10173   */\n      iszero\n      tag_387\n      jumpi\n        /* \"#utility.yul\":10092:10171   */\n      tag_388\n      tag_224\n      jump\t// in\n    tag_388:\n        /* \"#utility.yul\":10054:10173   */\n    tag_387:\n        /* \"#utility.yul\":10212:10213   */\n      0x00\n        /* \"#utility.yul\":10237:10290   */\n      tag_389\n        /* \"#utility.yul\":10282:10289   */\n      dup5\n        /* \"#utility.yul\":10273:10279   */\n      dup3\n        /* \"#utility.yul\":10262:10271   */\n      dup6\n        /* \"#utility.yul\":10258:10280   */\n      add\n        /* \"#utility.yul\":10237:10290   */\n      tag_253\n      jump\t// in\n    tag_389:\n        /* \"#utility.yul\":10227:10290   */\n      swap2\n      pop\n        /* \"#utility.yul\":10183:10300   */\n      pop\n        /* \"#utility.yul\":9978:10307   */\n      swap3\n      swap2\n      pop\n      pop\n      jump\t// out\n        /* \"#utility.yul\":10313:10642   */\n    tag_61:\n        /* \"#utility.yul\":10372:10378   */\n      0x00\n        /* \"#utility.yul\":10421:10423   */\n      0x20\n        /* \"#utility.yul\":10409:10418   */\n      dup3\n        /* \"#utility.yul\":10400:10407   */\n      dup5\n        /* \"#utility.yul\":10396:10419   */\n      sub\n        /* \"#utility.yul\":10392:10424   */\n      slt\n        /* \"#utility.yul\":10389:10508   */\n      iszero\n      tag_391\n      jumpi\n        /* \"#utility.yul\":10427:10506   */\n      tag_392\n      tag_224\n      jump\t// in\n    tag_392:\n        /* \"#utility.yul\":10389:10508   */\n    tag_391:\n        /* \"#utility.yul\":10547:10548   */\n      0x00\n        /* \"#utility.yul\":10572:10625   */\n      tag_393\n        /* \"#utility.yul\":10617:10624   */\n      dup5\n        /* \"#utility.yul\":10608:10614   */\n      dup3\n        /* \"#utility.yul\":10597:10606   */\n      dup6\n        /* \"#utility.yul\":10593:10615   */\n      add\n        /* \"#utility.yul\":10572:10625   */\n      tag_250\n      jump\t// in\n    tag_393:\n        /* \"#utility.yul\":10562:10625   */\n      swap2\n      pop\n        /* \"#utility.yul\":10518:10635   */\n      pop\n        /* \"#utility.yul\":10313:10642   */\n      swap3\n      swap2\n      pop\n      pop\n      jump\t// out\n        /* \"#utility.yul\":10648:10766   */\n    tag_258:\n        /* \"#utility.yul\":10735:10759   */\n      tag_395\n        /* \"#utility.yul\":10753:10758   */\n      dup2\n        /* \"#utility.yul\":10735:10759   */\n      tag_248\n      jump\t// in\n    tag_395:\n        /* \"#utility.yul\":10730:10733   */\n      dup3\n        /* \"#utility.yul\":10723:10760   */\n      mstore\n        /* \"#utility.yul\":10648:10766   */\n      pop\n      pop\n      jump\t// out\n        /* \"#utility.yul\":10772:10994   */\n    tag_72:\n        /* \"#utility.yul\":10865:10869   */\n      0x00\n        /* \"#utility.yul\":10903:10905   */\n      0x20\n        /* \"#utility.yul\":10892:10901   */\n      dup3\n        /* \"#utility.yul\":10888:10906   */\n      add\n        /* \"#utility.yul\":10880:10906   */\n      swap1\n      pop\n        /* \"#utility.yul\":10916:10987   */\n      tag_397\n        /* \"#utility.yul\":10984:10985   */\n      0x00\n        /* \"#utility.yul\":10973:10982   */\n      dup4\n        /* \"#utility.yul\":10969:10986   */\n      add\n        /* \"#utility.yul\":10960:10966   */\n      dup5\n        /* \"#utility.yul\":10916:10987   */\n      tag_258\n      jump\t// in\n    tag_397:\n        /* \"#utility.yul\":10772:10994   */\n      swap3\n      swap2\n      pop\n      pop\n      jump\t// out\n        /* \"#utility.yul\":11000:11474   */\n    tag_82:\n        /* \"#utility.yul\":11068:11074   */\n      0x00\n        /* \"#utility.yul\":11076:11082   */\n      dup1\n        /* \"#utility.yul\":11125:11127   */\n      0x40\n        /* \"#utility.yul\":11113:11122   */\n      dup4\n        /* \"#utility.yul\":11104:11111   */\n      dup6\n        /* \"#utility.yul\":11100:11123   */\n      sub\n        /* \"#utility.yul\":11096:11128   */\n      slt\n        /* \"#utility.yul\":11093:11212   */\n      iszero\n      tag_399\n      jumpi\n        /* \"#utility.yul\":11131:11210   */\n      tag_400\n      tag_224\n      jump\t// in\n    tag_400:\n        /* \"#utility.yul\":11093:11212   */\n    tag_399:\n        /* \"#utility.yul\":11251:11252   */\n      0x00\n        /* \"#utility.yul\":11276:11329   */\n      tag_401\n        /* \"#utility.yul\":11321:11328   */\n      dup6\n        /* \"#utility.yul\":11312:11318   */\n      dup3\n        /* \"#utility.yul\":11301:11310   */\n      dup7\n        /* \"#utility.yul\":11297:11319   */\n      add\n        /* \"#utility.yul\":11276:11329   */\n      tag_250\n      jump\t// in\n    tag_401:\n        /* \"#utility.yul\":11266:11329   */\n      swap3\n      pop\n        /* \"#utility.yul\":11222:11339   */\n      pop\n        /* \"#utility.yul\":11378:11380   */\n      0x20\n        /* \"#utility.yul\":11404:11457   */\n      tag_402\n        /* \"#utility.yul\":11449:11456   */\n      dup6\n        /* \"#utility.yul\":11440:11446   */\n      dup3\n        /* \"#utility.yul\":11429:11438   */\n      dup7\n        /* \"#utility.yul\":11425:11447   */\n      add\n        /* \"#utility.yul\":11404:11457   */\n      tag_250\n      jump\t// in\n    tag_402:\n        /* \"#utility.yul\":11394:11457   */\n      swap2\n      pop\n        /* \"#utility.yul\":11349:11467   */\n      pop\n        /* \"#utility.yul\":11000:11474   */\n      swap3\n      pop\n      swap3\n      swap1\n      pop\n      jump\t// out\n        /* \"#utility.yul\":11480:11660   */\n    tag_259:\n        /* \"#utility.yul\":11528:11605   */\n      0x4e487b7100000000000000000000000000000000000000000000000000000000\n        /* \"#utility.yul\":11525:11526   */\n      0x00\n        /* \"#utility.yul\":11518:11606   */\n      mstore\n        /* \"#utility.yul\":11625:11629   */\n      0x11\n        /* \"#utility.yul\":11622:11623   */\n      0x04\n        /* \"#utility.yul\":11615:11630   */\n      mstore\n        /* \"#utility.yul\":11649:11653   */\n      0x24\n        /* \"#utility.yul\":11646:11647   */\n      0x00\n        /* \"#utility.yul\":11639:11654   */\n      revert\n        /* \"#utility.yul\":11666:11860   */\n    tag_93:\n        /* \"#utility.yul\":11706:11710   */\n      0x00\n        /* \"#utility.yul\":11726:11746   */\n      tag_405\n        /* \"#utility.yul\":11744:11745   */\n      dup3\n        /* \"#utility.yul\":11726:11746   */\n      tag_251\n      jump\t// in\n    tag_405:\n        /* \"#utility.yul\":11721:11746   */\n      swap2\n      pop\n        /* \"#utility.yul\":11760:11780   */\n      tag_406\n        /* \"#utility.yul\":11778:11779   */\n      dup4\n        /* \"#utility.yul\":11760:11780   */\n      tag_251\n      jump\t// in\n    tag_406:\n        /* \"#utility.yul\":11755:11780   */\n      swap3\n      pop\n        /* \"#utility.yul\":11804:11805   */\n      dup3\n        /* \"#utility.yul\":11801:11802   */\n      dup3\n        /* \"#utility.yul\":11797:11806   */\n      sub\n        /* \"#utility.yul\":11789:11806   */\n      swap1\n      pop\n        /* \"#utility.yul\":11828:11829   */\n      dup2\n        /* \"#utility.yul\":11822:11826   */\n      dup2\n        /* \"#utility.yul\":11819:11830   */\n      gt\n        /* \"#utility.yul\":11816:11853   */\n      iszero\n      tag_407\n      jumpi\n        /* \"#utility.yul\":11833:11851   */\n      tag_408\n      tag_259\n      jump\t// in\n    tag_408:\n        /* \"#utility.yul\":11816:11853   */\n    tag_407:\n        /* \"#utility.yul\":11666:11860   */\n      swap3\n      swap2\n      pop\n      pop\n      jump\t// out\n        /* \"#utility.yul\":11866:12094   */\n    tag_260:\n        /* \"#utility.yul\":12006:12040   */\n      0x6c617374657374206372756d6220646f6573206e6f742065786973742e205768\n        /* \"#utility.yul\":12002:12003   */\n      0x00\n        /* \"#utility.yul\":11994:12000   */\n      dup3\n        /* \"#utility.yul\":11990:12004   */\n      add\n        /* \"#utility.yul\":11983:12041   */\n      mstore\n        /* \"#utility.yul\":12075:12086   */\n      0x6f206174652069743f0000000000000000000000000000000000000000000000\n        /* \"#utility.yul\":12070:12072   */\n      0x20\n        /* \"#utility.yul\":12062:12068   */\n      dup3\n        /* \"#utility.yul\":12058:12073   */\n      add\n        /* \"#utility.yul\":12051:12087   */\n      mstore\n        /* \"#utility.yul\":11866:12094   */\n      pop\n      jump\t// out\n        /* \"#utility.yul\":12100:12466   */\n    tag_261:\n        /* \"#utility.yul\":12242:12245   */\n      0x00\n        /* \"#utility.yul\":12263:12330   */\n      tag_411\n        /* \"#utility.yul\":12327:12329   */\n      0x29\n        /* \"#utility.yul\":12322:12325   */\n      dup4\n        /* \"#utility.yul\":12263:12330   */\n      tag_244\n      jump\t// in\n    tag_411:\n        /* \"#utility.yul\":12256:12330   */\n      swap2\n      pop\n        /* \"#utility.yul\":12339:12432   */\n      tag_412\n        /* \"#utility.yul\":12428:12431   */\n      dup3\n        /* \"#utility.yul\":12339:12432   */\n      tag_260\n      jump\t// in\n    tag_412:\n        /* \"#utility.yul\":12457:12459   */\n      0x40\n        /* \"#utility.yul\":12452:12455   */\n      dup3\n        /* \"#utility.yul\":12448:12460   */\n      add\n        /* \"#utility.yul\":12441:12460   */\n      swap1\n      pop\n        /* \"#utility.yul\":12100:12466   */\n      swap2\n      swap1\n      pop\n      jump\t// out\n        /* \"#utility.yul\":12472:12891   */\n    tag_96:\n        /* \"#utility.yul\":12638:12642   */\n      0x00\n        /* \"#utility.yul\":12676:12678   */\n      0x20\n        /* \"#utility.yul\":12665:12674   */\n      dup3\n        /* \"#utility.yul\":12661:12679   */\n      add\n        /* \"#utility.yul\":12653:12679   */\n      swap1\n      pop\n        /* \"#utility.yul\":12725:12734   */\n      dup2\n        /* \"#utility.yul\":12719:12723   */\n      dup2\n        /* \"#utility.yul\":12715:12735   */\n      sub\n        /* \"#utility.yul\":12711:12712   */\n      0x00\n        /* \"#utility.yul\":12700:12709   */\n      dup4\n        /* \"#utility.yul\":12696:12713   */\n      add\n        /* \"#utility.yul\":12689:12736   */\n      mstore\n        /* \"#utility.yul\":12753:12884   */\n      tag_414\n        /* \"#utility.yul\":12879:12883   */\n      dup2\n        /* \"#utility.yul\":12753:12884   */\n      tag_261\n      jump\t// in\n    tag_414:\n        /* \"#utility.yul\":12745:12884   */\n      swap1\n      pop\n        /* \"#utility.yul\":12472:12891   */\n      swap2\n      swap1\n      pop\n      jump\t// out\n        /* \"#utility.yul\":12897:13021   */\n    tag_262:\n        /* \"#utility.yul\":12974:12980   */\n      0x00\n        /* \"#utility.yul\":13008:13013   */\n      dup2\n        /* \"#utility.yul\":13002:13014   */\n      mload\n        /* \"#utility.yul\":12992:13014   */\n      swap1\n      pop\n        /* \"#utility.yul\":12897:13021   */\n      swap2\n      swap1\n      pop\n      jump\t// out\n        /* \"#utility.yul\":13027:13221   */\n    tag_263:\n        /* \"#utility.yul\":13136:13147   */\n      0x00\n        /* \"#utility.yul\":13170:13176   */\n      dup3\n        /* \"#utility.yul\":13165:13168   */\n      dup3\n        /* \"#utility.yul\":13158:13177   */\n      mstore\n        /* \"#utility.yul\":13210:13214   */\n      0x20\n        /* \"#utility.yul\":13205:13208   */\n      dup3\n        /* \"#utility.yul\":13201:13215   */\n      add\n        /* \"#utility.yul\":13186:13215   */\n      swap1\n      pop\n        /* \"#utility.yul\":13027:13221   */\n      swap3\n      swap2\n      pop\n      pop\n      jump\t// out\n        /* \"#utility.yul\":13227:13369   */\n    tag_264:\n        /* \"#utility.yul\":13304:13308   */\n      0x00\n        /* \"#utility.yul\":13327:13330   */\n      dup2\n        /* \"#utility.yul\":13319:13330   */\n      swap1\n      pop\n        /* \"#utility.yul\":13357:13361   */\n      0x20\n        /* \"#utility.yul\":13352:13355   */\n      dup3\n        /* \"#utility.yul\":13348:13362   */\n      add\n        /* \"#utility.yul\":13340:13362   */\n      swap1\n      pop\n        /* \"#utility.yul\":13227:13369   */\n      swap2\n      swap1\n      pop\n      jump\t// out\n        /* \"#utility.yul\":13375:13534   */\n    tag_265:\n        /* \"#utility.yul\":13449:13460   */\n      0x00\n        /* \"#utility.yul\":13483:13489   */\n      dup3\n        /* \"#utility.yul\":13478:13481   */\n      dup3\n        /* \"#utility.yul\":13471:13490   */\n      mstore\n        /* \"#utility.yul\":13523:13527   */\n      0x20\n        /* \"#utility.yul\":13518:13521   */\n      dup3\n        /* \"#utility.yul\":13514:13528   */\n      add\n        /* \"#utility.yul\":13499:13528   */\n      swap1\n      pop\n        /* \"#utility.yul\":13375:13534   */\n      swap3\n      swap2\n      pop\n      pop\n      jump\t// out\n        /* \"#utility.yul\":13540:13897   */\n    tag_266:\n        /* \"#utility.yul\":13618:13621   */\n      0x00\n        /* \"#utility.yul\":13646:13685   */\n      tag_420\n        /* \"#utility.yul\":13679:13684   */\n      dup3\n        /* \"#utility.yul\":13646:13685   */\n      tag_243\n      jump\t// in\n    tag_420:\n        /* \"#utility.yul\":13701:13762   */\n      tag_421\n        /* \"#utility.yul\":13755:13761   */\n      dup2\n        /* \"#utility.yul\":13750:13753   */\n      dup6\n        /* \"#utility.yul\":13701:13762   */\n      tag_265\n      jump\t// in\n    tag_421:\n        /* \"#utility.yul\":13694:13762   */\n      swap4\n      pop\n        /* \"#utility.yul\":13771:13836   */\n      tag_422\n        /* \"#utility.yul\":13829:13835   */\n      dup2\n        /* \"#utility.yul\":13824:13827   */\n      dup6\n        /* \"#utility.yul\":13817:13821   */\n      0x20\n        /* \"#utility.yul\":13810:13815   */\n      dup7\n        /* \"#utility.yul\":13806:13822   */\n      add\n        /* \"#utility.yul\":13771:13836   */\n      tag_245\n      jump\t// in\n    tag_422:\n        /* \"#utility.yul\":13861:13890   */\n      tag_423\n        /* \"#utility.yul\":13883:13889   */\n      dup2\n        /* \"#utility.yul\":13861:13890   */\n      tag_228\n      jump\t// in\n    tag_423:\n        /* \"#utility.yul\":13856:13859   */\n      dup5\n        /* \"#utility.yul\":13852:13891   */\n      add\n        /* \"#utility.yul\":13845:13891   */\n      swap2\n      pop\n        /* \"#utility.yul\":13622:13897   */\n      pop\n        /* \"#utility.yul\":13540:13897   */\n      swap3\n      swap2\n      pop\n      pop\n      jump\t// out\n        /* \"#utility.yul\":13903:14099   */\n    tag_267:\n        /* \"#utility.yul\":13992:14002   */\n      0x00\n        /* \"#utility.yul\":14027:14093   */\n      tag_425\n        /* \"#utility.yul\":14089:14092   */\n      dup4\n        /* \"#utility.yul\":14081:14087   */\n      dup4\n        /* \"#utility.yul\":14027:14093   */\n      tag_266\n      jump\t// in\n    tag_425:\n        /* \"#utility.yul\":14013:14093   */\n      swap1\n      pop\n        /* \"#utility.yul\":13903:14099   */\n      swap3\n      swap2\n      pop\n      pop\n      jump\t// out\n        /* \"#utility.yul\":14105:14228   */\n    tag_268:\n        /* \"#utility.yul\":14185:14189   */\n      0x00\n        /* \"#utility.yul\":14217:14221   */\n      0x20\n        /* \"#utility.yul\":14212:14215   */\n      dup3\n        /* \"#utility.yul\":14208:14222   */\n      add\n        /* \"#utility.yul\":14200:14222   */\n      swap1\n      pop\n        /* \"#utility.yul\":14105:14228   */\n      swap2\n      swap1\n      pop\n      jump\t// out\n        /* \"#utility.yul\":14262:15253   */\n    tag_269:\n        /* \"#utility.yul\":14401:14404   */\n      0x00\n        /* \"#utility.yul\":14430:14494   */\n      tag_428\n        /* \"#utility.yul\":14488:14493   */\n      dup3\n        /* \"#utility.yul\":14430:14494   */\n      tag_262\n      jump\t// in\n    tag_428:\n        /* \"#utility.yul\":14510:14606   */\n      tag_429\n        /* \"#utility.yul\":14599:14605   */\n      dup2\n        /* \"#utility.yul\":14594:14597   */\n      dup6\n        /* \"#utility.yul\":14510:14606   */\n      tag_263\n      jump\t// in\n    tag_429:\n        /* \"#utility.yul\":14503:14606   */\n      swap4\n      pop\n        /* \"#utility.yul\":14632:14635   */\n      dup4\n        /* \"#utility.yul\":14677:14681   */\n      0x20\n        /* \"#utility.yul\":14669:14675   */\n      dup3\n        /* \"#utility.yul\":14665:14682   */\n      mul\n        /* \"#utility.yul\":14660:14663   */\n      dup6\n        /* \"#utility.yul\":14656:14683   */\n      add\n        /* \"#utility.yul\":14707:14773   */\n      tag_430\n        /* \"#utility.yul\":14767:14772   */\n      dup6\n        /* \"#utility.yul\":14707:14773   */\n      tag_264\n      jump\t// in\n    tag_430:\n        /* \"#utility.yul\":14796:14803   */\n      dup1\n        /* \"#utility.yul\":14827:14828   */\n      0x00\n        /* \"#utility.yul\":14812:15208   */\n    tag_431:\n        /* \"#utility.yul\":14837:14843   */\n      dup6\n        /* \"#utility.yul\":14834:14835   */\n      dup2\n        /* \"#utility.yul\":14831:14844   */\n      lt\n        /* \"#utility.yul\":14812:15208   */\n      iszero\n      tag_433\n      jumpi\n        /* \"#utility.yul\":14908:14917   */\n      dup5\n        /* \"#utility.yul\":14902:14906   */\n      dup5\n        /* \"#utility.yul\":14898:14918   */\n      sub\n        /* \"#utility.yul\":14893:14896   */\n      dup10\n        /* \"#utility.yul\":14886:14919   */\n      mstore\n        /* \"#utility.yul\":14959:14965   */\n      dup2\n        /* \"#utility.yul\":14953:14966   */\n      mload\n        /* \"#utility.yul\":14987:15071   */\n      tag_434\n        /* \"#utility.yul\":15066:15070   */\n      dup6\n        /* \"#utility.yul\":15051:15064   */\n      dup3\n        /* \"#utility.yul\":14987:15071   */\n      tag_267\n      jump\t// in\n    tag_434:\n        /* \"#utility.yul\":14979:15071   */\n      swap5\n      pop\n        /* \"#utility.yul\":15094:15164   */\n      tag_435\n        /* \"#utility.yul\":15157:15163   */\n      dup4\n        /* \"#utility.yul\":15094:15164   */\n      tag_268\n      jump\t// in\n    tag_435:\n        /* \"#utility.yul\":15084:15164   */\n      swap3\n      pop\n        /* \"#utility.yul\":15193:15197   */\n      0x20\n        /* \"#utility.yul\":15188:15191   */\n      dup11\n        /* \"#utility.yul\":15184:15198   */\n      add\n        /* \"#utility.yul\":15177:15198   */\n      swap10\n      pop\n        /* \"#utility.yul\":14872:15208   */\n      pop\n        /* \"#utility.yul\":14859:14860   */\n      0x01\n        /* \"#utility.yul\":14856:14857   */\n      dup2\n        /* \"#utility.yul\":14852:14861   */\n      add\n        /* \"#utility.yul\":14847:14861   */\n      swap1\n      pop\n        /* \"#utility.yul\":14812:15208   */\n      jump(tag_431)\n    tag_433:\n        /* \"#utility.yul\":14816:14830   */\n      pop\n        /* \"#utility.yul\":15224:15228   */\n      dup3\n        /* \"#utility.yul\":15217:15228   */\n      swap8\n      pop\n        /* \"#utility.yul\":15244:15247   */\n      dup8\n        /* \"#utility.yul\":15237:15247   */\n      swap6\n      pop\n        /* \"#utility.yul\":14406:15253   */\n      pop\n      pop\n      pop\n      pop\n      pop\n        /* \"#utility.yul\":14262:15253   */\n      swap3\n      swap2\n      pop\n      pop\n      jump\t// out\n        /* \"#utility.yul\":15259:15971   */\n    tag_98:\n        /* \"#utility.yul\":15492:15496   */\n      0x00\n        /* \"#utility.yul\":15530:15532   */\n      0x60\n        /* \"#utility.yul\":15519:15528   */\n      dup3\n        /* \"#utility.yul\":15515:15533   */\n      add\n        /* \"#utility.yul\":15507:15533   */\n      swap1\n      pop\n        /* \"#utility.yul\":15579:15588   */\n      dup2\n        /* \"#utility.yul\":15573:15577   */\n      dup2\n        /* \"#utility.yul\":15569:15589   */\n      sub\n        /* \"#utility.yul\":15565:15566   */\n      0x00\n        /* \"#utility.yul\":15554:15563   */\n      dup4\n        /* \"#utility.yul\":15550:15567   */\n      add\n        /* \"#utility.yul\":15543:15590   */\n      mstore\n        /* \"#utility.yul\":15607:15685   */\n      tag_437\n        /* \"#utility.yul\":15680:15684   */\n      dup2\n        /* \"#utility.yul\":15671:15677   */\n      dup7\n        /* \"#utility.yul\":15607:15685   */\n      tag_246\n      jump\t// in\n    tag_437:\n        /* \"#utility.yul\":15599:15685   */\n      swap1\n      pop\n        /* \"#utility.yul\":15732:15741   */\n      dup2\n        /* \"#utility.yul\":15726:15730   */\n      dup2\n        /* \"#utility.yul\":15722:15742   */\n      sub\n        /* \"#utility.yul\":15717:15719   */\n      0x20\n        /* \"#utility.yul\":15706:15715   */\n      dup4\n        /* \"#utility.yul\":15702:15720   */\n      add\n        /* \"#utility.yul\":15695:15743   */\n      mstore\n        /* \"#utility.yul\":15760:15888   */\n      tag_438\n        /* \"#utility.yul\":15883:15887   */\n      dup2\n        /* \"#utility.yul\":15874:15880   */\n      dup6\n        /* \"#utility.yul\":15760:15888   */\n      tag_269\n      jump\t// in\n    tag_438:\n        /* \"#utility.yul\":15752:15888   */\n      swap1\n      pop\n        /* \"#utility.yul\":15898:15964   */\n      tag_439\n        /* \"#utility.yul\":15960:15962   */\n      0x40\n        /* \"#utility.yul\":15949:15958   */\n      dup4\n        /* \"#utility.yul\":15945:15963   */\n      add\n        /* \"#utility.yul\":15936:15942   */\n      dup5\n        /* \"#utility.yul\":15898:15964   */\n      tag_254\n      jump\t// in\n    tag_439:\n        /* \"#utility.yul\":15259:15971   */\n      swap5\n      swap4\n      pop\n      pop\n      pop\n      pop\n      jump\t// out\n        /* \"#utility.yul\":15977:16157   */\n    tag_270:\n        /* \"#utility.yul\":16025:16102   */\n      0x4e487b7100000000000000000000000000000000000000000000000000000000\n        /* \"#utility.yul\":16022:16023   */\n      0x00\n        /* \"#utility.yul\":16015:16103   */\n      mstore\n        /* \"#utility.yul\":16122:16126   */\n      0x22\n        /* \"#utility.yul\":16119:16120   */\n      0x04\n        /* \"#utility.yul\":16112:16127   */\n      mstore\n        /* \"#utility.yul\":16146:16150   */\n      0x24\n        /* \"#utility.yul\":16143:16144   */\n      0x00\n        /* \"#utility.yul\":16136:16151   */\n      revert\n        /* \"#utility.yul\":16163:16483   */\n    tag_104:\n        /* \"#utility.yul\":16207:16213   */\n      0x00\n        /* \"#utility.yul\":16244:16245   */\n      0x02\n        /* \"#utility.yul\":16238:16242   */\n      dup3\n        /* \"#utility.yul\":16234:16246   */\n      div\n        /* \"#utility.yul\":16224:16246   */\n      swap1\n      pop\n        /* \"#utility.yul\":16291:16292   */\n      0x01\n        /* \"#utility.yul\":16285:16289   */\n      dup3\n        /* \"#utility.yul\":16281:16293   */\n      and\n        /* \"#utility.yul\":16312:16330   */\n      dup1\n        /* \"#utility.yul\":16302:16383   */\n      tag_442\n      jumpi\n        /* \"#utility.yul\":16368:16372   */\n      0x7f\n        /* \"#utility.yul\":16360:16366   */\n      dup3\n        /* \"#utility.yul\":16356:16373   */\n      and\n        /* \"#utility.yul\":16346:16373   */\n      swap2\n      pop\n        /* \"#utility.yul\":16302:16383   */\n    tag_442:\n        /* \"#utility.yul\":16430:16432   */\n      0x20\n        /* \"#utility.yul\":16422:16428   */\n      dup3\n        /* \"#utility.yul\":16419:16433   */\n      lt\n        /* \"#utility.yul\":16399:16417   */\n      dup2\n        /* \"#utility.yul\":16396:16434   */\n      sub\n        /* \"#utility.yul\":16393:16477   */\n      tag_443\n      jumpi\n        /* \"#utility.yul\":16449:16467   */\n      tag_444\n      tag_270\n      jump\t// in\n    tag_444:\n        /* \"#utility.yul\":16393:16477   */\n    tag_443:\n        /* \"#utility.yul\":16214:16483   */\n      pop\n        /* \"#utility.yul\":16163:16483   */\n      swap2\n      swap1\n      pop\n      jump\t// out\n        /* \"#utility.yul\":16489:16657   */\n    tag_271:\n        /* \"#utility.yul\":16629:16649   */\n      0x6372756d6220616c656164792062616b65640000000000000000000000000000\n        /* \"#utility.yul\":16625:16626   */\n      0x00\n        /* \"#utility.yul\":16617:16623   */\n      dup3\n        /* \"#utility.yul\":16613:16627   */\n      add\n        /* \"#utility.yul\":16606:16650   */\n      mstore\n        /* \"#utility.yul\":16489:16657   */\n      pop\n      jump\t// out\n        /* \"#utility.yul\":16663:17029   */\n    tag_272:\n        /* \"#utility.yul\":16805:16808   */\n      0x00\n        /* \"#utility.yul\":16826:16893   */\n      tag_447\n        /* \"#utility.yul\":16890:16892   */\n      0x12\n        /* \"#utility.yul\":16885:16888   */\n      dup4\n        /* \"#utility.yul\":16826:16893   */\n      tag_244\n      jump\t// in\n    tag_447:\n        /* \"#utility.yul\":16819:16893   */\n      swap2\n      pop\n        /* \"#utility.yul\":16902:16995   */\n      tag_448\n        /* \"#utility.yul\":16991:16994   */\n      dup3\n        /* \"#utility.yul\":16902:16995   */\n      tag_271\n      jump\t// in\n    tag_448:\n        /* \"#utility.yul\":17020:17022   */\n      0x20\n        /* \"#utility.yul\":17015:17018   */\n      dup3\n        /* \"#utility.yul\":17011:17023   */\n      add\n        /* \"#utility.yul\":17004:17023   */\n      swap1\n      pop\n        /* \"#utility.yul\":16663:17029   */\n      swap2\n      swap1\n      pop\n      jump\t// out\n        /* \"#utility.yul\":17035:17454   */\n    tag_132:\n        /* \"#utility.yul\":17201:17205   */\n      0x00\n        /* \"#utility.yul\":17239:17241   */\n      0x20\n        /* \"#utility.yul\":17228:17237   */\n      dup3\n        /* \"#utility.yul\":17224:17242   */\n      add\n        /* \"#utility.yul\":17216:17242   */\n      swap1\n      pop\n        /* \"#utility.yul\":17288:17297   */\n      dup2\n        /* \"#utility.yul\":17282:17286   */\n      dup2\n        /* \"#utility.yul\":17278:17298   */\n      sub\n        /* \"#utility.yul\":17274:17275   */\n      0x00\n        /* \"#utility.yul\":17263:17272   */\n      dup4\n        /* \"#utility.yul\":17259:17276   */\n      add\n        /* \"#utility.yul\":17252:17299   */\n      mstore\n        /* \"#utility.yul\":17316:17447   */\n      tag_450\n        /* \"#utility.yul\":17442:17446   */\n      dup2\n        /* \"#utility.yul\":17316:17447   */\n      tag_272\n      jump\t// in\n    tag_450:\n        /* \"#utility.yul\":17308:17447   */\n      swap1\n      pop\n        /* \"#utility.yul\":17035:17454   */\n      swap2\n      swap1\n      pop\n      jump\t// out\n        /* \"#utility.yul\":17460:17693   */\n    tag_137:\n        /* \"#utility.yul\":17499:17502   */\n      0x00\n        /* \"#utility.yul\":17522:17546   */\n      tag_452\n        /* \"#utility.yul\":17540:17545   */\n      dup3\n        /* \"#utility.yul\":17522:17546   */\n      tag_251\n      jump\t// in\n    tag_452:\n        /* \"#utility.yul\":17513:17546   */\n      swap2\n      pop\n        /* \"#utility.yul\":17568:17634   */\n      0xffffffffffffffffffffffffffffffffffffffffffffffffffffffffffffffff\n        /* \"#utility.yul\":17561:17566   */\n      dup3\n        /* \"#utility.yul\":17558:17635   */\n      sub\n        /* \"#utility.yul\":17555:17658   */\n      tag_453\n      jumpi\n        /* \"#utility.yul\":17638:17656   */\n      tag_454\n      tag_259\n      jump\t// in\n    tag_454:\n        /* \"#utility.yul\":17555:17658   */\n    tag_453:\n        /* \"#utility.yul\":17685:17686   */\n      0x01\n        /* \"#utility.yul\":17678:17683   */\n      dup3\n        /* \"#utility.yul\":17674:17687   */\n      add\n        /* \"#utility.yul\":17667:17687   */\n      swap1\n      pop\n        /* \"#utility.yul\":17460:17693   */\n      swap2\n      swap1\n      pop\n      jump\t// out\n        /* \"#utility.yul\":17699:18141   */\n    tag_180:\n        /* \"#utility.yul\":17848:17852   */\n      0x00\n        /* \"#utility.yul\":17886:17888   */\n      0x60\n        /* \"#utility.yul\":17875:17884   */\n      dup3\n        /* \"#utility.yul\":17871:17889   */\n      add\n        /* \"#utility.yul\":17863:17889   */\n      swap1\n      pop\n        /* \"#utility.yul\":17899:17970   */\n      tag_456\n        /* \"#utility.yul\":17967:17968   */\n      0x00\n        /* \"#utility.yul\":17956:17965   */\n      dup4\n        /* \"#utility.yul\":17952:17969   */\n      add\n        /* \"#utility.yul\":17943:17949   */\n      dup7\n        /* \"#utility.yul\":17899:17970   */\n      tag_258\n      jump\t// in\n    tag_456:\n        /* \"#utility.yul\":17980:18052   */\n      tag_457\n        /* \"#utility.yul\":18048:18050   */\n      0x20\n        /* \"#utility.yul\":18037:18046   */\n      dup4\n        /* \"#utility.yul\":18033:18051   */\n      add\n        /* \"#utility.yul\":18024:18030   */\n      dup6\n        /* \"#utility.yul\":17980:18052   */\n      tag_255\n      jump\t// in\n    tag_457:\n        /* \"#utility.yul\":18062:18134   */\n      tag_458\n        /* \"#utility.yul\":18130:18132   */\n      0x40\n        /* \"#utility.yul\":18119:18128   */\n      dup4\n        /* \"#utility.yul\":18115:18133   */\n      add\n        /* \"#utility.yul\":18106:18112   */\n      dup5\n        /* \"#utility.yul\":18062:18134   */\n      tag_255\n      jump\t// in\n    tag_458:\n        /* \"#utility.yul\":17699:18141   */\n      swap5\n      swap4\n      pop\n      pop\n      pop\n      pop\n      jump\t// out\n        /* \"#utility.yul\":18147:18479   */\n    tag_212:\n        /* \"#utility.yul\":18268:18272   */\n      0x00\n        /* \"#utility.yul\":18306:18308   */\n      0x40\n        /* \"#utility.yul\":18295:18304   */\n      dup3\n        /* \"#utility.yul\":18291:18309   */\n      add\n        /* \"#utility.yul\":18283:18309   */\n      swap1\n      pop\n        /* \"#utility.yul\":18319:18390   */\n      tag_460\n        /* \"#utility.yul\":18387:18388   */\n      0x00\n        /* \"#utility.yul\":18376:18385   */\n      dup4\n        /* \"#utility.yul\":18372:18389   */\n      add\n        /* \"#utility.yul\":18363:18369   */\n      dup6\n        /* \"#utility.yul\":18319:18390   */\n      tag_255\n      jump\t// in\n    tag_460:\n        /* \"#utility.yul\":18400:18472   */\n      tag_461\n        /* \"#utility.yul\":18468:18470   */\n      0x20\n        /* \"#utility.yul\":18457:18466   */\n      dup4\n        /* \"#utility.yul\":18453:18471   */\n      add\n        /* \"#utility.yul\":18444:18450   */\n      dup5\n        /* \"#utility.yul\":18400:18472   */\n      tag_255\n      jump\t// in\n    tag_461:\n        /* \"#utility.yul\":18147:18479   */\n      swap4\n      swap3\n      pop\n      pop\n      pop\n      jump\t// out\n        /* \"#utility.yul\":18485:18676   */\n    tag_216:\n        /* \"#utility.yul\":18525:18528   */\n      0x00\n        /* \"#utility.yul\":18544:18564   */\n      tag_463\n        /* \"#utility.yul\":18562:18563   */\n      dup3\n        /* \"#utility.yul\":18544:18564   */\n      tag_251\n      jump\t// in\n    tag_463:\n        /* \"#utility.yul\":18539:18564   */\n      swap2\n      pop\n        /* \"#utility.yul\":18578:18598   */\n      tag_464\n        /* \"#utility.yul\":18596:18597   */\n      dup4\n        /* \"#utility.yul\":18578:18598   */\n      tag_251\n      jump\t// in\n    tag_464:\n        /* \"#utility.yul\":18573:18598   */\n      swap3\n      pop\n        /* \"#utility.yul\":18621:18622   */\n      dup3\n        /* \"#utility.yul\":18618:18619   */\n      dup3\n        /* \"#utility.yul\":18614:18623   */\n      add\n        /* \"#utility.yul\":18607:18623   */\n      swap1\n      pop\n        /* \"#utility.yul\":18642:18645   */\n      dup1\n        /* \"#utility.yul\":18639:18640   */\n      dup3\n        /* \"#utility.yul\":18636:18646   */\n      gt\n        /* \"#utility.yul\":18633:18669   */\n      iszero\n      tag_465\n      jumpi\n        /* \"#utility.yul\":18649:18667   */\n      tag_466\n      tag_259\n      jump\t// in\n    tag_466:\n        /* \"#utility.yul\":18633:18669   */\n    tag_465:\n        /* \"#utility.yul\":18485:18676   */\n      swap3\n      swap2\n      pop\n      pop\n      jump\t// out\n    stop\n\n    sub_0: assembly {\n            /* \"contracts/Soboro.sol\":1966:3280  contract Crumb {... */\n          mstore(0x40, 0x80)\n          callvalue\n          dup1\n          iszero\n          tag_1\n          jumpi\n          0x00\n          dup1\n          revert\n        tag_1:\n          pop\n          dataSize(sub_0)\n          dup1\n          dataOffset(sub_0)\n          0x00\n          codecopy\n          0x00\n          return\n        stop\n\n        sub_0: assembly {\n                /* \"contracts/Soboro.sol\":1966:3280  contract Crumb {... */\n              mstore(0x40, 0x80)\n              callvalue\n              dup1\n              iszero\n              tag_1\n              jumpi\n              0x00\n              dup1\n              revert\n            tag_1:\n              pop\n              jumpi(tag_2, lt(calldatasize, 0x04))\n              shr(0xe0, calldataload(0x00))\n              dup1\n              0x0c4960dd\n              eq\n              tag_3\n              jumpi\n              dup1\n              0x86e68b90\n              eq\n              tag_4\n              jumpi\n              dup1\n              0xb384abef\n              eq\n              tag_5\n              jumpi\n            tag_2:\n              0x00\n              dup1\n              revert\n                /* \"contracts/Soboro.sol\":2224:2743  function createSurvey(string memory _question, string[] memory _options, bool _initialActiveState) public {... */\n            tag_3:\n              tag_6\n              0x04\n              dup1\n              calldatasize\n              sub\n              dup2\n              add\n              swap1\n              tag_7\n              swap2\n              swap1\n              tag_8\n              jump\t// in\n            tag_7:\n              tag_9\n              jump\t// in\n            tag_6:\n              stop\n                /* \"contracts/Soboro.sol\":2167:2190  Survey[] public surveys */\n            tag_4:\n              tag_10\n              0x04\n              dup1\n              calldatasize\n              sub\n              dup2\n              add\n              swap1\n              tag_11\n              swap2\n              swap1\n              tag_12\n              jump\t// in\n            tag_11:\n              tag_13\n              jump\t// in\n            tag_10:\n              mload(0x40)\n              tag_14\n              swap3\n              swap2\n              swap1\n              tag_15\n              jump\t// in\n            tag_14:\n              mload(0x40)\n              dup1\n              swap2\n              sub\n              swap1\n              return\n                /* \"contracts/Soboro.sol\":2770:3278  function vote(uint _surveyId, uint _optionIndex) public {... */\n            tag_5:\n              tag_16\n              0x04\n              dup1\n              calldatasize\n              sub\n              dup2\n              add\n              swap1\n              tag_17\n              swap2\n              swap1\n              tag_18\n              jump\t// in\n            tag_17:\n              tag_19\n              jump\t// in\n            tag_16:\n              stop\n                /* \"contracts/Soboro.sol\":2224:2743  function createSurvey(string memory _question, string[] memory _options, bool _initialActiveState) public {... */\n            tag_9:\n                /* \"contracts/Soboro.sol\":2367:2368  2 */\n              0x02\n                /* \"contracts/Soboro.sol\":2348:2356  _options */\n              dup3\n                /* \"contracts/Soboro.sol\":2348:2363  _options.length */\n              mload\n                /* \"contracts/Soboro.sol\":2348:2368  _options.length >= 2 */\n              lt\n              iszero\n                /* \"contracts/Soboro.sol\":2340:2404  require(_options.length >= 2, \"At least 2 options are required\") */\n              tag_21\n              jumpi\n              mload(0x40)\n              0x08c379a000000000000000000000000000000000000000000000000000000000\n              dup2\n              mstore\n              0x04\n              add\n              tag_22\n              swap1\n              tag_23\n              jump\t// in\n            tag_22:\n              mload(0x40)\n              dup1\n              swap2\n              sub\n              swap1\n              revert\n            tag_21:\n                /* \"contracts/Soboro.sol\":2423:2430  surveys */\n              0x00\n                /* \"contracts/Soboro.sol\":2423:2437  surveys.push() */\n              0x01\n              dup2\n              0x01\n              dup2\n              sload\n              add\n              dup1\n              dup3\n              sstore\n              dup1\n              swap2\n              pop\n              pop\n              sub\n              swap1\n              0x00\n              mstore\n              keccak256(0x00, 0x20)\n              swap1\n              pop\n              pop\n                /* \"contracts/Soboro.sol\":2448:2469  Survey storage survey */\n              0x00\n                /* \"contracts/Soboro.sol\":2472:2479  surveys */\n              dup1\n                /* \"contracts/Soboro.sol\":2497:2498  1 */\n              0x01\n                /* \"contracts/Soboro.sol\":2480:2487  surveys */\n              0x00\n                /* \"contracts/Soboro.sol\":2480:2494  surveys.length */\n              dup1\n              sload\n              swap1\n              pop\n                /* \"contracts/Soboro.sol\":2480:2498  surveys.length - 1 */\n              tag_25\n              swap2\n              swap1\n              tag_26\n              jump\t// in\n            tag_25:\n                /* \"contracts/Soboro.sol\":2472:2499  surveys[surveys.length - 1] */\n              dup2\n              sload\n              dup2\n              lt\n              tag_27\n              jumpi\n              tag_28\n              tag_29\n              jump\t// in\n            tag_28:\n            tag_27:\n              swap1\n              0x00\n              mstore\n              keccak256(0x00, 0x20)\n              swap1\n              0x05\n              mul\n              add\n                /* \"contracts/Soboro.sol\":2448:2499  Survey storage survey = surveys[surveys.length - 1] */\n              swap1\n              pop\n                /* \"contracts/Soboro.sol\":2509:2535  uint[] memory initialVotes */\n              0x00\n                /* \"contracts/Soboro.sol\":2549:2557  _options */\n              dup4\n                /* \"contracts/Soboro.sol\":2549:2564  _options.length */\n              mload\n                /* \"contracts/Soboro.sol\":2538:2565  new uint[](_options.length) */\n              0xffffffffffffffff\n              dup2\n              gt\n              iszero\n              tag_31\n              jumpi\n              tag_32\n              tag_33\n              jump\t// in\n            tag_32:\n            tag_31:\n              mload(0x40)\n              swap1\n              dup1\n              dup3\n              mstore\n              dup1\n              0x20\n              mul\n              0x20\n              add\n              dup3\n              add\n              0x40\n              mstore\n              dup1\n              iszero\n              tag_34\n              jumpi\n              dup2\n              0x20\n              add\n              0x20\n              dup3\n              mul\n              dup1\n              calldatasize\n              dup4\n              calldatacopy\n              dup1\n              dup3\n              add\n              swap2\n              pop\n              pop\n              swap1\n              pop\n            tag_34:\n              pop\n                /* \"contracts/Soboro.sol\":2509:2565  uint[] memory initialVotes = new uint[](_options.length) */\n              swap1\n              pop\n                /* \"contracts/Soboro.sol\":2593:2602  _question */\n              dup5\n                /* \"contracts/Soboro.sol\":2575:2581  survey */\n              dup3\n                /* \"contracts/Soboro.sol\":2575:2590  survey.question */\n              0x00\n              add\n                /* \"contracts/Soboro.sol\":2575:2602  survey.question = _question */\n              swap1\n              dup2\n              tag_35\n              swap2\n              swap1\n              tag_36\n              jump\t// in\n            tag_35:\n              pop\n                /* \"contracts/Soboro.sol\":2629:2637  _options */\n              dup4\n                /* \"contracts/Soboro.sol\":2612:2618  survey */\n              dup3\n                /* \"contracts/Soboro.sol\":2612:2626  survey.options */\n              0x01\n              add\n                /* \"contracts/Soboro.sol\":2612:2637  survey.options = _options */\n              swap1\n              dup1\n              mload\n              swap1\n              0x20\n              add\n              swap1\n              tag_37\n              swap3\n              swap2\n              swap1\n              tag_38\n              jump\t// in\n            tag_37:\n              pop\n                /* \"contracts/Soboro.sol\":2676:2688  initialVotes */\n              dup1\n                /* \"contracts/Soboro.sol\":2647:2653  survey */\n              dup3\n                /* \"contracts/Soboro.sol\":2647:2673  survey.voteCountPerOptions */\n              0x02\n              add\n                /* \"contracts/Soboro.sol\":2647:2688  survey.voteCountPerOptions = initialVotes */\n              swap1\n              dup1\n              mload\n              swap1\n              0x20\n              add\n              swap1\n              tag_39\n              swap3\n              swap2\n              swap1\n              tag_40\n              jump\t// in\n            tag_39:\n              pop\n                /* \"contracts/Soboro.sol\":2716:2735  _initialActiveState */\n              dup3\n                /* \"contracts/Soboro.sol\":2698:2704  survey */\n              dup3\n                /* \"contracts/Soboro.sol\":2698:2713  survey.isActive */\n              0x03\n              add\n              0x00\n                /* \"contracts/Soboro.sol\":2698:2735  survey.isActive = _initialActiveState */\n              0x0100\n              exp\n              dup2\n              sload\n              dup2\n              0xff\n              mul\n              not\n              and\n              swap1\n              dup4\n              iszero\n              iszero\n              mul\n              or\n              swap1\n              sstore\n              pop\n                /* \"contracts/Soboro.sol\":2330:2743  {... */\n              pop\n              pop\n                /* \"contracts/Soboro.sol\":2224:2743  function createSurvey(string memory _question, string[] memory _options, bool _initialActiveState) public {... */\n              pop\n              pop\n              pop\n              jump\t// out\n                /* \"contracts/Soboro.sol\":2167:2190  Survey[] public surveys */\n            tag_13:\n              0x00\n              dup2\n              dup2\n              sload\n              dup2\n              lt\n              tag_41\n              jumpi\n              0x00\n              dup1\n              revert\n            tag_41:\n              swap1\n              0x00\n              mstore\n              keccak256(0x00, 0x20)\n              swap1\n              0x05\n              mul\n              add\n              0x00\n              swap2\n              pop\n              swap1\n              pop\n              dup1\n              0x00\n              add\n              dup1\n              sload\n              tag_43\n              swap1\n              tag_44\n              jump\t// in\n            tag_43:\n              dup1\n              0x1f\n              add\n              0x20\n              dup1\n              swap2\n              div\n              mul\n              0x20\n              add\n              mload(0x40)\n              swap1\n              dup2\n              add\n              0x40\n              mstore\n              dup1\n              swap3\n              swap2\n              swap1\n              dup2\n              dup2\n              mstore\n              0x20\n              add\n              dup3\n              dup1\n              sload\n              tag_45\n              swap1\n              tag_44\n              jump\t// in\n            tag_45:\n              dup1\n              iszero\n              tag_46\n              jumpi\n              dup1\n              0x1f\n              lt\n              tag_47\n              jumpi\n              0x0100\n              dup1\n              dup4\n              sload\n              div\n              mul\n              dup4\n              mstore\n              swap2\n              0x20\n              add\n              swap2\n              jump(tag_46)\n            tag_47:\n              dup3\n              add\n              swap2\n              swap1\n              0x00\n              mstore\n              keccak256(0x00, 0x20)\n              swap1\n            tag_48:\n              dup2\n              sload\n              dup2\n              mstore\n              swap1\n              0x01\n              add\n              swap1\n              0x20\n              add\n              dup1\n              dup4\n              gt\n              tag_48\n              jumpi\n              dup3\n              swap1\n              sub\n              0x1f\n              and\n              dup3\n              add\n              swap2\n            tag_46:\n              pop\n              pop\n              pop\n              pop\n              pop\n              swap1\n              dup1\n              0x03\n              add\n              0x00\n              swap1\n              sload\n              swap1\n              0x0100\n              exp\n              swap1\n              div\n              0xff\n              and\n              swap1\n              pop\n              dup3\n              jump\t// out\n                /* \"contracts/Soboro.sol\":2770:3278  function vote(uint _surveyId, uint _optionIndex) public {... */\n            tag_19:\n                /* \"contracts/Soboro.sol\":2856:2863  surveys */\n              0x00\n                /* \"contracts/Soboro.sol\":2856:2870  surveys.length */\n              dup1\n              sload\n              swap1\n              pop\n                /* \"contracts/Soboro.sol\":2844:2853  _surveyId */\n              dup3\n                /* \"contracts/Soboro.sol\":2844:2870  _surveyId < surveys.length */\n              lt\n                /* \"contracts/Soboro.sol\":2836:2896  require(_surveyId < surveys.length, \"Survey does not exist\") */\n              tag_50\n              jumpi\n              mload(0x40)\n              0x08c379a000000000000000000000000000000000000000000000000000000000\n              dup2\n              mstore\n              0x04\n              add\n              tag_51\n              swap1\n              tag_52\n              jump\t// in\n            tag_51:\n              mload(0x40)\n              dup1\n              swap2\n              sub\n              swap1\n              revert\n            tag_50:\n                /* \"contracts/Soboro.sol\":2914:2921  surveys */\n              0x00\n                /* \"contracts/Soboro.sol\":2922:2931  _surveyId */\n              dup3\n                /* \"contracts/Soboro.sol\":2914:2932  surveys[_surveyId] */\n              dup2\n              sload\n              dup2\n              lt\n              tag_53\n              jumpi\n              tag_54\n              tag_29\n              jump\t// in\n            tag_54:\n            tag_53:\n              swap1\n              0x00\n              mstore\n              keccak256(0x00, 0x20)\n              swap1\n              0x05\n              mul\n              add\n                /* \"contracts/Soboro.sol\":2914:2941  surveys[_surveyId].isActive */\n              0x03\n              add\n              0x00\n              swap1\n              sload\n              swap1\n              0x0100\n              exp\n              swap1\n              div\n              0xff\n              and\n                /* \"contracts/Soboro.sol\":2906:2966  require(surveys[_surveyId].isActive, \"Survey is not active\") */\n              tag_56\n              jumpi\n              mload(0x40)\n              0x08c379a000000000000000000000000000000000000000000000000000000000\n              dup2\n              mstore\n              0x04\n              add\n              tag_57\n              swap1\n              tag_58\n              jump\t// in\n            tag_57:\n              mload(0x40)\n              dup1\n              swap2\n              sub\n              swap1\n              revert\n            tag_56:\n                /* \"contracts/Soboro.sol\":2999:3006  surveys */\n              0x00\n                /* \"contracts/Soboro.sol\":3007:3016  _surveyId */\n              dup3\n                /* \"contracts/Soboro.sol\":2999:3017  surveys[_surveyId] */\n              dup2\n              sload\n              dup2\n              lt\n              tag_59\n              jumpi\n              tag_60\n              tag_29\n              jump\t// in\n            tag_60:\n            tag_59:\n              swap1\n              0x00\n              mstore\n              keccak256(0x00, 0x20)\n              swap1\n              0x05\n              mul\n              add\n                /* \"contracts/Soboro.sol\":2999:3025  surveys[_surveyId].options */\n              0x01\n              add\n                /* \"contracts/Soboro.sol\":2999:3032  surveys[_surveyId].options.length */\n              dup1\n              sload\n              swap1\n              pop\n                /* \"contracts/Soboro.sol\":2984:2996  _optionIndex */\n              dup2\n                /* \"contracts/Soboro.sol\":2984:3032  _optionIndex < surveys[_surveyId].options.length */\n              lt\n                /* \"contracts/Soboro.sol\":2976:3057  require(_optionIndex < surveys[_surveyId].options.length, \"Invalid option index\") */\n              tag_62\n              jumpi\n              mload(0x40)\n              0x08c379a000000000000000000000000000000000000000000000000000000000\n              dup2\n              mstore\n              0x04\n              add\n              tag_63\n              swap1\n              tag_64\n              jump\t// in\n            tag_63:\n              mload(0x40)\n              dup1\n              swap2\n              sub\n              swap1\n              revert\n            tag_62:\n                /* \"contracts/Soboro.sol\":3118:3123  false */\n              0x00\n                /* \"contracts/Soboro.sol\":3075:3123  surveys[_surveyId].hasVoted[msg.sender] == false */\n              iszero\n              iszero\n                /* \"contracts/Soboro.sol\":3075:3082  surveys */\n              0x00\n                /* \"contracts/Soboro.sol\":3083:3092  _surveyId */\n              dup4\n                /* \"contracts/Soboro.sol\":3075:3093  surveys[_surveyId] */\n              dup2\n              sload\n              dup2\n              lt\n              tag_65\n              jumpi\n              tag_66\n              tag_29\n              jump\t// in\n            tag_66:\n            tag_65:\n              swap1\n              0x00\n              mstore\n              keccak256(0x00, 0x20)\n              swap1\n              0x05\n              mul\n              add\n                /* \"contracts/Soboro.sol\":3075:3102  surveys[_surveyId].hasVoted */\n              0x04\n              add\n                /* \"contracts/Soboro.sol\":3075:3114  surveys[_surveyId].hasVoted[msg.sender] */\n              0x00\n                /* \"contracts/Soboro.sol\":3103:3113  msg.sender */\n              caller\n                /* \"contracts/Soboro.sol\":3075:3114  surveys[_surveyId].hasVoted[msg.sender] */\n              0xffffffffffffffffffffffffffffffffffffffff\n              and\n              0xffffffffffffffffffffffffffffffffffffffff\n              and\n              dup2\n              mstore\n              0x20\n              add\n              swap1\n              dup2\n              mstore\n              0x20\n              add\n              0x00\n              keccak256\n              0x00\n              swap1\n              sload\n              swap1\n              0x0100\n              exp\n              swap1\n              div\n              0xff\n              and\n                /* \"contracts/Soboro.sol\":3075:3123  surveys[_surveyId].hasVoted[msg.sender] == false */\n              iszero\n              iszero\n              eq\n                /* \"contracts/Soboro.sol\":3067:3150  require(surveys[_surveyId].hasVoted[msg.sender] == false, \"User has already voted\") */\n              tag_68\n              jumpi\n              mload(0x40)\n              0x08c379a000000000000000000000000000000000000000000000000000000000\n              dup2\n              mstore\n              0x04\n              add\n              tag_69\n              swap1\n              tag_70\n              jump\t// in\n            tag_69:\n              mload(0x40)\n              dup1\n              swap2\n              sub\n              swap1\n              revert\n            tag_68:\n                /* \"contracts/Soboro.sol\":3161:3168  surveys */\n              0x00\n                /* \"contracts/Soboro.sol\":3169:3178  _surveyId */\n              dup3\n                /* \"contracts/Soboro.sol\":3161:3179  surveys[_surveyId] */\n              dup2\n              sload\n              dup2\n              lt\n              tag_71\n              jumpi\n              tag_72\n              tag_29\n              jump\t// in\n            tag_72:\n            tag_71:\n              swap1\n              0x00\n              mstore\n              keccak256(0x00, 0x20)\n              swap1\n              0x05\n              mul\n              add\n                /* \"contracts/Soboro.sol\":3161:3199  surveys[_surveyId].voteCountPerOptions */\n              0x02\n              add\n                /* \"contracts/Soboro.sol\":3200:3212  _optionIndex */\n              dup2\n                /* \"contracts/Soboro.sol\":3161:3213  surveys[_surveyId].voteCountPerOptions[_optionIndex] */\n              dup2\n              sload\n              dup2\n              lt\n              tag_74\n              jumpi\n              tag_75\n              tag_29\n              jump\t// in\n            tag_75:\n            tag_74:\n              swap1\n              0x00\n              mstore\n              keccak256(0x00, 0x20)\n              add\n              0x00\n                /* \"contracts/Soboro.sol\":3161:3215  surveys[_surveyId].voteCountPerOptions[_optionIndex]++ */\n              dup2\n              sload\n              dup1\n              swap3\n              swap2\n              swap1\n              tag_77\n              swap1\n              tag_78\n              jump\t// in\n            tag_77:\n              swap2\n              swap1\n              pop\n              sstore\n              pop\n                /* \"contracts/Soboro.sol\":3267:3271  true */\n              0x01\n                /* \"contracts/Soboro.sol\":3225:3232  surveys */\n              0x00\n                /* \"contracts/Soboro.sol\":3233:3242  _surveyId */\n              dup4\n                /* \"contracts/Soboro.sol\":3225:3243  surveys[_surveyId] */\n              dup2\n              sload\n              dup2\n              lt\n              tag_79\n              jumpi\n              tag_80\n              tag_29\n              jump\t// in\n            tag_80:\n            tag_79:\n              swap1\n              0x00\n              mstore\n              keccak256(0x00, 0x20)\n              swap1\n              0x05\n              mul\n              add\n                /* \"contracts/Soboro.sol\":3225:3252  surveys[_surveyId].hasVoted */\n              0x04\n              add\n                /* \"contracts/Soboro.sol\":3225:3264  surveys[_surveyId].hasVoted[msg.sender] */\n              0x00\n                /* \"contracts/Soboro.sol\":3253:3263  msg.sender */\n              caller\n                /* \"contracts/Soboro.sol\":3225:3264  surveys[_surveyId].hasVoted[msg.sender] */\n              0xffffffffffffffffffffffffffffffffffffffff\n              and\n              0xffffffffffffffffffffffffffffffffffffffff\n              and\n              dup2\n              mstore\n              0x20\n              add\n              swap1\n              dup2\n              mstore\n              0x20\n              add\n              0x00\n              keccak256\n              0x00\n                /* \"contracts/Soboro.sol\":3225:3271  surveys[_surveyId].hasVoted[msg.sender] = true */\n              0x0100\n              exp\n              dup2\n              sload\n              dup2\n              0xff\n              mul\n              not\n              and\n              swap1\n              dup4\n              iszero\n              iszero\n              mul\n              or\n              swap1\n              sstore\n              pop\n                /* \"contracts/Soboro.sol\":2770:3278  function vote(uint _surveyId, uint _optionIndex) public {... */\n              pop\n              pop\n              jump\t// out\n            tag_38:\n              dup3\n              dup1\n              sload\n              dup3\n              dup3\n              sstore\n              swap1\n              0x00\n              mstore\n              keccak256(0x00, 0x20)\n              swap1\n              dup2\n              add\n              swap3\n              dup3\n              iszero\n              tag_82\n              jumpi\n              swap2\n              0x20\n              mul\n              dup3\n              add\n            tag_83:\n              dup3\n              dup2\n              gt\n              iszero\n              tag_84\n              jumpi\n              dup3\n              mload\n              dup3\n              swap1\n              dup2\n              tag_85\n              swap2\n              swap1\n              tag_36\n              jump\t// in\n            tag_85:\n              pop\n              swap2\n              0x20\n              add\n              swap2\n              swap1\n              0x01\n              add\n              swap1\n              jump(tag_83)\n            tag_84:\n            tag_82:\n              pop\n              swap1\n              pop\n              tag_86\n              swap2\n              swap1\n              tag_87\n              jump\t// in\n            tag_86:\n              pop\n              swap1\n              jump\t// out\n            tag_40:\n              dup3\n              dup1\n              sload\n              dup3\n              dup3\n              sstore\n              swap1\n              0x00\n              mstore\n              keccak256(0x00, 0x20)\n              swap1\n              dup2\n              add\n              swap3\n              dup3\n              iszero\n              tag_88\n              jumpi\n              swap2\n              0x20\n              mul\n              dup3\n              add\n            tag_89:\n              dup3\n              dup2\n              gt\n              iszero\n              tag_90\n              jumpi\n              dup3\n              mload\n              dup3\n              sstore\n              swap2\n              0x20\n              add\n              swap2\n              swap1\n              0x01\n              add\n              swap1\n              jump(tag_89)\n            tag_90:\n            tag_88:\n              pop\n              swap1\n              pop\n              tag_91\n              swap2\n              swap1\n              tag_92\n              jump\t// in\n            tag_91:\n              pop\n              swap1\n              jump\t// out\n            tag_87:\n            tag_93:\n              dup1\n              dup3\n              gt\n              iszero\n              tag_94\n              jumpi\n              0x00\n              dup2\n              dup2\n              tag_95\n              swap2\n              swap1\n              tag_96\n              jump\t// in\n            tag_95:\n              pop\n              0x01\n              add\n              jump(tag_93)\n            tag_94:\n              pop\n              swap1\n              jump\t// out\n            tag_92:\n            tag_97:\n              dup1\n              dup3\n              gt\n              iszero\n              tag_98\n              jumpi\n              0x00\n              dup2\n              0x00\n              swap1\n              sstore\n              pop\n              0x01\n              add\n              jump(tag_97)\n            tag_98:\n              pop\n              swap1\n              jump\t// out\n            tag_96:\n              pop\n              dup1\n              sload\n              tag_99\n              swap1\n              tag_44\n              jump\t// in\n            tag_99:\n              0x00\n              dup3\n              sstore\n              dup1\n              0x1f\n              lt\n              tag_101\n              jumpi\n              pop\n              jump(tag_100)\n            tag_101:\n              0x1f\n              add\n              0x20\n              swap1\n              div\n              swap1\n              0x00\n              mstore\n              keccak256(0x00, 0x20)\n              swap1\n              dup2\n              add\n              swap1\n              tag_102\n              swap2\n              swap1\n              tag_92\n              jump\t// in\n            tag_102:\n            tag_100:\n              pop\n              jump\t// out\n                /* \"#utility.yul\":7:82   */\n            tag_103:\n                /* \"#utility.yul\":40:46   */\n              0x00\n                /* \"#utility.yul\":73:75   */\n              0x40\n                /* \"#utility.yul\":67:76   */\n              mload\n                /* \"#utility.yul\":57:76   */\n              swap1\n              pop\n                /* \"#utility.yul\":7:82   */\n              swap1\n              jump\t// out\n                /* \"#utility.yul\":88:205   */\n            tag_104:\n                /* \"#utility.yul\":197:198   */\n              0x00\n                /* \"#utility.yul\":194:195   */\n              dup1\n                /* \"#utility.yul\":187:199   */\n              revert\n                /* \"#utility.yul\":211:328   */\n            tag_105:\n                /* \"#utility.yul\":320:321   */\n              0x00\n                /* \"#utility.yul\":317:318   */\n              dup1\n                /* \"#utility.yul\":310:322   */\n              revert\n                /* \"#utility.yul\":334:451   */\n            tag_106:\n                /* \"#utility.yul\":443:444   */\n              0x00\n                /* \"#utility.yul\":440:441   */\n              dup1\n                /* \"#utility.yul\":433:445   */\n              revert\n                /* \"#utility.yul\":457:574   */\n            tag_107:\n                /* \"#utility.yul\":566:567   */\n              0x00\n                /* \"#utility.yul\":563:564   */\n              dup1\n                /* \"#utility.yul\":556:568   */\n              revert\n                /* \"#utility.yul\":580:682   */\n            tag_108:\n                /* \"#utility.yul\":621:627   */\n              0x00\n                /* \"#utility.yul\":672:674   */\n              0x1f\n                /* \"#utility.yul\":668:675   */\n              not\n                /* \"#utility.yul\":663:665   */\n              0x1f\n                /* \"#utility.yul\":656:661   */\n              dup4\n                /* \"#utility.yul\":652:666   */\n              add\n                /* \"#utility.yul\":648:676   */\n              and\n                /* \"#utility.yul\":638:676   */\n              swap1\n              pop\n                /* \"#utility.yul\":580:682   */\n              swap2\n              swap1\n              pop\n              jump\t// out\n                /* \"#utility.yul\":688:868   */\n            tag_33:\n                /* \"#utility.yul\":736:813   */\n              0x4e487b7100000000000000000000000000000000000000000000000000000000\n                /* \"#utility.yul\":733:734   */\n              0x00\n                /* \"#utility.yul\":726:814   */\n              mstore\n                /* \"#utility.yul\":833:837   */\n              0x41\n                /* \"#utility.yul\":830:831   */\n              0x04\n                /* \"#utility.yul\":823:838   */\n              mstore\n                /* \"#utility.yul\":857:861   */\n              0x24\n                /* \"#utility.yul\":854:855   */\n              0x00\n                /* \"#utility.yul\":847:862   */\n              revert\n                /* \"#utility.yul\":874:1155   */\n            tag_109:\n                /* \"#utility.yul\":957:984   */\n              tag_166\n                /* \"#utility.yul\":979:983   */\n              dup3\n                /* \"#utility.yul\":957:984   */\n              tag_108\n              jump\t// in\n            tag_166:\n                /* \"#utility.yul\":949:955   */\n              dup2\n                /* \"#utility.yul\":945:985   */\n              add\n                /* \"#utility.yul\":1087:1093   */\n              dup2\n                /* \"#utility.yul\":1075:1085   */\n              dup2\n                /* \"#utility.yul\":1072:1094   */\n              lt\n                /* \"#utility.yul\":1051:1069   */\n              0xffffffffffffffff\n                /* \"#utility.yul\":1039:1049   */\n              dup3\n                /* \"#utility.yul\":1036:1070   */\n              gt\n                /* \"#utility.yul\":1033:1095   */\n              or\n                /* \"#utility.yul\":1030:1118   */\n              iszero\n              tag_167\n              jumpi\n                /* \"#utility.yul\":1098:1116   */\n              tag_168\n              tag_33\n              jump\t// in\n            tag_168:\n                /* \"#utility.yul\":1030:1118   */\n            tag_167:\n                /* \"#utility.yul\":1138:1148   */\n              dup1\n                /* \"#utility.yul\":1134:1136   */\n              0x40\n                /* \"#utility.yul\":1127:1149   */\n              mstore\n                /* \"#utility.yul\":917:1155   */\n              pop\n                /* \"#utility.yul\":874:1155   */\n              pop\n              pop\n              jump\t// out\n                /* \"#utility.yul\":1161:1290   */\n            tag_110:\n                /* \"#utility.yul\":1195:1201   */\n              0x00\n                /* \"#utility.yul\":1222:1242   */\n              tag_170\n              tag_103\n              jump\t// in\n            tag_170:\n                /* \"#utility.yul\":1212:1242   */\n              swap1\n              pop\n                /* \"#utility.yul\":1251:1284   */\n              tag_171\n                /* \"#utility.yul\":1279:1283   */\n              dup3\n                /* \"#utility.yul\":1271:1277   */\n              dup3\n                /* \"#utility.yul\":1251:1284   */\n              tag_109\n              jump\t// in\n            tag_171:\n                /* \"#utility.yul\":1161:1290   */\n              swap2\n              swap1\n              pop\n              jump\t// out\n                /* \"#utility.yul\":1296:1604   */\n            tag_111:\n                /* \"#utility.yul\":1358:1362   */\n              0x00\n                /* \"#utility.yul\":1448:1466   */\n              0xffffffffffffffff\n                /* \"#utility.yul\":1440:1446   */\n              dup3\n                /* \"#utility.yul\":1437:1467   */\n              gt\n                /* \"#utility.yul\":1434:1490   */\n              iszero\n              tag_173\n              jumpi\n                /* \"#utility.yul\":1470:1488   */\n              tag_174\n              tag_33\n              jump\t// in\n            tag_174:\n                /* \"#utility.yul\":1434:1490   */\n            tag_173:\n                /* \"#utility.yul\":1508:1537   */\n              tag_175\n                /* \"#utility.yul\":1530:1536   */\n              dup3\n                /* \"#utility.yul\":1508:1537   */\n              tag_108\n              jump\t// in\n            tag_175:\n                /* \"#utility.yul\":1500:1537   */\n              swap1\n              pop\n                /* \"#utility.yul\":1592:1596   */\n              0x20\n                /* \"#utility.yul\":1586:1590   */\n              dup2\n                /* \"#utility.yul\":1582:1597   */\n              add\n                /* \"#utility.yul\":1574:1597   */\n              swap1\n              pop\n                /* \"#utility.yul\":1296:1604   */\n              swap2\n              swap1\n              pop\n              jump\t// out\n                /* \"#utility.yul\":1610:1758   */\n            tag_112:\n                /* \"#utility.yul\":1708:1714   */\n              dup3\n                /* \"#utility.yul\":1703:1706   */\n              dup2\n                /* \"#utility.yul\":1698:1701   */\n              dup4\n                /* \"#utility.yul\":1685:1715   */\n              calldatacopy\n                /* \"#utility.yul\":1749:1750   */\n              0x00\n                /* \"#utility.yul\":1740:1746   */\n              dup4\n                /* \"#utility.yul\":1735:1738   */\n              dup4\n                /* \"#utility.yul\":1731:1747   */\n              add\n                /* \"#utility.yul\":1724:1751   */\n              mstore\n                /* \"#utility.yul\":1610:1758   */\n              pop\n              pop\n              pop\n              jump\t// out\n                /* \"#utility.yul\":1764:2189   */\n            tag_113:\n                /* \"#utility.yul\":1842:1847   */\n              0x00\n                /* \"#utility.yul\":1867:1933   */\n              tag_178\n                /* \"#utility.yul\":1883:1932   */\n              tag_179\n                /* \"#utility.yul\":1925:1931   */\n              dup5\n                /* \"#utility.yul\":1883:1932   */\n              tag_111\n              jump\t// in\n            tag_179:\n                /* \"#utility.yul\":1867:1933   */\n              tag_110\n              jump\t// in\n            tag_178:\n                /* \"#utility.yul\":1858:1933   */\n              swap1\n              pop\n                /* \"#utility.yul\":1956:1962   */\n              dup3\n                /* \"#utility.yul\":1949:1954   */\n              dup2\n                /* \"#utility.yul\":1942:1963   */\n              mstore\n                /* \"#utility.yul\":1994:1998   */\n              0x20\n                /* \"#utility.yul\":1987:1992   */\n              dup2\n                /* \"#utility.yul\":1983:1999   */\n              add\n                /* \"#utility.yul\":2032:2035   */\n              dup5\n                /* \"#utility.yul\":2023:2029   */\n              dup5\n                /* \"#utility.yul\":2018:2021   */\n              dup5\n                /* \"#utility.yul\":2014:2030   */\n              add\n                /* \"#utility.yul\":2011:2036   */\n              gt\n                /* \"#utility.yul\":2008:2120   */\n              iszero\n              tag_180\n              jumpi\n                /* \"#utility.yul\":2039:2118   */\n              tag_181\n              tag_107\n              jump\t// in\n            tag_181:\n                /* \"#utility.yul\":2008:2120   */\n            tag_180:\n                /* \"#utility.yul\":2129:2183   */\n              tag_182\n                /* \"#utility.yul\":2176:2182   */\n              dup5\n                /* \"#utility.yul\":2171:2174   */\n              dup3\n                /* \"#utility.yul\":2166:2169   */\n              dup6\n                /* \"#utility.yul\":2129:2183   */\n              tag_112\n              jump\t// in\n            tag_182:\n                /* \"#utility.yul\":1848:2189   */\n              pop\n                /* \"#utility.yul\":1764:2189   */\n              swap4\n              swap3\n              pop\n              pop\n              pop\n              jump\t// out\n                /* \"#utility.yul\":2209:2549   */\n            tag_114:\n                /* \"#utility.yul\":2265:2270   */\n              0x00\n                /* \"#utility.yul\":2314:2317   */\n              dup3\n                /* \"#utility.yul\":2307:2311   */\n              0x1f\n                /* \"#utility.yul\":2299:2305   */\n              dup4\n                /* \"#utility.yul\":2295:2312   */\n              add\n                /* \"#utility.yul\":2291:2318   */\n              slt\n                /* \"#utility.yul\":2281:2403   */\n              tag_184\n              jumpi\n                /* \"#utility.yul\":2322:2401   */\n              tag_185\n              tag_106\n              jump\t// in\n            tag_185:\n                /* \"#utility.yul\":2281:2403   */\n            tag_184:\n                /* \"#utility.yul\":2439:2445   */\n              dup2\n                /* \"#utility.yul\":2426:2446   */\n              calldataload\n                /* \"#utility.yul\":2464:2543   */\n              tag_186\n                /* \"#utility.yul\":2539:2542   */\n              dup5\n                /* \"#utility.yul\":2531:2537   */\n              dup3\n                /* \"#utility.yul\":2524:2528   */\n              0x20\n                /* \"#utility.yul\":2516:2522   */\n              dup7\n                /* \"#utility.yul\":2512:2529   */\n              add\n                /* \"#utility.yul\":2464:2543   */\n              tag_113\n              jump\t// in\n            tag_186:\n                /* \"#utility.yul\":2455:2543   */\n              swap2\n              pop\n                /* \"#utility.yul\":2271:2549   */\n              pop\n                /* \"#utility.yul\":2209:2549   */\n              swap3\n              swap2\n              pop\n              pop\n              jump\t// out\n                /* \"#utility.yul\":2555:2876   */\n            tag_115:\n                /* \"#utility.yul\":2642:2646   */\n              0x00\n                /* \"#utility.yul\":2732:2750   */\n              0xffffffffffffffff\n                /* \"#utility.yul\":2724:2730   */\n              dup3\n                /* \"#utility.yul\":2721:2751   */\n              gt\n                /* \"#utility.yul\":2718:2774   */\n              iszero\n              tag_188\n              jumpi\n                /* \"#utility.yul\":2754:2772   */\n              tag_189\n              tag_33\n              jump\t// in\n            tag_189:\n                /* \"#utility.yul\":2718:2774   */\n            tag_188:\n                /* \"#utility.yul\":2804:2808   */\n              0x20\n                /* \"#utility.yul\":2796:2802   */\n              dup3\n                /* \"#utility.yul\":2792:2809   */\n              mul\n                /* \"#utility.yul\":2784:2809   */\n              swap1\n              pop\n                /* \"#utility.yul\":2864:2868   */\n              0x20\n                /* \"#utility.yul\":2858:2862   */\n              dup2\n                /* \"#utility.yul\":2854:2869   */\n              add\n                /* \"#utility.yul\":2846:2869   */\n              swap1\n              pop\n                /* \"#utility.yul\":2555:2876   */\n              swap2\n              swap1\n              pop\n              jump\t// out\n                /* \"#utility.yul\":2882:2999   */\n            tag_116:\n                /* \"#utility.yul\":2991:2992   */\n              0x00\n                /* \"#utility.yul\":2988:2989   */\n              dup1\n                /* \"#utility.yul\":2981:2993   */\n              revert\n                /* \"#utility.yul\":3021:3966   */\n            tag_117:\n                /* \"#utility.yul\":3127:3132   */\n              0x00\n                /* \"#utility.yul\":3152:3243   */\n              tag_192\n                /* \"#utility.yul\":3168:3242   */\n              tag_193\n                /* \"#utility.yul\":3235:3241   */\n              dup5\n                /* \"#utility.yul\":3168:3242   */\n              tag_115\n              jump\t// in\n            tag_193:\n                /* \"#utility.yul\":3152:3243   */\n              tag_110\n              jump\t// in\n            tag_192:\n                /* \"#utility.yul\":3143:3243   */\n              swap1\n              pop\n                /* \"#utility.yul\":3263:3268   */\n              dup1\n                /* \"#utility.yul\":3292:3298   */\n              dup4\n                /* \"#utility.yul\":3285:3290   */\n              dup3\n                /* \"#utility.yul\":3278:3299   */\n              mstore\n                /* \"#utility.yul\":3326:3330   */\n              0x20\n                /* \"#utility.yul\":3319:3324   */\n              dup3\n                /* \"#utility.yul\":3315:3331   */\n              add\n                /* \"#utility.yul\":3308:3331   */\n              swap1\n              pop\n                /* \"#utility.yul\":3379:3383   */\n              0x20\n                /* \"#utility.yul\":3371:3377   */\n              dup5\n                /* \"#utility.yul\":3367:3384   */\n              mul\n                /* \"#utility.yul\":3359:3365   */\n              dup4\n                /* \"#utility.yul\":3355:3385   */\n              add\n                /* \"#utility.yul\":3408:3411   */\n              dup6\n                /* \"#utility.yul\":3400:3406   */\n              dup2\n                /* \"#utility.yul\":3397:3412   */\n              gt\n                /* \"#utility.yul\":3394:3516   */\n              iszero\n              tag_194\n              jumpi\n                /* \"#utility.yul\":3427:3506   */\n              tag_195\n              tag_116\n              jump\t// in\n            tag_195:\n                /* \"#utility.yul\":3394:3516   */\n            tag_194:\n                /* \"#utility.yul\":3542:3548   */\n              dup4\n                /* \"#utility.yul\":3525:3960   */\n            tag_196:\n                /* \"#utility.yul\":3559:3565   */\n              dup2\n                /* \"#utility.yul\":3554:3557   */\n              dup2\n                /* \"#utility.yul\":3551:3566   */\n              lt\n                /* \"#utility.yul\":3525:3960   */\n              iszero\n              tag_198\n              jumpi\n                /* \"#utility.yul\":3648:3651   */\n              dup1\n                /* \"#utility.yul\":3635:3652   */\n              calldataload\n                /* \"#utility.yul\":3684:3702   */\n              0xffffffffffffffff\n                /* \"#utility.yul\":3671:3682   */\n              dup2\n                /* \"#utility.yul\":3668:3703   */\n              gt\n                /* \"#utility.yul\":3665:3787   */\n              iszero\n              tag_199\n              jumpi\n                /* \"#utility.yul\":3706:3785   */\n              tag_200\n              tag_106\n              jump\t// in\n            tag_200:\n                /* \"#utility.yul\":3665:3787   */\n            tag_199:\n                /* \"#utility.yul\":3830:3841   */\n              dup1\n                /* \"#utility.yul\":3822:3828   */\n              dup7\n                /* \"#utility.yul\":3818:3842   */\n              add\n                /* \"#utility.yul\":3868:3915   */\n              tag_201\n                /* \"#utility.yul\":3911:3914   */\n              dup10\n                /* \"#utility.yul\":3899:3909   */\n              dup3\n                /* \"#utility.yul\":3868:3915   */\n              tag_114\n              jump\t// in\n            tag_201:\n                /* \"#utility.yul\":3863:3866   */\n              dup6\n                /* \"#utility.yul\":3856:3916   */\n              mstore\n                /* \"#utility.yul\":3945:3949   */\n              0x20\n                /* \"#utility.yul\":3940:3943   */\n              dup6\n                /* \"#utility.yul\":3936:3950   */\n              add\n                /* \"#utility.yul\":3929:3950   */\n              swap5\n              pop\n                /* \"#utility.yul\":3601:3960   */\n              pop\n              pop\n                /* \"#utility.yul\":3585:3589   */\n              0x20\n                /* \"#utility.yul\":3580:3583   */\n              dup2\n                /* \"#utility.yul\":3576:3590   */\n              add\n                /* \"#utility.yul\":3569:3590   */\n              swap1\n              pop\n                /* \"#utility.yul\":3525:3960   */\n              jump(tag_196)\n            tag_198:\n                /* \"#utility.yul\":3529:3550   */\n              pop\n                /* \"#utility.yul\":3133:3966   */\n              pop\n              pop\n                /* \"#utility.yul\":3021:3966   */\n              swap4\n              swap3\n              pop\n              pop\n              pop\n              jump\t// out\n                /* \"#utility.yul\":3988:4378   */\n            tag_118:\n                /* \"#utility.yul\":4069:4074   */\n              0x00\n                /* \"#utility.yul\":4118:4121   */\n              dup3\n                /* \"#utility.yul\":4111:4115   */\n              0x1f\n                /* \"#utility.yul\":4103:4109   */\n              dup4\n                /* \"#utility.yul\":4099:4116   */\n              add\n                /* \"#utility.yul\":4095:4122   */\n              slt\n                /* \"#utility.yul\":4085:4207   */\n              tag_203\n              jumpi\n                /* \"#utility.yul\":4126:4205   */\n              tag_204\n              tag_106\n              jump\t// in\n            tag_204:\n                /* \"#utility.yul\":4085:4207   */\n            tag_203:\n                /* \"#utility.yul\":4243:4249   */\n              dup2\n                /* \"#utility.yul\":4230:4250   */\n              calldataload\n                /* \"#utility.yul\":4268:4372   */\n              tag_205\n                /* \"#utility.yul\":4368:4371   */\n              dup5\n                /* \"#utility.yul\":4360:4366   */\n              dup3\n                /* \"#utility.yul\":4353:4357   */\n              0x20\n                /* \"#utility.yul\":4345:4351   */\n              dup7\n                /* \"#utility.yul\":4341:4358   */\n              add\n                /* \"#utility.yul\":4268:4372   */\n              tag_117\n              jump\t// in\n            tag_205:\n                /* \"#utility.yul\":4259:4372   */\n              swap2\n              pop\n                /* \"#utility.yul\":4075:4378   */\n              pop\n                /* \"#utility.yul\":3988:4378   */\n              swap3\n              swap2\n              pop\n              pop\n              jump\t// out\n                /* \"#utility.yul\":4384:4474   */\n            tag_119:\n                /* \"#utility.yul\":4418:4425   */\n              0x00\n                /* \"#utility.yul\":4461:4466   */\n              dup2\n                /* \"#utility.yul\":4454:4467   */\n              iszero\n                /* \"#utility.yul\":4447:4468   */\n              iszero\n                /* \"#utility.yul\":4436:4468   */\n              swap1\n              pop\n                /* \"#utility.yul\":4384:4474   */\n              swap2\n              swap1\n              pop\n              jump\t// out\n                /* \"#utility.yul\":4480:4596   */\n            tag_120:\n                /* \"#utility.yul\":4550:4571   */\n              tag_208\n                /* \"#utility.yul\":4565:4570   */\n              dup2\n                /* \"#utility.yul\":4550:4571   */\n              tag_119\n              jump\t// in\n            tag_208:\n                /* \"#utility.yul\":4543:4548   */\n              dup2\n                /* \"#utility.yul\":4540:4572   */\n              eq\n                /* \"#utility.yul\":4530:4590   */\n              tag_209\n              jumpi\n                /* \"#utility.yul\":4586:4587   */\n              0x00\n                /* \"#utility.yul\":4583:4584   */\n              dup1\n                /* \"#utility.yul\":4576:4588   */\n              revert\n                /* \"#utility.yul\":4530:4590   */\n            tag_209:\n                /* \"#utility.yul\":4480:4596   */\n              pop\n              jump\t// out\n                /* \"#utility.yul\":4602:4735   */\n            tag_121:\n                /* \"#utility.yul\":4645:4650   */\n              0x00\n                /* \"#utility.yul\":4683:4689   */\n              dup2\n                /* \"#utility.yul\":4670:4690   */\n              calldataload\n                /* \"#utility.yul\":4661:4690   */\n              swap1\n              pop\n                /* \"#utility.yul\":4699:4729   */\n              tag_211\n                /* \"#utility.yul\":4723:4728   */\n              dup2\n                /* \"#utility.yul\":4699:4729   */\n              tag_120\n              jump\t// in\n            tag_211:\n                /* \"#utility.yul\":4602:4735   */\n              swap3\n              swap2\n              pop\n              pop\n              jump\t// out\n                /* \"#utility.yul\":4741:5764   */\n            tag_8:\n                /* \"#utility.yul\":4860:4866   */\n              0x00\n                /* \"#utility.yul\":4868:4874   */\n              dup1\n                /* \"#utility.yul\":4876:4882   */\n              0x00\n                /* \"#utility.yul\":4925:4927   */\n              0x60\n                /* \"#utility.yul\":4913:4922   */\n              dup5\n                /* \"#utility.yul\":4904:4911   */\n              dup7\n                /* \"#utility.yul\":4900:4923   */\n              sub\n                /* \"#utility.yul\":4896:4928   */\n              slt\n                /* \"#utility.yul\":4893:5012   */\n              iszero\n              tag_213\n              jumpi\n                /* \"#utility.yul\":4931:5010   */\n              tag_214\n              tag_104\n              jump\t// in\n            tag_214:\n                /* \"#utility.yul\":4893:5012   */\n            tag_213:\n                /* \"#utility.yul\":5079:5080   */\n              0x00\n                /* \"#utility.yul\":5068:5077   */\n              dup5\n                /* \"#utility.yul\":5064:5081   */\n              add\n                /* \"#utility.yul\":5051:5082   */\n              calldataload\n                /* \"#utility.yul\":5109:5127   */\n              0xffffffffffffffff\n                /* \"#utility.yul\":5101:5107   */\n              dup2\n                /* \"#utility.yul\":5098:5128   */\n              gt\n                /* \"#utility.yul\":5095:5212   */\n              iszero\n              tag_215\n              jumpi\n                /* \"#utility.yul\":5131:5210   */\n              tag_216\n              tag_105\n              jump\t// in\n            tag_216:\n                /* \"#utility.yul\":5095:5212   */\n            tag_215:\n                /* \"#utility.yul\":5236:5299   */\n              tag_217\n                /* \"#utility.yul\":5291:5298   */\n              dup7\n                /* \"#utility.yul\":5282:5288   */\n              dup3\n                /* \"#utility.yul\":5271:5280   */\n              dup8\n                /* \"#utility.yul\":5267:5289   */\n              add\n                /* \"#utility.yul\":5236:5299   */\n              tag_114\n              jump\t// in\n            tag_217:\n                /* \"#utility.yul\":5226:5299   */\n              swap4\n              pop\n                /* \"#utility.yul\":5022:5309   */\n              pop\n                /* \"#utility.yul\":5376:5378   */\n              0x20\n                /* \"#utility.yul\":5365:5374   */\n              dup5\n                /* \"#utility.yul\":5361:5379   */\n              add\n                /* \"#utility.yul\":5348:5380   */\n              calldataload\n                /* \"#utility.yul\":5407:5425   */\n              0xffffffffffffffff\n                /* \"#utility.yul\":5399:5405   */\n              dup2\n                /* \"#utility.yul\":5396:5426   */\n              gt\n                /* \"#utility.yul\":5393:5510   */\n              iszero\n              tag_218\n              jumpi\n                /* \"#utility.yul\":5429:5508   */\n              tag_219\n              tag_105\n              jump\t// in\n            tag_219:\n                /* \"#utility.yul\":5393:5510   */\n            tag_218:\n                /* \"#utility.yul\":5534:5622   */\n              tag_220\n                /* \"#utility.yul\":5614:5621   */\n              dup7\n                /* \"#utility.yul\":5605:5611   */\n              dup3\n                /* \"#utility.yul\":5594:5603   */\n              dup8\n                /* \"#utility.yul\":5590:5612   */\n              add\n                /* \"#utility.yul\":5534:5622   */\n              tag_118\n              jump\t// in\n            tag_220:\n                /* \"#utility.yul\":5524:5622   */\n              swap3\n              pop\n                /* \"#utility.yul\":5319:5632   */\n              pop\n                /* \"#utility.yul\":5671:5673   */\n              0x40\n                /* \"#utility.yul\":5697:5747   */\n              tag_221\n                /* \"#utility.yul\":5739:5746   */\n              dup7\n                /* \"#utility.yul\":5730:5736   */\n              dup3\n                /* \"#utility.yul\":5719:5728   */\n              dup8\n                /* \"#utility.yul\":5715:5737   */\n              add\n                /* \"#utility.yul\":5697:5747   */\n              tag_121\n              jump\t// in\n            tag_221:\n                /* \"#utility.yul\":5687:5747   */\n              swap2\n              pop\n                /* \"#utility.yul\":5642:5757   */\n              pop\n                /* \"#utility.yul\":4741:5764   */\n              swap3\n              pop\n              swap3\n              pop\n              swap3\n              jump\t// out\n                /* \"#utility.yul\":5770:5847   */\n            tag_122:\n                /* \"#utility.yul\":5807:5814   */\n              0x00\n                /* \"#utility.yul\":5836:5841   */\n              dup2\n                /* \"#utility.yul\":5825:5841   */\n              swap1\n              pop\n                /* \"#utility.yul\":5770:5847   */\n              swap2\n              swap1\n              pop\n              jump\t// out\n                /* \"#utility.yul\":5853:5975   */\n            tag_123:\n                /* \"#utility.yul\":5926:5950   */\n              tag_224\n                /* \"#utility.yul\":5944:5949   */\n              dup2\n                /* \"#utility.yul\":5926:5950   */\n              tag_122\n              jump\t// in\n            tag_224:\n                /* \"#utility.yul\":5919:5924   */\n              dup2\n                /* \"#utility.yul\":5916:5951   */\n              eq\n                /* \"#utility.yul\":5906:5969   */\n              tag_225\n              jumpi\n                /* \"#utility.yul\":5965:5966   */\n              0x00\n                /* \"#utility.yul\":5962:5963   */\n              dup1\n                /* \"#utility.yul\":5955:5967   */\n              revert\n                /* \"#utility.yul\":5906:5969   */\n            tag_225:\n                /* \"#utility.yul\":5853:5975   */\n              pop\n              jump\t// out\n                /* \"#utility.yul\":5981:6120   */\n            tag_124:\n                /* \"#utility.yul\":6027:6032   */\n              0x00\n                /* \"#utility.yul\":6065:6071   */\n              dup2\n                /* \"#utility.yul\":6052:6072   */\n              calldataload\n                /* \"#utility.yul\":6043:6072   */\n              swap1\n              pop\n                /* \"#utility.yul\":6081:6114   */\n              tag_227\n                /* \"#utility.yul\":6108:6113   */\n              dup2\n                /* \"#utility.yul\":6081:6114   */\n              tag_123\n              jump\t// in\n            tag_227:\n                /* \"#utility.yul\":5981:6120   */\n              swap3\n              swap2\n              pop\n              pop\n              jump\t// out\n                /* \"#utility.yul\":6126:6455   */\n            tag_12:\n                /* \"#utility.yul\":6185:6191   */\n              0x00\n                /* \"#utility.yul\":6234:6236   */\n              0x20\n                /* \"#utility.yul\":6222:6231   */\n              dup3\n                /* \"#utility.yul\":6213:6220   */\n              dup5\n                /* \"#utility.yul\":6209:6232   */\n              sub\n                /* \"#utility.yul\":6205:6237   */\n              slt\n                /* \"#utility.yul\":6202:6321   */\n              iszero\n              tag_229\n              jumpi\n                /* \"#utility.yul\":6240:6319   */\n              tag_230\n              tag_104\n              jump\t// in\n            tag_230:\n                /* \"#utility.yul\":6202:6321   */\n            tag_229:\n                /* \"#utility.yul\":6360:6361   */\n              0x00\n                /* \"#utility.yul\":6385:6438   */\n              tag_231\n                /* \"#utility.yul\":6430:6437   */\n              dup5\n                /* \"#utility.yul\":6421:6427   */\n              dup3\n                /* \"#utility.yul\":6410:6419   */\n              dup6\n                /* \"#utility.yul\":6406:6428   */\n              add\n                /* \"#utility.yul\":6385:6438   */\n              tag_124\n              jump\t// in\n            tag_231:\n                /* \"#utility.yul\":6375:6438   */\n              swap2\n              pop\n                /* \"#utility.yul\":6331:6448   */\n              pop\n                /* \"#utility.yul\":6126:6455   */\n              swap3\n              swap2\n              pop\n              pop\n              jump\t// out\n                /* \"#utility.yul\":6461:6560   */\n            tag_125:\n                /* \"#utility.yul\":6513:6519   */\n              0x00\n                /* \"#utility.yul\":6547:6552   */\n              dup2\n                /* \"#utility.yul\":6541:6553   */\n              mload\n                /* \"#utility.yul\":6531:6553   */\n              swap1\n              pop\n                /* \"#utility.yul\":6461:6560   */\n              swap2\n              swap1\n              pop\n              jump\t// out\n                /* \"#utility.yul\":6566:6735   */\n            tag_126:\n                /* \"#utility.yul\":6650:6661   */\n              0x00\n                /* \"#utility.yul\":6684:6690   */\n              dup3\n                /* \"#utility.yul\":6679:6682   */\n              dup3\n                /* \"#utility.yul\":6672:6691   */\n              mstore\n                /* \"#utility.yul\":6724:6728   */\n              0x20\n                /* \"#utility.yul\":6719:6722   */\n              dup3\n                /* \"#utility.yul\":6715:6729   */\n              add\n                /* \"#utility.yul\":6700:6729   */\n              swap1\n              pop\n                /* \"#utility.yul\":6566:6735   */\n              swap3\n              swap2\n              pop\n              pop\n              jump\t// out\n                /* \"#utility.yul\":6741:6880   */\n            tag_127:\n                /* \"#utility.yul\":6830:6836   */\n              dup3\n                /* \"#utility.yul\":6825:6828   */\n              dup2\n                /* \"#utility.yul\":6820:6823   */\n              dup4\n                /* \"#utility.yul\":6814:6837   */\n              mcopy\n                /* \"#utility.yul\":6871:6872   */\n              0x00\n                /* \"#utility.yul\":6862:6868   */\n              dup4\n                /* \"#utility.yul\":6857:6860   */\n              dup4\n                /* \"#utility.yul\":6853:6869   */\n              add\n                /* \"#utility.yul\":6846:6873   */\n              mstore\n                /* \"#utility.yul\":6741:6880   */\n              pop\n              pop\n              pop\n              jump\t// out\n                /* \"#utility.yul\":6886:7263   */\n            tag_128:\n                /* \"#utility.yul\":6974:6977   */\n              0x00\n                /* \"#utility.yul\":7002:7041   */\n              tag_236\n                /* \"#utility.yul\":7035:7040   */\n              dup3\n                /* \"#utility.yul\":7002:7041   */\n              tag_125\n              jump\t// in\n            tag_236:\n                /* \"#utility.yul\":7057:7128   */\n              tag_237\n                /* \"#utility.yul\":7121:7127   */\n              dup2\n                /* \"#utility.yul\":7116:7119   */\n              dup6\n                /* \"#utility.yul\":7057:7128   */\n              tag_126\n              jump\t// in\n            tag_237:\n                /* \"#utility.yul\":7050:7128   */\n              swap4\n              pop\n                /* \"#utility.yul\":7137:7202   */\n              tag_238\n                /* \"#utility.yul\":7195:7201   */\n              dup2\n                /* \"#utility.yul\":7190:7193   */\n              dup6\n                /* \"#utility.yul\":7183:7187   */\n              0x20\n                /* \"#utility.yul\":7176:7181   */\n              dup7\n                /* \"#utility.yul\":7172:7188   */\n              add\n                /* \"#utility.yul\":7137:7202   */\n              tag_127\n              jump\t// in\n            tag_238:\n                /* \"#utility.yul\":7227:7256   */\n              tag_239\n                /* \"#utility.yul\":7249:7255   */\n              dup2\n                /* \"#utility.yul\":7227:7256   */\n              tag_108\n              jump\t// in\n            tag_239:\n                /* \"#utility.yul\":7222:7225   */\n              dup5\n                /* \"#utility.yul\":7218:7257   */\n              add\n                /* \"#utility.yul\":7211:7257   */\n              swap2\n              pop\n                /* \"#utility.yul\":6978:7263   */\n              pop\n                /* \"#utility.yul\":6886:7263   */\n              swap3\n              swap2\n              pop\n              pop\n              jump\t// out\n                /* \"#utility.yul\":7269:7378   */\n            tag_129:\n                /* \"#utility.yul\":7350:7371   */\n              tag_241\n                /* \"#utility.yul\":7365:7370   */\n              dup2\n                /* \"#utility.yul\":7350:7371   */\n              tag_119\n              jump\t// in\n            tag_241:\n                /* \"#utility.yul\":7345:7348   */\n              dup3\n                /* \"#utility.yul\":7338:7372   */\n              mstore\n                /* \"#utility.yul\":7269:7378   */\n              pop\n              pop\n              jump\t// out\n                /* \"#utility.yul\":7384:7795   */\n            tag_15:\n                /* \"#utility.yul\":7519:7523   */\n              0x00\n                /* \"#utility.yul\":7557:7559   */\n              0x40\n                /* \"#utility.yul\":7546:7555   */\n              dup3\n                /* \"#utility.yul\":7542:7560   */\n              add\n                /* \"#utility.yul\":7534:7560   */\n              swap1\n              pop\n                /* \"#utility.yul\":7606:7615   */\n              dup2\n                /* \"#utility.yul\":7600:7604   */\n              dup2\n                /* \"#utility.yul\":7596:7616   */\n              sub\n                /* \"#utility.yul\":7592:7593   */\n              0x00\n                /* \"#utility.yul\":7581:7590   */\n              dup4\n                /* \"#utility.yul\":7577:7594   */\n              add\n                /* \"#utility.yul\":7570:7617   */\n              mstore\n                /* \"#utility.yul\":7634:7712   */\n              tag_243\n                /* \"#utility.yul\":7707:7711   */\n              dup2\n                /* \"#utility.yul\":7698:7704   */\n              dup6\n                /* \"#utility.yul\":7634:7712   */\n              tag_128\n              jump\t// in\n            tag_243:\n                /* \"#utility.yul\":7626:7712   */\n              swap1\n              pop\n                /* \"#utility.yul\":7722:7788   */\n              tag_244\n                /* \"#utility.yul\":7784:7786   */\n              0x20\n                /* \"#utility.yul\":7773:7782   */\n              dup4\n                /* \"#utility.yul\":7769:7787   */\n              add\n                /* \"#utility.yul\":7760:7766   */\n              dup5\n                /* \"#utility.yul\":7722:7788   */\n              tag_129\n              jump\t// in\n            tag_244:\n                /* \"#utility.yul\":7384:7795   */\n              swap4\n              swap3\n              pop\n              pop\n              pop\n              jump\t// out\n                /* \"#utility.yul\":7801:8275   */\n            tag_18:\n                /* \"#utility.yul\":7869:7875   */\n              0x00\n                /* \"#utility.yul\":7877:7883   */\n              dup1\n                /* \"#utility.yul\":7926:7928   */\n              0x40\n                /* \"#utility.yul\":7914:7923   */\n              dup4\n                /* \"#utility.yul\":7905:7912   */\n              dup6\n                /* \"#utility.yul\":7901:7924   */\n              sub\n                /* \"#utility.yul\":7897:7929   */\n              slt\n                /* \"#utility.yul\":7894:8013   */\n              iszero\n              tag_246\n              jumpi\n                /* \"#utility.yul\":7932:8011   */\n              tag_247\n              tag_104\n              jump\t// in\n            tag_247:\n                /* \"#utility.yul\":7894:8013   */\n            tag_246:\n                /* \"#utility.yul\":8052:8053   */\n              0x00\n                /* \"#utility.yul\":8077:8130   */\n              tag_248\n                /* \"#utility.yul\":8122:8129   */\n              dup6\n                /* \"#utility.yul\":8113:8119   */\n              dup3\n                /* \"#utility.yul\":8102:8111   */\n              dup7\n                /* \"#utility.yul\":8098:8120   */\n              add\n                /* \"#utility.yul\":8077:8130   */\n              tag_124\n              jump\t// in\n            tag_248:\n                /* \"#utility.yul\":8067:8130   */\n              swap3\n              pop\n                /* \"#utility.yul\":8023:8140   */\n              pop\n                /* \"#utility.yul\":8179:8181   */\n              0x20\n                /* \"#utility.yul\":8205:8258   */\n              tag_249\n                /* \"#utility.yul\":8250:8257   */\n              dup6\n                /* \"#utility.yul\":8241:8247   */\n              dup3\n                /* \"#utility.yul\":8230:8239   */\n              dup7\n                /* \"#utility.yul\":8226:8248   */\n              add\n                /* \"#utility.yul\":8205:8258   */\n              tag_124\n              jump\t// in\n            tag_249:\n                /* \"#utility.yul\":8195:8258   */\n              swap2\n              pop\n                /* \"#utility.yul\":8150:8268   */\n              pop\n                /* \"#utility.yul\":7801:8275   */\n              swap3\n              pop\n              swap3\n              swap1\n              pop\n              jump\t// out\n                /* \"#utility.yul\":8281:8462   */\n            tag_130:\n                /* \"#utility.yul\":8421:8454   */\n              0x4174206c656173742032206f7074696f6e732061726520726571756972656400\n                /* \"#utility.yul\":8417:8418   */\n              0x00\n                /* \"#utility.yul\":8409:8415   */\n              dup3\n                /* \"#utility.yul\":8405:8419   */\n              add\n                /* \"#utility.yul\":8398:8455   */\n              mstore\n                /* \"#utility.yul\":8281:8462   */\n              pop\n              jump\t// out\n                /* \"#utility.yul\":8468:8834   */\n            tag_131:\n                /* \"#utility.yul\":8610:8613   */\n              0x00\n                /* \"#utility.yul\":8631:8698   */\n              tag_252\n                /* \"#utility.yul\":8695:8697   */\n              0x1f\n                /* \"#utility.yul\":8690:8693   */\n              dup4\n                /* \"#utility.yul\":8631:8698   */\n              tag_126\n              jump\t// in\n            tag_252:\n                /* \"#utility.yul\":8624:8698   */\n              swap2\n              pop\n                /* \"#utility.yul\":8707:8800   */\n              tag_253\n                /* \"#utility.yul\":8796:8799   */\n              dup3\n                /* \"#utility.yul\":8707:8800   */\n              tag_130\n              jump\t// in\n            tag_253:\n                /* \"#utility.yul\":8825:8827   */\n              0x20\n                /* \"#utility.yul\":8820:8823   */\n              dup3\n                /* \"#utility.yul\":8816:8828   */\n              add\n                /* \"#utility.yul\":8809:8828   */\n              swap1\n              pop\n                /* \"#utility.yul\":8468:8834   */\n              swap2\n              swap1\n              pop\n              jump\t// out\n                /* \"#utility.yul\":8840:9259   */\n            tag_23:\n                /* \"#utility.yul\":9006:9010   */\n              0x00\n                /* \"#utility.yul\":9044:9046   */\n              0x20\n                /* \"#utility.yul\":9033:9042   */\n              dup3\n                /* \"#utility.yul\":9029:9047   */\n              add\n                /* \"#utility.yul\":9021:9047   */\n              swap1\n              pop\n                /* \"#utility.yul\":9093:9102   */\n              dup2\n                /* \"#utility.yul\":9087:9091   */\n              dup2\n                /* \"#utility.yul\":9083:9103   */\n              sub\n                /* \"#utility.yul\":9079:9080   */\n              0x00\n                /* \"#utility.yul\":9068:9077   */\n              dup4\n                /* \"#utility.yul\":9064:9081   */\n              add\n                /* \"#utility.yul\":9057:9104   */\n              mstore\n                /* \"#utility.yul\":9121:9252   */\n              tag_255\n                /* \"#utility.yul\":9247:9251   */\n              dup2\n                /* \"#utility.yul\":9121:9252   */\n              tag_131\n              jump\t// in\n            tag_255:\n                /* \"#utility.yul\":9113:9252   */\n              swap1\n              pop\n                /* \"#utility.yul\":8840:9259   */\n              swap2\n              swap1\n              pop\n              jump\t// out\n                /* \"#utility.yul\":9265:9445   */\n            tag_132:\n                /* \"#utility.yul\":9313:9390   */\n              0x4e487b7100000000000000000000000000000000000000000000000000000000\n                /* \"#utility.yul\":9310:9311   */\n              0x00\n                /* \"#utility.yul\":9303:9391   */\n              mstore\n                /* \"#utility.yul\":9410:9414   */\n              0x11\n                /* \"#utility.yul\":9407:9408   */\n              0x04\n                /* \"#utility.yul\":9400:9415   */\n              mstore\n                /* \"#utility.yul\":9434:9438   */\n              0x24\n                /* \"#utility.yul\":9431:9432   */\n              0x00\n                /* \"#utility.yul\":9424:9439   */\n              revert\n                /* \"#utility.yul\":9451:9645   */\n            tag_26:\n                /* \"#utility.yul\":9491:9495   */\n              0x00\n                /* \"#utility.yul\":9511:9531   */\n              tag_258\n                /* \"#utility.yul\":9529:9530   */\n              dup3\n                /* \"#utility.yul\":9511:9531   */\n              tag_122\n              jump\t// in\n            tag_258:\n                /* \"#utility.yul\":9506:9531   */\n              swap2\n              pop\n                /* \"#utility.yul\":9545:9565   */\n              tag_259\n                /* \"#utility.yul\":9563:9564   */\n              dup4\n                /* \"#utility.yul\":9545:9565   */\n              tag_122\n              jump\t// in\n            tag_259:\n                /* \"#utility.yul\":9540:9565   */\n              swap3\n              pop\n                /* \"#utility.yul\":9589:9590   */\n              dup3\n                /* \"#utility.yul\":9586:9587   */\n              dup3\n                /* \"#utility.yul\":9582:9591   */\n              sub\n                /* \"#utility.yul\":9574:9591   */\n              swap1\n              pop\n                /* \"#utility.yul\":9613:9614   */\n              dup2\n                /* \"#utility.yul\":9607:9611   */\n              dup2\n                /* \"#utility.yul\":9604:9615   */\n              gt\n                /* \"#utility.yul\":9601:9638   */\n              iszero\n              tag_260\n              jumpi\n                /* \"#utility.yul\":9618:9636   */\n              tag_261\n              tag_132\n              jump\t// in\n            tag_261:\n                /* \"#utility.yul\":9601:9638   */\n            tag_260:\n                /* \"#utility.yul\":9451:9645   */\n              swap3\n              swap2\n              pop\n              pop\n              jump\t// out\n                /* \"#utility.yul\":9651:9831   */\n            tag_29:\n                /* \"#utility.yul\":9699:9776   */\n              0x4e487b7100000000000000000000000000000000000000000000000000000000\n                /* \"#utility.yul\":9696:9697   */\n              0x00\n                /* \"#utility.yul\":9689:9777   */\n              mstore\n                /* \"#utility.yul\":9796:9800   */\n              0x32\n                /* \"#utility.yul\":9793:9794   */\n              0x04\n                /* \"#utility.yul\":9786:9801   */\n              mstore\n                /* \"#utility.yul\":9820:9824   */\n              0x24\n                /* \"#utility.yul\":9817:9818   */\n              0x00\n                /* \"#utility.yul\":9810:9825   */\n              revert\n                /* \"#utility.yul\":9837:10017   */\n            tag_133:\n                /* \"#utility.yul\":9885:9962   */\n              0x4e487b7100000000000000000000000000000000000000000000000000000000\n                /* \"#utility.yul\":9882:9883   */\n              0x00\n                /* \"#utility.yul\":9875:9963   */\n              mstore\n                /* \"#utility.yul\":9982:9986   */\n              0x22\n                /* \"#utility.yul\":9979:9980   */\n              0x04\n                /* \"#utility.yul\":9972:9987   */\n              mstore\n                /* \"#utility.yul\":10006:10010   */\n              0x24\n                /* \"#utility.yul\":10003:10004   */\n              0x00\n                /* \"#utility.yul\":9996:10011   */\n              revert\n                /* \"#utility.yul\":10023:10343   */\n            tag_44:\n                /* \"#utility.yul\":10067:10073   */\n              0x00\n                /* \"#utility.yul\":10104:10105   */\n              0x02\n                /* \"#utility.yul\":10098:10102   */\n              dup3\n                /* \"#utility.yul\":10094:10106   */\n              div\n                /* \"#utility.yul\":10084:10106   */\n              swap1\n              pop\n                /* \"#utility.yul\":10151:10152   */\n              0x01\n                /* \"#utility.yul\":10145:10149   */\n              dup3\n                /* \"#utility.yul\":10141:10153   */\n              and\n                /* \"#utility.yul\":10172:10190   */\n              dup1\n                /* \"#utility.yul\":10162:10243   */\n              tag_265\n              jumpi\n                /* \"#utility.yul\":10228:10232   */\n              0x7f\n                /* \"#utility.yul\":10220:10226   */\n              dup3\n                /* \"#utility.yul\":10216:10233   */\n              and\n                /* \"#utility.yul\":10206:10233   */\n              swap2\n              pop\n                /* \"#utility.yul\":10162:10243   */\n            tag_265:\n                /* \"#utility.yul\":10290:10292   */\n              0x20\n                /* \"#utility.yul\":10282:10288   */\n              dup3\n                /* \"#utility.yul\":10279:10293   */\n              lt\n                /* \"#utility.yul\":10259:10277   */\n              dup2\n                /* \"#utility.yul\":10256:10294   */\n              sub\n                /* \"#utility.yul\":10253:10337   */\n              tag_266\n              jumpi\n                /* \"#utility.yul\":10309:10327   */\n              tag_267\n              tag_133\n              jump\t// in\n            tag_267:\n                /* \"#utility.yul\":10253:10337   */\n            tag_266:\n                /* \"#utility.yul\":10074:10343   */\n              pop\n                /* \"#utility.yul\":10023:10343   */\n              swap2\n              swap1\n              pop\n              jump\t// out\n                /* \"#utility.yul\":10349:10490   */\n            tag_134:\n                /* \"#utility.yul\":10398:10402   */\n              0x00\n                /* \"#utility.yul\":10421:10424   */\n              dup2\n                /* \"#utility.yul\":10413:10424   */\n              swap1\n              pop\n                /* \"#utility.yul\":10444:10447   */\n              dup2\n                /* \"#utility.yul\":10441:10442   */\n              0x00\n                /* \"#utility.yul\":10434:10448   */\n              mstore\n                /* \"#utility.yul\":10478:10482   */\n              0x20\n                /* \"#utility.yul\":10475:10476   */\n              0x00\n                /* \"#utility.yul\":10465:10483   */\n              keccak256\n                /* \"#utility.yul\":10457:10483   */\n              swap1\n              pop\n                /* \"#utility.yul\":10349:10490   */\n              swap2\n              swap1\n              pop\n              jump\t// out\n                /* \"#utility.yul\":10496:10589   */\n            tag_135:\n                /* \"#utility.yul\":10533:10539   */\n              0x00\n                /* \"#utility.yul\":10580:10582   */\n              0x20\n                /* \"#utility.yul\":10575:10577   */\n              0x1f\n                /* \"#utility.yul\":10568:10573   */\n              dup4\n                /* \"#utility.yul\":10564:10578   */\n              add\n                /* \"#utility.yul\":10560:10583   */\n              div\n                /* \"#utility.yul\":10550:10583   */\n              swap1\n              pop\n                /* \"#utility.yul\":10496:10589   */\n              swap2\n              swap1\n              pop\n              jump\t// out\n                /* \"#utility.yul\":10595:10702   */\n            tag_136:\n                /* \"#utility.yul\":10639:10647   */\n              0x00\n                /* \"#utility.yul\":10689:10694   */\n              dup3\n                /* \"#utility.yul\":10683:10687   */\n              dup3\n                /* \"#utility.yul\":10679:10695   */\n              shl\n                /* \"#utility.yul\":10658:10695   */\n              swap1\n              pop\n                /* \"#utility.yul\":10595:10702   */\n              swap3\n              swap2\n              pop\n              pop\n              jump\t// out\n                /* \"#utility.yul\":10708:11101   */\n            tag_137:\n                /* \"#utility.yul\":10777:10783   */\n              0x00\n                /* \"#utility.yul\":10827:10828   */\n              0x08\n                /* \"#utility.yul\":10815:10825   */\n              dup4\n                /* \"#utility.yul\":10811:10829   */\n              mul\n                /* \"#utility.yul\":10850:10947   */\n              tag_272\n                /* \"#utility.yul\":10880:10946   */\n              0xffffffffffffffffffffffffffffffffffffffffffffffffffffffffffffffff\n                /* \"#utility.yul\":10869:10878   */\n              dup3\n                /* \"#utility.yul\":10850:10947   */\n              tag_136\n              jump\t// in\n            tag_272:\n                /* \"#utility.yul\":10968:11007   */\n              tag_273\n                /* \"#utility.yul\":10998:11006   */\n              dup7\n                /* \"#utility.yul\":10987:10996   */\n              dup4\n                /* \"#utility.yul\":10968:11007   */\n              tag_136\n              jump\t// in\n            tag_273:\n                /* \"#utility.yul\":10956:11007   */\n              swap6\n              pop\n                /* \"#utility.yul\":11040:11044   */\n              dup1\n                /* \"#utility.yul\":11036:11045   */\n              not\n                /* \"#utility.yul\":11029:11034   */\n              dup5\n                /* \"#utility.yul\":11025:11046   */\n              and\n                /* \"#utility.yul\":11016:11046   */\n              swap4\n              pop\n                /* \"#utility.yul\":11089:11093   */\n              dup1\n                /* \"#utility.yul\":11079:11087   */\n              dup7\n                /* \"#utility.yul\":11075:11094   */\n              and\n                /* \"#utility.yul\":11068:11073   */\n              dup5\n                /* \"#utility.yul\":11065:11095   */\n              or\n                /* \"#utility.yul\":11055:11095   */\n              swap3\n              pop\n                /* \"#utility.yul\":10784:11101   */\n              pop\n              pop\n                /* \"#utility.yul\":10708:11101   */\n              swap4\n              swap3\n              pop\n              pop\n              pop\n              jump\t// out\n                /* \"#utility.yul\":11107:11167   */\n            tag_138:\n                /* \"#utility.yul\":11135:11138   */\n              0x00\n                /* \"#utility.yul\":11156:11161   */\n              dup2\n                /* \"#utility.yul\":11149:11161   */\n              swap1\n              pop\n                /* \"#utility.yul\":11107:11167   */\n              swap2\n              swap1\n              pop\n              jump\t// out\n                /* \"#utility.yul\":11173:11315   */\n            tag_139:\n                /* \"#utility.yul\":11223:11232   */\n              0x00\n                /* \"#utility.yul\":11256:11309   */\n              tag_276\n                /* \"#utility.yul\":11274:11308   */\n              tag_277\n                /* \"#utility.yul\":11283:11307   */\n              tag_278\n                /* \"#utility.yul\":11301:11306   */\n              dup5\n                /* \"#utility.yul\":11283:11307   */\n              tag_122\n              jump\t// in\n            tag_278:\n                /* \"#utility.yul\":11274:11308   */\n              tag_138\n              jump\t// in\n            tag_277:\n                /* \"#utility.yul\":11256:11309   */\n              tag_122\n              jump\t// in\n            tag_276:\n                /* \"#utility.yul\":11243:11309   */\n              swap1\n              pop\n                /* \"#utility.yul\":11173:11315   */\n              swap2\n              swap1\n              pop\n              jump\t// out\n                /* \"#utility.yul\":11321:11396   */\n            tag_140:\n                /* \"#utility.yul\":11364:11367   */\n              0x00\n                /* \"#utility.yul\":11385:11390   */\n              dup2\n                /* \"#utility.yul\":11378:11390   */\n              swap1\n              pop\n                /* \"#utility.yul\":11321:11396   */\n              swap2\n              swap1\n              pop\n              jump\t// out\n                /* \"#utility.yul\":11402:11671   */\n            tag_141:\n                /* \"#utility.yul\":11512:11551   */\n              tag_281\n                /* \"#utility.yul\":11543:11550   */\n              dup4\n                /* \"#utility.yul\":11512:11551   */\n              tag_139\n              jump\t// in\n            tag_281:\n                /* \"#utility.yul\":11573:11664   */\n              tag_282\n                /* \"#utility.yul\":11622:11663   */\n              tag_283\n                /* \"#utility.yul\":11646:11662   */\n              dup3\n                /* \"#utility.yul\":11622:11663   */\n              tag_140\n              jump\t// in\n            tag_283:\n                /* \"#utility.yul\":11614:11620   */\n              dup5\n                /* \"#utility.yul\":11607:11611   */\n              dup5\n                /* \"#utility.yul\":11601:11612   */\n              sload\n                /* \"#utility.yul\":11573:11664   */\n              tag_137\n              jump\t// in\n            tag_282:\n                /* \"#utility.yul\":11567:11571   */\n              dup3\n                /* \"#utility.yul\":11560:11665   */\n              sstore\n                /* \"#utility.yul\":11478:11671   */\n              pop\n                /* \"#utility.yul\":11402:11671   */\n              pop\n              pop\n              pop\n              jump\t// out\n                /* \"#utility.yul\":11677:11750   */\n            tag_142:\n                /* \"#utility.yul\":11722:11725   */\n              0x00\n                /* \"#utility.yul\":11677:11750   */\n              swap1\n              jump\t// out\n                /* \"#utility.yul\":11756:11945   */\n            tag_143:\n                /* \"#utility.yul\":11833:11865   */\n              tag_286\n              tag_142\n              jump\t// in\n            tag_286:\n                /* \"#utility.yul\":11874:11939   */\n              tag_287\n                /* \"#utility.yul\":11932:11938   */\n              dup2\n                /* \"#utility.yul\":11924:11930   */\n              dup5\n                /* \"#utility.yul\":11918:11922   */\n              dup5\n                /* \"#utility.yul\":11874:11939   */\n              tag_141\n              jump\t// in\n            tag_287:\n                /* \"#utility.yul\":11809:11945   */\n              pop\n                /* \"#utility.yul\":11756:11945   */\n              pop\n              pop\n              jump\t// out\n                /* \"#utility.yul\":11951:12137   */\n            tag_144:\n                /* \"#utility.yul\":12011:12131   */\n            tag_289:\n                /* \"#utility.yul\":12028:12031   */\n              dup2\n                /* \"#utility.yul\":12021:12026   */\n              dup2\n                /* \"#utility.yul\":12018:12032   */\n              lt\n                /* \"#utility.yul\":12011:12131   */\n              iszero\n              tag_291\n              jumpi\n                /* \"#utility.yul\":12082:12121   */\n              tag_292\n                /* \"#utility.yul\":12119:12120   */\n              0x00\n                /* \"#utility.yul\":12112:12117   */\n              dup3\n                /* \"#utility.yul\":12082:12121   */\n              tag_143\n              jump\t// in\n            tag_292:\n                /* \"#utility.yul\":12055:12056   */\n              0x01\n                /* \"#utility.yul\":12048:12053   */\n              dup2\n                /* \"#utility.yul\":12044:12057   */\n              add\n                /* \"#utility.yul\":12035:12057   */\n              swap1\n              pop\n                /* \"#utility.yul\":12011:12131   */\n              jump(tag_289)\n            tag_291:\n                /* \"#utility.yul\":11951:12137   */\n              pop\n              pop\n              jump\t// out\n                /* \"#utility.yul\":12143:12686   */\n            tag_145:\n                /* \"#utility.yul\":12244:12246   */\n              0x1f\n                /* \"#utility.yul\":12239:12242   */\n              dup3\n                /* \"#utility.yul\":12236:12247   */\n              gt\n                /* \"#utility.yul\":12233:12679   */\n              iszero\n              tag_294\n              jumpi\n                /* \"#utility.yul\":12278:12316   */\n              tag_295\n                /* \"#utility.yul\":12310:12315   */\n              dup2\n                /* \"#utility.yul\":12278:12316   */\n              tag_134\n              jump\t// in\n            tag_295:\n                /* \"#utility.yul\":12362:12391   */\n              tag_296\n                /* \"#utility.yul\":12380:12390   */\n              dup5\n                /* \"#utility.yul\":12362:12391   */\n              tag_135\n              jump\t// in\n            tag_296:\n                /* \"#utility.yul\":12352:12360   */\n              dup2\n                /* \"#utility.yul\":12348:12392   */\n              add\n                /* \"#utility.yul\":12545:12547   */\n              0x20\n                /* \"#utility.yul\":12533:12543   */\n              dup6\n                /* \"#utility.yul\":12530:12548   */\n              lt\n                /* \"#utility.yul\":12527:12576   */\n              iszero\n              tag_297\n              jumpi\n                /* \"#utility.yul\":12566:12574   */\n              dup2\n                /* \"#utility.yul\":12551:12574   */\n              swap1\n              pop\n                /* \"#utility.yul\":12527:12576   */\n            tag_297:\n                /* \"#utility.yul\":12589:12669   */\n              tag_298\n                /* \"#utility.yul\":12645:12667   */\n              tag_299\n                /* \"#utility.yul\":12663:12666   */\n              dup6\n                /* \"#utility.yul\":12645:12667   */\n              tag_135\n              jump\t// in\n            tag_299:\n                /* \"#utility.yul\":12635:12643   */\n              dup4\n                /* \"#utility.yul\":12631:12668   */\n              add\n                /* \"#utility.yul\":12618:12629   */\n              dup3\n                /* \"#utility.yul\":12589:12669   */\n              tag_144\n              jump\t// in\n            tag_298:\n                /* \"#utility.yul\":12248:12679   */\n              pop\n              pop\n                /* \"#utility.yul\":12233:12679   */\n            tag_294:\n                /* \"#utility.yul\":12143:12686   */\n              pop\n              pop\n              pop\n              jump\t// out\n                /* \"#utility.yul\":12692:12809   */\n            tag_146:\n                /* \"#utility.yul\":12746:12754   */\n              0x00\n                /* \"#utility.yul\":12796:12801   */\n              dup3\n                /* \"#utility.yul\":12790:12794   */\n              dup3\n                /* \"#utility.yul\":12786:12802   */\n              shr\n                /* \"#utility.yul\":12765:12802   */\n              swap1\n              pop\n                /* \"#utility.yul\":12692:12809   */\n              swap3\n              swap2\n              pop\n              pop\n              jump\t// out\n                /* \"#utility.yul\":12815:12984   */\n            tag_147:\n                /* \"#utility.yul\":12859:12865   */\n              0x00\n                /* \"#utility.yul\":12892:12943   */\n              tag_302\n                /* \"#utility.yul\":12940:12941   */\n              0x00\n                /* \"#utility.yul\":12936:12942   */\n              not\n                /* \"#utility.yul\":12928:12933   */\n              dup5\n                /* \"#utility.yul\":12925:12926   */\n              0x08\n                /* \"#utility.yul\":12921:12934   */\n              mul\n                /* \"#utility.yul\":12892:12943   */\n              tag_146\n              jump\t// in\n            tag_302:\n                /* \"#utility.yul\":12888:12944   */\n              not\n                /* \"#utility.yul\":12973:12977   */\n              dup1\n                /* \"#utility.yul\":12967:12971   */\n              dup4\n                /* \"#utility.yul\":12963:12978   */\n              and\n                /* \"#utility.yul\":12953:12978   */\n              swap2\n              pop\n                /* \"#utility.yul\":12866:12984   */\n              pop\n                /* \"#utility.yul\":12815:12984   */\n              swap3\n              swap2\n              pop\n              pop\n              jump\t// out\n                /* \"#utility.yul\":12989:13284   */\n            tag_148:\n                /* \"#utility.yul\":13065:13069   */\n              0x00\n                /* \"#utility.yul\":13211:13240   */\n              tag_304\n                /* \"#utility.yul\":13236:13239   */\n              dup4\n                /* \"#utility.yul\":13230:13234   */\n              dup4\n                /* \"#utility.yul\":13211:13240   */\n              tag_147\n              jump\t// in\n            tag_304:\n                /* \"#utility.yul\":13203:13240   */\n              swap2\n              pop\n                /* \"#utility.yul\":13273:13276   */\n              dup3\n                /* \"#utility.yul\":13270:13271   */\n              0x02\n                /* \"#utility.yul\":13266:13277   */\n              mul\n                /* \"#utility.yul\":13260:13264   */\n              dup3\n                /* \"#utility.yul\":13257:13278   */\n              or\n                /* \"#utility.yul\":13249:13278   */\n              swap1\n              pop\n                /* \"#utility.yul\":12989:13284   */\n              swap3\n              swap2\n              pop\n              pop\n              jump\t// out\n                /* \"#utility.yul\":13289:14684   */\n            tag_36:\n                /* \"#utility.yul\":13406:13443   */\n              tag_306\n                /* \"#utility.yul\":13439:13442   */\n              dup3\n                /* \"#utility.yul\":13406:13443   */\n              tag_125\n              jump\t// in\n            tag_306:\n                /* \"#utility.yul\":13508:13526   */\n              0xffffffffffffffff\n                /* \"#utility.yul\":13500:13506   */\n              dup2\n                /* \"#utility.yul\":13497:13527   */\n              gt\n                /* \"#utility.yul\":13494:13550   */\n              iszero\n              tag_307\n              jumpi\n                /* \"#utility.yul\":13530:13548   */\n              tag_308\n              tag_33\n              jump\t// in\n            tag_308:\n                /* \"#utility.yul\":13494:13550   */\n            tag_307:\n                /* \"#utility.yul\":13574:13612   */\n              tag_309\n                /* \"#utility.yul\":13606:13610   */\n              dup3\n                /* \"#utility.yul\":13600:13611   */\n              sload\n                /* \"#utility.yul\":13574:13612   */\n              tag_44\n              jump\t// in\n            tag_309:\n                /* \"#utility.yul\":13659:13726   */\n              tag_310\n                /* \"#utility.yul\":13719:13725   */\n              dup3\n                /* \"#utility.yul\":13711:13717   */\n              dup3\n                /* \"#utility.yul\":13705:13709   */\n              dup6\n                /* \"#utility.yul\":13659:13726   */\n              tag_145\n              jump\t// in\n            tag_310:\n                /* \"#utility.yul\":13753:13754   */\n              0x00\n                /* \"#utility.yul\":13777:13781   */\n              0x20\n                /* \"#utility.yul\":13764:13781   */\n              swap1\n              pop\n                /* \"#utility.yul\":13809:13811   */\n              0x1f\n                /* \"#utility.yul\":13801:13807   */\n              dup4\n                /* \"#utility.yul\":13798:13812   */\n              gt\n                /* \"#utility.yul\":13826:13827   */\n              0x01\n                /* \"#utility.yul\":13821:14439   */\n              dup2\n              eq\n              tag_312\n              jumpi\n                /* \"#utility.yul\":14483:14484   */\n              0x00\n                /* \"#utility.yul\":14500:14506   */\n              dup5\n                /* \"#utility.yul\":14497:14574   */\n              iszero\n              tag_313\n              jumpi\n                /* \"#utility.yul\":14549:14558   */\n              dup3\n                /* \"#utility.yul\":14544:14547   */\n              dup8\n                /* \"#utility.yul\":14540:14559   */\n              add\n                /* \"#utility.yul\":14534:14560   */\n              mload\n                /* \"#utility.yul\":14525:14560   */\n              swap1\n              pop\n                /* \"#utility.yul\":14497:14574   */\n            tag_313:\n                /* \"#utility.yul\":14600:14667   */\n              tag_314\n                /* \"#utility.yul\":14660:14666   */\n              dup6\n                /* \"#utility.yul\":14653:14658   */\n              dup3\n                /* \"#utility.yul\":14600:14667   */\n              tag_148\n              jump\t// in\n            tag_314:\n                /* \"#utility.yul\":14594:14598   */\n              dup7\n                /* \"#utility.yul\":14587:14668   */\n              sstore\n                /* \"#utility.yul\":14456:14678   */\n              pop\n                /* \"#utility.yul\":13791:14678   */\n              jump(tag_311)\n                /* \"#utility.yul\":13821:14439   */\n            tag_312:\n                /* \"#utility.yul\":13873:13877   */\n              0x1f\n                /* \"#utility.yul\":13869:13878   */\n              not\n                /* \"#utility.yul\":13861:13867   */\n              dup5\n                /* \"#utility.yul\":13857:13879   */\n              and\n                /* \"#utility.yul\":13907:13944   */\n              tag_315\n                /* \"#utility.yul\":13939:13943   */\n              dup7\n                /* \"#utility.yul\":13907:13944   */\n              tag_134\n              jump\t// in\n            tag_315:\n                /* \"#utility.yul\":13966:13967   */\n              0x00\n                /* \"#utility.yul\":13980:14188   */\n            tag_316:\n                /* \"#utility.yul\":13994:14001   */\n              dup3\n                /* \"#utility.yul\":13991:13992   */\n              dup2\n                /* \"#utility.yul\":13988:14002   */\n              lt\n                /* \"#utility.yul\":13980:14188   */\n              iszero\n              tag_318\n              jumpi\n                /* \"#utility.yul\":14073:14082   */\n              dup5\n                /* \"#utility.yul\":14068:14071   */\n              dup10\n                /* \"#utility.yul\":14064:14083   */\n              add\n                /* \"#utility.yul\":14058:14084   */\n              mload\n                /* \"#utility.yul\":14050:14056   */\n              dup3\n                /* \"#utility.yul\":14043:14085   */\n              sstore\n                /* \"#utility.yul\":14124:14125   */\n              0x01\n                /* \"#utility.yul\":14116:14122   */\n              dup3\n                /* \"#utility.yul\":14112:14126   */\n              add\n                /* \"#utility.yul\":14102:14126   */\n              swap2\n              pop\n                /* \"#utility.yul\":14171:14173   */\n              0x20\n                /* \"#utility.yul\":14160:14169   */\n              dup6\n                /* \"#utility.yul\":14156:14174   */\n              add\n                /* \"#utility.yul\":14143:14174   */\n              swap5\n              pop\n                /* \"#utility.yul\":14017:14021   */\n              0x20\n                /* \"#utility.yul\":14014:14015   */\n              dup2\n                /* \"#utility.yul\":14010:14022   */\n              add\n                /* \"#utility.yul\":14005:14022   */\n              swap1\n              pop\n                /* \"#utility.yul\":13980:14188   */\n              jump(tag_316)\n            tag_318:\n                /* \"#utility.yul\":14216:14222   */\n              dup7\n                /* \"#utility.yul\":14207:14214   */\n              dup4\n                /* \"#utility.yul\":14204:14223   */\n              lt\n                /* \"#utility.yul\":14201:14380   */\n              iszero\n              tag_319\n              jumpi\n                /* \"#utility.yul\":14274:14283   */\n              dup5\n                /* \"#utility.yul\":14269:14272   */\n              dup10\n                /* \"#utility.yul\":14265:14284   */\n              add\n                /* \"#utility.yul\":14259:14285   */\n              mload\n                /* \"#utility.yul\":14317:14365   */\n              tag_320\n                /* \"#utility.yul\":14359:14363   */\n              0x1f\n                /* \"#utility.yul\":14351:14357   */\n              dup10\n                /* \"#utility.yul\":14347:14364   */\n              and\n                /* \"#utility.yul\":14336:14345   */\n              dup3\n                /* \"#utility.yul\":14317:14365   */\n              tag_147\n              jump\t// in\n            tag_320:\n                /* \"#utility.yul\":14309:14315   */\n              dup4\n                /* \"#utility.yul\":14302:14366   */\n              sstore\n                /* \"#utility.yul\":14224:14380   */\n              pop\n                /* \"#utility.yul\":14201:14380   */\n            tag_319:\n                /* \"#utility.yul\":14426:14427   */\n              0x01\n                /* \"#utility.yul\":14422:14423   */\n              0x02\n                /* \"#utility.yul\":14414:14420   */\n              dup9\n                /* \"#utility.yul\":14410:14424   */\n              mul\n                /* \"#utility.yul\":14406:14428   */\n              add\n                /* \"#utility.yul\":14400:14404   */\n              dup9\n                /* \"#utility.yul\":14393:14429   */\n              sstore\n                /* \"#utility.yul\":13828:14439   */\n              pop\n              pop\n              pop\n                /* \"#utility.yul\":13791:14678   */\n            tag_311:\n              pop\n                /* \"#utility.yul\":13381:14684   */\n              pop\n              pop\n              pop\n                /* \"#utility.yul\":13289:14684   */\n              pop\n              pop\n              jump\t// out\n                /* \"#utility.yul\":14690:14861   */\n            tag_149:\n                /* \"#utility.yul\":14830:14853   */\n              0x53757276657920646f6573206e6f742065786973740000000000000000000000\n                /* \"#utility.yul\":14826:14827   */\n              0x00\n                /* \"#utility.yul\":14818:14824   */\n              dup3\n                /* \"#utility.yul\":14814:14828   */\n              add\n                /* \"#utility.yul\":14807:14854   */\n              mstore\n                /* \"#utility.yul\":14690:14861   */\n              pop\n              jump\t// out\n                /* \"#utility.yul\":14867:15233   */\n            tag_150:\n                /* \"#utility.yul\":15009:15012   */\n              0x00\n                /* \"#utility.yul\":15030:15097   */\n              tag_323\n                /* \"#utility.yul\":15094:15096   */\n              0x15\n                /* \"#utility.yul\":15089:15092   */\n              dup4\n                /* \"#utility.yul\":15030:15097   */\n              tag_126\n              jump\t// in\n            tag_323:\n                /* \"#utility.yul\":15023:15097   */\n              swap2\n              pop\n                /* \"#utility.yul\":15106:15199   */\n              tag_324\n                /* \"#utility.yul\":15195:15198   */\n              dup3\n                /* \"#utility.yul\":15106:15199   */\n              tag_149\n              jump\t// in\n            tag_324:\n                /* \"#utility.yul\":15224:15226   */\n              0x20\n                /* \"#utility.yul\":15219:15222   */\n              dup3\n                /* \"#utility.yul\":15215:15227   */\n              add\n                /* \"#utility.yul\":15208:15227   */\n              swap1\n              pop\n                /* \"#utility.yul\":14867:15233   */\n              swap2\n              swap1\n              pop\n              jump\t// out\n                /* \"#utility.yul\":15239:15658   */\n            tag_52:\n                /* \"#utility.yul\":15405:15409   */\n              0x00\n                /* \"#utility.yul\":15443:15445   */\n              0x20\n                /* \"#utility.yul\":15432:15441   */\n              dup3\n                /* \"#utility.yul\":15428:15446   */\n              add\n                /* \"#utility.yul\":15420:15446   */\n              swap1\n              pop\n                /* \"#utility.yul\":15492:15501   */\n              dup2\n                /* \"#utility.yul\":15486:15490   */\n              dup2\n                /* \"#utility.yul\":15482:15502   */\n              sub\n                /* \"#utility.yul\":15478:15479   */\n              0x00\n                /* \"#utility.yul\":15467:15476   */\n              dup4\n                /* \"#utility.yul\":15463:15480   */\n              add\n                /* \"#utility.yul\":15456:15503   */\n              mstore\n                /* \"#utility.yul\":15520:15651   */\n              tag_326\n                /* \"#utility.yul\":15646:15650   */\n              dup2\n                /* \"#utility.yul\":15520:15651   */\n              tag_150\n              jump\t// in\n            tag_326:\n                /* \"#utility.yul\":15512:15651   */\n              swap1\n              pop\n                /* \"#utility.yul\":15239:15658   */\n              swap2\n              swap1\n              pop\n              jump\t// out\n                /* \"#utility.yul\":15664:15834   */\n            tag_151:\n                /* \"#utility.yul\":15804:15826   */\n              0x537572766579206973206e6f7420616374697665000000000000000000000000\n                /* \"#utility.yul\":15800:15801   */\n              0x00\n                /* \"#utility.yul\":15792:15798   */\n              dup3\n                /* \"#utility.yul\":15788:15802   */\n              add\n                /* \"#utility.yul\":15781:15827   */\n              mstore\n                /* \"#utility.yul\":15664:15834   */\n              pop\n              jump\t// out\n                /* \"#utility.yul\":15840:16206   */\n            tag_152:\n                /* \"#utility.yul\":15982:15985   */\n              0x00\n                /* \"#utility.yul\":16003:16070   */\n              tag_329\n                /* \"#utility.yul\":16067:16069   */\n              0x14\n                /* \"#utility.yul\":16062:16065   */\n              dup4\n                /* \"#utility.yul\":16003:16070   */\n              tag_126\n              jump\t// in\n            tag_329:\n                /* \"#utility.yul\":15996:16070   */\n              swap2\n              pop\n                /* \"#utility.yul\":16079:16172   */\n              tag_330\n                /* \"#utility.yul\":16168:16171   */\n              dup3\n                /* \"#utility.yul\":16079:16172   */\n              tag_151\n              jump\t// in\n            tag_330:\n                /* \"#utility.yul\":16197:16199   */\n              0x20\n                /* \"#utility.yul\":16192:16195   */\n              dup3\n                /* \"#utility.yul\":16188:16200   */\n              add\n                /* \"#utility.yul\":16181:16200   */\n              swap1\n              pop\n                /* \"#utility.yul\":15840:16206   */\n              swap2\n              swap1\n              pop\n              jump\t// out\n                /* \"#utility.yul\":16212:16631   */\n            tag_58:\n                /* \"#utility.yul\":16378:16382   */\n              0x00\n                /* \"#utility.yul\":16416:16418   */\n              0x20\n                /* \"#utility.yul\":16405:16414   */\n              dup3\n                /* \"#utility.yul\":16401:16419   */\n              add\n                /* \"#utility.yul\":16393:16419   */\n              swap1\n              pop\n                /* \"#utility.yul\":16465:16474   */\n              dup2\n                /* \"#utility.yul\":16459:16463   */\n              dup2\n                /* \"#utility.yul\":16455:16475   */\n              sub\n                /* \"#utility.yul\":16451:16452   */\n              0x00\n                /* \"#utility.yul\":16440:16449   */\n              dup4\n                /* \"#utility.yul\":16436:16453   */\n              add\n                /* \"#utility.yul\":16429:16476   */\n              mstore\n                /* \"#utility.yul\":16493:16624   */\n              tag_332\n                /* \"#utility.yul\":16619:16623   */\n              dup2\n                /* \"#utility.yul\":16493:16624   */\n              tag_152\n              jump\t// in\n            tag_332:\n                /* \"#utility.yul\":16485:16624   */\n              swap1\n              pop\n                /* \"#utility.yul\":16212:16631   */\n              swap2\n              swap1\n              pop\n              jump\t// out\n                /* \"#utility.yul\":16637:16807   */\n            tag_153:\n                /* \"#utility.yul\":16777:16799   */\n              0x496e76616c6964206f7074696f6e20696e646578000000000000000000000000\n                /* \"#utility.yul\":16773:16774   */\n              0x00\n                /* \"#utility.yul\":16765:16771   */\n              dup3\n                /* \"#utility.yul\":16761:16775   */\n              add\n                /* \"#utility.yul\":16754:16800   */\n              mstore\n                /* \"#utility.yul\":16637:16807   */\n              pop\n              jump\t// out\n                /* \"#utility.yul\":16813:17179   */\n            tag_154:\n                /* \"#utility.yul\":16955:16958   */\n              0x00\n                /* \"#utility.yul\":16976:17043   */\n              tag_335\n                /* \"#utility.yul\":17040:17042   */\n              0x14\n                /* \"#utility.yul\":17035:17038   */\n              dup4\n                /* \"#utility.yul\":16976:17043   */\n              tag_126\n              jump\t// in\n            tag_335:\n                /* \"#utility.yul\":16969:17043   */\n              swap2\n              pop\n                /* \"#utility.yul\":17052:17145   */\n              tag_336\n                /* \"#utility.yul\":17141:17144   */\n              dup3\n                /* \"#utility.yul\":17052:17145   */\n              tag_153\n              jump\t// in\n            tag_336:\n                /* \"#utility.yul\":17170:17172   */\n              0x20\n                /* \"#utility.yul\":17165:17168   */\n              dup3\n                /* \"#utility.yul\":17161:17173   */\n              add\n                /* \"#utility.yul\":17154:17173   */\n              swap1\n              pop\n                /* \"#utility.yul\":16813:17179   */\n              swap2\n              swap1\n              pop\n              jump\t// out\n                /* \"#utility.yul\":17185:17604   */\n            tag_64:\n                /* \"#utility.yul\":17351:17355   */\n              0x00\n                /* \"#utility.yul\":17389:17391   */\n              0x20\n                /* \"#utility.yul\":17378:17387   */\n              dup3\n                /* \"#utility.yul\":17374:17392   */\n              add\n                /* \"#utility.yul\":17366:17392   */\n              swap1\n              pop\n                /* \"#utility.yul\":17438:17447   */\n              dup2\n                /* \"#utility.yul\":17432:17436   */\n              dup2\n                /* \"#utility.yul\":17428:17448   */\n              sub\n                /* \"#utility.yul\":17424:17425   */\n              0x00\n                /* \"#utility.yul\":17413:17422   */\n              dup4\n                /* \"#utility.yul\":17409:17426   */\n              add\n                /* \"#utility.yul\":17402:17449   */\n              mstore\n                /* \"#utility.yul\":17466:17597   */\n              tag_338\n                /* \"#utility.yul\":17592:17596   */\n              dup2\n                /* \"#utility.yul\":17466:17597   */\n              tag_154\n              jump\t// in\n            tag_338:\n                /* \"#utility.yul\":17458:17597   */\n              swap1\n              pop\n                /* \"#utility.yul\":17185:17604   */\n              swap2\n              swap1\n              pop\n              jump\t// out\n                /* \"#utility.yul\":17610:17782   */\n            tag_155:\n                /* \"#utility.yul\":17750:17774   */\n              0x557365722068617320616c726561647920766f74656400000000000000000000\n                /* \"#utility.yul\":17746:17747   */\n              0x00\n                /* \"#utility.yul\":17738:17744   */\n              dup3\n                /* \"#utility.yul\":17734:17748   */\n              add\n                /* \"#utility.yul\":17727:17775   */\n              mstore\n                /* \"#utility.yul\":17610:17782   */\n              pop\n              jump\t// out\n                /* \"#utility.yul\":17788:18154   */\n            tag_156:\n                /* \"#utility.yul\":17930:17933   */\n              0x00\n                /* \"#utility.yul\":17951:18018   */\n              tag_341\n                /* \"#utility.yul\":18015:18017   */\n              0x16\n                /* \"#utility.yul\":18010:18013   */\n              dup4\n                /* \"#utility.yul\":17951:18018   */\n              tag_126\n              jump\t// in\n            tag_341:\n                /* \"#utility.yul\":17944:18018   */\n              swap2\n              pop\n                /* \"#utility.yul\":18027:18120   */\n              tag_342\n                /* \"#utility.yul\":18116:18119   */\n              dup3\n                /* \"#utility.yul\":18027:18120   */\n              tag_155\n              jump\t// in\n            tag_342:\n                /* \"#utility.yul\":18145:18147   */\n              0x20\n                /* \"#utility.yul\":18140:18143   */\n              dup3\n                /* \"#utility.yul\":18136:18148   */\n              add\n                /* \"#utility.yul\":18129:18148   */\n              swap1\n              pop\n                /* \"#utility.yul\":17788:18154   */\n              swap2\n              swap1\n              pop\n              jump\t// out\n                /* \"#utility.yul\":18160:18579   */\n            tag_70:\n                /* \"#utility.yul\":18326:18330   */\n              0x00\n                /* \"#utility.yul\":18364:18366   */\n              0x20\n                /* \"#utility.yul\":18353:18362   */\n              dup3\n                /* \"#utility.yul\":18349:18367   */\n              add\n                /* \"#utility.yul\":18341:18367   */\n              swap1\n              pop\n                /* \"#utility.yul\":18413:18422   */\n              dup2\n                /* \"#utility.yul\":18407:18411   */\n              dup2\n                /* \"#utility.yul\":18403:18423   */\n              sub\n                /* \"#utility.yul\":18399:18400   */\n              0x00\n                /* \"#utility.yul\":18388:18397   */\n              dup4\n                /* \"#utility.yul\":18384:18401   */\n              add\n                /* \"#utility.yul\":18377:18424   */\n              mstore\n                /* \"#utility.yul\":18441:18572   */\n              tag_344\n                /* \"#utility.yul\":18567:18571   */\n              dup2\n                /* \"#utility.yul\":18441:18572   */\n              tag_156\n              jump\t// in\n            tag_344:\n                /* \"#utility.yul\":18433:18572   */\n              swap1\n              pop\n                /* \"#utility.yul\":18160:18579   */\n              swap2\n              swap1\n              pop\n              jump\t// out\n                /* \"#utility.yul\":18585:18818   */\n            tag_78:\n                /* \"#utility.yul\":18624:18627   */\n              0x00\n                /* \"#utility.yul\":18647:18671   */\n              tag_346\n                /* \"#utility.yul\":18665:18670   */\n              dup3\n                /* \"#utility.yul\":18647:18671   */\n              tag_122\n              jump\t// in\n            tag_346:\n                /* \"#utility.yul\":18638:18671   */\n              swap2\n              pop\n                /* \"#utility.yul\":18693:18759   */\n              0xffffffffffffffffffffffffffffffffffffffffffffffffffffffffffffffff\n                /* \"#utility.yul\":18686:18691   */\n              dup3\n                /* \"#utility.yul\":18683:18760   */\n              sub\n                /* \"#utility.yul\":18680:18783   */\n              tag_347\n              jumpi\n                /* \"#utility.yul\":18763:18781   */\n              tag_348\n              tag_132\n              jump\t// in\n            tag_348:\n                /* \"#utility.yul\":18680:18783   */\n            tag_347:\n                /* \"#utility.yul\":18810:18811   */\n              0x01\n                /* \"#utility.yul\":18803:18808   */\n              dup3\n                /* \"#utility.yul\":18799:18812   */\n              add\n                /* \"#utility.yul\":18792:18812   */\n              swap1\n              pop\n                /* \"#utility.yul\":18585:18818   */\n              swap2\n              swap1\n              pop\n              jump\t// out\n\n            auxdata: 0xa264697066735822122079469e527c34dc616dfa0202e2cf64a39d649de4a61f59eb94a155ce7da1457264736f6c634300081a0033\n        }\n    }\n\n    auxdata: 0xa2646970667358221220817d344b1eb6c0078332eaa101f38b8200b932832e300d4ad6945ac71a04f4cf64736f6c634300081a0033\n}\n",
				"bytecode": {
					"linkReferences": {},
					"object": "60a06040525f6007556032600855348015610018575f80fd5b503364174876e8006040518060400160405280600681526020017f536f626f726f00000000000000000000000000000000000000000000000000008152506040518060400160405280600381526020017f5342520000000000000000000000000000000000000000000000000000000000815250816003908161009b919061080b565b5080600490816100ab919061080b565b5050505f81036100f2575f6040517f392e1e270000000000000000000000000000000000000000000000000000000081526004016100e99190610913565b60405180910390fd5b8060808181525050505f73ffffffffffffffffffffffffffffffffffffffff168173ffffffffffffffffffffffffffffffffffffffff160361016b575f6040517f1e4fbdf7000000000000000000000000000000000000000000000000000000008152600401610162919061096b565b60405180910390fd5b61017a8161019360201b60201c565b5061018e33620186a061025660201b60201c565b610a68565b5f60055f9054906101000a900473ffffffffffffffffffffffffffffffffffffffff1690508160055f6101000a81548173ffffffffffffffffffffffffffffffffffffffff021916908373ffffffffffffffffffffffffffffffffffffffff1602179055508173ffffffffffffffffffffffffffffffffffffffff168173ffffffffffffffffffffffffffffffffffffffff167f8be0079c531659141344cd1fd0a4f28419497f9722a3daafe3b4186f6b6457e060405160405180910390a35050565b5f73ffffffffffffffffffffffffffffffffffffffff168273ffffffffffffffffffffffffffffffffffffffff16036102c6575f6040517fec442f050000000000000000000000000000000000000000000000000000000081526004016102bd919061096b565b60405180910390fd5b6102d75f83836102db60201b60201c565b5050565b6102ec8383836102f160201b60201c565b505050565b6103028383836103a660201b60201c565b5f73ffffffffffffffffffffffffffffffffffffffff168373ffffffffffffffffffffffffffffffffffffffff16036103a1575f6103446105bf60201b60201c565b90505f6103556105c860201b60201c565b90508181111561039e5780826040517f9e79f854000000000000000000000000000000000000000000000000000000008152600401610395929190610993565b60405180910390fd5b50505b505050565b5f73ffffffffffffffffffffffffffffffffffffffff168373ffffffffffffffffffffffffffffffffffffffff16036103f6578060025f8282546103ea91906109e7565b925050819055506104c4565b5f805f8573ffffffffffffffffffffffffffffffffffffffff1673ffffffffffffffffffffffffffffffffffffffff1681526020019081526020015f205490508181101561047f578381836040517fe450d38c00000000000000000000000000000000000000000000000000000000815260040161047693929190610a1a565b60405180910390fd5b8181035f808673ffffffffffffffffffffffffffffffffffffffff1673ffffffffffffffffffffffffffffffffffffffff1681526020019081526020015f2081905550505b5f73ffffffffffffffffffffffffffffffffffffffff168273ffffffffffffffffffffffffffffffffffffffff160361050b578060025f8282540392505081905550610555565b805f808473ffffffffffffffffffffffffffffffffffffffff1673ffffffffffffffffffffffffffffffffffffffff1681526020019081526020015f205f82825401925050819055505b8173ffffffffffffffffffffffffffffffffffffffff168373ffffffffffffffffffffffffffffffffffffffff167fddf252ad1be2c89b69c2b068fc378daa952ba7f163c4a11628f55a4df523b3ef836040516105b29190610a4f565b60405180910390a3505050565b5f608051905090565b5f600254905090565b5f81519050919050565b7f4e487b71000000000000000000000000000000000000000000000000000000005f52604160045260245ffd5b7f4e487b71000000000000000000000000000000000000000000000000000000005f52602260045260245ffd5b5f600282049050600182168061064c57607f821691505b60208210810361065f5761065e610608565b5b50919050565b5f819050815f5260205f209050919050565b5f6020601f8301049050919050565b5f82821b905092915050565b5f600883026106c17fffffffffffffffffffffffffffffffffffffffffffffffffffffffffffffffff82610686565b6106cb8683610686565b95508019841693508086168417925050509392505050565b5f819050919050565b5f819050919050565b5f61070f61070a610705846106e3565b6106ec565b6106e3565b9050919050565b5f819050919050565b610728836106f5565b61073c61073482610716565b848454610692565b825550505050565b5f90565b610750610744565b61075b81848461071f565b505050565b5b8181101561077e576107735f82610748565b600181019050610761565b5050565b601f8211156107c35761079481610665565b61079d84610677565b810160208510156107ac578190505b6107c06107b885610677565b830182610760565b50505b505050565b5f82821c905092915050565b5f6107e35f19846008026107c8565b1980831691505092915050565b5f6107fb83836107d4565b9150826002028217905092915050565b610814826105d1565b67ffffffffffffffff81111561082d5761082c6105db565b5b6108378254610635565b610842828285610782565b5f60209050601f831160018114610873575f8415610861578287015190505b61086b85826107f0565b8655506108d2565b601f19841661088186610665565b5f5b828110156108a857848901518255600182019150602085019450602081019050610883565b868310156108c557848901516108c1601f8916826107d4565b8355505b6001600288020188555050505b505050505050565b5f819050919050565b5f6108fd6108f86108f3846108da565b6106ec565b6106e3565b9050919050565b61090d816108e3565b82525050565b5f6020820190506109265f830184610904565b92915050565b5f73ffffffffffffffffffffffffffffffffffffffff82169050919050565b5f6109558261092c565b9050919050565b6109658161094b565b82525050565b5f60208201905061097e5f83018461095c565b92915050565b61098d816106e3565b82525050565b5f6040820190506109a65f830185610984565b6109b36020830184610984565b9392505050565b7f4e487b71000000000000000000000000000000000000000000000000000000005f52601160045260245ffd5b5f6109f1826106e3565b91506109fc836106e3565b9250828201905080821115610a1457610a136109ba565b5b92915050565b5f606082019050610a2d5f83018661095c565b610a3a6020830185610984565b610a476040830184610984565b949350505050565b5f602082019050610a625f830184610984565b92915050565b608051612ba8610a805f395f6105860152612ba85ff3fe608060405234801561000f575f80fd5b5060043610610109575f3560e01c80634735c94c116100a05780638da5cb5b1161006f5780638da5cb5b1461027d57806395d89b411461029b578063a9059cbb146102b9578063dd62ed3e146102e9578063f2fde38b1461031957610109565b80634735c94c1461021d57806370a0823114610227578063715018a61461025757806379cc67901461026157610109565b806323b872dd116100dc57806323b872dd14610195578063313ce567146101c5578063355274ea146101e357806342966c681461020157610109565b80630528395e1461010d57806306fdde0314610129578063095ea7b31461014757806318160ddd14610177575b5f80fd5b610127600480360381019061012291906113c3565b610335565b005b610131610492565b60405161013e91906114ab565b60405180910390f35b610161600480360381019061015c9190611558565b610522565b60405161016e91906115a5565b60405180910390f35b61017f610544565b60405161018c91906115cd565b60405180910390f35b6101af60048036038101906101aa91906115e6565b61054d565b6040516101bc91906115a5565b60405180910390f35b6101cd61057b565b6040516101da9190611651565b60405180910390f35b6101eb610583565b6040516101f891906115cd565b60405180910390f35b61021b6004803603810190610216919061166a565b6105aa565b005b6102256105be565b005b610241600480360381019061023c9190611695565b6106fa565b60405161024e91906115cd565b60405180910390f35b61025f61073f565b005b61027b60048036038101906102769190611558565b610752565b005b610285610772565b60405161029291906116cf565b60405180910390f35b6102a361079a565b6040516102b091906114ab565b60405180910390f35b6102d360048036038101906102ce9190611558565b61082a565b6040516102e091906115a5565b60405180910390f35b61030360048036038101906102fe91906116e8565b61084c565b60405161031091906115cd565b60405180910390f35b610333600480360381019061032e9190611695565b6108ce565b005b61033d610952565b5f600160075461034d9190611753565b90505f73ffffffffffffffffffffffffffffffffffffffff1660065f8381526020019081526020015f205f9054906101000a900473ffffffffffffffffffffffffffffffffffffffff1673ffffffffffffffffffffffffffffffffffffffff16036103ed576040517f08c379a00000000000000000000000000000000000000000000000000000000081526004016103e4906117f6565b60405180910390fd5b5f60065f8381526020019081526020015f205f9054906101000a900473ffffffffffffffffffffffffffffffffffffffff1690508073ffffffffffffffffffffffffffffffffffffffff16630c4960dd8686866040518463ffffffff1660e01b815260040161045e93929190611917565b5f604051808303815f87803b158015610475575f80fd5b505af1158015610487573d5f803e3d5ffd5b505050505050505050565b6060600380546104a190611987565b80601f01602080910402602001604051908101604052809291908181526020018280546104cd90611987565b80156105185780601f106104ef57610100808354040283529160200191610518565b820191905f5260205f20905b8154815290600101906020018083116104fb57829003601f168201915b5050505050905090565b5f8061052c6109d9565b90506105398185856109e0565b600191505092915050565b5f600254905090565b5f806105576109d9565b90506105648582856109f2565b61056f858585610a85565b60019150509392505050565b5f6012905090565b5f7f0000000000000000000000000000000000000000000000000000000000000000905090565b6105bb6105b56109d9565b82610b75565b50565b6105c6610952565b5f73ffffffffffffffffffffffffffffffffffffffff1660065f60075481526020019081526020015f205f9054906101000a900473ffffffffffffffffffffffffffffffffffffffff1673ffffffffffffffffffffffffffffffffffffffff1614610666576040517f08c379a000000000000000000000000000000000000000000000000000000000815260040161065d90611a01565b60405180910390fd5b5f60405161067390611152565b604051809103905ff08015801561068c573d5f803e3d5ffd5b5090508060065f60075481526020019081526020015f205f6101000a81548173ffffffffffffffffffffffffffffffffffffffff021916908373ffffffffffffffffffffffffffffffffffffffff16021790555060075f8154809291906106f290611a1f565b919050555050565b5f805f8373ffffffffffffffffffffffffffffffffffffffff1673ffffffffffffffffffffffffffffffffffffffff1681526020019081526020015f20549050919050565b610747610952565b6107505f610bf4565b565b6107648261075e6109d9565b836109f2565b61076e8282610b75565b5050565b5f60055f9054906101000a900473ffffffffffffffffffffffffffffffffffffffff16905090565b6060600480546107a990611987565b80601f01602080910402602001604051908101604052809291908181526020018280546107d590611987565b80156108205780601f106107f757610100808354040283529160200191610820565b820191905f5260205f20905b81548152906001019060200180831161080357829003601f168201915b5050505050905090565b5f806108346109d9565b9050610841818585610a85565b600191505092915050565b5f60015f8473ffffffffffffffffffffffffffffffffffffffff1673ffffffffffffffffffffffffffffffffffffffff1681526020019081526020015f205f8373ffffffffffffffffffffffffffffffffffffffff1673ffffffffffffffffffffffffffffffffffffffff1681526020019081526020015f2054905092915050565b6108d6610952565b5f73ffffffffffffffffffffffffffffffffffffffff168173ffffffffffffffffffffffffffffffffffffffff1603610946575f6040517f1e4fbdf700000000000000000000000000000000000000000000000000000000815260040161093d91906116cf565b60405180910390fd5b61094f81610bf4565b50565b61095a6109d9565b73ffffffffffffffffffffffffffffffffffffffff16610978610772565b73ffffffffffffffffffffffffffffffffffffffff16146109d75761099b6109d9565b6040517f118cdaa70000000000000000000000000000000000000000000000000000000081526004016109ce91906116cf565b60405180910390fd5b565b5f33905090565b6109ed8383836001610cb7565b505050565b5f6109fd848461084c565b90507fffffffffffffffffffffffffffffffffffffffffffffffffffffffffffffffff811015610a7f5781811015610a70578281836040517ffb8f41b2000000000000000000000000000000000000000000000000000000008152600401610a6793929190611a66565b60405180910390fd5b610a7e84848484035f610cb7565b5b50505050565b5f73ffffffffffffffffffffffffffffffffffffffff168373ffffffffffffffffffffffffffffffffffffffff1603610af5575f6040517f96c6fd1e000000000000000000000000000000000000000000000000000000008152600401610aec91906116cf565b60405180910390fd5b5f73ffffffffffffffffffffffffffffffffffffffff168273ffffffffffffffffffffffffffffffffffffffff1603610b65575f6040517fec442f05000000000000000000000000000000000000000000000000000000008152600401610b5c91906116cf565b60405180910390fd5b610b70838383610e86565b505050565b5f73ffffffffffffffffffffffffffffffffffffffff168273ffffffffffffffffffffffffffffffffffffffff1603610be5575f6040517f96c6fd1e000000000000000000000000000000000000000000000000000000008152600401610bdc91906116cf565b60405180910390fd5b610bf0825f83610e86565b5050565b5f60055f9054906101000a900473ffffffffffffffffffffffffffffffffffffffff1690508160055f6101000a81548173ffffffffffffffffffffffffffffffffffffffff021916908373ffffffffffffffffffffffffffffffffffffffff1602179055508173ffffffffffffffffffffffffffffffffffffffff168173ffffffffffffffffffffffffffffffffffffffff167f8be0079c531659141344cd1fd0a4f28419497f9722a3daafe3b4186f6b6457e060405160405180910390a35050565b5f73ffffffffffffffffffffffffffffffffffffffff168473ffffffffffffffffffffffffffffffffffffffff1603610d27575f6040517fe602df05000000000000000000000000000000000000000000000000000000008152600401610d1e91906116cf565b60405180910390fd5b5f73ffffffffffffffffffffffffffffffffffffffff168373ffffffffffffffffffffffffffffffffffffffff1603610d97575f6040517f94280d62000000000000000000000000000000000000000000000000000000008152600401610d8e91906116cf565b60405180910390fd5b8160015f8673ffffffffffffffffffffffffffffffffffffffff1673ffffffffffffffffffffffffffffffffffffffff1681526020019081526020015f205f8573ffffffffffffffffffffffffffffffffffffffff1673ffffffffffffffffffffffffffffffffffffffff1681526020019081526020015f20819055508015610e80578273ffffffffffffffffffffffffffffffffffffffff168473ffffffffffffffffffffffffffffffffffffffff167f8c5be1e5ebec7d5bd14f71427d1e84f3dd0314c0f7b2291e5b200ac8c7c3b92584604051610e7791906115cd565b60405180910390a35b50505050565b610e91838383610e96565b505050565b610ea1838383610f39565b5f73ffffffffffffffffffffffffffffffffffffffff168373ffffffffffffffffffffffffffffffffffffffff1603610f34575f610edd610583565b90505f610ee8610544565b905081811115610f315780826040517f9e79f854000000000000000000000000000000000000000000000000000000008152600401610f28929190611a9b565b60405180910390fd5b50505b505050565b5f73ffffffffffffffffffffffffffffffffffffffff168373ffffffffffffffffffffffffffffffffffffffff1603610f89578060025f828254610f7d9190611ac2565b92505081905550611057565b5f805f8573ffffffffffffffffffffffffffffffffffffffff1673ffffffffffffffffffffffffffffffffffffffff1681526020019081526020015f2054905081811015611012578381836040517fe450d38c00000000000000000000000000000000000000000000000000000000815260040161100993929190611a66565b60405180910390fd5b8181035f808673ffffffffffffffffffffffffffffffffffffffff1673ffffffffffffffffffffffffffffffffffffffff1681526020019081526020015f2081905550505b5f73ffffffffffffffffffffffffffffffffffffffff168273ffffffffffffffffffffffffffffffffffffffff160361109e578060025f82825403925050819055506110e8565b805f808473ffffffffffffffffffffffffffffffffffffffff1673ffffffffffffffffffffffffffffffffffffffff1681526020019081526020015f205f82825401925050819055505b8173ffffffffffffffffffffffffffffffffffffffff168373ffffffffffffffffffffffffffffffffffffffff167fddf252ad1be2c89b69c2b068fc378daa952ba7f163c4a11628f55a4df523b3ef8360405161114591906115cd565b60405180910390a3505050565b61107d80611af683390190565b5f604051905090565b5f80fd5b5f80fd5b5f80fd5b5f80fd5b5f601f19601f8301169050919050565b7f4e487b71000000000000000000000000000000000000000000000000000000005f52604160045260245ffd5b6111be82611178565b810181811067ffffffffffffffff821117156111dd576111dc611188565b5b80604052505050565b5f6111ef61115f565b90506111fb82826111b5565b919050565b5f67ffffffffffffffff82111561121a57611219611188565b5b61122382611178565b9050602081019050919050565b828183375f83830152505050565b5f61125061124b84611200565b6111e6565b90508281526020810184848401111561126c5761126b611174565b5b611277848285611230565b509392505050565b5f82601f83011261129357611292611170565b5b81356112a384826020860161123e565b91505092915050565b5f67ffffffffffffffff8211156112c6576112c5611188565b5b602082029050602081019050919050565b5f80fd5b5f6112ed6112e8846112ac565b6111e6565b905080838252602082019050602084028301858111156113105761130f6112d7565b5b835b8181101561135757803567ffffffffffffffff81111561133557611334611170565b5b808601611342898261127f565b85526020850194505050602081019050611312565b5050509392505050565b5f82601f83011261137557611374611170565b5b81356113858482602086016112db565b91505092915050565b5f8115159050919050565b6113a28161138e565b81146113ac575f80fd5b50565b5f813590506113bd81611399565b92915050565b5f805f606084860312156113da576113d9611168565b5b5f84013567ffffffffffffffff8111156113f7576113f661116c565b5b6114038682870161127f565b935050602084013567ffffffffffffffff8111156114245761142361116c565b5b61143086828701611361565b9250506040611441868287016113af565b9150509250925092565b5f81519050919050565b5f82825260208201905092915050565b8281835e5f83830152505050565b5f61147d8261144b565b6114878185611455565b9350611497818560208601611465565b6114a081611178565b840191505092915050565b5f6020820190508181035f8301526114c38184611473565b905092915050565b5f73ffffffffffffffffffffffffffffffffffffffff82169050919050565b5f6114f4826114cb565b9050919050565b611504816114ea565b811461150e575f80fd5b50565b5f8135905061151f816114fb565b92915050565b5f819050919050565b61153781611525565b8114611541575f80fd5b50565b5f813590506115528161152e565b92915050565b5f806040838503121561156e5761156d611168565b5b5f61157b85828601611511565b925050602061158c85828601611544565b9150509250929050565b61159f8161138e565b82525050565b5f6020820190506115b85f830184611596565b92915050565b6115c781611525565b82525050565b5f6020820190506115e05f8301846115be565b92915050565b5f805f606084860312156115fd576115fc611168565b5b5f61160a86828701611511565b935050602061161b86828701611511565b925050604061162c86828701611544565b9150509250925092565b5f60ff82169050919050565b61164b81611636565b82525050565b5f6020820190506116645f830184611642565b92915050565b5f6020828403121561167f5761167e611168565b5b5f61168c84828501611544565b91505092915050565b5f602082840312156116aa576116a9611168565b5b5f6116b784828501611511565b91505092915050565b6116c9816114ea565b82525050565b5f6020820190506116e25f8301846116c0565b92915050565b5f80604083850312156116fe576116fd611168565b5b5f61170b85828601611511565b925050602061171c85828601611511565b9150509250929050565b7f4e487b71000000000000000000000000000000000000000000000000000000005f52601160045260245ffd5b5f61175d82611525565b915061176883611525565b92508282039050818111156117805761177f611726565b5b92915050565b7f6c617374657374206372756d6220646f6573206e6f742065786973742e2057685f8201527f6f206174652069743f0000000000000000000000000000000000000000000000602082015250565b5f6117e0602983611455565b91506117eb82611786565b604082019050919050565b5f6020820190508181035f83015261180d816117d4565b9050919050565b5f81519050919050565b5f82825260208201905092915050565b5f819050602082019050919050565b5f82825260208201905092915050565b5f6118578261144b565b611861818561183d565b9350611871818560208601611465565b61187a81611178565b840191505092915050565b5f611890838361184d565b905092915050565b5f602082019050919050565b5f6118ae82611814565b6118b8818561181e565b9350836020820285016118ca8561182e565b805f5b8581101561190557848403895281516118e68582611885565b94506118f183611898565b925060208a019950506001810190506118cd565b50829750879550505050505092915050565b5f6060820190508181035f83015261192f8186611473565b9050818103602083015261194381856118a4565b90506119526040830184611596565b949350505050565b7f4e487b71000000000000000000000000000000000000000000000000000000005f52602260045260245ffd5b5f600282049050600182168061199e57607f821691505b6020821081036119b1576119b061195a565b5b50919050565b7f6372756d6220616c656164792062616b656400000000000000000000000000005f82015250565b5f6119eb601283611455565b91506119f6826119b7565b602082019050919050565b5f6020820190508181035f830152611a18816119df565b9050919050565b5f611a2982611525565b91507fffffffffffffffffffffffffffffffffffffffffffffffffffffffffffffffff8203611a5b57611a5a611726565b5b600182019050919050565b5f606082019050611a795f8301866116c0565b611a8660208301856115be565b611a9360408301846115be565b949350505050565b5f604082019050611aae5f8301856115be565b611abb60208301846115be565b9392505050565b5f611acc82611525565b9150611ad783611525565b9250828201905080821115611aef57611aee611726565b5b9291505056fe6080604052348015600e575f80fd5b506110618061001c5f395ff3fe608060405234801561000f575f80fd5b506004361061003f575f3560e01c80630c4960dd1461004357806386e68b901461005f578063b384abef14610090575b5f80fd5b61005d600480360381019061005891906108c5565b6100ac565b005b61007960048036038101906100749190610980565b6101f0565b604051610087929190610a1a565b60405180910390f35b6100aa60048036038101906100a59190610a48565b6102b0565b005b6002825110156100f1576040517f08c379a00000000000000000000000000000000000000000000000000000000081526004016100e890610ad0565b60405180910390fd5b5f60018160018154018082558091505003905f5260205f209050505f8060015f8054905061011f9190610b1b565b815481106101305761012f610b4e565b5b905f5260205f20906005020190505f835167ffffffffffffffff81111561015a5761015961068a565b5b6040519080825280602002602001820160405280156101885781602001602082028036833780820191505090505b50905084825f01908161019b9190610d75565b50838260010190805190602001906101b4929190610544565b50808260020190805190602001906101cd92919061059b565b5082826003015f6101000a81548160ff0219169083151502179055505050505050565b5f81815481106101fe575f80fd5b905f5260205f2090600502015f91509050805f01805461021d90610ba8565b80601f016020809104026020016040519081016040528092919081815260200182805461024990610ba8565b80156102945780601f1061026b57610100808354040283529160200191610294565b820191905f5260205f20905b81548152906001019060200180831161027757829003601f168201915b505050505090806003015f9054906101000a900460ff16905082565b5f8054905082106102f6576040517f08c379a00000000000000000000000000000000000000000000000000000000081526004016102ed90610e8e565b60405180910390fd5b5f828154811061030957610308610b4e565b5b905f5260205f2090600502016003015f9054906101000a900460ff16610364576040517f08c379a000000000000000000000000000000000000000000000000000000000815260040161035b90610ef6565b60405180910390fd5b5f828154811061037757610376610b4e565b5b905f5260205f2090600502016001018054905081106103cb576040517f08c379a00000000000000000000000000000000000000000000000000000000081526004016103c290610f5e565b60405180910390fd5b5f15155f83815481106103e1576103e0610b4e565b5b905f5260205f2090600502016004015f3373ffffffffffffffffffffffffffffffffffffffff1673ffffffffffffffffffffffffffffffffffffffff1681526020019081526020015f205f9054906101000a900460ff1615151461047a576040517f08c379a000000000000000000000000000000000000000000000000000000000815260040161047190610fc6565b60405180910390fd5b5f828154811061048d5761048c610b4e565b5b905f5260205f20906005020160020181815481106104ae576104ad610b4e565b5b905f5260205f20015f8154809291906104c690610fe4565b919050555060015f83815481106104e0576104df610b4e565b5b905f5260205f2090600502016004015f3373ffffffffffffffffffffffffffffffffffffffff1673ffffffffffffffffffffffffffffffffffffffff1681526020019081526020015f205f6101000a81548160ff0219169083151502179055505050565b828054828255905f5260205f2090810192821561058a579160200282015b828111156105895782518290816105799190610d75565b5091602001919060010190610562565b5b50905061059791906105e6565b5090565b828054828255905f5260205f209081019282156105d5579160200282015b828111156105d45782518255916020019190600101906105b9565b5b5090506105e29190610609565b5090565b5b80821115610605575f81816105fc9190610624565b506001016105e7565b5090565b5b80821115610620575f815f90555060010161060a565b5090565b50805461063090610ba8565b5f825580601f10610641575061065e565b601f0160209004905f5260205f209081019061065d9190610609565b5b50565b5f604051905090565b5f80fd5b5f80fd5b5f80fd5b5f80fd5b5f601f19601f8301169050919050565b7f4e487b71000000000000000000000000000000000000000000000000000000005f52604160045260245ffd5b6106c08261067a565b810181811067ffffffffffffffff821117156106df576106de61068a565b5b80604052505050565b5f6106f1610661565b90506106fd82826106b7565b919050565b5f67ffffffffffffffff82111561071c5761071b61068a565b5b6107258261067a565b9050602081019050919050565b828183375f83830152505050565b5f61075261074d84610702565b6106e8565b90508281526020810184848401111561076e5761076d610676565b5b610779848285610732565b509392505050565b5f82601f83011261079557610794610672565b5b81356107a5848260208601610740565b91505092915050565b5f67ffffffffffffffff8211156107c8576107c761068a565b5b602082029050602081019050919050565b5f80fd5b5f6107ef6107ea846107ae565b6106e8565b90508083825260208201905060208402830185811115610812576108116107d9565b5b835b8181101561085957803567ffffffffffffffff81111561083757610836610672565b5b8086016108448982610781565b85526020850194505050602081019050610814565b5050509392505050565b5f82601f83011261087757610876610672565b5b81356108878482602086016107dd565b91505092915050565b5f8115159050919050565b6108a481610890565b81146108ae575f80fd5b50565b5f813590506108bf8161089b565b92915050565b5f805f606084860312156108dc576108db61066a565b5b5f84013567ffffffffffffffff8111156108f9576108f861066e565b5b61090586828701610781565b935050602084013567ffffffffffffffff8111156109265761092561066e565b5b61093286828701610863565b9250506040610943868287016108b1565b9150509250925092565b5f819050919050565b61095f8161094d565b8114610969575f80fd5b50565b5f8135905061097a81610956565b92915050565b5f602082840312156109955761099461066a565b5b5f6109a28482850161096c565b91505092915050565b5f81519050919050565b5f82825260208201905092915050565b8281835e5f83830152505050565b5f6109dd826109ab565b6109e781856109b5565b93506109f78185602086016109c5565b610a008161067a565b840191505092915050565b610a1481610890565b82525050565b5f6040820190508181035f830152610a3281856109d3565b9050610a416020830184610a0b565b9392505050565b5f8060408385031215610a5e57610a5d61066a565b5b5f610a6b8582860161096c565b9250506020610a7c8582860161096c565b9150509250929050565b7f4174206c656173742032206f7074696f6e7320617265207265717569726564005f82015250565b5f610aba601f836109b5565b9150610ac582610a86565b602082019050919050565b5f6020820190508181035f830152610ae781610aae565b9050919050565b7f4e487b71000000000000000000000000000000000000000000000000000000005f52601160045260245ffd5b5f610b258261094d565b9150610b308361094d565b9250828203905081811115610b4857610b47610aee565b5b92915050565b7f4e487b71000000000000000000000000000000000000000000000000000000005f52603260045260245ffd5b7f4e487b71000000000000000000000000000000000000000000000000000000005f52602260045260245ffd5b5f6002820490506001821680610bbf57607f821691505b602082108103610bd257610bd1610b7b565b5b50919050565b5f819050815f5260205f209050919050565b5f6020601f8301049050919050565b5f82821b905092915050565b5f60088302610c347fffffffffffffffffffffffffffffffffffffffffffffffffffffffffffffffff82610bf9565b610c3e8683610bf9565b95508019841693508086168417925050509392505050565b5f819050919050565b5f610c79610c74610c6f8461094d565b610c56565b61094d565b9050919050565b5f819050919050565b610c9283610c5f565b610ca6610c9e82610c80565b848454610c05565b825550505050565b5f90565b610cba610cae565b610cc5818484610c89565b505050565b5b81811015610ce857610cdd5f82610cb2565b600181019050610ccb565b5050565b601f821115610d2d57610cfe81610bd8565b610d0784610bea565b81016020851015610d16578190505b610d2a610d2285610bea565b830182610cca565b50505b505050565b5f82821c905092915050565b5f610d4d5f1984600802610d32565b1980831691505092915050565b5f610d658383610d3e565b9150826002028217905092915050565b610d7e826109ab565b67ffffffffffffffff811115610d9757610d9661068a565b5b610da18254610ba8565b610dac828285610cec565b5f60209050601f831160018114610ddd575f8415610dcb578287015190505b610dd58582610d5a565b865550610e3c565b601f198416610deb86610bd8565b5f5b82811015610e1257848901518255600182019150602085019450602081019050610ded565b86831015610e2f5784890151610e2b601f891682610d3e565b8355505b6001600288020188555050505b505050505050565b7f53757276657920646f6573206e6f7420657869737400000000000000000000005f82015250565b5f610e786015836109b5565b9150610e8382610e44565b602082019050919050565b5f6020820190508181035f830152610ea581610e6c565b9050919050565b7f537572766579206973206e6f74206163746976650000000000000000000000005f82015250565b5f610ee06014836109b5565b9150610eeb82610eac565b602082019050919050565b5f6020820190508181035f830152610f0d81610ed4565b9050919050565b7f496e76616c6964206f7074696f6e20696e6465780000000000000000000000005f82015250565b5f610f486014836109b5565b9150610f5382610f14565b602082019050919050565b5f6020820190508181035f830152610f7581610f3c565b9050919050565b7f557365722068617320616c726561647920766f746564000000000000000000005f82015250565b5f610fb06016836109b5565b9150610fbb82610f7c565b602082019050919050565b5f6020820190508181035f830152610fdd81610fa4565b9050919050565b5f610fee8261094d565b91507fffffffffffffffffffffffffffffffffffffffffffffffffffffffffffffffff82036110205761101f610aee565b5b60018201905091905056fea264697066735822122079469e527c34dc616dfa0202e2cf64a39d649de4a61f59eb94a155ce7da1457264736f6c634300081a0033a2646970667358221220817d344b1eb6c0078332eaa101f38b8200b932832e300d4ad6945ac71a04f4cf64736f6c634300081a0033",
					"opcodes": "PUSH1 0xA0 PUSH1 0x40 MSTORE PUSH0 PUSH1 0x7 SSTORE PUSH1 0x32 PUSH1 0x8 SSTORE CALLVALUE DUP1 ISZERO PUSH2 0x18 JUMPI PUSH0 DUP1 REVERT JUMPDEST POP CALLER PUSH5 0x174876E800 PUSH1 0x40 MLOAD DUP1 PUSH1 0x40 ADD PUSH1 0x40 MSTORE DUP1 PUSH1 0x6 DUP2 MSTORE PUSH1 0x20 ADD PUSH32 0x536F626F726F0000000000000000000000000000000000000000000000000000 DUP2 MSTORE POP PUSH1 0x40 MLOAD DUP1 PUSH1 0x40 ADD PUSH1 0x40 MSTORE DUP1 PUSH1 0x3 DUP2 MSTORE PUSH1 0x20 ADD PUSH32 0x5342520000000000000000000000000000000000000000000000000000000000 DUP2 MSTORE POP DUP2 PUSH1 0x3 SWAP1 DUP2 PUSH2 0x9B SWAP2 SWAP1 PUSH2 0x80B JUMP JUMPDEST POP DUP1 PUSH1 0x4 SWAP1 DUP2 PUSH2 0xAB SWAP2 SWAP1 PUSH2 0x80B JUMP JUMPDEST POP POP POP PUSH0 DUP2 SUB PUSH2 0xF2 JUMPI PUSH0 PUSH1 0x40 MLOAD PUSH32 0x392E1E2700000000000000000000000000000000000000000000000000000000 DUP2 MSTORE PUSH1 0x4 ADD PUSH2 0xE9 SWAP2 SWAP1 PUSH2 0x913 JUMP JUMPDEST PUSH1 0x40 MLOAD DUP1 SWAP2 SUB SWAP1 REVERT JUMPDEST DUP1 PUSH1 0x80 DUP2 DUP2 MSTORE POP POP POP PUSH0 PUSH20 0xFFFFFFFFFFFFFFFFFFFFFFFFFFFFFFFFFFFFFFFF AND DUP2 PUSH20 0xFFFFFFFFFFFFFFFFFFFFFFFFFFFFFFFFFFFFFFFF AND SUB PUSH2 0x16B JUMPI PUSH0 PUSH1 0x40 MLOAD PUSH32 0x1E4FBDF700000000000000000000000000000000000000000000000000000000 DUP2 MSTORE PUSH1 0x4 ADD PUSH2 0x162 SWAP2 SWAP1 PUSH2 0x96B JUMP JUMPDEST PUSH1 0x40 MLOAD DUP1 SWAP2 SUB SWAP1 REVERT JUMPDEST PUSH2 0x17A DUP2 PUSH2 0x193 PUSH1 0x20 SHL PUSH1 0x20 SHR JUMP JUMPDEST POP PUSH2 0x18E CALLER PUSH3 0x186A0 PUSH2 0x256 PUSH1 0x20 SHL PUSH1 0x20 SHR JUMP JUMPDEST PUSH2 0xA68 JUMP JUMPDEST PUSH0 PUSH1 0x5 PUSH0 SWAP1 SLOAD SWAP1 PUSH2 0x100 EXP SWAP1 DIV PUSH20 0xFFFFFFFFFFFFFFFFFFFFFFFFFFFFFFFFFFFFFFFF AND SWAP1 POP DUP2 PUSH1 0x5 PUSH0 PUSH2 0x100 EXP DUP2 SLOAD DUP2 PUSH20 0xFFFFFFFFFFFFFFFFFFFFFFFFFFFFFFFFFFFFFFFF MUL NOT AND SWAP1 DUP4 PUSH20 0xFFFFFFFFFFFFFFFFFFFFFFFFFFFFFFFFFFFFFFFF AND MUL OR SWAP1 SSTORE POP DUP2 PUSH20 0xFFFFFFFFFFFFFFFFFFFFFFFFFFFFFFFFFFFFFFFF AND DUP2 PUSH20 0xFFFFFFFFFFFFFFFFFFFFFFFFFFFFFFFFFFFFFFFF AND PUSH32 0x8BE0079C531659141344CD1FD0A4F28419497F9722A3DAAFE3B4186F6B6457E0 PUSH1 0x40 MLOAD PUSH1 0x40 MLOAD DUP1 SWAP2 SUB SWAP1 LOG3 POP POP JUMP JUMPDEST PUSH0 PUSH20 0xFFFFFFFFFFFFFFFFFFFFFFFFFFFFFFFFFFFFFFFF AND DUP3 PUSH20 0xFFFFFFFFFFFFFFFFFFFFFFFFFFFFFFFFFFFFFFFF AND SUB PUSH2 0x2C6 JUMPI PUSH0 PUSH1 0x40 MLOAD PUSH32 0xEC442F0500000000000000000000000000000000000000000000000000000000 DUP2 MSTORE PUSH1 0x4 ADD PUSH2 0x2BD SWAP2 SWAP1 PUSH2 0x96B JUMP JUMPDEST PUSH1 0x40 MLOAD DUP1 SWAP2 SUB SWAP1 REVERT JUMPDEST PUSH2 0x2D7 PUSH0 DUP4 DUP4 PUSH2 0x2DB PUSH1 0x20 SHL PUSH1 0x20 SHR JUMP JUMPDEST POP POP JUMP JUMPDEST PUSH2 0x2EC DUP4 DUP4 DUP4 PUSH2 0x2F1 PUSH1 0x20 SHL PUSH1 0x20 SHR JUMP JUMPDEST POP POP POP JUMP JUMPDEST PUSH2 0x302 DUP4 DUP4 DUP4 PUSH2 0x3A6 PUSH1 0x20 SHL PUSH1 0x20 SHR JUMP JUMPDEST PUSH0 PUSH20 0xFFFFFFFFFFFFFFFFFFFFFFFFFFFFFFFFFFFFFFFF AND DUP4 PUSH20 0xFFFFFFFFFFFFFFFFFFFFFFFFFFFFFFFFFFFFFFFF AND SUB PUSH2 0x3A1 JUMPI PUSH0 PUSH2 0x344 PUSH2 0x5BF PUSH1 0x20 SHL PUSH1 0x20 SHR JUMP JUMPDEST SWAP1 POP PUSH0 PUSH2 0x355 PUSH2 0x5C8 PUSH1 0x20 SHL PUSH1 0x20 SHR JUMP JUMPDEST SWAP1 POP DUP2 DUP2 GT ISZERO PUSH2 0x39E JUMPI DUP1 DUP3 PUSH1 0x40 MLOAD PUSH32 0x9E79F85400000000000000000000000000000000000000000000000000000000 DUP2 MSTORE PUSH1 0x4 ADD PUSH2 0x395 SWAP3 SWAP2 SWAP1 PUSH2 0x993 JUMP JUMPDEST PUSH1 0x40 MLOAD DUP1 SWAP2 SUB SWAP1 REVERT JUMPDEST POP POP JUMPDEST POP POP POP JUMP JUMPDEST PUSH0 PUSH20 0xFFFFFFFFFFFFFFFFFFFFFFFFFFFFFFFFFFFFFFFF AND DUP4 PUSH20 0xFFFFFFFFFFFFFFFFFFFFFFFFFFFFFFFFFFFFFFFF AND SUB PUSH2 0x3F6 JUMPI DUP1 PUSH1 0x2 PUSH0 DUP3 DUP3 SLOAD PUSH2 0x3EA SWAP2 SWAP1 PUSH2 0x9E7 JUMP JUMPDEST SWAP3 POP POP DUP2 SWAP1 SSTORE POP PUSH2 0x4C4 JUMP JUMPDEST PUSH0 DUP1 PUSH0 DUP6 PUSH20 0xFFFFFFFFFFFFFFFFFFFFFFFFFFFFFFFFFFFFFFFF AND PUSH20 0xFFFFFFFFFFFFFFFFFFFFFFFFFFFFFFFFFFFFFFFF AND DUP2 MSTORE PUSH1 0x20 ADD SWAP1 DUP2 MSTORE PUSH1 0x20 ADD PUSH0 KECCAK256 SLOAD SWAP1 POP DUP2 DUP2 LT ISZERO PUSH2 0x47F JUMPI DUP4 DUP2 DUP4 PUSH1 0x40 MLOAD PUSH32 0xE450D38C00000000000000000000000000000000000000000000000000000000 DUP2 MSTORE PUSH1 0x4 ADD PUSH2 0x476 SWAP4 SWAP3 SWAP2 SWAP1 PUSH2 0xA1A JUMP JUMPDEST PUSH1 0x40 MLOAD DUP1 SWAP2 SUB SWAP1 REVERT JUMPDEST DUP2 DUP2 SUB PUSH0 DUP1 DUP7 PUSH20 0xFFFFFFFFFFFFFFFFFFFFFFFFFFFFFFFFFFFFFFFF AND PUSH20 0xFFFFFFFFFFFFFFFFFFFFFFFFFFFFFFFFFFFFFFFF AND DUP2 MSTORE PUSH1 0x20 ADD SWAP1 DUP2 MSTORE PUSH1 0x20 ADD PUSH0 KECCAK256 DUP2 SWAP1 SSTORE POP POP JUMPDEST PUSH0 PUSH20 0xFFFFFFFFFFFFFFFFFFFFFFFFFFFFFFFFFFFFFFFF AND DUP3 PUSH20 0xFFFFFFFFFFFFFFFFFFFFFFFFFFFFFFFFFFFFFFFF AND SUB PUSH2 0x50B JUMPI DUP1 PUSH1 0x2 PUSH0 DUP3 DUP3 SLOAD SUB SWAP3 POP POP DUP2 SWAP1 SSTORE POP PUSH2 0x555 JUMP JUMPDEST DUP1 PUSH0 DUP1 DUP5 PUSH20 0xFFFFFFFFFFFFFFFFFFFFFFFFFFFFFFFFFFFFFFFF AND PUSH20 0xFFFFFFFFFFFFFFFFFFFFFFFFFFFFFFFFFFFFFFFF AND DUP2 MSTORE PUSH1 0x20 ADD SWAP1 DUP2 MSTORE PUSH1 0x20 ADD PUSH0 KECCAK256 PUSH0 DUP3 DUP3 SLOAD ADD SWAP3 POP POP DUP2 SWAP1 SSTORE POP JUMPDEST DUP2 PUSH20 0xFFFFFFFFFFFFFFFFFFFFFFFFFFFFFFFFFFFFFFFF AND DUP4 PUSH20 0xFFFFFFFFFFFFFFFFFFFFFFFFFFFFFFFFFFFFFFFF AND PUSH32 0xDDF252AD1BE2C89B69C2B068FC378DAA952BA7F163C4A11628F55A4DF523B3EF DUP4 PUSH1 0x40 MLOAD PUSH2 0x5B2 SWAP2 SWAP1 PUSH2 0xA4F JUMP JUMPDEST PUSH1 0x40 MLOAD DUP1 SWAP2 SUB SWAP1 LOG3 POP POP POP JUMP JUMPDEST PUSH0 PUSH1 0x80 MLOAD SWAP1 POP SWAP1 JUMP JUMPDEST PUSH0 PUSH1 0x2 SLOAD SWAP1 POP SWAP1 JUMP JUMPDEST PUSH0 DUP2 MLOAD SWAP1 POP SWAP2 SWAP1 POP JUMP JUMPDEST PUSH32 0x4E487B7100000000000000000000000000000000000000000000000000000000 PUSH0 MSTORE PUSH1 0x41 PUSH1 0x4 MSTORE PUSH1 0x24 PUSH0 REVERT JUMPDEST PUSH32 0x4E487B7100000000000000000000000000000000000000000000000000000000 PUSH0 MSTORE PUSH1 0x22 PUSH1 0x4 MSTORE PUSH1 0x24 PUSH0 REVERT JUMPDEST PUSH0 PUSH1 0x2 DUP3 DIV SWAP1 POP PUSH1 0x1 DUP3 AND DUP1 PUSH2 0x64C JUMPI PUSH1 0x7F DUP3 AND SWAP2 POP JUMPDEST PUSH1 0x20 DUP3 LT DUP2 SUB PUSH2 0x65F JUMPI PUSH2 0x65E PUSH2 0x608 JUMP JUMPDEST JUMPDEST POP SWAP2 SWAP1 POP JUMP JUMPDEST PUSH0 DUP2 SWAP1 POP DUP2 PUSH0 MSTORE PUSH1 0x20 PUSH0 KECCAK256 SWAP1 POP SWAP2 SWAP1 POP JUMP JUMPDEST PUSH0 PUSH1 0x20 PUSH1 0x1F DUP4 ADD DIV SWAP1 POP SWAP2 SWAP1 POP JUMP JUMPDEST PUSH0 DUP3 DUP3 SHL SWAP1 POP SWAP3 SWAP2 POP POP JUMP JUMPDEST PUSH0 PUSH1 0x8 DUP4 MUL PUSH2 0x6C1 PUSH32 0xFFFFFFFFFFFFFFFFFFFFFFFFFFFFFFFFFFFFFFFFFFFFFFFFFFFFFFFFFFFFFFFF DUP3 PUSH2 0x686 JUMP JUMPDEST PUSH2 0x6CB DUP7 DUP4 PUSH2 0x686 JUMP JUMPDEST SWAP6 POP DUP1 NOT DUP5 AND SWAP4 POP DUP1 DUP7 AND DUP5 OR SWAP3 POP POP POP SWAP4 SWAP3 POP POP POP JUMP JUMPDEST PUSH0 DUP2 SWAP1 POP SWAP2 SWAP1 POP JUMP JUMPDEST PUSH0 DUP2 SWAP1 POP SWAP2 SWAP1 POP JUMP JUMPDEST PUSH0 PUSH2 0x70F PUSH2 0x70A PUSH2 0x705 DUP5 PUSH2 0x6E3 JUMP JUMPDEST PUSH2 0x6EC JUMP JUMPDEST PUSH2 0x6E3 JUMP JUMPDEST SWAP1 POP SWAP2 SWAP1 POP JUMP JUMPDEST PUSH0 DUP2 SWAP1 POP SWAP2 SWAP1 POP JUMP JUMPDEST PUSH2 0x728 DUP4 PUSH2 0x6F5 JUMP JUMPDEST PUSH2 0x73C PUSH2 0x734 DUP3 PUSH2 0x716 JUMP JUMPDEST DUP5 DUP5 SLOAD PUSH2 0x692 JUMP JUMPDEST DUP3 SSTORE POP POP POP POP JUMP JUMPDEST PUSH0 SWAP1 JUMP JUMPDEST PUSH2 0x750 PUSH2 0x744 JUMP JUMPDEST PUSH2 0x75B DUP2 DUP5 DUP5 PUSH2 0x71F JUMP JUMPDEST POP POP POP JUMP JUMPDEST JUMPDEST DUP2 DUP2 LT ISZERO PUSH2 0x77E JUMPI PUSH2 0x773 PUSH0 DUP3 PUSH2 0x748 JUMP JUMPDEST PUSH1 0x1 DUP2 ADD SWAP1 POP PUSH2 0x761 JUMP JUMPDEST POP POP JUMP JUMPDEST PUSH1 0x1F DUP3 GT ISZERO PUSH2 0x7C3 JUMPI PUSH2 0x794 DUP2 PUSH2 0x665 JUMP JUMPDEST PUSH2 0x79D DUP5 PUSH2 0x677 JUMP JUMPDEST DUP2 ADD PUSH1 0x20 DUP6 LT ISZERO PUSH2 0x7AC JUMPI DUP2 SWAP1 POP JUMPDEST PUSH2 0x7C0 PUSH2 0x7B8 DUP6 PUSH2 0x677 JUMP JUMPDEST DUP4 ADD DUP3 PUSH2 0x760 JUMP JUMPDEST POP POP JUMPDEST POP POP POP JUMP JUMPDEST PUSH0 DUP3 DUP3 SHR SWAP1 POP SWAP3 SWAP2 POP POP JUMP JUMPDEST PUSH0 PUSH2 0x7E3 PUSH0 NOT DUP5 PUSH1 0x8 MUL PUSH2 0x7C8 JUMP JUMPDEST NOT DUP1 DUP4 AND SWAP2 POP POP SWAP3 SWAP2 POP POP JUMP JUMPDEST PUSH0 PUSH2 0x7FB DUP4 DUP4 PUSH2 0x7D4 JUMP JUMPDEST SWAP2 POP DUP3 PUSH1 0x2 MUL DUP3 OR SWAP1 POP SWAP3 SWAP2 POP POP JUMP JUMPDEST PUSH2 0x814 DUP3 PUSH2 0x5D1 JUMP JUMPDEST PUSH8 0xFFFFFFFFFFFFFFFF DUP2 GT ISZERO PUSH2 0x82D JUMPI PUSH2 0x82C PUSH2 0x5DB JUMP JUMPDEST JUMPDEST PUSH2 0x837 DUP3 SLOAD PUSH2 0x635 JUMP JUMPDEST PUSH2 0x842 DUP3 DUP3 DUP6 PUSH2 0x782 JUMP JUMPDEST PUSH0 PUSH1 0x20 SWAP1 POP PUSH1 0x1F DUP4 GT PUSH1 0x1 DUP2 EQ PUSH2 0x873 JUMPI PUSH0 DUP5 ISZERO PUSH2 0x861 JUMPI DUP3 DUP8 ADD MLOAD SWAP1 POP JUMPDEST PUSH2 0x86B DUP6 DUP3 PUSH2 0x7F0 JUMP JUMPDEST DUP7 SSTORE POP PUSH2 0x8D2 JUMP JUMPDEST PUSH1 0x1F NOT DUP5 AND PUSH2 0x881 DUP7 PUSH2 0x665 JUMP JUMPDEST PUSH0 JUMPDEST DUP3 DUP2 LT ISZERO PUSH2 0x8A8 JUMPI DUP5 DUP10 ADD MLOAD DUP3 SSTORE PUSH1 0x1 DUP3 ADD SWAP2 POP PUSH1 0x20 DUP6 ADD SWAP5 POP PUSH1 0x20 DUP2 ADD SWAP1 POP PUSH2 0x883 JUMP JUMPDEST DUP7 DUP4 LT ISZERO PUSH2 0x8C5 JUMPI DUP5 DUP10 ADD MLOAD PUSH2 0x8C1 PUSH1 0x1F DUP10 AND DUP3 PUSH2 0x7D4 JUMP JUMPDEST DUP4 SSTORE POP JUMPDEST PUSH1 0x1 PUSH1 0x2 DUP9 MUL ADD DUP9 SSTORE POP POP POP JUMPDEST POP POP POP POP POP POP JUMP JUMPDEST PUSH0 DUP2 SWAP1 POP SWAP2 SWAP1 POP JUMP JUMPDEST PUSH0 PUSH2 0x8FD PUSH2 0x8F8 PUSH2 0x8F3 DUP5 PUSH2 0x8DA JUMP JUMPDEST PUSH2 0x6EC JUMP JUMPDEST PUSH2 0x6E3 JUMP JUMPDEST SWAP1 POP SWAP2 SWAP1 POP JUMP JUMPDEST PUSH2 0x90D DUP2 PUSH2 0x8E3 JUMP JUMPDEST DUP3 MSTORE POP POP JUMP JUMPDEST PUSH0 PUSH1 0x20 DUP3 ADD SWAP1 POP PUSH2 0x926 PUSH0 DUP4 ADD DUP5 PUSH2 0x904 JUMP JUMPDEST SWAP3 SWAP2 POP POP JUMP JUMPDEST PUSH0 PUSH20 0xFFFFFFFFFFFFFFFFFFFFFFFFFFFFFFFFFFFFFFFF DUP3 AND SWAP1 POP SWAP2 SWAP1 POP JUMP JUMPDEST PUSH0 PUSH2 0x955 DUP3 PUSH2 0x92C JUMP JUMPDEST SWAP1 POP SWAP2 SWAP1 POP JUMP JUMPDEST PUSH2 0x965 DUP2 PUSH2 0x94B JUMP JUMPDEST DUP3 MSTORE POP POP JUMP JUMPDEST PUSH0 PUSH1 0x20 DUP3 ADD SWAP1 POP PUSH2 0x97E PUSH0 DUP4 ADD DUP5 PUSH2 0x95C JUMP JUMPDEST SWAP3 SWAP2 POP POP JUMP JUMPDEST PUSH2 0x98D DUP2 PUSH2 0x6E3 JUMP JUMPDEST DUP3 MSTORE POP POP JUMP JUMPDEST PUSH0 PUSH1 0x40 DUP3 ADD SWAP1 POP PUSH2 0x9A6 PUSH0 DUP4 ADD DUP6 PUSH2 0x984 JUMP JUMPDEST PUSH2 0x9B3 PUSH1 0x20 DUP4 ADD DUP5 PUSH2 0x984 JUMP JUMPDEST SWAP4 SWAP3 POP POP POP JUMP JUMPDEST PUSH32 0x4E487B7100000000000000000000000000000000000000000000000000000000 PUSH0 MSTORE PUSH1 0x11 PUSH1 0x4 MSTORE PUSH1 0x24 PUSH0 REVERT JUMPDEST PUSH0 PUSH2 0x9F1 DUP3 PUSH2 0x6E3 JUMP JUMPDEST SWAP2 POP PUSH2 0x9FC DUP4 PUSH2 0x6E3 JUMP JUMPDEST SWAP3 POP DUP3 DUP3 ADD SWAP1 POP DUP1 DUP3 GT ISZERO PUSH2 0xA14 JUMPI PUSH2 0xA13 PUSH2 0x9BA JUMP JUMPDEST JUMPDEST SWAP3 SWAP2 POP POP JUMP JUMPDEST PUSH0 PUSH1 0x60 DUP3 ADD SWAP1 POP PUSH2 0xA2D PUSH0 DUP4 ADD DUP7 PUSH2 0x95C JUMP JUMPDEST PUSH2 0xA3A PUSH1 0x20 DUP4 ADD DUP6 PUSH2 0x984 JUMP JUMPDEST PUSH2 0xA47 PUSH1 0x40 DUP4 ADD DUP5 PUSH2 0x984 JUMP JUMPDEST SWAP5 SWAP4 POP POP POP POP JUMP JUMPDEST PUSH0 PUSH1 0x20 DUP3 ADD SWAP1 POP PUSH2 0xA62 PUSH0 DUP4 ADD DUP5 PUSH2 0x984 JUMP JUMPDEST SWAP3 SWAP2 POP POP JUMP JUMPDEST PUSH1 0x80 MLOAD PUSH2 0x2BA8 PUSH2 0xA80 PUSH0 CODECOPY PUSH0 PUSH2 0x586 ADD MSTORE PUSH2 0x2BA8 PUSH0 RETURN INVALID PUSH1 0x80 PUSH1 0x40 MSTORE CALLVALUE DUP1 ISZERO PUSH2 0xF JUMPI PUSH0 DUP1 REVERT JUMPDEST POP PUSH1 0x4 CALLDATASIZE LT PUSH2 0x109 JUMPI PUSH0 CALLDATALOAD PUSH1 0xE0 SHR DUP1 PUSH4 0x4735C94C GT PUSH2 0xA0 JUMPI DUP1 PUSH4 0x8DA5CB5B GT PUSH2 0x6F JUMPI DUP1 PUSH4 0x8DA5CB5B EQ PUSH2 0x27D JUMPI DUP1 PUSH4 0x95D89B41 EQ PUSH2 0x29B JUMPI DUP1 PUSH4 0xA9059CBB EQ PUSH2 0x2B9 JUMPI DUP1 PUSH4 0xDD62ED3E EQ PUSH2 0x2E9 JUMPI DUP1 PUSH4 0xF2FDE38B EQ PUSH2 0x319 JUMPI PUSH2 0x109 JUMP JUMPDEST DUP1 PUSH4 0x4735C94C EQ PUSH2 0x21D JUMPI DUP1 PUSH4 0x70A08231 EQ PUSH2 0x227 JUMPI DUP1 PUSH4 0x715018A6 EQ PUSH2 0x257 JUMPI DUP1 PUSH4 0x79CC6790 EQ PUSH2 0x261 JUMPI PUSH2 0x109 JUMP JUMPDEST DUP1 PUSH4 0x23B872DD GT PUSH2 0xDC JUMPI DUP1 PUSH4 0x23B872DD EQ PUSH2 0x195 JUMPI DUP1 PUSH4 0x313CE567 EQ PUSH2 0x1C5 JUMPI DUP1 PUSH4 0x355274EA EQ PUSH2 0x1E3 JUMPI DUP1 PUSH4 0x42966C68 EQ PUSH2 0x201 JUMPI PUSH2 0x109 JUMP JUMPDEST DUP1 PUSH4 0x528395E EQ PUSH2 0x10D JUMPI DUP1 PUSH4 0x6FDDE03 EQ PUSH2 0x129 JUMPI DUP1 PUSH4 0x95EA7B3 EQ PUSH2 0x147 JUMPI DUP1 PUSH4 0x18160DDD EQ PUSH2 0x177 JUMPI JUMPDEST PUSH0 DUP1 REVERT JUMPDEST PUSH2 0x127 PUSH1 0x4 DUP1 CALLDATASIZE SUB DUP2 ADD SWAP1 PUSH2 0x122 SWAP2 SWAP1 PUSH2 0x13C3 JUMP JUMPDEST PUSH2 0x335 JUMP JUMPDEST STOP JUMPDEST PUSH2 0x131 PUSH2 0x492 JUMP JUMPDEST PUSH1 0x40 MLOAD PUSH2 0x13E SWAP2 SWAP1 PUSH2 0x14AB JUMP JUMPDEST PUSH1 0x40 MLOAD DUP1 SWAP2 SUB SWAP1 RETURN JUMPDEST PUSH2 0x161 PUSH1 0x4 DUP1 CALLDATASIZE SUB DUP2 ADD SWAP1 PUSH2 0x15C SWAP2 SWAP1 PUSH2 0x1558 JUMP JUMPDEST PUSH2 0x522 JUMP JUMPDEST PUSH1 0x40 MLOAD PUSH2 0x16E SWAP2 SWAP1 PUSH2 0x15A5 JUMP JUMPDEST PUSH1 0x40 MLOAD DUP1 SWAP2 SUB SWAP1 RETURN JUMPDEST PUSH2 0x17F PUSH2 0x544 JUMP JUMPDEST PUSH1 0x40 MLOAD PUSH2 0x18C SWAP2 SWAP1 PUSH2 0x15CD JUMP JUMPDEST PUSH1 0x40 MLOAD DUP1 SWAP2 SUB SWAP1 RETURN JUMPDEST PUSH2 0x1AF PUSH1 0x4 DUP1 CALLDATASIZE SUB DUP2 ADD SWAP1 PUSH2 0x1AA SWAP2 SWAP1 PUSH2 0x15E6 JUMP JUMPDEST PUSH2 0x54D JUMP JUMPDEST PUSH1 0x40 MLOAD PUSH2 0x1BC SWAP2 SWAP1 PUSH2 0x15A5 JUMP JUMPDEST PUSH1 0x40 MLOAD DUP1 SWAP2 SUB SWAP1 RETURN JUMPDEST PUSH2 0x1CD PUSH2 0x57B JUMP JUMPDEST PUSH1 0x40 MLOAD PUSH2 0x1DA SWAP2 SWAP1 PUSH2 0x1651 JUMP JUMPDEST PUSH1 0x40 MLOAD DUP1 SWAP2 SUB SWAP1 RETURN JUMPDEST PUSH2 0x1EB PUSH2 0x583 JUMP JUMPDEST PUSH1 0x40 MLOAD PUSH2 0x1F8 SWAP2 SWAP1 PUSH2 0x15CD JUMP JUMPDEST PUSH1 0x40 MLOAD DUP1 SWAP2 SUB SWAP1 RETURN JUMPDEST PUSH2 0x21B PUSH1 0x4 DUP1 CALLDATASIZE SUB DUP2 ADD SWAP1 PUSH2 0x216 SWAP2 SWAP1 PUSH2 0x166A JUMP JUMPDEST PUSH2 0x5AA JUMP JUMPDEST STOP JUMPDEST PUSH2 0x225 PUSH2 0x5BE JUMP JUMPDEST STOP JUMPDEST PUSH2 0x241 PUSH1 0x4 DUP1 CALLDATASIZE SUB DUP2 ADD SWAP1 PUSH2 0x23C SWAP2 SWAP1 PUSH2 0x1695 JUMP JUMPDEST PUSH2 0x6FA JUMP JUMPDEST PUSH1 0x40 MLOAD PUSH2 0x24E SWAP2 SWAP1 PUSH2 0x15CD JUMP JUMPDEST PUSH1 0x40 MLOAD DUP1 SWAP2 SUB SWAP1 RETURN JUMPDEST PUSH2 0x25F PUSH2 0x73F JUMP JUMPDEST STOP JUMPDEST PUSH2 0x27B PUSH1 0x4 DUP1 CALLDATASIZE SUB DUP2 ADD SWAP1 PUSH2 0x276 SWAP2 SWAP1 PUSH2 0x1558 JUMP JUMPDEST PUSH2 0x752 JUMP JUMPDEST STOP JUMPDEST PUSH2 0x285 PUSH2 0x772 JUMP JUMPDEST PUSH1 0x40 MLOAD PUSH2 0x292 SWAP2 SWAP1 PUSH2 0x16CF JUMP JUMPDEST PUSH1 0x40 MLOAD DUP1 SWAP2 SUB SWAP1 RETURN JUMPDEST PUSH2 0x2A3 PUSH2 0x79A JUMP JUMPDEST PUSH1 0x40 MLOAD PUSH2 0x2B0 SWAP2 SWAP1 PUSH2 0x14AB JUMP JUMPDEST PUSH1 0x40 MLOAD DUP1 SWAP2 SUB SWAP1 RETURN JUMPDEST PUSH2 0x2D3 PUSH1 0x4 DUP1 CALLDATASIZE SUB DUP2 ADD SWAP1 PUSH2 0x2CE SWAP2 SWAP1 PUSH2 0x1558 JUMP JUMPDEST PUSH2 0x82A JUMP JUMPDEST PUSH1 0x40 MLOAD PUSH2 0x2E0 SWAP2 SWAP1 PUSH2 0x15A5 JUMP JUMPDEST PUSH1 0x40 MLOAD DUP1 SWAP2 SUB SWAP1 RETURN JUMPDEST PUSH2 0x303 PUSH1 0x4 DUP1 CALLDATASIZE SUB DUP2 ADD SWAP1 PUSH2 0x2FE SWAP2 SWAP1 PUSH2 0x16E8 JUMP JUMPDEST PUSH2 0x84C JUMP JUMPDEST PUSH1 0x40 MLOAD PUSH2 0x310 SWAP2 SWAP1 PUSH2 0x15CD JUMP JUMPDEST PUSH1 0x40 MLOAD DUP1 SWAP2 SUB SWAP1 RETURN JUMPDEST PUSH2 0x333 PUSH1 0x4 DUP1 CALLDATASIZE SUB DUP2 ADD SWAP1 PUSH2 0x32E SWAP2 SWAP1 PUSH2 0x1695 JUMP JUMPDEST PUSH2 0x8CE JUMP JUMPDEST STOP JUMPDEST PUSH2 0x33D PUSH2 0x952 JUMP JUMPDEST PUSH0 PUSH1 0x1 PUSH1 0x7 SLOAD PUSH2 0x34D SWAP2 SWAP1 PUSH2 0x1753 JUMP JUMPDEST SWAP1 POP PUSH0 PUSH20 0xFFFFFFFFFFFFFFFFFFFFFFFFFFFFFFFFFFFFFFFF AND PUSH1 0x6 PUSH0 DUP4 DUP2 MSTORE PUSH1 0x20 ADD SWAP1 DUP2 MSTORE PUSH1 0x20 ADD PUSH0 KECCAK256 PUSH0 SWAP1 SLOAD SWAP1 PUSH2 0x100 EXP SWAP1 DIV PUSH20 0xFFFFFFFFFFFFFFFFFFFFFFFFFFFFFFFFFFFFFFFF AND PUSH20 0xFFFFFFFFFFFFFFFFFFFFFFFFFFFFFFFFFFFFFFFF AND SUB PUSH2 0x3ED JUMPI PUSH1 0x40 MLOAD PUSH32 0x8C379A000000000000000000000000000000000000000000000000000000000 DUP2 MSTORE PUSH1 0x4 ADD PUSH2 0x3E4 SWAP1 PUSH2 0x17F6 JUMP JUMPDEST PUSH1 0x40 MLOAD DUP1 SWAP2 SUB SWAP1 REVERT JUMPDEST PUSH0 PUSH1 0x6 PUSH0 DUP4 DUP2 MSTORE PUSH1 0x20 ADD SWAP1 DUP2 MSTORE PUSH1 0x20 ADD PUSH0 KECCAK256 PUSH0 SWAP1 SLOAD SWAP1 PUSH2 0x100 EXP SWAP1 DIV PUSH20 0xFFFFFFFFFFFFFFFFFFFFFFFFFFFFFFFFFFFFFFFF AND SWAP1 POP DUP1 PUSH20 0xFFFFFFFFFFFFFFFFFFFFFFFFFFFFFFFFFFFFFFFF AND PUSH4 0xC4960DD DUP7 DUP7 DUP7 PUSH1 0x40 MLOAD DUP5 PUSH4 0xFFFFFFFF AND PUSH1 0xE0 SHL DUP2 MSTORE PUSH1 0x4 ADD PUSH2 0x45E SWAP4 SWAP3 SWAP2 SWAP1 PUSH2 0x1917 JUMP JUMPDEST PUSH0 PUSH1 0x40 MLOAD DUP1 DUP4 SUB DUP2 PUSH0 DUP8 DUP1 EXTCODESIZE ISZERO DUP1 ISZERO PUSH2 0x475 JUMPI PUSH0 DUP1 REVERT JUMPDEST POP GAS CALL ISZERO DUP1 ISZERO PUSH2 0x487 JUMPI RETURNDATASIZE PUSH0 DUP1 RETURNDATACOPY RETURNDATASIZE PUSH0 REVERT JUMPDEST POP POP POP POP POP POP POP POP POP JUMP JUMPDEST PUSH1 0x60 PUSH1 0x3 DUP1 SLOAD PUSH2 0x4A1 SWAP1 PUSH2 0x1987 JUMP JUMPDEST DUP1 PUSH1 0x1F ADD PUSH1 0x20 DUP1 SWAP2 DIV MUL PUSH1 0x20 ADD PUSH1 0x40 MLOAD SWAP1 DUP2 ADD PUSH1 0x40 MSTORE DUP1 SWAP3 SWAP2 SWAP1 DUP2 DUP2 MSTORE PUSH1 0x20 ADD DUP3 DUP1 SLOAD PUSH2 0x4CD SWAP1 PUSH2 0x1987 JUMP JUMPDEST DUP1 ISZERO PUSH2 0x518 JUMPI DUP1 PUSH1 0x1F LT PUSH2 0x4EF JUMPI PUSH2 0x100 DUP1 DUP4 SLOAD DIV MUL DUP4 MSTORE SWAP2 PUSH1 0x20 ADD SWAP2 PUSH2 0x518 JUMP JUMPDEST DUP3 ADD SWAP2 SWAP1 PUSH0 MSTORE PUSH1 0x20 PUSH0 KECCAK256 SWAP1 JUMPDEST DUP2 SLOAD DUP2 MSTORE SWAP1 PUSH1 0x1 ADD SWAP1 PUSH1 0x20 ADD DUP1 DUP4 GT PUSH2 0x4FB JUMPI DUP3 SWAP1 SUB PUSH1 0x1F AND DUP3 ADD SWAP2 JUMPDEST POP POP POP POP POP SWAP1 POP SWAP1 JUMP JUMPDEST PUSH0 DUP1 PUSH2 0x52C PUSH2 0x9D9 JUMP JUMPDEST SWAP1 POP PUSH2 0x539 DUP2 DUP6 DUP6 PUSH2 0x9E0 JUMP JUMPDEST PUSH1 0x1 SWAP2 POP POP SWAP3 SWAP2 POP POP JUMP JUMPDEST PUSH0 PUSH1 0x2 SLOAD SWAP1 POP SWAP1 JUMP JUMPDEST PUSH0 DUP1 PUSH2 0x557 PUSH2 0x9D9 JUMP JUMPDEST SWAP1 POP PUSH2 0x564 DUP6 DUP3 DUP6 PUSH2 0x9F2 JUMP JUMPDEST PUSH2 0x56F DUP6 DUP6 DUP6 PUSH2 0xA85 JUMP JUMPDEST PUSH1 0x1 SWAP2 POP POP SWAP4 SWAP3 POP POP POP JUMP JUMPDEST PUSH0 PUSH1 0x12 SWAP1 POP SWAP1 JUMP JUMPDEST PUSH0 PUSH32 0x0 SWAP1 POP SWAP1 JUMP JUMPDEST PUSH2 0x5BB PUSH2 0x5B5 PUSH2 0x9D9 JUMP JUMPDEST DUP3 PUSH2 0xB75 JUMP JUMPDEST POP JUMP JUMPDEST PUSH2 0x5C6 PUSH2 0x952 JUMP JUMPDEST PUSH0 PUSH20 0xFFFFFFFFFFFFFFFFFFFFFFFFFFFFFFFFFFFFFFFF AND PUSH1 0x6 PUSH0 PUSH1 0x7 SLOAD DUP2 MSTORE PUSH1 0x20 ADD SWAP1 DUP2 MSTORE PUSH1 0x20 ADD PUSH0 KECCAK256 PUSH0 SWAP1 SLOAD SWAP1 PUSH2 0x100 EXP SWAP1 DIV PUSH20 0xFFFFFFFFFFFFFFFFFFFFFFFFFFFFFFFFFFFFFFFF AND PUSH20 0xFFFFFFFFFFFFFFFFFFFFFFFFFFFFFFFFFFFFFFFF AND EQ PUSH2 0x666 JUMPI PUSH1 0x40 MLOAD PUSH32 0x8C379A000000000000000000000000000000000000000000000000000000000 DUP2 MSTORE PUSH1 0x4 ADD PUSH2 0x65D SWAP1 PUSH2 0x1A01 JUMP JUMPDEST PUSH1 0x40 MLOAD DUP1 SWAP2 SUB SWAP1 REVERT JUMPDEST PUSH0 PUSH1 0x40 MLOAD PUSH2 0x673 SWAP1 PUSH2 0x1152 JUMP JUMPDEST PUSH1 0x40 MLOAD DUP1 SWAP2 SUB SWAP1 PUSH0 CREATE DUP1 ISZERO DUP1 ISZERO PUSH2 0x68C JUMPI RETURNDATASIZE PUSH0 DUP1 RETURNDATACOPY RETURNDATASIZE PUSH0 REVERT JUMPDEST POP SWAP1 POP DUP1 PUSH1 0x6 PUSH0 PUSH1 0x7 SLOAD DUP2 MSTORE PUSH1 0x20 ADD SWAP1 DUP2 MSTORE PUSH1 0x20 ADD PUSH0 KECCAK256 PUSH0 PUSH2 0x100 EXP DUP2 SLOAD DUP2 PUSH20 0xFFFFFFFFFFFFFFFFFFFFFFFFFFFFFFFFFFFFFFFF MUL NOT AND SWAP1 DUP4 PUSH20 0xFFFFFFFFFFFFFFFFFFFFFFFFFFFFFFFFFFFFFFFF AND MUL OR SWAP1 SSTORE POP PUSH1 0x7 PUSH0 DUP2 SLOAD DUP1 SWAP3 SWAP2 SWAP1 PUSH2 0x6F2 SWAP1 PUSH2 0x1A1F JUMP JUMPDEST SWAP2 SWAP1 POP SSTORE POP POP JUMP JUMPDEST PUSH0 DUP1 PUSH0 DUP4 PUSH20 0xFFFFFFFFFFFFFFFFFFFFFFFFFFFFFFFFFFFFFFFF AND PUSH20 0xFFFFFFFFFFFFFFFFFFFFFFFFFFFFFFFFFFFFFFFF AND DUP2 MSTORE PUSH1 0x20 ADD SWAP1 DUP2 MSTORE PUSH1 0x20 ADD PUSH0 KECCAK256 SLOAD SWAP1 POP SWAP2 SWAP1 POP JUMP JUMPDEST PUSH2 0x747 PUSH2 0x952 JUMP JUMPDEST PUSH2 0x750 PUSH0 PUSH2 0xBF4 JUMP JUMPDEST JUMP JUMPDEST PUSH2 0x764 DUP3 PUSH2 0x75E PUSH2 0x9D9 JUMP JUMPDEST DUP4 PUSH2 0x9F2 JUMP JUMPDEST PUSH2 0x76E DUP3 DUP3 PUSH2 0xB75 JUMP JUMPDEST POP POP JUMP JUMPDEST PUSH0 PUSH1 0x5 PUSH0 SWAP1 SLOAD SWAP1 PUSH2 0x100 EXP SWAP1 DIV PUSH20 0xFFFFFFFFFFFFFFFFFFFFFFFFFFFFFFFFFFFFFFFF AND SWAP1 POP SWAP1 JUMP JUMPDEST PUSH1 0x60 PUSH1 0x4 DUP1 SLOAD PUSH2 0x7A9 SWAP1 PUSH2 0x1987 JUMP JUMPDEST DUP1 PUSH1 0x1F ADD PUSH1 0x20 DUP1 SWAP2 DIV MUL PUSH1 0x20 ADD PUSH1 0x40 MLOAD SWAP1 DUP2 ADD PUSH1 0x40 MSTORE DUP1 SWAP3 SWAP2 SWAP1 DUP2 DUP2 MSTORE PUSH1 0x20 ADD DUP3 DUP1 SLOAD PUSH2 0x7D5 SWAP1 PUSH2 0x1987 JUMP JUMPDEST DUP1 ISZERO PUSH2 0x820 JUMPI DUP1 PUSH1 0x1F LT PUSH2 0x7F7 JUMPI PUSH2 0x100 DUP1 DUP4 SLOAD DIV MUL DUP4 MSTORE SWAP2 PUSH1 0x20 ADD SWAP2 PUSH2 0x820 JUMP JUMPDEST DUP3 ADD SWAP2 SWAP1 PUSH0 MSTORE PUSH1 0x20 PUSH0 KECCAK256 SWAP1 JUMPDEST DUP2 SLOAD DUP2 MSTORE SWAP1 PUSH1 0x1 ADD SWAP1 PUSH1 0x20 ADD DUP1 DUP4 GT PUSH2 0x803 JUMPI DUP3 SWAP1 SUB PUSH1 0x1F AND DUP3 ADD SWAP2 JUMPDEST POP POP POP POP POP SWAP1 POP SWAP1 JUMP JUMPDEST PUSH0 DUP1 PUSH2 0x834 PUSH2 0x9D9 JUMP JUMPDEST SWAP1 POP PUSH2 0x841 DUP2 DUP6 DUP6 PUSH2 0xA85 JUMP JUMPDEST PUSH1 0x1 SWAP2 POP POP SWAP3 SWAP2 POP POP JUMP JUMPDEST PUSH0 PUSH1 0x1 PUSH0 DUP5 PUSH20 0xFFFFFFFFFFFFFFFFFFFFFFFFFFFFFFFFFFFFFFFF AND PUSH20 0xFFFFFFFFFFFFFFFFFFFFFFFFFFFFFFFFFFFFFFFF AND DUP2 MSTORE PUSH1 0x20 ADD SWAP1 DUP2 MSTORE PUSH1 0x20 ADD PUSH0 KECCAK256 PUSH0 DUP4 PUSH20 0xFFFFFFFFFFFFFFFFFFFFFFFFFFFFFFFFFFFFFFFF AND PUSH20 0xFFFFFFFFFFFFFFFFFFFFFFFFFFFFFFFFFFFFFFFF AND DUP2 MSTORE PUSH1 0x20 ADD SWAP1 DUP2 MSTORE PUSH1 0x20 ADD PUSH0 KECCAK256 SLOAD SWAP1 POP SWAP3 SWAP2 POP POP JUMP JUMPDEST PUSH2 0x8D6 PUSH2 0x952 JUMP JUMPDEST PUSH0 PUSH20 0xFFFFFFFFFFFFFFFFFFFFFFFFFFFFFFFFFFFFFFFF AND DUP2 PUSH20 0xFFFFFFFFFFFFFFFFFFFFFFFFFFFFFFFFFFFFFFFF AND SUB PUSH2 0x946 JUMPI PUSH0 PUSH1 0x40 MLOAD PUSH32 0x1E4FBDF700000000000000000000000000000000000000000000000000000000 DUP2 MSTORE PUSH1 0x4 ADD PUSH2 0x93D SWAP2 SWAP1 PUSH2 0x16CF JUMP JUMPDEST PUSH1 0x40 MLOAD DUP1 SWAP2 SUB SWAP1 REVERT JUMPDEST PUSH2 0x94F DUP2 PUSH2 0xBF4 JUMP JUMPDEST POP JUMP JUMPDEST PUSH2 0x95A PUSH2 0x9D9 JUMP JUMPDEST PUSH20 0xFFFFFFFFFFFFFFFFFFFFFFFFFFFFFFFFFFFFFFFF AND PUSH2 0x978 PUSH2 0x772 JUMP JUMPDEST PUSH20 0xFFFFFFFFFFFFFFFFFFFFFFFFFFFFFFFFFFFFFFFF AND EQ PUSH2 0x9D7 JUMPI PUSH2 0x99B PUSH2 0x9D9 JUMP JUMPDEST PUSH1 0x40 MLOAD PUSH32 0x118CDAA700000000000000000000000000000000000000000000000000000000 DUP2 MSTORE PUSH1 0x4 ADD PUSH2 0x9CE SWAP2 SWAP1 PUSH2 0x16CF JUMP JUMPDEST PUSH1 0x40 MLOAD DUP1 SWAP2 SUB SWAP1 REVERT JUMPDEST JUMP JUMPDEST PUSH0 CALLER SWAP1 POP SWAP1 JUMP JUMPDEST PUSH2 0x9ED DUP4 DUP4 DUP4 PUSH1 0x1 PUSH2 0xCB7 JUMP JUMPDEST POP POP POP JUMP JUMPDEST PUSH0 PUSH2 0x9FD DUP5 DUP5 PUSH2 0x84C JUMP JUMPDEST SWAP1 POP PUSH32 0xFFFFFFFFFFFFFFFFFFFFFFFFFFFFFFFFFFFFFFFFFFFFFFFFFFFFFFFFFFFFFFFF DUP2 LT ISZERO PUSH2 0xA7F JUMPI DUP2 DUP2 LT ISZERO PUSH2 0xA70 JUMPI DUP3 DUP2 DUP4 PUSH1 0x40 MLOAD PUSH32 0xFB8F41B200000000000000000000000000000000000000000000000000000000 DUP2 MSTORE PUSH1 0x4 ADD PUSH2 0xA67 SWAP4 SWAP3 SWAP2 SWAP1 PUSH2 0x1A66 JUMP JUMPDEST PUSH1 0x40 MLOAD DUP1 SWAP2 SUB SWAP1 REVERT JUMPDEST PUSH2 0xA7E DUP5 DUP5 DUP5 DUP5 SUB PUSH0 PUSH2 0xCB7 JUMP JUMPDEST JUMPDEST POP POP POP POP JUMP JUMPDEST PUSH0 PUSH20 0xFFFFFFFFFFFFFFFFFFFFFFFFFFFFFFFFFFFFFFFF AND DUP4 PUSH20 0xFFFFFFFFFFFFFFFFFFFFFFFFFFFFFFFFFFFFFFFF AND SUB PUSH2 0xAF5 JUMPI PUSH0 PUSH1 0x40 MLOAD PUSH32 0x96C6FD1E00000000000000000000000000000000000000000000000000000000 DUP2 MSTORE PUSH1 0x4 ADD PUSH2 0xAEC SWAP2 SWAP1 PUSH2 0x16CF JUMP JUMPDEST PUSH1 0x40 MLOAD DUP1 SWAP2 SUB SWAP1 REVERT JUMPDEST PUSH0 PUSH20 0xFFFFFFFFFFFFFFFFFFFFFFFFFFFFFFFFFFFFFFFF AND DUP3 PUSH20 0xFFFFFFFFFFFFFFFFFFFFFFFFFFFFFFFFFFFFFFFF AND SUB PUSH2 0xB65 JUMPI PUSH0 PUSH1 0x40 MLOAD PUSH32 0xEC442F0500000000000000000000000000000000000000000000000000000000 DUP2 MSTORE PUSH1 0x4 ADD PUSH2 0xB5C SWAP2 SWAP1 PUSH2 0x16CF JUMP JUMPDEST PUSH1 0x40 MLOAD DUP1 SWAP2 SUB SWAP1 REVERT JUMPDEST PUSH2 0xB70 DUP4 DUP4 DUP4 PUSH2 0xE86 JUMP JUMPDEST POP POP POP JUMP JUMPDEST PUSH0 PUSH20 0xFFFFFFFFFFFFFFFFFFFFFFFFFFFFFFFFFFFFFFFF AND DUP3 PUSH20 0xFFFFFFFFFFFFFFFFFFFFFFFFFFFFFFFFFFFFFFFF AND SUB PUSH2 0xBE5 JUMPI PUSH0 PUSH1 0x40 MLOAD PUSH32 0x96C6FD1E00000000000000000000000000000000000000000000000000000000 DUP2 MSTORE PUSH1 0x4 ADD PUSH2 0xBDC SWAP2 SWAP1 PUSH2 0x16CF JUMP JUMPDEST PUSH1 0x40 MLOAD DUP1 SWAP2 SUB SWAP1 REVERT JUMPDEST PUSH2 0xBF0 DUP3 PUSH0 DUP4 PUSH2 0xE86 JUMP JUMPDEST POP POP JUMP JUMPDEST PUSH0 PUSH1 0x5 PUSH0 SWAP1 SLOAD SWAP1 PUSH2 0x100 EXP SWAP1 DIV PUSH20 0xFFFFFFFFFFFFFFFFFFFFFFFFFFFFFFFFFFFFFFFF AND SWAP1 POP DUP2 PUSH1 0x5 PUSH0 PUSH2 0x100 EXP DUP2 SLOAD DUP2 PUSH20 0xFFFFFFFFFFFFFFFFFFFFFFFFFFFFFFFFFFFFFFFF MUL NOT AND SWAP1 DUP4 PUSH20 0xFFFFFFFFFFFFFFFFFFFFFFFFFFFFFFFFFFFFFFFF AND MUL OR SWAP1 SSTORE POP DUP2 PUSH20 0xFFFFFFFFFFFFFFFFFFFFFFFFFFFFFFFFFFFFFFFF AND DUP2 PUSH20 0xFFFFFFFFFFFFFFFFFFFFFFFFFFFFFFFFFFFFFFFF AND PUSH32 0x8BE0079C531659141344CD1FD0A4F28419497F9722A3DAAFE3B4186F6B6457E0 PUSH1 0x40 MLOAD PUSH1 0x40 MLOAD DUP1 SWAP2 SUB SWAP1 LOG3 POP POP JUMP JUMPDEST PUSH0 PUSH20 0xFFFFFFFFFFFFFFFFFFFFFFFFFFFFFFFFFFFFFFFF AND DUP5 PUSH20 0xFFFFFFFFFFFFFFFFFFFFFFFFFFFFFFFFFFFFFFFF AND SUB PUSH2 0xD27 JUMPI PUSH0 PUSH1 0x40 MLOAD PUSH32 0xE602DF0500000000000000000000000000000000000000000000000000000000 DUP2 MSTORE PUSH1 0x4 ADD PUSH2 0xD1E SWAP2 SWAP1 PUSH2 0x16CF JUMP JUMPDEST PUSH1 0x40 MLOAD DUP1 SWAP2 SUB SWAP1 REVERT JUMPDEST PUSH0 PUSH20 0xFFFFFFFFFFFFFFFFFFFFFFFFFFFFFFFFFFFFFFFF AND DUP4 PUSH20 0xFFFFFFFFFFFFFFFFFFFFFFFFFFFFFFFFFFFFFFFF AND SUB PUSH2 0xD97 JUMPI PUSH0 PUSH1 0x40 MLOAD PUSH32 0x94280D6200000000000000000000000000000000000000000000000000000000 DUP2 MSTORE PUSH1 0x4 ADD PUSH2 0xD8E SWAP2 SWAP1 PUSH2 0x16CF JUMP JUMPDEST PUSH1 0x40 MLOAD DUP1 SWAP2 SUB SWAP1 REVERT JUMPDEST DUP2 PUSH1 0x1 PUSH0 DUP7 PUSH20 0xFFFFFFFFFFFFFFFFFFFFFFFFFFFFFFFFFFFFFFFF AND PUSH20 0xFFFFFFFFFFFFFFFFFFFFFFFFFFFFFFFFFFFFFFFF AND DUP2 MSTORE PUSH1 0x20 ADD SWAP1 DUP2 MSTORE PUSH1 0x20 ADD PUSH0 KECCAK256 PUSH0 DUP6 PUSH20 0xFFFFFFFFFFFFFFFFFFFFFFFFFFFFFFFFFFFFFFFF AND PUSH20 0xFFFFFFFFFFFFFFFFFFFFFFFFFFFFFFFFFFFFFFFF AND DUP2 MSTORE PUSH1 0x20 ADD SWAP1 DUP2 MSTORE PUSH1 0x20 ADD PUSH0 KECCAK256 DUP2 SWAP1 SSTORE POP DUP1 ISZERO PUSH2 0xE80 JUMPI DUP3 PUSH20 0xFFFFFFFFFFFFFFFFFFFFFFFFFFFFFFFFFFFFFFFF AND DUP5 PUSH20 0xFFFFFFFFFFFFFFFFFFFFFFFFFFFFFFFFFFFFFFFF AND PUSH32 0x8C5BE1E5EBEC7D5BD14F71427D1E84F3DD0314C0F7B2291E5B200AC8C7C3B925 DUP5 PUSH1 0x40 MLOAD PUSH2 0xE77 SWAP2 SWAP1 PUSH2 0x15CD JUMP JUMPDEST PUSH1 0x40 MLOAD DUP1 SWAP2 SUB SWAP1 LOG3 JUMPDEST POP POP POP POP JUMP JUMPDEST PUSH2 0xE91 DUP4 DUP4 DUP4 PUSH2 0xE96 JUMP JUMPDEST POP POP POP JUMP JUMPDEST PUSH2 0xEA1 DUP4 DUP4 DUP4 PUSH2 0xF39 JUMP JUMPDEST PUSH0 PUSH20 0xFFFFFFFFFFFFFFFFFFFFFFFFFFFFFFFFFFFFFFFF AND DUP4 PUSH20 0xFFFFFFFFFFFFFFFFFFFFFFFFFFFFFFFFFFFFFFFF AND SUB PUSH2 0xF34 JUMPI PUSH0 PUSH2 0xEDD PUSH2 0x583 JUMP JUMPDEST SWAP1 POP PUSH0 PUSH2 0xEE8 PUSH2 0x544 JUMP JUMPDEST SWAP1 POP DUP2 DUP2 GT ISZERO PUSH2 0xF31 JUMPI DUP1 DUP3 PUSH1 0x40 MLOAD PUSH32 0x9E79F85400000000000000000000000000000000000000000000000000000000 DUP2 MSTORE PUSH1 0x4 ADD PUSH2 0xF28 SWAP3 SWAP2 SWAP1 PUSH2 0x1A9B JUMP JUMPDEST PUSH1 0x40 MLOAD DUP1 SWAP2 SUB SWAP1 REVERT JUMPDEST POP POP JUMPDEST POP POP POP JUMP JUMPDEST PUSH0 PUSH20 0xFFFFFFFFFFFFFFFFFFFFFFFFFFFFFFFFFFFFFFFF AND DUP4 PUSH20 0xFFFFFFFFFFFFFFFFFFFFFFFFFFFFFFFFFFFFFFFF AND SUB PUSH2 0xF89 JUMPI DUP1 PUSH1 0x2 PUSH0 DUP3 DUP3 SLOAD PUSH2 0xF7D SWAP2 SWAP1 PUSH2 0x1AC2 JUMP JUMPDEST SWAP3 POP POP DUP2 SWAP1 SSTORE POP PUSH2 0x1057 JUMP JUMPDEST PUSH0 DUP1 PUSH0 DUP6 PUSH20 0xFFFFFFFFFFFFFFFFFFFFFFFFFFFFFFFFFFFFFFFF AND PUSH20 0xFFFFFFFFFFFFFFFFFFFFFFFFFFFFFFFFFFFFFFFF AND DUP2 MSTORE PUSH1 0x20 ADD SWAP1 DUP2 MSTORE PUSH1 0x20 ADD PUSH0 KECCAK256 SLOAD SWAP1 POP DUP2 DUP2 LT ISZERO PUSH2 0x1012 JUMPI DUP4 DUP2 DUP4 PUSH1 0x40 MLOAD PUSH32 0xE450D38C00000000000000000000000000000000000000000000000000000000 DUP2 MSTORE PUSH1 0x4 ADD PUSH2 0x1009 SWAP4 SWAP3 SWAP2 SWAP1 PUSH2 0x1A66 JUMP JUMPDEST PUSH1 0x40 MLOAD DUP1 SWAP2 SUB SWAP1 REVERT JUMPDEST DUP2 DUP2 SUB PUSH0 DUP1 DUP7 PUSH20 0xFFFFFFFFFFFFFFFFFFFFFFFFFFFFFFFFFFFFFFFF AND PUSH20 0xFFFFFFFFFFFFFFFFFFFFFFFFFFFFFFFFFFFFFFFF AND DUP2 MSTORE PUSH1 0x20 ADD SWAP1 DUP2 MSTORE PUSH1 0x20 ADD PUSH0 KECCAK256 DUP2 SWAP1 SSTORE POP POP JUMPDEST PUSH0 PUSH20 0xFFFFFFFFFFFFFFFFFFFFFFFFFFFFFFFFFFFFFFFF AND DUP3 PUSH20 0xFFFFFFFFFFFFFFFFFFFFFFFFFFFFFFFFFFFFFFFF AND SUB PUSH2 0x109E JUMPI DUP1 PUSH1 0x2 PUSH0 DUP3 DUP3 SLOAD SUB SWAP3 POP POP DUP2 SWAP1 SSTORE POP PUSH2 0x10E8 JUMP JUMPDEST DUP1 PUSH0 DUP1 DUP5 PUSH20 0xFFFFFFFFFFFFFFFFFFFFFFFFFFFFFFFFFFFFFFFF AND PUSH20 0xFFFFFFFFFFFFFFFFFFFFFFFFFFFFFFFFFFFFFFFF AND DUP2 MSTORE PUSH1 0x20 ADD SWAP1 DUP2 MSTORE PUSH1 0x20 ADD PUSH0 KECCAK256 PUSH0 DUP3 DUP3 SLOAD ADD SWAP3 POP POP DUP2 SWAP1 SSTORE POP JUMPDEST DUP2 PUSH20 0xFFFFFFFFFFFFFFFFFFFFFFFFFFFFFFFFFFFFFFFF AND DUP4 PUSH20 0xFFFFFFFFFFFFFFFFFFFFFFFFFFFFFFFFFFFFFFFF AND PUSH32 0xDDF252AD1BE2C89B69C2B068FC378DAA952BA7F163C4A11628F55A4DF523B3EF DUP4 PUSH1 0x40 MLOAD PUSH2 0x1145 SWAP2 SWAP1 PUSH2 0x15CD JUMP JUMPDEST PUSH1 0x40 MLOAD DUP1 SWAP2 SUB SWAP1 LOG3 POP POP POP JUMP JUMPDEST PUSH2 0x107D DUP1 PUSH2 0x1AF6 DUP4 CODECOPY ADD SWAP1 JUMP JUMPDEST PUSH0 PUSH1 0x40 MLOAD SWAP1 POP SWAP1 JUMP JUMPDEST PUSH0 DUP1 REVERT JUMPDEST PUSH0 DUP1 REVERT JUMPDEST PUSH0 DUP1 REVERT JUMPDEST PUSH0 DUP1 REVERT JUMPDEST PUSH0 PUSH1 0x1F NOT PUSH1 0x1F DUP4 ADD AND SWAP1 POP SWAP2 SWAP1 POP JUMP JUMPDEST PUSH32 0x4E487B7100000000000000000000000000000000000000000000000000000000 PUSH0 MSTORE PUSH1 0x41 PUSH1 0x4 MSTORE PUSH1 0x24 PUSH0 REVERT JUMPDEST PUSH2 0x11BE DUP3 PUSH2 0x1178 JUMP JUMPDEST DUP2 ADD DUP2 DUP2 LT PUSH8 0xFFFFFFFFFFFFFFFF DUP3 GT OR ISZERO PUSH2 0x11DD JUMPI PUSH2 0x11DC PUSH2 0x1188 JUMP JUMPDEST JUMPDEST DUP1 PUSH1 0x40 MSTORE POP POP POP JUMP JUMPDEST PUSH0 PUSH2 0x11EF PUSH2 0x115F JUMP JUMPDEST SWAP1 POP PUSH2 0x11FB DUP3 DUP3 PUSH2 0x11B5 JUMP JUMPDEST SWAP2 SWAP1 POP JUMP JUMPDEST PUSH0 PUSH8 0xFFFFFFFFFFFFFFFF DUP3 GT ISZERO PUSH2 0x121A JUMPI PUSH2 0x1219 PUSH2 0x1188 JUMP JUMPDEST JUMPDEST PUSH2 0x1223 DUP3 PUSH2 0x1178 JUMP JUMPDEST SWAP1 POP PUSH1 0x20 DUP2 ADD SWAP1 POP SWAP2 SWAP1 POP JUMP JUMPDEST DUP3 DUP2 DUP4 CALLDATACOPY PUSH0 DUP4 DUP4 ADD MSTORE POP POP POP JUMP JUMPDEST PUSH0 PUSH2 0x1250 PUSH2 0x124B DUP5 PUSH2 0x1200 JUMP JUMPDEST PUSH2 0x11E6 JUMP JUMPDEST SWAP1 POP DUP3 DUP2 MSTORE PUSH1 0x20 DUP2 ADD DUP5 DUP5 DUP5 ADD GT ISZERO PUSH2 0x126C JUMPI PUSH2 0x126B PUSH2 0x1174 JUMP JUMPDEST JUMPDEST PUSH2 0x1277 DUP5 DUP3 DUP6 PUSH2 0x1230 JUMP JUMPDEST POP SWAP4 SWAP3 POP POP POP JUMP JUMPDEST PUSH0 DUP3 PUSH1 0x1F DUP4 ADD SLT PUSH2 0x1293 JUMPI PUSH2 0x1292 PUSH2 0x1170 JUMP JUMPDEST JUMPDEST DUP2 CALLDATALOAD PUSH2 0x12A3 DUP5 DUP3 PUSH1 0x20 DUP7 ADD PUSH2 0x123E JUMP JUMPDEST SWAP2 POP POP SWAP3 SWAP2 POP POP JUMP JUMPDEST PUSH0 PUSH8 0xFFFFFFFFFFFFFFFF DUP3 GT ISZERO PUSH2 0x12C6 JUMPI PUSH2 0x12C5 PUSH2 0x1188 JUMP JUMPDEST JUMPDEST PUSH1 0x20 DUP3 MUL SWAP1 POP PUSH1 0x20 DUP2 ADD SWAP1 POP SWAP2 SWAP1 POP JUMP JUMPDEST PUSH0 DUP1 REVERT JUMPDEST PUSH0 PUSH2 0x12ED PUSH2 0x12E8 DUP5 PUSH2 0x12AC JUMP JUMPDEST PUSH2 0x11E6 JUMP JUMPDEST SWAP1 POP DUP1 DUP4 DUP3 MSTORE PUSH1 0x20 DUP3 ADD SWAP1 POP PUSH1 0x20 DUP5 MUL DUP4 ADD DUP6 DUP2 GT ISZERO PUSH2 0x1310 JUMPI PUSH2 0x130F PUSH2 0x12D7 JUMP JUMPDEST JUMPDEST DUP4 JUMPDEST DUP2 DUP2 LT ISZERO PUSH2 0x1357 JUMPI DUP1 CALLDATALOAD PUSH8 0xFFFFFFFFFFFFFFFF DUP2 GT ISZERO PUSH2 0x1335 JUMPI PUSH2 0x1334 PUSH2 0x1170 JUMP JUMPDEST JUMPDEST DUP1 DUP7 ADD PUSH2 0x1342 DUP10 DUP3 PUSH2 0x127F JUMP JUMPDEST DUP6 MSTORE PUSH1 0x20 DUP6 ADD SWAP5 POP POP POP PUSH1 0x20 DUP2 ADD SWAP1 POP PUSH2 0x1312 JUMP JUMPDEST POP POP POP SWAP4 SWAP3 POP POP POP JUMP JUMPDEST PUSH0 DUP3 PUSH1 0x1F DUP4 ADD SLT PUSH2 0x1375 JUMPI PUSH2 0x1374 PUSH2 0x1170 JUMP JUMPDEST JUMPDEST DUP2 CALLDATALOAD PUSH2 0x1385 DUP5 DUP3 PUSH1 0x20 DUP7 ADD PUSH2 0x12DB JUMP JUMPDEST SWAP2 POP POP SWAP3 SWAP2 POP POP JUMP JUMPDEST PUSH0 DUP2 ISZERO ISZERO SWAP1 POP SWAP2 SWAP1 POP JUMP JUMPDEST PUSH2 0x13A2 DUP2 PUSH2 0x138E JUMP JUMPDEST DUP2 EQ PUSH2 0x13AC JUMPI PUSH0 DUP1 REVERT JUMPDEST POP JUMP JUMPDEST PUSH0 DUP2 CALLDATALOAD SWAP1 POP PUSH2 0x13BD DUP2 PUSH2 0x1399 JUMP JUMPDEST SWAP3 SWAP2 POP POP JUMP JUMPDEST PUSH0 DUP1 PUSH0 PUSH1 0x60 DUP5 DUP7 SUB SLT ISZERO PUSH2 0x13DA JUMPI PUSH2 0x13D9 PUSH2 0x1168 JUMP JUMPDEST JUMPDEST PUSH0 DUP5 ADD CALLDATALOAD PUSH8 0xFFFFFFFFFFFFFFFF DUP2 GT ISZERO PUSH2 0x13F7 JUMPI PUSH2 0x13F6 PUSH2 0x116C JUMP JUMPDEST JUMPDEST PUSH2 0x1403 DUP7 DUP3 DUP8 ADD PUSH2 0x127F JUMP JUMPDEST SWAP4 POP POP PUSH1 0x20 DUP5 ADD CALLDATALOAD PUSH8 0xFFFFFFFFFFFFFFFF DUP2 GT ISZERO PUSH2 0x1424 JUMPI PUSH2 0x1423 PUSH2 0x116C JUMP JUMPDEST JUMPDEST PUSH2 0x1430 DUP7 DUP3 DUP8 ADD PUSH2 0x1361 JUMP JUMPDEST SWAP3 POP POP PUSH1 0x40 PUSH2 0x1441 DUP7 DUP3 DUP8 ADD PUSH2 0x13AF JUMP JUMPDEST SWAP2 POP POP SWAP3 POP SWAP3 POP SWAP3 JUMP JUMPDEST PUSH0 DUP2 MLOAD SWAP1 POP SWAP2 SWAP1 POP JUMP JUMPDEST PUSH0 DUP3 DUP3 MSTORE PUSH1 0x20 DUP3 ADD SWAP1 POP SWAP3 SWAP2 POP POP JUMP JUMPDEST DUP3 DUP2 DUP4 MCOPY PUSH0 DUP4 DUP4 ADD MSTORE POP POP POP JUMP JUMPDEST PUSH0 PUSH2 0x147D DUP3 PUSH2 0x144B JUMP JUMPDEST PUSH2 0x1487 DUP2 DUP6 PUSH2 0x1455 JUMP JUMPDEST SWAP4 POP PUSH2 0x1497 DUP2 DUP6 PUSH1 0x20 DUP7 ADD PUSH2 0x1465 JUMP JUMPDEST PUSH2 0x14A0 DUP2 PUSH2 0x1178 JUMP JUMPDEST DUP5 ADD SWAP2 POP POP SWAP3 SWAP2 POP POP JUMP JUMPDEST PUSH0 PUSH1 0x20 DUP3 ADD SWAP1 POP DUP2 DUP2 SUB PUSH0 DUP4 ADD MSTORE PUSH2 0x14C3 DUP2 DUP5 PUSH2 0x1473 JUMP JUMPDEST SWAP1 POP SWAP3 SWAP2 POP POP JUMP JUMPDEST PUSH0 PUSH20 0xFFFFFFFFFFFFFFFFFFFFFFFFFFFFFFFFFFFFFFFF DUP3 AND SWAP1 POP SWAP2 SWAP1 POP JUMP JUMPDEST PUSH0 PUSH2 0x14F4 DUP3 PUSH2 0x14CB JUMP JUMPDEST SWAP1 POP SWAP2 SWAP1 POP JUMP JUMPDEST PUSH2 0x1504 DUP2 PUSH2 0x14EA JUMP JUMPDEST DUP2 EQ PUSH2 0x150E JUMPI PUSH0 DUP1 REVERT JUMPDEST POP JUMP JUMPDEST PUSH0 DUP2 CALLDATALOAD SWAP1 POP PUSH2 0x151F DUP2 PUSH2 0x14FB JUMP JUMPDEST SWAP3 SWAP2 POP POP JUMP JUMPDEST PUSH0 DUP2 SWAP1 POP SWAP2 SWAP1 POP JUMP JUMPDEST PUSH2 0x1537 DUP2 PUSH2 0x1525 JUMP JUMPDEST DUP2 EQ PUSH2 0x1541 JUMPI PUSH0 DUP1 REVERT JUMPDEST POP JUMP JUMPDEST PUSH0 DUP2 CALLDATALOAD SWAP1 POP PUSH2 0x1552 DUP2 PUSH2 0x152E JUMP JUMPDEST SWAP3 SWAP2 POP POP JUMP JUMPDEST PUSH0 DUP1 PUSH1 0x40 DUP4 DUP6 SUB SLT ISZERO PUSH2 0x156E JUMPI PUSH2 0x156D PUSH2 0x1168 JUMP JUMPDEST JUMPDEST PUSH0 PUSH2 0x157B DUP6 DUP3 DUP7 ADD PUSH2 0x1511 JUMP JUMPDEST SWAP3 POP POP PUSH1 0x20 PUSH2 0x158C DUP6 DUP3 DUP7 ADD PUSH2 0x1544 JUMP JUMPDEST SWAP2 POP POP SWAP3 POP SWAP3 SWAP1 POP JUMP JUMPDEST PUSH2 0x159F DUP2 PUSH2 0x138E JUMP JUMPDEST DUP3 MSTORE POP POP JUMP JUMPDEST PUSH0 PUSH1 0x20 DUP3 ADD SWAP1 POP PUSH2 0x15B8 PUSH0 DUP4 ADD DUP5 PUSH2 0x1596 JUMP JUMPDEST SWAP3 SWAP2 POP POP JUMP JUMPDEST PUSH2 0x15C7 DUP2 PUSH2 0x1525 JUMP JUMPDEST DUP3 MSTORE POP POP JUMP JUMPDEST PUSH0 PUSH1 0x20 DUP3 ADD SWAP1 POP PUSH2 0x15E0 PUSH0 DUP4 ADD DUP5 PUSH2 0x15BE JUMP JUMPDEST SWAP3 SWAP2 POP POP JUMP JUMPDEST PUSH0 DUP1 PUSH0 PUSH1 0x60 DUP5 DUP7 SUB SLT ISZERO PUSH2 0x15FD JUMPI PUSH2 0x15FC PUSH2 0x1168 JUMP JUMPDEST JUMPDEST PUSH0 PUSH2 0x160A DUP7 DUP3 DUP8 ADD PUSH2 0x1511 JUMP JUMPDEST SWAP4 POP POP PUSH1 0x20 PUSH2 0x161B DUP7 DUP3 DUP8 ADD PUSH2 0x1511 JUMP JUMPDEST SWAP3 POP POP PUSH1 0x40 PUSH2 0x162C DUP7 DUP3 DUP8 ADD PUSH2 0x1544 JUMP JUMPDEST SWAP2 POP POP SWAP3 POP SWAP3 POP SWAP3 JUMP JUMPDEST PUSH0 PUSH1 0xFF DUP3 AND SWAP1 POP SWAP2 SWAP1 POP JUMP JUMPDEST PUSH2 0x164B DUP2 PUSH2 0x1636 JUMP JUMPDEST DUP3 MSTORE POP POP JUMP JUMPDEST PUSH0 PUSH1 0x20 DUP3 ADD SWAP1 POP PUSH2 0x1664 PUSH0 DUP4 ADD DUP5 PUSH2 0x1642 JUMP JUMPDEST SWAP3 SWAP2 POP POP JUMP JUMPDEST PUSH0 PUSH1 0x20 DUP3 DUP5 SUB SLT ISZERO PUSH2 0x167F JUMPI PUSH2 0x167E PUSH2 0x1168 JUMP JUMPDEST JUMPDEST PUSH0 PUSH2 0x168C DUP5 DUP3 DUP6 ADD PUSH2 0x1544 JUMP JUMPDEST SWAP2 POP POP SWAP3 SWAP2 POP POP JUMP JUMPDEST PUSH0 PUSH1 0x20 DUP3 DUP5 SUB SLT ISZERO PUSH2 0x16AA JUMPI PUSH2 0x16A9 PUSH2 0x1168 JUMP JUMPDEST JUMPDEST PUSH0 PUSH2 0x16B7 DUP5 DUP3 DUP6 ADD PUSH2 0x1511 JUMP JUMPDEST SWAP2 POP POP SWAP3 SWAP2 POP POP JUMP JUMPDEST PUSH2 0x16C9 DUP2 PUSH2 0x14EA JUMP JUMPDEST DUP3 MSTORE POP POP JUMP JUMPDEST PUSH0 PUSH1 0x20 DUP3 ADD SWAP1 POP PUSH2 0x16E2 PUSH0 DUP4 ADD DUP5 PUSH2 0x16C0 JUMP JUMPDEST SWAP3 SWAP2 POP POP JUMP JUMPDEST PUSH0 DUP1 PUSH1 0x40 DUP4 DUP6 SUB SLT ISZERO PUSH2 0x16FE JUMPI PUSH2 0x16FD PUSH2 0x1168 JUMP JUMPDEST JUMPDEST PUSH0 PUSH2 0x170B DUP6 DUP3 DUP7 ADD PUSH2 0x1511 JUMP JUMPDEST SWAP3 POP POP PUSH1 0x20 PUSH2 0x171C DUP6 DUP3 DUP7 ADD PUSH2 0x1511 JUMP JUMPDEST SWAP2 POP POP SWAP3 POP SWAP3 SWAP1 POP JUMP JUMPDEST PUSH32 0x4E487B7100000000000000000000000000000000000000000000000000000000 PUSH0 MSTORE PUSH1 0x11 PUSH1 0x4 MSTORE PUSH1 0x24 PUSH0 REVERT JUMPDEST PUSH0 PUSH2 0x175D DUP3 PUSH2 0x1525 JUMP JUMPDEST SWAP2 POP PUSH2 0x1768 DUP4 PUSH2 0x1525 JUMP JUMPDEST SWAP3 POP DUP3 DUP3 SUB SWAP1 POP DUP2 DUP2 GT ISZERO PUSH2 0x1780 JUMPI PUSH2 0x177F PUSH2 0x1726 JUMP JUMPDEST JUMPDEST SWAP3 SWAP2 POP POP JUMP JUMPDEST PUSH32 0x6C617374657374206372756D6220646F6573206E6F742065786973742E205768 PUSH0 DUP3 ADD MSTORE PUSH32 0x6F206174652069743F0000000000000000000000000000000000000000000000 PUSH1 0x20 DUP3 ADD MSTORE POP JUMP JUMPDEST PUSH0 PUSH2 0x17E0 PUSH1 0x29 DUP4 PUSH2 0x1455 JUMP JUMPDEST SWAP2 POP PUSH2 0x17EB DUP3 PUSH2 0x1786 JUMP JUMPDEST PUSH1 0x40 DUP3 ADD SWAP1 POP SWAP2 SWAP1 POP JUMP JUMPDEST PUSH0 PUSH1 0x20 DUP3 ADD SWAP1 POP DUP2 DUP2 SUB PUSH0 DUP4 ADD MSTORE PUSH2 0x180D DUP2 PUSH2 0x17D4 JUMP JUMPDEST SWAP1 POP SWAP2 SWAP1 POP JUMP JUMPDEST PUSH0 DUP2 MLOAD SWAP1 POP SWAP2 SWAP1 POP JUMP JUMPDEST PUSH0 DUP3 DUP3 MSTORE PUSH1 0x20 DUP3 ADD SWAP1 POP SWAP3 SWAP2 POP POP JUMP JUMPDEST PUSH0 DUP2 SWAP1 POP PUSH1 0x20 DUP3 ADD SWAP1 POP SWAP2 SWAP1 POP JUMP JUMPDEST PUSH0 DUP3 DUP3 MSTORE PUSH1 0x20 DUP3 ADD SWAP1 POP SWAP3 SWAP2 POP POP JUMP JUMPDEST PUSH0 PUSH2 0x1857 DUP3 PUSH2 0x144B JUMP JUMPDEST PUSH2 0x1861 DUP2 DUP6 PUSH2 0x183D JUMP JUMPDEST SWAP4 POP PUSH2 0x1871 DUP2 DUP6 PUSH1 0x20 DUP7 ADD PUSH2 0x1465 JUMP JUMPDEST PUSH2 0x187A DUP2 PUSH2 0x1178 JUMP JUMPDEST DUP5 ADD SWAP2 POP POP SWAP3 SWAP2 POP POP JUMP JUMPDEST PUSH0 PUSH2 0x1890 DUP4 DUP4 PUSH2 0x184D JUMP JUMPDEST SWAP1 POP SWAP3 SWAP2 POP POP JUMP JUMPDEST PUSH0 PUSH1 0x20 DUP3 ADD SWAP1 POP SWAP2 SWAP1 POP JUMP JUMPDEST PUSH0 PUSH2 0x18AE DUP3 PUSH2 0x1814 JUMP JUMPDEST PUSH2 0x18B8 DUP2 DUP6 PUSH2 0x181E JUMP JUMPDEST SWAP4 POP DUP4 PUSH1 0x20 DUP3 MUL DUP6 ADD PUSH2 0x18CA DUP6 PUSH2 0x182E JUMP JUMPDEST DUP1 PUSH0 JUMPDEST DUP6 DUP2 LT ISZERO PUSH2 0x1905 JUMPI DUP5 DUP5 SUB DUP10 MSTORE DUP2 MLOAD PUSH2 0x18E6 DUP6 DUP3 PUSH2 0x1885 JUMP JUMPDEST SWAP5 POP PUSH2 0x18F1 DUP4 PUSH2 0x1898 JUMP JUMPDEST SWAP3 POP PUSH1 0x20 DUP11 ADD SWAP10 POP POP PUSH1 0x1 DUP2 ADD SWAP1 POP PUSH2 0x18CD JUMP JUMPDEST POP DUP3 SWAP8 POP DUP8 SWAP6 POP POP POP POP POP POP SWAP3 SWAP2 POP POP JUMP JUMPDEST PUSH0 PUSH1 0x60 DUP3 ADD SWAP1 POP DUP2 DUP2 SUB PUSH0 DUP4 ADD MSTORE PUSH2 0x192F DUP2 DUP7 PUSH2 0x1473 JUMP JUMPDEST SWAP1 POP DUP2 DUP2 SUB PUSH1 0x20 DUP4 ADD MSTORE PUSH2 0x1943 DUP2 DUP6 PUSH2 0x18A4 JUMP JUMPDEST SWAP1 POP PUSH2 0x1952 PUSH1 0x40 DUP4 ADD DUP5 PUSH2 0x1596 JUMP JUMPDEST SWAP5 SWAP4 POP POP POP POP JUMP JUMPDEST PUSH32 0x4E487B7100000000000000000000000000000000000000000000000000000000 PUSH0 MSTORE PUSH1 0x22 PUSH1 0x4 MSTORE PUSH1 0x24 PUSH0 REVERT JUMPDEST PUSH0 PUSH1 0x2 DUP3 DIV SWAP1 POP PUSH1 0x1 DUP3 AND DUP1 PUSH2 0x199E JUMPI PUSH1 0x7F DUP3 AND SWAP2 POP JUMPDEST PUSH1 0x20 DUP3 LT DUP2 SUB PUSH2 0x19B1 JUMPI PUSH2 0x19B0 PUSH2 0x195A JUMP JUMPDEST JUMPDEST POP SWAP2 SWAP1 POP JUMP JUMPDEST PUSH32 0x6372756D6220616C656164792062616B65640000000000000000000000000000 PUSH0 DUP3 ADD MSTORE POP JUMP JUMPDEST PUSH0 PUSH2 0x19EB PUSH1 0x12 DUP4 PUSH2 0x1455 JUMP JUMPDEST SWAP2 POP PUSH2 0x19F6 DUP3 PUSH2 0x19B7 JUMP JUMPDEST PUSH1 0x20 DUP3 ADD SWAP1 POP SWAP2 SWAP1 POP JUMP JUMPDEST PUSH0 PUSH1 0x20 DUP3 ADD SWAP1 POP DUP2 DUP2 SUB PUSH0 DUP4 ADD MSTORE PUSH2 0x1A18 DUP2 PUSH2 0x19DF JUMP JUMPDEST SWAP1 POP SWAP2 SWAP1 POP JUMP JUMPDEST PUSH0 PUSH2 0x1A29 DUP3 PUSH2 0x1525 JUMP JUMPDEST SWAP2 POP PUSH32 0xFFFFFFFFFFFFFFFFFFFFFFFFFFFFFFFFFFFFFFFFFFFFFFFFFFFFFFFFFFFFFFFF DUP3 SUB PUSH2 0x1A5B JUMPI PUSH2 0x1A5A PUSH2 0x1726 JUMP JUMPDEST JUMPDEST PUSH1 0x1 DUP3 ADD SWAP1 POP SWAP2 SWAP1 POP JUMP JUMPDEST PUSH0 PUSH1 0x60 DUP3 ADD SWAP1 POP PUSH2 0x1A79 PUSH0 DUP4 ADD DUP7 PUSH2 0x16C0 JUMP JUMPDEST PUSH2 0x1A86 PUSH1 0x20 DUP4 ADD DUP6 PUSH2 0x15BE JUMP JUMPDEST PUSH2 0x1A93 PUSH1 0x40 DUP4 ADD DUP5 PUSH2 0x15BE JUMP JUMPDEST SWAP5 SWAP4 POP POP POP POP JUMP JUMPDEST PUSH0 PUSH1 0x40 DUP3 ADD SWAP1 POP PUSH2 0x1AAE PUSH0 DUP4 ADD DUP6 PUSH2 0x15BE JUMP JUMPDEST PUSH2 0x1ABB PUSH1 0x20 DUP4 ADD DUP5 PUSH2 0x15BE JUMP JUMPDEST SWAP4 SWAP3 POP POP POP JUMP JUMPDEST PUSH0 PUSH2 0x1ACC DUP3 PUSH2 0x1525 JUMP JUMPDEST SWAP2 POP PUSH2 0x1AD7 DUP4 PUSH2 0x1525 JUMP JUMPDEST SWAP3 POP DUP3 DUP3 ADD SWAP1 POP DUP1 DUP3 GT ISZERO PUSH2 0x1AEF JUMPI PUSH2 0x1AEE PUSH2 0x1726 JUMP JUMPDEST JUMPDEST SWAP3 SWAP2 POP POP JUMP INVALID PUSH1 0x80 PUSH1 0x40 MSTORE CALLVALUE DUP1 ISZERO PUSH1 0xE JUMPI PUSH0 DUP1 REVERT JUMPDEST POP PUSH2 0x1061 DUP1 PUSH2 0x1C PUSH0 CODECOPY PUSH0 RETURN INVALID PUSH1 0x80 PUSH1 0x40 MSTORE CALLVALUE DUP1 ISZERO PUSH2 0xF JUMPI PUSH0 DUP1 REVERT JUMPDEST POP PUSH1 0x4 CALLDATASIZE LT PUSH2 0x3F JUMPI PUSH0 CALLDATALOAD PUSH1 0xE0 SHR DUP1 PUSH4 0xC4960DD EQ PUSH2 0x43 JUMPI DUP1 PUSH4 0x86E68B90 EQ PUSH2 0x5F JUMPI DUP1 PUSH4 0xB384ABEF EQ PUSH2 0x90 JUMPI JUMPDEST PUSH0 DUP1 REVERT JUMPDEST PUSH2 0x5D PUSH1 0x4 DUP1 CALLDATASIZE SUB DUP2 ADD SWAP1 PUSH2 0x58 SWAP2 SWAP1 PUSH2 0x8C5 JUMP JUMPDEST PUSH2 0xAC JUMP JUMPDEST STOP JUMPDEST PUSH2 0x79 PUSH1 0x4 DUP1 CALLDATASIZE SUB DUP2 ADD SWAP1 PUSH2 0x74 SWAP2 SWAP1 PUSH2 0x980 JUMP JUMPDEST PUSH2 0x1F0 JUMP JUMPDEST PUSH1 0x40 MLOAD PUSH2 0x87 SWAP3 SWAP2 SWAP1 PUSH2 0xA1A JUMP JUMPDEST PUSH1 0x40 MLOAD DUP1 SWAP2 SUB SWAP1 RETURN JUMPDEST PUSH2 0xAA PUSH1 0x4 DUP1 CALLDATASIZE SUB DUP2 ADD SWAP1 PUSH2 0xA5 SWAP2 SWAP1 PUSH2 0xA48 JUMP JUMPDEST PUSH2 0x2B0 JUMP JUMPDEST STOP JUMPDEST PUSH1 0x2 DUP3 MLOAD LT ISZERO PUSH2 0xF1 JUMPI PUSH1 0x40 MLOAD PUSH32 0x8C379A000000000000000000000000000000000000000000000000000000000 DUP2 MSTORE PUSH1 0x4 ADD PUSH2 0xE8 SWAP1 PUSH2 0xAD0 JUMP JUMPDEST PUSH1 0x40 MLOAD DUP1 SWAP2 SUB SWAP1 REVERT JUMPDEST PUSH0 PUSH1 0x1 DUP2 PUSH1 0x1 DUP2 SLOAD ADD DUP1 DUP3 SSTORE DUP1 SWAP2 POP POP SUB SWAP1 PUSH0 MSTORE PUSH1 0x20 PUSH0 KECCAK256 SWAP1 POP POP PUSH0 DUP1 PUSH1 0x1 PUSH0 DUP1 SLOAD SWAP1 POP PUSH2 0x11F SWAP2 SWAP1 PUSH2 0xB1B JUMP JUMPDEST DUP2 SLOAD DUP2 LT PUSH2 0x130 JUMPI PUSH2 0x12F PUSH2 0xB4E JUMP JUMPDEST JUMPDEST SWAP1 PUSH0 MSTORE PUSH1 0x20 PUSH0 KECCAK256 SWAP1 PUSH1 0x5 MUL ADD SWAP1 POP PUSH0 DUP4 MLOAD PUSH8 0xFFFFFFFFFFFFFFFF DUP2 GT ISZERO PUSH2 0x15A JUMPI PUSH2 0x159 PUSH2 0x68A JUMP JUMPDEST JUMPDEST PUSH1 0x40 MLOAD SWAP1 DUP1 DUP3 MSTORE DUP1 PUSH1 0x20 MUL PUSH1 0x20 ADD DUP3 ADD PUSH1 0x40 MSTORE DUP1 ISZERO PUSH2 0x188 JUMPI DUP2 PUSH1 0x20 ADD PUSH1 0x20 DUP3 MUL DUP1 CALLDATASIZE DUP4 CALLDATACOPY DUP1 DUP3 ADD SWAP2 POP POP SWAP1 POP JUMPDEST POP SWAP1 POP DUP5 DUP3 PUSH0 ADD SWAP1 DUP2 PUSH2 0x19B SWAP2 SWAP1 PUSH2 0xD75 JUMP JUMPDEST POP DUP4 DUP3 PUSH1 0x1 ADD SWAP1 DUP1 MLOAD SWAP1 PUSH1 0x20 ADD SWAP1 PUSH2 0x1B4 SWAP3 SWAP2 SWAP1 PUSH2 0x544 JUMP JUMPDEST POP DUP1 DUP3 PUSH1 0x2 ADD SWAP1 DUP1 MLOAD SWAP1 PUSH1 0x20 ADD SWAP1 PUSH2 0x1CD SWAP3 SWAP2 SWAP1 PUSH2 0x59B JUMP JUMPDEST POP DUP3 DUP3 PUSH1 0x3 ADD PUSH0 PUSH2 0x100 EXP DUP2 SLOAD DUP2 PUSH1 0xFF MUL NOT AND SWAP1 DUP4 ISZERO ISZERO MUL OR SWAP1 SSTORE POP POP POP POP POP POP JUMP JUMPDEST PUSH0 DUP2 DUP2 SLOAD DUP2 LT PUSH2 0x1FE JUMPI PUSH0 DUP1 REVERT JUMPDEST SWAP1 PUSH0 MSTORE PUSH1 0x20 PUSH0 KECCAK256 SWAP1 PUSH1 0x5 MUL ADD PUSH0 SWAP2 POP SWAP1 POP DUP1 PUSH0 ADD DUP1 SLOAD PUSH2 0x21D SWAP1 PUSH2 0xBA8 JUMP JUMPDEST DUP1 PUSH1 0x1F ADD PUSH1 0x20 DUP1 SWAP2 DIV MUL PUSH1 0x20 ADD PUSH1 0x40 MLOAD SWAP1 DUP2 ADD PUSH1 0x40 MSTORE DUP1 SWAP3 SWAP2 SWAP1 DUP2 DUP2 MSTORE PUSH1 0x20 ADD DUP3 DUP1 SLOAD PUSH2 0x249 SWAP1 PUSH2 0xBA8 JUMP JUMPDEST DUP1 ISZERO PUSH2 0x294 JUMPI DUP1 PUSH1 0x1F LT PUSH2 0x26B JUMPI PUSH2 0x100 DUP1 DUP4 SLOAD DIV MUL DUP4 MSTORE SWAP2 PUSH1 0x20 ADD SWAP2 PUSH2 0x294 JUMP JUMPDEST DUP3 ADD SWAP2 SWAP1 PUSH0 MSTORE PUSH1 0x20 PUSH0 KECCAK256 SWAP1 JUMPDEST DUP2 SLOAD DUP2 MSTORE SWAP1 PUSH1 0x1 ADD SWAP1 PUSH1 0x20 ADD DUP1 DUP4 GT PUSH2 0x277 JUMPI DUP3 SWAP1 SUB PUSH1 0x1F AND DUP3 ADD SWAP2 JUMPDEST POP POP POP POP POP SWAP1 DUP1 PUSH1 0x3 ADD PUSH0 SWAP1 SLOAD SWAP1 PUSH2 0x100 EXP SWAP1 DIV PUSH1 0xFF AND SWAP1 POP DUP3 JUMP JUMPDEST PUSH0 DUP1 SLOAD SWAP1 POP DUP3 LT PUSH2 0x2F6 JUMPI PUSH1 0x40 MLOAD PUSH32 0x8C379A000000000000000000000000000000000000000000000000000000000 DUP2 MSTORE PUSH1 0x4 ADD PUSH2 0x2ED SWAP1 PUSH2 0xE8E JUMP JUMPDEST PUSH1 0x40 MLOAD DUP1 SWAP2 SUB SWAP1 REVERT JUMPDEST PUSH0 DUP3 DUP2 SLOAD DUP2 LT PUSH2 0x309 JUMPI PUSH2 0x308 PUSH2 0xB4E JUMP JUMPDEST JUMPDEST SWAP1 PUSH0 MSTORE PUSH1 0x20 PUSH0 KECCAK256 SWAP1 PUSH1 0x5 MUL ADD PUSH1 0x3 ADD PUSH0 SWAP1 SLOAD SWAP1 PUSH2 0x100 EXP SWAP1 DIV PUSH1 0xFF AND PUSH2 0x364 JUMPI PUSH1 0x40 MLOAD PUSH32 0x8C379A000000000000000000000000000000000000000000000000000000000 DUP2 MSTORE PUSH1 0x4 ADD PUSH2 0x35B SWAP1 PUSH2 0xEF6 JUMP JUMPDEST PUSH1 0x40 MLOAD DUP1 SWAP2 SUB SWAP1 REVERT JUMPDEST PUSH0 DUP3 DUP2 SLOAD DUP2 LT PUSH2 0x377 JUMPI PUSH2 0x376 PUSH2 0xB4E JUMP JUMPDEST JUMPDEST SWAP1 PUSH0 MSTORE PUSH1 0x20 PUSH0 KECCAK256 SWAP1 PUSH1 0x5 MUL ADD PUSH1 0x1 ADD DUP1 SLOAD SWAP1 POP DUP2 LT PUSH2 0x3CB JUMPI PUSH1 0x40 MLOAD PUSH32 0x8C379A000000000000000000000000000000000000000000000000000000000 DUP2 MSTORE PUSH1 0x4 ADD PUSH2 0x3C2 SWAP1 PUSH2 0xF5E JUMP JUMPDEST PUSH1 0x40 MLOAD DUP1 SWAP2 SUB SWAP1 REVERT JUMPDEST PUSH0 ISZERO ISZERO PUSH0 DUP4 DUP2 SLOAD DUP2 LT PUSH2 0x3E1 JUMPI PUSH2 0x3E0 PUSH2 0xB4E JUMP JUMPDEST JUMPDEST SWAP1 PUSH0 MSTORE PUSH1 0x20 PUSH0 KECCAK256 SWAP1 PUSH1 0x5 MUL ADD PUSH1 0x4 ADD PUSH0 CALLER PUSH20 0xFFFFFFFFFFFFFFFFFFFFFFFFFFFFFFFFFFFFFFFF AND PUSH20 0xFFFFFFFFFFFFFFFFFFFFFFFFFFFFFFFFFFFFFFFF AND DUP2 MSTORE PUSH1 0x20 ADD SWAP1 DUP2 MSTORE PUSH1 0x20 ADD PUSH0 KECCAK256 PUSH0 SWAP1 SLOAD SWAP1 PUSH2 0x100 EXP SWAP1 DIV PUSH1 0xFF AND ISZERO ISZERO EQ PUSH2 0x47A JUMPI PUSH1 0x40 MLOAD PUSH32 0x8C379A000000000000000000000000000000000000000000000000000000000 DUP2 MSTORE PUSH1 0x4 ADD PUSH2 0x471 SWAP1 PUSH2 0xFC6 JUMP JUMPDEST PUSH1 0x40 MLOAD DUP1 SWAP2 SUB SWAP1 REVERT JUMPDEST PUSH0 DUP3 DUP2 SLOAD DUP2 LT PUSH2 0x48D JUMPI PUSH2 0x48C PUSH2 0xB4E JUMP JUMPDEST JUMPDEST SWAP1 PUSH0 MSTORE PUSH1 0x20 PUSH0 KECCAK256 SWAP1 PUSH1 0x5 MUL ADD PUSH1 0x2 ADD DUP2 DUP2 SLOAD DUP2 LT PUSH2 0x4AE JUMPI PUSH2 0x4AD PUSH2 0xB4E JUMP JUMPDEST JUMPDEST SWAP1 PUSH0 MSTORE PUSH1 0x20 PUSH0 KECCAK256 ADD PUSH0 DUP2 SLOAD DUP1 SWAP3 SWAP2 SWAP1 PUSH2 0x4C6 SWAP1 PUSH2 0xFE4 JUMP JUMPDEST SWAP2 SWAP1 POP SSTORE POP PUSH1 0x1 PUSH0 DUP4 DUP2 SLOAD DUP2 LT PUSH2 0x4E0 JUMPI PUSH2 0x4DF PUSH2 0xB4E JUMP JUMPDEST JUMPDEST SWAP1 PUSH0 MSTORE PUSH1 0x20 PUSH0 KECCAK256 SWAP1 PUSH1 0x5 MUL ADD PUSH1 0x4 ADD PUSH0 CALLER PUSH20 0xFFFFFFFFFFFFFFFFFFFFFFFFFFFFFFFFFFFFFFFF AND PUSH20 0xFFFFFFFFFFFFFFFFFFFFFFFFFFFFFFFFFFFFFFFF AND DUP2 MSTORE PUSH1 0x20 ADD SWAP1 DUP2 MSTORE PUSH1 0x20 ADD PUSH0 KECCAK256 PUSH0 PUSH2 0x100 EXP DUP2 SLOAD DUP2 PUSH1 0xFF MUL NOT AND SWAP1 DUP4 ISZERO ISZERO MUL OR SWAP1 SSTORE POP POP POP JUMP JUMPDEST DUP3 DUP1 SLOAD DUP3 DUP3 SSTORE SWAP1 PUSH0 MSTORE PUSH1 0x20 PUSH0 KECCAK256 SWAP1 DUP2 ADD SWAP3 DUP3 ISZERO PUSH2 0x58A JUMPI SWAP2 PUSH1 0x20 MUL DUP3 ADD JUMPDEST DUP3 DUP2 GT ISZERO PUSH2 0x589 JUMPI DUP3 MLOAD DUP3 SWAP1 DUP2 PUSH2 0x579 SWAP2 SWAP1 PUSH2 0xD75 JUMP JUMPDEST POP SWAP2 PUSH1 0x20 ADD SWAP2 SWAP1 PUSH1 0x1 ADD SWAP1 PUSH2 0x562 JUMP JUMPDEST JUMPDEST POP SWAP1 POP PUSH2 0x597 SWAP2 SWAP1 PUSH2 0x5E6 JUMP JUMPDEST POP SWAP1 JUMP JUMPDEST DUP3 DUP1 SLOAD DUP3 DUP3 SSTORE SWAP1 PUSH0 MSTORE PUSH1 0x20 PUSH0 KECCAK256 SWAP1 DUP2 ADD SWAP3 DUP3 ISZERO PUSH2 0x5D5 JUMPI SWAP2 PUSH1 0x20 MUL DUP3 ADD JUMPDEST DUP3 DUP2 GT ISZERO PUSH2 0x5D4 JUMPI DUP3 MLOAD DUP3 SSTORE SWAP2 PUSH1 0x20 ADD SWAP2 SWAP1 PUSH1 0x1 ADD SWAP1 PUSH2 0x5B9 JUMP JUMPDEST JUMPDEST POP SWAP1 POP PUSH2 0x5E2 SWAP2 SWAP1 PUSH2 0x609 JUMP JUMPDEST POP SWAP1 JUMP JUMPDEST JUMPDEST DUP1 DUP3 GT ISZERO PUSH2 0x605 JUMPI PUSH0 DUP2 DUP2 PUSH2 0x5FC SWAP2 SWAP1 PUSH2 0x624 JUMP JUMPDEST POP PUSH1 0x1 ADD PUSH2 0x5E7 JUMP JUMPDEST POP SWAP1 JUMP JUMPDEST JUMPDEST DUP1 DUP3 GT ISZERO PUSH2 0x620 JUMPI PUSH0 DUP2 PUSH0 SWAP1 SSTORE POP PUSH1 0x1 ADD PUSH2 0x60A JUMP JUMPDEST POP SWAP1 JUMP JUMPDEST POP DUP1 SLOAD PUSH2 0x630 SWAP1 PUSH2 0xBA8 JUMP JUMPDEST PUSH0 DUP3 SSTORE DUP1 PUSH1 0x1F LT PUSH2 0x641 JUMPI POP PUSH2 0x65E JUMP JUMPDEST PUSH1 0x1F ADD PUSH1 0x20 SWAP1 DIV SWAP1 PUSH0 MSTORE PUSH1 0x20 PUSH0 KECCAK256 SWAP1 DUP2 ADD SWAP1 PUSH2 0x65D SWAP2 SWAP1 PUSH2 0x609 JUMP JUMPDEST JUMPDEST POP JUMP JUMPDEST PUSH0 PUSH1 0x40 MLOAD SWAP1 POP SWAP1 JUMP JUMPDEST PUSH0 DUP1 REVERT JUMPDEST PUSH0 DUP1 REVERT JUMPDEST PUSH0 DUP1 REVERT JUMPDEST PUSH0 DUP1 REVERT JUMPDEST PUSH0 PUSH1 0x1F NOT PUSH1 0x1F DUP4 ADD AND SWAP1 POP SWAP2 SWAP1 POP JUMP JUMPDEST PUSH32 0x4E487B7100000000000000000000000000000000000000000000000000000000 PUSH0 MSTORE PUSH1 0x41 PUSH1 0x4 MSTORE PUSH1 0x24 PUSH0 REVERT JUMPDEST PUSH2 0x6C0 DUP3 PUSH2 0x67A JUMP JUMPDEST DUP2 ADD DUP2 DUP2 LT PUSH8 0xFFFFFFFFFFFFFFFF DUP3 GT OR ISZERO PUSH2 0x6DF JUMPI PUSH2 0x6DE PUSH2 0x68A JUMP JUMPDEST JUMPDEST DUP1 PUSH1 0x40 MSTORE POP POP POP JUMP JUMPDEST PUSH0 PUSH2 0x6F1 PUSH2 0x661 JUMP JUMPDEST SWAP1 POP PUSH2 0x6FD DUP3 DUP3 PUSH2 0x6B7 JUMP JUMPDEST SWAP2 SWAP1 POP JUMP JUMPDEST PUSH0 PUSH8 0xFFFFFFFFFFFFFFFF DUP3 GT ISZERO PUSH2 0x71C JUMPI PUSH2 0x71B PUSH2 0x68A JUMP JUMPDEST JUMPDEST PUSH2 0x725 DUP3 PUSH2 0x67A JUMP JUMPDEST SWAP1 POP PUSH1 0x20 DUP2 ADD SWAP1 POP SWAP2 SWAP1 POP JUMP JUMPDEST DUP3 DUP2 DUP4 CALLDATACOPY PUSH0 DUP4 DUP4 ADD MSTORE POP POP POP JUMP JUMPDEST PUSH0 PUSH2 0x752 PUSH2 0x74D DUP5 PUSH2 0x702 JUMP JUMPDEST PUSH2 0x6E8 JUMP JUMPDEST SWAP1 POP DUP3 DUP2 MSTORE PUSH1 0x20 DUP2 ADD DUP5 DUP5 DUP5 ADD GT ISZERO PUSH2 0x76E JUMPI PUSH2 0x76D PUSH2 0x676 JUMP JUMPDEST JUMPDEST PUSH2 0x779 DUP5 DUP3 DUP6 PUSH2 0x732 JUMP JUMPDEST POP SWAP4 SWAP3 POP POP POP JUMP JUMPDEST PUSH0 DUP3 PUSH1 0x1F DUP4 ADD SLT PUSH2 0x795 JUMPI PUSH2 0x794 PUSH2 0x672 JUMP JUMPDEST JUMPDEST DUP2 CALLDATALOAD PUSH2 0x7A5 DUP5 DUP3 PUSH1 0x20 DUP7 ADD PUSH2 0x740 JUMP JUMPDEST SWAP2 POP POP SWAP3 SWAP2 POP POP JUMP JUMPDEST PUSH0 PUSH8 0xFFFFFFFFFFFFFFFF DUP3 GT ISZERO PUSH2 0x7C8 JUMPI PUSH2 0x7C7 PUSH2 0x68A JUMP JUMPDEST JUMPDEST PUSH1 0x20 DUP3 MUL SWAP1 POP PUSH1 0x20 DUP2 ADD SWAP1 POP SWAP2 SWAP1 POP JUMP JUMPDEST PUSH0 DUP1 REVERT JUMPDEST PUSH0 PUSH2 0x7EF PUSH2 0x7EA DUP5 PUSH2 0x7AE JUMP JUMPDEST PUSH2 0x6E8 JUMP JUMPDEST SWAP1 POP DUP1 DUP4 DUP3 MSTORE PUSH1 0x20 DUP3 ADD SWAP1 POP PUSH1 0x20 DUP5 MUL DUP4 ADD DUP6 DUP2 GT ISZERO PUSH2 0x812 JUMPI PUSH2 0x811 PUSH2 0x7D9 JUMP JUMPDEST JUMPDEST DUP4 JUMPDEST DUP2 DUP2 LT ISZERO PUSH2 0x859 JUMPI DUP1 CALLDATALOAD PUSH8 0xFFFFFFFFFFFFFFFF DUP2 GT ISZERO PUSH2 0x837 JUMPI PUSH2 0x836 PUSH2 0x672 JUMP JUMPDEST JUMPDEST DUP1 DUP7 ADD PUSH2 0x844 DUP10 DUP3 PUSH2 0x781 JUMP JUMPDEST DUP6 MSTORE PUSH1 0x20 DUP6 ADD SWAP5 POP POP POP PUSH1 0x20 DUP2 ADD SWAP1 POP PUSH2 0x814 JUMP JUMPDEST POP POP POP SWAP4 SWAP3 POP POP POP JUMP JUMPDEST PUSH0 DUP3 PUSH1 0x1F DUP4 ADD SLT PUSH2 0x877 JUMPI PUSH2 0x876 PUSH2 0x672 JUMP JUMPDEST JUMPDEST DUP2 CALLDATALOAD PUSH2 0x887 DUP5 DUP3 PUSH1 0x20 DUP7 ADD PUSH2 0x7DD JUMP JUMPDEST SWAP2 POP POP SWAP3 SWAP2 POP POP JUMP JUMPDEST PUSH0 DUP2 ISZERO ISZERO SWAP1 POP SWAP2 SWAP1 POP JUMP JUMPDEST PUSH2 0x8A4 DUP2 PUSH2 0x890 JUMP JUMPDEST DUP2 EQ PUSH2 0x8AE JUMPI PUSH0 DUP1 REVERT JUMPDEST POP JUMP JUMPDEST PUSH0 DUP2 CALLDATALOAD SWAP1 POP PUSH2 0x8BF DUP2 PUSH2 0x89B JUMP JUMPDEST SWAP3 SWAP2 POP POP JUMP JUMPDEST PUSH0 DUP1 PUSH0 PUSH1 0x60 DUP5 DUP7 SUB SLT ISZERO PUSH2 0x8DC JUMPI PUSH2 0x8DB PUSH2 0x66A JUMP JUMPDEST JUMPDEST PUSH0 DUP5 ADD CALLDATALOAD PUSH8 0xFFFFFFFFFFFFFFFF DUP2 GT ISZERO PUSH2 0x8F9 JUMPI PUSH2 0x8F8 PUSH2 0x66E JUMP JUMPDEST JUMPDEST PUSH2 0x905 DUP7 DUP3 DUP8 ADD PUSH2 0x781 JUMP JUMPDEST SWAP4 POP POP PUSH1 0x20 DUP5 ADD CALLDATALOAD PUSH8 0xFFFFFFFFFFFFFFFF DUP2 GT ISZERO PUSH2 0x926 JUMPI PUSH2 0x925 PUSH2 0x66E JUMP JUMPDEST JUMPDEST PUSH2 0x932 DUP7 DUP3 DUP8 ADD PUSH2 0x863 JUMP JUMPDEST SWAP3 POP POP PUSH1 0x40 PUSH2 0x943 DUP7 DUP3 DUP8 ADD PUSH2 0x8B1 JUMP JUMPDEST SWAP2 POP POP SWAP3 POP SWAP3 POP SWAP3 JUMP JUMPDEST PUSH0 DUP2 SWAP1 POP SWAP2 SWAP1 POP JUMP JUMPDEST PUSH2 0x95F DUP2 PUSH2 0x94D JUMP JUMPDEST DUP2 EQ PUSH2 0x969 JUMPI PUSH0 DUP1 REVERT JUMPDEST POP JUMP JUMPDEST PUSH0 DUP2 CALLDATALOAD SWAP1 POP PUSH2 0x97A DUP2 PUSH2 0x956 JUMP JUMPDEST SWAP3 SWAP2 POP POP JUMP JUMPDEST PUSH0 PUSH1 0x20 DUP3 DUP5 SUB SLT ISZERO PUSH2 0x995 JUMPI PUSH2 0x994 PUSH2 0x66A JUMP JUMPDEST JUMPDEST PUSH0 PUSH2 0x9A2 DUP5 DUP3 DUP6 ADD PUSH2 0x96C JUMP JUMPDEST SWAP2 POP POP SWAP3 SWAP2 POP POP JUMP JUMPDEST PUSH0 DUP2 MLOAD SWAP1 POP SWAP2 SWAP1 POP JUMP JUMPDEST PUSH0 DUP3 DUP3 MSTORE PUSH1 0x20 DUP3 ADD SWAP1 POP SWAP3 SWAP2 POP POP JUMP JUMPDEST DUP3 DUP2 DUP4 MCOPY PUSH0 DUP4 DUP4 ADD MSTORE POP POP POP JUMP JUMPDEST PUSH0 PUSH2 0x9DD DUP3 PUSH2 0x9AB JUMP JUMPDEST PUSH2 0x9E7 DUP2 DUP6 PUSH2 0x9B5 JUMP JUMPDEST SWAP4 POP PUSH2 0x9F7 DUP2 DUP6 PUSH1 0x20 DUP7 ADD PUSH2 0x9C5 JUMP JUMPDEST PUSH2 0xA00 DUP2 PUSH2 0x67A JUMP JUMPDEST DUP5 ADD SWAP2 POP POP SWAP3 SWAP2 POP POP JUMP JUMPDEST PUSH2 0xA14 DUP2 PUSH2 0x890 JUMP JUMPDEST DUP3 MSTORE POP POP JUMP JUMPDEST PUSH0 PUSH1 0x40 DUP3 ADD SWAP1 POP DUP2 DUP2 SUB PUSH0 DUP4 ADD MSTORE PUSH2 0xA32 DUP2 DUP6 PUSH2 0x9D3 JUMP JUMPDEST SWAP1 POP PUSH2 0xA41 PUSH1 0x20 DUP4 ADD DUP5 PUSH2 0xA0B JUMP JUMPDEST SWAP4 SWAP3 POP POP POP JUMP JUMPDEST PUSH0 DUP1 PUSH1 0x40 DUP4 DUP6 SUB SLT ISZERO PUSH2 0xA5E JUMPI PUSH2 0xA5D PUSH2 0x66A JUMP JUMPDEST JUMPDEST PUSH0 PUSH2 0xA6B DUP6 DUP3 DUP7 ADD PUSH2 0x96C JUMP JUMPDEST SWAP3 POP POP PUSH1 0x20 PUSH2 0xA7C DUP6 DUP3 DUP7 ADD PUSH2 0x96C JUMP JUMPDEST SWAP2 POP POP SWAP3 POP SWAP3 SWAP1 POP JUMP JUMPDEST PUSH32 0x4174206C656173742032206F7074696F6E732061726520726571756972656400 PUSH0 DUP3 ADD MSTORE POP JUMP JUMPDEST PUSH0 PUSH2 0xABA PUSH1 0x1F DUP4 PUSH2 0x9B5 JUMP JUMPDEST SWAP2 POP PUSH2 0xAC5 DUP3 PUSH2 0xA86 JUMP JUMPDEST PUSH1 0x20 DUP3 ADD SWAP1 POP SWAP2 SWAP1 POP JUMP JUMPDEST PUSH0 PUSH1 0x20 DUP3 ADD SWAP1 POP DUP2 DUP2 SUB PUSH0 DUP4 ADD MSTORE PUSH2 0xAE7 DUP2 PUSH2 0xAAE JUMP JUMPDEST SWAP1 POP SWAP2 SWAP1 POP JUMP JUMPDEST PUSH32 0x4E487B7100000000000000000000000000000000000000000000000000000000 PUSH0 MSTORE PUSH1 0x11 PUSH1 0x4 MSTORE PUSH1 0x24 PUSH0 REVERT JUMPDEST PUSH0 PUSH2 0xB25 DUP3 PUSH2 0x94D JUMP JUMPDEST SWAP2 POP PUSH2 0xB30 DUP4 PUSH2 0x94D JUMP JUMPDEST SWAP3 POP DUP3 DUP3 SUB SWAP1 POP DUP2 DUP2 GT ISZERO PUSH2 0xB48 JUMPI PUSH2 0xB47 PUSH2 0xAEE JUMP JUMPDEST JUMPDEST SWAP3 SWAP2 POP POP JUMP JUMPDEST PUSH32 0x4E487B7100000000000000000000000000000000000000000000000000000000 PUSH0 MSTORE PUSH1 0x32 PUSH1 0x4 MSTORE PUSH1 0x24 PUSH0 REVERT JUMPDEST PUSH32 0x4E487B7100000000000000000000000000000000000000000000000000000000 PUSH0 MSTORE PUSH1 0x22 PUSH1 0x4 MSTORE PUSH1 0x24 PUSH0 REVERT JUMPDEST PUSH0 PUSH1 0x2 DUP3 DIV SWAP1 POP PUSH1 0x1 DUP3 AND DUP1 PUSH2 0xBBF JUMPI PUSH1 0x7F DUP3 AND SWAP2 POP JUMPDEST PUSH1 0x20 DUP3 LT DUP2 SUB PUSH2 0xBD2 JUMPI PUSH2 0xBD1 PUSH2 0xB7B JUMP JUMPDEST JUMPDEST POP SWAP2 SWAP1 POP JUMP JUMPDEST PUSH0 DUP2 SWAP1 POP DUP2 PUSH0 MSTORE PUSH1 0x20 PUSH0 KECCAK256 SWAP1 POP SWAP2 SWAP1 POP JUMP JUMPDEST PUSH0 PUSH1 0x20 PUSH1 0x1F DUP4 ADD DIV SWAP1 POP SWAP2 SWAP1 POP JUMP JUMPDEST PUSH0 DUP3 DUP3 SHL SWAP1 POP SWAP3 SWAP2 POP POP JUMP JUMPDEST PUSH0 PUSH1 0x8 DUP4 MUL PUSH2 0xC34 PUSH32 0xFFFFFFFFFFFFFFFFFFFFFFFFFFFFFFFFFFFFFFFFFFFFFFFFFFFFFFFFFFFFFFFF DUP3 PUSH2 0xBF9 JUMP JUMPDEST PUSH2 0xC3E DUP7 DUP4 PUSH2 0xBF9 JUMP JUMPDEST SWAP6 POP DUP1 NOT DUP5 AND SWAP4 POP DUP1 DUP7 AND DUP5 OR SWAP3 POP POP POP SWAP4 SWAP3 POP POP POP JUMP JUMPDEST PUSH0 DUP2 SWAP1 POP SWAP2 SWAP1 POP JUMP JUMPDEST PUSH0 PUSH2 0xC79 PUSH2 0xC74 PUSH2 0xC6F DUP5 PUSH2 0x94D JUMP JUMPDEST PUSH2 0xC56 JUMP JUMPDEST PUSH2 0x94D JUMP JUMPDEST SWAP1 POP SWAP2 SWAP1 POP JUMP JUMPDEST PUSH0 DUP2 SWAP1 POP SWAP2 SWAP1 POP JUMP JUMPDEST PUSH2 0xC92 DUP4 PUSH2 0xC5F JUMP JUMPDEST PUSH2 0xCA6 PUSH2 0xC9E DUP3 PUSH2 0xC80 JUMP JUMPDEST DUP5 DUP5 SLOAD PUSH2 0xC05 JUMP JUMPDEST DUP3 SSTORE POP POP POP POP JUMP JUMPDEST PUSH0 SWAP1 JUMP JUMPDEST PUSH2 0xCBA PUSH2 0xCAE JUMP JUMPDEST PUSH2 0xCC5 DUP2 DUP5 DUP5 PUSH2 0xC89 JUMP JUMPDEST POP POP POP JUMP JUMPDEST JUMPDEST DUP2 DUP2 LT ISZERO PUSH2 0xCE8 JUMPI PUSH2 0xCDD PUSH0 DUP3 PUSH2 0xCB2 JUMP JUMPDEST PUSH1 0x1 DUP2 ADD SWAP1 POP PUSH2 0xCCB JUMP JUMPDEST POP POP JUMP JUMPDEST PUSH1 0x1F DUP3 GT ISZERO PUSH2 0xD2D JUMPI PUSH2 0xCFE DUP2 PUSH2 0xBD8 JUMP JUMPDEST PUSH2 0xD07 DUP5 PUSH2 0xBEA JUMP JUMPDEST DUP2 ADD PUSH1 0x20 DUP6 LT ISZERO PUSH2 0xD16 JUMPI DUP2 SWAP1 POP JUMPDEST PUSH2 0xD2A PUSH2 0xD22 DUP6 PUSH2 0xBEA JUMP JUMPDEST DUP4 ADD DUP3 PUSH2 0xCCA JUMP JUMPDEST POP POP JUMPDEST POP POP POP JUMP JUMPDEST PUSH0 DUP3 DUP3 SHR SWAP1 POP SWAP3 SWAP2 POP POP JUMP JUMPDEST PUSH0 PUSH2 0xD4D PUSH0 NOT DUP5 PUSH1 0x8 MUL PUSH2 0xD32 JUMP JUMPDEST NOT DUP1 DUP4 AND SWAP2 POP POP SWAP3 SWAP2 POP POP JUMP JUMPDEST PUSH0 PUSH2 0xD65 DUP4 DUP4 PUSH2 0xD3E JUMP JUMPDEST SWAP2 POP DUP3 PUSH1 0x2 MUL DUP3 OR SWAP1 POP SWAP3 SWAP2 POP POP JUMP JUMPDEST PUSH2 0xD7E DUP3 PUSH2 0x9AB JUMP JUMPDEST PUSH8 0xFFFFFFFFFFFFFFFF DUP2 GT ISZERO PUSH2 0xD97 JUMPI PUSH2 0xD96 PUSH2 0x68A JUMP JUMPDEST JUMPDEST PUSH2 0xDA1 DUP3 SLOAD PUSH2 0xBA8 JUMP JUMPDEST PUSH2 0xDAC DUP3 DUP3 DUP6 PUSH2 0xCEC JUMP JUMPDEST PUSH0 PUSH1 0x20 SWAP1 POP PUSH1 0x1F DUP4 GT PUSH1 0x1 DUP2 EQ PUSH2 0xDDD JUMPI PUSH0 DUP5 ISZERO PUSH2 0xDCB JUMPI DUP3 DUP8 ADD MLOAD SWAP1 POP JUMPDEST PUSH2 0xDD5 DUP6 DUP3 PUSH2 0xD5A JUMP JUMPDEST DUP7 SSTORE POP PUSH2 0xE3C JUMP JUMPDEST PUSH1 0x1F NOT DUP5 AND PUSH2 0xDEB DUP7 PUSH2 0xBD8 JUMP JUMPDEST PUSH0 JUMPDEST DUP3 DUP2 LT ISZERO PUSH2 0xE12 JUMPI DUP5 DUP10 ADD MLOAD DUP3 SSTORE PUSH1 0x1 DUP3 ADD SWAP2 POP PUSH1 0x20 DUP6 ADD SWAP5 POP PUSH1 0x20 DUP2 ADD SWAP1 POP PUSH2 0xDED JUMP JUMPDEST DUP7 DUP4 LT ISZERO PUSH2 0xE2F JUMPI DUP5 DUP10 ADD MLOAD PUSH2 0xE2B PUSH1 0x1F DUP10 AND DUP3 PUSH2 0xD3E JUMP JUMPDEST DUP4 SSTORE POP JUMPDEST PUSH1 0x1 PUSH1 0x2 DUP9 MUL ADD DUP9 SSTORE POP POP POP JUMPDEST POP POP POP POP POP POP JUMP JUMPDEST PUSH32 0x53757276657920646F6573206E6F742065786973740000000000000000000000 PUSH0 DUP3 ADD MSTORE POP JUMP JUMPDEST PUSH0 PUSH2 0xE78 PUSH1 0x15 DUP4 PUSH2 0x9B5 JUMP JUMPDEST SWAP2 POP PUSH2 0xE83 DUP3 PUSH2 0xE44 JUMP JUMPDEST PUSH1 0x20 DUP3 ADD SWAP1 POP SWAP2 SWAP1 POP JUMP JUMPDEST PUSH0 PUSH1 0x20 DUP3 ADD SWAP1 POP DUP2 DUP2 SUB PUSH0 DUP4 ADD MSTORE PUSH2 0xEA5 DUP2 PUSH2 0xE6C JUMP JUMPDEST SWAP1 POP SWAP2 SWAP1 POP JUMP JUMPDEST PUSH32 0x537572766579206973206E6F7420616374697665000000000000000000000000 PUSH0 DUP3 ADD MSTORE POP JUMP JUMPDEST PUSH0 PUSH2 0xEE0 PUSH1 0x14 DUP4 PUSH2 0x9B5 JUMP JUMPDEST SWAP2 POP PUSH2 0xEEB DUP3 PUSH2 0xEAC JUMP JUMPDEST PUSH1 0x20 DUP3 ADD SWAP1 POP SWAP2 SWAP1 POP JUMP JUMPDEST PUSH0 PUSH1 0x20 DUP3 ADD SWAP1 POP DUP2 DUP2 SUB PUSH0 DUP4 ADD MSTORE PUSH2 0xF0D DUP2 PUSH2 0xED4 JUMP JUMPDEST SWAP1 POP SWAP2 SWAP1 POP JUMP JUMPDEST PUSH32 0x496E76616C6964206F7074696F6E20696E646578000000000000000000000000 PUSH0 DUP3 ADD MSTORE POP JUMP JUMPDEST PUSH0 PUSH2 0xF48 PUSH1 0x14 DUP4 PUSH2 0x9B5 JUMP JUMPDEST SWAP2 POP PUSH2 0xF53 DUP3 PUSH2 0xF14 JUMP JUMPDEST PUSH1 0x20 DUP3 ADD SWAP1 POP SWAP2 SWAP1 POP JUMP JUMPDEST PUSH0 PUSH1 0x20 DUP3 ADD SWAP1 POP DUP2 DUP2 SUB PUSH0 DUP4 ADD MSTORE PUSH2 0xF75 DUP2 PUSH2 0xF3C JUMP JUMPDEST SWAP1 POP SWAP2 SWAP1 POP JUMP JUMPDEST PUSH32 0x557365722068617320616C726561647920766F74656400000000000000000000 PUSH0 DUP3 ADD MSTORE POP JUMP JUMPDEST PUSH0 PUSH2 0xFB0 PUSH1 0x16 DUP4 PUSH2 0x9B5 JUMP JUMPDEST SWAP2 POP PUSH2 0xFBB DUP3 PUSH2 0xF7C JUMP JUMPDEST PUSH1 0x20 DUP3 ADD SWAP1 POP SWAP2 SWAP1 POP JUMP JUMPDEST PUSH0 PUSH1 0x20 DUP3 ADD SWAP1 POP DUP2 DUP2 SUB PUSH0 DUP4 ADD MSTORE PUSH2 0xFDD DUP2 PUSH2 0xFA4 JUMP JUMPDEST SWAP1 POP SWAP2 SWAP1 POP JUMP JUMPDEST PUSH0 PUSH2 0xFEE DUP3 PUSH2 0x94D JUMP JUMPDEST SWAP2 POP PUSH32 0xFFFFFFFFFFFFFFFFFFFFFFFFFFFFFFFFFFFFFFFFFFFFFFFFFFFFFFFFFFFFFFFF DUP3 SUB PUSH2 0x1020 JUMPI PUSH2 0x101F PUSH2 0xAEE JUMP JUMPDEST JUMPDEST PUSH1 0x1 DUP3 ADD SWAP1 POP SWAP2 SWAP1 POP JUMP INVALID LOG2 PUSH5 0x6970667358 0x22 SLT KECCAK256 PUSH26 0x469E527C34DC616DFA0202E2CF64A39D649DE4A61F59EB94A155 0xCE PUSH30 0xA1457264736F6C634300081A0033A2646970667358221220817D344B1EB6 0xC0 SMOD DUP4 ORIGIN 0xEA LOG1 ADD RETURN DUP12 DUP3 STOP 0xB9 ORIGIN DUP4 0x2E ADDRESS 0xD BLOBBASEFEE 0xD6 SWAP5 GAS 0xC7 BYTE DIV DELEGATECALL 0xCF PUSH5 0x736F6C6343 STOP ADDMOD BYTE STOP CALLER "
				},
				"gasEstimates": {
					"creation": {
						"codeDepositCost": "2235200",
						"executionCost": "infinite",
						"totalCost": "infinite"
					},
					"external": {
						"allowance(address,address)": "infinite",
						"approve(address,uint256)": "infinite",
						"balanceOf(address)": "2874",
						"burn(uint256)": "infinite",
						"burnFrom(address,uint256)": "infinite",
						"cap()": "infinite",
						"createCrumbContract()": "infinite",
						"decimals()": "383",
						"name()": "infinite",
						"owner()": "2537",
						"renounceOwnership()": "infinite",
						"requestSurveyCreationOnCrumb(string,string[],bool)": "infinite",
						"symbol()": "infinite",
						"totalSupply()": "2522",
						"transfer(address,uint256)": "infinite",
						"transferFrom(address,address,uint256)": "infinite",
						"transferOwnership(address)": "infinite"
					},
					"internal": {
						"_update(address,address,uint256)": "infinite"
					}
				},
				"methodIdentifiers": {
					"allowance(address,address)": "dd62ed3e",
					"approve(address,uint256)": "095ea7b3",
					"balanceOf(address)": "70a08231",
					"burn(uint256)": "42966c68",
					"burnFrom(address,uint256)": "79cc6790",
					"cap()": "355274ea",
					"createCrumbContract()": "4735c94c",
					"decimals()": "313ce567",
					"name()": "06fdde03",
					"owner()": "8da5cb5b",
					"renounceOwnership()": "715018a6",
					"requestSurveyCreationOnCrumb(string,string[],bool)": "0528395e",
					"symbol()": "95d89b41",
					"totalSupply()": "18160ddd",
					"transfer(address,uint256)": "a9059cbb",
					"transferFrom(address,address,uint256)": "23b872dd",
					"transferOwnership(address)": "f2fde38b"
				}
			},
			"storageLayout": {
				"storage": [
					{
						"astId": 307,
						"contract": "contracts/Soboro.sol:Soboro",
						"label": "_balances",
						"offset": 0,
						"slot": "0",
						"type": "t_mapping(t_address,t_uint256)"
					},
					{
						"astId": 313,
						"contract": "contracts/Soboro.sol:Soboro",
						"label": "_allowances",
						"offset": 0,
						"slot": "1",
						"type": "t_mapping(t_address,t_mapping(t_address,t_uint256))"
					},
					{
						"astId": 315,
						"contract": "contracts/Soboro.sol:Soboro",
						"label": "_totalSupply",
						"offset": 0,
						"slot": "2",
						"type": "t_uint256"
					},
					{
						"astId": 317,
						"contract": "contracts/Soboro.sol:Soboro",
						"label": "_name",
						"offset": 0,
						"slot": "3",
						"type": "t_string_storage"
					},
					{
						"astId": 319,
						"contract": "contracts/Soboro.sol:Soboro",
						"label": "_symbol",
						"offset": 0,
						"slot": "4",
						"type": "t_string_storage"
					},
					{
						"astId": 8,
						"contract": "contracts/Soboro.sol:Soboro",
						"label": "_owner",
						"offset": 0,
						"slot": "5",
						"type": "t_address"
					},
					{
						"astId": 1105,
						"contract": "contracts/Soboro.sol:Soboro",
						"label": "crumbMap",
						"offset": 0,
						"slot": "6",
						"type": "t_mapping(t_uint256,t_address)"
					},
					{
						"astId": 1108,
						"contract": "contracts/Soboro.sol:Soboro",
						"label": "crumbGenID",
						"offset": 0,
						"slot": "7",
						"type": "t_uint256"
					},
					{
						"astId": 1111,
						"contract": "contracts/Soboro.sol:Soboro",
						"label": "maxSurveysPerCrumb",
						"offset": 0,
						"slot": "8",
						"type": "t_uint256"
					}
				],
				"types": {
					"t_address": {
						"encoding": "inplace",
						"label": "address",
						"numberOfBytes": "20"
					},
					"t_mapping(t_address,t_mapping(t_address,t_uint256))": {
						"encoding": "mapping",
						"key": "t_address",
						"label": "mapping(address => mapping(address => uint256))",
						"numberOfBytes": "32",
						"value": "t_mapping(t_address,t_uint256)"
					},
					"t_mapping(t_address,t_uint256)": {
						"encoding": "mapping",
						"key": "t_address",
						"label": "mapping(address => uint256)",
						"numberOfBytes": "32",
						"value": "t_uint256"
					},
					"t_mapping(t_uint256,t_address)": {
						"encoding": "mapping",
						"key": "t_uint256",
						"label": "mapping(uint256 => address)",
						"numberOfBytes": "32",
						"value": "t_address"
					},
					"t_string_storage": {
						"encoding": "bytes",
						"label": "string",
						"numberOfBytes": "32"
					},
					"t_uint256": {
						"encoding": "inplace",
						"label": "uint256",
						"numberOfBytes": "32"
					}
				}
			},
			"userdoc": {
				"kind": "user",
				"methods": {},
				"version": 1
			}
		}
	}
}