{
	"contracts/Soboro.sol": {
		"Soboro": {
			"abi": [
				{
					"inputs": [],
					"stateMutability": "nonpayable",
					"type": "constructor"
				},
				{
					"inputs": [
						{
							"internalType": "uint256",
							"name": "increasedSupply",
							"type": "uint256"
						},
						{
							"internalType": "uint256",
							"name": "cap",
							"type": "uint256"
						}
					],
					"name": "ERC20ExceededCap",
					"type": "error"
				},
				{
					"inputs": [
						{
							"internalType": "address",
							"name": "spender",
							"type": "address"
						},
						{
							"internalType": "uint256",
							"name": "allowance",
							"type": "uint256"
						},
						{
							"internalType": "uint256",
							"name": "needed",
							"type": "uint256"
						}
					],
					"name": "ERC20InsufficientAllowance",
					"type": "error"
				},
				{
					"inputs": [
						{
							"internalType": "address",
							"name": "sender",
							"type": "address"
						},
						{
							"internalType": "uint256",
							"name": "balance",
							"type": "uint256"
						},
						{
							"internalType": "uint256",
							"name": "needed",
							"type": "uint256"
						}
					],
					"name": "ERC20InsufficientBalance",
					"type": "error"
				},
				{
					"inputs": [
						{
							"internalType": "address",
							"name": "approver",
							"type": "address"
						}
					],
					"name": "ERC20InvalidApprover",
					"type": "error"
				},
				{
					"inputs": [
						{
							"internalType": "uint256",
							"name": "cap",
							"type": "uint256"
						}
					],
					"name": "ERC20InvalidCap",
					"type": "error"
				},
				{
					"inputs": [
						{
							"internalType": "address",
							"name": "receiver",
							"type": "address"
						}
					],
					"name": "ERC20InvalidReceiver",
					"type": "error"
				},
				{
					"inputs": [
						{
							"internalType": "address",
							"name": "sender",
							"type": "address"
						}
					],
					"name": "ERC20InvalidSender",
					"type": "error"
				},
				{
					"inputs": [
						{
							"internalType": "address",
							"name": "spender",
							"type": "address"
						}
					],
					"name": "ERC20InvalidSpender",
					"type": "error"
				},
				{
					"inputs": [
						{
							"internalType": "address",
							"name": "owner",
							"type": "address"
						}
					],
					"name": "OwnableInvalidOwner",
					"type": "error"
				},
				{
					"inputs": [
						{
							"internalType": "address",
							"name": "account",
							"type": "address"
						}
					],
					"name": "OwnableUnauthorizedAccount",
					"type": "error"
				},
				{
					"anonymous": false,
					"inputs": [
						{
							"indexed": true,
							"internalType": "address",
							"name": "owner",
							"type": "address"
						},
						{
							"indexed": true,
							"internalType": "address",
							"name": "spender",
							"type": "address"
						},
						{
							"indexed": false,
							"internalType": "uint256",
							"name": "value",
							"type": "uint256"
						}
					],
					"name": "Approval",
					"type": "event"
				},
				{
					"anonymous": false,
					"inputs": [
						{
							"indexed": true,
							"internalType": "address",
							"name": "previousOwner",
							"type": "address"
						},
						{
							"indexed": true,
							"internalType": "address",
							"name": "newOwner",
							"type": "address"
						}
					],
					"name": "OwnershipTransferred",
					"type": "event"
				},
				{
					"anonymous": false,
					"inputs": [
						{
							"indexed": true,
							"internalType": "address",
							"name": "from",
							"type": "address"
						},
						{
							"indexed": true,
							"internalType": "address",
							"name": "to",
							"type": "address"
						},
						{
							"indexed": false,
							"internalType": "uint256",
							"name": "value",
							"type": "uint256"
						}
					],
					"name": "Transfer",
					"type": "event"
				},
				{
					"inputs": [
						{
							"internalType": "address",
							"name": "owner",
							"type": "address"
						},
						{
							"internalType": "address",
							"name": "spender",
							"type": "address"
						}
					],
					"name": "allowance",
					"outputs": [
						{
							"internalType": "uint256",
							"name": "",
							"type": "uint256"
						}
					],
					"stateMutability": "view",
					"type": "function"
				},
				{
					"inputs": [
						{
							"internalType": "address",
							"name": "spender",
							"type": "address"
						},
						{
							"internalType": "uint256",
							"name": "value",
							"type": "uint256"
						}
					],
					"name": "approve",
					"outputs": [
						{
							"internalType": "bool",
							"name": "",
							"type": "bool"
						}
					],
					"stateMutability": "nonpayable",
					"type": "function"
				},
				{
					"inputs": [
						{
							"internalType": "address",
							"name": "account",
							"type": "address"
						}
					],
					"name": "balanceOf",
					"outputs": [
						{
							"internalType": "uint256",
							"name": "",
							"type": "uint256"
						}
					],
					"stateMutability": "view",
					"type": "function"
				},
				{
					"inputs": [
						{
							"internalType": "uint256",
							"name": "value",
							"type": "uint256"
						}
					],
					"name": "burn",
					"outputs": [],
					"stateMutability": "nonpayable",
					"type": "function"
				},
				{
					"inputs": [
						{
							"internalType": "address",
							"name": "account",
							"type": "address"
						},
						{
							"internalType": "uint256",
							"name": "value",
							"type": "uint256"
						}
					],
					"name": "burnFrom",
					"outputs": [],
					"stateMutability": "nonpayable",
					"type": "function"
				},
				{
					"inputs": [],
					"name": "cap",
					"outputs": [
						{
							"internalType": "uint256",
							"name": "",
							"type": "uint256"
						}
					],
					"stateMutability": "view",
					"type": "function"
				},
				{
					"inputs": [],
					"name": "createCrumbContract",
					"outputs": [],
					"stateMutability": "nonpayable",
					"type": "function"
				},
				{
					"inputs": [],
					"name": "decimals",
					"outputs": [
						{
							"internalType": "uint8",
							"name": "",
							"type": "uint8"
						}
					],
					"stateMutability": "view",
					"type": "function"
				},
				{
					"inputs": [],
					"name": "name",
					"outputs": [
						{
							"internalType": "string",
							"name": "",
							"type": "string"
						}
					],
					"stateMutability": "view",
					"type": "function"
				},
				{
					"inputs": [],
					"name": "owner",
					"outputs": [
						{
							"internalType": "address",
							"name": "",
							"type": "address"
						}
					],
					"stateMutability": "view",
					"type": "function"
				},
				{
					"inputs": [],
					"name": "renounceOwnership",
					"outputs": [],
					"stateMutability": "nonpayable",
					"type": "function"
				},
				{
					"inputs": [
						{
							"internalType": "string",
							"name": "_question",
							"type": "string"
						},
						{
							"internalType": "string[]",
							"name": "_options",
							"type": "string[]"
						}
					],
					"name": "requestSurveyCreationOnCrumb",
					"outputs": [],
					"stateMutability": "nonpayable",
					"type": "function"
				},
				{
					"inputs": [],
					"name": "symbol",
					"outputs": [
						{
							"internalType": "string",
							"name": "",
							"type": "string"
						}
					],
					"stateMutability": "view",
					"type": "function"
				},
				{
					"inputs": [],
					"name": "totalSupply",
					"outputs": [
						{
							"internalType": "uint256",
							"name": "",
							"type": "uint256"
						}
					],
					"stateMutability": "view",
					"type": "function"
				},
				{
					"inputs": [
						{
							"internalType": "address",
							"name": "to",
							"type": "address"
						},
						{
							"internalType": "uint256",
							"name": "value",
							"type": "uint256"
						}
					],
					"name": "transfer",
					"outputs": [
						{
							"internalType": "bool",
							"name": "",
							"type": "bool"
						}
					],
					"stateMutability": "nonpayable",
					"type": "function"
				},
				{
					"inputs": [
						{
							"internalType": "address",
							"name": "from",
							"type": "address"
						},
						{
							"internalType": "address",
							"name": "to",
							"type": "address"
						},
						{
							"internalType": "uint256",
							"name": "value",
							"type": "uint256"
						}
					],
					"name": "transferFrom",
					"outputs": [
						{
							"internalType": "bool",
							"name": "",
							"type": "bool"
						}
					],
					"stateMutability": "nonpayable",
					"type": "function"
				},
				{
					"inputs": [
						{
							"internalType": "address",
							"name": "newOwner",
							"type": "address"
						}
					],
					"name": "transferOwnership",
					"outputs": [],
					"stateMutability": "nonpayable",
					"type": "function"
				}
			],
			"devdoc": {
				"errors": {
					"ERC20ExceededCap(uint256,uint256)": [
						{
							"details": "Total supply cap has been exceeded."
						}
					],
					"ERC20InsufficientAllowance(address,uint256,uint256)": [
						{
							"details": "Indicates a failure with the `spender`’s `allowance`. Used in transfers.",
							"params": {
								"allowance": "Amount of tokens a `spender` is allowed to operate with.",
								"needed": "Minimum amount required to perform a transfer.",
								"spender": "Address that may be allowed to operate on tokens without being their owner."
							}
						}
					],
					"ERC20InsufficientBalance(address,uint256,uint256)": [
						{
							"details": "Indicates an error related to the current `balance` of a `sender`. Used in transfers.",
							"params": {
								"balance": "Current balance for the interacting account.",
								"needed": "Minimum amount required to perform a transfer.",
								"sender": "Address whose tokens are being transferred."
							}
						}
					],
					"ERC20InvalidApprover(address)": [
						{
							"details": "Indicates a failure with the `approver` of a token to be approved. Used in approvals.",
							"params": {
								"approver": "Address initiating an approval operation."
							}
						}
					],
					"ERC20InvalidCap(uint256)": [
						{
							"details": "The supplied cap is not a valid cap."
						}
					],
					"ERC20InvalidReceiver(address)": [
						{
							"details": "Indicates a failure with the token `receiver`. Used in transfers.",
							"params": {
								"receiver": "Address to which tokens are being transferred."
							}
						}
					],
					"ERC20InvalidSender(address)": [
						{
							"details": "Indicates a failure with the token `sender`. Used in transfers.",
							"params": {
								"sender": "Address whose tokens are being transferred."
							}
						}
					],
					"ERC20InvalidSpender(address)": [
						{
							"details": "Indicates a failure with the `spender` to be approved. Used in approvals.",
							"params": {
								"spender": "Address that may be allowed to operate on tokens without being their owner."
							}
						}
					],
					"OwnableInvalidOwner(address)": [
						{
							"details": "The owner is not a valid owner account. (eg. `address(0)`)"
						}
					],
					"OwnableUnauthorizedAccount(address)": [
						{
							"details": "The caller account is not authorized to perform an operation."
						}
					]
				},
				"events": {
					"Approval(address,address,uint256)": {
						"details": "Emitted when the allowance of a `spender` for an `owner` is set by a call to {approve}. `value` is the new allowance."
					},
					"Transfer(address,address,uint256)": {
						"details": "Emitted when `value` tokens are moved from one account (`from`) to another (`to`). Note that `value` may be zero."
					}
				},
				"kind": "dev",
				"methods": {
					"allowance(address,address)": {
						"details": "See {IERC20-allowance}."
					},
					"approve(address,uint256)": {
						"details": "See {IERC20-approve}. NOTE: If `value` is the maximum `uint256`, the allowance is not updated on `transferFrom`. This is semantically equivalent to an infinite approval. Requirements: - `spender` cannot be the zero address."
					},
					"balanceOf(address)": {
						"details": "See {IERC20-balanceOf}."
					},
					"burn(uint256)": {
						"details": "Destroys a `value` amount of tokens from the caller. See {ERC20-_burn}."
					},
					"burnFrom(address,uint256)": {
						"details": "Destroys a `value` amount of tokens from `account`, deducting from the caller's allowance. See {ERC20-_burn} and {ERC20-allowance}. Requirements: - the caller must have allowance for ``accounts``'s tokens of at least `value`."
					},
					"cap()": {
						"details": "Returns the cap on the token's total supply."
					},
					"decimals()": {
						"details": "Returns the number of decimals used to get its user representation. For example, if `decimals` equals `2`, a balance of `505` tokens should be displayed to a user as `5.05` (`505 / 10 ** 2`). Tokens usually opt for a value of 18, imitating the relationship between Ether and Wei. This is the default value returned by this function, unless it's overridden. NOTE: This information is only used for _display_ purposes: it in no way affects any of the arithmetic of the contract, including {IERC20-balanceOf} and {IERC20-transfer}."
					},
					"name()": {
						"details": "Returns the name of the token."
					},
					"owner()": {
						"details": "Returns the address of the current owner."
					},
					"renounceOwnership()": {
						"details": "Leaves the contract without owner. It will not be possible to call `onlyOwner` functions. Can only be called by the current owner. NOTE: Renouncing ownership will leave the contract without an owner, thereby disabling any functionality that is only available to the owner."
					},
					"symbol()": {
						"details": "Returns the symbol of the token, usually a shorter version of the name."
					},
					"totalSupply()": {
						"details": "See {IERC20-totalSupply}."
					},
					"transfer(address,uint256)": {
						"details": "See {IERC20-transfer}. Requirements: - `to` cannot be the zero address. - the caller must have a balance of at least `value`."
					},
					"transferFrom(address,address,uint256)": {
						"details": "See {IERC20-transferFrom}. Skips emitting an {Approval} event indicating an allowance update. This is not required by the ERC. See {xref-ERC20-_approve-address-address-uint256-bool-}[_approve]. NOTE: Does not update the allowance if the current allowance is the maximum `uint256`. Requirements: - `from` and `to` cannot be the zero address. - `from` must have a balance of at least `value`. - the caller must have allowance for ``from``'s tokens of at least `value`."
					},
					"transferOwnership(address)": {
						"details": "Transfers ownership of the contract to a new account (`newOwner`). Can only be called by the current owner."
					}
				},
				"version": 1
			},
			"evm": {
				"assembly": "    /* \"contracts/Soboro.sol\":421:1851  contract Soboro is ERC20, ERC20Capped, ERC20Burnable, Ownable {... */\n  mstore(0x40, 0xa0)\n    /* \"contracts/Soboro.sol\":705:706  0 */\n  0x00\n    /* \"contracts/Soboro.sol\":679:706  uint private crumbGenID = 0 */\n  0x07\n  sstore\n    /* \"contracts/Soboro.sol\":746:748  50 */\n  0x32\n    /* \"contracts/Soboro.sol\":712:748  uint private maxSurveysPerCrumb = 50 */\n  0x08\n  sstore\n    /* \"contracts/Soboro.sol\":784:906  constructor() ERC20(\"Soboro\", \"SBR\") ERC20Capped(MAX_SUPPLY) Ownable(msg.sender) {... */\n  callvalue\n  dup1\n  iszero\n  tag_1\n  jumpi\n  0x00\n  dup1\n  revert\ntag_1:\n  pop\n    /* \"contracts/Soboro.sol\":853:863  msg.sender */\n  caller\n    /* \"contracts/Soboro.sol\":620:626  10**11 */\n  0x174876e800\n    /* \"@openzeppelin/contracts/token/ERC20/ERC20.sol\":1582:1695  constructor(string memory name_, string memory symbol_) {... */\n  mload(0x40)\n  dup1\n  0x40\n  add\n  0x40\n  mstore\n  dup1\n  0x06\n  dup2\n  mstore\n  0x20\n  add\n  0x536f626f726f0000000000000000000000000000000000000000000000000000\n  dup2\n  mstore\n  pop\n  mload(0x40)\n  dup1\n  0x40\n  add\n  0x40\n  mstore\n  dup1\n  0x03\n  dup2\n  mstore\n  0x20\n  add\n  0x5342520000000000000000000000000000000000000000000000000000000000\n  dup2\n  mstore\n  pop\n    /* \"@openzeppelin/contracts/token/ERC20/ERC20.sol\":1656:1661  name_ */\n  dup2\n    /* \"@openzeppelin/contracts/token/ERC20/ERC20.sol\":1648:1653  _name */\n  0x03\n    /* \"@openzeppelin/contracts/token/ERC20/ERC20.sol\":1648:1661  _name = name_ */\n  swap1\n  dup2\n  tag_7\n  swap2\n  swap1\n  tag_8\n  jump\t// in\ntag_7:\n  pop\n    /* \"@openzeppelin/contracts/token/ERC20/ERC20.sol\":1681:1688  symbol_ */\n  dup1\n    /* \"@openzeppelin/contracts/token/ERC20/ERC20.sol\":1671:1678  _symbol */\n  0x04\n    /* \"@openzeppelin/contracts/token/ERC20/ERC20.sol\":1671:1688  _symbol = symbol_ */\n  swap1\n  dup2\n  tag_9\n  swap2\n  swap1\n  tag_8\n  jump\t// in\ntag_9:\n  pop\n    /* \"@openzeppelin/contracts/token/ERC20/ERC20.sol\":1582:1695  constructor(string memory name_, string memory symbol_) {... */\n  pop\n  pop\n    /* \"@openzeppelin/contracts/token/ERC20/extensions/ERC20Capped.sol\":764:765  0 */\n  0x00\n    /* \"@openzeppelin/contracts/token/ERC20/extensions/ERC20Capped.sol\":756:760  cap_ */\n  dup2\n    /* \"@openzeppelin/contracts/token/ERC20/extensions/ERC20Capped.sol\":756:765  cap_ == 0 */\n  sub\n    /* \"@openzeppelin/contracts/token/ERC20/extensions/ERC20Capped.sol\":752:817  if (cap_ == 0) {... */\n  tag_11\n  jumpi\n    /* \"@openzeppelin/contracts/token/ERC20/extensions/ERC20Capped.sol\":804:805  0 */\n  0x00\n    /* \"@openzeppelin/contracts/token/ERC20/extensions/ERC20Capped.sol\":788:806  ERC20InvalidCap(0) */\n  mload(0x40)\n  0x392e1e2700000000000000000000000000000000000000000000000000000000\n  dup2\n  mstore\n  0x04\n  add\n  tag_12\n  swap2\n  swap1\n  tag_13\n  jump\t// in\ntag_12:\n  mload(0x40)\n  dup1\n  swap2\n  sub\n  swap1\n  revert\n    /* \"@openzeppelin/contracts/token/ERC20/extensions/ERC20Capped.sol\":752:817  if (cap_ == 0) {... */\ntag_11:\n    /* \"@openzeppelin/contracts/token/ERC20/extensions/ERC20Capped.sol\":833:837  cap_ */\n  dup1\n    /* \"@openzeppelin/contracts/token/ERC20/extensions/ERC20Capped.sol\":826:837  _cap = cap_ */\n  0x80\n  dup2\n  dup2\n  mstore\n  pop\n  pop\n    /* \"@openzeppelin/contracts/token/ERC20/extensions/ERC20Capped.sol\":716:844  constructor(uint256 cap_) {... */\n  pop\n    /* \"@openzeppelin/contracts/access/Ownable.sol\":1297:1298  0 */\n  0x00\n    /* \"@openzeppelin/contracts/access/Ownable.sol\":1273:1299  initialOwner == address(0) */\n  0xffffffffffffffffffffffffffffffffffffffff\n  and\n    /* \"@openzeppelin/contracts/access/Ownable.sol\":1273:1285  initialOwner */\n  dup2\n    /* \"@openzeppelin/contracts/access/Ownable.sol\":1273:1299  initialOwner == address(0) */\n  0xffffffffffffffffffffffffffffffffffffffff\n  and\n  sub\n    /* \"@openzeppelin/contracts/access/Ownable.sol\":1269:1364  if (initialOwner == address(0)) {... */\n  tag_15\n  jumpi\n    /* \"@openzeppelin/contracts/access/Ownable.sol\":1350:1351  0 */\n  0x00\n    /* \"@openzeppelin/contracts/access/Ownable.sol\":1322:1353  OwnableInvalidOwner(address(0)) */\n  mload(0x40)\n  0x1e4fbdf700000000000000000000000000000000000000000000000000000000\n  dup2\n  mstore\n  0x04\n  add\n  tag_16\n  swap2\n  swap1\n  tag_17\n  jump\t// in\ntag_16:\n  mload(0x40)\n  dup1\n  swap2\n  sub\n  swap1\n  revert\n    /* \"@openzeppelin/contracts/access/Ownable.sol\":1269:1364  if (initialOwner == address(0)) {... */\ntag_15:\n    /* \"@openzeppelin/contracts/access/Ownable.sol\":1373:1405  _transferOwnership(initialOwner) */\n  tag_18\n    /* \"@openzeppelin/contracts/access/Ownable.sol\":1392:1404  initialOwner */\n  dup2\n    /* \"@openzeppelin/contracts/access/Ownable.sol\":1373:1391  _transferOwnership */\n  shl(0x20, tag_19)\n    /* \"@openzeppelin/contracts/access/Ownable.sol\":1373:1405  _transferOwnership(initialOwner) */\n  0x20\n  shr\n  jump\t// in\ntag_18:\n    /* \"@openzeppelin/contracts/access/Ownable.sol\":1225:1412  constructor(address initialOwner) {... */\n  pop\n    /* \"contracts/Soboro.sol\":875:899  _mint(msg.sender, 10**5) */\n  tag_21\n    /* \"contracts/Soboro.sol\":881:891  msg.sender */\n  caller\n    /* \"contracts/Soboro.sol\":893:898  10**5 */\n  0x0186a0\n    /* \"contracts/Soboro.sol\":875:880  _mint */\n  shl(0x20, tag_22)\n    /* \"contracts/Soboro.sol\":875:899  _mint(msg.sender, 10**5) */\n  0x20\n  shr\n  jump\t// in\ntag_21:\n    /* \"contracts/Soboro.sol\":421:1851  contract Soboro is ERC20, ERC20Capped, ERC20Burnable, Ownable {... */\n  jump(tag_23)\n    /* \"@openzeppelin/contracts/access/Ownable.sol\":2912:3099  function _transferOwnership(address newOwner) internal virtual {... */\ntag_19:\n    /* \"@openzeppelin/contracts/access/Ownable.sol\":2985:3001  address oldOwner */\n  0x00\n    /* \"@openzeppelin/contracts/access/Ownable.sol\":3004:3010  _owner */\n  0x05\n  0x00\n  swap1\n  sload\n  swap1\n  0x0100\n  exp\n  swap1\n  div\n  0xffffffffffffffffffffffffffffffffffffffff\n  and\n    /* \"@openzeppelin/contracts/access/Ownable.sol\":2985:3010  address oldOwner = _owner */\n  swap1\n  pop\n    /* \"@openzeppelin/contracts/access/Ownable.sol\":3029:3037  newOwner */\n  dup2\n    /* \"@openzeppelin/contracts/access/Ownable.sol\":3020:3026  _owner */\n  0x05\n  0x00\n    /* \"@openzeppelin/contracts/access/Ownable.sol\":3020:3037  _owner = newOwner */\n  0x0100\n  exp\n  dup2\n  sload\n  dup2\n  0xffffffffffffffffffffffffffffffffffffffff\n  mul\n  not\n  and\n  swap1\n  dup4\n  0xffffffffffffffffffffffffffffffffffffffff\n  and\n  mul\n  or\n  swap1\n  sstore\n  pop\n    /* \"@openzeppelin/contracts/access/Ownable.sol\":3083:3091  newOwner */\n  dup2\n    /* \"@openzeppelin/contracts/access/Ownable.sol\":3052:3092  OwnershipTransferred(oldOwner, newOwner) */\n  0xffffffffffffffffffffffffffffffffffffffff\n  and\n    /* \"@openzeppelin/contracts/access/Ownable.sol\":3073:3081  oldOwner */\n  dup2\n    /* \"@openzeppelin/contracts/access/Ownable.sol\":3052:3092  OwnershipTransferred(oldOwner, newOwner) */\n  0xffffffffffffffffffffffffffffffffffffffff\n  and\n  0x8be0079c531659141344cd1fd0a4f28419497f9722a3daafe3b4186f6b6457e0\n  mload(0x40)\n  mload(0x40)\n  dup1\n  swap2\n  sub\n  swap1\n  log3\n    /* \"@openzeppelin/contracts/access/Ownable.sol\":2975:3099  {... */\n  pop\n    /* \"@openzeppelin/contracts/access/Ownable.sol\":2912:3099  function _transferOwnership(address newOwner) internal virtual {... */\n  pop\n  jump\t// out\n    /* \"@openzeppelin/contracts/token/ERC20/ERC20.sol\":7439:7647  function _mint(address account, uint256 value) internal {... */\ntag_22:\n    /* \"@openzeppelin/contracts/token/ERC20/ERC20.sol\":7528:7529  0 */\n  0x00\n    /* \"@openzeppelin/contracts/token/ERC20/ERC20.sol\":7509:7530  account == address(0) */\n  0xffffffffffffffffffffffffffffffffffffffff\n  and\n    /* \"@openzeppelin/contracts/token/ERC20/ERC20.sol\":7509:7516  account */\n  dup3\n    /* \"@openzeppelin/contracts/token/ERC20/ERC20.sol\":7509:7530  account == address(0) */\n  0xffffffffffffffffffffffffffffffffffffffff\n  and\n  sub\n    /* \"@openzeppelin/contracts/token/ERC20/ERC20.sol\":7505:7596  if (account == address(0)) {... */\n  tag_26\n  jumpi\n    /* \"@openzeppelin/contracts/token/ERC20/ERC20.sol\":7582:7583  0 */\n  0x00\n    /* \"@openzeppelin/contracts/token/ERC20/ERC20.sol\":7553:7585  ERC20InvalidReceiver(address(0)) */\n  mload(0x40)\n  0xec442f0500000000000000000000000000000000000000000000000000000000\n  dup2\n  mstore\n  0x04\n  add\n  tag_27\n  swap2\n  swap1\n  tag_17\n  jump\t// in\ntag_27:\n  mload(0x40)\n  dup1\n  swap2\n  sub\n  swap1\n  revert\n    /* \"@openzeppelin/contracts/token/ERC20/ERC20.sol\":7505:7596  if (account == address(0)) {... */\ntag_26:\n    /* \"@openzeppelin/contracts/token/ERC20/ERC20.sol\":7605:7640  _update(address(0), account, value) */\n  tag_28\n    /* \"@openzeppelin/contracts/token/ERC20/ERC20.sol\":7621:7622  0 */\n  0x00\n    /* \"@openzeppelin/contracts/token/ERC20/ERC20.sol\":7625:7632  account */\n  dup4\n    /* \"@openzeppelin/contracts/token/ERC20/ERC20.sol\":7634:7639  value */\n  dup4\n    /* \"@openzeppelin/contracts/token/ERC20/ERC20.sol\":7605:7612  _update */\n  shl(0x20, tag_29)\n    /* \"@openzeppelin/contracts/token/ERC20/ERC20.sol\":7605:7640  _update(address(0), account, value) */\n  0x20\n  shr\n  jump\t// in\ntag_28:\n    /* \"@openzeppelin/contracts/token/ERC20/ERC20.sol\":7439:7647  function _mint(address account, uint256 value) internal {... */\n  pop\n  pop\n  jump\t// out\n    /* \"contracts/Soboro.sol\":912:1055  function _update(address from, address to, uint256 value) internal override(ERC20, ERC20Capped) {... */\ntag_29:\n    /* \"contracts/Soboro.sol\":1018:1048  super._update(from, to, value) */\n  tag_31\n    /* \"contracts/Soboro.sol\":1032:1036  from */\n  dup4\n    /* \"contracts/Soboro.sol\":1038:1040  to */\n  dup4\n    /* \"contracts/Soboro.sol\":1042:1047  value */\n  dup4\n    /* \"contracts/Soboro.sol\":1018:1031  super._update */\n  shl(0x20, tag_32)\n    /* \"contracts/Soboro.sol\":1018:1048  super._update(from, to, value) */\n  0x20\n  shr\n  jump\t// in\ntag_31:\n    /* \"contracts/Soboro.sol\":912:1055  function _update(address from, address to, uint256 value) internal override(ERC20, ERC20Capped) {... */\n  pop\n  pop\n  pop\n  jump\t// out\n    /* \"@openzeppelin/contracts/token/ERC20/extensions/ERC20Capped.sol\":1059:1430  function _update(address from, address to, uint256 value) internal virtual override {... */\ntag_32:\n    /* \"@openzeppelin/contracts/token/ERC20/extensions/ERC20Capped.sol\":1153:1183  super._update(from, to, value) */\n  tag_34\n    /* \"@openzeppelin/contracts/token/ERC20/extensions/ERC20Capped.sol\":1167:1171  from */\n  dup4\n    /* \"@openzeppelin/contracts/token/ERC20/extensions/ERC20Capped.sol\":1173:1175  to */\n  dup4\n    /* \"@openzeppelin/contracts/token/ERC20/extensions/ERC20Capped.sol\":1177:1182  value */\n  dup4\n    /* \"@openzeppelin/contracts/token/ERC20/extensions/ERC20Capped.sol\":1153:1166  super._update */\n  shl(0x20, tag_35)\n    /* \"@openzeppelin/contracts/token/ERC20/extensions/ERC20Capped.sol\":1153:1183  super._update(from, to, value) */\n  0x20\n  shr\n  jump\t// in\ntag_34:\n    /* \"@openzeppelin/contracts/token/ERC20/extensions/ERC20Capped.sol\":1214:1215  0 */\n  0x00\n    /* \"@openzeppelin/contracts/token/ERC20/extensions/ERC20Capped.sol\":1198:1216  from == address(0) */\n  0xffffffffffffffffffffffffffffffffffffffff\n  and\n    /* \"@openzeppelin/contracts/token/ERC20/extensions/ERC20Capped.sol\":1198:1202  from */\n  dup4\n    /* \"@openzeppelin/contracts/token/ERC20/extensions/ERC20Capped.sol\":1198:1216  from == address(0) */\n  0xffffffffffffffffffffffffffffffffffffffff\n  and\n  sub\n    /* \"@openzeppelin/contracts/token/ERC20/extensions/ERC20Capped.sol\":1194:1424  if (from == address(0)) {... */\n  tag_36\n  jumpi\n    /* \"@openzeppelin/contracts/token/ERC20/extensions/ERC20Capped.sol\":1232:1249  uint256 maxSupply */\n  0x00\n    /* \"@openzeppelin/contracts/token/ERC20/extensions/ERC20Capped.sol\":1252:1257  cap() */\n  tag_37\n    /* \"@openzeppelin/contracts/token/ERC20/extensions/ERC20Capped.sol\":1252:1255  cap */\n  shl(0x20, tag_38)\n    /* \"@openzeppelin/contracts/token/ERC20/extensions/ERC20Capped.sol\":1252:1257  cap() */\n  0x20\n  shr\n  jump\t// in\ntag_37:\n    /* \"@openzeppelin/contracts/token/ERC20/extensions/ERC20Capped.sol\":1232:1257  uint256 maxSupply = cap() */\n  swap1\n  pop\n    /* \"@openzeppelin/contracts/token/ERC20/extensions/ERC20Capped.sol\":1271:1285  uint256 supply */\n  0x00\n    /* \"@openzeppelin/contracts/token/ERC20/extensions/ERC20Capped.sol\":1288:1301  totalSupply() */\n  tag_39\n    /* \"@openzeppelin/contracts/token/ERC20/extensions/ERC20Capped.sol\":1288:1299  totalSupply */\n  shl(0x20, tag_40)\n    /* \"@openzeppelin/contracts/token/ERC20/extensions/ERC20Capped.sol\":1288:1301  totalSupply() */\n  0x20\n  shr\n  jump\t// in\ntag_39:\n    /* \"@openzeppelin/contracts/token/ERC20/extensions/ERC20Capped.sol\":1271:1301  uint256 supply = totalSupply() */\n  swap1\n  pop\n    /* \"@openzeppelin/contracts/token/ERC20/extensions/ERC20Capped.sol\":1328:1337  maxSupply */\n  dup2\n    /* \"@openzeppelin/contracts/token/ERC20/extensions/ERC20Capped.sol\":1319:1325  supply */\n  dup2\n    /* \"@openzeppelin/contracts/token/ERC20/extensions/ERC20Capped.sol\":1319:1337  supply > maxSupply */\n  gt\n    /* \"@openzeppelin/contracts/token/ERC20/extensions/ERC20Capped.sol\":1315:1414  if (supply > maxSupply) {... */\n  iszero\n  tag_41\n  jumpi\n    /* \"@openzeppelin/contracts/token/ERC20/extensions/ERC20Capped.sol\":1381:1387  supply */\n  dup1\n    /* \"@openzeppelin/contracts/token/ERC20/extensions/ERC20Capped.sol\":1389:1398  maxSupply */\n  dup3\n    /* \"@openzeppelin/contracts/token/ERC20/extensions/ERC20Capped.sol\":1364:1399  ERC20ExceededCap(supply, maxSupply) */\n  mload(0x40)\n  0x9e79f85400000000000000000000000000000000000000000000000000000000\n  dup2\n  mstore\n  0x04\n  add\n  tag_42\n  swap3\n  swap2\n  swap1\n  tag_43\n  jump\t// in\ntag_42:\n  mload(0x40)\n  dup1\n  swap2\n  sub\n  swap1\n  revert\n    /* \"@openzeppelin/contracts/token/ERC20/extensions/ERC20Capped.sol\":1315:1414  if (supply > maxSupply) {... */\ntag_41:\n    /* \"@openzeppelin/contracts/token/ERC20/extensions/ERC20Capped.sol\":1218:1424  {... */\n  pop\n  pop\n    /* \"@openzeppelin/contracts/token/ERC20/extensions/ERC20Capped.sol\":1194:1424  if (from == address(0)) {... */\ntag_36:\n    /* \"@openzeppelin/contracts/token/ERC20/extensions/ERC20Capped.sol\":1059:1430  function _update(address from, address to, uint256 value) internal virtual override {... */\n  pop\n  pop\n  pop\n  jump\t// out\n    /* \"@openzeppelin/contracts/token/ERC20/ERC20.sol\":5989:7096  function _update(address from, address to, uint256 value) internal virtual {... */\ntag_35:\n    /* \"@openzeppelin/contracts/token/ERC20/ERC20.sol\":6094:6095  0 */\n  0x00\n    /* \"@openzeppelin/contracts/token/ERC20/ERC20.sol\":6078:6096  from == address(0) */\n  0xffffffffffffffffffffffffffffffffffffffff\n  and\n    /* \"@openzeppelin/contracts/token/ERC20/ERC20.sol\":6078:6082  from */\n  dup4\n    /* \"@openzeppelin/contracts/token/ERC20/ERC20.sol\":6078:6096  from == address(0) */\n  0xffffffffffffffffffffffffffffffffffffffff\n  and\n  sub\n    /* \"@openzeppelin/contracts/token/ERC20/ERC20.sol\":6074:6614  if (from == address(0)) {... */\n  tag_45\n  jumpi\n    /* \"@openzeppelin/contracts/token/ERC20/ERC20.sol\":6230:6235  value */\n  dup1\n    /* \"@openzeppelin/contracts/token/ERC20/ERC20.sol\":6214:6226  _totalSupply */\n  0x02\n  0x00\n    /* \"@openzeppelin/contracts/token/ERC20/ERC20.sol\":6214:6235  _totalSupply += value */\n  dup3\n  dup3\n  sload\n  tag_46\n  swap2\n  swap1\n  tag_47\n  jump\t// in\ntag_46:\n  swap3\n  pop\n  pop\n  dup2\n  swap1\n  sstore\n  pop\n    /* \"@openzeppelin/contracts/token/ERC20/ERC20.sol\":6074:6614  if (from == address(0)) {... */\n  jump(tag_48)\ntag_45:\n    /* \"@openzeppelin/contracts/token/ERC20/ERC20.sol\":6266:6285  uint256 fromBalance */\n  0x00\n    /* \"@openzeppelin/contracts/token/ERC20/ERC20.sol\":6288:6297  _balances */\n  dup1\n    /* \"@openzeppelin/contracts/token/ERC20/ERC20.sol\":6288:6303  _balances[from] */\n  0x00\n    /* \"@openzeppelin/contracts/token/ERC20/ERC20.sol\":6298:6302  from */\n  dup6\n    /* \"@openzeppelin/contracts/token/ERC20/ERC20.sol\":6288:6303  _balances[from] */\n  0xffffffffffffffffffffffffffffffffffffffff\n  and\n  0xffffffffffffffffffffffffffffffffffffffff\n  and\n  dup2\n  mstore\n  0x20\n  add\n  swap1\n  dup2\n  mstore\n  0x20\n  add\n  0x00\n  keccak256\n  sload\n    /* \"@openzeppelin/contracts/token/ERC20/ERC20.sol\":6266:6303  uint256 fromBalance = _balances[from] */\n  swap1\n  pop\n    /* \"@openzeppelin/contracts/token/ERC20/ERC20.sol\":6335:6340  value */\n  dup2\n    /* \"@openzeppelin/contracts/token/ERC20/ERC20.sol\":6321:6332  fromBalance */\n  dup2\n    /* \"@openzeppelin/contracts/token/ERC20/ERC20.sol\":6321:6340  fromBalance < value */\n  lt\n    /* \"@openzeppelin/contracts/token/ERC20/ERC20.sol\":6317:6432  if (fromBalance < value) {... */\n  iszero\n  tag_49\n  jumpi\n    /* \"@openzeppelin/contracts/token/ERC20/ERC20.sol\":6392:6396  from */\n  dup4\n    /* \"@openzeppelin/contracts/token/ERC20/ERC20.sol\":6398:6409  fromBalance */\n  dup2\n    /* \"@openzeppelin/contracts/token/ERC20/ERC20.sol\":6411:6416  value */\n  dup4\n    /* \"@openzeppelin/contracts/token/ERC20/ERC20.sol\":6367:6417  ERC20InsufficientBalance(from, fromBalance, value) */\n  mload(0x40)\n  0xe450d38c00000000000000000000000000000000000000000000000000000000\n  dup2\n  mstore\n  0x04\n  add\n  tag_50\n  swap4\n  swap3\n  swap2\n  swap1\n  tag_51\n  jump\t// in\ntag_50:\n  mload(0x40)\n  dup1\n  swap2\n  sub\n  swap1\n  revert\n    /* \"@openzeppelin/contracts/token/ERC20/ERC20.sol\":6317:6432  if (fromBalance < value) {... */\ntag_49:\n    /* \"@openzeppelin/contracts/token/ERC20/ERC20.sol\":6584:6589  value */\n  dup2\n    /* \"@openzeppelin/contracts/token/ERC20/ERC20.sol\":6570:6581  fromBalance */\n  dup2\n    /* \"@openzeppelin/contracts/token/ERC20/ERC20.sol\":6570:6589  fromBalance - value */\n  sub\n    /* \"@openzeppelin/contracts/token/ERC20/ERC20.sol\":6552:6561  _balances */\n  0x00\n    /* \"@openzeppelin/contracts/token/ERC20/ERC20.sol\":6552:6567  _balances[from] */\n  dup1\n    /* \"@openzeppelin/contracts/token/ERC20/ERC20.sol\":6562:6566  from */\n  dup7\n    /* \"@openzeppelin/contracts/token/ERC20/ERC20.sol\":6552:6567  _balances[from] */\n  0xffffffffffffffffffffffffffffffffffffffff\n  and\n  0xffffffffffffffffffffffffffffffffffffffff\n  and\n  dup2\n  mstore\n  0x20\n  add\n  swap1\n  dup2\n  mstore\n  0x20\n  add\n  0x00\n  keccak256\n    /* \"@openzeppelin/contracts/token/ERC20/ERC20.sol\":6552:6589  _balances[from] = fromBalance - value */\n  dup2\n  swap1\n  sstore\n  pop\n    /* \"@openzeppelin/contracts/token/ERC20/ERC20.sol\":6252:6614  {... */\n  pop\n    /* \"@openzeppelin/contracts/token/ERC20/ERC20.sol\":6074:6614  if (from == address(0)) {... */\ntag_48:\n    /* \"@openzeppelin/contracts/token/ERC20/ERC20.sol\":6642:6643  0 */\n  0x00\n    /* \"@openzeppelin/contracts/token/ERC20/ERC20.sol\":6628:6644  to == address(0) */\n  0xffffffffffffffffffffffffffffffffffffffff\n  and\n    /* \"@openzeppelin/contracts/token/ERC20/ERC20.sol\":6628:6630  to */\n  dup3\n    /* \"@openzeppelin/contracts/token/ERC20/ERC20.sol\":6628:6644  to == address(0) */\n  0xffffffffffffffffffffffffffffffffffffffff\n  and\n  sub\n    /* \"@openzeppelin/contracts/token/ERC20/ERC20.sol\":6624:7049  if (to == address(0)) {... */\n  tag_52\n  jumpi\n    /* \"@openzeppelin/contracts/token/ERC20/ERC20.sol\":6807:6812  value */\n  dup1\n    /* \"@openzeppelin/contracts/token/ERC20/ERC20.sol\":6791:6803  _totalSupply */\n  0x02\n  0x00\n    /* \"@openzeppelin/contracts/token/ERC20/ERC20.sol\":6791:6812  _totalSupply -= value */\n  dup3\n  dup3\n  sload\n  sub\n  swap3\n  pop\n  pop\n  dup2\n  swap1\n  sstore\n  pop\n    /* \"@openzeppelin/contracts/token/ERC20/ERC20.sol\":6624:7049  if (to == address(0)) {... */\n  jump(tag_53)\ntag_52:\n    /* \"@openzeppelin/contracts/token/ERC20/ERC20.sol\":7019:7024  value */\n  dup1\n    /* \"@openzeppelin/contracts/token/ERC20/ERC20.sol\":7002:7011  _balances */\n  0x00\n    /* \"@openzeppelin/contracts/token/ERC20/ERC20.sol\":7002:7015  _balances[to] */\n  dup1\n    /* \"@openzeppelin/contracts/token/ERC20/ERC20.sol\":7012:7014  to */\n  dup5\n    /* \"@openzeppelin/contracts/token/ERC20/ERC20.sol\":7002:7015  _balances[to] */\n  0xffffffffffffffffffffffffffffffffffffffff\n  and\n  0xffffffffffffffffffffffffffffffffffffffff\n  and\n  dup2\n  mstore\n  0x20\n  add\n  swap1\n  dup2\n  mstore\n  0x20\n  add\n  0x00\n  keccak256\n  0x00\n    /* \"@openzeppelin/contracts/token/ERC20/ERC20.sol\":7002:7024  _balances[to] += value */\n  dup3\n  dup3\n  sload\n  add\n  swap3\n  pop\n  pop\n  dup2\n  swap1\n  sstore\n  pop\n    /* \"@openzeppelin/contracts/token/ERC20/ERC20.sol\":6624:7049  if (to == address(0)) {... */\ntag_53:\n    /* \"@openzeppelin/contracts/token/ERC20/ERC20.sol\":7079:7081  to */\n  dup2\n    /* \"@openzeppelin/contracts/token/ERC20/ERC20.sol\":7064:7089  Transfer(from, to, value) */\n  0xffffffffffffffffffffffffffffffffffffffff\n  and\n    /* \"@openzeppelin/contracts/token/ERC20/ERC20.sol\":7073:7077  from */\n  dup4\n    /* \"@openzeppelin/contracts/token/ERC20/ERC20.sol\":7064:7089  Transfer(from, to, value) */\n  0xffffffffffffffffffffffffffffffffffffffff\n  and\n  0xddf252ad1be2c89b69c2b068fc378daa952ba7f163c4a11628f55a4df523b3ef\n    /* \"@openzeppelin/contracts/token/ERC20/ERC20.sol\":7083:7088  value */\n  dup4\n    /* \"@openzeppelin/contracts/token/ERC20/ERC20.sol\":7064:7089  Transfer(from, to, value) */\n  mload(0x40)\n  tag_54\n  swap2\n  swap1\n  tag_55\n  jump\t// in\ntag_54:\n  mload(0x40)\n  dup1\n  swap2\n  sub\n  swap1\n  log3\n    /* \"@openzeppelin/contracts/token/ERC20/ERC20.sol\":5989:7096  function _update(address from, address to, uint256 value) internal virtual {... */\n  pop\n  pop\n  pop\n  jump\t// out\n    /* \"@openzeppelin/contracts/token/ERC20/extensions/ERC20Capped.sol\":923:1004  function cap() public view virtual returns (uint256) {... */\ntag_38:\n    /* \"@openzeppelin/contracts/token/ERC20/extensions/ERC20Capped.sol\":967:974  uint256 */\n  0x00\n    /* \"@openzeppelin/contracts/token/ERC20/extensions/ERC20Capped.sol\":993:997  _cap */\n  mload(0x80)\n    /* \"@openzeppelin/contracts/token/ERC20/extensions/ERC20Capped.sol\":986:997  return _cap */\n  swap1\n  pop\n    /* \"@openzeppelin/contracts/token/ERC20/extensions/ERC20Capped.sol\":923:1004  function cap() public view virtual returns (uint256) {... */\n  swap1\n  jump\t// out\n    /* \"@openzeppelin/contracts/token/ERC20/ERC20.sol\":2830:2927  function totalSupply() public view virtual returns (uint256) {... */\ntag_40:\n    /* \"@openzeppelin/contracts/token/ERC20/ERC20.sol\":2882:2889  uint256 */\n  0x00\n    /* \"@openzeppelin/contracts/token/ERC20/ERC20.sol\":2908:2920  _totalSupply */\n  sload(0x02)\n    /* \"@openzeppelin/contracts/token/ERC20/ERC20.sol\":2901:2920  return _totalSupply */\n  swap1\n  pop\n    /* \"@openzeppelin/contracts/token/ERC20/ERC20.sol\":2830:2927  function totalSupply() public view virtual returns (uint256) {... */\n  swap1\n  jump\t// out\n    /* \"#utility.yul\":7:106   */\ntag_58:\n    /* \"#utility.yul\":59:65   */\n  0x00\n    /* \"#utility.yul\":93:98   */\n  dup2\n    /* \"#utility.yul\":87:99   */\n  mload\n    /* \"#utility.yul\":77:99   */\n  swap1\n  pop\n    /* \"#utility.yul\":7:106   */\n  swap2\n  swap1\n  pop\n  jump\t// out\n    /* \"#utility.yul\":112:292   */\ntag_59:\n    /* \"#utility.yul\":160:237   */\n  0x4e487b7100000000000000000000000000000000000000000000000000000000\n    /* \"#utility.yul\":157:158   */\n  0x00\n    /* \"#utility.yul\":150:238   */\n  mstore\n    /* \"#utility.yul\":257:261   */\n  0x41\n    /* \"#utility.yul\":254:255   */\n  0x04\n    /* \"#utility.yul\":247:262   */\n  mstore\n    /* \"#utility.yul\":281:285   */\n  0x24\n    /* \"#utility.yul\":278:279   */\n  0x00\n    /* \"#utility.yul\":271:286   */\n  revert\n    /* \"#utility.yul\":298:478   */\ntag_60:\n    /* \"#utility.yul\":346:423   */\n  0x4e487b7100000000000000000000000000000000000000000000000000000000\n    /* \"#utility.yul\":343:344   */\n  0x00\n    /* \"#utility.yul\":336:424   */\n  mstore\n    /* \"#utility.yul\":443:447   */\n  0x22\n    /* \"#utility.yul\":440:441   */\n  0x04\n    /* \"#utility.yul\":433:448   */\n  mstore\n    /* \"#utility.yul\":467:471   */\n  0x24\n    /* \"#utility.yul\":464:465   */\n  0x00\n    /* \"#utility.yul\":457:472   */\n  revert\n    /* \"#utility.yul\":484:804   */\ntag_61:\n    /* \"#utility.yul\":528:534   */\n  0x00\n    /* \"#utility.yul\":565:566   */\n  0x02\n    /* \"#utility.yul\":559:563   */\n  dup3\n    /* \"#utility.yul\":555:567   */\n  div\n    /* \"#utility.yul\":545:567   */\n  swap1\n  pop\n    /* \"#utility.yul\":612:613   */\n  0x01\n    /* \"#utility.yul\":606:610   */\n  dup3\n    /* \"#utility.yul\":602:614   */\n  and\n    /* \"#utility.yul\":633:651   */\n  dup1\n    /* \"#utility.yul\":623:704   */\n  tag_91\n  jumpi\n    /* \"#utility.yul\":689:693   */\n  0x7f\n    /* \"#utility.yul\":681:687   */\n  dup3\n    /* \"#utility.yul\":677:694   */\n  and\n    /* \"#utility.yul\":667:694   */\n  swap2\n  pop\n    /* \"#utility.yul\":623:704   */\ntag_91:\n    /* \"#utility.yul\":751:753   */\n  0x20\n    /* \"#utility.yul\":743:749   */\n  dup3\n    /* \"#utility.yul\":740:754   */\n  lt\n    /* \"#utility.yul\":720:738   */\n  dup2\n    /* \"#utility.yul\":717:755   */\n  sub\n    /* \"#utility.yul\":714:798   */\n  tag_92\n  jumpi\n    /* \"#utility.yul\":770:788   */\n  tag_93\n  tag_60\n  jump\t// in\ntag_93:\n    /* \"#utility.yul\":714:798   */\ntag_92:\n    /* \"#utility.yul\":535:804   */\n  pop\n    /* \"#utility.yul\":484:804   */\n  swap2\n  swap1\n  pop\n  jump\t// out\n    /* \"#utility.yul\":810:951   */\ntag_62:\n    /* \"#utility.yul\":859:863   */\n  0x00\n    /* \"#utility.yul\":882:885   */\n  dup2\n    /* \"#utility.yul\":874:885   */\n  swap1\n  pop\n    /* \"#utility.yul\":905:908   */\n  dup2\n    /* \"#utility.yul\":902:903   */\n  0x00\n    /* \"#utility.yul\":895:909   */\n  mstore\n    /* \"#utility.yul\":939:943   */\n  0x20\n    /* \"#utility.yul\":936:937   */\n  0x00\n    /* \"#utility.yul\":926:944   */\n  keccak256\n    /* \"#utility.yul\":918:944   */\n  swap1\n  pop\n    /* \"#utility.yul\":810:951   */\n  swap2\n  swap1\n  pop\n  jump\t// out\n    /* \"#utility.yul\":957:1050   */\ntag_63:\n    /* \"#utility.yul\":994:1000   */\n  0x00\n    /* \"#utility.yul\":1041:1043   */\n  0x20\n    /* \"#utility.yul\":1036:1038   */\n  0x1f\n    /* \"#utility.yul\":1029:1034   */\n  dup4\n    /* \"#utility.yul\":1025:1039   */\n  add\n    /* \"#utility.yul\":1021:1044   */\n  div\n    /* \"#utility.yul\":1011:1044   */\n  swap1\n  pop\n    /* \"#utility.yul\":957:1050   */\n  swap2\n  swap1\n  pop\n  jump\t// out\n    /* \"#utility.yul\":1056:1163   */\ntag_64:\n    /* \"#utility.yul\":1100:1108   */\n  0x00\n    /* \"#utility.yul\":1150:1155   */\n  dup3\n    /* \"#utility.yul\":1144:1148   */\n  dup3\n    /* \"#utility.yul\":1140:1156   */\n  shl\n    /* \"#utility.yul\":1119:1156   */\n  swap1\n  pop\n    /* \"#utility.yul\":1056:1163   */\n  swap3\n  swap2\n  pop\n  pop\n  jump\t// out\n    /* \"#utility.yul\":1169:1562   */\ntag_65:\n    /* \"#utility.yul\":1238:1244   */\n  0x00\n    /* \"#utility.yul\":1288:1289   */\n  0x08\n    /* \"#utility.yul\":1276:1286   */\n  dup4\n    /* \"#utility.yul\":1272:1290   */\n  mul\n    /* \"#utility.yul\":1311:1408   */\n  tag_98\n    /* \"#utility.yul\":1341:1407   */\n  0xffffffffffffffffffffffffffffffffffffffffffffffffffffffffffffffff\n    /* \"#utility.yul\":1330:1339   */\n  dup3\n    /* \"#utility.yul\":1311:1408   */\n  tag_64\n  jump\t// in\ntag_98:\n    /* \"#utility.yul\":1429:1468   */\n  tag_99\n    /* \"#utility.yul\":1459:1467   */\n  dup7\n    /* \"#utility.yul\":1448:1457   */\n  dup4\n    /* \"#utility.yul\":1429:1468   */\n  tag_64\n  jump\t// in\ntag_99:\n    /* \"#utility.yul\":1417:1468   */\n  swap6\n  pop\n    /* \"#utility.yul\":1501:1505   */\n  dup1\n    /* \"#utility.yul\":1497:1506   */\n  not\n    /* \"#utility.yul\":1490:1495   */\n  dup5\n    /* \"#utility.yul\":1486:1507   */\n  and\n    /* \"#utility.yul\":1477:1507   */\n  swap4\n  pop\n    /* \"#utility.yul\":1550:1554   */\n  dup1\n    /* \"#utility.yul\":1540:1548   */\n  dup7\n    /* \"#utility.yul\":1536:1555   */\n  and\n    /* \"#utility.yul\":1529:1534   */\n  dup5\n    /* \"#utility.yul\":1526:1556   */\n  or\n    /* \"#utility.yul\":1516:1556   */\n  swap3\n  pop\n    /* \"#utility.yul\":1245:1562   */\n  pop\n  pop\n    /* \"#utility.yul\":1169:1562   */\n  swap4\n  swap3\n  pop\n  pop\n  pop\n  jump\t// out\n    /* \"#utility.yul\":1568:1645   */\ntag_66:\n    /* \"#utility.yul\":1605:1612   */\n  0x00\n    /* \"#utility.yul\":1634:1639   */\n  dup2\n    /* \"#utility.yul\":1623:1639   */\n  swap1\n  pop\n    /* \"#utility.yul\":1568:1645   */\n  swap2\n  swap1\n  pop\n  jump\t// out\n    /* \"#utility.yul\":1651:1711   */\ntag_67:\n    /* \"#utility.yul\":1679:1682   */\n  0x00\n    /* \"#utility.yul\":1700:1705   */\n  dup2\n    /* \"#utility.yul\":1693:1705   */\n  swap1\n  pop\n    /* \"#utility.yul\":1651:1711   */\n  swap2\n  swap1\n  pop\n  jump\t// out\n    /* \"#utility.yul\":1717:1859   */\ntag_68:\n    /* \"#utility.yul\":1767:1776   */\n  0x00\n    /* \"#utility.yul\":1800:1853   */\n  tag_103\n    /* \"#utility.yul\":1818:1852   */\n  tag_104\n    /* \"#utility.yul\":1827:1851   */\n  tag_105\n    /* \"#utility.yul\":1845:1850   */\n  dup5\n    /* \"#utility.yul\":1827:1851   */\n  tag_66\n  jump\t// in\ntag_105:\n    /* \"#utility.yul\":1818:1852   */\n  tag_67\n  jump\t// in\ntag_104:\n    /* \"#utility.yul\":1800:1853   */\n  tag_66\n  jump\t// in\ntag_103:\n    /* \"#utility.yul\":1787:1853   */\n  swap1\n  pop\n    /* \"#utility.yul\":1717:1859   */\n  swap2\n  swap1\n  pop\n  jump\t// out\n    /* \"#utility.yul\":1865:1940   */\ntag_69:\n    /* \"#utility.yul\":1908:1911   */\n  0x00\n    /* \"#utility.yul\":1929:1934   */\n  dup2\n    /* \"#utility.yul\":1922:1934   */\n  swap1\n  pop\n    /* \"#utility.yul\":1865:1940   */\n  swap2\n  swap1\n  pop\n  jump\t// out\n    /* \"#utility.yul\":1946:2215   */\ntag_70:\n    /* \"#utility.yul\":2056:2095   */\n  tag_108\n    /* \"#utility.yul\":2087:2094   */\n  dup4\n    /* \"#utility.yul\":2056:2095   */\n  tag_68\n  jump\t// in\ntag_108:\n    /* \"#utility.yul\":2117:2208   */\n  tag_109\n    /* \"#utility.yul\":2166:2207   */\n  tag_110\n    /* \"#utility.yul\":2190:2206   */\n  dup3\n    /* \"#utility.yul\":2166:2207   */\n  tag_69\n  jump\t// in\ntag_110:\n    /* \"#utility.yul\":2158:2164   */\n  dup5\n    /* \"#utility.yul\":2151:2155   */\n  dup5\n    /* \"#utility.yul\":2145:2156   */\n  sload\n    /* \"#utility.yul\":2117:2208   */\n  tag_65\n  jump\t// in\ntag_109:\n    /* \"#utility.yul\":2111:2115   */\n  dup3\n    /* \"#utility.yul\":2104:2209   */\n  sstore\n    /* \"#utility.yul\":2022:2215   */\n  pop\n    /* \"#utility.yul\":1946:2215   */\n  pop\n  pop\n  pop\n  jump\t// out\n    /* \"#utility.yul\":2221:2294   */\ntag_71:\n    /* \"#utility.yul\":2266:2269   */\n  0x00\n    /* \"#utility.yul\":2221:2294   */\n  swap1\n  jump\t// out\n    /* \"#utility.yul\":2300:2489   */\ntag_72:\n    /* \"#utility.yul\":2377:2409   */\n  tag_113\n  tag_71\n  jump\t// in\ntag_113:\n    /* \"#utility.yul\":2418:2483   */\n  tag_114\n    /* \"#utility.yul\":2476:2482   */\n  dup2\n    /* \"#utility.yul\":2468:2474   */\n  dup5\n    /* \"#utility.yul\":2462:2466   */\n  dup5\n    /* \"#utility.yul\":2418:2483   */\n  tag_70\n  jump\t// in\ntag_114:\n    /* \"#utility.yul\":2353:2489   */\n  pop\n    /* \"#utility.yul\":2300:2489   */\n  pop\n  pop\n  jump\t// out\n    /* \"#utility.yul\":2495:2681   */\ntag_73:\n    /* \"#utility.yul\":2555:2675   */\ntag_116:\n    /* \"#utility.yul\":2572:2575   */\n  dup2\n    /* \"#utility.yul\":2565:2570   */\n  dup2\n    /* \"#utility.yul\":2562:2576   */\n  lt\n    /* \"#utility.yul\":2555:2675   */\n  iszero\n  tag_118\n  jumpi\n    /* \"#utility.yul\":2626:2665   */\n  tag_119\n    /* \"#utility.yul\":2663:2664   */\n  0x00\n    /* \"#utility.yul\":2656:2661   */\n  dup3\n    /* \"#utility.yul\":2626:2665   */\n  tag_72\n  jump\t// in\ntag_119:\n    /* \"#utility.yul\":2599:2600   */\n  0x01\n    /* \"#utility.yul\":2592:2597   */\n  dup2\n    /* \"#utility.yul\":2588:2601   */\n  add\n    /* \"#utility.yul\":2579:2601   */\n  swap1\n  pop\n    /* \"#utility.yul\":2555:2675   */\n  jump(tag_116)\ntag_118:\n    /* \"#utility.yul\":2495:2681   */\n  pop\n  pop\n  jump\t// out\n    /* \"#utility.yul\":2687:3230   */\ntag_74:\n    /* \"#utility.yul\":2788:2790   */\n  0x1f\n    /* \"#utility.yul\":2783:2786   */\n  dup3\n    /* \"#utility.yul\":2780:2791   */\n  gt\n    /* \"#utility.yul\":2777:3223   */\n  iszero\n  tag_121\n  jumpi\n    /* \"#utility.yul\":2822:2860   */\n  tag_122\n    /* \"#utility.yul\":2854:2859   */\n  dup2\n    /* \"#utility.yul\":2822:2860   */\n  tag_62\n  jump\t// in\ntag_122:\n    /* \"#utility.yul\":2906:2935   */\n  tag_123\n    /* \"#utility.yul\":2924:2934   */\n  dup5\n    /* \"#utility.yul\":2906:2935   */\n  tag_63\n  jump\t// in\ntag_123:\n    /* \"#utility.yul\":2896:2904   */\n  dup2\n    /* \"#utility.yul\":2892:2936   */\n  add\n    /* \"#utility.yul\":3089:3091   */\n  0x20\n    /* \"#utility.yul\":3077:3087   */\n  dup6\n    /* \"#utility.yul\":3074:3092   */\n  lt\n    /* \"#utility.yul\":3071:3120   */\n  iszero\n  tag_124\n  jumpi\n    /* \"#utility.yul\":3110:3118   */\n  dup2\n    /* \"#utility.yul\":3095:3118   */\n  swap1\n  pop\n    /* \"#utility.yul\":3071:3120   */\ntag_124:\n    /* \"#utility.yul\":3133:3213   */\n  tag_125\n    /* \"#utility.yul\":3189:3211   */\n  tag_126\n    /* \"#utility.yul\":3207:3210   */\n  dup6\n    /* \"#utility.yul\":3189:3211   */\n  tag_63\n  jump\t// in\ntag_126:\n    /* \"#utility.yul\":3179:3187   */\n  dup4\n    /* \"#utility.yul\":3175:3212   */\n  add\n    /* \"#utility.yul\":3162:3173   */\n  dup3\n    /* \"#utility.yul\":3133:3213   */\n  tag_73\n  jump\t// in\ntag_125:\n    /* \"#utility.yul\":2792:3223   */\n  pop\n  pop\n    /* \"#utility.yul\":2777:3223   */\ntag_121:\n    /* \"#utility.yul\":2687:3230   */\n  pop\n  pop\n  pop\n  jump\t// out\n    /* \"#utility.yul\":3236:3353   */\ntag_75:\n    /* \"#utility.yul\":3290:3298   */\n  0x00\n    /* \"#utility.yul\":3340:3345   */\n  dup3\n    /* \"#utility.yul\":3334:3338   */\n  dup3\n    /* \"#utility.yul\":3330:3346   */\n  shr\n    /* \"#utility.yul\":3309:3346   */\n  swap1\n  pop\n    /* \"#utility.yul\":3236:3353   */\n  swap3\n  swap2\n  pop\n  pop\n  jump\t// out\n    /* \"#utility.yul\":3359:3528   */\ntag_76:\n    /* \"#utility.yul\":3403:3409   */\n  0x00\n    /* \"#utility.yul\":3436:3487   */\n  tag_129\n    /* \"#utility.yul\":3484:3485   */\n  0x00\n    /* \"#utility.yul\":3480:3486   */\n  not\n    /* \"#utility.yul\":3472:3477   */\n  dup5\n    /* \"#utility.yul\":3469:3470   */\n  0x08\n    /* \"#utility.yul\":3465:3478   */\n  mul\n    /* \"#utility.yul\":3436:3487   */\n  tag_75\n  jump\t// in\ntag_129:\n    /* \"#utility.yul\":3432:3488   */\n  not\n    /* \"#utility.yul\":3517:3521   */\n  dup1\n    /* \"#utility.yul\":3511:3515   */\n  dup4\n    /* \"#utility.yul\":3507:3522   */\n  and\n    /* \"#utility.yul\":3497:3522   */\n  swap2\n  pop\n    /* \"#utility.yul\":3410:3528   */\n  pop\n    /* \"#utility.yul\":3359:3528   */\n  swap3\n  swap2\n  pop\n  pop\n  jump\t// out\n    /* \"#utility.yul\":3533:3828   */\ntag_77:\n    /* \"#utility.yul\":3609:3613   */\n  0x00\n    /* \"#utility.yul\":3755:3784   */\n  tag_131\n    /* \"#utility.yul\":3780:3783   */\n  dup4\n    /* \"#utility.yul\":3774:3778   */\n  dup4\n    /* \"#utility.yul\":3755:3784   */\n  tag_76\n  jump\t// in\ntag_131:\n    /* \"#utility.yul\":3747:3784   */\n  swap2\n  pop\n    /* \"#utility.yul\":3817:3820   */\n  dup3\n    /* \"#utility.yul\":3814:3815   */\n  0x02\n    /* \"#utility.yul\":3810:3821   */\n  mul\n    /* \"#utility.yul\":3804:3808   */\n  dup3\n    /* \"#utility.yul\":3801:3822   */\n  or\n    /* \"#utility.yul\":3793:3822   */\n  swap1\n  pop\n    /* \"#utility.yul\":3533:3828   */\n  swap3\n  swap2\n  pop\n  pop\n  jump\t// out\n    /* \"#utility.yul\":3833:5228   */\ntag_8:\n    /* \"#utility.yul\":3950:3987   */\n  tag_133\n    /* \"#utility.yul\":3983:3986   */\n  dup3\n    /* \"#utility.yul\":3950:3987   */\n  tag_58\n  jump\t// in\ntag_133:\n    /* \"#utility.yul\":4052:4070   */\n  0xffffffffffffffff\n    /* \"#utility.yul\":4044:4050   */\n  dup2\n    /* \"#utility.yul\":4041:4071   */\n  gt\n    /* \"#utility.yul\":4038:4094   */\n  iszero\n  tag_134\n  jumpi\n    /* \"#utility.yul\":4074:4092   */\n  tag_135\n  tag_59\n  jump\t// in\ntag_135:\n    /* \"#utility.yul\":4038:4094   */\ntag_134:\n    /* \"#utility.yul\":4118:4156   */\n  tag_136\n    /* \"#utility.yul\":4150:4154   */\n  dup3\n    /* \"#utility.yul\":4144:4155   */\n  sload\n    /* \"#utility.yul\":4118:4156   */\n  tag_61\n  jump\t// in\ntag_136:\n    /* \"#utility.yul\":4203:4270   */\n  tag_137\n    /* \"#utility.yul\":4263:4269   */\n  dup3\n    /* \"#utility.yul\":4255:4261   */\n  dup3\n    /* \"#utility.yul\":4249:4253   */\n  dup6\n    /* \"#utility.yul\":4203:4270   */\n  tag_74\n  jump\t// in\ntag_137:\n    /* \"#utility.yul\":4297:4298   */\n  0x00\n    /* \"#utility.yul\":4321:4325   */\n  0x20\n    /* \"#utility.yul\":4308:4325   */\n  swap1\n  pop\n    /* \"#utility.yul\":4353:4355   */\n  0x1f\n    /* \"#utility.yul\":4345:4351   */\n  dup4\n    /* \"#utility.yul\":4342:4356   */\n  gt\n    /* \"#utility.yul\":4370:4371   */\n  0x01\n    /* \"#utility.yul\":4365:4983   */\n  dup2\n  eq\n  tag_139\n  jumpi\n    /* \"#utility.yul\":5027:5028   */\n  0x00\n    /* \"#utility.yul\":5044:5050   */\n  dup5\n    /* \"#utility.yul\":5041:5118   */\n  iszero\n  tag_140\n  jumpi\n    /* \"#utility.yul\":5093:5102   */\n  dup3\n    /* \"#utility.yul\":5088:5091   */\n  dup8\n    /* \"#utility.yul\":5084:5103   */\n  add\n    /* \"#utility.yul\":5078:5104   */\n  mload\n    /* \"#utility.yul\":5069:5104   */\n  swap1\n  pop\n    /* \"#utility.yul\":5041:5118   */\ntag_140:\n    /* \"#utility.yul\":5144:5211   */\n  tag_141\n    /* \"#utility.yul\":5204:5210   */\n  dup6\n    /* \"#utility.yul\":5197:5202   */\n  dup3\n    /* \"#utility.yul\":5144:5211   */\n  tag_77\n  jump\t// in\ntag_141:\n    /* \"#utility.yul\":5138:5142   */\n  dup7\n    /* \"#utility.yul\":5131:5212   */\n  sstore\n    /* \"#utility.yul\":5000:5222   */\n  pop\n    /* \"#utility.yul\":4335:5222   */\n  jump(tag_138)\n    /* \"#utility.yul\":4365:4983   */\ntag_139:\n    /* \"#utility.yul\":4417:4421   */\n  0x1f\n    /* \"#utility.yul\":4413:4422   */\n  not\n    /* \"#utility.yul\":4405:4411   */\n  dup5\n    /* \"#utility.yul\":4401:4423   */\n  and\n    /* \"#utility.yul\":4451:4488   */\n  tag_142\n    /* \"#utility.yul\":4483:4487   */\n  dup7\n    /* \"#utility.yul\":4451:4488   */\n  tag_62\n  jump\t// in\ntag_142:\n    /* \"#utility.yul\":4510:4511   */\n  0x00\n    /* \"#utility.yul\":4524:4732   */\ntag_143:\n    /* \"#utility.yul\":4538:4545   */\n  dup3\n    /* \"#utility.yul\":4535:4536   */\n  dup2\n    /* \"#utility.yul\":4532:4546   */\n  lt\n    /* \"#utility.yul\":4524:4732   */\n  iszero\n  tag_145\n  jumpi\n    /* \"#utility.yul\":4617:4626   */\n  dup5\n    /* \"#utility.yul\":4612:4615   */\n  dup10\n    /* \"#utility.yul\":4608:4627   */\n  add\n    /* \"#utility.yul\":4602:4628   */\n  mload\n    /* \"#utility.yul\":4594:4600   */\n  dup3\n    /* \"#utility.yul\":4587:4629   */\n  sstore\n    /* \"#utility.yul\":4668:4669   */\n  0x01\n    /* \"#utility.yul\":4660:4666   */\n  dup3\n    /* \"#utility.yul\":4656:4670   */\n  add\n    /* \"#utility.yul\":4646:4670   */\n  swap2\n  pop\n    /* \"#utility.yul\":4715:4717   */\n  0x20\n    /* \"#utility.yul\":4704:4713   */\n  dup6\n    /* \"#utility.yul\":4700:4718   */\n  add\n    /* \"#utility.yul\":4687:4718   */\n  swap5\n  pop\n    /* \"#utility.yul\":4561:4565   */\n  0x20\n    /* \"#utility.yul\":4558:4559   */\n  dup2\n    /* \"#utility.yul\":4554:4566   */\n  add\n    /* \"#utility.yul\":4549:4566   */\n  swap1\n  pop\n    /* \"#utility.yul\":4524:4732   */\n  jump(tag_143)\ntag_145:\n    /* \"#utility.yul\":4760:4766   */\n  dup7\n    /* \"#utility.yul\":4751:4758   */\n  dup4\n    /* \"#utility.yul\":4748:4767   */\n  lt\n    /* \"#utility.yul\":4745:4924   */\n  iszero\n  tag_146\n  jumpi\n    /* \"#utility.yul\":4818:4827   */\n  dup5\n    /* \"#utility.yul\":4813:4816   */\n  dup10\n    /* \"#utility.yul\":4809:4828   */\n  add\n    /* \"#utility.yul\":4803:4829   */\n  mload\n    /* \"#utility.yul\":4861:4909   */\n  tag_147\n    /* \"#utility.yul\":4903:4907   */\n  0x1f\n    /* \"#utility.yul\":4895:4901   */\n  dup10\n    /* \"#utility.yul\":4891:4908   */\n  and\n    /* \"#utility.yul\":4880:4889   */\n  dup3\n    /* \"#utility.yul\":4861:4909   */\n  tag_76\n  jump\t// in\ntag_147:\n    /* \"#utility.yul\":4853:4859   */\n  dup4\n    /* \"#utility.yul\":4846:4910   */\n  sstore\n    /* \"#utility.yul\":4768:4924   */\n  pop\n    /* \"#utility.yul\":4745:4924   */\ntag_146:\n    /* \"#utility.yul\":4970:4971   */\n  0x01\n    /* \"#utility.yul\":4966:4967   */\n  0x02\n    /* \"#utility.yul\":4958:4964   */\n  dup9\n    /* \"#utility.yul\":4954:4968   */\n  mul\n    /* \"#utility.yul\":4950:4972   */\n  add\n    /* \"#utility.yul\":4944:4948   */\n  dup9\n    /* \"#utility.yul\":4937:4973   */\n  sstore\n    /* \"#utility.yul\":4372:4983   */\n  pop\n  pop\n  pop\n    /* \"#utility.yul\":4335:5222   */\ntag_138:\n  pop\n    /* \"#utility.yul\":3925:5228   */\n  pop\n  pop\n  pop\n    /* \"#utility.yul\":3833:5228   */\n  pop\n  pop\n  jump\t// out\n    /* \"#utility.yul\":5234:5319   */\ntag_78:\n    /* \"#utility.yul\":5279:5286   */\n  0x00\n    /* \"#utility.yul\":5308:5313   */\n  dup2\n    /* \"#utility.yul\":5297:5313   */\n  swap1\n  pop\n    /* \"#utility.yul\":5234:5319   */\n  swap2\n  swap1\n  pop\n  jump\t// out\n    /* \"#utility.yul\":5325:5483   */\ntag_79:\n    /* \"#utility.yul\":5383:5392   */\n  0x00\n    /* \"#utility.yul\":5416:5477   */\n  tag_150\n    /* \"#utility.yul\":5434:5476   */\n  tag_151\n    /* \"#utility.yul\":5443:5475   */\n  tag_152\n    /* \"#utility.yul\":5469:5474   */\n  dup5\n    /* \"#utility.yul\":5443:5475   */\n  tag_78\n  jump\t// in\ntag_152:\n    /* \"#utility.yul\":5434:5476   */\n  tag_67\n  jump\t// in\ntag_151:\n    /* \"#utility.yul\":5416:5477   */\n  tag_66\n  jump\t// in\ntag_150:\n    /* \"#utility.yul\":5403:5477   */\n  swap1\n  pop\n    /* \"#utility.yul\":5325:5483   */\n  swap2\n  swap1\n  pop\n  jump\t// out\n    /* \"#utility.yul\":5489:5636   */\ntag_80:\n    /* \"#utility.yul\":5584:5629   */\n  tag_154\n    /* \"#utility.yul\":5623:5628   */\n  dup2\n    /* \"#utility.yul\":5584:5629   */\n  tag_79\n  jump\t// in\ntag_154:\n    /* \"#utility.yul\":5579:5582   */\n  dup3\n    /* \"#utility.yul\":5572:5630   */\n  mstore\n    /* \"#utility.yul\":5489:5636   */\n  pop\n  pop\n  jump\t// out\n    /* \"#utility.yul\":5642:5880   */\ntag_13:\n    /* \"#utility.yul\":5743:5747   */\n  0x00\n    /* \"#utility.yul\":5781:5783   */\n  0x20\n    /* \"#utility.yul\":5770:5779   */\n  dup3\n    /* \"#utility.yul\":5766:5784   */\n  add\n    /* \"#utility.yul\":5758:5784   */\n  swap1\n  pop\n    /* \"#utility.yul\":5794:5873   */\n  tag_156\n    /* \"#utility.yul\":5870:5871   */\n  0x00\n    /* \"#utility.yul\":5859:5868   */\n  dup4\n    /* \"#utility.yul\":5855:5872   */\n  add\n    /* \"#utility.yul\":5846:5852   */\n  dup5\n    /* \"#utility.yul\":5794:5873   */\n  tag_80\n  jump\t// in\ntag_156:\n    /* \"#utility.yul\":5642:5880   */\n  swap3\n  swap2\n  pop\n  pop\n  jump\t// out\n    /* \"#utility.yul\":5886:6012   */\ntag_81:\n    /* \"#utility.yul\":5923:5930   */\n  0x00\n    /* \"#utility.yul\":5963:6005   */\n  0xffffffffffffffffffffffffffffffffffffffff\n    /* \"#utility.yul\":5956:5961   */\n  dup3\n    /* \"#utility.yul\":5952:6006   */\n  and\n    /* \"#utility.yul\":5941:6006   */\n  swap1\n  pop\n    /* \"#utility.yul\":5886:6012   */\n  swap2\n  swap1\n  pop\n  jump\t// out\n    /* \"#utility.yul\":6018:6114   */\ntag_82:\n    /* \"#utility.yul\":6055:6062   */\n  0x00\n    /* \"#utility.yul\":6084:6108   */\n  tag_159\n    /* \"#utility.yul\":6102:6107   */\n  dup3\n    /* \"#utility.yul\":6084:6108   */\n  tag_81\n  jump\t// in\ntag_159:\n    /* \"#utility.yul\":6073:6108   */\n  swap1\n  pop\n    /* \"#utility.yul\":6018:6114   */\n  swap2\n  swap1\n  pop\n  jump\t// out\n    /* \"#utility.yul\":6120:6238   */\ntag_83:\n    /* \"#utility.yul\":6207:6231   */\n  tag_161\n    /* \"#utility.yul\":6225:6230   */\n  dup2\n    /* \"#utility.yul\":6207:6231   */\n  tag_82\n  jump\t// in\ntag_161:\n    /* \"#utility.yul\":6202:6205   */\n  dup3\n    /* \"#utility.yul\":6195:6232   */\n  mstore\n    /* \"#utility.yul\":6120:6238   */\n  pop\n  pop\n  jump\t// out\n    /* \"#utility.yul\":6244:6466   */\ntag_17:\n    /* \"#utility.yul\":6337:6341   */\n  0x00\n    /* \"#utility.yul\":6375:6377   */\n  0x20\n    /* \"#utility.yul\":6364:6373   */\n  dup3\n    /* \"#utility.yul\":6360:6378   */\n  add\n    /* \"#utility.yul\":6352:6378   */\n  swap1\n  pop\n    /* \"#utility.yul\":6388:6459   */\n  tag_163\n    /* \"#utility.yul\":6456:6457   */\n  0x00\n    /* \"#utility.yul\":6445:6454   */\n  dup4\n    /* \"#utility.yul\":6441:6458   */\n  add\n    /* \"#utility.yul\":6432:6438   */\n  dup5\n    /* \"#utility.yul\":6388:6459   */\n  tag_83\n  jump\t// in\ntag_163:\n    /* \"#utility.yul\":6244:6466   */\n  swap3\n  swap2\n  pop\n  pop\n  jump\t// out\n    /* \"#utility.yul\":6472:6590   */\ntag_84:\n    /* \"#utility.yul\":6559:6583   */\n  tag_165\n    /* \"#utility.yul\":6577:6582   */\n  dup2\n    /* \"#utility.yul\":6559:6583   */\n  tag_66\n  jump\t// in\ntag_165:\n    /* \"#utility.yul\":6554:6557   */\n  dup3\n    /* \"#utility.yul\":6547:6584   */\n  mstore\n    /* \"#utility.yul\":6472:6590   */\n  pop\n  pop\n  jump\t// out\n    /* \"#utility.yul\":6596:6928   */\ntag_43:\n    /* \"#utility.yul\":6717:6721   */\n  0x00\n    /* \"#utility.yul\":6755:6757   */\n  0x40\n    /* \"#utility.yul\":6744:6753   */\n  dup3\n    /* \"#utility.yul\":6740:6758   */\n  add\n    /* \"#utility.yul\":6732:6758   */\n  swap1\n  pop\n    /* \"#utility.yul\":6768:6839   */\n  tag_167\n    /* \"#utility.yul\":6836:6837   */\n  0x00\n    /* \"#utility.yul\":6825:6834   */\n  dup4\n    /* \"#utility.yul\":6821:6838   */\n  add\n    /* \"#utility.yul\":6812:6818   */\n  dup6\n    /* \"#utility.yul\":6768:6839   */\n  tag_84\n  jump\t// in\ntag_167:\n    /* \"#utility.yul\":6849:6921   */\n  tag_168\n    /* \"#utility.yul\":6917:6919   */\n  0x20\n    /* \"#utility.yul\":6906:6915   */\n  dup4\n    /* \"#utility.yul\":6902:6920   */\n  add\n    /* \"#utility.yul\":6893:6899   */\n  dup5\n    /* \"#utility.yul\":6849:6921   */\n  tag_84\n  jump\t// in\ntag_168:\n    /* \"#utility.yul\":6596:6928   */\n  swap4\n  swap3\n  pop\n  pop\n  pop\n  jump\t// out\n    /* \"#utility.yul\":6934:7114   */\ntag_85:\n    /* \"#utility.yul\":6982:7059   */\n  0x4e487b7100000000000000000000000000000000000000000000000000000000\n    /* \"#utility.yul\":6979:6980   */\n  0x00\n    /* \"#utility.yul\":6972:7060   */\n  mstore\n    /* \"#utility.yul\":7079:7083   */\n  0x11\n    /* \"#utility.yul\":7076:7077   */\n  0x04\n    /* \"#utility.yul\":7069:7084   */\n  mstore\n    /* \"#utility.yul\":7103:7107   */\n  0x24\n    /* \"#utility.yul\":7100:7101   */\n  0x00\n    /* \"#utility.yul\":7093:7108   */\n  revert\n    /* \"#utility.yul\":7120:7311   */\ntag_47:\n    /* \"#utility.yul\":7160:7163   */\n  0x00\n    /* \"#utility.yul\":7179:7199   */\n  tag_171\n    /* \"#utility.yul\":7197:7198   */\n  dup3\n    /* \"#utility.yul\":7179:7199   */\n  tag_66\n  jump\t// in\ntag_171:\n    /* \"#utility.yul\":7174:7199   */\n  swap2\n  pop\n    /* \"#utility.yul\":7213:7233   */\n  tag_172\n    /* \"#utility.yul\":7231:7232   */\n  dup4\n    /* \"#utility.yul\":7213:7233   */\n  tag_66\n  jump\t// in\ntag_172:\n    /* \"#utility.yul\":7208:7233   */\n  swap3\n  pop\n    /* \"#utility.yul\":7256:7257   */\n  dup3\n    /* \"#utility.yul\":7253:7254   */\n  dup3\n    /* \"#utility.yul\":7249:7258   */\n  add\n    /* \"#utility.yul\":7242:7258   */\n  swap1\n  pop\n    /* \"#utility.yul\":7277:7280   */\n  dup1\n    /* \"#utility.yul\":7274:7275   */\n  dup3\n    /* \"#utility.yul\":7271:7281   */\n  gt\n    /* \"#utility.yul\":7268:7304   */\n  iszero\n  tag_173\n  jumpi\n    /* \"#utility.yul\":7284:7302   */\n  tag_174\n  tag_85\n  jump\t// in\ntag_174:\n    /* \"#utility.yul\":7268:7304   */\ntag_173:\n    /* \"#utility.yul\":7120:7311   */\n  swap3\n  swap2\n  pop\n  pop\n  jump\t// out\n    /* \"#utility.yul\":7317:7759   */\ntag_51:\n    /* \"#utility.yul\":7466:7470   */\n  0x00\n    /* \"#utility.yul\":7504:7506   */\n  0x60\n    /* \"#utility.yul\":7493:7502   */\n  dup3\n    /* \"#utility.yul\":7489:7507   */\n  add\n    /* \"#utility.yul\":7481:7507   */\n  swap1\n  pop\n    /* \"#utility.yul\":7517:7588   */\n  tag_176\n    /* \"#utility.yul\":7585:7586   */\n  0x00\n    /* \"#utility.yul\":7574:7583   */\n  dup4\n    /* \"#utility.yul\":7570:7587   */\n  add\n    /* \"#utility.yul\":7561:7567   */\n  dup7\n    /* \"#utility.yul\":7517:7588   */\n  tag_83\n  jump\t// in\ntag_176:\n    /* \"#utility.yul\":7598:7670   */\n  tag_177\n    /* \"#utility.yul\":7666:7668   */\n  0x20\n    /* \"#utility.yul\":7655:7664   */\n  dup4\n    /* \"#utility.yul\":7651:7669   */\n  add\n    /* \"#utility.yul\":7642:7648   */\n  dup6\n    /* \"#utility.yul\":7598:7670   */\n  tag_84\n  jump\t// in\ntag_177:\n    /* \"#utility.yul\":7680:7752   */\n  tag_178\n    /* \"#utility.yul\":7748:7750   */\n  0x40\n    /* \"#utility.yul\":7737:7746   */\n  dup4\n    /* \"#utility.yul\":7733:7751   */\n  add\n    /* \"#utility.yul\":7724:7730   */\n  dup5\n    /* \"#utility.yul\":7680:7752   */\n  tag_84\n  jump\t// in\ntag_178:\n    /* \"#utility.yul\":7317:7759   */\n  swap5\n  swap4\n  pop\n  pop\n  pop\n  pop\n  jump\t// out\n    /* \"#utility.yul\":7765:7987   */\ntag_55:\n    /* \"#utility.yul\":7858:7862   */\n  0x00\n    /* \"#utility.yul\":7896:7898   */\n  0x20\n    /* \"#utility.yul\":7885:7894   */\n  dup3\n    /* \"#utility.yul\":7881:7899   */\n  add\n    /* \"#utility.yul\":7873:7899   */\n  swap1\n  pop\n    /* \"#utility.yul\":7909:7980   */\n  tag_180\n    /* \"#utility.yul\":7977:7978   */\n  0x00\n    /* \"#utility.yul\":7966:7975   */\n  dup4\n    /* \"#utility.yul\":7962:7979   */\n  add\n    /* \"#utility.yul\":7953:7959   */\n  dup5\n    /* \"#utility.yul\":7909:7980   */\n  tag_84\n  jump\t// in\ntag_180:\n    /* \"#utility.yul\":7765:7987   */\n  swap3\n  swap2\n  pop\n  pop\n  jump\t// out\n    /* \"contracts/Soboro.sol\":421:1851  contract Soboro is ERC20, ERC20Capped, ERC20Burnable, Ownable {... */\ntag_23:\n  mload(0x80)\n  codecopy(0x00, dataOffset(sub_0), dataSize(sub_0))\n  0x00\n  assignImmutable(\"0x69de3b38836c938ac93bb31643655e6e0a011af0f354a009a432084d0f963864\")\n  return(0x00, dataSize(sub_0))\nstop\n\nsub_0: assembly {\n        /* \"contracts/Soboro.sol\":421:1851  contract Soboro is ERC20, ERC20Capped, ERC20Burnable, Ownable {... */\n      mstore(0x40, 0x80)\n      callvalue\n      dup1\n      iszero\n      tag_1\n      jumpi\n      0x00\n      dup1\n      revert\n    tag_1:\n      pop\n      jumpi(tag_2, lt(calldatasize, 0x04))\n      shr(0xe0, calldataload(0x00))\n      dup1\n      0x70a08231\n      gt\n      tag_20\n      jumpi\n      dup1\n      0x95d89b41\n      gt\n      tag_21\n      jumpi\n      dup1\n      0x95d89b41\n      eq\n      tag_15\n      jumpi\n      dup1\n      0xa6773a98\n      eq\n      tag_16\n      jumpi\n      dup1\n      0xa9059cbb\n      eq\n      tag_17\n      jumpi\n      dup1\n      0xdd62ed3e\n      eq\n      tag_18\n      jumpi\n      dup1\n      0xf2fde38b\n      eq\n      tag_19\n      jumpi\n      jump(tag_2)\n    tag_21:\n      dup1\n      0x70a08231\n      eq\n      tag_11\n      jumpi\n      dup1\n      0x715018a6\n      eq\n      tag_12\n      jumpi\n      dup1\n      0x79cc6790\n      eq\n      tag_13\n      jumpi\n      dup1\n      0x8da5cb5b\n      eq\n      tag_14\n      jumpi\n      jump(tag_2)\n    tag_20:\n      dup1\n      0x313ce567\n      gt\n      tag_22\n      jumpi\n      dup1\n      0x313ce567\n      eq\n      tag_7\n      jumpi\n      dup1\n      0x355274ea\n      eq\n      tag_8\n      jumpi\n      dup1\n      0x42966c68\n      eq\n      tag_9\n      jumpi\n      dup1\n      0x4735c94c\n      eq\n      tag_10\n      jumpi\n      jump(tag_2)\n    tag_22:\n      dup1\n      0x06fdde03\n      eq\n      tag_3\n      jumpi\n      dup1\n      0x095ea7b3\n      eq\n      tag_4\n      jumpi\n      dup1\n      0x18160ddd\n      eq\n      tag_5\n      jumpi\n      dup1\n      0x23b872dd\n      eq\n      tag_6\n      jumpi\n    tag_2:\n      0x00\n      dup1\n      revert\n        /* \"@openzeppelin/contracts/token/ERC20/ERC20.sol\":1760:1849  function name() public view virtual returns (string memory) {... */\n    tag_3:\n      tag_23\n      tag_24\n      jump\t// in\n    tag_23:\n      mload(0x40)\n      tag_25\n      swap2\n      swap1\n      tag_26\n      jump\t// in\n    tag_25:\n      mload(0x40)\n      dup1\n      swap2\n      sub\n      swap1\n      return\n        /* \"@openzeppelin/contracts/token/ERC20/ERC20.sol\":3979:4165  function approve(address spender, uint256 value) public virtual returns (bool) {... */\n    tag_4:\n      tag_27\n      0x04\n      dup1\n      calldatasize\n      sub\n      dup2\n      add\n      swap1\n      tag_28\n      swap2\n      swap1\n      tag_29\n      jump\t// in\n    tag_28:\n      tag_30\n      jump\t// in\n    tag_27:\n      mload(0x40)\n      tag_31\n      swap2\n      swap1\n      tag_32\n      jump\t// in\n    tag_31:\n      mload(0x40)\n      dup1\n      swap2\n      sub\n      swap1\n      return\n        /* \"@openzeppelin/contracts/token/ERC20/ERC20.sol\":2830:2927  function totalSupply() public view virtual returns (uint256) {... */\n    tag_5:\n      tag_33\n      tag_34\n      jump\t// in\n    tag_33:\n      mload(0x40)\n      tag_35\n      swap2\n      swap1\n      tag_36\n      jump\t// in\n    tag_35:\n      mload(0x40)\n      dup1\n      swap2\n      sub\n      swap1\n      return\n        /* \"@openzeppelin/contracts/token/ERC20/ERC20.sol\":4757:5001  function transferFrom(address from, address to, uint256 value) public virtual returns (bool) {... */\n    tag_6:\n      tag_37\n      0x04\n      dup1\n      calldatasize\n      sub\n      dup2\n      add\n      swap1\n      tag_38\n      swap2\n      swap1\n      tag_39\n      jump\t// in\n    tag_38:\n      tag_40\n      jump\t// in\n    tag_37:\n      mload(0x40)\n      tag_41\n      swap2\n      swap1\n      tag_32\n      jump\t// in\n    tag_41:\n      mload(0x40)\n      dup1\n      swap2\n      sub\n      swap1\n      return\n        /* \"@openzeppelin/contracts/token/ERC20/ERC20.sol\":2688:2770  function decimals() public view virtual returns (uint8) {... */\n    tag_7:\n      tag_42\n      tag_43\n      jump\t// in\n    tag_42:\n      mload(0x40)\n      tag_44\n      swap2\n      swap1\n      tag_45\n      jump\t// in\n    tag_44:\n      mload(0x40)\n      dup1\n      swap2\n      sub\n      swap1\n      return\n        /* \"@openzeppelin/contracts/token/ERC20/extensions/ERC20Capped.sol\":923:1004  function cap() public view virtual returns (uint256) {... */\n    tag_8:\n      tag_46\n      tag_47\n      jump\t// in\n    tag_46:\n      mload(0x40)\n      tag_48\n      swap2\n      swap1\n      tag_36\n      jump\t// in\n    tag_48:\n      mload(0x40)\n      dup1\n      swap2\n      sub\n      swap1\n      return\n        /* \"@openzeppelin/contracts/token/ERC20/extensions/ERC20Burnable.sol\":618:705  function burn(uint256 value) public virtual {... */\n    tag_9:\n      tag_49\n      0x04\n      dup1\n      calldatasize\n      sub\n      dup2\n      add\n      swap1\n      tag_50\n      swap2\n      swap1\n      tag_51\n      jump\t// in\n    tag_50:\n      tag_52\n      jump\t// in\n    tag_49:\n      stop\n        /* \"contracts/Soboro.sol\":1108:1342  function createCrumbContract() public onlyOwner {... */\n    tag_10:\n      tag_53\n      tag_54\n      jump\t// in\n    tag_53:\n      stop\n        /* \"@openzeppelin/contracts/token/ERC20/ERC20.sol\":2985:3101  function balanceOf(address account) public view virtual returns (uint256) {... */\n    tag_11:\n      tag_55\n      0x04\n      dup1\n      calldatasize\n      sub\n      dup2\n      add\n      swap1\n      tag_56\n      swap2\n      swap1\n      tag_57\n      jump\t// in\n    tag_56:\n      tag_58\n      jump\t// in\n    tag_55:\n      mload(0x40)\n      tag_59\n      swap2\n      swap1\n      tag_36\n      jump\t// in\n    tag_59:\n      mload(0x40)\n      dup1\n      swap2\n      sub\n      swap1\n      return\n        /* \"@openzeppelin/contracts/access/Ownable.sol\":2293:2394  function renounceOwnership() public virtual onlyOwner {... */\n    tag_12:\n      tag_60\n      tag_61\n      jump\t// in\n    tag_60:\n      stop\n        /* \"@openzeppelin/contracts/token/ERC20/extensions/ERC20Burnable.sol\":1021:1179  function burnFrom(address account, uint256 value) public virtual {... */\n    tag_13:\n      tag_62\n      0x04\n      dup1\n      calldatasize\n      sub\n      dup2\n      add\n      swap1\n      tag_63\n      swap2\n      swap1\n      tag_29\n      jump\t// in\n    tag_63:\n      tag_64\n      jump\t// in\n    tag_62:\n      stop\n        /* \"@openzeppelin/contracts/access/Ownable.sol\":1638:1723  function owner() public view virtual returns (address) {... */\n    tag_14:\n      tag_65\n      tag_66\n      jump\t// in\n    tag_65:\n      mload(0x40)\n      tag_67\n      swap2\n      swap1\n      tag_68\n      jump\t// in\n    tag_67:\n      mload(0x40)\n      dup1\n      swap2\n      sub\n      swap1\n      return\n        /* \"@openzeppelin/contracts/token/ERC20/ERC20.sol\":1962:2055  function symbol() public view virtual returns (string memory) {... */\n    tag_15:\n      tag_69\n      tag_70\n      jump\t// in\n    tag_69:\n      mload(0x40)\n      tag_71\n      swap2\n      swap1\n      tag_26\n      jump\t// in\n    tag_71:\n      mload(0x40)\n      dup1\n      swap2\n      sub\n      swap1\n      return\n        /* \"contracts/Soboro.sol\":1382:1792  function requestSurveyCreationOnCrumb(string memory _question, string[] memory _options) public onlyOwner {... */\n    tag_16:\n      tag_72\n      0x04\n      dup1\n      calldatasize\n      sub\n      dup2\n      add\n      swap1\n      tag_73\n      swap2\n      swap1\n      tag_74\n      jump\t// in\n    tag_73:\n      tag_75\n      jump\t// in\n    tag_72:\n      stop\n        /* \"@openzeppelin/contracts/token/ERC20/ERC20.sol\":3296:3474  function transfer(address to, uint256 value) public virtual returns (bool) {... */\n    tag_17:\n      tag_76\n      0x04\n      dup1\n      calldatasize\n      sub\n      dup2\n      add\n      swap1\n      tag_77\n      swap2\n      swap1\n      tag_29\n      jump\t// in\n    tag_77:\n      tag_78\n      jump\t// in\n    tag_76:\n      mload(0x40)\n      tag_79\n      swap2\n      swap1\n      tag_32\n      jump\t// in\n    tag_79:\n      mload(0x40)\n      dup1\n      swap2\n      sub\n      swap1\n      return\n        /* \"@openzeppelin/contracts/token/ERC20/ERC20.sol\":3532:3672  function allowance(address owner, address spender) public view virtual returns (uint256) {... */\n    tag_18:\n      tag_80\n      0x04\n      dup1\n      calldatasize\n      sub\n      dup2\n      add\n      swap1\n      tag_81\n      swap2\n      swap1\n      tag_82\n      jump\t// in\n    tag_81:\n      tag_83\n      jump\t// in\n    tag_80:\n      mload(0x40)\n      tag_84\n      swap2\n      swap1\n      tag_36\n      jump\t// in\n    tag_84:\n      mload(0x40)\n      dup1\n      swap2\n      sub\n      swap1\n      return\n        /* \"@openzeppelin/contracts/access/Ownable.sol\":2543:2758  function transferOwnership(address newOwner) public virtual onlyOwner {... */\n    tag_19:\n      tag_85\n      0x04\n      dup1\n      calldatasize\n      sub\n      dup2\n      add\n      swap1\n      tag_86\n      swap2\n      swap1\n      tag_57\n      jump\t// in\n    tag_86:\n      tag_87\n      jump\t// in\n    tag_85:\n      stop\n        /* \"@openzeppelin/contracts/token/ERC20/ERC20.sol\":1760:1849  function name() public view virtual returns (string memory) {... */\n    tag_24:\n        /* \"@openzeppelin/contracts/token/ERC20/ERC20.sol\":1805:1818  string memory */\n      0x60\n        /* \"@openzeppelin/contracts/token/ERC20/ERC20.sol\":1837:1842  _name */\n      0x03\n        /* \"@openzeppelin/contracts/token/ERC20/ERC20.sol\":1830:1842  return _name */\n      dup1\n      sload\n      tag_89\n      swap1\n      tag_90\n      jump\t// in\n    tag_89:\n      dup1\n      0x1f\n      add\n      0x20\n      dup1\n      swap2\n      div\n      mul\n      0x20\n      add\n      mload(0x40)\n      swap1\n      dup2\n      add\n      0x40\n      mstore\n      dup1\n      swap3\n      swap2\n      swap1\n      dup2\n      dup2\n      mstore\n      0x20\n      add\n      dup3\n      dup1\n      sload\n      tag_91\n      swap1\n      tag_90\n      jump\t// in\n    tag_91:\n      dup1\n      iszero\n      tag_92\n      jumpi\n      dup1\n      0x1f\n      lt\n      tag_93\n      jumpi\n      0x0100\n      dup1\n      dup4\n      sload\n      div\n      mul\n      dup4\n      mstore\n      swap2\n      0x20\n      add\n      swap2\n      jump(tag_92)\n    tag_93:\n      dup3\n      add\n      swap2\n      swap1\n      0x00\n      mstore\n      keccak256(0x00, 0x20)\n      swap1\n    tag_94:\n      dup2\n      sload\n      dup2\n      mstore\n      swap1\n      0x01\n      add\n      swap1\n      0x20\n      add\n      dup1\n      dup4\n      gt\n      tag_94\n      jumpi\n      dup3\n      swap1\n      sub\n      0x1f\n      and\n      dup3\n      add\n      swap2\n    tag_92:\n      pop\n      pop\n      pop\n      pop\n      pop\n      swap1\n      pop\n        /* \"@openzeppelin/contracts/token/ERC20/ERC20.sol\":1760:1849  function name() public view virtual returns (string memory) {... */\n      swap1\n      jump\t// out\n        /* \"@openzeppelin/contracts/token/ERC20/ERC20.sol\":3979:4165  function approve(address spender, uint256 value) public virtual returns (bool) {... */\n    tag_30:\n        /* \"@openzeppelin/contracts/token/ERC20/ERC20.sol\":4052:4056  bool */\n      0x00\n        /* \"@openzeppelin/contracts/token/ERC20/ERC20.sol\":4068:4081  address owner */\n      dup1\n        /* \"@openzeppelin/contracts/token/ERC20/ERC20.sol\":4084:4096  _msgSender() */\n      tag_96\n        /* \"@openzeppelin/contracts/token/ERC20/ERC20.sol\":4084:4094  _msgSender */\n      tag_97\n        /* \"@openzeppelin/contracts/token/ERC20/ERC20.sol\":4084:4096  _msgSender() */\n      jump\t// in\n    tag_96:\n        /* \"@openzeppelin/contracts/token/ERC20/ERC20.sol\":4068:4096  address owner = _msgSender() */\n      swap1\n      pop\n        /* \"@openzeppelin/contracts/token/ERC20/ERC20.sol\":4106:4137  _approve(owner, spender, value) */\n      tag_98\n        /* \"@openzeppelin/contracts/token/ERC20/ERC20.sol\":4115:4120  owner */\n      dup2\n        /* \"@openzeppelin/contracts/token/ERC20/ERC20.sol\":4122:4129  spender */\n      dup6\n        /* \"@openzeppelin/contracts/token/ERC20/ERC20.sol\":4131:4136  value */\n      dup6\n        /* \"@openzeppelin/contracts/token/ERC20/ERC20.sol\":4106:4114  _approve */\n      tag_99\n        /* \"@openzeppelin/contracts/token/ERC20/ERC20.sol\":4106:4137  _approve(owner, spender, value) */\n      jump\t// in\n    tag_98:\n        /* \"@openzeppelin/contracts/token/ERC20/ERC20.sol\":4154:4158  true */\n      0x01\n        /* \"@openzeppelin/contracts/token/ERC20/ERC20.sol\":4147:4158  return true */\n      swap2\n      pop\n      pop\n        /* \"@openzeppelin/contracts/token/ERC20/ERC20.sol\":3979:4165  function approve(address spender, uint256 value) public virtual returns (bool) {... */\n      swap3\n      swap2\n      pop\n      pop\n      jump\t// out\n        /* \"@openzeppelin/contracts/token/ERC20/ERC20.sol\":2830:2927  function totalSupply() public view virtual returns (uint256) {... */\n    tag_34:\n        /* \"@openzeppelin/contracts/token/ERC20/ERC20.sol\":2882:2889  uint256 */\n      0x00\n        /* \"@openzeppelin/contracts/token/ERC20/ERC20.sol\":2908:2920  _totalSupply */\n      sload(0x02)\n        /* \"@openzeppelin/contracts/token/ERC20/ERC20.sol\":2901:2920  return _totalSupply */\n      swap1\n      pop\n        /* \"@openzeppelin/contracts/token/ERC20/ERC20.sol\":2830:2927  function totalSupply() public view virtual returns (uint256) {... */\n      swap1\n      jump\t// out\n        /* \"@openzeppelin/contracts/token/ERC20/ERC20.sol\":4757:5001  function transferFrom(address from, address to, uint256 value) public virtual returns (bool) {... */\n    tag_40:\n        /* \"@openzeppelin/contracts/token/ERC20/ERC20.sol\":4844:4848  bool */\n      0x00\n        /* \"@openzeppelin/contracts/token/ERC20/ERC20.sol\":4860:4875  address spender */\n      dup1\n        /* \"@openzeppelin/contracts/token/ERC20/ERC20.sol\":4878:4890  _msgSender() */\n      tag_102\n        /* \"@openzeppelin/contracts/token/ERC20/ERC20.sol\":4878:4888  _msgSender */\n      tag_97\n        /* \"@openzeppelin/contracts/token/ERC20/ERC20.sol\":4878:4890  _msgSender() */\n      jump\t// in\n    tag_102:\n        /* \"@openzeppelin/contracts/token/ERC20/ERC20.sol\":4860:4890  address spender = _msgSender() */\n      swap1\n      pop\n        /* \"@openzeppelin/contracts/token/ERC20/ERC20.sol\":4900:4937  _spendAllowance(from, spender, value) */\n      tag_103\n        /* \"@openzeppelin/contracts/token/ERC20/ERC20.sol\":4916:4920  from */\n      dup6\n        /* \"@openzeppelin/contracts/token/ERC20/ERC20.sol\":4922:4929  spender */\n      dup3\n        /* \"@openzeppelin/contracts/token/ERC20/ERC20.sol\":4931:4936  value */\n      dup6\n        /* \"@openzeppelin/contracts/token/ERC20/ERC20.sol\":4900:4915  _spendAllowance */\n      tag_104\n        /* \"@openzeppelin/contracts/token/ERC20/ERC20.sol\":4900:4937  _spendAllowance(from, spender, value) */\n      jump\t// in\n    tag_103:\n        /* \"@openzeppelin/contracts/token/ERC20/ERC20.sol\":4947:4973  _transfer(from, to, value) */\n      tag_105\n        /* \"@openzeppelin/contracts/token/ERC20/ERC20.sol\":4957:4961  from */\n      dup6\n        /* \"@openzeppelin/contracts/token/ERC20/ERC20.sol\":4963:4965  to */\n      dup6\n        /* \"@openzeppelin/contracts/token/ERC20/ERC20.sol\":4967:4972  value */\n      dup6\n        /* \"@openzeppelin/contracts/token/ERC20/ERC20.sol\":4947:4956  _transfer */\n      tag_106\n        /* \"@openzeppelin/contracts/token/ERC20/ERC20.sol\":4947:4973  _transfer(from, to, value) */\n      jump\t// in\n    tag_105:\n        /* \"@openzeppelin/contracts/token/ERC20/ERC20.sol\":4990:4994  true */\n      0x01\n        /* \"@openzeppelin/contracts/token/ERC20/ERC20.sol\":4983:4994  return true */\n      swap2\n      pop\n      pop\n        /* \"@openzeppelin/contracts/token/ERC20/ERC20.sol\":4757:5001  function transferFrom(address from, address to, uint256 value) public virtual returns (bool) {... */\n      swap4\n      swap3\n      pop\n      pop\n      pop\n      jump\t// out\n        /* \"@openzeppelin/contracts/token/ERC20/ERC20.sol\":2688:2770  function decimals() public view virtual returns (uint8) {... */\n    tag_43:\n        /* \"@openzeppelin/contracts/token/ERC20/ERC20.sol\":2737:2742  uint8 */\n      0x00\n        /* \"@openzeppelin/contracts/token/ERC20/ERC20.sol\":2761:2763  18 */\n      0x12\n        /* \"@openzeppelin/contracts/token/ERC20/ERC20.sol\":2754:2763  return 18 */\n      swap1\n      pop\n        /* \"@openzeppelin/contracts/token/ERC20/ERC20.sol\":2688:2770  function decimals() public view virtual returns (uint8) {... */\n      swap1\n      jump\t// out\n        /* \"@openzeppelin/contracts/token/ERC20/extensions/ERC20Capped.sol\":923:1004  function cap() public view virtual returns (uint256) {... */\n    tag_47:\n        /* \"@openzeppelin/contracts/token/ERC20/extensions/ERC20Capped.sol\":967:974  uint256 */\n      0x00\n        /* \"@openzeppelin/contracts/token/ERC20/extensions/ERC20Capped.sol\":993:997  _cap */\n      immutable(\"0x69de3b38836c938ac93bb31643655e6e0a011af0f354a009a432084d0f963864\")\n        /* \"@openzeppelin/contracts/token/ERC20/extensions/ERC20Capped.sol\":986:997  return _cap */\n      swap1\n      pop\n        /* \"@openzeppelin/contracts/token/ERC20/extensions/ERC20Capped.sol\":923:1004  function cap() public view virtual returns (uint256) {... */\n      swap1\n      jump\t// out\n        /* \"@openzeppelin/contracts/token/ERC20/extensions/ERC20Burnable.sol\":618:705  function burn(uint256 value) public virtual {... */\n    tag_52:\n        /* \"@openzeppelin/contracts/token/ERC20/extensions/ERC20Burnable.sol\":672:698  _burn(_msgSender(), value) */\n      tag_110\n        /* \"@openzeppelin/contracts/token/ERC20/extensions/ERC20Burnable.sol\":678:690  _msgSender() */\n      tag_111\n        /* \"@openzeppelin/contracts/token/ERC20/extensions/ERC20Burnable.sol\":678:688  _msgSender */\n      tag_97\n        /* \"@openzeppelin/contracts/token/ERC20/extensions/ERC20Burnable.sol\":678:690  _msgSender() */\n      jump\t// in\n    tag_111:\n        /* \"@openzeppelin/contracts/token/ERC20/extensions/ERC20Burnable.sol\":692:697  value */\n      dup3\n        /* \"@openzeppelin/contracts/token/ERC20/extensions/ERC20Burnable.sol\":672:677  _burn */\n      tag_112\n        /* \"@openzeppelin/contracts/token/ERC20/extensions/ERC20Burnable.sol\":672:698  _burn(_msgSender(), value) */\n      jump\t// in\n    tag_110:\n        /* \"@openzeppelin/contracts/token/ERC20/extensions/ERC20Burnable.sol\":618:705  function burn(uint256 value) public virtual {... */\n      pop\n      jump\t// out\n        /* \"contracts/Soboro.sol\":1108:1342  function createCrumbContract() public onlyOwner {... */\n    tag_54:\n        /* \"@openzeppelin/contracts/access/Ownable.sol\":1531:1544  _checkOwner() */\n      tag_114\n        /* \"@openzeppelin/contracts/access/Ownable.sol\":1531:1542  _checkOwner */\n      tag_115\n        /* \"@openzeppelin/contracts/access/Ownable.sol\":1531:1544  _checkOwner() */\n      jump\t// in\n    tag_114:\n        /* \"contracts/Soboro.sol\":1206:1207  0 */\n      0x00\n        /* \"contracts/Soboro.sol\":1174:1208  crumbMap[crumbGenID] == address(0) */\n      0xffffffffffffffffffffffffffffffffffffffff\n      and\n        /* \"contracts/Soboro.sol\":1174:1182  crumbMap */\n      0x06\n        /* \"contracts/Soboro.sol\":1174:1194  crumbMap[crumbGenID] */\n      0x00\n        /* \"contracts/Soboro.sol\":1183:1193  crumbGenID */\n      sload(0x07)\n        /* \"contracts/Soboro.sol\":1174:1194  crumbMap[crumbGenID] */\n      dup2\n      mstore\n      0x20\n      add\n      swap1\n      dup2\n      mstore\n      0x20\n      add\n      0x00\n      keccak256\n      0x00\n      swap1\n      sload\n      swap1\n      0x0100\n      exp\n      swap1\n      div\n      0xffffffffffffffffffffffffffffffffffffffff\n      and\n        /* \"contracts/Soboro.sol\":1174:1208  crumbMap[crumbGenID] == address(0) */\n      0xffffffffffffffffffffffffffffffffffffffff\n      and\n      eq\n        /* \"contracts/Soboro.sol\":1166:1231  require(crumbMap[crumbGenID] == address(0), \"crumb aleady baked\") */\n      tag_117\n      jumpi\n      mload(0x40)\n      0x08c379a000000000000000000000000000000000000000000000000000000000\n      dup2\n      mstore\n      0x04\n      add\n      tag_118\n      swap1\n      tag_119\n      jump\t// in\n    tag_118:\n      mload(0x40)\n      dup1\n      swap2\n      sub\n      swap1\n      revert\n    tag_117:\n        /* \"contracts/Soboro.sol\":1241:1252  Crumb crumb */\n      0x00\n        /* \"contracts/Soboro.sol\":1255:1266  new Crumb() */\n      mload(0x40)\n      tag_120\n      swap1\n      tag_121\n      jump\t// in\n    tag_120:\n      mload(0x40)\n      dup1\n      swap2\n      sub\n      swap1\n      0x00\n      create\n      dup1\n      iszero\n      dup1\n      iszero\n      tag_122\n      jumpi\n      returndatasize\n      0x00\n      dup1\n      returndatacopy\n      revert(0x00, returndatasize)\n    tag_122:\n      pop\n        /* \"contracts/Soboro.sol\":1241:1266  Crumb crumb = new Crumb() */\n      swap1\n      pop\n        /* \"contracts/Soboro.sol\":1307:1312  crumb */\n      dup1\n        /* \"contracts/Soboro.sol\":1276:1284  crumbMap */\n      0x06\n        /* \"contracts/Soboro.sol\":1276:1296  crumbMap[crumbGenID] */\n      0x00\n        /* \"contracts/Soboro.sol\":1285:1295  crumbGenID */\n      sload(0x07)\n        /* \"contracts/Soboro.sol\":1276:1296  crumbMap[crumbGenID] */\n      dup2\n      mstore\n      0x20\n      add\n      swap1\n      dup2\n      mstore\n      0x20\n      add\n      0x00\n      keccak256\n      0x00\n        /* \"contracts/Soboro.sol\":1276:1313  crumbMap[crumbGenID] = address(crumb) */\n      0x0100\n      exp\n      dup2\n      sload\n      dup2\n      0xffffffffffffffffffffffffffffffffffffffff\n      mul\n      not\n      and\n      swap1\n      dup4\n      0xffffffffffffffffffffffffffffffffffffffff\n      and\n      mul\n      or\n      swap1\n      sstore\n      pop\n        /* \"contracts/Soboro.sol\":1323:1333  crumbGenID */\n      0x07\n      0x00\n        /* \"contracts/Soboro.sol\":1323:1335  crumbGenID++ */\n      dup2\n      sload\n      dup1\n      swap3\n      swap2\n      swap1\n      tag_123\n      swap1\n      tag_124\n      jump\t// in\n    tag_123:\n      swap2\n      swap1\n      pop\n      sstore\n      pop\n        /* \"contracts/Soboro.sol\":1156:1342  {... */\n      pop\n        /* \"contracts/Soboro.sol\":1108:1342  function createCrumbContract() public onlyOwner {... */\n      jump\t// out\n        /* \"@openzeppelin/contracts/token/ERC20/ERC20.sol\":2985:3101  function balanceOf(address account) public view virtual returns (uint256) {... */\n    tag_58:\n        /* \"@openzeppelin/contracts/token/ERC20/ERC20.sol\":3050:3057  uint256 */\n      0x00\n        /* \"@openzeppelin/contracts/token/ERC20/ERC20.sol\":3076:3085  _balances */\n      dup1\n        /* \"@openzeppelin/contracts/token/ERC20/ERC20.sol\":3076:3094  _balances[account] */\n      0x00\n        /* \"@openzeppelin/contracts/token/ERC20/ERC20.sol\":3086:3093  account */\n      dup4\n        /* \"@openzeppelin/contracts/token/ERC20/ERC20.sol\":3076:3094  _balances[account] */\n      0xffffffffffffffffffffffffffffffffffffffff\n      and\n      0xffffffffffffffffffffffffffffffffffffffff\n      and\n      dup2\n      mstore\n      0x20\n      add\n      swap1\n      dup2\n      mstore\n      0x20\n      add\n      0x00\n      keccak256\n      sload\n        /* \"@openzeppelin/contracts/token/ERC20/ERC20.sol\":3069:3094  return _balances[account] */\n      swap1\n      pop\n        /* \"@openzeppelin/contracts/token/ERC20/ERC20.sol\":2985:3101  function balanceOf(address account) public view virtual returns (uint256) {... */\n      swap2\n      swap1\n      pop\n      jump\t// out\n        /* \"@openzeppelin/contracts/access/Ownable.sol\":2293:2394  function renounceOwnership() public virtual onlyOwner {... */\n    tag_61:\n        /* \"@openzeppelin/contracts/access/Ownable.sol\":1531:1544  _checkOwner() */\n      tag_127\n        /* \"@openzeppelin/contracts/access/Ownable.sol\":1531:1542  _checkOwner */\n      tag_115\n        /* \"@openzeppelin/contracts/access/Ownable.sol\":1531:1544  _checkOwner() */\n      jump\t// in\n    tag_127:\n        /* \"@openzeppelin/contracts/access/Ownable.sol\":2357:2387  _transferOwnership(address(0)) */\n      tag_129\n        /* \"@openzeppelin/contracts/access/Ownable.sol\":2384:2385  0 */\n      0x00\n        /* \"@openzeppelin/contracts/access/Ownable.sol\":2357:2375  _transferOwnership */\n      tag_130\n        /* \"@openzeppelin/contracts/access/Ownable.sol\":2357:2387  _transferOwnership(address(0)) */\n      jump\t// in\n    tag_129:\n        /* \"@openzeppelin/contracts/access/Ownable.sol\":2293:2394  function renounceOwnership() public virtual onlyOwner {... */\n      jump\t// out\n        /* \"@openzeppelin/contracts/token/ERC20/extensions/ERC20Burnable.sol\":1021:1179  function burnFrom(address account, uint256 value) public virtual {... */\n    tag_64:\n        /* \"@openzeppelin/contracts/token/ERC20/extensions/ERC20Burnable.sol\":1096:1141  _spendAllowance(account, _msgSender(), value) */\n      tag_132\n        /* \"@openzeppelin/contracts/token/ERC20/extensions/ERC20Burnable.sol\":1112:1119  account */\n      dup3\n        /* \"@openzeppelin/contracts/token/ERC20/extensions/ERC20Burnable.sol\":1121:1133  _msgSender() */\n      tag_133\n        /* \"@openzeppelin/contracts/token/ERC20/extensions/ERC20Burnable.sol\":1121:1131  _msgSender */\n      tag_97\n        /* \"@openzeppelin/contracts/token/ERC20/extensions/ERC20Burnable.sol\":1121:1133  _msgSender() */\n      jump\t// in\n    tag_133:\n        /* \"@openzeppelin/contracts/token/ERC20/extensions/ERC20Burnable.sol\":1135:1140  value */\n      dup4\n        /* \"@openzeppelin/contracts/token/ERC20/extensions/ERC20Burnable.sol\":1096:1111  _spendAllowance */\n      tag_104\n        /* \"@openzeppelin/contracts/token/ERC20/extensions/ERC20Burnable.sol\":1096:1141  _spendAllowance(account, _msgSender(), value) */\n      jump\t// in\n    tag_132:\n        /* \"@openzeppelin/contracts/token/ERC20/extensions/ERC20Burnable.sol\":1151:1172  _burn(account, value) */\n      tag_134\n        /* \"@openzeppelin/contracts/token/ERC20/extensions/ERC20Burnable.sol\":1157:1164  account */\n      dup3\n        /* \"@openzeppelin/contracts/token/ERC20/extensions/ERC20Burnable.sol\":1166:1171  value */\n      dup3\n        /* \"@openzeppelin/contracts/token/ERC20/extensions/ERC20Burnable.sol\":1151:1156  _burn */\n      tag_112\n        /* \"@openzeppelin/contracts/token/ERC20/extensions/ERC20Burnable.sol\":1151:1172  _burn(account, value) */\n      jump\t// in\n    tag_134:\n        /* \"@openzeppelin/contracts/token/ERC20/extensions/ERC20Burnable.sol\":1021:1179  function burnFrom(address account, uint256 value) public virtual {... */\n      pop\n      pop\n      jump\t// out\n        /* \"@openzeppelin/contracts/access/Ownable.sol\":1638:1723  function owner() public view virtual returns (address) {... */\n    tag_66:\n        /* \"@openzeppelin/contracts/access/Ownable.sol\":1684:1691  address */\n      0x00\n        /* \"@openzeppelin/contracts/access/Ownable.sol\":1710:1716  _owner */\n      0x05\n      0x00\n      swap1\n      sload\n      swap1\n      0x0100\n      exp\n      swap1\n      div\n      0xffffffffffffffffffffffffffffffffffffffff\n      and\n        /* \"@openzeppelin/contracts/access/Ownable.sol\":1703:1716  return _owner */\n      swap1\n      pop\n        /* \"@openzeppelin/contracts/access/Ownable.sol\":1638:1723  function owner() public view virtual returns (address) {... */\n      swap1\n      jump\t// out\n        /* \"@openzeppelin/contracts/token/ERC20/ERC20.sol\":1962:2055  function symbol() public view virtual returns (string memory) {... */\n    tag_70:\n        /* \"@openzeppelin/contracts/token/ERC20/ERC20.sol\":2009:2022  string memory */\n      0x60\n        /* \"@openzeppelin/contracts/token/ERC20/ERC20.sol\":2041:2048  _symbol */\n      0x04\n        /* \"@openzeppelin/contracts/token/ERC20/ERC20.sol\":2034:2048  return _symbol */\n      dup1\n      sload\n      tag_137\n      swap1\n      tag_90\n      jump\t// in\n    tag_137:\n      dup1\n      0x1f\n      add\n      0x20\n      dup1\n      swap2\n      div\n      mul\n      0x20\n      add\n      mload(0x40)\n      swap1\n      dup2\n      add\n      0x40\n      mstore\n      dup1\n      swap3\n      swap2\n      swap1\n      dup2\n      dup2\n      mstore\n      0x20\n      add\n      dup3\n      dup1\n      sload\n      tag_138\n      swap1\n      tag_90\n      jump\t// in\n    tag_138:\n      dup1\n      iszero\n      tag_139\n      jumpi\n      dup1\n      0x1f\n      lt\n      tag_140\n      jumpi\n      0x0100\n      dup1\n      dup4\n      sload\n      div\n      mul\n      dup4\n      mstore\n      swap2\n      0x20\n      add\n      swap2\n      jump(tag_139)\n    tag_140:\n      dup3\n      add\n      swap2\n      swap1\n      0x00\n      mstore\n      keccak256(0x00, 0x20)\n      swap1\n    tag_141:\n      dup2\n      sload\n      dup2\n      mstore\n      swap1\n      0x01\n      add\n      swap1\n      0x20\n      add\n      dup1\n      dup4\n      gt\n      tag_141\n      jumpi\n      dup3\n      swap1\n      sub\n      0x1f\n      and\n      dup3\n      add\n      swap2\n    tag_139:\n      pop\n      pop\n      pop\n      pop\n      pop\n      swap1\n      pop\n        /* \"@openzeppelin/contracts/token/ERC20/ERC20.sol\":1962:2055  function symbol() public view virtual returns (string memory) {... */\n      swap1\n      jump\t// out\n        /* \"contracts/Soboro.sol\":1382:1792  function requestSurveyCreationOnCrumb(string memory _question, string[] memory _options) public onlyOwner {... */\n    tag_75:\n        /* \"@openzeppelin/contracts/access/Ownable.sol\":1531:1544  _checkOwner() */\n      tag_143\n        /* \"@openzeppelin/contracts/access/Ownable.sol\":1531:1542  _checkOwner */\n      tag_115\n        /* \"@openzeppelin/contracts/access/Ownable.sol\":1531:1544  _checkOwner() */\n      jump\t// in\n    tag_143:\n        /* \"contracts/Soboro.sol\":1498:1519  uint latestCrumbIndex */\n      0x00\n        /* \"contracts/Soboro.sol\":1535:1536  1 */\n      0x01\n        /* \"contracts/Soboro.sol\":1522:1532  crumbGenID */\n      sload(0x07)\n        /* \"contracts/Soboro.sol\":1522:1536  crumbGenID - 1 */\n      tag_145\n      swap2\n      swap1\n      tag_146\n      jump\t// in\n    tag_145:\n        /* \"contracts/Soboro.sol\":1498:1536  uint latestCrumbIndex = crumbGenID - 1 */\n      swap1\n      pop\n        /* \"contracts/Soboro.sol\":1592:1593  0 */\n      0x00\n        /* \"contracts/Soboro.sol\":1554:1594  crumbMap[latestCrumbIndex] != address(0) */\n      0xffffffffffffffffffffffffffffffffffffffff\n      and\n        /* \"contracts/Soboro.sol\":1554:1562  crumbMap */\n      0x06\n        /* \"contracts/Soboro.sol\":1554:1580  crumbMap[latestCrumbIndex] */\n      0x00\n        /* \"contracts/Soboro.sol\":1563:1579  latestCrumbIndex */\n      dup4\n        /* \"contracts/Soboro.sol\":1554:1580  crumbMap[latestCrumbIndex] */\n      dup2\n      mstore\n      0x20\n      add\n      swap1\n      dup2\n      mstore\n      0x20\n      add\n      0x00\n      keccak256\n      0x00\n      swap1\n      sload\n      swap1\n      0x0100\n      exp\n      swap1\n      div\n      0xffffffffffffffffffffffffffffffffffffffff\n      and\n        /* \"contracts/Soboro.sol\":1554:1594  crumbMap[latestCrumbIndex] != address(0) */\n      0xffffffffffffffffffffffffffffffffffffffff\n      and\n      sub\n        /* \"contracts/Soboro.sol\":1546:1640  require(crumbMap[latestCrumbIndex] != address(0), \"lastest crumb does not exist. Who ate it?\") */\n      tag_147\n      jumpi\n      mload(0x40)\n      0x08c379a000000000000000000000000000000000000000000000000000000000\n      dup2\n      mstore\n      0x04\n      add\n      tag_148\n      swap1\n      tag_149\n      jump\t// in\n    tag_148:\n      mload(0x40)\n      dup1\n      swap2\n      sub\n      swap1\n      revert\n    tag_147:\n        /* \"contracts/Soboro.sol\":1488:1792  {... */\n      pop\n        /* \"contracts/Soboro.sol\":1382:1792  function requestSurveyCreationOnCrumb(string memory _question, string[] memory _options) public onlyOwner {... */\n      pop\n      pop\n      jump\t// out\n        /* \"@openzeppelin/contracts/token/ERC20/ERC20.sol\":3296:3474  function transfer(address to, uint256 value) public virtual returns (bool) {... */\n    tag_78:\n        /* \"@openzeppelin/contracts/token/ERC20/ERC20.sol\":3365:3369  bool */\n      0x00\n        /* \"@openzeppelin/contracts/token/ERC20/ERC20.sol\":3381:3394  address owner */\n      dup1\n        /* \"@openzeppelin/contracts/token/ERC20/ERC20.sol\":3397:3409  _msgSender() */\n      tag_151\n        /* \"@openzeppelin/contracts/token/ERC20/ERC20.sol\":3397:3407  _msgSender */\n      tag_97\n        /* \"@openzeppelin/contracts/token/ERC20/ERC20.sol\":3397:3409  _msgSender() */\n      jump\t// in\n    tag_151:\n        /* \"@openzeppelin/contracts/token/ERC20/ERC20.sol\":3381:3409  address owner = _msgSender() */\n      swap1\n      pop\n        /* \"@openzeppelin/contracts/token/ERC20/ERC20.sol\":3419:3446  _transfer(owner, to, value) */\n      tag_152\n        /* \"@openzeppelin/contracts/token/ERC20/ERC20.sol\":3429:3434  owner */\n      dup2\n        /* \"@openzeppelin/contracts/token/ERC20/ERC20.sol\":3436:3438  to */\n      dup6\n        /* \"@openzeppelin/contracts/token/ERC20/ERC20.sol\":3440:3445  value */\n      dup6\n        /* \"@openzeppelin/contracts/token/ERC20/ERC20.sol\":3419:3428  _transfer */\n      tag_106\n        /* \"@openzeppelin/contracts/token/ERC20/ERC20.sol\":3419:3446  _transfer(owner, to, value) */\n      jump\t// in\n    tag_152:\n        /* \"@openzeppelin/contracts/token/ERC20/ERC20.sol\":3463:3467  true */\n      0x01\n        /* \"@openzeppelin/contracts/token/ERC20/ERC20.sol\":3456:3467  return true */\n      swap2\n      pop\n      pop\n        /* \"@openzeppelin/contracts/token/ERC20/ERC20.sol\":3296:3474  function transfer(address to, uint256 value) public virtual returns (bool) {... */\n      swap3\n      swap2\n      pop\n      pop\n      jump\t// out\n        /* \"@openzeppelin/contracts/token/ERC20/ERC20.sol\":3532:3672  function allowance(address owner, address spender) public view virtual returns (uint256) {... */\n    tag_83:\n        /* \"@openzeppelin/contracts/token/ERC20/ERC20.sol\":3612:3619  uint256 */\n      0x00\n        /* \"@openzeppelin/contracts/token/ERC20/ERC20.sol\":3638:3649  _allowances */\n      0x01\n        /* \"@openzeppelin/contracts/token/ERC20/ERC20.sol\":3638:3656  _allowances[owner] */\n      0x00\n        /* \"@openzeppelin/contracts/token/ERC20/ERC20.sol\":3650:3655  owner */\n      dup5\n        /* \"@openzeppelin/contracts/token/ERC20/ERC20.sol\":3638:3656  _allowances[owner] */\n      0xffffffffffffffffffffffffffffffffffffffff\n      and\n      0xffffffffffffffffffffffffffffffffffffffff\n      and\n      dup2\n      mstore\n      0x20\n      add\n      swap1\n      dup2\n      mstore\n      0x20\n      add\n      0x00\n      keccak256\n        /* \"@openzeppelin/contracts/token/ERC20/ERC20.sol\":3638:3665  _allowances[owner][spender] */\n      0x00\n        /* \"@openzeppelin/contracts/token/ERC20/ERC20.sol\":3657:3664  spender */\n      dup4\n        /* \"@openzeppelin/contracts/token/ERC20/ERC20.sol\":3638:3665  _allowances[owner][spender] */\n      0xffffffffffffffffffffffffffffffffffffffff\n      and\n      0xffffffffffffffffffffffffffffffffffffffff\n      and\n      dup2\n      mstore\n      0x20\n      add\n      swap1\n      dup2\n      mstore\n      0x20\n      add\n      0x00\n      keccak256\n      sload\n        /* \"@openzeppelin/contracts/token/ERC20/ERC20.sol\":3631:3665  return _allowances[owner][spender] */\n      swap1\n      pop\n        /* \"@openzeppelin/contracts/token/ERC20/ERC20.sol\":3532:3672  function allowance(address owner, address spender) public view virtual returns (uint256) {... */\n      swap3\n      swap2\n      pop\n      pop\n      jump\t// out\n        /* \"@openzeppelin/contracts/access/Ownable.sol\":2543:2758  function transferOwnership(address newOwner) public virtual onlyOwner {... */\n    tag_87:\n        /* \"@openzeppelin/contracts/access/Ownable.sol\":1531:1544  _checkOwner() */\n      tag_155\n        /* \"@openzeppelin/contracts/access/Ownable.sol\":1531:1542  _checkOwner */\n      tag_115\n        /* \"@openzeppelin/contracts/access/Ownable.sol\":1531:1544  _checkOwner() */\n      jump\t// in\n    tag_155:\n        /* \"@openzeppelin/contracts/access/Ownable.sol\":2647:2648  0 */\n      0x00\n        /* \"@openzeppelin/contracts/access/Ownable.sol\":2627:2649  newOwner == address(0) */\n      0xffffffffffffffffffffffffffffffffffffffff\n      and\n        /* \"@openzeppelin/contracts/access/Ownable.sol\":2627:2635  newOwner */\n      dup2\n        /* \"@openzeppelin/contracts/access/Ownable.sol\":2627:2649  newOwner == address(0) */\n      0xffffffffffffffffffffffffffffffffffffffff\n      and\n      sub\n        /* \"@openzeppelin/contracts/access/Ownable.sol\":2623:2714  if (newOwner == address(0)) {... */\n      tag_157\n      jumpi\n        /* \"@openzeppelin/contracts/access/Ownable.sol\":2700:2701  0 */\n      0x00\n        /* \"@openzeppelin/contracts/access/Ownable.sol\":2672:2703  OwnableInvalidOwner(address(0)) */\n      mload(0x40)\n      0x1e4fbdf700000000000000000000000000000000000000000000000000000000\n      dup2\n      mstore\n      0x04\n      add\n      tag_158\n      swap2\n      swap1\n      tag_68\n      jump\t// in\n    tag_158:\n      mload(0x40)\n      dup1\n      swap2\n      sub\n      swap1\n      revert\n        /* \"@openzeppelin/contracts/access/Ownable.sol\":2623:2714  if (newOwner == address(0)) {... */\n    tag_157:\n        /* \"@openzeppelin/contracts/access/Ownable.sol\":2723:2751  _transferOwnership(newOwner) */\n      tag_159\n        /* \"@openzeppelin/contracts/access/Ownable.sol\":2742:2750  newOwner */\n      dup2\n        /* \"@openzeppelin/contracts/access/Ownable.sol\":2723:2741  _transferOwnership */\n      tag_130\n        /* \"@openzeppelin/contracts/access/Ownable.sol\":2723:2751  _transferOwnership(newOwner) */\n      jump\t// in\n    tag_159:\n        /* \"@openzeppelin/contracts/access/Ownable.sol\":2543:2758  function transferOwnership(address newOwner) public virtual onlyOwner {... */\n      pop\n      jump\t// out\n        /* \"@openzeppelin/contracts/utils/Context.sol\":656:752  function _msgSender() internal view virtual returns (address) {... */\n    tag_97:\n        /* \"@openzeppelin/contracts/utils/Context.sol\":709:716  address */\n      0x00\n        /* \"@openzeppelin/contracts/utils/Context.sol\":735:745  msg.sender */\n      caller\n        /* \"@openzeppelin/contracts/utils/Context.sol\":728:745  return msg.sender */\n      swap1\n      pop\n        /* \"@openzeppelin/contracts/utils/Context.sol\":656:752  function _msgSender() internal view virtual returns (address) {... */\n      swap1\n      jump\t// out\n        /* \"@openzeppelin/contracts/token/ERC20/ERC20.sol\":8707:8835  function _approve(address owner, address spender, uint256 value) internal {... */\n    tag_99:\n        /* \"@openzeppelin/contracts/token/ERC20/ERC20.sol\":8791:8828  _approve(owner, spender, value, true) */\n      tag_162\n        /* \"@openzeppelin/contracts/token/ERC20/ERC20.sol\":8800:8805  owner */\n      dup4\n        /* \"@openzeppelin/contracts/token/ERC20/ERC20.sol\":8807:8814  spender */\n      dup4\n        /* \"@openzeppelin/contracts/token/ERC20/ERC20.sol\":8816:8821  value */\n      dup4\n        /* \"@openzeppelin/contracts/token/ERC20/ERC20.sol\":8823:8827  true */\n      0x01\n        /* \"@openzeppelin/contracts/token/ERC20/ERC20.sol\":8791:8799  _approve */\n      tag_163\n        /* \"@openzeppelin/contracts/token/ERC20/ERC20.sol\":8791:8828  _approve(owner, spender, value, true) */\n      jump\t// in\n    tag_162:\n        /* \"@openzeppelin/contracts/token/ERC20/ERC20.sol\":8707:8835  function _approve(address owner, address spender, uint256 value) internal {... */\n      pop\n      pop\n      pop\n      jump\t// out\n        /* \"@openzeppelin/contracts/token/ERC20/ERC20.sol\":10396:10872  function _spendAllowance(address owner, address spender, uint256 value) internal virtual {... */\n    tag_104:\n        /* \"@openzeppelin/contracts/token/ERC20/ERC20.sol\":10495:10519  uint256 currentAllowance */\n      0x00\n        /* \"@openzeppelin/contracts/token/ERC20/ERC20.sol\":10522:10547  allowance(owner, spender) */\n      tag_165\n        /* \"@openzeppelin/contracts/token/ERC20/ERC20.sol\":10532:10537  owner */\n      dup5\n        /* \"@openzeppelin/contracts/token/ERC20/ERC20.sol\":10539:10546  spender */\n      dup5\n        /* \"@openzeppelin/contracts/token/ERC20/ERC20.sol\":10522:10531  allowance */\n      tag_83\n        /* \"@openzeppelin/contracts/token/ERC20/ERC20.sol\":10522:10547  allowance(owner, spender) */\n      jump\t// in\n    tag_165:\n        /* \"@openzeppelin/contracts/token/ERC20/ERC20.sol\":10495:10547  uint256 currentAllowance = allowance(owner, spender) */\n      swap1\n      pop\n        /* \"@openzeppelin/contracts/token/ERC20/ERC20.sol\":10580:10597  type(uint256).max */\n      0xffffffffffffffffffffffffffffffffffffffffffffffffffffffffffffffff\n        /* \"@openzeppelin/contracts/token/ERC20/ERC20.sol\":10561:10577  currentAllowance */\n      dup2\n        /* \"@openzeppelin/contracts/token/ERC20/ERC20.sol\":10561:10597  currentAllowance < type(uint256).max */\n      lt\n        /* \"@openzeppelin/contracts/token/ERC20/ERC20.sol\":10557:10866  if (currentAllowance < type(uint256).max) {... */\n      iszero\n      tag_166\n      jumpi\n        /* \"@openzeppelin/contracts/token/ERC20/ERC20.sol\":10636:10641  value */\n      dup2\n        /* \"@openzeppelin/contracts/token/ERC20/ERC20.sol\":10617:10633  currentAllowance */\n      dup2\n        /* \"@openzeppelin/contracts/token/ERC20/ERC20.sol\":10617:10641  currentAllowance < value */\n      lt\n        /* \"@openzeppelin/contracts/token/ERC20/ERC20.sol\":10613:10743  if (currentAllowance < value) {... */\n      iszero\n      tag_167\n      jumpi\n        /* \"@openzeppelin/contracts/token/ERC20/ERC20.sol\":10695:10702  spender */\n      dup3\n        /* \"@openzeppelin/contracts/token/ERC20/ERC20.sol\":10704:10720  currentAllowance */\n      dup2\n        /* \"@openzeppelin/contracts/token/ERC20/ERC20.sol\":10722:10727  value */\n      dup4\n        /* \"@openzeppelin/contracts/token/ERC20/ERC20.sol\":10668:10728  ERC20InsufficientAllowance(spender, currentAllowance, value) */\n      mload(0x40)\n      0xfb8f41b200000000000000000000000000000000000000000000000000000000\n      dup2\n      mstore\n      0x04\n      add\n      tag_168\n      swap4\n      swap3\n      swap2\n      swap1\n      tag_169\n      jump\t// in\n    tag_168:\n      mload(0x40)\n      dup1\n      swap2\n      sub\n      swap1\n      revert\n        /* \"@openzeppelin/contracts/token/ERC20/ERC20.sol\":10613:10743  if (currentAllowance < value) {... */\n    tag_167:\n        /* \"@openzeppelin/contracts/token/ERC20/ERC20.sol\":10784:10841  _approve(owner, spender, currentAllowance - value, false) */\n      tag_170\n        /* \"@openzeppelin/contracts/token/ERC20/ERC20.sol\":10793:10798  owner */\n      dup5\n        /* \"@openzeppelin/contracts/token/ERC20/ERC20.sol\":10800:10807  spender */\n      dup5\n        /* \"@openzeppelin/contracts/token/ERC20/ERC20.sol\":10828:10833  value */\n      dup5\n        /* \"@openzeppelin/contracts/token/ERC20/ERC20.sol\":10809:10825  currentAllowance */\n      dup5\n        /* \"@openzeppelin/contracts/token/ERC20/ERC20.sol\":10809:10833  currentAllowance - value */\n      sub\n        /* \"@openzeppelin/contracts/token/ERC20/ERC20.sol\":10835:10840  false */\n      0x00\n        /* \"@openzeppelin/contracts/token/ERC20/ERC20.sol\":10784:10792  _approve */\n      tag_163\n        /* \"@openzeppelin/contracts/token/ERC20/ERC20.sol\":10784:10841  _approve(owner, spender, currentAllowance - value, false) */\n      jump\t// in\n    tag_170:\n        /* \"@openzeppelin/contracts/token/ERC20/ERC20.sol\":10557:10866  if (currentAllowance < type(uint256).max) {... */\n    tag_166:\n        /* \"@openzeppelin/contracts/token/ERC20/ERC20.sol\":10485:10872  {... */\n      pop\n        /* \"@openzeppelin/contracts/token/ERC20/ERC20.sol\":10396:10872  function _spendAllowance(address owner, address spender, uint256 value) internal virtual {... */\n      pop\n      pop\n      pop\n      jump\t// out\n        /* \"@openzeppelin/contracts/token/ERC20/ERC20.sol\":5374:5674  function _transfer(address from, address to, uint256 value) internal {... */\n    tag_106:\n        /* \"@openzeppelin/contracts/token/ERC20/ERC20.sol\":5473:5474  0 */\n      0x00\n        /* \"@openzeppelin/contracts/token/ERC20/ERC20.sol\":5457:5475  from == address(0) */\n      0xffffffffffffffffffffffffffffffffffffffff\n      and\n        /* \"@openzeppelin/contracts/token/ERC20/ERC20.sol\":5457:5461  from */\n      dup4\n        /* \"@openzeppelin/contracts/token/ERC20/ERC20.sol\":5457:5475  from == address(0) */\n      0xffffffffffffffffffffffffffffffffffffffff\n      and\n      sub\n        /* \"@openzeppelin/contracts/token/ERC20/ERC20.sol\":5453:5539  if (from == address(0)) {... */\n      tag_172\n      jumpi\n        /* \"@openzeppelin/contracts/token/ERC20/ERC20.sol\":5525:5526  0 */\n      0x00\n        /* \"@openzeppelin/contracts/token/ERC20/ERC20.sol\":5498:5528  ERC20InvalidSender(address(0)) */\n      mload(0x40)\n      0x96c6fd1e00000000000000000000000000000000000000000000000000000000\n      dup2\n      mstore\n      0x04\n      add\n      tag_173\n      swap2\n      swap1\n      tag_68\n      jump\t// in\n    tag_173:\n      mload(0x40)\n      dup1\n      swap2\n      sub\n      swap1\n      revert\n        /* \"@openzeppelin/contracts/token/ERC20/ERC20.sol\":5453:5539  if (from == address(0)) {... */\n    tag_172:\n        /* \"@openzeppelin/contracts/token/ERC20/ERC20.sol\":5566:5567  0 */\n      0x00\n        /* \"@openzeppelin/contracts/token/ERC20/ERC20.sol\":5552:5568  to == address(0) */\n      0xffffffffffffffffffffffffffffffffffffffff\n      and\n        /* \"@openzeppelin/contracts/token/ERC20/ERC20.sol\":5552:5554  to */\n      dup3\n        /* \"@openzeppelin/contracts/token/ERC20/ERC20.sol\":5552:5568  to == address(0) */\n      0xffffffffffffffffffffffffffffffffffffffff\n      and\n      sub\n        /* \"@openzeppelin/contracts/token/ERC20/ERC20.sol\":5548:5634  if (to == address(0)) {... */\n      tag_174\n      jumpi\n        /* \"@openzeppelin/contracts/token/ERC20/ERC20.sol\":5620:5621  0 */\n      0x00\n        /* \"@openzeppelin/contracts/token/ERC20/ERC20.sol\":5591:5623  ERC20InvalidReceiver(address(0)) */\n      mload(0x40)\n      0xec442f0500000000000000000000000000000000000000000000000000000000\n      dup2\n      mstore\n      0x04\n      add\n      tag_175\n      swap2\n      swap1\n      tag_68\n      jump\t// in\n    tag_175:\n      mload(0x40)\n      dup1\n      swap2\n      sub\n      swap1\n      revert\n        /* \"@openzeppelin/contracts/token/ERC20/ERC20.sol\":5548:5634  if (to == address(0)) {... */\n    tag_174:\n        /* \"@openzeppelin/contracts/token/ERC20/ERC20.sol\":5643:5667  _update(from, to, value) */\n      tag_176\n        /* \"@openzeppelin/contracts/token/ERC20/ERC20.sol\":5651:5655  from */\n      dup4\n        /* \"@openzeppelin/contracts/token/ERC20/ERC20.sol\":5657:5659  to */\n      dup4\n        /* \"@openzeppelin/contracts/token/ERC20/ERC20.sol\":5661:5666  value */\n      dup4\n        /* \"@openzeppelin/contracts/token/ERC20/ERC20.sol\":5643:5650  _update */\n      tag_177\n        /* \"@openzeppelin/contracts/token/ERC20/ERC20.sol\":5643:5667  _update(from, to, value) */\n      jump\t// in\n    tag_176:\n        /* \"@openzeppelin/contracts/token/ERC20/ERC20.sol\":5374:5674  function _transfer(address from, address to, uint256 value) internal {... */\n      pop\n      pop\n      pop\n      jump\t// out\n        /* \"@openzeppelin/contracts/token/ERC20/ERC20.sol\":7965:8171  function _burn(address account, uint256 value) internal {... */\n    tag_112:\n        /* \"@openzeppelin/contracts/token/ERC20/ERC20.sol\":8054:8055  0 */\n      0x00\n        /* \"@openzeppelin/contracts/token/ERC20/ERC20.sol\":8035:8056  account == address(0) */\n      0xffffffffffffffffffffffffffffffffffffffff\n      and\n        /* \"@openzeppelin/contracts/token/ERC20/ERC20.sol\":8035:8042  account */\n      dup3\n        /* \"@openzeppelin/contracts/token/ERC20/ERC20.sol\":8035:8056  account == address(0) */\n      0xffffffffffffffffffffffffffffffffffffffff\n      and\n      sub\n        /* \"@openzeppelin/contracts/token/ERC20/ERC20.sol\":8031:8120  if (account == address(0)) {... */\n      tag_179\n      jumpi\n        /* \"@openzeppelin/contracts/token/ERC20/ERC20.sol\":8106:8107  0 */\n      0x00\n        /* \"@openzeppelin/contracts/token/ERC20/ERC20.sol\":8079:8109  ERC20InvalidSender(address(0)) */\n      mload(0x40)\n      0x96c6fd1e00000000000000000000000000000000000000000000000000000000\n      dup2\n      mstore\n      0x04\n      add\n      tag_180\n      swap2\n      swap1\n      tag_68\n      jump\t// in\n    tag_180:\n      mload(0x40)\n      dup1\n      swap2\n      sub\n      swap1\n      revert\n        /* \"@openzeppelin/contracts/token/ERC20/ERC20.sol\":8031:8120  if (account == address(0)) {... */\n    tag_179:\n        /* \"@openzeppelin/contracts/token/ERC20/ERC20.sol\":8129:8164  _update(account, address(0), value) */\n      tag_181\n        /* \"@openzeppelin/contracts/token/ERC20/ERC20.sol\":8137:8144  account */\n      dup3\n        /* \"@openzeppelin/contracts/token/ERC20/ERC20.sol\":8154:8155  0 */\n      0x00\n        /* \"@openzeppelin/contracts/token/ERC20/ERC20.sol\":8158:8163  value */\n      dup4\n        /* \"@openzeppelin/contracts/token/ERC20/ERC20.sol\":8129:8136  _update */\n      tag_177\n        /* \"@openzeppelin/contracts/token/ERC20/ERC20.sol\":8129:8164  _update(account, address(0), value) */\n      jump\t// in\n    tag_181:\n        /* \"@openzeppelin/contracts/token/ERC20/ERC20.sol\":7965:8171  function _burn(address account, uint256 value) internal {... */\n      pop\n      pop\n      jump\t// out\n        /* \"@openzeppelin/contracts/access/Ownable.sol\":1796:1958  function _checkOwner() internal view virtual {... */\n    tag_115:\n        /* \"@openzeppelin/contracts/access/Ownable.sol\":1866:1878  _msgSender() */\n      tag_183\n        /* \"@openzeppelin/contracts/access/Ownable.sol\":1866:1876  _msgSender */\n      tag_97\n        /* \"@openzeppelin/contracts/access/Ownable.sol\":1866:1878  _msgSender() */\n      jump\t// in\n    tag_183:\n        /* \"@openzeppelin/contracts/access/Ownable.sol\":1855:1878  owner() != _msgSender() */\n      0xffffffffffffffffffffffffffffffffffffffff\n      and\n        /* \"@openzeppelin/contracts/access/Ownable.sol\":1855:1862  owner() */\n      tag_184\n        /* \"@openzeppelin/contracts/access/Ownable.sol\":1855:1860  owner */\n      tag_66\n        /* \"@openzeppelin/contracts/access/Ownable.sol\":1855:1862  owner() */\n      jump\t// in\n    tag_184:\n        /* \"@openzeppelin/contracts/access/Ownable.sol\":1855:1878  owner() != _msgSender() */\n      0xffffffffffffffffffffffffffffffffffffffff\n      and\n      eq\n        /* \"@openzeppelin/contracts/access/Ownable.sol\":1851:1952  if (owner() != _msgSender()) {... */\n      tag_185\n      jumpi\n        /* \"@openzeppelin/contracts/access/Ownable.sol\":1928:1940  _msgSender() */\n      tag_186\n        /* \"@openzeppelin/contracts/access/Ownable.sol\":1928:1938  _msgSender */\n      tag_97\n        /* \"@openzeppelin/contracts/access/Ownable.sol\":1928:1940  _msgSender() */\n      jump\t// in\n    tag_186:\n        /* \"@openzeppelin/contracts/access/Ownable.sol\":1901:1941  OwnableUnauthorizedAccount(_msgSender()) */\n      mload(0x40)\n      0x118cdaa700000000000000000000000000000000000000000000000000000000\n      dup2\n      mstore\n      0x04\n      add\n      tag_187\n      swap2\n      swap1\n      tag_68\n      jump\t// in\n    tag_187:\n      mload(0x40)\n      dup1\n      swap2\n      sub\n      swap1\n      revert\n        /* \"@openzeppelin/contracts/access/Ownable.sol\":1851:1952  if (owner() != _msgSender()) {... */\n    tag_185:\n        /* \"@openzeppelin/contracts/access/Ownable.sol\":1796:1958  function _checkOwner() internal view virtual {... */\n      jump\t// out\n        /* \"@openzeppelin/contracts/access/Ownable.sol\":2912:3099  function _transferOwnership(address newOwner) internal virtual {... */\n    tag_130:\n        /* \"@openzeppelin/contracts/access/Ownable.sol\":2985:3001  address oldOwner */\n      0x00\n        /* \"@openzeppelin/contracts/access/Ownable.sol\":3004:3010  _owner */\n      0x05\n      0x00\n      swap1\n      sload\n      swap1\n      0x0100\n      exp\n      swap1\n      div\n      0xffffffffffffffffffffffffffffffffffffffff\n      and\n        /* \"@openzeppelin/contracts/access/Ownable.sol\":2985:3010  address oldOwner = _owner */\n      swap1\n      pop\n        /* \"@openzeppelin/contracts/access/Ownable.sol\":3029:3037  newOwner */\n      dup2\n        /* \"@openzeppelin/contracts/access/Ownable.sol\":3020:3026  _owner */\n      0x05\n      0x00\n        /* \"@openzeppelin/contracts/access/Ownable.sol\":3020:3037  _owner = newOwner */\n      0x0100\n      exp\n      dup2\n      sload\n      dup2\n      0xffffffffffffffffffffffffffffffffffffffff\n      mul\n      not\n      and\n      swap1\n      dup4\n      0xffffffffffffffffffffffffffffffffffffffff\n      and\n      mul\n      or\n      swap1\n      sstore\n      pop\n        /* \"@openzeppelin/contracts/access/Ownable.sol\":3083:3091  newOwner */\n      dup2\n        /* \"@openzeppelin/contracts/access/Ownable.sol\":3052:3092  OwnershipTransferred(oldOwner, newOwner) */\n      0xffffffffffffffffffffffffffffffffffffffff\n      and\n        /* \"@openzeppelin/contracts/access/Ownable.sol\":3073:3081  oldOwner */\n      dup2\n        /* \"@openzeppelin/contracts/access/Ownable.sol\":3052:3092  OwnershipTransferred(oldOwner, newOwner) */\n      0xffffffffffffffffffffffffffffffffffffffff\n      and\n      0x8be0079c531659141344cd1fd0a4f28419497f9722a3daafe3b4186f6b6457e0\n      mload(0x40)\n      mload(0x40)\n      dup1\n      swap2\n      sub\n      swap1\n      log3\n        /* \"@openzeppelin/contracts/access/Ownable.sol\":2975:3099  {... */\n      pop\n        /* \"@openzeppelin/contracts/access/Ownable.sol\":2912:3099  function _transferOwnership(address newOwner) internal virtual {... */\n      pop\n      jump\t// out\n        /* \"@openzeppelin/contracts/token/ERC20/ERC20.sol\":9682:10114  function _approve(address owner, address spender, uint256 value, bool emitEvent) internal virtual {... */\n    tag_163:\n        /* \"@openzeppelin/contracts/token/ERC20/ERC20.sol\":9811:9812  0 */\n      0x00\n        /* \"@openzeppelin/contracts/token/ERC20/ERC20.sol\":9794:9813  owner == address(0) */\n      0xffffffffffffffffffffffffffffffffffffffff\n      and\n        /* \"@openzeppelin/contracts/token/ERC20/ERC20.sol\":9794:9799  owner */\n      dup5\n        /* \"@openzeppelin/contracts/token/ERC20/ERC20.sol\":9794:9813  owner == address(0) */\n      0xffffffffffffffffffffffffffffffffffffffff\n      and\n      sub\n        /* \"@openzeppelin/contracts/token/ERC20/ERC20.sol\":9790:9879  if (owner == address(0)) {... */\n      tag_190\n      jumpi\n        /* \"@openzeppelin/contracts/token/ERC20/ERC20.sol\":9865:9866  0 */\n      0x00\n        /* \"@openzeppelin/contracts/token/ERC20/ERC20.sol\":9836:9868  ERC20InvalidApprover(address(0)) */\n      mload(0x40)\n      0xe602df0500000000000000000000000000000000000000000000000000000000\n      dup2\n      mstore\n      0x04\n      add\n      tag_191\n      swap2\n      swap1\n      tag_68\n      jump\t// in\n    tag_191:\n      mload(0x40)\n      dup1\n      swap2\n      sub\n      swap1\n      revert\n        /* \"@openzeppelin/contracts/token/ERC20/ERC20.sol\":9790:9879  if (owner == address(0)) {... */\n    tag_190:\n        /* \"@openzeppelin/contracts/token/ERC20/ERC20.sol\":9911:9912  0 */\n      0x00\n        /* \"@openzeppelin/contracts/token/ERC20/ERC20.sol\":9892:9913  spender == address(0) */\n      0xffffffffffffffffffffffffffffffffffffffff\n      and\n        /* \"@openzeppelin/contracts/token/ERC20/ERC20.sol\":9892:9899  spender */\n      dup4\n        /* \"@openzeppelin/contracts/token/ERC20/ERC20.sol\":9892:9913  spender == address(0) */\n      0xffffffffffffffffffffffffffffffffffffffff\n      and\n      sub\n        /* \"@openzeppelin/contracts/token/ERC20/ERC20.sol\":9888:9978  if (spender == address(0)) {... */\n      tag_192\n      jumpi\n        /* \"@openzeppelin/contracts/token/ERC20/ERC20.sol\":9964:9965  0 */\n      0x00\n        /* \"@openzeppelin/contracts/token/ERC20/ERC20.sol\":9936:9967  ERC20InvalidSpender(address(0)) */\n      mload(0x40)\n      0x94280d6200000000000000000000000000000000000000000000000000000000\n      dup2\n      mstore\n      0x04\n      add\n      tag_193\n      swap2\n      swap1\n      tag_68\n      jump\t// in\n    tag_193:\n      mload(0x40)\n      dup1\n      swap2\n      sub\n      swap1\n      revert\n        /* \"@openzeppelin/contracts/token/ERC20/ERC20.sol\":9888:9978  if (spender == address(0)) {... */\n    tag_192:\n        /* \"@openzeppelin/contracts/token/ERC20/ERC20.sol\":10017:10022  value */\n      dup2\n        /* \"@openzeppelin/contracts/token/ERC20/ERC20.sol\":9987:9998  _allowances */\n      0x01\n        /* \"@openzeppelin/contracts/token/ERC20/ERC20.sol\":9987:10005  _allowances[owner] */\n      0x00\n        /* \"@openzeppelin/contracts/token/ERC20/ERC20.sol\":9999:10004  owner */\n      dup7\n        /* \"@openzeppelin/contracts/token/ERC20/ERC20.sol\":9987:10005  _allowances[owner] */\n      0xffffffffffffffffffffffffffffffffffffffff\n      and\n      0xffffffffffffffffffffffffffffffffffffffff\n      and\n      dup2\n      mstore\n      0x20\n      add\n      swap1\n      dup2\n      mstore\n      0x20\n      add\n      0x00\n      keccak256\n        /* \"@openzeppelin/contracts/token/ERC20/ERC20.sol\":9987:10014  _allowances[owner][spender] */\n      0x00\n        /* \"@openzeppelin/contracts/token/ERC20/ERC20.sol\":10006:10013  spender */\n      dup6\n        /* \"@openzeppelin/contracts/token/ERC20/ERC20.sol\":9987:10014  _allowances[owner][spender] */\n      0xffffffffffffffffffffffffffffffffffffffff\n      and\n      0xffffffffffffffffffffffffffffffffffffffff\n      and\n      dup2\n      mstore\n      0x20\n      add\n      swap1\n      dup2\n      mstore\n      0x20\n      add\n      0x00\n      keccak256\n        /* \"@openzeppelin/contracts/token/ERC20/ERC20.sol\":9987:10022  _allowances[owner][spender] = value */\n      dup2\n      swap1\n      sstore\n      pop\n        /* \"@openzeppelin/contracts/token/ERC20/ERC20.sol\":10036:10045  emitEvent */\n      dup1\n        /* \"@openzeppelin/contracts/token/ERC20/ERC20.sol\":10032:10108  if (emitEvent) {... */\n      iszero\n      tag_194\n      jumpi\n        /* \"@openzeppelin/contracts/token/ERC20/ERC20.sol\":10082:10089  spender */\n      dup3\n        /* \"@openzeppelin/contracts/token/ERC20/ERC20.sol\":10066:10097  Approval(owner, spender, value) */\n      0xffffffffffffffffffffffffffffffffffffffff\n      and\n        /* \"@openzeppelin/contracts/token/ERC20/ERC20.sol\":10075:10080  owner */\n      dup5\n        /* \"@openzeppelin/contracts/token/ERC20/ERC20.sol\":10066:10097  Approval(owner, spender, value) */\n      0xffffffffffffffffffffffffffffffffffffffff\n      and\n      0x8c5be1e5ebec7d5bd14f71427d1e84f3dd0314c0f7b2291e5b200ac8c7c3b925\n        /* \"@openzeppelin/contracts/token/ERC20/ERC20.sol\":10091:10096  value */\n      dup5\n        /* \"@openzeppelin/contracts/token/ERC20/ERC20.sol\":10066:10097  Approval(owner, spender, value) */\n      mload(0x40)\n      tag_195\n      swap2\n      swap1\n      tag_36\n      jump\t// in\n    tag_195:\n      mload(0x40)\n      dup1\n      swap2\n      sub\n      swap1\n      log3\n        /* \"@openzeppelin/contracts/token/ERC20/ERC20.sol\":10032:10108  if (emitEvent) {... */\n    tag_194:\n        /* \"@openzeppelin/contracts/token/ERC20/ERC20.sol\":9682:10114  function _approve(address owner, address spender, uint256 value, bool emitEvent) internal virtual {... */\n      pop\n      pop\n      pop\n      pop\n      jump\t// out\n        /* \"contracts/Soboro.sol\":912:1055  function _update(address from, address to, uint256 value) internal override(ERC20, ERC20Capped) {... */\n    tag_177:\n        /* \"contracts/Soboro.sol\":1018:1048  super._update(from, to, value) */\n      tag_197\n        /* \"contracts/Soboro.sol\":1032:1036  from */\n      dup4\n        /* \"contracts/Soboro.sol\":1038:1040  to */\n      dup4\n        /* \"contracts/Soboro.sol\":1042:1047  value */\n      dup4\n        /* \"contracts/Soboro.sol\":1018:1031  super._update */\n      tag_198\n        /* \"contracts/Soboro.sol\":1018:1048  super._update(from, to, value) */\n      jump\t// in\n    tag_197:\n        /* \"contracts/Soboro.sol\":912:1055  function _update(address from, address to, uint256 value) internal override(ERC20, ERC20Capped) {... */\n      pop\n      pop\n      pop\n      jump\t// out\n        /* \"@openzeppelin/contracts/token/ERC20/extensions/ERC20Capped.sol\":1059:1430  function _update(address from, address to, uint256 value) internal virtual override {... */\n    tag_198:\n        /* \"@openzeppelin/contracts/token/ERC20/extensions/ERC20Capped.sol\":1153:1183  super._update(from, to, value) */\n      tag_200\n        /* \"@openzeppelin/contracts/token/ERC20/extensions/ERC20Capped.sol\":1167:1171  from */\n      dup4\n        /* \"@openzeppelin/contracts/token/ERC20/extensions/ERC20Capped.sol\":1173:1175  to */\n      dup4\n        /* \"@openzeppelin/contracts/token/ERC20/extensions/ERC20Capped.sol\":1177:1182  value */\n      dup4\n        /* \"@openzeppelin/contracts/token/ERC20/extensions/ERC20Capped.sol\":1153:1166  super._update */\n      tag_201\n        /* \"@openzeppelin/contracts/token/ERC20/extensions/ERC20Capped.sol\":1153:1183  super._update(from, to, value) */\n      jump\t// in\n    tag_200:\n        /* \"@openzeppelin/contracts/token/ERC20/extensions/ERC20Capped.sol\":1214:1215  0 */\n      0x00\n        /* \"@openzeppelin/contracts/token/ERC20/extensions/ERC20Capped.sol\":1198:1216  from == address(0) */\n      0xffffffffffffffffffffffffffffffffffffffff\n      and\n        /* \"@openzeppelin/contracts/token/ERC20/extensions/ERC20Capped.sol\":1198:1202  from */\n      dup4\n        /* \"@openzeppelin/contracts/token/ERC20/extensions/ERC20Capped.sol\":1198:1216  from == address(0) */\n      0xffffffffffffffffffffffffffffffffffffffff\n      and\n      sub\n        /* \"@openzeppelin/contracts/token/ERC20/extensions/ERC20Capped.sol\":1194:1424  if (from == address(0)) {... */\n      tag_202\n      jumpi\n        /* \"@openzeppelin/contracts/token/ERC20/extensions/ERC20Capped.sol\":1232:1249  uint256 maxSupply */\n      0x00\n        /* \"@openzeppelin/contracts/token/ERC20/extensions/ERC20Capped.sol\":1252:1257  cap() */\n      tag_203\n        /* \"@openzeppelin/contracts/token/ERC20/extensions/ERC20Capped.sol\":1252:1255  cap */\n      tag_47\n        /* \"@openzeppelin/contracts/token/ERC20/extensions/ERC20Capped.sol\":1252:1257  cap() */\n      jump\t// in\n    tag_203:\n        /* \"@openzeppelin/contracts/token/ERC20/extensions/ERC20Capped.sol\":1232:1257  uint256 maxSupply = cap() */\n      swap1\n      pop\n        /* \"@openzeppelin/contracts/token/ERC20/extensions/ERC20Capped.sol\":1271:1285  uint256 supply */\n      0x00\n        /* \"@openzeppelin/contracts/token/ERC20/extensions/ERC20Capped.sol\":1288:1301  totalSupply() */\n      tag_204\n        /* \"@openzeppelin/contracts/token/ERC20/extensions/ERC20Capped.sol\":1288:1299  totalSupply */\n      tag_34\n        /* \"@openzeppelin/contracts/token/ERC20/extensions/ERC20Capped.sol\":1288:1301  totalSupply() */\n      jump\t// in\n    tag_204:\n        /* \"@openzeppelin/contracts/token/ERC20/extensions/ERC20Capped.sol\":1271:1301  uint256 supply = totalSupply() */\n      swap1\n      pop\n        /* \"@openzeppelin/contracts/token/ERC20/extensions/ERC20Capped.sol\":1328:1337  maxSupply */\n      dup2\n        /* \"@openzeppelin/contracts/token/ERC20/extensions/ERC20Capped.sol\":1319:1325  supply */\n      dup2\n        /* \"@openzeppelin/contracts/token/ERC20/extensions/ERC20Capped.sol\":1319:1337  supply > maxSupply */\n      gt\n        /* \"@openzeppelin/contracts/token/ERC20/extensions/ERC20Capped.sol\":1315:1414  if (supply > maxSupply) {... */\n      iszero\n      tag_205\n      jumpi\n        /* \"@openzeppelin/contracts/token/ERC20/extensions/ERC20Capped.sol\":1381:1387  supply */\n      dup1\n        /* \"@openzeppelin/contracts/token/ERC20/extensions/ERC20Capped.sol\":1389:1398  maxSupply */\n      dup3\n        /* \"@openzeppelin/contracts/token/ERC20/extensions/ERC20Capped.sol\":1364:1399  ERC20ExceededCap(supply, maxSupply) */\n      mload(0x40)\n      0x9e79f85400000000000000000000000000000000000000000000000000000000\n      dup2\n      mstore\n      0x04\n      add\n      tag_206\n      swap3\n      swap2\n      swap1\n      tag_207\n      jump\t// in\n    tag_206:\n      mload(0x40)\n      dup1\n      swap2\n      sub\n      swap1\n      revert\n        /* \"@openzeppelin/contracts/token/ERC20/extensions/ERC20Capped.sol\":1315:1414  if (supply > maxSupply) {... */\n    tag_205:\n        /* \"@openzeppelin/contracts/token/ERC20/extensions/ERC20Capped.sol\":1218:1424  {... */\n      pop\n      pop\n        /* \"@openzeppelin/contracts/token/ERC20/extensions/ERC20Capped.sol\":1194:1424  if (from == address(0)) {... */\n    tag_202:\n        /* \"@openzeppelin/contracts/token/ERC20/extensions/ERC20Capped.sol\":1059:1430  function _update(address from, address to, uint256 value) internal virtual override {... */\n      pop\n      pop\n      pop\n      jump\t// out\n        /* \"@openzeppelin/contracts/token/ERC20/ERC20.sol\":5989:7096  function _update(address from, address to, uint256 value) internal virtual {... */\n    tag_201:\n        /* \"@openzeppelin/contracts/token/ERC20/ERC20.sol\":6094:6095  0 */\n      0x00\n        /* \"@openzeppelin/contracts/token/ERC20/ERC20.sol\":6078:6096  from == address(0) */\n      0xffffffffffffffffffffffffffffffffffffffff\n      and\n        /* \"@openzeppelin/contracts/token/ERC20/ERC20.sol\":6078:6082  from */\n      dup4\n        /* \"@openzeppelin/contracts/token/ERC20/ERC20.sol\":6078:6096  from == address(0) */\n      0xffffffffffffffffffffffffffffffffffffffff\n      and\n      sub\n        /* \"@openzeppelin/contracts/token/ERC20/ERC20.sol\":6074:6614  if (from == address(0)) {... */\n      tag_209\n      jumpi\n        /* \"@openzeppelin/contracts/token/ERC20/ERC20.sol\":6230:6235  value */\n      dup1\n        /* \"@openzeppelin/contracts/token/ERC20/ERC20.sol\":6214:6226  _totalSupply */\n      0x02\n      0x00\n        /* \"@openzeppelin/contracts/token/ERC20/ERC20.sol\":6214:6235  _totalSupply += value */\n      dup3\n      dup3\n      sload\n      tag_210\n      swap2\n      swap1\n      tag_211\n      jump\t// in\n    tag_210:\n      swap3\n      pop\n      pop\n      dup2\n      swap1\n      sstore\n      pop\n        /* \"@openzeppelin/contracts/token/ERC20/ERC20.sol\":6074:6614  if (from == address(0)) {... */\n      jump(tag_212)\n    tag_209:\n        /* \"@openzeppelin/contracts/token/ERC20/ERC20.sol\":6266:6285  uint256 fromBalance */\n      0x00\n        /* \"@openzeppelin/contracts/token/ERC20/ERC20.sol\":6288:6297  _balances */\n      dup1\n        /* \"@openzeppelin/contracts/token/ERC20/ERC20.sol\":6288:6303  _balances[from] */\n      0x00\n        /* \"@openzeppelin/contracts/token/ERC20/ERC20.sol\":6298:6302  from */\n      dup6\n        /* \"@openzeppelin/contracts/token/ERC20/ERC20.sol\":6288:6303  _balances[from] */\n      0xffffffffffffffffffffffffffffffffffffffff\n      and\n      0xffffffffffffffffffffffffffffffffffffffff\n      and\n      dup2\n      mstore\n      0x20\n      add\n      swap1\n      dup2\n      mstore\n      0x20\n      add\n      0x00\n      keccak256\n      sload\n        /* \"@openzeppelin/contracts/token/ERC20/ERC20.sol\":6266:6303  uint256 fromBalance = _balances[from] */\n      swap1\n      pop\n        /* \"@openzeppelin/contracts/token/ERC20/ERC20.sol\":6335:6340  value */\n      dup2\n        /* \"@openzeppelin/contracts/token/ERC20/ERC20.sol\":6321:6332  fromBalance */\n      dup2\n        /* \"@openzeppelin/contracts/token/ERC20/ERC20.sol\":6321:6340  fromBalance < value */\n      lt\n        /* \"@openzeppelin/contracts/token/ERC20/ERC20.sol\":6317:6432  if (fromBalance < value) {... */\n      iszero\n      tag_213\n      jumpi\n        /* \"@openzeppelin/contracts/token/ERC20/ERC20.sol\":6392:6396  from */\n      dup4\n        /* \"@openzeppelin/contracts/token/ERC20/ERC20.sol\":6398:6409  fromBalance */\n      dup2\n        /* \"@openzeppelin/contracts/token/ERC20/ERC20.sol\":6411:6416  value */\n      dup4\n        /* \"@openzeppelin/contracts/token/ERC20/ERC20.sol\":6367:6417  ERC20InsufficientBalance(from, fromBalance, value) */\n      mload(0x40)\n      0xe450d38c00000000000000000000000000000000000000000000000000000000\n      dup2\n      mstore\n      0x04\n      add\n      tag_214\n      swap4\n      swap3\n      swap2\n      swap1\n      tag_169\n      jump\t// in\n    tag_214:\n      mload(0x40)\n      dup1\n      swap2\n      sub\n      swap1\n      revert\n        /* \"@openzeppelin/contracts/token/ERC20/ERC20.sol\":6317:6432  if (fromBalance < value) {... */\n    tag_213:\n        /* \"@openzeppelin/contracts/token/ERC20/ERC20.sol\":6584:6589  value */\n      dup2\n        /* \"@openzeppelin/contracts/token/ERC20/ERC20.sol\":6570:6581  fromBalance */\n      dup2\n        /* \"@openzeppelin/contracts/token/ERC20/ERC20.sol\":6570:6589  fromBalance - value */\n      sub\n        /* \"@openzeppelin/contracts/token/ERC20/ERC20.sol\":6552:6561  _balances */\n      0x00\n        /* \"@openzeppelin/contracts/token/ERC20/ERC20.sol\":6552:6567  _balances[from] */\n      dup1\n        /* \"@openzeppelin/contracts/token/ERC20/ERC20.sol\":6562:6566  from */\n      dup7\n        /* \"@openzeppelin/contracts/token/ERC20/ERC20.sol\":6552:6567  _balances[from] */\n      0xffffffffffffffffffffffffffffffffffffffff\n      and\n      0xffffffffffffffffffffffffffffffffffffffff\n      and\n      dup2\n      mstore\n      0x20\n      add\n      swap1\n      dup2\n      mstore\n      0x20\n      add\n      0x00\n      keccak256\n        /* \"@openzeppelin/contracts/token/ERC20/ERC20.sol\":6552:6589  _balances[from] = fromBalance - value */\n      dup2\n      swap1\n      sstore\n      pop\n        /* \"@openzeppelin/contracts/token/ERC20/ERC20.sol\":6252:6614  {... */\n      pop\n        /* \"@openzeppelin/contracts/token/ERC20/ERC20.sol\":6074:6614  if (from == address(0)) {... */\n    tag_212:\n        /* \"@openzeppelin/contracts/token/ERC20/ERC20.sol\":6642:6643  0 */\n      0x00\n        /* \"@openzeppelin/contracts/token/ERC20/ERC20.sol\":6628:6644  to == address(0) */\n      0xffffffffffffffffffffffffffffffffffffffff\n      and\n        /* \"@openzeppelin/contracts/token/ERC20/ERC20.sol\":6628:6630  to */\n      dup3\n        /* \"@openzeppelin/contracts/token/ERC20/ERC20.sol\":6628:6644  to == address(0) */\n      0xffffffffffffffffffffffffffffffffffffffff\n      and\n      sub\n        /* \"@openzeppelin/contracts/token/ERC20/ERC20.sol\":6624:7049  if (to == address(0)) {... */\n      tag_215\n      jumpi\n        /* \"@openzeppelin/contracts/token/ERC20/ERC20.sol\":6807:6812  value */\n      dup1\n        /* \"@openzeppelin/contracts/token/ERC20/ERC20.sol\":6791:6803  _totalSupply */\n      0x02\n      0x00\n        /* \"@openzeppelin/contracts/token/ERC20/ERC20.sol\":6791:6812  _totalSupply -= value */\n      dup3\n      dup3\n      sload\n      sub\n      swap3\n      pop\n      pop\n      dup2\n      swap1\n      sstore\n      pop\n        /* \"@openzeppelin/contracts/token/ERC20/ERC20.sol\":6624:7049  if (to == address(0)) {... */\n      jump(tag_216)\n    tag_215:\n        /* \"@openzeppelin/contracts/token/ERC20/ERC20.sol\":7019:7024  value */\n      dup1\n        /* \"@openzeppelin/contracts/token/ERC20/ERC20.sol\":7002:7011  _balances */\n      0x00\n        /* \"@openzeppelin/contracts/token/ERC20/ERC20.sol\":7002:7015  _balances[to] */\n      dup1\n        /* \"@openzeppelin/contracts/token/ERC20/ERC20.sol\":7012:7014  to */\n      dup5\n        /* \"@openzeppelin/contracts/token/ERC20/ERC20.sol\":7002:7015  _balances[to] */\n      0xffffffffffffffffffffffffffffffffffffffff\n      and\n      0xffffffffffffffffffffffffffffffffffffffff\n      and\n      dup2\n      mstore\n      0x20\n      add\n      swap1\n      dup2\n      mstore\n      0x20\n      add\n      0x00\n      keccak256\n      0x00\n        /* \"@openzeppelin/contracts/token/ERC20/ERC20.sol\":7002:7024  _balances[to] += value */\n      dup3\n      dup3\n      sload\n      add\n      swap3\n      pop\n      pop\n      dup2\n      swap1\n      sstore\n      pop\n        /* \"@openzeppelin/contracts/token/ERC20/ERC20.sol\":6624:7049  if (to == address(0)) {... */\n    tag_216:\n        /* \"@openzeppelin/contracts/token/ERC20/ERC20.sol\":7079:7081  to */\n      dup2\n        /* \"@openzeppelin/contracts/token/ERC20/ERC20.sol\":7064:7089  Transfer(from, to, value) */\n      0xffffffffffffffffffffffffffffffffffffffff\n      and\n        /* \"@openzeppelin/contracts/token/ERC20/ERC20.sol\":7073:7077  from */\n      dup4\n        /* \"@openzeppelin/contracts/token/ERC20/ERC20.sol\":7064:7089  Transfer(from, to, value) */\n      0xffffffffffffffffffffffffffffffffffffffff\n      and\n      0xddf252ad1be2c89b69c2b068fc378daa952ba7f163c4a11628f55a4df523b3ef\n        /* \"@openzeppelin/contracts/token/ERC20/ERC20.sol\":7083:7088  value */\n      dup4\n        /* \"@openzeppelin/contracts/token/ERC20/ERC20.sol\":7064:7089  Transfer(from, to, value) */\n      mload(0x40)\n      tag_217\n      swap2\n      swap1\n      tag_36\n      jump\t// in\n    tag_217:\n      mload(0x40)\n      dup1\n      swap2\n      sub\n      swap1\n      log3\n        /* \"@openzeppelin/contracts/token/ERC20/ERC20.sol\":5989:7096  function _update(address from, address to, uint256 value) internal virtual {... */\n      pop\n      pop\n      pop\n      jump\t// out\n    tag_121:\n      dataSize(sub_0)\n      dup1\n      dataOffset(sub_0)\n      dup4\n      codecopy\n      add\n      swap1\n      jump\t// out\n        /* \"#utility.yul\":7:106   */\n    tag_218:\n        /* \"#utility.yul\":59:65   */\n      0x00\n        /* \"#utility.yul\":93:98   */\n      dup2\n        /* \"#utility.yul\":87:99   */\n      mload\n        /* \"#utility.yul\":77:99   */\n      swap1\n      pop\n        /* \"#utility.yul\":7:106   */\n      swap2\n      swap1\n      pop\n      jump\t// out\n        /* \"#utility.yul\":112:281   */\n    tag_219:\n        /* \"#utility.yul\":196:207   */\n      0x00\n        /* \"#utility.yul\":230:236   */\n      dup3\n        /* \"#utility.yul\":225:228   */\n      dup3\n        /* \"#utility.yul\":218:237   */\n      mstore\n        /* \"#utility.yul\":270:274   */\n      0x20\n        /* \"#utility.yul\":265:268   */\n      dup3\n        /* \"#utility.yul\":261:275   */\n      add\n        /* \"#utility.yul\":246:275   */\n      swap1\n      pop\n        /* \"#utility.yul\":112:281   */\n      swap3\n      swap2\n      pop\n      pop\n      jump\t// out\n        /* \"#utility.yul\":287:426   */\n    tag_220:\n        /* \"#utility.yul\":376:382   */\n      dup3\n        /* \"#utility.yul\":371:374   */\n      dup2\n        /* \"#utility.yul\":366:369   */\n      dup4\n        /* \"#utility.yul\":360:383   */\n      mcopy\n        /* \"#utility.yul\":417:418   */\n      0x00\n        /* \"#utility.yul\":408:414   */\n      dup4\n        /* \"#utility.yul\":403:406   */\n      dup4\n        /* \"#utility.yul\":399:415   */\n      add\n        /* \"#utility.yul\":392:419   */\n      mstore\n        /* \"#utility.yul\":287:426   */\n      pop\n      pop\n      pop\n      jump\t// out\n        /* \"#utility.yul\":432:534   */\n    tag_221:\n        /* \"#utility.yul\":473:479   */\n      0x00\n        /* \"#utility.yul\":524:526   */\n      0x1f\n        /* \"#utility.yul\":520:527   */\n      not\n        /* \"#utility.yul\":515:517   */\n      0x1f\n        /* \"#utility.yul\":508:513   */\n      dup4\n        /* \"#utility.yul\":504:518   */\n      add\n        /* \"#utility.yul\":500:528   */\n      and\n        /* \"#utility.yul\":490:528   */\n      swap1\n      pop\n        /* \"#utility.yul\":432:534   */\n      swap2\n      swap1\n      pop\n      jump\t// out\n        /* \"#utility.yul\":540:917   */\n    tag_222:\n        /* \"#utility.yul\":628:631   */\n      0x00\n        /* \"#utility.yul\":656:695   */\n      tag_264\n        /* \"#utility.yul\":689:694   */\n      dup3\n        /* \"#utility.yul\":656:695   */\n      tag_218\n      jump\t// in\n    tag_264:\n        /* \"#utility.yul\":711:782   */\n      tag_265\n        /* \"#utility.yul\":775:781   */\n      dup2\n        /* \"#utility.yul\":770:773   */\n      dup6\n        /* \"#utility.yul\":711:782   */\n      tag_219\n      jump\t// in\n    tag_265:\n        /* \"#utility.yul\":704:782   */\n      swap4\n      pop\n        /* \"#utility.yul\":791:856   */\n      tag_266\n        /* \"#utility.yul\":849:855   */\n      dup2\n        /* \"#utility.yul\":844:847   */\n      dup6\n        /* \"#utility.yul\":837:841   */\n      0x20\n        /* \"#utility.yul\":830:835   */\n      dup7\n        /* \"#utility.yul\":826:842   */\n      add\n        /* \"#utility.yul\":791:856   */\n      tag_220\n      jump\t// in\n    tag_266:\n        /* \"#utility.yul\":881:910   */\n      tag_267\n        /* \"#utility.yul\":903:909   */\n      dup2\n        /* \"#utility.yul\":881:910   */\n      tag_221\n      jump\t// in\n    tag_267:\n        /* \"#utility.yul\":876:879   */\n      dup5\n        /* \"#utility.yul\":872:911   */\n      add\n        /* \"#utility.yul\":865:911   */\n      swap2\n      pop\n        /* \"#utility.yul\":632:917   */\n      pop\n        /* \"#utility.yul\":540:917   */\n      swap3\n      swap2\n      pop\n      pop\n      jump\t// out\n        /* \"#utility.yul\":923:1236   */\n    tag_26:\n        /* \"#utility.yul\":1036:1040   */\n      0x00\n        /* \"#utility.yul\":1074:1076   */\n      0x20\n        /* \"#utility.yul\":1063:1072   */\n      dup3\n        /* \"#utility.yul\":1059:1077   */\n      add\n        /* \"#utility.yul\":1051:1077   */\n      swap1\n      pop\n        /* \"#utility.yul\":1123:1132   */\n      dup2\n        /* \"#utility.yul\":1117:1121   */\n      dup2\n        /* \"#utility.yul\":1113:1133   */\n      sub\n        /* \"#utility.yul\":1109:1110   */\n      0x00\n        /* \"#utility.yul\":1098:1107   */\n      dup4\n        /* \"#utility.yul\":1094:1111   */\n      add\n        /* \"#utility.yul\":1087:1134   */\n      mstore\n        /* \"#utility.yul\":1151:1229   */\n      tag_269\n        /* \"#utility.yul\":1224:1228   */\n      dup2\n        /* \"#utility.yul\":1215:1221   */\n      dup5\n        /* \"#utility.yul\":1151:1229   */\n      tag_222\n      jump\t// in\n    tag_269:\n        /* \"#utility.yul\":1143:1229   */\n      swap1\n      pop\n        /* \"#utility.yul\":923:1236   */\n      swap3\n      swap2\n      pop\n      pop\n      jump\t// out\n        /* \"#utility.yul\":1242:1317   */\n    tag_223:\n        /* \"#utility.yul\":1275:1281   */\n      0x00\n        /* \"#utility.yul\":1308:1310   */\n      0x40\n        /* \"#utility.yul\":1302:1311   */\n      mload\n        /* \"#utility.yul\":1292:1311   */\n      swap1\n      pop\n        /* \"#utility.yul\":1242:1317   */\n      swap1\n      jump\t// out\n        /* \"#utility.yul\":1323:1440   */\n    tag_224:\n        /* \"#utility.yul\":1432:1433   */\n      0x00\n        /* \"#utility.yul\":1429:1430   */\n      dup1\n        /* \"#utility.yul\":1422:1434   */\n      revert\n        /* \"#utility.yul\":1446:1563   */\n    tag_225:\n        /* \"#utility.yul\":1555:1556   */\n      0x00\n        /* \"#utility.yul\":1552:1553   */\n      dup1\n        /* \"#utility.yul\":1545:1557   */\n      revert\n        /* \"#utility.yul\":1569:1695   */\n    tag_226:\n        /* \"#utility.yul\":1606:1613   */\n      0x00\n        /* \"#utility.yul\":1646:1688   */\n      0xffffffffffffffffffffffffffffffffffffffff\n        /* \"#utility.yul\":1639:1644   */\n      dup3\n        /* \"#utility.yul\":1635:1689   */\n      and\n        /* \"#utility.yul\":1624:1689   */\n      swap1\n      pop\n        /* \"#utility.yul\":1569:1695   */\n      swap2\n      swap1\n      pop\n      jump\t// out\n        /* \"#utility.yul\":1701:1797   */\n    tag_227:\n        /* \"#utility.yul\":1738:1745   */\n      0x00\n        /* \"#utility.yul\":1767:1791   */\n      tag_275\n        /* \"#utility.yul\":1785:1790   */\n      dup3\n        /* \"#utility.yul\":1767:1791   */\n      tag_226\n      jump\t// in\n    tag_275:\n        /* \"#utility.yul\":1756:1791   */\n      swap1\n      pop\n        /* \"#utility.yul\":1701:1797   */\n      swap2\n      swap1\n      pop\n      jump\t// out\n        /* \"#utility.yul\":1803:1925   */\n    tag_228:\n        /* \"#utility.yul\":1876:1900   */\n      tag_277\n        /* \"#utility.yul\":1894:1899   */\n      dup2\n        /* \"#utility.yul\":1876:1900   */\n      tag_227\n      jump\t// in\n    tag_277:\n        /* \"#utility.yul\":1869:1874   */\n      dup2\n        /* \"#utility.yul\":1866:1901   */\n      eq\n        /* \"#utility.yul\":1856:1919   */\n      tag_278\n      jumpi\n        /* \"#utility.yul\":1915:1916   */\n      0x00\n        /* \"#utility.yul\":1912:1913   */\n      dup1\n        /* \"#utility.yul\":1905:1917   */\n      revert\n        /* \"#utility.yul\":1856:1919   */\n    tag_278:\n        /* \"#utility.yul\":1803:1925   */\n      pop\n      jump\t// out\n        /* \"#utility.yul\":1931:2070   */\n    tag_229:\n        /* \"#utility.yul\":1977:1982   */\n      0x00\n        /* \"#utility.yul\":2015:2021   */\n      dup2\n        /* \"#utility.yul\":2002:2022   */\n      calldataload\n        /* \"#utility.yul\":1993:2022   */\n      swap1\n      pop\n        /* \"#utility.yul\":2031:2064   */\n      tag_280\n        /* \"#utility.yul\":2058:2063   */\n      dup2\n        /* \"#utility.yul\":2031:2064   */\n      tag_228\n      jump\t// in\n    tag_280:\n        /* \"#utility.yul\":1931:2070   */\n      swap3\n      swap2\n      pop\n      pop\n      jump\t// out\n        /* \"#utility.yul\":2076:2153   */\n    tag_230:\n        /* \"#utility.yul\":2113:2120   */\n      0x00\n        /* \"#utility.yul\":2142:2147   */\n      dup2\n        /* \"#utility.yul\":2131:2147   */\n      swap1\n      pop\n        /* \"#utility.yul\":2076:2153   */\n      swap2\n      swap1\n      pop\n      jump\t// out\n        /* \"#utility.yul\":2159:2281   */\n    tag_231:\n        /* \"#utility.yul\":2232:2256   */\n      tag_283\n        /* \"#utility.yul\":2250:2255   */\n      dup2\n        /* \"#utility.yul\":2232:2256   */\n      tag_230\n      jump\t// in\n    tag_283:\n        /* \"#utility.yul\":2225:2230   */\n      dup2\n        /* \"#utility.yul\":2222:2257   */\n      eq\n        /* \"#utility.yul\":2212:2275   */\n      tag_284\n      jumpi\n        /* \"#utility.yul\":2271:2272   */\n      0x00\n        /* \"#utility.yul\":2268:2269   */\n      dup1\n        /* \"#utility.yul\":2261:2273   */\n      revert\n        /* \"#utility.yul\":2212:2275   */\n    tag_284:\n        /* \"#utility.yul\":2159:2281   */\n      pop\n      jump\t// out\n        /* \"#utility.yul\":2287:2426   */\n    tag_232:\n        /* \"#utility.yul\":2333:2338   */\n      0x00\n        /* \"#utility.yul\":2371:2377   */\n      dup2\n        /* \"#utility.yul\":2358:2378   */\n      calldataload\n        /* \"#utility.yul\":2349:2378   */\n      swap1\n      pop\n        /* \"#utility.yul\":2387:2420   */\n      tag_286\n        /* \"#utility.yul\":2414:2419   */\n      dup2\n        /* \"#utility.yul\":2387:2420   */\n      tag_231\n      jump\t// in\n    tag_286:\n        /* \"#utility.yul\":2287:2426   */\n      swap3\n      swap2\n      pop\n      pop\n      jump\t// out\n        /* \"#utility.yul\":2432:2906   */\n    tag_29:\n        /* \"#utility.yul\":2500:2506   */\n      0x00\n        /* \"#utility.yul\":2508:2514   */\n      dup1\n        /* \"#utility.yul\":2557:2559   */\n      0x40\n        /* \"#utility.yul\":2545:2554   */\n      dup4\n        /* \"#utility.yul\":2536:2543   */\n      dup6\n        /* \"#utility.yul\":2532:2555   */\n      sub\n        /* \"#utility.yul\":2528:2560   */\n      slt\n        /* \"#utility.yul\":2525:2644   */\n      iszero\n      tag_288\n      jumpi\n        /* \"#utility.yul\":2563:2642   */\n      tag_289\n      tag_224\n      jump\t// in\n    tag_289:\n        /* \"#utility.yul\":2525:2644   */\n    tag_288:\n        /* \"#utility.yul\":2683:2684   */\n      0x00\n        /* \"#utility.yul\":2708:2761   */\n      tag_290\n        /* \"#utility.yul\":2753:2760   */\n      dup6\n        /* \"#utility.yul\":2744:2750   */\n      dup3\n        /* \"#utility.yul\":2733:2742   */\n      dup7\n        /* \"#utility.yul\":2729:2751   */\n      add\n        /* \"#utility.yul\":2708:2761   */\n      tag_229\n      jump\t// in\n    tag_290:\n        /* \"#utility.yul\":2698:2761   */\n      swap3\n      pop\n        /* \"#utility.yul\":2654:2771   */\n      pop\n        /* \"#utility.yul\":2810:2812   */\n      0x20\n        /* \"#utility.yul\":2836:2889   */\n      tag_291\n        /* \"#utility.yul\":2881:2888   */\n      dup6\n        /* \"#utility.yul\":2872:2878   */\n      dup3\n        /* \"#utility.yul\":2861:2870   */\n      dup7\n        /* \"#utility.yul\":2857:2879   */\n      add\n        /* \"#utility.yul\":2836:2889   */\n      tag_232\n      jump\t// in\n    tag_291:\n        /* \"#utility.yul\":2826:2889   */\n      swap2\n      pop\n        /* \"#utility.yul\":2781:2899   */\n      pop\n        /* \"#utility.yul\":2432:2906   */\n      swap3\n      pop\n      swap3\n      swap1\n      pop\n      jump\t// out\n        /* \"#utility.yul\":2912:3002   */\n    tag_233:\n        /* \"#utility.yul\":2946:2953   */\n      0x00\n        /* \"#utility.yul\":2989:2994   */\n      dup2\n        /* \"#utility.yul\":2982:2995   */\n      iszero\n        /* \"#utility.yul\":2975:2996   */\n      iszero\n        /* \"#utility.yul\":2964:2996   */\n      swap1\n      pop\n        /* \"#utility.yul\":2912:3002   */\n      swap2\n      swap1\n      pop\n      jump\t// out\n        /* \"#utility.yul\":3008:3117   */\n    tag_234:\n        /* \"#utility.yul\":3089:3110   */\n      tag_294\n        /* \"#utility.yul\":3104:3109   */\n      dup2\n        /* \"#utility.yul\":3089:3110   */\n      tag_233\n      jump\t// in\n    tag_294:\n        /* \"#utility.yul\":3084:3087   */\n      dup3\n        /* \"#utility.yul\":3077:3111   */\n      mstore\n        /* \"#utility.yul\":3008:3117   */\n      pop\n      pop\n      jump\t// out\n        /* \"#utility.yul\":3123:3333   */\n    tag_32:\n        /* \"#utility.yul\":3210:3214   */\n      0x00\n        /* \"#utility.yul\":3248:3250   */\n      0x20\n        /* \"#utility.yul\":3237:3246   */\n      dup3\n        /* \"#utility.yul\":3233:3251   */\n      add\n        /* \"#utility.yul\":3225:3251   */\n      swap1\n      pop\n        /* \"#utility.yul\":3261:3326   */\n      tag_296\n        /* \"#utility.yul\":3323:3324   */\n      0x00\n        /* \"#utility.yul\":3312:3321   */\n      dup4\n        /* \"#utility.yul\":3308:3325   */\n      add\n        /* \"#utility.yul\":3299:3305   */\n      dup5\n        /* \"#utility.yul\":3261:3326   */\n      tag_234\n      jump\t// in\n    tag_296:\n        /* \"#utility.yul\":3123:3333   */\n      swap3\n      swap2\n      pop\n      pop\n      jump\t// out\n        /* \"#utility.yul\":3339:3457   */\n    tag_235:\n        /* \"#utility.yul\":3426:3450   */\n      tag_298\n        /* \"#utility.yul\":3444:3449   */\n      dup2\n        /* \"#utility.yul\":3426:3450   */\n      tag_230\n      jump\t// in\n    tag_298:\n        /* \"#utility.yul\":3421:3424   */\n      dup3\n        /* \"#utility.yul\":3414:3451   */\n      mstore\n        /* \"#utility.yul\":3339:3457   */\n      pop\n      pop\n      jump\t// out\n        /* \"#utility.yul\":3463:3685   */\n    tag_36:\n        /* \"#utility.yul\":3556:3560   */\n      0x00\n        /* \"#utility.yul\":3594:3596   */\n      0x20\n        /* \"#utility.yul\":3583:3592   */\n      dup3\n        /* \"#utility.yul\":3579:3597   */\n      add\n        /* \"#utility.yul\":3571:3597   */\n      swap1\n      pop\n        /* \"#utility.yul\":3607:3678   */\n      tag_300\n        /* \"#utility.yul\":3675:3676   */\n      0x00\n        /* \"#utility.yul\":3664:3673   */\n      dup4\n        /* \"#utility.yul\":3660:3677   */\n      add\n        /* \"#utility.yul\":3651:3657   */\n      dup5\n        /* \"#utility.yul\":3607:3678   */\n      tag_235\n      jump\t// in\n    tag_300:\n        /* \"#utility.yul\":3463:3685   */\n      swap3\n      swap2\n      pop\n      pop\n      jump\t// out\n        /* \"#utility.yul\":3691:4310   */\n    tag_39:\n        /* \"#utility.yul\":3768:3774   */\n      0x00\n        /* \"#utility.yul\":3776:3782   */\n      dup1\n        /* \"#utility.yul\":3784:3790   */\n      0x00\n        /* \"#utility.yul\":3833:3835   */\n      0x60\n        /* \"#utility.yul\":3821:3830   */\n      dup5\n        /* \"#utility.yul\":3812:3819   */\n      dup7\n        /* \"#utility.yul\":3808:3831   */\n      sub\n        /* \"#utility.yul\":3804:3836   */\n      slt\n        /* \"#utility.yul\":3801:3920   */\n      iszero\n      tag_302\n      jumpi\n        /* \"#utility.yul\":3839:3918   */\n      tag_303\n      tag_224\n      jump\t// in\n    tag_303:\n        /* \"#utility.yul\":3801:3920   */\n    tag_302:\n        /* \"#utility.yul\":3959:3960   */\n      0x00\n        /* \"#utility.yul\":3984:4037   */\n      tag_304\n        /* \"#utility.yul\":4029:4036   */\n      dup7\n        /* \"#utility.yul\":4020:4026   */\n      dup3\n        /* \"#utility.yul\":4009:4018   */\n      dup8\n        /* \"#utility.yul\":4005:4027   */\n      add\n        /* \"#utility.yul\":3984:4037   */\n      tag_229\n      jump\t// in\n    tag_304:\n        /* \"#utility.yul\":3974:4037   */\n      swap4\n      pop\n        /* \"#utility.yul\":3930:4047   */\n      pop\n        /* \"#utility.yul\":4086:4088   */\n      0x20\n        /* \"#utility.yul\":4112:4165   */\n      tag_305\n        /* \"#utility.yul\":4157:4164   */\n      dup7\n        /* \"#utility.yul\":4148:4154   */\n      dup3\n        /* \"#utility.yul\":4137:4146   */\n      dup8\n        /* \"#utility.yul\":4133:4155   */\n      add\n        /* \"#utility.yul\":4112:4165   */\n      tag_229\n      jump\t// in\n    tag_305:\n        /* \"#utility.yul\":4102:4165   */\n      swap3\n      pop\n        /* \"#utility.yul\":4057:4175   */\n      pop\n        /* \"#utility.yul\":4214:4216   */\n      0x40\n        /* \"#utility.yul\":4240:4293   */\n      tag_306\n        /* \"#utility.yul\":4285:4292   */\n      dup7\n        /* \"#utility.yul\":4276:4282   */\n      dup3\n        /* \"#utility.yul\":4265:4274   */\n      dup8\n        /* \"#utility.yul\":4261:4283   */\n      add\n        /* \"#utility.yul\":4240:4293   */\n      tag_232\n      jump\t// in\n    tag_306:\n        /* \"#utility.yul\":4230:4293   */\n      swap2\n      pop\n        /* \"#utility.yul\":4185:4303   */\n      pop\n        /* \"#utility.yul\":3691:4310   */\n      swap3\n      pop\n      swap3\n      pop\n      swap3\n      jump\t// out\n        /* \"#utility.yul\":4316:4402   */\n    tag_236:\n        /* \"#utility.yul\":4351:4358   */\n      0x00\n        /* \"#utility.yul\":4391:4395   */\n      0xff\n        /* \"#utility.yul\":4384:4389   */\n      dup3\n        /* \"#utility.yul\":4380:4396   */\n      and\n        /* \"#utility.yul\":4369:4396   */\n      swap1\n      pop\n        /* \"#utility.yul\":4316:4402   */\n      swap2\n      swap1\n      pop\n      jump\t// out\n        /* \"#utility.yul\":4408:4520   */\n    tag_237:\n        /* \"#utility.yul\":4491:4513   */\n      tag_309\n        /* \"#utility.yul\":4507:4512   */\n      dup2\n        /* \"#utility.yul\":4491:4513   */\n      tag_236\n      jump\t// in\n    tag_309:\n        /* \"#utility.yul\":4486:4489   */\n      dup3\n        /* \"#utility.yul\":4479:4514   */\n      mstore\n        /* \"#utility.yul\":4408:4520   */\n      pop\n      pop\n      jump\t// out\n        /* \"#utility.yul\":4526:4740   */\n    tag_45:\n        /* \"#utility.yul\":4615:4619   */\n      0x00\n        /* \"#utility.yul\":4653:4655   */\n      0x20\n        /* \"#utility.yul\":4642:4651   */\n      dup3\n        /* \"#utility.yul\":4638:4656   */\n      add\n        /* \"#utility.yul\":4630:4656   */\n      swap1\n      pop\n        /* \"#utility.yul\":4666:4733   */\n      tag_311\n        /* \"#utility.yul\":4730:4731   */\n      0x00\n        /* \"#utility.yul\":4719:4728   */\n      dup4\n        /* \"#utility.yul\":4715:4732   */\n      add\n        /* \"#utility.yul\":4706:4712   */\n      dup5\n        /* \"#utility.yul\":4666:4733   */\n      tag_237\n      jump\t// in\n    tag_311:\n        /* \"#utility.yul\":4526:4740   */\n      swap3\n      swap2\n      pop\n      pop\n      jump\t// out\n        /* \"#utility.yul\":4746:5075   */\n    tag_51:\n        /* \"#utility.yul\":4805:4811   */\n      0x00\n        /* \"#utility.yul\":4854:4856   */\n      0x20\n        /* \"#utility.yul\":4842:4851   */\n      dup3\n        /* \"#utility.yul\":4833:4840   */\n      dup5\n        /* \"#utility.yul\":4829:4852   */\n      sub\n        /* \"#utility.yul\":4825:4857   */\n      slt\n        /* \"#utility.yul\":4822:4941   */\n      iszero\n      tag_313\n      jumpi\n        /* \"#utility.yul\":4860:4939   */\n      tag_314\n      tag_224\n      jump\t// in\n    tag_314:\n        /* \"#utility.yul\":4822:4941   */\n    tag_313:\n        /* \"#utility.yul\":4980:4981   */\n      0x00\n        /* \"#utility.yul\":5005:5058   */\n      tag_315\n        /* \"#utility.yul\":5050:5057   */\n      dup5\n        /* \"#utility.yul\":5041:5047   */\n      dup3\n        /* \"#utility.yul\":5030:5039   */\n      dup6\n        /* \"#utility.yul\":5026:5048   */\n      add\n        /* \"#utility.yul\":5005:5058   */\n      tag_232\n      jump\t// in\n    tag_315:\n        /* \"#utility.yul\":4995:5058   */\n      swap2\n      pop\n        /* \"#utility.yul\":4951:5068   */\n      pop\n        /* \"#utility.yul\":4746:5075   */\n      swap3\n      swap2\n      pop\n      pop\n      jump\t// out\n        /* \"#utility.yul\":5081:5410   */\n    tag_57:\n        /* \"#utility.yul\":5140:5146   */\n      0x00\n        /* \"#utility.yul\":5189:5191   */\n      0x20\n        /* \"#utility.yul\":5177:5186   */\n      dup3\n        /* \"#utility.yul\":5168:5175   */\n      dup5\n        /* \"#utility.yul\":5164:5187   */\n      sub\n        /* \"#utility.yul\":5160:5192   */\n      slt\n        /* \"#utility.yul\":5157:5276   */\n      iszero\n      tag_317\n      jumpi\n        /* \"#utility.yul\":5195:5274   */\n      tag_318\n      tag_224\n      jump\t// in\n    tag_318:\n        /* \"#utility.yul\":5157:5276   */\n    tag_317:\n        /* \"#utility.yul\":5315:5316   */\n      0x00\n        /* \"#utility.yul\":5340:5393   */\n      tag_319\n        /* \"#utility.yul\":5385:5392   */\n      dup5\n        /* \"#utility.yul\":5376:5382   */\n      dup3\n        /* \"#utility.yul\":5365:5374   */\n      dup6\n        /* \"#utility.yul\":5361:5383   */\n      add\n        /* \"#utility.yul\":5340:5393   */\n      tag_229\n      jump\t// in\n    tag_319:\n        /* \"#utility.yul\":5330:5393   */\n      swap2\n      pop\n        /* \"#utility.yul\":5286:5403   */\n      pop\n        /* \"#utility.yul\":5081:5410   */\n      swap3\n      swap2\n      pop\n      pop\n      jump\t// out\n        /* \"#utility.yul\":5416:5534   */\n    tag_238:\n        /* \"#utility.yul\":5503:5527   */\n      tag_321\n        /* \"#utility.yul\":5521:5526   */\n      dup2\n        /* \"#utility.yul\":5503:5527   */\n      tag_227\n      jump\t// in\n    tag_321:\n        /* \"#utility.yul\":5498:5501   */\n      dup3\n        /* \"#utility.yul\":5491:5528   */\n      mstore\n        /* \"#utility.yul\":5416:5534   */\n      pop\n      pop\n      jump\t// out\n        /* \"#utility.yul\":5540:5762   */\n    tag_68:\n        /* \"#utility.yul\":5633:5637   */\n      0x00\n        /* \"#utility.yul\":5671:5673   */\n      0x20\n        /* \"#utility.yul\":5660:5669   */\n      dup3\n        /* \"#utility.yul\":5656:5674   */\n      add\n        /* \"#utility.yul\":5648:5674   */\n      swap1\n      pop\n        /* \"#utility.yul\":5684:5755   */\n      tag_323\n        /* \"#utility.yul\":5752:5753   */\n      0x00\n        /* \"#utility.yul\":5741:5750   */\n      dup4\n        /* \"#utility.yul\":5737:5754   */\n      add\n        /* \"#utility.yul\":5728:5734   */\n      dup5\n        /* \"#utility.yul\":5684:5755   */\n      tag_238\n      jump\t// in\n    tag_323:\n        /* \"#utility.yul\":5540:5762   */\n      swap3\n      swap2\n      pop\n      pop\n      jump\t// out\n        /* \"#utility.yul\":5768:5885   */\n    tag_239:\n        /* \"#utility.yul\":5877:5878   */\n      0x00\n        /* \"#utility.yul\":5874:5875   */\n      dup1\n        /* \"#utility.yul\":5867:5879   */\n      revert\n        /* \"#utility.yul\":5891:6008   */\n    tag_240:\n        /* \"#utility.yul\":6000:6001   */\n      0x00\n        /* \"#utility.yul\":5997:5998   */\n      dup1\n        /* \"#utility.yul\":5990:6002   */\n      revert\n        /* \"#utility.yul\":6014:6194   */\n    tag_241:\n        /* \"#utility.yul\":6062:6139   */\n      0x4e487b7100000000000000000000000000000000000000000000000000000000\n        /* \"#utility.yul\":6059:6060   */\n      0x00\n        /* \"#utility.yul\":6052:6140   */\n      mstore\n        /* \"#utility.yul\":6159:6163   */\n      0x41\n        /* \"#utility.yul\":6156:6157   */\n      0x04\n        /* \"#utility.yul\":6149:6164   */\n      mstore\n        /* \"#utility.yul\":6183:6187   */\n      0x24\n        /* \"#utility.yul\":6180:6181   */\n      0x00\n        /* \"#utility.yul\":6173:6188   */\n      revert\n        /* \"#utility.yul\":6200:6481   */\n    tag_242:\n        /* \"#utility.yul\":6283:6310   */\n      tag_328\n        /* \"#utility.yul\":6305:6309   */\n      dup3\n        /* \"#utility.yul\":6283:6310   */\n      tag_221\n      jump\t// in\n    tag_328:\n        /* \"#utility.yul\":6275:6281   */\n      dup2\n        /* \"#utility.yul\":6271:6311   */\n      add\n        /* \"#utility.yul\":6413:6419   */\n      dup2\n        /* \"#utility.yul\":6401:6411   */\n      dup2\n        /* \"#utility.yul\":6398:6420   */\n      lt\n        /* \"#utility.yul\":6377:6395   */\n      0xffffffffffffffff\n        /* \"#utility.yul\":6365:6375   */\n      dup3\n        /* \"#utility.yul\":6362:6396   */\n      gt\n        /* \"#utility.yul\":6359:6421   */\n      or\n        /* \"#utility.yul\":6356:6444   */\n      iszero\n      tag_329\n      jumpi\n        /* \"#utility.yul\":6424:6442   */\n      tag_330\n      tag_241\n      jump\t// in\n    tag_330:\n        /* \"#utility.yul\":6356:6444   */\n    tag_329:\n        /* \"#utility.yul\":6464:6474   */\n      dup1\n        /* \"#utility.yul\":6460:6462   */\n      0x40\n        /* \"#utility.yul\":6453:6475   */\n      mstore\n        /* \"#utility.yul\":6243:6481   */\n      pop\n        /* \"#utility.yul\":6200:6481   */\n      pop\n      pop\n      jump\t// out\n        /* \"#utility.yul\":6487:6616   */\n    tag_243:\n        /* \"#utility.yul\":6521:6527   */\n      0x00\n        /* \"#utility.yul\":6548:6568   */\n      tag_332\n      tag_223\n      jump\t// in\n    tag_332:\n        /* \"#utility.yul\":6538:6568   */\n      swap1\n      pop\n        /* \"#utility.yul\":6577:6610   */\n      tag_333\n        /* \"#utility.yul\":6605:6609   */\n      dup3\n        /* \"#utility.yul\":6597:6603   */\n      dup3\n        /* \"#utility.yul\":6577:6610   */\n      tag_242\n      jump\t// in\n    tag_333:\n        /* \"#utility.yul\":6487:6616   */\n      swap2\n      swap1\n      pop\n      jump\t// out\n        /* \"#utility.yul\":6622:6930   */\n    tag_244:\n        /* \"#utility.yul\":6684:6688   */\n      0x00\n        /* \"#utility.yul\":6774:6792   */\n      0xffffffffffffffff\n        /* \"#utility.yul\":6766:6772   */\n      dup3\n        /* \"#utility.yul\":6763:6793   */\n      gt\n        /* \"#utility.yul\":6760:6816   */\n      iszero\n      tag_335\n      jumpi\n        /* \"#utility.yul\":6796:6814   */\n      tag_336\n      tag_241\n      jump\t// in\n    tag_336:\n        /* \"#utility.yul\":6760:6816   */\n    tag_335:\n        /* \"#utility.yul\":6834:6863   */\n      tag_337\n        /* \"#utility.yul\":6856:6862   */\n      dup3\n        /* \"#utility.yul\":6834:6863   */\n      tag_221\n      jump\t// in\n    tag_337:\n        /* \"#utility.yul\":6826:6863   */\n      swap1\n      pop\n        /* \"#utility.yul\":6918:6922   */\n      0x20\n        /* \"#utility.yul\":6912:6916   */\n      dup2\n        /* \"#utility.yul\":6908:6923   */\n      add\n        /* \"#utility.yul\":6900:6923   */\n      swap1\n      pop\n        /* \"#utility.yul\":6622:6930   */\n      swap2\n      swap1\n      pop\n      jump\t// out\n        /* \"#utility.yul\":6936:7084   */\n    tag_245:\n        /* \"#utility.yul\":7034:7040   */\n      dup3\n        /* \"#utility.yul\":7029:7032   */\n      dup2\n        /* \"#utility.yul\":7024:7027   */\n      dup4\n        /* \"#utility.yul\":7011:7041   */\n      calldatacopy\n        /* \"#utility.yul\":7075:7076   */\n      0x00\n        /* \"#utility.yul\":7066:7072   */\n      dup4\n        /* \"#utility.yul\":7061:7064   */\n      dup4\n        /* \"#utility.yul\":7057:7073   */\n      add\n        /* \"#utility.yul\":7050:7077   */\n      mstore\n        /* \"#utility.yul\":6936:7084   */\n      pop\n      pop\n      pop\n      jump\t// out\n        /* \"#utility.yul\":7090:7515   */\n    tag_246:\n        /* \"#utility.yul\":7168:7173   */\n      0x00\n        /* \"#utility.yul\":7193:7259   */\n      tag_340\n        /* \"#utility.yul\":7209:7258   */\n      tag_341\n        /* \"#utility.yul\":7251:7257   */\n      dup5\n        /* \"#utility.yul\":7209:7258   */\n      tag_244\n      jump\t// in\n    tag_341:\n        /* \"#utility.yul\":7193:7259   */\n      tag_243\n      jump\t// in\n    tag_340:\n        /* \"#utility.yul\":7184:7259   */\n      swap1\n      pop\n        /* \"#utility.yul\":7282:7288   */\n      dup3\n        /* \"#utility.yul\":7275:7280   */\n      dup2\n        /* \"#utility.yul\":7268:7289   */\n      mstore\n        /* \"#utility.yul\":7320:7324   */\n      0x20\n        /* \"#utility.yul\":7313:7318   */\n      dup2\n        /* \"#utility.yul\":7309:7325   */\n      add\n        /* \"#utility.yul\":7358:7361   */\n      dup5\n        /* \"#utility.yul\":7349:7355   */\n      dup5\n        /* \"#utility.yul\":7344:7347   */\n      dup5\n        /* \"#utility.yul\":7340:7356   */\n      add\n        /* \"#utility.yul\":7337:7362   */\n      gt\n        /* \"#utility.yul\":7334:7446   */\n      iszero\n      tag_342\n      jumpi\n        /* \"#utility.yul\":7365:7444   */\n      tag_343\n      tag_240\n      jump\t// in\n    tag_343:\n        /* \"#utility.yul\":7334:7446   */\n    tag_342:\n        /* \"#utility.yul\":7455:7509   */\n      tag_344\n        /* \"#utility.yul\":7502:7508   */\n      dup5\n        /* \"#utility.yul\":7497:7500   */\n      dup3\n        /* \"#utility.yul\":7492:7495   */\n      dup6\n        /* \"#utility.yul\":7455:7509   */\n      tag_245\n      jump\t// in\n    tag_344:\n        /* \"#utility.yul\":7174:7515   */\n      pop\n        /* \"#utility.yul\":7090:7515   */\n      swap4\n      swap3\n      pop\n      pop\n      pop\n      jump\t// out\n        /* \"#utility.yul\":7535:7875   */\n    tag_247:\n        /* \"#utility.yul\":7591:7596   */\n      0x00\n        /* \"#utility.yul\":7640:7643   */\n      dup3\n        /* \"#utility.yul\":7633:7637   */\n      0x1f\n        /* \"#utility.yul\":7625:7631   */\n      dup4\n        /* \"#utility.yul\":7621:7638   */\n      add\n        /* \"#utility.yul\":7617:7644   */\n      slt\n        /* \"#utility.yul\":7607:7729   */\n      tag_346\n      jumpi\n        /* \"#utility.yul\":7648:7727   */\n      tag_347\n      tag_239\n      jump\t// in\n    tag_347:\n        /* \"#utility.yul\":7607:7729   */\n    tag_346:\n        /* \"#utility.yul\":7765:7771   */\n      dup2\n        /* \"#utility.yul\":7752:7772   */\n      calldataload\n        /* \"#utility.yul\":7790:7869   */\n      tag_348\n        /* \"#utility.yul\":7865:7868   */\n      dup5\n        /* \"#utility.yul\":7857:7863   */\n      dup3\n        /* \"#utility.yul\":7850:7854   */\n      0x20\n        /* \"#utility.yul\":7842:7848   */\n      dup7\n        /* \"#utility.yul\":7838:7855   */\n      add\n        /* \"#utility.yul\":7790:7869   */\n      tag_246\n      jump\t// in\n    tag_348:\n        /* \"#utility.yul\":7781:7869   */\n      swap2\n      pop\n        /* \"#utility.yul\":7597:7875   */\n      pop\n        /* \"#utility.yul\":7535:7875   */\n      swap3\n      swap2\n      pop\n      pop\n      jump\t// out\n        /* \"#utility.yul\":7881:8202   */\n    tag_248:\n        /* \"#utility.yul\":7968:7972   */\n      0x00\n        /* \"#utility.yul\":8058:8076   */\n      0xffffffffffffffff\n        /* \"#utility.yul\":8050:8056   */\n      dup3\n        /* \"#utility.yul\":8047:8077   */\n      gt\n        /* \"#utility.yul\":8044:8100   */\n      iszero\n      tag_350\n      jumpi\n        /* \"#utility.yul\":8080:8098   */\n      tag_351\n      tag_241\n      jump\t// in\n    tag_351:\n        /* \"#utility.yul\":8044:8100   */\n    tag_350:\n        /* \"#utility.yul\":8130:8134   */\n      0x20\n        /* \"#utility.yul\":8122:8128   */\n      dup3\n        /* \"#utility.yul\":8118:8135   */\n      mul\n        /* \"#utility.yul\":8110:8135   */\n      swap1\n      pop\n        /* \"#utility.yul\":8190:8194   */\n      0x20\n        /* \"#utility.yul\":8184:8188   */\n      dup2\n        /* \"#utility.yul\":8180:8195   */\n      add\n        /* \"#utility.yul\":8172:8195   */\n      swap1\n      pop\n        /* \"#utility.yul\":7881:8202   */\n      swap2\n      swap1\n      pop\n      jump\t// out\n        /* \"#utility.yul\":8208:8325   */\n    tag_249:\n        /* \"#utility.yul\":8317:8318   */\n      0x00\n        /* \"#utility.yul\":8314:8315   */\n      dup1\n        /* \"#utility.yul\":8307:8319   */\n      revert\n        /* \"#utility.yul\":8347:9292   */\n    tag_250:\n        /* \"#utility.yul\":8453:8458   */\n      0x00\n        /* \"#utility.yul\":8478:8569   */\n      tag_354\n        /* \"#utility.yul\":8494:8568   */\n      tag_355\n        /* \"#utility.yul\":8561:8567   */\n      dup5\n        /* \"#utility.yul\":8494:8568   */\n      tag_248\n      jump\t// in\n    tag_355:\n        /* \"#utility.yul\":8478:8569   */\n      tag_243\n      jump\t// in\n    tag_354:\n        /* \"#utility.yul\":8469:8569   */\n      swap1\n      pop\n        /* \"#utility.yul\":8589:8594   */\n      dup1\n        /* \"#utility.yul\":8618:8624   */\n      dup4\n        /* \"#utility.yul\":8611:8616   */\n      dup3\n        /* \"#utility.yul\":8604:8625   */\n      mstore\n        /* \"#utility.yul\":8652:8656   */\n      0x20\n        /* \"#utility.yul\":8645:8650   */\n      dup3\n        /* \"#utility.yul\":8641:8657   */\n      add\n        /* \"#utility.yul\":8634:8657   */\n      swap1\n      pop\n        /* \"#utility.yul\":8705:8709   */\n      0x20\n        /* \"#utility.yul\":8697:8703   */\n      dup5\n        /* \"#utility.yul\":8693:8710   */\n      mul\n        /* \"#utility.yul\":8685:8691   */\n      dup4\n        /* \"#utility.yul\":8681:8711   */\n      add\n        /* \"#utility.yul\":8734:8737   */\n      dup6\n        /* \"#utility.yul\":8726:8732   */\n      dup2\n        /* \"#utility.yul\":8723:8738   */\n      gt\n        /* \"#utility.yul\":8720:8842   */\n      iszero\n      tag_356\n      jumpi\n        /* \"#utility.yul\":8753:8832   */\n      tag_357\n      tag_249\n      jump\t// in\n    tag_357:\n        /* \"#utility.yul\":8720:8842   */\n    tag_356:\n        /* \"#utility.yul\":8868:8874   */\n      dup4\n        /* \"#utility.yul\":8851:9286   */\n    tag_358:\n        /* \"#utility.yul\":8885:8891   */\n      dup2\n        /* \"#utility.yul\":8880:8883   */\n      dup2\n        /* \"#utility.yul\":8877:8892   */\n      lt\n        /* \"#utility.yul\":8851:9286   */\n      iszero\n      tag_360\n      jumpi\n        /* \"#utility.yul\":8974:8977   */\n      dup1\n        /* \"#utility.yul\":8961:8978   */\n      calldataload\n        /* \"#utility.yul\":9010:9028   */\n      0xffffffffffffffff\n        /* \"#utility.yul\":8997:9008   */\n      dup2\n        /* \"#utility.yul\":8994:9029   */\n      gt\n        /* \"#utility.yul\":8991:9113   */\n      iszero\n      tag_361\n      jumpi\n        /* \"#utility.yul\":9032:9111   */\n      tag_362\n      tag_239\n      jump\t// in\n    tag_362:\n        /* \"#utility.yul\":8991:9113   */\n    tag_361:\n        /* \"#utility.yul\":9156:9167   */\n      dup1\n        /* \"#utility.yul\":9148:9154   */\n      dup7\n        /* \"#utility.yul\":9144:9168   */\n      add\n        /* \"#utility.yul\":9194:9241   */\n      tag_363\n        /* \"#utility.yul\":9237:9240   */\n      dup10\n        /* \"#utility.yul\":9225:9235   */\n      dup3\n        /* \"#utility.yul\":9194:9241   */\n      tag_247\n      jump\t// in\n    tag_363:\n        /* \"#utility.yul\":9189:9192   */\n      dup6\n        /* \"#utility.yul\":9182:9242   */\n      mstore\n        /* \"#utility.yul\":9271:9275   */\n      0x20\n        /* \"#utility.yul\":9266:9269   */\n      dup6\n        /* \"#utility.yul\":9262:9276   */\n      add\n        /* \"#utility.yul\":9255:9276   */\n      swap5\n      pop\n        /* \"#utility.yul\":8927:9286   */\n      pop\n      pop\n        /* \"#utility.yul\":8911:8915   */\n      0x20\n        /* \"#utility.yul\":8906:8909   */\n      dup2\n        /* \"#utility.yul\":8902:8916   */\n      add\n        /* \"#utility.yul\":8895:8916   */\n      swap1\n      pop\n        /* \"#utility.yul\":8851:9286   */\n      jump(tag_358)\n    tag_360:\n        /* \"#utility.yul\":8855:8876   */\n      pop\n        /* \"#utility.yul\":8459:9292   */\n      pop\n      pop\n        /* \"#utility.yul\":8347:9292   */\n      swap4\n      swap3\n      pop\n      pop\n      pop\n      jump\t// out\n        /* \"#utility.yul\":9314:9704   */\n    tag_251:\n        /* \"#utility.yul\":9395:9400   */\n      0x00\n        /* \"#utility.yul\":9444:9447   */\n      dup3\n        /* \"#utility.yul\":9437:9441   */\n      0x1f\n        /* \"#utility.yul\":9429:9435   */\n      dup4\n        /* \"#utility.yul\":9425:9442   */\n      add\n        /* \"#utility.yul\":9421:9448   */\n      slt\n        /* \"#utility.yul\":9411:9533   */\n      tag_365\n      jumpi\n        /* \"#utility.yul\":9452:9531   */\n      tag_366\n      tag_239\n      jump\t// in\n    tag_366:\n        /* \"#utility.yul\":9411:9533   */\n    tag_365:\n        /* \"#utility.yul\":9569:9575   */\n      dup2\n        /* \"#utility.yul\":9556:9576   */\n      calldataload\n        /* \"#utility.yul\":9594:9698   */\n      tag_367\n        /* \"#utility.yul\":9694:9697   */\n      dup5\n        /* \"#utility.yul\":9686:9692   */\n      dup3\n        /* \"#utility.yul\":9679:9683   */\n      0x20\n        /* \"#utility.yul\":9671:9677   */\n      dup7\n        /* \"#utility.yul\":9667:9684   */\n      add\n        /* \"#utility.yul\":9594:9698   */\n      tag_250\n      jump\t// in\n    tag_367:\n        /* \"#utility.yul\":9585:9698   */\n      swap2\n      pop\n        /* \"#utility.yul\":9401:9704   */\n      pop\n        /* \"#utility.yul\":9314:9704   */\n      swap3\n      swap2\n      pop\n      pop\n      jump\t// out\n        /* \"#utility.yul\":9710:10594   */\n    tag_74:\n        /* \"#utility.yul\":9823:9829   */\n      0x00\n        /* \"#utility.yul\":9831:9837   */\n      dup1\n        /* \"#utility.yul\":9880:9882   */\n      0x40\n        /* \"#utility.yul\":9868:9877   */\n      dup4\n        /* \"#utility.yul\":9859:9866   */\n      dup6\n        /* \"#utility.yul\":9855:9878   */\n      sub\n        /* \"#utility.yul\":9851:9883   */\n      slt\n        /* \"#utility.yul\":9848:9967   */\n      iszero\n      tag_369\n      jumpi\n        /* \"#utility.yul\":9886:9965   */\n      tag_370\n      tag_224\n      jump\t// in\n    tag_370:\n        /* \"#utility.yul\":9848:9967   */\n    tag_369:\n        /* \"#utility.yul\":10034:10035   */\n      0x00\n        /* \"#utility.yul\":10023:10032   */\n      dup4\n        /* \"#utility.yul\":10019:10036   */\n      add\n        /* \"#utility.yul\":10006:10037   */\n      calldataload\n        /* \"#utility.yul\":10064:10082   */\n      0xffffffffffffffff\n        /* \"#utility.yul\":10056:10062   */\n      dup2\n        /* \"#utility.yul\":10053:10083   */\n      gt\n        /* \"#utility.yul\":10050:10167   */\n      iszero\n      tag_371\n      jumpi\n        /* \"#utility.yul\":10086:10165   */\n      tag_372\n      tag_225\n      jump\t// in\n    tag_372:\n        /* \"#utility.yul\":10050:10167   */\n    tag_371:\n        /* \"#utility.yul\":10191:10254   */\n      tag_373\n        /* \"#utility.yul\":10246:10253   */\n      dup6\n        /* \"#utility.yul\":10237:10243   */\n      dup3\n        /* \"#utility.yul\":10226:10235   */\n      dup7\n        /* \"#utility.yul\":10222:10244   */\n      add\n        /* \"#utility.yul\":10191:10254   */\n      tag_247\n      jump\t// in\n    tag_373:\n        /* \"#utility.yul\":10181:10254   */\n      swap3\n      pop\n        /* \"#utility.yul\":9977:10264   */\n      pop\n        /* \"#utility.yul\":10331:10333   */\n      0x20\n        /* \"#utility.yul\":10320:10329   */\n      dup4\n        /* \"#utility.yul\":10316:10334   */\n      add\n        /* \"#utility.yul\":10303:10335   */\n      calldataload\n        /* \"#utility.yul\":10362:10380   */\n      0xffffffffffffffff\n        /* \"#utility.yul\":10354:10360   */\n      dup2\n        /* \"#utility.yul\":10351:10381   */\n      gt\n        /* \"#utility.yul\":10348:10465   */\n      iszero\n      tag_374\n      jumpi\n        /* \"#utility.yul\":10384:10463   */\n      tag_375\n      tag_225\n      jump\t// in\n    tag_375:\n        /* \"#utility.yul\":10348:10465   */\n    tag_374:\n        /* \"#utility.yul\":10489:10577   */\n      tag_376\n        /* \"#utility.yul\":10569:10576   */\n      dup6\n        /* \"#utility.yul\":10560:10566   */\n      dup3\n        /* \"#utility.yul\":10549:10558   */\n      dup7\n        /* \"#utility.yul\":10545:10567   */\n      add\n        /* \"#utility.yul\":10489:10577   */\n      tag_251\n      jump\t// in\n    tag_376:\n        /* \"#utility.yul\":10479:10577   */\n      swap2\n      pop\n        /* \"#utility.yul\":10274:10587   */\n      pop\n        /* \"#utility.yul\":9710:10594   */\n      swap3\n      pop\n      swap3\n      swap1\n      pop\n      jump\t// out\n        /* \"#utility.yul\":10600:11074   */\n    tag_82:\n        /* \"#utility.yul\":10668:10674   */\n      0x00\n        /* \"#utility.yul\":10676:10682   */\n      dup1\n        /* \"#utility.yul\":10725:10727   */\n      0x40\n        /* \"#utility.yul\":10713:10722   */\n      dup4\n        /* \"#utility.yul\":10704:10711   */\n      dup6\n        /* \"#utility.yul\":10700:10723   */\n      sub\n        /* \"#utility.yul\":10696:10728   */\n      slt\n        /* \"#utility.yul\":10693:10812   */\n      iszero\n      tag_378\n      jumpi\n        /* \"#utility.yul\":10731:10810   */\n      tag_379\n      tag_224\n      jump\t// in\n    tag_379:\n        /* \"#utility.yul\":10693:10812   */\n    tag_378:\n        /* \"#utility.yul\":10851:10852   */\n      0x00\n        /* \"#utility.yul\":10876:10929   */\n      tag_380\n        /* \"#utility.yul\":10921:10928   */\n      dup6\n        /* \"#utility.yul\":10912:10918   */\n      dup3\n        /* \"#utility.yul\":10901:10910   */\n      dup7\n        /* \"#utility.yul\":10897:10919   */\n      add\n        /* \"#utility.yul\":10876:10929   */\n      tag_229\n      jump\t// in\n    tag_380:\n        /* \"#utility.yul\":10866:10929   */\n      swap3\n      pop\n        /* \"#utility.yul\":10822:10939   */\n      pop\n        /* \"#utility.yul\":10978:10980   */\n      0x20\n        /* \"#utility.yul\":11004:11057   */\n      tag_381\n        /* \"#utility.yul\":11049:11056   */\n      dup6\n        /* \"#utility.yul\":11040:11046   */\n      dup3\n        /* \"#utility.yul\":11029:11038   */\n      dup7\n        /* \"#utility.yul\":11025:11047   */\n      add\n        /* \"#utility.yul\":11004:11057   */\n      tag_229\n      jump\t// in\n    tag_381:\n        /* \"#utility.yul\":10994:11057   */\n      swap2\n      pop\n        /* \"#utility.yul\":10949:11067   */\n      pop\n        /* \"#utility.yul\":10600:11074   */\n      swap3\n      pop\n      swap3\n      swap1\n      pop\n      jump\t// out\n        /* \"#utility.yul\":11080:11260   */\n    tag_252:\n        /* \"#utility.yul\":11128:11205   */\n      0x4e487b7100000000000000000000000000000000000000000000000000000000\n        /* \"#utility.yul\":11125:11126   */\n      0x00\n        /* \"#utility.yul\":11118:11206   */\n      mstore\n        /* \"#utility.yul\":11225:11229   */\n      0x22\n        /* \"#utility.yul\":11222:11223   */\n      0x04\n        /* \"#utility.yul\":11215:11230   */\n      mstore\n        /* \"#utility.yul\":11249:11253   */\n      0x24\n        /* \"#utility.yul\":11246:11247   */\n      0x00\n        /* \"#utility.yul\":11239:11254   */\n      revert\n        /* \"#utility.yul\":11266:11586   */\n    tag_90:\n        /* \"#utility.yul\":11310:11316   */\n      0x00\n        /* \"#utility.yul\":11347:11348   */\n      0x02\n        /* \"#utility.yul\":11341:11345   */\n      dup3\n        /* \"#utility.yul\":11337:11349   */\n      div\n        /* \"#utility.yul\":11327:11349   */\n      swap1\n      pop\n        /* \"#utility.yul\":11394:11395   */\n      0x01\n        /* \"#utility.yul\":11388:11392   */\n      dup3\n        /* \"#utility.yul\":11384:11396   */\n      and\n        /* \"#utility.yul\":11415:11433   */\n      dup1\n        /* \"#utility.yul\":11405:11486   */\n      tag_384\n      jumpi\n        /* \"#utility.yul\":11471:11475   */\n      0x7f\n        /* \"#utility.yul\":11463:11469   */\n      dup3\n        /* \"#utility.yul\":11459:11476   */\n      and\n        /* \"#utility.yul\":11449:11476   */\n      swap2\n      pop\n        /* \"#utility.yul\":11405:11486   */\n    tag_384:\n        /* \"#utility.yul\":11533:11535   */\n      0x20\n        /* \"#utility.yul\":11525:11531   */\n      dup3\n        /* \"#utility.yul\":11522:11536   */\n      lt\n        /* \"#utility.yul\":11502:11520   */\n      dup2\n        /* \"#utility.yul\":11499:11537   */\n      sub\n        /* \"#utility.yul\":11496:11580   */\n      tag_385\n      jumpi\n        /* \"#utility.yul\":11552:11570   */\n      tag_386\n      tag_252\n      jump\t// in\n    tag_386:\n        /* \"#utility.yul\":11496:11580   */\n    tag_385:\n        /* \"#utility.yul\":11317:11586   */\n      pop\n        /* \"#utility.yul\":11266:11586   */\n      swap2\n      swap1\n      pop\n      jump\t// out\n        /* \"#utility.yul\":11592:11760   */\n    tag_253:\n        /* \"#utility.yul\":11732:11752   */\n      0x6372756d6220616c656164792062616b65640000000000000000000000000000\n        /* \"#utility.yul\":11728:11729   */\n      0x00\n        /* \"#utility.yul\":11720:11726   */\n      dup3\n        /* \"#utility.yul\":11716:11730   */\n      add\n        /* \"#utility.yul\":11709:11753   */\n      mstore\n        /* \"#utility.yul\":11592:11760   */\n      pop\n      jump\t// out\n        /* \"#utility.yul\":11766:12132   */\n    tag_254:\n        /* \"#utility.yul\":11908:11911   */\n      0x00\n        /* \"#utility.yul\":11929:11996   */\n      tag_389\n        /* \"#utility.yul\":11993:11995   */\n      0x12\n        /* \"#utility.yul\":11988:11991   */\n      dup4\n        /* \"#utility.yul\":11929:11996   */\n      tag_219\n      jump\t// in\n    tag_389:\n        /* \"#utility.yul\":11922:11996   */\n      swap2\n      pop\n        /* \"#utility.yul\":12005:12098   */\n      tag_390\n        /* \"#utility.yul\":12094:12097   */\n      dup3\n        /* \"#utility.yul\":12005:12098   */\n      tag_253\n      jump\t// in\n    tag_390:\n        /* \"#utility.yul\":12123:12125   */\n      0x20\n        /* \"#utility.yul\":12118:12121   */\n      dup3\n        /* \"#utility.yul\":12114:12126   */\n      add\n        /* \"#utility.yul\":12107:12126   */\n      swap1\n      pop\n        /* \"#utility.yul\":11766:12132   */\n      swap2\n      swap1\n      pop\n      jump\t// out\n        /* \"#utility.yul\":12138:12557   */\n    tag_119:\n        /* \"#utility.yul\":12304:12308   */\n      0x00\n        /* \"#utility.yul\":12342:12344   */\n      0x20\n        /* \"#utility.yul\":12331:12340   */\n      dup3\n        /* \"#utility.yul\":12327:12345   */\n      add\n        /* \"#utility.yul\":12319:12345   */\n      swap1\n      pop\n        /* \"#utility.yul\":12391:12400   */\n      dup2\n        /* \"#utility.yul\":12385:12389   */\n      dup2\n        /* \"#utility.yul\":12381:12401   */\n      sub\n        /* \"#utility.yul\":12377:12378   */\n      0x00\n        /* \"#utility.yul\":12366:12375   */\n      dup4\n        /* \"#utility.yul\":12362:12379   */\n      add\n        /* \"#utility.yul\":12355:12402   */\n      mstore\n        /* \"#utility.yul\":12419:12550   */\n      tag_392\n        /* \"#utility.yul\":12545:12549   */\n      dup2\n        /* \"#utility.yul\":12419:12550   */\n      tag_254\n      jump\t// in\n    tag_392:\n        /* \"#utility.yul\":12411:12550   */\n      swap1\n      pop\n        /* \"#utility.yul\":12138:12557   */\n      swap2\n      swap1\n      pop\n      jump\t// out\n        /* \"#utility.yul\":12563:12743   */\n    tag_255:\n        /* \"#utility.yul\":12611:12688   */\n      0x4e487b7100000000000000000000000000000000000000000000000000000000\n        /* \"#utility.yul\":12608:12609   */\n      0x00\n        /* \"#utility.yul\":12601:12689   */\n      mstore\n        /* \"#utility.yul\":12708:12712   */\n      0x11\n        /* \"#utility.yul\":12705:12706   */\n      0x04\n        /* \"#utility.yul\":12698:12713   */\n      mstore\n        /* \"#utility.yul\":12732:12736   */\n      0x24\n        /* \"#utility.yul\":12729:12730   */\n      0x00\n        /* \"#utility.yul\":12722:12737   */\n      revert\n        /* \"#utility.yul\":12749:12982   */\n    tag_124:\n        /* \"#utility.yul\":12788:12791   */\n      0x00\n        /* \"#utility.yul\":12811:12835   */\n      tag_395\n        /* \"#utility.yul\":12829:12834   */\n      dup3\n        /* \"#utility.yul\":12811:12835   */\n      tag_230\n      jump\t// in\n    tag_395:\n        /* \"#utility.yul\":12802:12835   */\n      swap2\n      pop\n        /* \"#utility.yul\":12857:12923   */\n      0xffffffffffffffffffffffffffffffffffffffffffffffffffffffffffffffff\n        /* \"#utility.yul\":12850:12855   */\n      dup3\n        /* \"#utility.yul\":12847:12924   */\n      sub\n        /* \"#utility.yul\":12844:12947   */\n      tag_396\n      jumpi\n        /* \"#utility.yul\":12927:12945   */\n      tag_397\n      tag_255\n      jump\t// in\n    tag_397:\n        /* \"#utility.yul\":12844:12947   */\n    tag_396:\n        /* \"#utility.yul\":12974:12975   */\n      0x01\n        /* \"#utility.yul\":12967:12972   */\n      dup3\n        /* \"#utility.yul\":12963:12976   */\n      add\n        /* \"#utility.yul\":12956:12976   */\n      swap1\n      pop\n        /* \"#utility.yul\":12749:12982   */\n      swap2\n      swap1\n      pop\n      jump\t// out\n        /* \"#utility.yul\":12988:13182   */\n    tag_146:\n        /* \"#utility.yul\":13028:13032   */\n      0x00\n        /* \"#utility.yul\":13048:13068   */\n      tag_399\n        /* \"#utility.yul\":13066:13067   */\n      dup3\n        /* \"#utility.yul\":13048:13068   */\n      tag_230\n      jump\t// in\n    tag_399:\n        /* \"#utility.yul\":13043:13068   */\n      swap2\n      pop\n        /* \"#utility.yul\":13082:13102   */\n      tag_400\n        /* \"#utility.yul\":13100:13101   */\n      dup4\n        /* \"#utility.yul\":13082:13102   */\n      tag_230\n      jump\t// in\n    tag_400:\n        /* \"#utility.yul\":13077:13102   */\n      swap3\n      pop\n        /* \"#utility.yul\":13126:13127   */\n      dup3\n        /* \"#utility.yul\":13123:13124   */\n      dup3\n        /* \"#utility.yul\":13119:13128   */\n      sub\n        /* \"#utility.yul\":13111:13128   */\n      swap1\n      pop\n        /* \"#utility.yul\":13150:13151   */\n      dup2\n        /* \"#utility.yul\":13144:13148   */\n      dup2\n        /* \"#utility.yul\":13141:13152   */\n      gt\n        /* \"#utility.yul\":13138:13175   */\n      iszero\n      tag_401\n      jumpi\n        /* \"#utility.yul\":13155:13173   */\n      tag_402\n      tag_255\n      jump\t// in\n    tag_402:\n        /* \"#utility.yul\":13138:13175   */\n    tag_401:\n        /* \"#utility.yul\":12988:13182   */\n      swap3\n      swap2\n      pop\n      pop\n      jump\t// out\n        /* \"#utility.yul\":13188:13416   */\n    tag_256:\n        /* \"#utility.yul\":13328:13362   */\n      0x6c617374657374206372756d6220646f6573206e6f742065786973742e205768\n        /* \"#utility.yul\":13324:13325   */\n      0x00\n        /* \"#utility.yul\":13316:13322   */\n      dup3\n        /* \"#utility.yul\":13312:13326   */\n      add\n        /* \"#utility.yul\":13305:13363   */\n      mstore\n        /* \"#utility.yul\":13397:13408   */\n      0x6f206174652069743f0000000000000000000000000000000000000000000000\n        /* \"#utility.yul\":13392:13394   */\n      0x20\n        /* \"#utility.yul\":13384:13390   */\n      dup3\n        /* \"#utility.yul\":13380:13395   */\n      add\n        /* \"#utility.yul\":13373:13409   */\n      mstore\n        /* \"#utility.yul\":13188:13416   */\n      pop\n      jump\t// out\n        /* \"#utility.yul\":13422:13788   */\n    tag_257:\n        /* \"#utility.yul\":13564:13567   */\n      0x00\n        /* \"#utility.yul\":13585:13652   */\n      tag_405\n        /* \"#utility.yul\":13649:13651   */\n      0x29\n        /* \"#utility.yul\":13644:13647   */\n      dup4\n        /* \"#utility.yul\":13585:13652   */\n      tag_219\n      jump\t// in\n    tag_405:\n        /* \"#utility.yul\":13578:13652   */\n      swap2\n      pop\n        /* \"#utility.yul\":13661:13754   */\n      tag_406\n        /* \"#utility.yul\":13750:13753   */\n      dup3\n        /* \"#utility.yul\":13661:13754   */\n      tag_256\n      jump\t// in\n    tag_406:\n        /* \"#utility.yul\":13779:13781   */\n      0x40\n        /* \"#utility.yul\":13774:13777   */\n      dup3\n        /* \"#utility.yul\":13770:13782   */\n      add\n        /* \"#utility.yul\":13763:13782   */\n      swap1\n      pop\n        /* \"#utility.yul\":13422:13788   */\n      swap2\n      swap1\n      pop\n      jump\t// out\n        /* \"#utility.yul\":13794:14213   */\n    tag_149:\n        /* \"#utility.yul\":13960:13964   */\n      0x00\n        /* \"#utility.yul\":13998:14000   */\n      0x20\n        /* \"#utility.yul\":13987:13996   */\n      dup3\n        /* \"#utility.yul\":13983:14001   */\n      add\n        /* \"#utility.yul\":13975:14001   */\n      swap1\n      pop\n        /* \"#utility.yul\":14047:14056   */\n      dup2\n        /* \"#utility.yul\":14041:14045   */\n      dup2\n        /* \"#utility.yul\":14037:14057   */\n      sub\n        /* \"#utility.yul\":14033:14034   */\n      0x00\n        /* \"#utility.yul\":14022:14031   */\n      dup4\n        /* \"#utility.yul\":14018:14035   */\n      add\n        /* \"#utility.yul\":14011:14058   */\n      mstore\n        /* \"#utility.yul\":14075:14206   */\n      tag_408\n        /* \"#utility.yul\":14201:14205   */\n      dup2\n        /* \"#utility.yul\":14075:14206   */\n      tag_257\n      jump\t// in\n    tag_408:\n        /* \"#utility.yul\":14067:14206   */\n      swap1\n      pop\n        /* \"#utility.yul\":13794:14213   */\n      swap2\n      swap1\n      pop\n      jump\t// out\n        /* \"#utility.yul\":14219:14661   */\n    tag_169:\n        /* \"#utility.yul\":14368:14372   */\n      0x00\n        /* \"#utility.yul\":14406:14408   */\n      0x60\n        /* \"#utility.yul\":14395:14404   */\n      dup3\n        /* \"#utility.yul\":14391:14409   */\n      add\n        /* \"#utility.yul\":14383:14409   */\n      swap1\n      pop\n        /* \"#utility.yul\":14419:14490   */\n      tag_410\n        /* \"#utility.yul\":14487:14488   */\n      0x00\n        /* \"#utility.yul\":14476:14485   */\n      dup4\n        /* \"#utility.yul\":14472:14489   */\n      add\n        /* \"#utility.yul\":14463:14469   */\n      dup7\n        /* \"#utility.yul\":14419:14490   */\n      tag_238\n      jump\t// in\n    tag_410:\n        /* \"#utility.yul\":14500:14572   */\n      tag_411\n        /* \"#utility.yul\":14568:14570   */\n      0x20\n        /* \"#utility.yul\":14557:14566   */\n      dup4\n        /* \"#utility.yul\":14553:14571   */\n      add\n        /* \"#utility.yul\":14544:14550   */\n      dup6\n        /* \"#utility.yul\":14500:14572   */\n      tag_235\n      jump\t// in\n    tag_411:\n        /* \"#utility.yul\":14582:14654   */\n      tag_412\n        /* \"#utility.yul\":14650:14652   */\n      0x40\n        /* \"#utility.yul\":14639:14648   */\n      dup4\n        /* \"#utility.yul\":14635:14653   */\n      add\n        /* \"#utility.yul\":14626:14632   */\n      dup5\n        /* \"#utility.yul\":14582:14654   */\n      tag_235\n      jump\t// in\n    tag_412:\n        /* \"#utility.yul\":14219:14661   */\n      swap5\n      swap4\n      pop\n      pop\n      pop\n      pop\n      jump\t// out\n        /* \"#utility.yul\":14667:14999   */\n    tag_207:\n        /* \"#utility.yul\":14788:14792   */\n      0x00\n        /* \"#utility.yul\":14826:14828   */\n      0x40\n        /* \"#utility.yul\":14815:14824   */\n      dup3\n        /* \"#utility.yul\":14811:14829   */\n      add\n        /* \"#utility.yul\":14803:14829   */\n      swap1\n      pop\n        /* \"#utility.yul\":14839:14910   */\n      tag_414\n        /* \"#utility.yul\":14907:14908   */\n      0x00\n        /* \"#utility.yul\":14896:14905   */\n      dup4\n        /* \"#utility.yul\":14892:14909   */\n      add\n        /* \"#utility.yul\":14883:14889   */\n      dup6\n        /* \"#utility.yul\":14839:14910   */\n      tag_235\n      jump\t// in\n    tag_414:\n        /* \"#utility.yul\":14920:14992   */\n      tag_415\n        /* \"#utility.yul\":14988:14990   */\n      0x20\n        /* \"#utility.yul\":14977:14986   */\n      dup4\n        /* \"#utility.yul\":14973:14991   */\n      add\n        /* \"#utility.yul\":14964:14970   */\n      dup5\n        /* \"#utility.yul\":14920:14992   */\n      tag_235\n      jump\t// in\n    tag_415:\n        /* \"#utility.yul\":14667:14999   */\n      swap4\n      swap3\n      pop\n      pop\n      pop\n      jump\t// out\n        /* \"#utility.yul\":15005:15196   */\n    tag_211:\n        /* \"#utility.yul\":15045:15048   */\n      0x00\n        /* \"#utility.yul\":15064:15084   */\n      tag_417\n        /* \"#utility.yul\":15082:15083   */\n      dup3\n        /* \"#utility.yul\":15064:15084   */\n      tag_230\n      jump\t// in\n    tag_417:\n        /* \"#utility.yul\":15059:15084   */\n      swap2\n      pop\n        /* \"#utility.yul\":15098:15118   */\n      tag_418\n        /* \"#utility.yul\":15116:15117   */\n      dup4\n        /* \"#utility.yul\":15098:15118   */\n      tag_230\n      jump\t// in\n    tag_418:\n        /* \"#utility.yul\":15093:15118   */\n      swap3\n      pop\n        /* \"#utility.yul\":15141:15142   */\n      dup3\n        /* \"#utility.yul\":15138:15139   */\n      dup3\n        /* \"#utility.yul\":15134:15143   */\n      add\n        /* \"#utility.yul\":15127:15143   */\n      swap1\n      pop\n        /* \"#utility.yul\":15162:15165   */\n      dup1\n        /* \"#utility.yul\":15159:15160   */\n      dup3\n        /* \"#utility.yul\":15156:15166   */\n      gt\n        /* \"#utility.yul\":15153:15189   */\n      iszero\n      tag_419\n      jumpi\n        /* \"#utility.yul\":15169:15187   */\n      tag_420\n      tag_255\n      jump\t// in\n    tag_420:\n        /* \"#utility.yul\":15153:15189   */\n    tag_419:\n        /* \"#utility.yul\":15005:15196   */\n      swap3\n      swap2\n      pop\n      pop\n      jump\t// out\n    stop\n\n    sub_0: assembly {\n            /* \"contracts/Soboro.sol\":1876:3335  contract Crumb {... */\n          mstore(0x40, 0x80)\n          callvalue\n          dup1\n          iszero\n          tag_1\n          jumpi\n          0x00\n          dup1\n          revert\n        tag_1:\n          pop\n          dataSize(sub_0)\n          dup1\n          dataOffset(sub_0)\n          0x00\n          codecopy\n          0x00\n          return\n        stop\n\n        sub_0: assembly {\n                /* \"contracts/Soboro.sol\":1876:3335  contract Crumb {... */\n              mstore(0x40, 0x80)\n              callvalue\n              dup1\n              iszero\n              tag_1\n              jumpi\n              0x00\n              dup1\n              revert\n            tag_1:\n              pop\n              jumpi(tag_2, lt(calldatasize, 0x04))\n              shr(0xe0, calldataload(0x00))\n              dup1\n              0x0c4960dd\n              eq\n              tag_3\n              jumpi\n              dup1\n              0x70a56c73\n              eq\n              tag_4\n              jumpi\n              dup1\n              0xb384abef\n              eq\n              tag_5\n              jumpi\n            tag_2:\n              0x00\n              dup1\n              revert\n                /* \"contracts/Soboro.sol\":2084:2625  function createSurvey(string memory _question, string[] memory _options, bool _initialActiveState) public {... */\n            tag_3:\n              tag_6\n              0x04\n              dup1\n              calldatasize\n              sub\n              dup2\n              add\n              swap1\n              tag_7\n              swap2\n              swap1\n              tag_8\n              jump\t// in\n            tag_7:\n              tag_9\n              jump\t// in\n            tag_6:\n              stop\n                /* \"contracts/Soboro.sol\":3103:3333  function getSurveyResults(uint _surveyId) public view returns (Survey memory) {... */\n            tag_4:\n              tag_10\n              0x04\n              dup1\n              calldatasize\n              sub\n              dup2\n              add\n              swap1\n              tag_11\n              swap2\n              swap1\n              tag_12\n              jump\t// in\n            tag_11:\n              tag_13\n              jump\t// in\n            tag_10:\n              mload(0x40)\n              tag_14\n              swap2\n              swap1\n              tag_15\n              jump\t// in\n            tag_14:\n              mload(0x40)\n              dup1\n              swap2\n              sub\n              swap1\n              return\n                /* \"contracts/Soboro.sol\":2652:3063  function vote(uint _surveyId, uint _optionIndex) public {... */\n            tag_5:\n              tag_16\n              0x04\n              dup1\n              calldatasize\n              sub\n              dup2\n              add\n              swap1\n              tag_17\n              swap2\n              swap1\n              tag_18\n              jump\t// in\n            tag_17:\n              tag_19\n              jump\t// in\n            tag_16:\n              stop\n                /* \"contracts/Soboro.sol\":2084:2625  function createSurvey(string memory _question, string[] memory _options, bool _initialActiveState) public {... */\n            tag_9:\n                /* \"contracts/Soboro.sol\":2227:2228  2 */\n              0x02\n                /* \"contracts/Soboro.sol\":2208:2216  _options */\n              dup3\n                /* \"contracts/Soboro.sol\":2208:2223  _options.length */\n              mload\n                /* \"contracts/Soboro.sol\":2208:2228  _options.length >= 2 */\n              lt\n              iszero\n                /* \"contracts/Soboro.sol\":2200:2264  require(_options.length >= 2, \"At least 2 options are required\") */\n              tag_21\n              jumpi\n              mload(0x40)\n              0x08c379a000000000000000000000000000000000000000000000000000000000\n              dup2\n              mstore\n              0x04\n              add\n              tag_22\n              swap1\n              tag_23\n              jump\t// in\n            tag_22:\n              mload(0x40)\n              dup1\n              swap2\n              sub\n              swap1\n              revert\n            tag_21:\n                /* \"contracts/Soboro.sol\":2274:2300  uint[] memory initialVotes */\n              0x00\n                /* \"contracts/Soboro.sol\":2314:2322  _options */\n              dup3\n                /* \"contracts/Soboro.sol\":2314:2329  _options.length */\n              mload\n                /* \"contracts/Soboro.sol\":2303:2330  new uint[](_options.length) */\n              0xffffffffffffffff\n              dup2\n              gt\n              iszero\n              tag_24\n              jumpi\n              tag_25\n              tag_26\n              jump\t// in\n            tag_25:\n            tag_24:\n              mload(0x40)\n              swap1\n              dup1\n              dup3\n              mstore\n              dup1\n              0x20\n              mul\n              0x20\n              add\n              dup3\n              add\n              0x40\n              mstore\n              dup1\n              iszero\n              tag_27\n              jumpi\n              dup2\n              0x20\n              add\n              0x20\n              dup3\n              mul\n              dup1\n              calldatasize\n              dup4\n              calldatacopy\n              dup1\n              dup3\n              add\n              swap2\n              pop\n              pop\n              swap1\n              pop\n            tag_27:\n              pop\n                /* \"contracts/Soboro.sol\":2274:2330  uint[] memory initialVotes = new uint[](_options.length) */\n              swap1\n              pop\n                /* \"contracts/Soboro.sol\":2340:2347  surveys */\n              0x00\n                /* \"contracts/Soboro.sol\":2366:2608  Survey(... */\n              mload(0x40)\n              dup1\n              0x80\n              add\n              0x40\n              mstore\n              dup1\n                /* \"contracts/Soboro.sol\":2422:2431  _question */\n              dup7\n                /* \"contracts/Soboro.sol\":2366:2608  Survey(... */\n              dup2\n              mstore\n              0x20\n              add\n                /* \"contracts/Soboro.sol\":2462:2470  _options */\n              dup6\n                /* \"contracts/Soboro.sol\":2366:2608  Survey(... */\n              dup2\n              mstore\n              0x20\n              add\n                /* \"contracts/Soboro.sol\":2513:2525  initialVotes */\n              dup4\n                /* \"contracts/Soboro.sol\":2366:2608  Survey(... */\n              dup2\n              mstore\n              0x20\n              add\n                /* \"contracts/Soboro.sol\":2557:2576  _initialActiveState */\n              dup5\n                /* \"contracts/Soboro.sol\":2366:2608  Survey(... */\n              iszero\n              iszero\n              dup2\n              mstore\n              pop\n                /* \"contracts/Soboro.sol\":2340:2618  surveys.push(... */\n              swap1\n              dup1\n              0x01\n              dup2\n              sload\n              add\n              dup1\n              dup3\n              sstore\n              dup1\n              swap2\n              pop\n              pop\n              0x01\n              swap1\n              sub\n              swap1\n              0x00\n              mstore\n              keccak256(0x00, 0x20)\n              swap1\n              0x04\n              mul\n              add\n              0x00\n              swap1\n              swap2\n              swap1\n              swap2\n              swap1\n              swap2\n              pop\n              0x00\n              dup3\n              add\n              mload\n              dup2\n              0x00\n              add\n              swap1\n              dup2\n              tag_29\n              swap2\n              swap1\n              tag_30\n              jump\t// in\n            tag_29:\n              pop\n              0x20\n              dup3\n              add\n              mload\n              dup2\n              0x01\n              add\n              swap1\n              dup1\n              mload\n              swap1\n              0x20\n              add\n              swap1\n              tag_31\n              swap3\n              swap2\n              swap1\n              tag_32\n              jump\t// in\n            tag_31:\n              pop\n              0x40\n              dup3\n              add\n              mload\n              dup2\n              0x02\n              add\n              swap1\n              dup1\n              mload\n              swap1\n              0x20\n              add\n              swap1\n              tag_33\n              swap3\n              swap2\n              swap1\n              tag_34\n              jump\t// in\n            tag_33:\n              pop\n              0x60\n              dup3\n              add\n              mload\n              dup2\n              0x03\n              add\n              exp(0x0100, 0x00)\n              dup2\n              sload\n              dup2\n              0xff\n              mul\n              not\n              and\n              swap1\n              dup4\n              iszero\n              iszero\n              mul\n              or\n              swap1\n              sstore\n              pop\n              pop\n              pop\n                /* \"contracts/Soboro.sol\":2190:2625  {... */\n              pop\n                /* \"contracts/Soboro.sol\":2084:2625  function createSurvey(string memory _question, string[] memory _options, bool _initialActiveState) public {... */\n              pop\n              pop\n              pop\n              jump\t// out\n                /* \"contracts/Soboro.sol\":3103:3333  function getSurveyResults(uint _surveyId) public view returns (Survey memory) {... */\n            tag_13:\n                /* \"contracts/Soboro.sol\":3166:3179  Survey memory */\n              tag_35\n              tag_36\n              jump\t// in\n            tag_35:\n                /* \"contracts/Soboro.sol\":3211:3218  surveys */\n              0x00\n                /* \"contracts/Soboro.sol\":3211:3225  surveys.length */\n              dup1\n              sload\n              swap1\n              pop\n                /* \"contracts/Soboro.sol\":3199:3208  _surveyId */\n              dup3\n                /* \"contracts/Soboro.sol\":3199:3225  _surveyId < surveys.length */\n              lt\n                /* \"contracts/Soboro.sol\":3191:3251  require(_surveyId < surveys.length, \"Survey does not exist\") */\n              tag_38\n              jumpi\n              mload(0x40)\n              0x08c379a000000000000000000000000000000000000000000000000000000000\n              dup2\n              mstore\n              0x04\n              add\n              tag_39\n              swap1\n              tag_40\n              jump\t// in\n            tag_39:\n              mload(0x40)\n              dup1\n              swap2\n              sub\n              swap1\n              revert\n            tag_38:\n                /* \"contracts/Soboro.sol\":3261:3281  Survey memory survey */\n              0x00\n                /* \"contracts/Soboro.sol\":3284:3291  surveys */\n              dup1\n                /* \"contracts/Soboro.sol\":3292:3301  _surveyId */\n              dup4\n                /* \"contracts/Soboro.sol\":3284:3302  surveys[_surveyId] */\n              dup2\n              sload\n              dup2\n              lt\n              tag_41\n              jumpi\n              tag_42\n              tag_43\n              jump\t// in\n            tag_42:\n            tag_41:\n              swap1\n              0x00\n              mstore\n              keccak256(0x00, 0x20)\n              swap1\n              0x04\n              mul\n              add\n                /* \"contracts/Soboro.sol\":3261:3302  Survey memory survey = surveys[_surveyId] */\n              mload(0x40)\n              dup1\n              0x80\n              add\n              0x40\n              mstore\n              swap1\n              dup2\n              0x00\n              dup3\n              add\n              dup1\n              sload\n              tag_45\n              swap1\n              tag_46\n              jump\t// in\n            tag_45:\n              dup1\n              0x1f\n              add\n              0x20\n              dup1\n              swap2\n              div\n              mul\n              0x20\n              add\n              mload(0x40)\n              swap1\n              dup2\n              add\n              0x40\n              mstore\n              dup1\n              swap3\n              swap2\n              swap1\n              dup2\n              dup2\n              mstore\n              0x20\n              add\n              dup3\n              dup1\n              sload\n              tag_47\n              swap1\n              tag_46\n              jump\t// in\n            tag_47:\n              dup1\n              iszero\n              tag_48\n              jumpi\n              dup1\n              0x1f\n              lt\n              tag_49\n              jumpi\n              0x0100\n              dup1\n              dup4\n              sload\n              div\n              mul\n              dup4\n              mstore\n              swap2\n              0x20\n              add\n              swap2\n              jump(tag_48)\n            tag_49:\n              dup3\n              add\n              swap2\n              swap1\n              0x00\n              mstore\n              keccak256(0x00, 0x20)\n              swap1\n            tag_50:\n              dup2\n              sload\n              dup2\n              mstore\n              swap1\n              0x01\n              add\n              swap1\n              0x20\n              add\n              dup1\n              dup4\n              gt\n              tag_50\n              jumpi\n              dup3\n              swap1\n              sub\n              0x1f\n              and\n              dup3\n              add\n              swap2\n            tag_48:\n              pop\n              pop\n              pop\n              pop\n              pop\n              dup2\n              mstore\n              0x20\n              add\n              0x01\n              dup3\n              add\n              dup1\n              sload\n              dup1\n              0x20\n              mul\n              0x20\n              add\n              mload(0x40)\n              swap1\n              dup2\n              add\n              0x40\n              mstore\n              dup1\n              swap3\n              swap2\n              swap1\n              dup2\n              dup2\n              mstore\n              0x20\n              add\n              0x00\n              swap1\n            tag_51:\n              dup3\n              dup3\n              lt\n              iszero\n              tag_52\n              jumpi\n              dup4\n              dup3\n              swap1\n              0x00\n              mstore\n              keccak256(0x00, 0x20)\n              add\n              dup1\n              sload\n              tag_54\n              swap1\n              tag_46\n              jump\t// in\n            tag_54:\n              dup1\n              0x1f\n              add\n              0x20\n              dup1\n              swap2\n              div\n              mul\n              0x20\n              add\n              mload(0x40)\n              swap1\n              dup2\n              add\n              0x40\n              mstore\n              dup1\n              swap3\n              swap2\n              swap1\n              dup2\n              dup2\n              mstore\n              0x20\n              add\n              dup3\n              dup1\n              sload\n              tag_55\n              swap1\n              tag_46\n              jump\t// in\n            tag_55:\n              dup1\n              iszero\n              tag_56\n              jumpi\n              dup1\n              0x1f\n              lt\n              tag_57\n              jumpi\n              0x0100\n              dup1\n              dup4\n              sload\n              div\n              mul\n              dup4\n              mstore\n              swap2\n              0x20\n              add\n              swap2\n              jump(tag_56)\n            tag_57:\n              dup3\n              add\n              swap2\n              swap1\n              0x00\n              mstore\n              keccak256(0x00, 0x20)\n              swap1\n            tag_58:\n              dup2\n              sload\n              dup2\n              mstore\n              swap1\n              0x01\n              add\n              swap1\n              0x20\n              add\n              dup1\n              dup4\n              gt\n              tag_58\n              jumpi\n              dup3\n              swap1\n              sub\n              0x1f\n              and\n              dup3\n              add\n              swap2\n            tag_56:\n              pop\n              pop\n              pop\n              pop\n              pop\n              dup2\n              mstore\n              0x20\n              add\n              swap1\n              0x01\n              add\n              swap1\n              jump(tag_51)\n            tag_52:\n              pop\n              pop\n              pop\n              pop\n              dup2\n              mstore\n              0x20\n              add\n              0x02\n              dup3\n              add\n              dup1\n              sload\n              dup1\n              0x20\n              mul\n              0x20\n              add\n              mload(0x40)\n              swap1\n              dup2\n              add\n              0x40\n              mstore\n              dup1\n              swap3\n              swap2\n              swap1\n              dup2\n              dup2\n              mstore\n              0x20\n              add\n              dup3\n              dup1\n              sload\n              dup1\n              iszero\n              tag_59\n              jumpi\n              0x20\n              mul\n              dup3\n              add\n              swap2\n              swap1\n              0x00\n              mstore\n              keccak256(0x00, 0x20)\n              swap1\n            tag_60:\n              dup2\n              sload\n              dup2\n              mstore\n              0x20\n              add\n              swap1\n              0x01\n              add\n              swap1\n              dup1\n              dup4\n              gt\n              tag_60\n              jumpi\n            tag_59:\n              pop\n              pop\n              pop\n              pop\n              pop\n              dup2\n              mstore\n              0x20\n              add\n              0x03\n              dup3\n              add\n              0x00\n              swap1\n              sload\n              swap1\n              0x0100\n              exp\n              swap1\n              div\n              0xff\n              and\n              iszero\n              iszero\n              iszero\n              iszero\n              dup2\n              mstore\n              pop\n              pop\n              swap1\n              pop\n                /* \"contracts/Soboro.sol\":3320:3326  survey */\n              dup1\n                /* \"contracts/Soboro.sol\":3313:3326  return survey */\n              swap2\n              pop\n              pop\n                /* \"contracts/Soboro.sol\":3103:3333  function getSurveyResults(uint _surveyId) public view returns (Survey memory) {... */\n              swap2\n              swap1\n              pop\n              jump\t// out\n                /* \"contracts/Soboro.sol\":2652:3063  function vote(uint _surveyId, uint _optionIndex) public {... */\n            tag_19:\n                /* \"contracts/Soboro.sol\":2738:2745  surveys */\n              0x00\n                /* \"contracts/Soboro.sol\":2738:2752  surveys.length */\n              dup1\n              sload\n              swap1\n              pop\n                /* \"contracts/Soboro.sol\":2726:2735  _surveyId */\n              dup3\n                /* \"contracts/Soboro.sol\":2726:2752  _surveyId < surveys.length */\n              lt\n                /* \"contracts/Soboro.sol\":2718:2778  require(_surveyId < surveys.length, \"Survey does not exist\") */\n              tag_62\n              jumpi\n              mload(0x40)\n              0x08c379a000000000000000000000000000000000000000000000000000000000\n              dup2\n              mstore\n              0x04\n              add\n              tag_63\n              swap1\n              tag_40\n              jump\t// in\n            tag_63:\n              mload(0x40)\n              dup1\n              swap2\n              sub\n              swap1\n              revert\n            tag_62:\n                /* \"contracts/Soboro.sol\":2796:2803  surveys */\n              0x00\n                /* \"contracts/Soboro.sol\":2804:2813  _surveyId */\n              dup3\n                /* \"contracts/Soboro.sol\":2796:2814  surveys[_surveyId] */\n              dup2\n              sload\n              dup2\n              lt\n              tag_64\n              jumpi\n              tag_65\n              tag_43\n              jump\t// in\n            tag_65:\n            tag_64:\n              swap1\n              0x00\n              mstore\n              keccak256(0x00, 0x20)\n              swap1\n              0x04\n              mul\n              add\n                /* \"contracts/Soboro.sol\":2796:2823  surveys[_surveyId].isActive */\n              0x03\n              add\n              0x00\n              swap1\n              sload\n              swap1\n              0x0100\n              exp\n              swap1\n              div\n              0xff\n              and\n                /* \"contracts/Soboro.sol\":2788:2848  require(surveys[_surveyId].isActive, \"Survey is not active\") */\n              tag_67\n              jumpi\n              mload(0x40)\n              0x08c379a000000000000000000000000000000000000000000000000000000000\n              dup2\n              mstore\n              0x04\n              add\n              tag_68\n              swap1\n              tag_69\n              jump\t// in\n            tag_68:\n              mload(0x40)\n              dup1\n              swap2\n              sub\n              swap1\n              revert\n            tag_67:\n                /* \"contracts/Soboro.sol\":2881:2888  surveys */\n              0x00\n                /* \"contracts/Soboro.sol\":2889:2898  _surveyId */\n              dup3\n                /* \"contracts/Soboro.sol\":2881:2899  surveys[_surveyId] */\n              dup2\n              sload\n              dup2\n              lt\n              tag_70\n              jumpi\n              tag_71\n              tag_43\n              jump\t// in\n            tag_71:\n            tag_70:\n              swap1\n              0x00\n              mstore\n              keccak256(0x00, 0x20)\n              swap1\n              0x04\n              mul\n              add\n                /* \"contracts/Soboro.sol\":2881:2907  surveys[_surveyId].options */\n              0x01\n              add\n                /* \"contracts/Soboro.sol\":2881:2914  surveys[_surveyId].options.length */\n              dup1\n              sload\n              swap1\n              pop\n                /* \"contracts/Soboro.sol\":2866:2878  _optionIndex */\n              dup2\n                /* \"contracts/Soboro.sol\":2866:2914  _optionIndex < surveys[_surveyId].options.length */\n              lt\n                /* \"contracts/Soboro.sol\":2858:2939  require(_optionIndex < surveys[_surveyId].options.length, \"Invalid option index\") */\n              tag_73\n              jumpi\n              mload(0x40)\n              0x08c379a000000000000000000000000000000000000000000000000000000000\n              dup2\n              mstore\n              0x04\n              add\n              tag_74\n              swap1\n              tag_75\n              jump\t// in\n            tag_74:\n              mload(0x40)\n              dup1\n              swap2\n              sub\n              swap1\n              revert\n            tag_73:\n                /* \"contracts/Soboro.sol\":2949:2956  surveys */\n              0x00\n                /* \"contracts/Soboro.sol\":2957:2966  _surveyId */\n              dup3\n                /* \"contracts/Soboro.sol\":2949:2967  surveys[_surveyId] */\n              dup2\n              sload\n              dup2\n              lt\n              tag_76\n              jumpi\n              tag_77\n              tag_43\n              jump\t// in\n            tag_77:\n            tag_76:\n              swap1\n              0x00\n              mstore\n              keccak256(0x00, 0x20)\n              swap1\n              0x04\n              mul\n              add\n                /* \"contracts/Soboro.sol\":2949:2987  surveys[_surveyId].voteCountPerOptions */\n              0x02\n              add\n                /* \"contracts/Soboro.sol\":2988:3000  _optionIndex */\n              dup2\n                /* \"contracts/Soboro.sol\":2949:3001  surveys[_surveyId].voteCountPerOptions[_optionIndex] */\n              dup2\n              sload\n              dup2\n              lt\n              tag_79\n              jumpi\n              tag_80\n              tag_43\n              jump\t// in\n            tag_80:\n            tag_79:\n              swap1\n              0x00\n              mstore\n              keccak256(0x00, 0x20)\n              add\n              0x00\n                /* \"contracts/Soboro.sol\":2949:3003  surveys[_surveyId].voteCountPerOptions[_optionIndex]++ */\n              dup2\n              sload\n              dup1\n              swap3\n              swap2\n              swap1\n              tag_82\n              swap1\n              tag_83\n              jump\t// in\n            tag_82:\n              swap2\n              swap1\n              pop\n              sstore\n              pop\n                /* \"contracts/Soboro.sol\":2652:3063  function vote(uint _surveyId, uint _optionIndex) public {... */\n              pop\n              pop\n              jump\t// out\n            tag_32:\n              dup3\n              dup1\n              sload\n              dup3\n              dup3\n              sstore\n              swap1\n              0x00\n              mstore\n              keccak256(0x00, 0x20)\n              swap1\n              dup2\n              add\n              swap3\n              dup3\n              iszero\n              tag_84\n              jumpi\n              swap2\n              0x20\n              mul\n              dup3\n              add\n            tag_85:\n              dup3\n              dup2\n              gt\n              iszero\n              tag_86\n              jumpi\n              dup3\n              mload\n              dup3\n              swap1\n              dup2\n              tag_87\n              swap2\n              swap1\n              tag_30\n              jump\t// in\n            tag_87:\n              pop\n              swap2\n              0x20\n              add\n              swap2\n              swap1\n              0x01\n              add\n              swap1\n              jump(tag_85)\n            tag_86:\n            tag_84:\n              pop\n              swap1\n              pop\n              tag_88\n              swap2\n              swap1\n              tag_89\n              jump\t// in\n            tag_88:\n              pop\n              swap1\n              jump\t// out\n            tag_34:\n              dup3\n              dup1\n              sload\n              dup3\n              dup3\n              sstore\n              swap1\n              0x00\n              mstore\n              keccak256(0x00, 0x20)\n              swap1\n              dup2\n              add\n              swap3\n              dup3\n              iszero\n              tag_90\n              jumpi\n              swap2\n              0x20\n              mul\n              dup3\n              add\n            tag_91:\n              dup3\n              dup2\n              gt\n              iszero\n              tag_92\n              jumpi\n              dup3\n              mload\n              dup3\n              sstore\n              swap2\n              0x20\n              add\n              swap2\n              swap1\n              0x01\n              add\n              swap1\n              jump(tag_91)\n            tag_92:\n            tag_90:\n              pop\n              swap1\n              pop\n              tag_93\n              swap2\n              swap1\n              tag_94\n              jump\t// in\n            tag_93:\n              pop\n              swap1\n              jump\t// out\n            tag_36:\n              mload(0x40)\n              dup1\n              0x80\n              add\n              0x40\n              mstore\n              dup1\n              0x60\n              dup2\n              mstore\n              0x20\n              add\n              0x60\n              dup2\n              mstore\n              0x20\n              add\n              0x60\n              dup2\n              mstore\n              0x20\n              add\n              iszero(iszero(0x00))\n              dup2\n              mstore\n              pop\n              swap1\n              jump\t// out\n            tag_89:\n            tag_95:\n              dup1\n              dup3\n              gt\n              iszero\n              tag_96\n              jumpi\n              0x00\n              dup2\n              dup2\n              tag_97\n              swap2\n              swap1\n              tag_98\n              jump\t// in\n            tag_97:\n              pop\n              0x01\n              add\n              jump(tag_95)\n            tag_96:\n              pop\n              swap1\n              jump\t// out\n            tag_94:\n            tag_99:\n              dup1\n              dup3\n              gt\n              iszero\n              tag_100\n              jumpi\n              0x00\n              dup2\n              0x00\n              swap1\n              sstore\n              pop\n              0x01\n              add\n              jump(tag_99)\n            tag_100:\n              pop\n              swap1\n              jump\t// out\n            tag_98:\n              pop\n              dup1\n              sload\n              tag_101\n              swap1\n              tag_46\n              jump\t// in\n            tag_101:\n              0x00\n              dup3\n              sstore\n              dup1\n              0x1f\n              lt\n              tag_103\n              jumpi\n              pop\n              jump(tag_102)\n            tag_103:\n              0x1f\n              add\n              0x20\n              swap1\n              div\n              swap1\n              0x00\n              mstore\n              keccak256(0x00, 0x20)\n              swap1\n              dup2\n              add\n              swap1\n              tag_104\n              swap2\n              swap1\n              tag_94\n              jump\t// in\n            tag_104:\n            tag_102:\n              pop\n              jump\t// out\n                /* \"#utility.yul\":7:82   */\n            tag_105:\n                /* \"#utility.yul\":40:46   */\n              0x00\n                /* \"#utility.yul\":73:75   */\n              0x40\n                /* \"#utility.yul\":67:76   */\n              mload\n                /* \"#utility.yul\":57:76   */\n              swap1\n              pop\n                /* \"#utility.yul\":7:82   */\n              swap1\n              jump\t// out\n                /* \"#utility.yul\":88:205   */\n            tag_106:\n                /* \"#utility.yul\":197:198   */\n              0x00\n                /* \"#utility.yul\":194:195   */\n              dup1\n                /* \"#utility.yul\":187:199   */\n              revert\n                /* \"#utility.yul\":211:328   */\n            tag_107:\n                /* \"#utility.yul\":320:321   */\n              0x00\n                /* \"#utility.yul\":317:318   */\n              dup1\n                /* \"#utility.yul\":310:322   */\n              revert\n                /* \"#utility.yul\":334:451   */\n            tag_108:\n                /* \"#utility.yul\":443:444   */\n              0x00\n                /* \"#utility.yul\":440:441   */\n              dup1\n                /* \"#utility.yul\":433:445   */\n              revert\n                /* \"#utility.yul\":457:574   */\n            tag_109:\n                /* \"#utility.yul\":566:567   */\n              0x00\n                /* \"#utility.yul\":563:564   */\n              dup1\n                /* \"#utility.yul\":556:568   */\n              revert\n                /* \"#utility.yul\":580:682   */\n            tag_110:\n                /* \"#utility.yul\":621:627   */\n              0x00\n                /* \"#utility.yul\":672:674   */\n              0x1f\n                /* \"#utility.yul\":668:675   */\n              not\n                /* \"#utility.yul\":663:665   */\n              0x1f\n                /* \"#utility.yul\":656:661   */\n              dup4\n                /* \"#utility.yul\":652:666   */\n              add\n                /* \"#utility.yul\":648:676   */\n              and\n                /* \"#utility.yul\":638:676   */\n              swap1\n              pop\n                /* \"#utility.yul\":580:682   */\n              swap2\n              swap1\n              pop\n              jump\t// out\n                /* \"#utility.yul\":688:868   */\n            tag_26:\n                /* \"#utility.yul\":736:813   */\n              0x4e487b7100000000000000000000000000000000000000000000000000000000\n                /* \"#utility.yul\":733:734   */\n              0x00\n                /* \"#utility.yul\":726:814   */\n              mstore\n                /* \"#utility.yul\":833:837   */\n              0x41\n                /* \"#utility.yul\":830:831   */\n              0x04\n                /* \"#utility.yul\":823:838   */\n              mstore\n                /* \"#utility.yul\":857:861   */\n              0x24\n                /* \"#utility.yul\":854:855   */\n              0x00\n                /* \"#utility.yul\":847:862   */\n              revert\n                /* \"#utility.yul\":874:1155   */\n            tag_111:\n                /* \"#utility.yul\":957:984   */\n              tag_181\n                /* \"#utility.yul\":979:983   */\n              dup3\n                /* \"#utility.yul\":957:984   */\n              tag_110\n              jump\t// in\n            tag_181:\n                /* \"#utility.yul\":949:955   */\n              dup2\n                /* \"#utility.yul\":945:985   */\n              add\n                /* \"#utility.yul\":1087:1093   */\n              dup2\n                /* \"#utility.yul\":1075:1085   */\n              dup2\n                /* \"#utility.yul\":1072:1094   */\n              lt\n                /* \"#utility.yul\":1051:1069   */\n              0xffffffffffffffff\n                /* \"#utility.yul\":1039:1049   */\n              dup3\n                /* \"#utility.yul\":1036:1070   */\n              gt\n                /* \"#utility.yul\":1033:1095   */\n              or\n                /* \"#utility.yul\":1030:1118   */\n              iszero\n              tag_182\n              jumpi\n                /* \"#utility.yul\":1098:1116   */\n              tag_183\n              tag_26\n              jump\t// in\n            tag_183:\n                /* \"#utility.yul\":1030:1118   */\n            tag_182:\n                /* \"#utility.yul\":1138:1148   */\n              dup1\n                /* \"#utility.yul\":1134:1136   */\n              0x40\n                /* \"#utility.yul\":1127:1149   */\n              mstore\n                /* \"#utility.yul\":917:1155   */\n              pop\n                /* \"#utility.yul\":874:1155   */\n              pop\n              pop\n              jump\t// out\n                /* \"#utility.yul\":1161:1290   */\n            tag_112:\n                /* \"#utility.yul\":1195:1201   */\n              0x00\n                /* \"#utility.yul\":1222:1242   */\n              tag_185\n              tag_105\n              jump\t// in\n            tag_185:\n                /* \"#utility.yul\":1212:1242   */\n              swap1\n              pop\n                /* \"#utility.yul\":1251:1284   */\n              tag_186\n                /* \"#utility.yul\":1279:1283   */\n              dup3\n                /* \"#utility.yul\":1271:1277   */\n              dup3\n                /* \"#utility.yul\":1251:1284   */\n              tag_111\n              jump\t// in\n            tag_186:\n                /* \"#utility.yul\":1161:1290   */\n              swap2\n              swap1\n              pop\n              jump\t// out\n                /* \"#utility.yul\":1296:1604   */\n            tag_113:\n                /* \"#utility.yul\":1358:1362   */\n              0x00\n                /* \"#utility.yul\":1448:1466   */\n              0xffffffffffffffff\n                /* \"#utility.yul\":1440:1446   */\n              dup3\n                /* \"#utility.yul\":1437:1467   */\n              gt\n                /* \"#utility.yul\":1434:1490   */\n              iszero\n              tag_188\n              jumpi\n                /* \"#utility.yul\":1470:1488   */\n              tag_189\n              tag_26\n              jump\t// in\n            tag_189:\n                /* \"#utility.yul\":1434:1490   */\n            tag_188:\n                /* \"#utility.yul\":1508:1537   */\n              tag_190\n                /* \"#utility.yul\":1530:1536   */\n              dup3\n                /* \"#utility.yul\":1508:1537   */\n              tag_110\n              jump\t// in\n            tag_190:\n                /* \"#utility.yul\":1500:1537   */\n              swap1\n              pop\n                /* \"#utility.yul\":1592:1596   */\n              0x20\n                /* \"#utility.yul\":1586:1590   */\n              dup2\n                /* \"#utility.yul\":1582:1597   */\n              add\n                /* \"#utility.yul\":1574:1597   */\n              swap1\n              pop\n                /* \"#utility.yul\":1296:1604   */\n              swap2\n              swap1\n              pop\n              jump\t// out\n                /* \"#utility.yul\":1610:1758   */\n            tag_114:\n                /* \"#utility.yul\":1708:1714   */\n              dup3\n                /* \"#utility.yul\":1703:1706   */\n              dup2\n                /* \"#utility.yul\":1698:1701   */\n              dup4\n                /* \"#utility.yul\":1685:1715   */\n              calldatacopy\n                /* \"#utility.yul\":1749:1750   */\n              0x00\n                /* \"#utility.yul\":1740:1746   */\n              dup4\n                /* \"#utility.yul\":1735:1738   */\n              dup4\n                /* \"#utility.yul\":1731:1747   */\n              add\n                /* \"#utility.yul\":1724:1751   */\n              mstore\n                /* \"#utility.yul\":1610:1758   */\n              pop\n              pop\n              pop\n              jump\t// out\n                /* \"#utility.yul\":1764:2189   */\n            tag_115:\n                /* \"#utility.yul\":1842:1847   */\n              0x00\n                /* \"#utility.yul\":1867:1933   */\n              tag_193\n                /* \"#utility.yul\":1883:1932   */\n              tag_194\n                /* \"#utility.yul\":1925:1931   */\n              dup5\n                /* \"#utility.yul\":1883:1932   */\n              tag_113\n              jump\t// in\n            tag_194:\n                /* \"#utility.yul\":1867:1933   */\n              tag_112\n              jump\t// in\n            tag_193:\n                /* \"#utility.yul\":1858:1933   */\n              swap1\n              pop\n                /* \"#utility.yul\":1956:1962   */\n              dup3\n                /* \"#utility.yul\":1949:1954   */\n              dup2\n                /* \"#utility.yul\":1942:1963   */\n              mstore\n                /* \"#utility.yul\":1994:1998   */\n              0x20\n                /* \"#utility.yul\":1987:1992   */\n              dup2\n                /* \"#utility.yul\":1983:1999   */\n              add\n                /* \"#utility.yul\":2032:2035   */\n              dup5\n                /* \"#utility.yul\":2023:2029   */\n              dup5\n                /* \"#utility.yul\":2018:2021   */\n              dup5\n                /* \"#utility.yul\":2014:2030   */\n              add\n                /* \"#utility.yul\":2011:2036   */\n              gt\n                /* \"#utility.yul\":2008:2120   */\n              iszero\n              tag_195\n              jumpi\n                /* \"#utility.yul\":2039:2118   */\n              tag_196\n              tag_109\n              jump\t// in\n            tag_196:\n                /* \"#utility.yul\":2008:2120   */\n            tag_195:\n                /* \"#utility.yul\":2129:2183   */\n              tag_197\n                /* \"#utility.yul\":2176:2182   */\n              dup5\n                /* \"#utility.yul\":2171:2174   */\n              dup3\n                /* \"#utility.yul\":2166:2169   */\n              dup6\n                /* \"#utility.yul\":2129:2183   */\n              tag_114\n              jump\t// in\n            tag_197:\n                /* \"#utility.yul\":1848:2189   */\n              pop\n                /* \"#utility.yul\":1764:2189   */\n              swap4\n              swap3\n              pop\n              pop\n              pop\n              jump\t// out\n                /* \"#utility.yul\":2209:2549   */\n            tag_116:\n                /* \"#utility.yul\":2265:2270   */\n              0x00\n                /* \"#utility.yul\":2314:2317   */\n              dup3\n                /* \"#utility.yul\":2307:2311   */\n              0x1f\n                /* \"#utility.yul\":2299:2305   */\n              dup4\n                /* \"#utility.yul\":2295:2312   */\n              add\n                /* \"#utility.yul\":2291:2318   */\n              slt\n                /* \"#utility.yul\":2281:2403   */\n              tag_199\n              jumpi\n                /* \"#utility.yul\":2322:2401   */\n              tag_200\n              tag_108\n              jump\t// in\n            tag_200:\n                /* \"#utility.yul\":2281:2403   */\n            tag_199:\n                /* \"#utility.yul\":2439:2445   */\n              dup2\n                /* \"#utility.yul\":2426:2446   */\n              calldataload\n                /* \"#utility.yul\":2464:2543   */\n              tag_201\n                /* \"#utility.yul\":2539:2542   */\n              dup5\n                /* \"#utility.yul\":2531:2537   */\n              dup3\n                /* \"#utility.yul\":2524:2528   */\n              0x20\n                /* \"#utility.yul\":2516:2522   */\n              dup7\n                /* \"#utility.yul\":2512:2529   */\n              add\n                /* \"#utility.yul\":2464:2543   */\n              tag_115\n              jump\t// in\n            tag_201:\n                /* \"#utility.yul\":2455:2543   */\n              swap2\n              pop\n                /* \"#utility.yul\":2271:2549   */\n              pop\n                /* \"#utility.yul\":2209:2549   */\n              swap3\n              swap2\n              pop\n              pop\n              jump\t// out\n                /* \"#utility.yul\":2555:2876   */\n            tag_117:\n                /* \"#utility.yul\":2642:2646   */\n              0x00\n                /* \"#utility.yul\":2732:2750   */\n              0xffffffffffffffff\n                /* \"#utility.yul\":2724:2730   */\n              dup3\n                /* \"#utility.yul\":2721:2751   */\n              gt\n                /* \"#utility.yul\":2718:2774   */\n              iszero\n              tag_203\n              jumpi\n                /* \"#utility.yul\":2754:2772   */\n              tag_204\n              tag_26\n              jump\t// in\n            tag_204:\n                /* \"#utility.yul\":2718:2774   */\n            tag_203:\n                /* \"#utility.yul\":2804:2808   */\n              0x20\n                /* \"#utility.yul\":2796:2802   */\n              dup3\n                /* \"#utility.yul\":2792:2809   */\n              mul\n                /* \"#utility.yul\":2784:2809   */\n              swap1\n              pop\n                /* \"#utility.yul\":2864:2868   */\n              0x20\n                /* \"#utility.yul\":2858:2862   */\n              dup2\n                /* \"#utility.yul\":2854:2869   */\n              add\n                /* \"#utility.yul\":2846:2869   */\n              swap1\n              pop\n                /* \"#utility.yul\":2555:2876   */\n              swap2\n              swap1\n              pop\n              jump\t// out\n                /* \"#utility.yul\":2882:2999   */\n            tag_118:\n                /* \"#utility.yul\":2991:2992   */\n              0x00\n                /* \"#utility.yul\":2988:2989   */\n              dup1\n                /* \"#utility.yul\":2981:2993   */\n              revert\n                /* \"#utility.yul\":3021:3966   */\n            tag_119:\n                /* \"#utility.yul\":3127:3132   */\n              0x00\n                /* \"#utility.yul\":3152:3243   */\n              tag_207\n                /* \"#utility.yul\":3168:3242   */\n              tag_208\n                /* \"#utility.yul\":3235:3241   */\n              dup5\n                /* \"#utility.yul\":3168:3242   */\n              tag_117\n              jump\t// in\n            tag_208:\n                /* \"#utility.yul\":3152:3243   */\n              tag_112\n              jump\t// in\n            tag_207:\n                /* \"#utility.yul\":3143:3243   */\n              swap1\n              pop\n                /* \"#utility.yul\":3263:3268   */\n              dup1\n                /* \"#utility.yul\":3292:3298   */\n              dup4\n                /* \"#utility.yul\":3285:3290   */\n              dup3\n                /* \"#utility.yul\":3278:3299   */\n              mstore\n                /* \"#utility.yul\":3326:3330   */\n              0x20\n                /* \"#utility.yul\":3319:3324   */\n              dup3\n                /* \"#utility.yul\":3315:3331   */\n              add\n                /* \"#utility.yul\":3308:3331   */\n              swap1\n              pop\n                /* \"#utility.yul\":3379:3383   */\n              0x20\n                /* \"#utility.yul\":3371:3377   */\n              dup5\n                /* \"#utility.yul\":3367:3384   */\n              mul\n                /* \"#utility.yul\":3359:3365   */\n              dup4\n                /* \"#utility.yul\":3355:3385   */\n              add\n                /* \"#utility.yul\":3408:3411   */\n              dup6\n                /* \"#utility.yul\":3400:3406   */\n              dup2\n                /* \"#utility.yul\":3397:3412   */\n              gt\n                /* \"#utility.yul\":3394:3516   */\n              iszero\n              tag_209\n              jumpi\n                /* \"#utility.yul\":3427:3506   */\n              tag_210\n              tag_118\n              jump\t// in\n            tag_210:\n                /* \"#utility.yul\":3394:3516   */\n            tag_209:\n                /* \"#utility.yul\":3542:3548   */\n              dup4\n                /* \"#utility.yul\":3525:3960   */\n            tag_211:\n                /* \"#utility.yul\":3559:3565   */\n              dup2\n                /* \"#utility.yul\":3554:3557   */\n              dup2\n                /* \"#utility.yul\":3551:3566   */\n              lt\n                /* \"#utility.yul\":3525:3960   */\n              iszero\n              tag_213\n              jumpi\n                /* \"#utility.yul\":3648:3651   */\n              dup1\n                /* \"#utility.yul\":3635:3652   */\n              calldataload\n                /* \"#utility.yul\":3684:3702   */\n              0xffffffffffffffff\n                /* \"#utility.yul\":3671:3682   */\n              dup2\n                /* \"#utility.yul\":3668:3703   */\n              gt\n                /* \"#utility.yul\":3665:3787   */\n              iszero\n              tag_214\n              jumpi\n                /* \"#utility.yul\":3706:3785   */\n              tag_215\n              tag_108\n              jump\t// in\n            tag_215:\n                /* \"#utility.yul\":3665:3787   */\n            tag_214:\n                /* \"#utility.yul\":3830:3841   */\n              dup1\n                /* \"#utility.yul\":3822:3828   */\n              dup7\n                /* \"#utility.yul\":3818:3842   */\n              add\n                /* \"#utility.yul\":3868:3915   */\n              tag_216\n                /* \"#utility.yul\":3911:3914   */\n              dup10\n                /* \"#utility.yul\":3899:3909   */\n              dup3\n                /* \"#utility.yul\":3868:3915   */\n              tag_116\n              jump\t// in\n            tag_216:\n                /* \"#utility.yul\":3863:3866   */\n              dup6\n                /* \"#utility.yul\":3856:3916   */\n              mstore\n                /* \"#utility.yul\":3945:3949   */\n              0x20\n                /* \"#utility.yul\":3940:3943   */\n              dup6\n                /* \"#utility.yul\":3936:3950   */\n              add\n                /* \"#utility.yul\":3929:3950   */\n              swap5\n              pop\n                /* \"#utility.yul\":3601:3960   */\n              pop\n              pop\n                /* \"#utility.yul\":3585:3589   */\n              0x20\n                /* \"#utility.yul\":3580:3583   */\n              dup2\n                /* \"#utility.yul\":3576:3590   */\n              add\n                /* \"#utility.yul\":3569:3590   */\n              swap1\n              pop\n                /* \"#utility.yul\":3525:3960   */\n              jump(tag_211)\n            tag_213:\n                /* \"#utility.yul\":3529:3550   */\n              pop\n                /* \"#utility.yul\":3133:3966   */\n              pop\n              pop\n                /* \"#utility.yul\":3021:3966   */\n              swap4\n              swap3\n              pop\n              pop\n              pop\n              jump\t// out\n                /* \"#utility.yul\":3988:4378   */\n            tag_120:\n                /* \"#utility.yul\":4069:4074   */\n              0x00\n                /* \"#utility.yul\":4118:4121   */\n              dup3\n                /* \"#utility.yul\":4111:4115   */\n              0x1f\n                /* \"#utility.yul\":4103:4109   */\n              dup4\n                /* \"#utility.yul\":4099:4116   */\n              add\n                /* \"#utility.yul\":4095:4122   */\n              slt\n                /* \"#utility.yul\":4085:4207   */\n              tag_218\n              jumpi\n                /* \"#utility.yul\":4126:4205   */\n              tag_219\n              tag_108\n              jump\t// in\n            tag_219:\n                /* \"#utility.yul\":4085:4207   */\n            tag_218:\n                /* \"#utility.yul\":4243:4249   */\n              dup2\n                /* \"#utility.yul\":4230:4250   */\n              calldataload\n                /* \"#utility.yul\":4268:4372   */\n              tag_220\n                /* \"#utility.yul\":4368:4371   */\n              dup5\n                /* \"#utility.yul\":4360:4366   */\n              dup3\n                /* \"#utility.yul\":4353:4357   */\n              0x20\n                /* \"#utility.yul\":4345:4351   */\n              dup7\n                /* \"#utility.yul\":4341:4358   */\n              add\n                /* \"#utility.yul\":4268:4372   */\n              tag_119\n              jump\t// in\n            tag_220:\n                /* \"#utility.yul\":4259:4372   */\n              swap2\n              pop\n                /* \"#utility.yul\":4075:4378   */\n              pop\n                /* \"#utility.yul\":3988:4378   */\n              swap3\n              swap2\n              pop\n              pop\n              jump\t// out\n                /* \"#utility.yul\":4384:4474   */\n            tag_121:\n                /* \"#utility.yul\":4418:4425   */\n              0x00\n                /* \"#utility.yul\":4461:4466   */\n              dup2\n                /* \"#utility.yul\":4454:4467   */\n              iszero\n                /* \"#utility.yul\":4447:4468   */\n              iszero\n                /* \"#utility.yul\":4436:4468   */\n              swap1\n              pop\n                /* \"#utility.yul\":4384:4474   */\n              swap2\n              swap1\n              pop\n              jump\t// out\n                /* \"#utility.yul\":4480:4596   */\n            tag_122:\n                /* \"#utility.yul\":4550:4571   */\n              tag_223\n                /* \"#utility.yul\":4565:4570   */\n              dup2\n                /* \"#utility.yul\":4550:4571   */\n              tag_121\n              jump\t// in\n            tag_223:\n                /* \"#utility.yul\":4543:4548   */\n              dup2\n                /* \"#utility.yul\":4540:4572   */\n              eq\n                /* \"#utility.yul\":4530:4590   */\n              tag_224\n              jumpi\n                /* \"#utility.yul\":4586:4587   */\n              0x00\n                /* \"#utility.yul\":4583:4584   */\n              dup1\n                /* \"#utility.yul\":4576:4588   */\n              revert\n                /* \"#utility.yul\":4530:4590   */\n            tag_224:\n                /* \"#utility.yul\":4480:4596   */\n              pop\n              jump\t// out\n                /* \"#utility.yul\":4602:4735   */\n            tag_123:\n                /* \"#utility.yul\":4645:4650   */\n              0x00\n                /* \"#utility.yul\":4683:4689   */\n              dup2\n                /* \"#utility.yul\":4670:4690   */\n              calldataload\n                /* \"#utility.yul\":4661:4690   */\n              swap1\n              pop\n                /* \"#utility.yul\":4699:4729   */\n              tag_226\n                /* \"#utility.yul\":4723:4728   */\n              dup2\n                /* \"#utility.yul\":4699:4729   */\n              tag_122\n              jump\t// in\n            tag_226:\n                /* \"#utility.yul\":4602:4735   */\n              swap3\n              swap2\n              pop\n              pop\n              jump\t// out\n                /* \"#utility.yul\":4741:5764   */\n            tag_8:\n                /* \"#utility.yul\":4860:4866   */\n              0x00\n                /* \"#utility.yul\":4868:4874   */\n              dup1\n                /* \"#utility.yul\":4876:4882   */\n              0x00\n                /* \"#utility.yul\":4925:4927   */\n              0x60\n                /* \"#utility.yul\":4913:4922   */\n              dup5\n                /* \"#utility.yul\":4904:4911   */\n              dup7\n                /* \"#utility.yul\":4900:4923   */\n              sub\n                /* \"#utility.yul\":4896:4928   */\n              slt\n                /* \"#utility.yul\":4893:5012   */\n              iszero\n              tag_228\n              jumpi\n                /* \"#utility.yul\":4931:5010   */\n              tag_229\n              tag_106\n              jump\t// in\n            tag_229:\n                /* \"#utility.yul\":4893:5012   */\n            tag_228:\n                /* \"#utility.yul\":5079:5080   */\n              0x00\n                /* \"#utility.yul\":5068:5077   */\n              dup5\n                /* \"#utility.yul\":5064:5081   */\n              add\n                /* \"#utility.yul\":5051:5082   */\n              calldataload\n                /* \"#utility.yul\":5109:5127   */\n              0xffffffffffffffff\n                /* \"#utility.yul\":5101:5107   */\n              dup2\n                /* \"#utility.yul\":5098:5128   */\n              gt\n                /* \"#utility.yul\":5095:5212   */\n              iszero\n              tag_230\n              jumpi\n                /* \"#utility.yul\":5131:5210   */\n              tag_231\n              tag_107\n              jump\t// in\n            tag_231:\n                /* \"#utility.yul\":5095:5212   */\n            tag_230:\n                /* \"#utility.yul\":5236:5299   */\n              tag_232\n                /* \"#utility.yul\":5291:5298   */\n              dup7\n                /* \"#utility.yul\":5282:5288   */\n              dup3\n                /* \"#utility.yul\":5271:5280   */\n              dup8\n                /* \"#utility.yul\":5267:5289   */\n              add\n                /* \"#utility.yul\":5236:5299   */\n              tag_116\n              jump\t// in\n            tag_232:\n                /* \"#utility.yul\":5226:5299   */\n              swap4\n              pop\n                /* \"#utility.yul\":5022:5309   */\n              pop\n                /* \"#utility.yul\":5376:5378   */\n              0x20\n                /* \"#utility.yul\":5365:5374   */\n              dup5\n                /* \"#utility.yul\":5361:5379   */\n              add\n                /* \"#utility.yul\":5348:5380   */\n              calldataload\n                /* \"#utility.yul\":5407:5425   */\n              0xffffffffffffffff\n                /* \"#utility.yul\":5399:5405   */\n              dup2\n                /* \"#utility.yul\":5396:5426   */\n              gt\n                /* \"#utility.yul\":5393:5510   */\n              iszero\n              tag_233\n              jumpi\n                /* \"#utility.yul\":5429:5508   */\n              tag_234\n              tag_107\n              jump\t// in\n            tag_234:\n                /* \"#utility.yul\":5393:5510   */\n            tag_233:\n                /* \"#utility.yul\":5534:5622   */\n              tag_235\n                /* \"#utility.yul\":5614:5621   */\n              dup7\n                /* \"#utility.yul\":5605:5611   */\n              dup3\n                /* \"#utility.yul\":5594:5603   */\n              dup8\n                /* \"#utility.yul\":5590:5612   */\n              add\n                /* \"#utility.yul\":5534:5622   */\n              tag_120\n              jump\t// in\n            tag_235:\n                /* \"#utility.yul\":5524:5622   */\n              swap3\n              pop\n                /* \"#utility.yul\":5319:5632   */\n              pop\n                /* \"#utility.yul\":5671:5673   */\n              0x40\n                /* \"#utility.yul\":5697:5747   */\n              tag_236\n                /* \"#utility.yul\":5739:5746   */\n              dup7\n                /* \"#utility.yul\":5730:5736   */\n              dup3\n                /* \"#utility.yul\":5719:5728   */\n              dup8\n                /* \"#utility.yul\":5715:5737   */\n              add\n                /* \"#utility.yul\":5697:5747   */\n              tag_123\n              jump\t// in\n            tag_236:\n                /* \"#utility.yul\":5687:5747   */\n              swap2\n              pop\n                /* \"#utility.yul\":5642:5757   */\n              pop\n                /* \"#utility.yul\":4741:5764   */\n              swap3\n              pop\n              swap3\n              pop\n              swap3\n              jump\t// out\n                /* \"#utility.yul\":5770:5847   */\n            tag_124:\n                /* \"#utility.yul\":5807:5814   */\n              0x00\n                /* \"#utility.yul\":5836:5841   */\n              dup2\n                /* \"#utility.yul\":5825:5841   */\n              swap1\n              pop\n                /* \"#utility.yul\":5770:5847   */\n              swap2\n              swap1\n              pop\n              jump\t// out\n                /* \"#utility.yul\":5853:5975   */\n            tag_125:\n                /* \"#utility.yul\":5926:5950   */\n              tag_239\n                /* \"#utility.yul\":5944:5949   */\n              dup2\n                /* \"#utility.yul\":5926:5950   */\n              tag_124\n              jump\t// in\n            tag_239:\n                /* \"#utility.yul\":5919:5924   */\n              dup2\n                /* \"#utility.yul\":5916:5951   */\n              eq\n                /* \"#utility.yul\":5906:5969   */\n              tag_240\n              jumpi\n                /* \"#utility.yul\":5965:5966   */\n              0x00\n                /* \"#utility.yul\":5962:5963   */\n              dup1\n                /* \"#utility.yul\":5955:5967   */\n              revert\n                /* \"#utility.yul\":5906:5969   */\n            tag_240:\n                /* \"#utility.yul\":5853:5975   */\n              pop\n              jump\t// out\n                /* \"#utility.yul\":5981:6120   */\n            tag_126:\n                /* \"#utility.yul\":6027:6032   */\n              0x00\n                /* \"#utility.yul\":6065:6071   */\n              dup2\n                /* \"#utility.yul\":6052:6072   */\n              calldataload\n                /* \"#utility.yul\":6043:6072   */\n              swap1\n              pop\n                /* \"#utility.yul\":6081:6114   */\n              tag_242\n                /* \"#utility.yul\":6108:6113   */\n              dup2\n                /* \"#utility.yul\":6081:6114   */\n              tag_125\n              jump\t// in\n            tag_242:\n                /* \"#utility.yul\":5981:6120   */\n              swap3\n              swap2\n              pop\n              pop\n              jump\t// out\n                /* \"#utility.yul\":6126:6455   */\n            tag_12:\n                /* \"#utility.yul\":6185:6191   */\n              0x00\n                /* \"#utility.yul\":6234:6236   */\n              0x20\n                /* \"#utility.yul\":6222:6231   */\n              dup3\n                /* \"#utility.yul\":6213:6220   */\n              dup5\n                /* \"#utility.yul\":6209:6232   */\n              sub\n                /* \"#utility.yul\":6205:6237   */\n              slt\n                /* \"#utility.yul\":6202:6321   */\n              iszero\n              tag_244\n              jumpi\n                /* \"#utility.yul\":6240:6319   */\n              tag_245\n              tag_106\n              jump\t// in\n            tag_245:\n                /* \"#utility.yul\":6202:6321   */\n            tag_244:\n                /* \"#utility.yul\":6360:6361   */\n              0x00\n                /* \"#utility.yul\":6385:6438   */\n              tag_246\n                /* \"#utility.yul\":6430:6437   */\n              dup5\n                /* \"#utility.yul\":6421:6427   */\n              dup3\n                /* \"#utility.yul\":6410:6419   */\n              dup6\n                /* \"#utility.yul\":6406:6428   */\n              add\n                /* \"#utility.yul\":6385:6438   */\n              tag_126\n              jump\t// in\n            tag_246:\n                /* \"#utility.yul\":6375:6438   */\n              swap2\n              pop\n                /* \"#utility.yul\":6331:6448   */\n              pop\n                /* \"#utility.yul\":6126:6455   */\n              swap3\n              swap2\n              pop\n              pop\n              jump\t// out\n                /* \"#utility.yul\":6461:6560   */\n            tag_127:\n                /* \"#utility.yul\":6513:6519   */\n              0x00\n                /* \"#utility.yul\":6547:6552   */\n              dup2\n                /* \"#utility.yul\":6541:6553   */\n              mload\n                /* \"#utility.yul\":6531:6553   */\n              swap1\n              pop\n                /* \"#utility.yul\":6461:6560   */\n              swap2\n              swap1\n              pop\n              jump\t// out\n                /* \"#utility.yul\":6566:6725   */\n            tag_128:\n                /* \"#utility.yul\":6640:6651   */\n              0x00\n                /* \"#utility.yul\":6674:6680   */\n              dup3\n                /* \"#utility.yul\":6669:6672   */\n              dup3\n                /* \"#utility.yul\":6662:6681   */\n              mstore\n                /* \"#utility.yul\":6714:6718   */\n              0x20\n                /* \"#utility.yul\":6709:6712   */\n              dup3\n                /* \"#utility.yul\":6705:6719   */\n              add\n                /* \"#utility.yul\":6690:6719   */\n              swap1\n              pop\n                /* \"#utility.yul\":6566:6725   */\n              swap3\n              swap2\n              pop\n              pop\n              jump\t// out\n                /* \"#utility.yul\":6731:6870   */\n            tag_129:\n                /* \"#utility.yul\":6820:6826   */\n              dup3\n                /* \"#utility.yul\":6815:6818   */\n              dup2\n                /* \"#utility.yul\":6810:6813   */\n              dup4\n                /* \"#utility.yul\":6804:6827   */\n              mcopy\n                /* \"#utility.yul\":6861:6862   */\n              0x00\n                /* \"#utility.yul\":6852:6858   */\n              dup4\n                /* \"#utility.yul\":6847:6850   */\n              dup4\n                /* \"#utility.yul\":6843:6859   */\n              add\n                /* \"#utility.yul\":6836:6863   */\n              mstore\n                /* \"#utility.yul\":6731:6870   */\n              pop\n              pop\n              pop\n              jump\t// out\n                /* \"#utility.yul\":6876:7233   */\n            tag_130:\n                /* \"#utility.yul\":6954:6957   */\n              0x00\n                /* \"#utility.yul\":6982:7021   */\n              tag_251\n                /* \"#utility.yul\":7015:7020   */\n              dup3\n                /* \"#utility.yul\":6982:7021   */\n              tag_127\n              jump\t// in\n            tag_251:\n                /* \"#utility.yul\":7037:7098   */\n              tag_252\n                /* \"#utility.yul\":7091:7097   */\n              dup2\n                /* \"#utility.yul\":7086:7089   */\n              dup6\n                /* \"#utility.yul\":7037:7098   */\n              tag_128\n              jump\t// in\n            tag_252:\n                /* \"#utility.yul\":7030:7098   */\n              swap4\n              pop\n                /* \"#utility.yul\":7107:7172   */\n              tag_253\n                /* \"#utility.yul\":7165:7171   */\n              dup2\n                /* \"#utility.yul\":7160:7163   */\n              dup6\n                /* \"#utility.yul\":7153:7157   */\n              0x20\n                /* \"#utility.yul\":7146:7151   */\n              dup7\n                /* \"#utility.yul\":7142:7158   */\n              add\n                /* \"#utility.yul\":7107:7172   */\n              tag_129\n              jump\t// in\n            tag_253:\n                /* \"#utility.yul\":7197:7226   */\n              tag_254\n                /* \"#utility.yul\":7219:7225   */\n              dup2\n                /* \"#utility.yul\":7197:7226   */\n              tag_110\n              jump\t// in\n            tag_254:\n                /* \"#utility.yul\":7192:7195   */\n              dup5\n                /* \"#utility.yul\":7188:7227   */\n              add\n                /* \"#utility.yul\":7181:7227   */\n              swap2\n              pop\n                /* \"#utility.yul\":6958:7233   */\n              pop\n                /* \"#utility.yul\":6876:7233   */\n              swap3\n              swap2\n              pop\n              pop\n              jump\t// out\n                /* \"#utility.yul\":7239:7363   */\n            tag_131:\n                /* \"#utility.yul\":7316:7322   */\n              0x00\n                /* \"#utility.yul\":7350:7355   */\n              dup2\n                /* \"#utility.yul\":7344:7356   */\n              mload\n                /* \"#utility.yul\":7334:7356   */\n              swap1\n              pop\n                /* \"#utility.yul\":7239:7363   */\n              swap2\n              swap1\n              pop\n              jump\t// out\n                /* \"#utility.yul\":7369:7553   */\n            tag_132:\n                /* \"#utility.yul\":7468:7479   */\n              0x00\n                /* \"#utility.yul\":7502:7508   */\n              dup3\n                /* \"#utility.yul\":7497:7500   */\n              dup3\n                /* \"#utility.yul\":7490:7509   */\n              mstore\n                /* \"#utility.yul\":7542:7546   */\n              0x20\n                /* \"#utility.yul\":7537:7540   */\n              dup3\n                /* \"#utility.yul\":7533:7547   */\n              add\n                /* \"#utility.yul\":7518:7547   */\n              swap1\n              pop\n                /* \"#utility.yul\":7369:7553   */\n              swap3\n              swap2\n              pop\n              pop\n              jump\t// out\n                /* \"#utility.yul\":7559:7701   */\n            tag_133:\n                /* \"#utility.yul\":7636:7640   */\n              0x00\n                /* \"#utility.yul\":7659:7662   */\n              dup2\n                /* \"#utility.yul\":7651:7662   */\n              swap1\n              pop\n                /* \"#utility.yul\":7689:7693   */\n              0x20\n                /* \"#utility.yul\":7684:7687   */\n              dup3\n                /* \"#utility.yul\":7680:7694   */\n              add\n                /* \"#utility.yul\":7672:7694   */\n              swap1\n              pop\n                /* \"#utility.yul\":7559:7701   */\n              swap2\n              swap1\n              pop\n              jump\t// out\n                /* \"#utility.yul\":7707:7903   */\n            tag_134:\n                /* \"#utility.yul\":7796:7806   */\n              0x00\n                /* \"#utility.yul\":7831:7897   */\n              tag_259\n                /* \"#utility.yul\":7893:7896   */\n              dup4\n                /* \"#utility.yul\":7885:7891   */\n              dup4\n                /* \"#utility.yul\":7831:7897   */\n              tag_130\n              jump\t// in\n            tag_259:\n                /* \"#utility.yul\":7817:7897   */\n              swap1\n              pop\n                /* \"#utility.yul\":7707:7903   */\n              swap3\n              swap2\n              pop\n              pop\n              jump\t// out\n                /* \"#utility.yul\":7909:8032   */\n            tag_135:\n                /* \"#utility.yul\":7989:7993   */\n              0x00\n                /* \"#utility.yul\":8021:8025   */\n              0x20\n                /* \"#utility.yul\":8016:8019   */\n              dup3\n                /* \"#utility.yul\":8012:8026   */\n              add\n                /* \"#utility.yul\":8004:8026   */\n              swap1\n              pop\n                /* \"#utility.yul\":7909:8032   */\n              swap2\n              swap1\n              pop\n              jump\t// out\n                /* \"#utility.yul\":8066:9037   */\n            tag_136:\n                /* \"#utility.yul\":8195:8198   */\n              0x00\n                /* \"#utility.yul\":8224:8288   */\n              tag_262\n                /* \"#utility.yul\":8282:8287   */\n              dup3\n                /* \"#utility.yul\":8224:8288   */\n              tag_131\n              jump\t// in\n            tag_262:\n                /* \"#utility.yul\":8304:8390   */\n              tag_263\n                /* \"#utility.yul\":8383:8389   */\n              dup2\n                /* \"#utility.yul\":8378:8381   */\n              dup6\n                /* \"#utility.yul\":8304:8390   */\n              tag_132\n              jump\t// in\n            tag_263:\n                /* \"#utility.yul\":8297:8390   */\n              swap4\n              pop\n                /* \"#utility.yul\":8416:8419   */\n              dup4\n                /* \"#utility.yul\":8461:8465   */\n              0x20\n                /* \"#utility.yul\":8453:8459   */\n              dup3\n                /* \"#utility.yul\":8449:8466   */\n              mul\n                /* \"#utility.yul\":8444:8447   */\n              dup6\n                /* \"#utility.yul\":8440:8467   */\n              add\n                /* \"#utility.yul\":8491:8557   */\n              tag_264\n                /* \"#utility.yul\":8551:8556   */\n              dup6\n                /* \"#utility.yul\":8491:8557   */\n              tag_133\n              jump\t// in\n            tag_264:\n                /* \"#utility.yul\":8580:8587   */\n              dup1\n                /* \"#utility.yul\":8611:8612   */\n              0x00\n                /* \"#utility.yul\":8596:8992   */\n            tag_265:\n                /* \"#utility.yul\":8621:8627   */\n              dup6\n                /* \"#utility.yul\":8618:8619   */\n              dup2\n                /* \"#utility.yul\":8615:8628   */\n              lt\n                /* \"#utility.yul\":8596:8992   */\n              iszero\n              tag_267\n              jumpi\n                /* \"#utility.yul\":8692:8701   */\n              dup5\n                /* \"#utility.yul\":8686:8690   */\n              dup5\n                /* \"#utility.yul\":8682:8702   */\n              sub\n                /* \"#utility.yul\":8677:8680   */\n              dup10\n                /* \"#utility.yul\":8670:8703   */\n              mstore\n                /* \"#utility.yul\":8743:8749   */\n              dup2\n                /* \"#utility.yul\":8737:8750   */\n              mload\n                /* \"#utility.yul\":8771:8855   */\n              tag_268\n                /* \"#utility.yul\":8850:8854   */\n              dup6\n                /* \"#utility.yul\":8835:8848   */\n              dup3\n                /* \"#utility.yul\":8771:8855   */\n              tag_134\n              jump\t// in\n            tag_268:\n                /* \"#utility.yul\":8763:8855   */\n              swap5\n              pop\n                /* \"#utility.yul\":8878:8948   */\n              tag_269\n                /* \"#utility.yul\":8941:8947   */\n              dup4\n                /* \"#utility.yul\":8878:8948   */\n              tag_135\n              jump\t// in\n            tag_269:\n                /* \"#utility.yul\":8868:8948   */\n              swap3\n              pop\n                /* \"#utility.yul\":8977:8981   */\n              0x20\n                /* \"#utility.yul\":8972:8975   */\n              dup11\n                /* \"#utility.yul\":8968:8982   */\n              add\n                /* \"#utility.yul\":8961:8982   */\n              swap10\n              pop\n                /* \"#utility.yul\":8656:8992   */\n              pop\n                /* \"#utility.yul\":8643:8644   */\n              0x01\n                /* \"#utility.yul\":8640:8641   */\n              dup2\n                /* \"#utility.yul\":8636:8645   */\n              add\n                /* \"#utility.yul\":8631:8645   */\n              swap1\n              pop\n                /* \"#utility.yul\":8596:8992   */\n              jump(tag_265)\n            tag_267:\n                /* \"#utility.yul\":8600:8614   */\n              pop\n                /* \"#utility.yul\":9008:9012   */\n              dup3\n                /* \"#utility.yul\":9001:9012   */\n              swap8\n              pop\n                /* \"#utility.yul\":9028:9031   */\n              dup8\n                /* \"#utility.yul\":9021:9031   */\n              swap6\n              pop\n                /* \"#utility.yul\":8200:9037   */\n              pop\n              pop\n              pop\n              pop\n              pop\n                /* \"#utility.yul\":8066:9037   */\n              swap3\n              swap2\n              pop\n              pop\n              jump\t// out\n                /* \"#utility.yul\":9043:9157   */\n            tag_137:\n                /* \"#utility.yul\":9110:9116   */\n              0x00\n                /* \"#utility.yul\":9144:9149   */\n              dup2\n                /* \"#utility.yul\":9138:9150   */\n              mload\n                /* \"#utility.yul\":9128:9150   */\n              swap1\n              pop\n                /* \"#utility.yul\":9043:9157   */\n              swap2\n              swap1\n              pop\n              jump\t// out\n                /* \"#utility.yul\":9163:9337   */\n            tag_138:\n                /* \"#utility.yul\":9252:9263   */\n              0x00\n                /* \"#utility.yul\":9286:9292   */\n              dup3\n                /* \"#utility.yul\":9281:9284   */\n              dup3\n                /* \"#utility.yul\":9274:9293   */\n              mstore\n                /* \"#utility.yul\":9326:9330   */\n              0x20\n                /* \"#utility.yul\":9321:9324   */\n              dup3\n                /* \"#utility.yul\":9317:9331   */\n              add\n                /* \"#utility.yul\":9302:9331   */\n              swap1\n              pop\n                /* \"#utility.yul\":9163:9337   */\n              swap3\n              swap2\n              pop\n              pop\n              jump\t// out\n                /* \"#utility.yul\":9343:9475   */\n            tag_139:\n                /* \"#utility.yul\":9410:9414   */\n              0x00\n                /* \"#utility.yul\":9433:9436   */\n              dup2\n                /* \"#utility.yul\":9425:9436   */\n              swap1\n              pop\n                /* \"#utility.yul\":9463:9467   */\n              0x20\n                /* \"#utility.yul\":9458:9461   */\n              dup3\n                /* \"#utility.yul\":9454:9468   */\n              add\n                /* \"#utility.yul\":9446:9468   */\n              swap1\n              pop\n                /* \"#utility.yul\":9343:9475   */\n              swap2\n              swap1\n              pop\n              jump\t// out\n                /* \"#utility.yul\":9481:9589   */\n            tag_140:\n                /* \"#utility.yul\":9558:9582   */\n              tag_274\n                /* \"#utility.yul\":9576:9581   */\n              dup2\n                /* \"#utility.yul\":9558:9582   */\n              tag_124\n              jump\t// in\n            tag_274:\n                /* \"#utility.yul\":9553:9556   */\n              dup3\n                /* \"#utility.yul\":9546:9583   */\n              mstore\n                /* \"#utility.yul\":9481:9589   */\n              pop\n              pop\n              jump\t// out\n                /* \"#utility.yul\":9595:9774   */\n            tag_141:\n                /* \"#utility.yul\":9664:9674   */\n              0x00\n                /* \"#utility.yul\":9685:9731   */\n              tag_276\n                /* \"#utility.yul\":9727:9730   */\n              dup4\n                /* \"#utility.yul\":9719:9725   */\n              dup4\n                /* \"#utility.yul\":9685:9731   */\n              tag_140\n              jump\t// in\n            tag_276:\n                /* \"#utility.yul\":9763:9767   */\n              0x20\n                /* \"#utility.yul\":9758:9761   */\n              dup4\n                /* \"#utility.yul\":9754:9768   */\n              add\n                /* \"#utility.yul\":9740:9768   */\n              swap1\n              pop\n                /* \"#utility.yul\":9595:9774   */\n              swap3\n              swap2\n              pop\n              pop\n              jump\t// out\n                /* \"#utility.yul\":9780:9893   */\n            tag_142:\n                /* \"#utility.yul\":9850:9854   */\n              0x00\n                /* \"#utility.yul\":9882:9886   */\n              0x20\n                /* \"#utility.yul\":9877:9880   */\n              dup3\n                /* \"#utility.yul\":9873:9887   */\n              add\n                /* \"#utility.yul\":9865:9887   */\n              swap1\n              pop\n                /* \"#utility.yul\":9780:9893   */\n              swap2\n              swap1\n              pop\n              jump\t// out\n                /* \"#utility.yul\":9929:10641   */\n            tag_143:\n                /* \"#utility.yul\":10038:10041   */\n              0x00\n                /* \"#utility.yul\":10067:10121   */\n              tag_279\n                /* \"#utility.yul\":10115:10120   */\n              dup3\n                /* \"#utility.yul\":10067:10121   */\n              tag_137\n              jump\t// in\n            tag_279:\n                /* \"#utility.yul\":10137:10213   */\n              tag_280\n                /* \"#utility.yul\":10206:10212   */\n              dup2\n                /* \"#utility.yul\":10201:10204   */\n              dup6\n                /* \"#utility.yul\":10137:10213   */\n              tag_138\n              jump\t// in\n            tag_280:\n                /* \"#utility.yul\":10130:10213   */\n              swap4\n              pop\n                /* \"#utility.yul\":10237:10293   */\n              tag_281\n                /* \"#utility.yul\":10287:10292   */\n              dup4\n                /* \"#utility.yul\":10237:10293   */\n              tag_139\n              jump\t// in\n            tag_281:\n                /* \"#utility.yul\":10316:10323   */\n              dup1\n                /* \"#utility.yul\":10347:10348   */\n              0x00\n                /* \"#utility.yul\":10332:10616   */\n            tag_282:\n                /* \"#utility.yul\":10357:10363   */\n              dup4\n                /* \"#utility.yul\":10354:10355   */\n              dup2\n                /* \"#utility.yul\":10351:10364   */\n              lt\n                /* \"#utility.yul\":10332:10616   */\n              iszero\n              tag_284\n              jumpi\n                /* \"#utility.yul\":10433:10439   */\n              dup2\n                /* \"#utility.yul\":10427:10440   */\n              mload\n                /* \"#utility.yul\":10460:10523   */\n              tag_285\n                /* \"#utility.yul\":10519:10522   */\n              dup9\n                /* \"#utility.yul\":10504:10517   */\n              dup3\n                /* \"#utility.yul\":10460:10523   */\n              tag_141\n              jump\t// in\n            tag_285:\n                /* \"#utility.yul\":10453:10523   */\n              swap8\n              pop\n                /* \"#utility.yul\":10546:10606   */\n              tag_286\n                /* \"#utility.yul\":10599:10605   */\n              dup4\n                /* \"#utility.yul\":10546:10606   */\n              tag_142\n              jump\t// in\n            tag_286:\n                /* \"#utility.yul\":10536:10606   */\n              swap3\n              pop\n                /* \"#utility.yul\":10392:10616   */\n              pop\n                /* \"#utility.yul\":10379:10380   */\n              0x01\n                /* \"#utility.yul\":10376:10377   */\n              dup2\n                /* \"#utility.yul\":10372:10381   */\n              add\n                /* \"#utility.yul\":10367:10381   */\n              swap1\n              pop\n                /* \"#utility.yul\":10332:10616   */\n              jump(tag_282)\n            tag_284:\n                /* \"#utility.yul\":10336:10350   */\n              pop\n                /* \"#utility.yul\":10632:10635   */\n              dup6\n                /* \"#utility.yul\":10625:10635   */\n              swap4\n              pop\n                /* \"#utility.yul\":10043:10641   */\n              pop\n              pop\n              pop\n                /* \"#utility.yul\":9929:10641   */\n              swap3\n              swap2\n              pop\n              pop\n              jump\t// out\n                /* \"#utility.yul\":10647:10746   */\n            tag_144:\n                /* \"#utility.yul\":10718:10739   */\n              tag_288\n                /* \"#utility.yul\":10733:10738   */\n              dup2\n                /* \"#utility.yul\":10718:10739   */\n              tag_121\n              jump\t// in\n            tag_288:\n                /* \"#utility.yul\":10713:10716   */\n              dup3\n                /* \"#utility.yul\":10706:10740   */\n              mstore\n                /* \"#utility.yul\":10647:10746   */\n              pop\n              pop\n              jump\t// out\n                /* \"#utility.yul\":10802:11996   */\n            tag_145:\n                /* \"#utility.yul\":10919:10922   */\n              0x00\n                /* \"#utility.yul\":10955:10959   */\n              0x80\n                /* \"#utility.yul\":10950:10953   */\n              dup4\n                /* \"#utility.yul\":10946:10960   */\n              add\n                /* \"#utility.yul\":11046:11050   */\n              0x00\n                /* \"#utility.yul\":11039:11044   */\n              dup4\n                /* \"#utility.yul\":11035:11051   */\n              add\n                /* \"#utility.yul\":11029:11052   */\n              mload\n                /* \"#utility.yul\":11099:11102   */\n              dup5\n                /* \"#utility.yul\":11093:11097   */\n              dup3\n                /* \"#utility.yul\":11089:11103   */\n              sub\n                /* \"#utility.yul\":11082:11086   */\n              0x00\n                /* \"#utility.yul\":11077:11080   */\n              dup7\n                /* \"#utility.yul\":11073:11087   */\n              add\n                /* \"#utility.yul\":11066:11104   */\n              mstore\n                /* \"#utility.yul\":11125:11198   */\n              tag_290\n                /* \"#utility.yul\":11193:11197   */\n              dup3\n                /* \"#utility.yul\":11179:11191   */\n              dup3\n                /* \"#utility.yul\":11125:11198   */\n              tag_130\n              jump\t// in\n            tag_290:\n                /* \"#utility.yul\":11117:11198   */\n              swap2\n              pop\n                /* \"#utility.yul\":10970:11209   */\n              pop\n                /* \"#utility.yul\":11294:11298   */\n              0x20\n                /* \"#utility.yul\":11287:11292   */\n              dup4\n                /* \"#utility.yul\":11283:11299   */\n              add\n                /* \"#utility.yul\":11277:11300   */\n              mload\n                /* \"#utility.yul\":11347:11350   */\n              dup5\n                /* \"#utility.yul\":11341:11345   */\n              dup3\n                /* \"#utility.yul\":11337:11351   */\n              sub\n                /* \"#utility.yul\":11330:11334   */\n              0x20\n                /* \"#utility.yul\":11325:11328   */\n              dup7\n                /* \"#utility.yul\":11321:11335   */\n              add\n                /* \"#utility.yul\":11314:11352   */\n              mstore\n                /* \"#utility.yul\":11373:11496   */\n              tag_291\n                /* \"#utility.yul\":11491:11495   */\n              dup3\n                /* \"#utility.yul\":11477:11489   */\n              dup3\n                /* \"#utility.yul\":11373:11496   */\n              tag_136\n              jump\t// in\n            tag_291:\n                /* \"#utility.yul\":11365:11496   */\n              swap2\n              pop\n                /* \"#utility.yul\":11219:11507   */\n              pop\n                /* \"#utility.yul\":11604:11608   */\n              0x40\n                /* \"#utility.yul\":11597:11602   */\n              dup4\n                /* \"#utility.yul\":11593:11609   */\n              add\n                /* \"#utility.yul\":11587:11610   */\n              mload\n                /* \"#utility.yul\":11657:11660   */\n              dup5\n                /* \"#utility.yul\":11651:11655   */\n              dup3\n                /* \"#utility.yul\":11647:11661   */\n              sub\n                /* \"#utility.yul\":11640:11644   */\n              0x40\n                /* \"#utility.yul\":11635:11638   */\n              dup7\n                /* \"#utility.yul\":11631:11645   */\n              add\n                /* \"#utility.yul\":11624:11662   */\n              mstore\n                /* \"#utility.yul\":11683:11786   */\n              tag_292\n                /* \"#utility.yul\":11781:11785   */\n              dup3\n                /* \"#utility.yul\":11767:11779   */\n              dup3\n                /* \"#utility.yul\":11683:11786   */\n              tag_143\n              jump\t// in\n            tag_292:\n                /* \"#utility.yul\":11675:11786   */\n              swap2\n              pop\n                /* \"#utility.yul\":11517:11797   */\n              pop\n                /* \"#utility.yul\":11883:11887   */\n              0x60\n                /* \"#utility.yul\":11876:11881   */\n              dup4\n                /* \"#utility.yul\":11872:11888   */\n              add\n                /* \"#utility.yul\":11866:11889   */\n              mload\n                /* \"#utility.yul\":11902:11959   */\n              tag_293\n                /* \"#utility.yul\":11953:11957   */\n              0x60\n                /* \"#utility.yul\":11948:11951   */\n              dup7\n                /* \"#utility.yul\":11944:11958   */\n              add\n                /* \"#utility.yul\":11930:11942   */\n              dup3\n                /* \"#utility.yul\":11902:11959   */\n              tag_144\n              jump\t// in\n            tag_293:\n                /* \"#utility.yul\":11807:11969   */\n              pop\n                /* \"#utility.yul\":11986:11990   */\n              dup1\n                /* \"#utility.yul\":11979:11990   */\n              swap2\n              pop\n                /* \"#utility.yul\":10924:11996   */\n              pop\n                /* \"#utility.yul\":10802:11996   */\n              swap3\n              swap2\n              pop\n              pop\n              jump\t// out\n                /* \"#utility.yul\":12002:12371   */\n            tag_15:\n                /* \"#utility.yul\":12143:12147   */\n              0x00\n                /* \"#utility.yul\":12181:12183   */\n              0x20\n                /* \"#utility.yul\":12170:12179   */\n              dup3\n                /* \"#utility.yul\":12166:12184   */\n              add\n                /* \"#utility.yul\":12158:12184   */\n              swap1\n              pop\n                /* \"#utility.yul\":12230:12239   */\n              dup2\n                /* \"#utility.yul\":12224:12228   */\n              dup2\n                /* \"#utility.yul\":12220:12240   */\n              sub\n                /* \"#utility.yul\":12216:12217   */\n              0x00\n                /* \"#utility.yul\":12205:12214   */\n              dup4\n                /* \"#utility.yul\":12201:12218   */\n              add\n                /* \"#utility.yul\":12194:12241   */\n              mstore\n                /* \"#utility.yul\":12258:12364   */\n              tag_295\n                /* \"#utility.yul\":12359:12363   */\n              dup2\n                /* \"#utility.yul\":12350:12356   */\n              dup5\n                /* \"#utility.yul\":12258:12364   */\n              tag_145\n              jump\t// in\n            tag_295:\n                /* \"#utility.yul\":12250:12364   */\n              swap1\n              pop\n                /* \"#utility.yul\":12002:12371   */\n              swap3\n              swap2\n              pop\n              pop\n              jump\t// out\n                /* \"#utility.yul\":12377:12851   */\n            tag_18:\n                /* \"#utility.yul\":12445:12451   */\n              0x00\n                /* \"#utility.yul\":12453:12459   */\n              dup1\n                /* \"#utility.yul\":12502:12504   */\n              0x40\n                /* \"#utility.yul\":12490:12499   */\n              dup4\n                /* \"#utility.yul\":12481:12488   */\n              dup6\n                /* \"#utility.yul\":12477:12500   */\n              sub\n                /* \"#utility.yul\":12473:12505   */\n              slt\n                /* \"#utility.yul\":12470:12589   */\n              iszero\n              tag_297\n              jumpi\n                /* \"#utility.yul\":12508:12587   */\n              tag_298\n              tag_106\n              jump\t// in\n            tag_298:\n                /* \"#utility.yul\":12470:12589   */\n            tag_297:\n                /* \"#utility.yul\":12628:12629   */\n              0x00\n                /* \"#utility.yul\":12653:12706   */\n              tag_299\n                /* \"#utility.yul\":12698:12705   */\n              dup6\n                /* \"#utility.yul\":12689:12695   */\n              dup3\n                /* \"#utility.yul\":12678:12687   */\n              dup7\n                /* \"#utility.yul\":12674:12696   */\n              add\n                /* \"#utility.yul\":12653:12706   */\n              tag_126\n              jump\t// in\n            tag_299:\n                /* \"#utility.yul\":12643:12706   */\n              swap3\n              pop\n                /* \"#utility.yul\":12599:12716   */\n              pop\n                /* \"#utility.yul\":12755:12757   */\n              0x20\n                /* \"#utility.yul\":12781:12834   */\n              tag_300\n                /* \"#utility.yul\":12826:12833   */\n              dup6\n                /* \"#utility.yul\":12817:12823   */\n              dup3\n                /* \"#utility.yul\":12806:12815   */\n              dup7\n                /* \"#utility.yul\":12802:12824   */\n              add\n                /* \"#utility.yul\":12781:12834   */\n              tag_126\n              jump\t// in\n            tag_300:\n                /* \"#utility.yul\":12771:12834   */\n              swap2\n              pop\n                /* \"#utility.yul\":12726:12844   */\n              pop\n                /* \"#utility.yul\":12377:12851   */\n              swap3\n              pop\n              swap3\n              swap1\n              pop\n              jump\t// out\n                /* \"#utility.yul\":12857:13026   */\n            tag_146:\n                /* \"#utility.yul\":12941:12952   */\n              0x00\n                /* \"#utility.yul\":12975:12981   */\n              dup3\n                /* \"#utility.yul\":12970:12973   */\n              dup3\n                /* \"#utility.yul\":12963:12982   */\n              mstore\n                /* \"#utility.yul\":13015:13019   */\n              0x20\n                /* \"#utility.yul\":13010:13013   */\n              dup3\n                /* \"#utility.yul\":13006:13020   */\n              add\n                /* \"#utility.yul\":12991:13020   */\n              swap1\n              pop\n                /* \"#utility.yul\":12857:13026   */\n              swap3\n              swap2\n              pop\n              pop\n              jump\t// out\n                /* \"#utility.yul\":13032:13213   */\n            tag_147:\n                /* \"#utility.yul\":13172:13205   */\n              0x4174206c656173742032206f7074696f6e732061726520726571756972656400\n                /* \"#utility.yul\":13168:13169   */\n              0x00\n                /* \"#utility.yul\":13160:13166   */\n              dup3\n                /* \"#utility.yul\":13156:13170   */\n              add\n                /* \"#utility.yul\":13149:13206   */\n              mstore\n                /* \"#utility.yul\":13032:13213   */\n              pop\n              jump\t// out\n                /* \"#utility.yul\":13219:13585   */\n            tag_148:\n                /* \"#utility.yul\":13361:13364   */\n              0x00\n                /* \"#utility.yul\":13382:13449   */\n              tag_304\n                /* \"#utility.yul\":13446:13448   */\n              0x1f\n                /* \"#utility.yul\":13441:13444   */\n              dup4\n                /* \"#utility.yul\":13382:13449   */\n              tag_146\n              jump\t// in\n            tag_304:\n                /* \"#utility.yul\":13375:13449   */\n              swap2\n              pop\n                /* \"#utility.yul\":13458:13551   */\n              tag_305\n                /* \"#utility.yul\":13547:13550   */\n              dup3\n                /* \"#utility.yul\":13458:13551   */\n              tag_147\n              jump\t// in\n            tag_305:\n                /* \"#utility.yul\":13576:13578   */\n              0x20\n                /* \"#utility.yul\":13571:13574   */\n              dup3\n                /* \"#utility.yul\":13567:13579   */\n              add\n                /* \"#utility.yul\":13560:13579   */\n              swap1\n              pop\n                /* \"#utility.yul\":13219:13585   */\n              swap2\n              swap1\n              pop\n              jump\t// out\n                /* \"#utility.yul\":13591:14010   */\n            tag_23:\n                /* \"#utility.yul\":13757:13761   */\n              0x00\n                /* \"#utility.yul\":13795:13797   */\n              0x20\n                /* \"#utility.yul\":13784:13793   */\n              dup3\n                /* \"#utility.yul\":13780:13798   */\n              add\n                /* \"#utility.yul\":13772:13798   */\n              swap1\n              pop\n                /* \"#utility.yul\":13844:13853   */\n              dup2\n                /* \"#utility.yul\":13838:13842   */\n              dup2\n                /* \"#utility.yul\":13834:13854   */\n              sub\n                /* \"#utility.yul\":13830:13831   */\n              0x00\n                /* \"#utility.yul\":13819:13828   */\n              dup4\n                /* \"#utility.yul\":13815:13832   */\n              add\n                /* \"#utility.yul\":13808:13855   */\n              mstore\n                /* \"#utility.yul\":13872:14003   */\n              tag_307\n                /* \"#utility.yul\":13998:14002   */\n              dup2\n                /* \"#utility.yul\":13872:14003   */\n              tag_148\n              jump\t// in\n            tag_307:\n                /* \"#utility.yul\":13864:14003   */\n              swap1\n              pop\n                /* \"#utility.yul\":13591:14010   */\n              swap2\n              swap1\n              pop\n              jump\t// out\n                /* \"#utility.yul\":14016:14196   */\n            tag_149:\n                /* \"#utility.yul\":14064:14141   */\n              0x4e487b7100000000000000000000000000000000000000000000000000000000\n                /* \"#utility.yul\":14061:14062   */\n              0x00\n                /* \"#utility.yul\":14054:14142   */\n              mstore\n                /* \"#utility.yul\":14161:14165   */\n              0x22\n                /* \"#utility.yul\":14158:14159   */\n              0x04\n                /* \"#utility.yul\":14151:14166   */\n              mstore\n                /* \"#utility.yul\":14185:14189   */\n              0x24\n                /* \"#utility.yul\":14182:14183   */\n              0x00\n                /* \"#utility.yul\":14175:14190   */\n              revert\n                /* \"#utility.yul\":14202:14522   */\n            tag_46:\n                /* \"#utility.yul\":14246:14252   */\n              0x00\n                /* \"#utility.yul\":14283:14284   */\n              0x02\n                /* \"#utility.yul\":14277:14281   */\n              dup3\n                /* \"#utility.yul\":14273:14285   */\n              div\n                /* \"#utility.yul\":14263:14285   */\n              swap1\n              pop\n                /* \"#utility.yul\":14330:14331   */\n              0x01\n                /* \"#utility.yul\":14324:14328   */\n              dup3\n                /* \"#utility.yul\":14320:14332   */\n              and\n                /* \"#utility.yul\":14351:14369   */\n              dup1\n                /* \"#utility.yul\":14341:14422   */\n              tag_310\n              jumpi\n                /* \"#utility.yul\":14407:14411   */\n              0x7f\n                /* \"#utility.yul\":14399:14405   */\n              dup3\n                /* \"#utility.yul\":14395:14412   */\n              and\n                /* \"#utility.yul\":14385:14412   */\n              swap2\n              pop\n                /* \"#utility.yul\":14341:14422   */\n            tag_310:\n                /* \"#utility.yul\":14469:14471   */\n              0x20\n                /* \"#utility.yul\":14461:14467   */\n              dup3\n                /* \"#utility.yul\":14458:14472   */\n              lt\n                /* \"#utility.yul\":14438:14456   */\n              dup2\n                /* \"#utility.yul\":14435:14473   */\n              sub\n                /* \"#utility.yul\":14432:14516   */\n              tag_311\n              jumpi\n                /* \"#utility.yul\":14488:14506   */\n              tag_312\n              tag_149\n              jump\t// in\n            tag_312:\n                /* \"#utility.yul\":14432:14516   */\n            tag_311:\n                /* \"#utility.yul\":14253:14522   */\n              pop\n                /* \"#utility.yul\":14202:14522   */\n              swap2\n              swap1\n              pop\n              jump\t// out\n                /* \"#utility.yul\":14528:14669   */\n            tag_150:\n                /* \"#utility.yul\":14577:14581   */\n              0x00\n                /* \"#utility.yul\":14600:14603   */\n              dup2\n                /* \"#utility.yul\":14592:14603   */\n              swap1\n              pop\n                /* \"#utility.yul\":14623:14626   */\n              dup2\n                /* \"#utility.yul\":14620:14621   */\n              0x00\n                /* \"#utility.yul\":14613:14627   */\n              mstore\n                /* \"#utility.yul\":14657:14661   */\n              0x20\n                /* \"#utility.yul\":14654:14655   */\n              0x00\n                /* \"#utility.yul\":14644:14662   */\n              keccak256\n                /* \"#utility.yul\":14636:14662   */\n              swap1\n              pop\n                /* \"#utility.yul\":14528:14669   */\n              swap2\n              swap1\n              pop\n              jump\t// out\n                /* \"#utility.yul\":14675:14768   */\n            tag_151:\n                /* \"#utility.yul\":14712:14718   */\n              0x00\n                /* \"#utility.yul\":14759:14761   */\n              0x20\n                /* \"#utility.yul\":14754:14756   */\n              0x1f\n                /* \"#utility.yul\":14747:14752   */\n              dup4\n                /* \"#utility.yul\":14743:14757   */\n              add\n                /* \"#utility.yul\":14739:14762   */\n              div\n                /* \"#utility.yul\":14729:14762   */\n              swap1\n              pop\n                /* \"#utility.yul\":14675:14768   */\n              swap2\n              swap1\n              pop\n              jump\t// out\n                /* \"#utility.yul\":14774:14881   */\n            tag_152:\n                /* \"#utility.yul\":14818:14826   */\n              0x00\n                /* \"#utility.yul\":14868:14873   */\n              dup3\n                /* \"#utility.yul\":14862:14866   */\n              dup3\n                /* \"#utility.yul\":14858:14874   */\n              shl\n                /* \"#utility.yul\":14837:14874   */\n              swap1\n              pop\n                /* \"#utility.yul\":14774:14881   */\n              swap3\n              swap2\n              pop\n              pop\n              jump\t// out\n                /* \"#utility.yul\":14887:15280   */\n            tag_153:\n                /* \"#utility.yul\":14956:14962   */\n              0x00\n                /* \"#utility.yul\":15006:15007   */\n              0x08\n                /* \"#utility.yul\":14994:15004   */\n              dup4\n                /* \"#utility.yul\":14990:15008   */\n              mul\n                /* \"#utility.yul\":15029:15126   */\n              tag_317\n                /* \"#utility.yul\":15059:15125   */\n              0xffffffffffffffffffffffffffffffffffffffffffffffffffffffffffffffff\n                /* \"#utility.yul\":15048:15057   */\n              dup3\n                /* \"#utility.yul\":15029:15126   */\n              tag_152\n              jump\t// in\n            tag_317:\n                /* \"#utility.yul\":15147:15186   */\n              tag_318\n                /* \"#utility.yul\":15177:15185   */\n              dup7\n                /* \"#utility.yul\":15166:15175   */\n              dup4\n                /* \"#utility.yul\":15147:15186   */\n              tag_152\n              jump\t// in\n            tag_318:\n                /* \"#utility.yul\":15135:15186   */\n              swap6\n              pop\n                /* \"#utility.yul\":15219:15223   */\n              dup1\n                /* \"#utility.yul\":15215:15224   */\n              not\n                /* \"#utility.yul\":15208:15213   */\n              dup5\n                /* \"#utility.yul\":15204:15225   */\n              and\n                /* \"#utility.yul\":15195:15225   */\n              swap4\n              pop\n                /* \"#utility.yul\":15268:15272   */\n              dup1\n                /* \"#utility.yul\":15258:15266   */\n              dup7\n                /* \"#utility.yul\":15254:15273   */\n              and\n                /* \"#utility.yul\":15247:15252   */\n              dup5\n                /* \"#utility.yul\":15244:15274   */\n              or\n                /* \"#utility.yul\":15234:15274   */\n              swap3\n              pop\n                /* \"#utility.yul\":14963:15280   */\n              pop\n              pop\n                /* \"#utility.yul\":14887:15280   */\n              swap4\n              swap3\n              pop\n              pop\n              pop\n              jump\t// out\n                /* \"#utility.yul\":15286:15346   */\n            tag_154:\n                /* \"#utility.yul\":15314:15317   */\n              0x00\n                /* \"#utility.yul\":15335:15340   */\n              dup2\n                /* \"#utility.yul\":15328:15340   */\n              swap1\n              pop\n                /* \"#utility.yul\":15286:15346   */\n              swap2\n              swap1\n              pop\n              jump\t// out\n                /* \"#utility.yul\":15352:15494   */\n            tag_155:\n                /* \"#utility.yul\":15402:15411   */\n              0x00\n                /* \"#utility.yul\":15435:15488   */\n              tag_321\n                /* \"#utility.yul\":15453:15487   */\n              tag_322\n                /* \"#utility.yul\":15462:15486   */\n              tag_323\n                /* \"#utility.yul\":15480:15485   */\n              dup5\n                /* \"#utility.yul\":15462:15486   */\n              tag_124\n              jump\t// in\n            tag_323:\n                /* \"#utility.yul\":15453:15487   */\n              tag_154\n              jump\t// in\n            tag_322:\n                /* \"#utility.yul\":15435:15488   */\n              tag_124\n              jump\t// in\n            tag_321:\n                /* \"#utility.yul\":15422:15488   */\n              swap1\n              pop\n                /* \"#utility.yul\":15352:15494   */\n              swap2\n              swap1\n              pop\n              jump\t// out\n                /* \"#utility.yul\":15500:15575   */\n            tag_156:\n                /* \"#utility.yul\":15543:15546   */\n              0x00\n                /* \"#utility.yul\":15564:15569   */\n              dup2\n                /* \"#utility.yul\":15557:15569   */\n              swap1\n              pop\n                /* \"#utility.yul\":15500:15575   */\n              swap2\n              swap1\n              pop\n              jump\t// out\n                /* \"#utility.yul\":15581:15850   */\n            tag_157:\n                /* \"#utility.yul\":15691:15730   */\n              tag_326\n                /* \"#utility.yul\":15722:15729   */\n              dup4\n                /* \"#utility.yul\":15691:15730   */\n              tag_155\n              jump\t// in\n            tag_326:\n                /* \"#utility.yul\":15752:15843   */\n              tag_327\n                /* \"#utility.yul\":15801:15842   */\n              tag_328\n                /* \"#utility.yul\":15825:15841   */\n              dup3\n                /* \"#utility.yul\":15801:15842   */\n              tag_156\n              jump\t// in\n            tag_328:\n                /* \"#utility.yul\":15793:15799   */\n              dup5\n                /* \"#utility.yul\":15786:15790   */\n              dup5\n                /* \"#utility.yul\":15780:15791   */\n              sload\n                /* \"#utility.yul\":15752:15843   */\n              tag_153\n              jump\t// in\n            tag_327:\n                /* \"#utility.yul\":15746:15750   */\n              dup3\n                /* \"#utility.yul\":15739:15844   */\n              sstore\n                /* \"#utility.yul\":15657:15850   */\n              pop\n                /* \"#utility.yul\":15581:15850   */\n              pop\n              pop\n              pop\n              jump\t// out\n                /* \"#utility.yul\":15856:15929   */\n            tag_158:\n                /* \"#utility.yul\":15901:15904   */\n              0x00\n                /* \"#utility.yul\":15856:15929   */\n              swap1\n              jump\t// out\n                /* \"#utility.yul\":15935:16124   */\n            tag_159:\n                /* \"#utility.yul\":16012:16044   */\n              tag_331\n              tag_158\n              jump\t// in\n            tag_331:\n                /* \"#utility.yul\":16053:16118   */\n              tag_332\n                /* \"#utility.yul\":16111:16117   */\n              dup2\n                /* \"#utility.yul\":16103:16109   */\n              dup5\n                /* \"#utility.yul\":16097:16101   */\n              dup5\n                /* \"#utility.yul\":16053:16118   */\n              tag_157\n              jump\t// in\n            tag_332:\n                /* \"#utility.yul\":15988:16124   */\n              pop\n                /* \"#utility.yul\":15935:16124   */\n              pop\n              pop\n              jump\t// out\n                /* \"#utility.yul\":16130:16316   */\n            tag_160:\n                /* \"#utility.yul\":16190:16310   */\n            tag_334:\n                /* \"#utility.yul\":16207:16210   */\n              dup2\n                /* \"#utility.yul\":16200:16205   */\n              dup2\n                /* \"#utility.yul\":16197:16211   */\n              lt\n                /* \"#utility.yul\":16190:16310   */\n              iszero\n              tag_336\n              jumpi\n                /* \"#utility.yul\":16261:16300   */\n              tag_337\n                /* \"#utility.yul\":16298:16299   */\n              0x00\n                /* \"#utility.yul\":16291:16296   */\n              dup3\n                /* \"#utility.yul\":16261:16300   */\n              tag_159\n              jump\t// in\n            tag_337:\n                /* \"#utility.yul\":16234:16235   */\n              0x01\n                /* \"#utility.yul\":16227:16232   */\n              dup2\n                /* \"#utility.yul\":16223:16236   */\n              add\n                /* \"#utility.yul\":16214:16236   */\n              swap1\n              pop\n                /* \"#utility.yul\":16190:16310   */\n              jump(tag_334)\n            tag_336:\n                /* \"#utility.yul\":16130:16316   */\n              pop\n              pop\n              jump\t// out\n                /* \"#utility.yul\":16322:16865   */\n            tag_161:\n                /* \"#utility.yul\":16423:16425   */\n              0x1f\n                /* \"#utility.yul\":16418:16421   */\n              dup3\n                /* \"#utility.yul\":16415:16426   */\n              gt\n                /* \"#utility.yul\":16412:16858   */\n              iszero\n              tag_339\n              jumpi\n                /* \"#utility.yul\":16457:16495   */\n              tag_340\n                /* \"#utility.yul\":16489:16494   */\n              dup2\n                /* \"#utility.yul\":16457:16495   */\n              tag_150\n              jump\t// in\n            tag_340:\n                /* \"#utility.yul\":16541:16570   */\n              tag_341\n                /* \"#utility.yul\":16559:16569   */\n              dup5\n                /* \"#utility.yul\":16541:16570   */\n              tag_151\n              jump\t// in\n            tag_341:\n                /* \"#utility.yul\":16531:16539   */\n              dup2\n                /* \"#utility.yul\":16527:16571   */\n              add\n                /* \"#utility.yul\":16724:16726   */\n              0x20\n                /* \"#utility.yul\":16712:16722   */\n              dup6\n                /* \"#utility.yul\":16709:16727   */\n              lt\n                /* \"#utility.yul\":16706:16755   */\n              iszero\n              tag_342\n              jumpi\n                /* \"#utility.yul\":16745:16753   */\n              dup2\n                /* \"#utility.yul\":16730:16753   */\n              swap1\n              pop\n                /* \"#utility.yul\":16706:16755   */\n            tag_342:\n                /* \"#utility.yul\":16768:16848   */\n              tag_343\n                /* \"#utility.yul\":16824:16846   */\n              tag_344\n                /* \"#utility.yul\":16842:16845   */\n              dup6\n                /* \"#utility.yul\":16824:16846   */\n              tag_151\n              jump\t// in\n            tag_344:\n                /* \"#utility.yul\":16814:16822   */\n              dup4\n                /* \"#utility.yul\":16810:16847   */\n              add\n                /* \"#utility.yul\":16797:16808   */\n              dup3\n                /* \"#utility.yul\":16768:16848   */\n              tag_160\n              jump\t// in\n            tag_343:\n                /* \"#utility.yul\":16427:16858   */\n              pop\n              pop\n                /* \"#utility.yul\":16412:16858   */\n            tag_339:\n                /* \"#utility.yul\":16322:16865   */\n              pop\n              pop\n              pop\n              jump\t// out\n                /* \"#utility.yul\":16871:16988   */\n            tag_162:\n                /* \"#utility.yul\":16925:16933   */\n              0x00\n                /* \"#utility.yul\":16975:16980   */\n              dup3\n                /* \"#utility.yul\":16969:16973   */\n              dup3\n                /* \"#utility.yul\":16965:16981   */\n              shr\n                /* \"#utility.yul\":16944:16981   */\n              swap1\n              pop\n                /* \"#utility.yul\":16871:16988   */\n              swap3\n              swap2\n              pop\n              pop\n              jump\t// out\n                /* \"#utility.yul\":16994:17163   */\n            tag_163:\n                /* \"#utility.yul\":17038:17044   */\n              0x00\n                /* \"#utility.yul\":17071:17122   */\n              tag_347\n                /* \"#utility.yul\":17119:17120   */\n              0x00\n                /* \"#utility.yul\":17115:17121   */\n              not\n                /* \"#utility.yul\":17107:17112   */\n              dup5\n                /* \"#utility.yul\":17104:17105   */\n              0x08\n                /* \"#utility.yul\":17100:17113   */\n              mul\n                /* \"#utility.yul\":17071:17122   */\n              tag_162\n              jump\t// in\n            tag_347:\n                /* \"#utility.yul\":17067:17123   */\n              not\n                /* \"#utility.yul\":17152:17156   */\n              dup1\n                /* \"#utility.yul\":17146:17150   */\n              dup4\n                /* \"#utility.yul\":17142:17157   */\n              and\n                /* \"#utility.yul\":17132:17157   */\n              swap2\n              pop\n                /* \"#utility.yul\":17045:17163   */\n              pop\n                /* \"#utility.yul\":16994:17163   */\n              swap3\n              swap2\n              pop\n              pop\n              jump\t// out\n                /* \"#utility.yul\":17168:17463   */\n            tag_164:\n                /* \"#utility.yul\":17244:17248   */\n              0x00\n                /* \"#utility.yul\":17390:17419   */\n              tag_349\n                /* \"#utility.yul\":17415:17418   */\n              dup4\n                /* \"#utility.yul\":17409:17413   */\n              dup4\n                /* \"#utility.yul\":17390:17419   */\n              tag_163\n              jump\t// in\n            tag_349:\n                /* \"#utility.yul\":17382:17419   */\n              swap2\n              pop\n                /* \"#utility.yul\":17452:17455   */\n              dup3\n                /* \"#utility.yul\":17449:17450   */\n              0x02\n                /* \"#utility.yul\":17445:17456   */\n              mul\n                /* \"#utility.yul\":17439:17443   */\n              dup3\n                /* \"#utility.yul\":17436:17457   */\n              or\n                /* \"#utility.yul\":17428:17457   */\n              swap1\n              pop\n                /* \"#utility.yul\":17168:17463   */\n              swap3\n              swap2\n              pop\n              pop\n              jump\t// out\n                /* \"#utility.yul\":17468:18863   */\n            tag_30:\n                /* \"#utility.yul\":17585:17622   */\n              tag_351\n                /* \"#utility.yul\":17618:17621   */\n              dup3\n                /* \"#utility.yul\":17585:17622   */\n              tag_127\n              jump\t// in\n            tag_351:\n                /* \"#utility.yul\":17687:17705   */\n              0xffffffffffffffff\n                /* \"#utility.yul\":17679:17685   */\n              dup2\n                /* \"#utility.yul\":17676:17706   */\n              gt\n                /* \"#utility.yul\":17673:17729   */\n              iszero\n              tag_352\n              jumpi\n                /* \"#utility.yul\":17709:17727   */\n              tag_353\n              tag_26\n              jump\t// in\n            tag_353:\n                /* \"#utility.yul\":17673:17729   */\n            tag_352:\n                /* \"#utility.yul\":17753:17791   */\n              tag_354\n                /* \"#utility.yul\":17785:17789   */\n              dup3\n                /* \"#utility.yul\":17779:17790   */\n              sload\n                /* \"#utility.yul\":17753:17791   */\n              tag_46\n              jump\t// in\n            tag_354:\n                /* \"#utility.yul\":17838:17905   */\n              tag_355\n                /* \"#utility.yul\":17898:17904   */\n              dup3\n                /* \"#utility.yul\":17890:17896   */\n              dup3\n                /* \"#utility.yul\":17884:17888   */\n              dup6\n                /* \"#utility.yul\":17838:17905   */\n              tag_161\n              jump\t// in\n            tag_355:\n                /* \"#utility.yul\":17932:17933   */\n              0x00\n                /* \"#utility.yul\":17956:17960   */\n              0x20\n                /* \"#utility.yul\":17943:17960   */\n              swap1\n              pop\n                /* \"#utility.yul\":17988:17990   */\n              0x1f\n                /* \"#utility.yul\":17980:17986   */\n              dup4\n                /* \"#utility.yul\":17977:17991   */\n              gt\n                /* \"#utility.yul\":18005:18006   */\n              0x01\n                /* \"#utility.yul\":18000:18618   */\n              dup2\n              eq\n              tag_357\n              jumpi\n                /* \"#utility.yul\":18662:18663   */\n              0x00\n                /* \"#utility.yul\":18679:18685   */\n              dup5\n                /* \"#utility.yul\":18676:18753   */\n              iszero\n              tag_358\n              jumpi\n                /* \"#utility.yul\":18728:18737   */\n              dup3\n                /* \"#utility.yul\":18723:18726   */\n              dup8\n                /* \"#utility.yul\":18719:18738   */\n              add\n                /* \"#utility.yul\":18713:18739   */\n              mload\n                /* \"#utility.yul\":18704:18739   */\n              swap1\n              pop\n                /* \"#utility.yul\":18676:18753   */\n            tag_358:\n                /* \"#utility.yul\":18779:18846   */\n              tag_359\n                /* \"#utility.yul\":18839:18845   */\n              dup6\n                /* \"#utility.yul\":18832:18837   */\n              dup3\n                /* \"#utility.yul\":18779:18846   */\n              tag_164\n              jump\t// in\n            tag_359:\n                /* \"#utility.yul\":18773:18777   */\n              dup7\n                /* \"#utility.yul\":18766:18847   */\n              sstore\n                /* \"#utility.yul\":18635:18857   */\n              pop\n                /* \"#utility.yul\":17970:18857   */\n              jump(tag_356)\n                /* \"#utility.yul\":18000:18618   */\n            tag_357:\n                /* \"#utility.yul\":18052:18056   */\n              0x1f\n                /* \"#utility.yul\":18048:18057   */\n              not\n                /* \"#utility.yul\":18040:18046   */\n              dup5\n                /* \"#utility.yul\":18036:18058   */\n              and\n                /* \"#utility.yul\":18086:18123   */\n              tag_360\n                /* \"#utility.yul\":18118:18122   */\n              dup7\n                /* \"#utility.yul\":18086:18123   */\n              tag_150\n              jump\t// in\n            tag_360:\n                /* \"#utility.yul\":18145:18146   */\n              0x00\n                /* \"#utility.yul\":18159:18367   */\n            tag_361:\n                /* \"#utility.yul\":18173:18180   */\n              dup3\n                /* \"#utility.yul\":18170:18171   */\n              dup2\n                /* \"#utility.yul\":18167:18181   */\n              lt\n                /* \"#utility.yul\":18159:18367   */\n              iszero\n              tag_363\n              jumpi\n                /* \"#utility.yul\":18252:18261   */\n              dup5\n                /* \"#utility.yul\":18247:18250   */\n              dup10\n                /* \"#utility.yul\":18243:18262   */\n              add\n                /* \"#utility.yul\":18237:18263   */\n              mload\n                /* \"#utility.yul\":18229:18235   */\n              dup3\n                /* \"#utility.yul\":18222:18264   */\n              sstore\n                /* \"#utility.yul\":18303:18304   */\n              0x01\n                /* \"#utility.yul\":18295:18301   */\n              dup3\n                /* \"#utility.yul\":18291:18305   */\n              add\n                /* \"#utility.yul\":18281:18305   */\n              swap2\n              pop\n                /* \"#utility.yul\":18350:18352   */\n              0x20\n                /* \"#utility.yul\":18339:18348   */\n              dup6\n                /* \"#utility.yul\":18335:18353   */\n              add\n                /* \"#utility.yul\":18322:18353   */\n              swap5\n              pop\n                /* \"#utility.yul\":18196:18200   */\n              0x20\n                /* \"#utility.yul\":18193:18194   */\n              dup2\n                /* \"#utility.yul\":18189:18201   */\n              add\n                /* \"#utility.yul\":18184:18201   */\n              swap1\n              pop\n                /* \"#utility.yul\":18159:18367   */\n              jump(tag_361)\n            tag_363:\n                /* \"#utility.yul\":18395:18401   */\n              dup7\n                /* \"#utility.yul\":18386:18393   */\n              dup4\n                /* \"#utility.yul\":18383:18402   */\n              lt\n                /* \"#utility.yul\":18380:18559   */\n              iszero\n              tag_364\n              jumpi\n                /* \"#utility.yul\":18453:18462   */\n              dup5\n                /* \"#utility.yul\":18448:18451   */\n              dup10\n                /* \"#utility.yul\":18444:18463   */\n              add\n                /* \"#utility.yul\":18438:18464   */\n              mload\n                /* \"#utility.yul\":18496:18544   */\n              tag_365\n                /* \"#utility.yul\":18538:18542   */\n              0x1f\n                /* \"#utility.yul\":18530:18536   */\n              dup10\n                /* \"#utility.yul\":18526:18543   */\n              and\n                /* \"#utility.yul\":18515:18524   */\n              dup3\n                /* \"#utility.yul\":18496:18544   */\n              tag_163\n              jump\t// in\n            tag_365:\n                /* \"#utility.yul\":18488:18494   */\n              dup4\n                /* \"#utility.yul\":18481:18545   */\n              sstore\n                /* \"#utility.yul\":18403:18559   */\n              pop\n                /* \"#utility.yul\":18380:18559   */\n            tag_364:\n                /* \"#utility.yul\":18605:18606   */\n              0x01\n                /* \"#utility.yul\":18601:18602   */\n              0x02\n                /* \"#utility.yul\":18593:18599   */\n              dup9\n                /* \"#utility.yul\":18589:18603   */\n              mul\n                /* \"#utility.yul\":18585:18607   */\n              add\n                /* \"#utility.yul\":18579:18583   */\n              dup9\n                /* \"#utility.yul\":18572:18608   */\n              sstore\n                /* \"#utility.yul\":18007:18618   */\n              pop\n              pop\n              pop\n                /* \"#utility.yul\":17970:18857   */\n            tag_356:\n              pop\n                /* \"#utility.yul\":17560:18863   */\n              pop\n              pop\n              pop\n                /* \"#utility.yul\":17468:18863   */\n              pop\n              pop\n              jump\t// out\n                /* \"#utility.yul\":18869:19040   */\n            tag_165:\n                /* \"#utility.yul\":19009:19032   */\n              0x53757276657920646f6573206e6f742065786973740000000000000000000000\n                /* \"#utility.yul\":19005:19006   */\n              0x00\n                /* \"#utility.yul\":18997:19003   */\n              dup3\n                /* \"#utility.yul\":18993:19007   */\n              add\n                /* \"#utility.yul\":18986:19033   */\n              mstore\n                /* \"#utility.yul\":18869:19040   */\n              pop\n              jump\t// out\n                /* \"#utility.yul\":19046:19412   */\n            tag_166:\n                /* \"#utility.yul\":19188:19191   */\n              0x00\n                /* \"#utility.yul\":19209:19276   */\n              tag_368\n                /* \"#utility.yul\":19273:19275   */\n              0x15\n                /* \"#utility.yul\":19268:19271   */\n              dup4\n                /* \"#utility.yul\":19209:19276   */\n              tag_146\n              jump\t// in\n            tag_368:\n                /* \"#utility.yul\":19202:19276   */\n              swap2\n              pop\n                /* \"#utility.yul\":19285:19378   */\n              tag_369\n                /* \"#utility.yul\":19374:19377   */\n              dup3\n                /* \"#utility.yul\":19285:19378   */\n              tag_165\n              jump\t// in\n            tag_369:\n                /* \"#utility.yul\":19403:19405   */\n              0x20\n                /* \"#utility.yul\":19398:19401   */\n              dup3\n                /* \"#utility.yul\":19394:19406   */\n              add\n                /* \"#utility.yul\":19387:19406   */\n              swap1\n              pop\n                /* \"#utility.yul\":19046:19412   */\n              swap2\n              swap1\n              pop\n              jump\t// out\n                /* \"#utility.yul\":19418:19837   */\n            tag_40:\n                /* \"#utility.yul\":19584:19588   */\n              0x00\n                /* \"#utility.yul\":19622:19624   */\n              0x20\n                /* \"#utility.yul\":19611:19620   */\n              dup3\n                /* \"#utility.yul\":19607:19625   */\n              add\n                /* \"#utility.yul\":19599:19625   */\n              swap1\n              pop\n                /* \"#utility.yul\":19671:19680   */\n              dup2\n                /* \"#utility.yul\":19665:19669   */\n              dup2\n                /* \"#utility.yul\":19661:19681   */\n              sub\n                /* \"#utility.yul\":19657:19658   */\n              0x00\n                /* \"#utility.yul\":19646:19655   */\n              dup4\n                /* \"#utility.yul\":19642:19659   */\n              add\n                /* \"#utility.yul\":19635:19682   */\n              mstore\n                /* \"#utility.yul\":19699:19830   */\n              tag_371\n                /* \"#utility.yul\":19825:19829   */\n              dup2\n                /* \"#utility.yul\":19699:19830   */\n              tag_166\n              jump\t// in\n            tag_371:\n                /* \"#utility.yul\":19691:19830   */\n              swap1\n              pop\n                /* \"#utility.yul\":19418:19837   */\n              swap2\n              swap1\n              pop\n              jump\t// out\n                /* \"#utility.yul\":19843:20023   */\n            tag_43:\n                /* \"#utility.yul\":19891:19968   */\n              0x4e487b7100000000000000000000000000000000000000000000000000000000\n                /* \"#utility.yul\":19888:19889   */\n              0x00\n                /* \"#utility.yul\":19881:19969   */\n              mstore\n                /* \"#utility.yul\":19988:19992   */\n              0x32\n                /* \"#utility.yul\":19985:19986   */\n              0x04\n                /* \"#utility.yul\":19978:19993   */\n              mstore\n                /* \"#utility.yul\":20012:20016   */\n              0x24\n                /* \"#utility.yul\":20009:20010   */\n              0x00\n                /* \"#utility.yul\":20002:20017   */\n              revert\n                /* \"#utility.yul\":20029:20199   */\n            tag_167:\n                /* \"#utility.yul\":20169:20191   */\n              0x537572766579206973206e6f7420616374697665000000000000000000000000\n                /* \"#utility.yul\":20165:20166   */\n              0x00\n                /* \"#utility.yul\":20157:20163   */\n              dup3\n                /* \"#utility.yul\":20153:20167   */\n              add\n                /* \"#utility.yul\":20146:20192   */\n              mstore\n                /* \"#utility.yul\":20029:20199   */\n              pop\n              jump\t// out\n                /* \"#utility.yul\":20205:20571   */\n            tag_168:\n                /* \"#utility.yul\":20347:20350   */\n              0x00\n                /* \"#utility.yul\":20368:20435   */\n              tag_375\n                /* \"#utility.yul\":20432:20434   */\n              0x14\n                /* \"#utility.yul\":20427:20430   */\n              dup4\n                /* \"#utility.yul\":20368:20435   */\n              tag_146\n              jump\t// in\n            tag_375:\n                /* \"#utility.yul\":20361:20435   */\n              swap2\n              pop\n                /* \"#utility.yul\":20444:20537   */\n              tag_376\n                /* \"#utility.yul\":20533:20536   */\n              dup3\n                /* \"#utility.yul\":20444:20537   */\n              tag_167\n              jump\t// in\n            tag_376:\n                /* \"#utility.yul\":20562:20564   */\n              0x20\n                /* \"#utility.yul\":20557:20560   */\n              dup3\n                /* \"#utility.yul\":20553:20565   */\n              add\n                /* \"#utility.yul\":20546:20565   */\n              swap1\n              pop\n                /* \"#utility.yul\":20205:20571   */\n              swap2\n              swap1\n              pop\n              jump\t// out\n                /* \"#utility.yul\":20577:20996   */\n            tag_69:\n                /* \"#utility.yul\":20743:20747   */\n              0x00\n                /* \"#utility.yul\":20781:20783   */\n              0x20\n                /* \"#utility.yul\":20770:20779   */\n              dup3\n                /* \"#utility.yul\":20766:20784   */\n              add\n                /* \"#utility.yul\":20758:20784   */\n              swap1\n              pop\n                /* \"#utility.yul\":20830:20839   */\n              dup2\n                /* \"#utility.yul\":20824:20828   */\n              dup2\n                /* \"#utility.yul\":20820:20840   */\n              sub\n                /* \"#utility.yul\":20816:20817   */\n              0x00\n                /* \"#utility.yul\":20805:20814   */\n              dup4\n                /* \"#utility.yul\":20801:20818   */\n              add\n                /* \"#utility.yul\":20794:20841   */\n              mstore\n                /* \"#utility.yul\":20858:20989   */\n              tag_378\n                /* \"#utility.yul\":20984:20988   */\n              dup2\n                /* \"#utility.yul\":20858:20989   */\n              tag_168\n              jump\t// in\n            tag_378:\n                /* \"#utility.yul\":20850:20989   */\n              swap1\n              pop\n                /* \"#utility.yul\":20577:20996   */\n              swap2\n              swap1\n              pop\n              jump\t// out\n                /* \"#utility.yul\":21002:21172   */\n            tag_169:\n                /* \"#utility.yul\":21142:21164   */\n              0x496e76616c6964206f7074696f6e20696e646578000000000000000000000000\n                /* \"#utility.yul\":21138:21139   */\n              0x00\n                /* \"#utility.yul\":21130:21136   */\n              dup3\n                /* \"#utility.yul\":21126:21140   */\n              add\n                /* \"#utility.yul\":21119:21165   */\n              mstore\n                /* \"#utility.yul\":21002:21172   */\n              pop\n              jump\t// out\n                /* \"#utility.yul\":21178:21544   */\n            tag_170:\n                /* \"#utility.yul\":21320:21323   */\n              0x00\n                /* \"#utility.yul\":21341:21408   */\n              tag_381\n                /* \"#utility.yul\":21405:21407   */\n              0x14\n                /* \"#utility.yul\":21400:21403   */\n              dup4\n                /* \"#utility.yul\":21341:21408   */\n              tag_146\n              jump\t// in\n            tag_381:\n                /* \"#utility.yul\":21334:21408   */\n              swap2\n              pop\n                /* \"#utility.yul\":21417:21510   */\n              tag_382\n                /* \"#utility.yul\":21506:21509   */\n              dup3\n                /* \"#utility.yul\":21417:21510   */\n              tag_169\n              jump\t// in\n            tag_382:\n                /* \"#utility.yul\":21535:21537   */\n              0x20\n                /* \"#utility.yul\":21530:21533   */\n              dup3\n                /* \"#utility.yul\":21526:21538   */\n              add\n                /* \"#utility.yul\":21519:21538   */\n              swap1\n              pop\n                /* \"#utility.yul\":21178:21544   */\n              swap2\n              swap1\n              pop\n              jump\t// out\n                /* \"#utility.yul\":21550:21969   */\n            tag_75:\n                /* \"#utility.yul\":21716:21720   */\n              0x00\n                /* \"#utility.yul\":21754:21756   */\n              0x20\n                /* \"#utility.yul\":21743:21752   */\n              dup3\n                /* \"#utility.yul\":21739:21757   */\n              add\n                /* \"#utility.yul\":21731:21757   */\n              swap1\n              pop\n                /* \"#utility.yul\":21803:21812   */\n              dup2\n                /* \"#utility.yul\":21797:21801   */\n              dup2\n                /* \"#utility.yul\":21793:21813   */\n              sub\n                /* \"#utility.yul\":21789:21790   */\n              0x00\n                /* \"#utility.yul\":21778:21787   */\n              dup4\n                /* \"#utility.yul\":21774:21791   */\n              add\n                /* \"#utility.yul\":21767:21814   */\n              mstore\n                /* \"#utility.yul\":21831:21962   */\n              tag_384\n                /* \"#utility.yul\":21957:21961   */\n              dup2\n                /* \"#utility.yul\":21831:21962   */\n              tag_170\n              jump\t// in\n            tag_384:\n                /* \"#utility.yul\":21823:21962   */\n              swap1\n              pop\n                /* \"#utility.yul\":21550:21969   */\n              swap2\n              swap1\n              pop\n              jump\t// out\n                /* \"#utility.yul\":21975:22155   */\n            tag_171:\n                /* \"#utility.yul\":22023:22100   */\n              0x4e487b7100000000000000000000000000000000000000000000000000000000\n                /* \"#utility.yul\":22020:22021   */\n              0x00\n                /* \"#utility.yul\":22013:22101   */\n              mstore\n                /* \"#utility.yul\":22120:22124   */\n              0x11\n                /* \"#utility.yul\":22117:22118   */\n              0x04\n                /* \"#utility.yul\":22110:22125   */\n              mstore\n                /* \"#utility.yul\":22144:22148   */\n              0x24\n                /* \"#utility.yul\":22141:22142   */\n              0x00\n                /* \"#utility.yul\":22134:22149   */\n              revert\n                /* \"#utility.yul\":22161:22394   */\n            tag_83:\n                /* \"#utility.yul\":22200:22203   */\n              0x00\n                /* \"#utility.yul\":22223:22247   */\n              tag_387\n                /* \"#utility.yul\":22241:22246   */\n              dup3\n                /* \"#utility.yul\":22223:22247   */\n              tag_124\n              jump\t// in\n            tag_387:\n                /* \"#utility.yul\":22214:22247   */\n              swap2\n              pop\n                /* \"#utility.yul\":22269:22335   */\n              0xffffffffffffffffffffffffffffffffffffffffffffffffffffffffffffffff\n                /* \"#utility.yul\":22262:22267   */\n              dup3\n                /* \"#utility.yul\":22259:22336   */\n              sub\n                /* \"#utility.yul\":22256:22359   */\n              tag_388\n              jumpi\n                /* \"#utility.yul\":22339:22357   */\n              tag_389\n              tag_171\n              jump\t// in\n            tag_389:\n                /* \"#utility.yul\":22256:22359   */\n            tag_388:\n                /* \"#utility.yul\":22386:22387   */\n              0x01\n                /* \"#utility.yul\":22379:22384   */\n              dup3\n                /* \"#utility.yul\":22375:22388   */\n              add\n                /* \"#utility.yul\":22368:22388   */\n              swap1\n              pop\n                /* \"#utility.yul\":22161:22394   */\n              swap2\n              swap1\n              pop\n              jump\t// out\n\n            auxdata: 0xa2646970667358221220c02ac1f11b3a6456aec2e16f1a14cb18a96d8cedd9baa41dac3a411e16a42a9364736f6c634300081a0033\n        }\n    }\n\n    auxdata: 0xa264697066735822122036ec3cb4402782f1409090f4dd7e3ec3e3e32f1800de1ba2aae388e959816aba64736f6c634300081a0033\n}\n",
				"bytecode": {
					"linkReferences": {},
					"object": "60a06040525f6007556032600855348015610018575f80fd5b503364174876e8006040518060400160405280600681526020017f536f626f726f00000000000000000000000000000000000000000000000000008152506040518060400160405280600381526020017f5342520000000000000000000000000000000000000000000000000000000000815250816003908161009b919061080b565b5080600490816100ab919061080b565b5050505f81036100f2575f6040517f392e1e270000000000000000000000000000000000000000000000000000000081526004016100e99190610913565b60405180910390fd5b8060808181525050505f73ffffffffffffffffffffffffffffffffffffffff168173ffffffffffffffffffffffffffffffffffffffff160361016b575f6040517f1e4fbdf7000000000000000000000000000000000000000000000000000000008152600401610162919061096b565b60405180910390fd5b61017a8161019360201b60201c565b5061018e33620186a061025660201b60201c565b610a68565b5f60055f9054906101000a900473ffffffffffffffffffffffffffffffffffffffff1690508160055f6101000a81548173ffffffffffffffffffffffffffffffffffffffff021916908373ffffffffffffffffffffffffffffffffffffffff1602179055508173ffffffffffffffffffffffffffffffffffffffff168173ffffffffffffffffffffffffffffffffffffffff167f8be0079c531659141344cd1fd0a4f28419497f9722a3daafe3b4186f6b6457e060405160405180910390a35050565b5f73ffffffffffffffffffffffffffffffffffffffff168273ffffffffffffffffffffffffffffffffffffffff16036102c6575f6040517fec442f050000000000000000000000000000000000000000000000000000000081526004016102bd919061096b565b60405180910390fd5b6102d75f83836102db60201b60201c565b5050565b6102ec8383836102f160201b60201c565b505050565b6103028383836103a660201b60201c565b5f73ffffffffffffffffffffffffffffffffffffffff168373ffffffffffffffffffffffffffffffffffffffff16036103a1575f6103446105bf60201b60201c565b90505f6103556105c860201b60201c565b90508181111561039e5780826040517f9e79f854000000000000000000000000000000000000000000000000000000008152600401610395929190610993565b60405180910390fd5b50505b505050565b5f73ffffffffffffffffffffffffffffffffffffffff168373ffffffffffffffffffffffffffffffffffffffff16036103f6578060025f8282546103ea91906109e7565b925050819055506104c4565b5f805f8573ffffffffffffffffffffffffffffffffffffffff1673ffffffffffffffffffffffffffffffffffffffff1681526020019081526020015f205490508181101561047f578381836040517fe450d38c00000000000000000000000000000000000000000000000000000000815260040161047693929190610a1a565b60405180910390fd5b8181035f808673ffffffffffffffffffffffffffffffffffffffff1673ffffffffffffffffffffffffffffffffffffffff1681526020019081526020015f2081905550505b5f73ffffffffffffffffffffffffffffffffffffffff168273ffffffffffffffffffffffffffffffffffffffff160361050b578060025f8282540392505081905550610555565b805f808473ffffffffffffffffffffffffffffffffffffffff1673ffffffffffffffffffffffffffffffffffffffff1681526020019081526020015f205f82825401925050819055505b8173ffffffffffffffffffffffffffffffffffffffff168373ffffffffffffffffffffffffffffffffffffffff167fddf252ad1be2c89b69c2b068fc378daa952ba7f163c4a11628f55a4df523b3ef836040516105b29190610a4f565b60405180910390a3505050565b5f608051905090565b5f600254905090565b5f81519050919050565b7f4e487b71000000000000000000000000000000000000000000000000000000005f52604160045260245ffd5b7f4e487b71000000000000000000000000000000000000000000000000000000005f52602260045260245ffd5b5f600282049050600182168061064c57607f821691505b60208210810361065f5761065e610608565b5b50919050565b5f819050815f5260205f209050919050565b5f6020601f8301049050919050565b5f82821b905092915050565b5f600883026106c17fffffffffffffffffffffffffffffffffffffffffffffffffffffffffffffffff82610686565b6106cb8683610686565b95508019841693508086168417925050509392505050565b5f819050919050565b5f819050919050565b5f61070f61070a610705846106e3565b6106ec565b6106e3565b9050919050565b5f819050919050565b610728836106f5565b61073c61073482610716565b848454610692565b825550505050565b5f90565b610750610744565b61075b81848461071f565b505050565b5b8181101561077e576107735f82610748565b600181019050610761565b5050565b601f8211156107c35761079481610665565b61079d84610677565b810160208510156107ac578190505b6107c06107b885610677565b830182610760565b50505b505050565b5f82821c905092915050565b5f6107e35f19846008026107c8565b1980831691505092915050565b5f6107fb83836107d4565b9150826002028217905092915050565b610814826105d1565b67ffffffffffffffff81111561082d5761082c6105db565b5b6108378254610635565b610842828285610782565b5f60209050601f831160018114610873575f8415610861578287015190505b61086b85826107f0565b8655506108d2565b601f19841661088186610665565b5f5b828110156108a857848901518255600182019150602085019450602081019050610883565b868310156108c557848901516108c1601f8916826107d4565b8355505b6001600288020188555050505b505050505050565b5f819050919050565b5f6108fd6108f86108f3846108da565b6106ec565b6106e3565b9050919050565b61090d816108e3565b82525050565b5f6020820190506109265f830184610904565b92915050565b5f73ffffffffffffffffffffffffffffffffffffffff82169050919050565b5f6109558261092c565b9050919050565b6109658161094b565b82525050565b5f60208201905061097e5f83018461095c565b92915050565b61098d816106e3565b82525050565b5f6040820190506109a65f830185610984565b6109b36020830184610984565b9392505050565b7f4e487b71000000000000000000000000000000000000000000000000000000005f52601160045260245ffd5b5f6109f1826106e3565b91506109fc836106e3565b9250828201905080821115610a1457610a136109ba565b5b92915050565b5f606082019050610a2d5f83018661095c565b610a3a6020830185610984565b610a476040830184610984565b949350505050565b5f602082019050610a625f830184610984565b92915050565b608051612b75610a805f395f6104290152612b755ff3fe608060405234801561000f575f80fd5b5060043610610109575f3560e01c806370a08231116100a057806395d89b411161006f57806395d89b411461027f578063a6773a981461029d578063a9059cbb146102b9578063dd62ed3e146102e9578063f2fde38b1461031957610109565b806370a082311461020b578063715018a61461023b57806379cc6790146102455780638da5cb5b1461026157610109565b8063313ce567116100dc578063313ce567146101a9578063355274ea146101c757806342966c68146101e55780634735c94c1461020157610109565b806306fdde031461010d578063095ea7b31461012b57806318160ddd1461015b57806323b872dd14610179575b5f80fd5b610115610335565b604051610122919061112f565b60405180910390f35b610145600480360381019061014091906111ed565b6103c5565b6040516101529190611245565b60405180910390f35b6101636103e7565b604051610170919061126d565b60405180910390f35b610193600480360381019061018e9190611286565b6103f0565b6040516101a09190611245565b60405180910390f35b6101b161041e565b6040516101be91906112f1565b60405180910390f35b6101cf610426565b6040516101dc919061126d565b60405180910390f35b6101ff60048036038101906101fa919061130a565b61044d565b005b610209610461565b005b61022560048036038101906102209190611335565b61059d565b604051610232919061126d565b60405180910390f35b6102436105e2565b005b61025f600480360381019061025a91906111ed565b6105f5565b005b610269610615565b604051610276919061136f565b60405180910390f35b61028761063d565b604051610294919061112f565b60405180910390f35b6102b760048036038101906102b29190611596565b6106cd565b005b6102d360048036038101906102ce91906111ed565b61078a565b6040516102e09190611245565b60405180910390f35b61030360048036038101906102fe919061160c565b6107ac565b604051610310919061126d565b60405180910390f35b610333600480360381019061032e9190611335565b61082e565b005b60606003805461034490611677565b80601f016020809104026020016040519081016040528092919081815260200182805461037090611677565b80156103bb5780601f10610392576101008083540402835291602001916103bb565b820191905f5260205f20905b81548152906001019060200180831161039e57829003601f168201915b5050505050905090565b5f806103cf6108b2565b90506103dc8185856108b9565b600191505092915050565b5f600254905090565b5f806103fa6108b2565b90506104078582856108cb565b61041285858561095e565b60019150509392505050565b5f6012905090565b5f7f0000000000000000000000000000000000000000000000000000000000000000905090565b61045e6104586108b2565b82610a4e565b50565b610469610acd565b5f73ffffffffffffffffffffffffffffffffffffffff1660065f60075481526020019081526020015f205f9054906101000a900473ffffffffffffffffffffffffffffffffffffffff1673ffffffffffffffffffffffffffffffffffffffff1614610509576040517f08c379a0000000000000000000000000000000000000000000000000000000008152600401610500906116f1565b60405180910390fd5b5f604051610516906110b2565b604051809103905ff08015801561052f573d5f803e3d5ffd5b5090508060065f60075481526020019081526020015f205f6101000a81548173ffffffffffffffffffffffffffffffffffffffff021916908373ffffffffffffffffffffffffffffffffffffffff16021790555060075f8154809291906105959061173c565b919050555050565b5f805f8373ffffffffffffffffffffffffffffffffffffffff1673ffffffffffffffffffffffffffffffffffffffff1681526020019081526020015f20549050919050565b6105ea610acd565b6105f35f610b54565b565b610607826106016108b2565b836108cb565b6106118282610a4e565b5050565b5f60055f9054906101000a900473ffffffffffffffffffffffffffffffffffffffff16905090565b60606004805461064c90611677565b80601f016020809104026020016040519081016040528092919081815260200182805461067890611677565b80156106c35780601f1061069a576101008083540402835291602001916106c3565b820191905f5260205f20905b8154815290600101906020018083116106a657829003601f168201915b5050505050905090565b6106d5610acd565b5f60016007546106e59190611783565b90505f73ffffffffffffffffffffffffffffffffffffffff1660065f8381526020019081526020015f205f9054906101000a900473ffffffffffffffffffffffffffffffffffffffff1673ffffffffffffffffffffffffffffffffffffffff1603610785576040517f08c379a000000000000000000000000000000000000000000000000000000000815260040161077c90611826565b60405180910390fd5b505050565b5f806107946108b2565b90506107a181858561095e565b600191505092915050565b5f60015f8473ffffffffffffffffffffffffffffffffffffffff1673ffffffffffffffffffffffffffffffffffffffff1681526020019081526020015f205f8373ffffffffffffffffffffffffffffffffffffffff1673ffffffffffffffffffffffffffffffffffffffff1681526020019081526020015f2054905092915050565b610836610acd565b5f73ffffffffffffffffffffffffffffffffffffffff168173ffffffffffffffffffffffffffffffffffffffff16036108a6575f6040517f1e4fbdf700000000000000000000000000000000000000000000000000000000815260040161089d919061136f565b60405180910390fd5b6108af81610b54565b50565b5f33905090565b6108c68383836001610c17565b505050565b5f6108d684846107ac565b90507fffffffffffffffffffffffffffffffffffffffffffffffffffffffffffffffff8110156109585781811015610949578281836040517ffb8f41b200000000000000000000000000000000000000000000000000000000815260040161094093929190611844565b60405180910390fd5b61095784848484035f610c17565b5b50505050565b5f73ffffffffffffffffffffffffffffffffffffffff168373ffffffffffffffffffffffffffffffffffffffff16036109ce575f6040517f96c6fd1e0000000000000000000000000000000000000000000000000000000081526004016109c5919061136f565b60405180910390fd5b5f73ffffffffffffffffffffffffffffffffffffffff168273ffffffffffffffffffffffffffffffffffffffff1603610a3e575f6040517fec442f05000000000000000000000000000000000000000000000000000000008152600401610a35919061136f565b60405180910390fd5b610a49838383610de6565b505050565b5f73ffffffffffffffffffffffffffffffffffffffff168273ffffffffffffffffffffffffffffffffffffffff1603610abe575f6040517f96c6fd1e000000000000000000000000000000000000000000000000000000008152600401610ab5919061136f565b60405180910390fd5b610ac9825f83610de6565b5050565b610ad56108b2565b73ffffffffffffffffffffffffffffffffffffffff16610af3610615565b73ffffffffffffffffffffffffffffffffffffffff1614610b5257610b166108b2565b6040517f118cdaa7000000000000000000000000000000000000000000000000000000008152600401610b49919061136f565b60405180910390fd5b565b5f60055f9054906101000a900473ffffffffffffffffffffffffffffffffffffffff1690508160055f6101000a81548173ffffffffffffffffffffffffffffffffffffffff021916908373ffffffffffffffffffffffffffffffffffffffff1602179055508173ffffffffffffffffffffffffffffffffffffffff168173ffffffffffffffffffffffffffffffffffffffff167f8be0079c531659141344cd1fd0a4f28419497f9722a3daafe3b4186f6b6457e060405160405180910390a35050565b5f73ffffffffffffffffffffffffffffffffffffffff168473ffffffffffffffffffffffffffffffffffffffff1603610c87575f6040517fe602df05000000000000000000000000000000000000000000000000000000008152600401610c7e919061136f565b60405180910390fd5b5f73ffffffffffffffffffffffffffffffffffffffff168373ffffffffffffffffffffffffffffffffffffffff1603610cf7575f6040517f94280d62000000000000000000000000000000000000000000000000000000008152600401610cee919061136f565b60405180910390fd5b8160015f8673ffffffffffffffffffffffffffffffffffffffff1673ffffffffffffffffffffffffffffffffffffffff1681526020019081526020015f205f8573ffffffffffffffffffffffffffffffffffffffff1673ffffffffffffffffffffffffffffffffffffffff1681526020019081526020015f20819055508015610de0578273ffffffffffffffffffffffffffffffffffffffff168473ffffffffffffffffffffffffffffffffffffffff167f8c5be1e5ebec7d5bd14f71427d1e84f3dd0314c0f7b2291e5b200ac8c7c3b92584604051610dd7919061126d565b60405180910390a35b50505050565b610df1838383610df6565b505050565b610e01838383610e99565b5f73ffffffffffffffffffffffffffffffffffffffff168373ffffffffffffffffffffffffffffffffffffffff1603610e94575f610e3d610426565b90505f610e486103e7565b905081811115610e915780826040517f9e79f854000000000000000000000000000000000000000000000000000000008152600401610e88929190611879565b60405180910390fd5b50505b505050565b5f73ffffffffffffffffffffffffffffffffffffffff168373ffffffffffffffffffffffffffffffffffffffff1603610ee9578060025f828254610edd91906118a0565b92505081905550610fb7565b5f805f8573ffffffffffffffffffffffffffffffffffffffff1673ffffffffffffffffffffffffffffffffffffffff1681526020019081526020015f2054905081811015610f72578381836040517fe450d38c000000000000000000000000000000000000000000000000000000008152600401610f6993929190611844565b60405180910390fd5b8181035f808673ffffffffffffffffffffffffffffffffffffffff1673ffffffffffffffffffffffffffffffffffffffff1681526020019081526020015f2081905550505b5f73ffffffffffffffffffffffffffffffffffffffff168273ffffffffffffffffffffffffffffffffffffffff1603610ffe578060025f8282540392505081905550611048565b805f808473ffffffffffffffffffffffffffffffffffffffff1673ffffffffffffffffffffffffffffffffffffffff1681526020019081526020015f205f82825401925050819055505b8173ffffffffffffffffffffffffffffffffffffffff168373ffffffffffffffffffffffffffffffffffffffff167fddf252ad1be2c89b69c2b068fc378daa952ba7f163c4a11628f55a4df523b3ef836040516110a5919061126d565b60405180910390a3505050565b61126c806118d483390190565b5f81519050919050565b5f82825260208201905092915050565b8281835e5f83830152505050565b5f601f19601f8301169050919050565b5f611101826110bf565b61110b81856110c9565b935061111b8185602086016110d9565b611124816110e7565b840191505092915050565b5f6020820190508181035f83015261114781846110f7565b905092915050565b5f604051905090565b5f80fd5b5f80fd5b5f73ffffffffffffffffffffffffffffffffffffffff82169050919050565b5f61118982611160565b9050919050565b6111998161117f565b81146111a3575f80fd5b50565b5f813590506111b481611190565b92915050565b5f819050919050565b6111cc816111ba565b81146111d6575f80fd5b50565b5f813590506111e7816111c3565b92915050565b5f806040838503121561120357611202611158565b5b5f611210858286016111a6565b9250506020611221858286016111d9565b9150509250929050565b5f8115159050919050565b61123f8161122b565b82525050565b5f6020820190506112585f830184611236565b92915050565b611267816111ba565b82525050565b5f6020820190506112805f83018461125e565b92915050565b5f805f6060848603121561129d5761129c611158565b5b5f6112aa868287016111a6565b93505060206112bb868287016111a6565b92505060406112cc868287016111d9565b9150509250925092565b5f60ff82169050919050565b6112eb816112d6565b82525050565b5f6020820190506113045f8301846112e2565b92915050565b5f6020828403121561131f5761131e611158565b5b5f61132c848285016111d9565b91505092915050565b5f6020828403121561134a57611349611158565b5b5f611357848285016111a6565b91505092915050565b6113698161117f565b82525050565b5f6020820190506113825f830184611360565b92915050565b5f80fd5b5f80fd5b7f4e487b71000000000000000000000000000000000000000000000000000000005f52604160045260245ffd5b6113c6826110e7565b810181811067ffffffffffffffff821117156113e5576113e4611390565b5b80604052505050565b5f6113f761114f565b905061140382826113bd565b919050565b5f67ffffffffffffffff82111561142257611421611390565b5b61142b826110e7565b9050602081019050919050565b828183375f83830152505050565b5f61145861145384611408565b6113ee565b9050828152602081018484840111156114745761147361138c565b5b61147f848285611438565b509392505050565b5f82601f83011261149b5761149a611388565b5b81356114ab848260208601611446565b91505092915050565b5f67ffffffffffffffff8211156114ce576114cd611390565b5b602082029050602081019050919050565b5f80fd5b5f6114f56114f0846114b4565b6113ee565b90508083825260208201905060208402830185811115611518576115176114df565b5b835b8181101561155f57803567ffffffffffffffff81111561153d5761153c611388565b5b80860161154a8982611487565b8552602085019450505060208101905061151a565b5050509392505050565b5f82601f83011261157d5761157c611388565b5b813561158d8482602086016114e3565b91505092915050565b5f80604083850312156115ac576115ab611158565b5b5f83013567ffffffffffffffff8111156115c9576115c861115c565b5b6115d585828601611487565b925050602083013567ffffffffffffffff8111156115f6576115f561115c565b5b61160285828601611569565b9150509250929050565b5f806040838503121561162257611621611158565b5b5f61162f858286016111a6565b9250506020611640858286016111a6565b9150509250929050565b7f4e487b71000000000000000000000000000000000000000000000000000000005f52602260045260245ffd5b5f600282049050600182168061168e57607f821691505b6020821081036116a1576116a061164a565b5b50919050565b7f6372756d6220616c656164792062616b656400000000000000000000000000005f82015250565b5f6116db6012836110c9565b91506116e6826116a7565b602082019050919050565b5f6020820190508181035f830152611708816116cf565b9050919050565b7f4e487b71000000000000000000000000000000000000000000000000000000005f52601160045260245ffd5b5f611746826111ba565b91507fffffffffffffffffffffffffffffffffffffffffffffffffffffffffffffffff82036117785761177761170f565b5b600182019050919050565b5f61178d826111ba565b9150611798836111ba565b92508282039050818111156117b0576117af61170f565b5b92915050565b7f6c617374657374206372756d6220646f6573206e6f742065786973742e2057685f8201527f6f206174652069743f0000000000000000000000000000000000000000000000602082015250565b5f6118106029836110c9565b915061181b826117b6565b604082019050919050565b5f6020820190508181035f83015261183d81611804565b9050919050565b5f6060820190506118575f830186611360565b611864602083018561125e565b611871604083018461125e565b949350505050565b5f60408201905061188c5f83018561125e565b611899602083018461125e565b9392505050565b5f6118aa826111ba565b91506118b5836111ba565b92508282019050808211156118cd576118cc61170f565b5b9291505056fe6080604052348015600e575f80fd5b506112508061001c5f395ff3fe608060405234801561000f575f80fd5b506004361061003f575f3560e01c80630c4960dd1461004357806370a56c731461005f578063b384abef1461008f575b5f80fd5b61005d6004803603810190610058919061096d565b6100ab565b005b61007960048036038101906100749190610a28565b6101fc565b6040516100869190610ca2565b60405180910390f35b6100a960048036038101906100a49190610cc2565b610453565b005b6002825110156100f0576040517f08c379a00000000000000000000000000000000000000000000000000000000081526004016100e790610d5a565b60405180910390fd5b5f825167ffffffffffffffff81111561010c5761010b610732565b5b60405190808252806020026020018201604052801561013a5781602001602082028036833780820191505090505b5090505f6040518060800160405280868152602001858152602001838152602001841515815250908060018154018082558091505060019003905f5260205f2090600402015f909190919091505f820151815f01908161019a9190610f72565b5060208201518160010190805190602001906101b79291906105c3565b5060408201518160020190805190602001906101d492919061061a565b506060820151816003015f6101000a81548160ff021916908315150217905550505050505050565b610204610665565b5f80549050821061024a576040517f08c379a00000000000000000000000000000000000000000000000000000000081526004016102419061108b565b60405180910390fd5b5f80838154811061025e5761025d6110a9565b5b905f5260205f2090600402016040518060800160405290815f8201805461028490610da5565b80601f01602080910402602001604051908101604052809291908181526020018280546102b090610da5565b80156102fb5780601f106102d2576101008083540402835291602001916102fb565b820191905f5260205f20905b8154815290600101906020018083116102de57829003601f168201915b5050505050815260200160018201805480602002602001604051908101604052809291908181526020015f905b828210156103d0578382905f5260205f2001805461034590610da5565b80601f016020809104026020016040519081016040528092919081815260200182805461037190610da5565b80156103bc5780601f10610393576101008083540402835291602001916103bc565b820191905f5260205f20905b81548152906001019060200180831161039f57829003601f168201915b505050505081526020019060010190610328565b5050505081526020016002820180548060200260200160405190810160405280929190818152602001828054801561042557602002820191905f5260205f20905b815481526020019060010190808311610411575b50505050508152602001600382015f9054906101000a900460ff161515151581525050905080915050919050565b5f805490508210610499576040517f08c379a00000000000000000000000000000000000000000000000000000000081526004016104909061108b565b60405180910390fd5b5f82815481106104ac576104ab6110a9565b5b905f5260205f2090600402016003015f9054906101000a900460ff16610507576040517f08c379a00000000000000000000000000000000000000000000000000000000081526004016104fe90611120565b60405180910390fd5b5f828154811061051a576105196110a9565b5b905f5260205f20906004020160010180549050811061056e576040517f08c379a000000000000000000000000000000000000000000000000000000000815260040161056590611188565b60405180910390fd5b5f8281548110610581576105806110a9565b5b905f5260205f20906004020160020181815481106105a2576105a16110a9565b5b905f5260205f20015f8154809291906105ba906111d3565b91905055505050565b828054828255905f5260205f20908101928215610609579160200282015b828111156106085782518290816105f89190610f72565b50916020019190600101906105e1565b5b509050610616919061068e565b5090565b828054828255905f5260205f20908101928215610654579160200282015b82811115610653578251825591602001919060010190610638565b5b50905061066191906106b1565b5090565b60405180608001604052806060815260200160608152602001606081526020015f151581525090565b5b808211156106ad575f81816106a491906106cc565b5060010161068f565b5090565b5b808211156106c8575f815f9055506001016106b2565b5090565b5080546106d890610da5565b5f825580601f106106e95750610706565b601f0160209004905f5260205f209081019061070591906106b1565b5b50565b5f604051905090565b5f80fd5b5f80fd5b5f80fd5b5f80fd5b5f601f19601f8301169050919050565b7f4e487b71000000000000000000000000000000000000000000000000000000005f52604160045260245ffd5b61076882610722565b810181811067ffffffffffffffff8211171561078757610786610732565b5b80604052505050565b5f610799610709565b90506107a5828261075f565b919050565b5f67ffffffffffffffff8211156107c4576107c3610732565b5b6107cd82610722565b9050602081019050919050565b828183375f83830152505050565b5f6107fa6107f5846107aa565b610790565b9050828152602081018484840111156108165761081561071e565b5b6108218482856107da565b509392505050565b5f82601f83011261083d5761083c61071a565b5b813561084d8482602086016107e8565b91505092915050565b5f67ffffffffffffffff8211156108705761086f610732565b5b602082029050602081019050919050565b5f80fd5b5f61089761089284610856565b610790565b905080838252602082019050602084028301858111156108ba576108b9610881565b5b835b8181101561090157803567ffffffffffffffff8111156108df576108de61071a565b5b8086016108ec8982610829565b855260208501945050506020810190506108bc565b5050509392505050565b5f82601f83011261091f5761091e61071a565b5b813561092f848260208601610885565b91505092915050565b5f8115159050919050565b61094c81610938565b8114610956575f80fd5b50565b5f8135905061096781610943565b92915050565b5f805f6060848603121561098457610983610712565b5b5f84013567ffffffffffffffff8111156109a1576109a0610716565b5b6109ad86828701610829565b935050602084013567ffffffffffffffff8111156109ce576109cd610716565b5b6109da8682870161090b565b92505060406109eb86828701610959565b9150509250925092565b5f819050919050565b610a07816109f5565b8114610a11575f80fd5b50565b5f81359050610a22816109fe565b92915050565b5f60208284031215610a3d57610a3c610712565b5b5f610a4a84828501610a14565b91505092915050565b5f81519050919050565b5f82825260208201905092915050565b8281835e5f83830152505050565b5f610a8582610a53565b610a8f8185610a5d565b9350610a9f818560208601610a6d565b610aa881610722565b840191505092915050565b5f81519050919050565b5f82825260208201905092915050565b5f819050602082019050919050565b5f610ae78383610a7b565b905092915050565b5f602082019050919050565b5f610b0582610ab3565b610b0f8185610abd565b935083602082028501610b2185610acd565b805f5b85811015610b5c5784840389528151610b3d8582610adc565b9450610b4883610aef565b925060208a01995050600181019050610b24565b50829750879550505050505092915050565b5f81519050919050565b5f82825260208201905092915050565b5f819050602082019050919050565b610ba0816109f5565b82525050565b5f610bb18383610b97565b60208301905092915050565b5f602082019050919050565b5f610bd382610b6e565b610bdd8185610b78565b9350610be883610b88565b805f5b83811015610c18578151610bff8882610ba6565b9750610c0a83610bbd565b925050600181019050610beb565b5085935050505092915050565b610c2e81610938565b82525050565b5f608083015f8301518482035f860152610c4e8282610a7b565b91505060208301518482036020860152610c688282610afb565b91505060408301518482036040860152610c828282610bc9565b9150506060830151610c976060860182610c25565b508091505092915050565b5f6020820190508181035f830152610cba8184610c34565b905092915050565b5f8060408385031215610cd857610cd7610712565b5b5f610ce585828601610a14565b9250506020610cf685828601610a14565b9150509250929050565b5f82825260208201905092915050565b7f4174206c656173742032206f7074696f6e7320617265207265717569726564005f82015250565b5f610d44601f83610d00565b9150610d4f82610d10565b602082019050919050565b5f6020820190508181035f830152610d7181610d38565b9050919050565b7f4e487b71000000000000000000000000000000000000000000000000000000005f52602260045260245ffd5b5f6002820490506001821680610dbc57607f821691505b602082108103610dcf57610dce610d78565b5b50919050565b5f819050815f5260205f209050919050565b5f6020601f8301049050919050565b5f82821b905092915050565b5f60088302610e317fffffffffffffffffffffffffffffffffffffffffffffffffffffffffffffffff82610df6565b610e3b8683610df6565b95508019841693508086168417925050509392505050565b5f819050919050565b5f610e76610e71610e6c846109f5565b610e53565b6109f5565b9050919050565b5f819050919050565b610e8f83610e5c565b610ea3610e9b82610e7d565b848454610e02565b825550505050565b5f90565b610eb7610eab565b610ec2818484610e86565b505050565b5b81811015610ee557610eda5f82610eaf565b600181019050610ec8565b5050565b601f821115610f2a57610efb81610dd5565b610f0484610de7565b81016020851015610f13578190505b610f27610f1f85610de7565b830182610ec7565b50505b505050565b5f82821c905092915050565b5f610f4a5f1984600802610f2f565b1980831691505092915050565b5f610f628383610f3b565b9150826002028217905092915050565b610f7b82610a53565b67ffffffffffffffff811115610f9457610f93610732565b5b610f9e8254610da5565b610fa9828285610ee9565b5f60209050601f831160018114610fda575f8415610fc8578287015190505b610fd28582610f57565b865550611039565b601f198416610fe886610dd5565b5f5b8281101561100f57848901518255600182019150602085019450602081019050610fea565b8683101561102c5784890151611028601f891682610f3b565b8355505b6001600288020188555050505b505050505050565b7f53757276657920646f6573206e6f7420657869737400000000000000000000005f82015250565b5f611075601583610d00565b915061108082611041565b602082019050919050565b5f6020820190508181035f8301526110a281611069565b9050919050565b7f4e487b71000000000000000000000000000000000000000000000000000000005f52603260045260245ffd5b7f537572766579206973206e6f74206163746976650000000000000000000000005f82015250565b5f61110a601483610d00565b9150611115826110d6565b602082019050919050565b5f6020820190508181035f830152611137816110fe565b9050919050565b7f496e76616c6964206f7074696f6e20696e6465780000000000000000000000005f82015250565b5f611172601483610d00565b915061117d8261113e565b602082019050919050565b5f6020820190508181035f83015261119f81611166565b9050919050565b7f4e487b71000000000000000000000000000000000000000000000000000000005f52601160045260245ffd5b5f6111dd826109f5565b91507fffffffffffffffffffffffffffffffffffffffffffffffffffffffffffffffff820361120f5761120e6111a6565b5b60018201905091905056fea2646970667358221220c02ac1f11b3a6456aec2e16f1a14cb18a96d8cedd9baa41dac3a411e16a42a9364736f6c634300081a0033a264697066735822122036ec3cb4402782f1409090f4dd7e3ec3e3e32f1800de1ba2aae388e959816aba64736f6c634300081a0033",
					"opcodes": "PUSH1 0xA0 PUSH1 0x40 MSTORE PUSH0 PUSH1 0x7 SSTORE PUSH1 0x32 PUSH1 0x8 SSTORE CALLVALUE DUP1 ISZERO PUSH2 0x18 JUMPI PUSH0 DUP1 REVERT JUMPDEST POP CALLER PUSH5 0x174876E800 PUSH1 0x40 MLOAD DUP1 PUSH1 0x40 ADD PUSH1 0x40 MSTORE DUP1 PUSH1 0x6 DUP2 MSTORE PUSH1 0x20 ADD PUSH32 0x536F626F726F0000000000000000000000000000000000000000000000000000 DUP2 MSTORE POP PUSH1 0x40 MLOAD DUP1 PUSH1 0x40 ADD PUSH1 0x40 MSTORE DUP1 PUSH1 0x3 DUP2 MSTORE PUSH1 0x20 ADD PUSH32 0x5342520000000000000000000000000000000000000000000000000000000000 DUP2 MSTORE POP DUP2 PUSH1 0x3 SWAP1 DUP2 PUSH2 0x9B SWAP2 SWAP1 PUSH2 0x80B JUMP JUMPDEST POP DUP1 PUSH1 0x4 SWAP1 DUP2 PUSH2 0xAB SWAP2 SWAP1 PUSH2 0x80B JUMP JUMPDEST POP POP POP PUSH0 DUP2 SUB PUSH2 0xF2 JUMPI PUSH0 PUSH1 0x40 MLOAD PUSH32 0x392E1E2700000000000000000000000000000000000000000000000000000000 DUP2 MSTORE PUSH1 0x4 ADD PUSH2 0xE9 SWAP2 SWAP1 PUSH2 0x913 JUMP JUMPDEST PUSH1 0x40 MLOAD DUP1 SWAP2 SUB SWAP1 REVERT JUMPDEST DUP1 PUSH1 0x80 DUP2 DUP2 MSTORE POP POP POP PUSH0 PUSH20 0xFFFFFFFFFFFFFFFFFFFFFFFFFFFFFFFFFFFFFFFF AND DUP2 PUSH20 0xFFFFFFFFFFFFFFFFFFFFFFFFFFFFFFFFFFFFFFFF AND SUB PUSH2 0x16B JUMPI PUSH0 PUSH1 0x40 MLOAD PUSH32 0x1E4FBDF700000000000000000000000000000000000000000000000000000000 DUP2 MSTORE PUSH1 0x4 ADD PUSH2 0x162 SWAP2 SWAP1 PUSH2 0x96B JUMP JUMPDEST PUSH1 0x40 MLOAD DUP1 SWAP2 SUB SWAP1 REVERT JUMPDEST PUSH2 0x17A DUP2 PUSH2 0x193 PUSH1 0x20 SHL PUSH1 0x20 SHR JUMP JUMPDEST POP PUSH2 0x18E CALLER PUSH3 0x186A0 PUSH2 0x256 PUSH1 0x20 SHL PUSH1 0x20 SHR JUMP JUMPDEST PUSH2 0xA68 JUMP JUMPDEST PUSH0 PUSH1 0x5 PUSH0 SWAP1 SLOAD SWAP1 PUSH2 0x100 EXP SWAP1 DIV PUSH20 0xFFFFFFFFFFFFFFFFFFFFFFFFFFFFFFFFFFFFFFFF AND SWAP1 POP DUP2 PUSH1 0x5 PUSH0 PUSH2 0x100 EXP DUP2 SLOAD DUP2 PUSH20 0xFFFFFFFFFFFFFFFFFFFFFFFFFFFFFFFFFFFFFFFF MUL NOT AND SWAP1 DUP4 PUSH20 0xFFFFFFFFFFFFFFFFFFFFFFFFFFFFFFFFFFFFFFFF AND MUL OR SWAP1 SSTORE POP DUP2 PUSH20 0xFFFFFFFFFFFFFFFFFFFFFFFFFFFFFFFFFFFFFFFF AND DUP2 PUSH20 0xFFFFFFFFFFFFFFFFFFFFFFFFFFFFFFFFFFFFFFFF AND PUSH32 0x8BE0079C531659141344CD1FD0A4F28419497F9722A3DAAFE3B4186F6B6457E0 PUSH1 0x40 MLOAD PUSH1 0x40 MLOAD DUP1 SWAP2 SUB SWAP1 LOG3 POP POP JUMP JUMPDEST PUSH0 PUSH20 0xFFFFFFFFFFFFFFFFFFFFFFFFFFFFFFFFFFFFFFFF AND DUP3 PUSH20 0xFFFFFFFFFFFFFFFFFFFFFFFFFFFFFFFFFFFFFFFF AND SUB PUSH2 0x2C6 JUMPI PUSH0 PUSH1 0x40 MLOAD PUSH32 0xEC442F0500000000000000000000000000000000000000000000000000000000 DUP2 MSTORE PUSH1 0x4 ADD PUSH2 0x2BD SWAP2 SWAP1 PUSH2 0x96B JUMP JUMPDEST PUSH1 0x40 MLOAD DUP1 SWAP2 SUB SWAP1 REVERT JUMPDEST PUSH2 0x2D7 PUSH0 DUP4 DUP4 PUSH2 0x2DB PUSH1 0x20 SHL PUSH1 0x20 SHR JUMP JUMPDEST POP POP JUMP JUMPDEST PUSH2 0x2EC DUP4 DUP4 DUP4 PUSH2 0x2F1 PUSH1 0x20 SHL PUSH1 0x20 SHR JUMP JUMPDEST POP POP POP JUMP JUMPDEST PUSH2 0x302 DUP4 DUP4 DUP4 PUSH2 0x3A6 PUSH1 0x20 SHL PUSH1 0x20 SHR JUMP JUMPDEST PUSH0 PUSH20 0xFFFFFFFFFFFFFFFFFFFFFFFFFFFFFFFFFFFFFFFF AND DUP4 PUSH20 0xFFFFFFFFFFFFFFFFFFFFFFFFFFFFFFFFFFFFFFFF AND SUB PUSH2 0x3A1 JUMPI PUSH0 PUSH2 0x344 PUSH2 0x5BF PUSH1 0x20 SHL PUSH1 0x20 SHR JUMP JUMPDEST SWAP1 POP PUSH0 PUSH2 0x355 PUSH2 0x5C8 PUSH1 0x20 SHL PUSH1 0x20 SHR JUMP JUMPDEST SWAP1 POP DUP2 DUP2 GT ISZERO PUSH2 0x39E JUMPI DUP1 DUP3 PUSH1 0x40 MLOAD PUSH32 0x9E79F85400000000000000000000000000000000000000000000000000000000 DUP2 MSTORE PUSH1 0x4 ADD PUSH2 0x395 SWAP3 SWAP2 SWAP1 PUSH2 0x993 JUMP JUMPDEST PUSH1 0x40 MLOAD DUP1 SWAP2 SUB SWAP1 REVERT JUMPDEST POP POP JUMPDEST POP POP POP JUMP JUMPDEST PUSH0 PUSH20 0xFFFFFFFFFFFFFFFFFFFFFFFFFFFFFFFFFFFFFFFF AND DUP4 PUSH20 0xFFFFFFFFFFFFFFFFFFFFFFFFFFFFFFFFFFFFFFFF AND SUB PUSH2 0x3F6 JUMPI DUP1 PUSH1 0x2 PUSH0 DUP3 DUP3 SLOAD PUSH2 0x3EA SWAP2 SWAP1 PUSH2 0x9E7 JUMP JUMPDEST SWAP3 POP POP DUP2 SWAP1 SSTORE POP PUSH2 0x4C4 JUMP JUMPDEST PUSH0 DUP1 PUSH0 DUP6 PUSH20 0xFFFFFFFFFFFFFFFFFFFFFFFFFFFFFFFFFFFFFFFF AND PUSH20 0xFFFFFFFFFFFFFFFFFFFFFFFFFFFFFFFFFFFFFFFF AND DUP2 MSTORE PUSH1 0x20 ADD SWAP1 DUP2 MSTORE PUSH1 0x20 ADD PUSH0 KECCAK256 SLOAD SWAP1 POP DUP2 DUP2 LT ISZERO PUSH2 0x47F JUMPI DUP4 DUP2 DUP4 PUSH1 0x40 MLOAD PUSH32 0xE450D38C00000000000000000000000000000000000000000000000000000000 DUP2 MSTORE PUSH1 0x4 ADD PUSH2 0x476 SWAP4 SWAP3 SWAP2 SWAP1 PUSH2 0xA1A JUMP JUMPDEST PUSH1 0x40 MLOAD DUP1 SWAP2 SUB SWAP1 REVERT JUMPDEST DUP2 DUP2 SUB PUSH0 DUP1 DUP7 PUSH20 0xFFFFFFFFFFFFFFFFFFFFFFFFFFFFFFFFFFFFFFFF AND PUSH20 0xFFFFFFFFFFFFFFFFFFFFFFFFFFFFFFFFFFFFFFFF AND DUP2 MSTORE PUSH1 0x20 ADD SWAP1 DUP2 MSTORE PUSH1 0x20 ADD PUSH0 KECCAK256 DUP2 SWAP1 SSTORE POP POP JUMPDEST PUSH0 PUSH20 0xFFFFFFFFFFFFFFFFFFFFFFFFFFFFFFFFFFFFFFFF AND DUP3 PUSH20 0xFFFFFFFFFFFFFFFFFFFFFFFFFFFFFFFFFFFFFFFF AND SUB PUSH2 0x50B JUMPI DUP1 PUSH1 0x2 PUSH0 DUP3 DUP3 SLOAD SUB SWAP3 POP POP DUP2 SWAP1 SSTORE POP PUSH2 0x555 JUMP JUMPDEST DUP1 PUSH0 DUP1 DUP5 PUSH20 0xFFFFFFFFFFFFFFFFFFFFFFFFFFFFFFFFFFFFFFFF AND PUSH20 0xFFFFFFFFFFFFFFFFFFFFFFFFFFFFFFFFFFFFFFFF AND DUP2 MSTORE PUSH1 0x20 ADD SWAP1 DUP2 MSTORE PUSH1 0x20 ADD PUSH0 KECCAK256 PUSH0 DUP3 DUP3 SLOAD ADD SWAP3 POP POP DUP2 SWAP1 SSTORE POP JUMPDEST DUP2 PUSH20 0xFFFFFFFFFFFFFFFFFFFFFFFFFFFFFFFFFFFFFFFF AND DUP4 PUSH20 0xFFFFFFFFFFFFFFFFFFFFFFFFFFFFFFFFFFFFFFFF AND PUSH32 0xDDF252AD1BE2C89B69C2B068FC378DAA952BA7F163C4A11628F55A4DF523B3EF DUP4 PUSH1 0x40 MLOAD PUSH2 0x5B2 SWAP2 SWAP1 PUSH2 0xA4F JUMP JUMPDEST PUSH1 0x40 MLOAD DUP1 SWAP2 SUB SWAP1 LOG3 POP POP POP JUMP JUMPDEST PUSH0 PUSH1 0x80 MLOAD SWAP1 POP SWAP1 JUMP JUMPDEST PUSH0 PUSH1 0x2 SLOAD SWAP1 POP SWAP1 JUMP JUMPDEST PUSH0 DUP2 MLOAD SWAP1 POP SWAP2 SWAP1 POP JUMP JUMPDEST PUSH32 0x4E487B7100000000000000000000000000000000000000000000000000000000 PUSH0 MSTORE PUSH1 0x41 PUSH1 0x4 MSTORE PUSH1 0x24 PUSH0 REVERT JUMPDEST PUSH32 0x4E487B7100000000000000000000000000000000000000000000000000000000 PUSH0 MSTORE PUSH1 0x22 PUSH1 0x4 MSTORE PUSH1 0x24 PUSH0 REVERT JUMPDEST PUSH0 PUSH1 0x2 DUP3 DIV SWAP1 POP PUSH1 0x1 DUP3 AND DUP1 PUSH2 0x64C JUMPI PUSH1 0x7F DUP3 AND SWAP2 POP JUMPDEST PUSH1 0x20 DUP3 LT DUP2 SUB PUSH2 0x65F JUMPI PUSH2 0x65E PUSH2 0x608 JUMP JUMPDEST JUMPDEST POP SWAP2 SWAP1 POP JUMP JUMPDEST PUSH0 DUP2 SWAP1 POP DUP2 PUSH0 MSTORE PUSH1 0x20 PUSH0 KECCAK256 SWAP1 POP SWAP2 SWAP1 POP JUMP JUMPDEST PUSH0 PUSH1 0x20 PUSH1 0x1F DUP4 ADD DIV SWAP1 POP SWAP2 SWAP1 POP JUMP JUMPDEST PUSH0 DUP3 DUP3 SHL SWAP1 POP SWAP3 SWAP2 POP POP JUMP JUMPDEST PUSH0 PUSH1 0x8 DUP4 MUL PUSH2 0x6C1 PUSH32 0xFFFFFFFFFFFFFFFFFFFFFFFFFFFFFFFFFFFFFFFFFFFFFFFFFFFFFFFFFFFFFFFF DUP3 PUSH2 0x686 JUMP JUMPDEST PUSH2 0x6CB DUP7 DUP4 PUSH2 0x686 JUMP JUMPDEST SWAP6 POP DUP1 NOT DUP5 AND SWAP4 POP DUP1 DUP7 AND DUP5 OR SWAP3 POP POP POP SWAP4 SWAP3 POP POP POP JUMP JUMPDEST PUSH0 DUP2 SWAP1 POP SWAP2 SWAP1 POP JUMP JUMPDEST PUSH0 DUP2 SWAP1 POP SWAP2 SWAP1 POP JUMP JUMPDEST PUSH0 PUSH2 0x70F PUSH2 0x70A PUSH2 0x705 DUP5 PUSH2 0x6E3 JUMP JUMPDEST PUSH2 0x6EC JUMP JUMPDEST PUSH2 0x6E3 JUMP JUMPDEST SWAP1 POP SWAP2 SWAP1 POP JUMP JUMPDEST PUSH0 DUP2 SWAP1 POP SWAP2 SWAP1 POP JUMP JUMPDEST PUSH2 0x728 DUP4 PUSH2 0x6F5 JUMP JUMPDEST PUSH2 0x73C PUSH2 0x734 DUP3 PUSH2 0x716 JUMP JUMPDEST DUP5 DUP5 SLOAD PUSH2 0x692 JUMP JUMPDEST DUP3 SSTORE POP POP POP POP JUMP JUMPDEST PUSH0 SWAP1 JUMP JUMPDEST PUSH2 0x750 PUSH2 0x744 JUMP JUMPDEST PUSH2 0x75B DUP2 DUP5 DUP5 PUSH2 0x71F JUMP JUMPDEST POP POP POP JUMP JUMPDEST JUMPDEST DUP2 DUP2 LT ISZERO PUSH2 0x77E JUMPI PUSH2 0x773 PUSH0 DUP3 PUSH2 0x748 JUMP JUMPDEST PUSH1 0x1 DUP2 ADD SWAP1 POP PUSH2 0x761 JUMP JUMPDEST POP POP JUMP JUMPDEST PUSH1 0x1F DUP3 GT ISZERO PUSH2 0x7C3 JUMPI PUSH2 0x794 DUP2 PUSH2 0x665 JUMP JUMPDEST PUSH2 0x79D DUP5 PUSH2 0x677 JUMP JUMPDEST DUP2 ADD PUSH1 0x20 DUP6 LT ISZERO PUSH2 0x7AC JUMPI DUP2 SWAP1 POP JUMPDEST PUSH2 0x7C0 PUSH2 0x7B8 DUP6 PUSH2 0x677 JUMP JUMPDEST DUP4 ADD DUP3 PUSH2 0x760 JUMP JUMPDEST POP POP JUMPDEST POP POP POP JUMP JUMPDEST PUSH0 DUP3 DUP3 SHR SWAP1 POP SWAP3 SWAP2 POP POP JUMP JUMPDEST PUSH0 PUSH2 0x7E3 PUSH0 NOT DUP5 PUSH1 0x8 MUL PUSH2 0x7C8 JUMP JUMPDEST NOT DUP1 DUP4 AND SWAP2 POP POP SWAP3 SWAP2 POP POP JUMP JUMPDEST PUSH0 PUSH2 0x7FB DUP4 DUP4 PUSH2 0x7D4 JUMP JUMPDEST SWAP2 POP DUP3 PUSH1 0x2 MUL DUP3 OR SWAP1 POP SWAP3 SWAP2 POP POP JUMP JUMPDEST PUSH2 0x814 DUP3 PUSH2 0x5D1 JUMP JUMPDEST PUSH8 0xFFFFFFFFFFFFFFFF DUP2 GT ISZERO PUSH2 0x82D JUMPI PUSH2 0x82C PUSH2 0x5DB JUMP JUMPDEST JUMPDEST PUSH2 0x837 DUP3 SLOAD PUSH2 0x635 JUMP JUMPDEST PUSH2 0x842 DUP3 DUP3 DUP6 PUSH2 0x782 JUMP JUMPDEST PUSH0 PUSH1 0x20 SWAP1 POP PUSH1 0x1F DUP4 GT PUSH1 0x1 DUP2 EQ PUSH2 0x873 JUMPI PUSH0 DUP5 ISZERO PUSH2 0x861 JUMPI DUP3 DUP8 ADD MLOAD SWAP1 POP JUMPDEST PUSH2 0x86B DUP6 DUP3 PUSH2 0x7F0 JUMP JUMPDEST DUP7 SSTORE POP PUSH2 0x8D2 JUMP JUMPDEST PUSH1 0x1F NOT DUP5 AND PUSH2 0x881 DUP7 PUSH2 0x665 JUMP JUMPDEST PUSH0 JUMPDEST DUP3 DUP2 LT ISZERO PUSH2 0x8A8 JUMPI DUP5 DUP10 ADD MLOAD DUP3 SSTORE PUSH1 0x1 DUP3 ADD SWAP2 POP PUSH1 0x20 DUP6 ADD SWAP5 POP PUSH1 0x20 DUP2 ADD SWAP1 POP PUSH2 0x883 JUMP JUMPDEST DUP7 DUP4 LT ISZERO PUSH2 0x8C5 JUMPI DUP5 DUP10 ADD MLOAD PUSH2 0x8C1 PUSH1 0x1F DUP10 AND DUP3 PUSH2 0x7D4 JUMP JUMPDEST DUP4 SSTORE POP JUMPDEST PUSH1 0x1 PUSH1 0x2 DUP9 MUL ADD DUP9 SSTORE POP POP POP JUMPDEST POP POP POP POP POP POP JUMP JUMPDEST PUSH0 DUP2 SWAP1 POP SWAP2 SWAP1 POP JUMP JUMPDEST PUSH0 PUSH2 0x8FD PUSH2 0x8F8 PUSH2 0x8F3 DUP5 PUSH2 0x8DA JUMP JUMPDEST PUSH2 0x6EC JUMP JUMPDEST PUSH2 0x6E3 JUMP JUMPDEST SWAP1 POP SWAP2 SWAP1 POP JUMP JUMPDEST PUSH2 0x90D DUP2 PUSH2 0x8E3 JUMP JUMPDEST DUP3 MSTORE POP POP JUMP JUMPDEST PUSH0 PUSH1 0x20 DUP3 ADD SWAP1 POP PUSH2 0x926 PUSH0 DUP4 ADD DUP5 PUSH2 0x904 JUMP JUMPDEST SWAP3 SWAP2 POP POP JUMP JUMPDEST PUSH0 PUSH20 0xFFFFFFFFFFFFFFFFFFFFFFFFFFFFFFFFFFFFFFFF DUP3 AND SWAP1 POP SWAP2 SWAP1 POP JUMP JUMPDEST PUSH0 PUSH2 0x955 DUP3 PUSH2 0x92C JUMP JUMPDEST SWAP1 POP SWAP2 SWAP1 POP JUMP JUMPDEST PUSH2 0x965 DUP2 PUSH2 0x94B JUMP JUMPDEST DUP3 MSTORE POP POP JUMP JUMPDEST PUSH0 PUSH1 0x20 DUP3 ADD SWAP1 POP PUSH2 0x97E PUSH0 DUP4 ADD DUP5 PUSH2 0x95C JUMP JUMPDEST SWAP3 SWAP2 POP POP JUMP JUMPDEST PUSH2 0x98D DUP2 PUSH2 0x6E3 JUMP JUMPDEST DUP3 MSTORE POP POP JUMP JUMPDEST PUSH0 PUSH1 0x40 DUP3 ADD SWAP1 POP PUSH2 0x9A6 PUSH0 DUP4 ADD DUP6 PUSH2 0x984 JUMP JUMPDEST PUSH2 0x9B3 PUSH1 0x20 DUP4 ADD DUP5 PUSH2 0x984 JUMP JUMPDEST SWAP4 SWAP3 POP POP POP JUMP JUMPDEST PUSH32 0x4E487B7100000000000000000000000000000000000000000000000000000000 PUSH0 MSTORE PUSH1 0x11 PUSH1 0x4 MSTORE PUSH1 0x24 PUSH0 REVERT JUMPDEST PUSH0 PUSH2 0x9F1 DUP3 PUSH2 0x6E3 JUMP JUMPDEST SWAP2 POP PUSH2 0x9FC DUP4 PUSH2 0x6E3 JUMP JUMPDEST SWAP3 POP DUP3 DUP3 ADD SWAP1 POP DUP1 DUP3 GT ISZERO PUSH2 0xA14 JUMPI PUSH2 0xA13 PUSH2 0x9BA JUMP JUMPDEST JUMPDEST SWAP3 SWAP2 POP POP JUMP JUMPDEST PUSH0 PUSH1 0x60 DUP3 ADD SWAP1 POP PUSH2 0xA2D PUSH0 DUP4 ADD DUP7 PUSH2 0x95C JUMP JUMPDEST PUSH2 0xA3A PUSH1 0x20 DUP4 ADD DUP6 PUSH2 0x984 JUMP JUMPDEST PUSH2 0xA47 PUSH1 0x40 DUP4 ADD DUP5 PUSH2 0x984 JUMP JUMPDEST SWAP5 SWAP4 POP POP POP POP JUMP JUMPDEST PUSH0 PUSH1 0x20 DUP3 ADD SWAP1 POP PUSH2 0xA62 PUSH0 DUP4 ADD DUP5 PUSH2 0x984 JUMP JUMPDEST SWAP3 SWAP2 POP POP JUMP JUMPDEST PUSH1 0x80 MLOAD PUSH2 0x2B75 PUSH2 0xA80 PUSH0 CODECOPY PUSH0 PUSH2 0x429 ADD MSTORE PUSH2 0x2B75 PUSH0 RETURN INVALID PUSH1 0x80 PUSH1 0x40 MSTORE CALLVALUE DUP1 ISZERO PUSH2 0xF JUMPI PUSH0 DUP1 REVERT JUMPDEST POP PUSH1 0x4 CALLDATASIZE LT PUSH2 0x109 JUMPI PUSH0 CALLDATALOAD PUSH1 0xE0 SHR DUP1 PUSH4 0x70A08231 GT PUSH2 0xA0 JUMPI DUP1 PUSH4 0x95D89B41 GT PUSH2 0x6F JUMPI DUP1 PUSH4 0x95D89B41 EQ PUSH2 0x27F JUMPI DUP1 PUSH4 0xA6773A98 EQ PUSH2 0x29D JUMPI DUP1 PUSH4 0xA9059CBB EQ PUSH2 0x2B9 JUMPI DUP1 PUSH4 0xDD62ED3E EQ PUSH2 0x2E9 JUMPI DUP1 PUSH4 0xF2FDE38B EQ PUSH2 0x319 JUMPI PUSH2 0x109 JUMP JUMPDEST DUP1 PUSH4 0x70A08231 EQ PUSH2 0x20B JUMPI DUP1 PUSH4 0x715018A6 EQ PUSH2 0x23B JUMPI DUP1 PUSH4 0x79CC6790 EQ PUSH2 0x245 JUMPI DUP1 PUSH4 0x8DA5CB5B EQ PUSH2 0x261 JUMPI PUSH2 0x109 JUMP JUMPDEST DUP1 PUSH4 0x313CE567 GT PUSH2 0xDC JUMPI DUP1 PUSH4 0x313CE567 EQ PUSH2 0x1A9 JUMPI DUP1 PUSH4 0x355274EA EQ PUSH2 0x1C7 JUMPI DUP1 PUSH4 0x42966C68 EQ PUSH2 0x1E5 JUMPI DUP1 PUSH4 0x4735C94C EQ PUSH2 0x201 JUMPI PUSH2 0x109 JUMP JUMPDEST DUP1 PUSH4 0x6FDDE03 EQ PUSH2 0x10D JUMPI DUP1 PUSH4 0x95EA7B3 EQ PUSH2 0x12B JUMPI DUP1 PUSH4 0x18160DDD EQ PUSH2 0x15B JUMPI DUP1 PUSH4 0x23B872DD EQ PUSH2 0x179 JUMPI JUMPDEST PUSH0 DUP1 REVERT JUMPDEST PUSH2 0x115 PUSH2 0x335 JUMP JUMPDEST PUSH1 0x40 MLOAD PUSH2 0x122 SWAP2 SWAP1 PUSH2 0x112F JUMP JUMPDEST PUSH1 0x40 MLOAD DUP1 SWAP2 SUB SWAP1 RETURN JUMPDEST PUSH2 0x145 PUSH1 0x4 DUP1 CALLDATASIZE SUB DUP2 ADD SWAP1 PUSH2 0x140 SWAP2 SWAP1 PUSH2 0x11ED JUMP JUMPDEST PUSH2 0x3C5 JUMP JUMPDEST PUSH1 0x40 MLOAD PUSH2 0x152 SWAP2 SWAP1 PUSH2 0x1245 JUMP JUMPDEST PUSH1 0x40 MLOAD DUP1 SWAP2 SUB SWAP1 RETURN JUMPDEST PUSH2 0x163 PUSH2 0x3E7 JUMP JUMPDEST PUSH1 0x40 MLOAD PUSH2 0x170 SWAP2 SWAP1 PUSH2 0x126D JUMP JUMPDEST PUSH1 0x40 MLOAD DUP1 SWAP2 SUB SWAP1 RETURN JUMPDEST PUSH2 0x193 PUSH1 0x4 DUP1 CALLDATASIZE SUB DUP2 ADD SWAP1 PUSH2 0x18E SWAP2 SWAP1 PUSH2 0x1286 JUMP JUMPDEST PUSH2 0x3F0 JUMP JUMPDEST PUSH1 0x40 MLOAD PUSH2 0x1A0 SWAP2 SWAP1 PUSH2 0x1245 JUMP JUMPDEST PUSH1 0x40 MLOAD DUP1 SWAP2 SUB SWAP1 RETURN JUMPDEST PUSH2 0x1B1 PUSH2 0x41E JUMP JUMPDEST PUSH1 0x40 MLOAD PUSH2 0x1BE SWAP2 SWAP1 PUSH2 0x12F1 JUMP JUMPDEST PUSH1 0x40 MLOAD DUP1 SWAP2 SUB SWAP1 RETURN JUMPDEST PUSH2 0x1CF PUSH2 0x426 JUMP JUMPDEST PUSH1 0x40 MLOAD PUSH2 0x1DC SWAP2 SWAP1 PUSH2 0x126D JUMP JUMPDEST PUSH1 0x40 MLOAD DUP1 SWAP2 SUB SWAP1 RETURN JUMPDEST PUSH2 0x1FF PUSH1 0x4 DUP1 CALLDATASIZE SUB DUP2 ADD SWAP1 PUSH2 0x1FA SWAP2 SWAP1 PUSH2 0x130A JUMP JUMPDEST PUSH2 0x44D JUMP JUMPDEST STOP JUMPDEST PUSH2 0x209 PUSH2 0x461 JUMP JUMPDEST STOP JUMPDEST PUSH2 0x225 PUSH1 0x4 DUP1 CALLDATASIZE SUB DUP2 ADD SWAP1 PUSH2 0x220 SWAP2 SWAP1 PUSH2 0x1335 JUMP JUMPDEST PUSH2 0x59D JUMP JUMPDEST PUSH1 0x40 MLOAD PUSH2 0x232 SWAP2 SWAP1 PUSH2 0x126D JUMP JUMPDEST PUSH1 0x40 MLOAD DUP1 SWAP2 SUB SWAP1 RETURN JUMPDEST PUSH2 0x243 PUSH2 0x5E2 JUMP JUMPDEST STOP JUMPDEST PUSH2 0x25F PUSH1 0x4 DUP1 CALLDATASIZE SUB DUP2 ADD SWAP1 PUSH2 0x25A SWAP2 SWAP1 PUSH2 0x11ED JUMP JUMPDEST PUSH2 0x5F5 JUMP JUMPDEST STOP JUMPDEST PUSH2 0x269 PUSH2 0x615 JUMP JUMPDEST PUSH1 0x40 MLOAD PUSH2 0x276 SWAP2 SWAP1 PUSH2 0x136F JUMP JUMPDEST PUSH1 0x40 MLOAD DUP1 SWAP2 SUB SWAP1 RETURN JUMPDEST PUSH2 0x287 PUSH2 0x63D JUMP JUMPDEST PUSH1 0x40 MLOAD PUSH2 0x294 SWAP2 SWAP1 PUSH2 0x112F JUMP JUMPDEST PUSH1 0x40 MLOAD DUP1 SWAP2 SUB SWAP1 RETURN JUMPDEST PUSH2 0x2B7 PUSH1 0x4 DUP1 CALLDATASIZE SUB DUP2 ADD SWAP1 PUSH2 0x2B2 SWAP2 SWAP1 PUSH2 0x1596 JUMP JUMPDEST PUSH2 0x6CD JUMP JUMPDEST STOP JUMPDEST PUSH2 0x2D3 PUSH1 0x4 DUP1 CALLDATASIZE SUB DUP2 ADD SWAP1 PUSH2 0x2CE SWAP2 SWAP1 PUSH2 0x11ED JUMP JUMPDEST PUSH2 0x78A JUMP JUMPDEST PUSH1 0x40 MLOAD PUSH2 0x2E0 SWAP2 SWAP1 PUSH2 0x1245 JUMP JUMPDEST PUSH1 0x40 MLOAD DUP1 SWAP2 SUB SWAP1 RETURN JUMPDEST PUSH2 0x303 PUSH1 0x4 DUP1 CALLDATASIZE SUB DUP2 ADD SWAP1 PUSH2 0x2FE SWAP2 SWAP1 PUSH2 0x160C JUMP JUMPDEST PUSH2 0x7AC JUMP JUMPDEST PUSH1 0x40 MLOAD PUSH2 0x310 SWAP2 SWAP1 PUSH2 0x126D JUMP JUMPDEST PUSH1 0x40 MLOAD DUP1 SWAP2 SUB SWAP1 RETURN JUMPDEST PUSH2 0x333 PUSH1 0x4 DUP1 CALLDATASIZE SUB DUP2 ADD SWAP1 PUSH2 0x32E SWAP2 SWAP1 PUSH2 0x1335 JUMP JUMPDEST PUSH2 0x82E JUMP JUMPDEST STOP JUMPDEST PUSH1 0x60 PUSH1 0x3 DUP1 SLOAD PUSH2 0x344 SWAP1 PUSH2 0x1677 JUMP JUMPDEST DUP1 PUSH1 0x1F ADD PUSH1 0x20 DUP1 SWAP2 DIV MUL PUSH1 0x20 ADD PUSH1 0x40 MLOAD SWAP1 DUP2 ADD PUSH1 0x40 MSTORE DUP1 SWAP3 SWAP2 SWAP1 DUP2 DUP2 MSTORE PUSH1 0x20 ADD DUP3 DUP1 SLOAD PUSH2 0x370 SWAP1 PUSH2 0x1677 JUMP JUMPDEST DUP1 ISZERO PUSH2 0x3BB JUMPI DUP1 PUSH1 0x1F LT PUSH2 0x392 JUMPI PUSH2 0x100 DUP1 DUP4 SLOAD DIV MUL DUP4 MSTORE SWAP2 PUSH1 0x20 ADD SWAP2 PUSH2 0x3BB JUMP JUMPDEST DUP3 ADD SWAP2 SWAP1 PUSH0 MSTORE PUSH1 0x20 PUSH0 KECCAK256 SWAP1 JUMPDEST DUP2 SLOAD DUP2 MSTORE SWAP1 PUSH1 0x1 ADD SWAP1 PUSH1 0x20 ADD DUP1 DUP4 GT PUSH2 0x39E JUMPI DUP3 SWAP1 SUB PUSH1 0x1F AND DUP3 ADD SWAP2 JUMPDEST POP POP POP POP POP SWAP1 POP SWAP1 JUMP JUMPDEST PUSH0 DUP1 PUSH2 0x3CF PUSH2 0x8B2 JUMP JUMPDEST SWAP1 POP PUSH2 0x3DC DUP2 DUP6 DUP6 PUSH2 0x8B9 JUMP JUMPDEST PUSH1 0x1 SWAP2 POP POP SWAP3 SWAP2 POP POP JUMP JUMPDEST PUSH0 PUSH1 0x2 SLOAD SWAP1 POP SWAP1 JUMP JUMPDEST PUSH0 DUP1 PUSH2 0x3FA PUSH2 0x8B2 JUMP JUMPDEST SWAP1 POP PUSH2 0x407 DUP6 DUP3 DUP6 PUSH2 0x8CB JUMP JUMPDEST PUSH2 0x412 DUP6 DUP6 DUP6 PUSH2 0x95E JUMP JUMPDEST PUSH1 0x1 SWAP2 POP POP SWAP4 SWAP3 POP POP POP JUMP JUMPDEST PUSH0 PUSH1 0x12 SWAP1 POP SWAP1 JUMP JUMPDEST PUSH0 PUSH32 0x0 SWAP1 POP SWAP1 JUMP JUMPDEST PUSH2 0x45E PUSH2 0x458 PUSH2 0x8B2 JUMP JUMPDEST DUP3 PUSH2 0xA4E JUMP JUMPDEST POP JUMP JUMPDEST PUSH2 0x469 PUSH2 0xACD JUMP JUMPDEST PUSH0 PUSH20 0xFFFFFFFFFFFFFFFFFFFFFFFFFFFFFFFFFFFFFFFF AND PUSH1 0x6 PUSH0 PUSH1 0x7 SLOAD DUP2 MSTORE PUSH1 0x20 ADD SWAP1 DUP2 MSTORE PUSH1 0x20 ADD PUSH0 KECCAK256 PUSH0 SWAP1 SLOAD SWAP1 PUSH2 0x100 EXP SWAP1 DIV PUSH20 0xFFFFFFFFFFFFFFFFFFFFFFFFFFFFFFFFFFFFFFFF AND PUSH20 0xFFFFFFFFFFFFFFFFFFFFFFFFFFFFFFFFFFFFFFFF AND EQ PUSH2 0x509 JUMPI PUSH1 0x40 MLOAD PUSH32 0x8C379A000000000000000000000000000000000000000000000000000000000 DUP2 MSTORE PUSH1 0x4 ADD PUSH2 0x500 SWAP1 PUSH2 0x16F1 JUMP JUMPDEST PUSH1 0x40 MLOAD DUP1 SWAP2 SUB SWAP1 REVERT JUMPDEST PUSH0 PUSH1 0x40 MLOAD PUSH2 0x516 SWAP1 PUSH2 0x10B2 JUMP JUMPDEST PUSH1 0x40 MLOAD DUP1 SWAP2 SUB SWAP1 PUSH0 CREATE DUP1 ISZERO DUP1 ISZERO PUSH2 0x52F JUMPI RETURNDATASIZE PUSH0 DUP1 RETURNDATACOPY RETURNDATASIZE PUSH0 REVERT JUMPDEST POP SWAP1 POP DUP1 PUSH1 0x6 PUSH0 PUSH1 0x7 SLOAD DUP2 MSTORE PUSH1 0x20 ADD SWAP1 DUP2 MSTORE PUSH1 0x20 ADD PUSH0 KECCAK256 PUSH0 PUSH2 0x100 EXP DUP2 SLOAD DUP2 PUSH20 0xFFFFFFFFFFFFFFFFFFFFFFFFFFFFFFFFFFFFFFFF MUL NOT AND SWAP1 DUP4 PUSH20 0xFFFFFFFFFFFFFFFFFFFFFFFFFFFFFFFFFFFFFFFF AND MUL OR SWAP1 SSTORE POP PUSH1 0x7 PUSH0 DUP2 SLOAD DUP1 SWAP3 SWAP2 SWAP1 PUSH2 0x595 SWAP1 PUSH2 0x173C JUMP JUMPDEST SWAP2 SWAP1 POP SSTORE POP POP JUMP JUMPDEST PUSH0 DUP1 PUSH0 DUP4 PUSH20 0xFFFFFFFFFFFFFFFFFFFFFFFFFFFFFFFFFFFFFFFF AND PUSH20 0xFFFFFFFFFFFFFFFFFFFFFFFFFFFFFFFFFFFFFFFF AND DUP2 MSTORE PUSH1 0x20 ADD SWAP1 DUP2 MSTORE PUSH1 0x20 ADD PUSH0 KECCAK256 SLOAD SWAP1 POP SWAP2 SWAP1 POP JUMP JUMPDEST PUSH2 0x5EA PUSH2 0xACD JUMP JUMPDEST PUSH2 0x5F3 PUSH0 PUSH2 0xB54 JUMP JUMPDEST JUMP JUMPDEST PUSH2 0x607 DUP3 PUSH2 0x601 PUSH2 0x8B2 JUMP JUMPDEST DUP4 PUSH2 0x8CB JUMP JUMPDEST PUSH2 0x611 DUP3 DUP3 PUSH2 0xA4E JUMP JUMPDEST POP POP JUMP JUMPDEST PUSH0 PUSH1 0x5 PUSH0 SWAP1 SLOAD SWAP1 PUSH2 0x100 EXP SWAP1 DIV PUSH20 0xFFFFFFFFFFFFFFFFFFFFFFFFFFFFFFFFFFFFFFFF AND SWAP1 POP SWAP1 JUMP JUMPDEST PUSH1 0x60 PUSH1 0x4 DUP1 SLOAD PUSH2 0x64C SWAP1 PUSH2 0x1677 JUMP JUMPDEST DUP1 PUSH1 0x1F ADD PUSH1 0x20 DUP1 SWAP2 DIV MUL PUSH1 0x20 ADD PUSH1 0x40 MLOAD SWAP1 DUP2 ADD PUSH1 0x40 MSTORE DUP1 SWAP3 SWAP2 SWAP1 DUP2 DUP2 MSTORE PUSH1 0x20 ADD DUP3 DUP1 SLOAD PUSH2 0x678 SWAP1 PUSH2 0x1677 JUMP JUMPDEST DUP1 ISZERO PUSH2 0x6C3 JUMPI DUP1 PUSH1 0x1F LT PUSH2 0x69A JUMPI PUSH2 0x100 DUP1 DUP4 SLOAD DIV MUL DUP4 MSTORE SWAP2 PUSH1 0x20 ADD SWAP2 PUSH2 0x6C3 JUMP JUMPDEST DUP3 ADD SWAP2 SWAP1 PUSH0 MSTORE PUSH1 0x20 PUSH0 KECCAK256 SWAP1 JUMPDEST DUP2 SLOAD DUP2 MSTORE SWAP1 PUSH1 0x1 ADD SWAP1 PUSH1 0x20 ADD DUP1 DUP4 GT PUSH2 0x6A6 JUMPI DUP3 SWAP1 SUB PUSH1 0x1F AND DUP3 ADD SWAP2 JUMPDEST POP POP POP POP POP SWAP1 POP SWAP1 JUMP JUMPDEST PUSH2 0x6D5 PUSH2 0xACD JUMP JUMPDEST PUSH0 PUSH1 0x1 PUSH1 0x7 SLOAD PUSH2 0x6E5 SWAP2 SWAP1 PUSH2 0x1783 JUMP JUMPDEST SWAP1 POP PUSH0 PUSH20 0xFFFFFFFFFFFFFFFFFFFFFFFFFFFFFFFFFFFFFFFF AND PUSH1 0x6 PUSH0 DUP4 DUP2 MSTORE PUSH1 0x20 ADD SWAP1 DUP2 MSTORE PUSH1 0x20 ADD PUSH0 KECCAK256 PUSH0 SWAP1 SLOAD SWAP1 PUSH2 0x100 EXP SWAP1 DIV PUSH20 0xFFFFFFFFFFFFFFFFFFFFFFFFFFFFFFFFFFFFFFFF AND PUSH20 0xFFFFFFFFFFFFFFFFFFFFFFFFFFFFFFFFFFFFFFFF AND SUB PUSH2 0x785 JUMPI PUSH1 0x40 MLOAD PUSH32 0x8C379A000000000000000000000000000000000000000000000000000000000 DUP2 MSTORE PUSH1 0x4 ADD PUSH2 0x77C SWAP1 PUSH2 0x1826 JUMP JUMPDEST PUSH1 0x40 MLOAD DUP1 SWAP2 SUB SWAP1 REVERT JUMPDEST POP POP POP JUMP JUMPDEST PUSH0 DUP1 PUSH2 0x794 PUSH2 0x8B2 JUMP JUMPDEST SWAP1 POP PUSH2 0x7A1 DUP2 DUP6 DUP6 PUSH2 0x95E JUMP JUMPDEST PUSH1 0x1 SWAP2 POP POP SWAP3 SWAP2 POP POP JUMP JUMPDEST PUSH0 PUSH1 0x1 PUSH0 DUP5 PUSH20 0xFFFFFFFFFFFFFFFFFFFFFFFFFFFFFFFFFFFFFFFF AND PUSH20 0xFFFFFFFFFFFFFFFFFFFFFFFFFFFFFFFFFFFFFFFF AND DUP2 MSTORE PUSH1 0x20 ADD SWAP1 DUP2 MSTORE PUSH1 0x20 ADD PUSH0 KECCAK256 PUSH0 DUP4 PUSH20 0xFFFFFFFFFFFFFFFFFFFFFFFFFFFFFFFFFFFFFFFF AND PUSH20 0xFFFFFFFFFFFFFFFFFFFFFFFFFFFFFFFFFFFFFFFF AND DUP2 MSTORE PUSH1 0x20 ADD SWAP1 DUP2 MSTORE PUSH1 0x20 ADD PUSH0 KECCAK256 SLOAD SWAP1 POP SWAP3 SWAP2 POP POP JUMP JUMPDEST PUSH2 0x836 PUSH2 0xACD JUMP JUMPDEST PUSH0 PUSH20 0xFFFFFFFFFFFFFFFFFFFFFFFFFFFFFFFFFFFFFFFF AND DUP2 PUSH20 0xFFFFFFFFFFFFFFFFFFFFFFFFFFFFFFFFFFFFFFFF AND SUB PUSH2 0x8A6 JUMPI PUSH0 PUSH1 0x40 MLOAD PUSH32 0x1E4FBDF700000000000000000000000000000000000000000000000000000000 DUP2 MSTORE PUSH1 0x4 ADD PUSH2 0x89D SWAP2 SWAP1 PUSH2 0x136F JUMP JUMPDEST PUSH1 0x40 MLOAD DUP1 SWAP2 SUB SWAP1 REVERT JUMPDEST PUSH2 0x8AF DUP2 PUSH2 0xB54 JUMP JUMPDEST POP JUMP JUMPDEST PUSH0 CALLER SWAP1 POP SWAP1 JUMP JUMPDEST PUSH2 0x8C6 DUP4 DUP4 DUP4 PUSH1 0x1 PUSH2 0xC17 JUMP JUMPDEST POP POP POP JUMP JUMPDEST PUSH0 PUSH2 0x8D6 DUP5 DUP5 PUSH2 0x7AC JUMP JUMPDEST SWAP1 POP PUSH32 0xFFFFFFFFFFFFFFFFFFFFFFFFFFFFFFFFFFFFFFFFFFFFFFFFFFFFFFFFFFFFFFFF DUP2 LT ISZERO PUSH2 0x958 JUMPI DUP2 DUP2 LT ISZERO PUSH2 0x949 JUMPI DUP3 DUP2 DUP4 PUSH1 0x40 MLOAD PUSH32 0xFB8F41B200000000000000000000000000000000000000000000000000000000 DUP2 MSTORE PUSH1 0x4 ADD PUSH2 0x940 SWAP4 SWAP3 SWAP2 SWAP1 PUSH2 0x1844 JUMP JUMPDEST PUSH1 0x40 MLOAD DUP1 SWAP2 SUB SWAP1 REVERT JUMPDEST PUSH2 0x957 DUP5 DUP5 DUP5 DUP5 SUB PUSH0 PUSH2 0xC17 JUMP JUMPDEST JUMPDEST POP POP POP POP JUMP JUMPDEST PUSH0 PUSH20 0xFFFFFFFFFFFFFFFFFFFFFFFFFFFFFFFFFFFFFFFF AND DUP4 PUSH20 0xFFFFFFFFFFFFFFFFFFFFFFFFFFFFFFFFFFFFFFFF AND SUB PUSH2 0x9CE JUMPI PUSH0 PUSH1 0x40 MLOAD PUSH32 0x96C6FD1E00000000000000000000000000000000000000000000000000000000 DUP2 MSTORE PUSH1 0x4 ADD PUSH2 0x9C5 SWAP2 SWAP1 PUSH2 0x136F JUMP JUMPDEST PUSH1 0x40 MLOAD DUP1 SWAP2 SUB SWAP1 REVERT JUMPDEST PUSH0 PUSH20 0xFFFFFFFFFFFFFFFFFFFFFFFFFFFFFFFFFFFFFFFF AND DUP3 PUSH20 0xFFFFFFFFFFFFFFFFFFFFFFFFFFFFFFFFFFFFFFFF AND SUB PUSH2 0xA3E JUMPI PUSH0 PUSH1 0x40 MLOAD PUSH32 0xEC442F0500000000000000000000000000000000000000000000000000000000 DUP2 MSTORE PUSH1 0x4 ADD PUSH2 0xA35 SWAP2 SWAP1 PUSH2 0x136F JUMP JUMPDEST PUSH1 0x40 MLOAD DUP1 SWAP2 SUB SWAP1 REVERT JUMPDEST PUSH2 0xA49 DUP4 DUP4 DUP4 PUSH2 0xDE6 JUMP JUMPDEST POP POP POP JUMP JUMPDEST PUSH0 PUSH20 0xFFFFFFFFFFFFFFFFFFFFFFFFFFFFFFFFFFFFFFFF AND DUP3 PUSH20 0xFFFFFFFFFFFFFFFFFFFFFFFFFFFFFFFFFFFFFFFF AND SUB PUSH2 0xABE JUMPI PUSH0 PUSH1 0x40 MLOAD PUSH32 0x96C6FD1E00000000000000000000000000000000000000000000000000000000 DUP2 MSTORE PUSH1 0x4 ADD PUSH2 0xAB5 SWAP2 SWAP1 PUSH2 0x136F JUMP JUMPDEST PUSH1 0x40 MLOAD DUP1 SWAP2 SUB SWAP1 REVERT JUMPDEST PUSH2 0xAC9 DUP3 PUSH0 DUP4 PUSH2 0xDE6 JUMP JUMPDEST POP POP JUMP JUMPDEST PUSH2 0xAD5 PUSH2 0x8B2 JUMP JUMPDEST PUSH20 0xFFFFFFFFFFFFFFFFFFFFFFFFFFFFFFFFFFFFFFFF AND PUSH2 0xAF3 PUSH2 0x615 JUMP JUMPDEST PUSH20 0xFFFFFFFFFFFFFFFFFFFFFFFFFFFFFFFFFFFFFFFF AND EQ PUSH2 0xB52 JUMPI PUSH2 0xB16 PUSH2 0x8B2 JUMP JUMPDEST PUSH1 0x40 MLOAD PUSH32 0x118CDAA700000000000000000000000000000000000000000000000000000000 DUP2 MSTORE PUSH1 0x4 ADD PUSH2 0xB49 SWAP2 SWAP1 PUSH2 0x136F JUMP JUMPDEST PUSH1 0x40 MLOAD DUP1 SWAP2 SUB SWAP1 REVERT JUMPDEST JUMP JUMPDEST PUSH0 PUSH1 0x5 PUSH0 SWAP1 SLOAD SWAP1 PUSH2 0x100 EXP SWAP1 DIV PUSH20 0xFFFFFFFFFFFFFFFFFFFFFFFFFFFFFFFFFFFFFFFF AND SWAP1 POP DUP2 PUSH1 0x5 PUSH0 PUSH2 0x100 EXP DUP2 SLOAD DUP2 PUSH20 0xFFFFFFFFFFFFFFFFFFFFFFFFFFFFFFFFFFFFFFFF MUL NOT AND SWAP1 DUP4 PUSH20 0xFFFFFFFFFFFFFFFFFFFFFFFFFFFFFFFFFFFFFFFF AND MUL OR SWAP1 SSTORE POP DUP2 PUSH20 0xFFFFFFFFFFFFFFFFFFFFFFFFFFFFFFFFFFFFFFFF AND DUP2 PUSH20 0xFFFFFFFFFFFFFFFFFFFFFFFFFFFFFFFFFFFFFFFF AND PUSH32 0x8BE0079C531659141344CD1FD0A4F28419497F9722A3DAAFE3B4186F6B6457E0 PUSH1 0x40 MLOAD PUSH1 0x40 MLOAD DUP1 SWAP2 SUB SWAP1 LOG3 POP POP JUMP JUMPDEST PUSH0 PUSH20 0xFFFFFFFFFFFFFFFFFFFFFFFFFFFFFFFFFFFFFFFF AND DUP5 PUSH20 0xFFFFFFFFFFFFFFFFFFFFFFFFFFFFFFFFFFFFFFFF AND SUB PUSH2 0xC87 JUMPI PUSH0 PUSH1 0x40 MLOAD PUSH32 0xE602DF0500000000000000000000000000000000000000000000000000000000 DUP2 MSTORE PUSH1 0x4 ADD PUSH2 0xC7E SWAP2 SWAP1 PUSH2 0x136F JUMP JUMPDEST PUSH1 0x40 MLOAD DUP1 SWAP2 SUB SWAP1 REVERT JUMPDEST PUSH0 PUSH20 0xFFFFFFFFFFFFFFFFFFFFFFFFFFFFFFFFFFFFFFFF AND DUP4 PUSH20 0xFFFFFFFFFFFFFFFFFFFFFFFFFFFFFFFFFFFFFFFF AND SUB PUSH2 0xCF7 JUMPI PUSH0 PUSH1 0x40 MLOAD PUSH32 0x94280D6200000000000000000000000000000000000000000000000000000000 DUP2 MSTORE PUSH1 0x4 ADD PUSH2 0xCEE SWAP2 SWAP1 PUSH2 0x136F JUMP JUMPDEST PUSH1 0x40 MLOAD DUP1 SWAP2 SUB SWAP1 REVERT JUMPDEST DUP2 PUSH1 0x1 PUSH0 DUP7 PUSH20 0xFFFFFFFFFFFFFFFFFFFFFFFFFFFFFFFFFFFFFFFF AND PUSH20 0xFFFFFFFFFFFFFFFFFFFFFFFFFFFFFFFFFFFFFFFF AND DUP2 MSTORE PUSH1 0x20 ADD SWAP1 DUP2 MSTORE PUSH1 0x20 ADD PUSH0 KECCAK256 PUSH0 DUP6 PUSH20 0xFFFFFFFFFFFFFFFFFFFFFFFFFFFFFFFFFFFFFFFF AND PUSH20 0xFFFFFFFFFFFFFFFFFFFFFFFFFFFFFFFFFFFFFFFF AND DUP2 MSTORE PUSH1 0x20 ADD SWAP1 DUP2 MSTORE PUSH1 0x20 ADD PUSH0 KECCAK256 DUP2 SWAP1 SSTORE POP DUP1 ISZERO PUSH2 0xDE0 JUMPI DUP3 PUSH20 0xFFFFFFFFFFFFFFFFFFFFFFFFFFFFFFFFFFFFFFFF AND DUP5 PUSH20 0xFFFFFFFFFFFFFFFFFFFFFFFFFFFFFFFFFFFFFFFF AND PUSH32 0x8C5BE1E5EBEC7D5BD14F71427D1E84F3DD0314C0F7B2291E5B200AC8C7C3B925 DUP5 PUSH1 0x40 MLOAD PUSH2 0xDD7 SWAP2 SWAP1 PUSH2 0x126D JUMP JUMPDEST PUSH1 0x40 MLOAD DUP1 SWAP2 SUB SWAP1 LOG3 JUMPDEST POP POP POP POP JUMP JUMPDEST PUSH2 0xDF1 DUP4 DUP4 DUP4 PUSH2 0xDF6 JUMP JUMPDEST POP POP POP JUMP JUMPDEST PUSH2 0xE01 DUP4 DUP4 DUP4 PUSH2 0xE99 JUMP JUMPDEST PUSH0 PUSH20 0xFFFFFFFFFFFFFFFFFFFFFFFFFFFFFFFFFFFFFFFF AND DUP4 PUSH20 0xFFFFFFFFFFFFFFFFFFFFFFFFFFFFFFFFFFFFFFFF AND SUB PUSH2 0xE94 JUMPI PUSH0 PUSH2 0xE3D PUSH2 0x426 JUMP JUMPDEST SWAP1 POP PUSH0 PUSH2 0xE48 PUSH2 0x3E7 JUMP JUMPDEST SWAP1 POP DUP2 DUP2 GT ISZERO PUSH2 0xE91 JUMPI DUP1 DUP3 PUSH1 0x40 MLOAD PUSH32 0x9E79F85400000000000000000000000000000000000000000000000000000000 DUP2 MSTORE PUSH1 0x4 ADD PUSH2 0xE88 SWAP3 SWAP2 SWAP1 PUSH2 0x1879 JUMP JUMPDEST PUSH1 0x40 MLOAD DUP1 SWAP2 SUB SWAP1 REVERT JUMPDEST POP POP JUMPDEST POP POP POP JUMP JUMPDEST PUSH0 PUSH20 0xFFFFFFFFFFFFFFFFFFFFFFFFFFFFFFFFFFFFFFFF AND DUP4 PUSH20 0xFFFFFFFFFFFFFFFFFFFFFFFFFFFFFFFFFFFFFFFF AND SUB PUSH2 0xEE9 JUMPI DUP1 PUSH1 0x2 PUSH0 DUP3 DUP3 SLOAD PUSH2 0xEDD SWAP2 SWAP1 PUSH2 0x18A0 JUMP JUMPDEST SWAP3 POP POP DUP2 SWAP1 SSTORE POP PUSH2 0xFB7 JUMP JUMPDEST PUSH0 DUP1 PUSH0 DUP6 PUSH20 0xFFFFFFFFFFFFFFFFFFFFFFFFFFFFFFFFFFFFFFFF AND PUSH20 0xFFFFFFFFFFFFFFFFFFFFFFFFFFFFFFFFFFFFFFFF AND DUP2 MSTORE PUSH1 0x20 ADD SWAP1 DUP2 MSTORE PUSH1 0x20 ADD PUSH0 KECCAK256 SLOAD SWAP1 POP DUP2 DUP2 LT ISZERO PUSH2 0xF72 JUMPI DUP4 DUP2 DUP4 PUSH1 0x40 MLOAD PUSH32 0xE450D38C00000000000000000000000000000000000000000000000000000000 DUP2 MSTORE PUSH1 0x4 ADD PUSH2 0xF69 SWAP4 SWAP3 SWAP2 SWAP1 PUSH2 0x1844 JUMP JUMPDEST PUSH1 0x40 MLOAD DUP1 SWAP2 SUB SWAP1 REVERT JUMPDEST DUP2 DUP2 SUB PUSH0 DUP1 DUP7 PUSH20 0xFFFFFFFFFFFFFFFFFFFFFFFFFFFFFFFFFFFFFFFF AND PUSH20 0xFFFFFFFFFFFFFFFFFFFFFFFFFFFFFFFFFFFFFFFF AND DUP2 MSTORE PUSH1 0x20 ADD SWAP1 DUP2 MSTORE PUSH1 0x20 ADD PUSH0 KECCAK256 DUP2 SWAP1 SSTORE POP POP JUMPDEST PUSH0 PUSH20 0xFFFFFFFFFFFFFFFFFFFFFFFFFFFFFFFFFFFFFFFF AND DUP3 PUSH20 0xFFFFFFFFFFFFFFFFFFFFFFFFFFFFFFFFFFFFFFFF AND SUB PUSH2 0xFFE JUMPI DUP1 PUSH1 0x2 PUSH0 DUP3 DUP3 SLOAD SUB SWAP3 POP POP DUP2 SWAP1 SSTORE POP PUSH2 0x1048 JUMP JUMPDEST DUP1 PUSH0 DUP1 DUP5 PUSH20 0xFFFFFFFFFFFFFFFFFFFFFFFFFFFFFFFFFFFFFFFF AND PUSH20 0xFFFFFFFFFFFFFFFFFFFFFFFFFFFFFFFFFFFFFFFF AND DUP2 MSTORE PUSH1 0x20 ADD SWAP1 DUP2 MSTORE PUSH1 0x20 ADD PUSH0 KECCAK256 PUSH0 DUP3 DUP3 SLOAD ADD SWAP3 POP POP DUP2 SWAP1 SSTORE POP JUMPDEST DUP2 PUSH20 0xFFFFFFFFFFFFFFFFFFFFFFFFFFFFFFFFFFFFFFFF AND DUP4 PUSH20 0xFFFFFFFFFFFFFFFFFFFFFFFFFFFFFFFFFFFFFFFF AND PUSH32 0xDDF252AD1BE2C89B69C2B068FC378DAA952BA7F163C4A11628F55A4DF523B3EF DUP4 PUSH1 0x40 MLOAD PUSH2 0x10A5 SWAP2 SWAP1 PUSH2 0x126D JUMP JUMPDEST PUSH1 0x40 MLOAD DUP1 SWAP2 SUB SWAP1 LOG3 POP POP POP JUMP JUMPDEST PUSH2 0x126C DUP1 PUSH2 0x18D4 DUP4 CODECOPY ADD SWAP1 JUMP JUMPDEST PUSH0 DUP2 MLOAD SWAP1 POP SWAP2 SWAP1 POP JUMP JUMPDEST PUSH0 DUP3 DUP3 MSTORE PUSH1 0x20 DUP3 ADD SWAP1 POP SWAP3 SWAP2 POP POP JUMP JUMPDEST DUP3 DUP2 DUP4 MCOPY PUSH0 DUP4 DUP4 ADD MSTORE POP POP POP JUMP JUMPDEST PUSH0 PUSH1 0x1F NOT PUSH1 0x1F DUP4 ADD AND SWAP1 POP SWAP2 SWAP1 POP JUMP JUMPDEST PUSH0 PUSH2 0x1101 DUP3 PUSH2 0x10BF JUMP JUMPDEST PUSH2 0x110B DUP2 DUP6 PUSH2 0x10C9 JUMP JUMPDEST SWAP4 POP PUSH2 0x111B DUP2 DUP6 PUSH1 0x20 DUP7 ADD PUSH2 0x10D9 JUMP JUMPDEST PUSH2 0x1124 DUP2 PUSH2 0x10E7 JUMP JUMPDEST DUP5 ADD SWAP2 POP POP SWAP3 SWAP2 POP POP JUMP JUMPDEST PUSH0 PUSH1 0x20 DUP3 ADD SWAP1 POP DUP2 DUP2 SUB PUSH0 DUP4 ADD MSTORE PUSH2 0x1147 DUP2 DUP5 PUSH2 0x10F7 JUMP JUMPDEST SWAP1 POP SWAP3 SWAP2 POP POP JUMP JUMPDEST PUSH0 PUSH1 0x40 MLOAD SWAP1 POP SWAP1 JUMP JUMPDEST PUSH0 DUP1 REVERT JUMPDEST PUSH0 DUP1 REVERT JUMPDEST PUSH0 PUSH20 0xFFFFFFFFFFFFFFFFFFFFFFFFFFFFFFFFFFFFFFFF DUP3 AND SWAP1 POP SWAP2 SWAP1 POP JUMP JUMPDEST PUSH0 PUSH2 0x1189 DUP3 PUSH2 0x1160 JUMP JUMPDEST SWAP1 POP SWAP2 SWAP1 POP JUMP JUMPDEST PUSH2 0x1199 DUP2 PUSH2 0x117F JUMP JUMPDEST DUP2 EQ PUSH2 0x11A3 JUMPI PUSH0 DUP1 REVERT JUMPDEST POP JUMP JUMPDEST PUSH0 DUP2 CALLDATALOAD SWAP1 POP PUSH2 0x11B4 DUP2 PUSH2 0x1190 JUMP JUMPDEST SWAP3 SWAP2 POP POP JUMP JUMPDEST PUSH0 DUP2 SWAP1 POP SWAP2 SWAP1 POP JUMP JUMPDEST PUSH2 0x11CC DUP2 PUSH2 0x11BA JUMP JUMPDEST DUP2 EQ PUSH2 0x11D6 JUMPI PUSH0 DUP1 REVERT JUMPDEST POP JUMP JUMPDEST PUSH0 DUP2 CALLDATALOAD SWAP1 POP PUSH2 0x11E7 DUP2 PUSH2 0x11C3 JUMP JUMPDEST SWAP3 SWAP2 POP POP JUMP JUMPDEST PUSH0 DUP1 PUSH1 0x40 DUP4 DUP6 SUB SLT ISZERO PUSH2 0x1203 JUMPI PUSH2 0x1202 PUSH2 0x1158 JUMP JUMPDEST JUMPDEST PUSH0 PUSH2 0x1210 DUP6 DUP3 DUP7 ADD PUSH2 0x11A6 JUMP JUMPDEST SWAP3 POP POP PUSH1 0x20 PUSH2 0x1221 DUP6 DUP3 DUP7 ADD PUSH2 0x11D9 JUMP JUMPDEST SWAP2 POP POP SWAP3 POP SWAP3 SWAP1 POP JUMP JUMPDEST PUSH0 DUP2 ISZERO ISZERO SWAP1 POP SWAP2 SWAP1 POP JUMP JUMPDEST PUSH2 0x123F DUP2 PUSH2 0x122B JUMP JUMPDEST DUP3 MSTORE POP POP JUMP JUMPDEST PUSH0 PUSH1 0x20 DUP3 ADD SWAP1 POP PUSH2 0x1258 PUSH0 DUP4 ADD DUP5 PUSH2 0x1236 JUMP JUMPDEST SWAP3 SWAP2 POP POP JUMP JUMPDEST PUSH2 0x1267 DUP2 PUSH2 0x11BA JUMP JUMPDEST DUP3 MSTORE POP POP JUMP JUMPDEST PUSH0 PUSH1 0x20 DUP3 ADD SWAP1 POP PUSH2 0x1280 PUSH0 DUP4 ADD DUP5 PUSH2 0x125E JUMP JUMPDEST SWAP3 SWAP2 POP POP JUMP JUMPDEST PUSH0 DUP1 PUSH0 PUSH1 0x60 DUP5 DUP7 SUB SLT ISZERO PUSH2 0x129D JUMPI PUSH2 0x129C PUSH2 0x1158 JUMP JUMPDEST JUMPDEST PUSH0 PUSH2 0x12AA DUP7 DUP3 DUP8 ADD PUSH2 0x11A6 JUMP JUMPDEST SWAP4 POP POP PUSH1 0x20 PUSH2 0x12BB DUP7 DUP3 DUP8 ADD PUSH2 0x11A6 JUMP JUMPDEST SWAP3 POP POP PUSH1 0x40 PUSH2 0x12CC DUP7 DUP3 DUP8 ADD PUSH2 0x11D9 JUMP JUMPDEST SWAP2 POP POP SWAP3 POP SWAP3 POP SWAP3 JUMP JUMPDEST PUSH0 PUSH1 0xFF DUP3 AND SWAP1 POP SWAP2 SWAP1 POP JUMP JUMPDEST PUSH2 0x12EB DUP2 PUSH2 0x12D6 JUMP JUMPDEST DUP3 MSTORE POP POP JUMP JUMPDEST PUSH0 PUSH1 0x20 DUP3 ADD SWAP1 POP PUSH2 0x1304 PUSH0 DUP4 ADD DUP5 PUSH2 0x12E2 JUMP JUMPDEST SWAP3 SWAP2 POP POP JUMP JUMPDEST PUSH0 PUSH1 0x20 DUP3 DUP5 SUB SLT ISZERO PUSH2 0x131F JUMPI PUSH2 0x131E PUSH2 0x1158 JUMP JUMPDEST JUMPDEST PUSH0 PUSH2 0x132C DUP5 DUP3 DUP6 ADD PUSH2 0x11D9 JUMP JUMPDEST SWAP2 POP POP SWAP3 SWAP2 POP POP JUMP JUMPDEST PUSH0 PUSH1 0x20 DUP3 DUP5 SUB SLT ISZERO PUSH2 0x134A JUMPI PUSH2 0x1349 PUSH2 0x1158 JUMP JUMPDEST JUMPDEST PUSH0 PUSH2 0x1357 DUP5 DUP3 DUP6 ADD PUSH2 0x11A6 JUMP JUMPDEST SWAP2 POP POP SWAP3 SWAP2 POP POP JUMP JUMPDEST PUSH2 0x1369 DUP2 PUSH2 0x117F JUMP JUMPDEST DUP3 MSTORE POP POP JUMP JUMPDEST PUSH0 PUSH1 0x20 DUP3 ADD SWAP1 POP PUSH2 0x1382 PUSH0 DUP4 ADD DUP5 PUSH2 0x1360 JUMP JUMPDEST SWAP3 SWAP2 POP POP JUMP JUMPDEST PUSH0 DUP1 REVERT JUMPDEST PUSH0 DUP1 REVERT JUMPDEST PUSH32 0x4E487B7100000000000000000000000000000000000000000000000000000000 PUSH0 MSTORE PUSH1 0x41 PUSH1 0x4 MSTORE PUSH1 0x24 PUSH0 REVERT JUMPDEST PUSH2 0x13C6 DUP3 PUSH2 0x10E7 JUMP JUMPDEST DUP2 ADD DUP2 DUP2 LT PUSH8 0xFFFFFFFFFFFFFFFF DUP3 GT OR ISZERO PUSH2 0x13E5 JUMPI PUSH2 0x13E4 PUSH2 0x1390 JUMP JUMPDEST JUMPDEST DUP1 PUSH1 0x40 MSTORE POP POP POP JUMP JUMPDEST PUSH0 PUSH2 0x13F7 PUSH2 0x114F JUMP JUMPDEST SWAP1 POP PUSH2 0x1403 DUP3 DUP3 PUSH2 0x13BD JUMP JUMPDEST SWAP2 SWAP1 POP JUMP JUMPDEST PUSH0 PUSH8 0xFFFFFFFFFFFFFFFF DUP3 GT ISZERO PUSH2 0x1422 JUMPI PUSH2 0x1421 PUSH2 0x1390 JUMP JUMPDEST JUMPDEST PUSH2 0x142B DUP3 PUSH2 0x10E7 JUMP JUMPDEST SWAP1 POP PUSH1 0x20 DUP2 ADD SWAP1 POP SWAP2 SWAP1 POP JUMP JUMPDEST DUP3 DUP2 DUP4 CALLDATACOPY PUSH0 DUP4 DUP4 ADD MSTORE POP POP POP JUMP JUMPDEST PUSH0 PUSH2 0x1458 PUSH2 0x1453 DUP5 PUSH2 0x1408 JUMP JUMPDEST PUSH2 0x13EE JUMP JUMPDEST SWAP1 POP DUP3 DUP2 MSTORE PUSH1 0x20 DUP2 ADD DUP5 DUP5 DUP5 ADD GT ISZERO PUSH2 0x1474 JUMPI PUSH2 0x1473 PUSH2 0x138C JUMP JUMPDEST JUMPDEST PUSH2 0x147F DUP5 DUP3 DUP6 PUSH2 0x1438 JUMP JUMPDEST POP SWAP4 SWAP3 POP POP POP JUMP JUMPDEST PUSH0 DUP3 PUSH1 0x1F DUP4 ADD SLT PUSH2 0x149B JUMPI PUSH2 0x149A PUSH2 0x1388 JUMP JUMPDEST JUMPDEST DUP2 CALLDATALOAD PUSH2 0x14AB DUP5 DUP3 PUSH1 0x20 DUP7 ADD PUSH2 0x1446 JUMP JUMPDEST SWAP2 POP POP SWAP3 SWAP2 POP POP JUMP JUMPDEST PUSH0 PUSH8 0xFFFFFFFFFFFFFFFF DUP3 GT ISZERO PUSH2 0x14CE JUMPI PUSH2 0x14CD PUSH2 0x1390 JUMP JUMPDEST JUMPDEST PUSH1 0x20 DUP3 MUL SWAP1 POP PUSH1 0x20 DUP2 ADD SWAP1 POP SWAP2 SWAP1 POP JUMP JUMPDEST PUSH0 DUP1 REVERT JUMPDEST PUSH0 PUSH2 0x14F5 PUSH2 0x14F0 DUP5 PUSH2 0x14B4 JUMP JUMPDEST PUSH2 0x13EE JUMP JUMPDEST SWAP1 POP DUP1 DUP4 DUP3 MSTORE PUSH1 0x20 DUP3 ADD SWAP1 POP PUSH1 0x20 DUP5 MUL DUP4 ADD DUP6 DUP2 GT ISZERO PUSH2 0x1518 JUMPI PUSH2 0x1517 PUSH2 0x14DF JUMP JUMPDEST JUMPDEST DUP4 JUMPDEST DUP2 DUP2 LT ISZERO PUSH2 0x155F JUMPI DUP1 CALLDATALOAD PUSH8 0xFFFFFFFFFFFFFFFF DUP2 GT ISZERO PUSH2 0x153D JUMPI PUSH2 0x153C PUSH2 0x1388 JUMP JUMPDEST JUMPDEST DUP1 DUP7 ADD PUSH2 0x154A DUP10 DUP3 PUSH2 0x1487 JUMP JUMPDEST DUP6 MSTORE PUSH1 0x20 DUP6 ADD SWAP5 POP POP POP PUSH1 0x20 DUP2 ADD SWAP1 POP PUSH2 0x151A JUMP JUMPDEST POP POP POP SWAP4 SWAP3 POP POP POP JUMP JUMPDEST PUSH0 DUP3 PUSH1 0x1F DUP4 ADD SLT PUSH2 0x157D JUMPI PUSH2 0x157C PUSH2 0x1388 JUMP JUMPDEST JUMPDEST DUP2 CALLDATALOAD PUSH2 0x158D DUP5 DUP3 PUSH1 0x20 DUP7 ADD PUSH2 0x14E3 JUMP JUMPDEST SWAP2 POP POP SWAP3 SWAP2 POP POP JUMP JUMPDEST PUSH0 DUP1 PUSH1 0x40 DUP4 DUP6 SUB SLT ISZERO PUSH2 0x15AC JUMPI PUSH2 0x15AB PUSH2 0x1158 JUMP JUMPDEST JUMPDEST PUSH0 DUP4 ADD CALLDATALOAD PUSH8 0xFFFFFFFFFFFFFFFF DUP2 GT ISZERO PUSH2 0x15C9 JUMPI PUSH2 0x15C8 PUSH2 0x115C JUMP JUMPDEST JUMPDEST PUSH2 0x15D5 DUP6 DUP3 DUP7 ADD PUSH2 0x1487 JUMP JUMPDEST SWAP3 POP POP PUSH1 0x20 DUP4 ADD CALLDATALOAD PUSH8 0xFFFFFFFFFFFFFFFF DUP2 GT ISZERO PUSH2 0x15F6 JUMPI PUSH2 0x15F5 PUSH2 0x115C JUMP JUMPDEST JUMPDEST PUSH2 0x1602 DUP6 DUP3 DUP7 ADD PUSH2 0x1569 JUMP JUMPDEST SWAP2 POP POP SWAP3 POP SWAP3 SWAP1 POP JUMP JUMPDEST PUSH0 DUP1 PUSH1 0x40 DUP4 DUP6 SUB SLT ISZERO PUSH2 0x1622 JUMPI PUSH2 0x1621 PUSH2 0x1158 JUMP JUMPDEST JUMPDEST PUSH0 PUSH2 0x162F DUP6 DUP3 DUP7 ADD PUSH2 0x11A6 JUMP JUMPDEST SWAP3 POP POP PUSH1 0x20 PUSH2 0x1640 DUP6 DUP3 DUP7 ADD PUSH2 0x11A6 JUMP JUMPDEST SWAP2 POP POP SWAP3 POP SWAP3 SWAP1 POP JUMP JUMPDEST PUSH32 0x4E487B7100000000000000000000000000000000000000000000000000000000 PUSH0 MSTORE PUSH1 0x22 PUSH1 0x4 MSTORE PUSH1 0x24 PUSH0 REVERT JUMPDEST PUSH0 PUSH1 0x2 DUP3 DIV SWAP1 POP PUSH1 0x1 DUP3 AND DUP1 PUSH2 0x168E JUMPI PUSH1 0x7F DUP3 AND SWAP2 POP JUMPDEST PUSH1 0x20 DUP3 LT DUP2 SUB PUSH2 0x16A1 JUMPI PUSH2 0x16A0 PUSH2 0x164A JUMP JUMPDEST JUMPDEST POP SWAP2 SWAP1 POP JUMP JUMPDEST PUSH32 0x6372756D6220616C656164792062616B65640000000000000000000000000000 PUSH0 DUP3 ADD MSTORE POP JUMP JUMPDEST PUSH0 PUSH2 0x16DB PUSH1 0x12 DUP4 PUSH2 0x10C9 JUMP JUMPDEST SWAP2 POP PUSH2 0x16E6 DUP3 PUSH2 0x16A7 JUMP JUMPDEST PUSH1 0x20 DUP3 ADD SWAP1 POP SWAP2 SWAP1 POP JUMP JUMPDEST PUSH0 PUSH1 0x20 DUP3 ADD SWAP1 POP DUP2 DUP2 SUB PUSH0 DUP4 ADD MSTORE PUSH2 0x1708 DUP2 PUSH2 0x16CF JUMP JUMPDEST SWAP1 POP SWAP2 SWAP1 POP JUMP JUMPDEST PUSH32 0x4E487B7100000000000000000000000000000000000000000000000000000000 PUSH0 MSTORE PUSH1 0x11 PUSH1 0x4 MSTORE PUSH1 0x24 PUSH0 REVERT JUMPDEST PUSH0 PUSH2 0x1746 DUP3 PUSH2 0x11BA JUMP JUMPDEST SWAP2 POP PUSH32 0xFFFFFFFFFFFFFFFFFFFFFFFFFFFFFFFFFFFFFFFFFFFFFFFFFFFFFFFFFFFFFFFF DUP3 SUB PUSH2 0x1778 JUMPI PUSH2 0x1777 PUSH2 0x170F JUMP JUMPDEST JUMPDEST PUSH1 0x1 DUP3 ADD SWAP1 POP SWAP2 SWAP1 POP JUMP JUMPDEST PUSH0 PUSH2 0x178D DUP3 PUSH2 0x11BA JUMP JUMPDEST SWAP2 POP PUSH2 0x1798 DUP4 PUSH2 0x11BA JUMP JUMPDEST SWAP3 POP DUP3 DUP3 SUB SWAP1 POP DUP2 DUP2 GT ISZERO PUSH2 0x17B0 JUMPI PUSH2 0x17AF PUSH2 0x170F JUMP JUMPDEST JUMPDEST SWAP3 SWAP2 POP POP JUMP JUMPDEST PUSH32 0x6C617374657374206372756D6220646F6573206E6F742065786973742E205768 PUSH0 DUP3 ADD MSTORE PUSH32 0x6F206174652069743F0000000000000000000000000000000000000000000000 PUSH1 0x20 DUP3 ADD MSTORE POP JUMP JUMPDEST PUSH0 PUSH2 0x1810 PUSH1 0x29 DUP4 PUSH2 0x10C9 JUMP JUMPDEST SWAP2 POP PUSH2 0x181B DUP3 PUSH2 0x17B6 JUMP JUMPDEST PUSH1 0x40 DUP3 ADD SWAP1 POP SWAP2 SWAP1 POP JUMP JUMPDEST PUSH0 PUSH1 0x20 DUP3 ADD SWAP1 POP DUP2 DUP2 SUB PUSH0 DUP4 ADD MSTORE PUSH2 0x183D DUP2 PUSH2 0x1804 JUMP JUMPDEST SWAP1 POP SWAP2 SWAP1 POP JUMP JUMPDEST PUSH0 PUSH1 0x60 DUP3 ADD SWAP1 POP PUSH2 0x1857 PUSH0 DUP4 ADD DUP7 PUSH2 0x1360 JUMP JUMPDEST PUSH2 0x1864 PUSH1 0x20 DUP4 ADD DUP6 PUSH2 0x125E JUMP JUMPDEST PUSH2 0x1871 PUSH1 0x40 DUP4 ADD DUP5 PUSH2 0x125E JUMP JUMPDEST SWAP5 SWAP4 POP POP POP POP JUMP JUMPDEST PUSH0 PUSH1 0x40 DUP3 ADD SWAP1 POP PUSH2 0x188C PUSH0 DUP4 ADD DUP6 PUSH2 0x125E JUMP JUMPDEST PUSH2 0x1899 PUSH1 0x20 DUP4 ADD DUP5 PUSH2 0x125E JUMP JUMPDEST SWAP4 SWAP3 POP POP POP JUMP JUMPDEST PUSH0 PUSH2 0x18AA DUP3 PUSH2 0x11BA JUMP JUMPDEST SWAP2 POP PUSH2 0x18B5 DUP4 PUSH2 0x11BA JUMP JUMPDEST SWAP3 POP DUP3 DUP3 ADD SWAP1 POP DUP1 DUP3 GT ISZERO PUSH2 0x18CD JUMPI PUSH2 0x18CC PUSH2 0x170F JUMP JUMPDEST JUMPDEST SWAP3 SWAP2 POP POP JUMP INVALID PUSH1 0x80 PUSH1 0x40 MSTORE CALLVALUE DUP1 ISZERO PUSH1 0xE JUMPI PUSH0 DUP1 REVERT JUMPDEST POP PUSH2 0x1250 DUP1 PUSH2 0x1C PUSH0 CODECOPY PUSH0 RETURN INVALID PUSH1 0x80 PUSH1 0x40 MSTORE CALLVALUE DUP1 ISZERO PUSH2 0xF JUMPI PUSH0 DUP1 REVERT JUMPDEST POP PUSH1 0x4 CALLDATASIZE LT PUSH2 0x3F JUMPI PUSH0 CALLDATALOAD PUSH1 0xE0 SHR DUP1 PUSH4 0xC4960DD EQ PUSH2 0x43 JUMPI DUP1 PUSH4 0x70A56C73 EQ PUSH2 0x5F JUMPI DUP1 PUSH4 0xB384ABEF EQ PUSH2 0x8F JUMPI JUMPDEST PUSH0 DUP1 REVERT JUMPDEST PUSH2 0x5D PUSH1 0x4 DUP1 CALLDATASIZE SUB DUP2 ADD SWAP1 PUSH2 0x58 SWAP2 SWAP1 PUSH2 0x96D JUMP JUMPDEST PUSH2 0xAB JUMP JUMPDEST STOP JUMPDEST PUSH2 0x79 PUSH1 0x4 DUP1 CALLDATASIZE SUB DUP2 ADD SWAP1 PUSH2 0x74 SWAP2 SWAP1 PUSH2 0xA28 JUMP JUMPDEST PUSH2 0x1FC JUMP JUMPDEST PUSH1 0x40 MLOAD PUSH2 0x86 SWAP2 SWAP1 PUSH2 0xCA2 JUMP JUMPDEST PUSH1 0x40 MLOAD DUP1 SWAP2 SUB SWAP1 RETURN JUMPDEST PUSH2 0xA9 PUSH1 0x4 DUP1 CALLDATASIZE SUB DUP2 ADD SWAP1 PUSH2 0xA4 SWAP2 SWAP1 PUSH2 0xCC2 JUMP JUMPDEST PUSH2 0x453 JUMP JUMPDEST STOP JUMPDEST PUSH1 0x2 DUP3 MLOAD LT ISZERO PUSH2 0xF0 JUMPI PUSH1 0x40 MLOAD PUSH32 0x8C379A000000000000000000000000000000000000000000000000000000000 DUP2 MSTORE PUSH1 0x4 ADD PUSH2 0xE7 SWAP1 PUSH2 0xD5A JUMP JUMPDEST PUSH1 0x40 MLOAD DUP1 SWAP2 SUB SWAP1 REVERT JUMPDEST PUSH0 DUP3 MLOAD PUSH8 0xFFFFFFFFFFFFFFFF DUP2 GT ISZERO PUSH2 0x10C JUMPI PUSH2 0x10B PUSH2 0x732 JUMP JUMPDEST JUMPDEST PUSH1 0x40 MLOAD SWAP1 DUP1 DUP3 MSTORE DUP1 PUSH1 0x20 MUL PUSH1 0x20 ADD DUP3 ADD PUSH1 0x40 MSTORE DUP1 ISZERO PUSH2 0x13A JUMPI DUP2 PUSH1 0x20 ADD PUSH1 0x20 DUP3 MUL DUP1 CALLDATASIZE DUP4 CALLDATACOPY DUP1 DUP3 ADD SWAP2 POP POP SWAP1 POP JUMPDEST POP SWAP1 POP PUSH0 PUSH1 0x40 MLOAD DUP1 PUSH1 0x80 ADD PUSH1 0x40 MSTORE DUP1 DUP7 DUP2 MSTORE PUSH1 0x20 ADD DUP6 DUP2 MSTORE PUSH1 0x20 ADD DUP4 DUP2 MSTORE PUSH1 0x20 ADD DUP5 ISZERO ISZERO DUP2 MSTORE POP SWAP1 DUP1 PUSH1 0x1 DUP2 SLOAD ADD DUP1 DUP3 SSTORE DUP1 SWAP2 POP POP PUSH1 0x1 SWAP1 SUB SWAP1 PUSH0 MSTORE PUSH1 0x20 PUSH0 KECCAK256 SWAP1 PUSH1 0x4 MUL ADD PUSH0 SWAP1 SWAP2 SWAP1 SWAP2 SWAP1 SWAP2 POP PUSH0 DUP3 ADD MLOAD DUP2 PUSH0 ADD SWAP1 DUP2 PUSH2 0x19A SWAP2 SWAP1 PUSH2 0xF72 JUMP JUMPDEST POP PUSH1 0x20 DUP3 ADD MLOAD DUP2 PUSH1 0x1 ADD SWAP1 DUP1 MLOAD SWAP1 PUSH1 0x20 ADD SWAP1 PUSH2 0x1B7 SWAP3 SWAP2 SWAP1 PUSH2 0x5C3 JUMP JUMPDEST POP PUSH1 0x40 DUP3 ADD MLOAD DUP2 PUSH1 0x2 ADD SWAP1 DUP1 MLOAD SWAP1 PUSH1 0x20 ADD SWAP1 PUSH2 0x1D4 SWAP3 SWAP2 SWAP1 PUSH2 0x61A JUMP JUMPDEST POP PUSH1 0x60 DUP3 ADD MLOAD DUP2 PUSH1 0x3 ADD PUSH0 PUSH2 0x100 EXP DUP2 SLOAD DUP2 PUSH1 0xFF MUL NOT AND SWAP1 DUP4 ISZERO ISZERO MUL OR SWAP1 SSTORE POP POP POP POP POP POP POP JUMP JUMPDEST PUSH2 0x204 PUSH2 0x665 JUMP JUMPDEST PUSH0 DUP1 SLOAD SWAP1 POP DUP3 LT PUSH2 0x24A JUMPI PUSH1 0x40 MLOAD PUSH32 0x8C379A000000000000000000000000000000000000000000000000000000000 DUP2 MSTORE PUSH1 0x4 ADD PUSH2 0x241 SWAP1 PUSH2 0x108B JUMP JUMPDEST PUSH1 0x40 MLOAD DUP1 SWAP2 SUB SWAP1 REVERT JUMPDEST PUSH0 DUP1 DUP4 DUP2 SLOAD DUP2 LT PUSH2 0x25E JUMPI PUSH2 0x25D PUSH2 0x10A9 JUMP JUMPDEST JUMPDEST SWAP1 PUSH0 MSTORE PUSH1 0x20 PUSH0 KECCAK256 SWAP1 PUSH1 0x4 MUL ADD PUSH1 0x40 MLOAD DUP1 PUSH1 0x80 ADD PUSH1 0x40 MSTORE SWAP1 DUP2 PUSH0 DUP3 ADD DUP1 SLOAD PUSH2 0x284 SWAP1 PUSH2 0xDA5 JUMP JUMPDEST DUP1 PUSH1 0x1F ADD PUSH1 0x20 DUP1 SWAP2 DIV MUL PUSH1 0x20 ADD PUSH1 0x40 MLOAD SWAP1 DUP2 ADD PUSH1 0x40 MSTORE DUP1 SWAP3 SWAP2 SWAP1 DUP2 DUP2 MSTORE PUSH1 0x20 ADD DUP3 DUP1 SLOAD PUSH2 0x2B0 SWAP1 PUSH2 0xDA5 JUMP JUMPDEST DUP1 ISZERO PUSH2 0x2FB JUMPI DUP1 PUSH1 0x1F LT PUSH2 0x2D2 JUMPI PUSH2 0x100 DUP1 DUP4 SLOAD DIV MUL DUP4 MSTORE SWAP2 PUSH1 0x20 ADD SWAP2 PUSH2 0x2FB JUMP JUMPDEST DUP3 ADD SWAP2 SWAP1 PUSH0 MSTORE PUSH1 0x20 PUSH0 KECCAK256 SWAP1 JUMPDEST DUP2 SLOAD DUP2 MSTORE SWAP1 PUSH1 0x1 ADD SWAP1 PUSH1 0x20 ADD DUP1 DUP4 GT PUSH2 0x2DE JUMPI DUP3 SWAP1 SUB PUSH1 0x1F AND DUP3 ADD SWAP2 JUMPDEST POP POP POP POP POP DUP2 MSTORE PUSH1 0x20 ADD PUSH1 0x1 DUP3 ADD DUP1 SLOAD DUP1 PUSH1 0x20 MUL PUSH1 0x20 ADD PUSH1 0x40 MLOAD SWAP1 DUP2 ADD PUSH1 0x40 MSTORE DUP1 SWAP3 SWAP2 SWAP1 DUP2 DUP2 MSTORE PUSH1 0x20 ADD PUSH0 SWAP1 JUMPDEST DUP3 DUP3 LT ISZERO PUSH2 0x3D0 JUMPI DUP4 DUP3 SWAP1 PUSH0 MSTORE PUSH1 0x20 PUSH0 KECCAK256 ADD DUP1 SLOAD PUSH2 0x345 SWAP1 PUSH2 0xDA5 JUMP JUMPDEST DUP1 PUSH1 0x1F ADD PUSH1 0x20 DUP1 SWAP2 DIV MUL PUSH1 0x20 ADD PUSH1 0x40 MLOAD SWAP1 DUP2 ADD PUSH1 0x40 MSTORE DUP1 SWAP3 SWAP2 SWAP1 DUP2 DUP2 MSTORE PUSH1 0x20 ADD DUP3 DUP1 SLOAD PUSH2 0x371 SWAP1 PUSH2 0xDA5 JUMP JUMPDEST DUP1 ISZERO PUSH2 0x3BC JUMPI DUP1 PUSH1 0x1F LT PUSH2 0x393 JUMPI PUSH2 0x100 DUP1 DUP4 SLOAD DIV MUL DUP4 MSTORE SWAP2 PUSH1 0x20 ADD SWAP2 PUSH2 0x3BC JUMP JUMPDEST DUP3 ADD SWAP2 SWAP1 PUSH0 MSTORE PUSH1 0x20 PUSH0 KECCAK256 SWAP1 JUMPDEST DUP2 SLOAD DUP2 MSTORE SWAP1 PUSH1 0x1 ADD SWAP1 PUSH1 0x20 ADD DUP1 DUP4 GT PUSH2 0x39F JUMPI DUP3 SWAP1 SUB PUSH1 0x1F AND DUP3 ADD SWAP2 JUMPDEST POP POP POP POP POP DUP2 MSTORE PUSH1 0x20 ADD SWAP1 PUSH1 0x1 ADD SWAP1 PUSH2 0x328 JUMP JUMPDEST POP POP POP POP DUP2 MSTORE PUSH1 0x20 ADD PUSH1 0x2 DUP3 ADD DUP1 SLOAD DUP1 PUSH1 0x20 MUL PUSH1 0x20 ADD PUSH1 0x40 MLOAD SWAP1 DUP2 ADD PUSH1 0x40 MSTORE DUP1 SWAP3 SWAP2 SWAP1 DUP2 DUP2 MSTORE PUSH1 0x20 ADD DUP3 DUP1 SLOAD DUP1 ISZERO PUSH2 0x425 JUMPI PUSH1 0x20 MUL DUP3 ADD SWAP2 SWAP1 PUSH0 MSTORE PUSH1 0x20 PUSH0 KECCAK256 SWAP1 JUMPDEST DUP2 SLOAD DUP2 MSTORE PUSH1 0x20 ADD SWAP1 PUSH1 0x1 ADD SWAP1 DUP1 DUP4 GT PUSH2 0x411 JUMPI JUMPDEST POP POP POP POP POP DUP2 MSTORE PUSH1 0x20 ADD PUSH1 0x3 DUP3 ADD PUSH0 SWAP1 SLOAD SWAP1 PUSH2 0x100 EXP SWAP1 DIV PUSH1 0xFF AND ISZERO ISZERO ISZERO ISZERO DUP2 MSTORE POP POP SWAP1 POP DUP1 SWAP2 POP POP SWAP2 SWAP1 POP JUMP JUMPDEST PUSH0 DUP1 SLOAD SWAP1 POP DUP3 LT PUSH2 0x499 JUMPI PUSH1 0x40 MLOAD PUSH32 0x8C379A000000000000000000000000000000000000000000000000000000000 DUP2 MSTORE PUSH1 0x4 ADD PUSH2 0x490 SWAP1 PUSH2 0x108B JUMP JUMPDEST PUSH1 0x40 MLOAD DUP1 SWAP2 SUB SWAP1 REVERT JUMPDEST PUSH0 DUP3 DUP2 SLOAD DUP2 LT PUSH2 0x4AC JUMPI PUSH2 0x4AB PUSH2 0x10A9 JUMP JUMPDEST JUMPDEST SWAP1 PUSH0 MSTORE PUSH1 0x20 PUSH0 KECCAK256 SWAP1 PUSH1 0x4 MUL ADD PUSH1 0x3 ADD PUSH0 SWAP1 SLOAD SWAP1 PUSH2 0x100 EXP SWAP1 DIV PUSH1 0xFF AND PUSH2 0x507 JUMPI PUSH1 0x40 MLOAD PUSH32 0x8C379A000000000000000000000000000000000000000000000000000000000 DUP2 MSTORE PUSH1 0x4 ADD PUSH2 0x4FE SWAP1 PUSH2 0x1120 JUMP JUMPDEST PUSH1 0x40 MLOAD DUP1 SWAP2 SUB SWAP1 REVERT JUMPDEST PUSH0 DUP3 DUP2 SLOAD DUP2 LT PUSH2 0x51A JUMPI PUSH2 0x519 PUSH2 0x10A9 JUMP JUMPDEST JUMPDEST SWAP1 PUSH0 MSTORE PUSH1 0x20 PUSH0 KECCAK256 SWAP1 PUSH1 0x4 MUL ADD PUSH1 0x1 ADD DUP1 SLOAD SWAP1 POP DUP2 LT PUSH2 0x56E JUMPI PUSH1 0x40 MLOAD PUSH32 0x8C379A000000000000000000000000000000000000000000000000000000000 DUP2 MSTORE PUSH1 0x4 ADD PUSH2 0x565 SWAP1 PUSH2 0x1188 JUMP JUMPDEST PUSH1 0x40 MLOAD DUP1 SWAP2 SUB SWAP1 REVERT JUMPDEST PUSH0 DUP3 DUP2 SLOAD DUP2 LT PUSH2 0x581 JUMPI PUSH2 0x580 PUSH2 0x10A9 JUMP JUMPDEST JUMPDEST SWAP1 PUSH0 MSTORE PUSH1 0x20 PUSH0 KECCAK256 SWAP1 PUSH1 0x4 MUL ADD PUSH1 0x2 ADD DUP2 DUP2 SLOAD DUP2 LT PUSH2 0x5A2 JUMPI PUSH2 0x5A1 PUSH2 0x10A9 JUMP JUMPDEST JUMPDEST SWAP1 PUSH0 MSTORE PUSH1 0x20 PUSH0 KECCAK256 ADD PUSH0 DUP2 SLOAD DUP1 SWAP3 SWAP2 SWAP1 PUSH2 0x5BA SWAP1 PUSH2 0x11D3 JUMP JUMPDEST SWAP2 SWAP1 POP SSTORE POP POP POP JUMP JUMPDEST DUP3 DUP1 SLOAD DUP3 DUP3 SSTORE SWAP1 PUSH0 MSTORE PUSH1 0x20 PUSH0 KECCAK256 SWAP1 DUP2 ADD SWAP3 DUP3 ISZERO PUSH2 0x609 JUMPI SWAP2 PUSH1 0x20 MUL DUP3 ADD JUMPDEST DUP3 DUP2 GT ISZERO PUSH2 0x608 JUMPI DUP3 MLOAD DUP3 SWAP1 DUP2 PUSH2 0x5F8 SWAP2 SWAP1 PUSH2 0xF72 JUMP JUMPDEST POP SWAP2 PUSH1 0x20 ADD SWAP2 SWAP1 PUSH1 0x1 ADD SWAP1 PUSH2 0x5E1 JUMP JUMPDEST JUMPDEST POP SWAP1 POP PUSH2 0x616 SWAP2 SWAP1 PUSH2 0x68E JUMP JUMPDEST POP SWAP1 JUMP JUMPDEST DUP3 DUP1 SLOAD DUP3 DUP3 SSTORE SWAP1 PUSH0 MSTORE PUSH1 0x20 PUSH0 KECCAK256 SWAP1 DUP2 ADD SWAP3 DUP3 ISZERO PUSH2 0x654 JUMPI SWAP2 PUSH1 0x20 MUL DUP3 ADD JUMPDEST DUP3 DUP2 GT ISZERO PUSH2 0x653 JUMPI DUP3 MLOAD DUP3 SSTORE SWAP2 PUSH1 0x20 ADD SWAP2 SWAP1 PUSH1 0x1 ADD SWAP1 PUSH2 0x638 JUMP JUMPDEST JUMPDEST POP SWAP1 POP PUSH2 0x661 SWAP2 SWAP1 PUSH2 0x6B1 JUMP JUMPDEST POP SWAP1 JUMP JUMPDEST PUSH1 0x40 MLOAD DUP1 PUSH1 0x80 ADD PUSH1 0x40 MSTORE DUP1 PUSH1 0x60 DUP2 MSTORE PUSH1 0x20 ADD PUSH1 0x60 DUP2 MSTORE PUSH1 0x20 ADD PUSH1 0x60 DUP2 MSTORE PUSH1 0x20 ADD PUSH0 ISZERO ISZERO DUP2 MSTORE POP SWAP1 JUMP JUMPDEST JUMPDEST DUP1 DUP3 GT ISZERO PUSH2 0x6AD JUMPI PUSH0 DUP2 DUP2 PUSH2 0x6A4 SWAP2 SWAP1 PUSH2 0x6CC JUMP JUMPDEST POP PUSH1 0x1 ADD PUSH2 0x68F JUMP JUMPDEST POP SWAP1 JUMP JUMPDEST JUMPDEST DUP1 DUP3 GT ISZERO PUSH2 0x6C8 JUMPI PUSH0 DUP2 PUSH0 SWAP1 SSTORE POP PUSH1 0x1 ADD PUSH2 0x6B2 JUMP JUMPDEST POP SWAP1 JUMP JUMPDEST POP DUP1 SLOAD PUSH2 0x6D8 SWAP1 PUSH2 0xDA5 JUMP JUMPDEST PUSH0 DUP3 SSTORE DUP1 PUSH1 0x1F LT PUSH2 0x6E9 JUMPI POP PUSH2 0x706 JUMP JUMPDEST PUSH1 0x1F ADD PUSH1 0x20 SWAP1 DIV SWAP1 PUSH0 MSTORE PUSH1 0x20 PUSH0 KECCAK256 SWAP1 DUP2 ADD SWAP1 PUSH2 0x705 SWAP2 SWAP1 PUSH2 0x6B1 JUMP JUMPDEST JUMPDEST POP JUMP JUMPDEST PUSH0 PUSH1 0x40 MLOAD SWAP1 POP SWAP1 JUMP JUMPDEST PUSH0 DUP1 REVERT JUMPDEST PUSH0 DUP1 REVERT JUMPDEST PUSH0 DUP1 REVERT JUMPDEST PUSH0 DUP1 REVERT JUMPDEST PUSH0 PUSH1 0x1F NOT PUSH1 0x1F DUP4 ADD AND SWAP1 POP SWAP2 SWAP1 POP JUMP JUMPDEST PUSH32 0x4E487B7100000000000000000000000000000000000000000000000000000000 PUSH0 MSTORE PUSH1 0x41 PUSH1 0x4 MSTORE PUSH1 0x24 PUSH0 REVERT JUMPDEST PUSH2 0x768 DUP3 PUSH2 0x722 JUMP JUMPDEST DUP2 ADD DUP2 DUP2 LT PUSH8 0xFFFFFFFFFFFFFFFF DUP3 GT OR ISZERO PUSH2 0x787 JUMPI PUSH2 0x786 PUSH2 0x732 JUMP JUMPDEST JUMPDEST DUP1 PUSH1 0x40 MSTORE POP POP POP JUMP JUMPDEST PUSH0 PUSH2 0x799 PUSH2 0x709 JUMP JUMPDEST SWAP1 POP PUSH2 0x7A5 DUP3 DUP3 PUSH2 0x75F JUMP JUMPDEST SWAP2 SWAP1 POP JUMP JUMPDEST PUSH0 PUSH8 0xFFFFFFFFFFFFFFFF DUP3 GT ISZERO PUSH2 0x7C4 JUMPI PUSH2 0x7C3 PUSH2 0x732 JUMP JUMPDEST JUMPDEST PUSH2 0x7CD DUP3 PUSH2 0x722 JUMP JUMPDEST SWAP1 POP PUSH1 0x20 DUP2 ADD SWAP1 POP SWAP2 SWAP1 POP JUMP JUMPDEST DUP3 DUP2 DUP4 CALLDATACOPY PUSH0 DUP4 DUP4 ADD MSTORE POP POP POP JUMP JUMPDEST PUSH0 PUSH2 0x7FA PUSH2 0x7F5 DUP5 PUSH2 0x7AA JUMP JUMPDEST PUSH2 0x790 JUMP JUMPDEST SWAP1 POP DUP3 DUP2 MSTORE PUSH1 0x20 DUP2 ADD DUP5 DUP5 DUP5 ADD GT ISZERO PUSH2 0x816 JUMPI PUSH2 0x815 PUSH2 0x71E JUMP JUMPDEST JUMPDEST PUSH2 0x821 DUP5 DUP3 DUP6 PUSH2 0x7DA JUMP JUMPDEST POP SWAP4 SWAP3 POP POP POP JUMP JUMPDEST PUSH0 DUP3 PUSH1 0x1F DUP4 ADD SLT PUSH2 0x83D JUMPI PUSH2 0x83C PUSH2 0x71A JUMP JUMPDEST JUMPDEST DUP2 CALLDATALOAD PUSH2 0x84D DUP5 DUP3 PUSH1 0x20 DUP7 ADD PUSH2 0x7E8 JUMP JUMPDEST SWAP2 POP POP SWAP3 SWAP2 POP POP JUMP JUMPDEST PUSH0 PUSH8 0xFFFFFFFFFFFFFFFF DUP3 GT ISZERO PUSH2 0x870 JUMPI PUSH2 0x86F PUSH2 0x732 JUMP JUMPDEST JUMPDEST PUSH1 0x20 DUP3 MUL SWAP1 POP PUSH1 0x20 DUP2 ADD SWAP1 POP SWAP2 SWAP1 POP JUMP JUMPDEST PUSH0 DUP1 REVERT JUMPDEST PUSH0 PUSH2 0x897 PUSH2 0x892 DUP5 PUSH2 0x856 JUMP JUMPDEST PUSH2 0x790 JUMP JUMPDEST SWAP1 POP DUP1 DUP4 DUP3 MSTORE PUSH1 0x20 DUP3 ADD SWAP1 POP PUSH1 0x20 DUP5 MUL DUP4 ADD DUP6 DUP2 GT ISZERO PUSH2 0x8BA JUMPI PUSH2 0x8B9 PUSH2 0x881 JUMP JUMPDEST JUMPDEST DUP4 JUMPDEST DUP2 DUP2 LT ISZERO PUSH2 0x901 JUMPI DUP1 CALLDATALOAD PUSH8 0xFFFFFFFFFFFFFFFF DUP2 GT ISZERO PUSH2 0x8DF JUMPI PUSH2 0x8DE PUSH2 0x71A JUMP JUMPDEST JUMPDEST DUP1 DUP7 ADD PUSH2 0x8EC DUP10 DUP3 PUSH2 0x829 JUMP JUMPDEST DUP6 MSTORE PUSH1 0x20 DUP6 ADD SWAP5 POP POP POP PUSH1 0x20 DUP2 ADD SWAP1 POP PUSH2 0x8BC JUMP JUMPDEST POP POP POP SWAP4 SWAP3 POP POP POP JUMP JUMPDEST PUSH0 DUP3 PUSH1 0x1F DUP4 ADD SLT PUSH2 0x91F JUMPI PUSH2 0x91E PUSH2 0x71A JUMP JUMPDEST JUMPDEST DUP2 CALLDATALOAD PUSH2 0x92F DUP5 DUP3 PUSH1 0x20 DUP7 ADD PUSH2 0x885 JUMP JUMPDEST SWAP2 POP POP SWAP3 SWAP2 POP POP JUMP JUMPDEST PUSH0 DUP2 ISZERO ISZERO SWAP1 POP SWAP2 SWAP1 POP JUMP JUMPDEST PUSH2 0x94C DUP2 PUSH2 0x938 JUMP JUMPDEST DUP2 EQ PUSH2 0x956 JUMPI PUSH0 DUP1 REVERT JUMPDEST POP JUMP JUMPDEST PUSH0 DUP2 CALLDATALOAD SWAP1 POP PUSH2 0x967 DUP2 PUSH2 0x943 JUMP JUMPDEST SWAP3 SWAP2 POP POP JUMP JUMPDEST PUSH0 DUP1 PUSH0 PUSH1 0x60 DUP5 DUP7 SUB SLT ISZERO PUSH2 0x984 JUMPI PUSH2 0x983 PUSH2 0x712 JUMP JUMPDEST JUMPDEST PUSH0 DUP5 ADD CALLDATALOAD PUSH8 0xFFFFFFFFFFFFFFFF DUP2 GT ISZERO PUSH2 0x9A1 JUMPI PUSH2 0x9A0 PUSH2 0x716 JUMP JUMPDEST JUMPDEST PUSH2 0x9AD DUP7 DUP3 DUP8 ADD PUSH2 0x829 JUMP JUMPDEST SWAP4 POP POP PUSH1 0x20 DUP5 ADD CALLDATALOAD PUSH8 0xFFFFFFFFFFFFFFFF DUP2 GT ISZERO PUSH2 0x9CE JUMPI PUSH2 0x9CD PUSH2 0x716 JUMP JUMPDEST JUMPDEST PUSH2 0x9DA DUP7 DUP3 DUP8 ADD PUSH2 0x90B JUMP JUMPDEST SWAP3 POP POP PUSH1 0x40 PUSH2 0x9EB DUP7 DUP3 DUP8 ADD PUSH2 0x959 JUMP JUMPDEST SWAP2 POP POP SWAP3 POP SWAP3 POP SWAP3 JUMP JUMPDEST PUSH0 DUP2 SWAP1 POP SWAP2 SWAP1 POP JUMP JUMPDEST PUSH2 0xA07 DUP2 PUSH2 0x9F5 JUMP JUMPDEST DUP2 EQ PUSH2 0xA11 JUMPI PUSH0 DUP1 REVERT JUMPDEST POP JUMP JUMPDEST PUSH0 DUP2 CALLDATALOAD SWAP1 POP PUSH2 0xA22 DUP2 PUSH2 0x9FE JUMP JUMPDEST SWAP3 SWAP2 POP POP JUMP JUMPDEST PUSH0 PUSH1 0x20 DUP3 DUP5 SUB SLT ISZERO PUSH2 0xA3D JUMPI PUSH2 0xA3C PUSH2 0x712 JUMP JUMPDEST JUMPDEST PUSH0 PUSH2 0xA4A DUP5 DUP3 DUP6 ADD PUSH2 0xA14 JUMP JUMPDEST SWAP2 POP POP SWAP3 SWAP2 POP POP JUMP JUMPDEST PUSH0 DUP2 MLOAD SWAP1 POP SWAP2 SWAP1 POP JUMP JUMPDEST PUSH0 DUP3 DUP3 MSTORE PUSH1 0x20 DUP3 ADD SWAP1 POP SWAP3 SWAP2 POP POP JUMP JUMPDEST DUP3 DUP2 DUP4 MCOPY PUSH0 DUP4 DUP4 ADD MSTORE POP POP POP JUMP JUMPDEST PUSH0 PUSH2 0xA85 DUP3 PUSH2 0xA53 JUMP JUMPDEST PUSH2 0xA8F DUP2 DUP6 PUSH2 0xA5D JUMP JUMPDEST SWAP4 POP PUSH2 0xA9F DUP2 DUP6 PUSH1 0x20 DUP7 ADD PUSH2 0xA6D JUMP JUMPDEST PUSH2 0xAA8 DUP2 PUSH2 0x722 JUMP JUMPDEST DUP5 ADD SWAP2 POP POP SWAP3 SWAP2 POP POP JUMP JUMPDEST PUSH0 DUP2 MLOAD SWAP1 POP SWAP2 SWAP1 POP JUMP JUMPDEST PUSH0 DUP3 DUP3 MSTORE PUSH1 0x20 DUP3 ADD SWAP1 POP SWAP3 SWAP2 POP POP JUMP JUMPDEST PUSH0 DUP2 SWAP1 POP PUSH1 0x20 DUP3 ADD SWAP1 POP SWAP2 SWAP1 POP JUMP JUMPDEST PUSH0 PUSH2 0xAE7 DUP4 DUP4 PUSH2 0xA7B JUMP JUMPDEST SWAP1 POP SWAP3 SWAP2 POP POP JUMP JUMPDEST PUSH0 PUSH1 0x20 DUP3 ADD SWAP1 POP SWAP2 SWAP1 POP JUMP JUMPDEST PUSH0 PUSH2 0xB05 DUP3 PUSH2 0xAB3 JUMP JUMPDEST PUSH2 0xB0F DUP2 DUP6 PUSH2 0xABD JUMP JUMPDEST SWAP4 POP DUP4 PUSH1 0x20 DUP3 MUL DUP6 ADD PUSH2 0xB21 DUP6 PUSH2 0xACD JUMP JUMPDEST DUP1 PUSH0 JUMPDEST DUP6 DUP2 LT ISZERO PUSH2 0xB5C JUMPI DUP5 DUP5 SUB DUP10 MSTORE DUP2 MLOAD PUSH2 0xB3D DUP6 DUP3 PUSH2 0xADC JUMP JUMPDEST SWAP5 POP PUSH2 0xB48 DUP4 PUSH2 0xAEF JUMP JUMPDEST SWAP3 POP PUSH1 0x20 DUP11 ADD SWAP10 POP POP PUSH1 0x1 DUP2 ADD SWAP1 POP PUSH2 0xB24 JUMP JUMPDEST POP DUP3 SWAP8 POP DUP8 SWAP6 POP POP POP POP POP POP SWAP3 SWAP2 POP POP JUMP JUMPDEST PUSH0 DUP2 MLOAD SWAP1 POP SWAP2 SWAP1 POP JUMP JUMPDEST PUSH0 DUP3 DUP3 MSTORE PUSH1 0x20 DUP3 ADD SWAP1 POP SWAP3 SWAP2 POP POP JUMP JUMPDEST PUSH0 DUP2 SWAP1 POP PUSH1 0x20 DUP3 ADD SWAP1 POP SWAP2 SWAP1 POP JUMP JUMPDEST PUSH2 0xBA0 DUP2 PUSH2 0x9F5 JUMP JUMPDEST DUP3 MSTORE POP POP JUMP JUMPDEST PUSH0 PUSH2 0xBB1 DUP4 DUP4 PUSH2 0xB97 JUMP JUMPDEST PUSH1 0x20 DUP4 ADD SWAP1 POP SWAP3 SWAP2 POP POP JUMP JUMPDEST PUSH0 PUSH1 0x20 DUP3 ADD SWAP1 POP SWAP2 SWAP1 POP JUMP JUMPDEST PUSH0 PUSH2 0xBD3 DUP3 PUSH2 0xB6E JUMP JUMPDEST PUSH2 0xBDD DUP2 DUP6 PUSH2 0xB78 JUMP JUMPDEST SWAP4 POP PUSH2 0xBE8 DUP4 PUSH2 0xB88 JUMP JUMPDEST DUP1 PUSH0 JUMPDEST DUP4 DUP2 LT ISZERO PUSH2 0xC18 JUMPI DUP2 MLOAD PUSH2 0xBFF DUP9 DUP3 PUSH2 0xBA6 JUMP JUMPDEST SWAP8 POP PUSH2 0xC0A DUP4 PUSH2 0xBBD JUMP JUMPDEST SWAP3 POP POP PUSH1 0x1 DUP2 ADD SWAP1 POP PUSH2 0xBEB JUMP JUMPDEST POP DUP6 SWAP4 POP POP POP POP SWAP3 SWAP2 POP POP JUMP JUMPDEST PUSH2 0xC2E DUP2 PUSH2 0x938 JUMP JUMPDEST DUP3 MSTORE POP POP JUMP JUMPDEST PUSH0 PUSH1 0x80 DUP4 ADD PUSH0 DUP4 ADD MLOAD DUP5 DUP3 SUB PUSH0 DUP7 ADD MSTORE PUSH2 0xC4E DUP3 DUP3 PUSH2 0xA7B JUMP JUMPDEST SWAP2 POP POP PUSH1 0x20 DUP4 ADD MLOAD DUP5 DUP3 SUB PUSH1 0x20 DUP7 ADD MSTORE PUSH2 0xC68 DUP3 DUP3 PUSH2 0xAFB JUMP JUMPDEST SWAP2 POP POP PUSH1 0x40 DUP4 ADD MLOAD DUP5 DUP3 SUB PUSH1 0x40 DUP7 ADD MSTORE PUSH2 0xC82 DUP3 DUP3 PUSH2 0xBC9 JUMP JUMPDEST SWAP2 POP POP PUSH1 0x60 DUP4 ADD MLOAD PUSH2 0xC97 PUSH1 0x60 DUP7 ADD DUP3 PUSH2 0xC25 JUMP JUMPDEST POP DUP1 SWAP2 POP POP SWAP3 SWAP2 POP POP JUMP JUMPDEST PUSH0 PUSH1 0x20 DUP3 ADD SWAP1 POP DUP2 DUP2 SUB PUSH0 DUP4 ADD MSTORE PUSH2 0xCBA DUP2 DUP5 PUSH2 0xC34 JUMP JUMPDEST SWAP1 POP SWAP3 SWAP2 POP POP JUMP JUMPDEST PUSH0 DUP1 PUSH1 0x40 DUP4 DUP6 SUB SLT ISZERO PUSH2 0xCD8 JUMPI PUSH2 0xCD7 PUSH2 0x712 JUMP JUMPDEST JUMPDEST PUSH0 PUSH2 0xCE5 DUP6 DUP3 DUP7 ADD PUSH2 0xA14 JUMP JUMPDEST SWAP3 POP POP PUSH1 0x20 PUSH2 0xCF6 DUP6 DUP3 DUP7 ADD PUSH2 0xA14 JUMP JUMPDEST SWAP2 POP POP SWAP3 POP SWAP3 SWAP1 POP JUMP JUMPDEST PUSH0 DUP3 DUP3 MSTORE PUSH1 0x20 DUP3 ADD SWAP1 POP SWAP3 SWAP2 POP POP JUMP JUMPDEST PUSH32 0x4174206C656173742032206F7074696F6E732061726520726571756972656400 PUSH0 DUP3 ADD MSTORE POP JUMP JUMPDEST PUSH0 PUSH2 0xD44 PUSH1 0x1F DUP4 PUSH2 0xD00 JUMP JUMPDEST SWAP2 POP PUSH2 0xD4F DUP3 PUSH2 0xD10 JUMP JUMPDEST PUSH1 0x20 DUP3 ADD SWAP1 POP SWAP2 SWAP1 POP JUMP JUMPDEST PUSH0 PUSH1 0x20 DUP3 ADD SWAP1 POP DUP2 DUP2 SUB PUSH0 DUP4 ADD MSTORE PUSH2 0xD71 DUP2 PUSH2 0xD38 JUMP JUMPDEST SWAP1 POP SWAP2 SWAP1 POP JUMP JUMPDEST PUSH32 0x4E487B7100000000000000000000000000000000000000000000000000000000 PUSH0 MSTORE PUSH1 0x22 PUSH1 0x4 MSTORE PUSH1 0x24 PUSH0 REVERT JUMPDEST PUSH0 PUSH1 0x2 DUP3 DIV SWAP1 POP PUSH1 0x1 DUP3 AND DUP1 PUSH2 0xDBC JUMPI PUSH1 0x7F DUP3 AND SWAP2 POP JUMPDEST PUSH1 0x20 DUP3 LT DUP2 SUB PUSH2 0xDCF JUMPI PUSH2 0xDCE PUSH2 0xD78 JUMP JUMPDEST JUMPDEST POP SWAP2 SWAP1 POP JUMP JUMPDEST PUSH0 DUP2 SWAP1 POP DUP2 PUSH0 MSTORE PUSH1 0x20 PUSH0 KECCAK256 SWAP1 POP SWAP2 SWAP1 POP JUMP JUMPDEST PUSH0 PUSH1 0x20 PUSH1 0x1F DUP4 ADD DIV SWAP1 POP SWAP2 SWAP1 POP JUMP JUMPDEST PUSH0 DUP3 DUP3 SHL SWAP1 POP SWAP3 SWAP2 POP POP JUMP JUMPDEST PUSH0 PUSH1 0x8 DUP4 MUL PUSH2 0xE31 PUSH32 0xFFFFFFFFFFFFFFFFFFFFFFFFFFFFFFFFFFFFFFFFFFFFFFFFFFFFFFFFFFFFFFFF DUP3 PUSH2 0xDF6 JUMP JUMPDEST PUSH2 0xE3B DUP7 DUP4 PUSH2 0xDF6 JUMP JUMPDEST SWAP6 POP DUP1 NOT DUP5 AND SWAP4 POP DUP1 DUP7 AND DUP5 OR SWAP3 POP POP POP SWAP4 SWAP3 POP POP POP JUMP JUMPDEST PUSH0 DUP2 SWAP1 POP SWAP2 SWAP1 POP JUMP JUMPDEST PUSH0 PUSH2 0xE76 PUSH2 0xE71 PUSH2 0xE6C DUP5 PUSH2 0x9F5 JUMP JUMPDEST PUSH2 0xE53 JUMP JUMPDEST PUSH2 0x9F5 JUMP JUMPDEST SWAP1 POP SWAP2 SWAP1 POP JUMP JUMPDEST PUSH0 DUP2 SWAP1 POP SWAP2 SWAP1 POP JUMP JUMPDEST PUSH2 0xE8F DUP4 PUSH2 0xE5C JUMP JUMPDEST PUSH2 0xEA3 PUSH2 0xE9B DUP3 PUSH2 0xE7D JUMP JUMPDEST DUP5 DUP5 SLOAD PUSH2 0xE02 JUMP JUMPDEST DUP3 SSTORE POP POP POP POP JUMP JUMPDEST PUSH0 SWAP1 JUMP JUMPDEST PUSH2 0xEB7 PUSH2 0xEAB JUMP JUMPDEST PUSH2 0xEC2 DUP2 DUP5 DUP5 PUSH2 0xE86 JUMP JUMPDEST POP POP POP JUMP JUMPDEST JUMPDEST DUP2 DUP2 LT ISZERO PUSH2 0xEE5 JUMPI PUSH2 0xEDA PUSH0 DUP3 PUSH2 0xEAF JUMP JUMPDEST PUSH1 0x1 DUP2 ADD SWAP1 POP PUSH2 0xEC8 JUMP JUMPDEST POP POP JUMP JUMPDEST PUSH1 0x1F DUP3 GT ISZERO PUSH2 0xF2A JUMPI PUSH2 0xEFB DUP2 PUSH2 0xDD5 JUMP JUMPDEST PUSH2 0xF04 DUP5 PUSH2 0xDE7 JUMP JUMPDEST DUP2 ADD PUSH1 0x20 DUP6 LT ISZERO PUSH2 0xF13 JUMPI DUP2 SWAP1 POP JUMPDEST PUSH2 0xF27 PUSH2 0xF1F DUP6 PUSH2 0xDE7 JUMP JUMPDEST DUP4 ADD DUP3 PUSH2 0xEC7 JUMP JUMPDEST POP POP JUMPDEST POP POP POP JUMP JUMPDEST PUSH0 DUP3 DUP3 SHR SWAP1 POP SWAP3 SWAP2 POP POP JUMP JUMPDEST PUSH0 PUSH2 0xF4A PUSH0 NOT DUP5 PUSH1 0x8 MUL PUSH2 0xF2F JUMP JUMPDEST NOT DUP1 DUP4 AND SWAP2 POP POP SWAP3 SWAP2 POP POP JUMP JUMPDEST PUSH0 PUSH2 0xF62 DUP4 DUP4 PUSH2 0xF3B JUMP JUMPDEST SWAP2 POP DUP3 PUSH1 0x2 MUL DUP3 OR SWAP1 POP SWAP3 SWAP2 POP POP JUMP JUMPDEST PUSH2 0xF7B DUP3 PUSH2 0xA53 JUMP JUMPDEST PUSH8 0xFFFFFFFFFFFFFFFF DUP2 GT ISZERO PUSH2 0xF94 JUMPI PUSH2 0xF93 PUSH2 0x732 JUMP JUMPDEST JUMPDEST PUSH2 0xF9E DUP3 SLOAD PUSH2 0xDA5 JUMP JUMPDEST PUSH2 0xFA9 DUP3 DUP3 DUP6 PUSH2 0xEE9 JUMP JUMPDEST PUSH0 PUSH1 0x20 SWAP1 POP PUSH1 0x1F DUP4 GT PUSH1 0x1 DUP2 EQ PUSH2 0xFDA JUMPI PUSH0 DUP5 ISZERO PUSH2 0xFC8 JUMPI DUP3 DUP8 ADD MLOAD SWAP1 POP JUMPDEST PUSH2 0xFD2 DUP6 DUP3 PUSH2 0xF57 JUMP JUMPDEST DUP7 SSTORE POP PUSH2 0x1039 JUMP JUMPDEST PUSH1 0x1F NOT DUP5 AND PUSH2 0xFE8 DUP7 PUSH2 0xDD5 JUMP JUMPDEST PUSH0 JUMPDEST DUP3 DUP2 LT ISZERO PUSH2 0x100F JUMPI DUP5 DUP10 ADD MLOAD DUP3 SSTORE PUSH1 0x1 DUP3 ADD SWAP2 POP PUSH1 0x20 DUP6 ADD SWAP5 POP PUSH1 0x20 DUP2 ADD SWAP1 POP PUSH2 0xFEA JUMP JUMPDEST DUP7 DUP4 LT ISZERO PUSH2 0x102C JUMPI DUP5 DUP10 ADD MLOAD PUSH2 0x1028 PUSH1 0x1F DUP10 AND DUP3 PUSH2 0xF3B JUMP JUMPDEST DUP4 SSTORE POP JUMPDEST PUSH1 0x1 PUSH1 0x2 DUP9 MUL ADD DUP9 SSTORE POP POP POP JUMPDEST POP POP POP POP POP POP JUMP JUMPDEST PUSH32 0x53757276657920646F6573206E6F742065786973740000000000000000000000 PUSH0 DUP3 ADD MSTORE POP JUMP JUMPDEST PUSH0 PUSH2 0x1075 PUSH1 0x15 DUP4 PUSH2 0xD00 JUMP JUMPDEST SWAP2 POP PUSH2 0x1080 DUP3 PUSH2 0x1041 JUMP JUMPDEST PUSH1 0x20 DUP3 ADD SWAP1 POP SWAP2 SWAP1 POP JUMP JUMPDEST PUSH0 PUSH1 0x20 DUP3 ADD SWAP1 POP DUP2 DUP2 SUB PUSH0 DUP4 ADD MSTORE PUSH2 0x10A2 DUP2 PUSH2 0x1069 JUMP JUMPDEST SWAP1 POP SWAP2 SWAP1 POP JUMP JUMPDEST PUSH32 0x4E487B7100000000000000000000000000000000000000000000000000000000 PUSH0 MSTORE PUSH1 0x32 PUSH1 0x4 MSTORE PUSH1 0x24 PUSH0 REVERT JUMPDEST PUSH32 0x537572766579206973206E6F7420616374697665000000000000000000000000 PUSH0 DUP3 ADD MSTORE POP JUMP JUMPDEST PUSH0 PUSH2 0x110A PUSH1 0x14 DUP4 PUSH2 0xD00 JUMP JUMPDEST SWAP2 POP PUSH2 0x1115 DUP3 PUSH2 0x10D6 JUMP JUMPDEST PUSH1 0x20 DUP3 ADD SWAP1 POP SWAP2 SWAP1 POP JUMP JUMPDEST PUSH0 PUSH1 0x20 DUP3 ADD SWAP1 POP DUP2 DUP2 SUB PUSH0 DUP4 ADD MSTORE PUSH2 0x1137 DUP2 PUSH2 0x10FE JUMP JUMPDEST SWAP1 POP SWAP2 SWAP1 POP JUMP JUMPDEST PUSH32 0x496E76616C6964206F7074696F6E20696E646578000000000000000000000000 PUSH0 DUP3 ADD MSTORE POP JUMP JUMPDEST PUSH0 PUSH2 0x1172 PUSH1 0x14 DUP4 PUSH2 0xD00 JUMP JUMPDEST SWAP2 POP PUSH2 0x117D DUP3 PUSH2 0x113E JUMP JUMPDEST PUSH1 0x20 DUP3 ADD SWAP1 POP SWAP2 SWAP1 POP JUMP JUMPDEST PUSH0 PUSH1 0x20 DUP3 ADD SWAP1 POP DUP2 DUP2 SUB PUSH0 DUP4 ADD MSTORE PUSH2 0x119F DUP2 PUSH2 0x1166 JUMP JUMPDEST SWAP1 POP SWAP2 SWAP1 POP JUMP JUMPDEST PUSH32 0x4E487B7100000000000000000000000000000000000000000000000000000000 PUSH0 MSTORE PUSH1 0x11 PUSH1 0x4 MSTORE PUSH1 0x24 PUSH0 REVERT JUMPDEST PUSH0 PUSH2 0x11DD DUP3 PUSH2 0x9F5 JUMP JUMPDEST SWAP2 POP PUSH32 0xFFFFFFFFFFFFFFFFFFFFFFFFFFFFFFFFFFFFFFFFFFFFFFFFFFFFFFFFFFFFFFFF DUP3 SUB PUSH2 0x120F JUMPI PUSH2 0x120E PUSH2 0x11A6 JUMP JUMPDEST JUMPDEST PUSH1 0x1 DUP3 ADD SWAP1 POP SWAP2 SWAP1 POP JUMP INVALID LOG2 PUSH5 0x6970667358 0x22 SLT KECCAK256 0xC0 0x2A 0xC1 CALL SHL GASPRICE PUSH5 0x56AEC2E16F BYTE EQ 0xCB XOR 0xA9 PUSH14 0x8CEDD9BAA41DAC3A411E16A42A93 PUSH5 0x736F6C6343 STOP ADDMOD BYTE STOP CALLER LOG2 PUSH5 0x6970667358 0x22 SLT KECCAK256 CALLDATASIZE 0xEC EXTCODECOPY 0xB4 BLOCKHASH 0x27 DUP3 CALL BLOCKHASH SWAP1 SWAP1 DELEGATECALL 0xDD PUSH31 0x3EC3E3E32F1800DE1BA2AAE388E959816ABA64736F6C634300081A00330000 "
				},
				"gasEstimates": {
					"creation": {
						"codeDepositCost": "2225000",
						"executionCost": "infinite",
						"totalCost": "infinite"
					},
					"external": {
						"allowance(address,address)": "infinite",
						"approve(address,uint256)": "infinite",
						"balanceOf(address)": "2852",
						"burn(uint256)": "infinite",
						"burnFrom(address,uint256)": "infinite",
						"cap()": "infinite",
						"createCrumbContract()": "infinite",
						"decimals()": "361",
						"name()": "infinite",
						"owner()": "2604",
						"renounceOwnership()": "infinite",
						"requestSurveyCreationOnCrumb(string,string[])": "infinite",
						"symbol()": "infinite",
						"totalSupply()": "2500",
						"transfer(address,uint256)": "infinite",
						"transferFrom(address,address,uint256)": "infinite",
						"transferOwnership(address)": "infinite"
					},
					"internal": {
						"_update(address,address,uint256)": "infinite"
					}
				},
				"methodIdentifiers": {
					"allowance(address,address)": "dd62ed3e",
					"approve(address,uint256)": "095ea7b3",
					"balanceOf(address)": "70a08231",
					"burn(uint256)": "42966c68",
					"burnFrom(address,uint256)": "79cc6790",
					"cap()": "355274ea",
					"createCrumbContract()": "4735c94c",
					"decimals()": "313ce567",
					"name()": "06fdde03",
					"owner()": "8da5cb5b",
					"renounceOwnership()": "715018a6",
					"requestSurveyCreationOnCrumb(string,string[])": "a6773a98",
					"symbol()": "95d89b41",
					"totalSupply()": "18160ddd",
					"transfer(address,uint256)": "a9059cbb",
					"transferFrom(address,address,uint256)": "23b872dd",
					"transferOwnership(address)": "f2fde38b"
				}
			},
			"storageLayout": {
				"storage": [
					{
						"astId": 307,
						"contract": "contracts/Soboro.sol:Soboro",
						"label": "_balances",
						"offset": 0,
						"slot": "0",
						"type": "t_mapping(t_address,t_uint256)"
					},
					{
						"astId": 313,
						"contract": "contracts/Soboro.sol:Soboro",
						"label": "_allowances",
						"offset": 0,
						"slot": "1",
						"type": "t_mapping(t_address,t_mapping(t_address,t_uint256))"
					},
					{
						"astId": 315,
						"contract": "contracts/Soboro.sol:Soboro",
						"label": "_totalSupply",
						"offset": 0,
						"slot": "2",
						"type": "t_uint256"
					},
					{
						"astId": 317,
						"contract": "contracts/Soboro.sol:Soboro",
						"label": "_name",
						"offset": 0,
						"slot": "3",
						"type": "t_string_storage"
					},
					{
						"astId": 319,
						"contract": "contracts/Soboro.sol:Soboro",
						"label": "_symbol",
						"offset": 0,
						"slot": "4",
						"type": "t_string_storage"
					},
					{
						"astId": 8,
						"contract": "contracts/Soboro.sol:Soboro",
						"label": "_owner",
						"offset": 0,
						"slot": "5",
						"type": "t_address"
					},
					{
						"astId": 1105,
						"contract": "contracts/Soboro.sol:Soboro",
						"label": "crumbMap",
						"offset": 0,
						"slot": "6",
						"type": "t_mapping(t_uint256,t_address)"
					},
					{
						"astId": 1108,
						"contract": "contracts/Soboro.sol:Soboro",
						"label": "crumbGenID",
						"offset": 0,
						"slot": "7",
						"type": "t_uint256"
					},
					{
						"astId": 1111,
						"contract": "contracts/Soboro.sol:Soboro",
						"label": "maxSurveysPerCrumb",
						"offset": 0,
						"slot": "8",
						"type": "t_uint256"
					}
				],
				"types": {
					"t_address": {
						"encoding": "inplace",
						"label": "address",
						"numberOfBytes": "20"
					},
					"t_mapping(t_address,t_mapping(t_address,t_uint256))": {
						"encoding": "mapping",
						"key": "t_address",
						"label": "mapping(address => mapping(address => uint256))",
						"numberOfBytes": "32",
						"value": "t_mapping(t_address,t_uint256)"
					},
					"t_mapping(t_address,t_uint256)": {
						"encoding": "mapping",
						"key": "t_address",
						"label": "mapping(address => uint256)",
						"numberOfBytes": "32",
						"value": "t_uint256"
					},
					"t_mapping(t_uint256,t_address)": {
						"encoding": "mapping",
						"key": "t_uint256",
						"label": "mapping(uint256 => address)",
						"numberOfBytes": "32",
						"value": "t_address"
					},
					"t_string_storage": {
						"encoding": "bytes",
						"label": "string",
						"numberOfBytes": "32"
					},
					"t_uint256": {
						"encoding": "inplace",
						"label": "uint256",
						"numberOfBytes": "32"
					}
				}
			},
			"userdoc": {
				"kind": "user",
				"methods": {},
				"version": 1
			}
		}
	}
}