{
	"contracts/Soboro.sol": {
		"Crumb": {
			"abi": [
				{
					"inputs": [
						{
							"internalType": "string",
							"name": "_question",
							"type": "string"
						},
						{
							"internalType": "string[]",
							"name": "_options",
							"type": "string[]"
						},
						{
							"internalType": "bool",
							"name": "_initialActiveState",
							"type": "bool"
						}
					],
					"name": "createSurvey",
					"outputs": [],
					"stateMutability": "nonpayable",
					"type": "function"
				},
				{
					"inputs": [
						{
							"internalType": "uint256",
							"name": "_surveyId",
							"type": "uint256"
						}
					],
					"name": "getSurveyResults",
					"outputs": [
						{
							"components": [
								{
									"internalType": "string",
									"name": "question",
									"type": "string"
								},
								{
									"internalType": "string[]",
									"name": "options",
									"type": "string[]"
								},
								{
									"internalType": "uint256[]",
									"name": "voteCountPerOptions",
									"type": "uint256[]"
								},
								{
									"internalType": "bool",
									"name": "isActive",
									"type": "bool"
								}
							],
							"internalType": "struct Crumb.Survey",
							"name": "",
							"type": "tuple"
						}
					],
					"stateMutability": "view",
					"type": "function"
				},
				{
					"inputs": [
						{
							"internalType": "uint256",
							"name": "_surveyId",
							"type": "uint256"
						},
						{
							"internalType": "uint256",
							"name": "_optionIndex",
							"type": "uint256"
						}
					],
					"name": "vote",
					"outputs": [],
					"stateMutability": "nonpayable",
					"type": "function"
				}
			],
			"devdoc": {
				"kind": "dev",
				"methods": {},
				"version": 1
			},
			"evm": {
				"assembly": "    /* \"contracts/Soboro.sol\":1876:3335  contract Crumb {... */\n  mstore(0x40, 0x80)\n  callvalue\n  dup1\n  iszero\n  tag_1\n  jumpi\n  0x00\n  dup1\n  revert\ntag_1:\n  pop\n  dataSize(sub_0)\n  dup1\n  dataOffset(sub_0)\n  0x00\n  codecopy\n  0x00\n  return\nstop\n\nsub_0: assembly {\n        /* \"contracts/Soboro.sol\":1876:3335  contract Crumb {... */\n      mstore(0x40, 0x80)\n      callvalue\n      dup1\n      iszero\n      tag_1\n      jumpi\n      0x00\n      dup1\n      revert\n    tag_1:\n      pop\n      jumpi(tag_2, lt(calldatasize, 0x04))\n      shr(0xe0, calldataload(0x00))\n      dup1\n      0x0c4960dd\n      eq\n      tag_3\n      jumpi\n      dup1\n      0x70a56c73\n      eq\n      tag_4\n      jumpi\n      dup1\n      0xb384abef\n      eq\n      tag_5\n      jumpi\n    tag_2:\n      0x00\n      dup1\n      revert\n        /* \"contracts/Soboro.sol\":2084:2625  function createSurvey(string memory _question, string[] memory _options, bool _initialActiveState) public {... */\n    tag_3:\n      tag_6\n      0x04\n      dup1\n      calldatasize\n      sub\n      dup2\n      add\n      swap1\n      tag_7\n      swap2\n      swap1\n      tag_8\n      jump\t// in\n    tag_7:\n      tag_9\n      jump\t// in\n    tag_6:\n      stop\n        /* \"contracts/Soboro.sol\":3103:3333  function getSurveyResults(uint _surveyId) public view returns (Survey memory) {... */\n    tag_4:\n      tag_10\n      0x04\n      dup1\n      calldatasize\n      sub\n      dup2\n      add\n      swap1\n      tag_11\n      swap2\n      swap1\n      tag_12\n      jump\t// in\n    tag_11:\n      tag_13\n      jump\t// in\n    tag_10:\n      mload(0x40)\n      tag_14\n      swap2\n      swap1\n      tag_15\n      jump\t// in\n    tag_14:\n      mload(0x40)\n      dup1\n      swap2\n      sub\n      swap1\n      return\n        /* \"contracts/Soboro.sol\":2652:3063  function vote(uint _surveyId, uint _optionIndex) public {... */\n    tag_5:\n      tag_16\n      0x04\n      dup1\n      calldatasize\n      sub\n      dup2\n      add\n      swap1\n      tag_17\n      swap2\n      swap1\n      tag_18\n      jump\t// in\n    tag_17:\n      tag_19\n      jump\t// in\n    tag_16:\n      stop\n        /* \"contracts/Soboro.sol\":2084:2625  function createSurvey(string memory _question, string[] memory _options, bool _initialActiveState) public {... */\n    tag_9:\n        /* \"contracts/Soboro.sol\":2227:2228  2 */\n      0x02\n        /* \"contracts/Soboro.sol\":2208:2216  _options */\n      dup3\n        /* \"contracts/Soboro.sol\":2208:2223  _options.length */\n      mload\n        /* \"contracts/Soboro.sol\":2208:2228  _options.length >= 2 */\n      lt\n      iszero\n        /* \"contracts/Soboro.sol\":2200:2264  require(_options.length >= 2, \"At least 2 options are required\") */\n      tag_21\n      jumpi\n      mload(0x40)\n      0x08c379a000000000000000000000000000000000000000000000000000000000\n      dup2\n      mstore\n      0x04\n      add\n      tag_22\n      swap1\n      tag_23\n      jump\t// in\n    tag_22:\n      mload(0x40)\n      dup1\n      swap2\n      sub\n      swap1\n      revert\n    tag_21:\n        /* \"contracts/Soboro.sol\":2274:2300  uint[] memory initialVotes */\n      0x00\n        /* \"contracts/Soboro.sol\":2314:2322  _options */\n      dup3\n        /* \"contracts/Soboro.sol\":2314:2329  _options.length */\n      mload\n        /* \"contracts/Soboro.sol\":2303:2330  new uint[](_options.length) */\n      0xffffffffffffffff\n      dup2\n      gt\n      iszero\n      tag_24\n      jumpi\n      tag_25\n      tag_26\n      jump\t// in\n    tag_25:\n    tag_24:\n      mload(0x40)\n      swap1\n      dup1\n      dup3\n      mstore\n      dup1\n      0x20\n      mul\n      0x20\n      add\n      dup3\n      add\n      0x40\n      mstore\n      dup1\n      iszero\n      tag_27\n      jumpi\n      dup2\n      0x20\n      add\n      0x20\n      dup3\n      mul\n      dup1\n      calldatasize\n      dup4\n      calldatacopy\n      dup1\n      dup3\n      add\n      swap2\n      pop\n      pop\n      swap1\n      pop\n    tag_27:\n      pop\n        /* \"contracts/Soboro.sol\":2274:2330  uint[] memory initialVotes = new uint[](_options.length) */\n      swap1\n      pop\n        /* \"contracts/Soboro.sol\":2340:2347  surveys */\n      0x00\n        /* \"contracts/Soboro.sol\":2366:2608  Survey(... */\n      mload(0x40)\n      dup1\n      0x80\n      add\n      0x40\n      mstore\n      dup1\n        /* \"contracts/Soboro.sol\":2422:2431  _question */\n      dup7\n        /* \"contracts/Soboro.sol\":2366:2608  Survey(... */\n      dup2\n      mstore\n      0x20\n      add\n        /* \"contracts/Soboro.sol\":2462:2470  _options */\n      dup6\n        /* \"contracts/Soboro.sol\":2366:2608  Survey(... */\n      dup2\n      mstore\n      0x20\n      add\n        /* \"contracts/Soboro.sol\":2513:2525  initialVotes */\n      dup4\n        /* \"contracts/Soboro.sol\":2366:2608  Survey(... */\n      dup2\n      mstore\n      0x20\n      add\n        /* \"contracts/Soboro.sol\":2557:2576  _initialActiveState */\n      dup5\n        /* \"contracts/Soboro.sol\":2366:2608  Survey(... */\n      iszero\n      iszero\n      dup2\n      mstore\n      pop\n        /* \"contracts/Soboro.sol\":2340:2618  surveys.push(... */\n      swap1\n      dup1\n      0x01\n      dup2\n      sload\n      add\n      dup1\n      dup3\n      sstore\n      dup1\n      swap2\n      pop\n      pop\n      0x01\n      swap1\n      sub\n      swap1\n      0x00\n      mstore\n      keccak256(0x00, 0x20)\n      swap1\n      0x04\n      mul\n      add\n      0x00\n      swap1\n      swap2\n      swap1\n      swap2\n      swap1\n      swap2\n      pop\n      0x00\n      dup3\n      add\n      mload\n      dup2\n      0x00\n      add\n      swap1\n      dup2\n      tag_29\n      swap2\n      swap1\n      tag_30\n      jump\t// in\n    tag_29:\n      pop\n      0x20\n      dup3\n      add\n      mload\n      dup2\n      0x01\n      add\n      swap1\n      dup1\n      mload\n      swap1\n      0x20\n      add\n      swap1\n      tag_31\n      swap3\n      swap2\n      swap1\n      tag_32\n      jump\t// in\n    tag_31:\n      pop\n      0x40\n      dup3\n      add\n      mload\n      dup2\n      0x02\n      add\n      swap1\n      dup1\n      mload\n      swap1\n      0x20\n      add\n      swap1\n      tag_33\n      swap3\n      swap2\n      swap1\n      tag_34\n      jump\t// in\n    tag_33:\n      pop\n      0x60\n      dup3\n      add\n      mload\n      dup2\n      0x03\n      add\n      exp(0x0100, 0x00)\n      dup2\n      sload\n      dup2\n      0xff\n      mul\n      not\n      and\n      swap1\n      dup4\n      iszero\n      iszero\n      mul\n      or\n      swap1\n      sstore\n      pop\n      pop\n      pop\n        /* \"contracts/Soboro.sol\":2190:2625  {... */\n      pop\n        /* \"contracts/Soboro.sol\":2084:2625  function createSurvey(string memory _question, string[] memory _options, bool _initialActiveState) public {... */\n      pop\n      pop\n      pop\n      jump\t// out\n        /* \"contracts/Soboro.sol\":3103:3333  function getSurveyResults(uint _surveyId) public view returns (Survey memory) {... */\n    tag_13:\n        /* \"contracts/Soboro.sol\":3166:3179  Survey memory */\n      tag_35\n      tag_36\n      jump\t// in\n    tag_35:\n        /* \"contracts/Soboro.sol\":3211:3218  surveys */\n      0x00\n        /* \"contracts/Soboro.sol\":3211:3225  surveys.length */\n      dup1\n      sload\n      swap1\n      pop\n        /* \"contracts/Soboro.sol\":3199:3208  _surveyId */\n      dup3\n        /* \"contracts/Soboro.sol\":3199:3225  _surveyId < surveys.length */\n      lt\n        /* \"contracts/Soboro.sol\":3191:3251  require(_surveyId < surveys.length, \"Survey does not exist\") */\n      tag_38\n      jumpi\n      mload(0x40)\n      0x08c379a000000000000000000000000000000000000000000000000000000000\n      dup2\n      mstore\n      0x04\n      add\n      tag_39\n      swap1\n      tag_40\n      jump\t// in\n    tag_39:\n      mload(0x40)\n      dup1\n      swap2\n      sub\n      swap1\n      revert\n    tag_38:\n        /* \"contracts/Soboro.sol\":3261:3281  Survey memory survey */\n      0x00\n        /* \"contracts/Soboro.sol\":3284:3291  surveys */\n      dup1\n        /* \"contracts/Soboro.sol\":3292:3301  _surveyId */\n      dup4\n        /* \"contracts/Soboro.sol\":3284:3302  surveys[_surveyId] */\n      dup2\n      sload\n      dup2\n      lt\n      tag_41\n      jumpi\n      tag_42\n      tag_43\n      jump\t// in\n    tag_42:\n    tag_41:\n      swap1\n      0x00\n      mstore\n      keccak256(0x00, 0x20)\n      swap1\n      0x04\n      mul\n      add\n        /* \"contracts/Soboro.sol\":3261:3302  Survey memory survey = surveys[_surveyId] */\n      mload(0x40)\n      dup1\n      0x80\n      add\n      0x40\n      mstore\n      swap1\n      dup2\n      0x00\n      dup3\n      add\n      dup1\n      sload\n      tag_45\n      swap1\n      tag_46\n      jump\t// in\n    tag_45:\n      dup1\n      0x1f\n      add\n      0x20\n      dup1\n      swap2\n      div\n      mul\n      0x20\n      add\n      mload(0x40)\n      swap1\n      dup2\n      add\n      0x40\n      mstore\n      dup1\n      swap3\n      swap2\n      swap1\n      dup2\n      dup2\n      mstore\n      0x20\n      add\n      dup3\n      dup1\n      sload\n      tag_47\n      swap1\n      tag_46\n      jump\t// in\n    tag_47:\n      dup1\n      iszero\n      tag_48\n      jumpi\n      dup1\n      0x1f\n      lt\n      tag_49\n      jumpi\n      0x0100\n      dup1\n      dup4\n      sload\n      div\n      mul\n      dup4\n      mstore\n      swap2\n      0x20\n      add\n      swap2\n      jump(tag_48)\n    tag_49:\n      dup3\n      add\n      swap2\n      swap1\n      0x00\n      mstore\n      keccak256(0x00, 0x20)\n      swap1\n    tag_50:\n      dup2\n      sload\n      dup2\n      mstore\n      swap1\n      0x01\n      add\n      swap1\n      0x20\n      add\n      dup1\n      dup4\n      gt\n      tag_50\n      jumpi\n      dup3\n      swap1\n      sub\n      0x1f\n      and\n      dup3\n      add\n      swap2\n    tag_48:\n      pop\n      pop\n      pop\n      pop\n      pop\n      dup2\n      mstore\n      0x20\n      add\n      0x01\n      dup3\n      add\n      dup1\n      sload\n      dup1\n      0x20\n      mul\n      0x20\n      add\n      mload(0x40)\n      swap1\n      dup2\n      add\n      0x40\n      mstore\n      dup1\n      swap3\n      swap2\n      swap1\n      dup2\n      dup2\n      mstore\n      0x20\n      add\n      0x00\n      swap1\n    tag_51:\n      dup3\n      dup3\n      lt\n      iszero\n      tag_52\n      jumpi\n      dup4\n      dup3\n      swap1\n      0x00\n      mstore\n      keccak256(0x00, 0x20)\n      add\n      dup1\n      sload\n      tag_54\n      swap1\n      tag_46\n      jump\t// in\n    tag_54:\n      dup1\n      0x1f\n      add\n      0x20\n      dup1\n      swap2\n      div\n      mul\n      0x20\n      add\n      mload(0x40)\n      swap1\n      dup2\n      add\n      0x40\n      mstore\n      dup1\n      swap3\n      swap2\n      swap1\n      dup2\n      dup2\n      mstore\n      0x20\n      add\n      dup3\n      dup1\n      sload\n      tag_55\n      swap1\n      tag_46\n      jump\t// in\n    tag_55:\n      dup1\n      iszero\n      tag_56\n      jumpi\n      dup1\n      0x1f\n      lt\n      tag_57\n      jumpi\n      0x0100\n      dup1\n      dup4\n      sload\n      div\n      mul\n      dup4\n      mstore\n      swap2\n      0x20\n      add\n      swap2\n      jump(tag_56)\n    tag_57:\n      dup3\n      add\n      swap2\n      swap1\n      0x00\n      mstore\n      keccak256(0x00, 0x20)\n      swap1\n    tag_58:\n      dup2\n      sload\n      dup2\n      mstore\n      swap1\n      0x01\n      add\n      swap1\n      0x20\n      add\n      dup1\n      dup4\n      gt\n      tag_58\n      jumpi\n      dup3\n      swap1\n      sub\n      0x1f\n      and\n      dup3\n      add\n      swap2\n    tag_56:\n      pop\n      pop\n      pop\n      pop\n      pop\n      dup2\n      mstore\n      0x20\n      add\n      swap1\n      0x01\n      add\n      swap1\n      jump(tag_51)\n    tag_52:\n      pop\n      pop\n      pop\n      pop\n      dup2\n      mstore\n      0x20\n      add\n      0x02\n      dup3\n      add\n      dup1\n      sload\n      dup1\n      0x20\n      mul\n      0x20\n      add\n      mload(0x40)\n      swap1\n      dup2\n      add\n      0x40\n      mstore\n      dup1\n      swap3\n      swap2\n      swap1\n      dup2\n      dup2\n      mstore\n      0x20\n      add\n      dup3\n      dup1\n      sload\n      dup1\n      iszero\n      tag_59\n      jumpi\n      0x20\n      mul\n      dup3\n      add\n      swap2\n      swap1\n      0x00\n      mstore\n      keccak256(0x00, 0x20)\n      swap1\n    tag_60:\n      dup2\n      sload\n      dup2\n      mstore\n      0x20\n      add\n      swap1\n      0x01\n      add\n      swap1\n      dup1\n      dup4\n      gt\n      tag_60\n      jumpi\n    tag_59:\n      pop\n      pop\n      pop\n      pop\n      pop\n      dup2\n      mstore\n      0x20\n      add\n      0x03\n      dup3\n      add\n      0x00\n      swap1\n      sload\n      swap1\n      0x0100\n      exp\n      swap1\n      div\n      0xff\n      and\n      iszero\n      iszero\n      iszero\n      iszero\n      dup2\n      mstore\n      pop\n      pop\n      swap1\n      pop\n        /* \"contracts/Soboro.sol\":3320:3326  survey */\n      dup1\n        /* \"contracts/Soboro.sol\":3313:3326  return survey */\n      swap2\n      pop\n      pop\n        /* \"contracts/Soboro.sol\":3103:3333  function getSurveyResults(uint _surveyId) public view returns (Survey memory) {... */\n      swap2\n      swap1\n      pop\n      jump\t// out\n        /* \"contracts/Soboro.sol\":2652:3063  function vote(uint _surveyId, uint _optionIndex) public {... */\n    tag_19:\n        /* \"contracts/Soboro.sol\":2738:2745  surveys */\n      0x00\n        /* \"contracts/Soboro.sol\":2738:2752  surveys.length */\n      dup1\n      sload\n      swap1\n      pop\n        /* \"contracts/Soboro.sol\":2726:2735  _surveyId */\n      dup3\n        /* \"contracts/Soboro.sol\":2726:2752  _surveyId < surveys.length */\n      lt\n        /* \"contracts/Soboro.sol\":2718:2778  require(_surveyId < surveys.length, \"Survey does not exist\") */\n      tag_62\n      jumpi\n      mload(0x40)\n      0x08c379a000000000000000000000000000000000000000000000000000000000\n      dup2\n      mstore\n      0x04\n      add\n      tag_63\n      swap1\n      tag_40\n      jump\t// in\n    tag_63:\n      mload(0x40)\n      dup1\n      swap2\n      sub\n      swap1\n      revert\n    tag_62:\n        /* \"contracts/Soboro.sol\":2796:2803  surveys */\n      0x00\n        /* \"contracts/Soboro.sol\":2804:2813  _surveyId */\n      dup3\n        /* \"contracts/Soboro.sol\":2796:2814  surveys[_surveyId] */\n      dup2\n      sload\n      dup2\n      lt\n      tag_64\n      jumpi\n      tag_65\n      tag_43\n      jump\t// in\n    tag_65:\n    tag_64:\n      swap1\n      0x00\n      mstore\n      keccak256(0x00, 0x20)\n      swap1\n      0x04\n      mul\n      add\n        /* \"contracts/Soboro.sol\":2796:2823  surveys[_surveyId].isActive */\n      0x03\n      add\n      0x00\n      swap1\n      sload\n      swap1\n      0x0100\n      exp\n      swap1\n      div\n      0xff\n      and\n        /* \"contracts/Soboro.sol\":2788:2848  require(surveys[_surveyId].isActive, \"Survey is not active\") */\n      tag_67\n      jumpi\n      mload(0x40)\n      0x08c379a000000000000000000000000000000000000000000000000000000000\n      dup2\n      mstore\n      0x04\n      add\n      tag_68\n      swap1\n      tag_69\n      jump\t// in\n    tag_68:\n      mload(0x40)\n      dup1\n      swap2\n      sub\n      swap1\n      revert\n    tag_67:\n        /* \"contracts/Soboro.sol\":2881:2888  surveys */\n      0x00\n        /* \"contracts/Soboro.sol\":2889:2898  _surveyId */\n      dup3\n        /* \"contracts/Soboro.sol\":2881:2899  surveys[_surveyId] */\n      dup2\n      sload\n      dup2\n      lt\n      tag_70\n      jumpi\n      tag_71\n      tag_43\n      jump\t// in\n    tag_71:\n    tag_70:\n      swap1\n      0x00\n      mstore\n      keccak256(0x00, 0x20)\n      swap1\n      0x04\n      mul\n      add\n        /* \"contracts/Soboro.sol\":2881:2907  surveys[_surveyId].options */\n      0x01\n      add\n        /* \"contracts/Soboro.sol\":2881:2914  surveys[_surveyId].options.length */\n      dup1\n      sload\n      swap1\n      pop\n        /* \"contracts/Soboro.sol\":2866:2878  _optionIndex */\n      dup2\n        /* \"contracts/Soboro.sol\":2866:2914  _optionIndex < surveys[_surveyId].options.length */\n      lt\n        /* \"contracts/Soboro.sol\":2858:2939  require(_optionIndex < surveys[_surveyId].options.length, \"Invalid option index\") */\n      tag_73\n      jumpi\n      mload(0x40)\n      0x08c379a000000000000000000000000000000000000000000000000000000000\n      dup2\n      mstore\n      0x04\n      add\n      tag_74\n      swap1\n      tag_75\n      jump\t// in\n    tag_74:\n      mload(0x40)\n      dup1\n      swap2\n      sub\n      swap1\n      revert\n    tag_73:\n        /* \"contracts/Soboro.sol\":2949:2956  surveys */\n      0x00\n        /* \"contracts/Soboro.sol\":2957:2966  _surveyId */\n      dup3\n        /* \"contracts/Soboro.sol\":2949:2967  surveys[_surveyId] */\n      dup2\n      sload\n      dup2\n      lt\n      tag_76\n      jumpi\n      tag_77\n      tag_43\n      jump\t// in\n    tag_77:\n    tag_76:\n      swap1\n      0x00\n      mstore\n      keccak256(0x00, 0x20)\n      swap1\n      0x04\n      mul\n      add\n        /* \"contracts/Soboro.sol\":2949:2987  surveys[_surveyId].voteCountPerOptions */\n      0x02\n      add\n        /* \"contracts/Soboro.sol\":2988:3000  _optionIndex */\n      dup2\n        /* \"contracts/Soboro.sol\":2949:3001  surveys[_surveyId].voteCountPerOptions[_optionIndex] */\n      dup2\n      sload\n      dup2\n      lt\n      tag_79\n      jumpi\n      tag_80\n      tag_43\n      jump\t// in\n    tag_80:\n    tag_79:\n      swap1\n      0x00\n      mstore\n      keccak256(0x00, 0x20)\n      add\n      0x00\n        /* \"contracts/Soboro.sol\":2949:3003  surveys[_surveyId].voteCountPerOptions[_optionIndex]++ */\n      dup2\n      sload\n      dup1\n      swap3\n      swap2\n      swap1\n      tag_82\n      swap1\n      tag_83\n      jump\t// in\n    tag_82:\n      swap2\n      swap1\n      pop\n      sstore\n      pop\n        /* \"contracts/Soboro.sol\":2652:3063  function vote(uint _surveyId, uint _optionIndex) public {... */\n      pop\n      pop\n      jump\t// out\n    tag_32:\n      dup3\n      dup1\n      sload\n      dup3\n      dup3\n      sstore\n      swap1\n      0x00\n      mstore\n      keccak256(0x00, 0x20)\n      swap1\n      dup2\n      add\n      swap3\n      dup3\n      iszero\n      tag_84\n      jumpi\n      swap2\n      0x20\n      mul\n      dup3\n      add\n    tag_85:\n      dup3\n      dup2\n      gt\n      iszero\n      tag_86\n      jumpi\n      dup3\n      mload\n      dup3\n      swap1\n      dup2\n      tag_87\n      swap2\n      swap1\n      tag_30\n      jump\t// in\n    tag_87:\n      pop\n      swap2\n      0x20\n      add\n      swap2\n      swap1\n      0x01\n      add\n      swap1\n      jump(tag_85)\n    tag_86:\n    tag_84:\n      pop\n      swap1\n      pop\n      tag_88\n      swap2\n      swap1\n      tag_89\n      jump\t// in\n    tag_88:\n      pop\n      swap1\n      jump\t// out\n    tag_34:\n      dup3\n      dup1\n      sload\n      dup3\n      dup3\n      sstore\n      swap1\n      0x00\n      mstore\n      keccak256(0x00, 0x20)\n      swap1\n      dup2\n      add\n      swap3\n      dup3\n      iszero\n      tag_90\n      jumpi\n      swap2\n      0x20\n      mul\n      dup3\n      add\n    tag_91:\n      dup3\n      dup2\n      gt\n      iszero\n      tag_92\n      jumpi\n      dup3\n      mload\n      dup3\n      sstore\n      swap2\n      0x20\n      add\n      swap2\n      swap1\n      0x01\n      add\n      swap1\n      jump(tag_91)\n    tag_92:\n    tag_90:\n      pop\n      swap1\n      pop\n      tag_93\n      swap2\n      swap1\n      tag_94\n      jump\t// in\n    tag_93:\n      pop\n      swap1\n      jump\t// out\n    tag_36:\n      mload(0x40)\n      dup1\n      0x80\n      add\n      0x40\n      mstore\n      dup1\n      0x60\n      dup2\n      mstore\n      0x20\n      add\n      0x60\n      dup2\n      mstore\n      0x20\n      add\n      0x60\n      dup2\n      mstore\n      0x20\n      add\n      iszero(iszero(0x00))\n      dup2\n      mstore\n      pop\n      swap1\n      jump\t// out\n    tag_89:\n    tag_95:\n      dup1\n      dup3\n      gt\n      iszero\n      tag_96\n      jumpi\n      0x00\n      dup2\n      dup2\n      tag_97\n      swap2\n      swap1\n      tag_98\n      jump\t// in\n    tag_97:\n      pop\n      0x01\n      add\n      jump(tag_95)\n    tag_96:\n      pop\n      swap1\n      jump\t// out\n    tag_94:\n    tag_99:\n      dup1\n      dup3\n      gt\n      iszero\n      tag_100\n      jumpi\n      0x00\n      dup2\n      0x00\n      swap1\n      sstore\n      pop\n      0x01\n      add\n      jump(tag_99)\n    tag_100:\n      pop\n      swap1\n      jump\t// out\n    tag_98:\n      pop\n      dup1\n      sload\n      tag_101\n      swap1\n      tag_46\n      jump\t// in\n    tag_101:\n      0x00\n      dup3\n      sstore\n      dup1\n      0x1f\n      lt\n      tag_103\n      jumpi\n      pop\n      jump(tag_102)\n    tag_103:\n      0x1f\n      add\n      0x20\n      swap1\n      div\n      swap1\n      0x00\n      mstore\n      keccak256(0x00, 0x20)\n      swap1\n      dup2\n      add\n      swap1\n      tag_104\n      swap2\n      swap1\n      tag_94\n      jump\t// in\n    tag_104:\n    tag_102:\n      pop\n      jump\t// out\n        /* \"#utility.yul\":7:82   */\n    tag_105:\n        /* \"#utility.yul\":40:46   */\n      0x00\n        /* \"#utility.yul\":73:75   */\n      0x40\n        /* \"#utility.yul\":67:76   */\n      mload\n        /* \"#utility.yul\":57:76   */\n      swap1\n      pop\n        /* \"#utility.yul\":7:82   */\n      swap1\n      jump\t// out\n        /* \"#utility.yul\":88:205   */\n    tag_106:\n        /* \"#utility.yul\":197:198   */\n      0x00\n        /* \"#utility.yul\":194:195   */\n      dup1\n        /* \"#utility.yul\":187:199   */\n      revert\n        /* \"#utility.yul\":211:328   */\n    tag_107:\n        /* \"#utility.yul\":320:321   */\n      0x00\n        /* \"#utility.yul\":317:318   */\n      dup1\n        /* \"#utility.yul\":310:322   */\n      revert\n        /* \"#utility.yul\":334:451   */\n    tag_108:\n        /* \"#utility.yul\":443:444   */\n      0x00\n        /* \"#utility.yul\":440:441   */\n      dup1\n        /* \"#utility.yul\":433:445   */\n      revert\n        /* \"#utility.yul\":457:574   */\n    tag_109:\n        /* \"#utility.yul\":566:567   */\n      0x00\n        /* \"#utility.yul\":563:564   */\n      dup1\n        /* \"#utility.yul\":556:568   */\n      revert\n        /* \"#utility.yul\":580:682   */\n    tag_110:\n        /* \"#utility.yul\":621:627   */\n      0x00\n        /* \"#utility.yul\":672:674   */\n      0x1f\n        /* \"#utility.yul\":668:675   */\n      not\n        /* \"#utility.yul\":663:665   */\n      0x1f\n        /* \"#utility.yul\":656:661   */\n      dup4\n        /* \"#utility.yul\":652:666   */\n      add\n        /* \"#utility.yul\":648:676   */\n      and\n        /* \"#utility.yul\":638:676   */\n      swap1\n      pop\n        /* \"#utility.yul\":580:682   */\n      swap2\n      swap1\n      pop\n      jump\t// out\n        /* \"#utility.yul\":688:868   */\n    tag_26:\n        /* \"#utility.yul\":736:813   */\n      0x4e487b7100000000000000000000000000000000000000000000000000000000\n        /* \"#utility.yul\":733:734   */\n      0x00\n        /* \"#utility.yul\":726:814   */\n      mstore\n        /* \"#utility.yul\":833:837   */\n      0x41\n        /* \"#utility.yul\":830:831   */\n      0x04\n        /* \"#utility.yul\":823:838   */\n      mstore\n        /* \"#utility.yul\":857:861   */\n      0x24\n        /* \"#utility.yul\":854:855   */\n      0x00\n        /* \"#utility.yul\":847:862   */\n      revert\n        /* \"#utility.yul\":874:1155   */\n    tag_111:\n        /* \"#utility.yul\":957:984   */\n      tag_181\n        /* \"#utility.yul\":979:983   */\n      dup3\n        /* \"#utility.yul\":957:984   */\n      tag_110\n      jump\t// in\n    tag_181:\n        /* \"#utility.yul\":949:955   */\n      dup2\n        /* \"#utility.yul\":945:985   */\n      add\n        /* \"#utility.yul\":1087:1093   */\n      dup2\n        /* \"#utility.yul\":1075:1085   */\n      dup2\n        /* \"#utility.yul\":1072:1094   */\n      lt\n        /* \"#utility.yul\":1051:1069   */\n      0xffffffffffffffff\n        /* \"#utility.yul\":1039:1049   */\n      dup3\n        /* \"#utility.yul\":1036:1070   */\n      gt\n        /* \"#utility.yul\":1033:1095   */\n      or\n        /* \"#utility.yul\":1030:1118   */\n      iszero\n      tag_182\n      jumpi\n        /* \"#utility.yul\":1098:1116   */\n      tag_183\n      tag_26\n      jump\t// in\n    tag_183:\n        /* \"#utility.yul\":1030:1118   */\n    tag_182:\n        /* \"#utility.yul\":1138:1148   */\n      dup1\n        /* \"#utility.yul\":1134:1136   */\n      0x40\n        /* \"#utility.yul\":1127:1149   */\n      mstore\n        /* \"#utility.yul\":917:1155   */\n      pop\n        /* \"#utility.yul\":874:1155   */\n      pop\n      pop\n      jump\t// out\n        /* \"#utility.yul\":1161:1290   */\n    tag_112:\n        /* \"#utility.yul\":1195:1201   */\n      0x00\n        /* \"#utility.yul\":1222:1242   */\n      tag_185\n      tag_105\n      jump\t// in\n    tag_185:\n        /* \"#utility.yul\":1212:1242   */\n      swap1\n      pop\n        /* \"#utility.yul\":1251:1284   */\n      tag_186\n        /* \"#utility.yul\":1279:1283   */\n      dup3\n        /* \"#utility.yul\":1271:1277   */\n      dup3\n        /* \"#utility.yul\":1251:1284   */\n      tag_111\n      jump\t// in\n    tag_186:\n        /* \"#utility.yul\":1161:1290   */\n      swap2\n      swap1\n      pop\n      jump\t// out\n        /* \"#utility.yul\":1296:1604   */\n    tag_113:\n        /* \"#utility.yul\":1358:1362   */\n      0x00\n        /* \"#utility.yul\":1448:1466   */\n      0xffffffffffffffff\n        /* \"#utility.yul\":1440:1446   */\n      dup3\n        /* \"#utility.yul\":1437:1467   */\n      gt\n        /* \"#utility.yul\":1434:1490   */\n      iszero\n      tag_188\n      jumpi\n        /* \"#utility.yul\":1470:1488   */\n      tag_189\n      tag_26\n      jump\t// in\n    tag_189:\n        /* \"#utility.yul\":1434:1490   */\n    tag_188:\n        /* \"#utility.yul\":1508:1537   */\n      tag_190\n        /* \"#utility.yul\":1530:1536   */\n      dup3\n        /* \"#utility.yul\":1508:1537   */\n      tag_110\n      jump\t// in\n    tag_190:\n        /* \"#utility.yul\":1500:1537   */\n      swap1\n      pop\n        /* \"#utility.yul\":1592:1596   */\n      0x20\n        /* \"#utility.yul\":1586:1590   */\n      dup2\n        /* \"#utility.yul\":1582:1597   */\n      add\n        /* \"#utility.yul\":1574:1597   */\n      swap1\n      pop\n        /* \"#utility.yul\":1296:1604   */\n      swap2\n      swap1\n      pop\n      jump\t// out\n        /* \"#utility.yul\":1610:1758   */\n    tag_114:\n        /* \"#utility.yul\":1708:1714   */\n      dup3\n        /* \"#utility.yul\":1703:1706   */\n      dup2\n        /* \"#utility.yul\":1698:1701   */\n      dup4\n        /* \"#utility.yul\":1685:1715   */\n      calldatacopy\n        /* \"#utility.yul\":1749:1750   */\n      0x00\n        /* \"#utility.yul\":1740:1746   */\n      dup4\n        /* \"#utility.yul\":1735:1738   */\n      dup4\n        /* \"#utility.yul\":1731:1747   */\n      add\n        /* \"#utility.yul\":1724:1751   */\n      mstore\n        /* \"#utility.yul\":1610:1758   */\n      pop\n      pop\n      pop\n      jump\t// out\n        /* \"#utility.yul\":1764:2189   */\n    tag_115:\n        /* \"#utility.yul\":1842:1847   */\n      0x00\n        /* \"#utility.yul\":1867:1933   */\n      tag_193\n        /* \"#utility.yul\":1883:1932   */\n      tag_194\n        /* \"#utility.yul\":1925:1931   */\n      dup5\n        /* \"#utility.yul\":1883:1932   */\n      tag_113\n      jump\t// in\n    tag_194:\n        /* \"#utility.yul\":1867:1933   */\n      tag_112\n      jump\t// in\n    tag_193:\n        /* \"#utility.yul\":1858:1933   */\n      swap1\n      pop\n        /* \"#utility.yul\":1956:1962   */\n      dup3\n        /* \"#utility.yul\":1949:1954   */\n      dup2\n        /* \"#utility.yul\":1942:1963   */\n      mstore\n        /* \"#utility.yul\":1994:1998   */\n      0x20\n        /* \"#utility.yul\":1987:1992   */\n      dup2\n        /* \"#utility.yul\":1983:1999   */\n      add\n        /* \"#utility.yul\":2032:2035   */\n      dup5\n        /* \"#utility.yul\":2023:2029   */\n      dup5\n        /* \"#utility.yul\":2018:2021   */\n      dup5\n        /* \"#utility.yul\":2014:2030   */\n      add\n        /* \"#utility.yul\":2011:2036   */\n      gt\n        /* \"#utility.yul\":2008:2120   */\n      iszero\n      tag_195\n      jumpi\n        /* \"#utility.yul\":2039:2118   */\n      tag_196\n      tag_109\n      jump\t// in\n    tag_196:\n        /* \"#utility.yul\":2008:2120   */\n    tag_195:\n        /* \"#utility.yul\":2129:2183   */\n      tag_197\n        /* \"#utility.yul\":2176:2182   */\n      dup5\n        /* \"#utility.yul\":2171:2174   */\n      dup3\n        /* \"#utility.yul\":2166:2169   */\n      dup6\n        /* \"#utility.yul\":2129:2183   */\n      tag_114\n      jump\t// in\n    tag_197:\n        /* \"#utility.yul\":1848:2189   */\n      pop\n        /* \"#utility.yul\":1764:2189   */\n      swap4\n      swap3\n      pop\n      pop\n      pop\n      jump\t// out\n        /* \"#utility.yul\":2209:2549   */\n    tag_116:\n        /* \"#utility.yul\":2265:2270   */\n      0x00\n        /* \"#utility.yul\":2314:2317   */\n      dup3\n        /* \"#utility.yul\":2307:2311   */\n      0x1f\n        /* \"#utility.yul\":2299:2305   */\n      dup4\n        /* \"#utility.yul\":2295:2312   */\n      add\n        /* \"#utility.yul\":2291:2318   */\n      slt\n        /* \"#utility.yul\":2281:2403   */\n      tag_199\n      jumpi\n        /* \"#utility.yul\":2322:2401   */\n      tag_200\n      tag_108\n      jump\t// in\n    tag_200:\n        /* \"#utility.yul\":2281:2403   */\n    tag_199:\n        /* \"#utility.yul\":2439:2445   */\n      dup2\n        /* \"#utility.yul\":2426:2446   */\n      calldataload\n        /* \"#utility.yul\":2464:2543   */\n      tag_201\n        /* \"#utility.yul\":2539:2542   */\n      dup5\n        /* \"#utility.yul\":2531:2537   */\n      dup3\n        /* \"#utility.yul\":2524:2528   */\n      0x20\n        /* \"#utility.yul\":2516:2522   */\n      dup7\n        /* \"#utility.yul\":2512:2529   */\n      add\n        /* \"#utility.yul\":2464:2543   */\n      tag_115\n      jump\t// in\n    tag_201:\n        /* \"#utility.yul\":2455:2543   */\n      swap2\n      pop\n        /* \"#utility.yul\":2271:2549   */\n      pop\n        /* \"#utility.yul\":2209:2549   */\n      swap3\n      swap2\n      pop\n      pop\n      jump\t// out\n        /* \"#utility.yul\":2555:2876   */\n    tag_117:\n        /* \"#utility.yul\":2642:2646   */\n      0x00\n        /* \"#utility.yul\":2732:2750   */\n      0xffffffffffffffff\n        /* \"#utility.yul\":2724:2730   */\n      dup3\n        /* \"#utility.yul\":2721:2751   */\n      gt\n        /* \"#utility.yul\":2718:2774   */\n      iszero\n      tag_203\n      jumpi\n        /* \"#utility.yul\":2754:2772   */\n      tag_204\n      tag_26\n      jump\t// in\n    tag_204:\n        /* \"#utility.yul\":2718:2774   */\n    tag_203:\n        /* \"#utility.yul\":2804:2808   */\n      0x20\n        /* \"#utility.yul\":2796:2802   */\n      dup3\n        /* \"#utility.yul\":2792:2809   */\n      mul\n        /* \"#utility.yul\":2784:2809   */\n      swap1\n      pop\n        /* \"#utility.yul\":2864:2868   */\n      0x20\n        /* \"#utility.yul\":2858:2862   */\n      dup2\n        /* \"#utility.yul\":2854:2869   */\n      add\n        /* \"#utility.yul\":2846:2869   */\n      swap1\n      pop\n        /* \"#utility.yul\":2555:2876   */\n      swap2\n      swap1\n      pop\n      jump\t// out\n        /* \"#utility.yul\":2882:2999   */\n    tag_118:\n        /* \"#utility.yul\":2991:2992   */\n      0x00\n        /* \"#utility.yul\":2988:2989   */\n      dup1\n        /* \"#utility.yul\":2981:2993   */\n      revert\n        /* \"#utility.yul\":3021:3966   */\n    tag_119:\n        /* \"#utility.yul\":3127:3132   */\n      0x00\n        /* \"#utility.yul\":3152:3243   */\n      tag_207\n        /* \"#utility.yul\":3168:3242   */\n      tag_208\n        /* \"#utility.yul\":3235:3241   */\n      dup5\n        /* \"#utility.yul\":3168:3242   */\n      tag_117\n      jump\t// in\n    tag_208:\n        /* \"#utility.yul\":3152:3243   */\n      tag_112\n      jump\t// in\n    tag_207:\n        /* \"#utility.yul\":3143:3243   */\n      swap1\n      pop\n        /* \"#utility.yul\":3263:3268   */\n      dup1\n        /* \"#utility.yul\":3292:3298   */\n      dup4\n        /* \"#utility.yul\":3285:3290   */\n      dup3\n        /* \"#utility.yul\":3278:3299   */\n      mstore\n        /* \"#utility.yul\":3326:3330   */\n      0x20\n        /* \"#utility.yul\":3319:3324   */\n      dup3\n        /* \"#utility.yul\":3315:3331   */\n      add\n        /* \"#utility.yul\":3308:3331   */\n      swap1\n      pop\n        /* \"#utility.yul\":3379:3383   */\n      0x20\n        /* \"#utility.yul\":3371:3377   */\n      dup5\n        /* \"#utility.yul\":3367:3384   */\n      mul\n        /* \"#utility.yul\":3359:3365   */\n      dup4\n        /* \"#utility.yul\":3355:3385   */\n      add\n        /* \"#utility.yul\":3408:3411   */\n      dup6\n        /* \"#utility.yul\":3400:3406   */\n      dup2\n        /* \"#utility.yul\":3397:3412   */\n      gt\n        /* \"#utility.yul\":3394:3516   */\n      iszero\n      tag_209\n      jumpi\n        /* \"#utility.yul\":3427:3506   */\n      tag_210\n      tag_118\n      jump\t// in\n    tag_210:\n        /* \"#utility.yul\":3394:3516   */\n    tag_209:\n        /* \"#utility.yul\":3542:3548   */\n      dup4\n        /* \"#utility.yul\":3525:3960   */\n    tag_211:\n        /* \"#utility.yul\":3559:3565   */\n      dup2\n        /* \"#utility.yul\":3554:3557   */\n      dup2\n        /* \"#utility.yul\":3551:3566   */\n      lt\n        /* \"#utility.yul\":3525:3960   */\n      iszero\n      tag_213\n      jumpi\n        /* \"#utility.yul\":3648:3651   */\n      dup1\n        /* \"#utility.yul\":3635:3652   */\n      calldataload\n        /* \"#utility.yul\":3684:3702   */\n      0xffffffffffffffff\n        /* \"#utility.yul\":3671:3682   */\n      dup2\n        /* \"#utility.yul\":3668:3703   */\n      gt\n        /* \"#utility.yul\":3665:3787   */\n      iszero\n      tag_214\n      jumpi\n        /* \"#utility.yul\":3706:3785   */\n      tag_215\n      tag_108\n      jump\t// in\n    tag_215:\n        /* \"#utility.yul\":3665:3787   */\n    tag_214:\n        /* \"#utility.yul\":3830:3841   */\n      dup1\n        /* \"#utility.yul\":3822:3828   */\n      dup7\n        /* \"#utility.yul\":3818:3842   */\n      add\n        /* \"#utility.yul\":3868:3915   */\n      tag_216\n        /* \"#utility.yul\":3911:3914   */\n      dup10\n        /* \"#utility.yul\":3899:3909   */\n      dup3\n        /* \"#utility.yul\":3868:3915   */\n      tag_116\n      jump\t// in\n    tag_216:\n        /* \"#utility.yul\":3863:3866   */\n      dup6\n        /* \"#utility.yul\":3856:3916   */\n      mstore\n        /* \"#utility.yul\":3945:3949   */\n      0x20\n        /* \"#utility.yul\":3940:3943   */\n      dup6\n        /* \"#utility.yul\":3936:3950   */\n      add\n        /* \"#utility.yul\":3929:3950   */\n      swap5\n      pop\n        /* \"#utility.yul\":3601:3960   */\n      pop\n      pop\n        /* \"#utility.yul\":3585:3589   */\n      0x20\n        /* \"#utility.yul\":3580:3583   */\n      dup2\n        /* \"#utility.yul\":3576:3590   */\n      add\n        /* \"#utility.yul\":3569:3590   */\n      swap1\n      pop\n        /* \"#utility.yul\":3525:3960   */\n      jump(tag_211)\n    tag_213:\n        /* \"#utility.yul\":3529:3550   */\n      pop\n        /* \"#utility.yul\":3133:3966   */\n      pop\n      pop\n        /* \"#utility.yul\":3021:3966   */\n      swap4\n      swap3\n      pop\n      pop\n      pop\n      jump\t// out\n        /* \"#utility.yul\":3988:4378   */\n    tag_120:\n        /* \"#utility.yul\":4069:4074   */\n      0x00\n        /* \"#utility.yul\":4118:4121   */\n      dup3\n        /* \"#utility.yul\":4111:4115   */\n      0x1f\n        /* \"#utility.yul\":4103:4109   */\n      dup4\n        /* \"#utility.yul\":4099:4116   */\n      add\n        /* \"#utility.yul\":4095:4122   */\n      slt\n        /* \"#utility.yul\":4085:4207   */\n      tag_218\n      jumpi\n        /* \"#utility.yul\":4126:4205   */\n      tag_219\n      tag_108\n      jump\t// in\n    tag_219:\n        /* \"#utility.yul\":4085:4207   */\n    tag_218:\n        /* \"#utility.yul\":4243:4249   */\n      dup2\n        /* \"#utility.yul\":4230:4250   */\n      calldataload\n        /* \"#utility.yul\":4268:4372   */\n      tag_220\n        /* \"#utility.yul\":4368:4371   */\n      dup5\n        /* \"#utility.yul\":4360:4366   */\n      dup3\n        /* \"#utility.yul\":4353:4357   */\n      0x20\n        /* \"#utility.yul\":4345:4351   */\n      dup7\n        /* \"#utility.yul\":4341:4358   */\n      add\n        /* \"#utility.yul\":4268:4372   */\n      tag_119\n      jump\t// in\n    tag_220:\n        /* \"#utility.yul\":4259:4372   */\n      swap2\n      pop\n        /* \"#utility.yul\":4075:4378   */\n      pop\n        /* \"#utility.yul\":3988:4378   */\n      swap3\n      swap2\n      pop\n      pop\n      jump\t// out\n        /* \"#utility.yul\":4384:4474   */\n    tag_121:\n        /* \"#utility.yul\":4418:4425   */\n      0x00\n        /* \"#utility.yul\":4461:4466   */\n      dup2\n        /* \"#utility.yul\":4454:4467   */\n      iszero\n        /* \"#utility.yul\":4447:4468   */\n      iszero\n        /* \"#utility.yul\":4436:4468   */\n      swap1\n      pop\n        /* \"#utility.yul\":4384:4474   */\n      swap2\n      swap1\n      pop\n      jump\t// out\n        /* \"#utility.yul\":4480:4596   */\n    tag_122:\n        /* \"#utility.yul\":4550:4571   */\n      tag_223\n        /* \"#utility.yul\":4565:4570   */\n      dup2\n        /* \"#utility.yul\":4550:4571   */\n      tag_121\n      jump\t// in\n    tag_223:\n        /* \"#utility.yul\":4543:4548   */\n      dup2\n        /* \"#utility.yul\":4540:4572   */\n      eq\n        /* \"#utility.yul\":4530:4590   */\n      tag_224\n      jumpi\n        /* \"#utility.yul\":4586:4587   */\n      0x00\n        /* \"#utility.yul\":4583:4584   */\n      dup1\n        /* \"#utility.yul\":4576:4588   */\n      revert\n        /* \"#utility.yul\":4530:4590   */\n    tag_224:\n        /* \"#utility.yul\":4480:4596   */\n      pop\n      jump\t// out\n        /* \"#utility.yul\":4602:4735   */\n    tag_123:\n        /* \"#utility.yul\":4645:4650   */\n      0x00\n        /* \"#utility.yul\":4683:4689   */\n      dup2\n        /* \"#utility.yul\":4670:4690   */\n      calldataload\n        /* \"#utility.yul\":4661:4690   */\n      swap1\n      pop\n        /* \"#utility.yul\":4699:4729   */\n      tag_226\n        /* \"#utility.yul\":4723:4728   */\n      dup2\n        /* \"#utility.yul\":4699:4729   */\n      tag_122\n      jump\t// in\n    tag_226:\n        /* \"#utility.yul\":4602:4735   */\n      swap3\n      swap2\n      pop\n      pop\n      jump\t// out\n        /* \"#utility.yul\":4741:5764   */\n    tag_8:\n        /* \"#utility.yul\":4860:4866   */\n      0x00\n        /* \"#utility.yul\":4868:4874   */\n      dup1\n        /* \"#utility.yul\":4876:4882   */\n      0x00\n        /* \"#utility.yul\":4925:4927   */\n      0x60\n        /* \"#utility.yul\":4913:4922   */\n      dup5\n        /* \"#utility.yul\":4904:4911   */\n      dup7\n        /* \"#utility.yul\":4900:4923   */\n      sub\n        /* \"#utility.yul\":4896:4928   */\n      slt\n        /* \"#utility.yul\":4893:5012   */\n      iszero\n      tag_228\n      jumpi\n        /* \"#utility.yul\":4931:5010   */\n      tag_229\n      tag_106\n      jump\t// in\n    tag_229:\n        /* \"#utility.yul\":4893:5012   */\n    tag_228:\n        /* \"#utility.yul\":5079:5080   */\n      0x00\n        /* \"#utility.yul\":5068:5077   */\n      dup5\n        /* \"#utility.yul\":5064:5081   */\n      add\n        /* \"#utility.yul\":5051:5082   */\n      calldataload\n        /* \"#utility.yul\":5109:5127   */\n      0xffffffffffffffff\n        /* \"#utility.yul\":5101:5107   */\n      dup2\n        /* \"#utility.yul\":5098:5128   */\n      gt\n        /* \"#utility.yul\":5095:5212   */\n      iszero\n      tag_230\n      jumpi\n        /* \"#utility.yul\":5131:5210   */\n      tag_231\n      tag_107\n      jump\t// in\n    tag_231:\n        /* \"#utility.yul\":5095:5212   */\n    tag_230:\n        /* \"#utility.yul\":5236:5299   */\n      tag_232\n        /* \"#utility.yul\":5291:5298   */\n      dup7\n        /* \"#utility.yul\":5282:5288   */\n      dup3\n        /* \"#utility.yul\":5271:5280   */\n      dup8\n        /* \"#utility.yul\":5267:5289   */\n      add\n        /* \"#utility.yul\":5236:5299   */\n      tag_116\n      jump\t// in\n    tag_232:\n        /* \"#utility.yul\":5226:5299   */\n      swap4\n      pop\n        /* \"#utility.yul\":5022:5309   */\n      pop\n        /* \"#utility.yul\":5376:5378   */\n      0x20\n        /* \"#utility.yul\":5365:5374   */\n      dup5\n        /* \"#utility.yul\":5361:5379   */\n      add\n        /* \"#utility.yul\":5348:5380   */\n      calldataload\n        /* \"#utility.yul\":5407:5425   */\n      0xffffffffffffffff\n        /* \"#utility.yul\":5399:5405   */\n      dup2\n        /* \"#utility.yul\":5396:5426   */\n      gt\n        /* \"#utility.yul\":5393:5510   */\n      iszero\n      tag_233\n      jumpi\n        /* \"#utility.yul\":5429:5508   */\n      tag_234\n      tag_107\n      jump\t// in\n    tag_234:\n        /* \"#utility.yul\":5393:5510   */\n    tag_233:\n        /* \"#utility.yul\":5534:5622   */\n      tag_235\n        /* \"#utility.yul\":5614:5621   */\n      dup7\n        /* \"#utility.yul\":5605:5611   */\n      dup3\n        /* \"#utility.yul\":5594:5603   */\n      dup8\n        /* \"#utility.yul\":5590:5612   */\n      add\n        /* \"#utility.yul\":5534:5622   */\n      tag_120\n      jump\t// in\n    tag_235:\n        /* \"#utility.yul\":5524:5622   */\n      swap3\n      pop\n        /* \"#utility.yul\":5319:5632   */\n      pop\n        /* \"#utility.yul\":5671:5673   */\n      0x40\n        /* \"#utility.yul\":5697:5747   */\n      tag_236\n        /* \"#utility.yul\":5739:5746   */\n      dup7\n        /* \"#utility.yul\":5730:5736   */\n      dup3\n        /* \"#utility.yul\":5719:5728   */\n      dup8\n        /* \"#utility.yul\":5715:5737   */\n      add\n        /* \"#utility.yul\":5697:5747   */\n      tag_123\n      jump\t// in\n    tag_236:\n        /* \"#utility.yul\":5687:5747   */\n      swap2\n      pop\n        /* \"#utility.yul\":5642:5757   */\n      pop\n        /* \"#utility.yul\":4741:5764   */\n      swap3\n      pop\n      swap3\n      pop\n      swap3\n      jump\t// out\n        /* \"#utility.yul\":5770:5847   */\n    tag_124:\n        /* \"#utility.yul\":5807:5814   */\n      0x00\n        /* \"#utility.yul\":5836:5841   */\n      dup2\n        /* \"#utility.yul\":5825:5841   */\n      swap1\n      pop\n        /* \"#utility.yul\":5770:5847   */\n      swap2\n      swap1\n      pop\n      jump\t// out\n        /* \"#utility.yul\":5853:5975   */\n    tag_125:\n        /* \"#utility.yul\":5926:5950   */\n      tag_239\n        /* \"#utility.yul\":5944:5949   */\n      dup2\n        /* \"#utility.yul\":5926:5950   */\n      tag_124\n      jump\t// in\n    tag_239:\n        /* \"#utility.yul\":5919:5924   */\n      dup2\n        /* \"#utility.yul\":5916:5951   */\n      eq\n        /* \"#utility.yul\":5906:5969   */\n      tag_240\n      jumpi\n        /* \"#utility.yul\":5965:5966   */\n      0x00\n        /* \"#utility.yul\":5962:5963   */\n      dup1\n        /* \"#utility.yul\":5955:5967   */\n      revert\n        /* \"#utility.yul\":5906:5969   */\n    tag_240:\n        /* \"#utility.yul\":5853:5975   */\n      pop\n      jump\t// out\n        /* \"#utility.yul\":5981:6120   */\n    tag_126:\n        /* \"#utility.yul\":6027:6032   */\n      0x00\n        /* \"#utility.yul\":6065:6071   */\n      dup2\n        /* \"#utility.yul\":6052:6072   */\n      calldataload\n        /* \"#utility.yul\":6043:6072   */\n      swap1\n      pop\n        /* \"#utility.yul\":6081:6114   */\n      tag_242\n        /* \"#utility.yul\":6108:6113   */\n      dup2\n        /* \"#utility.yul\":6081:6114   */\n      tag_125\n      jump\t// in\n    tag_242:\n        /* \"#utility.yul\":5981:6120   */\n      swap3\n      swap2\n      pop\n      pop\n      jump\t// out\n        /* \"#utility.yul\":6126:6455   */\n    tag_12:\n        /* \"#utility.yul\":6185:6191   */\n      0x00\n        /* \"#utility.yul\":6234:6236   */\n      0x20\n        /* \"#utility.yul\":6222:6231   */\n      dup3\n        /* \"#utility.yul\":6213:6220   */\n      dup5\n        /* \"#utility.yul\":6209:6232   */\n      sub\n        /* \"#utility.yul\":6205:6237   */\n      slt\n        /* \"#utility.yul\":6202:6321   */\n      iszero\n      tag_244\n      jumpi\n        /* \"#utility.yul\":6240:6319   */\n      tag_245\n      tag_106\n      jump\t// in\n    tag_245:\n        /* \"#utility.yul\":6202:6321   */\n    tag_244:\n        /* \"#utility.yul\":6360:6361   */\n      0x00\n        /* \"#utility.yul\":6385:6438   */\n      tag_246\n        /* \"#utility.yul\":6430:6437   */\n      dup5\n        /* \"#utility.yul\":6421:6427   */\n      dup3\n        /* \"#utility.yul\":6410:6419   */\n      dup6\n        /* \"#utility.yul\":6406:6428   */\n      add\n        /* \"#utility.yul\":6385:6438   */\n      tag_126\n      jump\t// in\n    tag_246:\n        /* \"#utility.yul\":6375:6438   */\n      swap2\n      pop\n        /* \"#utility.yul\":6331:6448   */\n      pop\n        /* \"#utility.yul\":6126:6455   */\n      swap3\n      swap2\n      pop\n      pop\n      jump\t// out\n        /* \"#utility.yul\":6461:6560   */\n    tag_127:\n        /* \"#utility.yul\":6513:6519   */\n      0x00\n        /* \"#utility.yul\":6547:6552   */\n      dup2\n        /* \"#utility.yul\":6541:6553   */\n      mload\n        /* \"#utility.yul\":6531:6553   */\n      swap1\n      pop\n        /* \"#utility.yul\":6461:6560   */\n      swap2\n      swap1\n      pop\n      jump\t// out\n        /* \"#utility.yul\":6566:6725   */\n    tag_128:\n        /* \"#utility.yul\":6640:6651   */\n      0x00\n        /* \"#utility.yul\":6674:6680   */\n      dup3\n        /* \"#utility.yul\":6669:6672   */\n      dup3\n        /* \"#utility.yul\":6662:6681   */\n      mstore\n        /* \"#utility.yul\":6714:6718   */\n      0x20\n        /* \"#utility.yul\":6709:6712   */\n      dup3\n        /* \"#utility.yul\":6705:6719   */\n      add\n        /* \"#utility.yul\":6690:6719   */\n      swap1\n      pop\n        /* \"#utility.yul\":6566:6725   */\n      swap3\n      swap2\n      pop\n      pop\n      jump\t// out\n        /* \"#utility.yul\":6731:6870   */\n    tag_129:\n        /* \"#utility.yul\":6820:6826   */\n      dup3\n        /* \"#utility.yul\":6815:6818   */\n      dup2\n        /* \"#utility.yul\":6810:6813   */\n      dup4\n        /* \"#utility.yul\":6804:6827   */\n      mcopy\n        /* \"#utility.yul\":6861:6862   */\n      0x00\n        /* \"#utility.yul\":6852:6858   */\n      dup4\n        /* \"#utility.yul\":6847:6850   */\n      dup4\n        /* \"#utility.yul\":6843:6859   */\n      add\n        /* \"#utility.yul\":6836:6863   */\n      mstore\n        /* \"#utility.yul\":6731:6870   */\n      pop\n      pop\n      pop\n      jump\t// out\n        /* \"#utility.yul\":6876:7233   */\n    tag_130:\n        /* \"#utility.yul\":6954:6957   */\n      0x00\n        /* \"#utility.yul\":6982:7021   */\n      tag_251\n        /* \"#utility.yul\":7015:7020   */\n      dup3\n        /* \"#utility.yul\":6982:7021   */\n      tag_127\n      jump\t// in\n    tag_251:\n        /* \"#utility.yul\":7037:7098   */\n      tag_252\n        /* \"#utility.yul\":7091:7097   */\n      dup2\n        /* \"#utility.yul\":7086:7089   */\n      dup6\n        /* \"#utility.yul\":7037:7098   */\n      tag_128\n      jump\t// in\n    tag_252:\n        /* \"#utility.yul\":7030:7098   */\n      swap4\n      pop\n        /* \"#utility.yul\":7107:7172   */\n      tag_253\n        /* \"#utility.yul\":7165:7171   */\n      dup2\n        /* \"#utility.yul\":7160:7163   */\n      dup6\n        /* \"#utility.yul\":7153:7157   */\n      0x20\n        /* \"#utility.yul\":7146:7151   */\n      dup7\n        /* \"#utility.yul\":7142:7158   */\n      add\n        /* \"#utility.yul\":7107:7172   */\n      tag_129\n      jump\t// in\n    tag_253:\n        /* \"#utility.yul\":7197:7226   */\n      tag_254\n        /* \"#utility.yul\":7219:7225   */\n      dup2\n        /* \"#utility.yul\":7197:7226   */\n      tag_110\n      jump\t// in\n    tag_254:\n        /* \"#utility.yul\":7192:7195   */\n      dup5\n        /* \"#utility.yul\":7188:7227   */\n      add\n        /* \"#utility.yul\":7181:7227   */\n      swap2\n      pop\n        /* \"#utility.yul\":6958:7233   */\n      pop\n        /* \"#utility.yul\":6876:7233   */\n      swap3\n      swap2\n      pop\n      pop\n      jump\t// out\n        /* \"#utility.yul\":7239:7363   */\n    tag_131:\n        /* \"#utility.yul\":7316:7322   */\n      0x00\n        /* \"#utility.yul\":7350:7355   */\n      dup2\n        /* \"#utility.yul\":7344:7356   */\n      mload\n        /* \"#utility.yul\":7334:7356   */\n      swap1\n      pop\n        /* \"#utility.yul\":7239:7363   */\n      swap2\n      swap1\n      pop\n      jump\t// out\n        /* \"#utility.yul\":7369:7553   */\n    tag_132:\n        /* \"#utility.yul\":7468:7479   */\n      0x00\n        /* \"#utility.yul\":7502:7508   */\n      dup3\n        /* \"#utility.yul\":7497:7500   */\n      dup3\n        /* \"#utility.yul\":7490:7509   */\n      mstore\n        /* \"#utility.yul\":7542:7546   */\n      0x20\n        /* \"#utility.yul\":7537:7540   */\n      dup3\n        /* \"#utility.yul\":7533:7547   */\n      add\n        /* \"#utility.yul\":7518:7547   */\n      swap1\n      pop\n        /* \"#utility.yul\":7369:7553   */\n      swap3\n      swap2\n      pop\n      pop\n      jump\t// out\n        /* \"#utility.yul\":7559:7701   */\n    tag_133:\n        /* \"#utility.yul\":7636:7640   */\n      0x00\n        /* \"#utility.yul\":7659:7662   */\n      dup2\n        /* \"#utility.yul\":7651:7662   */\n      swap1\n      pop\n        /* \"#utility.yul\":7689:7693   */\n      0x20\n        /* \"#utility.yul\":7684:7687   */\n      dup3\n        /* \"#utility.yul\":7680:7694   */\n      add\n        /* \"#utility.yul\":7672:7694   */\n      swap1\n      pop\n        /* \"#utility.yul\":7559:7701   */\n      swap2\n      swap1\n      pop\n      jump\t// out\n        /* \"#utility.yul\":7707:7903   */\n    tag_134:\n        /* \"#utility.yul\":7796:7806   */\n      0x00\n        /* \"#utility.yul\":7831:7897   */\n      tag_259\n        /* \"#utility.yul\":7893:7896   */\n      dup4\n        /* \"#utility.yul\":7885:7891   */\n      dup4\n        /* \"#utility.yul\":7831:7897   */\n      tag_130\n      jump\t// in\n    tag_259:\n        /* \"#utility.yul\":7817:7897   */\n      swap1\n      pop\n        /* \"#utility.yul\":7707:7903   */\n      swap3\n      swap2\n      pop\n      pop\n      jump\t// out\n        /* \"#utility.yul\":7909:8032   */\n    tag_135:\n        /* \"#utility.yul\":7989:7993   */\n      0x00\n        /* \"#utility.yul\":8021:8025   */\n      0x20\n        /* \"#utility.yul\":8016:8019   */\n      dup3\n        /* \"#utility.yul\":8012:8026   */\n      add\n        /* \"#utility.yul\":8004:8026   */\n      swap1\n      pop\n        /* \"#utility.yul\":7909:8032   */\n      swap2\n      swap1\n      pop\n      jump\t// out\n        /* \"#utility.yul\":8066:9037   */\n    tag_136:\n        /* \"#utility.yul\":8195:8198   */\n      0x00\n        /* \"#utility.yul\":8224:8288   */\n      tag_262\n        /* \"#utility.yul\":8282:8287   */\n      dup3\n        /* \"#utility.yul\":8224:8288   */\n      tag_131\n      jump\t// in\n    tag_262:\n        /* \"#utility.yul\":8304:8390   */\n      tag_263\n        /* \"#utility.yul\":8383:8389   */\n      dup2\n        /* \"#utility.yul\":8378:8381   */\n      dup6\n        /* \"#utility.yul\":8304:8390   */\n      tag_132\n      jump\t// in\n    tag_263:\n        /* \"#utility.yul\":8297:8390   */\n      swap4\n      pop\n        /* \"#utility.yul\":8416:8419   */\n      dup4\n        /* \"#utility.yul\":8461:8465   */\n      0x20\n        /* \"#utility.yul\":8453:8459   */\n      dup3\n        /* \"#utility.yul\":8449:8466   */\n      mul\n        /* \"#utility.yul\":8444:8447   */\n      dup6\n        /* \"#utility.yul\":8440:8467   */\n      add\n        /* \"#utility.yul\":8491:8557   */\n      tag_264\n        /* \"#utility.yul\":8551:8556   */\n      dup6\n        /* \"#utility.yul\":8491:8557   */\n      tag_133\n      jump\t// in\n    tag_264:\n        /* \"#utility.yul\":8580:8587   */\n      dup1\n        /* \"#utility.yul\":8611:8612   */\n      0x00\n        /* \"#utility.yul\":8596:8992   */\n    tag_265:\n        /* \"#utility.yul\":8621:8627   */\n      dup6\n        /* \"#utility.yul\":8618:8619   */\n      dup2\n        /* \"#utility.yul\":8615:8628   */\n      lt\n        /* \"#utility.yul\":8596:8992   */\n      iszero\n      tag_267\n      jumpi\n        /* \"#utility.yul\":8692:8701   */\n      dup5\n        /* \"#utility.yul\":8686:8690   */\n      dup5\n        /* \"#utility.yul\":8682:8702   */\n      sub\n        /* \"#utility.yul\":8677:8680   */\n      dup10\n        /* \"#utility.yul\":8670:8703   */\n      mstore\n        /* \"#utility.yul\":8743:8749   */\n      dup2\n        /* \"#utility.yul\":8737:8750   */\n      mload\n        /* \"#utility.yul\":8771:8855   */\n      tag_268\n        /* \"#utility.yul\":8850:8854   */\n      dup6\n        /* \"#utility.yul\":8835:8848   */\n      dup3\n        /* \"#utility.yul\":8771:8855   */\n      tag_134\n      jump\t// in\n    tag_268:\n        /* \"#utility.yul\":8763:8855   */\n      swap5\n      pop\n        /* \"#utility.yul\":8878:8948   */\n      tag_269\n        /* \"#utility.yul\":8941:8947   */\n      dup4\n        /* \"#utility.yul\":8878:8948   */\n      tag_135\n      jump\t// in\n    tag_269:\n        /* \"#utility.yul\":8868:8948   */\n      swap3\n      pop\n        /* \"#utility.yul\":8977:8981   */\n      0x20\n        /* \"#utility.yul\":8972:8975   */\n      dup11\n        /* \"#utility.yul\":8968:8982   */\n      add\n        /* \"#utility.yul\":8961:8982   */\n      swap10\n      pop\n        /* \"#utility.yul\":8656:8992   */\n      pop\n        /* \"#utility.yul\":8643:8644   */\n      0x01\n        /* \"#utility.yul\":8640:8641   */\n      dup2\n        /* \"#utility.yul\":8636:8645   */\n      add\n        /* \"#utility.yul\":8631:8645   */\n      swap1\n      pop\n        /* \"#utility.yul\":8596:8992   */\n      jump(tag_265)\n    tag_267:\n        /* \"#utility.yul\":8600:8614   */\n      pop\n        /* \"#utility.yul\":9008:9012   */\n      dup3\n        /* \"#utility.yul\":9001:9012   */\n      swap8\n      pop\n        /* \"#utility.yul\":9028:9031   */\n      dup8\n        /* \"#utility.yul\":9021:9031   */\n      swap6\n      pop\n        /* \"#utility.yul\":8200:9037   */\n      pop\n      pop\n      pop\n      pop\n      pop\n        /* \"#utility.yul\":8066:9037   */\n      swap3\n      swap2\n      pop\n      pop\n      jump\t// out\n        /* \"#utility.yul\":9043:9157   */\n    tag_137:\n        /* \"#utility.yul\":9110:9116   */\n      0x00\n        /* \"#utility.yul\":9144:9149   */\n      dup2\n        /* \"#utility.yul\":9138:9150   */\n      mload\n        /* \"#utility.yul\":9128:9150   */\n      swap1\n      pop\n        /* \"#utility.yul\":9043:9157   */\n      swap2\n      swap1\n      pop\n      jump\t// out\n        /* \"#utility.yul\":9163:9337   */\n    tag_138:\n        /* \"#utility.yul\":9252:9263   */\n      0x00\n        /* \"#utility.yul\":9286:9292   */\n      dup3\n        /* \"#utility.yul\":9281:9284   */\n      dup3\n        /* \"#utility.yul\":9274:9293   */\n      mstore\n        /* \"#utility.yul\":9326:9330   */\n      0x20\n        /* \"#utility.yul\":9321:9324   */\n      dup3\n        /* \"#utility.yul\":9317:9331   */\n      add\n        /* \"#utility.yul\":9302:9331   */\n      swap1\n      pop\n        /* \"#utility.yul\":9163:9337   */\n      swap3\n      swap2\n      pop\n      pop\n      jump\t// out\n        /* \"#utility.yul\":9343:9475   */\n    tag_139:\n        /* \"#utility.yul\":9410:9414   */\n      0x00\n        /* \"#utility.yul\":9433:9436   */\n      dup2\n        /* \"#utility.yul\":9425:9436   */\n      swap1\n      pop\n        /* \"#utility.yul\":9463:9467   */\n      0x20\n        /* \"#utility.yul\":9458:9461   */\n      dup3\n        /* \"#utility.yul\":9454:9468   */\n      add\n        /* \"#utility.yul\":9446:9468   */\n      swap1\n      pop\n        /* \"#utility.yul\":9343:9475   */\n      swap2\n      swap1\n      pop\n      jump\t// out\n        /* \"#utility.yul\":9481:9589   */\n    tag_140:\n        /* \"#utility.yul\":9558:9582   */\n      tag_274\n        /* \"#utility.yul\":9576:9581   */\n      dup2\n        /* \"#utility.yul\":9558:9582   */\n      tag_124\n      jump\t// in\n    tag_274:\n        /* \"#utility.yul\":9553:9556   */\n      dup3\n        /* \"#utility.yul\":9546:9583   */\n      mstore\n        /* \"#utility.yul\":9481:9589   */\n      pop\n      pop\n      jump\t// out\n        /* \"#utility.yul\":9595:9774   */\n    tag_141:\n        /* \"#utility.yul\":9664:9674   */\n      0x00\n        /* \"#utility.yul\":9685:9731   */\n      tag_276\n        /* \"#utility.yul\":9727:9730   */\n      dup4\n        /* \"#utility.yul\":9719:9725   */\n      dup4\n        /* \"#utility.yul\":9685:9731   */\n      tag_140\n      jump\t// in\n    tag_276:\n        /* \"#utility.yul\":9763:9767   */\n      0x20\n        /* \"#utility.yul\":9758:9761   */\n      dup4\n        /* \"#utility.yul\":9754:9768   */\n      add\n        /* \"#utility.yul\":9740:9768   */\n      swap1\n      pop\n        /* \"#utility.yul\":9595:9774   */\n      swap3\n      swap2\n      pop\n      pop\n      jump\t// out\n        /* \"#utility.yul\":9780:9893   */\n    tag_142:\n        /* \"#utility.yul\":9850:9854   */\n      0x00\n        /* \"#utility.yul\":9882:9886   */\n      0x20\n        /* \"#utility.yul\":9877:9880   */\n      dup3\n        /* \"#utility.yul\":9873:9887   */\n      add\n        /* \"#utility.yul\":9865:9887   */\n      swap1\n      pop\n        /* \"#utility.yul\":9780:9893   */\n      swap2\n      swap1\n      pop\n      jump\t// out\n        /* \"#utility.yul\":9929:10641   */\n    tag_143:\n        /* \"#utility.yul\":10038:10041   */\n      0x00\n        /* \"#utility.yul\":10067:10121   */\n      tag_279\n        /* \"#utility.yul\":10115:10120   */\n      dup3\n        /* \"#utility.yul\":10067:10121   */\n      tag_137\n      jump\t// in\n    tag_279:\n        /* \"#utility.yul\":10137:10213   */\n      tag_280\n        /* \"#utility.yul\":10206:10212   */\n      dup2\n        /* \"#utility.yul\":10201:10204   */\n      dup6\n        /* \"#utility.yul\":10137:10213   */\n      tag_138\n      jump\t// in\n    tag_280:\n        /* \"#utility.yul\":10130:10213   */\n      swap4\n      pop\n        /* \"#utility.yul\":10237:10293   */\n      tag_281\n        /* \"#utility.yul\":10287:10292   */\n      dup4\n        /* \"#utility.yul\":10237:10293   */\n      tag_139\n      jump\t// in\n    tag_281:\n        /* \"#utility.yul\":10316:10323   */\n      dup1\n        /* \"#utility.yul\":10347:10348   */\n      0x00\n        /* \"#utility.yul\":10332:10616   */\n    tag_282:\n        /* \"#utility.yul\":10357:10363   */\n      dup4\n        /* \"#utility.yul\":10354:10355   */\n      dup2\n        /* \"#utility.yul\":10351:10364   */\n      lt\n        /* \"#utility.yul\":10332:10616   */\n      iszero\n      tag_284\n      jumpi\n        /* \"#utility.yul\":10433:10439   */\n      dup2\n        /* \"#utility.yul\":10427:10440   */\n      mload\n        /* \"#utility.yul\":10460:10523   */\n      tag_285\n        /* \"#utility.yul\":10519:10522   */\n      dup9\n        /* \"#utility.yul\":10504:10517   */\n      dup3\n        /* \"#utility.yul\":10460:10523   */\n      tag_141\n      jump\t// in\n    tag_285:\n        /* \"#utility.yul\":10453:10523   */\n      swap8\n      pop\n        /* \"#utility.yul\":10546:10606   */\n      tag_286\n        /* \"#utility.yul\":10599:10605   */\n      dup4\n        /* \"#utility.yul\":10546:10606   */\n      tag_142\n      jump\t// in\n    tag_286:\n        /* \"#utility.yul\":10536:10606   */\n      swap3\n      pop\n        /* \"#utility.yul\":10392:10616   */\n      pop\n        /* \"#utility.yul\":10379:10380   */\n      0x01\n        /* \"#utility.yul\":10376:10377   */\n      dup2\n        /* \"#utility.yul\":10372:10381   */\n      add\n        /* \"#utility.yul\":10367:10381   */\n      swap1\n      pop\n        /* \"#utility.yul\":10332:10616   */\n      jump(tag_282)\n    tag_284:\n        /* \"#utility.yul\":10336:10350   */\n      pop\n        /* \"#utility.yul\":10632:10635   */\n      dup6\n        /* \"#utility.yul\":10625:10635   */\n      swap4\n      pop\n        /* \"#utility.yul\":10043:10641   */\n      pop\n      pop\n      pop\n        /* \"#utility.yul\":9929:10641   */\n      swap3\n      swap2\n      pop\n      pop\n      jump\t// out\n        /* \"#utility.yul\":10647:10746   */\n    tag_144:\n        /* \"#utility.yul\":10718:10739   */\n      tag_288\n        /* \"#utility.yul\":10733:10738   */\n      dup2\n        /* \"#utility.yul\":10718:10739   */\n      tag_121\n      jump\t// in\n    tag_288:\n        /* \"#utility.yul\":10713:10716   */\n      dup3\n        /* \"#utility.yul\":10706:10740   */\n      mstore\n        /* \"#utility.yul\":10647:10746   */\n      pop\n      pop\n      jump\t// out\n        /* \"#utility.yul\":10802:11996   */\n    tag_145:\n        /* \"#utility.yul\":10919:10922   */\n      0x00\n        /* \"#utility.yul\":10955:10959   */\n      0x80\n        /* \"#utility.yul\":10950:10953   */\n      dup4\n        /* \"#utility.yul\":10946:10960   */\n      add\n        /* \"#utility.yul\":11046:11050   */\n      0x00\n        /* \"#utility.yul\":11039:11044   */\n      dup4\n        /* \"#utility.yul\":11035:11051   */\n      add\n        /* \"#utility.yul\":11029:11052   */\n      mload\n        /* \"#utility.yul\":11099:11102   */\n      dup5\n        /* \"#utility.yul\":11093:11097   */\n      dup3\n        /* \"#utility.yul\":11089:11103   */\n      sub\n        /* \"#utility.yul\":11082:11086   */\n      0x00\n        /* \"#utility.yul\":11077:11080   */\n      dup7\n        /* \"#utility.yul\":11073:11087   */\n      add\n        /* \"#utility.yul\":11066:11104   */\n      mstore\n        /* \"#utility.yul\":11125:11198   */\n      tag_290\n        /* \"#utility.yul\":11193:11197   */\n      dup3\n        /* \"#utility.yul\":11179:11191   */\n      dup3\n        /* \"#utility.yul\":11125:11198   */\n      tag_130\n      jump\t// in\n    tag_290:\n        /* \"#utility.yul\":11117:11198   */\n      swap2\n      pop\n        /* \"#utility.yul\":10970:11209   */\n      pop\n        /* \"#utility.yul\":11294:11298   */\n      0x20\n        /* \"#utility.yul\":11287:11292   */\n      dup4\n        /* \"#utility.yul\":11283:11299   */\n      add\n        /* \"#utility.yul\":11277:11300   */\n      mload\n        /* \"#utility.yul\":11347:11350   */\n      dup5\n        /* \"#utility.yul\":11341:11345   */\n      dup3\n        /* \"#utility.yul\":11337:11351   */\n      sub\n        /* \"#utility.yul\":11330:11334   */\n      0x20\n        /* \"#utility.yul\":11325:11328   */\n      dup7\n        /* \"#utility.yul\":11321:11335   */\n      add\n        /* \"#utility.yul\":11314:11352   */\n      mstore\n        /* \"#utility.yul\":11373:11496   */\n      tag_291\n        /* \"#utility.yul\":11491:11495   */\n      dup3\n        /* \"#utility.yul\":11477:11489   */\n      dup3\n        /* \"#utility.yul\":11373:11496   */\n      tag_136\n      jump\t// in\n    tag_291:\n        /* \"#utility.yul\":11365:11496   */\n      swap2\n      pop\n        /* \"#utility.yul\":11219:11507   */\n      pop\n        /* \"#utility.yul\":11604:11608   */\n      0x40\n        /* \"#utility.yul\":11597:11602   */\n      dup4\n        /* \"#utility.yul\":11593:11609   */\n      add\n        /* \"#utility.yul\":11587:11610   */\n      mload\n        /* \"#utility.yul\":11657:11660   */\n      dup5\n        /* \"#utility.yul\":11651:11655   */\n      dup3\n        /* \"#utility.yul\":11647:11661   */\n      sub\n        /* \"#utility.yul\":11640:11644   */\n      0x40\n        /* \"#utility.yul\":11635:11638   */\n      dup7\n        /* \"#utility.yul\":11631:11645   */\n      add\n        /* \"#utility.yul\":11624:11662   */\n      mstore\n        /* \"#utility.yul\":11683:11786   */\n      tag_292\n        /* \"#utility.yul\":11781:11785   */\n      dup3\n        /* \"#utility.yul\":11767:11779   */\n      dup3\n        /* \"#utility.yul\":11683:11786   */\n      tag_143\n      jump\t// in\n    tag_292:\n        /* \"#utility.yul\":11675:11786   */\n      swap2\n      pop\n        /* \"#utility.yul\":11517:11797   */\n      pop\n        /* \"#utility.yul\":11883:11887   */\n      0x60\n        /* \"#utility.yul\":11876:11881   */\n      dup4\n        /* \"#utility.yul\":11872:11888   */\n      add\n        /* \"#utility.yul\":11866:11889   */\n      mload\n        /* \"#utility.yul\":11902:11959   */\n      tag_293\n        /* \"#utility.yul\":11953:11957   */\n      0x60\n        /* \"#utility.yul\":11948:11951   */\n      dup7\n        /* \"#utility.yul\":11944:11958   */\n      add\n        /* \"#utility.yul\":11930:11942   */\n      dup3\n        /* \"#utility.yul\":11902:11959   */\n      tag_144\n      jump\t// in\n    tag_293:\n        /* \"#utility.yul\":11807:11969   */\n      pop\n        /* \"#utility.yul\":11986:11990   */\n      dup1\n        /* \"#utility.yul\":11979:11990   */\n      swap2\n      pop\n        /* \"#utility.yul\":10924:11996   */\n      pop\n        /* \"#utility.yul\":10802:11996   */\n      swap3\n      swap2\n      pop\n      pop\n      jump\t// out\n        /* \"#utility.yul\":12002:12371   */\n    tag_15:\n        /* \"#utility.yul\":12143:12147   */\n      0x00\n        /* \"#utility.yul\":12181:12183   */\n      0x20\n        /* \"#utility.yul\":12170:12179   */\n      dup3\n        /* \"#utility.yul\":12166:12184   */\n      add\n        /* \"#utility.yul\":12158:12184   */\n      swap1\n      pop\n        /* \"#utility.yul\":12230:12239   */\n      dup2\n        /* \"#utility.yul\":12224:12228   */\n      dup2\n        /* \"#utility.yul\":12220:12240   */\n      sub\n        /* \"#utility.yul\":12216:12217   */\n      0x00\n        /* \"#utility.yul\":12205:12214   */\n      dup4\n        /* \"#utility.yul\":12201:12218   */\n      add\n        /* \"#utility.yul\":12194:12241   */\n      mstore\n        /* \"#utility.yul\":12258:12364   */\n      tag_295\n        /* \"#utility.yul\":12359:12363   */\n      dup2\n        /* \"#utility.yul\":12350:12356   */\n      dup5\n        /* \"#utility.yul\":12258:12364   */\n      tag_145\n      jump\t// in\n    tag_295:\n        /* \"#utility.yul\":12250:12364   */\n      swap1\n      pop\n        /* \"#utility.yul\":12002:12371   */\n      swap3\n      swap2\n      pop\n      pop\n      jump\t// out\n        /* \"#utility.yul\":12377:12851   */\n    tag_18:\n        /* \"#utility.yul\":12445:12451   */\n      0x00\n        /* \"#utility.yul\":12453:12459   */\n      dup1\n        /* \"#utility.yul\":12502:12504   */\n      0x40\n        /* \"#utility.yul\":12490:12499   */\n      dup4\n        /* \"#utility.yul\":12481:12488   */\n      dup6\n        /* \"#utility.yul\":12477:12500   */\n      sub\n        /* \"#utility.yul\":12473:12505   */\n      slt\n        /* \"#utility.yul\":12470:12589   */\n      iszero\n      tag_297\n      jumpi\n        /* \"#utility.yul\":12508:12587   */\n      tag_298\n      tag_106\n      jump\t// in\n    tag_298:\n        /* \"#utility.yul\":12470:12589   */\n    tag_297:\n        /* \"#utility.yul\":12628:12629   */\n      0x00\n        /* \"#utility.yul\":12653:12706   */\n      tag_299\n        /* \"#utility.yul\":12698:12705   */\n      dup6\n        /* \"#utility.yul\":12689:12695   */\n      dup3\n        /* \"#utility.yul\":12678:12687   */\n      dup7\n        /* \"#utility.yul\":12674:12696   */\n      add\n        /* \"#utility.yul\":12653:12706   */\n      tag_126\n      jump\t// in\n    tag_299:\n        /* \"#utility.yul\":12643:12706   */\n      swap3\n      pop\n        /* \"#utility.yul\":12599:12716   */\n      pop\n        /* \"#utility.yul\":12755:12757   */\n      0x20\n        /* \"#utility.yul\":12781:12834   */\n      tag_300\n        /* \"#utility.yul\":12826:12833   */\n      dup6\n        /* \"#utility.yul\":12817:12823   */\n      dup3\n        /* \"#utility.yul\":12806:12815   */\n      dup7\n        /* \"#utility.yul\":12802:12824   */\n      add\n        /* \"#utility.yul\":12781:12834   */\n      tag_126\n      jump\t// in\n    tag_300:\n        /* \"#utility.yul\":12771:12834   */\n      swap2\n      pop\n        /* \"#utility.yul\":12726:12844   */\n      pop\n        /* \"#utility.yul\":12377:12851   */\n      swap3\n      pop\n      swap3\n      swap1\n      pop\n      jump\t// out\n        /* \"#utility.yul\":12857:13026   */\n    tag_146:\n        /* \"#utility.yul\":12941:12952   */\n      0x00\n        /* \"#utility.yul\":12975:12981   */\n      dup3\n        /* \"#utility.yul\":12970:12973   */\n      dup3\n        /* \"#utility.yul\":12963:12982   */\n      mstore\n        /* \"#utility.yul\":13015:13019   */\n      0x20\n        /* \"#utility.yul\":13010:13013   */\n      dup3\n        /* \"#utility.yul\":13006:13020   */\n      add\n        /* \"#utility.yul\":12991:13020   */\n      swap1\n      pop\n        /* \"#utility.yul\":12857:13026   */\n      swap3\n      swap2\n      pop\n      pop\n      jump\t// out\n        /* \"#utility.yul\":13032:13213   */\n    tag_147:\n        /* \"#utility.yul\":13172:13205   */\n      0x4174206c656173742032206f7074696f6e732061726520726571756972656400\n        /* \"#utility.yul\":13168:13169   */\n      0x00\n        /* \"#utility.yul\":13160:13166   */\n      dup3\n        /* \"#utility.yul\":13156:13170   */\n      add\n        /* \"#utility.yul\":13149:13206   */\n      mstore\n        /* \"#utility.yul\":13032:13213   */\n      pop\n      jump\t// out\n        /* \"#utility.yul\":13219:13585   */\n    tag_148:\n        /* \"#utility.yul\":13361:13364   */\n      0x00\n        /* \"#utility.yul\":13382:13449   */\n      tag_304\n        /* \"#utility.yul\":13446:13448   */\n      0x1f\n        /* \"#utility.yul\":13441:13444   */\n      dup4\n        /* \"#utility.yul\":13382:13449   */\n      tag_146\n      jump\t// in\n    tag_304:\n        /* \"#utility.yul\":13375:13449   */\n      swap2\n      pop\n        /* \"#utility.yul\":13458:13551   */\n      tag_305\n        /* \"#utility.yul\":13547:13550   */\n      dup3\n        /* \"#utility.yul\":13458:13551   */\n      tag_147\n      jump\t// in\n    tag_305:\n        /* \"#utility.yul\":13576:13578   */\n      0x20\n        /* \"#utility.yul\":13571:13574   */\n      dup3\n        /* \"#utility.yul\":13567:13579   */\n      add\n        /* \"#utility.yul\":13560:13579   */\n      swap1\n      pop\n        /* \"#utility.yul\":13219:13585   */\n      swap2\n      swap1\n      pop\n      jump\t// out\n        /* \"#utility.yul\":13591:14010   */\n    tag_23:\n        /* \"#utility.yul\":13757:13761   */\n      0x00\n        /* \"#utility.yul\":13795:13797   */\n      0x20\n        /* \"#utility.yul\":13784:13793   */\n      dup3\n        /* \"#utility.yul\":13780:13798   */\n      add\n        /* \"#utility.yul\":13772:13798   */\n      swap1\n      pop\n        /* \"#utility.yul\":13844:13853   */\n      dup2\n        /* \"#utility.yul\":13838:13842   */\n      dup2\n        /* \"#utility.yul\":13834:13854   */\n      sub\n        /* \"#utility.yul\":13830:13831   */\n      0x00\n        /* \"#utility.yul\":13819:13828   */\n      dup4\n        /* \"#utility.yul\":13815:13832   */\n      add\n        /* \"#utility.yul\":13808:13855   */\n      mstore\n        /* \"#utility.yul\":13872:14003   */\n      tag_307\n        /* \"#utility.yul\":13998:14002   */\n      dup2\n        /* \"#utility.yul\":13872:14003   */\n      tag_148\n      jump\t// in\n    tag_307:\n        /* \"#utility.yul\":13864:14003   */\n      swap1\n      pop\n        /* \"#utility.yul\":13591:14010   */\n      swap2\n      swap1\n      pop\n      jump\t// out\n        /* \"#utility.yul\":14016:14196   */\n    tag_149:\n        /* \"#utility.yul\":14064:14141   */\n      0x4e487b7100000000000000000000000000000000000000000000000000000000\n        /* \"#utility.yul\":14061:14062   */\n      0x00\n        /* \"#utility.yul\":14054:14142   */\n      mstore\n        /* \"#utility.yul\":14161:14165   */\n      0x22\n        /* \"#utility.yul\":14158:14159   */\n      0x04\n        /* \"#utility.yul\":14151:14166   */\n      mstore\n        /* \"#utility.yul\":14185:14189   */\n      0x24\n        /* \"#utility.yul\":14182:14183   */\n      0x00\n        /* \"#utility.yul\":14175:14190   */\n      revert\n        /* \"#utility.yul\":14202:14522   */\n    tag_46:\n        /* \"#utility.yul\":14246:14252   */\n      0x00\n        /* \"#utility.yul\":14283:14284   */\n      0x02\n        /* \"#utility.yul\":14277:14281   */\n      dup3\n        /* \"#utility.yul\":14273:14285   */\n      div\n        /* \"#utility.yul\":14263:14285   */\n      swap1\n      pop\n        /* \"#utility.yul\":14330:14331   */\n      0x01\n        /* \"#utility.yul\":14324:14328   */\n      dup3\n        /* \"#utility.yul\":14320:14332   */\n      and\n        /* \"#utility.yul\":14351:14369   */\n      dup1\n        /* \"#utility.yul\":14341:14422   */\n      tag_310\n      jumpi\n        /* \"#utility.yul\":14407:14411   */\n      0x7f\n        /* \"#utility.yul\":14399:14405   */\n      dup3\n        /* \"#utility.yul\":14395:14412   */\n      and\n        /* \"#utility.yul\":14385:14412   */\n      swap2\n      pop\n        /* \"#utility.yul\":14341:14422   */\n    tag_310:\n        /* \"#utility.yul\":14469:14471   */\n      0x20\n        /* \"#utility.yul\":14461:14467   */\n      dup3\n        /* \"#utility.yul\":14458:14472   */\n      lt\n        /* \"#utility.yul\":14438:14456   */\n      dup2\n        /* \"#utility.yul\":14435:14473   */\n      sub\n        /* \"#utility.yul\":14432:14516   */\n      tag_311\n      jumpi\n        /* \"#utility.yul\":14488:14506   */\n      tag_312\n      tag_149\n      jump\t// in\n    tag_312:\n        /* \"#utility.yul\":14432:14516   */\n    tag_311:\n        /* \"#utility.yul\":14253:14522   */\n      pop\n        /* \"#utility.yul\":14202:14522   */\n      swap2\n      swap1\n      pop\n      jump\t// out\n        /* \"#utility.yul\":14528:14669   */\n    tag_150:\n        /* \"#utility.yul\":14577:14581   */\n      0x00\n        /* \"#utility.yul\":14600:14603   */\n      dup2\n        /* \"#utility.yul\":14592:14603   */\n      swap1\n      pop\n        /* \"#utility.yul\":14623:14626   */\n      dup2\n        /* \"#utility.yul\":14620:14621   */\n      0x00\n        /* \"#utility.yul\":14613:14627   */\n      mstore\n        /* \"#utility.yul\":14657:14661   */\n      0x20\n        /* \"#utility.yul\":14654:14655   */\n      0x00\n        /* \"#utility.yul\":14644:14662   */\n      keccak256\n        /* \"#utility.yul\":14636:14662   */\n      swap1\n      pop\n        /* \"#utility.yul\":14528:14669   */\n      swap2\n      swap1\n      pop\n      jump\t// out\n        /* \"#utility.yul\":14675:14768   */\n    tag_151:\n        /* \"#utility.yul\":14712:14718   */\n      0x00\n        /* \"#utility.yul\":14759:14761   */\n      0x20\n        /* \"#utility.yul\":14754:14756   */\n      0x1f\n        /* \"#utility.yul\":14747:14752   */\n      dup4\n        /* \"#utility.yul\":14743:14757   */\n      add\n        /* \"#utility.yul\":14739:14762   */\n      div\n        /* \"#utility.yul\":14729:14762   */\n      swap1\n      pop\n        /* \"#utility.yul\":14675:14768   */\n      swap2\n      swap1\n      pop\n      jump\t// out\n        /* \"#utility.yul\":14774:14881   */\n    tag_152:\n        /* \"#utility.yul\":14818:14826   */\n      0x00\n        /* \"#utility.yul\":14868:14873   */\n      dup3\n        /* \"#utility.yul\":14862:14866   */\n      dup3\n        /* \"#utility.yul\":14858:14874   */\n      shl\n        /* \"#utility.yul\":14837:14874   */\n      swap1\n      pop\n        /* \"#utility.yul\":14774:14881   */\n      swap3\n      swap2\n      pop\n      pop\n      jump\t// out\n        /* \"#utility.yul\":14887:15280   */\n    tag_153:\n        /* \"#utility.yul\":14956:14962   */\n      0x00\n        /* \"#utility.yul\":15006:15007   */\n      0x08\n        /* \"#utility.yul\":14994:15004   */\n      dup4\n        /* \"#utility.yul\":14990:15008   */\n      mul\n        /* \"#utility.yul\":15029:15126   */\n      tag_317\n        /* \"#utility.yul\":15059:15125   */\n      0xffffffffffffffffffffffffffffffffffffffffffffffffffffffffffffffff\n        /* \"#utility.yul\":15048:15057   */\n      dup3\n        /* \"#utility.yul\":15029:15126   */\n      tag_152\n      jump\t// in\n    tag_317:\n        /* \"#utility.yul\":15147:15186   */\n      tag_318\n        /* \"#utility.yul\":15177:15185   */\n      dup7\n        /* \"#utility.yul\":15166:15175   */\n      dup4\n        /* \"#utility.yul\":15147:15186   */\n      tag_152\n      jump\t// in\n    tag_318:\n        /* \"#utility.yul\":15135:15186   */\n      swap6\n      pop\n        /* \"#utility.yul\":15219:15223   */\n      dup1\n        /* \"#utility.yul\":15215:15224   */\n      not\n        /* \"#utility.yul\":15208:15213   */\n      dup5\n        /* \"#utility.yul\":15204:15225   */\n      and\n        /* \"#utility.yul\":15195:15225   */\n      swap4\n      pop\n        /* \"#utility.yul\":15268:15272   */\n      dup1\n        /* \"#utility.yul\":15258:15266   */\n      dup7\n        /* \"#utility.yul\":15254:15273   */\n      and\n        /* \"#utility.yul\":15247:15252   */\n      dup5\n        /* \"#utility.yul\":15244:15274   */\n      or\n        /* \"#utility.yul\":15234:15274   */\n      swap3\n      pop\n        /* \"#utility.yul\":14963:15280   */\n      pop\n      pop\n        /* \"#utility.yul\":14887:15280   */\n      swap4\n      swap3\n      pop\n      pop\n      pop\n      jump\t// out\n        /* \"#utility.yul\":15286:15346   */\n    tag_154:\n        /* \"#utility.yul\":15314:15317   */\n      0x00\n        /* \"#utility.yul\":15335:15340   */\n      dup2\n        /* \"#utility.yul\":15328:15340   */\n      swap1\n      pop\n        /* \"#utility.yul\":15286:15346   */\n      swap2\n      swap1\n      pop\n      jump\t// out\n        /* \"#utility.yul\":15352:15494   */\n    tag_155:\n        /* \"#utility.yul\":15402:15411   */\n      0x00\n        /* \"#utility.yul\":15435:15488   */\n      tag_321\n        /* \"#utility.yul\":15453:15487   */\n      tag_322\n        /* \"#utility.yul\":15462:15486   */\n      tag_323\n        /* \"#utility.yul\":15480:15485   */\n      dup5\n        /* \"#utility.yul\":15462:15486   */\n      tag_124\n      jump\t// in\n    tag_323:\n        /* \"#utility.yul\":15453:15487   */\n      tag_154\n      jump\t// in\n    tag_322:\n        /* \"#utility.yul\":15435:15488   */\n      tag_124\n      jump\t// in\n    tag_321:\n        /* \"#utility.yul\":15422:15488   */\n      swap1\n      pop\n        /* \"#utility.yul\":15352:15494   */\n      swap2\n      swap1\n      pop\n      jump\t// out\n        /* \"#utility.yul\":15500:15575   */\n    tag_156:\n        /* \"#utility.yul\":15543:15546   */\n      0x00\n        /* \"#utility.yul\":15564:15569   */\n      dup2\n        /* \"#utility.yul\":15557:15569   */\n      swap1\n      pop\n        /* \"#utility.yul\":15500:15575   */\n      swap2\n      swap1\n      pop\n      jump\t// out\n        /* \"#utility.yul\":15581:15850   */\n    tag_157:\n        /* \"#utility.yul\":15691:15730   */\n      tag_326\n        /* \"#utility.yul\":15722:15729   */\n      dup4\n        /* \"#utility.yul\":15691:15730   */\n      tag_155\n      jump\t// in\n    tag_326:\n        /* \"#utility.yul\":15752:15843   */\n      tag_327\n        /* \"#utility.yul\":15801:15842   */\n      tag_328\n        /* \"#utility.yul\":15825:15841   */\n      dup3\n        /* \"#utility.yul\":15801:15842   */\n      tag_156\n      jump\t// in\n    tag_328:\n        /* \"#utility.yul\":15793:15799   */\n      dup5\n        /* \"#utility.yul\":15786:15790   */\n      dup5\n        /* \"#utility.yul\":15780:15791   */\n      sload\n        /* \"#utility.yul\":15752:15843   */\n      tag_153\n      jump\t// in\n    tag_327:\n        /* \"#utility.yul\":15746:15750   */\n      dup3\n        /* \"#utility.yul\":15739:15844   */\n      sstore\n        /* \"#utility.yul\":15657:15850   */\n      pop\n        /* \"#utility.yul\":15581:15850   */\n      pop\n      pop\n      pop\n      jump\t// out\n        /* \"#utility.yul\":15856:15929   */\n    tag_158:\n        /* \"#utility.yul\":15901:15904   */\n      0x00\n        /* \"#utility.yul\":15856:15929   */\n      swap1\n      jump\t// out\n        /* \"#utility.yul\":15935:16124   */\n    tag_159:\n        /* \"#utility.yul\":16012:16044   */\n      tag_331\n      tag_158\n      jump\t// in\n    tag_331:\n        /* \"#utility.yul\":16053:16118   */\n      tag_332\n        /* \"#utility.yul\":16111:16117   */\n      dup2\n        /* \"#utility.yul\":16103:16109   */\n      dup5\n        /* \"#utility.yul\":16097:16101   */\n      dup5\n        /* \"#utility.yul\":16053:16118   */\n      tag_157\n      jump\t// in\n    tag_332:\n        /* \"#utility.yul\":15988:16124   */\n      pop\n        /* \"#utility.yul\":15935:16124   */\n      pop\n      pop\n      jump\t// out\n        /* \"#utility.yul\":16130:16316   */\n    tag_160:\n        /* \"#utility.yul\":16190:16310   */\n    tag_334:\n        /* \"#utility.yul\":16207:16210   */\n      dup2\n        /* \"#utility.yul\":16200:16205   */\n      dup2\n        /* \"#utility.yul\":16197:16211   */\n      lt\n        /* \"#utility.yul\":16190:16310   */\n      iszero\n      tag_336\n      jumpi\n        /* \"#utility.yul\":16261:16300   */\n      tag_337\n        /* \"#utility.yul\":16298:16299   */\n      0x00\n        /* \"#utility.yul\":16291:16296   */\n      dup3\n        /* \"#utility.yul\":16261:16300   */\n      tag_159\n      jump\t// in\n    tag_337:\n        /* \"#utility.yul\":16234:16235   */\n      0x01\n        /* \"#utility.yul\":16227:16232   */\n      dup2\n        /* \"#utility.yul\":16223:16236   */\n      add\n        /* \"#utility.yul\":16214:16236   */\n      swap1\n      pop\n        /* \"#utility.yul\":16190:16310   */\n      jump(tag_334)\n    tag_336:\n        /* \"#utility.yul\":16130:16316   */\n      pop\n      pop\n      jump\t// out\n        /* \"#utility.yul\":16322:16865   */\n    tag_161:\n        /* \"#utility.yul\":16423:16425   */\n      0x1f\n        /* \"#utility.yul\":16418:16421   */\n      dup3\n        /* \"#utility.yul\":16415:16426   */\n      gt\n        /* \"#utility.yul\":16412:16858   */\n      iszero\n      tag_339\n      jumpi\n        /* \"#utility.yul\":16457:16495   */\n      tag_340\n        /* \"#utility.yul\":16489:16494   */\n      dup2\n        /* \"#utility.yul\":16457:16495   */\n      tag_150\n      jump\t// in\n    tag_340:\n        /* \"#utility.yul\":16541:16570   */\n      tag_341\n        /* \"#utility.yul\":16559:16569   */\n      dup5\n        /* \"#utility.yul\":16541:16570   */\n      tag_151\n      jump\t// in\n    tag_341:\n        /* \"#utility.yul\":16531:16539   */\n      dup2\n        /* \"#utility.yul\":16527:16571   */\n      add\n        /* \"#utility.yul\":16724:16726   */\n      0x20\n        /* \"#utility.yul\":16712:16722   */\n      dup6\n        /* \"#utility.yul\":16709:16727   */\n      lt\n        /* \"#utility.yul\":16706:16755   */\n      iszero\n      tag_342\n      jumpi\n        /* \"#utility.yul\":16745:16753   */\n      dup2\n        /* \"#utility.yul\":16730:16753   */\n      swap1\n      pop\n        /* \"#utility.yul\":16706:16755   */\n    tag_342:\n        /* \"#utility.yul\":16768:16848   */\n      tag_343\n        /* \"#utility.yul\":16824:16846   */\n      tag_344\n        /* \"#utility.yul\":16842:16845   */\n      dup6\n        /* \"#utility.yul\":16824:16846   */\n      tag_151\n      jump\t// in\n    tag_344:\n        /* \"#utility.yul\":16814:16822   */\n      dup4\n        /* \"#utility.yul\":16810:16847   */\n      add\n        /* \"#utility.yul\":16797:16808   */\n      dup3\n        /* \"#utility.yul\":16768:16848   */\n      tag_160\n      jump\t// in\n    tag_343:\n        /* \"#utility.yul\":16427:16858   */\n      pop\n      pop\n        /* \"#utility.yul\":16412:16858   */\n    tag_339:\n        /* \"#utility.yul\":16322:16865   */\n      pop\n      pop\n      pop\n      jump\t// out\n        /* \"#utility.yul\":16871:16988   */\n    tag_162:\n        /* \"#utility.yul\":16925:16933   */\n      0x00\n        /* \"#utility.yul\":16975:16980   */\n      dup3\n        /* \"#utility.yul\":16969:16973   */\n      dup3\n        /* \"#utility.yul\":16965:16981   */\n      shr\n        /* \"#utility.yul\":16944:16981   */\n      swap1\n      pop\n        /* \"#utility.yul\":16871:16988   */\n      swap3\n      swap2\n      pop\n      pop\n      jump\t// out\n        /* \"#utility.yul\":16994:17163   */\n    tag_163:\n        /* \"#utility.yul\":17038:17044   */\n      0x00\n        /* \"#utility.yul\":17071:17122   */\n      tag_347\n        /* \"#utility.yul\":17119:17120   */\n      0x00\n        /* \"#utility.yul\":17115:17121   */\n      not\n        /* \"#utility.yul\":17107:17112   */\n      dup5\n        /* \"#utility.yul\":17104:17105   */\n      0x08\n        /* \"#utility.yul\":17100:17113   */\n      mul\n        /* \"#utility.yul\":17071:17122   */\n      tag_162\n      jump\t// in\n    tag_347:\n        /* \"#utility.yul\":17067:17123   */\n      not\n        /* \"#utility.yul\":17152:17156   */\n      dup1\n        /* \"#utility.yul\":17146:17150   */\n      dup4\n        /* \"#utility.yul\":17142:17157   */\n      and\n        /* \"#utility.yul\":17132:17157   */\n      swap2\n      pop\n        /* \"#utility.yul\":17045:17163   */\n      pop\n        /* \"#utility.yul\":16994:17163   */\n      swap3\n      swap2\n      pop\n      pop\n      jump\t// out\n        /* \"#utility.yul\":17168:17463   */\n    tag_164:\n        /* \"#utility.yul\":17244:17248   */\n      0x00\n        /* \"#utility.yul\":17390:17419   */\n      tag_349\n        /* \"#utility.yul\":17415:17418   */\n      dup4\n        /* \"#utility.yul\":17409:17413   */\n      dup4\n        /* \"#utility.yul\":17390:17419   */\n      tag_163\n      jump\t// in\n    tag_349:\n        /* \"#utility.yul\":17382:17419   */\n      swap2\n      pop\n        /* \"#utility.yul\":17452:17455   */\n      dup3\n        /* \"#utility.yul\":17449:17450   */\n      0x02\n        /* \"#utility.yul\":17445:17456   */\n      mul\n        /* \"#utility.yul\":17439:17443   */\n      dup3\n        /* \"#utility.yul\":17436:17457   */\n      or\n        /* \"#utility.yul\":17428:17457   */\n      swap1\n      pop\n        /* \"#utility.yul\":17168:17463   */\n      swap3\n      swap2\n      pop\n      pop\n      jump\t// out\n        /* \"#utility.yul\":17468:18863   */\n    tag_30:\n        /* \"#utility.yul\":17585:17622   */\n      tag_351\n        /* \"#utility.yul\":17618:17621   */\n      dup3\n        /* \"#utility.yul\":17585:17622   */\n      tag_127\n      jump\t// in\n    tag_351:\n        /* \"#utility.yul\":17687:17705   */\n      0xffffffffffffffff\n        /* \"#utility.yul\":17679:17685   */\n      dup2\n        /* \"#utility.yul\":17676:17706   */\n      gt\n        /* \"#utility.yul\":17673:17729   */\n      iszero\n      tag_352\n      jumpi\n        /* \"#utility.yul\":17709:17727   */\n      tag_353\n      tag_26\n      jump\t// in\n    tag_353:\n        /* \"#utility.yul\":17673:17729   */\n    tag_352:\n        /* \"#utility.yul\":17753:17791   */\n      tag_354\n        /* \"#utility.yul\":17785:17789   */\n      dup3\n        /* \"#utility.yul\":17779:17790   */\n      sload\n        /* \"#utility.yul\":17753:17791   */\n      tag_46\n      jump\t// in\n    tag_354:\n        /* \"#utility.yul\":17838:17905   */\n      tag_355\n        /* \"#utility.yul\":17898:17904   */\n      dup3\n        /* \"#utility.yul\":17890:17896   */\n      dup3\n        /* \"#utility.yul\":17884:17888   */\n      dup6\n        /* \"#utility.yul\":17838:17905   */\n      tag_161\n      jump\t// in\n    tag_355:\n        /* \"#utility.yul\":17932:17933   */\n      0x00\n        /* \"#utility.yul\":17956:17960   */\n      0x20\n        /* \"#utility.yul\":17943:17960   */\n      swap1\n      pop\n        /* \"#utility.yul\":17988:17990   */\n      0x1f\n        /* \"#utility.yul\":17980:17986   */\n      dup4\n        /* \"#utility.yul\":17977:17991   */\n      gt\n        /* \"#utility.yul\":18005:18006   */\n      0x01\n        /* \"#utility.yul\":18000:18618   */\n      dup2\n      eq\n      tag_357\n      jumpi\n        /* \"#utility.yul\":18662:18663   */\n      0x00\n        /* \"#utility.yul\":18679:18685   */\n      dup5\n        /* \"#utility.yul\":18676:18753   */\n      iszero\n      tag_358\n      jumpi\n        /* \"#utility.yul\":18728:18737   */\n      dup3\n        /* \"#utility.yul\":18723:18726   */\n      dup8\n        /* \"#utility.yul\":18719:18738   */\n      add\n        /* \"#utility.yul\":18713:18739   */\n      mload\n        /* \"#utility.yul\":18704:18739   */\n      swap1\n      pop\n        /* \"#utility.yul\":18676:18753   */\n    tag_358:\n        /* \"#utility.yul\":18779:18846   */\n      tag_359\n        /* \"#utility.yul\":18839:18845   */\n      dup6\n        /* \"#utility.yul\":18832:18837   */\n      dup3\n        /* \"#utility.yul\":18779:18846   */\n      tag_164\n      jump\t// in\n    tag_359:\n        /* \"#utility.yul\":18773:18777   */\n      dup7\n        /* \"#utility.yul\":18766:18847   */\n      sstore\n        /* \"#utility.yul\":18635:18857   */\n      pop\n        /* \"#utility.yul\":17970:18857   */\n      jump(tag_356)\n        /* \"#utility.yul\":18000:18618   */\n    tag_357:\n        /* \"#utility.yul\":18052:18056   */\n      0x1f\n        /* \"#utility.yul\":18048:18057   */\n      not\n        /* \"#utility.yul\":18040:18046   */\n      dup5\n        /* \"#utility.yul\":18036:18058   */\n      and\n        /* \"#utility.yul\":18086:18123   */\n      tag_360\n        /* \"#utility.yul\":18118:18122   */\n      dup7\n        /* \"#utility.yul\":18086:18123   */\n      tag_150\n      jump\t// in\n    tag_360:\n        /* \"#utility.yul\":18145:18146   */\n      0x00\n        /* \"#utility.yul\":18159:18367   */\n    tag_361:\n        /* \"#utility.yul\":18173:18180   */\n      dup3\n        /* \"#utility.yul\":18170:18171   */\n      dup2\n        /* \"#utility.yul\":18167:18181   */\n      lt\n        /* \"#utility.yul\":18159:18367   */\n      iszero\n      tag_363\n      jumpi\n        /* \"#utility.yul\":18252:18261   */\n      dup5\n        /* \"#utility.yul\":18247:18250   */\n      dup10\n        /* \"#utility.yul\":18243:18262   */\n      add\n        /* \"#utility.yul\":18237:18263   */\n      mload\n        /* \"#utility.yul\":18229:18235   */\n      dup3\n        /* \"#utility.yul\":18222:18264   */\n      sstore\n        /* \"#utility.yul\":18303:18304   */\n      0x01\n        /* \"#utility.yul\":18295:18301   */\n      dup3\n        /* \"#utility.yul\":18291:18305   */\n      add\n        /* \"#utility.yul\":18281:18305   */\n      swap2\n      pop\n        /* \"#utility.yul\":18350:18352   */\n      0x20\n        /* \"#utility.yul\":18339:18348   */\n      dup6\n        /* \"#utility.yul\":18335:18353   */\n      add\n        /* \"#utility.yul\":18322:18353   */\n      swap5\n      pop\n        /* \"#utility.yul\":18196:18200   */\n      0x20\n        /* \"#utility.yul\":18193:18194   */\n      dup2\n        /* \"#utility.yul\":18189:18201   */\n      add\n        /* \"#utility.yul\":18184:18201   */\n      swap1\n      pop\n        /* \"#utility.yul\":18159:18367   */\n      jump(tag_361)\n    tag_363:\n        /* \"#utility.yul\":18395:18401   */\n      dup7\n        /* \"#utility.yul\":18386:18393   */\n      dup4\n        /* \"#utility.yul\":18383:18402   */\n      lt\n        /* \"#utility.yul\":18380:18559   */\n      iszero\n      tag_364\n      jumpi\n        /* \"#utility.yul\":18453:18462   */\n      dup5\n        /* \"#utility.yul\":18448:18451   */\n      dup10\n        /* \"#utility.yul\":18444:18463   */\n      add\n        /* \"#utility.yul\":18438:18464   */\n      mload\n        /* \"#utility.yul\":18496:18544   */\n      tag_365\n        /* \"#utility.yul\":18538:18542   */\n      0x1f\n        /* \"#utility.yul\":18530:18536   */\n      dup10\n        /* \"#utility.yul\":18526:18543   */\n      and\n        /* \"#utility.yul\":18515:18524   */\n      dup3\n        /* \"#utility.yul\":18496:18544   */\n      tag_163\n      jump\t// in\n    tag_365:\n        /* \"#utility.yul\":18488:18494   */\n      dup4\n        /* \"#utility.yul\":18481:18545   */\n      sstore\n        /* \"#utility.yul\":18403:18559   */\n      pop\n        /* \"#utility.yul\":18380:18559   */\n    tag_364:\n        /* \"#utility.yul\":18605:18606   */\n      0x01\n        /* \"#utility.yul\":18601:18602   */\n      0x02\n        /* \"#utility.yul\":18593:18599   */\n      dup9\n        /* \"#utility.yul\":18589:18603   */\n      mul\n        /* \"#utility.yul\":18585:18607   */\n      add\n        /* \"#utility.yul\":18579:18583   */\n      dup9\n        /* \"#utility.yul\":18572:18608   */\n      sstore\n        /* \"#utility.yul\":18007:18618   */\n      pop\n      pop\n      pop\n        /* \"#utility.yul\":17970:18857   */\n    tag_356:\n      pop\n        /* \"#utility.yul\":17560:18863   */\n      pop\n      pop\n      pop\n        /* \"#utility.yul\":17468:18863   */\n      pop\n      pop\n      jump\t// out\n        /* \"#utility.yul\":18869:19040   */\n    tag_165:\n        /* \"#utility.yul\":19009:19032   */\n      0x53757276657920646f6573206e6f742065786973740000000000000000000000\n        /* \"#utility.yul\":19005:19006   */\n      0x00\n        /* \"#utility.yul\":18997:19003   */\n      dup3\n        /* \"#utility.yul\":18993:19007   */\n      add\n        /* \"#utility.yul\":18986:19033   */\n      mstore\n        /* \"#utility.yul\":18869:19040   */\n      pop\n      jump\t// out\n        /* \"#utility.yul\":19046:19412   */\n    tag_166:\n        /* \"#utility.yul\":19188:19191   */\n      0x00\n        /* \"#utility.yul\":19209:19276   */\n      tag_368\n        /* \"#utility.yul\":19273:19275   */\n      0x15\n        /* \"#utility.yul\":19268:19271   */\n      dup4\n        /* \"#utility.yul\":19209:19276   */\n      tag_146\n      jump\t// in\n    tag_368:\n        /* \"#utility.yul\":19202:19276   */\n      swap2\n      pop\n        /* \"#utility.yul\":19285:19378   */\n      tag_369\n        /* \"#utility.yul\":19374:19377   */\n      dup3\n        /* \"#utility.yul\":19285:19378   */\n      tag_165\n      jump\t// in\n    tag_369:\n        /* \"#utility.yul\":19403:19405   */\n      0x20\n        /* \"#utility.yul\":19398:19401   */\n      dup3\n        /* \"#utility.yul\":19394:19406   */\n      add\n        /* \"#utility.yul\":19387:19406   */\n      swap1\n      pop\n        /* \"#utility.yul\":19046:19412   */\n      swap2\n      swap1\n      pop\n      jump\t// out\n        /* \"#utility.yul\":19418:19837   */\n    tag_40:\n        /* \"#utility.yul\":19584:19588   */\n      0x00\n        /* \"#utility.yul\":19622:19624   */\n      0x20\n        /* \"#utility.yul\":19611:19620   */\n      dup3\n        /* \"#utility.yul\":19607:19625   */\n      add\n        /* \"#utility.yul\":19599:19625   */\n      swap1\n      pop\n        /* \"#utility.yul\":19671:19680   */\n      dup2\n        /* \"#utility.yul\":19665:19669   */\n      dup2\n        /* \"#utility.yul\":19661:19681   */\n      sub\n        /* \"#utility.yul\":19657:19658   */\n      0x00\n        /* \"#utility.yul\":19646:19655   */\n      dup4\n        /* \"#utility.yul\":19642:19659   */\n      add\n        /* \"#utility.yul\":19635:19682   */\n      mstore\n        /* \"#utility.yul\":19699:19830   */\n      tag_371\n        /* \"#utility.yul\":19825:19829   */\n      dup2\n        /* \"#utility.yul\":19699:19830   */\n      tag_166\n      jump\t// in\n    tag_371:\n        /* \"#utility.yul\":19691:19830   */\n      swap1\n      pop\n        /* \"#utility.yul\":19418:19837   */\n      swap2\n      swap1\n      pop\n      jump\t// out\n        /* \"#utility.yul\":19843:20023   */\n    tag_43:\n        /* \"#utility.yul\":19891:19968   */\n      0x4e487b7100000000000000000000000000000000000000000000000000000000\n        /* \"#utility.yul\":19888:19889   */\n      0x00\n        /* \"#utility.yul\":19881:19969   */\n      mstore\n        /* \"#utility.yul\":19988:19992   */\n      0x32\n        /* \"#utility.yul\":19985:19986   */\n      0x04\n        /* \"#utility.yul\":19978:19993   */\n      mstore\n        /* \"#utility.yul\":20012:20016   */\n      0x24\n        /* \"#utility.yul\":20009:20010   */\n      0x00\n        /* \"#utility.yul\":20002:20017   */\n      revert\n        /* \"#utility.yul\":20029:20199   */\n    tag_167:\n        /* \"#utility.yul\":20169:20191   */\n      0x537572766579206973206e6f7420616374697665000000000000000000000000\n        /* \"#utility.yul\":20165:20166   */\n      0x00\n        /* \"#utility.yul\":20157:20163   */\n      dup3\n        /* \"#utility.yul\":20153:20167   */\n      add\n        /* \"#utility.yul\":20146:20192   */\n      mstore\n        /* \"#utility.yul\":20029:20199   */\n      pop\n      jump\t// out\n        /* \"#utility.yul\":20205:20571   */\n    tag_168:\n        /* \"#utility.yul\":20347:20350   */\n      0x00\n        /* \"#utility.yul\":20368:20435   */\n      tag_375\n        /* \"#utility.yul\":20432:20434   */\n      0x14\n        /* \"#utility.yul\":20427:20430   */\n      dup4\n        /* \"#utility.yul\":20368:20435   */\n      tag_146\n      jump\t// in\n    tag_375:\n        /* \"#utility.yul\":20361:20435   */\n      swap2\n      pop\n        /* \"#utility.yul\":20444:20537   */\n      tag_376\n        /* \"#utility.yul\":20533:20536   */\n      dup3\n        /* \"#utility.yul\":20444:20537   */\n      tag_167\n      jump\t// in\n    tag_376:\n        /* \"#utility.yul\":20562:20564   */\n      0x20\n        /* \"#utility.yul\":20557:20560   */\n      dup3\n        /* \"#utility.yul\":20553:20565   */\n      add\n        /* \"#utility.yul\":20546:20565   */\n      swap1\n      pop\n        /* \"#utility.yul\":20205:20571   */\n      swap2\n      swap1\n      pop\n      jump\t// out\n        /* \"#utility.yul\":20577:20996   */\n    tag_69:\n        /* \"#utility.yul\":20743:20747   */\n      0x00\n        /* \"#utility.yul\":20781:20783   */\n      0x20\n        /* \"#utility.yul\":20770:20779   */\n      dup3\n        /* \"#utility.yul\":20766:20784   */\n      add\n        /* \"#utility.yul\":20758:20784   */\n      swap1\n      pop\n        /* \"#utility.yul\":20830:20839   */\n      dup2\n        /* \"#utility.yul\":20824:20828   */\n      dup2\n        /* \"#utility.yul\":20820:20840   */\n      sub\n        /* \"#utility.yul\":20816:20817   */\n      0x00\n        /* \"#utility.yul\":20805:20814   */\n      dup4\n        /* \"#utility.yul\":20801:20818   */\n      add\n        /* \"#utility.yul\":20794:20841   */\n      mstore\n        /* \"#utility.yul\":20858:20989   */\n      tag_378\n        /* \"#utility.yul\":20984:20988   */\n      dup2\n        /* \"#utility.yul\":20858:20989   */\n      tag_168\n      jump\t// in\n    tag_378:\n        /* \"#utility.yul\":20850:20989   */\n      swap1\n      pop\n        /* \"#utility.yul\":20577:20996   */\n      swap2\n      swap1\n      pop\n      jump\t// out\n        /* \"#utility.yul\":21002:21172   */\n    tag_169:\n        /* \"#utility.yul\":21142:21164   */\n      0x496e76616c6964206f7074696f6e20696e646578000000000000000000000000\n        /* \"#utility.yul\":21138:21139   */\n      0x00\n        /* \"#utility.yul\":21130:21136   */\n      dup3\n        /* \"#utility.yul\":21126:21140   */\n      add\n        /* \"#utility.yul\":21119:21165   */\n      mstore\n        /* \"#utility.yul\":21002:21172   */\n      pop\n      jump\t// out\n        /* \"#utility.yul\":21178:21544   */\n    tag_170:\n        /* \"#utility.yul\":21320:21323   */\n      0x00\n        /* \"#utility.yul\":21341:21408   */\n      tag_381\n        /* \"#utility.yul\":21405:21407   */\n      0x14\n        /* \"#utility.yul\":21400:21403   */\n      dup4\n        /* \"#utility.yul\":21341:21408   */\n      tag_146\n      jump\t// in\n    tag_381:\n        /* \"#utility.yul\":21334:21408   */\n      swap2\n      pop\n        /* \"#utility.yul\":21417:21510   */\n      tag_382\n        /* \"#utility.yul\":21506:21509   */\n      dup3\n        /* \"#utility.yul\":21417:21510   */\n      tag_169\n      jump\t// in\n    tag_382:\n        /* \"#utility.yul\":21535:21537   */\n      0x20\n        /* \"#utility.yul\":21530:21533   */\n      dup3\n        /* \"#utility.yul\":21526:21538   */\n      add\n        /* \"#utility.yul\":21519:21538   */\n      swap1\n      pop\n        /* \"#utility.yul\":21178:21544   */\n      swap2\n      swap1\n      pop\n      jump\t// out\n        /* \"#utility.yul\":21550:21969   */\n    tag_75:\n        /* \"#utility.yul\":21716:21720   */\n      0x00\n        /* \"#utility.yul\":21754:21756   */\n      0x20\n        /* \"#utility.yul\":21743:21752   */\n      dup3\n        /* \"#utility.yul\":21739:21757   */\n      add\n        /* \"#utility.yul\":21731:21757   */\n      swap1\n      pop\n        /* \"#utility.yul\":21803:21812   */\n      dup2\n        /* \"#utility.yul\":21797:21801   */\n      dup2\n        /* \"#utility.yul\":21793:21813   */\n      sub\n        /* \"#utility.yul\":21789:21790   */\n      0x00\n        /* \"#utility.yul\":21778:21787   */\n      dup4\n        /* \"#utility.yul\":21774:21791   */\n      add\n        /* \"#utility.yul\":21767:21814   */\n      mstore\n        /* \"#utility.yul\":21831:21962   */\n      tag_384\n        /* \"#utility.yul\":21957:21961   */\n      dup2\n        /* \"#utility.yul\":21831:21962   */\n      tag_170\n      jump\t// in\n    tag_384:\n        /* \"#utility.yul\":21823:21962   */\n      swap1\n      pop\n        /* \"#utility.yul\":21550:21969   */\n      swap2\n      swap1\n      pop\n      jump\t// out\n        /* \"#utility.yul\":21975:22155   */\n    tag_171:\n        /* \"#utility.yul\":22023:22100   */\n      0x4e487b7100000000000000000000000000000000000000000000000000000000\n        /* \"#utility.yul\":22020:22021   */\n      0x00\n        /* \"#utility.yul\":22013:22101   */\n      mstore\n        /* \"#utility.yul\":22120:22124   */\n      0x11\n        /* \"#utility.yul\":22117:22118   */\n      0x04\n        /* \"#utility.yul\":22110:22125   */\n      mstore\n        /* \"#utility.yul\":22144:22148   */\n      0x24\n        /* \"#utility.yul\":22141:22142   */\n      0x00\n        /* \"#utility.yul\":22134:22149   */\n      revert\n        /* \"#utility.yul\":22161:22394   */\n    tag_83:\n        /* \"#utility.yul\":22200:22203   */\n      0x00\n        /* \"#utility.yul\":22223:22247   */\n      tag_387\n        /* \"#utility.yul\":22241:22246   */\n      dup3\n        /* \"#utility.yul\":22223:22247   */\n      tag_124\n      jump\t// in\n    tag_387:\n        /* \"#utility.yul\":22214:22247   */\n      swap2\n      pop\n        /* \"#utility.yul\":22269:22335   */\n      0xffffffffffffffffffffffffffffffffffffffffffffffffffffffffffffffff\n        /* \"#utility.yul\":22262:22267   */\n      dup3\n        /* \"#utility.yul\":22259:22336   */\n      sub\n        /* \"#utility.yul\":22256:22359   */\n      tag_388\n      jumpi\n        /* \"#utility.yul\":22339:22357   */\n      tag_389\n      tag_171\n      jump\t// in\n    tag_389:\n        /* \"#utility.yul\":22256:22359   */\n    tag_388:\n        /* \"#utility.yul\":22386:22387   */\n      0x01\n        /* \"#utility.yul\":22379:22384   */\n      dup3\n        /* \"#utility.yul\":22375:22388   */\n      add\n        /* \"#utility.yul\":22368:22388   */\n      swap1\n      pop\n        /* \"#utility.yul\":22161:22394   */\n      swap2\n      swap1\n      pop\n      jump\t// out\n\n    auxdata: 0xa2646970667358221220c02ac1f11b3a6456aec2e16f1a14cb18a96d8cedd9baa41dac3a411e16a42a9364736f6c634300081a0033\n}\n",
				"bytecode": {
					"linkReferences": {},
					"object": "6080604052348015600e575f80fd5b506112508061001c5f395ff3fe608060405234801561000f575f80fd5b506004361061003f575f3560e01c80630c4960dd1461004357806370a56c731461005f578063b384abef1461008f575b5f80fd5b61005d6004803603810190610058919061096d565b6100ab565b005b61007960048036038101906100749190610a28565b6101fc565b6040516100869190610ca2565b60405180910390f35b6100a960048036038101906100a49190610cc2565b610453565b005b6002825110156100f0576040517f08c379a00000000000000000000000000000000000000000000000000000000081526004016100e790610d5a565b60405180910390fd5b5f825167ffffffffffffffff81111561010c5761010b610732565b5b60405190808252806020026020018201604052801561013a5781602001602082028036833780820191505090505b5090505f6040518060800160405280868152602001858152602001838152602001841515815250908060018154018082558091505060019003905f5260205f2090600402015f909190919091505f820151815f01908161019a9190610f72565b5060208201518160010190805190602001906101b79291906105c3565b5060408201518160020190805190602001906101d492919061061a565b506060820151816003015f6101000a81548160ff021916908315150217905550505050505050565b610204610665565b5f80549050821061024a576040517f08c379a00000000000000000000000000000000000000000000000000000000081526004016102419061108b565b60405180910390fd5b5f80838154811061025e5761025d6110a9565b5b905f5260205f2090600402016040518060800160405290815f8201805461028490610da5565b80601f01602080910402602001604051908101604052809291908181526020018280546102b090610da5565b80156102fb5780601f106102d2576101008083540402835291602001916102fb565b820191905f5260205f20905b8154815290600101906020018083116102de57829003601f168201915b5050505050815260200160018201805480602002602001604051908101604052809291908181526020015f905b828210156103d0578382905f5260205f2001805461034590610da5565b80601f016020809104026020016040519081016040528092919081815260200182805461037190610da5565b80156103bc5780601f10610393576101008083540402835291602001916103bc565b820191905f5260205f20905b81548152906001019060200180831161039f57829003601f168201915b505050505081526020019060010190610328565b5050505081526020016002820180548060200260200160405190810160405280929190818152602001828054801561042557602002820191905f5260205f20905b815481526020019060010190808311610411575b50505050508152602001600382015f9054906101000a900460ff161515151581525050905080915050919050565b5f805490508210610499576040517f08c379a00000000000000000000000000000000000000000000000000000000081526004016104909061108b565b60405180910390fd5b5f82815481106104ac576104ab6110a9565b5b905f5260205f2090600402016003015f9054906101000a900460ff16610507576040517f08c379a00000000000000000000000000000000000000000000000000000000081526004016104fe90611120565b60405180910390fd5b5f828154811061051a576105196110a9565b5b905f5260205f20906004020160010180549050811061056e576040517f08c379a000000000000000000000000000000000000000000000000000000000815260040161056590611188565b60405180910390fd5b5f8281548110610581576105806110a9565b5b905f5260205f20906004020160020181815481106105a2576105a16110a9565b5b905f5260205f20015f8154809291906105ba906111d3565b91905055505050565b828054828255905f5260205f20908101928215610609579160200282015b828111156106085782518290816105f89190610f72565b50916020019190600101906105e1565b5b509050610616919061068e565b5090565b828054828255905f5260205f20908101928215610654579160200282015b82811115610653578251825591602001919060010190610638565b5b50905061066191906106b1565b5090565b60405180608001604052806060815260200160608152602001606081526020015f151581525090565b5b808211156106ad575f81816106a491906106cc565b5060010161068f565b5090565b5b808211156106c8575f815f9055506001016106b2565b5090565b5080546106d890610da5565b5f825580601f106106e95750610706565b601f0160209004905f5260205f209081019061070591906106b1565b5b50565b5f604051905090565b5f80fd5b5f80fd5b5f80fd5b5f80fd5b5f601f19601f8301169050919050565b7f4e487b71000000000000000000000000000000000000000000000000000000005f52604160045260245ffd5b61076882610722565b810181811067ffffffffffffffff8211171561078757610786610732565b5b80604052505050565b5f610799610709565b90506107a5828261075f565b919050565b5f67ffffffffffffffff8211156107c4576107c3610732565b5b6107cd82610722565b9050602081019050919050565b828183375f83830152505050565b5f6107fa6107f5846107aa565b610790565b9050828152602081018484840111156108165761081561071e565b5b6108218482856107da565b509392505050565b5f82601f83011261083d5761083c61071a565b5b813561084d8482602086016107e8565b91505092915050565b5f67ffffffffffffffff8211156108705761086f610732565b5b602082029050602081019050919050565b5f80fd5b5f61089761089284610856565b610790565b905080838252602082019050602084028301858111156108ba576108b9610881565b5b835b8181101561090157803567ffffffffffffffff8111156108df576108de61071a565b5b8086016108ec8982610829565b855260208501945050506020810190506108bc565b5050509392505050565b5f82601f83011261091f5761091e61071a565b5b813561092f848260208601610885565b91505092915050565b5f8115159050919050565b61094c81610938565b8114610956575f80fd5b50565b5f8135905061096781610943565b92915050565b5f805f6060848603121561098457610983610712565b5b5f84013567ffffffffffffffff8111156109a1576109a0610716565b5b6109ad86828701610829565b935050602084013567ffffffffffffffff8111156109ce576109cd610716565b5b6109da8682870161090b565b92505060406109eb86828701610959565b9150509250925092565b5f819050919050565b610a07816109f5565b8114610a11575f80fd5b50565b5f81359050610a22816109fe565b92915050565b5f60208284031215610a3d57610a3c610712565b5b5f610a4a84828501610a14565b91505092915050565b5f81519050919050565b5f82825260208201905092915050565b8281835e5f83830152505050565b5f610a8582610a53565b610a8f8185610a5d565b9350610a9f818560208601610a6d565b610aa881610722565b840191505092915050565b5f81519050919050565b5f82825260208201905092915050565b5f819050602082019050919050565b5f610ae78383610a7b565b905092915050565b5f602082019050919050565b5f610b0582610ab3565b610b0f8185610abd565b935083602082028501610b2185610acd565b805f5b85811015610b5c5784840389528151610b3d8582610adc565b9450610b4883610aef565b925060208a01995050600181019050610b24565b50829750879550505050505092915050565b5f81519050919050565b5f82825260208201905092915050565b5f819050602082019050919050565b610ba0816109f5565b82525050565b5f610bb18383610b97565b60208301905092915050565b5f602082019050919050565b5f610bd382610b6e565b610bdd8185610b78565b9350610be883610b88565b805f5b83811015610c18578151610bff8882610ba6565b9750610c0a83610bbd565b925050600181019050610beb565b5085935050505092915050565b610c2e81610938565b82525050565b5f608083015f8301518482035f860152610c4e8282610a7b565b91505060208301518482036020860152610c688282610afb565b91505060408301518482036040860152610c828282610bc9565b9150506060830151610c976060860182610c25565b508091505092915050565b5f6020820190508181035f830152610cba8184610c34565b905092915050565b5f8060408385031215610cd857610cd7610712565b5b5f610ce585828601610a14565b9250506020610cf685828601610a14565b9150509250929050565b5f82825260208201905092915050565b7f4174206c656173742032206f7074696f6e7320617265207265717569726564005f82015250565b5f610d44601f83610d00565b9150610d4f82610d10565b602082019050919050565b5f6020820190508181035f830152610d7181610d38565b9050919050565b7f4e487b71000000000000000000000000000000000000000000000000000000005f52602260045260245ffd5b5f6002820490506001821680610dbc57607f821691505b602082108103610dcf57610dce610d78565b5b50919050565b5f819050815f5260205f209050919050565b5f6020601f8301049050919050565b5f82821b905092915050565b5f60088302610e317fffffffffffffffffffffffffffffffffffffffffffffffffffffffffffffffff82610df6565b610e3b8683610df6565b95508019841693508086168417925050509392505050565b5f819050919050565b5f610e76610e71610e6c846109f5565b610e53565b6109f5565b9050919050565b5f819050919050565b610e8f83610e5c565b610ea3610e9b82610e7d565b848454610e02565b825550505050565b5f90565b610eb7610eab565b610ec2818484610e86565b505050565b5b81811015610ee557610eda5f82610eaf565b600181019050610ec8565b5050565b601f821115610f2a57610efb81610dd5565b610f0484610de7565b81016020851015610f13578190505b610f27610f1f85610de7565b830182610ec7565b50505b505050565b5f82821c905092915050565b5f610f4a5f1984600802610f2f565b1980831691505092915050565b5f610f628383610f3b565b9150826002028217905092915050565b610f7b82610a53565b67ffffffffffffffff811115610f9457610f93610732565b5b610f9e8254610da5565b610fa9828285610ee9565b5f60209050601f831160018114610fda575f8415610fc8578287015190505b610fd28582610f57565b865550611039565b601f198416610fe886610dd5565b5f5b8281101561100f57848901518255600182019150602085019450602081019050610fea565b8683101561102c5784890151611028601f891682610f3b565b8355505b6001600288020188555050505b505050505050565b7f53757276657920646f6573206e6f7420657869737400000000000000000000005f82015250565b5f611075601583610d00565b915061108082611041565b602082019050919050565b5f6020820190508181035f8301526110a281611069565b9050919050565b7f4e487b71000000000000000000000000000000000000000000000000000000005f52603260045260245ffd5b7f537572766579206973206e6f74206163746976650000000000000000000000005f82015250565b5f61110a601483610d00565b9150611115826110d6565b602082019050919050565b5f6020820190508181035f830152611137816110fe565b9050919050565b7f496e76616c6964206f7074696f6e20696e6465780000000000000000000000005f82015250565b5f611172601483610d00565b915061117d8261113e565b602082019050919050565b5f6020820190508181035f83015261119f81611166565b9050919050565b7f4e487b71000000000000000000000000000000000000000000000000000000005f52601160045260245ffd5b5f6111dd826109f5565b91507fffffffffffffffffffffffffffffffffffffffffffffffffffffffffffffffff820361120f5761120e6111a6565b5b60018201905091905056fea2646970667358221220c02ac1f11b3a6456aec2e16f1a14cb18a96d8cedd9baa41dac3a411e16a42a9364736f6c634300081a0033",
					"opcodes": "PUSH1 0x80 PUSH1 0x40 MSTORE CALLVALUE DUP1 ISZERO PUSH1 0xE JUMPI PUSH0 DUP1 REVERT JUMPDEST POP PUSH2 0x1250 DUP1 PUSH2 0x1C PUSH0 CODECOPY PUSH0 RETURN INVALID PUSH1 0x80 PUSH1 0x40 MSTORE CALLVALUE DUP1 ISZERO PUSH2 0xF JUMPI PUSH0 DUP1 REVERT JUMPDEST POP PUSH1 0x4 CALLDATASIZE LT PUSH2 0x3F JUMPI PUSH0 CALLDATALOAD PUSH1 0xE0 SHR DUP1 PUSH4 0xC4960DD EQ PUSH2 0x43 JUMPI DUP1 PUSH4 0x70A56C73 EQ PUSH2 0x5F JUMPI DUP1 PUSH4 0xB384ABEF EQ PUSH2 0x8F JUMPI JUMPDEST PUSH0 DUP1 REVERT JUMPDEST PUSH2 0x5D PUSH1 0x4 DUP1 CALLDATASIZE SUB DUP2 ADD SWAP1 PUSH2 0x58 SWAP2 SWAP1 PUSH2 0x96D JUMP JUMPDEST PUSH2 0xAB JUMP JUMPDEST STOP JUMPDEST PUSH2 0x79 PUSH1 0x4 DUP1 CALLDATASIZE SUB DUP2 ADD SWAP1 PUSH2 0x74 SWAP2 SWAP1 PUSH2 0xA28 JUMP JUMPDEST PUSH2 0x1FC JUMP JUMPDEST PUSH1 0x40 MLOAD PUSH2 0x86 SWAP2 SWAP1 PUSH2 0xCA2 JUMP JUMPDEST PUSH1 0x40 MLOAD DUP1 SWAP2 SUB SWAP1 RETURN JUMPDEST PUSH2 0xA9 PUSH1 0x4 DUP1 CALLDATASIZE SUB DUP2 ADD SWAP1 PUSH2 0xA4 SWAP2 SWAP1 PUSH2 0xCC2 JUMP JUMPDEST PUSH2 0x453 JUMP JUMPDEST STOP JUMPDEST PUSH1 0x2 DUP3 MLOAD LT ISZERO PUSH2 0xF0 JUMPI PUSH1 0x40 MLOAD PUSH32 0x8C379A000000000000000000000000000000000000000000000000000000000 DUP2 MSTORE PUSH1 0x4 ADD PUSH2 0xE7 SWAP1 PUSH2 0xD5A JUMP JUMPDEST PUSH1 0x40 MLOAD DUP1 SWAP2 SUB SWAP1 REVERT JUMPDEST PUSH0 DUP3 MLOAD PUSH8 0xFFFFFFFFFFFFFFFF DUP2 GT ISZERO PUSH2 0x10C JUMPI PUSH2 0x10B PUSH2 0x732 JUMP JUMPDEST JUMPDEST PUSH1 0x40 MLOAD SWAP1 DUP1 DUP3 MSTORE DUP1 PUSH1 0x20 MUL PUSH1 0x20 ADD DUP3 ADD PUSH1 0x40 MSTORE DUP1 ISZERO PUSH2 0x13A JUMPI DUP2 PUSH1 0x20 ADD PUSH1 0x20 DUP3 MUL DUP1 CALLDATASIZE DUP4 CALLDATACOPY DUP1 DUP3 ADD SWAP2 POP POP SWAP1 POP JUMPDEST POP SWAP1 POP PUSH0 PUSH1 0x40 MLOAD DUP1 PUSH1 0x80 ADD PUSH1 0x40 MSTORE DUP1 DUP7 DUP2 MSTORE PUSH1 0x20 ADD DUP6 DUP2 MSTORE PUSH1 0x20 ADD DUP4 DUP2 MSTORE PUSH1 0x20 ADD DUP5 ISZERO ISZERO DUP2 MSTORE POP SWAP1 DUP1 PUSH1 0x1 DUP2 SLOAD ADD DUP1 DUP3 SSTORE DUP1 SWAP2 POP POP PUSH1 0x1 SWAP1 SUB SWAP1 PUSH0 MSTORE PUSH1 0x20 PUSH0 KECCAK256 SWAP1 PUSH1 0x4 MUL ADD PUSH0 SWAP1 SWAP2 SWAP1 SWAP2 SWAP1 SWAP2 POP PUSH0 DUP3 ADD MLOAD DUP2 PUSH0 ADD SWAP1 DUP2 PUSH2 0x19A SWAP2 SWAP1 PUSH2 0xF72 JUMP JUMPDEST POP PUSH1 0x20 DUP3 ADD MLOAD DUP2 PUSH1 0x1 ADD SWAP1 DUP1 MLOAD SWAP1 PUSH1 0x20 ADD SWAP1 PUSH2 0x1B7 SWAP3 SWAP2 SWAP1 PUSH2 0x5C3 JUMP JUMPDEST POP PUSH1 0x40 DUP3 ADD MLOAD DUP2 PUSH1 0x2 ADD SWAP1 DUP1 MLOAD SWAP1 PUSH1 0x20 ADD SWAP1 PUSH2 0x1D4 SWAP3 SWAP2 SWAP1 PUSH2 0x61A JUMP JUMPDEST POP PUSH1 0x60 DUP3 ADD MLOAD DUP2 PUSH1 0x3 ADD PUSH0 PUSH2 0x100 EXP DUP2 SLOAD DUP2 PUSH1 0xFF MUL NOT AND SWAP1 DUP4 ISZERO ISZERO MUL OR SWAP1 SSTORE POP POP POP POP POP POP POP JUMP JUMPDEST PUSH2 0x204 PUSH2 0x665 JUMP JUMPDEST PUSH0 DUP1 SLOAD SWAP1 POP DUP3 LT PUSH2 0x24A JUMPI PUSH1 0x40 MLOAD PUSH32 0x8C379A000000000000000000000000000000000000000000000000000000000 DUP2 MSTORE PUSH1 0x4 ADD PUSH2 0x241 SWAP1 PUSH2 0x108B JUMP JUMPDEST PUSH1 0x40 MLOAD DUP1 SWAP2 SUB SWAP1 REVERT JUMPDEST PUSH0 DUP1 DUP4 DUP2 SLOAD DUP2 LT PUSH2 0x25E JUMPI PUSH2 0x25D PUSH2 0x10A9 JUMP JUMPDEST JUMPDEST SWAP1 PUSH0 MSTORE PUSH1 0x20 PUSH0 KECCAK256 SWAP1 PUSH1 0x4 MUL ADD PUSH1 0x40 MLOAD DUP1 PUSH1 0x80 ADD PUSH1 0x40 MSTORE SWAP1 DUP2 PUSH0 DUP3 ADD DUP1 SLOAD PUSH2 0x284 SWAP1 PUSH2 0xDA5 JUMP JUMPDEST DUP1 PUSH1 0x1F ADD PUSH1 0x20 DUP1 SWAP2 DIV MUL PUSH1 0x20 ADD PUSH1 0x40 MLOAD SWAP1 DUP2 ADD PUSH1 0x40 MSTORE DUP1 SWAP3 SWAP2 SWAP1 DUP2 DUP2 MSTORE PUSH1 0x20 ADD DUP3 DUP1 SLOAD PUSH2 0x2B0 SWAP1 PUSH2 0xDA5 JUMP JUMPDEST DUP1 ISZERO PUSH2 0x2FB JUMPI DUP1 PUSH1 0x1F LT PUSH2 0x2D2 JUMPI PUSH2 0x100 DUP1 DUP4 SLOAD DIV MUL DUP4 MSTORE SWAP2 PUSH1 0x20 ADD SWAP2 PUSH2 0x2FB JUMP JUMPDEST DUP3 ADD SWAP2 SWAP1 PUSH0 MSTORE PUSH1 0x20 PUSH0 KECCAK256 SWAP1 JUMPDEST DUP2 SLOAD DUP2 MSTORE SWAP1 PUSH1 0x1 ADD SWAP1 PUSH1 0x20 ADD DUP1 DUP4 GT PUSH2 0x2DE JUMPI DUP3 SWAP1 SUB PUSH1 0x1F AND DUP3 ADD SWAP2 JUMPDEST POP POP POP POP POP DUP2 MSTORE PUSH1 0x20 ADD PUSH1 0x1 DUP3 ADD DUP1 SLOAD DUP1 PUSH1 0x20 MUL PUSH1 0x20 ADD PUSH1 0x40 MLOAD SWAP1 DUP2 ADD PUSH1 0x40 MSTORE DUP1 SWAP3 SWAP2 SWAP1 DUP2 DUP2 MSTORE PUSH1 0x20 ADD PUSH0 SWAP1 JUMPDEST DUP3 DUP3 LT ISZERO PUSH2 0x3D0 JUMPI DUP4 DUP3 SWAP1 PUSH0 MSTORE PUSH1 0x20 PUSH0 KECCAK256 ADD DUP1 SLOAD PUSH2 0x345 SWAP1 PUSH2 0xDA5 JUMP JUMPDEST DUP1 PUSH1 0x1F ADD PUSH1 0x20 DUP1 SWAP2 DIV MUL PUSH1 0x20 ADD PUSH1 0x40 MLOAD SWAP1 DUP2 ADD PUSH1 0x40 MSTORE DUP1 SWAP3 SWAP2 SWAP1 DUP2 DUP2 MSTORE PUSH1 0x20 ADD DUP3 DUP1 SLOAD PUSH2 0x371 SWAP1 PUSH2 0xDA5 JUMP JUMPDEST DUP1 ISZERO PUSH2 0x3BC JUMPI DUP1 PUSH1 0x1F LT PUSH2 0x393 JUMPI PUSH2 0x100 DUP1 DUP4 SLOAD DIV MUL DUP4 MSTORE SWAP2 PUSH1 0x20 ADD SWAP2 PUSH2 0x3BC JUMP JUMPDEST DUP3 ADD SWAP2 SWAP1 PUSH0 MSTORE PUSH1 0x20 PUSH0 KECCAK256 SWAP1 JUMPDEST DUP2 SLOAD DUP2 MSTORE SWAP1 PUSH1 0x1 ADD SWAP1 PUSH1 0x20 ADD DUP1 DUP4 GT PUSH2 0x39F JUMPI DUP3 SWAP1 SUB PUSH1 0x1F AND DUP3 ADD SWAP2 JUMPDEST POP POP POP POP POP DUP2 MSTORE PUSH1 0x20 ADD SWAP1 PUSH1 0x1 ADD SWAP1 PUSH2 0x328 JUMP JUMPDEST POP POP POP POP DUP2 MSTORE PUSH1 0x20 ADD PUSH1 0x2 DUP3 ADD DUP1 SLOAD DUP1 PUSH1 0x20 MUL PUSH1 0x20 ADD PUSH1 0x40 MLOAD SWAP1 DUP2 ADD PUSH1 0x40 MSTORE DUP1 SWAP3 SWAP2 SWAP1 DUP2 DUP2 MSTORE PUSH1 0x20 ADD DUP3 DUP1 SLOAD DUP1 ISZERO PUSH2 0x425 JUMPI PUSH1 0x20 MUL DUP3 ADD SWAP2 SWAP1 PUSH0 MSTORE PUSH1 0x20 PUSH0 KECCAK256 SWAP1 JUMPDEST DUP2 SLOAD DUP2 MSTORE PUSH1 0x20 ADD SWAP1 PUSH1 0x1 ADD SWAP1 DUP1 DUP4 GT PUSH2 0x411 JUMPI JUMPDEST POP POP POP POP POP DUP2 MSTORE PUSH1 0x20 ADD PUSH1 0x3 DUP3 ADD PUSH0 SWAP1 SLOAD SWAP1 PUSH2 0x100 EXP SWAP1 DIV PUSH1 0xFF AND ISZERO ISZERO ISZERO ISZERO DUP2 MSTORE POP POP SWAP1 POP DUP1 SWAP2 POP POP SWAP2 SWAP1 POP JUMP JUMPDEST PUSH0 DUP1 SLOAD SWAP1 POP DUP3 LT PUSH2 0x499 JUMPI PUSH1 0x40 MLOAD PUSH32 0x8C379A000000000000000000000000000000000000000000000000000000000 DUP2 MSTORE PUSH1 0x4 ADD PUSH2 0x490 SWAP1 PUSH2 0x108B JUMP JUMPDEST PUSH1 0x40 MLOAD DUP1 SWAP2 SUB SWAP1 REVERT JUMPDEST PUSH0 DUP3 DUP2 SLOAD DUP2 LT PUSH2 0x4AC JUMPI PUSH2 0x4AB PUSH2 0x10A9 JUMP JUMPDEST JUMPDEST SWAP1 PUSH0 MSTORE PUSH1 0x20 PUSH0 KECCAK256 SWAP1 PUSH1 0x4 MUL ADD PUSH1 0x3 ADD PUSH0 SWAP1 SLOAD SWAP1 PUSH2 0x100 EXP SWAP1 DIV PUSH1 0xFF AND PUSH2 0x507 JUMPI PUSH1 0x40 MLOAD PUSH32 0x8C379A000000000000000000000000000000000000000000000000000000000 DUP2 MSTORE PUSH1 0x4 ADD PUSH2 0x4FE SWAP1 PUSH2 0x1120 JUMP JUMPDEST PUSH1 0x40 MLOAD DUP1 SWAP2 SUB SWAP1 REVERT JUMPDEST PUSH0 DUP3 DUP2 SLOAD DUP2 LT PUSH2 0x51A JUMPI PUSH2 0x519 PUSH2 0x10A9 JUMP JUMPDEST JUMPDEST SWAP1 PUSH0 MSTORE PUSH1 0x20 PUSH0 KECCAK256 SWAP1 PUSH1 0x4 MUL ADD PUSH1 0x1 ADD DUP1 SLOAD SWAP1 POP DUP2 LT PUSH2 0x56E JUMPI PUSH1 0x40 MLOAD PUSH32 0x8C379A000000000000000000000000000000000000000000000000000000000 DUP2 MSTORE PUSH1 0x4 ADD PUSH2 0x565 SWAP1 PUSH2 0x1188 JUMP JUMPDEST PUSH1 0x40 MLOAD DUP1 SWAP2 SUB SWAP1 REVERT JUMPDEST PUSH0 DUP3 DUP2 SLOAD DUP2 LT PUSH2 0x581 JUMPI PUSH2 0x580 PUSH2 0x10A9 JUMP JUMPDEST JUMPDEST SWAP1 PUSH0 MSTORE PUSH1 0x20 PUSH0 KECCAK256 SWAP1 PUSH1 0x4 MUL ADD PUSH1 0x2 ADD DUP2 DUP2 SLOAD DUP2 LT PUSH2 0x5A2 JUMPI PUSH2 0x5A1 PUSH2 0x10A9 JUMP JUMPDEST JUMPDEST SWAP1 PUSH0 MSTORE PUSH1 0x20 PUSH0 KECCAK256 ADD PUSH0 DUP2 SLOAD DUP1 SWAP3 SWAP2 SWAP1 PUSH2 0x5BA SWAP1 PUSH2 0x11D3 JUMP JUMPDEST SWAP2 SWAP1 POP SSTORE POP POP POP JUMP JUMPDEST DUP3 DUP1 SLOAD DUP3 DUP3 SSTORE SWAP1 PUSH0 MSTORE PUSH1 0x20 PUSH0 KECCAK256 SWAP1 DUP2 ADD SWAP3 DUP3 ISZERO PUSH2 0x609 JUMPI SWAP2 PUSH1 0x20 MUL DUP3 ADD JUMPDEST DUP3 DUP2 GT ISZERO PUSH2 0x608 JUMPI DUP3 MLOAD DUP3 SWAP1 DUP2 PUSH2 0x5F8 SWAP2 SWAP1 PUSH2 0xF72 JUMP JUMPDEST POP SWAP2 PUSH1 0x20 ADD SWAP2 SWAP1 PUSH1 0x1 ADD SWAP1 PUSH2 0x5E1 JUMP JUMPDEST JUMPDEST POP SWAP1 POP PUSH2 0x616 SWAP2 SWAP1 PUSH2 0x68E JUMP JUMPDEST POP SWAP1 JUMP JUMPDEST DUP3 DUP1 SLOAD DUP3 DUP3 SSTORE SWAP1 PUSH0 MSTORE PUSH1 0x20 PUSH0 KECCAK256 SWAP1 DUP2 ADD SWAP3 DUP3 ISZERO PUSH2 0x654 JUMPI SWAP2 PUSH1 0x20 MUL DUP3 ADD JUMPDEST DUP3 DUP2 GT ISZERO PUSH2 0x653 JUMPI DUP3 MLOAD DUP3 SSTORE SWAP2 PUSH1 0x20 ADD SWAP2 SWAP1 PUSH1 0x1 ADD SWAP1 PUSH2 0x638 JUMP JUMPDEST JUMPDEST POP SWAP1 POP PUSH2 0x661 SWAP2 SWAP1 PUSH2 0x6B1 JUMP JUMPDEST POP SWAP1 JUMP JUMPDEST PUSH1 0x40 MLOAD DUP1 PUSH1 0x80 ADD PUSH1 0x40 MSTORE DUP1 PUSH1 0x60 DUP2 MSTORE PUSH1 0x20 ADD PUSH1 0x60 DUP2 MSTORE PUSH1 0x20 ADD PUSH1 0x60 DUP2 MSTORE PUSH1 0x20 ADD PUSH0 ISZERO ISZERO DUP2 MSTORE POP SWAP1 JUMP JUMPDEST JUMPDEST DUP1 DUP3 GT ISZERO PUSH2 0x6AD JUMPI PUSH0 DUP2 DUP2 PUSH2 0x6A4 SWAP2 SWAP1 PUSH2 0x6CC JUMP JUMPDEST POP PUSH1 0x1 ADD PUSH2 0x68F JUMP JUMPDEST POP SWAP1 JUMP JUMPDEST JUMPDEST DUP1 DUP3 GT ISZERO PUSH2 0x6C8 JUMPI PUSH0 DUP2 PUSH0 SWAP1 SSTORE POP PUSH1 0x1 ADD PUSH2 0x6B2 JUMP JUMPDEST POP SWAP1 JUMP JUMPDEST POP DUP1 SLOAD PUSH2 0x6D8 SWAP1 PUSH2 0xDA5 JUMP JUMPDEST PUSH0 DUP3 SSTORE DUP1 PUSH1 0x1F LT PUSH2 0x6E9 JUMPI POP PUSH2 0x706 JUMP JUMPDEST PUSH1 0x1F ADD PUSH1 0x20 SWAP1 DIV SWAP1 PUSH0 MSTORE PUSH1 0x20 PUSH0 KECCAK256 SWAP1 DUP2 ADD SWAP1 PUSH2 0x705 SWAP2 SWAP1 PUSH2 0x6B1 JUMP JUMPDEST JUMPDEST POP JUMP JUMPDEST PUSH0 PUSH1 0x40 MLOAD SWAP1 POP SWAP1 JUMP JUMPDEST PUSH0 DUP1 REVERT JUMPDEST PUSH0 DUP1 REVERT JUMPDEST PUSH0 DUP1 REVERT JUMPDEST PUSH0 DUP1 REVERT JUMPDEST PUSH0 PUSH1 0x1F NOT PUSH1 0x1F DUP4 ADD AND SWAP1 POP SWAP2 SWAP1 POP JUMP JUMPDEST PUSH32 0x4E487B7100000000000000000000000000000000000000000000000000000000 PUSH0 MSTORE PUSH1 0x41 PUSH1 0x4 MSTORE PUSH1 0x24 PUSH0 REVERT JUMPDEST PUSH2 0x768 DUP3 PUSH2 0x722 JUMP JUMPDEST DUP2 ADD DUP2 DUP2 LT PUSH8 0xFFFFFFFFFFFFFFFF DUP3 GT OR ISZERO PUSH2 0x787 JUMPI PUSH2 0x786 PUSH2 0x732 JUMP JUMPDEST JUMPDEST DUP1 PUSH1 0x40 MSTORE POP POP POP JUMP JUMPDEST PUSH0 PUSH2 0x799 PUSH2 0x709 JUMP JUMPDEST SWAP1 POP PUSH2 0x7A5 DUP3 DUP3 PUSH2 0x75F JUMP JUMPDEST SWAP2 SWAP1 POP JUMP JUMPDEST PUSH0 PUSH8 0xFFFFFFFFFFFFFFFF DUP3 GT ISZERO PUSH2 0x7C4 JUMPI PUSH2 0x7C3 PUSH2 0x732 JUMP JUMPDEST JUMPDEST PUSH2 0x7CD DUP3 PUSH2 0x722 JUMP JUMPDEST SWAP1 POP PUSH1 0x20 DUP2 ADD SWAP1 POP SWAP2 SWAP1 POP JUMP JUMPDEST DUP3 DUP2 DUP4 CALLDATACOPY PUSH0 DUP4 DUP4 ADD MSTORE POP POP POP JUMP JUMPDEST PUSH0 PUSH2 0x7FA PUSH2 0x7F5 DUP5 PUSH2 0x7AA JUMP JUMPDEST PUSH2 0x790 JUMP JUMPDEST SWAP1 POP DUP3 DUP2 MSTORE PUSH1 0x20 DUP2 ADD DUP5 DUP5 DUP5 ADD GT ISZERO PUSH2 0x816 JUMPI PUSH2 0x815 PUSH2 0x71E JUMP JUMPDEST JUMPDEST PUSH2 0x821 DUP5 DUP3 DUP6 PUSH2 0x7DA JUMP JUMPDEST POP SWAP4 SWAP3 POP POP POP JUMP JUMPDEST PUSH0 DUP3 PUSH1 0x1F DUP4 ADD SLT PUSH2 0x83D JUMPI PUSH2 0x83C PUSH2 0x71A JUMP JUMPDEST JUMPDEST DUP2 CALLDATALOAD PUSH2 0x84D DUP5 DUP3 PUSH1 0x20 DUP7 ADD PUSH2 0x7E8 JUMP JUMPDEST SWAP2 POP POP SWAP3 SWAP2 POP POP JUMP JUMPDEST PUSH0 PUSH8 0xFFFFFFFFFFFFFFFF DUP3 GT ISZERO PUSH2 0x870 JUMPI PUSH2 0x86F PUSH2 0x732 JUMP JUMPDEST JUMPDEST PUSH1 0x20 DUP3 MUL SWAP1 POP PUSH1 0x20 DUP2 ADD SWAP1 POP SWAP2 SWAP1 POP JUMP JUMPDEST PUSH0 DUP1 REVERT JUMPDEST PUSH0 PUSH2 0x897 PUSH2 0x892 DUP5 PUSH2 0x856 JUMP JUMPDEST PUSH2 0x790 JUMP JUMPDEST SWAP1 POP DUP1 DUP4 DUP3 MSTORE PUSH1 0x20 DUP3 ADD SWAP1 POP PUSH1 0x20 DUP5 MUL DUP4 ADD DUP6 DUP2 GT ISZERO PUSH2 0x8BA JUMPI PUSH2 0x8B9 PUSH2 0x881 JUMP JUMPDEST JUMPDEST DUP4 JUMPDEST DUP2 DUP2 LT ISZERO PUSH2 0x901 JUMPI DUP1 CALLDATALOAD PUSH8 0xFFFFFFFFFFFFFFFF DUP2 GT ISZERO PUSH2 0x8DF JUMPI PUSH2 0x8DE PUSH2 0x71A JUMP JUMPDEST JUMPDEST DUP1 DUP7 ADD PUSH2 0x8EC DUP10 DUP3 PUSH2 0x829 JUMP JUMPDEST DUP6 MSTORE PUSH1 0x20 DUP6 ADD SWAP5 POP POP POP PUSH1 0x20 DUP2 ADD SWAP1 POP PUSH2 0x8BC JUMP JUMPDEST POP POP POP SWAP4 SWAP3 POP POP POP JUMP JUMPDEST PUSH0 DUP3 PUSH1 0x1F DUP4 ADD SLT PUSH2 0x91F JUMPI PUSH2 0x91E PUSH2 0x71A JUMP JUMPDEST JUMPDEST DUP2 CALLDATALOAD PUSH2 0x92F DUP5 DUP3 PUSH1 0x20 DUP7 ADD PUSH2 0x885 JUMP JUMPDEST SWAP2 POP POP SWAP3 SWAP2 POP POP JUMP JUMPDEST PUSH0 DUP2 ISZERO ISZERO SWAP1 POP SWAP2 SWAP1 POP JUMP JUMPDEST PUSH2 0x94C DUP2 PUSH2 0x938 JUMP JUMPDEST DUP2 EQ PUSH2 0x956 JUMPI PUSH0 DUP1 REVERT JUMPDEST POP JUMP JUMPDEST PUSH0 DUP2 CALLDATALOAD SWAP1 POP PUSH2 0x967 DUP2 PUSH2 0x943 JUMP JUMPDEST SWAP3 SWAP2 POP POP JUMP JUMPDEST PUSH0 DUP1 PUSH0 PUSH1 0x60 DUP5 DUP7 SUB SLT ISZERO PUSH2 0x984 JUMPI PUSH2 0x983 PUSH2 0x712 JUMP JUMPDEST JUMPDEST PUSH0 DUP5 ADD CALLDATALOAD PUSH8 0xFFFFFFFFFFFFFFFF DUP2 GT ISZERO PUSH2 0x9A1 JUMPI PUSH2 0x9A0 PUSH2 0x716 JUMP JUMPDEST JUMPDEST PUSH2 0x9AD DUP7 DUP3 DUP8 ADD PUSH2 0x829 JUMP JUMPDEST SWAP4 POP POP PUSH1 0x20 DUP5 ADD CALLDATALOAD PUSH8 0xFFFFFFFFFFFFFFFF DUP2 GT ISZERO PUSH2 0x9CE JUMPI PUSH2 0x9CD PUSH2 0x716 JUMP JUMPDEST JUMPDEST PUSH2 0x9DA DUP7 DUP3 DUP8 ADD PUSH2 0x90B JUMP JUMPDEST SWAP3 POP POP PUSH1 0x40 PUSH2 0x9EB DUP7 DUP3 DUP8 ADD PUSH2 0x959 JUMP JUMPDEST SWAP2 POP POP SWAP3 POP SWAP3 POP SWAP3 JUMP JUMPDEST PUSH0 DUP2 SWAP1 POP SWAP2 SWAP1 POP JUMP JUMPDEST PUSH2 0xA07 DUP2 PUSH2 0x9F5 JUMP JUMPDEST DUP2 EQ PUSH2 0xA11 JUMPI PUSH0 DUP1 REVERT JUMPDEST POP JUMP JUMPDEST PUSH0 DUP2 CALLDATALOAD SWAP1 POP PUSH2 0xA22 DUP2 PUSH2 0x9FE JUMP JUMPDEST SWAP3 SWAP2 POP POP JUMP JUMPDEST PUSH0 PUSH1 0x20 DUP3 DUP5 SUB SLT ISZERO PUSH2 0xA3D JUMPI PUSH2 0xA3C PUSH2 0x712 JUMP JUMPDEST JUMPDEST PUSH0 PUSH2 0xA4A DUP5 DUP3 DUP6 ADD PUSH2 0xA14 JUMP JUMPDEST SWAP2 POP POP SWAP3 SWAP2 POP POP JUMP JUMPDEST PUSH0 DUP2 MLOAD SWAP1 POP SWAP2 SWAP1 POP JUMP JUMPDEST PUSH0 DUP3 DUP3 MSTORE PUSH1 0x20 DUP3 ADD SWAP1 POP SWAP3 SWAP2 POP POP JUMP JUMPDEST DUP3 DUP2 DUP4 MCOPY PUSH0 DUP4 DUP4 ADD MSTORE POP POP POP JUMP JUMPDEST PUSH0 PUSH2 0xA85 DUP3 PUSH2 0xA53 JUMP JUMPDEST PUSH2 0xA8F DUP2 DUP6 PUSH2 0xA5D JUMP JUMPDEST SWAP4 POP PUSH2 0xA9F DUP2 DUP6 PUSH1 0x20 DUP7 ADD PUSH2 0xA6D JUMP JUMPDEST PUSH2 0xAA8 DUP2 PUSH2 0x722 JUMP JUMPDEST DUP5 ADD SWAP2 POP POP SWAP3 SWAP2 POP POP JUMP JUMPDEST PUSH0 DUP2 MLOAD SWAP1 POP SWAP2 SWAP1 POP JUMP JUMPDEST PUSH0 DUP3 DUP3 MSTORE PUSH1 0x20 DUP3 ADD SWAP1 POP SWAP3 SWAP2 POP POP JUMP JUMPDEST PUSH0 DUP2 SWAP1 POP PUSH1 0x20 DUP3 ADD SWAP1 POP SWAP2 SWAP1 POP JUMP JUMPDEST PUSH0 PUSH2 0xAE7 DUP4 DUP4 PUSH2 0xA7B JUMP JUMPDEST SWAP1 POP SWAP3 SWAP2 POP POP JUMP JUMPDEST PUSH0 PUSH1 0x20 DUP3 ADD SWAP1 POP SWAP2 SWAP1 POP JUMP JUMPDEST PUSH0 PUSH2 0xB05 DUP3 PUSH2 0xAB3 JUMP JUMPDEST PUSH2 0xB0F DUP2 DUP6 PUSH2 0xABD JUMP JUMPDEST SWAP4 POP DUP4 PUSH1 0x20 DUP3 MUL DUP6 ADD PUSH2 0xB21 DUP6 PUSH2 0xACD JUMP JUMPDEST DUP1 PUSH0 JUMPDEST DUP6 DUP2 LT ISZERO PUSH2 0xB5C JUMPI DUP5 DUP5 SUB DUP10 MSTORE DUP2 MLOAD PUSH2 0xB3D DUP6 DUP3 PUSH2 0xADC JUMP JUMPDEST SWAP5 POP PUSH2 0xB48 DUP4 PUSH2 0xAEF JUMP JUMPDEST SWAP3 POP PUSH1 0x20 DUP11 ADD SWAP10 POP POP PUSH1 0x1 DUP2 ADD SWAP1 POP PUSH2 0xB24 JUMP JUMPDEST POP DUP3 SWAP8 POP DUP8 SWAP6 POP POP POP POP POP POP SWAP3 SWAP2 POP POP JUMP JUMPDEST PUSH0 DUP2 MLOAD SWAP1 POP SWAP2 SWAP1 POP JUMP JUMPDEST PUSH0 DUP3 DUP3 MSTORE PUSH1 0x20 DUP3 ADD SWAP1 POP SWAP3 SWAP2 POP POP JUMP JUMPDEST PUSH0 DUP2 SWAP1 POP PUSH1 0x20 DUP3 ADD SWAP1 POP SWAP2 SWAP1 POP JUMP JUMPDEST PUSH2 0xBA0 DUP2 PUSH2 0x9F5 JUMP JUMPDEST DUP3 MSTORE POP POP JUMP JUMPDEST PUSH0 PUSH2 0xBB1 DUP4 DUP4 PUSH2 0xB97 JUMP JUMPDEST PUSH1 0x20 DUP4 ADD SWAP1 POP SWAP3 SWAP2 POP POP JUMP JUMPDEST PUSH0 PUSH1 0x20 DUP3 ADD SWAP1 POP SWAP2 SWAP1 POP JUMP JUMPDEST PUSH0 PUSH2 0xBD3 DUP3 PUSH2 0xB6E JUMP JUMPDEST PUSH2 0xBDD DUP2 DUP6 PUSH2 0xB78 JUMP JUMPDEST SWAP4 POP PUSH2 0xBE8 DUP4 PUSH2 0xB88 JUMP JUMPDEST DUP1 PUSH0 JUMPDEST DUP4 DUP2 LT ISZERO PUSH2 0xC18 JUMPI DUP2 MLOAD PUSH2 0xBFF DUP9 DUP3 PUSH2 0xBA6 JUMP JUMPDEST SWAP8 POP PUSH2 0xC0A DUP4 PUSH2 0xBBD JUMP JUMPDEST SWAP3 POP POP PUSH1 0x1 DUP2 ADD SWAP1 POP PUSH2 0xBEB JUMP JUMPDEST POP DUP6 SWAP4 POP POP POP POP SWAP3 SWAP2 POP POP JUMP JUMPDEST PUSH2 0xC2E DUP2 PUSH2 0x938 JUMP JUMPDEST DUP3 MSTORE POP POP JUMP JUMPDEST PUSH0 PUSH1 0x80 DUP4 ADD PUSH0 DUP4 ADD MLOAD DUP5 DUP3 SUB PUSH0 DUP7 ADD MSTORE PUSH2 0xC4E DUP3 DUP3 PUSH2 0xA7B JUMP JUMPDEST SWAP2 POP POP PUSH1 0x20 DUP4 ADD MLOAD DUP5 DUP3 SUB PUSH1 0x20 DUP7 ADD MSTORE PUSH2 0xC68 DUP3 DUP3 PUSH2 0xAFB JUMP JUMPDEST SWAP2 POP POP PUSH1 0x40 DUP4 ADD MLOAD DUP5 DUP3 SUB PUSH1 0x40 DUP7 ADD MSTORE PUSH2 0xC82 DUP3 DUP3 PUSH2 0xBC9 JUMP JUMPDEST SWAP2 POP POP PUSH1 0x60 DUP4 ADD MLOAD PUSH2 0xC97 PUSH1 0x60 DUP7 ADD DUP3 PUSH2 0xC25 JUMP JUMPDEST POP DUP1 SWAP2 POP POP SWAP3 SWAP2 POP POP JUMP JUMPDEST PUSH0 PUSH1 0x20 DUP3 ADD SWAP1 POP DUP2 DUP2 SUB PUSH0 DUP4 ADD MSTORE PUSH2 0xCBA DUP2 DUP5 PUSH2 0xC34 JUMP JUMPDEST SWAP1 POP SWAP3 SWAP2 POP POP JUMP JUMPDEST PUSH0 DUP1 PUSH1 0x40 DUP4 DUP6 SUB SLT ISZERO PUSH2 0xCD8 JUMPI PUSH2 0xCD7 PUSH2 0x712 JUMP JUMPDEST JUMPDEST PUSH0 PUSH2 0xCE5 DUP6 DUP3 DUP7 ADD PUSH2 0xA14 JUMP JUMPDEST SWAP3 POP POP PUSH1 0x20 PUSH2 0xCF6 DUP6 DUP3 DUP7 ADD PUSH2 0xA14 JUMP JUMPDEST SWAP2 POP POP SWAP3 POP SWAP3 SWAP1 POP JUMP JUMPDEST PUSH0 DUP3 DUP3 MSTORE PUSH1 0x20 DUP3 ADD SWAP1 POP SWAP3 SWAP2 POP POP JUMP JUMPDEST PUSH32 0x4174206C656173742032206F7074696F6E732061726520726571756972656400 PUSH0 DUP3 ADD MSTORE POP JUMP JUMPDEST PUSH0 PUSH2 0xD44 PUSH1 0x1F DUP4 PUSH2 0xD00 JUMP JUMPDEST SWAP2 POP PUSH2 0xD4F DUP3 PUSH2 0xD10 JUMP JUMPDEST PUSH1 0x20 DUP3 ADD SWAP1 POP SWAP2 SWAP1 POP JUMP JUMPDEST PUSH0 PUSH1 0x20 DUP3 ADD SWAP1 POP DUP2 DUP2 SUB PUSH0 DUP4 ADD MSTORE PUSH2 0xD71 DUP2 PUSH2 0xD38 JUMP JUMPDEST SWAP1 POP SWAP2 SWAP1 POP JUMP JUMPDEST PUSH32 0x4E487B7100000000000000000000000000000000000000000000000000000000 PUSH0 MSTORE PUSH1 0x22 PUSH1 0x4 MSTORE PUSH1 0x24 PUSH0 REVERT JUMPDEST PUSH0 PUSH1 0x2 DUP3 DIV SWAP1 POP PUSH1 0x1 DUP3 AND DUP1 PUSH2 0xDBC JUMPI PUSH1 0x7F DUP3 AND SWAP2 POP JUMPDEST PUSH1 0x20 DUP3 LT DUP2 SUB PUSH2 0xDCF JUMPI PUSH2 0xDCE PUSH2 0xD78 JUMP JUMPDEST JUMPDEST POP SWAP2 SWAP1 POP JUMP JUMPDEST PUSH0 DUP2 SWAP1 POP DUP2 PUSH0 MSTORE PUSH1 0x20 PUSH0 KECCAK256 SWAP1 POP SWAP2 SWAP1 POP JUMP JUMPDEST PUSH0 PUSH1 0x20 PUSH1 0x1F DUP4 ADD DIV SWAP1 POP SWAP2 SWAP1 POP JUMP JUMPDEST PUSH0 DUP3 DUP3 SHL SWAP1 POP SWAP3 SWAP2 POP POP JUMP JUMPDEST PUSH0 PUSH1 0x8 DUP4 MUL PUSH2 0xE31 PUSH32 0xFFFFFFFFFFFFFFFFFFFFFFFFFFFFFFFFFFFFFFFFFFFFFFFFFFFFFFFFFFFFFFFF DUP3 PUSH2 0xDF6 JUMP JUMPDEST PUSH2 0xE3B DUP7 DUP4 PUSH2 0xDF6 JUMP JUMPDEST SWAP6 POP DUP1 NOT DUP5 AND SWAP4 POP DUP1 DUP7 AND DUP5 OR SWAP3 POP POP POP SWAP4 SWAP3 POP POP POP JUMP JUMPDEST PUSH0 DUP2 SWAP1 POP SWAP2 SWAP1 POP JUMP JUMPDEST PUSH0 PUSH2 0xE76 PUSH2 0xE71 PUSH2 0xE6C DUP5 PUSH2 0x9F5 JUMP JUMPDEST PUSH2 0xE53 JUMP JUMPDEST PUSH2 0x9F5 JUMP JUMPDEST SWAP1 POP SWAP2 SWAP1 POP JUMP JUMPDEST PUSH0 DUP2 SWAP1 POP SWAP2 SWAP1 POP JUMP JUMPDEST PUSH2 0xE8F DUP4 PUSH2 0xE5C JUMP JUMPDEST PUSH2 0xEA3 PUSH2 0xE9B DUP3 PUSH2 0xE7D JUMP JUMPDEST DUP5 DUP5 SLOAD PUSH2 0xE02 JUMP JUMPDEST DUP3 SSTORE POP POP POP POP JUMP JUMPDEST PUSH0 SWAP1 JUMP JUMPDEST PUSH2 0xEB7 PUSH2 0xEAB JUMP JUMPDEST PUSH2 0xEC2 DUP2 DUP5 DUP5 PUSH2 0xE86 JUMP JUMPDEST POP POP POP JUMP JUMPDEST JUMPDEST DUP2 DUP2 LT ISZERO PUSH2 0xEE5 JUMPI PUSH2 0xEDA PUSH0 DUP3 PUSH2 0xEAF JUMP JUMPDEST PUSH1 0x1 DUP2 ADD SWAP1 POP PUSH2 0xEC8 JUMP JUMPDEST POP POP JUMP JUMPDEST PUSH1 0x1F DUP3 GT ISZERO PUSH2 0xF2A JUMPI PUSH2 0xEFB DUP2 PUSH2 0xDD5 JUMP JUMPDEST PUSH2 0xF04 DUP5 PUSH2 0xDE7 JUMP JUMPDEST DUP2 ADD PUSH1 0x20 DUP6 LT ISZERO PUSH2 0xF13 JUMPI DUP2 SWAP1 POP JUMPDEST PUSH2 0xF27 PUSH2 0xF1F DUP6 PUSH2 0xDE7 JUMP JUMPDEST DUP4 ADD DUP3 PUSH2 0xEC7 JUMP JUMPDEST POP POP JUMPDEST POP POP POP JUMP JUMPDEST PUSH0 DUP3 DUP3 SHR SWAP1 POP SWAP3 SWAP2 POP POP JUMP JUMPDEST PUSH0 PUSH2 0xF4A PUSH0 NOT DUP5 PUSH1 0x8 MUL PUSH2 0xF2F JUMP JUMPDEST NOT DUP1 DUP4 AND SWAP2 POP POP SWAP3 SWAP2 POP POP JUMP JUMPDEST PUSH0 PUSH2 0xF62 DUP4 DUP4 PUSH2 0xF3B JUMP JUMPDEST SWAP2 POP DUP3 PUSH1 0x2 MUL DUP3 OR SWAP1 POP SWAP3 SWAP2 POP POP JUMP JUMPDEST PUSH2 0xF7B DUP3 PUSH2 0xA53 JUMP JUMPDEST PUSH8 0xFFFFFFFFFFFFFFFF DUP2 GT ISZERO PUSH2 0xF94 JUMPI PUSH2 0xF93 PUSH2 0x732 JUMP JUMPDEST JUMPDEST PUSH2 0xF9E DUP3 SLOAD PUSH2 0xDA5 JUMP JUMPDEST PUSH2 0xFA9 DUP3 DUP3 DUP6 PUSH2 0xEE9 JUMP JUMPDEST PUSH0 PUSH1 0x20 SWAP1 POP PUSH1 0x1F DUP4 GT PUSH1 0x1 DUP2 EQ PUSH2 0xFDA JUMPI PUSH0 DUP5 ISZERO PUSH2 0xFC8 JUMPI DUP3 DUP8 ADD MLOAD SWAP1 POP JUMPDEST PUSH2 0xFD2 DUP6 DUP3 PUSH2 0xF57 JUMP JUMPDEST DUP7 SSTORE POP PUSH2 0x1039 JUMP JUMPDEST PUSH1 0x1F NOT DUP5 AND PUSH2 0xFE8 DUP7 PUSH2 0xDD5 JUMP JUMPDEST PUSH0 JUMPDEST DUP3 DUP2 LT ISZERO PUSH2 0x100F JUMPI DUP5 DUP10 ADD MLOAD DUP3 SSTORE PUSH1 0x1 DUP3 ADD SWAP2 POP PUSH1 0x20 DUP6 ADD SWAP5 POP PUSH1 0x20 DUP2 ADD SWAP1 POP PUSH2 0xFEA JUMP JUMPDEST DUP7 DUP4 LT ISZERO PUSH2 0x102C JUMPI DUP5 DUP10 ADD MLOAD PUSH2 0x1028 PUSH1 0x1F DUP10 AND DUP3 PUSH2 0xF3B JUMP JUMPDEST DUP4 SSTORE POP JUMPDEST PUSH1 0x1 PUSH1 0x2 DUP9 MUL ADD DUP9 SSTORE POP POP POP JUMPDEST POP POP POP POP POP POP JUMP JUMPDEST PUSH32 0x53757276657920646F6573206E6F742065786973740000000000000000000000 PUSH0 DUP3 ADD MSTORE POP JUMP JUMPDEST PUSH0 PUSH2 0x1075 PUSH1 0x15 DUP4 PUSH2 0xD00 JUMP JUMPDEST SWAP2 POP PUSH2 0x1080 DUP3 PUSH2 0x1041 JUMP JUMPDEST PUSH1 0x20 DUP3 ADD SWAP1 POP SWAP2 SWAP1 POP JUMP JUMPDEST PUSH0 PUSH1 0x20 DUP3 ADD SWAP1 POP DUP2 DUP2 SUB PUSH0 DUP4 ADD MSTORE PUSH2 0x10A2 DUP2 PUSH2 0x1069 JUMP JUMPDEST SWAP1 POP SWAP2 SWAP1 POP JUMP JUMPDEST PUSH32 0x4E487B7100000000000000000000000000000000000000000000000000000000 PUSH0 MSTORE PUSH1 0x32 PUSH1 0x4 MSTORE PUSH1 0x24 PUSH0 REVERT JUMPDEST PUSH32 0x537572766579206973206E6F7420616374697665000000000000000000000000 PUSH0 DUP3 ADD MSTORE POP JUMP JUMPDEST PUSH0 PUSH2 0x110A PUSH1 0x14 DUP4 PUSH2 0xD00 JUMP JUMPDEST SWAP2 POP PUSH2 0x1115 DUP3 PUSH2 0x10D6 JUMP JUMPDEST PUSH1 0x20 DUP3 ADD SWAP1 POP SWAP2 SWAP1 POP JUMP JUMPDEST PUSH0 PUSH1 0x20 DUP3 ADD SWAP1 POP DUP2 DUP2 SUB PUSH0 DUP4 ADD MSTORE PUSH2 0x1137 DUP2 PUSH2 0x10FE JUMP JUMPDEST SWAP1 POP SWAP2 SWAP1 POP JUMP JUMPDEST PUSH32 0x496E76616C6964206F7074696F6E20696E646578000000000000000000000000 PUSH0 DUP3 ADD MSTORE POP JUMP JUMPDEST PUSH0 PUSH2 0x1172 PUSH1 0x14 DUP4 PUSH2 0xD00 JUMP JUMPDEST SWAP2 POP PUSH2 0x117D DUP3 PUSH2 0x113E JUMP JUMPDEST PUSH1 0x20 DUP3 ADD SWAP1 POP SWAP2 SWAP1 POP JUMP JUMPDEST PUSH0 PUSH1 0x20 DUP3 ADD SWAP1 POP DUP2 DUP2 SUB PUSH0 DUP4 ADD MSTORE PUSH2 0x119F DUP2 PUSH2 0x1166 JUMP JUMPDEST SWAP1 POP SWAP2 SWAP1 POP JUMP JUMPDEST PUSH32 0x4E487B7100000000000000000000000000000000000000000000000000000000 PUSH0 MSTORE PUSH1 0x11 PUSH1 0x4 MSTORE PUSH1 0x24 PUSH0 REVERT JUMPDEST PUSH0 PUSH2 0x11DD DUP3 PUSH2 0x9F5 JUMP JUMPDEST SWAP2 POP PUSH32 0xFFFFFFFFFFFFFFFFFFFFFFFFFFFFFFFFFFFFFFFFFFFFFFFFFFFFFFFFFFFFFFFF DUP3 SUB PUSH2 0x120F JUMPI PUSH2 0x120E PUSH2 0x11A6 JUMP JUMPDEST JUMPDEST PUSH1 0x1 DUP3 ADD SWAP1 POP SWAP2 SWAP1 POP JUMP INVALID LOG2 PUSH5 0x6970667358 0x22 SLT KECCAK256 0xC0 0x2A 0xC1 CALL SHL GASPRICE PUSH5 0x56AEC2E16F BYTE EQ 0xCB XOR 0xA9 PUSH14 0x8CEDD9BAA41DAC3A411E16A42A93 PUSH5 0x736F6C6343 STOP ADDMOD BYTE STOP CALLER "
				},
				"gasEstimates": {
					"creation": {
						"codeDepositCost": "937600",
						"executionCost": "973",
						"totalCost": "938573"
					},
					"external": {
						"createSurvey(string,string[],bool)": "infinite",
						"getSurveyResults(uint256)": "infinite",
						"vote(uint256,uint256)": "infinite"
					}
				},
				"methodIdentifiers": {
					"createSurvey(string,string[],bool)": "0c4960dd",
					"getSurveyResults(uint256)": "70a56c73",
					"vote(uint256,uint256)": "b384abef"
				}
			},
			"storageLayout": {
				"storage": [
					{
						"astId": 1238,
						"contract": "contracts/Soboro.sol:Crumb",
						"label": "surveys",
						"offset": 0,
						"slot": "0",
						"type": "t_array(t_struct(Survey)1234_storage)dyn_storage"
					}
				],
				"types": {
					"t_array(t_string_storage)dyn_storage": {
						"base": "t_string_storage",
						"encoding": "dynamic_array",
						"label": "string[]",
						"numberOfBytes": "32"
					},
					"t_array(t_struct(Survey)1234_storage)dyn_storage": {
						"base": "t_struct(Survey)1234_storage",
						"encoding": "dynamic_array",
						"label": "struct Crumb.Survey[]",
						"numberOfBytes": "32"
					},
					"t_array(t_uint256)dyn_storage": {
						"base": "t_uint256",
						"encoding": "dynamic_array",
						"label": "uint256[]",
						"numberOfBytes": "32"
					},
					"t_bool": {
						"encoding": "inplace",
						"label": "bool",
						"numberOfBytes": "1"
					},
					"t_string_storage": {
						"encoding": "bytes",
						"label": "string",
						"numberOfBytes": "32"
					},
					"t_struct(Survey)1234_storage": {
						"encoding": "inplace",
						"label": "struct Crumb.Survey",
						"members": [
							{
								"astId": 1225,
								"contract": "contracts/Soboro.sol:Crumb",
								"label": "question",
								"offset": 0,
								"slot": "0",
								"type": "t_string_storage"
							},
							{
								"astId": 1228,
								"contract": "contracts/Soboro.sol:Crumb",
								"label": "options",
								"offset": 0,
								"slot": "1",
								"type": "t_array(t_string_storage)dyn_storage"
							},
							{
								"astId": 1231,
								"contract": "contracts/Soboro.sol:Crumb",
								"label": "voteCountPerOptions",
								"offset": 0,
								"slot": "2",
								"type": "t_array(t_uint256)dyn_storage"
							},
							{
								"astId": 1233,
								"contract": "contracts/Soboro.sol:Crumb",
								"label": "isActive",
								"offset": 0,
								"slot": "3",
								"type": "t_bool"
							}
						],
						"numberOfBytes": "128"
					},
					"t_uint256": {
						"encoding": "inplace",
						"label": "uint256",
						"numberOfBytes": "32"
					}
				}
			},
			"userdoc": {
				"kind": "user",
				"methods": {},
				"version": 1
			}
		}
	}
}