{
	"data": {
		"bytecode": {
			"linkReferences": {},
			"object": "608060405234801561000f575f80fd5b50335f73ffffffffffffffffffffffffffffffffffffffff168173ffffffffffffffffffffffffffffffffffffffff1603610081575f6040517f1e4fbdf70000000000000000000000000000000000000000000000000000000081526004016100789190610196565b60405180910390fd5b6100908161009660201b60201c565b506101af565b5f805f9054906101000a900473ffffffffffffffffffffffffffffffffffffffff169050815f806101000a81548173ffffffffffffffffffffffffffffffffffffffff021916908373ffffffffffffffffffffffffffffffffffffffff1602179055508173ffffffffffffffffffffffffffffffffffffffff168173ffffffffffffffffffffffffffffffffffffffff167f8be0079c531659141344cd1fd0a4f28419497f9722a3daafe3b4186f6b6457e060405160405180910390a35050565b5f73ffffffffffffffffffffffffffffffffffffffff82169050919050565b5f61018082610157565b9050919050565b61019081610176565b82525050565b5f6020820190506101a95f830184610187565b92915050565b611f00806101bc5f395ff3fe608060405234801561000f575f80fd5b50600436106100b2575f3560e01c806378e6b2921161006f57806378e6b2921461019c57806386e68b90146101b85780638da5cb5b146101e95780639fe140b114610207578063b384abef14610225578063f2fde38b14610241576100b2565b80630a277d6d146100b65780630c4960dd146100e6578063256a7f6b146101025780633358d9d9146101325780634254582514610162578063715018a614610192575b5f80fd5b6100d060048036038101906100cb9190610f8b565b61025d565b6040516100dd919061106d565b60405180910390f35b61010060048036038101906100fb91906112e0565b610329565b005b61011c60048036038101906101179190610f8b565b6104b8565b6040516101299190611483565b60405180910390f35b61014c60048036038101906101479190610f8b565b610607565b60405161015991906114b2565b60405180910390f35b61017c60048036038101906101779190611525565b610618565b60405161018991906114b2565b60405180910390f35b61019a61074d565b005b6101b660048036038101906101b19190611563565b610760565b005b6101d260048036038101906101cd9190610f8b565b61086e565b6040516101e09291906115e9565b60405180910390f35b6101f161092f565b6040516101fe9190611626565b60405180910390f35b61020f610956565b60405161021c919061164e565b60405180910390f35b61023f600480360381019061023a9190611667565b610962565b005b61025b600480360381019061025691906116a5565b610c57565b005b60605f8210158015610273575060018054905082105b6102b2576040517f08c379a00000000000000000000000000000000000000000000000000000000081526004016102a99061171a565b60405180910390fd5b600182815481106102c6576102c5611738565b5b905f5260205f20906005020160020180548060200260200160405190810160405280929190818152602001828054801561031d57602002820191905f5260205f20905b815481526020019060010190808311610309575b50505050509050919050565b610331610cdb565b5f835103610374576040517f08c379a000000000000000000000000000000000000000000000000000000000815260040161036b906117af565b60405180910390fd5b6002825110156103b9576040517f08c379a00000000000000000000000000000000000000000000000000000000081526004016103b090611817565b60405180910390fd5b6001808160018154018082558091505003905f5260205f209050505f60018080805490506103e79190611862565b815481106103f8576103f7611738565b5b905f5260205f20906005020190505f835167ffffffffffffffff811115610422576104216110a5565b5b6040519080825280602002602001820160405280156104505781602001602082028036833780820191505090505b50905084825f0190816104639190611a8f565b508382600101908051906020019061047c929190610e2a565b5080826002019080519060200190610495929190610e81565b5082826003015f6101000a81548160ff0219169083151502179055505050505050565b60605f82101580156104ce575060018054905082105b61050d576040517f08c379a00000000000000000000000000000000000000000000000000000000081526004016105049061171a565b60405180910390fd5b5f6001838154811061052257610521611738565b5b905f5260205f209060050201600101805480602002602001604051908101604052809291908181526020015f905b828210156105f8578382905f5260205f2001805461056d906118c2565b80601f0160208091040260200160405190810160405280929190818152602001828054610599906118c2565b80156105e45780601f106105bb576101008083540402835291602001916105e4565b820191905f5260205f20905b8154815290600101906020018083116105c757829003601f168201915b505050505081526020019060010190610550565b50505050905080915050919050565b5f6106123383610618565b50919050565b5f8073ffffffffffffffffffffffffffffffffffffffff168373ffffffffffffffffffffffffffffffffffffffff1603610687576040517f08c379a000000000000000000000000000000000000000000000000000000000815260040161067e90611ba8565b60405180910390fd5b5f821015801561069b575060018054905082105b6106da576040517f08c379a00000000000000000000000000000000000000000000000000000000081526004016106d190611c10565b60405180910390fd5b600182815481106106ee576106ed611738565b5b905f5260205f2090600502016004015f8473ffffffffffffffffffffffffffffffffffffffff1673ffffffffffffffffffffffffffffffffffffffff1681526020019081526020015f205f9054906101000a900460ff16905092915050565b610755610cdb565b61075e5f610d62565b565b610768610cdb565b5f821015801561077c575060018054905082105b6107bb576040517f08c379a00000000000000000000000000000000000000000000000000000000081526004016107b29061171a565b60405180910390fd5b801515600183815481106107d2576107d1611738565b5b905f5260205f2090600502016003015f9054906101000a900460ff16151503610830576040517f08c379a000000000000000000000000000000000000000000000000000000000815260040161082790611c9e565b60405180910390fd5b806001838154811061084557610844611738565b5b905f5260205f2090600502016003015f6101000a81548160ff0219169083151502179055505050565b6001818154811061087d575f80fd5b905f5260205f2090600502015f91509050805f01805461089c906118c2565b80601f01602080910402602001604051908101604052809291908181526020018280546108c8906118c2565b80156109135780601f106108ea57610100808354040283529160200191610913565b820191905f5260205f20905b8154815290600101906020018083116108f657829003601f168201915b505050505090806003015f9054906101000a900460ff16905082565b5f805f9054906101000a900473ffffffffffffffffffffffffffffffffffffffff16905090565b5f600180549050905090565b5f8210158015610976575060018054905082105b6109b5576040517f08c379a00000000000000000000000000000000000000000000000000000000081526004016109ac90611d06565b60405180910390fd5b600182815481106109c9576109c8611738565b5b905f5260205f2090600502016003015f9054906101000a900460ff16610a24576040517f08c379a0000000000000000000000000000000000000000000000000000000008152600401610a1b90611d6e565b60405180910390fd5b60018281548110610a3857610a37611738565b5b905f5260205f209060050201600101805490508110610a8c576040517f08c379a0000000000000000000000000000000000000000000000000000000008152600401610a8390611dd6565b60405180910390fd5b5f151560018381548110610aa357610aa2611738565b5b905f5260205f2090600502016004015f3373ffffffffffffffffffffffffffffffffffffffff1673ffffffffffffffffffffffffffffffffffffffff1681526020019081526020015f205f9054906101000a900460ff16151514610b3c576040517f08c379a0000000000000000000000000000000000000000000000000000000008152600401610b3390611e3e565b60405180910390fd5b60018281548110610b5057610b4f611738565b5b905f5260205f2090600502016002018181548110610b7157610b70611738565b5b905f5260205f20015f815480929190610b8990611e5c565b91905055506001808381548110610ba357610ba2611738565b5b905f5260205f2090600502016004015f3373ffffffffffffffffffffffffffffffffffffffff1673ffffffffffffffffffffffffffffffffffffffff1681526020019081526020015f205f6101000a81548160ff0219169083151502179055503373ffffffffffffffffffffffffffffffffffffffff167fea66f58e474bc09f580000e81f31b334d171db387d0c6098ba47bd897741679b8383604051610c4b929190611ea3565b60405180910390a25050565b610c5f610cdb565b5f73ffffffffffffffffffffffffffffffffffffffff168173ffffffffffffffffffffffffffffffffffffffff1603610ccf575f6040517f1e4fbdf7000000000000000000000000000000000000000000000000000000008152600401610cc69190611626565b60405180910390fd5b610cd881610d62565b50565b610ce3610e23565b73ffffffffffffffffffffffffffffffffffffffff16610d0161092f565b73ffffffffffffffffffffffffffffffffffffffff1614610d6057610d24610e23565b6040517f118cdaa7000000000000000000000000000000000000000000000000000000008152600401610d579190611626565b60405180910390fd5b565b5f805f9054906101000a900473ffffffffffffffffffffffffffffffffffffffff169050815f806101000a81548173ffffffffffffffffffffffffffffffffffffffff021916908373ffffffffffffffffffffffffffffffffffffffff1602179055508173ffffffffffffffffffffffffffffffffffffffff168173ffffffffffffffffffffffffffffffffffffffff167f8be0079c531659141344cd1fd0a4f28419497f9722a3daafe3b4186f6b6457e060405160405180910390a35050565b5f33905090565b828054828255905f5260205f20908101928215610e70579160200282015b82811115610e6f578251829081610e5f9190611a8f565b5091602001919060010190610e48565b5b509050610e7d9190610ecc565b5090565b828054828255905f5260205f20908101928215610ebb579160200282015b82811115610eba578251825591602001919060010190610e9f565b5b509050610ec89190610eef565b5090565b5b80821115610eeb575f8181610ee29190610f0a565b50600101610ecd565b5090565b5b80821115610f06575f815f905550600101610ef0565b5090565b508054610f16906118c2565b5f825580601f10610f275750610f44565b601f0160209004905f5260205f2090810190610f439190610eef565b5b50565b5f604051905090565b5f80fd5b5f80fd5b5f819050919050565b610f6a81610f58565b8114610f74575f80fd5b50565b5f81359050610f8581610f61565b92915050565b5f60208284031215610fa057610f9f610f50565b5b5f610fad84828501610f77565b91505092915050565b5f81519050919050565b5f82825260208201905092915050565b5f819050602082019050919050565b610fe881610f58565b82525050565b5f610ff98383610fdf565b60208301905092915050565b5f602082019050919050565b5f61101b82610fb6565b6110258185610fc0565b935061103083610fd0565b805f5b838110156110605781516110478882610fee565b975061105283611005565b925050600181019050611033565b5085935050505092915050565b5f6020820190508181035f8301526110858184611011565b905092915050565b5f80fd5b5f80fd5b5f601f19601f8301169050919050565b7f4e487b71000000000000000000000000000000000000000000000000000000005f52604160045260245ffd5b6110db82611095565b810181811067ffffffffffffffff821117156110fa576110f96110a5565b5b80604052505050565b5f61110c610f47565b905061111882826110d2565b919050565b5f67ffffffffffffffff821115611137576111366110a5565b5b61114082611095565b9050602081019050919050565b828183375f83830152505050565b5f61116d6111688461111d565b611103565b90508281526020810184848401111561118957611188611091565b5b61119484828561114d565b509392505050565b5f82601f8301126111b0576111af61108d565b5b81356111c084826020860161115b565b91505092915050565b5f67ffffffffffffffff8211156111e3576111e26110a5565b5b602082029050602081019050919050565b5f80fd5b5f61120a611205846111c9565b611103565b9050808382526020820190506020840283018581111561122d5761122c6111f4565b5b835b8181101561127457803567ffffffffffffffff8111156112525761125161108d565b5b80860161125f898261119c565b8552602085019450505060208101905061122f565b5050509392505050565b5f82601f8301126112925761129161108d565b5b81356112a28482602086016111f8565b91505092915050565b5f8115159050919050565b6112bf816112ab565b81146112c9575f80fd5b50565b5f813590506112da816112b6565b92915050565b5f805f606084860312156112f7576112f6610f50565b5b5f84013567ffffffffffffffff81111561131457611313610f54565b5b6113208682870161119c565b935050602084013567ffffffffffffffff81111561134157611340610f54565b5b61134d8682870161127e565b925050604061135e868287016112cc565b9150509250925092565b5f81519050919050565b5f82825260208201905092915050565b5f819050602082019050919050565b5f81519050919050565b5f82825260208201905092915050565b8281835e5f83830152505050565b5f6113c382611391565b6113cd818561139b565b93506113dd8185602086016113ab565b6113e681611095565b840191505092915050565b5f6113fc83836113b9565b905092915050565b5f602082019050919050565b5f61141a82611368565b6114248185611372565b93508360208202850161143685611382565b805f5b85811015611471578484038952815161145285826113f1565b945061145d83611404565b925060208a01995050600181019050611439565b50829750879550505050505092915050565b5f6020820190508181035f83015261149b8184611410565b905092915050565b6114ac816112ab565b82525050565b5f6020820190506114c55f8301846114a3565b92915050565b5f73ffffffffffffffffffffffffffffffffffffffff82169050919050565b5f6114f4826114cb565b9050919050565b611504816114ea565b811461150e575f80fd5b50565b5f8135905061151f816114fb565b92915050565b5f806040838503121561153b5761153a610f50565b5b5f61154885828601611511565b925050602061155985828601610f77565b9150509250929050565b5f806040838503121561157957611578610f50565b5b5f61158685828601610f77565b9250506020611597858286016112cc565b9150509250929050565b5f82825260208201905092915050565b5f6115bb82611391565b6115c581856115a1565b93506115d58185602086016113ab565b6115de81611095565b840191505092915050565b5f6040820190508181035f83015261160181856115b1565b905061161060208301846114a3565b9392505050565b611620816114ea565b82525050565b5f6020820190506116395f830184611617565b92915050565b61164881610f58565b82525050565b5f6020820190506116615f83018461163f565b92915050565b5f806040838503121561167d5761167c610f50565b5b5f61168a85828601610f77565b925050602061169b85828601610f77565b9150509250929050565b5f602082840312156116ba576116b9610f50565b5b5f6116c784828501611511565b91505092915050565b7f696e76616c696420696e646578000000000000000000000000000000000000005f82015250565b5f611704600d836115a1565b915061170f826116d0565b602082019050919050565b5f6020820190508181035f830152611731816116f8565b9050919050565b7f4e487b71000000000000000000000000000000000000000000000000000000005f52603260045260245ffd5b7f656d707479207175657374696f6e206973206e6f7420616c6c6f7765640000005f82015250565b5f611799601d836115a1565b91506117a482611765565b602082019050919050565b5f6020820190508181035f8301526117c68161178d565b9050919050565b7f4174206c656173742032206f7074696f6e7320617265207265717569726564005f82015250565b5f611801601f836115a1565b915061180c826117cd565b602082019050919050565b5f6020820190508181035f83015261182e816117f5565b9050919050565b7f4e487b71000000000000000000000000000000000000000000000000000000005f52601160045260245ffd5b5f61186c82610f58565b915061187783610f58565b925082820390508181111561188f5761188e611835565b5b92915050565b7f4e487b71000000000000000000000000000000000000000000000000000000005f52602260045260245ffd5b5f60028204905060018216806118d957607f821691505b6020821081036118ec576118eb611895565b5b50919050565b5f819050815f5260205f209050919050565b5f6020601f8301049050919050565b5f82821b905092915050565b5f6008830261194e7fffffffffffffffffffffffffffffffffffffffffffffffffffffffffffffffff82611913565b6119588683611913565b95508019841693508086168417925050509392505050565b5f819050919050565b5f61199361198e61198984610f58565b611970565b610f58565b9050919050565b5f819050919050565b6119ac83611979565b6119c06119b88261199a565b84845461191f565b825550505050565b5f90565b6119d46119c8565b6119df8184846119a3565b505050565b5b81811015611a02576119f75f826119cc565b6001810190506119e5565b5050565b601f821115611a4757611a18816118f2565b611a2184611904565b81016020851015611a30578190505b611a44611a3c85611904565b8301826119e4565b50505b505050565b5f82821c905092915050565b5f611a675f1984600802611a4c565b1980831691505092915050565b5f611a7f8383611a58565b9150826002028217905092915050565b611a9882611391565b67ffffffffffffffff811115611ab157611ab06110a5565b5b611abb82546118c2565b611ac6828285611a06565b5f60209050601f831160018114611af7575f8415611ae5578287015190505b611aef8582611a74565b865550611b56565b601f198416611b05866118f2565b5f5b82811015611b2c57848901518255600182019150602085019450602081019050611b07565b86831015611b495784890151611b45601f891682611a58565b8355505b6001600288020188555050505b505050505050565b7f696e76616c6964206164647265737300000000000000000000000000000000005f82015250565b5f611b92600f836115a1565b9150611b9d82611b5e565b602082019050919050565b5f6020820190508181035f830152611bbf81611b86565b9050919050565b7f696e76616c6964207375727665792049440000000000000000000000000000005f82015250565b5f611bfa6011836115a1565b9150611c0582611bc6565b602082019050919050565b5f6020820190508181035f830152611c2781611bee565b9050919050565b7f73757276657920697320616c726561647920696e2074686520646573697265645f8201527f2061637469766520737461746500000000000000000000000000000000000000602082015250565b5f611c88602d836115a1565b9150611c9382611c2e565b604082019050919050565b5f6020820190508181035f830152611cb581611c7c565b9050919050565b7f696e76616c6964206964000000000000000000000000000000000000000000005f82015250565b5f611cf0600a836115a1565b9150611cfb82611cbc565b602082019050919050565b5f6020820190508181035f830152611d1d81611ce4565b9050919050565b7f537572766579206973206e6f74206163746976650000000000000000000000005f82015250565b5f611d586014836115a1565b9150611d6382611d24565b602082019050919050565b5f6020820190508181035f830152611d8581611d4c565b9050919050565b7f496e76616c6964206f7074696f6e20696e6465780000000000000000000000005f82015250565b5f611dc06014836115a1565b9150611dcb82611d8c565b602082019050919050565b5f6020820190508181035f830152611ded81611db4565b9050919050565b7f557365722068617320616c726561647920766f746564000000000000000000005f82015250565b5f611e286016836115a1565b9150611e3382611df4565b602082019050919050565b5f6020820190508181035f830152611e5581611e1c565b9050919050565b5f611e6682610f58565b91507fffffffffffffffffffffffffffffffffffffffffffffffffffffffffffffffff8203611e9857611e97611835565b5b600182019050919050565b5f604082019050611eb65f83018561163f565b611ec3602083018461163f565b939250505056fea264697066735822122030ff36bf6dc499b6fd40f414bd7fd24fa8be8676f75e6a612571178ef9f4ad7c64736f6c634300081a0033",
			"opcodes": "PUSH1 0x80 PUSH1 0x40 MSTORE CALLVALUE DUP1 ISZERO PUSH2 0xF JUMPI PUSH0 DUP1 REVERT JUMPDEST POP CALLER PUSH0 PUSH20 0xFFFFFFFFFFFFFFFFFFFFFFFFFFFFFFFFFFFFFFFF AND DUP2 PUSH20 0xFFFFFFFFFFFFFFFFFFFFFFFFFFFFFFFFFFFFFFFF AND SUB PUSH2 0x81 JUMPI PUSH0 PUSH1 0x40 MLOAD PUSH32 0x1E4FBDF700000000000000000000000000000000000000000000000000000000 DUP2 MSTORE PUSH1 0x4 ADD PUSH2 0x78 SWAP2 SWAP1 PUSH2 0x196 JUMP JUMPDEST PUSH1 0x40 MLOAD DUP1 SWAP2 SUB SWAP1 REVERT JUMPDEST PUSH2 0x90 DUP2 PUSH2 0x96 PUSH1 0x20 SHL PUSH1 0x20 SHR JUMP JUMPDEST POP PUSH2 0x1AF JUMP JUMPDEST PUSH0 DUP1 PUSH0 SWAP1 SLOAD SWAP1 PUSH2 0x100 EXP SWAP1 DIV PUSH20 0xFFFFFFFFFFFFFFFFFFFFFFFFFFFFFFFFFFFFFFFF AND SWAP1 POP DUP2 PUSH0 DUP1 PUSH2 0x100 EXP DUP2 SLOAD DUP2 PUSH20 0xFFFFFFFFFFFFFFFFFFFFFFFFFFFFFFFFFFFFFFFF MUL NOT AND SWAP1 DUP4 PUSH20 0xFFFFFFFFFFFFFFFFFFFFFFFFFFFFFFFFFFFFFFFF AND MUL OR SWAP1 SSTORE POP DUP2 PUSH20 0xFFFFFFFFFFFFFFFFFFFFFFFFFFFFFFFFFFFFFFFF AND DUP2 PUSH20 0xFFFFFFFFFFFFFFFFFFFFFFFFFFFFFFFFFFFFFFFF AND PUSH32 0x8BE0079C531659141344CD1FD0A4F28419497F9722A3DAAFE3B4186F6B6457E0 PUSH1 0x40 MLOAD PUSH1 0x40 MLOAD DUP1 SWAP2 SUB SWAP1 LOG3 POP POP JUMP JUMPDEST PUSH0 PUSH20 0xFFFFFFFFFFFFFFFFFFFFFFFFFFFFFFFFFFFFFFFF DUP3 AND SWAP1 POP SWAP2 SWAP1 POP JUMP JUMPDEST PUSH0 PUSH2 0x180 DUP3 PUSH2 0x157 JUMP JUMPDEST SWAP1 POP SWAP2 SWAP1 POP JUMP JUMPDEST PUSH2 0x190 DUP2 PUSH2 0x176 JUMP JUMPDEST DUP3 MSTORE POP POP JUMP JUMPDEST PUSH0 PUSH1 0x20 DUP3 ADD SWAP1 POP PUSH2 0x1A9 PUSH0 DUP4 ADD DUP5 PUSH2 0x187 JUMP JUMPDEST SWAP3 SWAP2 POP POP JUMP JUMPDEST PUSH2 0x1F00 DUP1 PUSH2 0x1BC PUSH0 CODECOPY PUSH0 RETURN INVALID PUSH1 0x80 PUSH1 0x40 MSTORE CALLVALUE DUP1 ISZERO PUSH2 0xF JUMPI PUSH0 DUP1 REVERT JUMPDEST POP PUSH1 0x4 CALLDATASIZE LT PUSH2 0xB2 JUMPI PUSH0 CALLDATALOAD PUSH1 0xE0 SHR DUP1 PUSH4 0x78E6B292 GT PUSH2 0x6F JUMPI DUP1 PUSH4 0x78E6B292 EQ PUSH2 0x19C JUMPI DUP1 PUSH4 0x86E68B90 EQ PUSH2 0x1B8 JUMPI DUP1 PUSH4 0x8DA5CB5B EQ PUSH2 0x1E9 JUMPI DUP1 PUSH4 0x9FE140B1 EQ PUSH2 0x207 JUMPI DUP1 PUSH4 0xB384ABEF EQ PUSH2 0x225 JUMPI DUP1 PUSH4 0xF2FDE38B EQ PUSH2 0x241 JUMPI PUSH2 0xB2 JUMP JUMPDEST DUP1 PUSH4 0xA277D6D EQ PUSH2 0xB6 JUMPI DUP1 PUSH4 0xC4960DD EQ PUSH2 0xE6 JUMPI DUP1 PUSH4 0x256A7F6B EQ PUSH2 0x102 JUMPI DUP1 PUSH4 0x3358D9D9 EQ PUSH2 0x132 JUMPI DUP1 PUSH4 0x42545825 EQ PUSH2 0x162 JUMPI DUP1 PUSH4 0x715018A6 EQ PUSH2 0x192 JUMPI JUMPDEST PUSH0 DUP1 REVERT JUMPDEST PUSH2 0xD0 PUSH1 0x4 DUP1 CALLDATASIZE SUB DUP2 ADD SWAP1 PUSH2 0xCB SWAP2 SWAP1 PUSH2 0xF8B JUMP JUMPDEST PUSH2 0x25D JUMP JUMPDEST PUSH1 0x40 MLOAD PUSH2 0xDD SWAP2 SWAP1 PUSH2 0x106D JUMP JUMPDEST PUSH1 0x40 MLOAD DUP1 SWAP2 SUB SWAP1 RETURN JUMPDEST PUSH2 0x100 PUSH1 0x4 DUP1 CALLDATASIZE SUB DUP2 ADD SWAP1 PUSH2 0xFB SWAP2 SWAP1 PUSH2 0x12E0 JUMP JUMPDEST PUSH2 0x329 JUMP JUMPDEST STOP JUMPDEST PUSH2 0x11C PUSH1 0x4 DUP1 CALLDATASIZE SUB DUP2 ADD SWAP1 PUSH2 0x117 SWAP2 SWAP1 PUSH2 0xF8B JUMP JUMPDEST PUSH2 0x4B8 JUMP JUMPDEST PUSH1 0x40 MLOAD PUSH2 0x129 SWAP2 SWAP1 PUSH2 0x1483 JUMP JUMPDEST PUSH1 0x40 MLOAD DUP1 SWAP2 SUB SWAP1 RETURN JUMPDEST PUSH2 0x14C PUSH1 0x4 DUP1 CALLDATASIZE SUB DUP2 ADD SWAP1 PUSH2 0x147 SWAP2 SWAP1 PUSH2 0xF8B JUMP JUMPDEST PUSH2 0x607 JUMP JUMPDEST PUSH1 0x40 MLOAD PUSH2 0x159 SWAP2 SWAP1 PUSH2 0x14B2 JUMP JUMPDEST PUSH1 0x40 MLOAD DUP1 SWAP2 SUB SWAP1 RETURN JUMPDEST PUSH2 0x17C PUSH1 0x4 DUP1 CALLDATASIZE SUB DUP2 ADD SWAP1 PUSH2 0x177 SWAP2 SWAP1 PUSH2 0x1525 JUMP JUMPDEST PUSH2 0x618 JUMP JUMPDEST PUSH1 0x40 MLOAD PUSH2 0x189 SWAP2 SWAP1 PUSH2 0x14B2 JUMP JUMPDEST PUSH1 0x40 MLOAD DUP1 SWAP2 SUB SWAP1 RETURN JUMPDEST PUSH2 0x19A PUSH2 0x74D JUMP JUMPDEST STOP JUMPDEST PUSH2 0x1B6 PUSH1 0x4 DUP1 CALLDATASIZE SUB DUP2 ADD SWAP1 PUSH2 0x1B1 SWAP2 SWAP1 PUSH2 0x1563 JUMP JUMPDEST PUSH2 0x760 JUMP JUMPDEST STOP JUMPDEST PUSH2 0x1D2 PUSH1 0x4 DUP1 CALLDATASIZE SUB DUP2 ADD SWAP1 PUSH2 0x1CD SWAP2 SWAP1 PUSH2 0xF8B JUMP JUMPDEST PUSH2 0x86E JUMP JUMPDEST PUSH1 0x40 MLOAD PUSH2 0x1E0 SWAP3 SWAP2 SWAP1 PUSH2 0x15E9 JUMP JUMPDEST PUSH1 0x40 MLOAD DUP1 SWAP2 SUB SWAP1 RETURN JUMPDEST PUSH2 0x1F1 PUSH2 0x92F JUMP JUMPDEST PUSH1 0x40 MLOAD PUSH2 0x1FE SWAP2 SWAP1 PUSH2 0x1626 JUMP JUMPDEST PUSH1 0x40 MLOAD DUP1 SWAP2 SUB SWAP1 RETURN JUMPDEST PUSH2 0x20F PUSH2 0x956 JUMP JUMPDEST PUSH1 0x40 MLOAD PUSH2 0x21C SWAP2 SWAP1 PUSH2 0x164E JUMP JUMPDEST PUSH1 0x40 MLOAD DUP1 SWAP2 SUB SWAP1 RETURN JUMPDEST PUSH2 0x23F PUSH1 0x4 DUP1 CALLDATASIZE SUB DUP2 ADD SWAP1 PUSH2 0x23A SWAP2 SWAP1 PUSH2 0x1667 JUMP JUMPDEST PUSH2 0x962 JUMP JUMPDEST STOP JUMPDEST PUSH2 0x25B PUSH1 0x4 DUP1 CALLDATASIZE SUB DUP2 ADD SWAP1 PUSH2 0x256 SWAP2 SWAP1 PUSH2 0x16A5 JUMP JUMPDEST PUSH2 0xC57 JUMP JUMPDEST STOP JUMPDEST PUSH1 0x60 PUSH0 DUP3 LT ISZERO DUP1 ISZERO PUSH2 0x273 JUMPI POP PUSH1 0x1 DUP1 SLOAD SWAP1 POP DUP3 LT JUMPDEST PUSH2 0x2B2 JUMPI PUSH1 0x40 MLOAD PUSH32 0x8C379A000000000000000000000000000000000000000000000000000000000 DUP2 MSTORE PUSH1 0x4 ADD PUSH2 0x2A9 SWAP1 PUSH2 0x171A JUMP JUMPDEST PUSH1 0x40 MLOAD DUP1 SWAP2 SUB SWAP1 REVERT JUMPDEST PUSH1 0x1 DUP3 DUP2 SLOAD DUP2 LT PUSH2 0x2C6 JUMPI PUSH2 0x2C5 PUSH2 0x1738 JUMP JUMPDEST JUMPDEST SWAP1 PUSH0 MSTORE PUSH1 0x20 PUSH0 KECCAK256 SWAP1 PUSH1 0x5 MUL ADD PUSH1 0x2 ADD DUP1 SLOAD DUP1 PUSH1 0x20 MUL PUSH1 0x20 ADD PUSH1 0x40 MLOAD SWAP1 DUP2 ADD PUSH1 0x40 MSTORE DUP1 SWAP3 SWAP2 SWAP1 DUP2 DUP2 MSTORE PUSH1 0x20 ADD DUP3 DUP1 SLOAD DUP1 ISZERO PUSH2 0x31D JUMPI PUSH1 0x20 MUL DUP3 ADD SWAP2 SWAP1 PUSH0 MSTORE PUSH1 0x20 PUSH0 KECCAK256 SWAP1 JUMPDEST DUP2 SLOAD DUP2 MSTORE PUSH1 0x20 ADD SWAP1 PUSH1 0x1 ADD SWAP1 DUP1 DUP4 GT PUSH2 0x309 JUMPI JUMPDEST POP POP POP POP POP SWAP1 POP SWAP2 SWAP1 POP JUMP JUMPDEST PUSH2 0x331 PUSH2 0xCDB JUMP JUMPDEST PUSH0 DUP4 MLOAD SUB PUSH2 0x374 JUMPI PUSH1 0x40 MLOAD PUSH32 0x8C379A000000000000000000000000000000000000000000000000000000000 DUP2 MSTORE PUSH1 0x4 ADD PUSH2 0x36B SWAP1 PUSH2 0x17AF JUMP JUMPDEST PUSH1 0x40 MLOAD DUP1 SWAP2 SUB SWAP1 REVERT JUMPDEST PUSH1 0x2 DUP3 MLOAD LT ISZERO PUSH2 0x3B9 JUMPI PUSH1 0x40 MLOAD PUSH32 0x8C379A000000000000000000000000000000000000000000000000000000000 DUP2 MSTORE PUSH1 0x4 ADD PUSH2 0x3B0 SWAP1 PUSH2 0x1817 JUMP JUMPDEST PUSH1 0x40 MLOAD DUP1 SWAP2 SUB SWAP1 REVERT JUMPDEST PUSH1 0x1 DUP1 DUP2 PUSH1 0x1 DUP2 SLOAD ADD DUP1 DUP3 SSTORE DUP1 SWAP2 POP POP SUB SWAP1 PUSH0 MSTORE PUSH1 0x20 PUSH0 KECCAK256 SWAP1 POP POP PUSH0 PUSH1 0x1 DUP1 DUP1 DUP1 SLOAD SWAP1 POP PUSH2 0x3E7 SWAP2 SWAP1 PUSH2 0x1862 JUMP JUMPDEST DUP2 SLOAD DUP2 LT PUSH2 0x3F8 JUMPI PUSH2 0x3F7 PUSH2 0x1738 JUMP JUMPDEST JUMPDEST SWAP1 PUSH0 MSTORE PUSH1 0x20 PUSH0 KECCAK256 SWAP1 PUSH1 0x5 MUL ADD SWAP1 POP PUSH0 DUP4 MLOAD PUSH8 0xFFFFFFFFFFFFFFFF DUP2 GT ISZERO PUSH2 0x422 JUMPI PUSH2 0x421 PUSH2 0x10A5 JUMP JUMPDEST JUMPDEST PUSH1 0x40 MLOAD SWAP1 DUP1 DUP3 MSTORE DUP1 PUSH1 0x20 MUL PUSH1 0x20 ADD DUP3 ADD PUSH1 0x40 MSTORE DUP1 ISZERO PUSH2 0x450 JUMPI DUP2 PUSH1 0x20 ADD PUSH1 0x20 DUP3 MUL DUP1 CALLDATASIZE DUP4 CALLDATACOPY DUP1 DUP3 ADD SWAP2 POP POP SWAP1 POP JUMPDEST POP SWAP1 POP DUP5 DUP3 PUSH0 ADD SWAP1 DUP2 PUSH2 0x463 SWAP2 SWAP1 PUSH2 0x1A8F JUMP JUMPDEST POP DUP4 DUP3 PUSH1 0x1 ADD SWAP1 DUP1 MLOAD SWAP1 PUSH1 0x20 ADD SWAP1 PUSH2 0x47C SWAP3 SWAP2 SWAP1 PUSH2 0xE2A JUMP JUMPDEST POP DUP1 DUP3 PUSH1 0x2 ADD SWAP1 DUP1 MLOAD SWAP1 PUSH1 0x20 ADD SWAP1 PUSH2 0x495 SWAP3 SWAP2 SWAP1 PUSH2 0xE81 JUMP JUMPDEST POP DUP3 DUP3 PUSH1 0x3 ADD PUSH0 PUSH2 0x100 EXP DUP2 SLOAD DUP2 PUSH1 0xFF MUL NOT AND SWAP1 DUP4 ISZERO ISZERO MUL OR SWAP1 SSTORE POP POP POP POP POP POP JUMP JUMPDEST PUSH1 0x60 PUSH0 DUP3 LT ISZERO DUP1 ISZERO PUSH2 0x4CE JUMPI POP PUSH1 0x1 DUP1 SLOAD SWAP1 POP DUP3 LT JUMPDEST PUSH2 0x50D JUMPI PUSH1 0x40 MLOAD PUSH32 0x8C379A000000000000000000000000000000000000000000000000000000000 DUP2 MSTORE PUSH1 0x4 ADD PUSH2 0x504 SWAP1 PUSH2 0x171A JUMP JUMPDEST PUSH1 0x40 MLOAD DUP1 SWAP2 SUB SWAP1 REVERT JUMPDEST PUSH0 PUSH1 0x1 DUP4 DUP2 SLOAD DUP2 LT PUSH2 0x522 JUMPI PUSH2 0x521 PUSH2 0x1738 JUMP JUMPDEST JUMPDEST SWAP1 PUSH0 MSTORE PUSH1 0x20 PUSH0 KECCAK256 SWAP1 PUSH1 0x5 MUL ADD PUSH1 0x1 ADD DUP1 SLOAD DUP1 PUSH1 0x20 MUL PUSH1 0x20 ADD PUSH1 0x40 MLOAD SWAP1 DUP2 ADD PUSH1 0x40 MSTORE DUP1 SWAP3 SWAP2 SWAP1 DUP2 DUP2 MSTORE PUSH1 0x20 ADD PUSH0 SWAP1 JUMPDEST DUP3 DUP3 LT ISZERO PUSH2 0x5F8 JUMPI DUP4 DUP3 SWAP1 PUSH0 MSTORE PUSH1 0x20 PUSH0 KECCAK256 ADD DUP1 SLOAD PUSH2 0x56D SWAP1 PUSH2 0x18C2 JUMP JUMPDEST DUP1 PUSH1 0x1F ADD PUSH1 0x20 DUP1 SWAP2 DIV MUL PUSH1 0x20 ADD PUSH1 0x40 MLOAD SWAP1 DUP2 ADD PUSH1 0x40 MSTORE DUP1 SWAP3 SWAP2 SWAP1 DUP2 DUP2 MSTORE PUSH1 0x20 ADD DUP3 DUP1 SLOAD PUSH2 0x599 SWAP1 PUSH2 0x18C2 JUMP JUMPDEST DUP1 ISZERO PUSH2 0x5E4 JUMPI DUP1 PUSH1 0x1F LT PUSH2 0x5BB JUMPI PUSH2 0x100 DUP1 DUP4 SLOAD DIV MUL DUP4 MSTORE SWAP2 PUSH1 0x20 ADD SWAP2 PUSH2 0x5E4 JUMP JUMPDEST DUP3 ADD SWAP2 SWAP1 PUSH0 MSTORE PUSH1 0x20 PUSH0 KECCAK256 SWAP1 JUMPDEST DUP2 SLOAD DUP2 MSTORE SWAP1 PUSH1 0x1 ADD SWAP1 PUSH1 0x20 ADD DUP1 DUP4 GT PUSH2 0x5C7 JUMPI DUP3 SWAP1 SUB PUSH1 0x1F AND DUP3 ADD SWAP2 JUMPDEST POP POP POP POP POP DUP2 MSTORE PUSH1 0x20 ADD SWAP1 PUSH1 0x1 ADD SWAP1 PUSH2 0x550 JUMP JUMPDEST POP POP POP POP SWAP1 POP DUP1 SWAP2 POP POP SWAP2 SWAP1 POP JUMP JUMPDEST PUSH0 PUSH2 0x612 CALLER DUP4 PUSH2 0x618 JUMP JUMPDEST POP SWAP2 SWAP1 POP JUMP JUMPDEST PUSH0 DUP1 PUSH20 0xFFFFFFFFFFFFFFFFFFFFFFFFFFFFFFFFFFFFFFFF AND DUP4 PUSH20 0xFFFFFFFFFFFFFFFFFFFFFFFFFFFFFFFFFFFFFFFF AND SUB PUSH2 0x687 JUMPI PUSH1 0x40 MLOAD PUSH32 0x8C379A000000000000000000000000000000000000000000000000000000000 DUP2 MSTORE PUSH1 0x4 ADD PUSH2 0x67E SWAP1 PUSH2 0x1BA8 JUMP JUMPDEST PUSH1 0x40 MLOAD DUP1 SWAP2 SUB SWAP1 REVERT JUMPDEST PUSH0 DUP3 LT ISZERO DUP1 ISZERO PUSH2 0x69B JUMPI POP PUSH1 0x1 DUP1 SLOAD SWAP1 POP DUP3 LT JUMPDEST PUSH2 0x6DA JUMPI PUSH1 0x40 MLOAD PUSH32 0x8C379A000000000000000000000000000000000000000000000000000000000 DUP2 MSTORE PUSH1 0x4 ADD PUSH2 0x6D1 SWAP1 PUSH2 0x1C10 JUMP JUMPDEST PUSH1 0x40 MLOAD DUP1 SWAP2 SUB SWAP1 REVERT JUMPDEST PUSH1 0x1 DUP3 DUP2 SLOAD DUP2 LT PUSH2 0x6EE JUMPI PUSH2 0x6ED PUSH2 0x1738 JUMP JUMPDEST JUMPDEST SWAP1 PUSH0 MSTORE PUSH1 0x20 PUSH0 KECCAK256 SWAP1 PUSH1 0x5 MUL ADD PUSH1 0x4 ADD PUSH0 DUP5 PUSH20 0xFFFFFFFFFFFFFFFFFFFFFFFFFFFFFFFFFFFFFFFF AND PUSH20 0xFFFFFFFFFFFFFFFFFFFFFFFFFFFFFFFFFFFFFFFF AND DUP2 MSTORE PUSH1 0x20 ADD SWAP1 DUP2 MSTORE PUSH1 0x20 ADD PUSH0 KECCAK256 PUSH0 SWAP1 SLOAD SWAP1 PUSH2 0x100 EXP SWAP1 DIV PUSH1 0xFF AND SWAP1 POP SWAP3 SWAP2 POP POP JUMP JUMPDEST PUSH2 0x755 PUSH2 0xCDB JUMP JUMPDEST PUSH2 0x75E PUSH0 PUSH2 0xD62 JUMP JUMPDEST JUMP JUMPDEST PUSH2 0x768 PUSH2 0xCDB JUMP JUMPDEST PUSH0 DUP3 LT ISZERO DUP1 ISZERO PUSH2 0x77C JUMPI POP PUSH1 0x1 DUP1 SLOAD SWAP1 POP DUP3 LT JUMPDEST PUSH2 0x7BB JUMPI PUSH1 0x40 MLOAD PUSH32 0x8C379A000000000000000000000000000000000000000000000000000000000 DUP2 MSTORE PUSH1 0x4 ADD PUSH2 0x7B2 SWAP1 PUSH2 0x171A JUMP JUMPDEST PUSH1 0x40 MLOAD DUP1 SWAP2 SUB SWAP1 REVERT JUMPDEST DUP1 ISZERO ISZERO PUSH1 0x1 DUP4 DUP2 SLOAD DUP2 LT PUSH2 0x7D2 JUMPI PUSH2 0x7D1 PUSH2 0x1738 JUMP JUMPDEST JUMPDEST SWAP1 PUSH0 MSTORE PUSH1 0x20 PUSH0 KECCAK256 SWAP1 PUSH1 0x5 MUL ADD PUSH1 0x3 ADD PUSH0 SWAP1 SLOAD SWAP1 PUSH2 0x100 EXP SWAP1 DIV PUSH1 0xFF AND ISZERO ISZERO SUB PUSH2 0x830 JUMPI PUSH1 0x40 MLOAD PUSH32 0x8C379A000000000000000000000000000000000000000000000000000000000 DUP2 MSTORE PUSH1 0x4 ADD PUSH2 0x827 SWAP1 PUSH2 0x1C9E JUMP JUMPDEST PUSH1 0x40 MLOAD DUP1 SWAP2 SUB SWAP1 REVERT JUMPDEST DUP1 PUSH1 0x1 DUP4 DUP2 SLOAD DUP2 LT PUSH2 0x845 JUMPI PUSH2 0x844 PUSH2 0x1738 JUMP JUMPDEST JUMPDEST SWAP1 PUSH0 MSTORE PUSH1 0x20 PUSH0 KECCAK256 SWAP1 PUSH1 0x5 MUL ADD PUSH1 0x3 ADD PUSH0 PUSH2 0x100 EXP DUP2 SLOAD DUP2 PUSH1 0xFF MUL NOT AND SWAP1 DUP4 ISZERO ISZERO MUL OR SWAP1 SSTORE POP POP POP JUMP JUMPDEST PUSH1 0x1 DUP2 DUP2 SLOAD DUP2 LT PUSH2 0x87D JUMPI PUSH0 DUP1 REVERT JUMPDEST SWAP1 PUSH0 MSTORE PUSH1 0x20 PUSH0 KECCAK256 SWAP1 PUSH1 0x5 MUL ADD PUSH0 SWAP2 POP SWAP1 POP DUP1 PUSH0 ADD DUP1 SLOAD PUSH2 0x89C SWAP1 PUSH2 0x18C2 JUMP JUMPDEST DUP1 PUSH1 0x1F ADD PUSH1 0x20 DUP1 SWAP2 DIV MUL PUSH1 0x20 ADD PUSH1 0x40 MLOAD SWAP1 DUP2 ADD PUSH1 0x40 MSTORE DUP1 SWAP3 SWAP2 SWAP1 DUP2 DUP2 MSTORE PUSH1 0x20 ADD DUP3 DUP1 SLOAD PUSH2 0x8C8 SWAP1 PUSH2 0x18C2 JUMP JUMPDEST DUP1 ISZERO PUSH2 0x913 JUMPI DUP1 PUSH1 0x1F LT PUSH2 0x8EA JUMPI PUSH2 0x100 DUP1 DUP4 SLOAD DIV MUL DUP4 MSTORE SWAP2 PUSH1 0x20 ADD SWAP2 PUSH2 0x913 JUMP JUMPDEST DUP3 ADD SWAP2 SWAP1 PUSH0 MSTORE PUSH1 0x20 PUSH0 KECCAK256 SWAP1 JUMPDEST DUP2 SLOAD DUP2 MSTORE SWAP1 PUSH1 0x1 ADD SWAP1 PUSH1 0x20 ADD DUP1 DUP4 GT PUSH2 0x8F6 JUMPI DUP3 SWAP1 SUB PUSH1 0x1F AND DUP3 ADD SWAP2 JUMPDEST POP POP POP POP POP SWAP1 DUP1 PUSH1 0x3 ADD PUSH0 SWAP1 SLOAD SWAP1 PUSH2 0x100 EXP SWAP1 DIV PUSH1 0xFF AND SWAP1 POP DUP3 JUMP JUMPDEST PUSH0 DUP1 PUSH0 SWAP1 SLOAD SWAP1 PUSH2 0x100 EXP SWAP1 DIV PUSH20 0xFFFFFFFFFFFFFFFFFFFFFFFFFFFFFFFFFFFFFFFF AND SWAP1 POP SWAP1 JUMP JUMPDEST PUSH0 PUSH1 0x1 DUP1 SLOAD SWAP1 POP SWAP1 POP SWAP1 JUMP JUMPDEST PUSH0 DUP3 LT ISZERO DUP1 ISZERO PUSH2 0x976 JUMPI POP PUSH1 0x1 DUP1 SLOAD SWAP1 POP DUP3 LT JUMPDEST PUSH2 0x9B5 JUMPI PUSH1 0x40 MLOAD PUSH32 0x8C379A000000000000000000000000000000000000000000000000000000000 DUP2 MSTORE PUSH1 0x4 ADD PUSH2 0x9AC SWAP1 PUSH2 0x1D06 JUMP JUMPDEST PUSH1 0x40 MLOAD DUP1 SWAP2 SUB SWAP1 REVERT JUMPDEST PUSH1 0x1 DUP3 DUP2 SLOAD DUP2 LT PUSH2 0x9C9 JUMPI PUSH2 0x9C8 PUSH2 0x1738 JUMP JUMPDEST JUMPDEST SWAP1 PUSH0 MSTORE PUSH1 0x20 PUSH0 KECCAK256 SWAP1 PUSH1 0x5 MUL ADD PUSH1 0x3 ADD PUSH0 SWAP1 SLOAD SWAP1 PUSH2 0x100 EXP SWAP1 DIV PUSH1 0xFF AND PUSH2 0xA24 JUMPI PUSH1 0x40 MLOAD PUSH32 0x8C379A000000000000000000000000000000000000000000000000000000000 DUP2 MSTORE PUSH1 0x4 ADD PUSH2 0xA1B SWAP1 PUSH2 0x1D6E JUMP JUMPDEST PUSH1 0x40 MLOAD DUP1 SWAP2 SUB SWAP1 REVERT JUMPDEST PUSH1 0x1 DUP3 DUP2 SLOAD DUP2 LT PUSH2 0xA38 JUMPI PUSH2 0xA37 PUSH2 0x1738 JUMP JUMPDEST JUMPDEST SWAP1 PUSH0 MSTORE PUSH1 0x20 PUSH0 KECCAK256 SWAP1 PUSH1 0x5 MUL ADD PUSH1 0x1 ADD DUP1 SLOAD SWAP1 POP DUP2 LT PUSH2 0xA8C JUMPI PUSH1 0x40 MLOAD PUSH32 0x8C379A000000000000000000000000000000000000000000000000000000000 DUP2 MSTORE PUSH1 0x4 ADD PUSH2 0xA83 SWAP1 PUSH2 0x1DD6 JUMP JUMPDEST PUSH1 0x40 MLOAD DUP1 SWAP2 SUB SWAP1 REVERT JUMPDEST PUSH0 ISZERO ISZERO PUSH1 0x1 DUP4 DUP2 SLOAD DUP2 LT PUSH2 0xAA3 JUMPI PUSH2 0xAA2 PUSH2 0x1738 JUMP JUMPDEST JUMPDEST SWAP1 PUSH0 MSTORE PUSH1 0x20 PUSH0 KECCAK256 SWAP1 PUSH1 0x5 MUL ADD PUSH1 0x4 ADD PUSH0 CALLER PUSH20 0xFFFFFFFFFFFFFFFFFFFFFFFFFFFFFFFFFFFFFFFF AND PUSH20 0xFFFFFFFFFFFFFFFFFFFFFFFFFFFFFFFFFFFFFFFF AND DUP2 MSTORE PUSH1 0x20 ADD SWAP1 DUP2 MSTORE PUSH1 0x20 ADD PUSH0 KECCAK256 PUSH0 SWAP1 SLOAD SWAP1 PUSH2 0x100 EXP SWAP1 DIV PUSH1 0xFF AND ISZERO ISZERO EQ PUSH2 0xB3C JUMPI PUSH1 0x40 MLOAD PUSH32 0x8C379A000000000000000000000000000000000000000000000000000000000 DUP2 MSTORE PUSH1 0x4 ADD PUSH2 0xB33 SWAP1 PUSH2 0x1E3E JUMP JUMPDEST PUSH1 0x40 MLOAD DUP1 SWAP2 SUB SWAP1 REVERT JUMPDEST PUSH1 0x1 DUP3 DUP2 SLOAD DUP2 LT PUSH2 0xB50 JUMPI PUSH2 0xB4F PUSH2 0x1738 JUMP JUMPDEST JUMPDEST SWAP1 PUSH0 MSTORE PUSH1 0x20 PUSH0 KECCAK256 SWAP1 PUSH1 0x5 MUL ADD PUSH1 0x2 ADD DUP2 DUP2 SLOAD DUP2 LT PUSH2 0xB71 JUMPI PUSH2 0xB70 PUSH2 0x1738 JUMP JUMPDEST JUMPDEST SWAP1 PUSH0 MSTORE PUSH1 0x20 PUSH0 KECCAK256 ADD PUSH0 DUP2 SLOAD DUP1 SWAP3 SWAP2 SWAP1 PUSH2 0xB89 SWAP1 PUSH2 0x1E5C JUMP JUMPDEST SWAP2 SWAP1 POP SSTORE POP PUSH1 0x1 DUP1 DUP4 DUP2 SLOAD DUP2 LT PUSH2 0xBA3 JUMPI PUSH2 0xBA2 PUSH2 0x1738 JUMP JUMPDEST JUMPDEST SWAP1 PUSH0 MSTORE PUSH1 0x20 PUSH0 KECCAK256 SWAP1 PUSH1 0x5 MUL ADD PUSH1 0x4 ADD PUSH0 CALLER PUSH20 0xFFFFFFFFFFFFFFFFFFFFFFFFFFFFFFFFFFFFFFFF AND PUSH20 0xFFFFFFFFFFFFFFFFFFFFFFFFFFFFFFFFFFFFFFFF AND DUP2 MSTORE PUSH1 0x20 ADD SWAP1 DUP2 MSTORE PUSH1 0x20 ADD PUSH0 KECCAK256 PUSH0 PUSH2 0x100 EXP DUP2 SLOAD DUP2 PUSH1 0xFF MUL NOT AND SWAP1 DUP4 ISZERO ISZERO MUL OR SWAP1 SSTORE POP CALLER PUSH20 0xFFFFFFFFFFFFFFFFFFFFFFFFFFFFFFFFFFFFFFFF AND PUSH32 0xEA66F58E474BC09F580000E81F31B334D171DB387D0C6098BA47BD897741679B DUP4 DUP4 PUSH1 0x40 MLOAD PUSH2 0xC4B SWAP3 SWAP2 SWAP1 PUSH2 0x1EA3 JUMP JUMPDEST PUSH1 0x40 MLOAD DUP1 SWAP2 SUB SWAP1 LOG2 POP POP JUMP JUMPDEST PUSH2 0xC5F PUSH2 0xCDB JUMP JUMPDEST PUSH0 PUSH20 0xFFFFFFFFFFFFFFFFFFFFFFFFFFFFFFFFFFFFFFFF AND DUP2 PUSH20 0xFFFFFFFFFFFFFFFFFFFFFFFFFFFFFFFFFFFFFFFF AND SUB PUSH2 0xCCF JUMPI PUSH0 PUSH1 0x40 MLOAD PUSH32 0x1E4FBDF700000000000000000000000000000000000000000000000000000000 DUP2 MSTORE PUSH1 0x4 ADD PUSH2 0xCC6 SWAP2 SWAP1 PUSH2 0x1626 JUMP JUMPDEST PUSH1 0x40 MLOAD DUP1 SWAP2 SUB SWAP1 REVERT JUMPDEST PUSH2 0xCD8 DUP2 PUSH2 0xD62 JUMP JUMPDEST POP JUMP JUMPDEST PUSH2 0xCE3 PUSH2 0xE23 JUMP JUMPDEST PUSH20 0xFFFFFFFFFFFFFFFFFFFFFFFFFFFFFFFFFFFFFFFF AND PUSH2 0xD01 PUSH2 0x92F JUMP JUMPDEST PUSH20 0xFFFFFFFFFFFFFFFFFFFFFFFFFFFFFFFFFFFFFFFF AND EQ PUSH2 0xD60 JUMPI PUSH2 0xD24 PUSH2 0xE23 JUMP JUMPDEST PUSH1 0x40 MLOAD PUSH32 0x118CDAA700000000000000000000000000000000000000000000000000000000 DUP2 MSTORE PUSH1 0x4 ADD PUSH2 0xD57 SWAP2 SWAP1 PUSH2 0x1626 JUMP JUMPDEST PUSH1 0x40 MLOAD DUP1 SWAP2 SUB SWAP1 REVERT JUMPDEST JUMP JUMPDEST PUSH0 DUP1 PUSH0 SWAP1 SLOAD SWAP1 PUSH2 0x100 EXP SWAP1 DIV PUSH20 0xFFFFFFFFFFFFFFFFFFFFFFFFFFFFFFFFFFFFFFFF AND SWAP1 POP DUP2 PUSH0 DUP1 PUSH2 0x100 EXP DUP2 SLOAD DUP2 PUSH20 0xFFFFFFFFFFFFFFFFFFFFFFFFFFFFFFFFFFFFFFFF MUL NOT AND SWAP1 DUP4 PUSH20 0xFFFFFFFFFFFFFFFFFFFFFFFFFFFFFFFFFFFFFFFF AND MUL OR SWAP1 SSTORE POP DUP2 PUSH20 0xFFFFFFFFFFFFFFFFFFFFFFFFFFFFFFFFFFFFFFFF AND DUP2 PUSH20 0xFFFFFFFFFFFFFFFFFFFFFFFFFFFFFFFFFFFFFFFF AND PUSH32 0x8BE0079C531659141344CD1FD0A4F28419497F9722A3DAAFE3B4186F6B6457E0 PUSH1 0x40 MLOAD PUSH1 0x40 MLOAD DUP1 SWAP2 SUB SWAP1 LOG3 POP POP JUMP JUMPDEST PUSH0 CALLER SWAP1 POP SWAP1 JUMP JUMPDEST DUP3 DUP1 SLOAD DUP3 DUP3 SSTORE SWAP1 PUSH0 MSTORE PUSH1 0x20 PUSH0 KECCAK256 SWAP1 DUP2 ADD SWAP3 DUP3 ISZERO PUSH2 0xE70 JUMPI SWAP2 PUSH1 0x20 MUL DUP3 ADD JUMPDEST DUP3 DUP2 GT ISZERO PUSH2 0xE6F JUMPI DUP3 MLOAD DUP3 SWAP1 DUP2 PUSH2 0xE5F SWAP2 SWAP1 PUSH2 0x1A8F JUMP JUMPDEST POP SWAP2 PUSH1 0x20 ADD SWAP2 SWAP1 PUSH1 0x1 ADD SWAP1 PUSH2 0xE48 JUMP JUMPDEST JUMPDEST POP SWAP1 POP PUSH2 0xE7D SWAP2 SWAP1 PUSH2 0xECC JUMP JUMPDEST POP SWAP1 JUMP JUMPDEST DUP3 DUP1 SLOAD DUP3 DUP3 SSTORE SWAP1 PUSH0 MSTORE PUSH1 0x20 PUSH0 KECCAK256 SWAP1 DUP2 ADD SWAP3 DUP3 ISZERO PUSH2 0xEBB JUMPI SWAP2 PUSH1 0x20 MUL DUP3 ADD JUMPDEST DUP3 DUP2 GT ISZERO PUSH2 0xEBA JUMPI DUP3 MLOAD DUP3 SSTORE SWAP2 PUSH1 0x20 ADD SWAP2 SWAP1 PUSH1 0x1 ADD SWAP1 PUSH2 0xE9F JUMP JUMPDEST JUMPDEST POP SWAP1 POP PUSH2 0xEC8 SWAP2 SWAP1 PUSH2 0xEEF JUMP JUMPDEST POP SWAP1 JUMP JUMPDEST JUMPDEST DUP1 DUP3 GT ISZERO PUSH2 0xEEB JUMPI PUSH0 DUP2 DUP2 PUSH2 0xEE2 SWAP2 SWAP1 PUSH2 0xF0A JUMP JUMPDEST POP PUSH1 0x1 ADD PUSH2 0xECD JUMP JUMPDEST POP SWAP1 JUMP JUMPDEST JUMPDEST DUP1 DUP3 GT ISZERO PUSH2 0xF06 JUMPI PUSH0 DUP2 PUSH0 SWAP1 SSTORE POP PUSH1 0x1 ADD PUSH2 0xEF0 JUMP JUMPDEST POP SWAP1 JUMP JUMPDEST POP DUP1 SLOAD PUSH2 0xF16 SWAP1 PUSH2 0x18C2 JUMP JUMPDEST PUSH0 DUP3 SSTORE DUP1 PUSH1 0x1F LT PUSH2 0xF27 JUMPI POP PUSH2 0xF44 JUMP JUMPDEST PUSH1 0x1F ADD PUSH1 0x20 SWAP1 DIV SWAP1 PUSH0 MSTORE PUSH1 0x20 PUSH0 KECCAK256 SWAP1 DUP2 ADD SWAP1 PUSH2 0xF43 SWAP2 SWAP1 PUSH2 0xEEF JUMP JUMPDEST JUMPDEST POP JUMP JUMPDEST PUSH0 PUSH1 0x40 MLOAD SWAP1 POP SWAP1 JUMP JUMPDEST PUSH0 DUP1 REVERT JUMPDEST PUSH0 DUP1 REVERT JUMPDEST PUSH0 DUP2 SWAP1 POP SWAP2 SWAP1 POP JUMP JUMPDEST PUSH2 0xF6A DUP2 PUSH2 0xF58 JUMP JUMPDEST DUP2 EQ PUSH2 0xF74 JUMPI PUSH0 DUP1 REVERT JUMPDEST POP JUMP JUMPDEST PUSH0 DUP2 CALLDATALOAD SWAP1 POP PUSH2 0xF85 DUP2 PUSH2 0xF61 JUMP JUMPDEST SWAP3 SWAP2 POP POP JUMP JUMPDEST PUSH0 PUSH1 0x20 DUP3 DUP5 SUB SLT ISZERO PUSH2 0xFA0 JUMPI PUSH2 0xF9F PUSH2 0xF50 JUMP JUMPDEST JUMPDEST PUSH0 PUSH2 0xFAD DUP5 DUP3 DUP6 ADD PUSH2 0xF77 JUMP JUMPDEST SWAP2 POP POP SWAP3 SWAP2 POP POP JUMP JUMPDEST PUSH0 DUP2 MLOAD SWAP1 POP SWAP2 SWAP1 POP JUMP JUMPDEST PUSH0 DUP3 DUP3 MSTORE PUSH1 0x20 DUP3 ADD SWAP1 POP SWAP3 SWAP2 POP POP JUMP JUMPDEST PUSH0 DUP2 SWAP1 POP PUSH1 0x20 DUP3 ADD SWAP1 POP SWAP2 SWAP1 POP JUMP JUMPDEST PUSH2 0xFE8 DUP2 PUSH2 0xF58 JUMP JUMPDEST DUP3 MSTORE POP POP JUMP JUMPDEST PUSH0 PUSH2 0xFF9 DUP4 DUP4 PUSH2 0xFDF JUMP JUMPDEST PUSH1 0x20 DUP4 ADD SWAP1 POP SWAP3 SWAP2 POP POP JUMP JUMPDEST PUSH0 PUSH1 0x20 DUP3 ADD SWAP1 POP SWAP2 SWAP1 POP JUMP JUMPDEST PUSH0 PUSH2 0x101B DUP3 PUSH2 0xFB6 JUMP JUMPDEST PUSH2 0x1025 DUP2 DUP6 PUSH2 0xFC0 JUMP JUMPDEST SWAP4 POP PUSH2 0x1030 DUP4 PUSH2 0xFD0 JUMP JUMPDEST DUP1 PUSH0 JUMPDEST DUP4 DUP2 LT ISZERO PUSH2 0x1060 JUMPI DUP2 MLOAD PUSH2 0x1047 DUP9 DUP3 PUSH2 0xFEE JUMP JUMPDEST SWAP8 POP PUSH2 0x1052 DUP4 PUSH2 0x1005 JUMP JUMPDEST SWAP3 POP POP PUSH1 0x1 DUP2 ADD SWAP1 POP PUSH2 0x1033 JUMP JUMPDEST POP DUP6 SWAP4 POP POP POP POP SWAP3 SWAP2 POP POP JUMP JUMPDEST PUSH0 PUSH1 0x20 DUP3 ADD SWAP1 POP DUP2 DUP2 SUB PUSH0 DUP4 ADD MSTORE PUSH2 0x1085 DUP2 DUP5 PUSH2 0x1011 JUMP JUMPDEST SWAP1 POP SWAP3 SWAP2 POP POP JUMP JUMPDEST PUSH0 DUP1 REVERT JUMPDEST PUSH0 DUP1 REVERT JUMPDEST PUSH0 PUSH1 0x1F NOT PUSH1 0x1F DUP4 ADD AND SWAP1 POP SWAP2 SWAP1 POP JUMP JUMPDEST PUSH32 0x4E487B7100000000000000000000000000000000000000000000000000000000 PUSH0 MSTORE PUSH1 0x41 PUSH1 0x4 MSTORE PUSH1 0x24 PUSH0 REVERT JUMPDEST PUSH2 0x10DB DUP3 PUSH2 0x1095 JUMP JUMPDEST DUP2 ADD DUP2 DUP2 LT PUSH8 0xFFFFFFFFFFFFFFFF DUP3 GT OR ISZERO PUSH2 0x10FA JUMPI PUSH2 0x10F9 PUSH2 0x10A5 JUMP JUMPDEST JUMPDEST DUP1 PUSH1 0x40 MSTORE POP POP POP JUMP JUMPDEST PUSH0 PUSH2 0x110C PUSH2 0xF47 JUMP JUMPDEST SWAP1 POP PUSH2 0x1118 DUP3 DUP3 PUSH2 0x10D2 JUMP JUMPDEST SWAP2 SWAP1 POP JUMP JUMPDEST PUSH0 PUSH8 0xFFFFFFFFFFFFFFFF DUP3 GT ISZERO PUSH2 0x1137 JUMPI PUSH2 0x1136 PUSH2 0x10A5 JUMP JUMPDEST JUMPDEST PUSH2 0x1140 DUP3 PUSH2 0x1095 JUMP JUMPDEST SWAP1 POP PUSH1 0x20 DUP2 ADD SWAP1 POP SWAP2 SWAP1 POP JUMP JUMPDEST DUP3 DUP2 DUP4 CALLDATACOPY PUSH0 DUP4 DUP4 ADD MSTORE POP POP POP JUMP JUMPDEST PUSH0 PUSH2 0x116D PUSH2 0x1168 DUP5 PUSH2 0x111D JUMP JUMPDEST PUSH2 0x1103 JUMP JUMPDEST SWAP1 POP DUP3 DUP2 MSTORE PUSH1 0x20 DUP2 ADD DUP5 DUP5 DUP5 ADD GT ISZERO PUSH2 0x1189 JUMPI PUSH2 0x1188 PUSH2 0x1091 JUMP JUMPDEST JUMPDEST PUSH2 0x1194 DUP5 DUP3 DUP6 PUSH2 0x114D JUMP JUMPDEST POP SWAP4 SWAP3 POP POP POP JUMP JUMPDEST PUSH0 DUP3 PUSH1 0x1F DUP4 ADD SLT PUSH2 0x11B0 JUMPI PUSH2 0x11AF PUSH2 0x108D JUMP JUMPDEST JUMPDEST DUP2 CALLDATALOAD PUSH2 0x11C0 DUP5 DUP3 PUSH1 0x20 DUP7 ADD PUSH2 0x115B JUMP JUMPDEST SWAP2 POP POP SWAP3 SWAP2 POP POP JUMP JUMPDEST PUSH0 PUSH8 0xFFFFFFFFFFFFFFFF DUP3 GT ISZERO PUSH2 0x11E3 JUMPI PUSH2 0x11E2 PUSH2 0x10A5 JUMP JUMPDEST JUMPDEST PUSH1 0x20 DUP3 MUL SWAP1 POP PUSH1 0x20 DUP2 ADD SWAP1 POP SWAP2 SWAP1 POP JUMP JUMPDEST PUSH0 DUP1 REVERT JUMPDEST PUSH0 PUSH2 0x120A PUSH2 0x1205 DUP5 PUSH2 0x11C9 JUMP JUMPDEST PUSH2 0x1103 JUMP JUMPDEST SWAP1 POP DUP1 DUP4 DUP3 MSTORE PUSH1 0x20 DUP3 ADD SWAP1 POP PUSH1 0x20 DUP5 MUL DUP4 ADD DUP6 DUP2 GT ISZERO PUSH2 0x122D JUMPI PUSH2 0x122C PUSH2 0x11F4 JUMP JUMPDEST JUMPDEST DUP4 JUMPDEST DUP2 DUP2 LT ISZERO PUSH2 0x1274 JUMPI DUP1 CALLDATALOAD PUSH8 0xFFFFFFFFFFFFFFFF DUP2 GT ISZERO PUSH2 0x1252 JUMPI PUSH2 0x1251 PUSH2 0x108D JUMP JUMPDEST JUMPDEST DUP1 DUP7 ADD PUSH2 0x125F DUP10 DUP3 PUSH2 0x119C JUMP JUMPDEST DUP6 MSTORE PUSH1 0x20 DUP6 ADD SWAP5 POP POP POP PUSH1 0x20 DUP2 ADD SWAP1 POP PUSH2 0x122F JUMP JUMPDEST POP POP POP SWAP4 SWAP3 POP POP POP JUMP JUMPDEST PUSH0 DUP3 PUSH1 0x1F DUP4 ADD SLT PUSH2 0x1292 JUMPI PUSH2 0x1291 PUSH2 0x108D JUMP JUMPDEST JUMPDEST DUP2 CALLDATALOAD PUSH2 0x12A2 DUP5 DUP3 PUSH1 0x20 DUP7 ADD PUSH2 0x11F8 JUMP JUMPDEST SWAP2 POP POP SWAP3 SWAP2 POP POP JUMP JUMPDEST PUSH0 DUP2 ISZERO ISZERO SWAP1 POP SWAP2 SWAP1 POP JUMP JUMPDEST PUSH2 0x12BF DUP2 PUSH2 0x12AB JUMP JUMPDEST DUP2 EQ PUSH2 0x12C9 JUMPI PUSH0 DUP1 REVERT JUMPDEST POP JUMP JUMPDEST PUSH0 DUP2 CALLDATALOAD SWAP1 POP PUSH2 0x12DA DUP2 PUSH2 0x12B6 JUMP JUMPDEST SWAP3 SWAP2 POP POP JUMP JUMPDEST PUSH0 DUP1 PUSH0 PUSH1 0x60 DUP5 DUP7 SUB SLT ISZERO PUSH2 0x12F7 JUMPI PUSH2 0x12F6 PUSH2 0xF50 JUMP JUMPDEST JUMPDEST PUSH0 DUP5 ADD CALLDATALOAD PUSH8 0xFFFFFFFFFFFFFFFF DUP2 GT ISZERO PUSH2 0x1314 JUMPI PUSH2 0x1313 PUSH2 0xF54 JUMP JUMPDEST JUMPDEST PUSH2 0x1320 DUP7 DUP3 DUP8 ADD PUSH2 0x119C JUMP JUMPDEST SWAP4 POP POP PUSH1 0x20 DUP5 ADD CALLDATALOAD PUSH8 0xFFFFFFFFFFFFFFFF DUP2 GT ISZERO PUSH2 0x1341 JUMPI PUSH2 0x1340 PUSH2 0xF54 JUMP JUMPDEST JUMPDEST PUSH2 0x134D DUP7 DUP3 DUP8 ADD PUSH2 0x127E JUMP JUMPDEST SWAP3 POP POP PUSH1 0x40 PUSH2 0x135E DUP7 DUP3 DUP8 ADD PUSH2 0x12CC JUMP JUMPDEST SWAP2 POP POP SWAP3 POP SWAP3 POP SWAP3 JUMP JUMPDEST PUSH0 DUP2 MLOAD SWAP1 POP SWAP2 SWAP1 POP JUMP JUMPDEST PUSH0 DUP3 DUP3 MSTORE PUSH1 0x20 DUP3 ADD SWAP1 POP SWAP3 SWAP2 POP POP JUMP JUMPDEST PUSH0 DUP2 SWAP1 POP PUSH1 0x20 DUP3 ADD SWAP1 POP SWAP2 SWAP1 POP JUMP JUMPDEST PUSH0 DUP2 MLOAD SWAP1 POP SWAP2 SWAP1 POP JUMP JUMPDEST PUSH0 DUP3 DUP3 MSTORE PUSH1 0x20 DUP3 ADD SWAP1 POP SWAP3 SWAP2 POP POP JUMP JUMPDEST DUP3 DUP2 DUP4 MCOPY PUSH0 DUP4 DUP4 ADD MSTORE POP POP POP JUMP JUMPDEST PUSH0 PUSH2 0x13C3 DUP3 PUSH2 0x1391 JUMP JUMPDEST PUSH2 0x13CD DUP2 DUP6 PUSH2 0x139B JUMP JUMPDEST SWAP4 POP PUSH2 0x13DD DUP2 DUP6 PUSH1 0x20 DUP7 ADD PUSH2 0x13AB JUMP JUMPDEST PUSH2 0x13E6 DUP2 PUSH2 0x1095 JUMP JUMPDEST DUP5 ADD SWAP2 POP POP SWAP3 SWAP2 POP POP JUMP JUMPDEST PUSH0 PUSH2 0x13FC DUP4 DUP4 PUSH2 0x13B9 JUMP JUMPDEST SWAP1 POP SWAP3 SWAP2 POP POP JUMP JUMPDEST PUSH0 PUSH1 0x20 DUP3 ADD SWAP1 POP SWAP2 SWAP1 POP JUMP JUMPDEST PUSH0 PUSH2 0x141A DUP3 PUSH2 0x1368 JUMP JUMPDEST PUSH2 0x1424 DUP2 DUP6 PUSH2 0x1372 JUMP JUMPDEST SWAP4 POP DUP4 PUSH1 0x20 DUP3 MUL DUP6 ADD PUSH2 0x1436 DUP6 PUSH2 0x1382 JUMP JUMPDEST DUP1 PUSH0 JUMPDEST DUP6 DUP2 LT ISZERO PUSH2 0x1471 JUMPI DUP5 DUP5 SUB DUP10 MSTORE DUP2 MLOAD PUSH2 0x1452 DUP6 DUP3 PUSH2 0x13F1 JUMP JUMPDEST SWAP5 POP PUSH2 0x145D DUP4 PUSH2 0x1404 JUMP JUMPDEST SWAP3 POP PUSH1 0x20 DUP11 ADD SWAP10 POP POP PUSH1 0x1 DUP2 ADD SWAP1 POP PUSH2 0x1439 JUMP JUMPDEST POP DUP3 SWAP8 POP DUP8 SWAP6 POP POP POP POP POP POP SWAP3 SWAP2 POP POP JUMP JUMPDEST PUSH0 PUSH1 0x20 DUP3 ADD SWAP1 POP DUP2 DUP2 SUB PUSH0 DUP4 ADD MSTORE PUSH2 0x149B DUP2 DUP5 PUSH2 0x1410 JUMP JUMPDEST SWAP1 POP SWAP3 SWAP2 POP POP JUMP JUMPDEST PUSH2 0x14AC DUP2 PUSH2 0x12AB JUMP JUMPDEST DUP3 MSTORE POP POP JUMP JUMPDEST PUSH0 PUSH1 0x20 DUP3 ADD SWAP1 POP PUSH2 0x14C5 PUSH0 DUP4 ADD DUP5 PUSH2 0x14A3 JUMP JUMPDEST SWAP3 SWAP2 POP POP JUMP JUMPDEST PUSH0 PUSH20 0xFFFFFFFFFFFFFFFFFFFFFFFFFFFFFFFFFFFFFFFF DUP3 AND SWAP1 POP SWAP2 SWAP1 POP JUMP JUMPDEST PUSH0 PUSH2 0x14F4 DUP3 PUSH2 0x14CB JUMP JUMPDEST SWAP1 POP SWAP2 SWAP1 POP JUMP JUMPDEST PUSH2 0x1504 DUP2 PUSH2 0x14EA JUMP JUMPDEST DUP2 EQ PUSH2 0x150E JUMPI PUSH0 DUP1 REVERT JUMPDEST POP JUMP JUMPDEST PUSH0 DUP2 CALLDATALOAD SWAP1 POP PUSH2 0x151F DUP2 PUSH2 0x14FB JUMP JUMPDEST SWAP3 SWAP2 POP POP JUMP JUMPDEST PUSH0 DUP1 PUSH1 0x40 DUP4 DUP6 SUB SLT ISZERO PUSH2 0x153B JUMPI PUSH2 0x153A PUSH2 0xF50 JUMP JUMPDEST JUMPDEST PUSH0 PUSH2 0x1548 DUP6 DUP3 DUP7 ADD PUSH2 0x1511 JUMP JUMPDEST SWAP3 POP POP PUSH1 0x20 PUSH2 0x1559 DUP6 DUP3 DUP7 ADD PUSH2 0xF77 JUMP JUMPDEST SWAP2 POP POP SWAP3 POP SWAP3 SWAP1 POP JUMP JUMPDEST PUSH0 DUP1 PUSH1 0x40 DUP4 DUP6 SUB SLT ISZERO PUSH2 0x1579 JUMPI PUSH2 0x1578 PUSH2 0xF50 JUMP JUMPDEST JUMPDEST PUSH0 PUSH2 0x1586 DUP6 DUP3 DUP7 ADD PUSH2 0xF77 JUMP JUMPDEST SWAP3 POP POP PUSH1 0x20 PUSH2 0x1597 DUP6 DUP3 DUP7 ADD PUSH2 0x12CC JUMP JUMPDEST SWAP2 POP POP SWAP3 POP SWAP3 SWAP1 POP JUMP JUMPDEST PUSH0 DUP3 DUP3 MSTORE PUSH1 0x20 DUP3 ADD SWAP1 POP SWAP3 SWAP2 POP POP JUMP JUMPDEST PUSH0 PUSH2 0x15BB DUP3 PUSH2 0x1391 JUMP JUMPDEST PUSH2 0x15C5 DUP2 DUP6 PUSH2 0x15A1 JUMP JUMPDEST SWAP4 POP PUSH2 0x15D5 DUP2 DUP6 PUSH1 0x20 DUP7 ADD PUSH2 0x13AB JUMP JUMPDEST PUSH2 0x15DE DUP2 PUSH2 0x1095 JUMP JUMPDEST DUP5 ADD SWAP2 POP POP SWAP3 SWAP2 POP POP JUMP JUMPDEST PUSH0 PUSH1 0x40 DUP3 ADD SWAP1 POP DUP2 DUP2 SUB PUSH0 DUP4 ADD MSTORE PUSH2 0x1601 DUP2 DUP6 PUSH2 0x15B1 JUMP JUMPDEST SWAP1 POP PUSH2 0x1610 PUSH1 0x20 DUP4 ADD DUP5 PUSH2 0x14A3 JUMP JUMPDEST SWAP4 SWAP3 POP POP POP JUMP JUMPDEST PUSH2 0x1620 DUP2 PUSH2 0x14EA JUMP JUMPDEST DUP3 MSTORE POP POP JUMP JUMPDEST PUSH0 PUSH1 0x20 DUP3 ADD SWAP1 POP PUSH2 0x1639 PUSH0 DUP4 ADD DUP5 PUSH2 0x1617 JUMP JUMPDEST SWAP3 SWAP2 POP POP JUMP JUMPDEST PUSH2 0x1648 DUP2 PUSH2 0xF58 JUMP JUMPDEST DUP3 MSTORE POP POP JUMP JUMPDEST PUSH0 PUSH1 0x20 DUP3 ADD SWAP1 POP PUSH2 0x1661 PUSH0 DUP4 ADD DUP5 PUSH2 0x163F JUMP JUMPDEST SWAP3 SWAP2 POP POP JUMP JUMPDEST PUSH0 DUP1 PUSH1 0x40 DUP4 DUP6 SUB SLT ISZERO PUSH2 0x167D JUMPI PUSH2 0x167C PUSH2 0xF50 JUMP JUMPDEST JUMPDEST PUSH0 PUSH2 0x168A DUP6 DUP3 DUP7 ADD PUSH2 0xF77 JUMP JUMPDEST SWAP3 POP POP PUSH1 0x20 PUSH2 0x169B DUP6 DUP3 DUP7 ADD PUSH2 0xF77 JUMP JUMPDEST SWAP2 POP POP SWAP3 POP SWAP3 SWAP1 POP JUMP JUMPDEST PUSH0 PUSH1 0x20 DUP3 DUP5 SUB SLT ISZERO PUSH2 0x16BA JUMPI PUSH2 0x16B9 PUSH2 0xF50 JUMP JUMPDEST JUMPDEST PUSH0 PUSH2 0x16C7 DUP5 DUP3 DUP6 ADD PUSH2 0x1511 JUMP JUMPDEST SWAP2 POP POP SWAP3 SWAP2 POP POP JUMP JUMPDEST PUSH32 0x696E76616C696420696E64657800000000000000000000000000000000000000 PUSH0 DUP3 ADD MSTORE POP JUMP JUMPDEST PUSH0 PUSH2 0x1704 PUSH1 0xD DUP4 PUSH2 0x15A1 JUMP JUMPDEST SWAP2 POP PUSH2 0x170F DUP3 PUSH2 0x16D0 JUMP JUMPDEST PUSH1 0x20 DUP3 ADD SWAP1 POP SWAP2 SWAP1 POP JUMP JUMPDEST PUSH0 PUSH1 0x20 DUP3 ADD SWAP1 POP DUP2 DUP2 SUB PUSH0 DUP4 ADD MSTORE PUSH2 0x1731 DUP2 PUSH2 0x16F8 JUMP JUMPDEST SWAP1 POP SWAP2 SWAP1 POP JUMP JUMPDEST PUSH32 0x4E487B7100000000000000000000000000000000000000000000000000000000 PUSH0 MSTORE PUSH1 0x32 PUSH1 0x4 MSTORE PUSH1 0x24 PUSH0 REVERT JUMPDEST PUSH32 0x656D707479207175657374696F6E206973206E6F7420616C6C6F776564000000 PUSH0 DUP3 ADD MSTORE POP JUMP JUMPDEST PUSH0 PUSH2 0x1799 PUSH1 0x1D DUP4 PUSH2 0x15A1 JUMP JUMPDEST SWAP2 POP PUSH2 0x17A4 DUP3 PUSH2 0x1765 JUMP JUMPDEST PUSH1 0x20 DUP3 ADD SWAP1 POP SWAP2 SWAP1 POP JUMP JUMPDEST PUSH0 PUSH1 0x20 DUP3 ADD SWAP1 POP DUP2 DUP2 SUB PUSH0 DUP4 ADD MSTORE PUSH2 0x17C6 DUP2 PUSH2 0x178D JUMP JUMPDEST SWAP1 POP SWAP2 SWAP1 POP JUMP JUMPDEST PUSH32 0x4174206C656173742032206F7074696F6E732061726520726571756972656400 PUSH0 DUP3 ADD MSTORE POP JUMP JUMPDEST PUSH0 PUSH2 0x1801 PUSH1 0x1F DUP4 PUSH2 0x15A1 JUMP JUMPDEST SWAP2 POP PUSH2 0x180C DUP3 PUSH2 0x17CD JUMP JUMPDEST PUSH1 0x20 DUP3 ADD SWAP1 POP SWAP2 SWAP1 POP JUMP JUMPDEST PUSH0 PUSH1 0x20 DUP3 ADD SWAP1 POP DUP2 DUP2 SUB PUSH0 DUP4 ADD MSTORE PUSH2 0x182E DUP2 PUSH2 0x17F5 JUMP JUMPDEST SWAP1 POP SWAP2 SWAP1 POP JUMP JUMPDEST PUSH32 0x4E487B7100000000000000000000000000000000000000000000000000000000 PUSH0 MSTORE PUSH1 0x11 PUSH1 0x4 MSTORE PUSH1 0x24 PUSH0 REVERT JUMPDEST PUSH0 PUSH2 0x186C DUP3 PUSH2 0xF58 JUMP JUMPDEST SWAP2 POP PUSH2 0x1877 DUP4 PUSH2 0xF58 JUMP JUMPDEST SWAP3 POP DUP3 DUP3 SUB SWAP1 POP DUP2 DUP2 GT ISZERO PUSH2 0x188F JUMPI PUSH2 0x188E PUSH2 0x1835 JUMP JUMPDEST JUMPDEST SWAP3 SWAP2 POP POP JUMP JUMPDEST PUSH32 0x4E487B7100000000000000000000000000000000000000000000000000000000 PUSH0 MSTORE PUSH1 0x22 PUSH1 0x4 MSTORE PUSH1 0x24 PUSH0 REVERT JUMPDEST PUSH0 PUSH1 0x2 DUP3 DIV SWAP1 POP PUSH1 0x1 DUP3 AND DUP1 PUSH2 0x18D9 JUMPI PUSH1 0x7F DUP3 AND SWAP2 POP JUMPDEST PUSH1 0x20 DUP3 LT DUP2 SUB PUSH2 0x18EC JUMPI PUSH2 0x18EB PUSH2 0x1895 JUMP JUMPDEST JUMPDEST POP SWAP2 SWAP1 POP JUMP JUMPDEST PUSH0 DUP2 SWAP1 POP DUP2 PUSH0 MSTORE PUSH1 0x20 PUSH0 KECCAK256 SWAP1 POP SWAP2 SWAP1 POP JUMP JUMPDEST PUSH0 PUSH1 0x20 PUSH1 0x1F DUP4 ADD DIV SWAP1 POP SWAP2 SWAP1 POP JUMP JUMPDEST PUSH0 DUP3 DUP3 SHL SWAP1 POP SWAP3 SWAP2 POP POP JUMP JUMPDEST PUSH0 PUSH1 0x8 DUP4 MUL PUSH2 0x194E PUSH32 0xFFFFFFFFFFFFFFFFFFFFFFFFFFFFFFFFFFFFFFFFFFFFFFFFFFFFFFFFFFFFFFFF DUP3 PUSH2 0x1913 JUMP JUMPDEST PUSH2 0x1958 DUP7 DUP4 PUSH2 0x1913 JUMP JUMPDEST SWAP6 POP DUP1 NOT DUP5 AND SWAP4 POP DUP1 DUP7 AND DUP5 OR SWAP3 POP POP POP SWAP4 SWAP3 POP POP POP JUMP JUMPDEST PUSH0 DUP2 SWAP1 POP SWAP2 SWAP1 POP JUMP JUMPDEST PUSH0 PUSH2 0x1993 PUSH2 0x198E PUSH2 0x1989 DUP5 PUSH2 0xF58 JUMP JUMPDEST PUSH2 0x1970 JUMP JUMPDEST PUSH2 0xF58 JUMP JUMPDEST SWAP1 POP SWAP2 SWAP1 POP JUMP JUMPDEST PUSH0 DUP2 SWAP1 POP SWAP2 SWAP1 POP JUMP JUMPDEST PUSH2 0x19AC DUP4 PUSH2 0x1979 JUMP JUMPDEST PUSH2 0x19C0 PUSH2 0x19B8 DUP3 PUSH2 0x199A JUMP JUMPDEST DUP5 DUP5 SLOAD PUSH2 0x191F JUMP JUMPDEST DUP3 SSTORE POP POP POP POP JUMP JUMPDEST PUSH0 SWAP1 JUMP JUMPDEST PUSH2 0x19D4 PUSH2 0x19C8 JUMP JUMPDEST PUSH2 0x19DF DUP2 DUP5 DUP5 PUSH2 0x19A3 JUMP JUMPDEST POP POP POP JUMP JUMPDEST JUMPDEST DUP2 DUP2 LT ISZERO PUSH2 0x1A02 JUMPI PUSH2 0x19F7 PUSH0 DUP3 PUSH2 0x19CC JUMP JUMPDEST PUSH1 0x1 DUP2 ADD SWAP1 POP PUSH2 0x19E5 JUMP JUMPDEST POP POP JUMP JUMPDEST PUSH1 0x1F DUP3 GT ISZERO PUSH2 0x1A47 JUMPI PUSH2 0x1A18 DUP2 PUSH2 0x18F2 JUMP JUMPDEST PUSH2 0x1A21 DUP5 PUSH2 0x1904 JUMP JUMPDEST DUP2 ADD PUSH1 0x20 DUP6 LT ISZERO PUSH2 0x1A30 JUMPI DUP2 SWAP1 POP JUMPDEST PUSH2 0x1A44 PUSH2 0x1A3C DUP6 PUSH2 0x1904 JUMP JUMPDEST DUP4 ADD DUP3 PUSH2 0x19E4 JUMP JUMPDEST POP POP JUMPDEST POP POP POP JUMP JUMPDEST PUSH0 DUP3 DUP3 SHR SWAP1 POP SWAP3 SWAP2 POP POP JUMP JUMPDEST PUSH0 PUSH2 0x1A67 PUSH0 NOT DUP5 PUSH1 0x8 MUL PUSH2 0x1A4C JUMP JUMPDEST NOT DUP1 DUP4 AND SWAP2 POP POP SWAP3 SWAP2 POP POP JUMP JUMPDEST PUSH0 PUSH2 0x1A7F DUP4 DUP4 PUSH2 0x1A58 JUMP JUMPDEST SWAP2 POP DUP3 PUSH1 0x2 MUL DUP3 OR SWAP1 POP SWAP3 SWAP2 POP POP JUMP JUMPDEST PUSH2 0x1A98 DUP3 PUSH2 0x1391 JUMP JUMPDEST PUSH8 0xFFFFFFFFFFFFFFFF DUP2 GT ISZERO PUSH2 0x1AB1 JUMPI PUSH2 0x1AB0 PUSH2 0x10A5 JUMP JUMPDEST JUMPDEST PUSH2 0x1ABB DUP3 SLOAD PUSH2 0x18C2 JUMP JUMPDEST PUSH2 0x1AC6 DUP3 DUP3 DUP6 PUSH2 0x1A06 JUMP JUMPDEST PUSH0 PUSH1 0x20 SWAP1 POP PUSH1 0x1F DUP4 GT PUSH1 0x1 DUP2 EQ PUSH2 0x1AF7 JUMPI PUSH0 DUP5 ISZERO PUSH2 0x1AE5 JUMPI DUP3 DUP8 ADD MLOAD SWAP1 POP JUMPDEST PUSH2 0x1AEF DUP6 DUP3 PUSH2 0x1A74 JUMP JUMPDEST DUP7 SSTORE POP PUSH2 0x1B56 JUMP JUMPDEST PUSH1 0x1F NOT DUP5 AND PUSH2 0x1B05 DUP7 PUSH2 0x18F2 JUMP JUMPDEST PUSH0 JUMPDEST DUP3 DUP2 LT ISZERO PUSH2 0x1B2C JUMPI DUP5 DUP10 ADD MLOAD DUP3 SSTORE PUSH1 0x1 DUP3 ADD SWAP2 POP PUSH1 0x20 DUP6 ADD SWAP5 POP PUSH1 0x20 DUP2 ADD SWAP1 POP PUSH2 0x1B07 JUMP JUMPDEST DUP7 DUP4 LT ISZERO PUSH2 0x1B49 JUMPI DUP5 DUP10 ADD MLOAD PUSH2 0x1B45 PUSH1 0x1F DUP10 AND DUP3 PUSH2 0x1A58 JUMP JUMPDEST DUP4 SSTORE POP JUMPDEST PUSH1 0x1 PUSH1 0x2 DUP9 MUL ADD DUP9 SSTORE POP POP POP JUMPDEST POP POP POP POP POP POP JUMP JUMPDEST PUSH32 0x696E76616C696420616464726573730000000000000000000000000000000000 PUSH0 DUP3 ADD MSTORE POP JUMP JUMPDEST PUSH0 PUSH2 0x1B92 PUSH1 0xF DUP4 PUSH2 0x15A1 JUMP JUMPDEST SWAP2 POP PUSH2 0x1B9D DUP3 PUSH2 0x1B5E JUMP JUMPDEST PUSH1 0x20 DUP3 ADD SWAP1 POP SWAP2 SWAP1 POP JUMP JUMPDEST PUSH0 PUSH1 0x20 DUP3 ADD SWAP1 POP DUP2 DUP2 SUB PUSH0 DUP4 ADD MSTORE PUSH2 0x1BBF DUP2 PUSH2 0x1B86 JUMP JUMPDEST SWAP1 POP SWAP2 SWAP1 POP JUMP JUMPDEST PUSH32 0x696E76616C696420737572766579204944000000000000000000000000000000 PUSH0 DUP3 ADD MSTORE POP JUMP JUMPDEST PUSH0 PUSH2 0x1BFA PUSH1 0x11 DUP4 PUSH2 0x15A1 JUMP JUMPDEST SWAP2 POP PUSH2 0x1C05 DUP3 PUSH2 0x1BC6 JUMP JUMPDEST PUSH1 0x20 DUP3 ADD SWAP1 POP SWAP2 SWAP1 POP JUMP JUMPDEST PUSH0 PUSH1 0x20 DUP3 ADD SWAP1 POP DUP2 DUP2 SUB PUSH0 DUP4 ADD MSTORE PUSH2 0x1C27 DUP2 PUSH2 0x1BEE JUMP JUMPDEST SWAP1 POP SWAP2 SWAP1 POP JUMP JUMPDEST PUSH32 0x73757276657920697320616C726561647920696E207468652064657369726564 PUSH0 DUP3 ADD MSTORE PUSH32 0x2061637469766520737461746500000000000000000000000000000000000000 PUSH1 0x20 DUP3 ADD MSTORE POP JUMP JUMPDEST PUSH0 PUSH2 0x1C88 PUSH1 0x2D DUP4 PUSH2 0x15A1 JUMP JUMPDEST SWAP2 POP PUSH2 0x1C93 DUP3 PUSH2 0x1C2E JUMP JUMPDEST PUSH1 0x40 DUP3 ADD SWAP1 POP SWAP2 SWAP1 POP JUMP JUMPDEST PUSH0 PUSH1 0x20 DUP3 ADD SWAP1 POP DUP2 DUP2 SUB PUSH0 DUP4 ADD MSTORE PUSH2 0x1CB5 DUP2 PUSH2 0x1C7C JUMP JUMPDEST SWAP1 POP SWAP2 SWAP1 POP JUMP JUMPDEST PUSH32 0x696E76616C696420696400000000000000000000000000000000000000000000 PUSH0 DUP3 ADD MSTORE POP JUMP JUMPDEST PUSH0 PUSH2 0x1CF0 PUSH1 0xA DUP4 PUSH2 0x15A1 JUMP JUMPDEST SWAP2 POP PUSH2 0x1CFB DUP3 PUSH2 0x1CBC JUMP JUMPDEST PUSH1 0x20 DUP3 ADD SWAP1 POP SWAP2 SWAP1 POP JUMP JUMPDEST PUSH0 PUSH1 0x20 DUP3 ADD SWAP1 POP DUP2 DUP2 SUB PUSH0 DUP4 ADD MSTORE PUSH2 0x1D1D DUP2 PUSH2 0x1CE4 JUMP JUMPDEST SWAP1 POP SWAP2 SWAP1 POP JUMP JUMPDEST PUSH32 0x537572766579206973206E6F7420616374697665000000000000000000000000 PUSH0 DUP3 ADD MSTORE POP JUMP JUMPDEST PUSH0 PUSH2 0x1D58 PUSH1 0x14 DUP4 PUSH2 0x15A1 JUMP JUMPDEST SWAP2 POP PUSH2 0x1D63 DUP3 PUSH2 0x1D24 JUMP JUMPDEST PUSH1 0x20 DUP3 ADD SWAP1 POP SWAP2 SWAP1 POP JUMP JUMPDEST PUSH0 PUSH1 0x20 DUP3 ADD SWAP1 POP DUP2 DUP2 SUB PUSH0 DUP4 ADD MSTORE PUSH2 0x1D85 DUP2 PUSH2 0x1D4C JUMP JUMPDEST SWAP1 POP SWAP2 SWAP1 POP JUMP JUMPDEST PUSH32 0x496E76616C6964206F7074696F6E20696E646578000000000000000000000000 PUSH0 DUP3 ADD MSTORE POP JUMP JUMPDEST PUSH0 PUSH2 0x1DC0 PUSH1 0x14 DUP4 PUSH2 0x15A1 JUMP JUMPDEST SWAP2 POP PUSH2 0x1DCB DUP3 PUSH2 0x1D8C JUMP JUMPDEST PUSH1 0x20 DUP3 ADD SWAP1 POP SWAP2 SWAP1 POP JUMP JUMPDEST PUSH0 PUSH1 0x20 DUP3 ADD SWAP1 POP DUP2 DUP2 SUB PUSH0 DUP4 ADD MSTORE PUSH2 0x1DED DUP2 PUSH2 0x1DB4 JUMP JUMPDEST SWAP1 POP SWAP2 SWAP1 POP JUMP JUMPDEST PUSH32 0x557365722068617320616C726561647920766F74656400000000000000000000 PUSH0 DUP3 ADD MSTORE POP JUMP JUMPDEST PUSH0 PUSH2 0x1E28 PUSH1 0x16 DUP4 PUSH2 0x15A1 JUMP JUMPDEST SWAP2 POP PUSH2 0x1E33 DUP3 PUSH2 0x1DF4 JUMP JUMPDEST PUSH1 0x20 DUP3 ADD SWAP1 POP SWAP2 SWAP1 POP JUMP JUMPDEST PUSH0 PUSH1 0x20 DUP3 ADD SWAP1 POP DUP2 DUP2 SUB PUSH0 DUP4 ADD MSTORE PUSH2 0x1E55 DUP2 PUSH2 0x1E1C JUMP JUMPDEST SWAP1 POP SWAP2 SWAP1 POP JUMP JUMPDEST PUSH0 PUSH2 0x1E66 DUP3 PUSH2 0xF58 JUMP JUMPDEST SWAP2 POP PUSH32 0xFFFFFFFFFFFFFFFFFFFFFFFFFFFFFFFFFFFFFFFFFFFFFFFFFFFFFFFFFFFFFFFF DUP3 SUB PUSH2 0x1E98 JUMPI PUSH2 0x1E97 PUSH2 0x1835 JUMP JUMPDEST JUMPDEST PUSH1 0x1 DUP3 ADD SWAP1 POP SWAP2 SWAP1 POP JUMP JUMPDEST PUSH0 PUSH1 0x40 DUP3 ADD SWAP1 POP PUSH2 0x1EB6 PUSH0 DUP4 ADD DUP6 PUSH2 0x163F JUMP JUMPDEST PUSH2 0x1EC3 PUSH1 0x20 DUP4 ADD DUP5 PUSH2 0x163F JUMP JUMPDEST SWAP4 SWAP3 POP POP POP JUMP INVALID LOG2 PUSH5 0x6970667358 0x22 SLT KECCAK256 ADDRESS SELFDESTRUCT CALLDATASIZE 0xBF PUSH14 0xC499B6FD40F414BD7FD24FA8BE86 PUSH23 0xF75E6A612571178EF9F4AD7C64736F6C634300081A0033 "
		},
		"gasEstimates": {
			"creation": {
				"codeDepositCost": "1587200",
				"executionCost": "infinite",
				"totalCost": "infinite"
			},
			"external": {
				"amIVoted(uint256)": "7326",
				"changeActiveStatus(uint256,bool)": "infinite",
				"createSurvey(string,string[],bool)": "infinite",
				"getSurveyCount()": "2506",
				"getSurveyOptions(uint256)": "infinite",
				"getSurveyVoteCountPerOptions(uint256)": "infinite",
				"hasVoted(address,uint256)": "7524",
				"owner()": "2559",
				"renounceOwnership()": "infinite",
				"surveys(uint256)": "infinite",
				"transferOwnership(address)": "infinite",
				"vote(uint256,uint256)": "infinite"
			}
		},
		"methodIdentifiers": {
			"amIVoted(uint256)": "3358d9d9",
			"changeActiveStatus(uint256,bool)": "78e6b292",
			"createSurvey(string,string[],bool)": "0c4960dd",
			"getSurveyCount()": "9fe140b1",
			"getSurveyOptions(uint256)": "256a7f6b",
			"getSurveyVoteCountPerOptions(uint256)": "0a277d6d",
			"hasVoted(address,uint256)": "42545825",
			"owner()": "8da5cb5b",
			"renounceOwnership()": "715018a6",
			"surveys(uint256)": "86e68b90",
			"transferOwnership(address)": "f2fde38b",
			"vote(uint256,uint256)": "b384abef"
		}
	},
	"abi": [
		{
			"inputs": [],
			"stateMutability": "nonpayable",
			"type": "constructor"
		},
		{
			"inputs": [
				{
					"internalType": "address",
					"name": "owner",
					"type": "address"
				}
			],
			"name": "OwnableInvalidOwner",
			"type": "error"
		},
		{
			"inputs": [
				{
					"internalType": "address",
					"name": "account",
					"type": "address"
				}
			],
			"name": "OwnableUnauthorizedAccount",
			"type": "error"
		},
		{
			"anonymous": false,
			"inputs": [
				{
					"indexed": true,
					"internalType": "address",
					"name": "previousOwner",
					"type": "address"
				},
				{
					"indexed": true,
					"internalType": "address",
					"name": "newOwner",
					"type": "address"
				}
			],
			"name": "OwnershipTransferred",
			"type": "event"
		},
		{
			"anonymous": false,
			"inputs": [
				{
					"indexed": true,
					"internalType": "address",
					"name": "voter",
					"type": "address"
				},
				{
					"indexed": false,
					"internalType": "uint256",
					"name": "surveyIndex",
					"type": "uint256"
				},
				{
					"indexed": false,
					"internalType": "uint256",
					"name": "optionIndex",
					"type": "uint256"
				}
			],
			"name": "Voted",
			"type": "event"
		},
		{
			"inputs": [
				{
					"internalType": "uint256",
					"name": "surveyID",
					"type": "uint256"
				}
			],
			"name": "amIVoted",
			"outputs": [
				{
					"internalType": "bool",
					"name": "",
					"type": "bool"
				}
			],
			"stateMutability": "view",
			"type": "function"
		},
		{
			"inputs": [
				{
					"internalType": "uint256",
					"name": "surveyIndex",
					"type": "uint256"
				},
				{
					"internalType": "bool",
					"name": "isActive",
					"type": "bool"
				}
			],
			"name": "changeActiveStatus",
			"outputs": [],
			"stateMutability": "nonpayable",
			"type": "function"
		},
		{
			"inputs": [
				{
					"internalType": "string",
					"name": "_question",
					"type": "string"
				},
				{
					"internalType": "string[]",
					"name": "_options",
					"type": "string[]"
				},
				{
					"internalType": "bool",
					"name": "_initialActiveState",
					"type": "bool"
				}
			],
			"name": "createSurvey",
			"outputs": [],
			"stateMutability": "nonpayable",
			"type": "function"
		},
		{
			"inputs": [],
			"name": "getSurveyCount",
			"outputs": [
				{
					"internalType": "uint256",
					"name": "",
					"type": "uint256"
				}
			],
			"stateMutability": "view",
			"type": "function"
		},
		{
			"inputs": [
				{
					"internalType": "uint256",
					"name": "surveyIndex",
					"type": "uint256"
				}
			],
			"name": "getSurveyOptions",
			"outputs": [
				{
					"internalType": "string[]",
					"name": "",
					"type": "string[]"
				}
			],
			"stateMutability": "view",
			"type": "function"
		},
		{
			"inputs": [
				{
					"internalType": "uint256",
					"name": "surveyIndex",
					"type": "uint256"
				}
			],
			"name": "getSurveyVoteCountPerOptions",
			"outputs": [
				{
					"internalType": "uint256[]",
					"name": "",
					"type": "uint256[]"
				}
			],
			"stateMutability": "view",
			"type": "function"
		},
		{
			"inputs": [
				{
					"internalType": "address",
					"name": "voterAddress",
					"type": "address"
				},
				{
					"internalType": "uint256",
					"name": "surveyID",
					"type": "uint256"
				}
			],
			"name": "hasVoted",
			"outputs": [
				{
					"internalType": "bool",
					"name": "",
					"type": "bool"
				}
			],
			"stateMutability": "view",
			"type": "function"
		},
		{
			"inputs": [],
			"name": "owner",
			"outputs": [
				{
					"internalType": "address",
					"name": "",
					"type": "address"
				}
			],
			"stateMutability": "view",
			"type": "function"
		},
		{
			"inputs": [],
			"name": "renounceOwnership",
			"outputs": [],
			"stateMutability": "nonpayable",
			"type": "function"
		},
		{
			"inputs": [
				{
					"internalType": "uint256",
					"name": "",
					"type": "uint256"
				}
			],
			"name": "surveys",
			"outputs": [
				{
					"internalType": "string",
					"name": "question",
					"type": "string"
				},
				{
					"internalType": "bool",
					"name": "isActive",
					"type": "bool"
				}
			],
			"stateMutability": "view",
			"type": "function"
		},
		{
			"inputs": [
				{
					"internalType": "address",
					"name": "newOwner",
					"type": "address"
				}
			],
			"name": "transferOwnership",
			"outputs": [],
			"stateMutability": "nonpayable",
			"type": "function"
		},
		{
			"inputs": [
				{
					"internalType": "uint256",
					"name": "_surveyID",
					"type": "uint256"
				},
				{
					"internalType": "uint256",
					"name": "_optionIndex",
					"type": "uint256"
				}
			],
			"name": "vote",
			"outputs": [],
			"stateMutability": "nonpayable",
			"type": "function"
		}
	]
}