{
	"data": {
		"bytecode": {
			"linkReferences": {},
			"object": "6080604052348015600e575f80fd5b506110bd8061001c5f395ff3fe608060405234801561000f575f80fd5b506004361061004a575f3560e01c80630c4960dd1461004e57806386e68b901461006a5780639fe140b11461009b578063b384abef146100b9575b5f80fd5b610068600480360381019061006391906108f9565b6100d5565b005b610084600480360381019061007f91906109b4565b610219565b604051610092929190610a4e565b60405180910390f35b6100a36102d9565b6040516100b09190610a8b565b60405180910390f35b6100d360048036038101906100ce9190610aa4565b6102e4565b005b60028251101561011a576040517f08c379a000000000000000000000000000000000000000000000000000000000815260040161011190610b2c565b60405180910390fd5b5f60018160018154018082558091505003905f5260205f209050505f8060015f805490506101489190610b77565b8154811061015957610158610baa565b5b905f5260205f20906005020190505f835167ffffffffffffffff811115610183576101826106be565b5b6040519080825280602002602001820160405280156101b15781602001602082028036833780820191505090505b50905084825f0190816101c49190610dd1565b50838260010190805190602001906101dd929190610578565b50808260020190805190602001906101f69291906105cf565b5082826003015f6101000a81548160ff0219169083151502179055505050505050565b5f8181548110610227575f80fd5b905f5260205f2090600502015f91509050805f01805461024690610c04565b80601f016020809104026020016040519081016040528092919081815260200182805461027290610c04565b80156102bd5780601f10610294576101008083540402835291602001916102bd565b820191905f5260205f20905b8154815290600101906020018083116102a057829003601f168201915b505050505090806003015f9054906101000a900460ff16905082565b5f8080549050905090565b5f80549050821061032a576040517f08c379a000000000000000000000000000000000000000000000000000000000815260040161032190610eea565b60405180910390fd5b5f828154811061033d5761033c610baa565b5b905f5260205f2090600502016003015f9054906101000a900460ff16610398576040517f08c379a000000000000000000000000000000000000000000000000000000000815260040161038f90610f52565b60405180910390fd5b5f82815481106103ab576103aa610baa565b5b905f5260205f2090600502016001018054905081106103ff576040517f08c379a00000000000000000000000000000000000000000000000000000000081526004016103f690610fba565b60405180910390fd5b5f15155f838154811061041557610414610baa565b5b905f5260205f2090600502016004015f3373ffffffffffffffffffffffffffffffffffffffff1673ffffffffffffffffffffffffffffffffffffffff1681526020019081526020015f205f9054906101000a900460ff161515146104ae576040517f08c379a00000000000000000000000000000000000000000000000000000000081526004016104a590611022565b60405180910390fd5b5f82815481106104c1576104c0610baa565b5b905f5260205f20906005020160020181815481106104e2576104e1610baa565b5b905f5260205f20015f8154809291906104fa90611040565b919050555060015f838154811061051457610513610baa565b5b905f5260205f2090600502016004015f3373ffffffffffffffffffffffffffffffffffffffff1673ffffffffffffffffffffffffffffffffffffffff1681526020019081526020015f205f6101000a81548160ff0219169083151502179055505050565b828054828255905f5260205f209081019282156105be579160200282015b828111156105bd5782518290816105ad9190610dd1565b5091602001919060010190610596565b5b5090506105cb919061061a565b5090565b828054828255905f5260205f20908101928215610609579160200282015b828111156106085782518255916020019190600101906105ed565b5b509050610616919061063d565b5090565b5b80821115610639575f81816106309190610658565b5060010161061b565b5090565b5b80821115610654575f815f90555060010161063e565b5090565b50805461066490610c04565b5f825580601f106106755750610692565b601f0160209004905f5260205f2090810190610691919061063d565b5b50565b5f604051905090565b5f80fd5b5f80fd5b5f80fd5b5f80fd5b5f601f19601f8301169050919050565b7f4e487b71000000000000000000000000000000000000000000000000000000005f52604160045260245ffd5b6106f4826106ae565b810181811067ffffffffffffffff82111715610713576107126106be565b5b80604052505050565b5f610725610695565b905061073182826106eb565b919050565b5f67ffffffffffffffff8211156107505761074f6106be565b5b610759826106ae565b9050602081019050919050565b828183375f83830152505050565b5f61078661078184610736565b61071c565b9050828152602081018484840111156107a2576107a16106aa565b5b6107ad848285610766565b509392505050565b5f82601f8301126107c9576107c86106a6565b5b81356107d9848260208601610774565b91505092915050565b5f67ffffffffffffffff8211156107fc576107fb6106be565b5b602082029050602081019050919050565b5f80fd5b5f61082361081e846107e2565b61071c565b905080838252602082019050602084028301858111156108465761084561080d565b5b835b8181101561088d57803567ffffffffffffffff81111561086b5761086a6106a6565b5b80860161087889826107b5565b85526020850194505050602081019050610848565b5050509392505050565b5f82601f8301126108ab576108aa6106a6565b5b81356108bb848260208601610811565b91505092915050565b5f8115159050919050565b6108d8816108c4565b81146108e2575f80fd5b50565b5f813590506108f3816108cf565b92915050565b5f805f606084860312156109105761090f61069e565b5b5f84013567ffffffffffffffff81111561092d5761092c6106a2565b5b610939868287016107b5565b935050602084013567ffffffffffffffff81111561095a576109596106a2565b5b61096686828701610897565b9250506040610977868287016108e5565b9150509250925092565b5f819050919050565b61099381610981565b811461099d575f80fd5b50565b5f813590506109ae8161098a565b92915050565b5f602082840312156109c9576109c861069e565b5b5f6109d6848285016109a0565b91505092915050565b5f81519050919050565b5f82825260208201905092915050565b8281835e5f83830152505050565b5f610a11826109df565b610a1b81856109e9565b9350610a2b8185602086016109f9565b610a34816106ae565b840191505092915050565b610a48816108c4565b82525050565b5f6040820190508181035f830152610a668185610a07565b9050610a756020830184610a3f565b9392505050565b610a8581610981565b82525050565b5f602082019050610a9e5f830184610a7c565b92915050565b5f8060408385031215610aba57610ab961069e565b5b5f610ac7858286016109a0565b9250506020610ad8858286016109a0565b9150509250929050565b7f4174206c656173742032206f7074696f6e7320617265207265717569726564005f82015250565b5f610b16601f836109e9565b9150610b2182610ae2565b602082019050919050565b5f6020820190508181035f830152610b4381610b0a565b9050919050565b7f4e487b71000000000000000000000000000000000000000000000000000000005f52601160045260245ffd5b5f610b8182610981565b9150610b8c83610981565b9250828203905081811115610ba457610ba3610b4a565b5b92915050565b7f4e487b71000000000000000000000000000000000000000000000000000000005f52603260045260245ffd5b7f4e487b71000000000000000000000000000000000000000000000000000000005f52602260045260245ffd5b5f6002820490506001821680610c1b57607f821691505b602082108103610c2e57610c2d610bd7565b5b50919050565b5f819050815f5260205f209050919050565b5f6020601f8301049050919050565b5f82821b905092915050565b5f60088302610c907fffffffffffffffffffffffffffffffffffffffffffffffffffffffffffffffff82610c55565b610c9a8683610c55565b95508019841693508086168417925050509392505050565b5f819050919050565b5f610cd5610cd0610ccb84610981565b610cb2565b610981565b9050919050565b5f819050919050565b610cee83610cbb565b610d02610cfa82610cdc565b848454610c61565b825550505050565b5f90565b610d16610d0a565b610d21818484610ce5565b505050565b5b81811015610d4457610d395f82610d0e565b600181019050610d27565b5050565b601f821115610d8957610d5a81610c34565b610d6384610c46565b81016020851015610d72578190505b610d86610d7e85610c46565b830182610d26565b50505b505050565b5f82821c905092915050565b5f610da95f1984600802610d8e565b1980831691505092915050565b5f610dc18383610d9a565b9150826002028217905092915050565b610dda826109df565b67ffffffffffffffff811115610df357610df26106be565b5b610dfd8254610c04565b610e08828285610d48565b5f60209050601f831160018114610e39575f8415610e27578287015190505b610e318582610db6565b865550610e98565b601f198416610e4786610c34565b5f5b82811015610e6e57848901518255600182019150602085019450602081019050610e49565b86831015610e8b5784890151610e87601f891682610d9a565b8355505b6001600288020188555050505b505050505050565b7f53757276657920646f6573206e6f7420657869737400000000000000000000005f82015250565b5f610ed46015836109e9565b9150610edf82610ea0565b602082019050919050565b5f6020820190508181035f830152610f0181610ec8565b9050919050565b7f537572766579206973206e6f74206163746976650000000000000000000000005f82015250565b5f610f3c6014836109e9565b9150610f4782610f08565b602082019050919050565b5f6020820190508181035f830152610f6981610f30565b9050919050565b7f496e76616c6964206f7074696f6e20696e6465780000000000000000000000005f82015250565b5f610fa46014836109e9565b9150610faf82610f70565b602082019050919050565b5f6020820190508181035f830152610fd181610f98565b9050919050565b7f557365722068617320616c726561647920766f746564000000000000000000005f82015250565b5f61100c6016836109e9565b915061101782610fd8565b602082019050919050565b5f6020820190508181035f83015261103981611000565b9050919050565b5f61104a82610981565b91507fffffffffffffffffffffffffffffffffffffffffffffffffffffffffffffffff820361107c5761107b610b4a565b5b60018201905091905056fea26469706673582212208703b90d3be63e1fb85f68e362bf93291476f597c69f3dc386cab7db512786f364736f6c634300081a0033",
			"opcodes": "PUSH1 0x80 PUSH1 0x40 MSTORE CALLVALUE DUP1 ISZERO PUSH1 0xE JUMPI PUSH0 DUP1 REVERT JUMPDEST POP PUSH2 0x10BD DUP1 PUSH2 0x1C PUSH0 CODECOPY PUSH0 RETURN INVALID PUSH1 0x80 PUSH1 0x40 MSTORE CALLVALUE DUP1 ISZERO PUSH2 0xF JUMPI PUSH0 DUP1 REVERT JUMPDEST POP PUSH1 0x4 CALLDATASIZE LT PUSH2 0x4A JUMPI PUSH0 CALLDATALOAD PUSH1 0xE0 SHR DUP1 PUSH4 0xC4960DD EQ PUSH2 0x4E JUMPI DUP1 PUSH4 0x86E68B90 EQ PUSH2 0x6A JUMPI DUP1 PUSH4 0x9FE140B1 EQ PUSH2 0x9B JUMPI DUP1 PUSH4 0xB384ABEF EQ PUSH2 0xB9 JUMPI JUMPDEST PUSH0 DUP1 REVERT JUMPDEST PUSH2 0x68 PUSH1 0x4 DUP1 CALLDATASIZE SUB DUP2 ADD SWAP1 PUSH2 0x63 SWAP2 SWAP1 PUSH2 0x8F9 JUMP JUMPDEST PUSH2 0xD5 JUMP JUMPDEST STOP JUMPDEST PUSH2 0x84 PUSH1 0x4 DUP1 CALLDATASIZE SUB DUP2 ADD SWAP1 PUSH2 0x7F SWAP2 SWAP1 PUSH2 0x9B4 JUMP JUMPDEST PUSH2 0x219 JUMP JUMPDEST PUSH1 0x40 MLOAD PUSH2 0x92 SWAP3 SWAP2 SWAP1 PUSH2 0xA4E JUMP JUMPDEST PUSH1 0x40 MLOAD DUP1 SWAP2 SUB SWAP1 RETURN JUMPDEST PUSH2 0xA3 PUSH2 0x2D9 JUMP JUMPDEST PUSH1 0x40 MLOAD PUSH2 0xB0 SWAP2 SWAP1 PUSH2 0xA8B JUMP JUMPDEST PUSH1 0x40 MLOAD DUP1 SWAP2 SUB SWAP1 RETURN JUMPDEST PUSH2 0xD3 PUSH1 0x4 DUP1 CALLDATASIZE SUB DUP2 ADD SWAP1 PUSH2 0xCE SWAP2 SWAP1 PUSH2 0xAA4 JUMP JUMPDEST PUSH2 0x2E4 JUMP JUMPDEST STOP JUMPDEST PUSH1 0x2 DUP3 MLOAD LT ISZERO PUSH2 0x11A JUMPI PUSH1 0x40 MLOAD PUSH32 0x8C379A000000000000000000000000000000000000000000000000000000000 DUP2 MSTORE PUSH1 0x4 ADD PUSH2 0x111 SWAP1 PUSH2 0xB2C JUMP JUMPDEST PUSH1 0x40 MLOAD DUP1 SWAP2 SUB SWAP1 REVERT JUMPDEST PUSH0 PUSH1 0x1 DUP2 PUSH1 0x1 DUP2 SLOAD ADD DUP1 DUP3 SSTORE DUP1 SWAP2 POP POP SUB SWAP1 PUSH0 MSTORE PUSH1 0x20 PUSH0 KECCAK256 SWAP1 POP POP PUSH0 DUP1 PUSH1 0x1 PUSH0 DUP1 SLOAD SWAP1 POP PUSH2 0x148 SWAP2 SWAP1 PUSH2 0xB77 JUMP JUMPDEST DUP2 SLOAD DUP2 LT PUSH2 0x159 JUMPI PUSH2 0x158 PUSH2 0xBAA JUMP JUMPDEST JUMPDEST SWAP1 PUSH0 MSTORE PUSH1 0x20 PUSH0 KECCAK256 SWAP1 PUSH1 0x5 MUL ADD SWAP1 POP PUSH0 DUP4 MLOAD PUSH8 0xFFFFFFFFFFFFFFFF DUP2 GT ISZERO PUSH2 0x183 JUMPI PUSH2 0x182 PUSH2 0x6BE JUMP JUMPDEST JUMPDEST PUSH1 0x40 MLOAD SWAP1 DUP1 DUP3 MSTORE DUP1 PUSH1 0x20 MUL PUSH1 0x20 ADD DUP3 ADD PUSH1 0x40 MSTORE DUP1 ISZERO PUSH2 0x1B1 JUMPI DUP2 PUSH1 0x20 ADD PUSH1 0x20 DUP3 MUL DUP1 CALLDATASIZE DUP4 CALLDATACOPY DUP1 DUP3 ADD SWAP2 POP POP SWAP1 POP JUMPDEST POP SWAP1 POP DUP5 DUP3 PUSH0 ADD SWAP1 DUP2 PUSH2 0x1C4 SWAP2 SWAP1 PUSH2 0xDD1 JUMP JUMPDEST POP DUP4 DUP3 PUSH1 0x1 ADD SWAP1 DUP1 MLOAD SWAP1 PUSH1 0x20 ADD SWAP1 PUSH2 0x1DD SWAP3 SWAP2 SWAP1 PUSH2 0x578 JUMP JUMPDEST POP DUP1 DUP3 PUSH1 0x2 ADD SWAP1 DUP1 MLOAD SWAP1 PUSH1 0x20 ADD SWAP1 PUSH2 0x1F6 SWAP3 SWAP2 SWAP1 PUSH2 0x5CF JUMP JUMPDEST POP DUP3 DUP3 PUSH1 0x3 ADD PUSH0 PUSH2 0x100 EXP DUP2 SLOAD DUP2 PUSH1 0xFF MUL NOT AND SWAP1 DUP4 ISZERO ISZERO MUL OR SWAP1 SSTORE POP POP POP POP POP POP JUMP JUMPDEST PUSH0 DUP2 DUP2 SLOAD DUP2 LT PUSH2 0x227 JUMPI PUSH0 DUP1 REVERT JUMPDEST SWAP1 PUSH0 MSTORE PUSH1 0x20 PUSH0 KECCAK256 SWAP1 PUSH1 0x5 MUL ADD PUSH0 SWAP2 POP SWAP1 POP DUP1 PUSH0 ADD DUP1 SLOAD PUSH2 0x246 SWAP1 PUSH2 0xC04 JUMP JUMPDEST DUP1 PUSH1 0x1F ADD PUSH1 0x20 DUP1 SWAP2 DIV MUL PUSH1 0x20 ADD PUSH1 0x40 MLOAD SWAP1 DUP2 ADD PUSH1 0x40 MSTORE DUP1 SWAP3 SWAP2 SWAP1 DUP2 DUP2 MSTORE PUSH1 0x20 ADD DUP3 DUP1 SLOAD PUSH2 0x272 SWAP1 PUSH2 0xC04 JUMP JUMPDEST DUP1 ISZERO PUSH2 0x2BD JUMPI DUP1 PUSH1 0x1F LT PUSH2 0x294 JUMPI PUSH2 0x100 DUP1 DUP4 SLOAD DIV MUL DUP4 MSTORE SWAP2 PUSH1 0x20 ADD SWAP2 PUSH2 0x2BD JUMP JUMPDEST DUP3 ADD SWAP2 SWAP1 PUSH0 MSTORE PUSH1 0x20 PUSH0 KECCAK256 SWAP1 JUMPDEST DUP2 SLOAD DUP2 MSTORE SWAP1 PUSH1 0x1 ADD SWAP1 PUSH1 0x20 ADD DUP1 DUP4 GT PUSH2 0x2A0 JUMPI DUP3 SWAP1 SUB PUSH1 0x1F AND DUP3 ADD SWAP2 JUMPDEST POP POP POP POP POP SWAP1 DUP1 PUSH1 0x3 ADD PUSH0 SWAP1 SLOAD SWAP1 PUSH2 0x100 EXP SWAP1 DIV PUSH1 0xFF AND SWAP1 POP DUP3 JUMP JUMPDEST PUSH0 DUP1 DUP1 SLOAD SWAP1 POP SWAP1 POP SWAP1 JUMP JUMPDEST PUSH0 DUP1 SLOAD SWAP1 POP DUP3 LT PUSH2 0x32A JUMPI PUSH1 0x40 MLOAD PUSH32 0x8C379A000000000000000000000000000000000000000000000000000000000 DUP2 MSTORE PUSH1 0x4 ADD PUSH2 0x321 SWAP1 PUSH2 0xEEA JUMP JUMPDEST PUSH1 0x40 MLOAD DUP1 SWAP2 SUB SWAP1 REVERT JUMPDEST PUSH0 DUP3 DUP2 SLOAD DUP2 LT PUSH2 0x33D JUMPI PUSH2 0x33C PUSH2 0xBAA JUMP JUMPDEST JUMPDEST SWAP1 PUSH0 MSTORE PUSH1 0x20 PUSH0 KECCAK256 SWAP1 PUSH1 0x5 MUL ADD PUSH1 0x3 ADD PUSH0 SWAP1 SLOAD SWAP1 PUSH2 0x100 EXP SWAP1 DIV PUSH1 0xFF AND PUSH2 0x398 JUMPI PUSH1 0x40 MLOAD PUSH32 0x8C379A000000000000000000000000000000000000000000000000000000000 DUP2 MSTORE PUSH1 0x4 ADD PUSH2 0x38F SWAP1 PUSH2 0xF52 JUMP JUMPDEST PUSH1 0x40 MLOAD DUP1 SWAP2 SUB SWAP1 REVERT JUMPDEST PUSH0 DUP3 DUP2 SLOAD DUP2 LT PUSH2 0x3AB JUMPI PUSH2 0x3AA PUSH2 0xBAA JUMP JUMPDEST JUMPDEST SWAP1 PUSH0 MSTORE PUSH1 0x20 PUSH0 KECCAK256 SWAP1 PUSH1 0x5 MUL ADD PUSH1 0x1 ADD DUP1 SLOAD SWAP1 POP DUP2 LT PUSH2 0x3FF JUMPI PUSH1 0x40 MLOAD PUSH32 0x8C379A000000000000000000000000000000000000000000000000000000000 DUP2 MSTORE PUSH1 0x4 ADD PUSH2 0x3F6 SWAP1 PUSH2 0xFBA JUMP JUMPDEST PUSH1 0x40 MLOAD DUP1 SWAP2 SUB SWAP1 REVERT JUMPDEST PUSH0 ISZERO ISZERO PUSH0 DUP4 DUP2 SLOAD DUP2 LT PUSH2 0x415 JUMPI PUSH2 0x414 PUSH2 0xBAA JUMP JUMPDEST JUMPDEST SWAP1 PUSH0 MSTORE PUSH1 0x20 PUSH0 KECCAK256 SWAP1 PUSH1 0x5 MUL ADD PUSH1 0x4 ADD PUSH0 CALLER PUSH20 0xFFFFFFFFFFFFFFFFFFFFFFFFFFFFFFFFFFFFFFFF AND PUSH20 0xFFFFFFFFFFFFFFFFFFFFFFFFFFFFFFFFFFFFFFFF AND DUP2 MSTORE PUSH1 0x20 ADD SWAP1 DUP2 MSTORE PUSH1 0x20 ADD PUSH0 KECCAK256 PUSH0 SWAP1 SLOAD SWAP1 PUSH2 0x100 EXP SWAP1 DIV PUSH1 0xFF AND ISZERO ISZERO EQ PUSH2 0x4AE JUMPI PUSH1 0x40 MLOAD PUSH32 0x8C379A000000000000000000000000000000000000000000000000000000000 DUP2 MSTORE PUSH1 0x4 ADD PUSH2 0x4A5 SWAP1 PUSH2 0x1022 JUMP JUMPDEST PUSH1 0x40 MLOAD DUP1 SWAP2 SUB SWAP1 REVERT JUMPDEST PUSH0 DUP3 DUP2 SLOAD DUP2 LT PUSH2 0x4C1 JUMPI PUSH2 0x4C0 PUSH2 0xBAA JUMP JUMPDEST JUMPDEST SWAP1 PUSH0 MSTORE PUSH1 0x20 PUSH0 KECCAK256 SWAP1 PUSH1 0x5 MUL ADD PUSH1 0x2 ADD DUP2 DUP2 SLOAD DUP2 LT PUSH2 0x4E2 JUMPI PUSH2 0x4E1 PUSH2 0xBAA JUMP JUMPDEST JUMPDEST SWAP1 PUSH0 MSTORE PUSH1 0x20 PUSH0 KECCAK256 ADD PUSH0 DUP2 SLOAD DUP1 SWAP3 SWAP2 SWAP1 PUSH2 0x4FA SWAP1 PUSH2 0x1040 JUMP JUMPDEST SWAP2 SWAP1 POP SSTORE POP PUSH1 0x1 PUSH0 DUP4 DUP2 SLOAD DUP2 LT PUSH2 0x514 JUMPI PUSH2 0x513 PUSH2 0xBAA JUMP JUMPDEST JUMPDEST SWAP1 PUSH0 MSTORE PUSH1 0x20 PUSH0 KECCAK256 SWAP1 PUSH1 0x5 MUL ADD PUSH1 0x4 ADD PUSH0 CALLER PUSH20 0xFFFFFFFFFFFFFFFFFFFFFFFFFFFFFFFFFFFFFFFF AND PUSH20 0xFFFFFFFFFFFFFFFFFFFFFFFFFFFFFFFFFFFFFFFF AND DUP2 MSTORE PUSH1 0x20 ADD SWAP1 DUP2 MSTORE PUSH1 0x20 ADD PUSH0 KECCAK256 PUSH0 PUSH2 0x100 EXP DUP2 SLOAD DUP2 PUSH1 0xFF MUL NOT AND SWAP1 DUP4 ISZERO ISZERO MUL OR SWAP1 SSTORE POP POP POP JUMP JUMPDEST DUP3 DUP1 SLOAD DUP3 DUP3 SSTORE SWAP1 PUSH0 MSTORE PUSH1 0x20 PUSH0 KECCAK256 SWAP1 DUP2 ADD SWAP3 DUP3 ISZERO PUSH2 0x5BE JUMPI SWAP2 PUSH1 0x20 MUL DUP3 ADD JUMPDEST DUP3 DUP2 GT ISZERO PUSH2 0x5BD JUMPI DUP3 MLOAD DUP3 SWAP1 DUP2 PUSH2 0x5AD SWAP2 SWAP1 PUSH2 0xDD1 JUMP JUMPDEST POP SWAP2 PUSH1 0x20 ADD SWAP2 SWAP1 PUSH1 0x1 ADD SWAP1 PUSH2 0x596 JUMP JUMPDEST JUMPDEST POP SWAP1 POP PUSH2 0x5CB SWAP2 SWAP1 PUSH2 0x61A JUMP JUMPDEST POP SWAP1 JUMP JUMPDEST DUP3 DUP1 SLOAD DUP3 DUP3 SSTORE SWAP1 PUSH0 MSTORE PUSH1 0x20 PUSH0 KECCAK256 SWAP1 DUP2 ADD SWAP3 DUP3 ISZERO PUSH2 0x609 JUMPI SWAP2 PUSH1 0x20 MUL DUP3 ADD JUMPDEST DUP3 DUP2 GT ISZERO PUSH2 0x608 JUMPI DUP3 MLOAD DUP3 SSTORE SWAP2 PUSH1 0x20 ADD SWAP2 SWAP1 PUSH1 0x1 ADD SWAP1 PUSH2 0x5ED JUMP JUMPDEST JUMPDEST POP SWAP1 POP PUSH2 0x616 SWAP2 SWAP1 PUSH2 0x63D JUMP JUMPDEST POP SWAP1 JUMP JUMPDEST JUMPDEST DUP1 DUP3 GT ISZERO PUSH2 0x639 JUMPI PUSH0 DUP2 DUP2 PUSH2 0x630 SWAP2 SWAP1 PUSH2 0x658 JUMP JUMPDEST POP PUSH1 0x1 ADD PUSH2 0x61B JUMP JUMPDEST POP SWAP1 JUMP JUMPDEST JUMPDEST DUP1 DUP3 GT ISZERO PUSH2 0x654 JUMPI PUSH0 DUP2 PUSH0 SWAP1 SSTORE POP PUSH1 0x1 ADD PUSH2 0x63E JUMP JUMPDEST POP SWAP1 JUMP JUMPDEST POP DUP1 SLOAD PUSH2 0x664 SWAP1 PUSH2 0xC04 JUMP JUMPDEST PUSH0 DUP3 SSTORE DUP1 PUSH1 0x1F LT PUSH2 0x675 JUMPI POP PUSH2 0x692 JUMP JUMPDEST PUSH1 0x1F ADD PUSH1 0x20 SWAP1 DIV SWAP1 PUSH0 MSTORE PUSH1 0x20 PUSH0 KECCAK256 SWAP1 DUP2 ADD SWAP1 PUSH2 0x691 SWAP2 SWAP1 PUSH2 0x63D JUMP JUMPDEST JUMPDEST POP JUMP JUMPDEST PUSH0 PUSH1 0x40 MLOAD SWAP1 POP SWAP1 JUMP JUMPDEST PUSH0 DUP1 REVERT JUMPDEST PUSH0 DUP1 REVERT JUMPDEST PUSH0 DUP1 REVERT JUMPDEST PUSH0 DUP1 REVERT JUMPDEST PUSH0 PUSH1 0x1F NOT PUSH1 0x1F DUP4 ADD AND SWAP1 POP SWAP2 SWAP1 POP JUMP JUMPDEST PUSH32 0x4E487B7100000000000000000000000000000000000000000000000000000000 PUSH0 MSTORE PUSH1 0x41 PUSH1 0x4 MSTORE PUSH1 0x24 PUSH0 REVERT JUMPDEST PUSH2 0x6F4 DUP3 PUSH2 0x6AE JUMP JUMPDEST DUP2 ADD DUP2 DUP2 LT PUSH8 0xFFFFFFFFFFFFFFFF DUP3 GT OR ISZERO PUSH2 0x713 JUMPI PUSH2 0x712 PUSH2 0x6BE JUMP JUMPDEST JUMPDEST DUP1 PUSH1 0x40 MSTORE POP POP POP JUMP JUMPDEST PUSH0 PUSH2 0x725 PUSH2 0x695 JUMP JUMPDEST SWAP1 POP PUSH2 0x731 DUP3 DUP3 PUSH2 0x6EB JUMP JUMPDEST SWAP2 SWAP1 POP JUMP JUMPDEST PUSH0 PUSH8 0xFFFFFFFFFFFFFFFF DUP3 GT ISZERO PUSH2 0x750 JUMPI PUSH2 0x74F PUSH2 0x6BE JUMP JUMPDEST JUMPDEST PUSH2 0x759 DUP3 PUSH2 0x6AE JUMP JUMPDEST SWAP1 POP PUSH1 0x20 DUP2 ADD SWAP1 POP SWAP2 SWAP1 POP JUMP JUMPDEST DUP3 DUP2 DUP4 CALLDATACOPY PUSH0 DUP4 DUP4 ADD MSTORE POP POP POP JUMP JUMPDEST PUSH0 PUSH2 0x786 PUSH2 0x781 DUP5 PUSH2 0x736 JUMP JUMPDEST PUSH2 0x71C JUMP JUMPDEST SWAP1 POP DUP3 DUP2 MSTORE PUSH1 0x20 DUP2 ADD DUP5 DUP5 DUP5 ADD GT ISZERO PUSH2 0x7A2 JUMPI PUSH2 0x7A1 PUSH2 0x6AA JUMP JUMPDEST JUMPDEST PUSH2 0x7AD DUP5 DUP3 DUP6 PUSH2 0x766 JUMP JUMPDEST POP SWAP4 SWAP3 POP POP POP JUMP JUMPDEST PUSH0 DUP3 PUSH1 0x1F DUP4 ADD SLT PUSH2 0x7C9 JUMPI PUSH2 0x7C8 PUSH2 0x6A6 JUMP JUMPDEST JUMPDEST DUP2 CALLDATALOAD PUSH2 0x7D9 DUP5 DUP3 PUSH1 0x20 DUP7 ADD PUSH2 0x774 JUMP JUMPDEST SWAP2 POP POP SWAP3 SWAP2 POP POP JUMP JUMPDEST PUSH0 PUSH8 0xFFFFFFFFFFFFFFFF DUP3 GT ISZERO PUSH2 0x7FC JUMPI PUSH2 0x7FB PUSH2 0x6BE JUMP JUMPDEST JUMPDEST PUSH1 0x20 DUP3 MUL SWAP1 POP PUSH1 0x20 DUP2 ADD SWAP1 POP SWAP2 SWAP1 POP JUMP JUMPDEST PUSH0 DUP1 REVERT JUMPDEST PUSH0 PUSH2 0x823 PUSH2 0x81E DUP5 PUSH2 0x7E2 JUMP JUMPDEST PUSH2 0x71C JUMP JUMPDEST SWAP1 POP DUP1 DUP4 DUP3 MSTORE PUSH1 0x20 DUP3 ADD SWAP1 POP PUSH1 0x20 DUP5 MUL DUP4 ADD DUP6 DUP2 GT ISZERO PUSH2 0x846 JUMPI PUSH2 0x845 PUSH2 0x80D JUMP JUMPDEST JUMPDEST DUP4 JUMPDEST DUP2 DUP2 LT ISZERO PUSH2 0x88D JUMPI DUP1 CALLDATALOAD PUSH8 0xFFFFFFFFFFFFFFFF DUP2 GT ISZERO PUSH2 0x86B JUMPI PUSH2 0x86A PUSH2 0x6A6 JUMP JUMPDEST JUMPDEST DUP1 DUP7 ADD PUSH2 0x878 DUP10 DUP3 PUSH2 0x7B5 JUMP JUMPDEST DUP6 MSTORE PUSH1 0x20 DUP6 ADD SWAP5 POP POP POP PUSH1 0x20 DUP2 ADD SWAP1 POP PUSH2 0x848 JUMP JUMPDEST POP POP POP SWAP4 SWAP3 POP POP POP JUMP JUMPDEST PUSH0 DUP3 PUSH1 0x1F DUP4 ADD SLT PUSH2 0x8AB JUMPI PUSH2 0x8AA PUSH2 0x6A6 JUMP JUMPDEST JUMPDEST DUP2 CALLDATALOAD PUSH2 0x8BB DUP5 DUP3 PUSH1 0x20 DUP7 ADD PUSH2 0x811 JUMP JUMPDEST SWAP2 POP POP SWAP3 SWAP2 POP POP JUMP JUMPDEST PUSH0 DUP2 ISZERO ISZERO SWAP1 POP SWAP2 SWAP1 POP JUMP JUMPDEST PUSH2 0x8D8 DUP2 PUSH2 0x8C4 JUMP JUMPDEST DUP2 EQ PUSH2 0x8E2 JUMPI PUSH0 DUP1 REVERT JUMPDEST POP JUMP JUMPDEST PUSH0 DUP2 CALLDATALOAD SWAP1 POP PUSH2 0x8F3 DUP2 PUSH2 0x8CF JUMP JUMPDEST SWAP3 SWAP2 POP POP JUMP JUMPDEST PUSH0 DUP1 PUSH0 PUSH1 0x60 DUP5 DUP7 SUB SLT ISZERO PUSH2 0x910 JUMPI PUSH2 0x90F PUSH2 0x69E JUMP JUMPDEST JUMPDEST PUSH0 DUP5 ADD CALLDATALOAD PUSH8 0xFFFFFFFFFFFFFFFF DUP2 GT ISZERO PUSH2 0x92D JUMPI PUSH2 0x92C PUSH2 0x6A2 JUMP JUMPDEST JUMPDEST PUSH2 0x939 DUP7 DUP3 DUP8 ADD PUSH2 0x7B5 JUMP JUMPDEST SWAP4 POP POP PUSH1 0x20 DUP5 ADD CALLDATALOAD PUSH8 0xFFFFFFFFFFFFFFFF DUP2 GT ISZERO PUSH2 0x95A JUMPI PUSH2 0x959 PUSH2 0x6A2 JUMP JUMPDEST JUMPDEST PUSH2 0x966 DUP7 DUP3 DUP8 ADD PUSH2 0x897 JUMP JUMPDEST SWAP3 POP POP PUSH1 0x40 PUSH2 0x977 DUP7 DUP3 DUP8 ADD PUSH2 0x8E5 JUMP JUMPDEST SWAP2 POP POP SWAP3 POP SWAP3 POP SWAP3 JUMP JUMPDEST PUSH0 DUP2 SWAP1 POP SWAP2 SWAP1 POP JUMP JUMPDEST PUSH2 0x993 DUP2 PUSH2 0x981 JUMP JUMPDEST DUP2 EQ PUSH2 0x99D JUMPI PUSH0 DUP1 REVERT JUMPDEST POP JUMP JUMPDEST PUSH0 DUP2 CALLDATALOAD SWAP1 POP PUSH2 0x9AE DUP2 PUSH2 0x98A JUMP JUMPDEST SWAP3 SWAP2 POP POP JUMP JUMPDEST PUSH0 PUSH1 0x20 DUP3 DUP5 SUB SLT ISZERO PUSH2 0x9C9 JUMPI PUSH2 0x9C8 PUSH2 0x69E JUMP JUMPDEST JUMPDEST PUSH0 PUSH2 0x9D6 DUP5 DUP3 DUP6 ADD PUSH2 0x9A0 JUMP JUMPDEST SWAP2 POP POP SWAP3 SWAP2 POP POP JUMP JUMPDEST PUSH0 DUP2 MLOAD SWAP1 POP SWAP2 SWAP1 POP JUMP JUMPDEST PUSH0 DUP3 DUP3 MSTORE PUSH1 0x20 DUP3 ADD SWAP1 POP SWAP3 SWAP2 POP POP JUMP JUMPDEST DUP3 DUP2 DUP4 MCOPY PUSH0 DUP4 DUP4 ADD MSTORE POP POP POP JUMP JUMPDEST PUSH0 PUSH2 0xA11 DUP3 PUSH2 0x9DF JUMP JUMPDEST PUSH2 0xA1B DUP2 DUP6 PUSH2 0x9E9 JUMP JUMPDEST SWAP4 POP PUSH2 0xA2B DUP2 DUP6 PUSH1 0x20 DUP7 ADD PUSH2 0x9F9 JUMP JUMPDEST PUSH2 0xA34 DUP2 PUSH2 0x6AE JUMP JUMPDEST DUP5 ADD SWAP2 POP POP SWAP3 SWAP2 POP POP JUMP JUMPDEST PUSH2 0xA48 DUP2 PUSH2 0x8C4 JUMP JUMPDEST DUP3 MSTORE POP POP JUMP JUMPDEST PUSH0 PUSH1 0x40 DUP3 ADD SWAP1 POP DUP2 DUP2 SUB PUSH0 DUP4 ADD MSTORE PUSH2 0xA66 DUP2 DUP6 PUSH2 0xA07 JUMP JUMPDEST SWAP1 POP PUSH2 0xA75 PUSH1 0x20 DUP4 ADD DUP5 PUSH2 0xA3F JUMP JUMPDEST SWAP4 SWAP3 POP POP POP JUMP JUMPDEST PUSH2 0xA85 DUP2 PUSH2 0x981 JUMP JUMPDEST DUP3 MSTORE POP POP JUMP JUMPDEST PUSH0 PUSH1 0x20 DUP3 ADD SWAP1 POP PUSH2 0xA9E PUSH0 DUP4 ADD DUP5 PUSH2 0xA7C JUMP JUMPDEST SWAP3 SWAP2 POP POP JUMP JUMPDEST PUSH0 DUP1 PUSH1 0x40 DUP4 DUP6 SUB SLT ISZERO PUSH2 0xABA JUMPI PUSH2 0xAB9 PUSH2 0x69E JUMP JUMPDEST JUMPDEST PUSH0 PUSH2 0xAC7 DUP6 DUP3 DUP7 ADD PUSH2 0x9A0 JUMP JUMPDEST SWAP3 POP POP PUSH1 0x20 PUSH2 0xAD8 DUP6 DUP3 DUP7 ADD PUSH2 0x9A0 JUMP JUMPDEST SWAP2 POP POP SWAP3 POP SWAP3 SWAP1 POP JUMP JUMPDEST PUSH32 0x4174206C656173742032206F7074696F6E732061726520726571756972656400 PUSH0 DUP3 ADD MSTORE POP JUMP JUMPDEST PUSH0 PUSH2 0xB16 PUSH1 0x1F DUP4 PUSH2 0x9E9 JUMP JUMPDEST SWAP2 POP PUSH2 0xB21 DUP3 PUSH2 0xAE2 JUMP JUMPDEST PUSH1 0x20 DUP3 ADD SWAP1 POP SWAP2 SWAP1 POP JUMP JUMPDEST PUSH0 PUSH1 0x20 DUP3 ADD SWAP1 POP DUP2 DUP2 SUB PUSH0 DUP4 ADD MSTORE PUSH2 0xB43 DUP2 PUSH2 0xB0A JUMP JUMPDEST SWAP1 POP SWAP2 SWAP1 POP JUMP JUMPDEST PUSH32 0x4E487B7100000000000000000000000000000000000000000000000000000000 PUSH0 MSTORE PUSH1 0x11 PUSH1 0x4 MSTORE PUSH1 0x24 PUSH0 REVERT JUMPDEST PUSH0 PUSH2 0xB81 DUP3 PUSH2 0x981 JUMP JUMPDEST SWAP2 POP PUSH2 0xB8C DUP4 PUSH2 0x981 JUMP JUMPDEST SWAP3 POP DUP3 DUP3 SUB SWAP1 POP DUP2 DUP2 GT ISZERO PUSH2 0xBA4 JUMPI PUSH2 0xBA3 PUSH2 0xB4A JUMP JUMPDEST JUMPDEST SWAP3 SWAP2 POP POP JUMP JUMPDEST PUSH32 0x4E487B7100000000000000000000000000000000000000000000000000000000 PUSH0 MSTORE PUSH1 0x32 PUSH1 0x4 MSTORE PUSH1 0x24 PUSH0 REVERT JUMPDEST PUSH32 0x4E487B7100000000000000000000000000000000000000000000000000000000 PUSH0 MSTORE PUSH1 0x22 PUSH1 0x4 MSTORE PUSH1 0x24 PUSH0 REVERT JUMPDEST PUSH0 PUSH1 0x2 DUP3 DIV SWAP1 POP PUSH1 0x1 DUP3 AND DUP1 PUSH2 0xC1B JUMPI PUSH1 0x7F DUP3 AND SWAP2 POP JUMPDEST PUSH1 0x20 DUP3 LT DUP2 SUB PUSH2 0xC2E JUMPI PUSH2 0xC2D PUSH2 0xBD7 JUMP JUMPDEST JUMPDEST POP SWAP2 SWAP1 POP JUMP JUMPDEST PUSH0 DUP2 SWAP1 POP DUP2 PUSH0 MSTORE PUSH1 0x20 PUSH0 KECCAK256 SWAP1 POP SWAP2 SWAP1 POP JUMP JUMPDEST PUSH0 PUSH1 0x20 PUSH1 0x1F DUP4 ADD DIV SWAP1 POP SWAP2 SWAP1 POP JUMP JUMPDEST PUSH0 DUP3 DUP3 SHL SWAP1 POP SWAP3 SWAP2 POP POP JUMP JUMPDEST PUSH0 PUSH1 0x8 DUP4 MUL PUSH2 0xC90 PUSH32 0xFFFFFFFFFFFFFFFFFFFFFFFFFFFFFFFFFFFFFFFFFFFFFFFFFFFFFFFFFFFFFFFF DUP3 PUSH2 0xC55 JUMP JUMPDEST PUSH2 0xC9A DUP7 DUP4 PUSH2 0xC55 JUMP JUMPDEST SWAP6 POP DUP1 NOT DUP5 AND SWAP4 POP DUP1 DUP7 AND DUP5 OR SWAP3 POP POP POP SWAP4 SWAP3 POP POP POP JUMP JUMPDEST PUSH0 DUP2 SWAP1 POP SWAP2 SWAP1 POP JUMP JUMPDEST PUSH0 PUSH2 0xCD5 PUSH2 0xCD0 PUSH2 0xCCB DUP5 PUSH2 0x981 JUMP JUMPDEST PUSH2 0xCB2 JUMP JUMPDEST PUSH2 0x981 JUMP JUMPDEST SWAP1 POP SWAP2 SWAP1 POP JUMP JUMPDEST PUSH0 DUP2 SWAP1 POP SWAP2 SWAP1 POP JUMP JUMPDEST PUSH2 0xCEE DUP4 PUSH2 0xCBB JUMP JUMPDEST PUSH2 0xD02 PUSH2 0xCFA DUP3 PUSH2 0xCDC JUMP JUMPDEST DUP5 DUP5 SLOAD PUSH2 0xC61 JUMP JUMPDEST DUP3 SSTORE POP POP POP POP JUMP JUMPDEST PUSH0 SWAP1 JUMP JUMPDEST PUSH2 0xD16 PUSH2 0xD0A JUMP JUMPDEST PUSH2 0xD21 DUP2 DUP5 DUP5 PUSH2 0xCE5 JUMP JUMPDEST POP POP POP JUMP JUMPDEST JUMPDEST DUP2 DUP2 LT ISZERO PUSH2 0xD44 JUMPI PUSH2 0xD39 PUSH0 DUP3 PUSH2 0xD0E JUMP JUMPDEST PUSH1 0x1 DUP2 ADD SWAP1 POP PUSH2 0xD27 JUMP JUMPDEST POP POP JUMP JUMPDEST PUSH1 0x1F DUP3 GT ISZERO PUSH2 0xD89 JUMPI PUSH2 0xD5A DUP2 PUSH2 0xC34 JUMP JUMPDEST PUSH2 0xD63 DUP5 PUSH2 0xC46 JUMP JUMPDEST DUP2 ADD PUSH1 0x20 DUP6 LT ISZERO PUSH2 0xD72 JUMPI DUP2 SWAP1 POP JUMPDEST PUSH2 0xD86 PUSH2 0xD7E DUP6 PUSH2 0xC46 JUMP JUMPDEST DUP4 ADD DUP3 PUSH2 0xD26 JUMP JUMPDEST POP POP JUMPDEST POP POP POP JUMP JUMPDEST PUSH0 DUP3 DUP3 SHR SWAP1 POP SWAP3 SWAP2 POP POP JUMP JUMPDEST PUSH0 PUSH2 0xDA9 PUSH0 NOT DUP5 PUSH1 0x8 MUL PUSH2 0xD8E JUMP JUMPDEST NOT DUP1 DUP4 AND SWAP2 POP POP SWAP3 SWAP2 POP POP JUMP JUMPDEST PUSH0 PUSH2 0xDC1 DUP4 DUP4 PUSH2 0xD9A JUMP JUMPDEST SWAP2 POP DUP3 PUSH1 0x2 MUL DUP3 OR SWAP1 POP SWAP3 SWAP2 POP POP JUMP JUMPDEST PUSH2 0xDDA DUP3 PUSH2 0x9DF JUMP JUMPDEST PUSH8 0xFFFFFFFFFFFFFFFF DUP2 GT ISZERO PUSH2 0xDF3 JUMPI PUSH2 0xDF2 PUSH2 0x6BE JUMP JUMPDEST JUMPDEST PUSH2 0xDFD DUP3 SLOAD PUSH2 0xC04 JUMP JUMPDEST PUSH2 0xE08 DUP3 DUP3 DUP6 PUSH2 0xD48 JUMP JUMPDEST PUSH0 PUSH1 0x20 SWAP1 POP PUSH1 0x1F DUP4 GT PUSH1 0x1 DUP2 EQ PUSH2 0xE39 JUMPI PUSH0 DUP5 ISZERO PUSH2 0xE27 JUMPI DUP3 DUP8 ADD MLOAD SWAP1 POP JUMPDEST PUSH2 0xE31 DUP6 DUP3 PUSH2 0xDB6 JUMP JUMPDEST DUP7 SSTORE POP PUSH2 0xE98 JUMP JUMPDEST PUSH1 0x1F NOT DUP5 AND PUSH2 0xE47 DUP7 PUSH2 0xC34 JUMP JUMPDEST PUSH0 JUMPDEST DUP3 DUP2 LT ISZERO PUSH2 0xE6E JUMPI DUP5 DUP10 ADD MLOAD DUP3 SSTORE PUSH1 0x1 DUP3 ADD SWAP2 POP PUSH1 0x20 DUP6 ADD SWAP5 POP PUSH1 0x20 DUP2 ADD SWAP1 POP PUSH2 0xE49 JUMP JUMPDEST DUP7 DUP4 LT ISZERO PUSH2 0xE8B JUMPI DUP5 DUP10 ADD MLOAD PUSH2 0xE87 PUSH1 0x1F DUP10 AND DUP3 PUSH2 0xD9A JUMP JUMPDEST DUP4 SSTORE POP JUMPDEST PUSH1 0x1 PUSH1 0x2 DUP9 MUL ADD DUP9 SSTORE POP POP POP JUMPDEST POP POP POP POP POP POP JUMP JUMPDEST PUSH32 0x53757276657920646F6573206E6F742065786973740000000000000000000000 PUSH0 DUP3 ADD MSTORE POP JUMP JUMPDEST PUSH0 PUSH2 0xED4 PUSH1 0x15 DUP4 PUSH2 0x9E9 JUMP JUMPDEST SWAP2 POP PUSH2 0xEDF DUP3 PUSH2 0xEA0 JUMP JUMPDEST PUSH1 0x20 DUP3 ADD SWAP1 POP SWAP2 SWAP1 POP JUMP JUMPDEST PUSH0 PUSH1 0x20 DUP3 ADD SWAP1 POP DUP2 DUP2 SUB PUSH0 DUP4 ADD MSTORE PUSH2 0xF01 DUP2 PUSH2 0xEC8 JUMP JUMPDEST SWAP1 POP SWAP2 SWAP1 POP JUMP JUMPDEST PUSH32 0x537572766579206973206E6F7420616374697665000000000000000000000000 PUSH0 DUP3 ADD MSTORE POP JUMP JUMPDEST PUSH0 PUSH2 0xF3C PUSH1 0x14 DUP4 PUSH2 0x9E9 JUMP JUMPDEST SWAP2 POP PUSH2 0xF47 DUP3 PUSH2 0xF08 JUMP JUMPDEST PUSH1 0x20 DUP3 ADD SWAP1 POP SWAP2 SWAP1 POP JUMP JUMPDEST PUSH0 PUSH1 0x20 DUP3 ADD SWAP1 POP DUP2 DUP2 SUB PUSH0 DUP4 ADD MSTORE PUSH2 0xF69 DUP2 PUSH2 0xF30 JUMP JUMPDEST SWAP1 POP SWAP2 SWAP1 POP JUMP JUMPDEST PUSH32 0x496E76616C6964206F7074696F6E20696E646578000000000000000000000000 PUSH0 DUP3 ADD MSTORE POP JUMP JUMPDEST PUSH0 PUSH2 0xFA4 PUSH1 0x14 DUP4 PUSH2 0x9E9 JUMP JUMPDEST SWAP2 POP PUSH2 0xFAF DUP3 PUSH2 0xF70 JUMP JUMPDEST PUSH1 0x20 DUP3 ADD SWAP1 POP SWAP2 SWAP1 POP JUMP JUMPDEST PUSH0 PUSH1 0x20 DUP3 ADD SWAP1 POP DUP2 DUP2 SUB PUSH0 DUP4 ADD MSTORE PUSH2 0xFD1 DUP2 PUSH2 0xF98 JUMP JUMPDEST SWAP1 POP SWAP2 SWAP1 POP JUMP JUMPDEST PUSH32 0x557365722068617320616C726561647920766F74656400000000000000000000 PUSH0 DUP3 ADD MSTORE POP JUMP JUMPDEST PUSH0 PUSH2 0x100C PUSH1 0x16 DUP4 PUSH2 0x9E9 JUMP JUMPDEST SWAP2 POP PUSH2 0x1017 DUP3 PUSH2 0xFD8 JUMP JUMPDEST PUSH1 0x20 DUP3 ADD SWAP1 POP SWAP2 SWAP1 POP JUMP JUMPDEST PUSH0 PUSH1 0x20 DUP3 ADD SWAP1 POP DUP2 DUP2 SUB PUSH0 DUP4 ADD MSTORE PUSH2 0x1039 DUP2 PUSH2 0x1000 JUMP JUMPDEST SWAP1 POP SWAP2 SWAP1 POP JUMP JUMPDEST PUSH0 PUSH2 0x104A DUP3 PUSH2 0x981 JUMP JUMPDEST SWAP2 POP PUSH32 0xFFFFFFFFFFFFFFFFFFFFFFFFFFFFFFFFFFFFFFFFFFFFFFFFFFFFFFFFFFFFFFFF DUP3 SUB PUSH2 0x107C JUMPI PUSH2 0x107B PUSH2 0xB4A JUMP JUMPDEST JUMPDEST PUSH1 0x1 DUP3 ADD SWAP1 POP SWAP2 SWAP1 POP JUMP INVALID LOG2 PUSH5 0x6970667358 0x22 SLT KECCAK256 DUP8 SUB 0xB9 0xD EXTCODESIZE 0xE6 RETURNDATACOPY 0x1F 0xB8 PUSH0 PUSH9 0xE362BF93291476F597 0xC6 SWAP16 RETURNDATASIZE 0xC3 DUP7 0xCA 0xB7 0xDB MLOAD 0x27 DUP7 RETURN PUSH5 0x736F6C6343 STOP ADDMOD BYTE STOP CALLER "
		},
		"gasEstimates": {
			"creation": {
				"codeDepositCost": "857000",
				"executionCost": "888",
				"totalCost": "857888"
			},
			"external": {
				"createSurvey(string,string[],bool)": "infinite",
				"getSurveyCount()": "2462",
				"surveys(uint256)": "infinite",
				"vote(uint256,uint256)": "infinite"
			}
		},
		"methodIdentifiers": {
			"createSurvey(string,string[],bool)": "0c4960dd",
			"getSurveyCount()": "9fe140b1",
			"surveys(uint256)": "86e68b90",
			"vote(uint256,uint256)": "b384abef"
		}
	},
	"abi": [
		{
			"inputs": [
				{
					"internalType": "string",
					"name": "_question",
					"type": "string"
				},
				{
					"internalType": "string[]",
					"name": "_options",
					"type": "string[]"
				},
				{
					"internalType": "bool",
					"name": "_initialActiveState",
					"type": "bool"
				}
			],
			"name": "createSurvey",
			"outputs": [],
			"stateMutability": "nonpayable",
			"type": "function"
		},
		{
			"inputs": [],
			"name": "getSurveyCount",
			"outputs": [
				{
					"internalType": "uint256",
					"name": "",
					"type": "uint256"
				}
			],
			"stateMutability": "view",
			"type": "function"
		},
		{
			"inputs": [
				{
					"internalType": "uint256",
					"name": "",
					"type": "uint256"
				}
			],
			"name": "surveys",
			"outputs": [
				{
					"internalType": "string",
					"name": "question",
					"type": "string"
				},
				{
					"internalType": "bool",
					"name": "isActive",
					"type": "bool"
				}
			],
			"stateMutability": "view",
			"type": "function"
		},
		{
			"inputs": [
				{
					"internalType": "uint256",
					"name": "_surveyId",
					"type": "uint256"
				},
				{
					"internalType": "uint256",
					"name": "_optionIndex",
					"type": "uint256"
				}
			],
			"name": "vote",
			"outputs": [],
			"stateMutability": "nonpayable",
			"type": "function"
		}
	]
}