{
	"data": {
		"bytecode": {
			"linkReferences": {},
			"object": "6080604052348015600e575f80fd5b506112618061001c5f395ff3fe608060405234801561000f575f80fd5b5060043610610055575f3560e01c80630c4960dd1461005957806378e6b2921461007557806386e68b90146100915780639fe140b1146100c2578063b384abef146100e0575b5f80fd5b610073600480360381019061006e91906109d1565b6100fc565b005b61008f600480360381019061008a9190610a8c565b610240565b005b6100ab60048036038101906100a69190610aca565b6102f1565b6040516100b9929190610b64565b60405180910390f35b6100ca6103b1565b6040516100d79190610ba1565b60405180910390f35b6100fa60048036038101906100f59190610bba565b6103bc565b005b600282511015610141576040517f08c379a000000000000000000000000000000000000000000000000000000000815260040161013890610c42565b60405180910390fd5b5f60018160018154018082558091505003905f5260205f209050505f8060015f8054905061016f9190610c8d565b815481106101805761017f610cc0565b5b905f5260205f20906005020190505f835167ffffffffffffffff8111156101aa576101a9610796565b5b6040519080825280602002602001820160405280156101d85781602001602082028036833780820191505090505b50905084825f0190816101eb9190610ee7565b5083826001019080519060200190610204929190610650565b508082600201908051906020019061021d9291906106a7565b5082826003015f6101000a81548160ff0219169083151502179055505050505050565b8015155f838154811061025657610255610cc0565b5b905f5260205f2090600502016003015f9054906101000a900460ff161515036102b4576040517f08c379a00000000000000000000000000000000000000000000000000000000081526004016102ab90611026565b60405180910390fd5b805f83815481106102c8576102c7610cc0565b5b905f5260205f2090600502016003015f6101000a81548160ff0219169083151502179055505050565b5f81815481106102ff575f80fd5b905f5260205f2090600502015f91509050805f01805461031e90610d1a565b80601f016020809104026020016040519081016040528092919081815260200182805461034a90610d1a565b80156103955780601f1061036c57610100808354040283529160200191610395565b820191905f5260205f20905b81548152906001019060200180831161037857829003601f168201915b505050505090806003015f9054906101000a900460ff16905082565b5f8080549050905090565b5f805490508210610402576040517f08c379a00000000000000000000000000000000000000000000000000000000081526004016103f99061108e565b60405180910390fd5b5f828154811061041557610414610cc0565b5b905f5260205f2090600502016003015f9054906101000a900460ff16610470576040517f08c379a0000000000000000000000000000000000000000000000000000000008152600401610467906110f6565b60405180910390fd5b5f828154811061048357610482610cc0565b5b905f5260205f2090600502016001018054905081106104d7576040517f08c379a00000000000000000000000000000000000000000000000000000000081526004016104ce9061115e565b60405180910390fd5b5f15155f83815481106104ed576104ec610cc0565b5b905f5260205f2090600502016004015f3373ffffffffffffffffffffffffffffffffffffffff1673ffffffffffffffffffffffffffffffffffffffff1681526020019081526020015f205f9054906101000a900460ff16151514610586576040517f08c379a000000000000000000000000000000000000000000000000000000000815260040161057d906111c6565b60405180910390fd5b5f828154811061059957610598610cc0565b5b905f5260205f20906005020160020181815481106105ba576105b9610cc0565b5b905f5260205f20015f8154809291906105d2906111e4565b919050555060015f83815481106105ec576105eb610cc0565b5b905f5260205f2090600502016004015f3373ffffffffffffffffffffffffffffffffffffffff1673ffffffffffffffffffffffffffffffffffffffff1681526020019081526020015f205f6101000a81548160ff0219169083151502179055505050565b828054828255905f5260205f20908101928215610696579160200282015b828111156106955782518290816106859190610ee7565b509160200191906001019061066e565b5b5090506106a391906106f2565b5090565b828054828255905f5260205f209081019282156106e1579160200282015b828111156106e05782518255916020019190600101906106c5565b5b5090506106ee9190610715565b5090565b5b80821115610711575f81816107089190610730565b506001016106f3565b5090565b5b8082111561072c575f815f905550600101610716565b5090565b50805461073c90610d1a565b5f825580601f1061074d575061076a565b601f0160209004905f5260205f20908101906107699190610715565b5b50565b5f604051905090565b5f80fd5b5f80fd5b5f80fd5b5f80fd5b5f601f19601f8301169050919050565b7f4e487b71000000000000000000000000000000000000000000000000000000005f52604160045260245ffd5b6107cc82610786565b810181811067ffffffffffffffff821117156107eb576107ea610796565b5b80604052505050565b5f6107fd61076d565b905061080982826107c3565b919050565b5f67ffffffffffffffff82111561082857610827610796565b5b61083182610786565b9050602081019050919050565b828183375f83830152505050565b5f61085e6108598461080e565b6107f4565b90508281526020810184848401111561087a57610879610782565b5b61088584828561083e565b509392505050565b5f82601f8301126108a1576108a061077e565b5b81356108b184826020860161084c565b91505092915050565b5f67ffffffffffffffff8211156108d4576108d3610796565b5b602082029050602081019050919050565b5f80fd5b5f6108fb6108f6846108ba565b6107f4565b9050808382526020820190506020840283018581111561091e5761091d6108e5565b5b835b8181101561096557803567ffffffffffffffff8111156109435761094261077e565b5b808601610950898261088d565b85526020850194505050602081019050610920565b5050509392505050565b5f82601f8301126109835761098261077e565b5b81356109938482602086016108e9565b91505092915050565b5f8115159050919050565b6109b08161099c565b81146109ba575f80fd5b50565b5f813590506109cb816109a7565b92915050565b5f805f606084860312156109e8576109e7610776565b5b5f84013567ffffffffffffffff811115610a0557610a0461077a565b5b610a118682870161088d565b935050602084013567ffffffffffffffff811115610a3257610a3161077a565b5b610a3e8682870161096f565b9250506040610a4f868287016109bd565b9150509250925092565b5f819050919050565b610a6b81610a59565b8114610a75575f80fd5b50565b5f81359050610a8681610a62565b92915050565b5f8060408385031215610aa257610aa1610776565b5b5f610aaf85828601610a78565b9250506020610ac0858286016109bd565b9150509250929050565b5f60208284031215610adf57610ade610776565b5b5f610aec84828501610a78565b91505092915050565b5f81519050919050565b5f82825260208201905092915050565b8281835e5f83830152505050565b5f610b2782610af5565b610b318185610aff565b9350610b41818560208601610b0f565b610b4a81610786565b840191505092915050565b610b5e8161099c565b82525050565b5f6040820190508181035f830152610b7c8185610b1d565b9050610b8b6020830184610b55565b9392505050565b610b9b81610a59565b82525050565b5f602082019050610bb45f830184610b92565b92915050565b5f8060408385031215610bd057610bcf610776565b5b5f610bdd85828601610a78565b9250506020610bee85828601610a78565b9150509250929050565b7f4174206c656173742032206f7074696f6e7320617265207265717569726564005f82015250565b5f610c2c601f83610aff565b9150610c3782610bf8565b602082019050919050565b5f6020820190508181035f830152610c5981610c20565b9050919050565b7f4e487b71000000000000000000000000000000000000000000000000000000005f52601160045260245ffd5b5f610c9782610a59565b9150610ca283610a59565b9250828203905081811115610cba57610cb9610c60565b5b92915050565b7f4e487b71000000000000000000000000000000000000000000000000000000005f52603260045260245ffd5b7f4e487b71000000000000000000000000000000000000000000000000000000005f52602260045260245ffd5b5f6002820490506001821680610d3157607f821691505b602082108103610d4457610d43610ced565b5b50919050565b5f819050815f5260205f209050919050565b5f6020601f8301049050919050565b5f82821b905092915050565b5f60088302610da67fffffffffffffffffffffffffffffffffffffffffffffffffffffffffffffffff82610d6b565b610db08683610d6b565b95508019841693508086168417925050509392505050565b5f819050919050565b5f610deb610de6610de184610a59565b610dc8565b610a59565b9050919050565b5f819050919050565b610e0483610dd1565b610e18610e1082610df2565b848454610d77565b825550505050565b5f90565b610e2c610e20565b610e37818484610dfb565b505050565b5b81811015610e5a57610e4f5f82610e24565b600181019050610e3d565b5050565b601f821115610e9f57610e7081610d4a565b610e7984610d5c565b81016020851015610e88578190505b610e9c610e9485610d5c565b830182610e3c565b50505b505050565b5f82821c905092915050565b5f610ebf5f1984600802610ea4565b1980831691505092915050565b5f610ed78383610eb0565b9150826002028217905092915050565b610ef082610af5565b67ffffffffffffffff811115610f0957610f08610796565b5b610f138254610d1a565b610f1e828285610e5e565b5f60209050601f831160018114610f4f575f8415610f3d578287015190505b610f478582610ecc565b865550610fae565b601f198416610f5d86610d4a565b5f5b82811015610f8457848901518255600182019150602085019450602081019050610f5f565b86831015610fa15784890151610f9d601f891682610eb0565b8355505b6001600288020188555050505b505050505050565b7f73757276657920697320616c726561647920696e2074686520646573697265645f8201527f2061637469766520737461746500000000000000000000000000000000000000602082015250565b5f611010602d83610aff565b915061101b82610fb6565b604082019050919050565b5f6020820190508181035f83015261103d81611004565b9050919050565b7f53757276657920646f6573206e6f7420657869737400000000000000000000005f82015250565b5f611078601583610aff565b915061108382611044565b602082019050919050565b5f6020820190508181035f8301526110a58161106c565b9050919050565b7f537572766579206973206e6f74206163746976650000000000000000000000005f82015250565b5f6110e0601483610aff565b91506110eb826110ac565b602082019050919050565b5f6020820190508181035f83015261110d816110d4565b9050919050565b7f496e76616c6964206f7074696f6e20696e6465780000000000000000000000005f82015250565b5f611148601483610aff565b915061115382611114565b602082019050919050565b5f6020820190508181035f8301526111758161113c565b9050919050565b7f557365722068617320616c726561647920766f746564000000000000000000005f82015250565b5f6111b0601683610aff565b91506111bb8261117c565b602082019050919050565b5f6020820190508181035f8301526111dd816111a4565b9050919050565b5f6111ee82610a59565b91507fffffffffffffffffffffffffffffffffffffffffffffffffffffffffffffffff82036112205761121f610c60565b5b60018201905091905056fea26469706673582212202c45397da495004c4f7b999ffa9ad71cdd9ee62aa867989628e39c90d68410ba64736f6c634300081a0033",
			"opcodes": "PUSH1 0x80 PUSH1 0x40 MSTORE CALLVALUE DUP1 ISZERO PUSH1 0xE JUMPI PUSH0 DUP1 REVERT JUMPDEST POP PUSH2 0x1261 DUP1 PUSH2 0x1C PUSH0 CODECOPY PUSH0 RETURN INVALID PUSH1 0x80 PUSH1 0x40 MSTORE CALLVALUE DUP1 ISZERO PUSH2 0xF JUMPI PUSH0 DUP1 REVERT JUMPDEST POP PUSH1 0x4 CALLDATASIZE LT PUSH2 0x55 JUMPI PUSH0 CALLDATALOAD PUSH1 0xE0 SHR DUP1 PUSH4 0xC4960DD EQ PUSH2 0x59 JUMPI DUP1 PUSH4 0x78E6B292 EQ PUSH2 0x75 JUMPI DUP1 PUSH4 0x86E68B90 EQ PUSH2 0x91 JUMPI DUP1 PUSH4 0x9FE140B1 EQ PUSH2 0xC2 JUMPI DUP1 PUSH4 0xB384ABEF EQ PUSH2 0xE0 JUMPI JUMPDEST PUSH0 DUP1 REVERT JUMPDEST PUSH2 0x73 PUSH1 0x4 DUP1 CALLDATASIZE SUB DUP2 ADD SWAP1 PUSH2 0x6E SWAP2 SWAP1 PUSH2 0x9D1 JUMP JUMPDEST PUSH2 0xFC JUMP JUMPDEST STOP JUMPDEST PUSH2 0x8F PUSH1 0x4 DUP1 CALLDATASIZE SUB DUP2 ADD SWAP1 PUSH2 0x8A SWAP2 SWAP1 PUSH2 0xA8C JUMP JUMPDEST PUSH2 0x240 JUMP JUMPDEST STOP JUMPDEST PUSH2 0xAB PUSH1 0x4 DUP1 CALLDATASIZE SUB DUP2 ADD SWAP1 PUSH2 0xA6 SWAP2 SWAP1 PUSH2 0xACA JUMP JUMPDEST PUSH2 0x2F1 JUMP JUMPDEST PUSH1 0x40 MLOAD PUSH2 0xB9 SWAP3 SWAP2 SWAP1 PUSH2 0xB64 JUMP JUMPDEST PUSH1 0x40 MLOAD DUP1 SWAP2 SUB SWAP1 RETURN JUMPDEST PUSH2 0xCA PUSH2 0x3B1 JUMP JUMPDEST PUSH1 0x40 MLOAD PUSH2 0xD7 SWAP2 SWAP1 PUSH2 0xBA1 JUMP JUMPDEST PUSH1 0x40 MLOAD DUP1 SWAP2 SUB SWAP1 RETURN JUMPDEST PUSH2 0xFA PUSH1 0x4 DUP1 CALLDATASIZE SUB DUP2 ADD SWAP1 PUSH2 0xF5 SWAP2 SWAP1 PUSH2 0xBBA JUMP JUMPDEST PUSH2 0x3BC JUMP JUMPDEST STOP JUMPDEST PUSH1 0x2 DUP3 MLOAD LT ISZERO PUSH2 0x141 JUMPI PUSH1 0x40 MLOAD PUSH32 0x8C379A000000000000000000000000000000000000000000000000000000000 DUP2 MSTORE PUSH1 0x4 ADD PUSH2 0x138 SWAP1 PUSH2 0xC42 JUMP JUMPDEST PUSH1 0x40 MLOAD DUP1 SWAP2 SUB SWAP1 REVERT JUMPDEST PUSH0 PUSH1 0x1 DUP2 PUSH1 0x1 DUP2 SLOAD ADD DUP1 DUP3 SSTORE DUP1 SWAP2 POP POP SUB SWAP1 PUSH0 MSTORE PUSH1 0x20 PUSH0 KECCAK256 SWAP1 POP POP PUSH0 DUP1 PUSH1 0x1 PUSH0 DUP1 SLOAD SWAP1 POP PUSH2 0x16F SWAP2 SWAP1 PUSH2 0xC8D JUMP JUMPDEST DUP2 SLOAD DUP2 LT PUSH2 0x180 JUMPI PUSH2 0x17F PUSH2 0xCC0 JUMP JUMPDEST JUMPDEST SWAP1 PUSH0 MSTORE PUSH1 0x20 PUSH0 KECCAK256 SWAP1 PUSH1 0x5 MUL ADD SWAP1 POP PUSH0 DUP4 MLOAD PUSH8 0xFFFFFFFFFFFFFFFF DUP2 GT ISZERO PUSH2 0x1AA JUMPI PUSH2 0x1A9 PUSH2 0x796 JUMP JUMPDEST JUMPDEST PUSH1 0x40 MLOAD SWAP1 DUP1 DUP3 MSTORE DUP1 PUSH1 0x20 MUL PUSH1 0x20 ADD DUP3 ADD PUSH1 0x40 MSTORE DUP1 ISZERO PUSH2 0x1D8 JUMPI DUP2 PUSH1 0x20 ADD PUSH1 0x20 DUP3 MUL DUP1 CALLDATASIZE DUP4 CALLDATACOPY DUP1 DUP3 ADD SWAP2 POP POP SWAP1 POP JUMPDEST POP SWAP1 POP DUP5 DUP3 PUSH0 ADD SWAP1 DUP2 PUSH2 0x1EB SWAP2 SWAP1 PUSH2 0xEE7 JUMP JUMPDEST POP DUP4 DUP3 PUSH1 0x1 ADD SWAP1 DUP1 MLOAD SWAP1 PUSH1 0x20 ADD SWAP1 PUSH2 0x204 SWAP3 SWAP2 SWAP1 PUSH2 0x650 JUMP JUMPDEST POP DUP1 DUP3 PUSH1 0x2 ADD SWAP1 DUP1 MLOAD SWAP1 PUSH1 0x20 ADD SWAP1 PUSH2 0x21D SWAP3 SWAP2 SWAP1 PUSH2 0x6A7 JUMP JUMPDEST POP DUP3 DUP3 PUSH1 0x3 ADD PUSH0 PUSH2 0x100 EXP DUP2 SLOAD DUP2 PUSH1 0xFF MUL NOT AND SWAP1 DUP4 ISZERO ISZERO MUL OR SWAP1 SSTORE POP POP POP POP POP POP JUMP JUMPDEST DUP1 ISZERO ISZERO PUSH0 DUP4 DUP2 SLOAD DUP2 LT PUSH2 0x256 JUMPI PUSH2 0x255 PUSH2 0xCC0 JUMP JUMPDEST JUMPDEST SWAP1 PUSH0 MSTORE PUSH1 0x20 PUSH0 KECCAK256 SWAP1 PUSH1 0x5 MUL ADD PUSH1 0x3 ADD PUSH0 SWAP1 SLOAD SWAP1 PUSH2 0x100 EXP SWAP1 DIV PUSH1 0xFF AND ISZERO ISZERO SUB PUSH2 0x2B4 JUMPI PUSH1 0x40 MLOAD PUSH32 0x8C379A000000000000000000000000000000000000000000000000000000000 DUP2 MSTORE PUSH1 0x4 ADD PUSH2 0x2AB SWAP1 PUSH2 0x1026 JUMP JUMPDEST PUSH1 0x40 MLOAD DUP1 SWAP2 SUB SWAP1 REVERT JUMPDEST DUP1 PUSH0 DUP4 DUP2 SLOAD DUP2 LT PUSH2 0x2C8 JUMPI PUSH2 0x2C7 PUSH2 0xCC0 JUMP JUMPDEST JUMPDEST SWAP1 PUSH0 MSTORE PUSH1 0x20 PUSH0 KECCAK256 SWAP1 PUSH1 0x5 MUL ADD PUSH1 0x3 ADD PUSH0 PUSH2 0x100 EXP DUP2 SLOAD DUP2 PUSH1 0xFF MUL NOT AND SWAP1 DUP4 ISZERO ISZERO MUL OR SWAP1 SSTORE POP POP POP JUMP JUMPDEST PUSH0 DUP2 DUP2 SLOAD DUP2 LT PUSH2 0x2FF JUMPI PUSH0 DUP1 REVERT JUMPDEST SWAP1 PUSH0 MSTORE PUSH1 0x20 PUSH0 KECCAK256 SWAP1 PUSH1 0x5 MUL ADD PUSH0 SWAP2 POP SWAP1 POP DUP1 PUSH0 ADD DUP1 SLOAD PUSH2 0x31E SWAP1 PUSH2 0xD1A JUMP JUMPDEST DUP1 PUSH1 0x1F ADD PUSH1 0x20 DUP1 SWAP2 DIV MUL PUSH1 0x20 ADD PUSH1 0x40 MLOAD SWAP1 DUP2 ADD PUSH1 0x40 MSTORE DUP1 SWAP3 SWAP2 SWAP1 DUP2 DUP2 MSTORE PUSH1 0x20 ADD DUP3 DUP1 SLOAD PUSH2 0x34A SWAP1 PUSH2 0xD1A JUMP JUMPDEST DUP1 ISZERO PUSH2 0x395 JUMPI DUP1 PUSH1 0x1F LT PUSH2 0x36C JUMPI PUSH2 0x100 DUP1 DUP4 SLOAD DIV MUL DUP4 MSTORE SWAP2 PUSH1 0x20 ADD SWAP2 PUSH2 0x395 JUMP JUMPDEST DUP3 ADD SWAP2 SWAP1 PUSH0 MSTORE PUSH1 0x20 PUSH0 KECCAK256 SWAP1 JUMPDEST DUP2 SLOAD DUP2 MSTORE SWAP1 PUSH1 0x1 ADD SWAP1 PUSH1 0x20 ADD DUP1 DUP4 GT PUSH2 0x378 JUMPI DUP3 SWAP1 SUB PUSH1 0x1F AND DUP3 ADD SWAP2 JUMPDEST POP POP POP POP POP SWAP1 DUP1 PUSH1 0x3 ADD PUSH0 SWAP1 SLOAD SWAP1 PUSH2 0x100 EXP SWAP1 DIV PUSH1 0xFF AND SWAP1 POP DUP3 JUMP JUMPDEST PUSH0 DUP1 DUP1 SLOAD SWAP1 POP SWAP1 POP SWAP1 JUMP JUMPDEST PUSH0 DUP1 SLOAD SWAP1 POP DUP3 LT PUSH2 0x402 JUMPI PUSH1 0x40 MLOAD PUSH32 0x8C379A000000000000000000000000000000000000000000000000000000000 DUP2 MSTORE PUSH1 0x4 ADD PUSH2 0x3F9 SWAP1 PUSH2 0x108E JUMP JUMPDEST PUSH1 0x40 MLOAD DUP1 SWAP2 SUB SWAP1 REVERT JUMPDEST PUSH0 DUP3 DUP2 SLOAD DUP2 LT PUSH2 0x415 JUMPI PUSH2 0x414 PUSH2 0xCC0 JUMP JUMPDEST JUMPDEST SWAP1 PUSH0 MSTORE PUSH1 0x20 PUSH0 KECCAK256 SWAP1 PUSH1 0x5 MUL ADD PUSH1 0x3 ADD PUSH0 SWAP1 SLOAD SWAP1 PUSH2 0x100 EXP SWAP1 DIV PUSH1 0xFF AND PUSH2 0x470 JUMPI PUSH1 0x40 MLOAD PUSH32 0x8C379A000000000000000000000000000000000000000000000000000000000 DUP2 MSTORE PUSH1 0x4 ADD PUSH2 0x467 SWAP1 PUSH2 0x10F6 JUMP JUMPDEST PUSH1 0x40 MLOAD DUP1 SWAP2 SUB SWAP1 REVERT JUMPDEST PUSH0 DUP3 DUP2 SLOAD DUP2 LT PUSH2 0x483 JUMPI PUSH2 0x482 PUSH2 0xCC0 JUMP JUMPDEST JUMPDEST SWAP1 PUSH0 MSTORE PUSH1 0x20 PUSH0 KECCAK256 SWAP1 PUSH1 0x5 MUL ADD PUSH1 0x1 ADD DUP1 SLOAD SWAP1 POP DUP2 LT PUSH2 0x4D7 JUMPI PUSH1 0x40 MLOAD PUSH32 0x8C379A000000000000000000000000000000000000000000000000000000000 DUP2 MSTORE PUSH1 0x4 ADD PUSH2 0x4CE SWAP1 PUSH2 0x115E JUMP JUMPDEST PUSH1 0x40 MLOAD DUP1 SWAP2 SUB SWAP1 REVERT JUMPDEST PUSH0 ISZERO ISZERO PUSH0 DUP4 DUP2 SLOAD DUP2 LT PUSH2 0x4ED JUMPI PUSH2 0x4EC PUSH2 0xCC0 JUMP JUMPDEST JUMPDEST SWAP1 PUSH0 MSTORE PUSH1 0x20 PUSH0 KECCAK256 SWAP1 PUSH1 0x5 MUL ADD PUSH1 0x4 ADD PUSH0 CALLER PUSH20 0xFFFFFFFFFFFFFFFFFFFFFFFFFFFFFFFFFFFFFFFF AND PUSH20 0xFFFFFFFFFFFFFFFFFFFFFFFFFFFFFFFFFFFFFFFF AND DUP2 MSTORE PUSH1 0x20 ADD SWAP1 DUP2 MSTORE PUSH1 0x20 ADD PUSH0 KECCAK256 PUSH0 SWAP1 SLOAD SWAP1 PUSH2 0x100 EXP SWAP1 DIV PUSH1 0xFF AND ISZERO ISZERO EQ PUSH2 0x586 JUMPI PUSH1 0x40 MLOAD PUSH32 0x8C379A000000000000000000000000000000000000000000000000000000000 DUP2 MSTORE PUSH1 0x4 ADD PUSH2 0x57D SWAP1 PUSH2 0x11C6 JUMP JUMPDEST PUSH1 0x40 MLOAD DUP1 SWAP2 SUB SWAP1 REVERT JUMPDEST PUSH0 DUP3 DUP2 SLOAD DUP2 LT PUSH2 0x599 JUMPI PUSH2 0x598 PUSH2 0xCC0 JUMP JUMPDEST JUMPDEST SWAP1 PUSH0 MSTORE PUSH1 0x20 PUSH0 KECCAK256 SWAP1 PUSH1 0x5 MUL ADD PUSH1 0x2 ADD DUP2 DUP2 SLOAD DUP2 LT PUSH2 0x5BA JUMPI PUSH2 0x5B9 PUSH2 0xCC0 JUMP JUMPDEST JUMPDEST SWAP1 PUSH0 MSTORE PUSH1 0x20 PUSH0 KECCAK256 ADD PUSH0 DUP2 SLOAD DUP1 SWAP3 SWAP2 SWAP1 PUSH2 0x5D2 SWAP1 PUSH2 0x11E4 JUMP JUMPDEST SWAP2 SWAP1 POP SSTORE POP PUSH1 0x1 PUSH0 DUP4 DUP2 SLOAD DUP2 LT PUSH2 0x5EC JUMPI PUSH2 0x5EB PUSH2 0xCC0 JUMP JUMPDEST JUMPDEST SWAP1 PUSH0 MSTORE PUSH1 0x20 PUSH0 KECCAK256 SWAP1 PUSH1 0x5 MUL ADD PUSH1 0x4 ADD PUSH0 CALLER PUSH20 0xFFFFFFFFFFFFFFFFFFFFFFFFFFFFFFFFFFFFFFFF AND PUSH20 0xFFFFFFFFFFFFFFFFFFFFFFFFFFFFFFFFFFFFFFFF AND DUP2 MSTORE PUSH1 0x20 ADD SWAP1 DUP2 MSTORE PUSH1 0x20 ADD PUSH0 KECCAK256 PUSH0 PUSH2 0x100 EXP DUP2 SLOAD DUP2 PUSH1 0xFF MUL NOT AND SWAP1 DUP4 ISZERO ISZERO MUL OR SWAP1 SSTORE POP POP POP JUMP JUMPDEST DUP3 DUP1 SLOAD DUP3 DUP3 SSTORE SWAP1 PUSH0 MSTORE PUSH1 0x20 PUSH0 KECCAK256 SWAP1 DUP2 ADD SWAP3 DUP3 ISZERO PUSH2 0x696 JUMPI SWAP2 PUSH1 0x20 MUL DUP3 ADD JUMPDEST DUP3 DUP2 GT ISZERO PUSH2 0x695 JUMPI DUP3 MLOAD DUP3 SWAP1 DUP2 PUSH2 0x685 SWAP2 SWAP1 PUSH2 0xEE7 JUMP JUMPDEST POP SWAP2 PUSH1 0x20 ADD SWAP2 SWAP1 PUSH1 0x1 ADD SWAP1 PUSH2 0x66E JUMP JUMPDEST JUMPDEST POP SWAP1 POP PUSH2 0x6A3 SWAP2 SWAP1 PUSH2 0x6F2 JUMP JUMPDEST POP SWAP1 JUMP JUMPDEST DUP3 DUP1 SLOAD DUP3 DUP3 SSTORE SWAP1 PUSH0 MSTORE PUSH1 0x20 PUSH0 KECCAK256 SWAP1 DUP2 ADD SWAP3 DUP3 ISZERO PUSH2 0x6E1 JUMPI SWAP2 PUSH1 0x20 MUL DUP3 ADD JUMPDEST DUP3 DUP2 GT ISZERO PUSH2 0x6E0 JUMPI DUP3 MLOAD DUP3 SSTORE SWAP2 PUSH1 0x20 ADD SWAP2 SWAP1 PUSH1 0x1 ADD SWAP1 PUSH2 0x6C5 JUMP JUMPDEST JUMPDEST POP SWAP1 POP PUSH2 0x6EE SWAP2 SWAP1 PUSH2 0x715 JUMP JUMPDEST POP SWAP1 JUMP JUMPDEST JUMPDEST DUP1 DUP3 GT ISZERO PUSH2 0x711 JUMPI PUSH0 DUP2 DUP2 PUSH2 0x708 SWAP2 SWAP1 PUSH2 0x730 JUMP JUMPDEST POP PUSH1 0x1 ADD PUSH2 0x6F3 JUMP JUMPDEST POP SWAP1 JUMP JUMPDEST JUMPDEST DUP1 DUP3 GT ISZERO PUSH2 0x72C JUMPI PUSH0 DUP2 PUSH0 SWAP1 SSTORE POP PUSH1 0x1 ADD PUSH2 0x716 JUMP JUMPDEST POP SWAP1 JUMP JUMPDEST POP DUP1 SLOAD PUSH2 0x73C SWAP1 PUSH2 0xD1A JUMP JUMPDEST PUSH0 DUP3 SSTORE DUP1 PUSH1 0x1F LT PUSH2 0x74D JUMPI POP PUSH2 0x76A JUMP JUMPDEST PUSH1 0x1F ADD PUSH1 0x20 SWAP1 DIV SWAP1 PUSH0 MSTORE PUSH1 0x20 PUSH0 KECCAK256 SWAP1 DUP2 ADD SWAP1 PUSH2 0x769 SWAP2 SWAP1 PUSH2 0x715 JUMP JUMPDEST JUMPDEST POP JUMP JUMPDEST PUSH0 PUSH1 0x40 MLOAD SWAP1 POP SWAP1 JUMP JUMPDEST PUSH0 DUP1 REVERT JUMPDEST PUSH0 DUP1 REVERT JUMPDEST PUSH0 DUP1 REVERT JUMPDEST PUSH0 DUP1 REVERT JUMPDEST PUSH0 PUSH1 0x1F NOT PUSH1 0x1F DUP4 ADD AND SWAP1 POP SWAP2 SWAP1 POP JUMP JUMPDEST PUSH32 0x4E487B7100000000000000000000000000000000000000000000000000000000 PUSH0 MSTORE PUSH1 0x41 PUSH1 0x4 MSTORE PUSH1 0x24 PUSH0 REVERT JUMPDEST PUSH2 0x7CC DUP3 PUSH2 0x786 JUMP JUMPDEST DUP2 ADD DUP2 DUP2 LT PUSH8 0xFFFFFFFFFFFFFFFF DUP3 GT OR ISZERO PUSH2 0x7EB JUMPI PUSH2 0x7EA PUSH2 0x796 JUMP JUMPDEST JUMPDEST DUP1 PUSH1 0x40 MSTORE POP POP POP JUMP JUMPDEST PUSH0 PUSH2 0x7FD PUSH2 0x76D JUMP JUMPDEST SWAP1 POP PUSH2 0x809 DUP3 DUP3 PUSH2 0x7C3 JUMP JUMPDEST SWAP2 SWAP1 POP JUMP JUMPDEST PUSH0 PUSH8 0xFFFFFFFFFFFFFFFF DUP3 GT ISZERO PUSH2 0x828 JUMPI PUSH2 0x827 PUSH2 0x796 JUMP JUMPDEST JUMPDEST PUSH2 0x831 DUP3 PUSH2 0x786 JUMP JUMPDEST SWAP1 POP PUSH1 0x20 DUP2 ADD SWAP1 POP SWAP2 SWAP1 POP JUMP JUMPDEST DUP3 DUP2 DUP4 CALLDATACOPY PUSH0 DUP4 DUP4 ADD MSTORE POP POP POP JUMP JUMPDEST PUSH0 PUSH2 0x85E PUSH2 0x859 DUP5 PUSH2 0x80E JUMP JUMPDEST PUSH2 0x7F4 JUMP JUMPDEST SWAP1 POP DUP3 DUP2 MSTORE PUSH1 0x20 DUP2 ADD DUP5 DUP5 DUP5 ADD GT ISZERO PUSH2 0x87A JUMPI PUSH2 0x879 PUSH2 0x782 JUMP JUMPDEST JUMPDEST PUSH2 0x885 DUP5 DUP3 DUP6 PUSH2 0x83E JUMP JUMPDEST POP SWAP4 SWAP3 POP POP POP JUMP JUMPDEST PUSH0 DUP3 PUSH1 0x1F DUP4 ADD SLT PUSH2 0x8A1 JUMPI PUSH2 0x8A0 PUSH2 0x77E JUMP JUMPDEST JUMPDEST DUP2 CALLDATALOAD PUSH2 0x8B1 DUP5 DUP3 PUSH1 0x20 DUP7 ADD PUSH2 0x84C JUMP JUMPDEST SWAP2 POP POP SWAP3 SWAP2 POP POP JUMP JUMPDEST PUSH0 PUSH8 0xFFFFFFFFFFFFFFFF DUP3 GT ISZERO PUSH2 0x8D4 JUMPI PUSH2 0x8D3 PUSH2 0x796 JUMP JUMPDEST JUMPDEST PUSH1 0x20 DUP3 MUL SWAP1 POP PUSH1 0x20 DUP2 ADD SWAP1 POP SWAP2 SWAP1 POP JUMP JUMPDEST PUSH0 DUP1 REVERT JUMPDEST PUSH0 PUSH2 0x8FB PUSH2 0x8F6 DUP5 PUSH2 0x8BA JUMP JUMPDEST PUSH2 0x7F4 JUMP JUMPDEST SWAP1 POP DUP1 DUP4 DUP3 MSTORE PUSH1 0x20 DUP3 ADD SWAP1 POP PUSH1 0x20 DUP5 MUL DUP4 ADD DUP6 DUP2 GT ISZERO PUSH2 0x91E JUMPI PUSH2 0x91D PUSH2 0x8E5 JUMP JUMPDEST JUMPDEST DUP4 JUMPDEST DUP2 DUP2 LT ISZERO PUSH2 0x965 JUMPI DUP1 CALLDATALOAD PUSH8 0xFFFFFFFFFFFFFFFF DUP2 GT ISZERO PUSH2 0x943 JUMPI PUSH2 0x942 PUSH2 0x77E JUMP JUMPDEST JUMPDEST DUP1 DUP7 ADD PUSH2 0x950 DUP10 DUP3 PUSH2 0x88D JUMP JUMPDEST DUP6 MSTORE PUSH1 0x20 DUP6 ADD SWAP5 POP POP POP PUSH1 0x20 DUP2 ADD SWAP1 POP PUSH2 0x920 JUMP JUMPDEST POP POP POP SWAP4 SWAP3 POP POP POP JUMP JUMPDEST PUSH0 DUP3 PUSH1 0x1F DUP4 ADD SLT PUSH2 0x983 JUMPI PUSH2 0x982 PUSH2 0x77E JUMP JUMPDEST JUMPDEST DUP2 CALLDATALOAD PUSH2 0x993 DUP5 DUP3 PUSH1 0x20 DUP7 ADD PUSH2 0x8E9 JUMP JUMPDEST SWAP2 POP POP SWAP3 SWAP2 POP POP JUMP JUMPDEST PUSH0 DUP2 ISZERO ISZERO SWAP1 POP SWAP2 SWAP1 POP JUMP JUMPDEST PUSH2 0x9B0 DUP2 PUSH2 0x99C JUMP JUMPDEST DUP2 EQ PUSH2 0x9BA JUMPI PUSH0 DUP1 REVERT JUMPDEST POP JUMP JUMPDEST PUSH0 DUP2 CALLDATALOAD SWAP1 POP PUSH2 0x9CB DUP2 PUSH2 0x9A7 JUMP JUMPDEST SWAP3 SWAP2 POP POP JUMP JUMPDEST PUSH0 DUP1 PUSH0 PUSH1 0x60 DUP5 DUP7 SUB SLT ISZERO PUSH2 0x9E8 JUMPI PUSH2 0x9E7 PUSH2 0x776 JUMP JUMPDEST JUMPDEST PUSH0 DUP5 ADD CALLDATALOAD PUSH8 0xFFFFFFFFFFFFFFFF DUP2 GT ISZERO PUSH2 0xA05 JUMPI PUSH2 0xA04 PUSH2 0x77A JUMP JUMPDEST JUMPDEST PUSH2 0xA11 DUP7 DUP3 DUP8 ADD PUSH2 0x88D JUMP JUMPDEST SWAP4 POP POP PUSH1 0x20 DUP5 ADD CALLDATALOAD PUSH8 0xFFFFFFFFFFFFFFFF DUP2 GT ISZERO PUSH2 0xA32 JUMPI PUSH2 0xA31 PUSH2 0x77A JUMP JUMPDEST JUMPDEST PUSH2 0xA3E DUP7 DUP3 DUP8 ADD PUSH2 0x96F JUMP JUMPDEST SWAP3 POP POP PUSH1 0x40 PUSH2 0xA4F DUP7 DUP3 DUP8 ADD PUSH2 0x9BD JUMP JUMPDEST SWAP2 POP POP SWAP3 POP SWAP3 POP SWAP3 JUMP JUMPDEST PUSH0 DUP2 SWAP1 POP SWAP2 SWAP1 POP JUMP JUMPDEST PUSH2 0xA6B DUP2 PUSH2 0xA59 JUMP JUMPDEST DUP2 EQ PUSH2 0xA75 JUMPI PUSH0 DUP1 REVERT JUMPDEST POP JUMP JUMPDEST PUSH0 DUP2 CALLDATALOAD SWAP1 POP PUSH2 0xA86 DUP2 PUSH2 0xA62 JUMP JUMPDEST SWAP3 SWAP2 POP POP JUMP JUMPDEST PUSH0 DUP1 PUSH1 0x40 DUP4 DUP6 SUB SLT ISZERO PUSH2 0xAA2 JUMPI PUSH2 0xAA1 PUSH2 0x776 JUMP JUMPDEST JUMPDEST PUSH0 PUSH2 0xAAF DUP6 DUP3 DUP7 ADD PUSH2 0xA78 JUMP JUMPDEST SWAP3 POP POP PUSH1 0x20 PUSH2 0xAC0 DUP6 DUP3 DUP7 ADD PUSH2 0x9BD JUMP JUMPDEST SWAP2 POP POP SWAP3 POP SWAP3 SWAP1 POP JUMP JUMPDEST PUSH0 PUSH1 0x20 DUP3 DUP5 SUB SLT ISZERO PUSH2 0xADF JUMPI PUSH2 0xADE PUSH2 0x776 JUMP JUMPDEST JUMPDEST PUSH0 PUSH2 0xAEC DUP5 DUP3 DUP6 ADD PUSH2 0xA78 JUMP JUMPDEST SWAP2 POP POP SWAP3 SWAP2 POP POP JUMP JUMPDEST PUSH0 DUP2 MLOAD SWAP1 POP SWAP2 SWAP1 POP JUMP JUMPDEST PUSH0 DUP3 DUP3 MSTORE PUSH1 0x20 DUP3 ADD SWAP1 POP SWAP3 SWAP2 POP POP JUMP JUMPDEST DUP3 DUP2 DUP4 MCOPY PUSH0 DUP4 DUP4 ADD MSTORE POP POP POP JUMP JUMPDEST PUSH0 PUSH2 0xB27 DUP3 PUSH2 0xAF5 JUMP JUMPDEST PUSH2 0xB31 DUP2 DUP6 PUSH2 0xAFF JUMP JUMPDEST SWAP4 POP PUSH2 0xB41 DUP2 DUP6 PUSH1 0x20 DUP7 ADD PUSH2 0xB0F JUMP JUMPDEST PUSH2 0xB4A DUP2 PUSH2 0x786 JUMP JUMPDEST DUP5 ADD SWAP2 POP POP SWAP3 SWAP2 POP POP JUMP JUMPDEST PUSH2 0xB5E DUP2 PUSH2 0x99C JUMP JUMPDEST DUP3 MSTORE POP POP JUMP JUMPDEST PUSH0 PUSH1 0x40 DUP3 ADD SWAP1 POP DUP2 DUP2 SUB PUSH0 DUP4 ADD MSTORE PUSH2 0xB7C DUP2 DUP6 PUSH2 0xB1D JUMP JUMPDEST SWAP1 POP PUSH2 0xB8B PUSH1 0x20 DUP4 ADD DUP5 PUSH2 0xB55 JUMP JUMPDEST SWAP4 SWAP3 POP POP POP JUMP JUMPDEST PUSH2 0xB9B DUP2 PUSH2 0xA59 JUMP JUMPDEST DUP3 MSTORE POP POP JUMP JUMPDEST PUSH0 PUSH1 0x20 DUP3 ADD SWAP1 POP PUSH2 0xBB4 PUSH0 DUP4 ADD DUP5 PUSH2 0xB92 JUMP JUMPDEST SWAP3 SWAP2 POP POP JUMP JUMPDEST PUSH0 DUP1 PUSH1 0x40 DUP4 DUP6 SUB SLT ISZERO PUSH2 0xBD0 JUMPI PUSH2 0xBCF PUSH2 0x776 JUMP JUMPDEST JUMPDEST PUSH0 PUSH2 0xBDD DUP6 DUP3 DUP7 ADD PUSH2 0xA78 JUMP JUMPDEST SWAP3 POP POP PUSH1 0x20 PUSH2 0xBEE DUP6 DUP3 DUP7 ADD PUSH2 0xA78 JUMP JUMPDEST SWAP2 POP POP SWAP3 POP SWAP3 SWAP1 POP JUMP JUMPDEST PUSH32 0x4174206C656173742032206F7074696F6E732061726520726571756972656400 PUSH0 DUP3 ADD MSTORE POP JUMP JUMPDEST PUSH0 PUSH2 0xC2C PUSH1 0x1F DUP4 PUSH2 0xAFF JUMP JUMPDEST SWAP2 POP PUSH2 0xC37 DUP3 PUSH2 0xBF8 JUMP JUMPDEST PUSH1 0x20 DUP3 ADD SWAP1 POP SWAP2 SWAP1 POP JUMP JUMPDEST PUSH0 PUSH1 0x20 DUP3 ADD SWAP1 POP DUP2 DUP2 SUB PUSH0 DUP4 ADD MSTORE PUSH2 0xC59 DUP2 PUSH2 0xC20 JUMP JUMPDEST SWAP1 POP SWAP2 SWAP1 POP JUMP JUMPDEST PUSH32 0x4E487B7100000000000000000000000000000000000000000000000000000000 PUSH0 MSTORE PUSH1 0x11 PUSH1 0x4 MSTORE PUSH1 0x24 PUSH0 REVERT JUMPDEST PUSH0 PUSH2 0xC97 DUP3 PUSH2 0xA59 JUMP JUMPDEST SWAP2 POP PUSH2 0xCA2 DUP4 PUSH2 0xA59 JUMP JUMPDEST SWAP3 POP DUP3 DUP3 SUB SWAP1 POP DUP2 DUP2 GT ISZERO PUSH2 0xCBA JUMPI PUSH2 0xCB9 PUSH2 0xC60 JUMP JUMPDEST JUMPDEST SWAP3 SWAP2 POP POP JUMP JUMPDEST PUSH32 0x4E487B7100000000000000000000000000000000000000000000000000000000 PUSH0 MSTORE PUSH1 0x32 PUSH1 0x4 MSTORE PUSH1 0x24 PUSH0 REVERT JUMPDEST PUSH32 0x4E487B7100000000000000000000000000000000000000000000000000000000 PUSH0 MSTORE PUSH1 0x22 PUSH1 0x4 MSTORE PUSH1 0x24 PUSH0 REVERT JUMPDEST PUSH0 PUSH1 0x2 DUP3 DIV SWAP1 POP PUSH1 0x1 DUP3 AND DUP1 PUSH2 0xD31 JUMPI PUSH1 0x7F DUP3 AND SWAP2 POP JUMPDEST PUSH1 0x20 DUP3 LT DUP2 SUB PUSH2 0xD44 JUMPI PUSH2 0xD43 PUSH2 0xCED JUMP JUMPDEST JUMPDEST POP SWAP2 SWAP1 POP JUMP JUMPDEST PUSH0 DUP2 SWAP1 POP DUP2 PUSH0 MSTORE PUSH1 0x20 PUSH0 KECCAK256 SWAP1 POP SWAP2 SWAP1 POP JUMP JUMPDEST PUSH0 PUSH1 0x20 PUSH1 0x1F DUP4 ADD DIV SWAP1 POP SWAP2 SWAP1 POP JUMP JUMPDEST PUSH0 DUP3 DUP3 SHL SWAP1 POP SWAP3 SWAP2 POP POP JUMP JUMPDEST PUSH0 PUSH1 0x8 DUP4 MUL PUSH2 0xDA6 PUSH32 0xFFFFFFFFFFFFFFFFFFFFFFFFFFFFFFFFFFFFFFFFFFFFFFFFFFFFFFFFFFFFFFFF DUP3 PUSH2 0xD6B JUMP JUMPDEST PUSH2 0xDB0 DUP7 DUP4 PUSH2 0xD6B JUMP JUMPDEST SWAP6 POP DUP1 NOT DUP5 AND SWAP4 POP DUP1 DUP7 AND DUP5 OR SWAP3 POP POP POP SWAP4 SWAP3 POP POP POP JUMP JUMPDEST PUSH0 DUP2 SWAP1 POP SWAP2 SWAP1 POP JUMP JUMPDEST PUSH0 PUSH2 0xDEB PUSH2 0xDE6 PUSH2 0xDE1 DUP5 PUSH2 0xA59 JUMP JUMPDEST PUSH2 0xDC8 JUMP JUMPDEST PUSH2 0xA59 JUMP JUMPDEST SWAP1 POP SWAP2 SWAP1 POP JUMP JUMPDEST PUSH0 DUP2 SWAP1 POP SWAP2 SWAP1 POP JUMP JUMPDEST PUSH2 0xE04 DUP4 PUSH2 0xDD1 JUMP JUMPDEST PUSH2 0xE18 PUSH2 0xE10 DUP3 PUSH2 0xDF2 JUMP JUMPDEST DUP5 DUP5 SLOAD PUSH2 0xD77 JUMP JUMPDEST DUP3 SSTORE POP POP POP POP JUMP JUMPDEST PUSH0 SWAP1 JUMP JUMPDEST PUSH2 0xE2C PUSH2 0xE20 JUMP JUMPDEST PUSH2 0xE37 DUP2 DUP5 DUP5 PUSH2 0xDFB JUMP JUMPDEST POP POP POP JUMP JUMPDEST JUMPDEST DUP2 DUP2 LT ISZERO PUSH2 0xE5A JUMPI PUSH2 0xE4F PUSH0 DUP3 PUSH2 0xE24 JUMP JUMPDEST PUSH1 0x1 DUP2 ADD SWAP1 POP PUSH2 0xE3D JUMP JUMPDEST POP POP JUMP JUMPDEST PUSH1 0x1F DUP3 GT ISZERO PUSH2 0xE9F JUMPI PUSH2 0xE70 DUP2 PUSH2 0xD4A JUMP JUMPDEST PUSH2 0xE79 DUP5 PUSH2 0xD5C JUMP JUMPDEST DUP2 ADD PUSH1 0x20 DUP6 LT ISZERO PUSH2 0xE88 JUMPI DUP2 SWAP1 POP JUMPDEST PUSH2 0xE9C PUSH2 0xE94 DUP6 PUSH2 0xD5C JUMP JUMPDEST DUP4 ADD DUP3 PUSH2 0xE3C JUMP JUMPDEST POP POP JUMPDEST POP POP POP JUMP JUMPDEST PUSH0 DUP3 DUP3 SHR SWAP1 POP SWAP3 SWAP2 POP POP JUMP JUMPDEST PUSH0 PUSH2 0xEBF PUSH0 NOT DUP5 PUSH1 0x8 MUL PUSH2 0xEA4 JUMP JUMPDEST NOT DUP1 DUP4 AND SWAP2 POP POP SWAP3 SWAP2 POP POP JUMP JUMPDEST PUSH0 PUSH2 0xED7 DUP4 DUP4 PUSH2 0xEB0 JUMP JUMPDEST SWAP2 POP DUP3 PUSH1 0x2 MUL DUP3 OR SWAP1 POP SWAP3 SWAP2 POP POP JUMP JUMPDEST PUSH2 0xEF0 DUP3 PUSH2 0xAF5 JUMP JUMPDEST PUSH8 0xFFFFFFFFFFFFFFFF DUP2 GT ISZERO PUSH2 0xF09 JUMPI PUSH2 0xF08 PUSH2 0x796 JUMP JUMPDEST JUMPDEST PUSH2 0xF13 DUP3 SLOAD PUSH2 0xD1A JUMP JUMPDEST PUSH2 0xF1E DUP3 DUP3 DUP6 PUSH2 0xE5E JUMP JUMPDEST PUSH0 PUSH1 0x20 SWAP1 POP PUSH1 0x1F DUP4 GT PUSH1 0x1 DUP2 EQ PUSH2 0xF4F JUMPI PUSH0 DUP5 ISZERO PUSH2 0xF3D JUMPI DUP3 DUP8 ADD MLOAD SWAP1 POP JUMPDEST PUSH2 0xF47 DUP6 DUP3 PUSH2 0xECC JUMP JUMPDEST DUP7 SSTORE POP PUSH2 0xFAE JUMP JUMPDEST PUSH1 0x1F NOT DUP5 AND PUSH2 0xF5D DUP7 PUSH2 0xD4A JUMP JUMPDEST PUSH0 JUMPDEST DUP3 DUP2 LT ISZERO PUSH2 0xF84 JUMPI DUP5 DUP10 ADD MLOAD DUP3 SSTORE PUSH1 0x1 DUP3 ADD SWAP2 POP PUSH1 0x20 DUP6 ADD SWAP5 POP PUSH1 0x20 DUP2 ADD SWAP1 POP PUSH2 0xF5F JUMP JUMPDEST DUP7 DUP4 LT ISZERO PUSH2 0xFA1 JUMPI DUP5 DUP10 ADD MLOAD PUSH2 0xF9D PUSH1 0x1F DUP10 AND DUP3 PUSH2 0xEB0 JUMP JUMPDEST DUP4 SSTORE POP JUMPDEST PUSH1 0x1 PUSH1 0x2 DUP9 MUL ADD DUP9 SSTORE POP POP POP JUMPDEST POP POP POP POP POP POP JUMP JUMPDEST PUSH32 0x73757276657920697320616C726561647920696E207468652064657369726564 PUSH0 DUP3 ADD MSTORE PUSH32 0x2061637469766520737461746500000000000000000000000000000000000000 PUSH1 0x20 DUP3 ADD MSTORE POP JUMP JUMPDEST PUSH0 PUSH2 0x1010 PUSH1 0x2D DUP4 PUSH2 0xAFF JUMP JUMPDEST SWAP2 POP PUSH2 0x101B DUP3 PUSH2 0xFB6 JUMP JUMPDEST PUSH1 0x40 DUP3 ADD SWAP1 POP SWAP2 SWAP1 POP JUMP JUMPDEST PUSH0 PUSH1 0x20 DUP3 ADD SWAP1 POP DUP2 DUP2 SUB PUSH0 DUP4 ADD MSTORE PUSH2 0x103D DUP2 PUSH2 0x1004 JUMP JUMPDEST SWAP1 POP SWAP2 SWAP1 POP JUMP JUMPDEST PUSH32 0x53757276657920646F6573206E6F742065786973740000000000000000000000 PUSH0 DUP3 ADD MSTORE POP JUMP JUMPDEST PUSH0 PUSH2 0x1078 PUSH1 0x15 DUP4 PUSH2 0xAFF JUMP JUMPDEST SWAP2 POP PUSH2 0x1083 DUP3 PUSH2 0x1044 JUMP JUMPDEST PUSH1 0x20 DUP3 ADD SWAP1 POP SWAP2 SWAP1 POP JUMP JUMPDEST PUSH0 PUSH1 0x20 DUP3 ADD SWAP1 POP DUP2 DUP2 SUB PUSH0 DUP4 ADD MSTORE PUSH2 0x10A5 DUP2 PUSH2 0x106C JUMP JUMPDEST SWAP1 POP SWAP2 SWAP1 POP JUMP JUMPDEST PUSH32 0x537572766579206973206E6F7420616374697665000000000000000000000000 PUSH0 DUP3 ADD MSTORE POP JUMP JUMPDEST PUSH0 PUSH2 0x10E0 PUSH1 0x14 DUP4 PUSH2 0xAFF JUMP JUMPDEST SWAP2 POP PUSH2 0x10EB DUP3 PUSH2 0x10AC JUMP JUMPDEST PUSH1 0x20 DUP3 ADD SWAP1 POP SWAP2 SWAP1 POP JUMP JUMPDEST PUSH0 PUSH1 0x20 DUP3 ADD SWAP1 POP DUP2 DUP2 SUB PUSH0 DUP4 ADD MSTORE PUSH2 0x110D DUP2 PUSH2 0x10D4 JUMP JUMPDEST SWAP1 POP SWAP2 SWAP1 POP JUMP JUMPDEST PUSH32 0x496E76616C6964206F7074696F6E20696E646578000000000000000000000000 PUSH0 DUP3 ADD MSTORE POP JUMP JUMPDEST PUSH0 PUSH2 0x1148 PUSH1 0x14 DUP4 PUSH2 0xAFF JUMP JUMPDEST SWAP2 POP PUSH2 0x1153 DUP3 PUSH2 0x1114 JUMP JUMPDEST PUSH1 0x20 DUP3 ADD SWAP1 POP SWAP2 SWAP1 POP JUMP JUMPDEST PUSH0 PUSH1 0x20 DUP3 ADD SWAP1 POP DUP2 DUP2 SUB PUSH0 DUP4 ADD MSTORE PUSH2 0x1175 DUP2 PUSH2 0x113C JUMP JUMPDEST SWAP1 POP SWAP2 SWAP1 POP JUMP JUMPDEST PUSH32 0x557365722068617320616C726561647920766F74656400000000000000000000 PUSH0 DUP3 ADD MSTORE POP JUMP JUMPDEST PUSH0 PUSH2 0x11B0 PUSH1 0x16 DUP4 PUSH2 0xAFF JUMP JUMPDEST SWAP2 POP PUSH2 0x11BB DUP3 PUSH2 0x117C JUMP JUMPDEST PUSH1 0x20 DUP3 ADD SWAP1 POP SWAP2 SWAP1 POP JUMP JUMPDEST PUSH0 PUSH1 0x20 DUP3 ADD SWAP1 POP DUP2 DUP2 SUB PUSH0 DUP4 ADD MSTORE PUSH2 0x11DD DUP2 PUSH2 0x11A4 JUMP JUMPDEST SWAP1 POP SWAP2 SWAP1 POP JUMP JUMPDEST PUSH0 PUSH2 0x11EE DUP3 PUSH2 0xA59 JUMP JUMPDEST SWAP2 POP PUSH32 0xFFFFFFFFFFFFFFFFFFFFFFFFFFFFFFFFFFFFFFFFFFFFFFFFFFFFFFFFFFFFFFFF DUP3 SUB PUSH2 0x1220 JUMPI PUSH2 0x121F PUSH2 0xC60 JUMP JUMPDEST JUMPDEST PUSH1 0x1 DUP3 ADD SWAP1 POP SWAP2 SWAP1 POP JUMP INVALID LOG2 PUSH5 0x6970667358 0x22 SLT KECCAK256 0x2C GASLIMIT CODECOPY PUSH30 0xA495004C4F7B999FFA9AD71CDD9EE62AA867989628E39C90D68410BA6473 PUSH16 0x6C634300081A00330000000000000000 "
		},
		"gasEstimates": {
			"creation": {
				"codeDepositCost": "941000",
				"executionCost": "979",
				"totalCost": "941979"
			},
			"external": {
				"changeActiveStatus(uint256,bool)": "31402",
				"createSurvey(string,string[],bool)": "infinite",
				"getSurveyCount()": "2484",
				"surveys(uint256)": "infinite",
				"vote(uint256,uint256)": "infinite"
			}
		},
		"methodIdentifiers": {
			"changeActiveStatus(uint256,bool)": "78e6b292",
			"createSurvey(string,string[],bool)": "0c4960dd",
			"getSurveyCount()": "9fe140b1",
			"surveys(uint256)": "86e68b90",
			"vote(uint256,uint256)": "b384abef"
		}
	},
	"abi": [
		{
			"inputs": [
				{
					"internalType": "uint256",
					"name": "surveyIndex",
					"type": "uint256"
				},
				{
					"internalType": "bool",
					"name": "isActive",
					"type": "bool"
				}
			],
			"name": "changeActiveStatus",
			"outputs": [],
			"stateMutability": "nonpayable",
			"type": "function"
		},
		{
			"inputs": [
				{
					"internalType": "string",
					"name": "_question",
					"type": "string"
				},
				{
					"internalType": "string[]",
					"name": "_options",
					"type": "string[]"
				},
				{
					"internalType": "bool",
					"name": "_initialActiveState",
					"type": "bool"
				}
			],
			"name": "createSurvey",
			"outputs": [],
			"stateMutability": "nonpayable",
			"type": "function"
		},
		{
			"inputs": [],
			"name": "getSurveyCount",
			"outputs": [
				{
					"internalType": "uint256",
					"name": "",
					"type": "uint256"
				}
			],
			"stateMutability": "view",
			"type": "function"
		},
		{
			"inputs": [
				{
					"internalType": "uint256",
					"name": "",
					"type": "uint256"
				}
			],
			"name": "surveys",
			"outputs": [
				{
					"internalType": "string",
					"name": "question",
					"type": "string"
				},
				{
					"internalType": "bool",
					"name": "isActive",
					"type": "bool"
				}
			],
			"stateMutability": "view",
			"type": "function"
		},
		{
			"inputs": [
				{
					"internalType": "uint256",
					"name": "_surveyId",
					"type": "uint256"
				},
				{
					"internalType": "uint256",
					"name": "_optionIndex",
					"type": "uint256"
				}
			],
			"name": "vote",
			"outputs": [],
			"stateMutability": "nonpayable",
			"type": "function"
		}
	]
}