{
	"data": {
		"bytecode": {
			"linkReferences": {},
			"object": "6080604052348015600e575f80fd5b506118cf8061001c5f395ff3fe608060405234801561000f575f80fd5b5060043610610086575f3560e01c806386e68b901161005957806386e68b90146101225780639fe140b114610153578063b384abef14610171578063ecca031f1461018d57610086565b80630a277d6d1461008a5780630c4960dd146100ba578063256a7f6b146100d657806378e6b29214610106575b5f80fd5b6100a4600480360381019061009f9190610b3c565b6101bd565b6040516100b19190610c1e565b60405180910390f35b6100d460048036038101906100cf9190610e91565b610287565b005b6100f060048036038101906100eb9190610b3c565b6103cb565b6040516100fd9190611034565b60405180910390f35b610120600480360381019061011b9190611054565b610513565b005b61013c60048036038101906101379190610b3c565b6105c4565b60405161014a9291906110e9565b60405180910390f35b61015b610684565b6040516101689190611126565b60405180910390f35b61018b6004803603810190610186919061113f565b61068f565b005b6101a760048036038101906101a29190610b3c565b610923565b6040516101b4919061117d565b60405180910390f35b60605f82101580156101d257505f8054905082105b610211576040517f08c379a0000000000000000000000000000000000000000000000000000000008152600401610208906111e0565b60405180910390fd5b5f8281548110610224576102236111fe565b5b905f5260205f20906005020160020180548060200260200160405190810160405280929190818152602001828054801561027b57602002820191905f5260205f20905b815481526020019060010190808311610267575b50505050509050919050565b6002825110156102cc576040517f08c379a00000000000000000000000000000000000000000000000000000000081526004016102c390611275565b60405180910390fd5b5f60018160018154018082558091505003905f5260205f209050505f8060015f805490506102fa91906112c0565b8154811061030b5761030a6111fe565b5b905f5260205f20906005020190505f835167ffffffffffffffff81111561033557610334610c56565b5b6040519080825280602002602001820160405280156103635781602001602082028036833780820191505090505b50905084825f01908161037691906114ed565b508382600101908051906020019061038f9291906109db565b50808260020190805190602001906103a8929190610a32565b5082826003015f6101000a81548160ff0219169083151502179055505050505050565b60605f82101580156103e057505f8054905082105b61041f576040517f08c379a0000000000000000000000000000000000000000000000000000000008152600401610416906111e0565b60405180910390fd5b5f8281548110610432576104316111fe565b5b905f5260205f209060050201600101805480602002602001604051908101604052809291908181526020015f905b82821015610508578382905f5260205f2001805461047d90611320565b80601f01602080910402602001604051908101604052809291908181526020018280546104a990611320565b80156104f45780601f106104cb576101008083540402835291602001916104f4565b820191905f5260205f20905b8154815290600101906020018083116104d757829003601f168201915b505050505081526020019060010190610460565b505050509050919050565b8015155f8381548110610529576105286111fe565b5b905f5260205f2090600502016003015f9054906101000a900460ff16151503610587576040517f08c379a000000000000000000000000000000000000000000000000000000000815260040161057e9061162c565b60405180910390fd5b805f838154811061059b5761059a6111fe565b5b905f5260205f2090600502016003015f6101000a81548160ff0219169083151502179055505050565b5f81815481106105d2575f80fd5b905f5260205f2090600502015f91509050805f0180546105f190611320565b80601f016020809104026020016040519081016040528092919081815260200182805461061d90611320565b80156106685780601f1061063f57610100808354040283529160200191610668565b820191905f5260205f20905b81548152906001019060200180831161064b57829003601f168201915b505050505090806003015f9054906101000a900460ff16905082565b5f8080549050905090565b5f8054905082106106d5576040517f08c379a00000000000000000000000000000000000000000000000000000000081526004016106cc90611694565b60405180910390fd5b5f82815481106106e8576106e76111fe565b5b905f5260205f2090600502016003015f9054906101000a900460ff16610743576040517f08c379a000000000000000000000000000000000000000000000000000000000815260040161073a906116fc565b60405180910390fd5b5f8281548110610756576107556111fe565b5b905f5260205f2090600502016001018054905081106107aa576040517f08c379a00000000000000000000000000000000000000000000000000000000081526004016107a190611764565b60405180910390fd5b5f15155f83815481106107c0576107bf6111fe565b5b905f5260205f2090600502016004015f3373ffffffffffffffffffffffffffffffffffffffff1673ffffffffffffffffffffffffffffffffffffffff1681526020019081526020015f205f9054906101000a900460ff16151514610859576040517f08c379a0000000000000000000000000000000000000000000000000000000008152600401610850906117cc565b60405180910390fd5b5f828154811061086c5761086b6111fe565b5b905f5260205f209060050201600201818154811061088d5761088c6111fe565b5b905f5260205f20015f8154809291906108a5906117ea565b919050555060015f83815481106108bf576108be6111fe565b5b905f5260205f2090600502016004015f3373ffffffffffffffffffffffffffffffffffffffff1673ffffffffffffffffffffffffffffffffffffffff1681526020019081526020015f205f6101000a81548160ff0219169083151502179055505050565b5f8080549050821061096a576040517f08c379a00000000000000000000000000000000000000000000000000000000081526004016109619061187b565b60405180910390fd5b5f828154811061097d5761097c6111fe565b5b905f5260205f2090600502016004015f3373ffffffffffffffffffffffffffffffffffffffff1673ffffffffffffffffffffffffffffffffffffffff1681526020019081526020015f205f9054906101000a900460ff169050919050565b828054828255905f5260205f20908101928215610a21579160200282015b82811115610a20578251829081610a1091906114ed565b50916020019190600101906109f9565b5b509050610a2e9190610a7d565b5090565b828054828255905f5260205f20908101928215610a6c579160200282015b82811115610a6b578251825591602001919060010190610a50565b5b509050610a799190610aa0565b5090565b5b80821115610a9c575f8181610a939190610abb565b50600101610a7e565b5090565b5b80821115610ab7575f815f905550600101610aa1565b5090565b508054610ac790611320565b5f825580601f10610ad85750610af5565b601f0160209004905f5260205f2090810190610af49190610aa0565b5b50565b5f604051905090565b5f80fd5b5f80fd5b5f819050919050565b610b1b81610b09565b8114610b25575f80fd5b50565b5f81359050610b3681610b12565b92915050565b5f60208284031215610b5157610b50610b01565b5b5f610b5e84828501610b28565b91505092915050565b5f81519050919050565b5f82825260208201905092915050565b5f819050602082019050919050565b610b9981610b09565b82525050565b5f610baa8383610b90565b60208301905092915050565b5f602082019050919050565b5f610bcc82610b67565b610bd68185610b71565b9350610be183610b81565b805f5b83811015610c11578151610bf88882610b9f565b9750610c0383610bb6565b925050600181019050610be4565b5085935050505092915050565b5f6020820190508181035f830152610c368184610bc2565b905092915050565b5f80fd5b5f80fd5b5f601f19601f8301169050919050565b7f4e487b71000000000000000000000000000000000000000000000000000000005f52604160045260245ffd5b610c8c82610c46565b810181811067ffffffffffffffff82111715610cab57610caa610c56565b5b80604052505050565b5f610cbd610af8565b9050610cc98282610c83565b919050565b5f67ffffffffffffffff821115610ce857610ce7610c56565b5b610cf182610c46565b9050602081019050919050565b828183375f83830152505050565b5f610d1e610d1984610cce565b610cb4565b905082815260208101848484011115610d3a57610d39610c42565b5b610d45848285610cfe565b509392505050565b5f82601f830112610d6157610d60610c3e565b5b8135610d71848260208601610d0c565b91505092915050565b5f67ffffffffffffffff821115610d9457610d93610c56565b5b602082029050602081019050919050565b5f80fd5b5f610dbb610db684610d7a565b610cb4565b90508083825260208201905060208402830185811115610dde57610ddd610da5565b5b835b81811015610e2557803567ffffffffffffffff811115610e0357610e02610c3e565b5b808601610e108982610d4d565b85526020850194505050602081019050610de0565b5050509392505050565b5f82601f830112610e4357610e42610c3e565b5b8135610e53848260208601610da9565b91505092915050565b5f8115159050919050565b610e7081610e5c565b8114610e7a575f80fd5b50565b5f81359050610e8b81610e67565b92915050565b5f805f60608486031215610ea857610ea7610b01565b5b5f84013567ffffffffffffffff811115610ec557610ec4610b05565b5b610ed186828701610d4d565b935050602084013567ffffffffffffffff811115610ef257610ef1610b05565b5b610efe86828701610e2f565b9250506040610f0f86828701610e7d565b9150509250925092565b5f81519050919050565b5f82825260208201905092915050565b5f819050602082019050919050565b5f81519050919050565b5f82825260208201905092915050565b8281835e5f83830152505050565b5f610f7482610f42565b610f7e8185610f4c565b9350610f8e818560208601610f5c565b610f9781610c46565b840191505092915050565b5f610fad8383610f6a565b905092915050565b5f602082019050919050565b5f610fcb82610f19565b610fd58185610f23565b935083602082028501610fe785610f33565b805f5b8581101561102257848403895281516110038582610fa2565b945061100e83610fb5565b925060208a01995050600181019050610fea565b50829750879550505050505092915050565b5f6020820190508181035f83015261104c8184610fc1565b905092915050565b5f806040838503121561106a57611069610b01565b5b5f61107785828601610b28565b925050602061108885828601610e7d565b9150509250929050565b5f82825260208201905092915050565b5f6110ac82610f42565b6110b68185611092565b93506110c6818560208601610f5c565b6110cf81610c46565b840191505092915050565b6110e381610e5c565b82525050565b5f6040820190508181035f83015261110181856110a2565b905061111060208301846110da565b9392505050565b61112081610b09565b82525050565b5f6020820190506111395f830184611117565b92915050565b5f806040838503121561115557611154610b01565b5b5f61116285828601610b28565b925050602061117385828601610b28565b9150509250929050565b5f6020820190506111905f8301846110da565b92915050565b7f696e76616c696420696e646578000000000000000000000000000000000000005f82015250565b5f6111ca600d83611092565b91506111d582611196565b602082019050919050565b5f6020820190508181035f8301526111f7816111be565b9050919050565b7f4e487b71000000000000000000000000000000000000000000000000000000005f52603260045260245ffd5b7f4174206c656173742032206f7074696f6e7320617265207265717569726564005f82015250565b5f61125f601f83611092565b915061126a8261122b565b602082019050919050565b5f6020820190508181035f83015261128c81611253565b9050919050565b7f4e487b71000000000000000000000000000000000000000000000000000000005f52601160045260245ffd5b5f6112ca82610b09565b91506112d583610b09565b92508282039050818111156112ed576112ec611293565b5b92915050565b7f4e487b71000000000000000000000000000000000000000000000000000000005f52602260045260245ffd5b5f600282049050600182168061133757607f821691505b60208210810361134a576113496112f3565b5b50919050565b5f819050815f5260205f209050919050565b5f6020601f8301049050919050565b5f82821b905092915050565b5f600883026113ac7fffffffffffffffffffffffffffffffffffffffffffffffffffffffffffffffff82611371565b6113b68683611371565b95508019841693508086168417925050509392505050565b5f819050919050565b5f6113f16113ec6113e784610b09565b6113ce565b610b09565b9050919050565b5f819050919050565b61140a836113d7565b61141e611416826113f8565b84845461137d565b825550505050565b5f90565b611432611426565b61143d818484611401565b505050565b5b81811015611460576114555f8261142a565b600181019050611443565b5050565b601f8211156114a55761147681611350565b61147f84611362565b8101602085101561148e578190505b6114a261149a85611362565b830182611442565b50505b505050565b5f82821c905092915050565b5f6114c55f19846008026114aa565b1980831691505092915050565b5f6114dd83836114b6565b9150826002028217905092915050565b6114f682610f42565b67ffffffffffffffff81111561150f5761150e610c56565b5b6115198254611320565b611524828285611464565b5f60209050601f831160018114611555575f8415611543578287015190505b61154d85826114d2565b8655506115b4565b601f19841661156386611350565b5f5b8281101561158a57848901518255600182019150602085019450602081019050611565565b868310156115a757848901516115a3601f8916826114b6565b8355505b6001600288020188555050505b505050505050565b7f73757276657920697320616c726561647920696e2074686520646573697265645f8201527f2061637469766520737461746500000000000000000000000000000000000000602082015250565b5f611616602d83611092565b9150611621826115bc565b604082019050919050565b5f6020820190508181035f8301526116438161160a565b9050919050565b7f53757276657920646f6573206e6f7420657869737400000000000000000000005f82015250565b5f61167e601583611092565b91506116898261164a565b602082019050919050565b5f6020820190508181035f8301526116ab81611672565b9050919050565b7f537572766579206973206e6f74206163746976650000000000000000000000005f82015250565b5f6116e6601483611092565b91506116f1826116b2565b602082019050919050565b5f6020820190508181035f830152611713816116da565b9050919050565b7f496e76616c6964206f7074696f6e20696e6465780000000000000000000000005f82015250565b5f61174e601483611092565b91506117598261171a565b602082019050919050565b5f6020820190508181035f83015261177b81611742565b9050919050565b7f557365722068617320616c726561647920766f746564000000000000000000005f82015250565b5f6117b6601683611092565b91506117c182611782565b602082019050919050565b5f6020820190508181035f8301526117e3816117aa565b9050919050565b5f6117f482610b09565b91507fffffffffffffffffffffffffffffffffffffffffffffffffffffffffffffffff820361182657611825611293565b5b600182019050919050565b7f696e76616c6964207375727665792049440000000000000000000000000000005f82015250565b5f611865601183611092565b915061187082611831565b602082019050919050565b5f6020820190508181035f83015261189281611859565b905091905056fea26469706673582212207f3fc027da42db8abcc0e58b1c3a3ef1f85c84241821727e4b4b22c2a92ce56464736f6c634300081a0033",
			"opcodes": "PUSH1 0x80 PUSH1 0x40 MSTORE CALLVALUE DUP1 ISZERO PUSH1 0xE JUMPI PUSH0 DUP1 REVERT JUMPDEST POP PUSH2 0x18CF DUP1 PUSH2 0x1C PUSH0 CODECOPY PUSH0 RETURN INVALID PUSH1 0x80 PUSH1 0x40 MSTORE CALLVALUE DUP1 ISZERO PUSH2 0xF JUMPI PUSH0 DUP1 REVERT JUMPDEST POP PUSH1 0x4 CALLDATASIZE LT PUSH2 0x86 JUMPI PUSH0 CALLDATALOAD PUSH1 0xE0 SHR DUP1 PUSH4 0x86E68B90 GT PUSH2 0x59 JUMPI DUP1 PUSH4 0x86E68B90 EQ PUSH2 0x122 JUMPI DUP1 PUSH4 0x9FE140B1 EQ PUSH2 0x153 JUMPI DUP1 PUSH4 0xB384ABEF EQ PUSH2 0x171 JUMPI DUP1 PUSH4 0xECCA031F EQ PUSH2 0x18D JUMPI PUSH2 0x86 JUMP JUMPDEST DUP1 PUSH4 0xA277D6D EQ PUSH2 0x8A JUMPI DUP1 PUSH4 0xC4960DD EQ PUSH2 0xBA JUMPI DUP1 PUSH4 0x256A7F6B EQ PUSH2 0xD6 JUMPI DUP1 PUSH4 0x78E6B292 EQ PUSH2 0x106 JUMPI JUMPDEST PUSH0 DUP1 REVERT JUMPDEST PUSH2 0xA4 PUSH1 0x4 DUP1 CALLDATASIZE SUB DUP2 ADD SWAP1 PUSH2 0x9F SWAP2 SWAP1 PUSH2 0xB3C JUMP JUMPDEST PUSH2 0x1BD JUMP JUMPDEST PUSH1 0x40 MLOAD PUSH2 0xB1 SWAP2 SWAP1 PUSH2 0xC1E JUMP JUMPDEST PUSH1 0x40 MLOAD DUP1 SWAP2 SUB SWAP1 RETURN JUMPDEST PUSH2 0xD4 PUSH1 0x4 DUP1 CALLDATASIZE SUB DUP2 ADD SWAP1 PUSH2 0xCF SWAP2 SWAP1 PUSH2 0xE91 JUMP JUMPDEST PUSH2 0x287 JUMP JUMPDEST STOP JUMPDEST PUSH2 0xF0 PUSH1 0x4 DUP1 CALLDATASIZE SUB DUP2 ADD SWAP1 PUSH2 0xEB SWAP2 SWAP1 PUSH2 0xB3C JUMP JUMPDEST PUSH2 0x3CB JUMP JUMPDEST PUSH1 0x40 MLOAD PUSH2 0xFD SWAP2 SWAP1 PUSH2 0x1034 JUMP JUMPDEST PUSH1 0x40 MLOAD DUP1 SWAP2 SUB SWAP1 RETURN JUMPDEST PUSH2 0x120 PUSH1 0x4 DUP1 CALLDATASIZE SUB DUP2 ADD SWAP1 PUSH2 0x11B SWAP2 SWAP1 PUSH2 0x1054 JUMP JUMPDEST PUSH2 0x513 JUMP JUMPDEST STOP JUMPDEST PUSH2 0x13C PUSH1 0x4 DUP1 CALLDATASIZE SUB DUP2 ADD SWAP1 PUSH2 0x137 SWAP2 SWAP1 PUSH2 0xB3C JUMP JUMPDEST PUSH2 0x5C4 JUMP JUMPDEST PUSH1 0x40 MLOAD PUSH2 0x14A SWAP3 SWAP2 SWAP1 PUSH2 0x10E9 JUMP JUMPDEST PUSH1 0x40 MLOAD DUP1 SWAP2 SUB SWAP1 RETURN JUMPDEST PUSH2 0x15B PUSH2 0x684 JUMP JUMPDEST PUSH1 0x40 MLOAD PUSH2 0x168 SWAP2 SWAP1 PUSH2 0x1126 JUMP JUMPDEST PUSH1 0x40 MLOAD DUP1 SWAP2 SUB SWAP1 RETURN JUMPDEST PUSH2 0x18B PUSH1 0x4 DUP1 CALLDATASIZE SUB DUP2 ADD SWAP1 PUSH2 0x186 SWAP2 SWAP1 PUSH2 0x113F JUMP JUMPDEST PUSH2 0x68F JUMP JUMPDEST STOP JUMPDEST PUSH2 0x1A7 PUSH1 0x4 DUP1 CALLDATASIZE SUB DUP2 ADD SWAP1 PUSH2 0x1A2 SWAP2 SWAP1 PUSH2 0xB3C JUMP JUMPDEST PUSH2 0x923 JUMP JUMPDEST PUSH1 0x40 MLOAD PUSH2 0x1B4 SWAP2 SWAP1 PUSH2 0x117D JUMP JUMPDEST PUSH1 0x40 MLOAD DUP1 SWAP2 SUB SWAP1 RETURN JUMPDEST PUSH1 0x60 PUSH0 DUP3 LT ISZERO DUP1 ISZERO PUSH2 0x1D2 JUMPI POP PUSH0 DUP1 SLOAD SWAP1 POP DUP3 LT JUMPDEST PUSH2 0x211 JUMPI PUSH1 0x40 MLOAD PUSH32 0x8C379A000000000000000000000000000000000000000000000000000000000 DUP2 MSTORE PUSH1 0x4 ADD PUSH2 0x208 SWAP1 PUSH2 0x11E0 JUMP JUMPDEST PUSH1 0x40 MLOAD DUP1 SWAP2 SUB SWAP1 REVERT JUMPDEST PUSH0 DUP3 DUP2 SLOAD DUP2 LT PUSH2 0x224 JUMPI PUSH2 0x223 PUSH2 0x11FE JUMP JUMPDEST JUMPDEST SWAP1 PUSH0 MSTORE PUSH1 0x20 PUSH0 KECCAK256 SWAP1 PUSH1 0x5 MUL ADD PUSH1 0x2 ADD DUP1 SLOAD DUP1 PUSH1 0x20 MUL PUSH1 0x20 ADD PUSH1 0x40 MLOAD SWAP1 DUP2 ADD PUSH1 0x40 MSTORE DUP1 SWAP3 SWAP2 SWAP1 DUP2 DUP2 MSTORE PUSH1 0x20 ADD DUP3 DUP1 SLOAD DUP1 ISZERO PUSH2 0x27B JUMPI PUSH1 0x20 MUL DUP3 ADD SWAP2 SWAP1 PUSH0 MSTORE PUSH1 0x20 PUSH0 KECCAK256 SWAP1 JUMPDEST DUP2 SLOAD DUP2 MSTORE PUSH1 0x20 ADD SWAP1 PUSH1 0x1 ADD SWAP1 DUP1 DUP4 GT PUSH2 0x267 JUMPI JUMPDEST POP POP POP POP POP SWAP1 POP SWAP2 SWAP1 POP JUMP JUMPDEST PUSH1 0x2 DUP3 MLOAD LT ISZERO PUSH2 0x2CC JUMPI PUSH1 0x40 MLOAD PUSH32 0x8C379A000000000000000000000000000000000000000000000000000000000 DUP2 MSTORE PUSH1 0x4 ADD PUSH2 0x2C3 SWAP1 PUSH2 0x1275 JUMP JUMPDEST PUSH1 0x40 MLOAD DUP1 SWAP2 SUB SWAP1 REVERT JUMPDEST PUSH0 PUSH1 0x1 DUP2 PUSH1 0x1 DUP2 SLOAD ADD DUP1 DUP3 SSTORE DUP1 SWAP2 POP POP SUB SWAP1 PUSH0 MSTORE PUSH1 0x20 PUSH0 KECCAK256 SWAP1 POP POP PUSH0 DUP1 PUSH1 0x1 PUSH0 DUP1 SLOAD SWAP1 POP PUSH2 0x2FA SWAP2 SWAP1 PUSH2 0x12C0 JUMP JUMPDEST DUP2 SLOAD DUP2 LT PUSH2 0x30B JUMPI PUSH2 0x30A PUSH2 0x11FE JUMP JUMPDEST JUMPDEST SWAP1 PUSH0 MSTORE PUSH1 0x20 PUSH0 KECCAK256 SWAP1 PUSH1 0x5 MUL ADD SWAP1 POP PUSH0 DUP4 MLOAD PUSH8 0xFFFFFFFFFFFFFFFF DUP2 GT ISZERO PUSH2 0x335 JUMPI PUSH2 0x334 PUSH2 0xC56 JUMP JUMPDEST JUMPDEST PUSH1 0x40 MLOAD SWAP1 DUP1 DUP3 MSTORE DUP1 PUSH1 0x20 MUL PUSH1 0x20 ADD DUP3 ADD PUSH1 0x40 MSTORE DUP1 ISZERO PUSH2 0x363 JUMPI DUP2 PUSH1 0x20 ADD PUSH1 0x20 DUP3 MUL DUP1 CALLDATASIZE DUP4 CALLDATACOPY DUP1 DUP3 ADD SWAP2 POP POP SWAP1 POP JUMPDEST POP SWAP1 POP DUP5 DUP3 PUSH0 ADD SWAP1 DUP2 PUSH2 0x376 SWAP2 SWAP1 PUSH2 0x14ED JUMP JUMPDEST POP DUP4 DUP3 PUSH1 0x1 ADD SWAP1 DUP1 MLOAD SWAP1 PUSH1 0x20 ADD SWAP1 PUSH2 0x38F SWAP3 SWAP2 SWAP1 PUSH2 0x9DB JUMP JUMPDEST POP DUP1 DUP3 PUSH1 0x2 ADD SWAP1 DUP1 MLOAD SWAP1 PUSH1 0x20 ADD SWAP1 PUSH2 0x3A8 SWAP3 SWAP2 SWAP1 PUSH2 0xA32 JUMP JUMPDEST POP DUP3 DUP3 PUSH1 0x3 ADD PUSH0 PUSH2 0x100 EXP DUP2 SLOAD DUP2 PUSH1 0xFF MUL NOT AND SWAP1 DUP4 ISZERO ISZERO MUL OR SWAP1 SSTORE POP POP POP POP POP POP JUMP JUMPDEST PUSH1 0x60 PUSH0 DUP3 LT ISZERO DUP1 ISZERO PUSH2 0x3E0 JUMPI POP PUSH0 DUP1 SLOAD SWAP1 POP DUP3 LT JUMPDEST PUSH2 0x41F JUMPI PUSH1 0x40 MLOAD PUSH32 0x8C379A000000000000000000000000000000000000000000000000000000000 DUP2 MSTORE PUSH1 0x4 ADD PUSH2 0x416 SWAP1 PUSH2 0x11E0 JUMP JUMPDEST PUSH1 0x40 MLOAD DUP1 SWAP2 SUB SWAP1 REVERT JUMPDEST PUSH0 DUP3 DUP2 SLOAD DUP2 LT PUSH2 0x432 JUMPI PUSH2 0x431 PUSH2 0x11FE JUMP JUMPDEST JUMPDEST SWAP1 PUSH0 MSTORE PUSH1 0x20 PUSH0 KECCAK256 SWAP1 PUSH1 0x5 MUL ADD PUSH1 0x1 ADD DUP1 SLOAD DUP1 PUSH1 0x20 MUL PUSH1 0x20 ADD PUSH1 0x40 MLOAD SWAP1 DUP2 ADD PUSH1 0x40 MSTORE DUP1 SWAP3 SWAP2 SWAP1 DUP2 DUP2 MSTORE PUSH1 0x20 ADD PUSH0 SWAP1 JUMPDEST DUP3 DUP3 LT ISZERO PUSH2 0x508 JUMPI DUP4 DUP3 SWAP1 PUSH0 MSTORE PUSH1 0x20 PUSH0 KECCAK256 ADD DUP1 SLOAD PUSH2 0x47D SWAP1 PUSH2 0x1320 JUMP JUMPDEST DUP1 PUSH1 0x1F ADD PUSH1 0x20 DUP1 SWAP2 DIV MUL PUSH1 0x20 ADD PUSH1 0x40 MLOAD SWAP1 DUP2 ADD PUSH1 0x40 MSTORE DUP1 SWAP3 SWAP2 SWAP1 DUP2 DUP2 MSTORE PUSH1 0x20 ADD DUP3 DUP1 SLOAD PUSH2 0x4A9 SWAP1 PUSH2 0x1320 JUMP JUMPDEST DUP1 ISZERO PUSH2 0x4F4 JUMPI DUP1 PUSH1 0x1F LT PUSH2 0x4CB JUMPI PUSH2 0x100 DUP1 DUP4 SLOAD DIV MUL DUP4 MSTORE SWAP2 PUSH1 0x20 ADD SWAP2 PUSH2 0x4F4 JUMP JUMPDEST DUP3 ADD SWAP2 SWAP1 PUSH0 MSTORE PUSH1 0x20 PUSH0 KECCAK256 SWAP1 JUMPDEST DUP2 SLOAD DUP2 MSTORE SWAP1 PUSH1 0x1 ADD SWAP1 PUSH1 0x20 ADD DUP1 DUP4 GT PUSH2 0x4D7 JUMPI DUP3 SWAP1 SUB PUSH1 0x1F AND DUP3 ADD SWAP2 JUMPDEST POP POP POP POP POP DUP2 MSTORE PUSH1 0x20 ADD SWAP1 PUSH1 0x1 ADD SWAP1 PUSH2 0x460 JUMP JUMPDEST POP POP POP POP SWAP1 POP SWAP2 SWAP1 POP JUMP JUMPDEST DUP1 ISZERO ISZERO PUSH0 DUP4 DUP2 SLOAD DUP2 LT PUSH2 0x529 JUMPI PUSH2 0x528 PUSH2 0x11FE JUMP JUMPDEST JUMPDEST SWAP1 PUSH0 MSTORE PUSH1 0x20 PUSH0 KECCAK256 SWAP1 PUSH1 0x5 MUL ADD PUSH1 0x3 ADD PUSH0 SWAP1 SLOAD SWAP1 PUSH2 0x100 EXP SWAP1 DIV PUSH1 0xFF AND ISZERO ISZERO SUB PUSH2 0x587 JUMPI PUSH1 0x40 MLOAD PUSH32 0x8C379A000000000000000000000000000000000000000000000000000000000 DUP2 MSTORE PUSH1 0x4 ADD PUSH2 0x57E SWAP1 PUSH2 0x162C JUMP JUMPDEST PUSH1 0x40 MLOAD DUP1 SWAP2 SUB SWAP1 REVERT JUMPDEST DUP1 PUSH0 DUP4 DUP2 SLOAD DUP2 LT PUSH2 0x59B JUMPI PUSH2 0x59A PUSH2 0x11FE JUMP JUMPDEST JUMPDEST SWAP1 PUSH0 MSTORE PUSH1 0x20 PUSH0 KECCAK256 SWAP1 PUSH1 0x5 MUL ADD PUSH1 0x3 ADD PUSH0 PUSH2 0x100 EXP DUP2 SLOAD DUP2 PUSH1 0xFF MUL NOT AND SWAP1 DUP4 ISZERO ISZERO MUL OR SWAP1 SSTORE POP POP POP JUMP JUMPDEST PUSH0 DUP2 DUP2 SLOAD DUP2 LT PUSH2 0x5D2 JUMPI PUSH0 DUP1 REVERT JUMPDEST SWAP1 PUSH0 MSTORE PUSH1 0x20 PUSH0 KECCAK256 SWAP1 PUSH1 0x5 MUL ADD PUSH0 SWAP2 POP SWAP1 POP DUP1 PUSH0 ADD DUP1 SLOAD PUSH2 0x5F1 SWAP1 PUSH2 0x1320 JUMP JUMPDEST DUP1 PUSH1 0x1F ADD PUSH1 0x20 DUP1 SWAP2 DIV MUL PUSH1 0x20 ADD PUSH1 0x40 MLOAD SWAP1 DUP2 ADD PUSH1 0x40 MSTORE DUP1 SWAP3 SWAP2 SWAP1 DUP2 DUP2 MSTORE PUSH1 0x20 ADD DUP3 DUP1 SLOAD PUSH2 0x61D SWAP1 PUSH2 0x1320 JUMP JUMPDEST DUP1 ISZERO PUSH2 0x668 JUMPI DUP1 PUSH1 0x1F LT PUSH2 0x63F JUMPI PUSH2 0x100 DUP1 DUP4 SLOAD DIV MUL DUP4 MSTORE SWAP2 PUSH1 0x20 ADD SWAP2 PUSH2 0x668 JUMP JUMPDEST DUP3 ADD SWAP2 SWAP1 PUSH0 MSTORE PUSH1 0x20 PUSH0 KECCAK256 SWAP1 JUMPDEST DUP2 SLOAD DUP2 MSTORE SWAP1 PUSH1 0x1 ADD SWAP1 PUSH1 0x20 ADD DUP1 DUP4 GT PUSH2 0x64B JUMPI DUP3 SWAP1 SUB PUSH1 0x1F AND DUP3 ADD SWAP2 JUMPDEST POP POP POP POP POP SWAP1 DUP1 PUSH1 0x3 ADD PUSH0 SWAP1 SLOAD SWAP1 PUSH2 0x100 EXP SWAP1 DIV PUSH1 0xFF AND SWAP1 POP DUP3 JUMP JUMPDEST PUSH0 DUP1 DUP1 SLOAD SWAP1 POP SWAP1 POP SWAP1 JUMP JUMPDEST PUSH0 DUP1 SLOAD SWAP1 POP DUP3 LT PUSH2 0x6D5 JUMPI PUSH1 0x40 MLOAD PUSH32 0x8C379A000000000000000000000000000000000000000000000000000000000 DUP2 MSTORE PUSH1 0x4 ADD PUSH2 0x6CC SWAP1 PUSH2 0x1694 JUMP JUMPDEST PUSH1 0x40 MLOAD DUP1 SWAP2 SUB SWAP1 REVERT JUMPDEST PUSH0 DUP3 DUP2 SLOAD DUP2 LT PUSH2 0x6E8 JUMPI PUSH2 0x6E7 PUSH2 0x11FE JUMP JUMPDEST JUMPDEST SWAP1 PUSH0 MSTORE PUSH1 0x20 PUSH0 KECCAK256 SWAP1 PUSH1 0x5 MUL ADD PUSH1 0x3 ADD PUSH0 SWAP1 SLOAD SWAP1 PUSH2 0x100 EXP SWAP1 DIV PUSH1 0xFF AND PUSH2 0x743 JUMPI PUSH1 0x40 MLOAD PUSH32 0x8C379A000000000000000000000000000000000000000000000000000000000 DUP2 MSTORE PUSH1 0x4 ADD PUSH2 0x73A SWAP1 PUSH2 0x16FC JUMP JUMPDEST PUSH1 0x40 MLOAD DUP1 SWAP2 SUB SWAP1 REVERT JUMPDEST PUSH0 DUP3 DUP2 SLOAD DUP2 LT PUSH2 0x756 JUMPI PUSH2 0x755 PUSH2 0x11FE JUMP JUMPDEST JUMPDEST SWAP1 PUSH0 MSTORE PUSH1 0x20 PUSH0 KECCAK256 SWAP1 PUSH1 0x5 MUL ADD PUSH1 0x1 ADD DUP1 SLOAD SWAP1 POP DUP2 LT PUSH2 0x7AA JUMPI PUSH1 0x40 MLOAD PUSH32 0x8C379A000000000000000000000000000000000000000000000000000000000 DUP2 MSTORE PUSH1 0x4 ADD PUSH2 0x7A1 SWAP1 PUSH2 0x1764 JUMP JUMPDEST PUSH1 0x40 MLOAD DUP1 SWAP2 SUB SWAP1 REVERT JUMPDEST PUSH0 ISZERO ISZERO PUSH0 DUP4 DUP2 SLOAD DUP2 LT PUSH2 0x7C0 JUMPI PUSH2 0x7BF PUSH2 0x11FE JUMP JUMPDEST JUMPDEST SWAP1 PUSH0 MSTORE PUSH1 0x20 PUSH0 KECCAK256 SWAP1 PUSH1 0x5 MUL ADD PUSH1 0x4 ADD PUSH0 CALLER PUSH20 0xFFFFFFFFFFFFFFFFFFFFFFFFFFFFFFFFFFFFFFFF AND PUSH20 0xFFFFFFFFFFFFFFFFFFFFFFFFFFFFFFFFFFFFFFFF AND DUP2 MSTORE PUSH1 0x20 ADD SWAP1 DUP2 MSTORE PUSH1 0x20 ADD PUSH0 KECCAK256 PUSH0 SWAP1 SLOAD SWAP1 PUSH2 0x100 EXP SWAP1 DIV PUSH1 0xFF AND ISZERO ISZERO EQ PUSH2 0x859 JUMPI PUSH1 0x40 MLOAD PUSH32 0x8C379A000000000000000000000000000000000000000000000000000000000 DUP2 MSTORE PUSH1 0x4 ADD PUSH2 0x850 SWAP1 PUSH2 0x17CC JUMP JUMPDEST PUSH1 0x40 MLOAD DUP1 SWAP2 SUB SWAP1 REVERT JUMPDEST PUSH0 DUP3 DUP2 SLOAD DUP2 LT PUSH2 0x86C JUMPI PUSH2 0x86B PUSH2 0x11FE JUMP JUMPDEST JUMPDEST SWAP1 PUSH0 MSTORE PUSH1 0x20 PUSH0 KECCAK256 SWAP1 PUSH1 0x5 MUL ADD PUSH1 0x2 ADD DUP2 DUP2 SLOAD DUP2 LT PUSH2 0x88D JUMPI PUSH2 0x88C PUSH2 0x11FE JUMP JUMPDEST JUMPDEST SWAP1 PUSH0 MSTORE PUSH1 0x20 PUSH0 KECCAK256 ADD PUSH0 DUP2 SLOAD DUP1 SWAP3 SWAP2 SWAP1 PUSH2 0x8A5 SWAP1 PUSH2 0x17EA JUMP JUMPDEST SWAP2 SWAP1 POP SSTORE POP PUSH1 0x1 PUSH0 DUP4 DUP2 SLOAD DUP2 LT PUSH2 0x8BF JUMPI PUSH2 0x8BE PUSH2 0x11FE JUMP JUMPDEST JUMPDEST SWAP1 PUSH0 MSTORE PUSH1 0x20 PUSH0 KECCAK256 SWAP1 PUSH1 0x5 MUL ADD PUSH1 0x4 ADD PUSH0 CALLER PUSH20 0xFFFFFFFFFFFFFFFFFFFFFFFFFFFFFFFFFFFFFFFF AND PUSH20 0xFFFFFFFFFFFFFFFFFFFFFFFFFFFFFFFFFFFFFFFF AND DUP2 MSTORE PUSH1 0x20 ADD SWAP1 DUP2 MSTORE PUSH1 0x20 ADD PUSH0 KECCAK256 PUSH0 PUSH2 0x100 EXP DUP2 SLOAD DUP2 PUSH1 0xFF MUL NOT AND SWAP1 DUP4 ISZERO ISZERO MUL OR SWAP1 SSTORE POP POP POP JUMP JUMPDEST PUSH0 DUP1 DUP1 SLOAD SWAP1 POP DUP3 LT PUSH2 0x96A JUMPI PUSH1 0x40 MLOAD PUSH32 0x8C379A000000000000000000000000000000000000000000000000000000000 DUP2 MSTORE PUSH1 0x4 ADD PUSH2 0x961 SWAP1 PUSH2 0x187B JUMP JUMPDEST PUSH1 0x40 MLOAD DUP1 SWAP2 SUB SWAP1 REVERT JUMPDEST PUSH0 DUP3 DUP2 SLOAD DUP2 LT PUSH2 0x97D JUMPI PUSH2 0x97C PUSH2 0x11FE JUMP JUMPDEST JUMPDEST SWAP1 PUSH0 MSTORE PUSH1 0x20 PUSH0 KECCAK256 SWAP1 PUSH1 0x5 MUL ADD PUSH1 0x4 ADD PUSH0 CALLER PUSH20 0xFFFFFFFFFFFFFFFFFFFFFFFFFFFFFFFFFFFFFFFF AND PUSH20 0xFFFFFFFFFFFFFFFFFFFFFFFFFFFFFFFFFFFFFFFF AND DUP2 MSTORE PUSH1 0x20 ADD SWAP1 DUP2 MSTORE PUSH1 0x20 ADD PUSH0 KECCAK256 PUSH0 SWAP1 SLOAD SWAP1 PUSH2 0x100 EXP SWAP1 DIV PUSH1 0xFF AND SWAP1 POP SWAP2 SWAP1 POP JUMP JUMPDEST DUP3 DUP1 SLOAD DUP3 DUP3 SSTORE SWAP1 PUSH0 MSTORE PUSH1 0x20 PUSH0 KECCAK256 SWAP1 DUP2 ADD SWAP3 DUP3 ISZERO PUSH2 0xA21 JUMPI SWAP2 PUSH1 0x20 MUL DUP3 ADD JUMPDEST DUP3 DUP2 GT ISZERO PUSH2 0xA20 JUMPI DUP3 MLOAD DUP3 SWAP1 DUP2 PUSH2 0xA10 SWAP2 SWAP1 PUSH2 0x14ED JUMP JUMPDEST POP SWAP2 PUSH1 0x20 ADD SWAP2 SWAP1 PUSH1 0x1 ADD SWAP1 PUSH2 0x9F9 JUMP JUMPDEST JUMPDEST POP SWAP1 POP PUSH2 0xA2E SWAP2 SWAP1 PUSH2 0xA7D JUMP JUMPDEST POP SWAP1 JUMP JUMPDEST DUP3 DUP1 SLOAD DUP3 DUP3 SSTORE SWAP1 PUSH0 MSTORE PUSH1 0x20 PUSH0 KECCAK256 SWAP1 DUP2 ADD SWAP3 DUP3 ISZERO PUSH2 0xA6C JUMPI SWAP2 PUSH1 0x20 MUL DUP3 ADD JUMPDEST DUP3 DUP2 GT ISZERO PUSH2 0xA6B JUMPI DUP3 MLOAD DUP3 SSTORE SWAP2 PUSH1 0x20 ADD SWAP2 SWAP1 PUSH1 0x1 ADD SWAP1 PUSH2 0xA50 JUMP JUMPDEST JUMPDEST POP SWAP1 POP PUSH2 0xA79 SWAP2 SWAP1 PUSH2 0xAA0 JUMP JUMPDEST POP SWAP1 JUMP JUMPDEST JUMPDEST DUP1 DUP3 GT ISZERO PUSH2 0xA9C JUMPI PUSH0 DUP2 DUP2 PUSH2 0xA93 SWAP2 SWAP1 PUSH2 0xABB JUMP JUMPDEST POP PUSH1 0x1 ADD PUSH2 0xA7E JUMP JUMPDEST POP SWAP1 JUMP JUMPDEST JUMPDEST DUP1 DUP3 GT ISZERO PUSH2 0xAB7 JUMPI PUSH0 DUP2 PUSH0 SWAP1 SSTORE POP PUSH1 0x1 ADD PUSH2 0xAA1 JUMP JUMPDEST POP SWAP1 JUMP JUMPDEST POP DUP1 SLOAD PUSH2 0xAC7 SWAP1 PUSH2 0x1320 JUMP JUMPDEST PUSH0 DUP3 SSTORE DUP1 PUSH1 0x1F LT PUSH2 0xAD8 JUMPI POP PUSH2 0xAF5 JUMP JUMPDEST PUSH1 0x1F ADD PUSH1 0x20 SWAP1 DIV SWAP1 PUSH0 MSTORE PUSH1 0x20 PUSH0 KECCAK256 SWAP1 DUP2 ADD SWAP1 PUSH2 0xAF4 SWAP2 SWAP1 PUSH2 0xAA0 JUMP JUMPDEST JUMPDEST POP JUMP JUMPDEST PUSH0 PUSH1 0x40 MLOAD SWAP1 POP SWAP1 JUMP JUMPDEST PUSH0 DUP1 REVERT JUMPDEST PUSH0 DUP1 REVERT JUMPDEST PUSH0 DUP2 SWAP1 POP SWAP2 SWAP1 POP JUMP JUMPDEST PUSH2 0xB1B DUP2 PUSH2 0xB09 JUMP JUMPDEST DUP2 EQ PUSH2 0xB25 JUMPI PUSH0 DUP1 REVERT JUMPDEST POP JUMP JUMPDEST PUSH0 DUP2 CALLDATALOAD SWAP1 POP PUSH2 0xB36 DUP2 PUSH2 0xB12 JUMP JUMPDEST SWAP3 SWAP2 POP POP JUMP JUMPDEST PUSH0 PUSH1 0x20 DUP3 DUP5 SUB SLT ISZERO PUSH2 0xB51 JUMPI PUSH2 0xB50 PUSH2 0xB01 JUMP JUMPDEST JUMPDEST PUSH0 PUSH2 0xB5E DUP5 DUP3 DUP6 ADD PUSH2 0xB28 JUMP JUMPDEST SWAP2 POP POP SWAP3 SWAP2 POP POP JUMP JUMPDEST PUSH0 DUP2 MLOAD SWAP1 POP SWAP2 SWAP1 POP JUMP JUMPDEST PUSH0 DUP3 DUP3 MSTORE PUSH1 0x20 DUP3 ADD SWAP1 POP SWAP3 SWAP2 POP POP JUMP JUMPDEST PUSH0 DUP2 SWAP1 POP PUSH1 0x20 DUP3 ADD SWAP1 POP SWAP2 SWAP1 POP JUMP JUMPDEST PUSH2 0xB99 DUP2 PUSH2 0xB09 JUMP JUMPDEST DUP3 MSTORE POP POP JUMP JUMPDEST PUSH0 PUSH2 0xBAA DUP4 DUP4 PUSH2 0xB90 JUMP JUMPDEST PUSH1 0x20 DUP4 ADD SWAP1 POP SWAP3 SWAP2 POP POP JUMP JUMPDEST PUSH0 PUSH1 0x20 DUP3 ADD SWAP1 POP SWAP2 SWAP1 POP JUMP JUMPDEST PUSH0 PUSH2 0xBCC DUP3 PUSH2 0xB67 JUMP JUMPDEST PUSH2 0xBD6 DUP2 DUP6 PUSH2 0xB71 JUMP JUMPDEST SWAP4 POP PUSH2 0xBE1 DUP4 PUSH2 0xB81 JUMP JUMPDEST DUP1 PUSH0 JUMPDEST DUP4 DUP2 LT ISZERO PUSH2 0xC11 JUMPI DUP2 MLOAD PUSH2 0xBF8 DUP9 DUP3 PUSH2 0xB9F JUMP JUMPDEST SWAP8 POP PUSH2 0xC03 DUP4 PUSH2 0xBB6 JUMP JUMPDEST SWAP3 POP POP PUSH1 0x1 DUP2 ADD SWAP1 POP PUSH2 0xBE4 JUMP JUMPDEST POP DUP6 SWAP4 POP POP POP POP SWAP3 SWAP2 POP POP JUMP JUMPDEST PUSH0 PUSH1 0x20 DUP3 ADD SWAP1 POP DUP2 DUP2 SUB PUSH0 DUP4 ADD MSTORE PUSH2 0xC36 DUP2 DUP5 PUSH2 0xBC2 JUMP JUMPDEST SWAP1 POP SWAP3 SWAP2 POP POP JUMP JUMPDEST PUSH0 DUP1 REVERT JUMPDEST PUSH0 DUP1 REVERT JUMPDEST PUSH0 PUSH1 0x1F NOT PUSH1 0x1F DUP4 ADD AND SWAP1 POP SWAP2 SWAP1 POP JUMP JUMPDEST PUSH32 0x4E487B7100000000000000000000000000000000000000000000000000000000 PUSH0 MSTORE PUSH1 0x41 PUSH1 0x4 MSTORE PUSH1 0x24 PUSH0 REVERT JUMPDEST PUSH2 0xC8C DUP3 PUSH2 0xC46 JUMP JUMPDEST DUP2 ADD DUP2 DUP2 LT PUSH8 0xFFFFFFFFFFFFFFFF DUP3 GT OR ISZERO PUSH2 0xCAB JUMPI PUSH2 0xCAA PUSH2 0xC56 JUMP JUMPDEST JUMPDEST DUP1 PUSH1 0x40 MSTORE POP POP POP JUMP JUMPDEST PUSH0 PUSH2 0xCBD PUSH2 0xAF8 JUMP JUMPDEST SWAP1 POP PUSH2 0xCC9 DUP3 DUP3 PUSH2 0xC83 JUMP JUMPDEST SWAP2 SWAP1 POP JUMP JUMPDEST PUSH0 PUSH8 0xFFFFFFFFFFFFFFFF DUP3 GT ISZERO PUSH2 0xCE8 JUMPI PUSH2 0xCE7 PUSH2 0xC56 JUMP JUMPDEST JUMPDEST PUSH2 0xCF1 DUP3 PUSH2 0xC46 JUMP JUMPDEST SWAP1 POP PUSH1 0x20 DUP2 ADD SWAP1 POP SWAP2 SWAP1 POP JUMP JUMPDEST DUP3 DUP2 DUP4 CALLDATACOPY PUSH0 DUP4 DUP4 ADD MSTORE POP POP POP JUMP JUMPDEST PUSH0 PUSH2 0xD1E PUSH2 0xD19 DUP5 PUSH2 0xCCE JUMP JUMPDEST PUSH2 0xCB4 JUMP JUMPDEST SWAP1 POP DUP3 DUP2 MSTORE PUSH1 0x20 DUP2 ADD DUP5 DUP5 DUP5 ADD GT ISZERO PUSH2 0xD3A JUMPI PUSH2 0xD39 PUSH2 0xC42 JUMP JUMPDEST JUMPDEST PUSH2 0xD45 DUP5 DUP3 DUP6 PUSH2 0xCFE JUMP JUMPDEST POP SWAP4 SWAP3 POP POP POP JUMP JUMPDEST PUSH0 DUP3 PUSH1 0x1F DUP4 ADD SLT PUSH2 0xD61 JUMPI PUSH2 0xD60 PUSH2 0xC3E JUMP JUMPDEST JUMPDEST DUP2 CALLDATALOAD PUSH2 0xD71 DUP5 DUP3 PUSH1 0x20 DUP7 ADD PUSH2 0xD0C JUMP JUMPDEST SWAP2 POP POP SWAP3 SWAP2 POP POP JUMP JUMPDEST PUSH0 PUSH8 0xFFFFFFFFFFFFFFFF DUP3 GT ISZERO PUSH2 0xD94 JUMPI PUSH2 0xD93 PUSH2 0xC56 JUMP JUMPDEST JUMPDEST PUSH1 0x20 DUP3 MUL SWAP1 POP PUSH1 0x20 DUP2 ADD SWAP1 POP SWAP2 SWAP1 POP JUMP JUMPDEST PUSH0 DUP1 REVERT JUMPDEST PUSH0 PUSH2 0xDBB PUSH2 0xDB6 DUP5 PUSH2 0xD7A JUMP JUMPDEST PUSH2 0xCB4 JUMP JUMPDEST SWAP1 POP DUP1 DUP4 DUP3 MSTORE PUSH1 0x20 DUP3 ADD SWAP1 POP PUSH1 0x20 DUP5 MUL DUP4 ADD DUP6 DUP2 GT ISZERO PUSH2 0xDDE JUMPI PUSH2 0xDDD PUSH2 0xDA5 JUMP JUMPDEST JUMPDEST DUP4 JUMPDEST DUP2 DUP2 LT ISZERO PUSH2 0xE25 JUMPI DUP1 CALLDATALOAD PUSH8 0xFFFFFFFFFFFFFFFF DUP2 GT ISZERO PUSH2 0xE03 JUMPI PUSH2 0xE02 PUSH2 0xC3E JUMP JUMPDEST JUMPDEST DUP1 DUP7 ADD PUSH2 0xE10 DUP10 DUP3 PUSH2 0xD4D JUMP JUMPDEST DUP6 MSTORE PUSH1 0x20 DUP6 ADD SWAP5 POP POP POP PUSH1 0x20 DUP2 ADD SWAP1 POP PUSH2 0xDE0 JUMP JUMPDEST POP POP POP SWAP4 SWAP3 POP POP POP JUMP JUMPDEST PUSH0 DUP3 PUSH1 0x1F DUP4 ADD SLT PUSH2 0xE43 JUMPI PUSH2 0xE42 PUSH2 0xC3E JUMP JUMPDEST JUMPDEST DUP2 CALLDATALOAD PUSH2 0xE53 DUP5 DUP3 PUSH1 0x20 DUP7 ADD PUSH2 0xDA9 JUMP JUMPDEST SWAP2 POP POP SWAP3 SWAP2 POP POP JUMP JUMPDEST PUSH0 DUP2 ISZERO ISZERO SWAP1 POP SWAP2 SWAP1 POP JUMP JUMPDEST PUSH2 0xE70 DUP2 PUSH2 0xE5C JUMP JUMPDEST DUP2 EQ PUSH2 0xE7A JUMPI PUSH0 DUP1 REVERT JUMPDEST POP JUMP JUMPDEST PUSH0 DUP2 CALLDATALOAD SWAP1 POP PUSH2 0xE8B DUP2 PUSH2 0xE67 JUMP JUMPDEST SWAP3 SWAP2 POP POP JUMP JUMPDEST PUSH0 DUP1 PUSH0 PUSH1 0x60 DUP5 DUP7 SUB SLT ISZERO PUSH2 0xEA8 JUMPI PUSH2 0xEA7 PUSH2 0xB01 JUMP JUMPDEST JUMPDEST PUSH0 DUP5 ADD CALLDATALOAD PUSH8 0xFFFFFFFFFFFFFFFF DUP2 GT ISZERO PUSH2 0xEC5 JUMPI PUSH2 0xEC4 PUSH2 0xB05 JUMP JUMPDEST JUMPDEST PUSH2 0xED1 DUP7 DUP3 DUP8 ADD PUSH2 0xD4D JUMP JUMPDEST SWAP4 POP POP PUSH1 0x20 DUP5 ADD CALLDATALOAD PUSH8 0xFFFFFFFFFFFFFFFF DUP2 GT ISZERO PUSH2 0xEF2 JUMPI PUSH2 0xEF1 PUSH2 0xB05 JUMP JUMPDEST JUMPDEST PUSH2 0xEFE DUP7 DUP3 DUP8 ADD PUSH2 0xE2F JUMP JUMPDEST SWAP3 POP POP PUSH1 0x40 PUSH2 0xF0F DUP7 DUP3 DUP8 ADD PUSH2 0xE7D JUMP JUMPDEST SWAP2 POP POP SWAP3 POP SWAP3 POP SWAP3 JUMP JUMPDEST PUSH0 DUP2 MLOAD SWAP1 POP SWAP2 SWAP1 POP JUMP JUMPDEST PUSH0 DUP3 DUP3 MSTORE PUSH1 0x20 DUP3 ADD SWAP1 POP SWAP3 SWAP2 POP POP JUMP JUMPDEST PUSH0 DUP2 SWAP1 POP PUSH1 0x20 DUP3 ADD SWAP1 POP SWAP2 SWAP1 POP JUMP JUMPDEST PUSH0 DUP2 MLOAD SWAP1 POP SWAP2 SWAP1 POP JUMP JUMPDEST PUSH0 DUP3 DUP3 MSTORE PUSH1 0x20 DUP3 ADD SWAP1 POP SWAP3 SWAP2 POP POP JUMP JUMPDEST DUP3 DUP2 DUP4 MCOPY PUSH0 DUP4 DUP4 ADD MSTORE POP POP POP JUMP JUMPDEST PUSH0 PUSH2 0xF74 DUP3 PUSH2 0xF42 JUMP JUMPDEST PUSH2 0xF7E DUP2 DUP6 PUSH2 0xF4C JUMP JUMPDEST SWAP4 POP PUSH2 0xF8E DUP2 DUP6 PUSH1 0x20 DUP7 ADD PUSH2 0xF5C JUMP JUMPDEST PUSH2 0xF97 DUP2 PUSH2 0xC46 JUMP JUMPDEST DUP5 ADD SWAP2 POP POP SWAP3 SWAP2 POP POP JUMP JUMPDEST PUSH0 PUSH2 0xFAD DUP4 DUP4 PUSH2 0xF6A JUMP JUMPDEST SWAP1 POP SWAP3 SWAP2 POP POP JUMP JUMPDEST PUSH0 PUSH1 0x20 DUP3 ADD SWAP1 POP SWAP2 SWAP1 POP JUMP JUMPDEST PUSH0 PUSH2 0xFCB DUP3 PUSH2 0xF19 JUMP JUMPDEST PUSH2 0xFD5 DUP2 DUP6 PUSH2 0xF23 JUMP JUMPDEST SWAP4 POP DUP4 PUSH1 0x20 DUP3 MUL DUP6 ADD PUSH2 0xFE7 DUP6 PUSH2 0xF33 JUMP JUMPDEST DUP1 PUSH0 JUMPDEST DUP6 DUP2 LT ISZERO PUSH2 0x1022 JUMPI DUP5 DUP5 SUB DUP10 MSTORE DUP2 MLOAD PUSH2 0x1003 DUP6 DUP3 PUSH2 0xFA2 JUMP JUMPDEST SWAP5 POP PUSH2 0x100E DUP4 PUSH2 0xFB5 JUMP JUMPDEST SWAP3 POP PUSH1 0x20 DUP11 ADD SWAP10 POP POP PUSH1 0x1 DUP2 ADD SWAP1 POP PUSH2 0xFEA JUMP JUMPDEST POP DUP3 SWAP8 POP DUP8 SWAP6 POP POP POP POP POP POP SWAP3 SWAP2 POP POP JUMP JUMPDEST PUSH0 PUSH1 0x20 DUP3 ADD SWAP1 POP DUP2 DUP2 SUB PUSH0 DUP4 ADD MSTORE PUSH2 0x104C DUP2 DUP5 PUSH2 0xFC1 JUMP JUMPDEST SWAP1 POP SWAP3 SWAP2 POP POP JUMP JUMPDEST PUSH0 DUP1 PUSH1 0x40 DUP4 DUP6 SUB SLT ISZERO PUSH2 0x106A JUMPI PUSH2 0x1069 PUSH2 0xB01 JUMP JUMPDEST JUMPDEST PUSH0 PUSH2 0x1077 DUP6 DUP3 DUP7 ADD PUSH2 0xB28 JUMP JUMPDEST SWAP3 POP POP PUSH1 0x20 PUSH2 0x1088 DUP6 DUP3 DUP7 ADD PUSH2 0xE7D JUMP JUMPDEST SWAP2 POP POP SWAP3 POP SWAP3 SWAP1 POP JUMP JUMPDEST PUSH0 DUP3 DUP3 MSTORE PUSH1 0x20 DUP3 ADD SWAP1 POP SWAP3 SWAP2 POP POP JUMP JUMPDEST PUSH0 PUSH2 0x10AC DUP3 PUSH2 0xF42 JUMP JUMPDEST PUSH2 0x10B6 DUP2 DUP6 PUSH2 0x1092 JUMP JUMPDEST SWAP4 POP PUSH2 0x10C6 DUP2 DUP6 PUSH1 0x20 DUP7 ADD PUSH2 0xF5C JUMP JUMPDEST PUSH2 0x10CF DUP2 PUSH2 0xC46 JUMP JUMPDEST DUP5 ADD SWAP2 POP POP SWAP3 SWAP2 POP POP JUMP JUMPDEST PUSH2 0x10E3 DUP2 PUSH2 0xE5C JUMP JUMPDEST DUP3 MSTORE POP POP JUMP JUMPDEST PUSH0 PUSH1 0x40 DUP3 ADD SWAP1 POP DUP2 DUP2 SUB PUSH0 DUP4 ADD MSTORE PUSH2 0x1101 DUP2 DUP6 PUSH2 0x10A2 JUMP JUMPDEST SWAP1 POP PUSH2 0x1110 PUSH1 0x20 DUP4 ADD DUP5 PUSH2 0x10DA JUMP JUMPDEST SWAP4 SWAP3 POP POP POP JUMP JUMPDEST PUSH2 0x1120 DUP2 PUSH2 0xB09 JUMP JUMPDEST DUP3 MSTORE POP POP JUMP JUMPDEST PUSH0 PUSH1 0x20 DUP3 ADD SWAP1 POP PUSH2 0x1139 PUSH0 DUP4 ADD DUP5 PUSH2 0x1117 JUMP JUMPDEST SWAP3 SWAP2 POP POP JUMP JUMPDEST PUSH0 DUP1 PUSH1 0x40 DUP4 DUP6 SUB SLT ISZERO PUSH2 0x1155 JUMPI PUSH2 0x1154 PUSH2 0xB01 JUMP JUMPDEST JUMPDEST PUSH0 PUSH2 0x1162 DUP6 DUP3 DUP7 ADD PUSH2 0xB28 JUMP JUMPDEST SWAP3 POP POP PUSH1 0x20 PUSH2 0x1173 DUP6 DUP3 DUP7 ADD PUSH2 0xB28 JUMP JUMPDEST SWAP2 POP POP SWAP3 POP SWAP3 SWAP1 POP JUMP JUMPDEST PUSH0 PUSH1 0x20 DUP3 ADD SWAP1 POP PUSH2 0x1190 PUSH0 DUP4 ADD DUP5 PUSH2 0x10DA JUMP JUMPDEST SWAP3 SWAP2 POP POP JUMP JUMPDEST PUSH32 0x696E76616C696420696E64657800000000000000000000000000000000000000 PUSH0 DUP3 ADD MSTORE POP JUMP JUMPDEST PUSH0 PUSH2 0x11CA PUSH1 0xD DUP4 PUSH2 0x1092 JUMP JUMPDEST SWAP2 POP PUSH2 0x11D5 DUP3 PUSH2 0x1196 JUMP JUMPDEST PUSH1 0x20 DUP3 ADD SWAP1 POP SWAP2 SWAP1 POP JUMP JUMPDEST PUSH0 PUSH1 0x20 DUP3 ADD SWAP1 POP DUP2 DUP2 SUB PUSH0 DUP4 ADD MSTORE PUSH2 0x11F7 DUP2 PUSH2 0x11BE JUMP JUMPDEST SWAP1 POP SWAP2 SWAP1 POP JUMP JUMPDEST PUSH32 0x4E487B7100000000000000000000000000000000000000000000000000000000 PUSH0 MSTORE PUSH1 0x32 PUSH1 0x4 MSTORE PUSH1 0x24 PUSH0 REVERT JUMPDEST PUSH32 0x4174206C656173742032206F7074696F6E732061726520726571756972656400 PUSH0 DUP3 ADD MSTORE POP JUMP JUMPDEST PUSH0 PUSH2 0x125F PUSH1 0x1F DUP4 PUSH2 0x1092 JUMP JUMPDEST SWAP2 POP PUSH2 0x126A DUP3 PUSH2 0x122B JUMP JUMPDEST PUSH1 0x20 DUP3 ADD SWAP1 POP SWAP2 SWAP1 POP JUMP JUMPDEST PUSH0 PUSH1 0x20 DUP3 ADD SWAP1 POP DUP2 DUP2 SUB PUSH0 DUP4 ADD MSTORE PUSH2 0x128C DUP2 PUSH2 0x1253 JUMP JUMPDEST SWAP1 POP SWAP2 SWAP1 POP JUMP JUMPDEST PUSH32 0x4E487B7100000000000000000000000000000000000000000000000000000000 PUSH0 MSTORE PUSH1 0x11 PUSH1 0x4 MSTORE PUSH1 0x24 PUSH0 REVERT JUMPDEST PUSH0 PUSH2 0x12CA DUP3 PUSH2 0xB09 JUMP JUMPDEST SWAP2 POP PUSH2 0x12D5 DUP4 PUSH2 0xB09 JUMP JUMPDEST SWAP3 POP DUP3 DUP3 SUB SWAP1 POP DUP2 DUP2 GT ISZERO PUSH2 0x12ED JUMPI PUSH2 0x12EC PUSH2 0x1293 JUMP JUMPDEST JUMPDEST SWAP3 SWAP2 POP POP JUMP JUMPDEST PUSH32 0x4E487B7100000000000000000000000000000000000000000000000000000000 PUSH0 MSTORE PUSH1 0x22 PUSH1 0x4 MSTORE PUSH1 0x24 PUSH0 REVERT JUMPDEST PUSH0 PUSH1 0x2 DUP3 DIV SWAP1 POP PUSH1 0x1 DUP3 AND DUP1 PUSH2 0x1337 JUMPI PUSH1 0x7F DUP3 AND SWAP2 POP JUMPDEST PUSH1 0x20 DUP3 LT DUP2 SUB PUSH2 0x134A JUMPI PUSH2 0x1349 PUSH2 0x12F3 JUMP JUMPDEST JUMPDEST POP SWAP2 SWAP1 POP JUMP JUMPDEST PUSH0 DUP2 SWAP1 POP DUP2 PUSH0 MSTORE PUSH1 0x20 PUSH0 KECCAK256 SWAP1 POP SWAP2 SWAP1 POP JUMP JUMPDEST PUSH0 PUSH1 0x20 PUSH1 0x1F DUP4 ADD DIV SWAP1 POP SWAP2 SWAP1 POP JUMP JUMPDEST PUSH0 DUP3 DUP3 SHL SWAP1 POP SWAP3 SWAP2 POP POP JUMP JUMPDEST PUSH0 PUSH1 0x8 DUP4 MUL PUSH2 0x13AC PUSH32 0xFFFFFFFFFFFFFFFFFFFFFFFFFFFFFFFFFFFFFFFFFFFFFFFFFFFFFFFFFFFFFFFF DUP3 PUSH2 0x1371 JUMP JUMPDEST PUSH2 0x13B6 DUP7 DUP4 PUSH2 0x1371 JUMP JUMPDEST SWAP6 POP DUP1 NOT DUP5 AND SWAP4 POP DUP1 DUP7 AND DUP5 OR SWAP3 POP POP POP SWAP4 SWAP3 POP POP POP JUMP JUMPDEST PUSH0 DUP2 SWAP1 POP SWAP2 SWAP1 POP JUMP JUMPDEST PUSH0 PUSH2 0x13F1 PUSH2 0x13EC PUSH2 0x13E7 DUP5 PUSH2 0xB09 JUMP JUMPDEST PUSH2 0x13CE JUMP JUMPDEST PUSH2 0xB09 JUMP JUMPDEST SWAP1 POP SWAP2 SWAP1 POP JUMP JUMPDEST PUSH0 DUP2 SWAP1 POP SWAP2 SWAP1 POP JUMP JUMPDEST PUSH2 0x140A DUP4 PUSH2 0x13D7 JUMP JUMPDEST PUSH2 0x141E PUSH2 0x1416 DUP3 PUSH2 0x13F8 JUMP JUMPDEST DUP5 DUP5 SLOAD PUSH2 0x137D JUMP JUMPDEST DUP3 SSTORE POP POP POP POP JUMP JUMPDEST PUSH0 SWAP1 JUMP JUMPDEST PUSH2 0x1432 PUSH2 0x1426 JUMP JUMPDEST PUSH2 0x143D DUP2 DUP5 DUP5 PUSH2 0x1401 JUMP JUMPDEST POP POP POP JUMP JUMPDEST JUMPDEST DUP2 DUP2 LT ISZERO PUSH2 0x1460 JUMPI PUSH2 0x1455 PUSH0 DUP3 PUSH2 0x142A JUMP JUMPDEST PUSH1 0x1 DUP2 ADD SWAP1 POP PUSH2 0x1443 JUMP JUMPDEST POP POP JUMP JUMPDEST PUSH1 0x1F DUP3 GT ISZERO PUSH2 0x14A5 JUMPI PUSH2 0x1476 DUP2 PUSH2 0x1350 JUMP JUMPDEST PUSH2 0x147F DUP5 PUSH2 0x1362 JUMP JUMPDEST DUP2 ADD PUSH1 0x20 DUP6 LT ISZERO PUSH2 0x148E JUMPI DUP2 SWAP1 POP JUMPDEST PUSH2 0x14A2 PUSH2 0x149A DUP6 PUSH2 0x1362 JUMP JUMPDEST DUP4 ADD DUP3 PUSH2 0x1442 JUMP JUMPDEST POP POP JUMPDEST POP POP POP JUMP JUMPDEST PUSH0 DUP3 DUP3 SHR SWAP1 POP SWAP3 SWAP2 POP POP JUMP JUMPDEST PUSH0 PUSH2 0x14C5 PUSH0 NOT DUP5 PUSH1 0x8 MUL PUSH2 0x14AA JUMP JUMPDEST NOT DUP1 DUP4 AND SWAP2 POP POP SWAP3 SWAP2 POP POP JUMP JUMPDEST PUSH0 PUSH2 0x14DD DUP4 DUP4 PUSH2 0x14B6 JUMP JUMPDEST SWAP2 POP DUP3 PUSH1 0x2 MUL DUP3 OR SWAP1 POP SWAP3 SWAP2 POP POP JUMP JUMPDEST PUSH2 0x14F6 DUP3 PUSH2 0xF42 JUMP JUMPDEST PUSH8 0xFFFFFFFFFFFFFFFF DUP2 GT ISZERO PUSH2 0x150F JUMPI PUSH2 0x150E PUSH2 0xC56 JUMP JUMPDEST JUMPDEST PUSH2 0x1519 DUP3 SLOAD PUSH2 0x1320 JUMP JUMPDEST PUSH2 0x1524 DUP3 DUP3 DUP6 PUSH2 0x1464 JUMP JUMPDEST PUSH0 PUSH1 0x20 SWAP1 POP PUSH1 0x1F DUP4 GT PUSH1 0x1 DUP2 EQ PUSH2 0x1555 JUMPI PUSH0 DUP5 ISZERO PUSH2 0x1543 JUMPI DUP3 DUP8 ADD MLOAD SWAP1 POP JUMPDEST PUSH2 0x154D DUP6 DUP3 PUSH2 0x14D2 JUMP JUMPDEST DUP7 SSTORE POP PUSH2 0x15B4 JUMP JUMPDEST PUSH1 0x1F NOT DUP5 AND PUSH2 0x1563 DUP7 PUSH2 0x1350 JUMP JUMPDEST PUSH0 JUMPDEST DUP3 DUP2 LT ISZERO PUSH2 0x158A JUMPI DUP5 DUP10 ADD MLOAD DUP3 SSTORE PUSH1 0x1 DUP3 ADD SWAP2 POP PUSH1 0x20 DUP6 ADD SWAP5 POP PUSH1 0x20 DUP2 ADD SWAP1 POP PUSH2 0x1565 JUMP JUMPDEST DUP7 DUP4 LT ISZERO PUSH2 0x15A7 JUMPI DUP5 DUP10 ADD MLOAD PUSH2 0x15A3 PUSH1 0x1F DUP10 AND DUP3 PUSH2 0x14B6 JUMP JUMPDEST DUP4 SSTORE POP JUMPDEST PUSH1 0x1 PUSH1 0x2 DUP9 MUL ADD DUP9 SSTORE POP POP POP JUMPDEST POP POP POP POP POP POP JUMP JUMPDEST PUSH32 0x73757276657920697320616C726561647920696E207468652064657369726564 PUSH0 DUP3 ADD MSTORE PUSH32 0x2061637469766520737461746500000000000000000000000000000000000000 PUSH1 0x20 DUP3 ADD MSTORE POP JUMP JUMPDEST PUSH0 PUSH2 0x1616 PUSH1 0x2D DUP4 PUSH2 0x1092 JUMP JUMPDEST SWAP2 POP PUSH2 0x1621 DUP3 PUSH2 0x15BC JUMP JUMPDEST PUSH1 0x40 DUP3 ADD SWAP1 POP SWAP2 SWAP1 POP JUMP JUMPDEST PUSH0 PUSH1 0x20 DUP3 ADD SWAP1 POP DUP2 DUP2 SUB PUSH0 DUP4 ADD MSTORE PUSH2 0x1643 DUP2 PUSH2 0x160A JUMP JUMPDEST SWAP1 POP SWAP2 SWAP1 POP JUMP JUMPDEST PUSH32 0x53757276657920646F6573206E6F742065786973740000000000000000000000 PUSH0 DUP3 ADD MSTORE POP JUMP JUMPDEST PUSH0 PUSH2 0x167E PUSH1 0x15 DUP4 PUSH2 0x1092 JUMP JUMPDEST SWAP2 POP PUSH2 0x1689 DUP3 PUSH2 0x164A JUMP JUMPDEST PUSH1 0x20 DUP3 ADD SWAP1 POP SWAP2 SWAP1 POP JUMP JUMPDEST PUSH0 PUSH1 0x20 DUP3 ADD SWAP1 POP DUP2 DUP2 SUB PUSH0 DUP4 ADD MSTORE PUSH2 0x16AB DUP2 PUSH2 0x1672 JUMP JUMPDEST SWAP1 POP SWAP2 SWAP1 POP JUMP JUMPDEST PUSH32 0x537572766579206973206E6F7420616374697665000000000000000000000000 PUSH0 DUP3 ADD MSTORE POP JUMP JUMPDEST PUSH0 PUSH2 0x16E6 PUSH1 0x14 DUP4 PUSH2 0x1092 JUMP JUMPDEST SWAP2 POP PUSH2 0x16F1 DUP3 PUSH2 0x16B2 JUMP JUMPDEST PUSH1 0x20 DUP3 ADD SWAP1 POP SWAP2 SWAP1 POP JUMP JUMPDEST PUSH0 PUSH1 0x20 DUP3 ADD SWAP1 POP DUP2 DUP2 SUB PUSH0 DUP4 ADD MSTORE PUSH2 0x1713 DUP2 PUSH2 0x16DA JUMP JUMPDEST SWAP1 POP SWAP2 SWAP1 POP JUMP JUMPDEST PUSH32 0x496E76616C6964206F7074696F6E20696E646578000000000000000000000000 PUSH0 DUP3 ADD MSTORE POP JUMP JUMPDEST PUSH0 PUSH2 0x174E PUSH1 0x14 DUP4 PUSH2 0x1092 JUMP JUMPDEST SWAP2 POP PUSH2 0x1759 DUP3 PUSH2 0x171A JUMP JUMPDEST PUSH1 0x20 DUP3 ADD SWAP1 POP SWAP2 SWAP1 POP JUMP JUMPDEST PUSH0 PUSH1 0x20 DUP3 ADD SWAP1 POP DUP2 DUP2 SUB PUSH0 DUP4 ADD MSTORE PUSH2 0x177B DUP2 PUSH2 0x1742 JUMP JUMPDEST SWAP1 POP SWAP2 SWAP1 POP JUMP JUMPDEST PUSH32 0x557365722068617320616C726561647920766F74656400000000000000000000 PUSH0 DUP3 ADD MSTORE POP JUMP JUMPDEST PUSH0 PUSH2 0x17B6 PUSH1 0x16 DUP4 PUSH2 0x1092 JUMP JUMPDEST SWAP2 POP PUSH2 0x17C1 DUP3 PUSH2 0x1782 JUMP JUMPDEST PUSH1 0x20 DUP3 ADD SWAP1 POP SWAP2 SWAP1 POP JUMP JUMPDEST PUSH0 PUSH1 0x20 DUP3 ADD SWAP1 POP DUP2 DUP2 SUB PUSH0 DUP4 ADD MSTORE PUSH2 0x17E3 DUP2 PUSH2 0x17AA JUMP JUMPDEST SWAP1 POP SWAP2 SWAP1 POP JUMP JUMPDEST PUSH0 PUSH2 0x17F4 DUP3 PUSH2 0xB09 JUMP JUMPDEST SWAP2 POP PUSH32 0xFFFFFFFFFFFFFFFFFFFFFFFFFFFFFFFFFFFFFFFFFFFFFFFFFFFFFFFFFFFFFFFF DUP3 SUB PUSH2 0x1826 JUMPI PUSH2 0x1825 PUSH2 0x1293 JUMP JUMPDEST JUMPDEST PUSH1 0x1 DUP3 ADD SWAP1 POP SWAP2 SWAP1 POP JUMP JUMPDEST PUSH32 0x696E76616C696420737572766579204944000000000000000000000000000000 PUSH0 DUP3 ADD MSTORE POP JUMP JUMPDEST PUSH0 PUSH2 0x1865 PUSH1 0x11 DUP4 PUSH2 0x1092 JUMP JUMPDEST SWAP2 POP PUSH2 0x1870 DUP3 PUSH2 0x1831 JUMP JUMPDEST PUSH1 0x20 DUP3 ADD SWAP1 POP SWAP2 SWAP1 POP JUMP JUMPDEST PUSH0 PUSH1 0x20 DUP3 ADD SWAP1 POP DUP2 DUP2 SUB PUSH0 DUP4 ADD MSTORE PUSH2 0x1892 DUP2 PUSH2 0x1859 JUMP JUMPDEST SWAP1 POP SWAP2 SWAP1 POP JUMP INVALID LOG2 PUSH5 0x6970667358 0x22 SLT KECCAK256 PUSH32 0x3FC027DA42DB8ABCC0E58B1C3A3EF1F85C84241821727E4B4B22C2A92CE56464 PUSH20 0x6F6C634300081A00330000000000000000000000 "
		},
		"gasEstimates": {
			"creation": {
				"codeDepositCost": "1270200",
				"executionCost": "1320",
				"totalCost": "1271520"
			},
			"external": {
				"changeActiveStatus(uint256,bool)": "31469",
				"createSurvey(string,string[],bool)": "infinite",
				"getSurveyCount()": "2462",
				"getSurveyOptions(uint256)": "infinite",
				"getSurveyVoteCountPerOptions(uint256)": "infinite",
				"hasVoted(uint256)": "7212",
				"surveys(uint256)": "infinite",
				"vote(uint256,uint256)": "infinite"
			}
		},
		"methodIdentifiers": {
			"changeActiveStatus(uint256,bool)": "78e6b292",
			"createSurvey(string,string[],bool)": "0c4960dd",
			"getSurveyCount()": "9fe140b1",
			"getSurveyOptions(uint256)": "256a7f6b",
			"getSurveyVoteCountPerOptions(uint256)": "0a277d6d",
			"hasVoted(uint256)": "ecca031f",
			"surveys(uint256)": "86e68b90",
			"vote(uint256,uint256)": "b384abef"
		}
	},
	"abi": [
		{
			"inputs": [
				{
					"internalType": "uint256",
					"name": "surveyIndex",
					"type": "uint256"
				},
				{
					"internalType": "bool",
					"name": "isActive",
					"type": "bool"
				}
			],
			"name": "changeActiveStatus",
			"outputs": [],
			"stateMutability": "nonpayable",
			"type": "function"
		},
		{
			"inputs": [
				{
					"internalType": "string",
					"name": "_question",
					"type": "string"
				},
				{
					"internalType": "string[]",
					"name": "_options",
					"type": "string[]"
				},
				{
					"internalType": "bool",
					"name": "_initialActiveState",
					"type": "bool"
				}
			],
			"name": "createSurvey",
			"outputs": [],
			"stateMutability": "nonpayable",
			"type": "function"
		},
		{
			"inputs": [],
			"name": "getSurveyCount",
			"outputs": [
				{
					"internalType": "uint256",
					"name": "",
					"type": "uint256"
				}
			],
			"stateMutability": "view",
			"type": "function"
		},
		{
			"inputs": [
				{
					"internalType": "uint256",
					"name": "surveyIndex",
					"type": "uint256"
				}
			],
			"name": "getSurveyOptions",
			"outputs": [
				{
					"internalType": "string[]",
					"name": "",
					"type": "string[]"
				}
			],
			"stateMutability": "view",
			"type": "function"
		},
		{
			"inputs": [
				{
					"internalType": "uint256",
					"name": "surveyIndex",
					"type": "uint256"
				}
			],
			"name": "getSurveyVoteCountPerOptions",
			"outputs": [
				{
					"internalType": "uint256[]",
					"name": "",
					"type": "uint256[]"
				}
			],
			"stateMutability": "view",
			"type": "function"
		},
		{
			"inputs": [
				{
					"internalType": "uint256",
					"name": "surveyID",
					"type": "uint256"
				}
			],
			"name": "hasVoted",
			"outputs": [
				{
					"internalType": "bool",
					"name": "",
					"type": "bool"
				}
			],
			"stateMutability": "view",
			"type": "function"
		},
		{
			"inputs": [
				{
					"internalType": "uint256",
					"name": "",
					"type": "uint256"
				}
			],
			"name": "surveys",
			"outputs": [
				{
					"internalType": "string",
					"name": "question",
					"type": "string"
				},
				{
					"internalType": "bool",
					"name": "isActive",
					"type": "bool"
				}
			],
			"stateMutability": "view",
			"type": "function"
		},
		{
			"inputs": [
				{
					"internalType": "uint256",
					"name": "_surveyId",
					"type": "uint256"
				},
				{
					"internalType": "uint256",
					"name": "_optionIndex",
					"type": "uint256"
				}
			],
			"name": "vote",
			"outputs": [],
			"stateMutability": "nonpayable",
			"type": "function"
		}
	]
}