{
	"data": {
		"bytecode": {
			"linkReferences": {},
			"object": "60806040525f60015560326002553480156017575f80fd5b50615d31806100255f395ff3fe608060405234801561000f575f80fd5b5060043610610156575f3560e01c80637d973710116100c157806395d89b411161007a57806395d89b41146103645780639f85293b14610382578063a8d3efe31461039e578063a9059cbb146103ce578063dd62ed3e146103fe578063f2fde38b1461042e57610156565b80637d973710146102cc5780638129fc1c146102e85780638a6655d6146102f25780638da5cb5b1461030e5780638f9254141461032c57806390cd23211461034857610156565b80633924cde8116101135780633924cde81461023257806342966c68146102505780634735c94c1461026c57806370a0823114610276578063715018a6146102a657806379cc6790146102b057610156565b806306fdde031461015a578063095ea7b31461017857806318160ddd146101a857806323b872dd146101c6578063313ce567146101f6578063355274ea14610214575b5f80fd5b61016261044a565b60405161016f91906123da565b60405180910390f35b610192600480360381019061018d9190612498565b6104e8565b60405161019f91906124f0565b60405180910390f35b6101b061050a565b6040516101bd9190612518565b60405180910390f35b6101e060048036038101906101db9190612531565b610521565b6040516101ed91906124f0565b60405180910390f35b6101fe61054f565b60405161020b919061259c565b60405180910390f35b61021c610557565b6040516102299190612518565b60405180910390f35b61023a61056d565b6040516102479190612518565b60405180910390f35b61026a600480360381019061026591906125b5565b610576565b005b61027461058a565b005b610290600480360381019061028b91906125e0565b6106c4565b60405161029d9190612518565b60405180910390f35b6102ae610717565b005b6102ca60048036038101906102c59190612498565b61072a565b005b6102e660048036038101906102e19190612635565b61074a565b005b6102f0610a53565b005b61030c60048036038101906103079190612685565b610c72565b005b61031661102b565b60405161032391906126e4565b60405180910390f35b6103466004803603810190610341919061290b565b611060565b005b610362600480360381019061035d91906125b5565b61130d565b005b61036c611363565b60405161037991906123da565b60405180910390f35b61039c600480360381019061039791906125b5565b611401565b005b6103b860048036038101906103b391906125b5565b6114bc565b6040516103c591906129ee565b60405180910390f35b6103e860048036038101906103e39190612498565b6115e1565b6040516103f591906124f0565b60405180910390f35b61041860048036038101906104139190612a07565b611603565b6040516104259190612518565b60405180910390f35b610448600480360381019061044391906125e0565b611693565b005b60605f610455611717565b905080600301805461046690612a72565b80601f016020809104026020016040519081016040528092919081815260200182805461049290612a72565b80156104dd5780601f106104b4576101008083540402835291602001916104dd565b820191905f5260205f20905b8154815290600101906020018083116104c057829003601f168201915b505050505091505090565b5f806104f261173e565b90506104ff818585611745565b600191505092915050565b5f80610514611717565b9050806002015491505090565b5f8061052b61173e565b9050610538858285611757565b6105438585856117ea565b60019150509392505050565b5f6012905090565b5f806105616118da565b9050805f015491505090565b5f600154905090565b61058761058161173e565b82611901565b50565b610592611980565b5f73ffffffffffffffffffffffffffffffffffffffff165f8060015481526020019081526020015f205f9054906101000a900473ffffffffffffffffffffffffffffffffffffffff1673ffffffffffffffffffffffffffffffffffffffff1614610631576040517f08c379a000000000000000000000000000000000000000000000000000000000815260040161062890612aec565b60405180910390fd5b5f60405161063e9061235d565b604051809103905ff080158015610657573d5f803e3d5ffd5b509050805f8060015481526020019081526020015f205f6101000a81548173ffffffffffffffffffffffffffffffffffffffff021916908373ffffffffffffffffffffffffffffffffffffffff16021790555060015f8154809291906106bc90612b37565b919050555050565b5f806106ce611717565b9050805f015f8473ffffffffffffffffffffffffffffffffffffffff1673ffffffffffffffffffffffffffffffffffffffff1681526020019081526020015f2054915050919050565b61071f611980565b6107285f611a07565b565b61073c8261073661173e565b83611757565b6107468282611901565b5050565b610752611980565b5f831015801561076257505f8210155b6107a1576040517f08c379a000000000000000000000000000000000000000000000000000000000815260040161079890612bc8565b60405180910390fd5b5f73ffffffffffffffffffffffffffffffffffffffff165f808581526020019081526020015f205f9054906101000a900473ffffffffffffffffffffffffffffffffffffffff1673ffffffffffffffffffffffffffffffffffffffff160361083e576040517f08c379a000000000000000000000000000000000000000000000000000000000815260040161083590612c30565b60405180910390fd5b5f805f8581526020019081526020015f205f9054906101000a900473ffffffffffffffffffffffffffffffffffffffff1690508073ffffffffffffffffffffffffffffffffffffffff16639fe140b16040518163ffffffff1660e01b8152600401602060405180830381865afa1580156108ba573d5f803e3d5ffd5b505050506040513d601f19601f820116820180604052508101906108de9190612c62565b831061091f576040517f08c379a000000000000000000000000000000000000000000000000000000000815260040161091690612cd7565b60405180910390fd5b5f8173ffffffffffffffffffffffffffffffffffffffff166386e68b90856040518263ffffffff1660e01b81526004016109599190612518565b5f60405180830381865afa158015610973573d5f803e3d5ffd5b505050506040513d5f823e3d601f19601f8201168201806040525081019061099b9190612d77565b915050821515811515036109e4576040517f08c379a00000000000000000000000000000000000000000000000000000000081526004016109db90612e41565b60405180910390fd5b8173ffffffffffffffffffffffffffffffffffffffff166378e6b29285856040518363ffffffff1660e01b8152600401610a1f929190612e5f565b5f604051808303815f87803b158015610a36575f80fd5b505af1158015610a48573d5f803e3d5ffd5b505050505050505050565b5f610a5c611ad8565b90505f815f0160089054906101000a900460ff161590505f825f015f9054906101000a900467ffffffffffffffff1690505f808267ffffffffffffffff16148015610aa45750825b90505f60018367ffffffffffffffff16148015610ad757505f3073ffffffffffffffffffffffffffffffffffffffff163b145b905081158015610ae5575080155b15610b1c576040517ff92ee8a900000000000000000000000000000000000000000000000000000000815260040160405180910390fd5b6001855f015f6101000a81548167ffffffffffffffff021916908367ffffffffffffffff1602179055508315610b69576001855f0160086101000a81548160ff0219169083151502179055505b610bdd6040518060400160405280600681526020017f536f626f726f00000000000000000000000000000000000000000000000000008152506040518060400160405280600381526020017f5342520000000000000000000000000000000000000000000000000000000000815250611aeb565b610beb64174876e800611b01565b610bf3611b15565b610bfc33611b1f565b610c04611b33565b610c1133620f4240611b3d565b8315610c6b575f855f0160086101000a81548160ff0219169083151502179055507fc7f505b2f371ae2175ee4913f4499e1f2633a7b5936321eed1cdaeb6115181d26001604051610c629190612ed2565b60405180910390a15b5050505050565b610c7a611bbc565b5f73ffffffffffffffffffffffffffffffffffffffff163373ffffffffffffffffffffffffffffffffffffffff1603610ce8576040517f08c379a0000000000000000000000000000000000000000000000000000000008152600401610cdf90612f35565b60405180910390fd5b5f8310158015610cf857505f8210155b8015610d0457505f8110155b8015610d11575060015483105b610d50576040517f08c379a0000000000000000000000000000000000000000000000000000000008152600401610d4790612f9d565b60405180910390fd5b5f805f8581526020019081526020015f205f9054906101000a900473ffffffffffffffffffffffffffffffffffffffff1690508073ffffffffffffffffffffffffffffffffffffffff16639fe140b16040518163ffffffff1660e01b8152600401602060405180830381865afa158015610dcc573d5f803e3d5ffd5b505050506040513d601f19601f82011682018060405250810190610df09190612c62565b8310610e31576040517f08c379a0000000000000000000000000000000000000000000000000000000008152600401610e2890612cd7565b60405180910390fd5b5f8173ffffffffffffffffffffffffffffffffffffffff166386e68b90856040518263ffffffff1660e01b8152600401610e6b9190612518565b5f60405180830381865afa158015610e85573d5f803e3d5ffd5b505050506040513d5f823e3d601f19601f82011682018060405250810190610ead9190612d77565b9150506001151581151514610ef7576040517f08c379a0000000000000000000000000000000000000000000000000000000008152600401610eee90613005565b60405180910390fd5b5f15158273ffffffffffffffffffffffffffffffffffffffff16633358d9d9866040518263ffffffff1660e01b8152600401610f339190612518565b602060405180830381865afa158015610f4e573d5f803e3d5ffd5b505050506040513d601f19601f82011682018060405250810190610f729190613023565b151514610fb4576040517f08c379a0000000000000000000000000000000000000000000000000000000008152600401610fab90613098565b60405180910390fd5b8173ffffffffffffffffffffffffffffffffffffffff1663b384abef85856040518363ffffffff1660e01b8152600401610fef9291906130b6565b5f604051808303815f87803b158015611006575f80fd5b505af1158015611018573d5f803e3d5ffd5b505050505050611026611c3b565b505050565b5f80611035611c7a565b9050805f015f9054906101000a900473ffffffffffffffffffffffffffffffffffffffff1691505090565b611068611980565b611070611bbc565b5f8351036110b3576040517f08c379a00000000000000000000000000000000000000000000000000000000081526004016110aa90613127565b60405180910390fd5b6002825110156110f8576040517f08c379a00000000000000000000000000000000000000000000000000000000081526004016110ef9061318f565b60405180910390fd5b5f6001805461110791906131ad565b90505f73ffffffffffffffffffffffffffffffffffffffff165f808381526020019081526020015f205f9054906101000a900473ffffffffffffffffffffffffffffffffffffffff1673ffffffffffffffffffffffffffffffffffffffff16036111a6576040517f08c379a000000000000000000000000000000000000000000000000000000000815260040161119d90613250565b60405180910390fd5b5f805f8381526020019081526020015f205f9054906101000a900473ffffffffffffffffffffffffffffffffffffffff1690505f8173ffffffffffffffffffffffffffffffffffffffff16639fe140b16040518163ffffffff1660e01b8152600401602060405180830381865afa158015611223573d5f803e3d5ffd5b505050506040513d601f19601f820116820180604052508101906112479190612c62565b90506002548110156112c2578173ffffffffffffffffffffffffffffffffffffffff16630c4960dd8787876040518463ffffffff1660e01b815260040161129093929190613371565b5f604051808303815f87803b1580156112a7575f80fd5b505af11580156112b9573d5f803e3d5ffd5b505050506112fd565b6040517f08c379a00000000000000000000000000000000000000000000000000000000081526004016112f490613424565b60405180910390fd5b505050611308611c3b565b505050565b611315611980565b6001811015611359576040517f08c379a00000000000000000000000000000000000000000000000000000000081526004016113509061348c565b60405180910390fd5b8060028190555050565b60605f61136e611717565b905080600401805461137f90612a72565b80601f01602080910402602001604051908101604052809291908181526020018280546113ab90612a72565b80156113f65780601f106113cd576101008083540402835291602001916113f6565b820191905f5260205f20905b8154815290600101906020018083116113d957829003601f168201915b505050505091505090565b611409611980565b5f811015801561147357505f73ffffffffffffffffffffffffffffffffffffffff165f808381526020019081526020015f205f9054906101000a900473ffffffffffffffffffffffffffffffffffffffff1673ffffffffffffffffffffffffffffffffffffffff16145b6114b2576040517f08c379a00000000000000000000000000000000000000000000000000000000081526004016114a9906134f4565b60405180910390fd5b8060018190555050565b5f8082101580156114ce575060015482105b61150d576040517f08c379a00000000000000000000000000000000000000000000000000000000081526004016115049061355c565b60405180910390fd5b5f73ffffffffffffffffffffffffffffffffffffffff165f808481526020019081526020015f205f9054906101000a900473ffffffffffffffffffffffffffffffffffffffff1673ffffffffffffffffffffffffffffffffffffffff16036115aa576040517f08c379a00000000000000000000000000000000000000000000000000000000081526004016115a190612c30565b60405180910390fd5b5f808381526020019081526020015f205f9054906101000a900473ffffffffffffffffffffffffffffffffffffffff169050919050565b5f806115eb61173e565b90506115f88185856117ea565b600191505092915050565b5f8061160d611717565b9050806001015f8573ffffffffffffffffffffffffffffffffffffffff1673ffffffffffffffffffffffffffffffffffffffff1681526020019081526020015f205f8473ffffffffffffffffffffffffffffffffffffffff1673ffffffffffffffffffffffffffffffffffffffff1681526020019081526020015f205491505092915050565b61169b611980565b5f73ffffffffffffffffffffffffffffffffffffffff168173ffffffffffffffffffffffffffffffffffffffff160361170b575f6040517f1e4fbdf700000000000000000000000000000000000000000000000000000000815260040161170291906126e4565b60405180910390fd5b61171481611a07565b50565b5f7f52c63247e1f47db19d5ce0460030c497f067ca4cebf71ba98eeadabe20bace00905090565b5f33905090565b6117528383836001611ca1565b505050565b5f6117628484611603565b90507fffffffffffffffffffffffffffffffffffffffffffffffffffffffffffffffff8110156117e457818110156117d5578281836040517ffb8f41b20000000000000000000000000000000000000000000000000000000081526004016117cc9392919061357a565b60405180910390fd5b6117e384848484035f611ca1565b5b50505050565b5f73ffffffffffffffffffffffffffffffffffffffff168373ffffffffffffffffffffffffffffffffffffffff160361185a575f6040517f96c6fd1e00000000000000000000000000000000000000000000000000000000815260040161185191906126e4565b60405180910390fd5b5f73ffffffffffffffffffffffffffffffffffffffff168273ffffffffffffffffffffffffffffffffffffffff16036118ca575f6040517fec442f050000000000000000000000000000000000000000000000000000000081526004016118c191906126e4565b60405180910390fd5b6118d5838383611e7e565b505050565b5f7f0f070392f17d5f958cc1ac31867dabecfc5c9758b4a419a200803226d7155d00905090565b5f73ffffffffffffffffffffffffffffffffffffffff168273ffffffffffffffffffffffffffffffffffffffff1603611971575f6040517f96c6fd1e00000000000000000000000000000000000000000000000000000000815260040161196891906126e4565b60405180910390fd5b61197c825f83611e7e565b5050565b61198861173e565b73ffffffffffffffffffffffffffffffffffffffff166119a661102b565b73ffffffffffffffffffffffffffffffffffffffff1614611a05576119c961173e565b6040517f118cdaa70000000000000000000000000000000000000000000000000000000081526004016119fc91906126e4565b60405180910390fd5b565b5f611a10611c7a565b90505f815f015f9054906101000a900473ffffffffffffffffffffffffffffffffffffffff16905082825f015f6101000a81548173ffffffffffffffffffffffffffffffffffffffff021916908373ffffffffffffffffffffffffffffffffffffffff1602179055508273ffffffffffffffffffffffffffffffffffffffff168173ffffffffffffffffffffffffffffffffffffffff167f8be0079c531659141344cd1fd0a4f28419497f9722a3daafe3b4186f6b6457e060405160405180910390a3505050565b5f80611ae2611e8e565b90508091505090565b611af3611eb7565b611afd8282611ef7565b5050565b611b09611eb7565b611b1281611f33565b50565b611b1d611eb7565b565b611b27611eb7565b611b3081611f96565b50565b611b3b611eb7565b565b5f73ffffffffffffffffffffffffffffffffffffffff168273ffffffffffffffffffffffffffffffffffffffff1603611bad575f6040517fec442f05000000000000000000000000000000000000000000000000000000008152600401611ba491906126e4565b60405180910390fd5b611bb85f8383611e7e565b5050565b611bc461201a565b15611bfb576040517f3ee5aeb500000000000000000000000000000000000000000000000000000000815260040160405180910390fd5b611c396001611c2b7f9b779b17422d0df92223018b32b4d1fa46e071723d6817e2486d003becc55f005f1b612053565b61205c90919063ffffffff16565b565b611c785f611c6a7f9b779b17422d0df92223018b32b4d1fa46e071723d6817e2486d003becc55f005f1b612053565b61205c90919063ffffffff16565b565b5f7f9016d09d72d40fdae2fd8ceac6b6234c7706214fd39c1cd1e609a0528c199300905090565b5f611caa611717565b90505f73ffffffffffffffffffffffffffffffffffffffff168573ffffffffffffffffffffffffffffffffffffffff1603611d1c575f6040517fe602df05000000000000000000000000000000000000000000000000000000008152600401611d1391906126e4565b60405180910390fd5b5f73ffffffffffffffffffffffffffffffffffffffff168473ffffffffffffffffffffffffffffffffffffffff1603611d8c575f6040517f94280d62000000000000000000000000000000000000000000000000000000008152600401611d8391906126e4565b60405180910390fd5b82816001015f8773ffffffffffffffffffffffffffffffffffffffff1673ffffffffffffffffffffffffffffffffffffffff1681526020019081526020015f205f8673ffffffffffffffffffffffffffffffffffffffff1673ffffffffffffffffffffffffffffffffffffffff1681526020019081526020015f20819055508115611e77578373ffffffffffffffffffffffffffffffffffffffff168573ffffffffffffffffffffffffffffffffffffffff167f8c5be1e5ebec7d5bd14f71427d1e84f3dd0314c0f7b2291e5b200ac8c7c3b92585604051611e6e9190612518565b60405180910390a35b5050505050565b611e89838383612063565b505050565b5f7ff0c57e16840df040f15088dc2f81fe391c3923bec73e23a9662efc9c229c6a005f1b905090565b611ebf612106565b611ef5576040517fd7e6bcf800000000000000000000000000000000000000000000000000000000815260040160405180910390fd5b565b611eff611eb7565b5f611f08611717565b905082816003019081611f1b9190613743565b5081816004019081611f2d9190613743565b50505050565b611f3b611eb7565b5f611f446118da565b90505f8203611f8a575f6040517f392e1e27000000000000000000000000000000000000000000000000000000008152600401611f81919061384b565b60405180910390fd5b81815f01819055505050565b611f9e611eb7565b5f73ffffffffffffffffffffffffffffffffffffffff168173ffffffffffffffffffffffffffffffffffffffff160361200e575f6040517f1e4fbdf700000000000000000000000000000000000000000000000000000000815260040161200591906126e4565b60405180910390fd5b61201781611a07565b50565b5f61204e6120497f9b779b17422d0df92223018b32b4d1fa46e071723d6817e2486d003becc55f005f1b612053565b612124565b905090565b5f819050919050565b80825d5050565b61206e83838361212e565b5f73ffffffffffffffffffffffffffffffffffffffff168373ffffffffffffffffffffffffffffffffffffffff1603612101575f6120aa610557565b90505f6120b561050a565b9050818111156120fe5780826040517f9e79f8540000000000000000000000000000000000000000000000000000000081526004016120f59291906130b6565b60405180910390fd5b50505b505050565b5f61210f611ad8565b5f0160089054906101000a900460ff16905090565b5f815c9050919050565b5f612137611717565b90505f73ffffffffffffffffffffffffffffffffffffffff168473ffffffffffffffffffffffffffffffffffffffff160361218b5781816002015f82825461217f9190613864565b9250508190555061225d565b5f815f015f8673ffffffffffffffffffffffffffffffffffffffff1673ffffffffffffffffffffffffffffffffffffffff1681526020019081526020015f2054905082811015612216578481846040517fe450d38c00000000000000000000000000000000000000000000000000000000815260040161220d9392919061357a565b60405180910390fd5b828103825f015f8773ffffffffffffffffffffffffffffffffffffffff1673ffffffffffffffffffffffffffffffffffffffff1681526020019081526020015f2081905550505b5f73ffffffffffffffffffffffffffffffffffffffff168373ffffffffffffffffffffffffffffffffffffffff16036122a65781816002015f82825403925050819055506122f2565b81815f015f8573ffffffffffffffffffffffffffffffffffffffff1673ffffffffffffffffffffffffffffffffffffffff1681526020019081526020015f205f82825401925050819055505b8273ffffffffffffffffffffffffffffffffffffffff168473ffffffffffffffffffffffffffffffffffffffff167fddf252ad1be2c89b69c2b068fc378daa952ba7f163c4a11628f55a4df523b3ef8460405161234f9190612518565b60405180910390a350505050565b6124648061389883390190565b5f81519050919050565b5f82825260208201905092915050565b8281835e5f83830152505050565b5f601f19601f8301169050919050565b5f6123ac8261236a565b6123b68185612374565b93506123c6818560208601612384565b6123cf81612392565b840191505092915050565b5f6020820190508181035f8301526123f281846123a2565b905092915050565b5f604051905090565b5f80fd5b5f80fd5b5f73ffffffffffffffffffffffffffffffffffffffff82169050919050565b5f6124348261240b565b9050919050565b6124448161242a565b811461244e575f80fd5b50565b5f8135905061245f8161243b565b92915050565b5f819050919050565b61247781612465565b8114612481575f80fd5b50565b5f813590506124928161246e565b92915050565b5f80604083850312156124ae576124ad612403565b5b5f6124bb85828601612451565b92505060206124cc85828601612484565b9150509250929050565b5f8115159050919050565b6124ea816124d6565b82525050565b5f6020820190506125035f8301846124e1565b92915050565b61251281612465565b82525050565b5f60208201905061252b5f830184612509565b92915050565b5f805f6060848603121561254857612547612403565b5b5f61255586828701612451565b935050602061256686828701612451565b925050604061257786828701612484565b9150509250925092565b5f60ff82169050919050565b61259681612581565b82525050565b5f6020820190506125af5f83018461258d565b92915050565b5f602082840312156125ca576125c9612403565b5b5f6125d784828501612484565b91505092915050565b5f602082840312156125f5576125f4612403565b5b5f61260284828501612451565b91505092915050565b612614816124d6565b811461261e575f80fd5b50565b5f8135905061262f8161260b565b92915050565b5f805f6060848603121561264c5761264b612403565b5b5f61265986828701612484565b935050602061266a86828701612484565b925050604061267b86828701612621565b9150509250925092565b5f805f6060848603121561269c5761269b612403565b5b5f6126a986828701612484565b93505060206126ba86828701612484565b92505060406126cb86828701612484565b9150509250925092565b6126de8161242a565b82525050565b5f6020820190506126f75f8301846126d5565b92915050565b5f80fd5b5f80fd5b7f4e487b71000000000000000000000000000000000000000000000000000000005f52604160045260245ffd5b61273b82612392565b810181811067ffffffffffffffff8211171561275a57612759612705565b5b80604052505050565b5f61276c6123fa565b90506127788282612732565b919050565b5f67ffffffffffffffff82111561279757612796612705565b5b6127a082612392565b9050602081019050919050565b828183375f83830152505050565b5f6127cd6127c88461277d565b612763565b9050828152602081018484840111156127e9576127e8612701565b5b6127f48482856127ad565b509392505050565b5f82601f8301126128105761280f6126fd565b5b81356128208482602086016127bb565b91505092915050565b5f67ffffffffffffffff82111561284357612842612705565b5b602082029050602081019050919050565b5f80fd5b5f61286a61286584612829565b612763565b9050808382526020820190506020840283018581111561288d5761288c612854565b5b835b818110156128d457803567ffffffffffffffff8111156128b2576128b16126fd565b5b8086016128bf89826127fc565b8552602085019450505060208101905061288f565b5050509392505050565b5f82601f8301126128f2576128f16126fd565b5b8135612902848260208601612858565b91505092915050565b5f805f6060848603121561292257612921612403565b5b5f84013567ffffffffffffffff81111561293f5761293e612407565b5b61294b868287016127fc565b935050602084013567ffffffffffffffff81111561296c5761296b612407565b5b612978868287016128de565b925050604061298986828701612621565b9150509250925092565b5f819050919050565b5f6129b66129b16129ac8461240b565b612993565b61240b565b9050919050565b5f6129c78261299c565b9050919050565b5f6129d8826129bd565b9050919050565b6129e8816129ce565b82525050565b5f602082019050612a015f8301846129df565b92915050565b5f8060408385031215612a1d57612a1c612403565b5b5f612a2a85828601612451565b9250506020612a3b85828601612451565b9150509250929050565b7f4e487b71000000000000000000000000000000000000000000000000000000005f52602260045260245ffd5b5f6002820490506001821680612a8957607f821691505b602082108103612a9c57612a9b612a45565b5b50919050565b7f6372756d6220616c656164792062616b656400000000000000000000000000005f82015250565b5f612ad6601283612374565b9150612ae182612aa2565b602082019050919050565b5f6020820190508181035f830152612b0381612aca565b9050919050565b7f4e487b71000000000000000000000000000000000000000000000000000000005f52601160045260245ffd5b5f612b4182612465565b91507fffffffffffffffffffffffffffffffffffffffffffffffffffffffffffffffff8203612b7357612b72612b0a565b5b600182019050919050565b7f696e76616c69642049442f496e646578000000000000000000000000000000005f82015250565b5f612bb2601083612374565b9150612bbd82612b7e565b602082019050919050565b5f6020820190508181035f830152612bdf81612ba6565b9050919050565b7f6372756d62206e6f7420657869737473000000000000000000000000000000005f82015250565b5f612c1a601083612374565b9150612c2582612be6565b602082019050919050565b5f6020820190508181035f830152612c4781612c0e565b9050919050565b5f81519050612c5c8161246e565b92915050565b5f60208284031215612c7757612c76612403565b5b5f612c8484828501612c4e565b91505092915050565b7f73757276657920646f6573206e6f7420657869737400000000000000000000005f82015250565b5f612cc1601583612374565b9150612ccc82612c8d565b602082019050919050565b5f6020820190508181035f830152612cee81612cb5565b9050919050565b5f612d07612d028461277d565b612763565b905082815260208101848484011115612d2357612d22612701565b5b612d2e848285612384565b509392505050565b5f82601f830112612d4a57612d496126fd565b5b8151612d5a848260208601612cf5565b91505092915050565b5f81519050612d718161260b565b92915050565b5f8060408385031215612d8d57612d8c612403565b5b5f83015167ffffffffffffffff811115612daa57612da9612407565b5b612db685828601612d36565b9250506020612dc785828601612d63565b9150509250929050565b7f73757276657920697320616c726561647920696e2074686520646573697265645f8201527f2061637469766520737461746500000000000000000000000000000000000000602082015250565b5f612e2b602d83612374565b9150612e3682612dd1565b604082019050919050565b5f6020820190508181035f830152612e5881612e1f565b9050919050565b5f604082019050612e725f830185612509565b612e7f60208301846124e1565b9392505050565b5f819050919050565b5f67ffffffffffffffff82169050919050565b5f612ebc612eb7612eb284612e86565b612993565b612e8f565b9050919050565b612ecc81612ea2565b82525050565b5f602082019050612ee55f830184612ec3565b92915050565b7f696e76616c6964206164647265737300000000000000000000000000000000005f82015250565b5f612f1f600f83612374565b9150612f2a82612eeb565b602082019050919050565b5f6020820190508181035f830152612f4c81612f13565b9050919050565b7f696e76616c696420766f746520726571756573740000000000000000000000005f82015250565b5f612f87601483612374565b9150612f9282612f53565b602082019050919050565b5f6020820190508181035f830152612fb481612f7b565b9050919050565b7f737572766579206973206e6f74206163746976617465640000000000000000005f82015250565b5f612fef601783612374565b9150612ffa82612fbb565b602082019050919050565b5f6020820190508181035f83015261301c81612fe3565b9050919050565b5f6020828403121561303857613037612403565b5b5f61304584828501612d63565b91505092915050565b7f616c6561647920766f74656400000000000000000000000000000000000000005f82015250565b5f613082600c83612374565b915061308d8261304e565b602082019050919050565b5f6020820190508181035f8301526130af81613076565b9050919050565b5f6040820190506130c95f830185612509565b6130d66020830184612509565b9392505050565b7f656d707479207175657374696f6e206973206e6f7420616c6c6f7765640000005f82015250565b5f613111601d83612374565b915061311c826130dd565b602082019050919050565b5f6020820190508181035f83015261313e81613105565b9050919050565b7f4174206c656173742032206f7074696f6e7320617265207265717569726564005f82015250565b5f613179601f83612374565b915061318482613145565b602082019050919050565b5f6020820190508181035f8301526131a68161316d565b9050919050565b5f6131b782612465565b91506131c283612465565b92508282039050818111156131da576131d9612b0a565b5b92915050565b7f6c617374657374206372756d6220646f6573206e6f742065786973742e2057685f8201527f6f206174652069743f0000000000000000000000000000000000000000000000602082015250565b5f61323a602983612374565b9150613245826131e0565b604082019050919050565b5f6020820190508181035f8301526132678161322e565b9050919050565b5f81519050919050565b5f82825260208201905092915050565b5f819050602082019050919050565b5f82825260208201905092915050565b5f6132b18261236a565b6132bb8185613297565b93506132cb818560208601612384565b6132d481612392565b840191505092915050565b5f6132ea83836132a7565b905092915050565b5f602082019050919050565b5f6133088261326e565b6133128185613278565b93508360208202850161332485613288565b805f5b8581101561335f578484038952815161334085826132df565b945061334b836132f2565b925060208a01995050600181019050613327565b50829750879550505050505092915050565b5f6060820190508181035f83015261338981866123a2565b9050818103602083015261339d81856132fe565b90506133ac60408301846124e1565b949350505050565b7f6d61782073757276657920636f756e7420706572206372756d622072656163685f8201527f65642e20637265617465204372756d6220666972737400000000000000000000602082015250565b5f61340e603683612374565b9150613419826133b4565b604082019050919050565b5f6020820190508181035f83015261343b81613402565b9050919050565b7f696e76616c696420636f756e74000000000000000000000000000000000000005f82015250565b5f613476600d83612374565b915061348182613442565b602082019050919050565b5f6020820190508181035f8301526134a38161346a565b9050919050565b7f696e76616c6964206e65772049440000000000000000000000000000000000005f82015250565b5f6134de600e83612374565b91506134e9826134aa565b602082019050919050565b5f6020820190508181035f83015261350b816134d2565b9050919050565b7f696e76616c696420696e646578000000000000000000000000000000000000005f82015250565b5f613546600d83612374565b915061355182613512565b602082019050919050565b5f6020820190508181035f8301526135738161353a565b9050919050565b5f60608201905061358d5f8301866126d5565b61359a6020830185612509565b6135a76040830184612509565b949350505050565b5f819050815f5260205f209050919050565b5f6020601f8301049050919050565b5f82821b905092915050565b5f6008830261360b7fffffffffffffffffffffffffffffffffffffffffffffffffffffffffffffffff826135d0565b61361586836135d0565b95508019841693508086168417925050509392505050565b5f61364761364261363d84612465565b612993565b612465565b9050919050565b5f819050919050565b6136608361362d565b61367461366c8261364e565b8484546135dc565b825550505050565b5f90565b61368861367c565b613693818484613657565b505050565b5b818110156136b6576136ab5f82613680565b600181019050613699565b5050565b601f8211156136fb576136cc816135af565b6136d5846135c1565b810160208510156136e4578190505b6136f86136f0856135c1565b830182613698565b50505b505050565b5f82821c905092915050565b5f61371b5f1984600802613700565b1980831691505092915050565b5f613733838361370c565b9150826002028217905092915050565b61374c8261236a565b67ffffffffffffffff81111561376557613764612705565b5b61376f8254612a72565b61377a8282856136ba565b5f60209050601f8311600181146137ab575f8415613799578287015190505b6137a38582613728565b86555061380a565b601f1984166137b9866135af565b5f5b828110156137e0578489015182556001820191506020850194506020810190506137bb565b868310156137fd57848901516137f9601f89168261370c565b8355505b6001600288020188555050505b505050505050565b5f819050919050565b5f61383561383061382b84613812565b612993565b612465565b9050919050565b6138458161381b565b82525050565b5f60208201905061385e5f83018461383c565b92915050565b5f61386e82612465565b915061387983612465565b925082820190508082111561389157613890612b0a565b5b9291505056fe6080604052348015600e575f80fd5b506124488061001c5f395ff3fe608060405234801561000f575f80fd5b50600436106100cd575f3560e01c806378e6b2921161008a5780638da5cb5b116100645780638da5cb5b1461020e5780639fe140b11461022c578063b384abef1461024a578063f2fde38b14610266576100cd565b806378e6b292146101b75780638129fc1c146101d357806386e68b90146101dd576100cd565b80630a277d6d146100d15780630c4960dd14610101578063256a7f6b1461011d5780633358d9d91461014d578063425458251461017d578063715018a6146101ad575b5f80fd5b6100eb60048036038101906100e6919061142d565b610282565b6040516100f8919061150f565b60405180910390f35b61011b60048036038101906101169190611782565b61034c565b005b6101376004803603810190610132919061142d565b6104db565b6040516101449190611925565b60405180910390f35b6101676004803603810190610162919061142d565b610628565b6040516101749190611954565b60405180910390f35b610197600480360381019061019291906119c7565b610639565b6040516101a49190611954565b60405180910390f35b6101b561076c565b005b6101d160048036038101906101cc9190611a05565b61077f565b005b6101db61088a565b005b6101f760048036038101906101f2919061142d565b610a12565b604051610205929190611a8b565b60405180910390f35b610216610ad2565b6040516102239190611ac8565b60405180910390f35b610234610b07565b6040516102419190611af0565b60405180910390f35b610264600480360381019061025f9190611b09565b610b12565b005b610280600480360381019061027b9190611b47565b610e75565b005b60605f821015801561029757505f8054905082105b6102d6576040517f08c379a00000000000000000000000000000000000000000000000000000000081526004016102cd90611bbc565b60405180910390fd5b5f82815481106102e9576102e8611bda565b5b905f5260205f20906005020160020180548060200260200160405190810160405280929190818152602001828054801561034057602002820191905f5260205f20905b81548152602001906001019080831161032c575b50505050509050919050565b610354610ef9565b5f835103610397576040517f08c379a000000000000000000000000000000000000000000000000000000000815260040161038e90611c51565b60405180910390fd5b6002825110156103dc576040517f08c379a00000000000000000000000000000000000000000000000000000000081526004016103d390611cb9565b60405180910390fd5b5f60018160018154018082558091505003905f5260205f209050505f8060015f8054905061040a9190611d04565b8154811061041b5761041a611bda565b5b905f5260205f20906005020190505f835167ffffffffffffffff81111561044557610444611547565b5b6040519080825280602002602001820160405280156104735781602001602082028036833780820191505090505b50905084825f0190816104869190611f31565b508382600101908051906020019061049f9291906112cc565b50808260020190805190602001906104b8929190611323565b5082826003015f6101000a81548160ff0219169083151502179055505050505050565b60605f82101580156104f057505f8054905082105b61052f576040517f08c379a000000000000000000000000000000000000000000000000000000000815260040161052690611bbc565b60405180910390fd5b5f80838154811061054357610542611bda565b5b905f5260205f209060050201600101805480602002602001604051908101604052809291908181526020015f905b82821015610619578382905f5260205f2001805461058e90611d64565b80601f01602080910402602001604051908101604052809291908181526020018280546105ba90611d64565b80156106055780601f106105dc57610100808354040283529160200191610605565b820191905f5260205f20905b8154815290600101906020018083116105e857829003601f168201915b505050505081526020019060010190610571565b50505050905080915050919050565b5f6106333383610639565b50919050565b5f8073ffffffffffffffffffffffffffffffffffffffff168373ffffffffffffffffffffffffffffffffffffffff16036106a8576040517f08c379a000000000000000000000000000000000000000000000000000000000815260040161069f9061204a565b60405180910390fd5b5f82101580156106bb57505f8054905082105b6106fa576040517f08c379a00000000000000000000000000000000000000000000000000000000081526004016106f1906120b2565b60405180910390fd5b5f828154811061070d5761070c611bda565b5b905f5260205f2090600502016004015f8473ffffffffffffffffffffffffffffffffffffffff1673ffffffffffffffffffffffffffffffffffffffff1681526020019081526020015f205f9054906101000a900460ff16905092915050565b610774610ef9565b61077d5f610f80565b565b610787610ef9565b5f821015801561079a57505f8054905082105b6107d9576040517f08c379a00000000000000000000000000000000000000000000000000000000081526004016107d090611bbc565b60405180910390fd5b8015155f83815481106107ef576107ee611bda565b5b905f5260205f2090600502016003015f9054906101000a900460ff1615150361084d576040517f08c379a000000000000000000000000000000000000000000000000000000000815260040161084490612140565b60405180910390fd5b805f838154811061086157610860611bda565b5b905f5260205f2090600502016003015f6101000a81548160ff0219169083151502179055505050565b5f610893611051565b90505f815f0160089054906101000a900460ff161590505f825f015f9054906101000a900467ffffffffffffffff1690505f808267ffffffffffffffff161480156108db5750825b90505f60018367ffffffffffffffff1614801561090e57505f3073ffffffffffffffffffffffffffffffffffffffff163b145b90508115801561091c575080155b15610953576040517ff92ee8a900000000000000000000000000000000000000000000000000000000815260040160405180910390fd5b6001855f015f6101000a81548167ffffffffffffffff021916908367ffffffffffffffff16021790555083156109a0576001855f0160086101000a81548160ff0219169083151502179055505b6109a933611064565b6109b1611078565b8315610a0b575f855f0160086101000a81548160ff0219169083151502179055507fc7f505b2f371ae2175ee4913f4499e1f2633a7b5936321eed1cdaeb6115181d26001604051610a0291906121aa565b60405180910390a15b5050505050565b5f8181548110610a20575f80fd5b905f5260205f2090600502015f91509050805f018054610a3f90611d64565b80601f0160208091040260200160405190810160405280929190818152602001828054610a6b90611d64565b8015610ab65780601f10610a8d57610100808354040283529160200191610ab6565b820191905f5260205f20905b815481529060010190602001808311610a9957829003601f168201915b505050505090806003015f9054906101000a900460ff16905082565b5f80610adc611082565b9050805f015f9054906101000a900473ffffffffffffffffffffffffffffffffffffffff1691505090565b5f8080549050905090565b610b1a6110a9565b5f73ffffffffffffffffffffffffffffffffffffffff163373ffffffffffffffffffffffffffffffffffffffff1603610b88576040517f08c379a0000000000000000000000000000000000000000000000000000000008152600401610b7f9061220d565b60405180910390fd5b5f8210158015610b9b57505f8054905082105b610bda576040517f08c379a0000000000000000000000000000000000000000000000000000000008152600401610bd190612275565b60405180910390fd5b5f8281548110610bed57610bec611bda565b5b905f5260205f2090600502016003015f9054906101000a900460ff16610c48576040517f08c379a0000000000000000000000000000000000000000000000000000000008152600401610c3f906122dd565b60405180910390fd5b5f8281548110610c5b57610c5a611bda565b5b905f5260205f209060050201600101805490508110610caf576040517f08c379a0000000000000000000000000000000000000000000000000000000008152600401610ca690612345565b60405180910390fd5b5f15155f8381548110610cc557610cc4611bda565b5b905f5260205f2090600502016004015f3373ffffffffffffffffffffffffffffffffffffffff1673ffffffffffffffffffffffffffffffffffffffff1681526020019081526020015f205f9054906101000a900460ff16151514610d5e576040517f08c379a0000000000000000000000000000000000000000000000000000000008152600401610d55906123ad565b60405180910390fd5b60015f8381548110610d7357610d72611bda565b5b905f5260205f2090600502016004015f3373ffffffffffffffffffffffffffffffffffffffff1673ffffffffffffffffffffffffffffffffffffffff1681526020019081526020015f205f6101000a81548160ff0219169083151502179055505f8281548110610de657610de5611bda565b5b905f5260205f2090600502016002018181548110610e0757610e06611bda565b5b905f5260205f20015f815480929190610e1f906123cb565b919050555080823373ffffffffffffffffffffffffffffffffffffffff167fea66f58e474bc09f580000e81f31b334d171db387d0c6098ba47bd897741679b60405160405180910390a4610e71611128565b5050565b610e7d610ef9565b5f73ffffffffffffffffffffffffffffffffffffffff168173ffffffffffffffffffffffffffffffffffffffff1603610eed575f6040517f1e4fbdf7000000000000000000000000000000000000000000000000000000008152600401610ee49190611ac8565b60405180910390fd5b610ef681610f80565b50565b610f01611167565b73ffffffffffffffffffffffffffffffffffffffff16610f1f610ad2565b73ffffffffffffffffffffffffffffffffffffffff1614610f7e57610f42611167565b6040517f118cdaa7000000000000000000000000000000000000000000000000000000008152600401610f759190611ac8565b60405180910390fd5b565b5f610f89611082565b90505f815f015f9054906101000a900473ffffffffffffffffffffffffffffffffffffffff16905082825f015f6101000a81548173ffffffffffffffffffffffffffffffffffffffff021916908373ffffffffffffffffffffffffffffffffffffffff1602179055508273ffffffffffffffffffffffffffffffffffffffff168173ffffffffffffffffffffffffffffffffffffffff167f8be0079c531659141344cd1fd0a4f28419497f9722a3daafe3b4186f6b6457e060405160405180910390a3505050565b5f8061105b61116e565b90508091505090565b61106c611197565b611075816111d7565b50565b611080611197565b565b5f7f9016d09d72d40fdae2fd8ceac6b6234c7706214fd39c1cd1e609a0528c199300905090565b6110b161125b565b156110e8576040517f3ee5aeb500000000000000000000000000000000000000000000000000000000815260040160405180910390fd5b61112660016111187f9b779b17422d0df92223018b32b4d1fa46e071723d6817e2486d003becc55f005f1b611294565b61129d90919063ffffffff16565b565b6111655f6111577f9b779b17422d0df92223018b32b4d1fa46e071723d6817e2486d003becc55f005f1b611294565b61129d90919063ffffffff16565b565b5f33905090565b5f7ff0c57e16840df040f15088dc2f81fe391c3923bec73e23a9662efc9c229c6a005f1b905090565b61119f6112a4565b6111d5576040517fd7e6bcf800000000000000000000000000000000000000000000000000000000815260040160405180910390fd5b565b6111df611197565b5f73ffffffffffffffffffffffffffffffffffffffff168173ffffffffffffffffffffffffffffffffffffffff160361124f575f6040517f1e4fbdf70000000000000000000000000000000000000000000000000000000081526004016112469190611ac8565b60405180910390fd5b61125881610f80565b50565b5f61128f61128a7f9b779b17422d0df92223018b32b4d1fa46e071723d6817e2486d003becc55f005f1b611294565b6112c2565b905090565b5f819050919050565b80825d5050565b5f6112ad611051565b5f0160089054906101000a900460ff16905090565b5f815c9050919050565b828054828255905f5260205f20908101928215611312579160200282015b828111156113115782518290816113019190611f31565b50916020019190600101906112ea565b5b50905061131f919061136e565b5090565b828054828255905f5260205f2090810192821561135d579160200282015b8281111561135c578251825591602001919060010190611341565b5b50905061136a9190611391565b5090565b5b8082111561138d575f818161138491906113ac565b5060010161136f565b5090565b5b808211156113a8575f815f905550600101611392565b5090565b5080546113b890611d64565b5f825580601f106113c957506113e6565b601f0160209004905f5260205f20908101906113e59190611391565b5b50565b5f604051905090565b5f80fd5b5f80fd5b5f819050919050565b61140c816113fa565b8114611416575f80fd5b50565b5f8135905061142781611403565b92915050565b5f60208284031215611442576114416113f2565b5b5f61144f84828501611419565b91505092915050565b5f81519050919050565b5f82825260208201905092915050565b5f819050602082019050919050565b61148a816113fa565b82525050565b5f61149b8383611481565b60208301905092915050565b5f602082019050919050565b5f6114bd82611458565b6114c78185611462565b93506114d283611472565b805f5b838110156115025781516114e98882611490565b97506114f4836114a7565b9250506001810190506114d5565b5085935050505092915050565b5f6020820190508181035f83015261152781846114b3565b905092915050565b5f80fd5b5f80fd5b5f601f19601f8301169050919050565b7f4e487b71000000000000000000000000000000000000000000000000000000005f52604160045260245ffd5b61157d82611537565b810181811067ffffffffffffffff8211171561159c5761159b611547565b5b80604052505050565b5f6115ae6113e9565b90506115ba8282611574565b919050565b5f67ffffffffffffffff8211156115d9576115d8611547565b5b6115e282611537565b9050602081019050919050565b828183375f83830152505050565b5f61160f61160a846115bf565b6115a5565b90508281526020810184848401111561162b5761162a611533565b5b6116368482856115ef565b509392505050565b5f82601f8301126116525761165161152f565b5b81356116628482602086016115fd565b91505092915050565b5f67ffffffffffffffff82111561168557611684611547565b5b602082029050602081019050919050565b5f80fd5b5f6116ac6116a78461166b565b6115a5565b905080838252602082019050602084028301858111156116cf576116ce611696565b5b835b8181101561171657803567ffffffffffffffff8111156116f4576116f361152f565b5b808601611701898261163e565b855260208501945050506020810190506116d1565b5050509392505050565b5f82601f8301126117345761173361152f565b5b813561174484826020860161169a565b91505092915050565b5f8115159050919050565b6117618161174d565b811461176b575f80fd5b50565b5f8135905061177c81611758565b92915050565b5f805f60608486031215611799576117986113f2565b5b5f84013567ffffffffffffffff8111156117b6576117b56113f6565b5b6117c28682870161163e565b935050602084013567ffffffffffffffff8111156117e3576117e26113f6565b5b6117ef86828701611720565b92505060406118008682870161176e565b9150509250925092565b5f81519050919050565b5f82825260208201905092915050565b5f819050602082019050919050565b5f81519050919050565b5f82825260208201905092915050565b8281835e5f83830152505050565b5f61186582611833565b61186f818561183d565b935061187f81856020860161184d565b61188881611537565b840191505092915050565b5f61189e838361185b565b905092915050565b5f602082019050919050565b5f6118bc8261180a565b6118c68185611814565b9350836020820285016118d885611824565b805f5b8581101561191357848403895281516118f48582611893565b94506118ff836118a6565b925060208a019950506001810190506118db565b50829750879550505050505092915050565b5f6020820190508181035f83015261193d81846118b2565b905092915050565b61194e8161174d565b82525050565b5f6020820190506119675f830184611945565b92915050565b5f73ffffffffffffffffffffffffffffffffffffffff82169050919050565b5f6119968261196d565b9050919050565b6119a68161198c565b81146119b0575f80fd5b50565b5f813590506119c18161199d565b92915050565b5f80604083850312156119dd576119dc6113f2565b5b5f6119ea858286016119b3565b92505060206119fb85828601611419565b9150509250929050565b5f8060408385031215611a1b57611a1a6113f2565b5b5f611a2885828601611419565b9250506020611a398582860161176e565b9150509250929050565b5f82825260208201905092915050565b5f611a5d82611833565b611a678185611a43565b9350611a7781856020860161184d565b611a8081611537565b840191505092915050565b5f6040820190508181035f830152611aa38185611a53565b9050611ab26020830184611945565b9392505050565b611ac28161198c565b82525050565b5f602082019050611adb5f830184611ab9565b92915050565b611aea816113fa565b82525050565b5f602082019050611b035f830184611ae1565b92915050565b5f8060408385031215611b1f57611b1e6113f2565b5b5f611b2c85828601611419565b9250506020611b3d85828601611419565b9150509250929050565b5f60208284031215611b5c57611b5b6113f2565b5b5f611b69848285016119b3565b91505092915050565b7f696e76616c696420696e646578000000000000000000000000000000000000005f82015250565b5f611ba6600d83611a43565b9150611bb182611b72565b602082019050919050565b5f6020820190508181035f830152611bd381611b9a565b9050919050565b7f4e487b71000000000000000000000000000000000000000000000000000000005f52603260045260245ffd5b7f656d707479207175657374696f6e206973206e6f7420616c6c6f7765640000005f82015250565b5f611c3b601d83611a43565b9150611c4682611c07565b602082019050919050565b5f6020820190508181035f830152611c6881611c2f565b9050919050565b7f4174206c656173742032206f7074696f6e7320617265207265717569726564005f82015250565b5f611ca3601f83611a43565b9150611cae82611c6f565b602082019050919050565b5f6020820190508181035f830152611cd081611c97565b9050919050565b7f4e487b71000000000000000000000000000000000000000000000000000000005f52601160045260245ffd5b5f611d0e826113fa565b9150611d19836113fa565b9250828203905081811115611d3157611d30611cd7565b5b92915050565b7f4e487b71000000000000000000000000000000000000000000000000000000005f52602260045260245ffd5b5f6002820490506001821680611d7b57607f821691505b602082108103611d8e57611d8d611d37565b5b50919050565b5f819050815f5260205f209050919050565b5f6020601f8301049050919050565b5f82821b905092915050565b5f60088302611df07fffffffffffffffffffffffffffffffffffffffffffffffffffffffffffffffff82611db5565b611dfa8683611db5565b95508019841693508086168417925050509392505050565b5f819050919050565b5f611e35611e30611e2b846113fa565b611e12565b6113fa565b9050919050565b5f819050919050565b611e4e83611e1b565b611e62611e5a82611e3c565b848454611dc1565b825550505050565b5f90565b611e76611e6a565b611e81818484611e45565b505050565b5b81811015611ea457611e995f82611e6e565b600181019050611e87565b5050565b601f821115611ee957611eba81611d94565b611ec384611da6565b81016020851015611ed2578190505b611ee6611ede85611da6565b830182611e86565b50505b505050565b5f82821c905092915050565b5f611f095f1984600802611eee565b1980831691505092915050565b5f611f218383611efa565b9150826002028217905092915050565b611f3a82611833565b67ffffffffffffffff811115611f5357611f52611547565b5b611f5d8254611d64565b611f68828285611ea8565b5f60209050601f831160018114611f99575f8415611f87578287015190505b611f918582611f16565b865550611ff8565b601f198416611fa786611d94565b5f5b82811015611fce57848901518255600182019150602085019450602081019050611fa9565b86831015611feb5784890151611fe7601f891682611efa565b8355505b6001600288020188555050505b505050505050565b7f696e76616c6964206164647265737300000000000000000000000000000000005f82015250565b5f612034600f83611a43565b915061203f82612000565b602082019050919050565b5f6020820190508181035f83015261206181612028565b9050919050565b7f696e76616c6964207375727665792049440000000000000000000000000000005f82015250565b5f61209c601183611a43565b91506120a782612068565b602082019050919050565b5f6020820190508181035f8301526120c981612090565b9050919050565b7f73757276657920697320616c726561647920696e2074686520646573697265645f8201527f2061637469766520737461746500000000000000000000000000000000000000602082015250565b5f61212a602d83611a43565b9150612135826120d0565b604082019050919050565b5f6020820190508181035f8301526121578161211e565b9050919050565b5f819050919050565b5f67ffffffffffffffff82169050919050565b5f61219461218f61218a8461215e565b611e12565b612167565b9050919050565b6121a48161217a565b82525050565b5f6020820190506121bd5f83018461219b565b92915050565b7f696e76616c6964207265717565737400000000000000000000000000000000005f82015250565b5f6121f7600f83611a43565b9150612202826121c3565b602082019050919050565b5f6020820190508181035f830152612224816121eb565b9050919050565b7f696e76616c6964206964000000000000000000000000000000000000000000005f82015250565b5f61225f600a83611a43565b915061226a8261222b565b602082019050919050565b5f6020820190508181035f83015261228c81612253565b9050919050565b7f537572766579206973206e6f74206163746976650000000000000000000000005f82015250565b5f6122c7601483611a43565b91506122d282612293565b602082019050919050565b5f6020820190508181035f8301526122f4816122bb565b9050919050565b7f496e76616c6964206f7074696f6e20696e6465780000000000000000000000005f82015250565b5f61232f601483611a43565b915061233a826122fb565b602082019050919050565b5f6020820190508181035f83015261235c81612323565b9050919050565b7f557365722068617320616c726561647920766f746564000000000000000000005f82015250565b5f612397601683611a43565b91506123a282612363565b602082019050919050565b5f6020820190508181035f8301526123c48161238b565b9050919050565b5f6123d5826113fa565b91507fffffffffffffffffffffffffffffffffffffffffffffffffffffffffffffffff820361240757612406611cd7565b5b60018201905091905056fea26469706673582212205d0875a96aff8970b82cfce6d70ffc80834cb48d1e61e004997fb9b0d74d728764736f6c634300081a0033a264697066735822122083df0e17ef5e7a4dbede729a2f1a1da15c3c1eb37262aefe85292f1807d4c23164736f6c634300081a0033",
			"opcodes": "PUSH1 0x80 PUSH1 0x40 MSTORE PUSH0 PUSH1 0x1 SSTORE PUSH1 0x32 PUSH1 0x2 SSTORE CALLVALUE DUP1 ISZERO PUSH1 0x17 JUMPI PUSH0 DUP1 REVERT JUMPDEST POP PUSH2 0x5D31 DUP1 PUSH2 0x25 PUSH0 CODECOPY PUSH0 RETURN INVALID PUSH1 0x80 PUSH1 0x40 MSTORE CALLVALUE DUP1 ISZERO PUSH2 0xF JUMPI PUSH0 DUP1 REVERT JUMPDEST POP PUSH1 0x4 CALLDATASIZE LT PUSH2 0x156 JUMPI PUSH0 CALLDATALOAD PUSH1 0xE0 SHR DUP1 PUSH4 0x7D973710 GT PUSH2 0xC1 JUMPI DUP1 PUSH4 0x95D89B41 GT PUSH2 0x7A JUMPI DUP1 PUSH4 0x95D89B41 EQ PUSH2 0x364 JUMPI DUP1 PUSH4 0x9F85293B EQ PUSH2 0x382 JUMPI DUP1 PUSH4 0xA8D3EFE3 EQ PUSH2 0x39E JUMPI DUP1 PUSH4 0xA9059CBB EQ PUSH2 0x3CE JUMPI DUP1 PUSH4 0xDD62ED3E EQ PUSH2 0x3FE JUMPI DUP1 PUSH4 0xF2FDE38B EQ PUSH2 0x42E JUMPI PUSH2 0x156 JUMP JUMPDEST DUP1 PUSH4 0x7D973710 EQ PUSH2 0x2CC JUMPI DUP1 PUSH4 0x8129FC1C EQ PUSH2 0x2E8 JUMPI DUP1 PUSH4 0x8A6655D6 EQ PUSH2 0x2F2 JUMPI DUP1 PUSH4 0x8DA5CB5B EQ PUSH2 0x30E JUMPI DUP1 PUSH4 0x8F925414 EQ PUSH2 0x32C JUMPI DUP1 PUSH4 0x90CD2321 EQ PUSH2 0x348 JUMPI PUSH2 0x156 JUMP JUMPDEST DUP1 PUSH4 0x3924CDE8 GT PUSH2 0x113 JUMPI DUP1 PUSH4 0x3924CDE8 EQ PUSH2 0x232 JUMPI DUP1 PUSH4 0x42966C68 EQ PUSH2 0x250 JUMPI DUP1 PUSH4 0x4735C94C EQ PUSH2 0x26C JUMPI DUP1 PUSH4 0x70A08231 EQ PUSH2 0x276 JUMPI DUP1 PUSH4 0x715018A6 EQ PUSH2 0x2A6 JUMPI DUP1 PUSH4 0x79CC6790 EQ PUSH2 0x2B0 JUMPI PUSH2 0x156 JUMP JUMPDEST DUP1 PUSH4 0x6FDDE03 EQ PUSH2 0x15A JUMPI DUP1 PUSH4 0x95EA7B3 EQ PUSH2 0x178 JUMPI DUP1 PUSH4 0x18160DDD EQ PUSH2 0x1A8 JUMPI DUP1 PUSH4 0x23B872DD EQ PUSH2 0x1C6 JUMPI DUP1 PUSH4 0x313CE567 EQ PUSH2 0x1F6 JUMPI DUP1 PUSH4 0x355274EA EQ PUSH2 0x214 JUMPI JUMPDEST PUSH0 DUP1 REVERT JUMPDEST PUSH2 0x162 PUSH2 0x44A JUMP JUMPDEST PUSH1 0x40 MLOAD PUSH2 0x16F SWAP2 SWAP1 PUSH2 0x23DA JUMP JUMPDEST PUSH1 0x40 MLOAD DUP1 SWAP2 SUB SWAP1 RETURN JUMPDEST PUSH2 0x192 PUSH1 0x4 DUP1 CALLDATASIZE SUB DUP2 ADD SWAP1 PUSH2 0x18D SWAP2 SWAP1 PUSH2 0x2498 JUMP JUMPDEST PUSH2 0x4E8 JUMP JUMPDEST PUSH1 0x40 MLOAD PUSH2 0x19F SWAP2 SWAP1 PUSH2 0x24F0 JUMP JUMPDEST PUSH1 0x40 MLOAD DUP1 SWAP2 SUB SWAP1 RETURN JUMPDEST PUSH2 0x1B0 PUSH2 0x50A JUMP JUMPDEST PUSH1 0x40 MLOAD PUSH2 0x1BD SWAP2 SWAP1 PUSH2 0x2518 JUMP JUMPDEST PUSH1 0x40 MLOAD DUP1 SWAP2 SUB SWAP1 RETURN JUMPDEST PUSH2 0x1E0 PUSH1 0x4 DUP1 CALLDATASIZE SUB DUP2 ADD SWAP1 PUSH2 0x1DB SWAP2 SWAP1 PUSH2 0x2531 JUMP JUMPDEST PUSH2 0x521 JUMP JUMPDEST PUSH1 0x40 MLOAD PUSH2 0x1ED SWAP2 SWAP1 PUSH2 0x24F0 JUMP JUMPDEST PUSH1 0x40 MLOAD DUP1 SWAP2 SUB SWAP1 RETURN JUMPDEST PUSH2 0x1FE PUSH2 0x54F JUMP JUMPDEST PUSH1 0x40 MLOAD PUSH2 0x20B SWAP2 SWAP1 PUSH2 0x259C JUMP JUMPDEST PUSH1 0x40 MLOAD DUP1 SWAP2 SUB SWAP1 RETURN JUMPDEST PUSH2 0x21C PUSH2 0x557 JUMP JUMPDEST PUSH1 0x40 MLOAD PUSH2 0x229 SWAP2 SWAP1 PUSH2 0x2518 JUMP JUMPDEST PUSH1 0x40 MLOAD DUP1 SWAP2 SUB SWAP1 RETURN JUMPDEST PUSH2 0x23A PUSH2 0x56D JUMP JUMPDEST PUSH1 0x40 MLOAD PUSH2 0x247 SWAP2 SWAP1 PUSH2 0x2518 JUMP JUMPDEST PUSH1 0x40 MLOAD DUP1 SWAP2 SUB SWAP1 RETURN JUMPDEST PUSH2 0x26A PUSH1 0x4 DUP1 CALLDATASIZE SUB DUP2 ADD SWAP1 PUSH2 0x265 SWAP2 SWAP1 PUSH2 0x25B5 JUMP JUMPDEST PUSH2 0x576 JUMP JUMPDEST STOP JUMPDEST PUSH2 0x274 PUSH2 0x58A JUMP JUMPDEST STOP JUMPDEST PUSH2 0x290 PUSH1 0x4 DUP1 CALLDATASIZE SUB DUP2 ADD SWAP1 PUSH2 0x28B SWAP2 SWAP1 PUSH2 0x25E0 JUMP JUMPDEST PUSH2 0x6C4 JUMP JUMPDEST PUSH1 0x40 MLOAD PUSH2 0x29D SWAP2 SWAP1 PUSH2 0x2518 JUMP JUMPDEST PUSH1 0x40 MLOAD DUP1 SWAP2 SUB SWAP1 RETURN JUMPDEST PUSH2 0x2AE PUSH2 0x717 JUMP JUMPDEST STOP JUMPDEST PUSH2 0x2CA PUSH1 0x4 DUP1 CALLDATASIZE SUB DUP2 ADD SWAP1 PUSH2 0x2C5 SWAP2 SWAP1 PUSH2 0x2498 JUMP JUMPDEST PUSH2 0x72A JUMP JUMPDEST STOP JUMPDEST PUSH2 0x2E6 PUSH1 0x4 DUP1 CALLDATASIZE SUB DUP2 ADD SWAP1 PUSH2 0x2E1 SWAP2 SWAP1 PUSH2 0x2635 JUMP JUMPDEST PUSH2 0x74A JUMP JUMPDEST STOP JUMPDEST PUSH2 0x2F0 PUSH2 0xA53 JUMP JUMPDEST STOP JUMPDEST PUSH2 0x30C PUSH1 0x4 DUP1 CALLDATASIZE SUB DUP2 ADD SWAP1 PUSH2 0x307 SWAP2 SWAP1 PUSH2 0x2685 JUMP JUMPDEST PUSH2 0xC72 JUMP JUMPDEST STOP JUMPDEST PUSH2 0x316 PUSH2 0x102B JUMP JUMPDEST PUSH1 0x40 MLOAD PUSH2 0x323 SWAP2 SWAP1 PUSH2 0x26E4 JUMP JUMPDEST PUSH1 0x40 MLOAD DUP1 SWAP2 SUB SWAP1 RETURN JUMPDEST PUSH2 0x346 PUSH1 0x4 DUP1 CALLDATASIZE SUB DUP2 ADD SWAP1 PUSH2 0x341 SWAP2 SWAP1 PUSH2 0x290B JUMP JUMPDEST PUSH2 0x1060 JUMP JUMPDEST STOP JUMPDEST PUSH2 0x362 PUSH1 0x4 DUP1 CALLDATASIZE SUB DUP2 ADD SWAP1 PUSH2 0x35D SWAP2 SWAP1 PUSH2 0x25B5 JUMP JUMPDEST PUSH2 0x130D JUMP JUMPDEST STOP JUMPDEST PUSH2 0x36C PUSH2 0x1363 JUMP JUMPDEST PUSH1 0x40 MLOAD PUSH2 0x379 SWAP2 SWAP1 PUSH2 0x23DA JUMP JUMPDEST PUSH1 0x40 MLOAD DUP1 SWAP2 SUB SWAP1 RETURN JUMPDEST PUSH2 0x39C PUSH1 0x4 DUP1 CALLDATASIZE SUB DUP2 ADD SWAP1 PUSH2 0x397 SWAP2 SWAP1 PUSH2 0x25B5 JUMP JUMPDEST PUSH2 0x1401 JUMP JUMPDEST STOP JUMPDEST PUSH2 0x3B8 PUSH1 0x4 DUP1 CALLDATASIZE SUB DUP2 ADD SWAP1 PUSH2 0x3B3 SWAP2 SWAP1 PUSH2 0x25B5 JUMP JUMPDEST PUSH2 0x14BC JUMP JUMPDEST PUSH1 0x40 MLOAD PUSH2 0x3C5 SWAP2 SWAP1 PUSH2 0x29EE JUMP JUMPDEST PUSH1 0x40 MLOAD DUP1 SWAP2 SUB SWAP1 RETURN JUMPDEST PUSH2 0x3E8 PUSH1 0x4 DUP1 CALLDATASIZE SUB DUP2 ADD SWAP1 PUSH2 0x3E3 SWAP2 SWAP1 PUSH2 0x2498 JUMP JUMPDEST PUSH2 0x15E1 JUMP JUMPDEST PUSH1 0x40 MLOAD PUSH2 0x3F5 SWAP2 SWAP1 PUSH2 0x24F0 JUMP JUMPDEST PUSH1 0x40 MLOAD DUP1 SWAP2 SUB SWAP1 RETURN JUMPDEST PUSH2 0x418 PUSH1 0x4 DUP1 CALLDATASIZE SUB DUP2 ADD SWAP1 PUSH2 0x413 SWAP2 SWAP1 PUSH2 0x2A07 JUMP JUMPDEST PUSH2 0x1603 JUMP JUMPDEST PUSH1 0x40 MLOAD PUSH2 0x425 SWAP2 SWAP1 PUSH2 0x2518 JUMP JUMPDEST PUSH1 0x40 MLOAD DUP1 SWAP2 SUB SWAP1 RETURN JUMPDEST PUSH2 0x448 PUSH1 0x4 DUP1 CALLDATASIZE SUB DUP2 ADD SWAP1 PUSH2 0x443 SWAP2 SWAP1 PUSH2 0x25E0 JUMP JUMPDEST PUSH2 0x1693 JUMP JUMPDEST STOP JUMPDEST PUSH1 0x60 PUSH0 PUSH2 0x455 PUSH2 0x1717 JUMP JUMPDEST SWAP1 POP DUP1 PUSH1 0x3 ADD DUP1 SLOAD PUSH2 0x466 SWAP1 PUSH2 0x2A72 JUMP JUMPDEST DUP1 PUSH1 0x1F ADD PUSH1 0x20 DUP1 SWAP2 DIV MUL PUSH1 0x20 ADD PUSH1 0x40 MLOAD SWAP1 DUP2 ADD PUSH1 0x40 MSTORE DUP1 SWAP3 SWAP2 SWAP1 DUP2 DUP2 MSTORE PUSH1 0x20 ADD DUP3 DUP1 SLOAD PUSH2 0x492 SWAP1 PUSH2 0x2A72 JUMP JUMPDEST DUP1 ISZERO PUSH2 0x4DD JUMPI DUP1 PUSH1 0x1F LT PUSH2 0x4B4 JUMPI PUSH2 0x100 DUP1 DUP4 SLOAD DIV MUL DUP4 MSTORE SWAP2 PUSH1 0x20 ADD SWAP2 PUSH2 0x4DD JUMP JUMPDEST DUP3 ADD SWAP2 SWAP1 PUSH0 MSTORE PUSH1 0x20 PUSH0 KECCAK256 SWAP1 JUMPDEST DUP2 SLOAD DUP2 MSTORE SWAP1 PUSH1 0x1 ADD SWAP1 PUSH1 0x20 ADD DUP1 DUP4 GT PUSH2 0x4C0 JUMPI DUP3 SWAP1 SUB PUSH1 0x1F AND DUP3 ADD SWAP2 JUMPDEST POP POP POP POP POP SWAP2 POP POP SWAP1 JUMP JUMPDEST PUSH0 DUP1 PUSH2 0x4F2 PUSH2 0x173E JUMP JUMPDEST SWAP1 POP PUSH2 0x4FF DUP2 DUP6 DUP6 PUSH2 0x1745 JUMP JUMPDEST PUSH1 0x1 SWAP2 POP POP SWAP3 SWAP2 POP POP JUMP JUMPDEST PUSH0 DUP1 PUSH2 0x514 PUSH2 0x1717 JUMP JUMPDEST SWAP1 POP DUP1 PUSH1 0x2 ADD SLOAD SWAP2 POP POP SWAP1 JUMP JUMPDEST PUSH0 DUP1 PUSH2 0x52B PUSH2 0x173E JUMP JUMPDEST SWAP1 POP PUSH2 0x538 DUP6 DUP3 DUP6 PUSH2 0x1757 JUMP JUMPDEST PUSH2 0x543 DUP6 DUP6 DUP6 PUSH2 0x17EA JUMP JUMPDEST PUSH1 0x1 SWAP2 POP POP SWAP4 SWAP3 POP POP POP JUMP JUMPDEST PUSH0 PUSH1 0x12 SWAP1 POP SWAP1 JUMP JUMPDEST PUSH0 DUP1 PUSH2 0x561 PUSH2 0x18DA JUMP JUMPDEST SWAP1 POP DUP1 PUSH0 ADD SLOAD SWAP2 POP POP SWAP1 JUMP JUMPDEST PUSH0 PUSH1 0x1 SLOAD SWAP1 POP SWAP1 JUMP JUMPDEST PUSH2 0x587 PUSH2 0x581 PUSH2 0x173E JUMP JUMPDEST DUP3 PUSH2 0x1901 JUMP JUMPDEST POP JUMP JUMPDEST PUSH2 0x592 PUSH2 0x1980 JUMP JUMPDEST PUSH0 PUSH20 0xFFFFFFFFFFFFFFFFFFFFFFFFFFFFFFFFFFFFFFFF AND PUSH0 DUP1 PUSH1 0x1 SLOAD DUP2 MSTORE PUSH1 0x20 ADD SWAP1 DUP2 MSTORE PUSH1 0x20 ADD PUSH0 KECCAK256 PUSH0 SWAP1 SLOAD SWAP1 PUSH2 0x100 EXP SWAP1 DIV PUSH20 0xFFFFFFFFFFFFFFFFFFFFFFFFFFFFFFFFFFFFFFFF AND PUSH20 0xFFFFFFFFFFFFFFFFFFFFFFFFFFFFFFFFFFFFFFFF AND EQ PUSH2 0x631 JUMPI PUSH1 0x40 MLOAD PUSH32 0x8C379A000000000000000000000000000000000000000000000000000000000 DUP2 MSTORE PUSH1 0x4 ADD PUSH2 0x628 SWAP1 PUSH2 0x2AEC JUMP JUMPDEST PUSH1 0x40 MLOAD DUP1 SWAP2 SUB SWAP1 REVERT JUMPDEST PUSH0 PUSH1 0x40 MLOAD PUSH2 0x63E SWAP1 PUSH2 0x235D JUMP JUMPDEST PUSH1 0x40 MLOAD DUP1 SWAP2 SUB SWAP1 PUSH0 CREATE DUP1 ISZERO DUP1 ISZERO PUSH2 0x657 JUMPI RETURNDATASIZE PUSH0 DUP1 RETURNDATACOPY RETURNDATASIZE PUSH0 REVERT JUMPDEST POP SWAP1 POP DUP1 PUSH0 DUP1 PUSH1 0x1 SLOAD DUP2 MSTORE PUSH1 0x20 ADD SWAP1 DUP2 MSTORE PUSH1 0x20 ADD PUSH0 KECCAK256 PUSH0 PUSH2 0x100 EXP DUP2 SLOAD DUP2 PUSH20 0xFFFFFFFFFFFFFFFFFFFFFFFFFFFFFFFFFFFFFFFF MUL NOT AND SWAP1 DUP4 PUSH20 0xFFFFFFFFFFFFFFFFFFFFFFFFFFFFFFFFFFFFFFFF AND MUL OR SWAP1 SSTORE POP PUSH1 0x1 PUSH0 DUP2 SLOAD DUP1 SWAP3 SWAP2 SWAP1 PUSH2 0x6BC SWAP1 PUSH2 0x2B37 JUMP JUMPDEST SWAP2 SWAP1 POP SSTORE POP POP JUMP JUMPDEST PUSH0 DUP1 PUSH2 0x6CE PUSH2 0x1717 JUMP JUMPDEST SWAP1 POP DUP1 PUSH0 ADD PUSH0 DUP5 PUSH20 0xFFFFFFFFFFFFFFFFFFFFFFFFFFFFFFFFFFFFFFFF AND PUSH20 0xFFFFFFFFFFFFFFFFFFFFFFFFFFFFFFFFFFFFFFFF AND DUP2 MSTORE PUSH1 0x20 ADD SWAP1 DUP2 MSTORE PUSH1 0x20 ADD PUSH0 KECCAK256 SLOAD SWAP2 POP POP SWAP2 SWAP1 POP JUMP JUMPDEST PUSH2 0x71F PUSH2 0x1980 JUMP JUMPDEST PUSH2 0x728 PUSH0 PUSH2 0x1A07 JUMP JUMPDEST JUMP JUMPDEST PUSH2 0x73C DUP3 PUSH2 0x736 PUSH2 0x173E JUMP JUMPDEST DUP4 PUSH2 0x1757 JUMP JUMPDEST PUSH2 0x746 DUP3 DUP3 PUSH2 0x1901 JUMP JUMPDEST POP POP JUMP JUMPDEST PUSH2 0x752 PUSH2 0x1980 JUMP JUMPDEST PUSH0 DUP4 LT ISZERO DUP1 ISZERO PUSH2 0x762 JUMPI POP PUSH0 DUP3 LT ISZERO JUMPDEST PUSH2 0x7A1 JUMPI PUSH1 0x40 MLOAD PUSH32 0x8C379A000000000000000000000000000000000000000000000000000000000 DUP2 MSTORE PUSH1 0x4 ADD PUSH2 0x798 SWAP1 PUSH2 0x2BC8 JUMP JUMPDEST PUSH1 0x40 MLOAD DUP1 SWAP2 SUB SWAP1 REVERT JUMPDEST PUSH0 PUSH20 0xFFFFFFFFFFFFFFFFFFFFFFFFFFFFFFFFFFFFFFFF AND PUSH0 DUP1 DUP6 DUP2 MSTORE PUSH1 0x20 ADD SWAP1 DUP2 MSTORE PUSH1 0x20 ADD PUSH0 KECCAK256 PUSH0 SWAP1 SLOAD SWAP1 PUSH2 0x100 EXP SWAP1 DIV PUSH20 0xFFFFFFFFFFFFFFFFFFFFFFFFFFFFFFFFFFFFFFFF AND PUSH20 0xFFFFFFFFFFFFFFFFFFFFFFFFFFFFFFFFFFFFFFFF AND SUB PUSH2 0x83E JUMPI PUSH1 0x40 MLOAD PUSH32 0x8C379A000000000000000000000000000000000000000000000000000000000 DUP2 MSTORE PUSH1 0x4 ADD PUSH2 0x835 SWAP1 PUSH2 0x2C30 JUMP JUMPDEST PUSH1 0x40 MLOAD DUP1 SWAP2 SUB SWAP1 REVERT JUMPDEST PUSH0 DUP1 PUSH0 DUP6 DUP2 MSTORE PUSH1 0x20 ADD SWAP1 DUP2 MSTORE PUSH1 0x20 ADD PUSH0 KECCAK256 PUSH0 SWAP1 SLOAD SWAP1 PUSH2 0x100 EXP SWAP1 DIV PUSH20 0xFFFFFFFFFFFFFFFFFFFFFFFFFFFFFFFFFFFFFFFF AND SWAP1 POP DUP1 PUSH20 0xFFFFFFFFFFFFFFFFFFFFFFFFFFFFFFFFFFFFFFFF AND PUSH4 0x9FE140B1 PUSH1 0x40 MLOAD DUP2 PUSH4 0xFFFFFFFF AND PUSH1 0xE0 SHL DUP2 MSTORE PUSH1 0x4 ADD PUSH1 0x20 PUSH1 0x40 MLOAD DUP1 DUP4 SUB DUP2 DUP7 GAS STATICCALL ISZERO DUP1 ISZERO PUSH2 0x8BA JUMPI RETURNDATASIZE PUSH0 DUP1 RETURNDATACOPY RETURNDATASIZE PUSH0 REVERT JUMPDEST POP POP POP POP PUSH1 0x40 MLOAD RETURNDATASIZE PUSH1 0x1F NOT PUSH1 0x1F DUP3 ADD AND DUP3 ADD DUP1 PUSH1 0x40 MSTORE POP DUP2 ADD SWAP1 PUSH2 0x8DE SWAP2 SWAP1 PUSH2 0x2C62 JUMP JUMPDEST DUP4 LT PUSH2 0x91F JUMPI PUSH1 0x40 MLOAD PUSH32 0x8C379A000000000000000000000000000000000000000000000000000000000 DUP2 MSTORE PUSH1 0x4 ADD PUSH2 0x916 SWAP1 PUSH2 0x2CD7 JUMP JUMPDEST PUSH1 0x40 MLOAD DUP1 SWAP2 SUB SWAP1 REVERT JUMPDEST PUSH0 DUP2 PUSH20 0xFFFFFFFFFFFFFFFFFFFFFFFFFFFFFFFFFFFFFFFF AND PUSH4 0x86E68B90 DUP6 PUSH1 0x40 MLOAD DUP3 PUSH4 0xFFFFFFFF AND PUSH1 0xE0 SHL DUP2 MSTORE PUSH1 0x4 ADD PUSH2 0x959 SWAP2 SWAP1 PUSH2 0x2518 JUMP JUMPDEST PUSH0 PUSH1 0x40 MLOAD DUP1 DUP4 SUB DUP2 DUP7 GAS STATICCALL ISZERO DUP1 ISZERO PUSH2 0x973 JUMPI RETURNDATASIZE PUSH0 DUP1 RETURNDATACOPY RETURNDATASIZE PUSH0 REVERT JUMPDEST POP POP POP POP PUSH1 0x40 MLOAD RETURNDATASIZE PUSH0 DUP3 RETURNDATACOPY RETURNDATASIZE PUSH1 0x1F NOT PUSH1 0x1F DUP3 ADD AND DUP3 ADD DUP1 PUSH1 0x40 MSTORE POP DUP2 ADD SWAP1 PUSH2 0x99B SWAP2 SWAP1 PUSH2 0x2D77 JUMP JUMPDEST SWAP2 POP POP DUP3 ISZERO ISZERO DUP2 ISZERO ISZERO SUB PUSH2 0x9E4 JUMPI PUSH1 0x40 MLOAD PUSH32 0x8C379A000000000000000000000000000000000000000000000000000000000 DUP2 MSTORE PUSH1 0x4 ADD PUSH2 0x9DB SWAP1 PUSH2 0x2E41 JUMP JUMPDEST PUSH1 0x40 MLOAD DUP1 SWAP2 SUB SWAP1 REVERT JUMPDEST DUP2 PUSH20 0xFFFFFFFFFFFFFFFFFFFFFFFFFFFFFFFFFFFFFFFF AND PUSH4 0x78E6B292 DUP6 DUP6 PUSH1 0x40 MLOAD DUP4 PUSH4 0xFFFFFFFF AND PUSH1 0xE0 SHL DUP2 MSTORE PUSH1 0x4 ADD PUSH2 0xA1F SWAP3 SWAP2 SWAP1 PUSH2 0x2E5F JUMP JUMPDEST PUSH0 PUSH1 0x40 MLOAD DUP1 DUP4 SUB DUP2 PUSH0 DUP8 DUP1 EXTCODESIZE ISZERO DUP1 ISZERO PUSH2 0xA36 JUMPI PUSH0 DUP1 REVERT JUMPDEST POP GAS CALL ISZERO DUP1 ISZERO PUSH2 0xA48 JUMPI RETURNDATASIZE PUSH0 DUP1 RETURNDATACOPY RETURNDATASIZE PUSH0 REVERT JUMPDEST POP POP POP POP POP POP POP POP POP JUMP JUMPDEST PUSH0 PUSH2 0xA5C PUSH2 0x1AD8 JUMP JUMPDEST SWAP1 POP PUSH0 DUP2 PUSH0 ADD PUSH1 0x8 SWAP1 SLOAD SWAP1 PUSH2 0x100 EXP SWAP1 DIV PUSH1 0xFF AND ISZERO SWAP1 POP PUSH0 DUP3 PUSH0 ADD PUSH0 SWAP1 SLOAD SWAP1 PUSH2 0x100 EXP SWAP1 DIV PUSH8 0xFFFFFFFFFFFFFFFF AND SWAP1 POP PUSH0 DUP1 DUP3 PUSH8 0xFFFFFFFFFFFFFFFF AND EQ DUP1 ISZERO PUSH2 0xAA4 JUMPI POP DUP3 JUMPDEST SWAP1 POP PUSH0 PUSH1 0x1 DUP4 PUSH8 0xFFFFFFFFFFFFFFFF AND EQ DUP1 ISZERO PUSH2 0xAD7 JUMPI POP PUSH0 ADDRESS PUSH20 0xFFFFFFFFFFFFFFFFFFFFFFFFFFFFFFFFFFFFFFFF AND EXTCODESIZE EQ JUMPDEST SWAP1 POP DUP2 ISZERO DUP1 ISZERO PUSH2 0xAE5 JUMPI POP DUP1 ISZERO JUMPDEST ISZERO PUSH2 0xB1C JUMPI PUSH1 0x40 MLOAD PUSH32 0xF92EE8A900000000000000000000000000000000000000000000000000000000 DUP2 MSTORE PUSH1 0x4 ADD PUSH1 0x40 MLOAD DUP1 SWAP2 SUB SWAP1 REVERT JUMPDEST PUSH1 0x1 DUP6 PUSH0 ADD PUSH0 PUSH2 0x100 EXP DUP2 SLOAD DUP2 PUSH8 0xFFFFFFFFFFFFFFFF MUL NOT AND SWAP1 DUP4 PUSH8 0xFFFFFFFFFFFFFFFF AND MUL OR SWAP1 SSTORE POP DUP4 ISZERO PUSH2 0xB69 JUMPI PUSH1 0x1 DUP6 PUSH0 ADD PUSH1 0x8 PUSH2 0x100 EXP DUP2 SLOAD DUP2 PUSH1 0xFF MUL NOT AND SWAP1 DUP4 ISZERO ISZERO MUL OR SWAP1 SSTORE POP JUMPDEST PUSH2 0xBDD PUSH1 0x40 MLOAD DUP1 PUSH1 0x40 ADD PUSH1 0x40 MSTORE DUP1 PUSH1 0x6 DUP2 MSTORE PUSH1 0x20 ADD PUSH32 0x536F626F726F0000000000000000000000000000000000000000000000000000 DUP2 MSTORE POP PUSH1 0x40 MLOAD DUP1 PUSH1 0x40 ADD PUSH1 0x40 MSTORE DUP1 PUSH1 0x3 DUP2 MSTORE PUSH1 0x20 ADD PUSH32 0x5342520000000000000000000000000000000000000000000000000000000000 DUP2 MSTORE POP PUSH2 0x1AEB JUMP JUMPDEST PUSH2 0xBEB PUSH5 0x174876E800 PUSH2 0x1B01 JUMP JUMPDEST PUSH2 0xBF3 PUSH2 0x1B15 JUMP JUMPDEST PUSH2 0xBFC CALLER PUSH2 0x1B1F JUMP JUMPDEST PUSH2 0xC04 PUSH2 0x1B33 JUMP JUMPDEST PUSH2 0xC11 CALLER PUSH3 0xF4240 PUSH2 0x1B3D JUMP JUMPDEST DUP4 ISZERO PUSH2 0xC6B JUMPI PUSH0 DUP6 PUSH0 ADD PUSH1 0x8 PUSH2 0x100 EXP DUP2 SLOAD DUP2 PUSH1 0xFF MUL NOT AND SWAP1 DUP4 ISZERO ISZERO MUL OR SWAP1 SSTORE POP PUSH32 0xC7F505B2F371AE2175EE4913F4499E1F2633A7B5936321EED1CDAEB6115181D2 PUSH1 0x1 PUSH1 0x40 MLOAD PUSH2 0xC62 SWAP2 SWAP1 PUSH2 0x2ED2 JUMP JUMPDEST PUSH1 0x40 MLOAD DUP1 SWAP2 SUB SWAP1 LOG1 JUMPDEST POP POP POP POP POP JUMP JUMPDEST PUSH2 0xC7A PUSH2 0x1BBC JUMP JUMPDEST PUSH0 PUSH20 0xFFFFFFFFFFFFFFFFFFFFFFFFFFFFFFFFFFFFFFFF AND CALLER PUSH20 0xFFFFFFFFFFFFFFFFFFFFFFFFFFFFFFFFFFFFFFFF AND SUB PUSH2 0xCE8 JUMPI PUSH1 0x40 MLOAD PUSH32 0x8C379A000000000000000000000000000000000000000000000000000000000 DUP2 MSTORE PUSH1 0x4 ADD PUSH2 0xCDF SWAP1 PUSH2 0x2F35 JUMP JUMPDEST PUSH1 0x40 MLOAD DUP1 SWAP2 SUB SWAP1 REVERT JUMPDEST PUSH0 DUP4 LT ISZERO DUP1 ISZERO PUSH2 0xCF8 JUMPI POP PUSH0 DUP3 LT ISZERO JUMPDEST DUP1 ISZERO PUSH2 0xD04 JUMPI POP PUSH0 DUP2 LT ISZERO JUMPDEST DUP1 ISZERO PUSH2 0xD11 JUMPI POP PUSH1 0x1 SLOAD DUP4 LT JUMPDEST PUSH2 0xD50 JUMPI PUSH1 0x40 MLOAD PUSH32 0x8C379A000000000000000000000000000000000000000000000000000000000 DUP2 MSTORE PUSH1 0x4 ADD PUSH2 0xD47 SWAP1 PUSH2 0x2F9D JUMP JUMPDEST PUSH1 0x40 MLOAD DUP1 SWAP2 SUB SWAP1 REVERT JUMPDEST PUSH0 DUP1 PUSH0 DUP6 DUP2 MSTORE PUSH1 0x20 ADD SWAP1 DUP2 MSTORE PUSH1 0x20 ADD PUSH0 KECCAK256 PUSH0 SWAP1 SLOAD SWAP1 PUSH2 0x100 EXP SWAP1 DIV PUSH20 0xFFFFFFFFFFFFFFFFFFFFFFFFFFFFFFFFFFFFFFFF AND SWAP1 POP DUP1 PUSH20 0xFFFFFFFFFFFFFFFFFFFFFFFFFFFFFFFFFFFFFFFF AND PUSH4 0x9FE140B1 PUSH1 0x40 MLOAD DUP2 PUSH4 0xFFFFFFFF AND PUSH1 0xE0 SHL DUP2 MSTORE PUSH1 0x4 ADD PUSH1 0x20 PUSH1 0x40 MLOAD DUP1 DUP4 SUB DUP2 DUP7 GAS STATICCALL ISZERO DUP1 ISZERO PUSH2 0xDCC JUMPI RETURNDATASIZE PUSH0 DUP1 RETURNDATACOPY RETURNDATASIZE PUSH0 REVERT JUMPDEST POP POP POP POP PUSH1 0x40 MLOAD RETURNDATASIZE PUSH1 0x1F NOT PUSH1 0x1F DUP3 ADD AND DUP3 ADD DUP1 PUSH1 0x40 MSTORE POP DUP2 ADD SWAP1 PUSH2 0xDF0 SWAP2 SWAP1 PUSH2 0x2C62 JUMP JUMPDEST DUP4 LT PUSH2 0xE31 JUMPI PUSH1 0x40 MLOAD PUSH32 0x8C379A000000000000000000000000000000000000000000000000000000000 DUP2 MSTORE PUSH1 0x4 ADD PUSH2 0xE28 SWAP1 PUSH2 0x2CD7 JUMP JUMPDEST PUSH1 0x40 MLOAD DUP1 SWAP2 SUB SWAP1 REVERT JUMPDEST PUSH0 DUP2 PUSH20 0xFFFFFFFFFFFFFFFFFFFFFFFFFFFFFFFFFFFFFFFF AND PUSH4 0x86E68B90 DUP6 PUSH1 0x40 MLOAD DUP3 PUSH4 0xFFFFFFFF AND PUSH1 0xE0 SHL DUP2 MSTORE PUSH1 0x4 ADD PUSH2 0xE6B SWAP2 SWAP1 PUSH2 0x2518 JUMP JUMPDEST PUSH0 PUSH1 0x40 MLOAD DUP1 DUP4 SUB DUP2 DUP7 GAS STATICCALL ISZERO DUP1 ISZERO PUSH2 0xE85 JUMPI RETURNDATASIZE PUSH0 DUP1 RETURNDATACOPY RETURNDATASIZE PUSH0 REVERT JUMPDEST POP POP POP POP PUSH1 0x40 MLOAD RETURNDATASIZE PUSH0 DUP3 RETURNDATACOPY RETURNDATASIZE PUSH1 0x1F NOT PUSH1 0x1F DUP3 ADD AND DUP3 ADD DUP1 PUSH1 0x40 MSTORE POP DUP2 ADD SWAP1 PUSH2 0xEAD SWAP2 SWAP1 PUSH2 0x2D77 JUMP JUMPDEST SWAP2 POP POP PUSH1 0x1 ISZERO ISZERO DUP2 ISZERO ISZERO EQ PUSH2 0xEF7 JUMPI PUSH1 0x40 MLOAD PUSH32 0x8C379A000000000000000000000000000000000000000000000000000000000 DUP2 MSTORE PUSH1 0x4 ADD PUSH2 0xEEE SWAP1 PUSH2 0x3005 JUMP JUMPDEST PUSH1 0x40 MLOAD DUP1 SWAP2 SUB SWAP1 REVERT JUMPDEST PUSH0 ISZERO ISZERO DUP3 PUSH20 0xFFFFFFFFFFFFFFFFFFFFFFFFFFFFFFFFFFFFFFFF AND PUSH4 0x3358D9D9 DUP7 PUSH1 0x40 MLOAD DUP3 PUSH4 0xFFFFFFFF AND PUSH1 0xE0 SHL DUP2 MSTORE PUSH1 0x4 ADD PUSH2 0xF33 SWAP2 SWAP1 PUSH2 0x2518 JUMP JUMPDEST PUSH1 0x20 PUSH1 0x40 MLOAD DUP1 DUP4 SUB DUP2 DUP7 GAS STATICCALL ISZERO DUP1 ISZERO PUSH2 0xF4E JUMPI RETURNDATASIZE PUSH0 DUP1 RETURNDATACOPY RETURNDATASIZE PUSH0 REVERT JUMPDEST POP POP POP POP PUSH1 0x40 MLOAD RETURNDATASIZE PUSH1 0x1F NOT PUSH1 0x1F DUP3 ADD AND DUP3 ADD DUP1 PUSH1 0x40 MSTORE POP DUP2 ADD SWAP1 PUSH2 0xF72 SWAP2 SWAP1 PUSH2 0x3023 JUMP JUMPDEST ISZERO ISZERO EQ PUSH2 0xFB4 JUMPI PUSH1 0x40 MLOAD PUSH32 0x8C379A000000000000000000000000000000000000000000000000000000000 DUP2 MSTORE PUSH1 0x4 ADD PUSH2 0xFAB SWAP1 PUSH2 0x3098 JUMP JUMPDEST PUSH1 0x40 MLOAD DUP1 SWAP2 SUB SWAP1 REVERT JUMPDEST DUP2 PUSH20 0xFFFFFFFFFFFFFFFFFFFFFFFFFFFFFFFFFFFFFFFF AND PUSH4 0xB384ABEF DUP6 DUP6 PUSH1 0x40 MLOAD DUP4 PUSH4 0xFFFFFFFF AND PUSH1 0xE0 SHL DUP2 MSTORE PUSH1 0x4 ADD PUSH2 0xFEF SWAP3 SWAP2 SWAP1 PUSH2 0x30B6 JUMP JUMPDEST PUSH0 PUSH1 0x40 MLOAD DUP1 DUP4 SUB DUP2 PUSH0 DUP8 DUP1 EXTCODESIZE ISZERO DUP1 ISZERO PUSH2 0x1006 JUMPI PUSH0 DUP1 REVERT JUMPDEST POP GAS CALL ISZERO DUP1 ISZERO PUSH2 0x1018 JUMPI RETURNDATASIZE PUSH0 DUP1 RETURNDATACOPY RETURNDATASIZE PUSH0 REVERT JUMPDEST POP POP POP POP POP POP PUSH2 0x1026 PUSH2 0x1C3B JUMP JUMPDEST POP POP POP JUMP JUMPDEST PUSH0 DUP1 PUSH2 0x1035 PUSH2 0x1C7A JUMP JUMPDEST SWAP1 POP DUP1 PUSH0 ADD PUSH0 SWAP1 SLOAD SWAP1 PUSH2 0x100 EXP SWAP1 DIV PUSH20 0xFFFFFFFFFFFFFFFFFFFFFFFFFFFFFFFFFFFFFFFF AND SWAP2 POP POP SWAP1 JUMP JUMPDEST PUSH2 0x1068 PUSH2 0x1980 JUMP JUMPDEST PUSH2 0x1070 PUSH2 0x1BBC JUMP JUMPDEST PUSH0 DUP4 MLOAD SUB PUSH2 0x10B3 JUMPI PUSH1 0x40 MLOAD PUSH32 0x8C379A000000000000000000000000000000000000000000000000000000000 DUP2 MSTORE PUSH1 0x4 ADD PUSH2 0x10AA SWAP1 PUSH2 0x3127 JUMP JUMPDEST PUSH1 0x40 MLOAD DUP1 SWAP2 SUB SWAP1 REVERT JUMPDEST PUSH1 0x2 DUP3 MLOAD LT ISZERO PUSH2 0x10F8 JUMPI PUSH1 0x40 MLOAD PUSH32 0x8C379A000000000000000000000000000000000000000000000000000000000 DUP2 MSTORE PUSH1 0x4 ADD PUSH2 0x10EF SWAP1 PUSH2 0x318F JUMP JUMPDEST PUSH1 0x40 MLOAD DUP1 SWAP2 SUB SWAP1 REVERT JUMPDEST PUSH0 PUSH1 0x1 DUP1 SLOAD PUSH2 0x1107 SWAP2 SWAP1 PUSH2 0x31AD JUMP JUMPDEST SWAP1 POP PUSH0 PUSH20 0xFFFFFFFFFFFFFFFFFFFFFFFFFFFFFFFFFFFFFFFF AND PUSH0 DUP1 DUP4 DUP2 MSTORE PUSH1 0x20 ADD SWAP1 DUP2 MSTORE PUSH1 0x20 ADD PUSH0 KECCAK256 PUSH0 SWAP1 SLOAD SWAP1 PUSH2 0x100 EXP SWAP1 DIV PUSH20 0xFFFFFFFFFFFFFFFFFFFFFFFFFFFFFFFFFFFFFFFF AND PUSH20 0xFFFFFFFFFFFFFFFFFFFFFFFFFFFFFFFFFFFFFFFF AND SUB PUSH2 0x11A6 JUMPI PUSH1 0x40 MLOAD PUSH32 0x8C379A000000000000000000000000000000000000000000000000000000000 DUP2 MSTORE PUSH1 0x4 ADD PUSH2 0x119D SWAP1 PUSH2 0x3250 JUMP JUMPDEST PUSH1 0x40 MLOAD DUP1 SWAP2 SUB SWAP1 REVERT JUMPDEST PUSH0 DUP1 PUSH0 DUP4 DUP2 MSTORE PUSH1 0x20 ADD SWAP1 DUP2 MSTORE PUSH1 0x20 ADD PUSH0 KECCAK256 PUSH0 SWAP1 SLOAD SWAP1 PUSH2 0x100 EXP SWAP1 DIV PUSH20 0xFFFFFFFFFFFFFFFFFFFFFFFFFFFFFFFFFFFFFFFF AND SWAP1 POP PUSH0 DUP2 PUSH20 0xFFFFFFFFFFFFFFFFFFFFFFFFFFFFFFFFFFFFFFFF AND PUSH4 0x9FE140B1 PUSH1 0x40 MLOAD DUP2 PUSH4 0xFFFFFFFF AND PUSH1 0xE0 SHL DUP2 MSTORE PUSH1 0x4 ADD PUSH1 0x20 PUSH1 0x40 MLOAD DUP1 DUP4 SUB DUP2 DUP7 GAS STATICCALL ISZERO DUP1 ISZERO PUSH2 0x1223 JUMPI RETURNDATASIZE PUSH0 DUP1 RETURNDATACOPY RETURNDATASIZE PUSH0 REVERT JUMPDEST POP POP POP POP PUSH1 0x40 MLOAD RETURNDATASIZE PUSH1 0x1F NOT PUSH1 0x1F DUP3 ADD AND DUP3 ADD DUP1 PUSH1 0x40 MSTORE POP DUP2 ADD SWAP1 PUSH2 0x1247 SWAP2 SWAP1 PUSH2 0x2C62 JUMP JUMPDEST SWAP1 POP PUSH1 0x2 SLOAD DUP2 LT ISZERO PUSH2 0x12C2 JUMPI DUP2 PUSH20 0xFFFFFFFFFFFFFFFFFFFFFFFFFFFFFFFFFFFFFFFF AND PUSH4 0xC4960DD DUP8 DUP8 DUP8 PUSH1 0x40 MLOAD DUP5 PUSH4 0xFFFFFFFF AND PUSH1 0xE0 SHL DUP2 MSTORE PUSH1 0x4 ADD PUSH2 0x1290 SWAP4 SWAP3 SWAP2 SWAP1 PUSH2 0x3371 JUMP JUMPDEST PUSH0 PUSH1 0x40 MLOAD DUP1 DUP4 SUB DUP2 PUSH0 DUP8 DUP1 EXTCODESIZE ISZERO DUP1 ISZERO PUSH2 0x12A7 JUMPI PUSH0 DUP1 REVERT JUMPDEST POP GAS CALL ISZERO DUP1 ISZERO PUSH2 0x12B9 JUMPI RETURNDATASIZE PUSH0 DUP1 RETURNDATACOPY RETURNDATASIZE PUSH0 REVERT JUMPDEST POP POP POP POP PUSH2 0x12FD JUMP JUMPDEST PUSH1 0x40 MLOAD PUSH32 0x8C379A000000000000000000000000000000000000000000000000000000000 DUP2 MSTORE PUSH1 0x4 ADD PUSH2 0x12F4 SWAP1 PUSH2 0x3424 JUMP JUMPDEST PUSH1 0x40 MLOAD DUP1 SWAP2 SUB SWAP1 REVERT JUMPDEST POP POP POP PUSH2 0x1308 PUSH2 0x1C3B JUMP JUMPDEST POP POP POP JUMP JUMPDEST PUSH2 0x1315 PUSH2 0x1980 JUMP JUMPDEST PUSH1 0x1 DUP2 LT ISZERO PUSH2 0x1359 JUMPI PUSH1 0x40 MLOAD PUSH32 0x8C379A000000000000000000000000000000000000000000000000000000000 DUP2 MSTORE PUSH1 0x4 ADD PUSH2 0x1350 SWAP1 PUSH2 0x348C JUMP JUMPDEST PUSH1 0x40 MLOAD DUP1 SWAP2 SUB SWAP1 REVERT JUMPDEST DUP1 PUSH1 0x2 DUP2 SWAP1 SSTORE POP POP JUMP JUMPDEST PUSH1 0x60 PUSH0 PUSH2 0x136E PUSH2 0x1717 JUMP JUMPDEST SWAP1 POP DUP1 PUSH1 0x4 ADD DUP1 SLOAD PUSH2 0x137F SWAP1 PUSH2 0x2A72 JUMP JUMPDEST DUP1 PUSH1 0x1F ADD PUSH1 0x20 DUP1 SWAP2 DIV MUL PUSH1 0x20 ADD PUSH1 0x40 MLOAD SWAP1 DUP2 ADD PUSH1 0x40 MSTORE DUP1 SWAP3 SWAP2 SWAP1 DUP2 DUP2 MSTORE PUSH1 0x20 ADD DUP3 DUP1 SLOAD PUSH2 0x13AB SWAP1 PUSH2 0x2A72 JUMP JUMPDEST DUP1 ISZERO PUSH2 0x13F6 JUMPI DUP1 PUSH1 0x1F LT PUSH2 0x13CD JUMPI PUSH2 0x100 DUP1 DUP4 SLOAD DIV MUL DUP4 MSTORE SWAP2 PUSH1 0x20 ADD SWAP2 PUSH2 0x13F6 JUMP JUMPDEST DUP3 ADD SWAP2 SWAP1 PUSH0 MSTORE PUSH1 0x20 PUSH0 KECCAK256 SWAP1 JUMPDEST DUP2 SLOAD DUP2 MSTORE SWAP1 PUSH1 0x1 ADD SWAP1 PUSH1 0x20 ADD DUP1 DUP4 GT PUSH2 0x13D9 JUMPI DUP3 SWAP1 SUB PUSH1 0x1F AND DUP3 ADD SWAP2 JUMPDEST POP POP POP POP POP SWAP2 POP POP SWAP1 JUMP JUMPDEST PUSH2 0x1409 PUSH2 0x1980 JUMP JUMPDEST PUSH0 DUP2 LT ISZERO DUP1 ISZERO PUSH2 0x1473 JUMPI POP PUSH0 PUSH20 0xFFFFFFFFFFFFFFFFFFFFFFFFFFFFFFFFFFFFFFFF AND PUSH0 DUP1 DUP4 DUP2 MSTORE PUSH1 0x20 ADD SWAP1 DUP2 MSTORE PUSH1 0x20 ADD PUSH0 KECCAK256 PUSH0 SWAP1 SLOAD SWAP1 PUSH2 0x100 EXP SWAP1 DIV PUSH20 0xFFFFFFFFFFFFFFFFFFFFFFFFFFFFFFFFFFFFFFFF AND PUSH20 0xFFFFFFFFFFFFFFFFFFFFFFFFFFFFFFFFFFFFFFFF AND EQ JUMPDEST PUSH2 0x14B2 JUMPI PUSH1 0x40 MLOAD PUSH32 0x8C379A000000000000000000000000000000000000000000000000000000000 DUP2 MSTORE PUSH1 0x4 ADD PUSH2 0x14A9 SWAP1 PUSH2 0x34F4 JUMP JUMPDEST PUSH1 0x40 MLOAD DUP1 SWAP2 SUB SWAP1 REVERT JUMPDEST DUP1 PUSH1 0x1 DUP2 SWAP1 SSTORE POP POP JUMP JUMPDEST PUSH0 DUP1 DUP3 LT ISZERO DUP1 ISZERO PUSH2 0x14CE JUMPI POP PUSH1 0x1 SLOAD DUP3 LT JUMPDEST PUSH2 0x150D JUMPI PUSH1 0x40 MLOAD PUSH32 0x8C379A000000000000000000000000000000000000000000000000000000000 DUP2 MSTORE PUSH1 0x4 ADD PUSH2 0x1504 SWAP1 PUSH2 0x355C JUMP JUMPDEST PUSH1 0x40 MLOAD DUP1 SWAP2 SUB SWAP1 REVERT JUMPDEST PUSH0 PUSH20 0xFFFFFFFFFFFFFFFFFFFFFFFFFFFFFFFFFFFFFFFF AND PUSH0 DUP1 DUP5 DUP2 MSTORE PUSH1 0x20 ADD SWAP1 DUP2 MSTORE PUSH1 0x20 ADD PUSH0 KECCAK256 PUSH0 SWAP1 SLOAD SWAP1 PUSH2 0x100 EXP SWAP1 DIV PUSH20 0xFFFFFFFFFFFFFFFFFFFFFFFFFFFFFFFFFFFFFFFF AND PUSH20 0xFFFFFFFFFFFFFFFFFFFFFFFFFFFFFFFFFFFFFFFF AND SUB PUSH2 0x15AA JUMPI PUSH1 0x40 MLOAD PUSH32 0x8C379A000000000000000000000000000000000000000000000000000000000 DUP2 MSTORE PUSH1 0x4 ADD PUSH2 0x15A1 SWAP1 PUSH2 0x2C30 JUMP JUMPDEST PUSH1 0x40 MLOAD DUP1 SWAP2 SUB SWAP1 REVERT JUMPDEST PUSH0 DUP1 DUP4 DUP2 MSTORE PUSH1 0x20 ADD SWAP1 DUP2 MSTORE PUSH1 0x20 ADD PUSH0 KECCAK256 PUSH0 SWAP1 SLOAD SWAP1 PUSH2 0x100 EXP SWAP1 DIV PUSH20 0xFFFFFFFFFFFFFFFFFFFFFFFFFFFFFFFFFFFFFFFF AND SWAP1 POP SWAP2 SWAP1 POP JUMP JUMPDEST PUSH0 DUP1 PUSH2 0x15EB PUSH2 0x173E JUMP JUMPDEST SWAP1 POP PUSH2 0x15F8 DUP2 DUP6 DUP6 PUSH2 0x17EA JUMP JUMPDEST PUSH1 0x1 SWAP2 POP POP SWAP3 SWAP2 POP POP JUMP JUMPDEST PUSH0 DUP1 PUSH2 0x160D PUSH2 0x1717 JUMP JUMPDEST SWAP1 POP DUP1 PUSH1 0x1 ADD PUSH0 DUP6 PUSH20 0xFFFFFFFFFFFFFFFFFFFFFFFFFFFFFFFFFFFFFFFF AND PUSH20 0xFFFFFFFFFFFFFFFFFFFFFFFFFFFFFFFFFFFFFFFF AND DUP2 MSTORE PUSH1 0x20 ADD SWAP1 DUP2 MSTORE PUSH1 0x20 ADD PUSH0 KECCAK256 PUSH0 DUP5 PUSH20 0xFFFFFFFFFFFFFFFFFFFFFFFFFFFFFFFFFFFFFFFF AND PUSH20 0xFFFFFFFFFFFFFFFFFFFFFFFFFFFFFFFFFFFFFFFF AND DUP2 MSTORE PUSH1 0x20 ADD SWAP1 DUP2 MSTORE PUSH1 0x20 ADD PUSH0 KECCAK256 SLOAD SWAP2 POP POP SWAP3 SWAP2 POP POP JUMP JUMPDEST PUSH2 0x169B PUSH2 0x1980 JUMP JUMPDEST PUSH0 PUSH20 0xFFFFFFFFFFFFFFFFFFFFFFFFFFFFFFFFFFFFFFFF AND DUP2 PUSH20 0xFFFFFFFFFFFFFFFFFFFFFFFFFFFFFFFFFFFFFFFF AND SUB PUSH2 0x170B JUMPI PUSH0 PUSH1 0x40 MLOAD PUSH32 0x1E4FBDF700000000000000000000000000000000000000000000000000000000 DUP2 MSTORE PUSH1 0x4 ADD PUSH2 0x1702 SWAP2 SWAP1 PUSH2 0x26E4 JUMP JUMPDEST PUSH1 0x40 MLOAD DUP1 SWAP2 SUB SWAP1 REVERT JUMPDEST PUSH2 0x1714 DUP2 PUSH2 0x1A07 JUMP JUMPDEST POP JUMP JUMPDEST PUSH0 PUSH32 0x52C63247E1F47DB19D5CE0460030C497F067CA4CEBF71BA98EEADABE20BACE00 SWAP1 POP SWAP1 JUMP JUMPDEST PUSH0 CALLER SWAP1 POP SWAP1 JUMP JUMPDEST PUSH2 0x1752 DUP4 DUP4 DUP4 PUSH1 0x1 PUSH2 0x1CA1 JUMP JUMPDEST POP POP POP JUMP JUMPDEST PUSH0 PUSH2 0x1762 DUP5 DUP5 PUSH2 0x1603 JUMP JUMPDEST SWAP1 POP PUSH32 0xFFFFFFFFFFFFFFFFFFFFFFFFFFFFFFFFFFFFFFFFFFFFFFFFFFFFFFFFFFFFFFFF DUP2 LT ISZERO PUSH2 0x17E4 JUMPI DUP2 DUP2 LT ISZERO PUSH2 0x17D5 JUMPI DUP3 DUP2 DUP4 PUSH1 0x40 MLOAD PUSH32 0xFB8F41B200000000000000000000000000000000000000000000000000000000 DUP2 MSTORE PUSH1 0x4 ADD PUSH2 0x17CC SWAP4 SWAP3 SWAP2 SWAP1 PUSH2 0x357A JUMP JUMPDEST PUSH1 0x40 MLOAD DUP1 SWAP2 SUB SWAP1 REVERT JUMPDEST PUSH2 0x17E3 DUP5 DUP5 DUP5 DUP5 SUB PUSH0 PUSH2 0x1CA1 JUMP JUMPDEST JUMPDEST POP POP POP POP JUMP JUMPDEST PUSH0 PUSH20 0xFFFFFFFFFFFFFFFFFFFFFFFFFFFFFFFFFFFFFFFF AND DUP4 PUSH20 0xFFFFFFFFFFFFFFFFFFFFFFFFFFFFFFFFFFFFFFFF AND SUB PUSH2 0x185A JUMPI PUSH0 PUSH1 0x40 MLOAD PUSH32 0x96C6FD1E00000000000000000000000000000000000000000000000000000000 DUP2 MSTORE PUSH1 0x4 ADD PUSH2 0x1851 SWAP2 SWAP1 PUSH2 0x26E4 JUMP JUMPDEST PUSH1 0x40 MLOAD DUP1 SWAP2 SUB SWAP1 REVERT JUMPDEST PUSH0 PUSH20 0xFFFFFFFFFFFFFFFFFFFFFFFFFFFFFFFFFFFFFFFF AND DUP3 PUSH20 0xFFFFFFFFFFFFFFFFFFFFFFFFFFFFFFFFFFFFFFFF AND SUB PUSH2 0x18CA JUMPI PUSH0 PUSH1 0x40 MLOAD PUSH32 0xEC442F0500000000000000000000000000000000000000000000000000000000 DUP2 MSTORE PUSH1 0x4 ADD PUSH2 0x18C1 SWAP2 SWAP1 PUSH2 0x26E4 JUMP JUMPDEST PUSH1 0x40 MLOAD DUP1 SWAP2 SUB SWAP1 REVERT JUMPDEST PUSH2 0x18D5 DUP4 DUP4 DUP4 PUSH2 0x1E7E JUMP JUMPDEST POP POP POP JUMP JUMPDEST PUSH0 PUSH32 0xF070392F17D5F958CC1AC31867DABECFC5C9758B4A419A200803226D7155D00 SWAP1 POP SWAP1 JUMP JUMPDEST PUSH0 PUSH20 0xFFFFFFFFFFFFFFFFFFFFFFFFFFFFFFFFFFFFFFFF AND DUP3 PUSH20 0xFFFFFFFFFFFFFFFFFFFFFFFFFFFFFFFFFFFFFFFF AND SUB PUSH2 0x1971 JUMPI PUSH0 PUSH1 0x40 MLOAD PUSH32 0x96C6FD1E00000000000000000000000000000000000000000000000000000000 DUP2 MSTORE PUSH1 0x4 ADD PUSH2 0x1968 SWAP2 SWAP1 PUSH2 0x26E4 JUMP JUMPDEST PUSH1 0x40 MLOAD DUP1 SWAP2 SUB SWAP1 REVERT JUMPDEST PUSH2 0x197C DUP3 PUSH0 DUP4 PUSH2 0x1E7E JUMP JUMPDEST POP POP JUMP JUMPDEST PUSH2 0x1988 PUSH2 0x173E JUMP JUMPDEST PUSH20 0xFFFFFFFFFFFFFFFFFFFFFFFFFFFFFFFFFFFFFFFF AND PUSH2 0x19A6 PUSH2 0x102B JUMP JUMPDEST PUSH20 0xFFFFFFFFFFFFFFFFFFFFFFFFFFFFFFFFFFFFFFFF AND EQ PUSH2 0x1A05 JUMPI PUSH2 0x19C9 PUSH2 0x173E JUMP JUMPDEST PUSH1 0x40 MLOAD PUSH32 0x118CDAA700000000000000000000000000000000000000000000000000000000 DUP2 MSTORE PUSH1 0x4 ADD PUSH2 0x19FC SWAP2 SWAP1 PUSH2 0x26E4 JUMP JUMPDEST PUSH1 0x40 MLOAD DUP1 SWAP2 SUB SWAP1 REVERT JUMPDEST JUMP JUMPDEST PUSH0 PUSH2 0x1A10 PUSH2 0x1C7A JUMP JUMPDEST SWAP1 POP PUSH0 DUP2 PUSH0 ADD PUSH0 SWAP1 SLOAD SWAP1 PUSH2 0x100 EXP SWAP1 DIV PUSH20 0xFFFFFFFFFFFFFFFFFFFFFFFFFFFFFFFFFFFFFFFF AND SWAP1 POP DUP3 DUP3 PUSH0 ADD PUSH0 PUSH2 0x100 EXP DUP2 SLOAD DUP2 PUSH20 0xFFFFFFFFFFFFFFFFFFFFFFFFFFFFFFFFFFFFFFFF MUL NOT AND SWAP1 DUP4 PUSH20 0xFFFFFFFFFFFFFFFFFFFFFFFFFFFFFFFFFFFFFFFF AND MUL OR SWAP1 SSTORE POP DUP3 PUSH20 0xFFFFFFFFFFFFFFFFFFFFFFFFFFFFFFFFFFFFFFFF AND DUP2 PUSH20 0xFFFFFFFFFFFFFFFFFFFFFFFFFFFFFFFFFFFFFFFF AND PUSH32 0x8BE0079C531659141344CD1FD0A4F28419497F9722A3DAAFE3B4186F6B6457E0 PUSH1 0x40 MLOAD PUSH1 0x40 MLOAD DUP1 SWAP2 SUB SWAP1 LOG3 POP POP POP JUMP JUMPDEST PUSH0 DUP1 PUSH2 0x1AE2 PUSH2 0x1E8E JUMP JUMPDEST SWAP1 POP DUP1 SWAP2 POP POP SWAP1 JUMP JUMPDEST PUSH2 0x1AF3 PUSH2 0x1EB7 JUMP JUMPDEST PUSH2 0x1AFD DUP3 DUP3 PUSH2 0x1EF7 JUMP JUMPDEST POP POP JUMP JUMPDEST PUSH2 0x1B09 PUSH2 0x1EB7 JUMP JUMPDEST PUSH2 0x1B12 DUP2 PUSH2 0x1F33 JUMP JUMPDEST POP JUMP JUMPDEST PUSH2 0x1B1D PUSH2 0x1EB7 JUMP JUMPDEST JUMP JUMPDEST PUSH2 0x1B27 PUSH2 0x1EB7 JUMP JUMPDEST PUSH2 0x1B30 DUP2 PUSH2 0x1F96 JUMP JUMPDEST POP JUMP JUMPDEST PUSH2 0x1B3B PUSH2 0x1EB7 JUMP JUMPDEST JUMP JUMPDEST PUSH0 PUSH20 0xFFFFFFFFFFFFFFFFFFFFFFFFFFFFFFFFFFFFFFFF AND DUP3 PUSH20 0xFFFFFFFFFFFFFFFFFFFFFFFFFFFFFFFFFFFFFFFF AND SUB PUSH2 0x1BAD JUMPI PUSH0 PUSH1 0x40 MLOAD PUSH32 0xEC442F0500000000000000000000000000000000000000000000000000000000 DUP2 MSTORE PUSH1 0x4 ADD PUSH2 0x1BA4 SWAP2 SWAP1 PUSH2 0x26E4 JUMP JUMPDEST PUSH1 0x40 MLOAD DUP1 SWAP2 SUB SWAP1 REVERT JUMPDEST PUSH2 0x1BB8 PUSH0 DUP4 DUP4 PUSH2 0x1E7E JUMP JUMPDEST POP POP JUMP JUMPDEST PUSH2 0x1BC4 PUSH2 0x201A JUMP JUMPDEST ISZERO PUSH2 0x1BFB JUMPI PUSH1 0x40 MLOAD PUSH32 0x3EE5AEB500000000000000000000000000000000000000000000000000000000 DUP2 MSTORE PUSH1 0x4 ADD PUSH1 0x40 MLOAD DUP1 SWAP2 SUB SWAP1 REVERT JUMPDEST PUSH2 0x1C39 PUSH1 0x1 PUSH2 0x1C2B PUSH32 0x9B779B17422D0DF92223018B32B4D1FA46E071723D6817E2486D003BECC55F00 PUSH0 SHL PUSH2 0x2053 JUMP JUMPDEST PUSH2 0x205C SWAP1 SWAP2 SWAP1 PUSH4 0xFFFFFFFF AND JUMP JUMPDEST JUMP JUMPDEST PUSH2 0x1C78 PUSH0 PUSH2 0x1C6A PUSH32 0x9B779B17422D0DF92223018B32B4D1FA46E071723D6817E2486D003BECC55F00 PUSH0 SHL PUSH2 0x2053 JUMP JUMPDEST PUSH2 0x205C SWAP1 SWAP2 SWAP1 PUSH4 0xFFFFFFFF AND JUMP JUMPDEST JUMP JUMPDEST PUSH0 PUSH32 0x9016D09D72D40FDAE2FD8CEAC6B6234C7706214FD39C1CD1E609A0528C199300 SWAP1 POP SWAP1 JUMP JUMPDEST PUSH0 PUSH2 0x1CAA PUSH2 0x1717 JUMP JUMPDEST SWAP1 POP PUSH0 PUSH20 0xFFFFFFFFFFFFFFFFFFFFFFFFFFFFFFFFFFFFFFFF AND DUP6 PUSH20 0xFFFFFFFFFFFFFFFFFFFFFFFFFFFFFFFFFFFFFFFF AND SUB PUSH2 0x1D1C JUMPI PUSH0 PUSH1 0x40 MLOAD PUSH32 0xE602DF0500000000000000000000000000000000000000000000000000000000 DUP2 MSTORE PUSH1 0x4 ADD PUSH2 0x1D13 SWAP2 SWAP1 PUSH2 0x26E4 JUMP JUMPDEST PUSH1 0x40 MLOAD DUP1 SWAP2 SUB SWAP1 REVERT JUMPDEST PUSH0 PUSH20 0xFFFFFFFFFFFFFFFFFFFFFFFFFFFFFFFFFFFFFFFF AND DUP5 PUSH20 0xFFFFFFFFFFFFFFFFFFFFFFFFFFFFFFFFFFFFFFFF AND SUB PUSH2 0x1D8C JUMPI PUSH0 PUSH1 0x40 MLOAD PUSH32 0x94280D6200000000000000000000000000000000000000000000000000000000 DUP2 MSTORE PUSH1 0x4 ADD PUSH2 0x1D83 SWAP2 SWAP1 PUSH2 0x26E4 JUMP JUMPDEST PUSH1 0x40 MLOAD DUP1 SWAP2 SUB SWAP1 REVERT JUMPDEST DUP3 DUP2 PUSH1 0x1 ADD PUSH0 DUP8 PUSH20 0xFFFFFFFFFFFFFFFFFFFFFFFFFFFFFFFFFFFFFFFF AND PUSH20 0xFFFFFFFFFFFFFFFFFFFFFFFFFFFFFFFFFFFFFFFF AND DUP2 MSTORE PUSH1 0x20 ADD SWAP1 DUP2 MSTORE PUSH1 0x20 ADD PUSH0 KECCAK256 PUSH0 DUP7 PUSH20 0xFFFFFFFFFFFFFFFFFFFFFFFFFFFFFFFFFFFFFFFF AND PUSH20 0xFFFFFFFFFFFFFFFFFFFFFFFFFFFFFFFFFFFFFFFF AND DUP2 MSTORE PUSH1 0x20 ADD SWAP1 DUP2 MSTORE PUSH1 0x20 ADD PUSH0 KECCAK256 DUP2 SWAP1 SSTORE POP DUP2 ISZERO PUSH2 0x1E77 JUMPI DUP4 PUSH20 0xFFFFFFFFFFFFFFFFFFFFFFFFFFFFFFFFFFFFFFFF AND DUP6 PUSH20 0xFFFFFFFFFFFFFFFFFFFFFFFFFFFFFFFFFFFFFFFF AND PUSH32 0x8C5BE1E5EBEC7D5BD14F71427D1E84F3DD0314C0F7B2291E5B200AC8C7C3B925 DUP6 PUSH1 0x40 MLOAD PUSH2 0x1E6E SWAP2 SWAP1 PUSH2 0x2518 JUMP JUMPDEST PUSH1 0x40 MLOAD DUP1 SWAP2 SUB SWAP1 LOG3 JUMPDEST POP POP POP POP POP JUMP JUMPDEST PUSH2 0x1E89 DUP4 DUP4 DUP4 PUSH2 0x2063 JUMP JUMPDEST POP POP POP JUMP JUMPDEST PUSH0 PUSH32 0xF0C57E16840DF040F15088DC2F81FE391C3923BEC73E23A9662EFC9C229C6A00 PUSH0 SHL SWAP1 POP SWAP1 JUMP JUMPDEST PUSH2 0x1EBF PUSH2 0x2106 JUMP JUMPDEST PUSH2 0x1EF5 JUMPI PUSH1 0x40 MLOAD PUSH32 0xD7E6BCF800000000000000000000000000000000000000000000000000000000 DUP2 MSTORE PUSH1 0x4 ADD PUSH1 0x40 MLOAD DUP1 SWAP2 SUB SWAP1 REVERT JUMPDEST JUMP JUMPDEST PUSH2 0x1EFF PUSH2 0x1EB7 JUMP JUMPDEST PUSH0 PUSH2 0x1F08 PUSH2 0x1717 JUMP JUMPDEST SWAP1 POP DUP3 DUP2 PUSH1 0x3 ADD SWAP1 DUP2 PUSH2 0x1F1B SWAP2 SWAP1 PUSH2 0x3743 JUMP JUMPDEST POP DUP2 DUP2 PUSH1 0x4 ADD SWAP1 DUP2 PUSH2 0x1F2D SWAP2 SWAP1 PUSH2 0x3743 JUMP JUMPDEST POP POP POP POP JUMP JUMPDEST PUSH2 0x1F3B PUSH2 0x1EB7 JUMP JUMPDEST PUSH0 PUSH2 0x1F44 PUSH2 0x18DA JUMP JUMPDEST SWAP1 POP PUSH0 DUP3 SUB PUSH2 0x1F8A JUMPI PUSH0 PUSH1 0x40 MLOAD PUSH32 0x392E1E2700000000000000000000000000000000000000000000000000000000 DUP2 MSTORE PUSH1 0x4 ADD PUSH2 0x1F81 SWAP2 SWAP1 PUSH2 0x384B JUMP JUMPDEST PUSH1 0x40 MLOAD DUP1 SWAP2 SUB SWAP1 REVERT JUMPDEST DUP2 DUP2 PUSH0 ADD DUP2 SWAP1 SSTORE POP POP POP JUMP JUMPDEST PUSH2 0x1F9E PUSH2 0x1EB7 JUMP JUMPDEST PUSH0 PUSH20 0xFFFFFFFFFFFFFFFFFFFFFFFFFFFFFFFFFFFFFFFF AND DUP2 PUSH20 0xFFFFFFFFFFFFFFFFFFFFFFFFFFFFFFFFFFFFFFFF AND SUB PUSH2 0x200E JUMPI PUSH0 PUSH1 0x40 MLOAD PUSH32 0x1E4FBDF700000000000000000000000000000000000000000000000000000000 DUP2 MSTORE PUSH1 0x4 ADD PUSH2 0x2005 SWAP2 SWAP1 PUSH2 0x26E4 JUMP JUMPDEST PUSH1 0x40 MLOAD DUP1 SWAP2 SUB SWAP1 REVERT JUMPDEST PUSH2 0x2017 DUP2 PUSH2 0x1A07 JUMP JUMPDEST POP JUMP JUMPDEST PUSH0 PUSH2 0x204E PUSH2 0x2049 PUSH32 0x9B779B17422D0DF92223018B32B4D1FA46E071723D6817E2486D003BECC55F00 PUSH0 SHL PUSH2 0x2053 JUMP JUMPDEST PUSH2 0x2124 JUMP JUMPDEST SWAP1 POP SWAP1 JUMP JUMPDEST PUSH0 DUP2 SWAP1 POP SWAP2 SWAP1 POP JUMP JUMPDEST DUP1 DUP3 TSTORE POP POP JUMP JUMPDEST PUSH2 0x206E DUP4 DUP4 DUP4 PUSH2 0x212E JUMP JUMPDEST PUSH0 PUSH20 0xFFFFFFFFFFFFFFFFFFFFFFFFFFFFFFFFFFFFFFFF AND DUP4 PUSH20 0xFFFFFFFFFFFFFFFFFFFFFFFFFFFFFFFFFFFFFFFF AND SUB PUSH2 0x2101 JUMPI PUSH0 PUSH2 0x20AA PUSH2 0x557 JUMP JUMPDEST SWAP1 POP PUSH0 PUSH2 0x20B5 PUSH2 0x50A JUMP JUMPDEST SWAP1 POP DUP2 DUP2 GT ISZERO PUSH2 0x20FE JUMPI DUP1 DUP3 PUSH1 0x40 MLOAD PUSH32 0x9E79F85400000000000000000000000000000000000000000000000000000000 DUP2 MSTORE PUSH1 0x4 ADD PUSH2 0x20F5 SWAP3 SWAP2 SWAP1 PUSH2 0x30B6 JUMP JUMPDEST PUSH1 0x40 MLOAD DUP1 SWAP2 SUB SWAP1 REVERT JUMPDEST POP POP JUMPDEST POP POP POP JUMP JUMPDEST PUSH0 PUSH2 0x210F PUSH2 0x1AD8 JUMP JUMPDEST PUSH0 ADD PUSH1 0x8 SWAP1 SLOAD SWAP1 PUSH2 0x100 EXP SWAP1 DIV PUSH1 0xFF AND SWAP1 POP SWAP1 JUMP JUMPDEST PUSH0 DUP2 TLOAD SWAP1 POP SWAP2 SWAP1 POP JUMP JUMPDEST PUSH0 PUSH2 0x2137 PUSH2 0x1717 JUMP JUMPDEST SWAP1 POP PUSH0 PUSH20 0xFFFFFFFFFFFFFFFFFFFFFFFFFFFFFFFFFFFFFFFF AND DUP5 PUSH20 0xFFFFFFFFFFFFFFFFFFFFFFFFFFFFFFFFFFFFFFFF AND SUB PUSH2 0x218B JUMPI DUP2 DUP2 PUSH1 0x2 ADD PUSH0 DUP3 DUP3 SLOAD PUSH2 0x217F SWAP2 SWAP1 PUSH2 0x3864 JUMP JUMPDEST SWAP3 POP POP DUP2 SWAP1 SSTORE POP PUSH2 0x225D JUMP JUMPDEST PUSH0 DUP2 PUSH0 ADD PUSH0 DUP7 PUSH20 0xFFFFFFFFFFFFFFFFFFFFFFFFFFFFFFFFFFFFFFFF AND PUSH20 0xFFFFFFFFFFFFFFFFFFFFFFFFFFFFFFFFFFFFFFFF AND DUP2 MSTORE PUSH1 0x20 ADD SWAP1 DUP2 MSTORE PUSH1 0x20 ADD PUSH0 KECCAK256 SLOAD SWAP1 POP DUP3 DUP2 LT ISZERO PUSH2 0x2216 JUMPI DUP5 DUP2 DUP5 PUSH1 0x40 MLOAD PUSH32 0xE450D38C00000000000000000000000000000000000000000000000000000000 DUP2 MSTORE PUSH1 0x4 ADD PUSH2 0x220D SWAP4 SWAP3 SWAP2 SWAP1 PUSH2 0x357A JUMP JUMPDEST PUSH1 0x40 MLOAD DUP1 SWAP2 SUB SWAP1 REVERT JUMPDEST DUP3 DUP2 SUB DUP3 PUSH0 ADD PUSH0 DUP8 PUSH20 0xFFFFFFFFFFFFFFFFFFFFFFFFFFFFFFFFFFFFFFFF AND PUSH20 0xFFFFFFFFFFFFFFFFFFFFFFFFFFFFFFFFFFFFFFFF AND DUP2 MSTORE PUSH1 0x20 ADD SWAP1 DUP2 MSTORE PUSH1 0x20 ADD PUSH0 KECCAK256 DUP2 SWAP1 SSTORE POP POP JUMPDEST PUSH0 PUSH20 0xFFFFFFFFFFFFFFFFFFFFFFFFFFFFFFFFFFFFFFFF AND DUP4 PUSH20 0xFFFFFFFFFFFFFFFFFFFFFFFFFFFFFFFFFFFFFFFF AND SUB PUSH2 0x22A6 JUMPI DUP2 DUP2 PUSH1 0x2 ADD PUSH0 DUP3 DUP3 SLOAD SUB SWAP3 POP POP DUP2 SWAP1 SSTORE POP PUSH2 0x22F2 JUMP JUMPDEST DUP2 DUP2 PUSH0 ADD PUSH0 DUP6 PUSH20 0xFFFFFFFFFFFFFFFFFFFFFFFFFFFFFFFFFFFFFFFF AND PUSH20 0xFFFFFFFFFFFFFFFFFFFFFFFFFFFFFFFFFFFFFFFF AND DUP2 MSTORE PUSH1 0x20 ADD SWAP1 DUP2 MSTORE PUSH1 0x20 ADD PUSH0 KECCAK256 PUSH0 DUP3 DUP3 SLOAD ADD SWAP3 POP POP DUP2 SWAP1 SSTORE POP JUMPDEST DUP3 PUSH20 0xFFFFFFFFFFFFFFFFFFFFFFFFFFFFFFFFFFFFFFFF AND DUP5 PUSH20 0xFFFFFFFFFFFFFFFFFFFFFFFFFFFFFFFFFFFFFFFF AND PUSH32 0xDDF252AD1BE2C89B69C2B068FC378DAA952BA7F163C4A11628F55A4DF523B3EF DUP5 PUSH1 0x40 MLOAD PUSH2 0x234F SWAP2 SWAP1 PUSH2 0x2518 JUMP JUMPDEST PUSH1 0x40 MLOAD DUP1 SWAP2 SUB SWAP1 LOG3 POP POP POP POP JUMP JUMPDEST PUSH2 0x2464 DUP1 PUSH2 0x3898 DUP4 CODECOPY ADD SWAP1 JUMP JUMPDEST PUSH0 DUP2 MLOAD SWAP1 POP SWAP2 SWAP1 POP JUMP JUMPDEST PUSH0 DUP3 DUP3 MSTORE PUSH1 0x20 DUP3 ADD SWAP1 POP SWAP3 SWAP2 POP POP JUMP JUMPDEST DUP3 DUP2 DUP4 MCOPY PUSH0 DUP4 DUP4 ADD MSTORE POP POP POP JUMP JUMPDEST PUSH0 PUSH1 0x1F NOT PUSH1 0x1F DUP4 ADD AND SWAP1 POP SWAP2 SWAP1 POP JUMP JUMPDEST PUSH0 PUSH2 0x23AC DUP3 PUSH2 0x236A JUMP JUMPDEST PUSH2 0x23B6 DUP2 DUP6 PUSH2 0x2374 JUMP JUMPDEST SWAP4 POP PUSH2 0x23C6 DUP2 DUP6 PUSH1 0x20 DUP7 ADD PUSH2 0x2384 JUMP JUMPDEST PUSH2 0x23CF DUP2 PUSH2 0x2392 JUMP JUMPDEST DUP5 ADD SWAP2 POP POP SWAP3 SWAP2 POP POP JUMP JUMPDEST PUSH0 PUSH1 0x20 DUP3 ADD SWAP1 POP DUP2 DUP2 SUB PUSH0 DUP4 ADD MSTORE PUSH2 0x23F2 DUP2 DUP5 PUSH2 0x23A2 JUMP JUMPDEST SWAP1 POP SWAP3 SWAP2 POP POP JUMP JUMPDEST PUSH0 PUSH1 0x40 MLOAD SWAP1 POP SWAP1 JUMP JUMPDEST PUSH0 DUP1 REVERT JUMPDEST PUSH0 DUP1 REVERT JUMPDEST PUSH0 PUSH20 0xFFFFFFFFFFFFFFFFFFFFFFFFFFFFFFFFFFFFFFFF DUP3 AND SWAP1 POP SWAP2 SWAP1 POP JUMP JUMPDEST PUSH0 PUSH2 0x2434 DUP3 PUSH2 0x240B JUMP JUMPDEST SWAP1 POP SWAP2 SWAP1 POP JUMP JUMPDEST PUSH2 0x2444 DUP2 PUSH2 0x242A JUMP JUMPDEST DUP2 EQ PUSH2 0x244E JUMPI PUSH0 DUP1 REVERT JUMPDEST POP JUMP JUMPDEST PUSH0 DUP2 CALLDATALOAD SWAP1 POP PUSH2 0x245F DUP2 PUSH2 0x243B JUMP JUMPDEST SWAP3 SWAP2 POP POP JUMP JUMPDEST PUSH0 DUP2 SWAP1 POP SWAP2 SWAP1 POP JUMP JUMPDEST PUSH2 0x2477 DUP2 PUSH2 0x2465 JUMP JUMPDEST DUP2 EQ PUSH2 0x2481 JUMPI PUSH0 DUP1 REVERT JUMPDEST POP JUMP JUMPDEST PUSH0 DUP2 CALLDATALOAD SWAP1 POP PUSH2 0x2492 DUP2 PUSH2 0x246E JUMP JUMPDEST SWAP3 SWAP2 POP POP JUMP JUMPDEST PUSH0 DUP1 PUSH1 0x40 DUP4 DUP6 SUB SLT ISZERO PUSH2 0x24AE JUMPI PUSH2 0x24AD PUSH2 0x2403 JUMP JUMPDEST JUMPDEST PUSH0 PUSH2 0x24BB DUP6 DUP3 DUP7 ADD PUSH2 0x2451 JUMP JUMPDEST SWAP3 POP POP PUSH1 0x20 PUSH2 0x24CC DUP6 DUP3 DUP7 ADD PUSH2 0x2484 JUMP JUMPDEST SWAP2 POP POP SWAP3 POP SWAP3 SWAP1 POP JUMP JUMPDEST PUSH0 DUP2 ISZERO ISZERO SWAP1 POP SWAP2 SWAP1 POP JUMP JUMPDEST PUSH2 0x24EA DUP2 PUSH2 0x24D6 JUMP JUMPDEST DUP3 MSTORE POP POP JUMP JUMPDEST PUSH0 PUSH1 0x20 DUP3 ADD SWAP1 POP PUSH2 0x2503 PUSH0 DUP4 ADD DUP5 PUSH2 0x24E1 JUMP JUMPDEST SWAP3 SWAP2 POP POP JUMP JUMPDEST PUSH2 0x2512 DUP2 PUSH2 0x2465 JUMP JUMPDEST DUP3 MSTORE POP POP JUMP JUMPDEST PUSH0 PUSH1 0x20 DUP3 ADD SWAP1 POP PUSH2 0x252B PUSH0 DUP4 ADD DUP5 PUSH2 0x2509 JUMP JUMPDEST SWAP3 SWAP2 POP POP JUMP JUMPDEST PUSH0 DUP1 PUSH0 PUSH1 0x60 DUP5 DUP7 SUB SLT ISZERO PUSH2 0x2548 JUMPI PUSH2 0x2547 PUSH2 0x2403 JUMP JUMPDEST JUMPDEST PUSH0 PUSH2 0x2555 DUP7 DUP3 DUP8 ADD PUSH2 0x2451 JUMP JUMPDEST SWAP4 POP POP PUSH1 0x20 PUSH2 0x2566 DUP7 DUP3 DUP8 ADD PUSH2 0x2451 JUMP JUMPDEST SWAP3 POP POP PUSH1 0x40 PUSH2 0x2577 DUP7 DUP3 DUP8 ADD PUSH2 0x2484 JUMP JUMPDEST SWAP2 POP POP SWAP3 POP SWAP3 POP SWAP3 JUMP JUMPDEST PUSH0 PUSH1 0xFF DUP3 AND SWAP1 POP SWAP2 SWAP1 POP JUMP JUMPDEST PUSH2 0x2596 DUP2 PUSH2 0x2581 JUMP JUMPDEST DUP3 MSTORE POP POP JUMP JUMPDEST PUSH0 PUSH1 0x20 DUP3 ADD SWAP1 POP PUSH2 0x25AF PUSH0 DUP4 ADD DUP5 PUSH2 0x258D JUMP JUMPDEST SWAP3 SWAP2 POP POP JUMP JUMPDEST PUSH0 PUSH1 0x20 DUP3 DUP5 SUB SLT ISZERO PUSH2 0x25CA JUMPI PUSH2 0x25C9 PUSH2 0x2403 JUMP JUMPDEST JUMPDEST PUSH0 PUSH2 0x25D7 DUP5 DUP3 DUP6 ADD PUSH2 0x2484 JUMP JUMPDEST SWAP2 POP POP SWAP3 SWAP2 POP POP JUMP JUMPDEST PUSH0 PUSH1 0x20 DUP3 DUP5 SUB SLT ISZERO PUSH2 0x25F5 JUMPI PUSH2 0x25F4 PUSH2 0x2403 JUMP JUMPDEST JUMPDEST PUSH0 PUSH2 0x2602 DUP5 DUP3 DUP6 ADD PUSH2 0x2451 JUMP JUMPDEST SWAP2 POP POP SWAP3 SWAP2 POP POP JUMP JUMPDEST PUSH2 0x2614 DUP2 PUSH2 0x24D6 JUMP JUMPDEST DUP2 EQ PUSH2 0x261E JUMPI PUSH0 DUP1 REVERT JUMPDEST POP JUMP JUMPDEST PUSH0 DUP2 CALLDATALOAD SWAP1 POP PUSH2 0x262F DUP2 PUSH2 0x260B JUMP JUMPDEST SWAP3 SWAP2 POP POP JUMP JUMPDEST PUSH0 DUP1 PUSH0 PUSH1 0x60 DUP5 DUP7 SUB SLT ISZERO PUSH2 0x264C JUMPI PUSH2 0x264B PUSH2 0x2403 JUMP JUMPDEST JUMPDEST PUSH0 PUSH2 0x2659 DUP7 DUP3 DUP8 ADD PUSH2 0x2484 JUMP JUMPDEST SWAP4 POP POP PUSH1 0x20 PUSH2 0x266A DUP7 DUP3 DUP8 ADD PUSH2 0x2484 JUMP JUMPDEST SWAP3 POP POP PUSH1 0x40 PUSH2 0x267B DUP7 DUP3 DUP8 ADD PUSH2 0x2621 JUMP JUMPDEST SWAP2 POP POP SWAP3 POP SWAP3 POP SWAP3 JUMP JUMPDEST PUSH0 DUP1 PUSH0 PUSH1 0x60 DUP5 DUP7 SUB SLT ISZERO PUSH2 0x269C JUMPI PUSH2 0x269B PUSH2 0x2403 JUMP JUMPDEST JUMPDEST PUSH0 PUSH2 0x26A9 DUP7 DUP3 DUP8 ADD PUSH2 0x2484 JUMP JUMPDEST SWAP4 POP POP PUSH1 0x20 PUSH2 0x26BA DUP7 DUP3 DUP8 ADD PUSH2 0x2484 JUMP JUMPDEST SWAP3 POP POP PUSH1 0x40 PUSH2 0x26CB DUP7 DUP3 DUP8 ADD PUSH2 0x2484 JUMP JUMPDEST SWAP2 POP POP SWAP3 POP SWAP3 POP SWAP3 JUMP JUMPDEST PUSH2 0x26DE DUP2 PUSH2 0x242A JUMP JUMPDEST DUP3 MSTORE POP POP JUMP JUMPDEST PUSH0 PUSH1 0x20 DUP3 ADD SWAP1 POP PUSH2 0x26F7 PUSH0 DUP4 ADD DUP5 PUSH2 0x26D5 JUMP JUMPDEST SWAP3 SWAP2 POP POP JUMP JUMPDEST PUSH0 DUP1 REVERT JUMPDEST PUSH0 DUP1 REVERT JUMPDEST PUSH32 0x4E487B7100000000000000000000000000000000000000000000000000000000 PUSH0 MSTORE PUSH1 0x41 PUSH1 0x4 MSTORE PUSH1 0x24 PUSH0 REVERT JUMPDEST PUSH2 0x273B DUP3 PUSH2 0x2392 JUMP JUMPDEST DUP2 ADD DUP2 DUP2 LT PUSH8 0xFFFFFFFFFFFFFFFF DUP3 GT OR ISZERO PUSH2 0x275A JUMPI PUSH2 0x2759 PUSH2 0x2705 JUMP JUMPDEST JUMPDEST DUP1 PUSH1 0x40 MSTORE POP POP POP JUMP JUMPDEST PUSH0 PUSH2 0x276C PUSH2 0x23FA JUMP JUMPDEST SWAP1 POP PUSH2 0x2778 DUP3 DUP3 PUSH2 0x2732 JUMP JUMPDEST SWAP2 SWAP1 POP JUMP JUMPDEST PUSH0 PUSH8 0xFFFFFFFFFFFFFFFF DUP3 GT ISZERO PUSH2 0x2797 JUMPI PUSH2 0x2796 PUSH2 0x2705 JUMP JUMPDEST JUMPDEST PUSH2 0x27A0 DUP3 PUSH2 0x2392 JUMP JUMPDEST SWAP1 POP PUSH1 0x20 DUP2 ADD SWAP1 POP SWAP2 SWAP1 POP JUMP JUMPDEST DUP3 DUP2 DUP4 CALLDATACOPY PUSH0 DUP4 DUP4 ADD MSTORE POP POP POP JUMP JUMPDEST PUSH0 PUSH2 0x27CD PUSH2 0x27C8 DUP5 PUSH2 0x277D JUMP JUMPDEST PUSH2 0x2763 JUMP JUMPDEST SWAP1 POP DUP3 DUP2 MSTORE PUSH1 0x20 DUP2 ADD DUP5 DUP5 DUP5 ADD GT ISZERO PUSH2 0x27E9 JUMPI PUSH2 0x27E8 PUSH2 0x2701 JUMP JUMPDEST JUMPDEST PUSH2 0x27F4 DUP5 DUP3 DUP6 PUSH2 0x27AD JUMP JUMPDEST POP SWAP4 SWAP3 POP POP POP JUMP JUMPDEST PUSH0 DUP3 PUSH1 0x1F DUP4 ADD SLT PUSH2 0x2810 JUMPI PUSH2 0x280F PUSH2 0x26FD JUMP JUMPDEST JUMPDEST DUP2 CALLDATALOAD PUSH2 0x2820 DUP5 DUP3 PUSH1 0x20 DUP7 ADD PUSH2 0x27BB JUMP JUMPDEST SWAP2 POP POP SWAP3 SWAP2 POP POP JUMP JUMPDEST PUSH0 PUSH8 0xFFFFFFFFFFFFFFFF DUP3 GT ISZERO PUSH2 0x2843 JUMPI PUSH2 0x2842 PUSH2 0x2705 JUMP JUMPDEST JUMPDEST PUSH1 0x20 DUP3 MUL SWAP1 POP PUSH1 0x20 DUP2 ADD SWAP1 POP SWAP2 SWAP1 POP JUMP JUMPDEST PUSH0 DUP1 REVERT JUMPDEST PUSH0 PUSH2 0x286A PUSH2 0x2865 DUP5 PUSH2 0x2829 JUMP JUMPDEST PUSH2 0x2763 JUMP JUMPDEST SWAP1 POP DUP1 DUP4 DUP3 MSTORE PUSH1 0x20 DUP3 ADD SWAP1 POP PUSH1 0x20 DUP5 MUL DUP4 ADD DUP6 DUP2 GT ISZERO PUSH2 0x288D JUMPI PUSH2 0x288C PUSH2 0x2854 JUMP JUMPDEST JUMPDEST DUP4 JUMPDEST DUP2 DUP2 LT ISZERO PUSH2 0x28D4 JUMPI DUP1 CALLDATALOAD PUSH8 0xFFFFFFFFFFFFFFFF DUP2 GT ISZERO PUSH2 0x28B2 JUMPI PUSH2 0x28B1 PUSH2 0x26FD JUMP JUMPDEST JUMPDEST DUP1 DUP7 ADD PUSH2 0x28BF DUP10 DUP3 PUSH2 0x27FC JUMP JUMPDEST DUP6 MSTORE PUSH1 0x20 DUP6 ADD SWAP5 POP POP POP PUSH1 0x20 DUP2 ADD SWAP1 POP PUSH2 0x288F JUMP JUMPDEST POP POP POP SWAP4 SWAP3 POP POP POP JUMP JUMPDEST PUSH0 DUP3 PUSH1 0x1F DUP4 ADD SLT PUSH2 0x28F2 JUMPI PUSH2 0x28F1 PUSH2 0x26FD JUMP JUMPDEST JUMPDEST DUP2 CALLDATALOAD PUSH2 0x2902 DUP5 DUP3 PUSH1 0x20 DUP7 ADD PUSH2 0x2858 JUMP JUMPDEST SWAP2 POP POP SWAP3 SWAP2 POP POP JUMP JUMPDEST PUSH0 DUP1 PUSH0 PUSH1 0x60 DUP5 DUP7 SUB SLT ISZERO PUSH2 0x2922 JUMPI PUSH2 0x2921 PUSH2 0x2403 JUMP JUMPDEST JUMPDEST PUSH0 DUP5 ADD CALLDATALOAD PUSH8 0xFFFFFFFFFFFFFFFF DUP2 GT ISZERO PUSH2 0x293F JUMPI PUSH2 0x293E PUSH2 0x2407 JUMP JUMPDEST JUMPDEST PUSH2 0x294B DUP7 DUP3 DUP8 ADD PUSH2 0x27FC JUMP JUMPDEST SWAP4 POP POP PUSH1 0x20 DUP5 ADD CALLDATALOAD PUSH8 0xFFFFFFFFFFFFFFFF DUP2 GT ISZERO PUSH2 0x296C JUMPI PUSH2 0x296B PUSH2 0x2407 JUMP JUMPDEST JUMPDEST PUSH2 0x2978 DUP7 DUP3 DUP8 ADD PUSH2 0x28DE JUMP JUMPDEST SWAP3 POP POP PUSH1 0x40 PUSH2 0x2989 DUP7 DUP3 DUP8 ADD PUSH2 0x2621 JUMP JUMPDEST SWAP2 POP POP SWAP3 POP SWAP3 POP SWAP3 JUMP JUMPDEST PUSH0 DUP2 SWAP1 POP SWAP2 SWAP1 POP JUMP JUMPDEST PUSH0 PUSH2 0x29B6 PUSH2 0x29B1 PUSH2 0x29AC DUP5 PUSH2 0x240B JUMP JUMPDEST PUSH2 0x2993 JUMP JUMPDEST PUSH2 0x240B JUMP JUMPDEST SWAP1 POP SWAP2 SWAP1 POP JUMP JUMPDEST PUSH0 PUSH2 0x29C7 DUP3 PUSH2 0x299C JUMP JUMPDEST SWAP1 POP SWAP2 SWAP1 POP JUMP JUMPDEST PUSH0 PUSH2 0x29D8 DUP3 PUSH2 0x29BD JUMP JUMPDEST SWAP1 POP SWAP2 SWAP1 POP JUMP JUMPDEST PUSH2 0x29E8 DUP2 PUSH2 0x29CE JUMP JUMPDEST DUP3 MSTORE POP POP JUMP JUMPDEST PUSH0 PUSH1 0x20 DUP3 ADD SWAP1 POP PUSH2 0x2A01 PUSH0 DUP4 ADD DUP5 PUSH2 0x29DF JUMP JUMPDEST SWAP3 SWAP2 POP POP JUMP JUMPDEST PUSH0 DUP1 PUSH1 0x40 DUP4 DUP6 SUB SLT ISZERO PUSH2 0x2A1D JUMPI PUSH2 0x2A1C PUSH2 0x2403 JUMP JUMPDEST JUMPDEST PUSH0 PUSH2 0x2A2A DUP6 DUP3 DUP7 ADD PUSH2 0x2451 JUMP JUMPDEST SWAP3 POP POP PUSH1 0x20 PUSH2 0x2A3B DUP6 DUP3 DUP7 ADD PUSH2 0x2451 JUMP JUMPDEST SWAP2 POP POP SWAP3 POP SWAP3 SWAP1 POP JUMP JUMPDEST PUSH32 0x4E487B7100000000000000000000000000000000000000000000000000000000 PUSH0 MSTORE PUSH1 0x22 PUSH1 0x4 MSTORE PUSH1 0x24 PUSH0 REVERT JUMPDEST PUSH0 PUSH1 0x2 DUP3 DIV SWAP1 POP PUSH1 0x1 DUP3 AND DUP1 PUSH2 0x2A89 JUMPI PUSH1 0x7F DUP3 AND SWAP2 POP JUMPDEST PUSH1 0x20 DUP3 LT DUP2 SUB PUSH2 0x2A9C JUMPI PUSH2 0x2A9B PUSH2 0x2A45 JUMP JUMPDEST JUMPDEST POP SWAP2 SWAP1 POP JUMP JUMPDEST PUSH32 0x6372756D6220616C656164792062616B65640000000000000000000000000000 PUSH0 DUP3 ADD MSTORE POP JUMP JUMPDEST PUSH0 PUSH2 0x2AD6 PUSH1 0x12 DUP4 PUSH2 0x2374 JUMP JUMPDEST SWAP2 POP PUSH2 0x2AE1 DUP3 PUSH2 0x2AA2 JUMP JUMPDEST PUSH1 0x20 DUP3 ADD SWAP1 POP SWAP2 SWAP1 POP JUMP JUMPDEST PUSH0 PUSH1 0x20 DUP3 ADD SWAP1 POP DUP2 DUP2 SUB PUSH0 DUP4 ADD MSTORE PUSH2 0x2B03 DUP2 PUSH2 0x2ACA JUMP JUMPDEST SWAP1 POP SWAP2 SWAP1 POP JUMP JUMPDEST PUSH32 0x4E487B7100000000000000000000000000000000000000000000000000000000 PUSH0 MSTORE PUSH1 0x11 PUSH1 0x4 MSTORE PUSH1 0x24 PUSH0 REVERT JUMPDEST PUSH0 PUSH2 0x2B41 DUP3 PUSH2 0x2465 JUMP JUMPDEST SWAP2 POP PUSH32 0xFFFFFFFFFFFFFFFFFFFFFFFFFFFFFFFFFFFFFFFFFFFFFFFFFFFFFFFFFFFFFFFF DUP3 SUB PUSH2 0x2B73 JUMPI PUSH2 0x2B72 PUSH2 0x2B0A JUMP JUMPDEST JUMPDEST PUSH1 0x1 DUP3 ADD SWAP1 POP SWAP2 SWAP1 POP JUMP JUMPDEST PUSH32 0x696E76616C69642049442F496E64657800000000000000000000000000000000 PUSH0 DUP3 ADD MSTORE POP JUMP JUMPDEST PUSH0 PUSH2 0x2BB2 PUSH1 0x10 DUP4 PUSH2 0x2374 JUMP JUMPDEST SWAP2 POP PUSH2 0x2BBD DUP3 PUSH2 0x2B7E JUMP JUMPDEST PUSH1 0x20 DUP3 ADD SWAP1 POP SWAP2 SWAP1 POP JUMP JUMPDEST PUSH0 PUSH1 0x20 DUP3 ADD SWAP1 POP DUP2 DUP2 SUB PUSH0 DUP4 ADD MSTORE PUSH2 0x2BDF DUP2 PUSH2 0x2BA6 JUMP JUMPDEST SWAP1 POP SWAP2 SWAP1 POP JUMP JUMPDEST PUSH32 0x6372756D62206E6F742065786973747300000000000000000000000000000000 PUSH0 DUP3 ADD MSTORE POP JUMP JUMPDEST PUSH0 PUSH2 0x2C1A PUSH1 0x10 DUP4 PUSH2 0x2374 JUMP JUMPDEST SWAP2 POP PUSH2 0x2C25 DUP3 PUSH2 0x2BE6 JUMP JUMPDEST PUSH1 0x20 DUP3 ADD SWAP1 POP SWAP2 SWAP1 POP JUMP JUMPDEST PUSH0 PUSH1 0x20 DUP3 ADD SWAP1 POP DUP2 DUP2 SUB PUSH0 DUP4 ADD MSTORE PUSH2 0x2C47 DUP2 PUSH2 0x2C0E JUMP JUMPDEST SWAP1 POP SWAP2 SWAP1 POP JUMP JUMPDEST PUSH0 DUP2 MLOAD SWAP1 POP PUSH2 0x2C5C DUP2 PUSH2 0x246E JUMP JUMPDEST SWAP3 SWAP2 POP POP JUMP JUMPDEST PUSH0 PUSH1 0x20 DUP3 DUP5 SUB SLT ISZERO PUSH2 0x2C77 JUMPI PUSH2 0x2C76 PUSH2 0x2403 JUMP JUMPDEST JUMPDEST PUSH0 PUSH2 0x2C84 DUP5 DUP3 DUP6 ADD PUSH2 0x2C4E JUMP JUMPDEST SWAP2 POP POP SWAP3 SWAP2 POP POP JUMP JUMPDEST PUSH32 0x73757276657920646F6573206E6F742065786973740000000000000000000000 PUSH0 DUP3 ADD MSTORE POP JUMP JUMPDEST PUSH0 PUSH2 0x2CC1 PUSH1 0x15 DUP4 PUSH2 0x2374 JUMP JUMPDEST SWAP2 POP PUSH2 0x2CCC DUP3 PUSH2 0x2C8D JUMP JUMPDEST PUSH1 0x20 DUP3 ADD SWAP1 POP SWAP2 SWAP1 POP JUMP JUMPDEST PUSH0 PUSH1 0x20 DUP3 ADD SWAP1 POP DUP2 DUP2 SUB PUSH0 DUP4 ADD MSTORE PUSH2 0x2CEE DUP2 PUSH2 0x2CB5 JUMP JUMPDEST SWAP1 POP SWAP2 SWAP1 POP JUMP JUMPDEST PUSH0 PUSH2 0x2D07 PUSH2 0x2D02 DUP5 PUSH2 0x277D JUMP JUMPDEST PUSH2 0x2763 JUMP JUMPDEST SWAP1 POP DUP3 DUP2 MSTORE PUSH1 0x20 DUP2 ADD DUP5 DUP5 DUP5 ADD GT ISZERO PUSH2 0x2D23 JUMPI PUSH2 0x2D22 PUSH2 0x2701 JUMP JUMPDEST JUMPDEST PUSH2 0x2D2E DUP5 DUP3 DUP6 PUSH2 0x2384 JUMP JUMPDEST POP SWAP4 SWAP3 POP POP POP JUMP JUMPDEST PUSH0 DUP3 PUSH1 0x1F DUP4 ADD SLT PUSH2 0x2D4A JUMPI PUSH2 0x2D49 PUSH2 0x26FD JUMP JUMPDEST JUMPDEST DUP2 MLOAD PUSH2 0x2D5A DUP5 DUP3 PUSH1 0x20 DUP7 ADD PUSH2 0x2CF5 JUMP JUMPDEST SWAP2 POP POP SWAP3 SWAP2 POP POP JUMP JUMPDEST PUSH0 DUP2 MLOAD SWAP1 POP PUSH2 0x2D71 DUP2 PUSH2 0x260B JUMP JUMPDEST SWAP3 SWAP2 POP POP JUMP JUMPDEST PUSH0 DUP1 PUSH1 0x40 DUP4 DUP6 SUB SLT ISZERO PUSH2 0x2D8D JUMPI PUSH2 0x2D8C PUSH2 0x2403 JUMP JUMPDEST JUMPDEST PUSH0 DUP4 ADD MLOAD PUSH8 0xFFFFFFFFFFFFFFFF DUP2 GT ISZERO PUSH2 0x2DAA JUMPI PUSH2 0x2DA9 PUSH2 0x2407 JUMP JUMPDEST JUMPDEST PUSH2 0x2DB6 DUP6 DUP3 DUP7 ADD PUSH2 0x2D36 JUMP JUMPDEST SWAP3 POP POP PUSH1 0x20 PUSH2 0x2DC7 DUP6 DUP3 DUP7 ADD PUSH2 0x2D63 JUMP JUMPDEST SWAP2 POP POP SWAP3 POP SWAP3 SWAP1 POP JUMP JUMPDEST PUSH32 0x73757276657920697320616C726561647920696E207468652064657369726564 PUSH0 DUP3 ADD MSTORE PUSH32 0x2061637469766520737461746500000000000000000000000000000000000000 PUSH1 0x20 DUP3 ADD MSTORE POP JUMP JUMPDEST PUSH0 PUSH2 0x2E2B PUSH1 0x2D DUP4 PUSH2 0x2374 JUMP JUMPDEST SWAP2 POP PUSH2 0x2E36 DUP3 PUSH2 0x2DD1 JUMP JUMPDEST PUSH1 0x40 DUP3 ADD SWAP1 POP SWAP2 SWAP1 POP JUMP JUMPDEST PUSH0 PUSH1 0x20 DUP3 ADD SWAP1 POP DUP2 DUP2 SUB PUSH0 DUP4 ADD MSTORE PUSH2 0x2E58 DUP2 PUSH2 0x2E1F JUMP JUMPDEST SWAP1 POP SWAP2 SWAP1 POP JUMP JUMPDEST PUSH0 PUSH1 0x40 DUP3 ADD SWAP1 POP PUSH2 0x2E72 PUSH0 DUP4 ADD DUP6 PUSH2 0x2509 JUMP JUMPDEST PUSH2 0x2E7F PUSH1 0x20 DUP4 ADD DUP5 PUSH2 0x24E1 JUMP JUMPDEST SWAP4 SWAP3 POP POP POP JUMP JUMPDEST PUSH0 DUP2 SWAP1 POP SWAP2 SWAP1 POP JUMP JUMPDEST PUSH0 PUSH8 0xFFFFFFFFFFFFFFFF DUP3 AND SWAP1 POP SWAP2 SWAP1 POP JUMP JUMPDEST PUSH0 PUSH2 0x2EBC PUSH2 0x2EB7 PUSH2 0x2EB2 DUP5 PUSH2 0x2E86 JUMP JUMPDEST PUSH2 0x2993 JUMP JUMPDEST PUSH2 0x2E8F JUMP JUMPDEST SWAP1 POP SWAP2 SWAP1 POP JUMP JUMPDEST PUSH2 0x2ECC DUP2 PUSH2 0x2EA2 JUMP JUMPDEST DUP3 MSTORE POP POP JUMP JUMPDEST PUSH0 PUSH1 0x20 DUP3 ADD SWAP1 POP PUSH2 0x2EE5 PUSH0 DUP4 ADD DUP5 PUSH2 0x2EC3 JUMP JUMPDEST SWAP3 SWAP2 POP POP JUMP JUMPDEST PUSH32 0x696E76616C696420616464726573730000000000000000000000000000000000 PUSH0 DUP3 ADD MSTORE POP JUMP JUMPDEST PUSH0 PUSH2 0x2F1F PUSH1 0xF DUP4 PUSH2 0x2374 JUMP JUMPDEST SWAP2 POP PUSH2 0x2F2A DUP3 PUSH2 0x2EEB JUMP JUMPDEST PUSH1 0x20 DUP3 ADD SWAP1 POP SWAP2 SWAP1 POP JUMP JUMPDEST PUSH0 PUSH1 0x20 DUP3 ADD SWAP1 POP DUP2 DUP2 SUB PUSH0 DUP4 ADD MSTORE PUSH2 0x2F4C DUP2 PUSH2 0x2F13 JUMP JUMPDEST SWAP1 POP SWAP2 SWAP1 POP JUMP JUMPDEST PUSH32 0x696E76616C696420766F74652072657175657374000000000000000000000000 PUSH0 DUP3 ADD MSTORE POP JUMP JUMPDEST PUSH0 PUSH2 0x2F87 PUSH1 0x14 DUP4 PUSH2 0x2374 JUMP JUMPDEST SWAP2 POP PUSH2 0x2F92 DUP3 PUSH2 0x2F53 JUMP JUMPDEST PUSH1 0x20 DUP3 ADD SWAP1 POP SWAP2 SWAP1 POP JUMP JUMPDEST PUSH0 PUSH1 0x20 DUP3 ADD SWAP1 POP DUP2 DUP2 SUB PUSH0 DUP4 ADD MSTORE PUSH2 0x2FB4 DUP2 PUSH2 0x2F7B JUMP JUMPDEST SWAP1 POP SWAP2 SWAP1 POP JUMP JUMPDEST PUSH32 0x737572766579206973206E6F7420616374697661746564000000000000000000 PUSH0 DUP3 ADD MSTORE POP JUMP JUMPDEST PUSH0 PUSH2 0x2FEF PUSH1 0x17 DUP4 PUSH2 0x2374 JUMP JUMPDEST SWAP2 POP PUSH2 0x2FFA DUP3 PUSH2 0x2FBB JUMP JUMPDEST PUSH1 0x20 DUP3 ADD SWAP1 POP SWAP2 SWAP1 POP JUMP JUMPDEST PUSH0 PUSH1 0x20 DUP3 ADD SWAP1 POP DUP2 DUP2 SUB PUSH0 DUP4 ADD MSTORE PUSH2 0x301C DUP2 PUSH2 0x2FE3 JUMP JUMPDEST SWAP1 POP SWAP2 SWAP1 POP JUMP JUMPDEST PUSH0 PUSH1 0x20 DUP3 DUP5 SUB SLT ISZERO PUSH2 0x3038 JUMPI PUSH2 0x3037 PUSH2 0x2403 JUMP JUMPDEST JUMPDEST PUSH0 PUSH2 0x3045 DUP5 DUP3 DUP6 ADD PUSH2 0x2D63 JUMP JUMPDEST SWAP2 POP POP SWAP3 SWAP2 POP POP JUMP JUMPDEST PUSH32 0x616C6561647920766F7465640000000000000000000000000000000000000000 PUSH0 DUP3 ADD MSTORE POP JUMP JUMPDEST PUSH0 PUSH2 0x3082 PUSH1 0xC DUP4 PUSH2 0x2374 JUMP JUMPDEST SWAP2 POP PUSH2 0x308D DUP3 PUSH2 0x304E JUMP JUMPDEST PUSH1 0x20 DUP3 ADD SWAP1 POP SWAP2 SWAP1 POP JUMP JUMPDEST PUSH0 PUSH1 0x20 DUP3 ADD SWAP1 POP DUP2 DUP2 SUB PUSH0 DUP4 ADD MSTORE PUSH2 0x30AF DUP2 PUSH2 0x3076 JUMP JUMPDEST SWAP1 POP SWAP2 SWAP1 POP JUMP JUMPDEST PUSH0 PUSH1 0x40 DUP3 ADD SWAP1 POP PUSH2 0x30C9 PUSH0 DUP4 ADD DUP6 PUSH2 0x2509 JUMP JUMPDEST PUSH2 0x30D6 PUSH1 0x20 DUP4 ADD DUP5 PUSH2 0x2509 JUMP JUMPDEST SWAP4 SWAP3 POP POP POP JUMP JUMPDEST PUSH32 0x656D707479207175657374696F6E206973206E6F7420616C6C6F776564000000 PUSH0 DUP3 ADD MSTORE POP JUMP JUMPDEST PUSH0 PUSH2 0x3111 PUSH1 0x1D DUP4 PUSH2 0x2374 JUMP JUMPDEST SWAP2 POP PUSH2 0x311C DUP3 PUSH2 0x30DD JUMP JUMPDEST PUSH1 0x20 DUP3 ADD SWAP1 POP SWAP2 SWAP1 POP JUMP JUMPDEST PUSH0 PUSH1 0x20 DUP3 ADD SWAP1 POP DUP2 DUP2 SUB PUSH0 DUP4 ADD MSTORE PUSH2 0x313E DUP2 PUSH2 0x3105 JUMP JUMPDEST SWAP1 POP SWAP2 SWAP1 POP JUMP JUMPDEST PUSH32 0x4174206C656173742032206F7074696F6E732061726520726571756972656400 PUSH0 DUP3 ADD MSTORE POP JUMP JUMPDEST PUSH0 PUSH2 0x3179 PUSH1 0x1F DUP4 PUSH2 0x2374 JUMP JUMPDEST SWAP2 POP PUSH2 0x3184 DUP3 PUSH2 0x3145 JUMP JUMPDEST PUSH1 0x20 DUP3 ADD SWAP1 POP SWAP2 SWAP1 POP JUMP JUMPDEST PUSH0 PUSH1 0x20 DUP3 ADD SWAP1 POP DUP2 DUP2 SUB PUSH0 DUP4 ADD MSTORE PUSH2 0x31A6 DUP2 PUSH2 0x316D JUMP JUMPDEST SWAP1 POP SWAP2 SWAP1 POP JUMP JUMPDEST PUSH0 PUSH2 0x31B7 DUP3 PUSH2 0x2465 JUMP JUMPDEST SWAP2 POP PUSH2 0x31C2 DUP4 PUSH2 0x2465 JUMP JUMPDEST SWAP3 POP DUP3 DUP3 SUB SWAP1 POP DUP2 DUP2 GT ISZERO PUSH2 0x31DA JUMPI PUSH2 0x31D9 PUSH2 0x2B0A JUMP JUMPDEST JUMPDEST SWAP3 SWAP2 POP POP JUMP JUMPDEST PUSH32 0x6C617374657374206372756D6220646F6573206E6F742065786973742E205768 PUSH0 DUP3 ADD MSTORE PUSH32 0x6F206174652069743F0000000000000000000000000000000000000000000000 PUSH1 0x20 DUP3 ADD MSTORE POP JUMP JUMPDEST PUSH0 PUSH2 0x323A PUSH1 0x29 DUP4 PUSH2 0x2374 JUMP JUMPDEST SWAP2 POP PUSH2 0x3245 DUP3 PUSH2 0x31E0 JUMP JUMPDEST PUSH1 0x40 DUP3 ADD SWAP1 POP SWAP2 SWAP1 POP JUMP JUMPDEST PUSH0 PUSH1 0x20 DUP3 ADD SWAP1 POP DUP2 DUP2 SUB PUSH0 DUP4 ADD MSTORE PUSH2 0x3267 DUP2 PUSH2 0x322E JUMP JUMPDEST SWAP1 POP SWAP2 SWAP1 POP JUMP JUMPDEST PUSH0 DUP2 MLOAD SWAP1 POP SWAP2 SWAP1 POP JUMP JUMPDEST PUSH0 DUP3 DUP3 MSTORE PUSH1 0x20 DUP3 ADD SWAP1 POP SWAP3 SWAP2 POP POP JUMP JUMPDEST PUSH0 DUP2 SWAP1 POP PUSH1 0x20 DUP3 ADD SWAP1 POP SWAP2 SWAP1 POP JUMP JUMPDEST PUSH0 DUP3 DUP3 MSTORE PUSH1 0x20 DUP3 ADD SWAP1 POP SWAP3 SWAP2 POP POP JUMP JUMPDEST PUSH0 PUSH2 0x32B1 DUP3 PUSH2 0x236A JUMP JUMPDEST PUSH2 0x32BB DUP2 DUP6 PUSH2 0x3297 JUMP JUMPDEST SWAP4 POP PUSH2 0x32CB DUP2 DUP6 PUSH1 0x20 DUP7 ADD PUSH2 0x2384 JUMP JUMPDEST PUSH2 0x32D4 DUP2 PUSH2 0x2392 JUMP JUMPDEST DUP5 ADD SWAP2 POP POP SWAP3 SWAP2 POP POP JUMP JUMPDEST PUSH0 PUSH2 0x32EA DUP4 DUP4 PUSH2 0x32A7 JUMP JUMPDEST SWAP1 POP SWAP3 SWAP2 POP POP JUMP JUMPDEST PUSH0 PUSH1 0x20 DUP3 ADD SWAP1 POP SWAP2 SWAP1 POP JUMP JUMPDEST PUSH0 PUSH2 0x3308 DUP3 PUSH2 0x326E JUMP JUMPDEST PUSH2 0x3312 DUP2 DUP6 PUSH2 0x3278 JUMP JUMPDEST SWAP4 POP DUP4 PUSH1 0x20 DUP3 MUL DUP6 ADD PUSH2 0x3324 DUP6 PUSH2 0x3288 JUMP JUMPDEST DUP1 PUSH0 JUMPDEST DUP6 DUP2 LT ISZERO PUSH2 0x335F JUMPI DUP5 DUP5 SUB DUP10 MSTORE DUP2 MLOAD PUSH2 0x3340 DUP6 DUP3 PUSH2 0x32DF JUMP JUMPDEST SWAP5 POP PUSH2 0x334B DUP4 PUSH2 0x32F2 JUMP JUMPDEST SWAP3 POP PUSH1 0x20 DUP11 ADD SWAP10 POP POP PUSH1 0x1 DUP2 ADD SWAP1 POP PUSH2 0x3327 JUMP JUMPDEST POP DUP3 SWAP8 POP DUP8 SWAP6 POP POP POP POP POP POP SWAP3 SWAP2 POP POP JUMP JUMPDEST PUSH0 PUSH1 0x60 DUP3 ADD SWAP1 POP DUP2 DUP2 SUB PUSH0 DUP4 ADD MSTORE PUSH2 0x3389 DUP2 DUP7 PUSH2 0x23A2 JUMP JUMPDEST SWAP1 POP DUP2 DUP2 SUB PUSH1 0x20 DUP4 ADD MSTORE PUSH2 0x339D DUP2 DUP6 PUSH2 0x32FE JUMP JUMPDEST SWAP1 POP PUSH2 0x33AC PUSH1 0x40 DUP4 ADD DUP5 PUSH2 0x24E1 JUMP JUMPDEST SWAP5 SWAP4 POP POP POP POP JUMP JUMPDEST PUSH32 0x6D61782073757276657920636F756E7420706572206372756D62207265616368 PUSH0 DUP3 ADD MSTORE PUSH32 0x65642E20637265617465204372756D6220666972737400000000000000000000 PUSH1 0x20 DUP3 ADD MSTORE POP JUMP JUMPDEST PUSH0 PUSH2 0x340E PUSH1 0x36 DUP4 PUSH2 0x2374 JUMP JUMPDEST SWAP2 POP PUSH2 0x3419 DUP3 PUSH2 0x33B4 JUMP JUMPDEST PUSH1 0x40 DUP3 ADD SWAP1 POP SWAP2 SWAP1 POP JUMP JUMPDEST PUSH0 PUSH1 0x20 DUP3 ADD SWAP1 POP DUP2 DUP2 SUB PUSH0 DUP4 ADD MSTORE PUSH2 0x343B DUP2 PUSH2 0x3402 JUMP JUMPDEST SWAP1 POP SWAP2 SWAP1 POP JUMP JUMPDEST PUSH32 0x696E76616C696420636F756E7400000000000000000000000000000000000000 PUSH0 DUP3 ADD MSTORE POP JUMP JUMPDEST PUSH0 PUSH2 0x3476 PUSH1 0xD DUP4 PUSH2 0x2374 JUMP JUMPDEST SWAP2 POP PUSH2 0x3481 DUP3 PUSH2 0x3442 JUMP JUMPDEST PUSH1 0x20 DUP3 ADD SWAP1 POP SWAP2 SWAP1 POP JUMP JUMPDEST PUSH0 PUSH1 0x20 DUP3 ADD SWAP1 POP DUP2 DUP2 SUB PUSH0 DUP4 ADD MSTORE PUSH2 0x34A3 DUP2 PUSH2 0x346A JUMP JUMPDEST SWAP1 POP SWAP2 SWAP1 POP JUMP JUMPDEST PUSH32 0x696E76616C6964206E6577204944000000000000000000000000000000000000 PUSH0 DUP3 ADD MSTORE POP JUMP JUMPDEST PUSH0 PUSH2 0x34DE PUSH1 0xE DUP4 PUSH2 0x2374 JUMP JUMPDEST SWAP2 POP PUSH2 0x34E9 DUP3 PUSH2 0x34AA JUMP JUMPDEST PUSH1 0x20 DUP3 ADD SWAP1 POP SWAP2 SWAP1 POP JUMP JUMPDEST PUSH0 PUSH1 0x20 DUP3 ADD SWAP1 POP DUP2 DUP2 SUB PUSH0 DUP4 ADD MSTORE PUSH2 0x350B DUP2 PUSH2 0x34D2 JUMP JUMPDEST SWAP1 POP SWAP2 SWAP1 POP JUMP JUMPDEST PUSH32 0x696E76616C696420696E64657800000000000000000000000000000000000000 PUSH0 DUP3 ADD MSTORE POP JUMP JUMPDEST PUSH0 PUSH2 0x3546 PUSH1 0xD DUP4 PUSH2 0x2374 JUMP JUMPDEST SWAP2 POP PUSH2 0x3551 DUP3 PUSH2 0x3512 JUMP JUMPDEST PUSH1 0x20 DUP3 ADD SWAP1 POP SWAP2 SWAP1 POP JUMP JUMPDEST PUSH0 PUSH1 0x20 DUP3 ADD SWAP1 POP DUP2 DUP2 SUB PUSH0 DUP4 ADD MSTORE PUSH2 0x3573 DUP2 PUSH2 0x353A JUMP JUMPDEST SWAP1 POP SWAP2 SWAP1 POP JUMP JUMPDEST PUSH0 PUSH1 0x60 DUP3 ADD SWAP1 POP PUSH2 0x358D PUSH0 DUP4 ADD DUP7 PUSH2 0x26D5 JUMP JUMPDEST PUSH2 0x359A PUSH1 0x20 DUP4 ADD DUP6 PUSH2 0x2509 JUMP JUMPDEST PUSH2 0x35A7 PUSH1 0x40 DUP4 ADD DUP5 PUSH2 0x2509 JUMP JUMPDEST SWAP5 SWAP4 POP POP POP POP JUMP JUMPDEST PUSH0 DUP2 SWAP1 POP DUP2 PUSH0 MSTORE PUSH1 0x20 PUSH0 KECCAK256 SWAP1 POP SWAP2 SWAP1 POP JUMP JUMPDEST PUSH0 PUSH1 0x20 PUSH1 0x1F DUP4 ADD DIV SWAP1 POP SWAP2 SWAP1 POP JUMP JUMPDEST PUSH0 DUP3 DUP3 SHL SWAP1 POP SWAP3 SWAP2 POP POP JUMP JUMPDEST PUSH0 PUSH1 0x8 DUP4 MUL PUSH2 0x360B PUSH32 0xFFFFFFFFFFFFFFFFFFFFFFFFFFFFFFFFFFFFFFFFFFFFFFFFFFFFFFFFFFFFFFFF DUP3 PUSH2 0x35D0 JUMP JUMPDEST PUSH2 0x3615 DUP7 DUP4 PUSH2 0x35D0 JUMP JUMPDEST SWAP6 POP DUP1 NOT DUP5 AND SWAP4 POP DUP1 DUP7 AND DUP5 OR SWAP3 POP POP POP SWAP4 SWAP3 POP POP POP JUMP JUMPDEST PUSH0 PUSH2 0x3647 PUSH2 0x3642 PUSH2 0x363D DUP5 PUSH2 0x2465 JUMP JUMPDEST PUSH2 0x2993 JUMP JUMPDEST PUSH2 0x2465 JUMP JUMPDEST SWAP1 POP SWAP2 SWAP1 POP JUMP JUMPDEST PUSH0 DUP2 SWAP1 POP SWAP2 SWAP1 POP JUMP JUMPDEST PUSH2 0x3660 DUP4 PUSH2 0x362D JUMP JUMPDEST PUSH2 0x3674 PUSH2 0x366C DUP3 PUSH2 0x364E JUMP JUMPDEST DUP5 DUP5 SLOAD PUSH2 0x35DC JUMP JUMPDEST DUP3 SSTORE POP POP POP POP JUMP JUMPDEST PUSH0 SWAP1 JUMP JUMPDEST PUSH2 0x3688 PUSH2 0x367C JUMP JUMPDEST PUSH2 0x3693 DUP2 DUP5 DUP5 PUSH2 0x3657 JUMP JUMPDEST POP POP POP JUMP JUMPDEST JUMPDEST DUP2 DUP2 LT ISZERO PUSH2 0x36B6 JUMPI PUSH2 0x36AB PUSH0 DUP3 PUSH2 0x3680 JUMP JUMPDEST PUSH1 0x1 DUP2 ADD SWAP1 POP PUSH2 0x3699 JUMP JUMPDEST POP POP JUMP JUMPDEST PUSH1 0x1F DUP3 GT ISZERO PUSH2 0x36FB JUMPI PUSH2 0x36CC DUP2 PUSH2 0x35AF JUMP JUMPDEST PUSH2 0x36D5 DUP5 PUSH2 0x35C1 JUMP JUMPDEST DUP2 ADD PUSH1 0x20 DUP6 LT ISZERO PUSH2 0x36E4 JUMPI DUP2 SWAP1 POP JUMPDEST PUSH2 0x36F8 PUSH2 0x36F0 DUP6 PUSH2 0x35C1 JUMP JUMPDEST DUP4 ADD DUP3 PUSH2 0x3698 JUMP JUMPDEST POP POP JUMPDEST POP POP POP JUMP JUMPDEST PUSH0 DUP3 DUP3 SHR SWAP1 POP SWAP3 SWAP2 POP POP JUMP JUMPDEST PUSH0 PUSH2 0x371B PUSH0 NOT DUP5 PUSH1 0x8 MUL PUSH2 0x3700 JUMP JUMPDEST NOT DUP1 DUP4 AND SWAP2 POP POP SWAP3 SWAP2 POP POP JUMP JUMPDEST PUSH0 PUSH2 0x3733 DUP4 DUP4 PUSH2 0x370C JUMP JUMPDEST SWAP2 POP DUP3 PUSH1 0x2 MUL DUP3 OR SWAP1 POP SWAP3 SWAP2 POP POP JUMP JUMPDEST PUSH2 0x374C DUP3 PUSH2 0x236A JUMP JUMPDEST PUSH8 0xFFFFFFFFFFFFFFFF DUP2 GT ISZERO PUSH2 0x3765 JUMPI PUSH2 0x3764 PUSH2 0x2705 JUMP JUMPDEST JUMPDEST PUSH2 0x376F DUP3 SLOAD PUSH2 0x2A72 JUMP JUMPDEST PUSH2 0x377A DUP3 DUP3 DUP6 PUSH2 0x36BA JUMP JUMPDEST PUSH0 PUSH1 0x20 SWAP1 POP PUSH1 0x1F DUP4 GT PUSH1 0x1 DUP2 EQ PUSH2 0x37AB JUMPI PUSH0 DUP5 ISZERO PUSH2 0x3799 JUMPI DUP3 DUP8 ADD MLOAD SWAP1 POP JUMPDEST PUSH2 0x37A3 DUP6 DUP3 PUSH2 0x3728 JUMP JUMPDEST DUP7 SSTORE POP PUSH2 0x380A JUMP JUMPDEST PUSH1 0x1F NOT DUP5 AND PUSH2 0x37B9 DUP7 PUSH2 0x35AF JUMP JUMPDEST PUSH0 JUMPDEST DUP3 DUP2 LT ISZERO PUSH2 0x37E0 JUMPI DUP5 DUP10 ADD MLOAD DUP3 SSTORE PUSH1 0x1 DUP3 ADD SWAP2 POP PUSH1 0x20 DUP6 ADD SWAP5 POP PUSH1 0x20 DUP2 ADD SWAP1 POP PUSH2 0x37BB JUMP JUMPDEST DUP7 DUP4 LT ISZERO PUSH2 0x37FD JUMPI DUP5 DUP10 ADD MLOAD PUSH2 0x37F9 PUSH1 0x1F DUP10 AND DUP3 PUSH2 0x370C JUMP JUMPDEST DUP4 SSTORE POP JUMPDEST PUSH1 0x1 PUSH1 0x2 DUP9 MUL ADD DUP9 SSTORE POP POP POP JUMPDEST POP POP POP POP POP POP JUMP JUMPDEST PUSH0 DUP2 SWAP1 POP SWAP2 SWAP1 POP JUMP JUMPDEST PUSH0 PUSH2 0x3835 PUSH2 0x3830 PUSH2 0x382B DUP5 PUSH2 0x3812 JUMP JUMPDEST PUSH2 0x2993 JUMP JUMPDEST PUSH2 0x2465 JUMP JUMPDEST SWAP1 POP SWAP2 SWAP1 POP JUMP JUMPDEST PUSH2 0x3845 DUP2 PUSH2 0x381B JUMP JUMPDEST DUP3 MSTORE POP POP JUMP JUMPDEST PUSH0 PUSH1 0x20 DUP3 ADD SWAP1 POP PUSH2 0x385E PUSH0 DUP4 ADD DUP5 PUSH2 0x383C JUMP JUMPDEST SWAP3 SWAP2 POP POP JUMP JUMPDEST PUSH0 PUSH2 0x386E DUP3 PUSH2 0x2465 JUMP JUMPDEST SWAP2 POP PUSH2 0x3879 DUP4 PUSH2 0x2465 JUMP JUMPDEST SWAP3 POP DUP3 DUP3 ADD SWAP1 POP DUP1 DUP3 GT ISZERO PUSH2 0x3891 JUMPI PUSH2 0x3890 PUSH2 0x2B0A JUMP JUMPDEST JUMPDEST SWAP3 SWAP2 POP POP JUMP INVALID PUSH1 0x80 PUSH1 0x40 MSTORE CALLVALUE DUP1 ISZERO PUSH1 0xE JUMPI PUSH0 DUP1 REVERT JUMPDEST POP PUSH2 0x2448 DUP1 PUSH2 0x1C PUSH0 CODECOPY PUSH0 RETURN INVALID PUSH1 0x80 PUSH1 0x40 MSTORE CALLVALUE DUP1 ISZERO PUSH2 0xF JUMPI PUSH0 DUP1 REVERT JUMPDEST POP PUSH1 0x4 CALLDATASIZE LT PUSH2 0xCD JUMPI PUSH0 CALLDATALOAD PUSH1 0xE0 SHR DUP1 PUSH4 0x78E6B292 GT PUSH2 0x8A JUMPI DUP1 PUSH4 0x8DA5CB5B GT PUSH2 0x64 JUMPI DUP1 PUSH4 0x8DA5CB5B EQ PUSH2 0x20E JUMPI DUP1 PUSH4 0x9FE140B1 EQ PUSH2 0x22C JUMPI DUP1 PUSH4 0xB384ABEF EQ PUSH2 0x24A JUMPI DUP1 PUSH4 0xF2FDE38B EQ PUSH2 0x266 JUMPI PUSH2 0xCD JUMP JUMPDEST DUP1 PUSH4 0x78E6B292 EQ PUSH2 0x1B7 JUMPI DUP1 PUSH4 0x8129FC1C EQ PUSH2 0x1D3 JUMPI DUP1 PUSH4 0x86E68B90 EQ PUSH2 0x1DD JUMPI PUSH2 0xCD JUMP JUMPDEST DUP1 PUSH4 0xA277D6D EQ PUSH2 0xD1 JUMPI DUP1 PUSH4 0xC4960DD EQ PUSH2 0x101 JUMPI DUP1 PUSH4 0x256A7F6B EQ PUSH2 0x11D JUMPI DUP1 PUSH4 0x3358D9D9 EQ PUSH2 0x14D JUMPI DUP1 PUSH4 0x42545825 EQ PUSH2 0x17D JUMPI DUP1 PUSH4 0x715018A6 EQ PUSH2 0x1AD JUMPI JUMPDEST PUSH0 DUP1 REVERT JUMPDEST PUSH2 0xEB PUSH1 0x4 DUP1 CALLDATASIZE SUB DUP2 ADD SWAP1 PUSH2 0xE6 SWAP2 SWAP1 PUSH2 0x142D JUMP JUMPDEST PUSH2 0x282 JUMP JUMPDEST PUSH1 0x40 MLOAD PUSH2 0xF8 SWAP2 SWAP1 PUSH2 0x150F JUMP JUMPDEST PUSH1 0x40 MLOAD DUP1 SWAP2 SUB SWAP1 RETURN JUMPDEST PUSH2 0x11B PUSH1 0x4 DUP1 CALLDATASIZE SUB DUP2 ADD SWAP1 PUSH2 0x116 SWAP2 SWAP1 PUSH2 0x1782 JUMP JUMPDEST PUSH2 0x34C JUMP JUMPDEST STOP JUMPDEST PUSH2 0x137 PUSH1 0x4 DUP1 CALLDATASIZE SUB DUP2 ADD SWAP1 PUSH2 0x132 SWAP2 SWAP1 PUSH2 0x142D JUMP JUMPDEST PUSH2 0x4DB JUMP JUMPDEST PUSH1 0x40 MLOAD PUSH2 0x144 SWAP2 SWAP1 PUSH2 0x1925 JUMP JUMPDEST PUSH1 0x40 MLOAD DUP1 SWAP2 SUB SWAP1 RETURN JUMPDEST PUSH2 0x167 PUSH1 0x4 DUP1 CALLDATASIZE SUB DUP2 ADD SWAP1 PUSH2 0x162 SWAP2 SWAP1 PUSH2 0x142D JUMP JUMPDEST PUSH2 0x628 JUMP JUMPDEST PUSH1 0x40 MLOAD PUSH2 0x174 SWAP2 SWAP1 PUSH2 0x1954 JUMP JUMPDEST PUSH1 0x40 MLOAD DUP1 SWAP2 SUB SWAP1 RETURN JUMPDEST PUSH2 0x197 PUSH1 0x4 DUP1 CALLDATASIZE SUB DUP2 ADD SWAP1 PUSH2 0x192 SWAP2 SWAP1 PUSH2 0x19C7 JUMP JUMPDEST PUSH2 0x639 JUMP JUMPDEST PUSH1 0x40 MLOAD PUSH2 0x1A4 SWAP2 SWAP1 PUSH2 0x1954 JUMP JUMPDEST PUSH1 0x40 MLOAD DUP1 SWAP2 SUB SWAP1 RETURN JUMPDEST PUSH2 0x1B5 PUSH2 0x76C JUMP JUMPDEST STOP JUMPDEST PUSH2 0x1D1 PUSH1 0x4 DUP1 CALLDATASIZE SUB DUP2 ADD SWAP1 PUSH2 0x1CC SWAP2 SWAP1 PUSH2 0x1A05 JUMP JUMPDEST PUSH2 0x77F JUMP JUMPDEST STOP JUMPDEST PUSH2 0x1DB PUSH2 0x88A JUMP JUMPDEST STOP JUMPDEST PUSH2 0x1F7 PUSH1 0x4 DUP1 CALLDATASIZE SUB DUP2 ADD SWAP1 PUSH2 0x1F2 SWAP2 SWAP1 PUSH2 0x142D JUMP JUMPDEST PUSH2 0xA12 JUMP JUMPDEST PUSH1 0x40 MLOAD PUSH2 0x205 SWAP3 SWAP2 SWAP1 PUSH2 0x1A8B JUMP JUMPDEST PUSH1 0x40 MLOAD DUP1 SWAP2 SUB SWAP1 RETURN JUMPDEST PUSH2 0x216 PUSH2 0xAD2 JUMP JUMPDEST PUSH1 0x40 MLOAD PUSH2 0x223 SWAP2 SWAP1 PUSH2 0x1AC8 JUMP JUMPDEST PUSH1 0x40 MLOAD DUP1 SWAP2 SUB SWAP1 RETURN JUMPDEST PUSH2 0x234 PUSH2 0xB07 JUMP JUMPDEST PUSH1 0x40 MLOAD PUSH2 0x241 SWAP2 SWAP1 PUSH2 0x1AF0 JUMP JUMPDEST PUSH1 0x40 MLOAD DUP1 SWAP2 SUB SWAP1 RETURN JUMPDEST PUSH2 0x264 PUSH1 0x4 DUP1 CALLDATASIZE SUB DUP2 ADD SWAP1 PUSH2 0x25F SWAP2 SWAP1 PUSH2 0x1B09 JUMP JUMPDEST PUSH2 0xB12 JUMP JUMPDEST STOP JUMPDEST PUSH2 0x280 PUSH1 0x4 DUP1 CALLDATASIZE SUB DUP2 ADD SWAP1 PUSH2 0x27B SWAP2 SWAP1 PUSH2 0x1B47 JUMP JUMPDEST PUSH2 0xE75 JUMP JUMPDEST STOP JUMPDEST PUSH1 0x60 PUSH0 DUP3 LT ISZERO DUP1 ISZERO PUSH2 0x297 JUMPI POP PUSH0 DUP1 SLOAD SWAP1 POP DUP3 LT JUMPDEST PUSH2 0x2D6 JUMPI PUSH1 0x40 MLOAD PUSH32 0x8C379A000000000000000000000000000000000000000000000000000000000 DUP2 MSTORE PUSH1 0x4 ADD PUSH2 0x2CD SWAP1 PUSH2 0x1BBC JUMP JUMPDEST PUSH1 0x40 MLOAD DUP1 SWAP2 SUB SWAP1 REVERT JUMPDEST PUSH0 DUP3 DUP2 SLOAD DUP2 LT PUSH2 0x2E9 JUMPI PUSH2 0x2E8 PUSH2 0x1BDA JUMP JUMPDEST JUMPDEST SWAP1 PUSH0 MSTORE PUSH1 0x20 PUSH0 KECCAK256 SWAP1 PUSH1 0x5 MUL ADD PUSH1 0x2 ADD DUP1 SLOAD DUP1 PUSH1 0x20 MUL PUSH1 0x20 ADD PUSH1 0x40 MLOAD SWAP1 DUP2 ADD PUSH1 0x40 MSTORE DUP1 SWAP3 SWAP2 SWAP1 DUP2 DUP2 MSTORE PUSH1 0x20 ADD DUP3 DUP1 SLOAD DUP1 ISZERO PUSH2 0x340 JUMPI PUSH1 0x20 MUL DUP3 ADD SWAP2 SWAP1 PUSH0 MSTORE PUSH1 0x20 PUSH0 KECCAK256 SWAP1 JUMPDEST DUP2 SLOAD DUP2 MSTORE PUSH1 0x20 ADD SWAP1 PUSH1 0x1 ADD SWAP1 DUP1 DUP4 GT PUSH2 0x32C JUMPI JUMPDEST POP POP POP POP POP SWAP1 POP SWAP2 SWAP1 POP JUMP JUMPDEST PUSH2 0x354 PUSH2 0xEF9 JUMP JUMPDEST PUSH0 DUP4 MLOAD SUB PUSH2 0x397 JUMPI PUSH1 0x40 MLOAD PUSH32 0x8C379A000000000000000000000000000000000000000000000000000000000 DUP2 MSTORE PUSH1 0x4 ADD PUSH2 0x38E SWAP1 PUSH2 0x1C51 JUMP JUMPDEST PUSH1 0x40 MLOAD DUP1 SWAP2 SUB SWAP1 REVERT JUMPDEST PUSH1 0x2 DUP3 MLOAD LT ISZERO PUSH2 0x3DC JUMPI PUSH1 0x40 MLOAD PUSH32 0x8C379A000000000000000000000000000000000000000000000000000000000 DUP2 MSTORE PUSH1 0x4 ADD PUSH2 0x3D3 SWAP1 PUSH2 0x1CB9 JUMP JUMPDEST PUSH1 0x40 MLOAD DUP1 SWAP2 SUB SWAP1 REVERT JUMPDEST PUSH0 PUSH1 0x1 DUP2 PUSH1 0x1 DUP2 SLOAD ADD DUP1 DUP3 SSTORE DUP1 SWAP2 POP POP SUB SWAP1 PUSH0 MSTORE PUSH1 0x20 PUSH0 KECCAK256 SWAP1 POP POP PUSH0 DUP1 PUSH1 0x1 PUSH0 DUP1 SLOAD SWAP1 POP PUSH2 0x40A SWAP2 SWAP1 PUSH2 0x1D04 JUMP JUMPDEST DUP2 SLOAD DUP2 LT PUSH2 0x41B JUMPI PUSH2 0x41A PUSH2 0x1BDA JUMP JUMPDEST JUMPDEST SWAP1 PUSH0 MSTORE PUSH1 0x20 PUSH0 KECCAK256 SWAP1 PUSH1 0x5 MUL ADD SWAP1 POP PUSH0 DUP4 MLOAD PUSH8 0xFFFFFFFFFFFFFFFF DUP2 GT ISZERO PUSH2 0x445 JUMPI PUSH2 0x444 PUSH2 0x1547 JUMP JUMPDEST JUMPDEST PUSH1 0x40 MLOAD SWAP1 DUP1 DUP3 MSTORE DUP1 PUSH1 0x20 MUL PUSH1 0x20 ADD DUP3 ADD PUSH1 0x40 MSTORE DUP1 ISZERO PUSH2 0x473 JUMPI DUP2 PUSH1 0x20 ADD PUSH1 0x20 DUP3 MUL DUP1 CALLDATASIZE DUP4 CALLDATACOPY DUP1 DUP3 ADD SWAP2 POP POP SWAP1 POP JUMPDEST POP SWAP1 POP DUP5 DUP3 PUSH0 ADD SWAP1 DUP2 PUSH2 0x486 SWAP2 SWAP1 PUSH2 0x1F31 JUMP JUMPDEST POP DUP4 DUP3 PUSH1 0x1 ADD SWAP1 DUP1 MLOAD SWAP1 PUSH1 0x20 ADD SWAP1 PUSH2 0x49F SWAP3 SWAP2 SWAP1 PUSH2 0x12CC JUMP JUMPDEST POP DUP1 DUP3 PUSH1 0x2 ADD SWAP1 DUP1 MLOAD SWAP1 PUSH1 0x20 ADD SWAP1 PUSH2 0x4B8 SWAP3 SWAP2 SWAP1 PUSH2 0x1323 JUMP JUMPDEST POP DUP3 DUP3 PUSH1 0x3 ADD PUSH0 PUSH2 0x100 EXP DUP2 SLOAD DUP2 PUSH1 0xFF MUL NOT AND SWAP1 DUP4 ISZERO ISZERO MUL OR SWAP1 SSTORE POP POP POP POP POP POP JUMP JUMPDEST PUSH1 0x60 PUSH0 DUP3 LT ISZERO DUP1 ISZERO PUSH2 0x4F0 JUMPI POP PUSH0 DUP1 SLOAD SWAP1 POP DUP3 LT JUMPDEST PUSH2 0x52F JUMPI PUSH1 0x40 MLOAD PUSH32 0x8C379A000000000000000000000000000000000000000000000000000000000 DUP2 MSTORE PUSH1 0x4 ADD PUSH2 0x526 SWAP1 PUSH2 0x1BBC JUMP JUMPDEST PUSH1 0x40 MLOAD DUP1 SWAP2 SUB SWAP1 REVERT JUMPDEST PUSH0 DUP1 DUP4 DUP2 SLOAD DUP2 LT PUSH2 0x543 JUMPI PUSH2 0x542 PUSH2 0x1BDA JUMP JUMPDEST JUMPDEST SWAP1 PUSH0 MSTORE PUSH1 0x20 PUSH0 KECCAK256 SWAP1 PUSH1 0x5 MUL ADD PUSH1 0x1 ADD DUP1 SLOAD DUP1 PUSH1 0x20 MUL PUSH1 0x20 ADD PUSH1 0x40 MLOAD SWAP1 DUP2 ADD PUSH1 0x40 MSTORE DUP1 SWAP3 SWAP2 SWAP1 DUP2 DUP2 MSTORE PUSH1 0x20 ADD PUSH0 SWAP1 JUMPDEST DUP3 DUP3 LT ISZERO PUSH2 0x619 JUMPI DUP4 DUP3 SWAP1 PUSH0 MSTORE PUSH1 0x20 PUSH0 KECCAK256 ADD DUP1 SLOAD PUSH2 0x58E SWAP1 PUSH2 0x1D64 JUMP JUMPDEST DUP1 PUSH1 0x1F ADD PUSH1 0x20 DUP1 SWAP2 DIV MUL PUSH1 0x20 ADD PUSH1 0x40 MLOAD SWAP1 DUP2 ADD PUSH1 0x40 MSTORE DUP1 SWAP3 SWAP2 SWAP1 DUP2 DUP2 MSTORE PUSH1 0x20 ADD DUP3 DUP1 SLOAD PUSH2 0x5BA SWAP1 PUSH2 0x1D64 JUMP JUMPDEST DUP1 ISZERO PUSH2 0x605 JUMPI DUP1 PUSH1 0x1F LT PUSH2 0x5DC JUMPI PUSH2 0x100 DUP1 DUP4 SLOAD DIV MUL DUP4 MSTORE SWAP2 PUSH1 0x20 ADD SWAP2 PUSH2 0x605 JUMP JUMPDEST DUP3 ADD SWAP2 SWAP1 PUSH0 MSTORE PUSH1 0x20 PUSH0 KECCAK256 SWAP1 JUMPDEST DUP2 SLOAD DUP2 MSTORE SWAP1 PUSH1 0x1 ADD SWAP1 PUSH1 0x20 ADD DUP1 DUP4 GT PUSH2 0x5E8 JUMPI DUP3 SWAP1 SUB PUSH1 0x1F AND DUP3 ADD SWAP2 JUMPDEST POP POP POP POP POP DUP2 MSTORE PUSH1 0x20 ADD SWAP1 PUSH1 0x1 ADD SWAP1 PUSH2 0x571 JUMP JUMPDEST POP POP POP POP SWAP1 POP DUP1 SWAP2 POP POP SWAP2 SWAP1 POP JUMP JUMPDEST PUSH0 PUSH2 0x633 CALLER DUP4 PUSH2 0x639 JUMP JUMPDEST POP SWAP2 SWAP1 POP JUMP JUMPDEST PUSH0 DUP1 PUSH20 0xFFFFFFFFFFFFFFFFFFFFFFFFFFFFFFFFFFFFFFFF AND DUP4 PUSH20 0xFFFFFFFFFFFFFFFFFFFFFFFFFFFFFFFFFFFFFFFF AND SUB PUSH2 0x6A8 JUMPI PUSH1 0x40 MLOAD PUSH32 0x8C379A000000000000000000000000000000000000000000000000000000000 DUP2 MSTORE PUSH1 0x4 ADD PUSH2 0x69F SWAP1 PUSH2 0x204A JUMP JUMPDEST PUSH1 0x40 MLOAD DUP1 SWAP2 SUB SWAP1 REVERT JUMPDEST PUSH0 DUP3 LT ISZERO DUP1 ISZERO PUSH2 0x6BB JUMPI POP PUSH0 DUP1 SLOAD SWAP1 POP DUP3 LT JUMPDEST PUSH2 0x6FA JUMPI PUSH1 0x40 MLOAD PUSH32 0x8C379A000000000000000000000000000000000000000000000000000000000 DUP2 MSTORE PUSH1 0x4 ADD PUSH2 0x6F1 SWAP1 PUSH2 0x20B2 JUMP JUMPDEST PUSH1 0x40 MLOAD DUP1 SWAP2 SUB SWAP1 REVERT JUMPDEST PUSH0 DUP3 DUP2 SLOAD DUP2 LT PUSH2 0x70D JUMPI PUSH2 0x70C PUSH2 0x1BDA JUMP JUMPDEST JUMPDEST SWAP1 PUSH0 MSTORE PUSH1 0x20 PUSH0 KECCAK256 SWAP1 PUSH1 0x5 MUL ADD PUSH1 0x4 ADD PUSH0 DUP5 PUSH20 0xFFFFFFFFFFFFFFFFFFFFFFFFFFFFFFFFFFFFFFFF AND PUSH20 0xFFFFFFFFFFFFFFFFFFFFFFFFFFFFFFFFFFFFFFFF AND DUP2 MSTORE PUSH1 0x20 ADD SWAP1 DUP2 MSTORE PUSH1 0x20 ADD PUSH0 KECCAK256 PUSH0 SWAP1 SLOAD SWAP1 PUSH2 0x100 EXP SWAP1 DIV PUSH1 0xFF AND SWAP1 POP SWAP3 SWAP2 POP POP JUMP JUMPDEST PUSH2 0x774 PUSH2 0xEF9 JUMP JUMPDEST PUSH2 0x77D PUSH0 PUSH2 0xF80 JUMP JUMPDEST JUMP JUMPDEST PUSH2 0x787 PUSH2 0xEF9 JUMP JUMPDEST PUSH0 DUP3 LT ISZERO DUP1 ISZERO PUSH2 0x79A JUMPI POP PUSH0 DUP1 SLOAD SWAP1 POP DUP3 LT JUMPDEST PUSH2 0x7D9 JUMPI PUSH1 0x40 MLOAD PUSH32 0x8C379A000000000000000000000000000000000000000000000000000000000 DUP2 MSTORE PUSH1 0x4 ADD PUSH2 0x7D0 SWAP1 PUSH2 0x1BBC JUMP JUMPDEST PUSH1 0x40 MLOAD DUP1 SWAP2 SUB SWAP1 REVERT JUMPDEST DUP1 ISZERO ISZERO PUSH0 DUP4 DUP2 SLOAD DUP2 LT PUSH2 0x7EF JUMPI PUSH2 0x7EE PUSH2 0x1BDA JUMP JUMPDEST JUMPDEST SWAP1 PUSH0 MSTORE PUSH1 0x20 PUSH0 KECCAK256 SWAP1 PUSH1 0x5 MUL ADD PUSH1 0x3 ADD PUSH0 SWAP1 SLOAD SWAP1 PUSH2 0x100 EXP SWAP1 DIV PUSH1 0xFF AND ISZERO ISZERO SUB PUSH2 0x84D JUMPI PUSH1 0x40 MLOAD PUSH32 0x8C379A000000000000000000000000000000000000000000000000000000000 DUP2 MSTORE PUSH1 0x4 ADD PUSH2 0x844 SWAP1 PUSH2 0x2140 JUMP JUMPDEST PUSH1 0x40 MLOAD DUP1 SWAP2 SUB SWAP1 REVERT JUMPDEST DUP1 PUSH0 DUP4 DUP2 SLOAD DUP2 LT PUSH2 0x861 JUMPI PUSH2 0x860 PUSH2 0x1BDA JUMP JUMPDEST JUMPDEST SWAP1 PUSH0 MSTORE PUSH1 0x20 PUSH0 KECCAK256 SWAP1 PUSH1 0x5 MUL ADD PUSH1 0x3 ADD PUSH0 PUSH2 0x100 EXP DUP2 SLOAD DUP2 PUSH1 0xFF MUL NOT AND SWAP1 DUP4 ISZERO ISZERO MUL OR SWAP1 SSTORE POP POP POP JUMP JUMPDEST PUSH0 PUSH2 0x893 PUSH2 0x1051 JUMP JUMPDEST SWAP1 POP PUSH0 DUP2 PUSH0 ADD PUSH1 0x8 SWAP1 SLOAD SWAP1 PUSH2 0x100 EXP SWAP1 DIV PUSH1 0xFF AND ISZERO SWAP1 POP PUSH0 DUP3 PUSH0 ADD PUSH0 SWAP1 SLOAD SWAP1 PUSH2 0x100 EXP SWAP1 DIV PUSH8 0xFFFFFFFFFFFFFFFF AND SWAP1 POP PUSH0 DUP1 DUP3 PUSH8 0xFFFFFFFFFFFFFFFF AND EQ DUP1 ISZERO PUSH2 0x8DB JUMPI POP DUP3 JUMPDEST SWAP1 POP PUSH0 PUSH1 0x1 DUP4 PUSH8 0xFFFFFFFFFFFFFFFF AND EQ DUP1 ISZERO PUSH2 0x90E JUMPI POP PUSH0 ADDRESS PUSH20 0xFFFFFFFFFFFFFFFFFFFFFFFFFFFFFFFFFFFFFFFF AND EXTCODESIZE EQ JUMPDEST SWAP1 POP DUP2 ISZERO DUP1 ISZERO PUSH2 0x91C JUMPI POP DUP1 ISZERO JUMPDEST ISZERO PUSH2 0x953 JUMPI PUSH1 0x40 MLOAD PUSH32 0xF92EE8A900000000000000000000000000000000000000000000000000000000 DUP2 MSTORE PUSH1 0x4 ADD PUSH1 0x40 MLOAD DUP1 SWAP2 SUB SWAP1 REVERT JUMPDEST PUSH1 0x1 DUP6 PUSH0 ADD PUSH0 PUSH2 0x100 EXP DUP2 SLOAD DUP2 PUSH8 0xFFFFFFFFFFFFFFFF MUL NOT AND SWAP1 DUP4 PUSH8 0xFFFFFFFFFFFFFFFF AND MUL OR SWAP1 SSTORE POP DUP4 ISZERO PUSH2 0x9A0 JUMPI PUSH1 0x1 DUP6 PUSH0 ADD PUSH1 0x8 PUSH2 0x100 EXP DUP2 SLOAD DUP2 PUSH1 0xFF MUL NOT AND SWAP1 DUP4 ISZERO ISZERO MUL OR SWAP1 SSTORE POP JUMPDEST PUSH2 0x9A9 CALLER PUSH2 0x1064 JUMP JUMPDEST PUSH2 0x9B1 PUSH2 0x1078 JUMP JUMPDEST DUP4 ISZERO PUSH2 0xA0B JUMPI PUSH0 DUP6 PUSH0 ADD PUSH1 0x8 PUSH2 0x100 EXP DUP2 SLOAD DUP2 PUSH1 0xFF MUL NOT AND SWAP1 DUP4 ISZERO ISZERO MUL OR SWAP1 SSTORE POP PUSH32 0xC7F505B2F371AE2175EE4913F4499E1F2633A7B5936321EED1CDAEB6115181D2 PUSH1 0x1 PUSH1 0x40 MLOAD PUSH2 0xA02 SWAP2 SWAP1 PUSH2 0x21AA JUMP JUMPDEST PUSH1 0x40 MLOAD DUP1 SWAP2 SUB SWAP1 LOG1 JUMPDEST POP POP POP POP POP JUMP JUMPDEST PUSH0 DUP2 DUP2 SLOAD DUP2 LT PUSH2 0xA20 JUMPI PUSH0 DUP1 REVERT JUMPDEST SWAP1 PUSH0 MSTORE PUSH1 0x20 PUSH0 KECCAK256 SWAP1 PUSH1 0x5 MUL ADD PUSH0 SWAP2 POP SWAP1 POP DUP1 PUSH0 ADD DUP1 SLOAD PUSH2 0xA3F SWAP1 PUSH2 0x1D64 JUMP JUMPDEST DUP1 PUSH1 0x1F ADD PUSH1 0x20 DUP1 SWAP2 DIV MUL PUSH1 0x20 ADD PUSH1 0x40 MLOAD SWAP1 DUP2 ADD PUSH1 0x40 MSTORE DUP1 SWAP3 SWAP2 SWAP1 DUP2 DUP2 MSTORE PUSH1 0x20 ADD DUP3 DUP1 SLOAD PUSH2 0xA6B SWAP1 PUSH2 0x1D64 JUMP JUMPDEST DUP1 ISZERO PUSH2 0xAB6 JUMPI DUP1 PUSH1 0x1F LT PUSH2 0xA8D JUMPI PUSH2 0x100 DUP1 DUP4 SLOAD DIV MUL DUP4 MSTORE SWAP2 PUSH1 0x20 ADD SWAP2 PUSH2 0xAB6 JUMP JUMPDEST DUP3 ADD SWAP2 SWAP1 PUSH0 MSTORE PUSH1 0x20 PUSH0 KECCAK256 SWAP1 JUMPDEST DUP2 SLOAD DUP2 MSTORE SWAP1 PUSH1 0x1 ADD SWAP1 PUSH1 0x20 ADD DUP1 DUP4 GT PUSH2 0xA99 JUMPI DUP3 SWAP1 SUB PUSH1 0x1F AND DUP3 ADD SWAP2 JUMPDEST POP POP POP POP POP SWAP1 DUP1 PUSH1 0x3 ADD PUSH0 SWAP1 SLOAD SWAP1 PUSH2 0x100 EXP SWAP1 DIV PUSH1 0xFF AND SWAP1 POP DUP3 JUMP JUMPDEST PUSH0 DUP1 PUSH2 0xADC PUSH2 0x1082 JUMP JUMPDEST SWAP1 POP DUP1 PUSH0 ADD PUSH0 SWAP1 SLOAD SWAP1 PUSH2 0x100 EXP SWAP1 DIV PUSH20 0xFFFFFFFFFFFFFFFFFFFFFFFFFFFFFFFFFFFFFFFF AND SWAP2 POP POP SWAP1 JUMP JUMPDEST PUSH0 DUP1 DUP1 SLOAD SWAP1 POP SWAP1 POP SWAP1 JUMP JUMPDEST PUSH2 0xB1A PUSH2 0x10A9 JUMP JUMPDEST PUSH0 PUSH20 0xFFFFFFFFFFFFFFFFFFFFFFFFFFFFFFFFFFFFFFFF AND CALLER PUSH20 0xFFFFFFFFFFFFFFFFFFFFFFFFFFFFFFFFFFFFFFFF AND SUB PUSH2 0xB88 JUMPI PUSH1 0x40 MLOAD PUSH32 0x8C379A000000000000000000000000000000000000000000000000000000000 DUP2 MSTORE PUSH1 0x4 ADD PUSH2 0xB7F SWAP1 PUSH2 0x220D JUMP JUMPDEST PUSH1 0x40 MLOAD DUP1 SWAP2 SUB SWAP1 REVERT JUMPDEST PUSH0 DUP3 LT ISZERO DUP1 ISZERO PUSH2 0xB9B JUMPI POP PUSH0 DUP1 SLOAD SWAP1 POP DUP3 LT JUMPDEST PUSH2 0xBDA JUMPI PUSH1 0x40 MLOAD PUSH32 0x8C379A000000000000000000000000000000000000000000000000000000000 DUP2 MSTORE PUSH1 0x4 ADD PUSH2 0xBD1 SWAP1 PUSH2 0x2275 JUMP JUMPDEST PUSH1 0x40 MLOAD DUP1 SWAP2 SUB SWAP1 REVERT JUMPDEST PUSH0 DUP3 DUP2 SLOAD DUP2 LT PUSH2 0xBED JUMPI PUSH2 0xBEC PUSH2 0x1BDA JUMP JUMPDEST JUMPDEST SWAP1 PUSH0 MSTORE PUSH1 0x20 PUSH0 KECCAK256 SWAP1 PUSH1 0x5 MUL ADD PUSH1 0x3 ADD PUSH0 SWAP1 SLOAD SWAP1 PUSH2 0x100 EXP SWAP1 DIV PUSH1 0xFF AND PUSH2 0xC48 JUMPI PUSH1 0x40 MLOAD PUSH32 0x8C379A000000000000000000000000000000000000000000000000000000000 DUP2 MSTORE PUSH1 0x4 ADD PUSH2 0xC3F SWAP1 PUSH2 0x22DD JUMP JUMPDEST PUSH1 0x40 MLOAD DUP1 SWAP2 SUB SWAP1 REVERT JUMPDEST PUSH0 DUP3 DUP2 SLOAD DUP2 LT PUSH2 0xC5B JUMPI PUSH2 0xC5A PUSH2 0x1BDA JUMP JUMPDEST JUMPDEST SWAP1 PUSH0 MSTORE PUSH1 0x20 PUSH0 KECCAK256 SWAP1 PUSH1 0x5 MUL ADD PUSH1 0x1 ADD DUP1 SLOAD SWAP1 POP DUP2 LT PUSH2 0xCAF JUMPI PUSH1 0x40 MLOAD PUSH32 0x8C379A000000000000000000000000000000000000000000000000000000000 DUP2 MSTORE PUSH1 0x4 ADD PUSH2 0xCA6 SWAP1 PUSH2 0x2345 JUMP JUMPDEST PUSH1 0x40 MLOAD DUP1 SWAP2 SUB SWAP1 REVERT JUMPDEST PUSH0 ISZERO ISZERO PUSH0 DUP4 DUP2 SLOAD DUP2 LT PUSH2 0xCC5 JUMPI PUSH2 0xCC4 PUSH2 0x1BDA JUMP JUMPDEST JUMPDEST SWAP1 PUSH0 MSTORE PUSH1 0x20 PUSH0 KECCAK256 SWAP1 PUSH1 0x5 MUL ADD PUSH1 0x4 ADD PUSH0 CALLER PUSH20 0xFFFFFFFFFFFFFFFFFFFFFFFFFFFFFFFFFFFFFFFF AND PUSH20 0xFFFFFFFFFFFFFFFFFFFFFFFFFFFFFFFFFFFFFFFF AND DUP2 MSTORE PUSH1 0x20 ADD SWAP1 DUP2 MSTORE PUSH1 0x20 ADD PUSH0 KECCAK256 PUSH0 SWAP1 SLOAD SWAP1 PUSH2 0x100 EXP SWAP1 DIV PUSH1 0xFF AND ISZERO ISZERO EQ PUSH2 0xD5E JUMPI PUSH1 0x40 MLOAD PUSH32 0x8C379A000000000000000000000000000000000000000000000000000000000 DUP2 MSTORE PUSH1 0x4 ADD PUSH2 0xD55 SWAP1 PUSH2 0x23AD JUMP JUMPDEST PUSH1 0x40 MLOAD DUP1 SWAP2 SUB SWAP1 REVERT JUMPDEST PUSH1 0x1 PUSH0 DUP4 DUP2 SLOAD DUP2 LT PUSH2 0xD73 JUMPI PUSH2 0xD72 PUSH2 0x1BDA JUMP JUMPDEST JUMPDEST SWAP1 PUSH0 MSTORE PUSH1 0x20 PUSH0 KECCAK256 SWAP1 PUSH1 0x5 MUL ADD PUSH1 0x4 ADD PUSH0 CALLER PUSH20 0xFFFFFFFFFFFFFFFFFFFFFFFFFFFFFFFFFFFFFFFF AND PUSH20 0xFFFFFFFFFFFFFFFFFFFFFFFFFFFFFFFFFFFFFFFF AND DUP2 MSTORE PUSH1 0x20 ADD SWAP1 DUP2 MSTORE PUSH1 0x20 ADD PUSH0 KECCAK256 PUSH0 PUSH2 0x100 EXP DUP2 SLOAD DUP2 PUSH1 0xFF MUL NOT AND SWAP1 DUP4 ISZERO ISZERO MUL OR SWAP1 SSTORE POP PUSH0 DUP3 DUP2 SLOAD DUP2 LT PUSH2 0xDE6 JUMPI PUSH2 0xDE5 PUSH2 0x1BDA JUMP JUMPDEST JUMPDEST SWAP1 PUSH0 MSTORE PUSH1 0x20 PUSH0 KECCAK256 SWAP1 PUSH1 0x5 MUL ADD PUSH1 0x2 ADD DUP2 DUP2 SLOAD DUP2 LT PUSH2 0xE07 JUMPI PUSH2 0xE06 PUSH2 0x1BDA JUMP JUMPDEST JUMPDEST SWAP1 PUSH0 MSTORE PUSH1 0x20 PUSH0 KECCAK256 ADD PUSH0 DUP2 SLOAD DUP1 SWAP3 SWAP2 SWAP1 PUSH2 0xE1F SWAP1 PUSH2 0x23CB JUMP JUMPDEST SWAP2 SWAP1 POP SSTORE POP DUP1 DUP3 CALLER PUSH20 0xFFFFFFFFFFFFFFFFFFFFFFFFFFFFFFFFFFFFFFFF AND PUSH32 0xEA66F58E474BC09F580000E81F31B334D171DB387D0C6098BA47BD897741679B PUSH1 0x40 MLOAD PUSH1 0x40 MLOAD DUP1 SWAP2 SUB SWAP1 LOG4 PUSH2 0xE71 PUSH2 0x1128 JUMP JUMPDEST POP POP JUMP JUMPDEST PUSH2 0xE7D PUSH2 0xEF9 JUMP JUMPDEST PUSH0 PUSH20 0xFFFFFFFFFFFFFFFFFFFFFFFFFFFFFFFFFFFFFFFF AND DUP2 PUSH20 0xFFFFFFFFFFFFFFFFFFFFFFFFFFFFFFFFFFFFFFFF AND SUB PUSH2 0xEED JUMPI PUSH0 PUSH1 0x40 MLOAD PUSH32 0x1E4FBDF700000000000000000000000000000000000000000000000000000000 DUP2 MSTORE PUSH1 0x4 ADD PUSH2 0xEE4 SWAP2 SWAP1 PUSH2 0x1AC8 JUMP JUMPDEST PUSH1 0x40 MLOAD DUP1 SWAP2 SUB SWAP1 REVERT JUMPDEST PUSH2 0xEF6 DUP2 PUSH2 0xF80 JUMP JUMPDEST POP JUMP JUMPDEST PUSH2 0xF01 PUSH2 0x1167 JUMP JUMPDEST PUSH20 0xFFFFFFFFFFFFFFFFFFFFFFFFFFFFFFFFFFFFFFFF AND PUSH2 0xF1F PUSH2 0xAD2 JUMP JUMPDEST PUSH20 0xFFFFFFFFFFFFFFFFFFFFFFFFFFFFFFFFFFFFFFFF AND EQ PUSH2 0xF7E JUMPI PUSH2 0xF42 PUSH2 0x1167 JUMP JUMPDEST PUSH1 0x40 MLOAD PUSH32 0x118CDAA700000000000000000000000000000000000000000000000000000000 DUP2 MSTORE PUSH1 0x4 ADD PUSH2 0xF75 SWAP2 SWAP1 PUSH2 0x1AC8 JUMP JUMPDEST PUSH1 0x40 MLOAD DUP1 SWAP2 SUB SWAP1 REVERT JUMPDEST JUMP JUMPDEST PUSH0 PUSH2 0xF89 PUSH2 0x1082 JUMP JUMPDEST SWAP1 POP PUSH0 DUP2 PUSH0 ADD PUSH0 SWAP1 SLOAD SWAP1 PUSH2 0x100 EXP SWAP1 DIV PUSH20 0xFFFFFFFFFFFFFFFFFFFFFFFFFFFFFFFFFFFFFFFF AND SWAP1 POP DUP3 DUP3 PUSH0 ADD PUSH0 PUSH2 0x100 EXP DUP2 SLOAD DUP2 PUSH20 0xFFFFFFFFFFFFFFFFFFFFFFFFFFFFFFFFFFFFFFFF MUL NOT AND SWAP1 DUP4 PUSH20 0xFFFFFFFFFFFFFFFFFFFFFFFFFFFFFFFFFFFFFFFF AND MUL OR SWAP1 SSTORE POP DUP3 PUSH20 0xFFFFFFFFFFFFFFFFFFFFFFFFFFFFFFFFFFFFFFFF AND DUP2 PUSH20 0xFFFFFFFFFFFFFFFFFFFFFFFFFFFFFFFFFFFFFFFF AND PUSH32 0x8BE0079C531659141344CD1FD0A4F28419497F9722A3DAAFE3B4186F6B6457E0 PUSH1 0x40 MLOAD PUSH1 0x40 MLOAD DUP1 SWAP2 SUB SWAP1 LOG3 POP POP POP JUMP JUMPDEST PUSH0 DUP1 PUSH2 0x105B PUSH2 0x116E JUMP JUMPDEST SWAP1 POP DUP1 SWAP2 POP POP SWAP1 JUMP JUMPDEST PUSH2 0x106C PUSH2 0x1197 JUMP JUMPDEST PUSH2 0x1075 DUP2 PUSH2 0x11D7 JUMP JUMPDEST POP JUMP JUMPDEST PUSH2 0x1080 PUSH2 0x1197 JUMP JUMPDEST JUMP JUMPDEST PUSH0 PUSH32 0x9016D09D72D40FDAE2FD8CEAC6B6234C7706214FD39C1CD1E609A0528C199300 SWAP1 POP SWAP1 JUMP JUMPDEST PUSH2 0x10B1 PUSH2 0x125B JUMP JUMPDEST ISZERO PUSH2 0x10E8 JUMPI PUSH1 0x40 MLOAD PUSH32 0x3EE5AEB500000000000000000000000000000000000000000000000000000000 DUP2 MSTORE PUSH1 0x4 ADD PUSH1 0x40 MLOAD DUP1 SWAP2 SUB SWAP1 REVERT JUMPDEST PUSH2 0x1126 PUSH1 0x1 PUSH2 0x1118 PUSH32 0x9B779B17422D0DF92223018B32B4D1FA46E071723D6817E2486D003BECC55F00 PUSH0 SHL PUSH2 0x1294 JUMP JUMPDEST PUSH2 0x129D SWAP1 SWAP2 SWAP1 PUSH4 0xFFFFFFFF AND JUMP JUMPDEST JUMP JUMPDEST PUSH2 0x1165 PUSH0 PUSH2 0x1157 PUSH32 0x9B779B17422D0DF92223018B32B4D1FA46E071723D6817E2486D003BECC55F00 PUSH0 SHL PUSH2 0x1294 JUMP JUMPDEST PUSH2 0x129D SWAP1 SWAP2 SWAP1 PUSH4 0xFFFFFFFF AND JUMP JUMPDEST JUMP JUMPDEST PUSH0 CALLER SWAP1 POP SWAP1 JUMP JUMPDEST PUSH0 PUSH32 0xF0C57E16840DF040F15088DC2F81FE391C3923BEC73E23A9662EFC9C229C6A00 PUSH0 SHL SWAP1 POP SWAP1 JUMP JUMPDEST PUSH2 0x119F PUSH2 0x12A4 JUMP JUMPDEST PUSH2 0x11D5 JUMPI PUSH1 0x40 MLOAD PUSH32 0xD7E6BCF800000000000000000000000000000000000000000000000000000000 DUP2 MSTORE PUSH1 0x4 ADD PUSH1 0x40 MLOAD DUP1 SWAP2 SUB SWAP1 REVERT JUMPDEST JUMP JUMPDEST PUSH2 0x11DF PUSH2 0x1197 JUMP JUMPDEST PUSH0 PUSH20 0xFFFFFFFFFFFFFFFFFFFFFFFFFFFFFFFFFFFFFFFF AND DUP2 PUSH20 0xFFFFFFFFFFFFFFFFFFFFFFFFFFFFFFFFFFFFFFFF AND SUB PUSH2 0x124F JUMPI PUSH0 PUSH1 0x40 MLOAD PUSH32 0x1E4FBDF700000000000000000000000000000000000000000000000000000000 DUP2 MSTORE PUSH1 0x4 ADD PUSH2 0x1246 SWAP2 SWAP1 PUSH2 0x1AC8 JUMP JUMPDEST PUSH1 0x40 MLOAD DUP1 SWAP2 SUB SWAP1 REVERT JUMPDEST PUSH2 0x1258 DUP2 PUSH2 0xF80 JUMP JUMPDEST POP JUMP JUMPDEST PUSH0 PUSH2 0x128F PUSH2 0x128A PUSH32 0x9B779B17422D0DF92223018B32B4D1FA46E071723D6817E2486D003BECC55F00 PUSH0 SHL PUSH2 0x1294 JUMP JUMPDEST PUSH2 0x12C2 JUMP JUMPDEST SWAP1 POP SWAP1 JUMP JUMPDEST PUSH0 DUP2 SWAP1 POP SWAP2 SWAP1 POP JUMP JUMPDEST DUP1 DUP3 TSTORE POP POP JUMP JUMPDEST PUSH0 PUSH2 0x12AD PUSH2 0x1051 JUMP JUMPDEST PUSH0 ADD PUSH1 0x8 SWAP1 SLOAD SWAP1 PUSH2 0x100 EXP SWAP1 DIV PUSH1 0xFF AND SWAP1 POP SWAP1 JUMP JUMPDEST PUSH0 DUP2 TLOAD SWAP1 POP SWAP2 SWAP1 POP JUMP JUMPDEST DUP3 DUP1 SLOAD DUP3 DUP3 SSTORE SWAP1 PUSH0 MSTORE PUSH1 0x20 PUSH0 KECCAK256 SWAP1 DUP2 ADD SWAP3 DUP3 ISZERO PUSH2 0x1312 JUMPI SWAP2 PUSH1 0x20 MUL DUP3 ADD JUMPDEST DUP3 DUP2 GT ISZERO PUSH2 0x1311 JUMPI DUP3 MLOAD DUP3 SWAP1 DUP2 PUSH2 0x1301 SWAP2 SWAP1 PUSH2 0x1F31 JUMP JUMPDEST POP SWAP2 PUSH1 0x20 ADD SWAP2 SWAP1 PUSH1 0x1 ADD SWAP1 PUSH2 0x12EA JUMP JUMPDEST JUMPDEST POP SWAP1 POP PUSH2 0x131F SWAP2 SWAP1 PUSH2 0x136E JUMP JUMPDEST POP SWAP1 JUMP JUMPDEST DUP3 DUP1 SLOAD DUP3 DUP3 SSTORE SWAP1 PUSH0 MSTORE PUSH1 0x20 PUSH0 KECCAK256 SWAP1 DUP2 ADD SWAP3 DUP3 ISZERO PUSH2 0x135D JUMPI SWAP2 PUSH1 0x20 MUL DUP3 ADD JUMPDEST DUP3 DUP2 GT ISZERO PUSH2 0x135C JUMPI DUP3 MLOAD DUP3 SSTORE SWAP2 PUSH1 0x20 ADD SWAP2 SWAP1 PUSH1 0x1 ADD SWAP1 PUSH2 0x1341 JUMP JUMPDEST JUMPDEST POP SWAP1 POP PUSH2 0x136A SWAP2 SWAP1 PUSH2 0x1391 JUMP JUMPDEST POP SWAP1 JUMP JUMPDEST JUMPDEST DUP1 DUP3 GT ISZERO PUSH2 0x138D JUMPI PUSH0 DUP2 DUP2 PUSH2 0x1384 SWAP2 SWAP1 PUSH2 0x13AC JUMP JUMPDEST POP PUSH1 0x1 ADD PUSH2 0x136F JUMP JUMPDEST POP SWAP1 JUMP JUMPDEST JUMPDEST DUP1 DUP3 GT ISZERO PUSH2 0x13A8 JUMPI PUSH0 DUP2 PUSH0 SWAP1 SSTORE POP PUSH1 0x1 ADD PUSH2 0x1392 JUMP JUMPDEST POP SWAP1 JUMP JUMPDEST POP DUP1 SLOAD PUSH2 0x13B8 SWAP1 PUSH2 0x1D64 JUMP JUMPDEST PUSH0 DUP3 SSTORE DUP1 PUSH1 0x1F LT PUSH2 0x13C9 JUMPI POP PUSH2 0x13E6 JUMP JUMPDEST PUSH1 0x1F ADD PUSH1 0x20 SWAP1 DIV SWAP1 PUSH0 MSTORE PUSH1 0x20 PUSH0 KECCAK256 SWAP1 DUP2 ADD SWAP1 PUSH2 0x13E5 SWAP2 SWAP1 PUSH2 0x1391 JUMP JUMPDEST JUMPDEST POP JUMP JUMPDEST PUSH0 PUSH1 0x40 MLOAD SWAP1 POP SWAP1 JUMP JUMPDEST PUSH0 DUP1 REVERT JUMPDEST PUSH0 DUP1 REVERT JUMPDEST PUSH0 DUP2 SWAP1 POP SWAP2 SWAP1 POP JUMP JUMPDEST PUSH2 0x140C DUP2 PUSH2 0x13FA JUMP JUMPDEST DUP2 EQ PUSH2 0x1416 JUMPI PUSH0 DUP1 REVERT JUMPDEST POP JUMP JUMPDEST PUSH0 DUP2 CALLDATALOAD SWAP1 POP PUSH2 0x1427 DUP2 PUSH2 0x1403 JUMP JUMPDEST SWAP3 SWAP2 POP POP JUMP JUMPDEST PUSH0 PUSH1 0x20 DUP3 DUP5 SUB SLT ISZERO PUSH2 0x1442 JUMPI PUSH2 0x1441 PUSH2 0x13F2 JUMP JUMPDEST JUMPDEST PUSH0 PUSH2 0x144F DUP5 DUP3 DUP6 ADD PUSH2 0x1419 JUMP JUMPDEST SWAP2 POP POP SWAP3 SWAP2 POP POP JUMP JUMPDEST PUSH0 DUP2 MLOAD SWAP1 POP SWAP2 SWAP1 POP JUMP JUMPDEST PUSH0 DUP3 DUP3 MSTORE PUSH1 0x20 DUP3 ADD SWAP1 POP SWAP3 SWAP2 POP POP JUMP JUMPDEST PUSH0 DUP2 SWAP1 POP PUSH1 0x20 DUP3 ADD SWAP1 POP SWAP2 SWAP1 POP JUMP JUMPDEST PUSH2 0x148A DUP2 PUSH2 0x13FA JUMP JUMPDEST DUP3 MSTORE POP POP JUMP JUMPDEST PUSH0 PUSH2 0x149B DUP4 DUP4 PUSH2 0x1481 JUMP JUMPDEST PUSH1 0x20 DUP4 ADD SWAP1 POP SWAP3 SWAP2 POP POP JUMP JUMPDEST PUSH0 PUSH1 0x20 DUP3 ADD SWAP1 POP SWAP2 SWAP1 POP JUMP JUMPDEST PUSH0 PUSH2 0x14BD DUP3 PUSH2 0x1458 JUMP JUMPDEST PUSH2 0x14C7 DUP2 DUP6 PUSH2 0x1462 JUMP JUMPDEST SWAP4 POP PUSH2 0x14D2 DUP4 PUSH2 0x1472 JUMP JUMPDEST DUP1 PUSH0 JUMPDEST DUP4 DUP2 LT ISZERO PUSH2 0x1502 JUMPI DUP2 MLOAD PUSH2 0x14E9 DUP9 DUP3 PUSH2 0x1490 JUMP JUMPDEST SWAP8 POP PUSH2 0x14F4 DUP4 PUSH2 0x14A7 JUMP JUMPDEST SWAP3 POP POP PUSH1 0x1 DUP2 ADD SWAP1 POP PUSH2 0x14D5 JUMP JUMPDEST POP DUP6 SWAP4 POP POP POP POP SWAP3 SWAP2 POP POP JUMP JUMPDEST PUSH0 PUSH1 0x20 DUP3 ADD SWAP1 POP DUP2 DUP2 SUB PUSH0 DUP4 ADD MSTORE PUSH2 0x1527 DUP2 DUP5 PUSH2 0x14B3 JUMP JUMPDEST SWAP1 POP SWAP3 SWAP2 POP POP JUMP JUMPDEST PUSH0 DUP1 REVERT JUMPDEST PUSH0 DUP1 REVERT JUMPDEST PUSH0 PUSH1 0x1F NOT PUSH1 0x1F DUP4 ADD AND SWAP1 POP SWAP2 SWAP1 POP JUMP JUMPDEST PUSH32 0x4E487B7100000000000000000000000000000000000000000000000000000000 PUSH0 MSTORE PUSH1 0x41 PUSH1 0x4 MSTORE PUSH1 0x24 PUSH0 REVERT JUMPDEST PUSH2 0x157D DUP3 PUSH2 0x1537 JUMP JUMPDEST DUP2 ADD DUP2 DUP2 LT PUSH8 0xFFFFFFFFFFFFFFFF DUP3 GT OR ISZERO PUSH2 0x159C JUMPI PUSH2 0x159B PUSH2 0x1547 JUMP JUMPDEST JUMPDEST DUP1 PUSH1 0x40 MSTORE POP POP POP JUMP JUMPDEST PUSH0 PUSH2 0x15AE PUSH2 0x13E9 JUMP JUMPDEST SWAP1 POP PUSH2 0x15BA DUP3 DUP3 PUSH2 0x1574 JUMP JUMPDEST SWAP2 SWAP1 POP JUMP JUMPDEST PUSH0 PUSH8 0xFFFFFFFFFFFFFFFF DUP3 GT ISZERO PUSH2 0x15D9 JUMPI PUSH2 0x15D8 PUSH2 0x1547 JUMP JUMPDEST JUMPDEST PUSH2 0x15E2 DUP3 PUSH2 0x1537 JUMP JUMPDEST SWAP1 POP PUSH1 0x20 DUP2 ADD SWAP1 POP SWAP2 SWAP1 POP JUMP JUMPDEST DUP3 DUP2 DUP4 CALLDATACOPY PUSH0 DUP4 DUP4 ADD MSTORE POP POP POP JUMP JUMPDEST PUSH0 PUSH2 0x160F PUSH2 0x160A DUP5 PUSH2 0x15BF JUMP JUMPDEST PUSH2 0x15A5 JUMP JUMPDEST SWAP1 POP DUP3 DUP2 MSTORE PUSH1 0x20 DUP2 ADD DUP5 DUP5 DUP5 ADD GT ISZERO PUSH2 0x162B JUMPI PUSH2 0x162A PUSH2 0x1533 JUMP JUMPDEST JUMPDEST PUSH2 0x1636 DUP5 DUP3 DUP6 PUSH2 0x15EF JUMP JUMPDEST POP SWAP4 SWAP3 POP POP POP JUMP JUMPDEST PUSH0 DUP3 PUSH1 0x1F DUP4 ADD SLT PUSH2 0x1652 JUMPI PUSH2 0x1651 PUSH2 0x152F JUMP JUMPDEST JUMPDEST DUP2 CALLDATALOAD PUSH2 0x1662 DUP5 DUP3 PUSH1 0x20 DUP7 ADD PUSH2 0x15FD JUMP JUMPDEST SWAP2 POP POP SWAP3 SWAP2 POP POP JUMP JUMPDEST PUSH0 PUSH8 0xFFFFFFFFFFFFFFFF DUP3 GT ISZERO PUSH2 0x1685 JUMPI PUSH2 0x1684 PUSH2 0x1547 JUMP JUMPDEST JUMPDEST PUSH1 0x20 DUP3 MUL SWAP1 POP PUSH1 0x20 DUP2 ADD SWAP1 POP SWAP2 SWAP1 POP JUMP JUMPDEST PUSH0 DUP1 REVERT JUMPDEST PUSH0 PUSH2 0x16AC PUSH2 0x16A7 DUP5 PUSH2 0x166B JUMP JUMPDEST PUSH2 0x15A5 JUMP JUMPDEST SWAP1 POP DUP1 DUP4 DUP3 MSTORE PUSH1 0x20 DUP3 ADD SWAP1 POP PUSH1 0x20 DUP5 MUL DUP4 ADD DUP6 DUP2 GT ISZERO PUSH2 0x16CF JUMPI PUSH2 0x16CE PUSH2 0x1696 JUMP JUMPDEST JUMPDEST DUP4 JUMPDEST DUP2 DUP2 LT ISZERO PUSH2 0x1716 JUMPI DUP1 CALLDATALOAD PUSH8 0xFFFFFFFFFFFFFFFF DUP2 GT ISZERO PUSH2 0x16F4 JUMPI PUSH2 0x16F3 PUSH2 0x152F JUMP JUMPDEST JUMPDEST DUP1 DUP7 ADD PUSH2 0x1701 DUP10 DUP3 PUSH2 0x163E JUMP JUMPDEST DUP6 MSTORE PUSH1 0x20 DUP6 ADD SWAP5 POP POP POP PUSH1 0x20 DUP2 ADD SWAP1 POP PUSH2 0x16D1 JUMP JUMPDEST POP POP POP SWAP4 SWAP3 POP POP POP JUMP JUMPDEST PUSH0 DUP3 PUSH1 0x1F DUP4 ADD SLT PUSH2 0x1734 JUMPI PUSH2 0x1733 PUSH2 0x152F JUMP JUMPDEST JUMPDEST DUP2 CALLDATALOAD PUSH2 0x1744 DUP5 DUP3 PUSH1 0x20 DUP7 ADD PUSH2 0x169A JUMP JUMPDEST SWAP2 POP POP SWAP3 SWAP2 POP POP JUMP JUMPDEST PUSH0 DUP2 ISZERO ISZERO SWAP1 POP SWAP2 SWAP1 POP JUMP JUMPDEST PUSH2 0x1761 DUP2 PUSH2 0x174D JUMP JUMPDEST DUP2 EQ PUSH2 0x176B JUMPI PUSH0 DUP1 REVERT JUMPDEST POP JUMP JUMPDEST PUSH0 DUP2 CALLDATALOAD SWAP1 POP PUSH2 0x177C DUP2 PUSH2 0x1758 JUMP JUMPDEST SWAP3 SWAP2 POP POP JUMP JUMPDEST PUSH0 DUP1 PUSH0 PUSH1 0x60 DUP5 DUP7 SUB SLT ISZERO PUSH2 0x1799 JUMPI PUSH2 0x1798 PUSH2 0x13F2 JUMP JUMPDEST JUMPDEST PUSH0 DUP5 ADD CALLDATALOAD PUSH8 0xFFFFFFFFFFFFFFFF DUP2 GT ISZERO PUSH2 0x17B6 JUMPI PUSH2 0x17B5 PUSH2 0x13F6 JUMP JUMPDEST JUMPDEST PUSH2 0x17C2 DUP7 DUP3 DUP8 ADD PUSH2 0x163E JUMP JUMPDEST SWAP4 POP POP PUSH1 0x20 DUP5 ADD CALLDATALOAD PUSH8 0xFFFFFFFFFFFFFFFF DUP2 GT ISZERO PUSH2 0x17E3 JUMPI PUSH2 0x17E2 PUSH2 0x13F6 JUMP JUMPDEST JUMPDEST PUSH2 0x17EF DUP7 DUP3 DUP8 ADD PUSH2 0x1720 JUMP JUMPDEST SWAP3 POP POP PUSH1 0x40 PUSH2 0x1800 DUP7 DUP3 DUP8 ADD PUSH2 0x176E JUMP JUMPDEST SWAP2 POP POP SWAP3 POP SWAP3 POP SWAP3 JUMP JUMPDEST PUSH0 DUP2 MLOAD SWAP1 POP SWAP2 SWAP1 POP JUMP JUMPDEST PUSH0 DUP3 DUP3 MSTORE PUSH1 0x20 DUP3 ADD SWAP1 POP SWAP3 SWAP2 POP POP JUMP JUMPDEST PUSH0 DUP2 SWAP1 POP PUSH1 0x20 DUP3 ADD SWAP1 POP SWAP2 SWAP1 POP JUMP JUMPDEST PUSH0 DUP2 MLOAD SWAP1 POP SWAP2 SWAP1 POP JUMP JUMPDEST PUSH0 DUP3 DUP3 MSTORE PUSH1 0x20 DUP3 ADD SWAP1 POP SWAP3 SWAP2 POP POP JUMP JUMPDEST DUP3 DUP2 DUP4 MCOPY PUSH0 DUP4 DUP4 ADD MSTORE POP POP POP JUMP JUMPDEST PUSH0 PUSH2 0x1865 DUP3 PUSH2 0x1833 JUMP JUMPDEST PUSH2 0x186F DUP2 DUP6 PUSH2 0x183D JUMP JUMPDEST SWAP4 POP PUSH2 0x187F DUP2 DUP6 PUSH1 0x20 DUP7 ADD PUSH2 0x184D JUMP JUMPDEST PUSH2 0x1888 DUP2 PUSH2 0x1537 JUMP JUMPDEST DUP5 ADD SWAP2 POP POP SWAP3 SWAP2 POP POP JUMP JUMPDEST PUSH0 PUSH2 0x189E DUP4 DUP4 PUSH2 0x185B JUMP JUMPDEST SWAP1 POP SWAP3 SWAP2 POP POP JUMP JUMPDEST PUSH0 PUSH1 0x20 DUP3 ADD SWAP1 POP SWAP2 SWAP1 POP JUMP JUMPDEST PUSH0 PUSH2 0x18BC DUP3 PUSH2 0x180A JUMP JUMPDEST PUSH2 0x18C6 DUP2 DUP6 PUSH2 0x1814 JUMP JUMPDEST SWAP4 POP DUP4 PUSH1 0x20 DUP3 MUL DUP6 ADD PUSH2 0x18D8 DUP6 PUSH2 0x1824 JUMP JUMPDEST DUP1 PUSH0 JUMPDEST DUP6 DUP2 LT ISZERO PUSH2 0x1913 JUMPI DUP5 DUP5 SUB DUP10 MSTORE DUP2 MLOAD PUSH2 0x18F4 DUP6 DUP3 PUSH2 0x1893 JUMP JUMPDEST SWAP5 POP PUSH2 0x18FF DUP4 PUSH2 0x18A6 JUMP JUMPDEST SWAP3 POP PUSH1 0x20 DUP11 ADD SWAP10 POP POP PUSH1 0x1 DUP2 ADD SWAP1 POP PUSH2 0x18DB JUMP JUMPDEST POP DUP3 SWAP8 POP DUP8 SWAP6 POP POP POP POP POP POP SWAP3 SWAP2 POP POP JUMP JUMPDEST PUSH0 PUSH1 0x20 DUP3 ADD SWAP1 POP DUP2 DUP2 SUB PUSH0 DUP4 ADD MSTORE PUSH2 0x193D DUP2 DUP5 PUSH2 0x18B2 JUMP JUMPDEST SWAP1 POP SWAP3 SWAP2 POP POP JUMP JUMPDEST PUSH2 0x194E DUP2 PUSH2 0x174D JUMP JUMPDEST DUP3 MSTORE POP POP JUMP JUMPDEST PUSH0 PUSH1 0x20 DUP3 ADD SWAP1 POP PUSH2 0x1967 PUSH0 DUP4 ADD DUP5 PUSH2 0x1945 JUMP JUMPDEST SWAP3 SWAP2 POP POP JUMP JUMPDEST PUSH0 PUSH20 0xFFFFFFFFFFFFFFFFFFFFFFFFFFFFFFFFFFFFFFFF DUP3 AND SWAP1 POP SWAP2 SWAP1 POP JUMP JUMPDEST PUSH0 PUSH2 0x1996 DUP3 PUSH2 0x196D JUMP JUMPDEST SWAP1 POP SWAP2 SWAP1 POP JUMP JUMPDEST PUSH2 0x19A6 DUP2 PUSH2 0x198C JUMP JUMPDEST DUP2 EQ PUSH2 0x19B0 JUMPI PUSH0 DUP1 REVERT JUMPDEST POP JUMP JUMPDEST PUSH0 DUP2 CALLDATALOAD SWAP1 POP PUSH2 0x19C1 DUP2 PUSH2 0x199D JUMP JUMPDEST SWAP3 SWAP2 POP POP JUMP JUMPDEST PUSH0 DUP1 PUSH1 0x40 DUP4 DUP6 SUB SLT ISZERO PUSH2 0x19DD JUMPI PUSH2 0x19DC PUSH2 0x13F2 JUMP JUMPDEST JUMPDEST PUSH0 PUSH2 0x19EA DUP6 DUP3 DUP7 ADD PUSH2 0x19B3 JUMP JUMPDEST SWAP3 POP POP PUSH1 0x20 PUSH2 0x19FB DUP6 DUP3 DUP7 ADD PUSH2 0x1419 JUMP JUMPDEST SWAP2 POP POP SWAP3 POP SWAP3 SWAP1 POP JUMP JUMPDEST PUSH0 DUP1 PUSH1 0x40 DUP4 DUP6 SUB SLT ISZERO PUSH2 0x1A1B JUMPI PUSH2 0x1A1A PUSH2 0x13F2 JUMP JUMPDEST JUMPDEST PUSH0 PUSH2 0x1A28 DUP6 DUP3 DUP7 ADD PUSH2 0x1419 JUMP JUMPDEST SWAP3 POP POP PUSH1 0x20 PUSH2 0x1A39 DUP6 DUP3 DUP7 ADD PUSH2 0x176E JUMP JUMPDEST SWAP2 POP POP SWAP3 POP SWAP3 SWAP1 POP JUMP JUMPDEST PUSH0 DUP3 DUP3 MSTORE PUSH1 0x20 DUP3 ADD SWAP1 POP SWAP3 SWAP2 POP POP JUMP JUMPDEST PUSH0 PUSH2 0x1A5D DUP3 PUSH2 0x1833 JUMP JUMPDEST PUSH2 0x1A67 DUP2 DUP6 PUSH2 0x1A43 JUMP JUMPDEST SWAP4 POP PUSH2 0x1A77 DUP2 DUP6 PUSH1 0x20 DUP7 ADD PUSH2 0x184D JUMP JUMPDEST PUSH2 0x1A80 DUP2 PUSH2 0x1537 JUMP JUMPDEST DUP5 ADD SWAP2 POP POP SWAP3 SWAP2 POP POP JUMP JUMPDEST PUSH0 PUSH1 0x40 DUP3 ADD SWAP1 POP DUP2 DUP2 SUB PUSH0 DUP4 ADD MSTORE PUSH2 0x1AA3 DUP2 DUP6 PUSH2 0x1A53 JUMP JUMPDEST SWAP1 POP PUSH2 0x1AB2 PUSH1 0x20 DUP4 ADD DUP5 PUSH2 0x1945 JUMP JUMPDEST SWAP4 SWAP3 POP POP POP JUMP JUMPDEST PUSH2 0x1AC2 DUP2 PUSH2 0x198C JUMP JUMPDEST DUP3 MSTORE POP POP JUMP JUMPDEST PUSH0 PUSH1 0x20 DUP3 ADD SWAP1 POP PUSH2 0x1ADB PUSH0 DUP4 ADD DUP5 PUSH2 0x1AB9 JUMP JUMPDEST SWAP3 SWAP2 POP POP JUMP JUMPDEST PUSH2 0x1AEA DUP2 PUSH2 0x13FA JUMP JUMPDEST DUP3 MSTORE POP POP JUMP JUMPDEST PUSH0 PUSH1 0x20 DUP3 ADD SWAP1 POP PUSH2 0x1B03 PUSH0 DUP4 ADD DUP5 PUSH2 0x1AE1 JUMP JUMPDEST SWAP3 SWAP2 POP POP JUMP JUMPDEST PUSH0 DUP1 PUSH1 0x40 DUP4 DUP6 SUB SLT ISZERO PUSH2 0x1B1F JUMPI PUSH2 0x1B1E PUSH2 0x13F2 JUMP JUMPDEST JUMPDEST PUSH0 PUSH2 0x1B2C DUP6 DUP3 DUP7 ADD PUSH2 0x1419 JUMP JUMPDEST SWAP3 POP POP PUSH1 0x20 PUSH2 0x1B3D DUP6 DUP3 DUP7 ADD PUSH2 0x1419 JUMP JUMPDEST SWAP2 POP POP SWAP3 POP SWAP3 SWAP1 POP JUMP JUMPDEST PUSH0 PUSH1 0x20 DUP3 DUP5 SUB SLT ISZERO PUSH2 0x1B5C JUMPI PUSH2 0x1B5B PUSH2 0x13F2 JUMP JUMPDEST JUMPDEST PUSH0 PUSH2 0x1B69 DUP5 DUP3 DUP6 ADD PUSH2 0x19B3 JUMP JUMPDEST SWAP2 POP POP SWAP3 SWAP2 POP POP JUMP JUMPDEST PUSH32 0x696E76616C696420696E64657800000000000000000000000000000000000000 PUSH0 DUP3 ADD MSTORE POP JUMP JUMPDEST PUSH0 PUSH2 0x1BA6 PUSH1 0xD DUP4 PUSH2 0x1A43 JUMP JUMPDEST SWAP2 POP PUSH2 0x1BB1 DUP3 PUSH2 0x1B72 JUMP JUMPDEST PUSH1 0x20 DUP3 ADD SWAP1 POP SWAP2 SWAP1 POP JUMP JUMPDEST PUSH0 PUSH1 0x20 DUP3 ADD SWAP1 POP DUP2 DUP2 SUB PUSH0 DUP4 ADD MSTORE PUSH2 0x1BD3 DUP2 PUSH2 0x1B9A JUMP JUMPDEST SWAP1 POP SWAP2 SWAP1 POP JUMP JUMPDEST PUSH32 0x4E487B7100000000000000000000000000000000000000000000000000000000 PUSH0 MSTORE PUSH1 0x32 PUSH1 0x4 MSTORE PUSH1 0x24 PUSH0 REVERT JUMPDEST PUSH32 0x656D707479207175657374696F6E206973206E6F7420616C6C6F776564000000 PUSH0 DUP3 ADD MSTORE POP JUMP JUMPDEST PUSH0 PUSH2 0x1C3B PUSH1 0x1D DUP4 PUSH2 0x1A43 JUMP JUMPDEST SWAP2 POP PUSH2 0x1C46 DUP3 PUSH2 0x1C07 JUMP JUMPDEST PUSH1 0x20 DUP3 ADD SWAP1 POP SWAP2 SWAP1 POP JUMP JUMPDEST PUSH0 PUSH1 0x20 DUP3 ADD SWAP1 POP DUP2 DUP2 SUB PUSH0 DUP4 ADD MSTORE PUSH2 0x1C68 DUP2 PUSH2 0x1C2F JUMP JUMPDEST SWAP1 POP SWAP2 SWAP1 POP JUMP JUMPDEST PUSH32 0x4174206C656173742032206F7074696F6E732061726520726571756972656400 PUSH0 DUP3 ADD MSTORE POP JUMP JUMPDEST PUSH0 PUSH2 0x1CA3 PUSH1 0x1F DUP4 PUSH2 0x1A43 JUMP JUMPDEST SWAP2 POP PUSH2 0x1CAE DUP3 PUSH2 0x1C6F JUMP JUMPDEST PUSH1 0x20 DUP3 ADD SWAP1 POP SWAP2 SWAP1 POP JUMP JUMPDEST PUSH0 PUSH1 0x20 DUP3 ADD SWAP1 POP DUP2 DUP2 SUB PUSH0 DUP4 ADD MSTORE PUSH2 0x1CD0 DUP2 PUSH2 0x1C97 JUMP JUMPDEST SWAP1 POP SWAP2 SWAP1 POP JUMP JUMPDEST PUSH32 0x4E487B7100000000000000000000000000000000000000000000000000000000 PUSH0 MSTORE PUSH1 0x11 PUSH1 0x4 MSTORE PUSH1 0x24 PUSH0 REVERT JUMPDEST PUSH0 PUSH2 0x1D0E DUP3 PUSH2 0x13FA JUMP JUMPDEST SWAP2 POP PUSH2 0x1D19 DUP4 PUSH2 0x13FA JUMP JUMPDEST SWAP3 POP DUP3 DUP3 SUB SWAP1 POP DUP2 DUP2 GT ISZERO PUSH2 0x1D31 JUMPI PUSH2 0x1D30 PUSH2 0x1CD7 JUMP JUMPDEST JUMPDEST SWAP3 SWAP2 POP POP JUMP JUMPDEST PUSH32 0x4E487B7100000000000000000000000000000000000000000000000000000000 PUSH0 MSTORE PUSH1 0x22 PUSH1 0x4 MSTORE PUSH1 0x24 PUSH0 REVERT JUMPDEST PUSH0 PUSH1 0x2 DUP3 DIV SWAP1 POP PUSH1 0x1 DUP3 AND DUP1 PUSH2 0x1D7B JUMPI PUSH1 0x7F DUP3 AND SWAP2 POP JUMPDEST PUSH1 0x20 DUP3 LT DUP2 SUB PUSH2 0x1D8E JUMPI PUSH2 0x1D8D PUSH2 0x1D37 JUMP JUMPDEST JUMPDEST POP SWAP2 SWAP1 POP JUMP JUMPDEST PUSH0 DUP2 SWAP1 POP DUP2 PUSH0 MSTORE PUSH1 0x20 PUSH0 KECCAK256 SWAP1 POP SWAP2 SWAP1 POP JUMP JUMPDEST PUSH0 PUSH1 0x20 PUSH1 0x1F DUP4 ADD DIV SWAP1 POP SWAP2 SWAP1 POP JUMP JUMPDEST PUSH0 DUP3 DUP3 SHL SWAP1 POP SWAP3 SWAP2 POP POP JUMP JUMPDEST PUSH0 PUSH1 0x8 DUP4 MUL PUSH2 0x1DF0 PUSH32 0xFFFFFFFFFFFFFFFFFFFFFFFFFFFFFFFFFFFFFFFFFFFFFFFFFFFFFFFFFFFFFFFF DUP3 PUSH2 0x1DB5 JUMP JUMPDEST PUSH2 0x1DFA DUP7 DUP4 PUSH2 0x1DB5 JUMP JUMPDEST SWAP6 POP DUP1 NOT DUP5 AND SWAP4 POP DUP1 DUP7 AND DUP5 OR SWAP3 POP POP POP SWAP4 SWAP3 POP POP POP JUMP JUMPDEST PUSH0 DUP2 SWAP1 POP SWAP2 SWAP1 POP JUMP JUMPDEST PUSH0 PUSH2 0x1E35 PUSH2 0x1E30 PUSH2 0x1E2B DUP5 PUSH2 0x13FA JUMP JUMPDEST PUSH2 0x1E12 JUMP JUMPDEST PUSH2 0x13FA JUMP JUMPDEST SWAP1 POP SWAP2 SWAP1 POP JUMP JUMPDEST PUSH0 DUP2 SWAP1 POP SWAP2 SWAP1 POP JUMP JUMPDEST PUSH2 0x1E4E DUP4 PUSH2 0x1E1B JUMP JUMPDEST PUSH2 0x1E62 PUSH2 0x1E5A DUP3 PUSH2 0x1E3C JUMP JUMPDEST DUP5 DUP5 SLOAD PUSH2 0x1DC1 JUMP JUMPDEST DUP3 SSTORE POP POP POP POP JUMP JUMPDEST PUSH0 SWAP1 JUMP JUMPDEST PUSH2 0x1E76 PUSH2 0x1E6A JUMP JUMPDEST PUSH2 0x1E81 DUP2 DUP5 DUP5 PUSH2 0x1E45 JUMP JUMPDEST POP POP POP JUMP JUMPDEST JUMPDEST DUP2 DUP2 LT ISZERO PUSH2 0x1EA4 JUMPI PUSH2 0x1E99 PUSH0 DUP3 PUSH2 0x1E6E JUMP JUMPDEST PUSH1 0x1 DUP2 ADD SWAP1 POP PUSH2 0x1E87 JUMP JUMPDEST POP POP JUMP JUMPDEST PUSH1 0x1F DUP3 GT ISZERO PUSH2 0x1EE9 JUMPI PUSH2 0x1EBA DUP2 PUSH2 0x1D94 JUMP JUMPDEST PUSH2 0x1EC3 DUP5 PUSH2 0x1DA6 JUMP JUMPDEST DUP2 ADD PUSH1 0x20 DUP6 LT ISZERO PUSH2 0x1ED2 JUMPI DUP2 SWAP1 POP JUMPDEST PUSH2 0x1EE6 PUSH2 0x1EDE DUP6 PUSH2 0x1DA6 JUMP JUMPDEST DUP4 ADD DUP3 PUSH2 0x1E86 JUMP JUMPDEST POP POP JUMPDEST POP POP POP JUMP JUMPDEST PUSH0 DUP3 DUP3 SHR SWAP1 POP SWAP3 SWAP2 POP POP JUMP JUMPDEST PUSH0 PUSH2 0x1F09 PUSH0 NOT DUP5 PUSH1 0x8 MUL PUSH2 0x1EEE JUMP JUMPDEST NOT DUP1 DUP4 AND SWAP2 POP POP SWAP3 SWAP2 POP POP JUMP JUMPDEST PUSH0 PUSH2 0x1F21 DUP4 DUP4 PUSH2 0x1EFA JUMP JUMPDEST SWAP2 POP DUP3 PUSH1 0x2 MUL DUP3 OR SWAP1 POP SWAP3 SWAP2 POP POP JUMP JUMPDEST PUSH2 0x1F3A DUP3 PUSH2 0x1833 JUMP JUMPDEST PUSH8 0xFFFFFFFFFFFFFFFF DUP2 GT ISZERO PUSH2 0x1F53 JUMPI PUSH2 0x1F52 PUSH2 0x1547 JUMP JUMPDEST JUMPDEST PUSH2 0x1F5D DUP3 SLOAD PUSH2 0x1D64 JUMP JUMPDEST PUSH2 0x1F68 DUP3 DUP3 DUP6 PUSH2 0x1EA8 JUMP JUMPDEST PUSH0 PUSH1 0x20 SWAP1 POP PUSH1 0x1F DUP4 GT PUSH1 0x1 DUP2 EQ PUSH2 0x1F99 JUMPI PUSH0 DUP5 ISZERO PUSH2 0x1F87 JUMPI DUP3 DUP8 ADD MLOAD SWAP1 POP JUMPDEST PUSH2 0x1F91 DUP6 DUP3 PUSH2 0x1F16 JUMP JUMPDEST DUP7 SSTORE POP PUSH2 0x1FF8 JUMP JUMPDEST PUSH1 0x1F NOT DUP5 AND PUSH2 0x1FA7 DUP7 PUSH2 0x1D94 JUMP JUMPDEST PUSH0 JUMPDEST DUP3 DUP2 LT ISZERO PUSH2 0x1FCE JUMPI DUP5 DUP10 ADD MLOAD DUP3 SSTORE PUSH1 0x1 DUP3 ADD SWAP2 POP PUSH1 0x20 DUP6 ADD SWAP5 POP PUSH1 0x20 DUP2 ADD SWAP1 POP PUSH2 0x1FA9 JUMP JUMPDEST DUP7 DUP4 LT ISZERO PUSH2 0x1FEB JUMPI DUP5 DUP10 ADD MLOAD PUSH2 0x1FE7 PUSH1 0x1F DUP10 AND DUP3 PUSH2 0x1EFA JUMP JUMPDEST DUP4 SSTORE POP JUMPDEST PUSH1 0x1 PUSH1 0x2 DUP9 MUL ADD DUP9 SSTORE POP POP POP JUMPDEST POP POP POP POP POP POP JUMP JUMPDEST PUSH32 0x696E76616C696420616464726573730000000000000000000000000000000000 PUSH0 DUP3 ADD MSTORE POP JUMP JUMPDEST PUSH0 PUSH2 0x2034 PUSH1 0xF DUP4 PUSH2 0x1A43 JUMP JUMPDEST SWAP2 POP PUSH2 0x203F DUP3 PUSH2 0x2000 JUMP JUMPDEST PUSH1 0x20 DUP3 ADD SWAP1 POP SWAP2 SWAP1 POP JUMP JUMPDEST PUSH0 PUSH1 0x20 DUP3 ADD SWAP1 POP DUP2 DUP2 SUB PUSH0 DUP4 ADD MSTORE PUSH2 0x2061 DUP2 PUSH2 0x2028 JUMP JUMPDEST SWAP1 POP SWAP2 SWAP1 POP JUMP JUMPDEST PUSH32 0x696E76616C696420737572766579204944000000000000000000000000000000 PUSH0 DUP3 ADD MSTORE POP JUMP JUMPDEST PUSH0 PUSH2 0x209C PUSH1 0x11 DUP4 PUSH2 0x1A43 JUMP JUMPDEST SWAP2 POP PUSH2 0x20A7 DUP3 PUSH2 0x2068 JUMP JUMPDEST PUSH1 0x20 DUP3 ADD SWAP1 POP SWAP2 SWAP1 POP JUMP JUMPDEST PUSH0 PUSH1 0x20 DUP3 ADD SWAP1 POP DUP2 DUP2 SUB PUSH0 DUP4 ADD MSTORE PUSH2 0x20C9 DUP2 PUSH2 0x2090 JUMP JUMPDEST SWAP1 POP SWAP2 SWAP1 POP JUMP JUMPDEST PUSH32 0x73757276657920697320616C726561647920696E207468652064657369726564 PUSH0 DUP3 ADD MSTORE PUSH32 0x2061637469766520737461746500000000000000000000000000000000000000 PUSH1 0x20 DUP3 ADD MSTORE POP JUMP JUMPDEST PUSH0 PUSH2 0x212A PUSH1 0x2D DUP4 PUSH2 0x1A43 JUMP JUMPDEST SWAP2 POP PUSH2 0x2135 DUP3 PUSH2 0x20D0 JUMP JUMPDEST PUSH1 0x40 DUP3 ADD SWAP1 POP SWAP2 SWAP1 POP JUMP JUMPDEST PUSH0 PUSH1 0x20 DUP3 ADD SWAP1 POP DUP2 DUP2 SUB PUSH0 DUP4 ADD MSTORE PUSH2 0x2157 DUP2 PUSH2 0x211E JUMP JUMPDEST SWAP1 POP SWAP2 SWAP1 POP JUMP JUMPDEST PUSH0 DUP2 SWAP1 POP SWAP2 SWAP1 POP JUMP JUMPDEST PUSH0 PUSH8 0xFFFFFFFFFFFFFFFF DUP3 AND SWAP1 POP SWAP2 SWAP1 POP JUMP JUMPDEST PUSH0 PUSH2 0x2194 PUSH2 0x218F PUSH2 0x218A DUP5 PUSH2 0x215E JUMP JUMPDEST PUSH2 0x1E12 JUMP JUMPDEST PUSH2 0x2167 JUMP JUMPDEST SWAP1 POP SWAP2 SWAP1 POP JUMP JUMPDEST PUSH2 0x21A4 DUP2 PUSH2 0x217A JUMP JUMPDEST DUP3 MSTORE POP POP JUMP JUMPDEST PUSH0 PUSH1 0x20 DUP3 ADD SWAP1 POP PUSH2 0x21BD PUSH0 DUP4 ADD DUP5 PUSH2 0x219B JUMP JUMPDEST SWAP3 SWAP2 POP POP JUMP JUMPDEST PUSH32 0x696E76616C696420726571756573740000000000000000000000000000000000 PUSH0 DUP3 ADD MSTORE POP JUMP JUMPDEST PUSH0 PUSH2 0x21F7 PUSH1 0xF DUP4 PUSH2 0x1A43 JUMP JUMPDEST SWAP2 POP PUSH2 0x2202 DUP3 PUSH2 0x21C3 JUMP JUMPDEST PUSH1 0x20 DUP3 ADD SWAP1 POP SWAP2 SWAP1 POP JUMP JUMPDEST PUSH0 PUSH1 0x20 DUP3 ADD SWAP1 POP DUP2 DUP2 SUB PUSH0 DUP4 ADD MSTORE PUSH2 0x2224 DUP2 PUSH2 0x21EB JUMP JUMPDEST SWAP1 POP SWAP2 SWAP1 POP JUMP JUMPDEST PUSH32 0x696E76616C696420696400000000000000000000000000000000000000000000 PUSH0 DUP3 ADD MSTORE POP JUMP JUMPDEST PUSH0 PUSH2 0x225F PUSH1 0xA DUP4 PUSH2 0x1A43 JUMP JUMPDEST SWAP2 POP PUSH2 0x226A DUP3 PUSH2 0x222B JUMP JUMPDEST PUSH1 0x20 DUP3 ADD SWAP1 POP SWAP2 SWAP1 POP JUMP JUMPDEST PUSH0 PUSH1 0x20 DUP3 ADD SWAP1 POP DUP2 DUP2 SUB PUSH0 DUP4 ADD MSTORE PUSH2 0x228C DUP2 PUSH2 0x2253 JUMP JUMPDEST SWAP1 POP SWAP2 SWAP1 POP JUMP JUMPDEST PUSH32 0x537572766579206973206E6F7420616374697665000000000000000000000000 PUSH0 DUP3 ADD MSTORE POP JUMP JUMPDEST PUSH0 PUSH2 0x22C7 PUSH1 0x14 DUP4 PUSH2 0x1A43 JUMP JUMPDEST SWAP2 POP PUSH2 0x22D2 DUP3 PUSH2 0x2293 JUMP JUMPDEST PUSH1 0x20 DUP3 ADD SWAP1 POP SWAP2 SWAP1 POP JUMP JUMPDEST PUSH0 PUSH1 0x20 DUP3 ADD SWAP1 POP DUP2 DUP2 SUB PUSH0 DUP4 ADD MSTORE PUSH2 0x22F4 DUP2 PUSH2 0x22BB JUMP JUMPDEST SWAP1 POP SWAP2 SWAP1 POP JUMP JUMPDEST PUSH32 0x496E76616C6964206F7074696F6E20696E646578000000000000000000000000 PUSH0 DUP3 ADD MSTORE POP JUMP JUMPDEST PUSH0 PUSH2 0x232F PUSH1 0x14 DUP4 PUSH2 0x1A43 JUMP JUMPDEST SWAP2 POP PUSH2 0x233A DUP3 PUSH2 0x22FB JUMP JUMPDEST PUSH1 0x20 DUP3 ADD SWAP1 POP SWAP2 SWAP1 POP JUMP JUMPDEST PUSH0 PUSH1 0x20 DUP3 ADD SWAP1 POP DUP2 DUP2 SUB PUSH0 DUP4 ADD MSTORE PUSH2 0x235C DUP2 PUSH2 0x2323 JUMP JUMPDEST SWAP1 POP SWAP2 SWAP1 POP JUMP JUMPDEST PUSH32 0x557365722068617320616C726561647920766F74656400000000000000000000 PUSH0 DUP3 ADD MSTORE POP JUMP JUMPDEST PUSH0 PUSH2 0x2397 PUSH1 0x16 DUP4 PUSH2 0x1A43 JUMP JUMPDEST SWAP2 POP PUSH2 0x23A2 DUP3 PUSH2 0x2363 JUMP JUMPDEST PUSH1 0x20 DUP3 ADD SWAP1 POP SWAP2 SWAP1 POP JUMP JUMPDEST PUSH0 PUSH1 0x20 DUP3 ADD SWAP1 POP DUP2 DUP2 SUB PUSH0 DUP4 ADD MSTORE PUSH2 0x23C4 DUP2 PUSH2 0x238B JUMP JUMPDEST SWAP1 POP SWAP2 SWAP1 POP JUMP JUMPDEST PUSH0 PUSH2 0x23D5 DUP3 PUSH2 0x13FA JUMP JUMPDEST SWAP2 POP PUSH32 0xFFFFFFFFFFFFFFFFFFFFFFFFFFFFFFFFFFFFFFFFFFFFFFFFFFFFFFFFFFFFFFFF DUP3 SUB PUSH2 0x2407 JUMPI PUSH2 0x2406 PUSH2 0x1CD7 JUMP JUMPDEST JUMPDEST PUSH1 0x1 DUP3 ADD SWAP1 POP SWAP2 SWAP1 POP JUMP INVALID LOG2 PUSH5 0x6970667358 0x22 SLT KECCAK256 TSTORE ADDMOD PUSH22 0xA96AFF8970B82CFCE6D70FFC80834CB48D1E61E00499 PUSH32 0xB9B0D74D728764736F6C634300081A0033A264697066735822122083DF0E17EF MCOPY PUSH27 0x4DBEDE729A2F1A1DA15C3C1EB37262AEFE85292F1807D4C2316473 PUSH16 0x6C634300081A00330000000000000000 "
		},
		"gasEstimates": {
			"creation": {
				"codeDepositCost": "4771400",
				"executionCost": "32722",
				"totalCost": "4804122"
			},
			"external": {
				"allowance(address,address)": "infinite",
				"approve(address,uint256)": "infinite",
				"balanceOf(address)": "2970",
				"burn(uint256)": "infinite",
				"burnFrom(address,uint256)": "infinite",
				"cap()": "2618",
				"changeActiveStatus(uint256,uint256,bool)": "infinite",
				"correctCrumbGenID(uint256)": "infinite",
				"createCrumbContract()": "infinite",
				"decimals()": "450",
				"getCrumb(uint256)": "infinite",
				"getCrumbCount()": "2455",
				"initialize()": "infinite",
				"name()": "infinite",
				"owner()": "2656",
				"renounceOwnership()": "infinite",
				"requestSurveyCreation(string,string[],bool)": "infinite",
				"setMaxSurveyCount(uint256)": "infinite",
				"symbol()": "infinite",
				"totalSupply()": "2553",
				"transfer(address,uint256)": "infinite",
				"transferFrom(address,address,uint256)": "infinite",
				"transferOwnership(address)": "infinite",
				"vote(uint256,uint256,uint256)": "infinite"
			},
			"internal": {
				"_update(address,address,uint256)": "infinite"
			}
		},
		"methodIdentifiers": {
			"allowance(address,address)": "dd62ed3e",
			"approve(address,uint256)": "095ea7b3",
			"balanceOf(address)": "70a08231",
			"burn(uint256)": "42966c68",
			"burnFrom(address,uint256)": "79cc6790",
			"cap()": "355274ea",
			"changeActiveStatus(uint256,uint256,bool)": "7d973710",
			"correctCrumbGenID(uint256)": "9f85293b",
			"createCrumbContract()": "4735c94c",
			"decimals()": "313ce567",
			"getCrumb(uint256)": "a8d3efe3",
			"getCrumbCount()": "3924cde8",
			"initialize()": "8129fc1c",
			"name()": "06fdde03",
			"owner()": "8da5cb5b",
			"renounceOwnership()": "715018a6",
			"requestSurveyCreation(string,string[],bool)": "8f925414",
			"setMaxSurveyCount(uint256)": "90cd2321",
			"symbol()": "95d89b41",
			"totalSupply()": "18160ddd",
			"transfer(address,uint256)": "a9059cbb",
			"transferFrom(address,address,uint256)": "23b872dd",
			"transferOwnership(address)": "f2fde38b",
			"vote(uint256,uint256,uint256)": "8a6655d6"
		}
	},
	"abi": [
		{
			"inputs": [
				{
					"internalType": "uint256",
					"name": "increasedSupply",
					"type": "uint256"
				},
				{
					"internalType": "uint256",
					"name": "cap",
					"type": "uint256"
				}
			],
			"name": "ERC20ExceededCap",
			"type": "error"
		},
		{
			"inputs": [
				{
					"internalType": "address",
					"name": "spender",
					"type": "address"
				},
				{
					"internalType": "uint256",
					"name": "allowance",
					"type": "uint256"
				},
				{
					"internalType": "uint256",
					"name": "needed",
					"type": "uint256"
				}
			],
			"name": "ERC20InsufficientAllowance",
			"type": "error"
		},
		{
			"inputs": [
				{
					"internalType": "address",
					"name": "sender",
					"type": "address"
				},
				{
					"internalType": "uint256",
					"name": "balance",
					"type": "uint256"
				},
				{
					"internalType": "uint256",
					"name": "needed",
					"type": "uint256"
				}
			],
			"name": "ERC20InsufficientBalance",
			"type": "error"
		},
		{
			"inputs": [
				{
					"internalType": "address",
					"name": "approver",
					"type": "address"
				}
			],
			"name": "ERC20InvalidApprover",
			"type": "error"
		},
		{
			"inputs": [
				{
					"internalType": "uint256",
					"name": "cap",
					"type": "uint256"
				}
			],
			"name": "ERC20InvalidCap",
			"type": "error"
		},
		{
			"inputs": [
				{
					"internalType": "address",
					"name": "receiver",
					"type": "address"
				}
			],
			"name": "ERC20InvalidReceiver",
			"type": "error"
		},
		{
			"inputs": [
				{
					"internalType": "address",
					"name": "sender",
					"type": "address"
				}
			],
			"name": "ERC20InvalidSender",
			"type": "error"
		},
		{
			"inputs": [
				{
					"internalType": "address",
					"name": "spender",
					"type": "address"
				}
			],
			"name": "ERC20InvalidSpender",
			"type": "error"
		},
		{
			"inputs": [],
			"name": "InvalidInitialization",
			"type": "error"
		},
		{
			"inputs": [],
			"name": "NotInitializing",
			"type": "error"
		},
		{
			"inputs": [
				{
					"internalType": "address",
					"name": "owner",
					"type": "address"
				}
			],
			"name": "OwnableInvalidOwner",
			"type": "error"
		},
		{
			"inputs": [
				{
					"internalType": "address",
					"name": "account",
					"type": "address"
				}
			],
			"name": "OwnableUnauthorizedAccount",
			"type": "error"
		},
		{
			"inputs": [],
			"name": "ReentrancyGuardReentrantCall",
			"type": "error"
		},
		{
			"anonymous": false,
			"inputs": [
				{
					"indexed": true,
					"internalType": "address",
					"name": "owner",
					"type": "address"
				},
				{
					"indexed": true,
					"internalType": "address",
					"name": "spender",
					"type": "address"
				},
				{
					"indexed": false,
					"internalType": "uint256",
					"name": "value",
					"type": "uint256"
				}
			],
			"name": "Approval",
			"type": "event"
		},
		{
			"anonymous": false,
			"inputs": [
				{
					"indexed": false,
					"internalType": "uint64",
					"name": "version",
					"type": "uint64"
				}
			],
			"name": "Initialized",
			"type": "event"
		},
		{
			"anonymous": false,
			"inputs": [
				{
					"indexed": true,
					"internalType": "address",
					"name": "previousOwner",
					"type": "address"
				},
				{
					"indexed": true,
					"internalType": "address",
					"name": "newOwner",
					"type": "address"
				}
			],
			"name": "OwnershipTransferred",
			"type": "event"
		},
		{
			"anonymous": false,
			"inputs": [
				{
					"indexed": true,
					"internalType": "address",
					"name": "from",
					"type": "address"
				},
				{
					"indexed": true,
					"internalType": "address",
					"name": "to",
					"type": "address"
				},
				{
					"indexed": false,
					"internalType": "uint256",
					"name": "value",
					"type": "uint256"
				}
			],
			"name": "Transfer",
			"type": "event"
		},
		{
			"inputs": [
				{
					"internalType": "address",
					"name": "owner",
					"type": "address"
				},
				{
					"internalType": "address",
					"name": "spender",
					"type": "address"
				}
			],
			"name": "allowance",
			"outputs": [
				{
					"internalType": "uint256",
					"name": "",
					"type": "uint256"
				}
			],
			"stateMutability": "view",
			"type": "function"
		},
		{
			"inputs": [
				{
					"internalType": "address",
					"name": "spender",
					"type": "address"
				},
				{
					"internalType": "uint256",
					"name": "value",
					"type": "uint256"
				}
			],
			"name": "approve",
			"outputs": [
				{
					"internalType": "bool",
					"name": "",
					"type": "bool"
				}
			],
			"stateMutability": "nonpayable",
			"type": "function"
		},
		{
			"inputs": [
				{
					"internalType": "address",
					"name": "account",
					"type": "address"
				}
			],
			"name": "balanceOf",
			"outputs": [
				{
					"internalType": "uint256",
					"name": "",
					"type": "uint256"
				}
			],
			"stateMutability": "view",
			"type": "function"
		},
		{
			"inputs": [
				{
					"internalType": "uint256",
					"name": "value",
					"type": "uint256"
				}
			],
			"name": "burn",
			"outputs": [],
			"stateMutability": "nonpayable",
			"type": "function"
		},
		{
			"inputs": [
				{
					"internalType": "address",
					"name": "account",
					"type": "address"
				},
				{
					"internalType": "uint256",
					"name": "value",
					"type": "uint256"
				}
			],
			"name": "burnFrom",
			"outputs": [],
			"stateMutability": "nonpayable",
			"type": "function"
		},
		{
			"inputs": [],
			"name": "cap",
			"outputs": [
				{
					"internalType": "uint256",
					"name": "",
					"type": "uint256"
				}
			],
			"stateMutability": "view",
			"type": "function"
		},
		{
			"inputs": [
				{
					"internalType": "uint256",
					"name": "crumbID",
					"type": "uint256"
				},
				{
					"internalType": "uint256",
					"name": "surveyIndex",
					"type": "uint256"
				},
				{
					"internalType": "bool",
					"name": "isActive",
					"type": "bool"
				}
			],
			"name": "changeActiveStatus",
			"outputs": [],
			"stateMutability": "nonpayable",
			"type": "function"
		},
		{
			"inputs": [
				{
					"internalType": "uint256",
					"name": "newID",
					"type": "uint256"
				}
			],
			"name": "correctCrumbGenID",
			"outputs": [],
			"stateMutability": "nonpayable",
			"type": "function"
		},
		{
			"inputs": [],
			"name": "createCrumbContract",
			"outputs": [],
			"stateMutability": "nonpayable",
			"type": "function"
		},
		{
			"inputs": [],
			"name": "decimals",
			"outputs": [
				{
					"internalType": "uint8",
					"name": "",
					"type": "uint8"
				}
			],
			"stateMutability": "view",
			"type": "function"
		},
		{
			"inputs": [
				{
					"internalType": "uint256",
					"name": "index",
					"type": "uint256"
				}
			],
			"name": "getCrumb",
			"outputs": [
				{
					"internalType": "contract Crumb",
					"name": "",
					"type": "address"
				}
			],
			"stateMutability": "view",
			"type": "function"
		},
		{
			"inputs": [],
			"name": "getCrumbCount",
			"outputs": [
				{
					"internalType": "uint256",
					"name": "",
					"type": "uint256"
				}
			],
			"stateMutability": "view",
			"type": "function"
		},
		{
			"inputs": [],
			"name": "initialize",
			"outputs": [],
			"stateMutability": "nonpayable",
			"type": "function"
		},
		{
			"inputs": [],
			"name": "name",
			"outputs": [
				{
					"internalType": "string",
					"name": "",
					"type": "string"
				}
			],
			"stateMutability": "view",
			"type": "function"
		},
		{
			"inputs": [],
			"name": "owner",
			"outputs": [
				{
					"internalType": "address",
					"name": "",
					"type": "address"
				}
			],
			"stateMutability": "view",
			"type": "function"
		},
		{
			"inputs": [],
			"name": "renounceOwnership",
			"outputs": [],
			"stateMutability": "nonpayable",
			"type": "function"
		},
		{
			"inputs": [
				{
					"internalType": "string",
					"name": "_question",
					"type": "string"
				},
				{
					"internalType": "string[]",
					"name": "_options",
					"type": "string[]"
				},
				{
					"internalType": "bool",
					"name": "_initialActiveState",
					"type": "bool"
				}
			],
			"name": "requestSurveyCreation",
			"outputs": [],
			"stateMutability": "nonpayable",
			"type": "function"
		},
		{
			"inputs": [
				{
					"internalType": "uint256",
					"name": "newMaxSurveyCount",
					"type": "uint256"
				}
			],
			"name": "setMaxSurveyCount",
			"outputs": [],
			"stateMutability": "nonpayable",
			"type": "function"
		},
		{
			"inputs": [],
			"name": "symbol",
			"outputs": [
				{
					"internalType": "string",
					"name": "",
					"type": "string"
				}
			],
			"stateMutability": "view",
			"type": "function"
		},
		{
			"inputs": [],
			"name": "totalSupply",
			"outputs": [
				{
					"internalType": "uint256",
					"name": "",
					"type": "uint256"
				}
			],
			"stateMutability": "view",
			"type": "function"
		},
		{
			"inputs": [
				{
					"internalType": "address",
					"name": "to",
					"type": "address"
				},
				{
					"internalType": "uint256",
					"name": "value",
					"type": "uint256"
				}
			],
			"name": "transfer",
			"outputs": [
				{
					"internalType": "bool",
					"name": "",
					"type": "bool"
				}
			],
			"stateMutability": "nonpayable",
			"type": "function"
		},
		{
			"inputs": [
				{
					"internalType": "address",
					"name": "from",
					"type": "address"
				},
				{
					"internalType": "address",
					"name": "to",
					"type": "address"
				},
				{
					"internalType": "uint256",
					"name": "value",
					"type": "uint256"
				}
			],
			"name": "transferFrom",
			"outputs": [
				{
					"internalType": "bool",
					"name": "",
					"type": "bool"
				}
			],
			"stateMutability": "nonpayable",
			"type": "function"
		},
		{
			"inputs": [
				{
					"internalType": "address",
					"name": "newOwner",
					"type": "address"
				}
			],
			"name": "transferOwnership",
			"outputs": [],
			"stateMutability": "nonpayable",
			"type": "function"
		},
		{
			"inputs": [
				{
					"internalType": "uint256",
					"name": "crumbID",
					"type": "uint256"
				},
				{
					"internalType": "uint256",
					"name": "surveyIndex",
					"type": "uint256"
				},
				{
					"internalType": "uint256",
					"name": "optionIndex",
					"type": "uint256"
				}
			],
			"name": "vote",
			"outputs": [],
			"stateMutability": "nonpayable",
			"type": "function"
		}
	]
}