{
	"data": {
		"bytecode": {
			"linkReferences": {},
			"object": "60a06040525f6007556032600855348015610018575f80fd5b503364174876e8006040518060400160405280600681526020017f536f626f726f00000000000000000000000000000000000000000000000000008152506040518060400160405280600381526020017f5342520000000000000000000000000000000000000000000000000000000000815250816003908161009b919061080b565b5080600490816100ab919061080b565b5050505f81036100f2575f6040517f392e1e270000000000000000000000000000000000000000000000000000000081526004016100e99190610913565b60405180910390fd5b8060808181525050505f73ffffffffffffffffffffffffffffffffffffffff168173ffffffffffffffffffffffffffffffffffffffff160361016b575f6040517f1e4fbdf7000000000000000000000000000000000000000000000000000000008152600401610162919061096b565b60405180910390fd5b61017a8161019360201b60201c565b5061018e33620186a061025660201b60201c565b610a68565b5f60055f9054906101000a900473ffffffffffffffffffffffffffffffffffffffff1690508160055f6101000a81548173ffffffffffffffffffffffffffffffffffffffff021916908373ffffffffffffffffffffffffffffffffffffffff1602179055508173ffffffffffffffffffffffffffffffffffffffff168173ffffffffffffffffffffffffffffffffffffffff167f8be0079c531659141344cd1fd0a4f28419497f9722a3daafe3b4186f6b6457e060405160405180910390a35050565b5f73ffffffffffffffffffffffffffffffffffffffff168273ffffffffffffffffffffffffffffffffffffffff16036102c6575f6040517fec442f050000000000000000000000000000000000000000000000000000000081526004016102bd919061096b565b60405180910390fd5b6102d75f83836102db60201b60201c565b5050565b6102ec8383836102f160201b60201c565b505050565b6103028383836103a660201b60201c565b5f73ffffffffffffffffffffffffffffffffffffffff168373ffffffffffffffffffffffffffffffffffffffff16036103a1575f6103446105bf60201b60201c565b90505f6103556105c860201b60201c565b90508181111561039e5780826040517f9e79f854000000000000000000000000000000000000000000000000000000008152600401610395929190610993565b60405180910390fd5b50505b505050565b5f73ffffffffffffffffffffffffffffffffffffffff168373ffffffffffffffffffffffffffffffffffffffff16036103f6578060025f8282546103ea91906109e7565b925050819055506104c4565b5f805f8573ffffffffffffffffffffffffffffffffffffffff1673ffffffffffffffffffffffffffffffffffffffff1681526020019081526020015f205490508181101561047f578381836040517fe450d38c00000000000000000000000000000000000000000000000000000000815260040161047693929190610a1a565b60405180910390fd5b8181035f808673ffffffffffffffffffffffffffffffffffffffff1673ffffffffffffffffffffffffffffffffffffffff1681526020019081526020015f2081905550505b5f73ffffffffffffffffffffffffffffffffffffffff168273ffffffffffffffffffffffffffffffffffffffff160361050b578060025f8282540392505081905550610555565b805f808473ffffffffffffffffffffffffffffffffffffffff1673ffffffffffffffffffffffffffffffffffffffff1681526020019081526020015f205f82825401925050819055505b8173ffffffffffffffffffffffffffffffffffffffff168373ffffffffffffffffffffffffffffffffffffffff167fddf252ad1be2c89b69c2b068fc378daa952ba7f163c4a11628f55a4df523b3ef836040516105b29190610a4f565b60405180910390a3505050565b5f608051905090565b5f600254905090565b5f81519050919050565b7f4e487b71000000000000000000000000000000000000000000000000000000005f52604160045260245ffd5b7f4e487b71000000000000000000000000000000000000000000000000000000005f52602260045260245ffd5b5f600282049050600182168061064c57607f821691505b60208210810361065f5761065e610608565b5b50919050565b5f819050815f5260205f209050919050565b5f6020601f8301049050919050565b5f82821b905092915050565b5f600883026106c17fffffffffffffffffffffffffffffffffffffffffffffffffffffffffffffffff82610686565b6106cb8683610686565b95508019841693508086168417925050509392505050565b5f819050919050565b5f819050919050565b5f61070f61070a610705846106e3565b6106ec565b6106e3565b9050919050565b5f819050919050565b610728836106f5565b61073c61073482610716565b848454610692565b825550505050565b5f90565b610750610744565b61075b81848461071f565b505050565b5b8181101561077e576107735f82610748565b600181019050610761565b5050565b601f8211156107c35761079481610665565b61079d84610677565b810160208510156107ac578190505b6107c06107b885610677565b830182610760565b50505b505050565b5f82821c905092915050565b5f6107e35f19846008026107c8565b1980831691505092915050565b5f6107fb83836107d4565b9150826002028217905092915050565b610814826105d1565b67ffffffffffffffff81111561082d5761082c6105db565b5b6108378254610635565b610842828285610782565b5f60209050601f831160018114610873575f8415610861578287015190505b61086b85826107f0565b8655506108d2565b601f19841661088186610665565b5f5b828110156108a857848901518255600182019150602085019450602081019050610883565b868310156108c557848901516108c1601f8916826107d4565b8355505b6001600288020188555050505b505050505050565b5f819050919050565b5f6108fd6108f86108f3846108da565b6106ec565b6106e3565b9050919050565b61090d816108e3565b82525050565b5f6020820190506109265f830184610904565b92915050565b5f73ffffffffffffffffffffffffffffffffffffffff82169050919050565b5f6109558261092c565b9050919050565b6109658161094b565b82525050565b5f60208201905061097e5f83018461095c565b92915050565b61098d816106e3565b82525050565b5f6040820190506109a65f830185610984565b6109b36020830184610984565b9392505050565b7f4e487b71000000000000000000000000000000000000000000000000000000005f52601160045260245ffd5b5f6109f1826106e3565b91506109fc836106e3565b9250828201905080821115610a1457610a136109ba565b5b92915050565b5f606082019050610a2d5f83018661095c565b610a3a6020830185610984565b610a476040830184610984565b949350505050565b5f602082019050610a625f830184610984565b92915050565b608051612cb4610a805f395f6105f70152612cb45ff3fe608060405234801561000f575f80fd5b5060043610610109575f3560e01c80634735c94c116100a05780638da5cb5b1161006f5780638da5cb5b1461027d57806395d89b411461029b578063a9059cbb146102b9578063dd62ed3e146102e9578063f2fde38b1461031957610109565b80634735c94c1461021d57806370a0823114610227578063715018a61461025757806379cc67901461026157610109565b806323b872dd116100dc57806323b872dd14610195578063313ce567146101c5578063355274ea146101e357806342966c681461020157610109565b80630528395e1461010d57806306fdde0314610129578063095ea7b31461014757806318160ddd14610177575b5f80fd5b61012760048036038101906101229190611434565b610335565b005b610131610503565b60405161013e919061151c565b60405180910390f35b610161600480360381019061015c91906115c9565b610593565b60405161016e9190611616565b60405180910390f35b61017f6105b5565b60405161018c919061163e565b60405180910390f35b6101af60048036038101906101aa9190611657565b6105be565b6040516101bc9190611616565b60405180910390f35b6101cd6105ec565b6040516101da91906116c2565b60405180910390f35b6101eb6105f4565b6040516101f8919061163e565b60405180910390f35b61021b600480360381019061021691906116db565b61061b565b005b61022561062f565b005b610241600480360381019061023c9190611706565b61076b565b60405161024e919061163e565b60405180910390f35b61025f6107b0565b005b61027b600480360381019061027691906115c9565b6107c3565b005b6102856107e3565b6040516102929190611740565b60405180910390f35b6102a361080b565b6040516102b0919061151c565b60405180910390f35b6102d360048036038101906102ce91906115c9565b61089b565b6040516102e09190611616565b60405180910390f35b61030360048036038101906102fe9190611759565b6108bd565b604051610310919061163e565b60405180910390f35b610333600480360381019061032e9190611706565b61093f565b005b61033d6109c3565b5f600160075461034d91906117c4565b90505f73ffffffffffffffffffffffffffffffffffffffff1660065f8381526020019081526020015f205f9054906101000a900473ffffffffffffffffffffffffffffffffffffffff1673ffffffffffffffffffffffffffffffffffffffff16036103ed576040517f08c379a00000000000000000000000000000000000000000000000000000000081526004016103e490611867565b60405180910390fd5b5f60065f8381526020019081526020015f205f9054906101000a900473ffffffffffffffffffffffffffffffffffffffff1690505f8173ffffffffffffffffffffffffffffffffffffffff16639fe140b16040518163ffffffff1660e01b8152600401602060405180830381865afa15801561046b573d5f803e3d5ffd5b505050506040513d601f19601f8201168201806040525081019061048f9190611899565b90508173ffffffffffffffffffffffffffffffffffffffff16630c4960dd8787876040518463ffffffff1660e01b81526004016104ce939291906119c7565b5f604051808303815f87803b1580156104e5575f80fd5b505af11580156104f7573d5f803e3d5ffd5b50505050505050505050565b60606003805461051290611a37565b80601f016020809104026020016040519081016040528092919081815260200182805461053e90611a37565b80156105895780601f1061056057610100808354040283529160200191610589565b820191905f5260205f20905b81548152906001019060200180831161056c57829003601f168201915b5050505050905090565b5f8061059d610a4a565b90506105aa818585610a51565b600191505092915050565b5f600254905090565b5f806105c8610a4a565b90506105d5858285610a63565b6105e0858585610af6565b60019150509392505050565b5f6012905090565b5f7f0000000000000000000000000000000000000000000000000000000000000000905090565b61062c610626610a4a565b82610be6565b50565b6106376109c3565b5f73ffffffffffffffffffffffffffffffffffffffff1660065f60075481526020019081526020015f205f9054906101000a900473ffffffffffffffffffffffffffffffffffffffff1673ffffffffffffffffffffffffffffffffffffffff16146106d7576040517f08c379a00000000000000000000000000000000000000000000000000000000081526004016106ce90611ab1565b60405180910390fd5b5f6040516106e4906111c3565b604051809103905ff0801580156106fd573d5f803e3d5ffd5b5090508060065f60075481526020019081526020015f205f6101000a81548173ffffffffffffffffffffffffffffffffffffffff021916908373ffffffffffffffffffffffffffffffffffffffff16021790555060075f81548092919061076390611acf565b919050555050565b5f805f8373ffffffffffffffffffffffffffffffffffffffff1673ffffffffffffffffffffffffffffffffffffffff1681526020019081526020015f20549050919050565b6107b86109c3565b6107c15f610c65565b565b6107d5826107cf610a4a565b83610a63565b6107df8282610be6565b5050565b5f60055f9054906101000a900473ffffffffffffffffffffffffffffffffffffffff16905090565b60606004805461081a90611a37565b80601f016020809104026020016040519081016040528092919081815260200182805461084690611a37565b80156108915780601f1061086857610100808354040283529160200191610891565b820191905f5260205f20905b81548152906001019060200180831161087457829003601f168201915b5050505050905090565b5f806108a5610a4a565b90506108b2818585610af6565b600191505092915050565b5f60015f8473ffffffffffffffffffffffffffffffffffffffff1673ffffffffffffffffffffffffffffffffffffffff1681526020019081526020015f205f8373ffffffffffffffffffffffffffffffffffffffff1673ffffffffffffffffffffffffffffffffffffffff1681526020019081526020015f2054905092915050565b6109476109c3565b5f73ffffffffffffffffffffffffffffffffffffffff168173ffffffffffffffffffffffffffffffffffffffff16036109b7575f6040517f1e4fbdf70000000000000000000000000000000000000000000000000000000081526004016109ae9190611740565b60405180910390fd5b6109c081610c65565b50565b6109cb610a4a565b73ffffffffffffffffffffffffffffffffffffffff166109e96107e3565b73ffffffffffffffffffffffffffffffffffffffff1614610a4857610a0c610a4a565b6040517f118cdaa7000000000000000000000000000000000000000000000000000000008152600401610a3f9190611740565b60405180910390fd5b565b5f33905090565b610a5e8383836001610d28565b505050565b5f610a6e84846108bd565b90507fffffffffffffffffffffffffffffffffffffffffffffffffffffffffffffffff811015610af05781811015610ae1578281836040517ffb8f41b2000000000000000000000000000000000000000000000000000000008152600401610ad893929190611b16565b60405180910390fd5b610aef84848484035f610d28565b5b50505050565b5f73ffffffffffffffffffffffffffffffffffffffff168373ffffffffffffffffffffffffffffffffffffffff1603610b66575f6040517f96c6fd1e000000000000000000000000000000000000000000000000000000008152600401610b5d9190611740565b60405180910390fd5b5f73ffffffffffffffffffffffffffffffffffffffff168273ffffffffffffffffffffffffffffffffffffffff1603610bd6575f6040517fec442f05000000000000000000000000000000000000000000000000000000008152600401610bcd9190611740565b60405180910390fd5b610be1838383610ef7565b505050565b5f73ffffffffffffffffffffffffffffffffffffffff168273ffffffffffffffffffffffffffffffffffffffff1603610c56575f6040517f96c6fd1e000000000000000000000000000000000000000000000000000000008152600401610c4d9190611740565b60405180910390fd5b610c61825f83610ef7565b5050565b5f60055f9054906101000a900473ffffffffffffffffffffffffffffffffffffffff1690508160055f6101000a81548173ffffffffffffffffffffffffffffffffffffffff021916908373ffffffffffffffffffffffffffffffffffffffff1602179055508173ffffffffffffffffffffffffffffffffffffffff168173ffffffffffffffffffffffffffffffffffffffff167f8be0079c531659141344cd1fd0a4f28419497f9722a3daafe3b4186f6b6457e060405160405180910390a35050565b5f73ffffffffffffffffffffffffffffffffffffffff168473ffffffffffffffffffffffffffffffffffffffff1603610d98575f6040517fe602df05000000000000000000000000000000000000000000000000000000008152600401610d8f9190611740565b60405180910390fd5b5f73ffffffffffffffffffffffffffffffffffffffff168373ffffffffffffffffffffffffffffffffffffffff1603610e08575f6040517f94280d62000000000000000000000000000000000000000000000000000000008152600401610dff9190611740565b60405180910390fd5b8160015f8673ffffffffffffffffffffffffffffffffffffffff1673ffffffffffffffffffffffffffffffffffffffff1681526020019081526020015f205f8573ffffffffffffffffffffffffffffffffffffffff1673ffffffffffffffffffffffffffffffffffffffff1681526020019081526020015f20819055508015610ef1578273ffffffffffffffffffffffffffffffffffffffff168473ffffffffffffffffffffffffffffffffffffffff167f8c5be1e5ebec7d5bd14f71427d1e84f3dd0314c0f7b2291e5b200ac8c7c3b92584604051610ee8919061163e565b60405180910390a35b50505050565b610f02838383610f07565b505050565b610f12838383610faa565b5f73ffffffffffffffffffffffffffffffffffffffff168373ffffffffffffffffffffffffffffffffffffffff1603610fa5575f610f4e6105f4565b90505f610f596105b5565b905081811115610fa25780826040517f9e79f854000000000000000000000000000000000000000000000000000000008152600401610f99929190611b4b565b60405180910390fd5b50505b505050565b5f73ffffffffffffffffffffffffffffffffffffffff168373ffffffffffffffffffffffffffffffffffffffff1603610ffa578060025f828254610fee9190611b72565b925050819055506110c8565b5f805f8573ffffffffffffffffffffffffffffffffffffffff1673ffffffffffffffffffffffffffffffffffffffff1681526020019081526020015f2054905081811015611083578381836040517fe450d38c00000000000000000000000000000000000000000000000000000000815260040161107a93929190611b16565b60405180910390fd5b8181035f808673ffffffffffffffffffffffffffffffffffffffff1673ffffffffffffffffffffffffffffffffffffffff1681526020019081526020015f2081905550505b5f73ffffffffffffffffffffffffffffffffffffffff168273ffffffffffffffffffffffffffffffffffffffff160361110f578060025f8282540392505081905550611159565b805f808473ffffffffffffffffffffffffffffffffffffffff1673ffffffffffffffffffffffffffffffffffffffff1681526020019081526020015f205f82825401925050819055505b8173ffffffffffffffffffffffffffffffffffffffff168373ffffffffffffffffffffffffffffffffffffffff167fddf252ad1be2c89b69c2b068fc378daa952ba7f163c4a11628f55a4df523b3ef836040516111b6919061163e565b60405180910390a3505050565b6110d980611ba683390190565b5f604051905090565b5f80fd5b5f80fd5b5f80fd5b5f80fd5b5f601f19601f8301169050919050565b7f4e487b71000000000000000000000000000000000000000000000000000000005f52604160045260245ffd5b61122f826111e9565b810181811067ffffffffffffffff8211171561124e5761124d6111f9565b5b80604052505050565b5f6112606111d0565b905061126c8282611226565b919050565b5f67ffffffffffffffff82111561128b5761128a6111f9565b5b611294826111e9565b9050602081019050919050565b828183375f83830152505050565b5f6112c16112bc84611271565b611257565b9050828152602081018484840111156112dd576112dc6111e5565b5b6112e88482856112a1565b509392505050565b5f82601f830112611304576113036111e1565b5b81356113148482602086016112af565b91505092915050565b5f67ffffffffffffffff821115611337576113366111f9565b5b602082029050602081019050919050565b5f80fd5b5f61135e6113598461131d565b611257565b9050808382526020820190506020840283018581111561138157611380611348565b5b835b818110156113c857803567ffffffffffffffff8111156113a6576113a56111e1565b5b8086016113b389826112f0565b85526020850194505050602081019050611383565b5050509392505050565b5f82601f8301126113e6576113e56111e1565b5b81356113f684826020860161134c565b91505092915050565b5f8115159050919050565b611413816113ff565b811461141d575f80fd5b50565b5f8135905061142e8161140a565b92915050565b5f805f6060848603121561144b5761144a6111d9565b5b5f84013567ffffffffffffffff811115611468576114676111dd565b5b611474868287016112f0565b935050602084013567ffffffffffffffff811115611495576114946111dd565b5b6114a1868287016113d2565b92505060406114b286828701611420565b9150509250925092565b5f81519050919050565b5f82825260208201905092915050565b8281835e5f83830152505050565b5f6114ee826114bc565b6114f881856114c6565b93506115088185602086016114d6565b611511816111e9565b840191505092915050565b5f6020820190508181035f83015261153481846114e4565b905092915050565b5f73ffffffffffffffffffffffffffffffffffffffff82169050919050565b5f6115658261153c565b9050919050565b6115758161155b565b811461157f575f80fd5b50565b5f813590506115908161156c565b92915050565b5f819050919050565b6115a881611596565b81146115b2575f80fd5b50565b5f813590506115c38161159f565b92915050565b5f80604083850312156115df576115de6111d9565b5b5f6115ec85828601611582565b92505060206115fd858286016115b5565b9150509250929050565b611610816113ff565b82525050565b5f6020820190506116295f830184611607565b92915050565b61163881611596565b82525050565b5f6020820190506116515f83018461162f565b92915050565b5f805f6060848603121561166e5761166d6111d9565b5b5f61167b86828701611582565b935050602061168c86828701611582565b925050604061169d868287016115b5565b9150509250925092565b5f60ff82169050919050565b6116bc816116a7565b82525050565b5f6020820190506116d55f8301846116b3565b92915050565b5f602082840312156116f0576116ef6111d9565b5b5f6116fd848285016115b5565b91505092915050565b5f6020828403121561171b5761171a6111d9565b5b5f61172884828501611582565b91505092915050565b61173a8161155b565b82525050565b5f6020820190506117535f830184611731565b92915050565b5f806040838503121561176f5761176e6111d9565b5b5f61177c85828601611582565b925050602061178d85828601611582565b9150509250929050565b7f4e487b71000000000000000000000000000000000000000000000000000000005f52601160045260245ffd5b5f6117ce82611596565b91506117d983611596565b92508282039050818111156117f1576117f0611797565b5b92915050565b7f6c617374657374206372756d6220646f6573206e6f742065786973742e2057685f8201527f6f206174652069743f0000000000000000000000000000000000000000000000602082015250565b5f6118516029836114c6565b915061185c826117f7565b604082019050919050565b5f6020820190508181035f83015261187e81611845565b9050919050565b5f815190506118938161159f565b92915050565b5f602082840312156118ae576118ad6111d9565b5b5f6118bb84828501611885565b91505092915050565b5f81519050919050565b5f82825260208201905092915050565b5f819050602082019050919050565b5f82825260208201905092915050565b5f611907826114bc565b61191181856118ed565b93506119218185602086016114d6565b61192a816111e9565b840191505092915050565b5f61194083836118fd565b905092915050565b5f602082019050919050565b5f61195e826118c4565b61196881856118ce565b93508360208202850161197a856118de565b805f5b858110156119b557848403895281516119968582611935565b94506119a183611948565b925060208a0199505060018101905061197d565b50829750879550505050505092915050565b5f6060820190508181035f8301526119df81866114e4565b905081810360208301526119f38185611954565b9050611a026040830184611607565b949350505050565b7f4e487b71000000000000000000000000000000000000000000000000000000005f52602260045260245ffd5b5f6002820490506001821680611a4e57607f821691505b602082108103611a6157611a60611a0a565b5b50919050565b7f6372756d6220616c656164792062616b656400000000000000000000000000005f82015250565b5f611a9b6012836114c6565b9150611aa682611a67565b602082019050919050565b5f6020820190508181035f830152611ac881611a8f565b9050919050565b5f611ad982611596565b91507fffffffffffffffffffffffffffffffffffffffffffffffffffffffffffffffff8203611b0b57611b0a611797565b5b600182019050919050565b5f606082019050611b295f830186611731565b611b36602083018561162f565b611b43604083018461162f565b949350505050565b5f604082019050611b5e5f83018561162f565b611b6b602083018461162f565b9392505050565b5f611b7c82611596565b9150611b8783611596565b9250828201905080821115611b9f57611b9e611797565b5b9291505056fe6080604052348015600e575f80fd5b506110bd8061001c5f395ff3fe608060405234801561000f575f80fd5b506004361061004a575f3560e01c80630c4960dd1461004e57806386e68b901461006a5780639fe140b11461009b578063b384abef146100b9575b5f80fd5b610068600480360381019061006391906108f9565b6100d5565b005b610084600480360381019061007f91906109b4565b610219565b604051610092929190610a4e565b60405180910390f35b6100a36102d9565b6040516100b09190610a8b565b60405180910390f35b6100d360048036038101906100ce9190610aa4565b6102e4565b005b60028251101561011a576040517f08c379a000000000000000000000000000000000000000000000000000000000815260040161011190610b2c565b60405180910390fd5b5f60018160018154018082558091505003905f5260205f209050505f8060015f805490506101489190610b77565b8154811061015957610158610baa565b5b905f5260205f20906005020190505f835167ffffffffffffffff811115610183576101826106be565b5b6040519080825280602002602001820160405280156101b15781602001602082028036833780820191505090505b50905084825f0190816101c49190610dd1565b50838260010190805190602001906101dd929190610578565b50808260020190805190602001906101f69291906105cf565b5082826003015f6101000a81548160ff0219169083151502179055505050505050565b5f8181548110610227575f80fd5b905f5260205f2090600502015f91509050805f01805461024690610c04565b80601f016020809104026020016040519081016040528092919081815260200182805461027290610c04565b80156102bd5780601f10610294576101008083540402835291602001916102bd565b820191905f5260205f20905b8154815290600101906020018083116102a057829003601f168201915b505050505090806003015f9054906101000a900460ff16905082565b5f8080549050905090565b5f80549050821061032a576040517f08c379a000000000000000000000000000000000000000000000000000000000815260040161032190610eea565b60405180910390fd5b5f828154811061033d5761033c610baa565b5b905f5260205f2090600502016003015f9054906101000a900460ff16610398576040517f08c379a000000000000000000000000000000000000000000000000000000000815260040161038f90610f52565b60405180910390fd5b5f82815481106103ab576103aa610baa565b5b905f5260205f2090600502016001018054905081106103ff576040517f08c379a00000000000000000000000000000000000000000000000000000000081526004016103f690610fba565b60405180910390fd5b5f15155f838154811061041557610414610baa565b5b905f5260205f2090600502016004015f3373ffffffffffffffffffffffffffffffffffffffff1673ffffffffffffffffffffffffffffffffffffffff1681526020019081526020015f205f9054906101000a900460ff161515146104ae576040517f08c379a00000000000000000000000000000000000000000000000000000000081526004016104a590611022565b60405180910390fd5b5f82815481106104c1576104c0610baa565b5b905f5260205f20906005020160020181815481106104e2576104e1610baa565b5b905f5260205f20015f8154809291906104fa90611040565b919050555060015f838154811061051457610513610baa565b5b905f5260205f2090600502016004015f3373ffffffffffffffffffffffffffffffffffffffff1673ffffffffffffffffffffffffffffffffffffffff1681526020019081526020015f205f6101000a81548160ff0219169083151502179055505050565b828054828255905f5260205f209081019282156105be579160200282015b828111156105bd5782518290816105ad9190610dd1565b5091602001919060010190610596565b5b5090506105cb919061061a565b5090565b828054828255905f5260205f20908101928215610609579160200282015b828111156106085782518255916020019190600101906105ed565b5b509050610616919061063d565b5090565b5b80821115610639575f81816106309190610658565b5060010161061b565b5090565b5b80821115610654575f815f90555060010161063e565b5090565b50805461066490610c04565b5f825580601f106106755750610692565b601f0160209004905f5260205f2090810190610691919061063d565b5b50565b5f604051905090565b5f80fd5b5f80fd5b5f80fd5b5f80fd5b5f601f19601f8301169050919050565b7f4e487b71000000000000000000000000000000000000000000000000000000005f52604160045260245ffd5b6106f4826106ae565b810181811067ffffffffffffffff82111715610713576107126106be565b5b80604052505050565b5f610725610695565b905061073182826106eb565b919050565b5f67ffffffffffffffff8211156107505761074f6106be565b5b610759826106ae565b9050602081019050919050565b828183375f83830152505050565b5f61078661078184610736565b61071c565b9050828152602081018484840111156107a2576107a16106aa565b5b6107ad848285610766565b509392505050565b5f82601f8301126107c9576107c86106a6565b5b81356107d9848260208601610774565b91505092915050565b5f67ffffffffffffffff8211156107fc576107fb6106be565b5b602082029050602081019050919050565b5f80fd5b5f61082361081e846107e2565b61071c565b905080838252602082019050602084028301858111156108465761084561080d565b5b835b8181101561088d57803567ffffffffffffffff81111561086b5761086a6106a6565b5b80860161087889826107b5565b85526020850194505050602081019050610848565b5050509392505050565b5f82601f8301126108ab576108aa6106a6565b5b81356108bb848260208601610811565b91505092915050565b5f8115159050919050565b6108d8816108c4565b81146108e2575f80fd5b50565b5f813590506108f3816108cf565b92915050565b5f805f606084860312156109105761090f61069e565b5b5f84013567ffffffffffffffff81111561092d5761092c6106a2565b5b610939868287016107b5565b935050602084013567ffffffffffffffff81111561095a576109596106a2565b5b61096686828701610897565b9250506040610977868287016108e5565b9150509250925092565b5f819050919050565b61099381610981565b811461099d575f80fd5b50565b5f813590506109ae8161098a565b92915050565b5f602082840312156109c9576109c861069e565b5b5f6109d6848285016109a0565b91505092915050565b5f81519050919050565b5f82825260208201905092915050565b8281835e5f83830152505050565b5f610a11826109df565b610a1b81856109e9565b9350610a2b8185602086016109f9565b610a34816106ae565b840191505092915050565b610a48816108c4565b82525050565b5f6040820190508181035f830152610a668185610a07565b9050610a756020830184610a3f565b9392505050565b610a8581610981565b82525050565b5f602082019050610a9e5f830184610a7c565b92915050565b5f8060408385031215610aba57610ab961069e565b5b5f610ac7858286016109a0565b9250506020610ad8858286016109a0565b9150509250929050565b7f4174206c656173742032206f7074696f6e7320617265207265717569726564005f82015250565b5f610b16601f836109e9565b9150610b2182610ae2565b602082019050919050565b5f6020820190508181035f830152610b4381610b0a565b9050919050565b7f4e487b71000000000000000000000000000000000000000000000000000000005f52601160045260245ffd5b5f610b8182610981565b9150610b8c83610981565b9250828203905081811115610ba457610ba3610b4a565b5b92915050565b7f4e487b71000000000000000000000000000000000000000000000000000000005f52603260045260245ffd5b7f4e487b71000000000000000000000000000000000000000000000000000000005f52602260045260245ffd5b5f6002820490506001821680610c1b57607f821691505b602082108103610c2e57610c2d610bd7565b5b50919050565b5f819050815f5260205f209050919050565b5f6020601f8301049050919050565b5f82821b905092915050565b5f60088302610c907fffffffffffffffffffffffffffffffffffffffffffffffffffffffffffffffff82610c55565b610c9a8683610c55565b95508019841693508086168417925050509392505050565b5f819050919050565b5f610cd5610cd0610ccb84610981565b610cb2565b610981565b9050919050565b5f819050919050565b610cee83610cbb565b610d02610cfa82610cdc565b848454610c61565b825550505050565b5f90565b610d16610d0a565b610d21818484610ce5565b505050565b5b81811015610d4457610d395f82610d0e565b600181019050610d27565b5050565b601f821115610d8957610d5a81610c34565b610d6384610c46565b81016020851015610d72578190505b610d86610d7e85610c46565b830182610d26565b50505b505050565b5f82821c905092915050565b5f610da95f1984600802610d8e565b1980831691505092915050565b5f610dc18383610d9a565b9150826002028217905092915050565b610dda826109df565b67ffffffffffffffff811115610df357610df26106be565b5b610dfd8254610c04565b610e08828285610d48565b5f60209050601f831160018114610e39575f8415610e27578287015190505b610e318582610db6565b865550610e98565b601f198416610e4786610c34565b5f5b82811015610e6e57848901518255600182019150602085019450602081019050610e49565b86831015610e8b5784890151610e87601f891682610d9a565b8355505b6001600288020188555050505b505050505050565b7f53757276657920646f6573206e6f7420657869737400000000000000000000005f82015250565b5f610ed46015836109e9565b9150610edf82610ea0565b602082019050919050565b5f6020820190508181035f830152610f0181610ec8565b9050919050565b7f537572766579206973206e6f74206163746976650000000000000000000000005f82015250565b5f610f3c6014836109e9565b9150610f4782610f08565b602082019050919050565b5f6020820190508181035f830152610f6981610f30565b9050919050565b7f496e76616c6964206f7074696f6e20696e6465780000000000000000000000005f82015250565b5f610fa46014836109e9565b9150610faf82610f70565b602082019050919050565b5f6020820190508181035f830152610fd181610f98565b9050919050565b7f557365722068617320616c726561647920766f746564000000000000000000005f82015250565b5f61100c6016836109e9565b915061101782610fd8565b602082019050919050565b5f6020820190508181035f83015261103981611000565b9050919050565b5f61104a82610981565b91507fffffffffffffffffffffffffffffffffffffffffffffffffffffffffffffffff820361107c5761107b610b4a565b5b60018201905091905056fea26469706673582212208703b90d3be63e1fb85f68e362bf93291476f597c69f3dc386cab7db512786f364736f6c634300081a0033a2646970667358221220456a638527188c670471d92479efcea36c2a87008d5a85d8a34a15b59285997364736f6c634300081a0033",
			"opcodes": "PUSH1 0xA0 PUSH1 0x40 MSTORE PUSH0 PUSH1 0x7 SSTORE PUSH1 0x32 PUSH1 0x8 SSTORE CALLVALUE DUP1 ISZERO PUSH2 0x18 JUMPI PUSH0 DUP1 REVERT JUMPDEST POP CALLER PUSH5 0x174876E800 PUSH1 0x40 MLOAD DUP1 PUSH1 0x40 ADD PUSH1 0x40 MSTORE DUP1 PUSH1 0x6 DUP2 MSTORE PUSH1 0x20 ADD PUSH32 0x536F626F726F0000000000000000000000000000000000000000000000000000 DUP2 MSTORE POP PUSH1 0x40 MLOAD DUP1 PUSH1 0x40 ADD PUSH1 0x40 MSTORE DUP1 PUSH1 0x3 DUP2 MSTORE PUSH1 0x20 ADD PUSH32 0x5342520000000000000000000000000000000000000000000000000000000000 DUP2 MSTORE POP DUP2 PUSH1 0x3 SWAP1 DUP2 PUSH2 0x9B SWAP2 SWAP1 PUSH2 0x80B JUMP JUMPDEST POP DUP1 PUSH1 0x4 SWAP1 DUP2 PUSH2 0xAB SWAP2 SWAP1 PUSH2 0x80B JUMP JUMPDEST POP POP POP PUSH0 DUP2 SUB PUSH2 0xF2 JUMPI PUSH0 PUSH1 0x40 MLOAD PUSH32 0x392E1E2700000000000000000000000000000000000000000000000000000000 DUP2 MSTORE PUSH1 0x4 ADD PUSH2 0xE9 SWAP2 SWAP1 PUSH2 0x913 JUMP JUMPDEST PUSH1 0x40 MLOAD DUP1 SWAP2 SUB SWAP1 REVERT JUMPDEST DUP1 PUSH1 0x80 DUP2 DUP2 MSTORE POP POP POP PUSH0 PUSH20 0xFFFFFFFFFFFFFFFFFFFFFFFFFFFFFFFFFFFFFFFF AND DUP2 PUSH20 0xFFFFFFFFFFFFFFFFFFFFFFFFFFFFFFFFFFFFFFFF AND SUB PUSH2 0x16B JUMPI PUSH0 PUSH1 0x40 MLOAD PUSH32 0x1E4FBDF700000000000000000000000000000000000000000000000000000000 DUP2 MSTORE PUSH1 0x4 ADD PUSH2 0x162 SWAP2 SWAP1 PUSH2 0x96B JUMP JUMPDEST PUSH1 0x40 MLOAD DUP1 SWAP2 SUB SWAP1 REVERT JUMPDEST PUSH2 0x17A DUP2 PUSH2 0x193 PUSH1 0x20 SHL PUSH1 0x20 SHR JUMP JUMPDEST POP PUSH2 0x18E CALLER PUSH3 0x186A0 PUSH2 0x256 PUSH1 0x20 SHL PUSH1 0x20 SHR JUMP JUMPDEST PUSH2 0xA68 JUMP JUMPDEST PUSH0 PUSH1 0x5 PUSH0 SWAP1 SLOAD SWAP1 PUSH2 0x100 EXP SWAP1 DIV PUSH20 0xFFFFFFFFFFFFFFFFFFFFFFFFFFFFFFFFFFFFFFFF AND SWAP1 POP DUP2 PUSH1 0x5 PUSH0 PUSH2 0x100 EXP DUP2 SLOAD DUP2 PUSH20 0xFFFFFFFFFFFFFFFFFFFFFFFFFFFFFFFFFFFFFFFF MUL NOT AND SWAP1 DUP4 PUSH20 0xFFFFFFFFFFFFFFFFFFFFFFFFFFFFFFFFFFFFFFFF AND MUL OR SWAP1 SSTORE POP DUP2 PUSH20 0xFFFFFFFFFFFFFFFFFFFFFFFFFFFFFFFFFFFFFFFF AND DUP2 PUSH20 0xFFFFFFFFFFFFFFFFFFFFFFFFFFFFFFFFFFFFFFFF AND PUSH32 0x8BE0079C531659141344CD1FD0A4F28419497F9722A3DAAFE3B4186F6B6457E0 PUSH1 0x40 MLOAD PUSH1 0x40 MLOAD DUP1 SWAP2 SUB SWAP1 LOG3 POP POP JUMP JUMPDEST PUSH0 PUSH20 0xFFFFFFFFFFFFFFFFFFFFFFFFFFFFFFFFFFFFFFFF AND DUP3 PUSH20 0xFFFFFFFFFFFFFFFFFFFFFFFFFFFFFFFFFFFFFFFF AND SUB PUSH2 0x2C6 JUMPI PUSH0 PUSH1 0x40 MLOAD PUSH32 0xEC442F0500000000000000000000000000000000000000000000000000000000 DUP2 MSTORE PUSH1 0x4 ADD PUSH2 0x2BD SWAP2 SWAP1 PUSH2 0x96B JUMP JUMPDEST PUSH1 0x40 MLOAD DUP1 SWAP2 SUB SWAP1 REVERT JUMPDEST PUSH2 0x2D7 PUSH0 DUP4 DUP4 PUSH2 0x2DB PUSH1 0x20 SHL PUSH1 0x20 SHR JUMP JUMPDEST POP POP JUMP JUMPDEST PUSH2 0x2EC DUP4 DUP4 DUP4 PUSH2 0x2F1 PUSH1 0x20 SHL PUSH1 0x20 SHR JUMP JUMPDEST POP POP POP JUMP JUMPDEST PUSH2 0x302 DUP4 DUP4 DUP4 PUSH2 0x3A6 PUSH1 0x20 SHL PUSH1 0x20 SHR JUMP JUMPDEST PUSH0 PUSH20 0xFFFFFFFFFFFFFFFFFFFFFFFFFFFFFFFFFFFFFFFF AND DUP4 PUSH20 0xFFFFFFFFFFFFFFFFFFFFFFFFFFFFFFFFFFFFFFFF AND SUB PUSH2 0x3A1 JUMPI PUSH0 PUSH2 0x344 PUSH2 0x5BF PUSH1 0x20 SHL PUSH1 0x20 SHR JUMP JUMPDEST SWAP1 POP PUSH0 PUSH2 0x355 PUSH2 0x5C8 PUSH1 0x20 SHL PUSH1 0x20 SHR JUMP JUMPDEST SWAP1 POP DUP2 DUP2 GT ISZERO PUSH2 0x39E JUMPI DUP1 DUP3 PUSH1 0x40 MLOAD PUSH32 0x9E79F85400000000000000000000000000000000000000000000000000000000 DUP2 MSTORE PUSH1 0x4 ADD PUSH2 0x395 SWAP3 SWAP2 SWAP1 PUSH2 0x993 JUMP JUMPDEST PUSH1 0x40 MLOAD DUP1 SWAP2 SUB SWAP1 REVERT JUMPDEST POP POP JUMPDEST POP POP POP JUMP JUMPDEST PUSH0 PUSH20 0xFFFFFFFFFFFFFFFFFFFFFFFFFFFFFFFFFFFFFFFF AND DUP4 PUSH20 0xFFFFFFFFFFFFFFFFFFFFFFFFFFFFFFFFFFFFFFFF AND SUB PUSH2 0x3F6 JUMPI DUP1 PUSH1 0x2 PUSH0 DUP3 DUP3 SLOAD PUSH2 0x3EA SWAP2 SWAP1 PUSH2 0x9E7 JUMP JUMPDEST SWAP3 POP POP DUP2 SWAP1 SSTORE POP PUSH2 0x4C4 JUMP JUMPDEST PUSH0 DUP1 PUSH0 DUP6 PUSH20 0xFFFFFFFFFFFFFFFFFFFFFFFFFFFFFFFFFFFFFFFF AND PUSH20 0xFFFFFFFFFFFFFFFFFFFFFFFFFFFFFFFFFFFFFFFF AND DUP2 MSTORE PUSH1 0x20 ADD SWAP1 DUP2 MSTORE PUSH1 0x20 ADD PUSH0 KECCAK256 SLOAD SWAP1 POP DUP2 DUP2 LT ISZERO PUSH2 0x47F JUMPI DUP4 DUP2 DUP4 PUSH1 0x40 MLOAD PUSH32 0xE450D38C00000000000000000000000000000000000000000000000000000000 DUP2 MSTORE PUSH1 0x4 ADD PUSH2 0x476 SWAP4 SWAP3 SWAP2 SWAP1 PUSH2 0xA1A JUMP JUMPDEST PUSH1 0x40 MLOAD DUP1 SWAP2 SUB SWAP1 REVERT JUMPDEST DUP2 DUP2 SUB PUSH0 DUP1 DUP7 PUSH20 0xFFFFFFFFFFFFFFFFFFFFFFFFFFFFFFFFFFFFFFFF AND PUSH20 0xFFFFFFFFFFFFFFFFFFFFFFFFFFFFFFFFFFFFFFFF AND DUP2 MSTORE PUSH1 0x20 ADD SWAP1 DUP2 MSTORE PUSH1 0x20 ADD PUSH0 KECCAK256 DUP2 SWAP1 SSTORE POP POP JUMPDEST PUSH0 PUSH20 0xFFFFFFFFFFFFFFFFFFFFFFFFFFFFFFFFFFFFFFFF AND DUP3 PUSH20 0xFFFFFFFFFFFFFFFFFFFFFFFFFFFFFFFFFFFFFFFF AND SUB PUSH2 0x50B JUMPI DUP1 PUSH1 0x2 PUSH0 DUP3 DUP3 SLOAD SUB SWAP3 POP POP DUP2 SWAP1 SSTORE POP PUSH2 0x555 JUMP JUMPDEST DUP1 PUSH0 DUP1 DUP5 PUSH20 0xFFFFFFFFFFFFFFFFFFFFFFFFFFFFFFFFFFFFFFFF AND PUSH20 0xFFFFFFFFFFFFFFFFFFFFFFFFFFFFFFFFFFFFFFFF AND DUP2 MSTORE PUSH1 0x20 ADD SWAP1 DUP2 MSTORE PUSH1 0x20 ADD PUSH0 KECCAK256 PUSH0 DUP3 DUP3 SLOAD ADD SWAP3 POP POP DUP2 SWAP1 SSTORE POP JUMPDEST DUP2 PUSH20 0xFFFFFFFFFFFFFFFFFFFFFFFFFFFFFFFFFFFFFFFF AND DUP4 PUSH20 0xFFFFFFFFFFFFFFFFFFFFFFFFFFFFFFFFFFFFFFFF AND PUSH32 0xDDF252AD1BE2C89B69C2B068FC378DAA952BA7F163C4A11628F55A4DF523B3EF DUP4 PUSH1 0x40 MLOAD PUSH2 0x5B2 SWAP2 SWAP1 PUSH2 0xA4F JUMP JUMPDEST PUSH1 0x40 MLOAD DUP1 SWAP2 SUB SWAP1 LOG3 POP POP POP JUMP JUMPDEST PUSH0 PUSH1 0x80 MLOAD SWAP1 POP SWAP1 JUMP JUMPDEST PUSH0 PUSH1 0x2 SLOAD SWAP1 POP SWAP1 JUMP JUMPDEST PUSH0 DUP2 MLOAD SWAP1 POP SWAP2 SWAP1 POP JUMP JUMPDEST PUSH32 0x4E487B7100000000000000000000000000000000000000000000000000000000 PUSH0 MSTORE PUSH1 0x41 PUSH1 0x4 MSTORE PUSH1 0x24 PUSH0 REVERT JUMPDEST PUSH32 0x4E487B7100000000000000000000000000000000000000000000000000000000 PUSH0 MSTORE PUSH1 0x22 PUSH1 0x4 MSTORE PUSH1 0x24 PUSH0 REVERT JUMPDEST PUSH0 PUSH1 0x2 DUP3 DIV SWAP1 POP PUSH1 0x1 DUP3 AND DUP1 PUSH2 0x64C JUMPI PUSH1 0x7F DUP3 AND SWAP2 POP JUMPDEST PUSH1 0x20 DUP3 LT DUP2 SUB PUSH2 0x65F JUMPI PUSH2 0x65E PUSH2 0x608 JUMP JUMPDEST JUMPDEST POP SWAP2 SWAP1 POP JUMP JUMPDEST PUSH0 DUP2 SWAP1 POP DUP2 PUSH0 MSTORE PUSH1 0x20 PUSH0 KECCAK256 SWAP1 POP SWAP2 SWAP1 POP JUMP JUMPDEST PUSH0 PUSH1 0x20 PUSH1 0x1F DUP4 ADD DIV SWAP1 POP SWAP2 SWAP1 POP JUMP JUMPDEST PUSH0 DUP3 DUP3 SHL SWAP1 POP SWAP3 SWAP2 POP POP JUMP JUMPDEST PUSH0 PUSH1 0x8 DUP4 MUL PUSH2 0x6C1 PUSH32 0xFFFFFFFFFFFFFFFFFFFFFFFFFFFFFFFFFFFFFFFFFFFFFFFFFFFFFFFFFFFFFFFF DUP3 PUSH2 0x686 JUMP JUMPDEST PUSH2 0x6CB DUP7 DUP4 PUSH2 0x686 JUMP JUMPDEST SWAP6 POP DUP1 NOT DUP5 AND SWAP4 POP DUP1 DUP7 AND DUP5 OR SWAP3 POP POP POP SWAP4 SWAP3 POP POP POP JUMP JUMPDEST PUSH0 DUP2 SWAP1 POP SWAP2 SWAP1 POP JUMP JUMPDEST PUSH0 DUP2 SWAP1 POP SWAP2 SWAP1 POP JUMP JUMPDEST PUSH0 PUSH2 0x70F PUSH2 0x70A PUSH2 0x705 DUP5 PUSH2 0x6E3 JUMP JUMPDEST PUSH2 0x6EC JUMP JUMPDEST PUSH2 0x6E3 JUMP JUMPDEST SWAP1 POP SWAP2 SWAP1 POP JUMP JUMPDEST PUSH0 DUP2 SWAP1 POP SWAP2 SWAP1 POP JUMP JUMPDEST PUSH2 0x728 DUP4 PUSH2 0x6F5 JUMP JUMPDEST PUSH2 0x73C PUSH2 0x734 DUP3 PUSH2 0x716 JUMP JUMPDEST DUP5 DUP5 SLOAD PUSH2 0x692 JUMP JUMPDEST DUP3 SSTORE POP POP POP POP JUMP JUMPDEST PUSH0 SWAP1 JUMP JUMPDEST PUSH2 0x750 PUSH2 0x744 JUMP JUMPDEST PUSH2 0x75B DUP2 DUP5 DUP5 PUSH2 0x71F JUMP JUMPDEST POP POP POP JUMP JUMPDEST JUMPDEST DUP2 DUP2 LT ISZERO PUSH2 0x77E JUMPI PUSH2 0x773 PUSH0 DUP3 PUSH2 0x748 JUMP JUMPDEST PUSH1 0x1 DUP2 ADD SWAP1 POP PUSH2 0x761 JUMP JUMPDEST POP POP JUMP JUMPDEST PUSH1 0x1F DUP3 GT ISZERO PUSH2 0x7C3 JUMPI PUSH2 0x794 DUP2 PUSH2 0x665 JUMP JUMPDEST PUSH2 0x79D DUP5 PUSH2 0x677 JUMP JUMPDEST DUP2 ADD PUSH1 0x20 DUP6 LT ISZERO PUSH2 0x7AC JUMPI DUP2 SWAP1 POP JUMPDEST PUSH2 0x7C0 PUSH2 0x7B8 DUP6 PUSH2 0x677 JUMP JUMPDEST DUP4 ADD DUP3 PUSH2 0x760 JUMP JUMPDEST POP POP JUMPDEST POP POP POP JUMP JUMPDEST PUSH0 DUP3 DUP3 SHR SWAP1 POP SWAP3 SWAP2 POP POP JUMP JUMPDEST PUSH0 PUSH2 0x7E3 PUSH0 NOT DUP5 PUSH1 0x8 MUL PUSH2 0x7C8 JUMP JUMPDEST NOT DUP1 DUP4 AND SWAP2 POP POP SWAP3 SWAP2 POP POP JUMP JUMPDEST PUSH0 PUSH2 0x7FB DUP4 DUP4 PUSH2 0x7D4 JUMP JUMPDEST SWAP2 POP DUP3 PUSH1 0x2 MUL DUP3 OR SWAP1 POP SWAP3 SWAP2 POP POP JUMP JUMPDEST PUSH2 0x814 DUP3 PUSH2 0x5D1 JUMP JUMPDEST PUSH8 0xFFFFFFFFFFFFFFFF DUP2 GT ISZERO PUSH2 0x82D JUMPI PUSH2 0x82C PUSH2 0x5DB JUMP JUMPDEST JUMPDEST PUSH2 0x837 DUP3 SLOAD PUSH2 0x635 JUMP JUMPDEST PUSH2 0x842 DUP3 DUP3 DUP6 PUSH2 0x782 JUMP JUMPDEST PUSH0 PUSH1 0x20 SWAP1 POP PUSH1 0x1F DUP4 GT PUSH1 0x1 DUP2 EQ PUSH2 0x873 JUMPI PUSH0 DUP5 ISZERO PUSH2 0x861 JUMPI DUP3 DUP8 ADD MLOAD SWAP1 POP JUMPDEST PUSH2 0x86B DUP6 DUP3 PUSH2 0x7F0 JUMP JUMPDEST DUP7 SSTORE POP PUSH2 0x8D2 JUMP JUMPDEST PUSH1 0x1F NOT DUP5 AND PUSH2 0x881 DUP7 PUSH2 0x665 JUMP JUMPDEST PUSH0 JUMPDEST DUP3 DUP2 LT ISZERO PUSH2 0x8A8 JUMPI DUP5 DUP10 ADD MLOAD DUP3 SSTORE PUSH1 0x1 DUP3 ADD SWAP2 POP PUSH1 0x20 DUP6 ADD SWAP5 POP PUSH1 0x20 DUP2 ADD SWAP1 POP PUSH2 0x883 JUMP JUMPDEST DUP7 DUP4 LT ISZERO PUSH2 0x8C5 JUMPI DUP5 DUP10 ADD MLOAD PUSH2 0x8C1 PUSH1 0x1F DUP10 AND DUP3 PUSH2 0x7D4 JUMP JUMPDEST DUP4 SSTORE POP JUMPDEST PUSH1 0x1 PUSH1 0x2 DUP9 MUL ADD DUP9 SSTORE POP POP POP JUMPDEST POP POP POP POP POP POP JUMP JUMPDEST PUSH0 DUP2 SWAP1 POP SWAP2 SWAP1 POP JUMP JUMPDEST PUSH0 PUSH2 0x8FD PUSH2 0x8F8 PUSH2 0x8F3 DUP5 PUSH2 0x8DA JUMP JUMPDEST PUSH2 0x6EC JUMP JUMPDEST PUSH2 0x6E3 JUMP JUMPDEST SWAP1 POP SWAP2 SWAP1 POP JUMP JUMPDEST PUSH2 0x90D DUP2 PUSH2 0x8E3 JUMP JUMPDEST DUP3 MSTORE POP POP JUMP JUMPDEST PUSH0 PUSH1 0x20 DUP3 ADD SWAP1 POP PUSH2 0x926 PUSH0 DUP4 ADD DUP5 PUSH2 0x904 JUMP JUMPDEST SWAP3 SWAP2 POP POP JUMP JUMPDEST PUSH0 PUSH20 0xFFFFFFFFFFFFFFFFFFFFFFFFFFFFFFFFFFFFFFFF DUP3 AND SWAP1 POP SWAP2 SWAP1 POP JUMP JUMPDEST PUSH0 PUSH2 0x955 DUP3 PUSH2 0x92C JUMP JUMPDEST SWAP1 POP SWAP2 SWAP1 POP JUMP JUMPDEST PUSH2 0x965 DUP2 PUSH2 0x94B JUMP JUMPDEST DUP3 MSTORE POP POP JUMP JUMPDEST PUSH0 PUSH1 0x20 DUP3 ADD SWAP1 POP PUSH2 0x97E PUSH0 DUP4 ADD DUP5 PUSH2 0x95C JUMP JUMPDEST SWAP3 SWAP2 POP POP JUMP JUMPDEST PUSH2 0x98D DUP2 PUSH2 0x6E3 JUMP JUMPDEST DUP3 MSTORE POP POP JUMP JUMPDEST PUSH0 PUSH1 0x40 DUP3 ADD SWAP1 POP PUSH2 0x9A6 PUSH0 DUP4 ADD DUP6 PUSH2 0x984 JUMP JUMPDEST PUSH2 0x9B3 PUSH1 0x20 DUP4 ADD DUP5 PUSH2 0x984 JUMP JUMPDEST SWAP4 SWAP3 POP POP POP JUMP JUMPDEST PUSH32 0x4E487B7100000000000000000000000000000000000000000000000000000000 PUSH0 MSTORE PUSH1 0x11 PUSH1 0x4 MSTORE PUSH1 0x24 PUSH0 REVERT JUMPDEST PUSH0 PUSH2 0x9F1 DUP3 PUSH2 0x6E3 JUMP JUMPDEST SWAP2 POP PUSH2 0x9FC DUP4 PUSH2 0x6E3 JUMP JUMPDEST SWAP3 POP DUP3 DUP3 ADD SWAP1 POP DUP1 DUP3 GT ISZERO PUSH2 0xA14 JUMPI PUSH2 0xA13 PUSH2 0x9BA JUMP JUMPDEST JUMPDEST SWAP3 SWAP2 POP POP JUMP JUMPDEST PUSH0 PUSH1 0x60 DUP3 ADD SWAP1 POP PUSH2 0xA2D PUSH0 DUP4 ADD DUP7 PUSH2 0x95C JUMP JUMPDEST PUSH2 0xA3A PUSH1 0x20 DUP4 ADD DUP6 PUSH2 0x984 JUMP JUMPDEST PUSH2 0xA47 PUSH1 0x40 DUP4 ADD DUP5 PUSH2 0x984 JUMP JUMPDEST SWAP5 SWAP4 POP POP POP POP JUMP JUMPDEST PUSH0 PUSH1 0x20 DUP3 ADD SWAP1 POP PUSH2 0xA62 PUSH0 DUP4 ADD DUP5 PUSH2 0x984 JUMP JUMPDEST SWAP3 SWAP2 POP POP JUMP JUMPDEST PUSH1 0x80 MLOAD PUSH2 0x2CB4 PUSH2 0xA80 PUSH0 CODECOPY PUSH0 PUSH2 0x5F7 ADD MSTORE PUSH2 0x2CB4 PUSH0 RETURN INVALID PUSH1 0x80 PUSH1 0x40 MSTORE CALLVALUE DUP1 ISZERO PUSH2 0xF JUMPI PUSH0 DUP1 REVERT JUMPDEST POP PUSH1 0x4 CALLDATASIZE LT PUSH2 0x109 JUMPI PUSH0 CALLDATALOAD PUSH1 0xE0 SHR DUP1 PUSH4 0x4735C94C GT PUSH2 0xA0 JUMPI DUP1 PUSH4 0x8DA5CB5B GT PUSH2 0x6F JUMPI DUP1 PUSH4 0x8DA5CB5B EQ PUSH2 0x27D JUMPI DUP1 PUSH4 0x95D89B41 EQ PUSH2 0x29B JUMPI DUP1 PUSH4 0xA9059CBB EQ PUSH2 0x2B9 JUMPI DUP1 PUSH4 0xDD62ED3E EQ PUSH2 0x2E9 JUMPI DUP1 PUSH4 0xF2FDE38B EQ PUSH2 0x319 JUMPI PUSH2 0x109 JUMP JUMPDEST DUP1 PUSH4 0x4735C94C EQ PUSH2 0x21D JUMPI DUP1 PUSH4 0x70A08231 EQ PUSH2 0x227 JUMPI DUP1 PUSH4 0x715018A6 EQ PUSH2 0x257 JUMPI DUP1 PUSH4 0x79CC6790 EQ PUSH2 0x261 JUMPI PUSH2 0x109 JUMP JUMPDEST DUP1 PUSH4 0x23B872DD GT PUSH2 0xDC JUMPI DUP1 PUSH4 0x23B872DD EQ PUSH2 0x195 JUMPI DUP1 PUSH4 0x313CE567 EQ PUSH2 0x1C5 JUMPI DUP1 PUSH4 0x355274EA EQ PUSH2 0x1E3 JUMPI DUP1 PUSH4 0x42966C68 EQ PUSH2 0x201 JUMPI PUSH2 0x109 JUMP JUMPDEST DUP1 PUSH4 0x528395E EQ PUSH2 0x10D JUMPI DUP1 PUSH4 0x6FDDE03 EQ PUSH2 0x129 JUMPI DUP1 PUSH4 0x95EA7B3 EQ PUSH2 0x147 JUMPI DUP1 PUSH4 0x18160DDD EQ PUSH2 0x177 JUMPI JUMPDEST PUSH0 DUP1 REVERT JUMPDEST PUSH2 0x127 PUSH1 0x4 DUP1 CALLDATASIZE SUB DUP2 ADD SWAP1 PUSH2 0x122 SWAP2 SWAP1 PUSH2 0x1434 JUMP JUMPDEST PUSH2 0x335 JUMP JUMPDEST STOP JUMPDEST PUSH2 0x131 PUSH2 0x503 JUMP JUMPDEST PUSH1 0x40 MLOAD PUSH2 0x13E SWAP2 SWAP1 PUSH2 0x151C JUMP JUMPDEST PUSH1 0x40 MLOAD DUP1 SWAP2 SUB SWAP1 RETURN JUMPDEST PUSH2 0x161 PUSH1 0x4 DUP1 CALLDATASIZE SUB DUP2 ADD SWAP1 PUSH2 0x15C SWAP2 SWAP1 PUSH2 0x15C9 JUMP JUMPDEST PUSH2 0x593 JUMP JUMPDEST PUSH1 0x40 MLOAD PUSH2 0x16E SWAP2 SWAP1 PUSH2 0x1616 JUMP JUMPDEST PUSH1 0x40 MLOAD DUP1 SWAP2 SUB SWAP1 RETURN JUMPDEST PUSH2 0x17F PUSH2 0x5B5 JUMP JUMPDEST PUSH1 0x40 MLOAD PUSH2 0x18C SWAP2 SWAP1 PUSH2 0x163E JUMP JUMPDEST PUSH1 0x40 MLOAD DUP1 SWAP2 SUB SWAP1 RETURN JUMPDEST PUSH2 0x1AF PUSH1 0x4 DUP1 CALLDATASIZE SUB DUP2 ADD SWAP1 PUSH2 0x1AA SWAP2 SWAP1 PUSH2 0x1657 JUMP JUMPDEST PUSH2 0x5BE JUMP JUMPDEST PUSH1 0x40 MLOAD PUSH2 0x1BC SWAP2 SWAP1 PUSH2 0x1616 JUMP JUMPDEST PUSH1 0x40 MLOAD DUP1 SWAP2 SUB SWAP1 RETURN JUMPDEST PUSH2 0x1CD PUSH2 0x5EC JUMP JUMPDEST PUSH1 0x40 MLOAD PUSH2 0x1DA SWAP2 SWAP1 PUSH2 0x16C2 JUMP JUMPDEST PUSH1 0x40 MLOAD DUP1 SWAP2 SUB SWAP1 RETURN JUMPDEST PUSH2 0x1EB PUSH2 0x5F4 JUMP JUMPDEST PUSH1 0x40 MLOAD PUSH2 0x1F8 SWAP2 SWAP1 PUSH2 0x163E JUMP JUMPDEST PUSH1 0x40 MLOAD DUP1 SWAP2 SUB SWAP1 RETURN JUMPDEST PUSH2 0x21B PUSH1 0x4 DUP1 CALLDATASIZE SUB DUP2 ADD SWAP1 PUSH2 0x216 SWAP2 SWAP1 PUSH2 0x16DB JUMP JUMPDEST PUSH2 0x61B JUMP JUMPDEST STOP JUMPDEST PUSH2 0x225 PUSH2 0x62F JUMP JUMPDEST STOP JUMPDEST PUSH2 0x241 PUSH1 0x4 DUP1 CALLDATASIZE SUB DUP2 ADD SWAP1 PUSH2 0x23C SWAP2 SWAP1 PUSH2 0x1706 JUMP JUMPDEST PUSH2 0x76B JUMP JUMPDEST PUSH1 0x40 MLOAD PUSH2 0x24E SWAP2 SWAP1 PUSH2 0x163E JUMP JUMPDEST PUSH1 0x40 MLOAD DUP1 SWAP2 SUB SWAP1 RETURN JUMPDEST PUSH2 0x25F PUSH2 0x7B0 JUMP JUMPDEST STOP JUMPDEST PUSH2 0x27B PUSH1 0x4 DUP1 CALLDATASIZE SUB DUP2 ADD SWAP1 PUSH2 0x276 SWAP2 SWAP1 PUSH2 0x15C9 JUMP JUMPDEST PUSH2 0x7C3 JUMP JUMPDEST STOP JUMPDEST PUSH2 0x285 PUSH2 0x7E3 JUMP JUMPDEST PUSH1 0x40 MLOAD PUSH2 0x292 SWAP2 SWAP1 PUSH2 0x1740 JUMP JUMPDEST PUSH1 0x40 MLOAD DUP1 SWAP2 SUB SWAP1 RETURN JUMPDEST PUSH2 0x2A3 PUSH2 0x80B JUMP JUMPDEST PUSH1 0x40 MLOAD PUSH2 0x2B0 SWAP2 SWAP1 PUSH2 0x151C JUMP JUMPDEST PUSH1 0x40 MLOAD DUP1 SWAP2 SUB SWAP1 RETURN JUMPDEST PUSH2 0x2D3 PUSH1 0x4 DUP1 CALLDATASIZE SUB DUP2 ADD SWAP1 PUSH2 0x2CE SWAP2 SWAP1 PUSH2 0x15C9 JUMP JUMPDEST PUSH2 0x89B JUMP JUMPDEST PUSH1 0x40 MLOAD PUSH2 0x2E0 SWAP2 SWAP1 PUSH2 0x1616 JUMP JUMPDEST PUSH1 0x40 MLOAD DUP1 SWAP2 SUB SWAP1 RETURN JUMPDEST PUSH2 0x303 PUSH1 0x4 DUP1 CALLDATASIZE SUB DUP2 ADD SWAP1 PUSH2 0x2FE SWAP2 SWAP1 PUSH2 0x1759 JUMP JUMPDEST PUSH2 0x8BD JUMP JUMPDEST PUSH1 0x40 MLOAD PUSH2 0x310 SWAP2 SWAP1 PUSH2 0x163E JUMP JUMPDEST PUSH1 0x40 MLOAD DUP1 SWAP2 SUB SWAP1 RETURN JUMPDEST PUSH2 0x333 PUSH1 0x4 DUP1 CALLDATASIZE SUB DUP2 ADD SWAP1 PUSH2 0x32E SWAP2 SWAP1 PUSH2 0x1706 JUMP JUMPDEST PUSH2 0x93F JUMP JUMPDEST STOP JUMPDEST PUSH2 0x33D PUSH2 0x9C3 JUMP JUMPDEST PUSH0 PUSH1 0x1 PUSH1 0x7 SLOAD PUSH2 0x34D SWAP2 SWAP1 PUSH2 0x17C4 JUMP JUMPDEST SWAP1 POP PUSH0 PUSH20 0xFFFFFFFFFFFFFFFFFFFFFFFFFFFFFFFFFFFFFFFF AND PUSH1 0x6 PUSH0 DUP4 DUP2 MSTORE PUSH1 0x20 ADD SWAP1 DUP2 MSTORE PUSH1 0x20 ADD PUSH0 KECCAK256 PUSH0 SWAP1 SLOAD SWAP1 PUSH2 0x100 EXP SWAP1 DIV PUSH20 0xFFFFFFFFFFFFFFFFFFFFFFFFFFFFFFFFFFFFFFFF AND PUSH20 0xFFFFFFFFFFFFFFFFFFFFFFFFFFFFFFFFFFFFFFFF AND SUB PUSH2 0x3ED JUMPI PUSH1 0x40 MLOAD PUSH32 0x8C379A000000000000000000000000000000000000000000000000000000000 DUP2 MSTORE PUSH1 0x4 ADD PUSH2 0x3E4 SWAP1 PUSH2 0x1867 JUMP JUMPDEST PUSH1 0x40 MLOAD DUP1 SWAP2 SUB SWAP1 REVERT JUMPDEST PUSH0 PUSH1 0x6 PUSH0 DUP4 DUP2 MSTORE PUSH1 0x20 ADD SWAP1 DUP2 MSTORE PUSH1 0x20 ADD PUSH0 KECCAK256 PUSH0 SWAP1 SLOAD SWAP1 PUSH2 0x100 EXP SWAP1 DIV PUSH20 0xFFFFFFFFFFFFFFFFFFFFFFFFFFFFFFFFFFFFFFFF AND SWAP1 POP PUSH0 DUP2 PUSH20 0xFFFFFFFFFFFFFFFFFFFFFFFFFFFFFFFFFFFFFFFF AND PUSH4 0x9FE140B1 PUSH1 0x40 MLOAD DUP2 PUSH4 0xFFFFFFFF AND PUSH1 0xE0 SHL DUP2 MSTORE PUSH1 0x4 ADD PUSH1 0x20 PUSH1 0x40 MLOAD DUP1 DUP4 SUB DUP2 DUP7 GAS STATICCALL ISZERO DUP1 ISZERO PUSH2 0x46B JUMPI RETURNDATASIZE PUSH0 DUP1 RETURNDATACOPY RETURNDATASIZE PUSH0 REVERT JUMPDEST POP POP POP POP PUSH1 0x40 MLOAD RETURNDATASIZE PUSH1 0x1F NOT PUSH1 0x1F DUP3 ADD AND DUP3 ADD DUP1 PUSH1 0x40 MSTORE POP DUP2 ADD SWAP1 PUSH2 0x48F SWAP2 SWAP1 PUSH2 0x1899 JUMP JUMPDEST SWAP1 POP DUP2 PUSH20 0xFFFFFFFFFFFFFFFFFFFFFFFFFFFFFFFFFFFFFFFF AND PUSH4 0xC4960DD DUP8 DUP8 DUP8 PUSH1 0x40 MLOAD DUP5 PUSH4 0xFFFFFFFF AND PUSH1 0xE0 SHL DUP2 MSTORE PUSH1 0x4 ADD PUSH2 0x4CE SWAP4 SWAP3 SWAP2 SWAP1 PUSH2 0x19C7 JUMP JUMPDEST PUSH0 PUSH1 0x40 MLOAD DUP1 DUP4 SUB DUP2 PUSH0 DUP8 DUP1 EXTCODESIZE ISZERO DUP1 ISZERO PUSH2 0x4E5 JUMPI PUSH0 DUP1 REVERT JUMPDEST POP GAS CALL ISZERO DUP1 ISZERO PUSH2 0x4F7 JUMPI RETURNDATASIZE PUSH0 DUP1 RETURNDATACOPY RETURNDATASIZE PUSH0 REVERT JUMPDEST POP POP POP POP POP POP POP POP POP POP JUMP JUMPDEST PUSH1 0x60 PUSH1 0x3 DUP1 SLOAD PUSH2 0x512 SWAP1 PUSH2 0x1A37 JUMP JUMPDEST DUP1 PUSH1 0x1F ADD PUSH1 0x20 DUP1 SWAP2 DIV MUL PUSH1 0x20 ADD PUSH1 0x40 MLOAD SWAP1 DUP2 ADD PUSH1 0x40 MSTORE DUP1 SWAP3 SWAP2 SWAP1 DUP2 DUP2 MSTORE PUSH1 0x20 ADD DUP3 DUP1 SLOAD PUSH2 0x53E SWAP1 PUSH2 0x1A37 JUMP JUMPDEST DUP1 ISZERO PUSH2 0x589 JUMPI DUP1 PUSH1 0x1F LT PUSH2 0x560 JUMPI PUSH2 0x100 DUP1 DUP4 SLOAD DIV MUL DUP4 MSTORE SWAP2 PUSH1 0x20 ADD SWAP2 PUSH2 0x589 JUMP JUMPDEST DUP3 ADD SWAP2 SWAP1 PUSH0 MSTORE PUSH1 0x20 PUSH0 KECCAK256 SWAP1 JUMPDEST DUP2 SLOAD DUP2 MSTORE SWAP1 PUSH1 0x1 ADD SWAP1 PUSH1 0x20 ADD DUP1 DUP4 GT PUSH2 0x56C JUMPI DUP3 SWAP1 SUB PUSH1 0x1F AND DUP3 ADD SWAP2 JUMPDEST POP POP POP POP POP SWAP1 POP SWAP1 JUMP JUMPDEST PUSH0 DUP1 PUSH2 0x59D PUSH2 0xA4A JUMP JUMPDEST SWAP1 POP PUSH2 0x5AA DUP2 DUP6 DUP6 PUSH2 0xA51 JUMP JUMPDEST PUSH1 0x1 SWAP2 POP POP SWAP3 SWAP2 POP POP JUMP JUMPDEST PUSH0 PUSH1 0x2 SLOAD SWAP1 POP SWAP1 JUMP JUMPDEST PUSH0 DUP1 PUSH2 0x5C8 PUSH2 0xA4A JUMP JUMPDEST SWAP1 POP PUSH2 0x5D5 DUP6 DUP3 DUP6 PUSH2 0xA63 JUMP JUMPDEST PUSH2 0x5E0 DUP6 DUP6 DUP6 PUSH2 0xAF6 JUMP JUMPDEST PUSH1 0x1 SWAP2 POP POP SWAP4 SWAP3 POP POP POP JUMP JUMPDEST PUSH0 PUSH1 0x12 SWAP1 POP SWAP1 JUMP JUMPDEST PUSH0 PUSH32 0x0 SWAP1 POP SWAP1 JUMP JUMPDEST PUSH2 0x62C PUSH2 0x626 PUSH2 0xA4A JUMP JUMPDEST DUP3 PUSH2 0xBE6 JUMP JUMPDEST POP JUMP JUMPDEST PUSH2 0x637 PUSH2 0x9C3 JUMP JUMPDEST PUSH0 PUSH20 0xFFFFFFFFFFFFFFFFFFFFFFFFFFFFFFFFFFFFFFFF AND PUSH1 0x6 PUSH0 PUSH1 0x7 SLOAD DUP2 MSTORE PUSH1 0x20 ADD SWAP1 DUP2 MSTORE PUSH1 0x20 ADD PUSH0 KECCAK256 PUSH0 SWAP1 SLOAD SWAP1 PUSH2 0x100 EXP SWAP1 DIV PUSH20 0xFFFFFFFFFFFFFFFFFFFFFFFFFFFFFFFFFFFFFFFF AND PUSH20 0xFFFFFFFFFFFFFFFFFFFFFFFFFFFFFFFFFFFFFFFF AND EQ PUSH2 0x6D7 JUMPI PUSH1 0x40 MLOAD PUSH32 0x8C379A000000000000000000000000000000000000000000000000000000000 DUP2 MSTORE PUSH1 0x4 ADD PUSH2 0x6CE SWAP1 PUSH2 0x1AB1 JUMP JUMPDEST PUSH1 0x40 MLOAD DUP1 SWAP2 SUB SWAP1 REVERT JUMPDEST PUSH0 PUSH1 0x40 MLOAD PUSH2 0x6E4 SWAP1 PUSH2 0x11C3 JUMP JUMPDEST PUSH1 0x40 MLOAD DUP1 SWAP2 SUB SWAP1 PUSH0 CREATE DUP1 ISZERO DUP1 ISZERO PUSH2 0x6FD JUMPI RETURNDATASIZE PUSH0 DUP1 RETURNDATACOPY RETURNDATASIZE PUSH0 REVERT JUMPDEST POP SWAP1 POP DUP1 PUSH1 0x6 PUSH0 PUSH1 0x7 SLOAD DUP2 MSTORE PUSH1 0x20 ADD SWAP1 DUP2 MSTORE PUSH1 0x20 ADD PUSH0 KECCAK256 PUSH0 PUSH2 0x100 EXP DUP2 SLOAD DUP2 PUSH20 0xFFFFFFFFFFFFFFFFFFFFFFFFFFFFFFFFFFFFFFFF MUL NOT AND SWAP1 DUP4 PUSH20 0xFFFFFFFFFFFFFFFFFFFFFFFFFFFFFFFFFFFFFFFF AND MUL OR SWAP1 SSTORE POP PUSH1 0x7 PUSH0 DUP2 SLOAD DUP1 SWAP3 SWAP2 SWAP1 PUSH2 0x763 SWAP1 PUSH2 0x1ACF JUMP JUMPDEST SWAP2 SWAP1 POP SSTORE POP POP JUMP JUMPDEST PUSH0 DUP1 PUSH0 DUP4 PUSH20 0xFFFFFFFFFFFFFFFFFFFFFFFFFFFFFFFFFFFFFFFF AND PUSH20 0xFFFFFFFFFFFFFFFFFFFFFFFFFFFFFFFFFFFFFFFF AND DUP2 MSTORE PUSH1 0x20 ADD SWAP1 DUP2 MSTORE PUSH1 0x20 ADD PUSH0 KECCAK256 SLOAD SWAP1 POP SWAP2 SWAP1 POP JUMP JUMPDEST PUSH2 0x7B8 PUSH2 0x9C3 JUMP JUMPDEST PUSH2 0x7C1 PUSH0 PUSH2 0xC65 JUMP JUMPDEST JUMP JUMPDEST PUSH2 0x7D5 DUP3 PUSH2 0x7CF PUSH2 0xA4A JUMP JUMPDEST DUP4 PUSH2 0xA63 JUMP JUMPDEST PUSH2 0x7DF DUP3 DUP3 PUSH2 0xBE6 JUMP JUMPDEST POP POP JUMP JUMPDEST PUSH0 PUSH1 0x5 PUSH0 SWAP1 SLOAD SWAP1 PUSH2 0x100 EXP SWAP1 DIV PUSH20 0xFFFFFFFFFFFFFFFFFFFFFFFFFFFFFFFFFFFFFFFF AND SWAP1 POP SWAP1 JUMP JUMPDEST PUSH1 0x60 PUSH1 0x4 DUP1 SLOAD PUSH2 0x81A SWAP1 PUSH2 0x1A37 JUMP JUMPDEST DUP1 PUSH1 0x1F ADD PUSH1 0x20 DUP1 SWAP2 DIV MUL PUSH1 0x20 ADD PUSH1 0x40 MLOAD SWAP1 DUP2 ADD PUSH1 0x40 MSTORE DUP1 SWAP3 SWAP2 SWAP1 DUP2 DUP2 MSTORE PUSH1 0x20 ADD DUP3 DUP1 SLOAD PUSH2 0x846 SWAP1 PUSH2 0x1A37 JUMP JUMPDEST DUP1 ISZERO PUSH2 0x891 JUMPI DUP1 PUSH1 0x1F LT PUSH2 0x868 JUMPI PUSH2 0x100 DUP1 DUP4 SLOAD DIV MUL DUP4 MSTORE SWAP2 PUSH1 0x20 ADD SWAP2 PUSH2 0x891 JUMP JUMPDEST DUP3 ADD SWAP2 SWAP1 PUSH0 MSTORE PUSH1 0x20 PUSH0 KECCAK256 SWAP1 JUMPDEST DUP2 SLOAD DUP2 MSTORE SWAP1 PUSH1 0x1 ADD SWAP1 PUSH1 0x20 ADD DUP1 DUP4 GT PUSH2 0x874 JUMPI DUP3 SWAP1 SUB PUSH1 0x1F AND DUP3 ADD SWAP2 JUMPDEST POP POP POP POP POP SWAP1 POP SWAP1 JUMP JUMPDEST PUSH0 DUP1 PUSH2 0x8A5 PUSH2 0xA4A JUMP JUMPDEST SWAP1 POP PUSH2 0x8B2 DUP2 DUP6 DUP6 PUSH2 0xAF6 JUMP JUMPDEST PUSH1 0x1 SWAP2 POP POP SWAP3 SWAP2 POP POP JUMP JUMPDEST PUSH0 PUSH1 0x1 PUSH0 DUP5 PUSH20 0xFFFFFFFFFFFFFFFFFFFFFFFFFFFFFFFFFFFFFFFF AND PUSH20 0xFFFFFFFFFFFFFFFFFFFFFFFFFFFFFFFFFFFFFFFF AND DUP2 MSTORE PUSH1 0x20 ADD SWAP1 DUP2 MSTORE PUSH1 0x20 ADD PUSH0 KECCAK256 PUSH0 DUP4 PUSH20 0xFFFFFFFFFFFFFFFFFFFFFFFFFFFFFFFFFFFFFFFF AND PUSH20 0xFFFFFFFFFFFFFFFFFFFFFFFFFFFFFFFFFFFFFFFF AND DUP2 MSTORE PUSH1 0x20 ADD SWAP1 DUP2 MSTORE PUSH1 0x20 ADD PUSH0 KECCAK256 SLOAD SWAP1 POP SWAP3 SWAP2 POP POP JUMP JUMPDEST PUSH2 0x947 PUSH2 0x9C3 JUMP JUMPDEST PUSH0 PUSH20 0xFFFFFFFFFFFFFFFFFFFFFFFFFFFFFFFFFFFFFFFF AND DUP2 PUSH20 0xFFFFFFFFFFFFFFFFFFFFFFFFFFFFFFFFFFFFFFFF AND SUB PUSH2 0x9B7 JUMPI PUSH0 PUSH1 0x40 MLOAD PUSH32 0x1E4FBDF700000000000000000000000000000000000000000000000000000000 DUP2 MSTORE PUSH1 0x4 ADD PUSH2 0x9AE SWAP2 SWAP1 PUSH2 0x1740 JUMP JUMPDEST PUSH1 0x40 MLOAD DUP1 SWAP2 SUB SWAP1 REVERT JUMPDEST PUSH2 0x9C0 DUP2 PUSH2 0xC65 JUMP JUMPDEST POP JUMP JUMPDEST PUSH2 0x9CB PUSH2 0xA4A JUMP JUMPDEST PUSH20 0xFFFFFFFFFFFFFFFFFFFFFFFFFFFFFFFFFFFFFFFF AND PUSH2 0x9E9 PUSH2 0x7E3 JUMP JUMPDEST PUSH20 0xFFFFFFFFFFFFFFFFFFFFFFFFFFFFFFFFFFFFFFFF AND EQ PUSH2 0xA48 JUMPI PUSH2 0xA0C PUSH2 0xA4A JUMP JUMPDEST PUSH1 0x40 MLOAD PUSH32 0x118CDAA700000000000000000000000000000000000000000000000000000000 DUP2 MSTORE PUSH1 0x4 ADD PUSH2 0xA3F SWAP2 SWAP1 PUSH2 0x1740 JUMP JUMPDEST PUSH1 0x40 MLOAD DUP1 SWAP2 SUB SWAP1 REVERT JUMPDEST JUMP JUMPDEST PUSH0 CALLER SWAP1 POP SWAP1 JUMP JUMPDEST PUSH2 0xA5E DUP4 DUP4 DUP4 PUSH1 0x1 PUSH2 0xD28 JUMP JUMPDEST POP POP POP JUMP JUMPDEST PUSH0 PUSH2 0xA6E DUP5 DUP5 PUSH2 0x8BD JUMP JUMPDEST SWAP1 POP PUSH32 0xFFFFFFFFFFFFFFFFFFFFFFFFFFFFFFFFFFFFFFFFFFFFFFFFFFFFFFFFFFFFFFFF DUP2 LT ISZERO PUSH2 0xAF0 JUMPI DUP2 DUP2 LT ISZERO PUSH2 0xAE1 JUMPI DUP3 DUP2 DUP4 PUSH1 0x40 MLOAD PUSH32 0xFB8F41B200000000000000000000000000000000000000000000000000000000 DUP2 MSTORE PUSH1 0x4 ADD PUSH2 0xAD8 SWAP4 SWAP3 SWAP2 SWAP1 PUSH2 0x1B16 JUMP JUMPDEST PUSH1 0x40 MLOAD DUP1 SWAP2 SUB SWAP1 REVERT JUMPDEST PUSH2 0xAEF DUP5 DUP5 DUP5 DUP5 SUB PUSH0 PUSH2 0xD28 JUMP JUMPDEST JUMPDEST POP POP POP POP JUMP JUMPDEST PUSH0 PUSH20 0xFFFFFFFFFFFFFFFFFFFFFFFFFFFFFFFFFFFFFFFF AND DUP4 PUSH20 0xFFFFFFFFFFFFFFFFFFFFFFFFFFFFFFFFFFFFFFFF AND SUB PUSH2 0xB66 JUMPI PUSH0 PUSH1 0x40 MLOAD PUSH32 0x96C6FD1E00000000000000000000000000000000000000000000000000000000 DUP2 MSTORE PUSH1 0x4 ADD PUSH2 0xB5D SWAP2 SWAP1 PUSH2 0x1740 JUMP JUMPDEST PUSH1 0x40 MLOAD DUP1 SWAP2 SUB SWAP1 REVERT JUMPDEST PUSH0 PUSH20 0xFFFFFFFFFFFFFFFFFFFFFFFFFFFFFFFFFFFFFFFF AND DUP3 PUSH20 0xFFFFFFFFFFFFFFFFFFFFFFFFFFFFFFFFFFFFFFFF AND SUB PUSH2 0xBD6 JUMPI PUSH0 PUSH1 0x40 MLOAD PUSH32 0xEC442F0500000000000000000000000000000000000000000000000000000000 DUP2 MSTORE PUSH1 0x4 ADD PUSH2 0xBCD SWAP2 SWAP1 PUSH2 0x1740 JUMP JUMPDEST PUSH1 0x40 MLOAD DUP1 SWAP2 SUB SWAP1 REVERT JUMPDEST PUSH2 0xBE1 DUP4 DUP4 DUP4 PUSH2 0xEF7 JUMP JUMPDEST POP POP POP JUMP JUMPDEST PUSH0 PUSH20 0xFFFFFFFFFFFFFFFFFFFFFFFFFFFFFFFFFFFFFFFF AND DUP3 PUSH20 0xFFFFFFFFFFFFFFFFFFFFFFFFFFFFFFFFFFFFFFFF AND SUB PUSH2 0xC56 JUMPI PUSH0 PUSH1 0x40 MLOAD PUSH32 0x96C6FD1E00000000000000000000000000000000000000000000000000000000 DUP2 MSTORE PUSH1 0x4 ADD PUSH2 0xC4D SWAP2 SWAP1 PUSH2 0x1740 JUMP JUMPDEST PUSH1 0x40 MLOAD DUP1 SWAP2 SUB SWAP1 REVERT JUMPDEST PUSH2 0xC61 DUP3 PUSH0 DUP4 PUSH2 0xEF7 JUMP JUMPDEST POP POP JUMP JUMPDEST PUSH0 PUSH1 0x5 PUSH0 SWAP1 SLOAD SWAP1 PUSH2 0x100 EXP SWAP1 DIV PUSH20 0xFFFFFFFFFFFFFFFFFFFFFFFFFFFFFFFFFFFFFFFF AND SWAP1 POP DUP2 PUSH1 0x5 PUSH0 PUSH2 0x100 EXP DUP2 SLOAD DUP2 PUSH20 0xFFFFFFFFFFFFFFFFFFFFFFFFFFFFFFFFFFFFFFFF MUL NOT AND SWAP1 DUP4 PUSH20 0xFFFFFFFFFFFFFFFFFFFFFFFFFFFFFFFFFFFFFFFF AND MUL OR SWAP1 SSTORE POP DUP2 PUSH20 0xFFFFFFFFFFFFFFFFFFFFFFFFFFFFFFFFFFFFFFFF AND DUP2 PUSH20 0xFFFFFFFFFFFFFFFFFFFFFFFFFFFFFFFFFFFFFFFF AND PUSH32 0x8BE0079C531659141344CD1FD0A4F28419497F9722A3DAAFE3B4186F6B6457E0 PUSH1 0x40 MLOAD PUSH1 0x40 MLOAD DUP1 SWAP2 SUB SWAP1 LOG3 POP POP JUMP JUMPDEST PUSH0 PUSH20 0xFFFFFFFFFFFFFFFFFFFFFFFFFFFFFFFFFFFFFFFF AND DUP5 PUSH20 0xFFFFFFFFFFFFFFFFFFFFFFFFFFFFFFFFFFFFFFFF AND SUB PUSH2 0xD98 JUMPI PUSH0 PUSH1 0x40 MLOAD PUSH32 0xE602DF0500000000000000000000000000000000000000000000000000000000 DUP2 MSTORE PUSH1 0x4 ADD PUSH2 0xD8F SWAP2 SWAP1 PUSH2 0x1740 JUMP JUMPDEST PUSH1 0x40 MLOAD DUP1 SWAP2 SUB SWAP1 REVERT JUMPDEST PUSH0 PUSH20 0xFFFFFFFFFFFFFFFFFFFFFFFFFFFFFFFFFFFFFFFF AND DUP4 PUSH20 0xFFFFFFFFFFFFFFFFFFFFFFFFFFFFFFFFFFFFFFFF AND SUB PUSH2 0xE08 JUMPI PUSH0 PUSH1 0x40 MLOAD PUSH32 0x94280D6200000000000000000000000000000000000000000000000000000000 DUP2 MSTORE PUSH1 0x4 ADD PUSH2 0xDFF SWAP2 SWAP1 PUSH2 0x1740 JUMP JUMPDEST PUSH1 0x40 MLOAD DUP1 SWAP2 SUB SWAP1 REVERT JUMPDEST DUP2 PUSH1 0x1 PUSH0 DUP7 PUSH20 0xFFFFFFFFFFFFFFFFFFFFFFFFFFFFFFFFFFFFFFFF AND PUSH20 0xFFFFFFFFFFFFFFFFFFFFFFFFFFFFFFFFFFFFFFFF AND DUP2 MSTORE PUSH1 0x20 ADD SWAP1 DUP2 MSTORE PUSH1 0x20 ADD PUSH0 KECCAK256 PUSH0 DUP6 PUSH20 0xFFFFFFFFFFFFFFFFFFFFFFFFFFFFFFFFFFFFFFFF AND PUSH20 0xFFFFFFFFFFFFFFFFFFFFFFFFFFFFFFFFFFFFFFFF AND DUP2 MSTORE PUSH1 0x20 ADD SWAP1 DUP2 MSTORE PUSH1 0x20 ADD PUSH0 KECCAK256 DUP2 SWAP1 SSTORE POP DUP1 ISZERO PUSH2 0xEF1 JUMPI DUP3 PUSH20 0xFFFFFFFFFFFFFFFFFFFFFFFFFFFFFFFFFFFFFFFF AND DUP5 PUSH20 0xFFFFFFFFFFFFFFFFFFFFFFFFFFFFFFFFFFFFFFFF AND PUSH32 0x8C5BE1E5EBEC7D5BD14F71427D1E84F3DD0314C0F7B2291E5B200AC8C7C3B925 DUP5 PUSH1 0x40 MLOAD PUSH2 0xEE8 SWAP2 SWAP1 PUSH2 0x163E JUMP JUMPDEST PUSH1 0x40 MLOAD DUP1 SWAP2 SUB SWAP1 LOG3 JUMPDEST POP POP POP POP JUMP JUMPDEST PUSH2 0xF02 DUP4 DUP4 DUP4 PUSH2 0xF07 JUMP JUMPDEST POP POP POP JUMP JUMPDEST PUSH2 0xF12 DUP4 DUP4 DUP4 PUSH2 0xFAA JUMP JUMPDEST PUSH0 PUSH20 0xFFFFFFFFFFFFFFFFFFFFFFFFFFFFFFFFFFFFFFFF AND DUP4 PUSH20 0xFFFFFFFFFFFFFFFFFFFFFFFFFFFFFFFFFFFFFFFF AND SUB PUSH2 0xFA5 JUMPI PUSH0 PUSH2 0xF4E PUSH2 0x5F4 JUMP JUMPDEST SWAP1 POP PUSH0 PUSH2 0xF59 PUSH2 0x5B5 JUMP JUMPDEST SWAP1 POP DUP2 DUP2 GT ISZERO PUSH2 0xFA2 JUMPI DUP1 DUP3 PUSH1 0x40 MLOAD PUSH32 0x9E79F85400000000000000000000000000000000000000000000000000000000 DUP2 MSTORE PUSH1 0x4 ADD PUSH2 0xF99 SWAP3 SWAP2 SWAP1 PUSH2 0x1B4B JUMP JUMPDEST PUSH1 0x40 MLOAD DUP1 SWAP2 SUB SWAP1 REVERT JUMPDEST POP POP JUMPDEST POP POP POP JUMP JUMPDEST PUSH0 PUSH20 0xFFFFFFFFFFFFFFFFFFFFFFFFFFFFFFFFFFFFFFFF AND DUP4 PUSH20 0xFFFFFFFFFFFFFFFFFFFFFFFFFFFFFFFFFFFFFFFF AND SUB PUSH2 0xFFA JUMPI DUP1 PUSH1 0x2 PUSH0 DUP3 DUP3 SLOAD PUSH2 0xFEE SWAP2 SWAP1 PUSH2 0x1B72 JUMP JUMPDEST SWAP3 POP POP DUP2 SWAP1 SSTORE POP PUSH2 0x10C8 JUMP JUMPDEST PUSH0 DUP1 PUSH0 DUP6 PUSH20 0xFFFFFFFFFFFFFFFFFFFFFFFFFFFFFFFFFFFFFFFF AND PUSH20 0xFFFFFFFFFFFFFFFFFFFFFFFFFFFFFFFFFFFFFFFF AND DUP2 MSTORE PUSH1 0x20 ADD SWAP1 DUP2 MSTORE PUSH1 0x20 ADD PUSH0 KECCAK256 SLOAD SWAP1 POP DUP2 DUP2 LT ISZERO PUSH2 0x1083 JUMPI DUP4 DUP2 DUP4 PUSH1 0x40 MLOAD PUSH32 0xE450D38C00000000000000000000000000000000000000000000000000000000 DUP2 MSTORE PUSH1 0x4 ADD PUSH2 0x107A SWAP4 SWAP3 SWAP2 SWAP1 PUSH2 0x1B16 JUMP JUMPDEST PUSH1 0x40 MLOAD DUP1 SWAP2 SUB SWAP1 REVERT JUMPDEST DUP2 DUP2 SUB PUSH0 DUP1 DUP7 PUSH20 0xFFFFFFFFFFFFFFFFFFFFFFFFFFFFFFFFFFFFFFFF AND PUSH20 0xFFFFFFFFFFFFFFFFFFFFFFFFFFFFFFFFFFFFFFFF AND DUP2 MSTORE PUSH1 0x20 ADD SWAP1 DUP2 MSTORE PUSH1 0x20 ADD PUSH0 KECCAK256 DUP2 SWAP1 SSTORE POP POP JUMPDEST PUSH0 PUSH20 0xFFFFFFFFFFFFFFFFFFFFFFFFFFFFFFFFFFFFFFFF AND DUP3 PUSH20 0xFFFFFFFFFFFFFFFFFFFFFFFFFFFFFFFFFFFFFFFF AND SUB PUSH2 0x110F JUMPI DUP1 PUSH1 0x2 PUSH0 DUP3 DUP3 SLOAD SUB SWAP3 POP POP DUP2 SWAP1 SSTORE POP PUSH2 0x1159 JUMP JUMPDEST DUP1 PUSH0 DUP1 DUP5 PUSH20 0xFFFFFFFFFFFFFFFFFFFFFFFFFFFFFFFFFFFFFFFF AND PUSH20 0xFFFFFFFFFFFFFFFFFFFFFFFFFFFFFFFFFFFFFFFF AND DUP2 MSTORE PUSH1 0x20 ADD SWAP1 DUP2 MSTORE PUSH1 0x20 ADD PUSH0 KECCAK256 PUSH0 DUP3 DUP3 SLOAD ADD SWAP3 POP POP DUP2 SWAP1 SSTORE POP JUMPDEST DUP2 PUSH20 0xFFFFFFFFFFFFFFFFFFFFFFFFFFFFFFFFFFFFFFFF AND DUP4 PUSH20 0xFFFFFFFFFFFFFFFFFFFFFFFFFFFFFFFFFFFFFFFF AND PUSH32 0xDDF252AD1BE2C89B69C2B068FC378DAA952BA7F163C4A11628F55A4DF523B3EF DUP4 PUSH1 0x40 MLOAD PUSH2 0x11B6 SWAP2 SWAP1 PUSH2 0x163E JUMP JUMPDEST PUSH1 0x40 MLOAD DUP1 SWAP2 SUB SWAP1 LOG3 POP POP POP JUMP JUMPDEST PUSH2 0x10D9 DUP1 PUSH2 0x1BA6 DUP4 CODECOPY ADD SWAP1 JUMP JUMPDEST PUSH0 PUSH1 0x40 MLOAD SWAP1 POP SWAP1 JUMP JUMPDEST PUSH0 DUP1 REVERT JUMPDEST PUSH0 DUP1 REVERT JUMPDEST PUSH0 DUP1 REVERT JUMPDEST PUSH0 DUP1 REVERT JUMPDEST PUSH0 PUSH1 0x1F NOT PUSH1 0x1F DUP4 ADD AND SWAP1 POP SWAP2 SWAP1 POP JUMP JUMPDEST PUSH32 0x4E487B7100000000000000000000000000000000000000000000000000000000 PUSH0 MSTORE PUSH1 0x41 PUSH1 0x4 MSTORE PUSH1 0x24 PUSH0 REVERT JUMPDEST PUSH2 0x122F DUP3 PUSH2 0x11E9 JUMP JUMPDEST DUP2 ADD DUP2 DUP2 LT PUSH8 0xFFFFFFFFFFFFFFFF DUP3 GT OR ISZERO PUSH2 0x124E JUMPI PUSH2 0x124D PUSH2 0x11F9 JUMP JUMPDEST JUMPDEST DUP1 PUSH1 0x40 MSTORE POP POP POP JUMP JUMPDEST PUSH0 PUSH2 0x1260 PUSH2 0x11D0 JUMP JUMPDEST SWAP1 POP PUSH2 0x126C DUP3 DUP3 PUSH2 0x1226 JUMP JUMPDEST SWAP2 SWAP1 POP JUMP JUMPDEST PUSH0 PUSH8 0xFFFFFFFFFFFFFFFF DUP3 GT ISZERO PUSH2 0x128B JUMPI PUSH2 0x128A PUSH2 0x11F9 JUMP JUMPDEST JUMPDEST PUSH2 0x1294 DUP3 PUSH2 0x11E9 JUMP JUMPDEST SWAP1 POP PUSH1 0x20 DUP2 ADD SWAP1 POP SWAP2 SWAP1 POP JUMP JUMPDEST DUP3 DUP2 DUP4 CALLDATACOPY PUSH0 DUP4 DUP4 ADD MSTORE POP POP POP JUMP JUMPDEST PUSH0 PUSH2 0x12C1 PUSH2 0x12BC DUP5 PUSH2 0x1271 JUMP JUMPDEST PUSH2 0x1257 JUMP JUMPDEST SWAP1 POP DUP3 DUP2 MSTORE PUSH1 0x20 DUP2 ADD DUP5 DUP5 DUP5 ADD GT ISZERO PUSH2 0x12DD JUMPI PUSH2 0x12DC PUSH2 0x11E5 JUMP JUMPDEST JUMPDEST PUSH2 0x12E8 DUP5 DUP3 DUP6 PUSH2 0x12A1 JUMP JUMPDEST POP SWAP4 SWAP3 POP POP POP JUMP JUMPDEST PUSH0 DUP3 PUSH1 0x1F DUP4 ADD SLT PUSH2 0x1304 JUMPI PUSH2 0x1303 PUSH2 0x11E1 JUMP JUMPDEST JUMPDEST DUP2 CALLDATALOAD PUSH2 0x1314 DUP5 DUP3 PUSH1 0x20 DUP7 ADD PUSH2 0x12AF JUMP JUMPDEST SWAP2 POP POP SWAP3 SWAP2 POP POP JUMP JUMPDEST PUSH0 PUSH8 0xFFFFFFFFFFFFFFFF DUP3 GT ISZERO PUSH2 0x1337 JUMPI PUSH2 0x1336 PUSH2 0x11F9 JUMP JUMPDEST JUMPDEST PUSH1 0x20 DUP3 MUL SWAP1 POP PUSH1 0x20 DUP2 ADD SWAP1 POP SWAP2 SWAP1 POP JUMP JUMPDEST PUSH0 DUP1 REVERT JUMPDEST PUSH0 PUSH2 0x135E PUSH2 0x1359 DUP5 PUSH2 0x131D JUMP JUMPDEST PUSH2 0x1257 JUMP JUMPDEST SWAP1 POP DUP1 DUP4 DUP3 MSTORE PUSH1 0x20 DUP3 ADD SWAP1 POP PUSH1 0x20 DUP5 MUL DUP4 ADD DUP6 DUP2 GT ISZERO PUSH2 0x1381 JUMPI PUSH2 0x1380 PUSH2 0x1348 JUMP JUMPDEST JUMPDEST DUP4 JUMPDEST DUP2 DUP2 LT ISZERO PUSH2 0x13C8 JUMPI DUP1 CALLDATALOAD PUSH8 0xFFFFFFFFFFFFFFFF DUP2 GT ISZERO PUSH2 0x13A6 JUMPI PUSH2 0x13A5 PUSH2 0x11E1 JUMP JUMPDEST JUMPDEST DUP1 DUP7 ADD PUSH2 0x13B3 DUP10 DUP3 PUSH2 0x12F0 JUMP JUMPDEST DUP6 MSTORE PUSH1 0x20 DUP6 ADD SWAP5 POP POP POP PUSH1 0x20 DUP2 ADD SWAP1 POP PUSH2 0x1383 JUMP JUMPDEST POP POP POP SWAP4 SWAP3 POP POP POP JUMP JUMPDEST PUSH0 DUP3 PUSH1 0x1F DUP4 ADD SLT PUSH2 0x13E6 JUMPI PUSH2 0x13E5 PUSH2 0x11E1 JUMP JUMPDEST JUMPDEST DUP2 CALLDATALOAD PUSH2 0x13F6 DUP5 DUP3 PUSH1 0x20 DUP7 ADD PUSH2 0x134C JUMP JUMPDEST SWAP2 POP POP SWAP3 SWAP2 POP POP JUMP JUMPDEST PUSH0 DUP2 ISZERO ISZERO SWAP1 POP SWAP2 SWAP1 POP JUMP JUMPDEST PUSH2 0x1413 DUP2 PUSH2 0x13FF JUMP JUMPDEST DUP2 EQ PUSH2 0x141D JUMPI PUSH0 DUP1 REVERT JUMPDEST POP JUMP JUMPDEST PUSH0 DUP2 CALLDATALOAD SWAP1 POP PUSH2 0x142E DUP2 PUSH2 0x140A JUMP JUMPDEST SWAP3 SWAP2 POP POP JUMP JUMPDEST PUSH0 DUP1 PUSH0 PUSH1 0x60 DUP5 DUP7 SUB SLT ISZERO PUSH2 0x144B JUMPI PUSH2 0x144A PUSH2 0x11D9 JUMP JUMPDEST JUMPDEST PUSH0 DUP5 ADD CALLDATALOAD PUSH8 0xFFFFFFFFFFFFFFFF DUP2 GT ISZERO PUSH2 0x1468 JUMPI PUSH2 0x1467 PUSH2 0x11DD JUMP JUMPDEST JUMPDEST PUSH2 0x1474 DUP7 DUP3 DUP8 ADD PUSH2 0x12F0 JUMP JUMPDEST SWAP4 POP POP PUSH1 0x20 DUP5 ADD CALLDATALOAD PUSH8 0xFFFFFFFFFFFFFFFF DUP2 GT ISZERO PUSH2 0x1495 JUMPI PUSH2 0x1494 PUSH2 0x11DD JUMP JUMPDEST JUMPDEST PUSH2 0x14A1 DUP7 DUP3 DUP8 ADD PUSH2 0x13D2 JUMP JUMPDEST SWAP3 POP POP PUSH1 0x40 PUSH2 0x14B2 DUP7 DUP3 DUP8 ADD PUSH2 0x1420 JUMP JUMPDEST SWAP2 POP POP SWAP3 POP SWAP3 POP SWAP3 JUMP JUMPDEST PUSH0 DUP2 MLOAD SWAP1 POP SWAP2 SWAP1 POP JUMP JUMPDEST PUSH0 DUP3 DUP3 MSTORE PUSH1 0x20 DUP3 ADD SWAP1 POP SWAP3 SWAP2 POP POP JUMP JUMPDEST DUP3 DUP2 DUP4 MCOPY PUSH0 DUP4 DUP4 ADD MSTORE POP POP POP JUMP JUMPDEST PUSH0 PUSH2 0x14EE DUP3 PUSH2 0x14BC JUMP JUMPDEST PUSH2 0x14F8 DUP2 DUP6 PUSH2 0x14C6 JUMP JUMPDEST SWAP4 POP PUSH2 0x1508 DUP2 DUP6 PUSH1 0x20 DUP7 ADD PUSH2 0x14D6 JUMP JUMPDEST PUSH2 0x1511 DUP2 PUSH2 0x11E9 JUMP JUMPDEST DUP5 ADD SWAP2 POP POP SWAP3 SWAP2 POP POP JUMP JUMPDEST PUSH0 PUSH1 0x20 DUP3 ADD SWAP1 POP DUP2 DUP2 SUB PUSH0 DUP4 ADD MSTORE PUSH2 0x1534 DUP2 DUP5 PUSH2 0x14E4 JUMP JUMPDEST SWAP1 POP SWAP3 SWAP2 POP POP JUMP JUMPDEST PUSH0 PUSH20 0xFFFFFFFFFFFFFFFFFFFFFFFFFFFFFFFFFFFFFFFF DUP3 AND SWAP1 POP SWAP2 SWAP1 POP JUMP JUMPDEST PUSH0 PUSH2 0x1565 DUP3 PUSH2 0x153C JUMP JUMPDEST SWAP1 POP SWAP2 SWAP1 POP JUMP JUMPDEST PUSH2 0x1575 DUP2 PUSH2 0x155B JUMP JUMPDEST DUP2 EQ PUSH2 0x157F JUMPI PUSH0 DUP1 REVERT JUMPDEST POP JUMP JUMPDEST PUSH0 DUP2 CALLDATALOAD SWAP1 POP PUSH2 0x1590 DUP2 PUSH2 0x156C JUMP JUMPDEST SWAP3 SWAP2 POP POP JUMP JUMPDEST PUSH0 DUP2 SWAP1 POP SWAP2 SWAP1 POP JUMP JUMPDEST PUSH2 0x15A8 DUP2 PUSH2 0x1596 JUMP JUMPDEST DUP2 EQ PUSH2 0x15B2 JUMPI PUSH0 DUP1 REVERT JUMPDEST POP JUMP JUMPDEST PUSH0 DUP2 CALLDATALOAD SWAP1 POP PUSH2 0x15C3 DUP2 PUSH2 0x159F JUMP JUMPDEST SWAP3 SWAP2 POP POP JUMP JUMPDEST PUSH0 DUP1 PUSH1 0x40 DUP4 DUP6 SUB SLT ISZERO PUSH2 0x15DF JUMPI PUSH2 0x15DE PUSH2 0x11D9 JUMP JUMPDEST JUMPDEST PUSH0 PUSH2 0x15EC DUP6 DUP3 DUP7 ADD PUSH2 0x1582 JUMP JUMPDEST SWAP3 POP POP PUSH1 0x20 PUSH2 0x15FD DUP6 DUP3 DUP7 ADD PUSH2 0x15B5 JUMP JUMPDEST SWAP2 POP POP SWAP3 POP SWAP3 SWAP1 POP JUMP JUMPDEST PUSH2 0x1610 DUP2 PUSH2 0x13FF JUMP JUMPDEST DUP3 MSTORE POP POP JUMP JUMPDEST PUSH0 PUSH1 0x20 DUP3 ADD SWAP1 POP PUSH2 0x1629 PUSH0 DUP4 ADD DUP5 PUSH2 0x1607 JUMP JUMPDEST SWAP3 SWAP2 POP POP JUMP JUMPDEST PUSH2 0x1638 DUP2 PUSH2 0x1596 JUMP JUMPDEST DUP3 MSTORE POP POP JUMP JUMPDEST PUSH0 PUSH1 0x20 DUP3 ADD SWAP1 POP PUSH2 0x1651 PUSH0 DUP4 ADD DUP5 PUSH2 0x162F JUMP JUMPDEST SWAP3 SWAP2 POP POP JUMP JUMPDEST PUSH0 DUP1 PUSH0 PUSH1 0x60 DUP5 DUP7 SUB SLT ISZERO PUSH2 0x166E JUMPI PUSH2 0x166D PUSH2 0x11D9 JUMP JUMPDEST JUMPDEST PUSH0 PUSH2 0x167B DUP7 DUP3 DUP8 ADD PUSH2 0x1582 JUMP JUMPDEST SWAP4 POP POP PUSH1 0x20 PUSH2 0x168C DUP7 DUP3 DUP8 ADD PUSH2 0x1582 JUMP JUMPDEST SWAP3 POP POP PUSH1 0x40 PUSH2 0x169D DUP7 DUP3 DUP8 ADD PUSH2 0x15B5 JUMP JUMPDEST SWAP2 POP POP SWAP3 POP SWAP3 POP SWAP3 JUMP JUMPDEST PUSH0 PUSH1 0xFF DUP3 AND SWAP1 POP SWAP2 SWAP1 POP JUMP JUMPDEST PUSH2 0x16BC DUP2 PUSH2 0x16A7 JUMP JUMPDEST DUP3 MSTORE POP POP JUMP JUMPDEST PUSH0 PUSH1 0x20 DUP3 ADD SWAP1 POP PUSH2 0x16D5 PUSH0 DUP4 ADD DUP5 PUSH2 0x16B3 JUMP JUMPDEST SWAP3 SWAP2 POP POP JUMP JUMPDEST PUSH0 PUSH1 0x20 DUP3 DUP5 SUB SLT ISZERO PUSH2 0x16F0 JUMPI PUSH2 0x16EF PUSH2 0x11D9 JUMP JUMPDEST JUMPDEST PUSH0 PUSH2 0x16FD DUP5 DUP3 DUP6 ADD PUSH2 0x15B5 JUMP JUMPDEST SWAP2 POP POP SWAP3 SWAP2 POP POP JUMP JUMPDEST PUSH0 PUSH1 0x20 DUP3 DUP5 SUB SLT ISZERO PUSH2 0x171B JUMPI PUSH2 0x171A PUSH2 0x11D9 JUMP JUMPDEST JUMPDEST PUSH0 PUSH2 0x1728 DUP5 DUP3 DUP6 ADD PUSH2 0x1582 JUMP JUMPDEST SWAP2 POP POP SWAP3 SWAP2 POP POP JUMP JUMPDEST PUSH2 0x173A DUP2 PUSH2 0x155B JUMP JUMPDEST DUP3 MSTORE POP POP JUMP JUMPDEST PUSH0 PUSH1 0x20 DUP3 ADD SWAP1 POP PUSH2 0x1753 PUSH0 DUP4 ADD DUP5 PUSH2 0x1731 JUMP JUMPDEST SWAP3 SWAP2 POP POP JUMP JUMPDEST PUSH0 DUP1 PUSH1 0x40 DUP4 DUP6 SUB SLT ISZERO PUSH2 0x176F JUMPI PUSH2 0x176E PUSH2 0x11D9 JUMP JUMPDEST JUMPDEST PUSH0 PUSH2 0x177C DUP6 DUP3 DUP7 ADD PUSH2 0x1582 JUMP JUMPDEST SWAP3 POP POP PUSH1 0x20 PUSH2 0x178D DUP6 DUP3 DUP7 ADD PUSH2 0x1582 JUMP JUMPDEST SWAP2 POP POP SWAP3 POP SWAP3 SWAP1 POP JUMP JUMPDEST PUSH32 0x4E487B7100000000000000000000000000000000000000000000000000000000 PUSH0 MSTORE PUSH1 0x11 PUSH1 0x4 MSTORE PUSH1 0x24 PUSH0 REVERT JUMPDEST PUSH0 PUSH2 0x17CE DUP3 PUSH2 0x1596 JUMP JUMPDEST SWAP2 POP PUSH2 0x17D9 DUP4 PUSH2 0x1596 JUMP JUMPDEST SWAP3 POP DUP3 DUP3 SUB SWAP1 POP DUP2 DUP2 GT ISZERO PUSH2 0x17F1 JUMPI PUSH2 0x17F0 PUSH2 0x1797 JUMP JUMPDEST JUMPDEST SWAP3 SWAP2 POP POP JUMP JUMPDEST PUSH32 0x6C617374657374206372756D6220646F6573206E6F742065786973742E205768 PUSH0 DUP3 ADD MSTORE PUSH32 0x6F206174652069743F0000000000000000000000000000000000000000000000 PUSH1 0x20 DUP3 ADD MSTORE POP JUMP JUMPDEST PUSH0 PUSH2 0x1851 PUSH1 0x29 DUP4 PUSH2 0x14C6 JUMP JUMPDEST SWAP2 POP PUSH2 0x185C DUP3 PUSH2 0x17F7 JUMP JUMPDEST PUSH1 0x40 DUP3 ADD SWAP1 POP SWAP2 SWAP1 POP JUMP JUMPDEST PUSH0 PUSH1 0x20 DUP3 ADD SWAP1 POP DUP2 DUP2 SUB PUSH0 DUP4 ADD MSTORE PUSH2 0x187E DUP2 PUSH2 0x1845 JUMP JUMPDEST SWAP1 POP SWAP2 SWAP1 POP JUMP JUMPDEST PUSH0 DUP2 MLOAD SWAP1 POP PUSH2 0x1893 DUP2 PUSH2 0x159F JUMP JUMPDEST SWAP3 SWAP2 POP POP JUMP JUMPDEST PUSH0 PUSH1 0x20 DUP3 DUP5 SUB SLT ISZERO PUSH2 0x18AE JUMPI PUSH2 0x18AD PUSH2 0x11D9 JUMP JUMPDEST JUMPDEST PUSH0 PUSH2 0x18BB DUP5 DUP3 DUP6 ADD PUSH2 0x1885 JUMP JUMPDEST SWAP2 POP POP SWAP3 SWAP2 POP POP JUMP JUMPDEST PUSH0 DUP2 MLOAD SWAP1 POP SWAP2 SWAP1 POP JUMP JUMPDEST PUSH0 DUP3 DUP3 MSTORE PUSH1 0x20 DUP3 ADD SWAP1 POP SWAP3 SWAP2 POP POP JUMP JUMPDEST PUSH0 DUP2 SWAP1 POP PUSH1 0x20 DUP3 ADD SWAP1 POP SWAP2 SWAP1 POP JUMP JUMPDEST PUSH0 DUP3 DUP3 MSTORE PUSH1 0x20 DUP3 ADD SWAP1 POP SWAP3 SWAP2 POP POP JUMP JUMPDEST PUSH0 PUSH2 0x1907 DUP3 PUSH2 0x14BC JUMP JUMPDEST PUSH2 0x1911 DUP2 DUP6 PUSH2 0x18ED JUMP JUMPDEST SWAP4 POP PUSH2 0x1921 DUP2 DUP6 PUSH1 0x20 DUP7 ADD PUSH2 0x14D6 JUMP JUMPDEST PUSH2 0x192A DUP2 PUSH2 0x11E9 JUMP JUMPDEST DUP5 ADD SWAP2 POP POP SWAP3 SWAP2 POP POP JUMP JUMPDEST PUSH0 PUSH2 0x1940 DUP4 DUP4 PUSH2 0x18FD JUMP JUMPDEST SWAP1 POP SWAP3 SWAP2 POP POP JUMP JUMPDEST PUSH0 PUSH1 0x20 DUP3 ADD SWAP1 POP SWAP2 SWAP1 POP JUMP JUMPDEST PUSH0 PUSH2 0x195E DUP3 PUSH2 0x18C4 JUMP JUMPDEST PUSH2 0x1968 DUP2 DUP6 PUSH2 0x18CE JUMP JUMPDEST SWAP4 POP DUP4 PUSH1 0x20 DUP3 MUL DUP6 ADD PUSH2 0x197A DUP6 PUSH2 0x18DE JUMP JUMPDEST DUP1 PUSH0 JUMPDEST DUP6 DUP2 LT ISZERO PUSH2 0x19B5 JUMPI DUP5 DUP5 SUB DUP10 MSTORE DUP2 MLOAD PUSH2 0x1996 DUP6 DUP3 PUSH2 0x1935 JUMP JUMPDEST SWAP5 POP PUSH2 0x19A1 DUP4 PUSH2 0x1948 JUMP JUMPDEST SWAP3 POP PUSH1 0x20 DUP11 ADD SWAP10 POP POP PUSH1 0x1 DUP2 ADD SWAP1 POP PUSH2 0x197D JUMP JUMPDEST POP DUP3 SWAP8 POP DUP8 SWAP6 POP POP POP POP POP POP SWAP3 SWAP2 POP POP JUMP JUMPDEST PUSH0 PUSH1 0x60 DUP3 ADD SWAP1 POP DUP2 DUP2 SUB PUSH0 DUP4 ADD MSTORE PUSH2 0x19DF DUP2 DUP7 PUSH2 0x14E4 JUMP JUMPDEST SWAP1 POP DUP2 DUP2 SUB PUSH1 0x20 DUP4 ADD MSTORE PUSH2 0x19F3 DUP2 DUP6 PUSH2 0x1954 JUMP JUMPDEST SWAP1 POP PUSH2 0x1A02 PUSH1 0x40 DUP4 ADD DUP5 PUSH2 0x1607 JUMP JUMPDEST SWAP5 SWAP4 POP POP POP POP JUMP JUMPDEST PUSH32 0x4E487B7100000000000000000000000000000000000000000000000000000000 PUSH0 MSTORE PUSH1 0x22 PUSH1 0x4 MSTORE PUSH1 0x24 PUSH0 REVERT JUMPDEST PUSH0 PUSH1 0x2 DUP3 DIV SWAP1 POP PUSH1 0x1 DUP3 AND DUP1 PUSH2 0x1A4E JUMPI PUSH1 0x7F DUP3 AND SWAP2 POP JUMPDEST PUSH1 0x20 DUP3 LT DUP2 SUB PUSH2 0x1A61 JUMPI PUSH2 0x1A60 PUSH2 0x1A0A JUMP JUMPDEST JUMPDEST POP SWAP2 SWAP1 POP JUMP JUMPDEST PUSH32 0x6372756D6220616C656164792062616B65640000000000000000000000000000 PUSH0 DUP3 ADD MSTORE POP JUMP JUMPDEST PUSH0 PUSH2 0x1A9B PUSH1 0x12 DUP4 PUSH2 0x14C6 JUMP JUMPDEST SWAP2 POP PUSH2 0x1AA6 DUP3 PUSH2 0x1A67 JUMP JUMPDEST PUSH1 0x20 DUP3 ADD SWAP1 POP SWAP2 SWAP1 POP JUMP JUMPDEST PUSH0 PUSH1 0x20 DUP3 ADD SWAP1 POP DUP2 DUP2 SUB PUSH0 DUP4 ADD MSTORE PUSH2 0x1AC8 DUP2 PUSH2 0x1A8F JUMP JUMPDEST SWAP1 POP SWAP2 SWAP1 POP JUMP JUMPDEST PUSH0 PUSH2 0x1AD9 DUP3 PUSH2 0x1596 JUMP JUMPDEST SWAP2 POP PUSH32 0xFFFFFFFFFFFFFFFFFFFFFFFFFFFFFFFFFFFFFFFFFFFFFFFFFFFFFFFFFFFFFFFF DUP3 SUB PUSH2 0x1B0B JUMPI PUSH2 0x1B0A PUSH2 0x1797 JUMP JUMPDEST JUMPDEST PUSH1 0x1 DUP3 ADD SWAP1 POP SWAP2 SWAP1 POP JUMP JUMPDEST PUSH0 PUSH1 0x60 DUP3 ADD SWAP1 POP PUSH2 0x1B29 PUSH0 DUP4 ADD DUP7 PUSH2 0x1731 JUMP JUMPDEST PUSH2 0x1B36 PUSH1 0x20 DUP4 ADD DUP6 PUSH2 0x162F JUMP JUMPDEST PUSH2 0x1B43 PUSH1 0x40 DUP4 ADD DUP5 PUSH2 0x162F JUMP JUMPDEST SWAP5 SWAP4 POP POP POP POP JUMP JUMPDEST PUSH0 PUSH1 0x40 DUP3 ADD SWAP1 POP PUSH2 0x1B5E PUSH0 DUP4 ADD DUP6 PUSH2 0x162F JUMP JUMPDEST PUSH2 0x1B6B PUSH1 0x20 DUP4 ADD DUP5 PUSH2 0x162F JUMP JUMPDEST SWAP4 SWAP3 POP POP POP JUMP JUMPDEST PUSH0 PUSH2 0x1B7C DUP3 PUSH2 0x1596 JUMP JUMPDEST SWAP2 POP PUSH2 0x1B87 DUP4 PUSH2 0x1596 JUMP JUMPDEST SWAP3 POP DUP3 DUP3 ADD SWAP1 POP DUP1 DUP3 GT ISZERO PUSH2 0x1B9F JUMPI PUSH2 0x1B9E PUSH2 0x1797 JUMP JUMPDEST JUMPDEST SWAP3 SWAP2 POP POP JUMP INVALID PUSH1 0x80 PUSH1 0x40 MSTORE CALLVALUE DUP1 ISZERO PUSH1 0xE JUMPI PUSH0 DUP1 REVERT JUMPDEST POP PUSH2 0x10BD DUP1 PUSH2 0x1C PUSH0 CODECOPY PUSH0 RETURN INVALID PUSH1 0x80 PUSH1 0x40 MSTORE CALLVALUE DUP1 ISZERO PUSH2 0xF JUMPI PUSH0 DUP1 REVERT JUMPDEST POP PUSH1 0x4 CALLDATASIZE LT PUSH2 0x4A JUMPI PUSH0 CALLDATALOAD PUSH1 0xE0 SHR DUP1 PUSH4 0xC4960DD EQ PUSH2 0x4E JUMPI DUP1 PUSH4 0x86E68B90 EQ PUSH2 0x6A JUMPI DUP1 PUSH4 0x9FE140B1 EQ PUSH2 0x9B JUMPI DUP1 PUSH4 0xB384ABEF EQ PUSH2 0xB9 JUMPI JUMPDEST PUSH0 DUP1 REVERT JUMPDEST PUSH2 0x68 PUSH1 0x4 DUP1 CALLDATASIZE SUB DUP2 ADD SWAP1 PUSH2 0x63 SWAP2 SWAP1 PUSH2 0x8F9 JUMP JUMPDEST PUSH2 0xD5 JUMP JUMPDEST STOP JUMPDEST PUSH2 0x84 PUSH1 0x4 DUP1 CALLDATASIZE SUB DUP2 ADD SWAP1 PUSH2 0x7F SWAP2 SWAP1 PUSH2 0x9B4 JUMP JUMPDEST PUSH2 0x219 JUMP JUMPDEST PUSH1 0x40 MLOAD PUSH2 0x92 SWAP3 SWAP2 SWAP1 PUSH2 0xA4E JUMP JUMPDEST PUSH1 0x40 MLOAD DUP1 SWAP2 SUB SWAP1 RETURN JUMPDEST PUSH2 0xA3 PUSH2 0x2D9 JUMP JUMPDEST PUSH1 0x40 MLOAD PUSH2 0xB0 SWAP2 SWAP1 PUSH2 0xA8B JUMP JUMPDEST PUSH1 0x40 MLOAD DUP1 SWAP2 SUB SWAP1 RETURN JUMPDEST PUSH2 0xD3 PUSH1 0x4 DUP1 CALLDATASIZE SUB DUP2 ADD SWAP1 PUSH2 0xCE SWAP2 SWAP1 PUSH2 0xAA4 JUMP JUMPDEST PUSH2 0x2E4 JUMP JUMPDEST STOP JUMPDEST PUSH1 0x2 DUP3 MLOAD LT ISZERO PUSH2 0x11A JUMPI PUSH1 0x40 MLOAD PUSH32 0x8C379A000000000000000000000000000000000000000000000000000000000 DUP2 MSTORE PUSH1 0x4 ADD PUSH2 0x111 SWAP1 PUSH2 0xB2C JUMP JUMPDEST PUSH1 0x40 MLOAD DUP1 SWAP2 SUB SWAP1 REVERT JUMPDEST PUSH0 PUSH1 0x1 DUP2 PUSH1 0x1 DUP2 SLOAD ADD DUP1 DUP3 SSTORE DUP1 SWAP2 POP POP SUB SWAP1 PUSH0 MSTORE PUSH1 0x20 PUSH0 KECCAK256 SWAP1 POP POP PUSH0 DUP1 PUSH1 0x1 PUSH0 DUP1 SLOAD SWAP1 POP PUSH2 0x148 SWAP2 SWAP1 PUSH2 0xB77 JUMP JUMPDEST DUP2 SLOAD DUP2 LT PUSH2 0x159 JUMPI PUSH2 0x158 PUSH2 0xBAA JUMP JUMPDEST JUMPDEST SWAP1 PUSH0 MSTORE PUSH1 0x20 PUSH0 KECCAK256 SWAP1 PUSH1 0x5 MUL ADD SWAP1 POP PUSH0 DUP4 MLOAD PUSH8 0xFFFFFFFFFFFFFFFF DUP2 GT ISZERO PUSH2 0x183 JUMPI PUSH2 0x182 PUSH2 0x6BE JUMP JUMPDEST JUMPDEST PUSH1 0x40 MLOAD SWAP1 DUP1 DUP3 MSTORE DUP1 PUSH1 0x20 MUL PUSH1 0x20 ADD DUP3 ADD PUSH1 0x40 MSTORE DUP1 ISZERO PUSH2 0x1B1 JUMPI DUP2 PUSH1 0x20 ADD PUSH1 0x20 DUP3 MUL DUP1 CALLDATASIZE DUP4 CALLDATACOPY DUP1 DUP3 ADD SWAP2 POP POP SWAP1 POP JUMPDEST POP SWAP1 POP DUP5 DUP3 PUSH0 ADD SWAP1 DUP2 PUSH2 0x1C4 SWAP2 SWAP1 PUSH2 0xDD1 JUMP JUMPDEST POP DUP4 DUP3 PUSH1 0x1 ADD SWAP1 DUP1 MLOAD SWAP1 PUSH1 0x20 ADD SWAP1 PUSH2 0x1DD SWAP3 SWAP2 SWAP1 PUSH2 0x578 JUMP JUMPDEST POP DUP1 DUP3 PUSH1 0x2 ADD SWAP1 DUP1 MLOAD SWAP1 PUSH1 0x20 ADD SWAP1 PUSH2 0x1F6 SWAP3 SWAP2 SWAP1 PUSH2 0x5CF JUMP JUMPDEST POP DUP3 DUP3 PUSH1 0x3 ADD PUSH0 PUSH2 0x100 EXP DUP2 SLOAD DUP2 PUSH1 0xFF MUL NOT AND SWAP1 DUP4 ISZERO ISZERO MUL OR SWAP1 SSTORE POP POP POP POP POP POP JUMP JUMPDEST PUSH0 DUP2 DUP2 SLOAD DUP2 LT PUSH2 0x227 JUMPI PUSH0 DUP1 REVERT JUMPDEST SWAP1 PUSH0 MSTORE PUSH1 0x20 PUSH0 KECCAK256 SWAP1 PUSH1 0x5 MUL ADD PUSH0 SWAP2 POP SWAP1 POP DUP1 PUSH0 ADD DUP1 SLOAD PUSH2 0x246 SWAP1 PUSH2 0xC04 JUMP JUMPDEST DUP1 PUSH1 0x1F ADD PUSH1 0x20 DUP1 SWAP2 DIV MUL PUSH1 0x20 ADD PUSH1 0x40 MLOAD SWAP1 DUP2 ADD PUSH1 0x40 MSTORE DUP1 SWAP3 SWAP2 SWAP1 DUP2 DUP2 MSTORE PUSH1 0x20 ADD DUP3 DUP1 SLOAD PUSH2 0x272 SWAP1 PUSH2 0xC04 JUMP JUMPDEST DUP1 ISZERO PUSH2 0x2BD JUMPI DUP1 PUSH1 0x1F LT PUSH2 0x294 JUMPI PUSH2 0x100 DUP1 DUP4 SLOAD DIV MUL DUP4 MSTORE SWAP2 PUSH1 0x20 ADD SWAP2 PUSH2 0x2BD JUMP JUMPDEST DUP3 ADD SWAP2 SWAP1 PUSH0 MSTORE PUSH1 0x20 PUSH0 KECCAK256 SWAP1 JUMPDEST DUP2 SLOAD DUP2 MSTORE SWAP1 PUSH1 0x1 ADD SWAP1 PUSH1 0x20 ADD DUP1 DUP4 GT PUSH2 0x2A0 JUMPI DUP3 SWAP1 SUB PUSH1 0x1F AND DUP3 ADD SWAP2 JUMPDEST POP POP POP POP POP SWAP1 DUP1 PUSH1 0x3 ADD PUSH0 SWAP1 SLOAD SWAP1 PUSH2 0x100 EXP SWAP1 DIV PUSH1 0xFF AND SWAP1 POP DUP3 JUMP JUMPDEST PUSH0 DUP1 DUP1 SLOAD SWAP1 POP SWAP1 POP SWAP1 JUMP JUMPDEST PUSH0 DUP1 SLOAD SWAP1 POP DUP3 LT PUSH2 0x32A JUMPI PUSH1 0x40 MLOAD PUSH32 0x8C379A000000000000000000000000000000000000000000000000000000000 DUP2 MSTORE PUSH1 0x4 ADD PUSH2 0x321 SWAP1 PUSH2 0xEEA JUMP JUMPDEST PUSH1 0x40 MLOAD DUP1 SWAP2 SUB SWAP1 REVERT JUMPDEST PUSH0 DUP3 DUP2 SLOAD DUP2 LT PUSH2 0x33D JUMPI PUSH2 0x33C PUSH2 0xBAA JUMP JUMPDEST JUMPDEST SWAP1 PUSH0 MSTORE PUSH1 0x20 PUSH0 KECCAK256 SWAP1 PUSH1 0x5 MUL ADD PUSH1 0x3 ADD PUSH0 SWAP1 SLOAD SWAP1 PUSH2 0x100 EXP SWAP1 DIV PUSH1 0xFF AND PUSH2 0x398 JUMPI PUSH1 0x40 MLOAD PUSH32 0x8C379A000000000000000000000000000000000000000000000000000000000 DUP2 MSTORE PUSH1 0x4 ADD PUSH2 0x38F SWAP1 PUSH2 0xF52 JUMP JUMPDEST PUSH1 0x40 MLOAD DUP1 SWAP2 SUB SWAP1 REVERT JUMPDEST PUSH0 DUP3 DUP2 SLOAD DUP2 LT PUSH2 0x3AB JUMPI PUSH2 0x3AA PUSH2 0xBAA JUMP JUMPDEST JUMPDEST SWAP1 PUSH0 MSTORE PUSH1 0x20 PUSH0 KECCAK256 SWAP1 PUSH1 0x5 MUL ADD PUSH1 0x1 ADD DUP1 SLOAD SWAP1 POP DUP2 LT PUSH2 0x3FF JUMPI PUSH1 0x40 MLOAD PUSH32 0x8C379A000000000000000000000000000000000000000000000000000000000 DUP2 MSTORE PUSH1 0x4 ADD PUSH2 0x3F6 SWAP1 PUSH2 0xFBA JUMP JUMPDEST PUSH1 0x40 MLOAD DUP1 SWAP2 SUB SWAP1 REVERT JUMPDEST PUSH0 ISZERO ISZERO PUSH0 DUP4 DUP2 SLOAD DUP2 LT PUSH2 0x415 JUMPI PUSH2 0x414 PUSH2 0xBAA JUMP JUMPDEST JUMPDEST SWAP1 PUSH0 MSTORE PUSH1 0x20 PUSH0 KECCAK256 SWAP1 PUSH1 0x5 MUL ADD PUSH1 0x4 ADD PUSH0 CALLER PUSH20 0xFFFFFFFFFFFFFFFFFFFFFFFFFFFFFFFFFFFFFFFF AND PUSH20 0xFFFFFFFFFFFFFFFFFFFFFFFFFFFFFFFFFFFFFFFF AND DUP2 MSTORE PUSH1 0x20 ADD SWAP1 DUP2 MSTORE PUSH1 0x20 ADD PUSH0 KECCAK256 PUSH0 SWAP1 SLOAD SWAP1 PUSH2 0x100 EXP SWAP1 DIV PUSH1 0xFF AND ISZERO ISZERO EQ PUSH2 0x4AE JUMPI PUSH1 0x40 MLOAD PUSH32 0x8C379A000000000000000000000000000000000000000000000000000000000 DUP2 MSTORE PUSH1 0x4 ADD PUSH2 0x4A5 SWAP1 PUSH2 0x1022 JUMP JUMPDEST PUSH1 0x40 MLOAD DUP1 SWAP2 SUB SWAP1 REVERT JUMPDEST PUSH0 DUP3 DUP2 SLOAD DUP2 LT PUSH2 0x4C1 JUMPI PUSH2 0x4C0 PUSH2 0xBAA JUMP JUMPDEST JUMPDEST SWAP1 PUSH0 MSTORE PUSH1 0x20 PUSH0 KECCAK256 SWAP1 PUSH1 0x5 MUL ADD PUSH1 0x2 ADD DUP2 DUP2 SLOAD DUP2 LT PUSH2 0x4E2 JUMPI PUSH2 0x4E1 PUSH2 0xBAA JUMP JUMPDEST JUMPDEST SWAP1 PUSH0 MSTORE PUSH1 0x20 PUSH0 KECCAK256 ADD PUSH0 DUP2 SLOAD DUP1 SWAP3 SWAP2 SWAP1 PUSH2 0x4FA SWAP1 PUSH2 0x1040 JUMP JUMPDEST SWAP2 SWAP1 POP SSTORE POP PUSH1 0x1 PUSH0 DUP4 DUP2 SLOAD DUP2 LT PUSH2 0x514 JUMPI PUSH2 0x513 PUSH2 0xBAA JUMP JUMPDEST JUMPDEST SWAP1 PUSH0 MSTORE PUSH1 0x20 PUSH0 KECCAK256 SWAP1 PUSH1 0x5 MUL ADD PUSH1 0x4 ADD PUSH0 CALLER PUSH20 0xFFFFFFFFFFFFFFFFFFFFFFFFFFFFFFFFFFFFFFFF AND PUSH20 0xFFFFFFFFFFFFFFFFFFFFFFFFFFFFFFFFFFFFFFFF AND DUP2 MSTORE PUSH1 0x20 ADD SWAP1 DUP2 MSTORE PUSH1 0x20 ADD PUSH0 KECCAK256 PUSH0 PUSH2 0x100 EXP DUP2 SLOAD DUP2 PUSH1 0xFF MUL NOT AND SWAP1 DUP4 ISZERO ISZERO MUL OR SWAP1 SSTORE POP POP POP JUMP JUMPDEST DUP3 DUP1 SLOAD DUP3 DUP3 SSTORE SWAP1 PUSH0 MSTORE PUSH1 0x20 PUSH0 KECCAK256 SWAP1 DUP2 ADD SWAP3 DUP3 ISZERO PUSH2 0x5BE JUMPI SWAP2 PUSH1 0x20 MUL DUP3 ADD JUMPDEST DUP3 DUP2 GT ISZERO PUSH2 0x5BD JUMPI DUP3 MLOAD DUP3 SWAP1 DUP2 PUSH2 0x5AD SWAP2 SWAP1 PUSH2 0xDD1 JUMP JUMPDEST POP SWAP2 PUSH1 0x20 ADD SWAP2 SWAP1 PUSH1 0x1 ADD SWAP1 PUSH2 0x596 JUMP JUMPDEST JUMPDEST POP SWAP1 POP PUSH2 0x5CB SWAP2 SWAP1 PUSH2 0x61A JUMP JUMPDEST POP SWAP1 JUMP JUMPDEST DUP3 DUP1 SLOAD DUP3 DUP3 SSTORE SWAP1 PUSH0 MSTORE PUSH1 0x20 PUSH0 KECCAK256 SWAP1 DUP2 ADD SWAP3 DUP3 ISZERO PUSH2 0x609 JUMPI SWAP2 PUSH1 0x20 MUL DUP3 ADD JUMPDEST DUP3 DUP2 GT ISZERO PUSH2 0x608 JUMPI DUP3 MLOAD DUP3 SSTORE SWAP2 PUSH1 0x20 ADD SWAP2 SWAP1 PUSH1 0x1 ADD SWAP1 PUSH2 0x5ED JUMP JUMPDEST JUMPDEST POP SWAP1 POP PUSH2 0x616 SWAP2 SWAP1 PUSH2 0x63D JUMP JUMPDEST POP SWAP1 JUMP JUMPDEST JUMPDEST DUP1 DUP3 GT ISZERO PUSH2 0x639 JUMPI PUSH0 DUP2 DUP2 PUSH2 0x630 SWAP2 SWAP1 PUSH2 0x658 JUMP JUMPDEST POP PUSH1 0x1 ADD PUSH2 0x61B JUMP JUMPDEST POP SWAP1 JUMP JUMPDEST JUMPDEST DUP1 DUP3 GT ISZERO PUSH2 0x654 JUMPI PUSH0 DUP2 PUSH0 SWAP1 SSTORE POP PUSH1 0x1 ADD PUSH2 0x63E JUMP JUMPDEST POP SWAP1 JUMP JUMPDEST POP DUP1 SLOAD PUSH2 0x664 SWAP1 PUSH2 0xC04 JUMP JUMPDEST PUSH0 DUP3 SSTORE DUP1 PUSH1 0x1F LT PUSH2 0x675 JUMPI POP PUSH2 0x692 JUMP JUMPDEST PUSH1 0x1F ADD PUSH1 0x20 SWAP1 DIV SWAP1 PUSH0 MSTORE PUSH1 0x20 PUSH0 KECCAK256 SWAP1 DUP2 ADD SWAP1 PUSH2 0x691 SWAP2 SWAP1 PUSH2 0x63D JUMP JUMPDEST JUMPDEST POP JUMP JUMPDEST PUSH0 PUSH1 0x40 MLOAD SWAP1 POP SWAP1 JUMP JUMPDEST PUSH0 DUP1 REVERT JUMPDEST PUSH0 DUP1 REVERT JUMPDEST PUSH0 DUP1 REVERT JUMPDEST PUSH0 DUP1 REVERT JUMPDEST PUSH0 PUSH1 0x1F NOT PUSH1 0x1F DUP4 ADD AND SWAP1 POP SWAP2 SWAP1 POP JUMP JUMPDEST PUSH32 0x4E487B7100000000000000000000000000000000000000000000000000000000 PUSH0 MSTORE PUSH1 0x41 PUSH1 0x4 MSTORE PUSH1 0x24 PUSH0 REVERT JUMPDEST PUSH2 0x6F4 DUP3 PUSH2 0x6AE JUMP JUMPDEST DUP2 ADD DUP2 DUP2 LT PUSH8 0xFFFFFFFFFFFFFFFF DUP3 GT OR ISZERO PUSH2 0x713 JUMPI PUSH2 0x712 PUSH2 0x6BE JUMP JUMPDEST JUMPDEST DUP1 PUSH1 0x40 MSTORE POP POP POP JUMP JUMPDEST PUSH0 PUSH2 0x725 PUSH2 0x695 JUMP JUMPDEST SWAP1 POP PUSH2 0x731 DUP3 DUP3 PUSH2 0x6EB JUMP JUMPDEST SWAP2 SWAP1 POP JUMP JUMPDEST PUSH0 PUSH8 0xFFFFFFFFFFFFFFFF DUP3 GT ISZERO PUSH2 0x750 JUMPI PUSH2 0x74F PUSH2 0x6BE JUMP JUMPDEST JUMPDEST PUSH2 0x759 DUP3 PUSH2 0x6AE JUMP JUMPDEST SWAP1 POP PUSH1 0x20 DUP2 ADD SWAP1 POP SWAP2 SWAP1 POP JUMP JUMPDEST DUP3 DUP2 DUP4 CALLDATACOPY PUSH0 DUP4 DUP4 ADD MSTORE POP POP POP JUMP JUMPDEST PUSH0 PUSH2 0x786 PUSH2 0x781 DUP5 PUSH2 0x736 JUMP JUMPDEST PUSH2 0x71C JUMP JUMPDEST SWAP1 POP DUP3 DUP2 MSTORE PUSH1 0x20 DUP2 ADD DUP5 DUP5 DUP5 ADD GT ISZERO PUSH2 0x7A2 JUMPI PUSH2 0x7A1 PUSH2 0x6AA JUMP JUMPDEST JUMPDEST PUSH2 0x7AD DUP5 DUP3 DUP6 PUSH2 0x766 JUMP JUMPDEST POP SWAP4 SWAP3 POP POP POP JUMP JUMPDEST PUSH0 DUP3 PUSH1 0x1F DUP4 ADD SLT PUSH2 0x7C9 JUMPI PUSH2 0x7C8 PUSH2 0x6A6 JUMP JUMPDEST JUMPDEST DUP2 CALLDATALOAD PUSH2 0x7D9 DUP5 DUP3 PUSH1 0x20 DUP7 ADD PUSH2 0x774 JUMP JUMPDEST SWAP2 POP POP SWAP3 SWAP2 POP POP JUMP JUMPDEST PUSH0 PUSH8 0xFFFFFFFFFFFFFFFF DUP3 GT ISZERO PUSH2 0x7FC JUMPI PUSH2 0x7FB PUSH2 0x6BE JUMP JUMPDEST JUMPDEST PUSH1 0x20 DUP3 MUL SWAP1 POP PUSH1 0x20 DUP2 ADD SWAP1 POP SWAP2 SWAP1 POP JUMP JUMPDEST PUSH0 DUP1 REVERT JUMPDEST PUSH0 PUSH2 0x823 PUSH2 0x81E DUP5 PUSH2 0x7E2 JUMP JUMPDEST PUSH2 0x71C JUMP JUMPDEST SWAP1 POP DUP1 DUP4 DUP3 MSTORE PUSH1 0x20 DUP3 ADD SWAP1 POP PUSH1 0x20 DUP5 MUL DUP4 ADD DUP6 DUP2 GT ISZERO PUSH2 0x846 JUMPI PUSH2 0x845 PUSH2 0x80D JUMP JUMPDEST JUMPDEST DUP4 JUMPDEST DUP2 DUP2 LT ISZERO PUSH2 0x88D JUMPI DUP1 CALLDATALOAD PUSH8 0xFFFFFFFFFFFFFFFF DUP2 GT ISZERO PUSH2 0x86B JUMPI PUSH2 0x86A PUSH2 0x6A6 JUMP JUMPDEST JUMPDEST DUP1 DUP7 ADD PUSH2 0x878 DUP10 DUP3 PUSH2 0x7B5 JUMP JUMPDEST DUP6 MSTORE PUSH1 0x20 DUP6 ADD SWAP5 POP POP POP PUSH1 0x20 DUP2 ADD SWAP1 POP PUSH2 0x848 JUMP JUMPDEST POP POP POP SWAP4 SWAP3 POP POP POP JUMP JUMPDEST PUSH0 DUP3 PUSH1 0x1F DUP4 ADD SLT PUSH2 0x8AB JUMPI PUSH2 0x8AA PUSH2 0x6A6 JUMP JUMPDEST JUMPDEST DUP2 CALLDATALOAD PUSH2 0x8BB DUP5 DUP3 PUSH1 0x20 DUP7 ADD PUSH2 0x811 JUMP JUMPDEST SWAP2 POP POP SWAP3 SWAP2 POP POP JUMP JUMPDEST PUSH0 DUP2 ISZERO ISZERO SWAP1 POP SWAP2 SWAP1 POP JUMP JUMPDEST PUSH2 0x8D8 DUP2 PUSH2 0x8C4 JUMP JUMPDEST DUP2 EQ PUSH2 0x8E2 JUMPI PUSH0 DUP1 REVERT JUMPDEST POP JUMP JUMPDEST PUSH0 DUP2 CALLDATALOAD SWAP1 POP PUSH2 0x8F3 DUP2 PUSH2 0x8CF JUMP JUMPDEST SWAP3 SWAP2 POP POP JUMP JUMPDEST PUSH0 DUP1 PUSH0 PUSH1 0x60 DUP5 DUP7 SUB SLT ISZERO PUSH2 0x910 JUMPI PUSH2 0x90F PUSH2 0x69E JUMP JUMPDEST JUMPDEST PUSH0 DUP5 ADD CALLDATALOAD PUSH8 0xFFFFFFFFFFFFFFFF DUP2 GT ISZERO PUSH2 0x92D JUMPI PUSH2 0x92C PUSH2 0x6A2 JUMP JUMPDEST JUMPDEST PUSH2 0x939 DUP7 DUP3 DUP8 ADD PUSH2 0x7B5 JUMP JUMPDEST SWAP4 POP POP PUSH1 0x20 DUP5 ADD CALLDATALOAD PUSH8 0xFFFFFFFFFFFFFFFF DUP2 GT ISZERO PUSH2 0x95A JUMPI PUSH2 0x959 PUSH2 0x6A2 JUMP JUMPDEST JUMPDEST PUSH2 0x966 DUP7 DUP3 DUP8 ADD PUSH2 0x897 JUMP JUMPDEST SWAP3 POP POP PUSH1 0x40 PUSH2 0x977 DUP7 DUP3 DUP8 ADD PUSH2 0x8E5 JUMP JUMPDEST SWAP2 POP POP SWAP3 POP SWAP3 POP SWAP3 JUMP JUMPDEST PUSH0 DUP2 SWAP1 POP SWAP2 SWAP1 POP JUMP JUMPDEST PUSH2 0x993 DUP2 PUSH2 0x981 JUMP JUMPDEST DUP2 EQ PUSH2 0x99D JUMPI PUSH0 DUP1 REVERT JUMPDEST POP JUMP JUMPDEST PUSH0 DUP2 CALLDATALOAD SWAP1 POP PUSH2 0x9AE DUP2 PUSH2 0x98A JUMP JUMPDEST SWAP3 SWAP2 POP POP JUMP JUMPDEST PUSH0 PUSH1 0x20 DUP3 DUP5 SUB SLT ISZERO PUSH2 0x9C9 JUMPI PUSH2 0x9C8 PUSH2 0x69E JUMP JUMPDEST JUMPDEST PUSH0 PUSH2 0x9D6 DUP5 DUP3 DUP6 ADD PUSH2 0x9A0 JUMP JUMPDEST SWAP2 POP POP SWAP3 SWAP2 POP POP JUMP JUMPDEST PUSH0 DUP2 MLOAD SWAP1 POP SWAP2 SWAP1 POP JUMP JUMPDEST PUSH0 DUP3 DUP3 MSTORE PUSH1 0x20 DUP3 ADD SWAP1 POP SWAP3 SWAP2 POP POP JUMP JUMPDEST DUP3 DUP2 DUP4 MCOPY PUSH0 DUP4 DUP4 ADD MSTORE POP POP POP JUMP JUMPDEST PUSH0 PUSH2 0xA11 DUP3 PUSH2 0x9DF JUMP JUMPDEST PUSH2 0xA1B DUP2 DUP6 PUSH2 0x9E9 JUMP JUMPDEST SWAP4 POP PUSH2 0xA2B DUP2 DUP6 PUSH1 0x20 DUP7 ADD PUSH2 0x9F9 JUMP JUMPDEST PUSH2 0xA34 DUP2 PUSH2 0x6AE JUMP JUMPDEST DUP5 ADD SWAP2 POP POP SWAP3 SWAP2 POP POP JUMP JUMPDEST PUSH2 0xA48 DUP2 PUSH2 0x8C4 JUMP JUMPDEST DUP3 MSTORE POP POP JUMP JUMPDEST PUSH0 PUSH1 0x40 DUP3 ADD SWAP1 POP DUP2 DUP2 SUB PUSH0 DUP4 ADD MSTORE PUSH2 0xA66 DUP2 DUP6 PUSH2 0xA07 JUMP JUMPDEST SWAP1 POP PUSH2 0xA75 PUSH1 0x20 DUP4 ADD DUP5 PUSH2 0xA3F JUMP JUMPDEST SWAP4 SWAP3 POP POP POP JUMP JUMPDEST PUSH2 0xA85 DUP2 PUSH2 0x981 JUMP JUMPDEST DUP3 MSTORE POP POP JUMP JUMPDEST PUSH0 PUSH1 0x20 DUP3 ADD SWAP1 POP PUSH2 0xA9E PUSH0 DUP4 ADD DUP5 PUSH2 0xA7C JUMP JUMPDEST SWAP3 SWAP2 POP POP JUMP JUMPDEST PUSH0 DUP1 PUSH1 0x40 DUP4 DUP6 SUB SLT ISZERO PUSH2 0xABA JUMPI PUSH2 0xAB9 PUSH2 0x69E JUMP JUMPDEST JUMPDEST PUSH0 PUSH2 0xAC7 DUP6 DUP3 DUP7 ADD PUSH2 0x9A0 JUMP JUMPDEST SWAP3 POP POP PUSH1 0x20 PUSH2 0xAD8 DUP6 DUP3 DUP7 ADD PUSH2 0x9A0 JUMP JUMPDEST SWAP2 POP POP SWAP3 POP SWAP3 SWAP1 POP JUMP JUMPDEST PUSH32 0x4174206C656173742032206F7074696F6E732061726520726571756972656400 PUSH0 DUP3 ADD MSTORE POP JUMP JUMPDEST PUSH0 PUSH2 0xB16 PUSH1 0x1F DUP4 PUSH2 0x9E9 JUMP JUMPDEST SWAP2 POP PUSH2 0xB21 DUP3 PUSH2 0xAE2 JUMP JUMPDEST PUSH1 0x20 DUP3 ADD SWAP1 POP SWAP2 SWAP1 POP JUMP JUMPDEST PUSH0 PUSH1 0x20 DUP3 ADD SWAP1 POP DUP2 DUP2 SUB PUSH0 DUP4 ADD MSTORE PUSH2 0xB43 DUP2 PUSH2 0xB0A JUMP JUMPDEST SWAP1 POP SWAP2 SWAP1 POP JUMP JUMPDEST PUSH32 0x4E487B7100000000000000000000000000000000000000000000000000000000 PUSH0 MSTORE PUSH1 0x11 PUSH1 0x4 MSTORE PUSH1 0x24 PUSH0 REVERT JUMPDEST PUSH0 PUSH2 0xB81 DUP3 PUSH2 0x981 JUMP JUMPDEST SWAP2 POP PUSH2 0xB8C DUP4 PUSH2 0x981 JUMP JUMPDEST SWAP3 POP DUP3 DUP3 SUB SWAP1 POP DUP2 DUP2 GT ISZERO PUSH2 0xBA4 JUMPI PUSH2 0xBA3 PUSH2 0xB4A JUMP JUMPDEST JUMPDEST SWAP3 SWAP2 POP POP JUMP JUMPDEST PUSH32 0x4E487B7100000000000000000000000000000000000000000000000000000000 PUSH0 MSTORE PUSH1 0x32 PUSH1 0x4 MSTORE PUSH1 0x24 PUSH0 REVERT JUMPDEST PUSH32 0x4E487B7100000000000000000000000000000000000000000000000000000000 PUSH0 MSTORE PUSH1 0x22 PUSH1 0x4 MSTORE PUSH1 0x24 PUSH0 REVERT JUMPDEST PUSH0 PUSH1 0x2 DUP3 DIV SWAP1 POP PUSH1 0x1 DUP3 AND DUP1 PUSH2 0xC1B JUMPI PUSH1 0x7F DUP3 AND SWAP2 POP JUMPDEST PUSH1 0x20 DUP3 LT DUP2 SUB PUSH2 0xC2E JUMPI PUSH2 0xC2D PUSH2 0xBD7 JUMP JUMPDEST JUMPDEST POP SWAP2 SWAP1 POP JUMP JUMPDEST PUSH0 DUP2 SWAP1 POP DUP2 PUSH0 MSTORE PUSH1 0x20 PUSH0 KECCAK256 SWAP1 POP SWAP2 SWAP1 POP JUMP JUMPDEST PUSH0 PUSH1 0x20 PUSH1 0x1F DUP4 ADD DIV SWAP1 POP SWAP2 SWAP1 POP JUMP JUMPDEST PUSH0 DUP3 DUP3 SHL SWAP1 POP SWAP3 SWAP2 POP POP JUMP JUMPDEST PUSH0 PUSH1 0x8 DUP4 MUL PUSH2 0xC90 PUSH32 0xFFFFFFFFFFFFFFFFFFFFFFFFFFFFFFFFFFFFFFFFFFFFFFFFFFFFFFFFFFFFFFFF DUP3 PUSH2 0xC55 JUMP JUMPDEST PUSH2 0xC9A DUP7 DUP4 PUSH2 0xC55 JUMP JUMPDEST SWAP6 POP DUP1 NOT DUP5 AND SWAP4 POP DUP1 DUP7 AND DUP5 OR SWAP3 POP POP POP SWAP4 SWAP3 POP POP POP JUMP JUMPDEST PUSH0 DUP2 SWAP1 POP SWAP2 SWAP1 POP JUMP JUMPDEST PUSH0 PUSH2 0xCD5 PUSH2 0xCD0 PUSH2 0xCCB DUP5 PUSH2 0x981 JUMP JUMPDEST PUSH2 0xCB2 JUMP JUMPDEST PUSH2 0x981 JUMP JUMPDEST SWAP1 POP SWAP2 SWAP1 POP JUMP JUMPDEST PUSH0 DUP2 SWAP1 POP SWAP2 SWAP1 POP JUMP JUMPDEST PUSH2 0xCEE DUP4 PUSH2 0xCBB JUMP JUMPDEST PUSH2 0xD02 PUSH2 0xCFA DUP3 PUSH2 0xCDC JUMP JUMPDEST DUP5 DUP5 SLOAD PUSH2 0xC61 JUMP JUMPDEST DUP3 SSTORE POP POP POP POP JUMP JUMPDEST PUSH0 SWAP1 JUMP JUMPDEST PUSH2 0xD16 PUSH2 0xD0A JUMP JUMPDEST PUSH2 0xD21 DUP2 DUP5 DUP5 PUSH2 0xCE5 JUMP JUMPDEST POP POP POP JUMP JUMPDEST JUMPDEST DUP2 DUP2 LT ISZERO PUSH2 0xD44 JUMPI PUSH2 0xD39 PUSH0 DUP3 PUSH2 0xD0E JUMP JUMPDEST PUSH1 0x1 DUP2 ADD SWAP1 POP PUSH2 0xD27 JUMP JUMPDEST POP POP JUMP JUMPDEST PUSH1 0x1F DUP3 GT ISZERO PUSH2 0xD89 JUMPI PUSH2 0xD5A DUP2 PUSH2 0xC34 JUMP JUMPDEST PUSH2 0xD63 DUP5 PUSH2 0xC46 JUMP JUMPDEST DUP2 ADD PUSH1 0x20 DUP6 LT ISZERO PUSH2 0xD72 JUMPI DUP2 SWAP1 POP JUMPDEST PUSH2 0xD86 PUSH2 0xD7E DUP6 PUSH2 0xC46 JUMP JUMPDEST DUP4 ADD DUP3 PUSH2 0xD26 JUMP JUMPDEST POP POP JUMPDEST POP POP POP JUMP JUMPDEST PUSH0 DUP3 DUP3 SHR SWAP1 POP SWAP3 SWAP2 POP POP JUMP JUMPDEST PUSH0 PUSH2 0xDA9 PUSH0 NOT DUP5 PUSH1 0x8 MUL PUSH2 0xD8E JUMP JUMPDEST NOT DUP1 DUP4 AND SWAP2 POP POP SWAP3 SWAP2 POP POP JUMP JUMPDEST PUSH0 PUSH2 0xDC1 DUP4 DUP4 PUSH2 0xD9A JUMP JUMPDEST SWAP2 POP DUP3 PUSH1 0x2 MUL DUP3 OR SWAP1 POP SWAP3 SWAP2 POP POP JUMP JUMPDEST PUSH2 0xDDA DUP3 PUSH2 0x9DF JUMP JUMPDEST PUSH8 0xFFFFFFFFFFFFFFFF DUP2 GT ISZERO PUSH2 0xDF3 JUMPI PUSH2 0xDF2 PUSH2 0x6BE JUMP JUMPDEST JUMPDEST PUSH2 0xDFD DUP3 SLOAD PUSH2 0xC04 JUMP JUMPDEST PUSH2 0xE08 DUP3 DUP3 DUP6 PUSH2 0xD48 JUMP JUMPDEST PUSH0 PUSH1 0x20 SWAP1 POP PUSH1 0x1F DUP4 GT PUSH1 0x1 DUP2 EQ PUSH2 0xE39 JUMPI PUSH0 DUP5 ISZERO PUSH2 0xE27 JUMPI DUP3 DUP8 ADD MLOAD SWAP1 POP JUMPDEST PUSH2 0xE31 DUP6 DUP3 PUSH2 0xDB6 JUMP JUMPDEST DUP7 SSTORE POP PUSH2 0xE98 JUMP JUMPDEST PUSH1 0x1F NOT DUP5 AND PUSH2 0xE47 DUP7 PUSH2 0xC34 JUMP JUMPDEST PUSH0 JUMPDEST DUP3 DUP2 LT ISZERO PUSH2 0xE6E JUMPI DUP5 DUP10 ADD MLOAD DUP3 SSTORE PUSH1 0x1 DUP3 ADD SWAP2 POP PUSH1 0x20 DUP6 ADD SWAP5 POP PUSH1 0x20 DUP2 ADD SWAP1 POP PUSH2 0xE49 JUMP JUMPDEST DUP7 DUP4 LT ISZERO PUSH2 0xE8B JUMPI DUP5 DUP10 ADD MLOAD PUSH2 0xE87 PUSH1 0x1F DUP10 AND DUP3 PUSH2 0xD9A JUMP JUMPDEST DUP4 SSTORE POP JUMPDEST PUSH1 0x1 PUSH1 0x2 DUP9 MUL ADD DUP9 SSTORE POP POP POP JUMPDEST POP POP POP POP POP POP JUMP JUMPDEST PUSH32 0x53757276657920646F6573206E6F742065786973740000000000000000000000 PUSH0 DUP3 ADD MSTORE POP JUMP JUMPDEST PUSH0 PUSH2 0xED4 PUSH1 0x15 DUP4 PUSH2 0x9E9 JUMP JUMPDEST SWAP2 POP PUSH2 0xEDF DUP3 PUSH2 0xEA0 JUMP JUMPDEST PUSH1 0x20 DUP3 ADD SWAP1 POP SWAP2 SWAP1 POP JUMP JUMPDEST PUSH0 PUSH1 0x20 DUP3 ADD SWAP1 POP DUP2 DUP2 SUB PUSH0 DUP4 ADD MSTORE PUSH2 0xF01 DUP2 PUSH2 0xEC8 JUMP JUMPDEST SWAP1 POP SWAP2 SWAP1 POP JUMP JUMPDEST PUSH32 0x537572766579206973206E6F7420616374697665000000000000000000000000 PUSH0 DUP3 ADD MSTORE POP JUMP JUMPDEST PUSH0 PUSH2 0xF3C PUSH1 0x14 DUP4 PUSH2 0x9E9 JUMP JUMPDEST SWAP2 POP PUSH2 0xF47 DUP3 PUSH2 0xF08 JUMP JUMPDEST PUSH1 0x20 DUP3 ADD SWAP1 POP SWAP2 SWAP1 POP JUMP JUMPDEST PUSH0 PUSH1 0x20 DUP3 ADD SWAP1 POP DUP2 DUP2 SUB PUSH0 DUP4 ADD MSTORE PUSH2 0xF69 DUP2 PUSH2 0xF30 JUMP JUMPDEST SWAP1 POP SWAP2 SWAP1 POP JUMP JUMPDEST PUSH32 0x496E76616C6964206F7074696F6E20696E646578000000000000000000000000 PUSH0 DUP3 ADD MSTORE POP JUMP JUMPDEST PUSH0 PUSH2 0xFA4 PUSH1 0x14 DUP4 PUSH2 0x9E9 JUMP JUMPDEST SWAP2 POP PUSH2 0xFAF DUP3 PUSH2 0xF70 JUMP JUMPDEST PUSH1 0x20 DUP3 ADD SWAP1 POP SWAP2 SWAP1 POP JUMP JUMPDEST PUSH0 PUSH1 0x20 DUP3 ADD SWAP1 POP DUP2 DUP2 SUB PUSH0 DUP4 ADD MSTORE PUSH2 0xFD1 DUP2 PUSH2 0xF98 JUMP JUMPDEST SWAP1 POP SWAP2 SWAP1 POP JUMP JUMPDEST PUSH32 0x557365722068617320616C726561647920766F74656400000000000000000000 PUSH0 DUP3 ADD MSTORE POP JUMP JUMPDEST PUSH0 PUSH2 0x100C PUSH1 0x16 DUP4 PUSH2 0x9E9 JUMP JUMPDEST SWAP2 POP PUSH2 0x1017 DUP3 PUSH2 0xFD8 JUMP JUMPDEST PUSH1 0x20 DUP3 ADD SWAP1 POP SWAP2 SWAP1 POP JUMP JUMPDEST PUSH0 PUSH1 0x20 DUP3 ADD SWAP1 POP DUP2 DUP2 SUB PUSH0 DUP4 ADD MSTORE PUSH2 0x1039 DUP2 PUSH2 0x1000 JUMP JUMPDEST SWAP1 POP SWAP2 SWAP1 POP JUMP JUMPDEST PUSH0 PUSH2 0x104A DUP3 PUSH2 0x981 JUMP JUMPDEST SWAP2 POP PUSH32 0xFFFFFFFFFFFFFFFFFFFFFFFFFFFFFFFFFFFFFFFFFFFFFFFFFFFFFFFFFFFFFFFF DUP3 SUB PUSH2 0x107C JUMPI PUSH2 0x107B PUSH2 0xB4A JUMP JUMPDEST JUMPDEST PUSH1 0x1 DUP3 ADD SWAP1 POP SWAP2 SWAP1 POP JUMP INVALID LOG2 PUSH5 0x6970667358 0x22 SLT KECCAK256 DUP8 SUB 0xB9 0xD EXTCODESIZE 0xE6 RETURNDATACOPY 0x1F 0xB8 PUSH0 PUSH9 0xE362BF93291476F597 0xC6 SWAP16 RETURNDATASIZE 0xC3 DUP7 0xCA 0xB7 0xDB MLOAD 0x27 DUP7 RETURN PUSH5 0x736F6C6343 STOP ADDMOD BYTE STOP CALLER LOG2 PUSH5 0x6970667358 0x22 SLT KECCAK256 GASLIMIT PUSH11 0x638527188C670471D92479 0xEF 0xCE LOG3 PUSH13 0x2A87008D5A85D8A34A15B59285 SWAP10 PUSH20 0x64736F6C634300081A0033000000000000000000 "
		},
		"gasEstimates": {
			"creation": {
				"codeDepositCost": "2288800",
				"executionCost": "infinite",
				"totalCost": "infinite"
			},
			"external": {
				"allowance(address,address)": "infinite",
				"approve(address,uint256)": "infinite",
				"balanceOf(address)": "2874",
				"burn(uint256)": "infinite",
				"burnFrom(address,uint256)": "infinite",
				"cap()": "infinite",
				"createCrumbContract()": "infinite",
				"decimals()": "383",
				"name()": "infinite",
				"owner()": "2537",
				"renounceOwnership()": "infinite",
				"requestSurveyCreationOnCrumb(string,string[],bool)": "infinite",
				"symbol()": "infinite",
				"totalSupply()": "2522",
				"transfer(address,uint256)": "infinite",
				"transferFrom(address,address,uint256)": "infinite",
				"transferOwnership(address)": "infinite"
			},
			"internal": {
				"_update(address,address,uint256)": "infinite"
			}
		},
		"methodIdentifiers": {
			"allowance(address,address)": "dd62ed3e",
			"approve(address,uint256)": "095ea7b3",
			"balanceOf(address)": "70a08231",
			"burn(uint256)": "42966c68",
			"burnFrom(address,uint256)": "79cc6790",
			"cap()": "355274ea",
			"createCrumbContract()": "4735c94c",
			"decimals()": "313ce567",
			"name()": "06fdde03",
			"owner()": "8da5cb5b",
			"renounceOwnership()": "715018a6",
			"requestSurveyCreationOnCrumb(string,string[],bool)": "0528395e",
			"symbol()": "95d89b41",
			"totalSupply()": "18160ddd",
			"transfer(address,uint256)": "a9059cbb",
			"transferFrom(address,address,uint256)": "23b872dd",
			"transferOwnership(address)": "f2fde38b"
		}
	},
	"abi": [
		{
			"inputs": [],
			"stateMutability": "nonpayable",
			"type": "constructor"
		},
		{
			"inputs": [
				{
					"internalType": "uint256",
					"name": "increasedSupply",
					"type": "uint256"
				},
				{
					"internalType": "uint256",
					"name": "cap",
					"type": "uint256"
				}
			],
			"name": "ERC20ExceededCap",
			"type": "error"
		},
		{
			"inputs": [
				{
					"internalType": "address",
					"name": "spender",
					"type": "address"
				},
				{
					"internalType": "uint256",
					"name": "allowance",
					"type": "uint256"
				},
				{
					"internalType": "uint256",
					"name": "needed",
					"type": "uint256"
				}
			],
			"name": "ERC20InsufficientAllowance",
			"type": "error"
		},
		{
			"inputs": [
				{
					"internalType": "address",
					"name": "sender",
					"type": "address"
				},
				{
					"internalType": "uint256",
					"name": "balance",
					"type": "uint256"
				},
				{
					"internalType": "uint256",
					"name": "needed",
					"type": "uint256"
				}
			],
			"name": "ERC20InsufficientBalance",
			"type": "error"
		},
		{
			"inputs": [
				{
					"internalType": "address",
					"name": "approver",
					"type": "address"
				}
			],
			"name": "ERC20InvalidApprover",
			"type": "error"
		},
		{
			"inputs": [
				{
					"internalType": "uint256",
					"name": "cap",
					"type": "uint256"
				}
			],
			"name": "ERC20InvalidCap",
			"type": "error"
		},
		{
			"inputs": [
				{
					"internalType": "address",
					"name": "receiver",
					"type": "address"
				}
			],
			"name": "ERC20InvalidReceiver",
			"type": "error"
		},
		{
			"inputs": [
				{
					"internalType": "address",
					"name": "sender",
					"type": "address"
				}
			],
			"name": "ERC20InvalidSender",
			"type": "error"
		},
		{
			"inputs": [
				{
					"internalType": "address",
					"name": "spender",
					"type": "address"
				}
			],
			"name": "ERC20InvalidSpender",
			"type": "error"
		},
		{
			"inputs": [
				{
					"internalType": "address",
					"name": "owner",
					"type": "address"
				}
			],
			"name": "OwnableInvalidOwner",
			"type": "error"
		},
		{
			"inputs": [
				{
					"internalType": "address",
					"name": "account",
					"type": "address"
				}
			],
			"name": "OwnableUnauthorizedAccount",
			"type": "error"
		},
		{
			"anonymous": false,
			"inputs": [
				{
					"indexed": true,
					"internalType": "address",
					"name": "owner",
					"type": "address"
				},
				{
					"indexed": true,
					"internalType": "address",
					"name": "spender",
					"type": "address"
				},
				{
					"indexed": false,
					"internalType": "uint256",
					"name": "value",
					"type": "uint256"
				}
			],
			"name": "Approval",
			"type": "event"
		},
		{
			"anonymous": false,
			"inputs": [
				{
					"indexed": true,
					"internalType": "address",
					"name": "previousOwner",
					"type": "address"
				},
				{
					"indexed": true,
					"internalType": "address",
					"name": "newOwner",
					"type": "address"
				}
			],
			"name": "OwnershipTransferred",
			"type": "event"
		},
		{
			"anonymous": false,
			"inputs": [
				{
					"indexed": true,
					"internalType": "address",
					"name": "from",
					"type": "address"
				},
				{
					"indexed": true,
					"internalType": "address",
					"name": "to",
					"type": "address"
				},
				{
					"indexed": false,
					"internalType": "uint256",
					"name": "value",
					"type": "uint256"
				}
			],
			"name": "Transfer",
			"type": "event"
		},
		{
			"inputs": [
				{
					"internalType": "address",
					"name": "owner",
					"type": "address"
				},
				{
					"internalType": "address",
					"name": "spender",
					"type": "address"
				}
			],
			"name": "allowance",
			"outputs": [
				{
					"internalType": "uint256",
					"name": "",
					"type": "uint256"
				}
			],
			"stateMutability": "view",
			"type": "function"
		},
		{
			"inputs": [
				{
					"internalType": "address",
					"name": "spender",
					"type": "address"
				},
				{
					"internalType": "uint256",
					"name": "value",
					"type": "uint256"
				}
			],
			"name": "approve",
			"outputs": [
				{
					"internalType": "bool",
					"name": "",
					"type": "bool"
				}
			],
			"stateMutability": "nonpayable",
			"type": "function"
		},
		{
			"inputs": [
				{
					"internalType": "address",
					"name": "account",
					"type": "address"
				}
			],
			"name": "balanceOf",
			"outputs": [
				{
					"internalType": "uint256",
					"name": "",
					"type": "uint256"
				}
			],
			"stateMutability": "view",
			"type": "function"
		},
		{
			"inputs": [
				{
					"internalType": "uint256",
					"name": "value",
					"type": "uint256"
				}
			],
			"name": "burn",
			"outputs": [],
			"stateMutability": "nonpayable",
			"type": "function"
		},
		{
			"inputs": [
				{
					"internalType": "address",
					"name": "account",
					"type": "address"
				},
				{
					"internalType": "uint256",
					"name": "value",
					"type": "uint256"
				}
			],
			"name": "burnFrom",
			"outputs": [],
			"stateMutability": "nonpayable",
			"type": "function"
		},
		{
			"inputs": [],
			"name": "cap",
			"outputs": [
				{
					"internalType": "uint256",
					"name": "",
					"type": "uint256"
				}
			],
			"stateMutability": "view",
			"type": "function"
		},
		{
			"inputs": [],
			"name": "createCrumbContract",
			"outputs": [],
			"stateMutability": "nonpayable",
			"type": "function"
		},
		{
			"inputs": [],
			"name": "decimals",
			"outputs": [
				{
					"internalType": "uint8",
					"name": "",
					"type": "uint8"
				}
			],
			"stateMutability": "view",
			"type": "function"
		},
		{
			"inputs": [],
			"name": "name",
			"outputs": [
				{
					"internalType": "string",
					"name": "",
					"type": "string"
				}
			],
			"stateMutability": "view",
			"type": "function"
		},
		{
			"inputs": [],
			"name": "owner",
			"outputs": [
				{
					"internalType": "address",
					"name": "",
					"type": "address"
				}
			],
			"stateMutability": "view",
			"type": "function"
		},
		{
			"inputs": [],
			"name": "renounceOwnership",
			"outputs": [],
			"stateMutability": "nonpayable",
			"type": "function"
		},
		{
			"inputs": [
				{
					"internalType": "string",
					"name": "_question",
					"type": "string"
				},
				{
					"internalType": "string[]",
					"name": "_options",
					"type": "string[]"
				},
				{
					"internalType": "bool",
					"name": "_initialActiveState",
					"type": "bool"
				}
			],
			"name": "requestSurveyCreationOnCrumb",
			"outputs": [],
			"stateMutability": "nonpayable",
			"type": "function"
		},
		{
			"inputs": [],
			"name": "symbol",
			"outputs": [
				{
					"internalType": "string",
					"name": "",
					"type": "string"
				}
			],
			"stateMutability": "view",
			"type": "function"
		},
		{
			"inputs": [],
			"name": "totalSupply",
			"outputs": [
				{
					"internalType": "uint256",
					"name": "",
					"type": "uint256"
				}
			],
			"stateMutability": "view",
			"type": "function"
		},
		{
			"inputs": [
				{
					"internalType": "address",
					"name": "to",
					"type": "address"
				},
				{
					"internalType": "uint256",
					"name": "value",
					"type": "uint256"
				}
			],
			"name": "transfer",
			"outputs": [
				{
					"internalType": "bool",
					"name": "",
					"type": "bool"
				}
			],
			"stateMutability": "nonpayable",
			"type": "function"
		},
		{
			"inputs": [
				{
					"internalType": "address",
					"name": "from",
					"type": "address"
				},
				{
					"internalType": "address",
					"name": "to",
					"type": "address"
				},
				{
					"internalType": "uint256",
					"name": "value",
					"type": "uint256"
				}
			],
			"name": "transferFrom",
			"outputs": [
				{
					"internalType": "bool",
					"name": "",
					"type": "bool"
				}
			],
			"stateMutability": "nonpayable",
			"type": "function"
		},
		{
			"inputs": [
				{
					"internalType": "address",
					"name": "newOwner",
					"type": "address"
				}
			],
			"name": "transferOwnership",
			"outputs": [],
			"stateMutability": "nonpayable",
			"type": "function"
		}
	]
}